{
  "transactions": [
    {
      "hash": "0x22f1b139b5a0879440d49e55a878f4b2e32b356c548a2bba65ae16459b88c6d9",
      "transactionType": "CALL",
      "contractName": "StarkNetToken",
      "contractAddress": "0xCa14007Eff0dB1f8135f4C25B34De49AB0d42766",
      "function": "approve(address,uint256)",
      "arguments": [
        "0x7eb4C59eABE1234E8A6D02FdF4d1BB595C4702Cd",
        "115792089237316195423570985008687907853269984665640564039457584007913129639935"
      ],
      "transaction": {
        "type": "0x02",
        "from": "0xddb342ecc94236c29a5307d3757d0724d759453c",
        "to": "0xca14007eff0db1f8135f4c25b34de49ab0d42766",
        "gas": "0x93a9",
        "value": "0x0",
        "data": "0x095ea7b30000000000000000000000007eb4c59eabe1234e8a6d02fdf4d1bb595c4702cdffffffffffffffffffffffffffffffffffffffffffffffffffffffffffffffff",
        "nonce": "0x375",
        "accessList": []
      },
      "additionalContracts": [],
      "isFixedGasLimit": false
    },
    {
      "hash": "0xab661d052651ce65f718edda9bbbbb13d1e2f788022c160d256339be0a92ad8a",
      "transactionType": "CALL",
      "contractName": null,
      "contractAddress": "0x7eb4C59eABE1234E8A6D02FdF4d1BB595C4702Cd",
      "function": "setL2EndpointAddress(uint256)",
      "arguments": [
        "3574983005729108333785250415627542978423840714815849409351804065483114960853"
      ],
      "transaction": {
        "type": "0x02",
        "from": "0xddb342ecc94236c29a5307d3757d0724d759453c",
        "to": "0x7eb4c59eabe1234e8a6d02fdf4d1bb595c4702cd",
        "gas": "0xabab",
        "value": "0x0",
        "data": "0x5155fb2f07e75e6188d73aaa530e1e5ae0b405dc8f4f73323cba3f63470fc94f31f457d5",
        "nonce": "0x376",
        "accessList": []
      },
      "additionalContracts": [],
      "isFixedGasLimit": false
    }
  ],
  "receipts": [],
  "libraries": [],
  "pending": [
    "0x22f1b139b5a0879440d49e55a878f4b2e32b356c548a2bba65ae16459b88c6d9",
    "0xab661d052651ce65f718edda9bbbbb13d1e2f788022c160d256339be0a92ad8a"
  ],
  "returns": {},
  "timestamp": 1732653843,
  "chain": 11155111,
  "multi": false,
  "commit": "1254ada"
}