{
  "transactions": [
    {
      "hash": "0xc9b7f2920c53fd5f3a3b014460899387498107a27c0a0c38ad237bc81358fc06",
      "transactionType": "CALL",
      "contractName": "StarkNetToken",
      "contractAddress": "0xCa14007Eff0dB1f8135f4C25B34De49AB0d42766",
      "function": "approve(address,uint256)",
      "arguments": [
        "0x43fD0A68732aBc3fff6696A12E3C2Dc899AC246e",
        "115792089237316195423570985008687907853269984665640564039457584007913129639935"
      ],
      "transaction": {
        "type": "0x02",
        "from": "0xddb342ecc94236c29a5307d3757d0724d759453c",
        "to": "0xca14007eff0db1f8135f4c25b34de49ab0d42766",
        "gas": "0x93a9",
        "value": "0x0",
        "data": "0x095ea7b300000000000000000000000043fd0a68732abc3fff6696a12e3c2dc899ac246effffffffffffffffffffffffffffffffffffffffffffffffffffffffffffffff",
        "nonce": "0x20d",
        "accessList": []
      },
      "additionalContracts": [],
      "isFixedGasLimit": false
    },
    {
      "hash": "0x37e84fae49d52a56e34be1ac95238fcb05e3e9fe179f9a399fe0540ee1f58daf",
      "transactionType": "CALL",
      "contractName": "StarkNetToken",
      "contractAddress": "0xCa14007Eff0dB1f8135f4C25B34De49AB0d42766",
      "function": "transfer(address,uint256)",
      "arguments": [
        "0x43fD0A68732aBc3fff6696A12E3C2Dc899AC246e",
        "1000000000000000"
      ],
      "transaction": {
        "type": "0x02",
        "from": "0xddb342ecc94236c29a5307d3757d0724d759453c",
        "to": "0xca14007eff0db1f8135f4c25b34de49ab0d42766",
        "gas": "0xe427",
        "value": "0x0",
        "data": "0xa9059cbb00000000000000000000000043fd0a68732abc3fff6696a12e3c2dc899ac246e00000000000000000000000000000000000000000000000000038d7ea4c68000",
        "nonce": "0x20e",
        "accessList": []
      },
      "additionalContracts": [],
      "isFixedGasLimit": false
    },
    {
      "hash": "0x84dec18c888365dc056eece3d9f633dd20f7f3ff3b8f138e90aa6da1f327fca5",
      "transactionType": "CALL",
      "contractName": "L1TWAMMBridge",
      "contractAddress": "0x43fD0A68732aBc3fff6696A12E3C2Dc899AC246e",
      "function": "depositAndCreateOrder((address,uint256,uint256,uint128,uint128,uint128,uint128,uint256))",
      "arguments": [
        "(0xDdb342ecc94236c29a5307d3757d0724D759453C, 2009894490435840142178314390393166646092438090257831307886760648929397478285, 2366254414417873771392932940469309727793822550615514268240785277201753657472, 0, 1730985888, 1730985952, 1000000000000000, 720497044718282856132808402811211455430767220625338061895696555375981203244)"
      ],
      "transaction": {
        "type": "0x02",
        "from": "0xddb342ecc94236c29a5307d3757d0724d759453c",
        "to": "0x43fd0a68732abc3fff6696a12e3c2dc899ac246e",
        "gas": "0x3a53a",
        "value": "0x2386f26fc10000",
        "data": "0x5ce510fa000000000000000000000000ddb342ecc94236c29a5307d3757d0724d759453c04718f5a0fc34cc1af16a1cdee98ffb20c31f5cd61d6ab07201858f4287c938d053b40a647cedfca6ca84f542a0fe36736031905a9639a7f19a3c1e66bfd5080000000000000000000000000000000000000000000000000000000000000000000000000000000000000000000000000000000000000000000000000672cbfa000000000000000000000000000000000000000000000000000000000672cbfe000000000000000000000000000000000000000000000000000038d7ea4c680000197c970b2bdffa49baa467519256e86311f2acd7175501954f364bec47b8f2c",
        "nonce": "0x20f",
        "accessList": []
      },
      "additionalContracts": [],
      "isFixedGasLimit": false
    }
  ],
  "receipts": [
    {
      "transactionHash": "0xc9b7f2920c53fd5f3a3b014460899387498107a27c0a0c38ad237bc81358fc06",
      "transactionIndex": "0x5",
      "blockHash": "0x6bb663bc6f69ff8358a896eeeac97e9260e2c856e027e1cec2a8baeb95ef79e3",
      "blockNumber": "0x6b4654",
      "from": "0xDdb342ecc94236c29a5307d3757d0724D759453C",
      "to": "0xCa14007Eff0dB1f8135f4C25B34De49AB0d42766",
      "cumulativeGasUsed": "0x6289e",
      "gasUsed": "0x6ae8",
      "contractAddress": null,
      "logs": [
        {
          "address": "0xCa14007Eff0dB1f8135f4C25B34De49AB0d42766",
          "topics": [
            "0x8c5be1e5ebec7d5bd14f71427d1e84f3dd0314c0f7b2291e5b200ac8c7c3b925",
            "0x000000000000000000000000ddb342ecc94236c29a5307d3757d0724d759453c",
            "0x00000000000000000000000043fd0a68732abc3fff6696a12e3c2dc899ac246e"
          ],
          "data": "0xffffffffffffffffffffffffffffffffffffffffffffffffffffffffffffffff",
          "blockHash": "0x6bb663bc6f69ff8358a896eeeac97e9260e2c856e027e1cec2a8baeb95ef79e3",
          "blockNumber": "0x6b4654",
          "transactionHash": "0xc9b7f2920c53fd5f3a3b014460899387498107a27c0a0c38ad237bc81358fc06",
          "transactionIndex": "0x5",
          "logIndex": "0x9",
          "removed": false
        }
      ],
      "status": "0x1",
      "logsBloom": "0x00000000000000000000000000000000000000000000000000000000000000000000000000000000000000000000000000000000020000000000000000200000000000000000000000000000000000000000000000000000000000000040000400000000000000000000000000000000400000000000000000000000400000000000000000000000000000000000000000000000000000000000000000000000020000000000000000000000000000000000000000000000000000000000000000000000000000020002000000000000000000000000000000800000000000000010000000000000000000000000000000000000001000000000000000000000",
      "type": "0x2",
      "effectiveGasPrice": "0x1ed6d9cae"
    },
    {
      "transactionHash": "0x37e84fae49d52a56e34be1ac95238fcb05e3e9fe179f9a399fe0540ee1f58daf",
      "transactionIndex": "0x6",
      "blockHash": "0x6bb663bc6f69ff8358a896eeeac97e9260e2c856e027e1cec2a8baeb95ef79e3",
      "blockNumber": "0x6b4654",
      "from": "0xDdb342ecc94236c29a5307d3757d0724D759453C",
      "to": "0xCa14007Eff0dB1f8135f4C25B34De49AB0d42766",
      "cumulativeGasUsed": "0x6c49f",
      "gasUsed": "0x9c01",
      "contractAddress": null,
      "logs": [
        {
          "address": "0xCa14007Eff0dB1f8135f4C25B34De49AB0d42766",
          "topics": [
            "0xddf252ad1be2c89b69c2b068fc378daa952ba7f163c4a11628f55a4df523b3ef",
            "0x000000000000000000000000ddb342ecc94236c29a5307d3757d0724d759453c",
            "0x00000000000000000000000043fd0a68732abc3fff6696a12e3c2dc899ac246e"
          ],
          "data": "0x00000000000000000000000000000000000000000000000000038d7ea4c68000",
          "blockHash": "0x6bb663bc6f69ff8358a896eeeac97e9260e2c856e027e1cec2a8baeb95ef79e3",
          "blockNumber": "0x6b4654",
          "transactionHash": "0x37e84fae49d52a56e34be1ac95238fcb05e3e9fe179f9a399fe0540ee1f58daf",
          "transactionIndex": "0x6",
          "logIndex": "0xa",
          "removed": false
        }
      ],
      "status": "0x1",
      "logsBloom": "0x00000000000000000000000000000000000000000000000000000000000000000000000000000000000000000000000000000000020000000000000000000000000000000000000000000008000000000000000000000000000000000040000400000000000000000000000000000000400000000000000000000010400000000000000000000000000000000000000000000000000000000000000000000000000000000000000000000000000000000000000000000000000000000000000000000002000000020002000000000000000000000000000000800000000000000000000000000000000000000000000000000000001000000000000000000000",
      "type": "0x2",
      "effectiveGasPrice": "0x1ed6d9cae"
    },
    {
      "transactionHash": "0x84dec18c888365dc056eece3d9f633dd20f7f3ff3b8f138e90aa6da1f327fca5",
      "transactionIndex": "0x7",
      "blockHash": "0x6bb663bc6f69ff8358a896eeeac97e9260e2c856e027e1cec2a8baeb95ef79e3",
      "blockNumber": "0x6b4654",
      "from": "0xDdb342ecc94236c29a5307d3757d0724D759453C",
      "to": "0x43fD0A68732aBc3fff6696A12E3C2Dc899AC246e",
      "cumulativeGasUsed": "0x96843",
      "gasUsed": "0x2a3a4",
      "contractAddress": null,
      "logs": [
        {
          "address": "0xCa14007Eff0dB1f8135f4C25B34De49AB0d42766",
          "topics": [
            "0xddf252ad1be2c89b69c2b068fc378daa952ba7f163c4a11628f55a4df523b3ef",
            "0x000000000000000000000000ddb342ecc94236c29a5307d3757d0724d759453c",
            "0x00000000000000000000000043fd0a68732abc3fff6696a12e3c2dc899ac246e"
          ],
          "data": "0x00000000000000000000000000000000000000000000000000038d7ea4c68000",
          "blockHash": "0x6bb663bc6f69ff8358a896eeeac97e9260e2c856e027e1cec2a8baeb95ef79e3",
          "blockNumber": "0x6b4654",
          "transactionHash": "0x84dec18c888365dc056eece3d9f633dd20f7f3ff3b8f138e90aa6da1f327fca5",
          "transactionIndex": "0x7",
          "logIndex": "0xb",
          "removed": false
        },
        {
          "address": "0xCa14007Eff0dB1f8135f4C25B34De49AB0d42766",
          "topics": [
            "0x8c5be1e5ebec7d5bd14f71427d1e84f3dd0314c0f7b2291e5b200ac8c7c3b925",
            "0x00000000000000000000000043fd0a68732abc3fff6696a12e3c2dc899ac246e",
            "0x000000000000000000000000ce5485cfb26914c5dce00b9baf0580364dafc7a4"
          ],
          "data": "0x0000000000000000000000000000000000000000000000000000000000000000",
          "blockHash": "0x6bb663bc6f69ff8358a896eeeac97e9260e2c856e027e1cec2a8baeb95ef79e3",
          "blockNumber": "0x6b4654",
          "transactionHash": "0x84dec18c888365dc056eece3d9f633dd20f7f3ff3b8f138e90aa6da1f327fca5",
          "transactionIndex": "0x7",
          "logIndex": "0xc",
          "removed": false
        },
        {
          "address": "0xCa14007Eff0dB1f8135f4C25B34De49AB0d42766",
          "topics": [
            "0x8c5be1e5ebec7d5bd14f71427d1e84f3dd0314c0f7b2291e5b200ac8c7c3b925",
            "0x00000000000000000000000043fd0a68732abc3fff6696a12e3c2dc899ac246e",
            "0x000000000000000000000000ce5485cfb26914c5dce00b9baf0580364dafc7a4"
          ],
          "data": "0x00000000000000000000000000000000000000000000000000038d7ea4c68000",
          "blockHash": "0x6bb663bc6f69ff8358a896eeeac97e9260e2c856e027e1cec2a8baeb95ef79e3",
          "blockNumber": "0x6b4654",
          "transactionHash": "0x84dec18c888365dc056eece3d9f633dd20f7f3ff3b8f138e90aa6da1f327fca5",
          "transactionIndex": "0x7",
          "logIndex": "0xd",
          "removed": false
        },
        {
          "address": "0xCa14007Eff0dB1f8135f4C25B34De49AB0d42766",
          "topics": [
            "0x8c5be1e5ebec7d5bd14f71427d1e84f3dd0314c0f7b2291e5b200ac8c7c3b925",
            "0x00000000000000000000000043fd0a68732abc3fff6696a12e3c2dc899ac246e",
            "0x000000000000000000000000ce5485cfb26914c5dce00b9baf0580364dafc7a4"
          ],
          "data": "0x0000000000000000000000000000000000000000000000000000000000000000",
          "blockHash": "0x6bb663bc6f69ff8358a896eeeac97e9260e2c856e027e1cec2a8baeb95ef79e3",
          "blockNumber": "0x6b4654",
          "transactionHash": "0x84dec18c888365dc056eece3d9f633dd20f7f3ff3b8f138e90aa6da1f327fca5",
          "transactionIndex": "0x7",
          "logIndex": "0xe",
          "removed": false
        },
        {
          "address": "0xCa14007Eff0dB1f8135f4C25B34De49AB0d42766",
          "topics": [
            "0xddf252ad1be2c89b69c2b068fc378daa952ba7f163c4a11628f55a4df523b3ef",
            "0x00000000000000000000000043fd0a68732abc3fff6696a12e3c2dc899ac246e",
            "0x000000000000000000000000ce5485cfb26914c5dce00b9baf0580364dafc7a4"
          ],
          "data": "0x00000000000000000000000000000000000000000000000000038d7ea4c68000",
          "blockHash": "0x6bb663bc6f69ff8358a896eeeac97e9260e2c856e027e1cec2a8baeb95ef79e3",
          "blockNumber": "0x6b4654",
          "transactionHash": "0x84dec18c888365dc056eece3d9f633dd20f7f3ff3b8f138e90aa6da1f327fca5",
          "transactionIndex": "0x7",
          "logIndex": "0xf",
          "removed": false
        },
        {
          "address": "0xE2Bb56ee936fd6433DC0F6e7e3b8365C906AA057",
          "topics": [
            "0xdb80dd488acf86d17c747445b0eabb5d57c541d3bd7b6b87af987858e5066b2b",
            "0x000000000000000000000000ce5485cfb26914c5dce00b9baf0580364dafc7a4",
            "0x0594c1582459ea03f77deaf9eb7e3917d6994a03c13405ba42867f83d85f085d",
            "0x008bce41827dd5484d80312a2e43bc42a896e3fcf75bf84c2b49339168dfa00a"
          ],
          "data": "0x0000000000000000000000000000000000000000000000000000000000000060000000000000000000000000000000000000000000000000000000000000277d000000000000000000000000000000000000000000000000002386f26fc10000000000000000000000000000000000000000000000000000000000000000000d000000000000000000000000ca14007eff0db1f8135f4c25b34de49ab0d4276600000000000000000000000043fd0a68732abc3fff6696a12e3c2dc899ac246e0197c970b2bdffa49baa467519256e86311f2acd7175501954f364bec47b8f2c00000000000000000000000000000000000000000000000000038d7ea4c68000000000000000000000000000000000000000000000000000000000000000000000000000000000000000000000000000000000000000000000000000000000070000000000000000000000000000000000000000000000000000000000000000000000000000000000000000ddb342ecc94236c29a5307d3757d0724d759453c04718f5a0fc34cc1af16a1cdee98ffb20c31f5cd61d6ab07201858f4287c938d053b40a647cedfca6ca84f542a0fe36736031905a9639a7f19a3c1e66bfd5080000000000000000000000000000000000000000000000000000000000000000000000000000000000000000000000000000000000000000000000000672cbfa000000000000000000000000000000000000000000000000000000000672cbfe0",
          "blockHash": "0x6bb663bc6f69ff8358a896eeeac97e9260e2c856e027e1cec2a8baeb95ef79e3",
          "blockNumber": "0x6b4654",
          "transactionHash": "0x84dec18c888365dc056eece3d9f633dd20f7f3ff3b8f138e90aa6da1f327fca5",
          "transactionIndex": "0x7",
          "logIndex": "0x10",
          "removed": false
        },
        {
          "address": "0xcE5485Cfb26914C5dcE00B9BAF0580364daFC7a4",
          "topics": [
            "0x2203a49c69f1a46c1164f5e4a30643dd77b7c59c0ff9bc433256048365c247f1",
            "0x00000000000000000000000043fd0a68732abc3fff6696a12e3c2dc899ac246e",
            "0x000000000000000000000000ca14007eff0db1f8135f4c25b34de49ab0d42766",
            "0x0197c970b2bdffa49baa467519256e86311f2acd7175501954f364bec47b8f2c"
          ],
          "data": "0x00000000000000000000000000000000000000000000000000038d7ea4c680000000000000000000000000000000000000000000000000000000000000000080000000000000000000000000000000000000000000000000000000000000277d000000000000000000000000000000000000000000000000002386f26fc1000000000000000000000000000000000000000000000000000000000000000000070000000000000000000000000000000000000000000000000000000000000000000000000000000000000000ddb342ecc94236c29a5307d3757d0724d759453c04718f5a0fc34cc1af16a1cdee98ffb20c31f5cd61d6ab07201858f4287c938d053b40a647cedfca6ca84f542a0fe36736031905a9639a7f19a3c1e66bfd5080000000000000000000000000000000000000000000000000000000000000000000000000000000000000000000000000000000000000000000000000672cbfa000000000000000000000000000000000000000000000000000000000672cbfe0",
          "blockHash": "0x6bb663bc6f69ff8358a896eeeac97e9260e2c856e027e1cec2a8baeb95ef79e3",
          "blockNumber": "0x6b4654",
          "transactionHash": "0x84dec18c888365dc056eece3d9f633dd20f7f3ff3b8f138e90aa6da1f327fca5",
          "transactionIndex": "0x7",
          "logIndex": "0x11",
          "removed": false
        },
        {
          "address": "0x43fD0A68732aBc3fff6696A12E3C2Dc899AC246e",
          "topics": [
            "0xaf43445f7721522b7a3864ed3de53d7e2e658bfa1eeffa18e1e229be68ce2545",
            "0x000000000000000000000000ddb342ecc94236c29a5307d3757d0724d759453c",
            "0x0197c970b2bdffa49baa467519256e86311f2acd7175501954f364bec47b8f2c"
          ],
          "data": "0x00000000000000000000000000000000000000000000000000038d7ea4c680000000000000000000000000000000000000000000000000000000000000000001",
          "blockHash": "0x6bb663bc6f69ff8358a896eeeac97e9260e2c856e027e1cec2a8baeb95ef79e3",
          "blockNumber": "0x6b4654",
          "transactionHash": "0x84dec18c888365dc056eece3d9f633dd20f7f3ff3b8f138e90aa6da1f327fca5",
          "transactionIndex": "0x7",
          "logIndex": "0x12",
          "removed": false
        }
      ],
      "status": "0x1",
      "logsBloom": "0x00000200000000000000000000020000000000000000000000000040000000000010000200000000000000000000000000000000020004000000020000200000000000000000000000000008080000000000000000000040001000004040000600000000100000000000000000000000400000000000000000000010400008002000000000000000000000020000000000008000000200000000000000000010020000800000000000000020000000021000001000000000000000000000000000800002000000024012000000000000000000200020000000800000000000000010000000010000000000060004000000000000001000000000000000000000",
      "type": "0x2",
      "effectiveGasPrice": "0x1ed6d9cae"
    }
  ],
  "libraries": [],
  "pending": [],
  "returns": {},
  "timestamp": 1730985962,
  "chain": 11155111,
  "multi": false,
  "commit": "e344443"
}