{
  "transactions": [
    {
      "hash": "0x484ad1ca0f5cae46276447b19d8259b8953b396b16b551b09118dbfb8cff717d",
      "transactionType": "CALL",
      "contractName": "StarkNetToken",
      "contractAddress": "0xCa14007Eff0dB1f8135f4C25B34De49AB0d42766",
      "function": "approve(address,uint256)",
      "arguments": [
        "0x7256eDF31b165EA502cd3718726dD0aa6f543b12",
        "115792089237316195423570985008687907853269984665640564039457584007913129639935"
      ],
      "transaction": {
        "type": "0x02",
        "from": "0xddb342ecc94236c29a5307d3757d0724d759453c",
        "to": "0xca14007eff0db1f8135f4c25b34de49ab0d42766",
        "gas": "0x93a9",
        "value": "0x0",
        "data": "0x095ea7b30000000000000000000000007256edf31b165ea502cd3718726dd0aa6f543b12ffffffffffffffffffffffffffffffffffffffffffffffffffffffffffffffff",
        "nonce": "0x3c5",
        "accessList": []
      },
      "additionalContracts": [],
      "isFixedGasLimit": false
    },
    {
      "hash": "0x32d7b7106cd4e52d95a054cb9406019f0d3e13da32e500847c605305fec01185",
      "transactionType": "CALL",
      "contractName": null,
      "contractAddress": "0x7256eDF31b165EA502cd3718726dD0aa6f543b12",
      "function": "depositAndCreateOrder((address,uint256,uint256,uint128,uint128,uint128,uint128))",
      "arguments": [
        "(0xDdb342ecc94236c29a5307d3757d0724D759453C, 2009894490435840142178314390393166646092438090257831307886760648929397478285, 2366254414417873771392932940469309727793822550615514268240785277201753657472, 170141183460469235273462165868118016, 1733411488, 1733411616, 500000000000000)"
      ],
      "transaction": {
        "type": "0x02",
        "from": "0xddb342ecc94236c29a5307d3757d0724d759453c",
        "to": "0x7256edf31b165ea502cd3718726dd0aa6f543b12",
        "gas": "0x4581d",
        "value": "0x1c6bf52634000",
        "data": "0x6c1cc3f4000000000000000000000000ddb342ecc94236c29a5307d3757d0724d759453c04718f5a0fc34cc1af16a1cdee98ffb20c31f5cd61d6ab07201858f4287c938d053b40a647cedfca6ca84f542a0fe36736031905a9639a7f19a3c1e66bfd5080000000000000000000000000000000000020c49ba5e353f80000000000000000000000000000000000000000000000000000000000000000000000006751c2a0000000000000000000000000000000000000000000000000000000006751c3200000000000000000000000000000000000000000000000000001c6bf52634000",
        "nonce": "0x3c6",
        "accessList": []
      },
      "additionalContracts": [],
      "isFixedGasLimit": false
    }
  ],
  "receipts": [],
  "libraries": [],
  "pending": [
    "0x484ad1ca0f5cae46276447b19d8259b8953b396b16b551b09118dbfb8cff717d",
    "0x32d7b7106cd4e52d95a054cb9406019f0d3e13da32e500847c605305fec01185"
  ],
  "returns": {},
  "timestamp": 1733411536,
  "chain": 11155111,
  "multi": false,
  "commit": "0c80a24"
}