{
  "transactions": [
    {
      "hash": "0xd5a328d17458991905ca3bda5accd7df7b39215b6efc3de6d5418b06cd424460",
      "transactionType": "CALL",
      "contractName": "StarkNetToken",
      "contractAddress": "0xCa14007Eff0dB1f8135f4C25B34De49AB0d42766",
      "function": "approve(address,uint256)",
      "arguments": [
        "0x7eb4C59eABE1234E8A6D02FdF4d1BB595C4702Cd",
        "115792089237316195423570985008687907853269984665640564039457584007913129639935"
      ],
      "transaction": {
        "type": "0x02",
        "from": "0xddb342ecc94236c29a5307d3757d0724d759453c",
        "to": "0xca14007eff0db1f8135f4c25b34de49ab0d42766",
        "gas": "0x93a9",
        "value": "0x0",
        "data": "0x095ea7b30000000000000000000000007eb4c59eabe1234e8a6d02fdf4d1bb595c4702cdffffffffffffffffffffffffffffffffffffffffffffffffffffffffffffffff",
        "nonce": "0x395",
        "accessList": []
      },
      "additionalContracts": [],
      "isFixedGasLimit": false
    },
    {
      "hash": "0x39075fe648695290f24071f4d67857047775fec57502844dc95228520b084469",
      "transactionType": "CALL",
      "contractName": null,
      "contractAddress": "0x7eb4C59eABE1234E8A6D02FdF4d1BB595C4702Cd",
      "function": "depositAndCreateOrder((address,uint256,uint256,uint128,uint128,uint128,uint128,uint256))",
      "arguments": [
        "(0xDdb342ecc94236c29a5307d3757d0724D759453C, 2009894490435840142178314390393166646092438090257831307886760648929397478285, 2366254414417873771392932940469309727793822550615514268240785277201753657472, 170141183460469235273462165868118016, 1733128576, 1733128640, 500000000000000, 1260982957119863879256996864418490802570835642900898883839531106374629143480)"
      ],
      "transaction": {
        "type": "0x02",
        "from": "0xddb342ecc94236c29a5307d3757d0724d759453c",
        "to": "0x7eb4c59eabe1234e8a6d02fdf4d1bb595c4702cd",
        "gas": "0x4515d",
        "value": "0x1c6bf52634000",
        "data": "0x5ce510fa000000000000000000000000ddb342ecc94236c29a5307d3757d0724d759453c04718f5a0fc34cc1af16a1cdee98ffb20c31f5cd61d6ab07201858f4287c938d053b40a647cedfca6ca84f542a0fe36736031905a9639a7f19a3c1e66bfd5080000000000000000000000000000000000020c49ba5e353f8000000000000000000000000000000000000000000000000000000000000000000000000674d718000000000000000000000000000000000000000000000000000000000674d71c00000000000000000000000000000000000000000000000000001c6bf5263400002c9b0e967948762be38c87ac131d2958f7988d6aff58885993f1c186a5333b8",
        "nonce": "0x396",
        "accessList": []
      },
      "additionalContracts": [],
      "isFixedGasLimit": false
    }
  ],
  "receipts": [
    {
      "transactionHash": "0xd5a328d17458991905ca3bda5accd7df7b39215b6efc3de6d5418b06cd424460",
      "transactionIndex": "0xc",
      "blockHash": "0x29cdc7ffc34b68bbacf1d369e416179927b0d2a20715349abbd4158fab8da5a3",
      "blockNumber": "0x6dc95a",
      "from": "0xDdb342ecc94236c29a5307d3757d0724D759453C",
      "to": "0xCa14007Eff0dB1f8135f4C25B34De49AB0d42766",
      "cumulativeGasUsed": "0xdbc68",
      "gasUsed": "0x6ae8",
      "contractAddress": null,
      "logs": [
        {
          "address": "0xCa14007Eff0dB1f8135f4C25B34De49AB0d42766",
          "topics": [
            "0x8c5be1e5ebec7d5bd14f71427d1e84f3dd0314c0f7b2291e5b200ac8c7c3b925",
            "0x000000000000000000000000ddb342ecc94236c29a5307d3757d0724d759453c",
            "0x0000000000000000000000007eb4c59eabe1234e8a6d02fdf4d1bb595c4702cd"
          ],
          "data": "0xffffffffffffffffffffffffffffffffffffffffffffffffffffffffffffffff",
          "blockHash": "0x29cdc7ffc34b68bbacf1d369e416179927b0d2a20715349abbd4158fab8da5a3",
          "blockNumber": "0x6dc95a",
          "transactionHash": "0xd5a328d17458991905ca3bda5accd7df7b39215b6efc3de6d5418b06cd424460",
          "transactionIndex": "0xc",
          "logIndex": "0x19",
          "removed": false
        }
      ],
      "status": "0x1",
      "logsBloom": "0x00000000000000100000000000000000000000000000000000000000000000000000000000000000000000000000000000000000000000000000000000200000000000000000000000000000000000000000000000000000000000000000000400020000000000000000000000000000400000000000000000000000400000000000000000000000000000000000000000000000000000000000000000000000020000000000000000000000000000008000000000000000000000000000000000000000000000020000000000000000000000000000000000800000000000000010000000000000000000000000000000000000001000000000000000000000",
      "type": "0x2",
      "effectiveGasPrice": "0x34149d83d"
    },
    {
      "transactionHash": "0x39075fe648695290f24071f4d67857047775fec57502844dc95228520b084469",
      "transactionIndex": "0xd",
      "blockHash": "0x29cdc7ffc34b68bbacf1d369e416179927b0d2a20715349abbd4158fab8da5a3",
      "blockNumber": "0x6dc95a",
      "from": "0xDdb342ecc94236c29a5307d3757d0724D759453C",
      "to": "0x7eb4C59eABE1234E8A6D02FdF4d1BB595C4702Cd",
      "cumulativeGasUsed": "0x10d89f",
      "gasUsed": "0x31c37",
      "contractAddress": null,
      "logs": [
        {
          "address": "0xCa14007Eff0dB1f8135f4C25B34De49AB0d42766",
          "topics": [
            "0xddf252ad1be2c89b69c2b068fc378daa952ba7f163c4a11628f55a4df523b3ef",
            "0x000000000000000000000000ddb342ecc94236c29a5307d3757d0724d759453c",
            "0x0000000000000000000000007eb4c59eabe1234e8a6d02fdf4d1bb595c4702cd"
          ],
          "data": "0x0000000000000000000000000000000000000000000000000001c6bf52634000",
          "blockHash": "0x29cdc7ffc34b68bbacf1d369e416179927b0d2a20715349abbd4158fab8da5a3",
          "blockNumber": "0x6dc95a",
          "transactionHash": "0x39075fe648695290f24071f4d67857047775fec57502844dc95228520b084469",
          "transactionIndex": "0xd",
          "logIndex": "0x1a",
          "removed": false
        },
        {
          "address": "0xCa14007Eff0dB1f8135f4C25B34De49AB0d42766",
          "topics": [
            "0x8c5be1e5ebec7d5bd14f71427d1e84f3dd0314c0f7b2291e5b200ac8c7c3b925",
            "0x0000000000000000000000007eb4c59eabe1234e8a6d02fdf4d1bb595c4702cd",
            "0x000000000000000000000000ce5485cfb26914c5dce00b9baf0580364dafc7a4"
          ],
          "data": "0x0000000000000000000000000000000000000000000000000000000000000000",
          "blockHash": "0x29cdc7ffc34b68bbacf1d369e416179927b0d2a20715349abbd4158fab8da5a3",
          "blockNumber": "0x6dc95a",
          "transactionHash": "0x39075fe648695290f24071f4d67857047775fec57502844dc95228520b084469",
          "transactionIndex": "0xd",
          "logIndex": "0x1b",
          "removed": false
        },
        {
          "address": "0xCa14007Eff0dB1f8135f4C25B34De49AB0d42766",
          "topics": [
            "0x8c5be1e5ebec7d5bd14f71427d1e84f3dd0314c0f7b2291e5b200ac8c7c3b925",
            "0x0000000000000000000000007eb4c59eabe1234e8a6d02fdf4d1bb595c4702cd",
            "0x000000000000000000000000ce5485cfb26914c5dce00b9baf0580364dafc7a4"
          ],
          "data": "0x0000000000000000000000000000000000000000000000000001c6bf52634000",
          "blockHash": "0x29cdc7ffc34b68bbacf1d369e416179927b0d2a20715349abbd4158fab8da5a3",
          "blockNumber": "0x6dc95a",
          "transactionHash": "0x39075fe648695290f24071f4d67857047775fec57502844dc95228520b084469",
          "transactionIndex": "0xd",
          "logIndex": "0x1c",
          "removed": false
        },
        {
          "address": "0xCa14007Eff0dB1f8135f4C25B34De49AB0d42766",
          "topics": [
            "0x8c5be1e5ebec7d5bd14f71427d1e84f3dd0314c0f7b2291e5b200ac8c7c3b925",
            "0x0000000000000000000000007eb4c59eabe1234e8a6d02fdf4d1bb595c4702cd",
            "0x000000000000000000000000ce5485cfb26914c5dce00b9baf0580364dafc7a4"
          ],
          "data": "0x0000000000000000000000000000000000000000000000000000000000000000",
          "blockHash": "0x29cdc7ffc34b68bbacf1d369e416179927b0d2a20715349abbd4158fab8da5a3",
          "blockNumber": "0x6dc95a",
          "transactionHash": "0x39075fe648695290f24071f4d67857047775fec57502844dc95228520b084469",
          "transactionIndex": "0xd",
          "logIndex": "0x1d",
          "removed": false
        },
        {
          "address": "0xCa14007Eff0dB1f8135f4C25B34De49AB0d42766",
          "topics": [
            "0xddf252ad1be2c89b69c2b068fc378daa952ba7f163c4a11628f55a4df523b3ef",
            "0x0000000000000000000000007eb4c59eabe1234e8a6d02fdf4d1bb595c4702cd",
            "0x000000000000000000000000ce5485cfb26914c5dce00b9baf0580364dafc7a4"
          ],
          "data": "0x0000000000000000000000000000000000000000000000000001c6bf52634000",
          "blockHash": "0x29cdc7ffc34b68bbacf1d369e416179927b0d2a20715349abbd4158fab8da5a3",
          "blockNumber": "0x6dc95a",
          "transactionHash": "0x39075fe648695290f24071f4d67857047775fec57502844dc95228520b084469",
          "transactionIndex": "0xd",
          "logIndex": "0x1e",
          "removed": false
        },
        {
          "address": "0xE2Bb56ee936fd6433DC0F6e7e3b8365C906AA057",
          "topics": [
            "0xdb80dd488acf86d17c747445b0eabb5d57c541d3bd7b6b87af987858e5066b2b",
            "0x000000000000000000000000ce5485cfb26914c5dce00b9baf0580364dafc7a4",
            "0x0594c1582459ea03f77deaf9eb7e3917d6994a03c13405ba42867f83d85f085d",
            "0x01b64b1b3b690b43b9b514fb81377518f4039cd3e4f4914d8a6bdf01d679fb19"
          ],
          "data": "0x0000000000000000000000000000000000000000000000000000000000000060000000000000000000000000000000000000000000000000000000000000298300000000000000000000000000000000000000000000000000005af3107a40000000000000000000000000000000000000000000000000000000000000000005000000000000000000000000ca14007eff0db1f8135f4c25b34de49ab0d427660000000000000000000000007eb4c59eabe1234e8a6d02fdf4d1bb595c4702cd02c9b0e967948762be38c87ac131d2958f7988d6aff58885993f1c186a5333b80000000000000000000000000000000000000000000000000001c6bf526340000000000000000000000000000000000000000000000000000000000000000000",
          "blockHash": "0x29cdc7ffc34b68bbacf1d369e416179927b0d2a20715349abbd4158fab8da5a3",
          "blockNumber": "0x6dc95a",
          "transactionHash": "0x39075fe648695290f24071f4d67857047775fec57502844dc95228520b084469",
          "transactionIndex": "0xd",
          "logIndex": "0x1f",
          "removed": false
        },
        {
          "address": "0xcE5485Cfb26914C5dcE00B9BAF0580364daFC7a4",
          "topics": [
            "0x5f971bd00bf3ffbca8a6d72cdd4fd92cfd4f62636161921d1e5a64f0b64ccb6d",
            "0x0000000000000000000000007eb4c59eabe1234e8a6d02fdf4d1bb595c4702cd",
            "0x000000000000000000000000ca14007eff0db1f8135f4c25b34de49ab0d42766",
            "0x02c9b0e967948762be38c87ac131d2958f7988d6aff58885993f1c186a5333b8"
          ],
          "data": "0x0000000000000000000000000000000000000000000000000001c6bf52634000000000000000000000000000000000000000000000000000000000000000298300000000000000000000000000000000000000000000000000005af3107a4000",
          "blockHash": "0x29cdc7ffc34b68bbacf1d369e416179927b0d2a20715349abbd4158fab8da5a3",
          "blockNumber": "0x6dc95a",
          "transactionHash": "0x39075fe648695290f24071f4d67857047775fec57502844dc95228520b084469",
          "transactionIndex": "0xd",
          "logIndex": "0x20",
          "removed": false
        },
        {
          "address": "0xE2Bb56ee936fd6433DC0F6e7e3b8365C906AA057",
          "topics": [
            "0xdb80dd488acf86d17c747445b0eabb5d57c541d3bd7b6b87af987858e5066b2b",
            "0x0000000000000000000000007eb4c59eabe1234e8a6d02fdf4d1bb595c4702cd",
            "0x02c9b0e967948762be38c87ac131d2958f7988d6aff58885993f1c186a5333b8",
            "0x00f1149cade9d692862ad41df96b108aa2c20af34f640457e781d166c98dc6b0"
          ],
          "data": "0x0000000000000000000000000000000000000000000000000000000000000060000000000000000000000000000000000000000000000000000000000000298400000000000000000000000000000000000000000000000000016bcc41e9000000000000000000000000000000000000000000000000000000000000000000090000000000000000000000000000000000000000000000000000000000000000000000000000000000000000ddb342ecc94236c29a5307d3757d0724d759453c04718f5a0fc34cc1af16a1cdee98ffb20c31f5cd61d6ab07201858f4287c938d053b40a647cedfca6ca84f542a0fe36736031905a9639a7f19a3c1e66bfd5080000000000000000000000000000000000020c49ba5e353f8000000000000000000000000000000000000000000000000000000000000000000000000674d718000000000000000000000000000000000000000000000000000000000674d71c00000000000000000000000000000000000000000000000000001c6bf52634000000000000000000000000000ce5485cfb26914c5dce00b9baf0580364dafc7a4",
          "blockHash": "0x29cdc7ffc34b68bbacf1d369e416179927b0d2a20715349abbd4158fab8da5a3",
          "blockNumber": "0x6dc95a",
          "transactionHash": "0x39075fe648695290f24071f4d67857047775fec57502844dc95228520b084469",
          "transactionIndex": "0xd",
          "logIndex": "0x21",
          "removed": false
        },
        {
          "address": "0x7eb4C59eABE1234E8A6D02FdF4d1BB595C4702Cd",
          "topics": [
            "0xaf43445f7721522b7a3864ed3de53d7e2e658bfa1eeffa18e1e229be68ce2545",
            "0x000000000000000000000000ddb342ecc94236c29a5307d3757d0724d759453c",
            "0x02c9b0e967948762be38c87ac131d2958f7988d6aff58885993f1c186a5333b8"
          ],
          "data": "0x0000000000000000000000000000000000000000000000000001c6bf526340000000000000000000000000000000000000000000000000000000000000000001",
          "blockHash": "0x29cdc7ffc34b68bbacf1d369e416179927b0d2a20715349abbd4158fab8da5a3",
          "blockNumber": "0x6dc95a",
          "transactionHash": "0x39075fe648695290f24071f4d67857047775fec57502844dc95228520b084469",
          "transactionIndex": "0xd",
          "logIndex": "0x22",
          "removed": false
        }
      ],
      "status": "0x1",
      "logsBloom": "0x00400200000200100200000000020000000000000000000000000000000000400000000000000000000000000400000000000000000004200000000000200000000000000000000000000008080000000000000000000040001000000000000600030000100000010000000000000000400000000000000000000011400008002000000000000000000000000400000004000000000200000000020000000010020000800000000000000020000000209000000000000020000000000000000000000002000000024010000000000000000000200000000000800000000000000010000000010000000000020084000000000000001000000000000000000000",
      "type": "0x2",
      "effectiveGasPrice": "0x34149d83d"
    }
  ],
  "libraries": [],
  "pending": [],
  "returns": {},
  "timestamp": 1733128651,
  "chain": 11155111,
  "multi": false,
  "commit": "578600f"
}