{
  "transactions": [
    {
      "hash": "0xa1ef7ab3b0e19d0c4368ea4e45f6220972dc08bb21a40a3c8dfffdee827a124b",
      "transactionType": "CALL",
      "contractName": null,
      "contractAddress": "0x17ceb8da41205f1026241766328751884afa7fe8",
      "function": "setL2EndpointAddress(uint256)",
      "arguments": [
        "3603286522628348846287448082418031106768078204170716810180907894571395917633"
      ],
      "transaction": {
        "from": "0xddb342ecc94236c29a5307d3757d0724d759453c",
        "to": "0x17ceb8da41205f1026241766328751884afa7fe8",
        "gas": "0xabb8",
        "value": "0x0",
        "input": "0x5155fb2f07f7634d530030231a04892601d83bbc79defee8145d116d18fc4978e21f2741",
        "nonce": "0x50b",
        "chainId": "0xaa36a7"
      },
      "additionalContracts": [],
      "isFixedGasLimit": false
    }
  ],
  "receipts": [
    {
      "status": "0x1",
      "cumulativeGasUsed": "0x1a7c0ce",
      "logs": [
        {
          "address": "0x17ceb8da41205f1026241766328751884afa7fe8",
          "topics": [
            "0xa35dce9e53611b0cabca886209c4a1d09c80214af9b6fb6027f7b2f7c39838e8"
          ],
          "data": "0x07f7634d530030231a04892601d83bbc79defee8145d116d18fc4978e21f2741",
          "blockHash": "0x0ad9427670b2f2540703cd65d76b4c1d7c8e9d90e16e833dde67245956ef07f7",
          "blockNumber": "0x730af2",
          "transactionHash": "0xa1ef7ab3b0e19d0c4368ea4e45f6220972dc08bb21a40a3c8dfffdee827a124b",
          "transactionIndex": "0xcf",
          "logIndex": "0x152",
          "removed": false
        }
      ],
      "logsBloom": "0x00000000000000000000000010000000000000000000000000000000000000000000000000000000000000000000000000000000000000000000000000000000000000000000000000000000000200000000000000000000000000000000000000000000000000000000000000000000000000000000000000000000000000000000000000000000000000000000000000000000000000000000000000000000800000000000000000000000000000000000000004000000000000000000002800000000000000000000000000000000000000000000000000000000000000000000000000000000000000000000000000000000000000000000000000000000",
      "type": "0x2",
      "transactionHash": "0xa1ef7ab3b0e19d0c4368ea4e45f6220972dc08bb21a40a3c8dfffdee827a124b",
      "transactionIndex": "0xcf",
      "blockHash": "0x0ad9427670b2f2540703cd65d76b4c1d7c8e9d90e16e833dde67245956ef07f7",
      "blockNumber": "0x730af2",
      "gasUsed": "0x756b",
      "effectiveGasPrice": "0x95bb4cda",
      "from": "0xddb342ecc94236c29a5307d3757d0724d759453c",
      "to": "0x17ceb8da41205f1026241766328751884afa7fe8",
      "contractAddress": null
    }
  ],
  "libraries": [],
  "pending": [],
  "returns": {},
  "timestamp": 1737457646,
  "chain": 11155111,
  "commit": "fcbff6b"
}