{
  "transactions": [
    {
      "hash": "0x480e3dcab60051a41043a0a5d624b6cf12fdbe98cf70600693bfd7b1ffb93f3e",
      "transactionType": "CALL",
      "contractName": "StarkNetToken",
      "contractAddress": "0xCa14007Eff0dB1f8135f4C25B34De49AB0d42766",
      "function": "approve(address,uint256)",
      "arguments": [
        "0x0Ed0e15f0D7362b95A7F4441FCBfb948b63FD61b",
        "115792089237316195423570985008687907853269984665640564039457584007913129639935"
      ],
      "transaction": {
        "type": "0x02",
        "from": "0xddb342ecc94236c29a5307d3757d0724d759453c",
        "to": "0xca14007eff0db1f8135f4c25b34de49ab0d42766",
        "gas": "0x93a9",
        "value": "0x0",
        "data": "0x095ea7b30000000000000000000000000ed0e15f0d7362b95a7f4441fcbfb948b63fd61bffffffffffffffffffffffffffffffffffffffffffffffffffffffffffffffff",
        "nonce": "0x3ab",
        "accessList": []
      },
      "additionalContracts": [],
      "isFixedGasLimit": false
    },
    {
      "hash": "0x886d98d212775bc5bbfb0ad14afb3fadb55e9c8e30e5eefd27fad633955b0230",
      "transactionType": "CALL",
      "contractName": null,
      "contractAddress": "0x0Ed0e15f0D7362b95A7F4441FCBfb948b63FD61b",
      "function": "depositAndCreateOrder((address,uint256,uint256,uint128,uint128,uint128,uint128))",
      "arguments": [
        "(0xDdb342ecc94236c29a5307d3757d0724D759453C, 2009894490435840142178314390393166646092438090257831307886760648929397478285, 2366254414417873771392932940469309727793822550615514268240785277201753657472, 170141183460469235273462165868118016, 1733133776, 1733133840, 500000000000000)"
      ],
      "transaction": {
        "type": "0x02",
        "from": "0xddb342ecc94236c29a5307d3757d0724d759453c",
        "to": "0x0ed0e15f0d7362b95a7f4441fcbfb948b63fd61b",
        "gas": "0x44c98",
        "value": "0x1c6bf52634000",
        "data": "0x6c1cc3f4000000000000000000000000ddb342ecc94236c29a5307d3757d0724d759453c04718f5a0fc34cc1af16a1cdee98ffb20c31f5cd61d6ab07201858f4287c938d053b40a647cedfca6ca84f542a0fe36736031905a9639a7f19a3c1e66bfd5080000000000000000000000000000000000020c49ba5e353f8000000000000000000000000000000000000000000000000000000000000000000000000674d85d000000000000000000000000000000000000000000000000000000000674d86100000000000000000000000000000000000000000000000000001c6bf52634000",
        "nonce": "0x3ac",
        "accessList": []
      },
      "additionalContracts": [],
      "isFixedGasLimit": false
    }
  ],
  "receipts": [
    {
      "transactionHash": "0x480e3dcab60051a41043a0a5d624b6cf12fdbe98cf70600693bfd7b1ffb93f3e",
      "transactionIndex": "0x7",
      "blockHash": "0x65ee6b178babe5ca819e50a4521d20b1af169617170aa805fbdbf5ca5040651a",
      "blockNumber": "0x6dcada",
      "from": "0xDdb342ecc94236c29a5307d3757d0724D759453C",
      "to": "0xCa14007Eff0dB1f8135f4C25B34De49AB0d42766",
      "cumulativeGasUsed": "0xab5de",
      "gasUsed": "0x6ae8",
      "contractAddress": null,
      "logs": [
        {
          "address": "0xCa14007Eff0dB1f8135f4C25B34De49AB0d42766",
          "topics": [
            "0x8c5be1e5ebec7d5bd14f71427d1e84f3dd0314c0f7b2291e5b200ac8c7c3b925",
            "0x000000000000000000000000ddb342ecc94236c29a5307d3757d0724d759453c",
            "0x0000000000000000000000000ed0e15f0d7362b95a7f4441fcbfb948b63fd61b"
          ],
          "data": "0xffffffffffffffffffffffffffffffffffffffffffffffffffffffffffffffff",
          "blockHash": "0x65ee6b178babe5ca819e50a4521d20b1af169617170aa805fbdbf5ca5040651a",
          "blockNumber": "0x6dcada",
          "transactionHash": "0x480e3dcab60051a41043a0a5d624b6cf12fdbe98cf70600693bfd7b1ffb93f3e",
          "transactionIndex": "0x7",
          "logIndex": "0x15",
          "removed": false
        }
      ],
      "status": "0x1",
      "logsBloom": "0x00000000000000000000000000000000000000000000000000000000000000000000001000000000000000000000000002002000000000000000000000200000000000000000000000000000000000000000000000000000000000000000000400000000000000000000000000000000400000000000000000000000400000000000000000000000000000000000000000000000000000000000000000000000020000000000000000000000000000000000000000000000000000000000000000000000000000020000000000000000000000000000000000800000000000000010000000000000000000000000000000000000001000000000000000000000",
      "type": "0x2",
      "effectiveGasPrice": "0x37f150e5f"
    },
    {
      "transactionHash": "0x886d98d212775bc5bbfb0ad14afb3fadb55e9c8e30e5eefd27fad633955b0230",
      "transactionIndex": "0x8",
      "blockHash": "0x65ee6b178babe5ca819e50a4521d20b1af169617170aa805fbdbf5ca5040651a",
      "blockNumber": "0x6dcada",
      "from": "0xDdb342ecc94236c29a5307d3757d0724D759453C",
      "to": "0x0Ed0e15f0D7362b95A7F4441FCBfb948b63FD61b",
      "cumulativeGasUsed": "0xdce23",
      "gasUsed": "0x31845",
      "contractAddress": null,
      "logs": [
        {
          "address": "0xCa14007Eff0dB1f8135f4C25B34De49AB0d42766",
          "topics": [
            "0xddf252ad1be2c89b69c2b068fc378daa952ba7f163c4a11628f55a4df523b3ef",
            "0x000000000000000000000000ddb342ecc94236c29a5307d3757d0724d759453c",
            "0x0000000000000000000000000ed0e15f0d7362b95a7f4441fcbfb948b63fd61b"
          ],
          "data": "0x0000000000000000000000000000000000000000000000000001c6bf52634000",
          "blockHash": "0x65ee6b178babe5ca819e50a4521d20b1af169617170aa805fbdbf5ca5040651a",
          "blockNumber": "0x6dcada",
          "transactionHash": "0x886d98d212775bc5bbfb0ad14afb3fadb55e9c8e30e5eefd27fad633955b0230",
          "transactionIndex": "0x8",
          "logIndex": "0x16",
          "removed": false
        },
        {
          "address": "0xCa14007Eff0dB1f8135f4C25B34De49AB0d42766",
          "topics": [
            "0x8c5be1e5ebec7d5bd14f71427d1e84f3dd0314c0f7b2291e5b200ac8c7c3b925",
            "0x0000000000000000000000000ed0e15f0d7362b95a7f4441fcbfb948b63fd61b",
            "0x000000000000000000000000ce5485cfb26914c5dce00b9baf0580364dafc7a4"
          ],
          "data": "0x0000000000000000000000000000000000000000000000000000000000000000",
          "blockHash": "0x65ee6b178babe5ca819e50a4521d20b1af169617170aa805fbdbf5ca5040651a",
          "blockNumber": "0x6dcada",
          "transactionHash": "0x886d98d212775bc5bbfb0ad14afb3fadb55e9c8e30e5eefd27fad633955b0230",
          "transactionIndex": "0x8",
          "logIndex": "0x17",
          "removed": false
        },
        {
          "address": "0xCa14007Eff0dB1f8135f4C25B34De49AB0d42766",
          "topics": [
            "0x8c5be1e5ebec7d5bd14f71427d1e84f3dd0314c0f7b2291e5b200ac8c7c3b925",
            "0x0000000000000000000000000ed0e15f0d7362b95a7f4441fcbfb948b63fd61b",
            "0x000000000000000000000000ce5485cfb26914c5dce00b9baf0580364dafc7a4"
          ],
          "data": "0x0000000000000000000000000000000000000000000000000001c6bf52634000",
          "blockHash": "0x65ee6b178babe5ca819e50a4521d20b1af169617170aa805fbdbf5ca5040651a",
          "blockNumber": "0x6dcada",
          "transactionHash": "0x886d98d212775bc5bbfb0ad14afb3fadb55e9c8e30e5eefd27fad633955b0230",
          "transactionIndex": "0x8",
          "logIndex": "0x18",
          "removed": false
        },
        {
          "address": "0xCa14007Eff0dB1f8135f4C25B34De49AB0d42766",
          "topics": [
            "0x8c5be1e5ebec7d5bd14f71427d1e84f3dd0314c0f7b2291e5b200ac8c7c3b925",
            "0x0000000000000000000000000ed0e15f0d7362b95a7f4441fcbfb948b63fd61b",
            "0x000000000000000000000000ce5485cfb26914c5dce00b9baf0580364dafc7a4"
          ],
          "data": "0x0000000000000000000000000000000000000000000000000000000000000000",
          "blockHash": "0x65ee6b178babe5ca819e50a4521d20b1af169617170aa805fbdbf5ca5040651a",
          "blockNumber": "0x6dcada",
          "transactionHash": "0x886d98d212775bc5bbfb0ad14afb3fadb55e9c8e30e5eefd27fad633955b0230",
          "transactionIndex": "0x8",
          "logIndex": "0x19",
          "removed": false
        },
        {
          "address": "0xCa14007Eff0dB1f8135f4C25B34De49AB0d42766",
          "topics": [
            "0xddf252ad1be2c89b69c2b068fc378daa952ba7f163c4a11628f55a4df523b3ef",
            "0x0000000000000000000000000ed0e15f0d7362b95a7f4441fcbfb948b63fd61b",
            "0x000000000000000000000000ce5485cfb26914c5dce00b9baf0580364dafc7a4"
          ],
          "data": "0x0000000000000000000000000000000000000000000000000001c6bf52634000",
          "blockHash": "0x65ee6b178babe5ca819e50a4521d20b1af169617170aa805fbdbf5ca5040651a",
          "blockNumber": "0x6dcada",
          "transactionHash": "0x886d98d212775bc5bbfb0ad14afb3fadb55e9c8e30e5eefd27fad633955b0230",
          "transactionIndex": "0x8",
          "logIndex": "0x1a",
          "removed": false
        },
        {
          "address": "0xE2Bb56ee936fd6433DC0F6e7e3b8365C906AA057",
          "topics": [
            "0xdb80dd488acf86d17c747445b0eabb5d57c541d3bd7b6b87af987858e5066b2b",
            "0x000000000000000000000000ce5485cfb26914c5dce00b9baf0580364dafc7a4",
            "0x0594c1582459ea03f77deaf9eb7e3917d6994a03c13405ba42867f83d85f085d",
            "0x01b64b1b3b690b43b9b514fb81377518f4039cd3e4f4914d8a6bdf01d679fb19"
          ],
          "data": "0x0000000000000000000000000000000000000000000000000000000000000060000000000000000000000000000000000000000000000000000000000000298e00000000000000000000000000000000000000000000000000005af3107a40000000000000000000000000000000000000000000000000000000000000000005000000000000000000000000ca14007eff0db1f8135f4c25b34de49ab0d427660000000000000000000000000ed0e15f0d7362b95a7f4441fcbfb948b63fd61b026aece05eedcf29505f498ee637e2595c65944423abe26175677e484a72c3af0000000000000000000000000000000000000000000000000001c6bf526340000000000000000000000000000000000000000000000000000000000000000000",
          "blockHash": "0x65ee6b178babe5ca819e50a4521d20b1af169617170aa805fbdbf5ca5040651a",
          "blockNumber": "0x6dcada",
          "transactionHash": "0x886d98d212775bc5bbfb0ad14afb3fadb55e9c8e30e5eefd27fad633955b0230",
          "transactionIndex": "0x8",
          "logIndex": "0x1b",
          "removed": false
        },
        {
          "address": "0xcE5485Cfb26914C5dcE00B9BAF0580364daFC7a4",
          "topics": [
            "0x5f971bd00bf3ffbca8a6d72cdd4fd92cfd4f62636161921d1e5a64f0b64ccb6d",
            "0x0000000000000000000000000ed0e15f0d7362b95a7f4441fcbfb948b63fd61b",
            "0x000000000000000000000000ca14007eff0db1f8135f4c25b34de49ab0d42766",
            "0x026aece05eedcf29505f498ee637e2595c65944423abe26175677e484a72c3af"
          ],
          "data": "0x0000000000000000000000000000000000000000000000000001c6bf52634000000000000000000000000000000000000000000000000000000000000000298e00000000000000000000000000000000000000000000000000005af3107a4000",
          "blockHash": "0x65ee6b178babe5ca819e50a4521d20b1af169617170aa805fbdbf5ca5040651a",
          "blockNumber": "0x6dcada",
          "transactionHash": "0x886d98d212775bc5bbfb0ad14afb3fadb55e9c8e30e5eefd27fad633955b0230",
          "transactionIndex": "0x8",
          "logIndex": "0x1c",
          "removed": false
        },
        {
          "address": "0xE2Bb56ee936fd6433DC0F6e7e3b8365C906AA057",
          "topics": [
            "0xdb80dd488acf86d17c747445b0eabb5d57c541d3bd7b6b87af987858e5066b2b",
            "0x0000000000000000000000000ed0e15f0d7362b95a7f4441fcbfb948b63fd61b",
            "0x026aece05eedcf29505f498ee637e2595c65944423abe26175677e484a72c3af",
            "0x00f1149cade9d692862ad41df96b108aa2c20af34f640457e781d166c98dc6b0"
          ],
          "data": "0x0000000000000000000000000000000000000000000000000000000000000060000000000000000000000000000000000000000000000000000000000000298f00000000000000000000000000000000000000000000000000016bcc41e9000000000000000000000000000000000000000000000000000000000000000000080000000000000000000000000000000000000000000000000000000000000000000000000000000000000000ddb342ecc94236c29a5307d3757d0724d759453c04718f5a0fc34cc1af16a1cdee98ffb20c31f5cd61d6ab07201858f4287c938d053b40a647cedfca6ca84f542a0fe36736031905a9639a7f19a3c1e66bfd5080000000000000000000000000000000000020c49ba5e353f8000000000000000000000000000000000000000000000000000000000000000000000000674d85d000000000000000000000000000000000000000000000000000000000674d86100000000000000000000000000000000000000000000000000001c6bf52634000",
          "blockHash": "0x65ee6b178babe5ca819e50a4521d20b1af169617170aa805fbdbf5ca5040651a",
          "blockNumber": "0x6dcada",
          "transactionHash": "0x886d98d212775bc5bbfb0ad14afb3fadb55e9c8e30e5eefd27fad633955b0230",
          "transactionIndex": "0x8",
          "logIndex": "0x1d",
          "removed": false
        },
        {
          "address": "0x0Ed0e15f0D7362b95A7F4441FCBfb948b63FD61b",
          "topics": [
            "0xaf43445f7721522b7a3864ed3de53d7e2e658bfa1eeffa18e1e229be68ce2545",
            "0x000000000000000000000000ddb342ecc94236c29a5307d3757d0724d759453c",
            "0x026aece05eedcf29505f498ee637e2595c65944423abe26175677e484a72c3af"
          ],
          "data": "0x0000000000000000000000000000000000000000000000000001c6bf526340000000000000000000000000000000000000000000000000000000000000000001",
          "blockHash": "0x65ee6b178babe5ca819e50a4521d20b1af169617170aa805fbdbf5ca5040651a",
          "blockNumber": "0x6dcada",
          "transactionHash": "0x886d98d212775bc5bbfb0ad14afb3fadb55e9c8e30e5eefd27fad633955b0230",
          "transactionIndex": "0x8",
          "logIndex": "0x1e",
          "removed": false
        }
      ],
      "status": "0x1",
      "logsBloom": "0x00400200000000000200000000020000000000000080000000000000000000400000001000000000000000000000000002002000000004000000000000200080000000000000010000000008080000000000000000000040001000000000000600000000100000010000000000000000400000000000000000000010400008002000000000000000000000000400000004000000000200000000020000000010060000800000000000000020000000001000000000000020000000000000000000000002000000024010000000000000000000200000000000800000000000000010000000010000020000020084000000000000001000000200000000000000",
      "type": "0x2",
      "effectiveGasPrice": "0x37f150e5f"
    }
  ],
  "libraries": [],
  "pending": [],
  "returns": {},
  "timestamp": 1733133830,
  "chain": 11155111,
  "multi": false,
  "commit": "578600f"
}