{
  "transactions": [
    {
      "hash": "0x4ecd7af1682448ef15f73cf14a38b8b6c887f77760ef70b7727d6e24712329dd",
      "transactionType": "CALL",
      "contractName": "StarkNetToken",
      "contractAddress": "0xCa14007Eff0dB1f8135f4C25B34De49AB0d42766",
      "function": "approve(address,uint256)",
      "arguments": [
        "0xff40C65C565cfCb22b7E5445ac656000f3A8118b",
        "115792089237316195423570985008687907853269984665640564039457584007913129639935"
      ],
      "transaction": {
        "type": "0x02",
        "from": "0xddb342ecc94236c29a5307d3757d0724d759453c",
        "to": "0xca14007eff0db1f8135f4c25b34de49ab0d42766",
        "gas": "0xfef7",
        "value": "0x0",
        "data": "0x095ea7b3000000000000000000000000ff40c65c565cfcb22b7e5445ac656000f3a8118bffffffffffffffffffffffffffffffffffffffffffffffffffffffffffffffff",
        "nonce": "0x2f8",
        "accessList": []
      },
      "additionalContracts": [],
      "isFixedGasLimit": false
    },
    {
      "hash": "0x575e71fa48ccfb67c6b61f2a2b7d64dfe2bdf5e1dae41ffee4398503141005b0",
      "transactionType": "CALL",
      "contractName": "StarkNetToken",
      "contractAddress": "0xCa14007Eff0dB1f8135f4C25B34De49AB0d42766",
      "function": "transfer(address,uint256)",
      "arguments": [
        "0xff40C65C565cfCb22b7E5445ac656000f3A8118b",
        "500000"
      ],
      "transaction": {
        "type": "0x02",
        "from": "0xddb342ecc94236c29a5307d3757d0724d759453c",
        "to": "0xca14007eff0db1f8135f4c25b34de49ab0d42766",
        "gas": "0x1337b",
        "value": "0x0",
        "data": "0xa9059cbb000000000000000000000000ff40c65c565cfcb22b7e5445ac656000f3a8118b000000000000000000000000000000000000000000000000000000000007a120",
        "nonce": "0x2f9",
        "accessList": []
      },
      "additionalContracts": [],
      "isFixedGasLimit": false
    },
    {
      "hash": "0x71309bfce9040afc1db1e5a5f03f98a4126eaa88b1c8f8a72e9a0a728518edb8",
      "transactionType": "CALL",
      "contractName": "Proxy",
      "contractAddress": "0xE2Bb56ee936fd6433DC0F6e7e3b8365C906AA057",
      "function": "sendMessageToL2(uint256,uint256,uint256[])",
      "arguments": [
        "1212379904081382859394911185657620848032084298460080695514924441718150315867",
        "425952401605428413817582304755919420533935873840436977667370850915372091056",
        "[0, 1265684623727634235329190328445374361672779121980, 2009894490435840142178314390393166646092438090257831307886760648929397478285, 2366254414417873771392932940469309727793822550615514268240785277201753657472, 170141183460469235273462165868118016, 1731686016, 1731686080, 500000, 2524392021852001135582825949054576525094493216367559068627275826195272239197]"
      ],
      "transaction": {
        "type": "0x02",
        "from": "0xddb342ecc94236c29a5307d3757d0724d759453c",
        "to": "0xe2bb56ee936fd6433dc0f6e7e3b8365c906aa057",
        "gas": "0x17832",
        "value": "0x38d7ea4c68000",
        "data": "0x3e3aa6c502ae2ec5f8cd731bcaa47349d92f7ec8f4c0250428b9fa10ef2363676d0ebf5b00f1149cade9d692862ad41df96b108aa2c20af34f640457e781d166c98dc6b0000000000000000000000000000000000000000000000000000000000000006000000000000000000000000000000000000000000000000000000000000000090000000000000000000000000000000000000000000000000000000000000000000000000000000000000000ddb342ecc94236c29a5307d3757d0724d759453c04718f5a0fc34cc1af16a1cdee98ffb20c31f5cd61d6ab07201858f4287c938d053b40a647cedfca6ca84f542a0fe36736031905a9639a7f19a3c1e66bfd5080000000000000000000000000000000000020c49ba5e353f800000000000000000000000000000000000000000000000000000000000000000000000067376e800000000000000000000000000000000000000000000000000000000067376ec0000000000000000000000000000000000000000000000000000000000007a1200594c1582459ea03f77deaf9eb7e3917d6994a03c13405ba42867f83d85f085d",
        "nonce": "0x2fa",
        "accessList": []
      },
      "additionalContracts": [],
      "isFixedGasLimit": false
    }
  ],
  "receipts": [],
  "libraries": [],
  "pending": [
    "0x4ecd7af1682448ef15f73cf14a38b8b6c887f77760ef70b7727d6e24712329dd",
    "0x575e71fa48ccfb67c6b61f2a2b7d64dfe2bdf5e1dae41ffee4398503141005b0",
    "0x71309bfce9040afc1db1e5a5f03f98a4126eaa88b1c8f8a72e9a0a728518edb8"
  ],
  "returns": {},
  "timestamp": 1731686064,
  "chain": 11155111,
  "multi": false,
  "commit": "945f7f2"
}