{
  "transactions": [
    {
      "hash": "0x47a05f201e0e1cb1a0a205614aa6d127c074898a29444075c9cf94e98d972508",
      "transactionType": "CALL",
      "contractName": "StarkNetToken",
      "contractAddress": "0xCa14007Eff0dB1f8135f4C25B34De49AB0d42766",
      "function": "approve(address,uint256)",
      "arguments": [
        "0xCA82E7221fF02BA1257911C5aC2cd52Ff97ff9CD",
        "115792089237316195423570985008687907853269984665640564039457584007913129639935"
      ],
      "transaction": {
        "type": "0x02",
        "from": "0xddb342ecc94236c29a5307d3757d0724d759453c",
        "to": "0xca14007eff0db1f8135f4c25b34de49ab0d42766",
        "gas": "0xff08",
        "value": "0x0",
        "data": "0x095ea7b3000000000000000000000000ca82e7221ff02ba1257911c5ac2cd52ff97ff9cdffffffffffffffffffffffffffffffffffffffffffffffffffffffffffffffff",
        "nonce": "0x22f",
        "accessList": []
      },
      "additionalContracts": [],
      "isFixedGasLimit": false
    },
    {
      "hash": "0xc05f025f65aeff34a26cec11ac08626e69f76b95ec4ae496f95944da4e2332cf",
      "transactionType": "CALL",
      "contractName": "L1TWAMMBridge",
      "contractAddress": "0xCA82E7221fF02BA1257911C5aC2cd52Ff97ff9CD",
      "function": "initiateWithdrawal(uint256)",
      "arguments": [
        "0"
      ],
      "transaction": {
        "type": "0x02",
        "from": "0xddb342ecc94236c29a5307d3757d0724d759453c",
        "to": "0xca82e7221ff02ba1257911c5ac2cd52ff97ff9cd",
        "gas": "0x18cfa",
        "value": "0x38d7ea4c68000",
        "data": "0x12edde5e0000000000000000000000000000000000000000000000000000000000000000",
        "nonce": "0x230",
        "accessList": []
      },
      "additionalContracts": [],
      "isFixedGasLimit": false
    }
  ],
  "receipts": [
    {
      "transactionHash": "0x47a05f201e0e1cb1a0a205614aa6d127c074898a29444075c9cf94e98d972508",
      "transactionIndex": "0x3",
      "blockHash": "0x7595902dd05db04f8b8c9334c867a3a44e0b1d7fe35a0ab1698518ed3a75a844",
      "blockNumber": "0x6b49fa",
      "from": "0xDdb342ecc94236c29a5307d3757d0724D759453C",
      "to": "0xCa14007Eff0dB1f8135f4C25B34De49AB0d42766",
      "cumulativeGasUsed": "0x56b8e",
      "gasUsed": "0xb8a4",
      "contractAddress": null,
      "logs": [
        {
          "address": "0xCa14007Eff0dB1f8135f4C25B34De49AB0d42766",
          "topics": [
            "0x8c5be1e5ebec7d5bd14f71427d1e84f3dd0314c0f7b2291e5b200ac8c7c3b925",
            "0x000000000000000000000000ddb342ecc94236c29a5307d3757d0724d759453c",
            "0x000000000000000000000000ca82e7221ff02ba1257911c5ac2cd52ff97ff9cd"
          ],
          "data": "0xffffffffffffffffffffffffffffffffffffffffffffffffffffffffffffffff",
          "blockHash": "0x7595902dd05db04f8b8c9334c867a3a44e0b1d7fe35a0ab1698518ed3a75a844",
          "blockNumber": "0x6b49fa",
          "transactionHash": "0x47a05f201e0e1cb1a0a205614aa6d127c074898a29444075c9cf94e98d972508",
          "transactionIndex": "0x3",
          "logIndex": "0x6",
          "removed": false
        }
      ],
      "status": "0x1",
      "logsBloom": "0x00000000000000000040000000000000000000000000000000000000000000000000000000000000000000000000000000000000000000000000000000200000000000000000000000000000000000000000000000000000000000000000000400000000000000000000000000000000400000000000000000000000400000000000000000000000000000040000000000000000000000000000000000000000020000000000000000000000000000000000000000000100000000000000000000000000000000020000000000000000000000000000000000800000000000000010000000000000000000000000000000000000001000000000000000000000",
      "type": "0x2",
      "effectiveGasPrice": "0x30e3e9b49"
    },
    {
      "transactionHash": "0xc05f025f65aeff34a26cec11ac08626e69f76b95ec4ae496f95944da4e2332cf",
      "transactionIndex": "0x4",
      "blockHash": "0x7595902dd05db04f8b8c9334c867a3a44e0b1d7fe35a0ab1698518ed3a75a844",
      "blockNumber": "0x6b49fa",
      "from": "0xDdb342ecc94236c29a5307d3757d0724D759453C",
      "to": "0xCA82E7221fF02BA1257911C5aC2cd52Ff97ff9CD",
      "cumulativeGasUsed": "0x68af6",
      "gasUsed": "0x11f68",
      "contractAddress": null,
      "logs": [
        {
          "address": "0xE2Bb56ee936fd6433DC0F6e7e3b8365C906AA057",
          "topics": [
            "0xdb80dd488acf86d17c747445b0eabb5d57c541d3bd7b6b87af987858e5066b2b",
            "0x000000000000000000000000ca82e7221ff02ba1257911c5ac2cd52ff97ff9cd",
            "0x0446bf456ae9d25bb083a57dba988fd5cb5414f832b6f1d2d4c5332aef744233",
            "0x01101afb9568fc98d91b25365fb0f498486ed49680b8d2625a0b45a850311d1e"
          ],
          "data": "0x0000000000000000000000000000000000000000000000000000000000000060000000000000000000000000000000000000000000000000000000000000278800000000000000000000000000000000000000000000000000038d7ea4c6800000000000000000000000000000000000000000000000000000000000000000010000000000000000000000000000000000000000000000000000000000000002",
          "blockHash": "0x7595902dd05db04f8b8c9334c867a3a44e0b1d7fe35a0ab1698518ed3a75a844",
          "blockNumber": "0x6b49fa",
          "transactionHash": "0xc05f025f65aeff34a26cec11ac08626e69f76b95ec4ae496f95944da4e2332cf",
          "transactionIndex": "0x4",
          "logIndex": "0x7",
          "removed": false
        },
        {
          "address": "0xCA82E7221fF02BA1257911C5aC2cd52Ff97ff9CD",
          "topics": [
            "0x6d92f7d3303f995bf21956bb0c51b388bae348eaf45c23debd2cfa3fcd9ec646",
            "0x000000000000000000000000ddb342ecc94236c29a5307d3757d0724d759453c"
          ],
          "data": "0x0000000000000000000000000000000000000000000000000000000000000000",
          "blockHash": "0x7595902dd05db04f8b8c9334c867a3a44e0b1d7fe35a0ab1698518ed3a75a844",
          "blockNumber": "0x6b49fa",
          "transactionHash": "0xc05f025f65aeff34a26cec11ac08626e69f76b95ec4ae496f95944da4e2332cf",
          "transactionIndex": "0x4",
          "logIndex": "0x8",
          "removed": false
        }
      ],
      "status": "0x1",
      "logsBloom": "0x00000000000000000040000000020200000000000000000000000000000000000000000000000000100000000000000000000000000000000000000000000000000000000000000000000000000000000000000002000040001000000000000400000000100000000000000000000000400000000000000000000000400000000000000000000000000000040002000000000000000000000000000000000010000000000000000040000020000000000000000000000100000000000000000000000002000000000000000000080000000000000000000000000800000000000000001000000000000000000002002000000000000000002000000000000000",
      "type": "0x2",
      "effectiveGasPrice": "0x30e3e9b49"
    }
  ],
  "libraries": [],
  "pending": [],
  "returns": {},
  "timestamp": 1730998637,
  "chain": 11155111,
  "multi": false,
  "commit": "e344443"
}