{
  "transactions": [
    {
      "hash": "0x5a3cdfdad8e4e05bc348c20f771611d3f2af2dbffba6952af9d1b724711f9d8e",
      "transactionType": "CALL",
      "contractName": "StarkNetToken",
      "contractAddress": "0xCa14007Eff0dB1f8135f4C25B34De49AB0d42766",
      "function": "approve(address,uint256)",
      "arguments": [
        "0xB5A9054238B3f15854174191d3C55E1d51dA99A5",
        "115792089237316195423570985008687907853269984665640564039457584007913129639935"
      ],
      "transaction": {
        "type": "0x02",
        "from": "0xddb342ecc94236c29a5307d3757d0724d759453c",
        "to": "0xca14007eff0db1f8135f4c25b34de49ab0d42766",
        "gas": "0x93a9",
        "value": "0x0",
        "data": "0x095ea7b3000000000000000000000000b5a9054238b3f15854174191d3c55e1d51da99a5ffffffffffffffffffffffffffffffffffffffffffffffffffffffffffffffff",
        "nonce": "0x213",
        "accessList": []
      },
      "additionalContracts": [],
      "isFixedGasLimit": false
    },
    {
      "hash": "0x7699c32d5ba51644feed3f8f3b83fe3494a20887e97ad56b043cd9717fd811c7",
      "transactionType": "CALL",
      "contractName": "StarkNetToken",
      "contractAddress": "0xCa14007Eff0dB1f8135f4C25B34De49AB0d42766",
      "function": "transfer(address,uint256)",
      "arguments": [
        "0xB5A9054238B3f15854174191d3C55E1d51dA99A5",
        "1000000000000000"
      ],
      "transaction": {
        "type": "0x02",
        "from": "0xddb342ecc94236c29a5307d3757d0724d759453c",
        "to": "0xca14007eff0db1f8135f4c25b34de49ab0d42766",
        "gas": "0xe427",
        "value": "0x0",
        "data": "0xa9059cbb000000000000000000000000b5a9054238b3f15854174191d3c55e1d51da99a500000000000000000000000000000000000000000000000000038d7ea4c68000",
        "nonce": "0x214",
        "accessList": []
      },
      "additionalContracts": [],
      "isFixedGasLimit": false
    },
    {
      "hash": "0x2a91410cc757614743af28d4219e1ec6f39f2bec2ed056cc02b584ea7a8083f1",
      "transactionType": "CALL",
      "contractName": "L1TWAMMBridge",
      "contractAddress": "0xB5A9054238B3f15854174191d3C55E1d51dA99A5",
      "function": "depositAndCreateOrder((address,uint256,uint256,uint128,uint128,uint128,uint128,uint256))",
      "arguments": [
        "(0xDdb342ecc94236c29a5307d3757d0724D759453C, 2009894490435840142178314390393166646092438090257831307886760648929397478285, 2366254414417873771392932940469309727793822550615514268240785277201753657472, 0, 1730988656, 1730988720, 1000000000000000, 90348709876204611675268489361877131220644735964556806593720512660077913409)"
      ],
      "transaction": {
        "type": "0x02",
        "from": "0xddb342ecc94236c29a5307d3757d0724d759453c",
        "to": "0xb5a9054238b3f15854174191d3c55e1d51da99a5",
        "gas": "0x3e2b2",
        "value": "0x2386f26fc10000",
        "data": "0x5ce510fa000000000000000000000000ddb342ecc94236c29a5307d3757d0724d759453c04718f5a0fc34cc1af16a1cdee98ffb20c31f5cd61d6ab07201858f4287c938d053b40a647cedfca6ca84f542a0fe36736031905a9639a7f19a3c1e66bfd5080000000000000000000000000000000000000000000000000000000000000000000000000000000000000000000000000000000000000000000000000672cca7000000000000000000000000000000000000000000000000000000000672ccab000000000000000000000000000000000000000000000000000038d7ea4c68000003322b3e75f1a830f1dd8269d7f358340d815d07ee9063eb4ced4fd1e81a541",
        "nonce": "0x215",
        "accessList": []
      },
      "additionalContracts": [],
      "isFixedGasLimit": false
    }
  ],
  "receipts": [
    {
      "transactionHash": "0x5a3cdfdad8e4e05bc348c20f771611d3f2af2dbffba6952af9d1b724711f9d8e",
      "transactionIndex": "0x9",
      "blockHash": "0xc93f017f4b7e8e28cd5577e31b69a289a0be3dd9eac247edc95793d4c22ccb5c",
      "blockNumber": "0x6b471f",
      "from": "0xDdb342ecc94236c29a5307d3757d0724D759453C",
      "to": "0xCa14007Eff0dB1f8135f4C25B34De49AB0d42766",
      "cumulativeGasUsed": "0xd89a7",
      "gasUsed": "0x6ae8",
      "contractAddress": null,
      "logs": [
        {
          "address": "0xCa14007Eff0dB1f8135f4C25B34De49AB0d42766",
          "topics": [
            "0x8c5be1e5ebec7d5bd14f71427d1e84f3dd0314c0f7b2291e5b200ac8c7c3b925",
            "0x000000000000000000000000ddb342ecc94236c29a5307d3757d0724d759453c",
            "0x000000000000000000000000b5a9054238b3f15854174191d3c55e1d51da99a5"
          ],
          "data": "0xffffffffffffffffffffffffffffffffffffffffffffffffffffffffffffffff",
          "blockHash": "0xc93f017f4b7e8e28cd5577e31b69a289a0be3dd9eac247edc95793d4c22ccb5c",
          "blockNumber": "0x6b471f",
          "transactionHash": "0x5a3cdfdad8e4e05bc348c20f771611d3f2af2dbffba6952af9d1b724711f9d8e",
          "transactionIndex": "0x9",
          "logIndex": "0xe",
          "removed": false
        }
      ],
      "status": "0x1",
      "logsBloom": "0x00000000000000000000000000000000000000000000000000000000000000000000000000000000000000000000000000000000000000000000000000200400000000000000000000000000000000000000000000000000000000000000000400000000000000000000000000000008400000000000000000000000400000000000000000000000000000000000000000000000000000000000000000000000020000000000000000000000000000000000000000000000000000000000000000000000000000020000000000000000000000000001000000800000000000000010000000000000000000000000000000000000001000000000000000000000",
      "type": "0x2",
      "effectiveGasPrice": "0x1f1b96a20"
    },
    {
      "transactionHash": "0x7699c32d5ba51644feed3f8f3b83fe3494a20887e97ad56b043cd9717fd811c7",
      "transactionIndex": "0xa",
      "blockHash": "0xc93f017f4b7e8e28cd5577e31b69a289a0be3dd9eac247edc95793d4c22ccb5c",
      "blockNumber": "0x6b471f",
      "from": "0xDdb342ecc94236c29a5307d3757d0724D759453C",
      "to": "0xCa14007Eff0dB1f8135f4C25B34De49AB0d42766",
      "cumulativeGasUsed": "0xe25a8",
      "gasUsed": "0x9c01",
      "contractAddress": null,
      "logs": [
        {
          "address": "0xCa14007Eff0dB1f8135f4C25B34De49AB0d42766",
          "topics": [
            "0xddf252ad1be2c89b69c2b068fc378daa952ba7f163c4a11628f55a4df523b3ef",
            "0x000000000000000000000000ddb342ecc94236c29a5307d3757d0724d759453c",
            "0x000000000000000000000000b5a9054238b3f15854174191d3c55e1d51da99a5"
          ],
          "data": "0x00000000000000000000000000000000000000000000000000038d7ea4c68000",
          "blockHash": "0xc93f017f4b7e8e28cd5577e31b69a289a0be3dd9eac247edc95793d4c22ccb5c",
          "blockNumber": "0x6b471f",
          "transactionHash": "0x7699c32d5ba51644feed3f8f3b83fe3494a20887e97ad56b043cd9717fd811c7",
          "transactionIndex": "0xa",
          "logIndex": "0xf",
          "removed": false
        }
      ],
      "status": "0x1",
      "logsBloom": "0x00000000000000000000000000000000000000000000000000000000000000000000000000000000000000000000000000000000000000000000000000000400000000000000000000000008000000000000000000000000000000000000000400000000000000000000000000000008400000000000000000000010400000000000000000000000000000000000000000000000000000000000000000000000000000000000000000000000000000000000000000000000000000000000000000000002000000020000000000000000000000000001000000800000000000000000000000000000000000000000000000000000001000000000000000000000",
      "type": "0x2",
      "effectiveGasPrice": "0x1f1b96a20"
    },
    {
      "transactionHash": "0x2a91410cc757614743af28d4219e1ec6f39f2bec2ed056cc02b584ea7a8083f1",
      "transactionIndex": "0xb",
      "blockHash": "0xc93f017f4b7e8e28cd5577e31b69a289a0be3dd9eac247edc95793d4c22ccb5c",
      "blockNumber": "0x6b471f",
      "from": "0xDdb342ecc94236c29a5307d3757d0724D759453C",
      "to": "0xB5A9054238B3f15854174191d3C55E1d51dA99A5",
      "cumulativeGasUsed": "0x10c940",
      "gasUsed": "0x2a398",
      "contractAddress": null,
      "logs": [
        {
          "address": "0xCa14007Eff0dB1f8135f4C25B34De49AB0d42766",
          "topics": [
            "0xddf252ad1be2c89b69c2b068fc378daa952ba7f163c4a11628f55a4df523b3ef",
            "0x000000000000000000000000ddb342ecc94236c29a5307d3757d0724d759453c",
            "0x000000000000000000000000b5a9054238b3f15854174191d3c55e1d51da99a5"
          ],
          "data": "0x00000000000000000000000000000000000000000000000000038d7ea4c68000",
          "blockHash": "0xc93f017f4b7e8e28cd5577e31b69a289a0be3dd9eac247edc95793d4c22ccb5c",
          "blockNumber": "0x6b471f",
          "transactionHash": "0x2a91410cc757614743af28d4219e1ec6f39f2bec2ed056cc02b584ea7a8083f1",
          "transactionIndex": "0xb",
          "logIndex": "0x10",
          "removed": false
        },
        {
          "address": "0xCa14007Eff0dB1f8135f4C25B34De49AB0d42766",
          "topics": [
            "0x8c5be1e5ebec7d5bd14f71427d1e84f3dd0314c0f7b2291e5b200ac8c7c3b925",
            "0x000000000000000000000000b5a9054238b3f15854174191d3c55e1d51da99a5",
            "0x000000000000000000000000ce5485cfb26914c5dce00b9baf0580364dafc7a4"
          ],
          "data": "0x0000000000000000000000000000000000000000000000000000000000000000",
          "blockHash": "0xc93f017f4b7e8e28cd5577e31b69a289a0be3dd9eac247edc95793d4c22ccb5c",
          "blockNumber": "0x6b471f",
          "transactionHash": "0x2a91410cc757614743af28d4219e1ec6f39f2bec2ed056cc02b584ea7a8083f1",
          "transactionIndex": "0xb",
          "logIndex": "0x11",
          "removed": false
        },
        {
          "address": "0xCa14007Eff0dB1f8135f4C25B34De49AB0d42766",
          "topics": [
            "0x8c5be1e5ebec7d5bd14f71427d1e84f3dd0314c0f7b2291e5b200ac8c7c3b925",
            "0x000000000000000000000000b5a9054238b3f15854174191d3c55e1d51da99a5",
            "0x000000000000000000000000ce5485cfb26914c5dce00b9baf0580364dafc7a4"
          ],
          "data": "0x00000000000000000000000000000000000000000000000000038d7ea4c68000",
          "blockHash": "0xc93f017f4b7e8e28cd5577e31b69a289a0be3dd9eac247edc95793d4c22ccb5c",
          "blockNumber": "0x6b471f",
          "transactionHash": "0x2a91410cc757614743af28d4219e1ec6f39f2bec2ed056cc02b584ea7a8083f1",
          "transactionIndex": "0xb",
          "logIndex": "0x12",
          "removed": false
        },
        {
          "address": "0xCa14007Eff0dB1f8135f4C25B34De49AB0d42766",
          "topics": [
            "0x8c5be1e5ebec7d5bd14f71427d1e84f3dd0314c0f7b2291e5b200ac8c7c3b925",
            "0x000000000000000000000000b5a9054238b3f15854174191d3c55e1d51da99a5",
            "0x000000000000000000000000ce5485cfb26914c5dce00b9baf0580364dafc7a4"
          ],
          "data": "0x0000000000000000000000000000000000000000000000000000000000000000",
          "blockHash": "0xc93f017f4b7e8e28cd5577e31b69a289a0be3dd9eac247edc95793d4c22ccb5c",
          "blockNumber": "0x6b471f",
          "transactionHash": "0x2a91410cc757614743af28d4219e1ec6f39f2bec2ed056cc02b584ea7a8083f1",
          "transactionIndex": "0xb",
          "logIndex": "0x13",
          "removed": false
        },
        {
          "address": "0xCa14007Eff0dB1f8135f4C25B34De49AB0d42766",
          "topics": [
            "0xddf252ad1be2c89b69c2b068fc378daa952ba7f163c4a11628f55a4df523b3ef",
            "0x000000000000000000000000b5a9054238b3f15854174191d3c55e1d51da99a5",
            "0x000000000000000000000000ce5485cfb26914c5dce00b9baf0580364dafc7a4"
          ],
          "data": "0x00000000000000000000000000000000000000000000000000038d7ea4c68000",
          "blockHash": "0xc93f017f4b7e8e28cd5577e31b69a289a0be3dd9eac247edc95793d4c22ccb5c",
          "blockNumber": "0x6b471f",
          "transactionHash": "0x2a91410cc757614743af28d4219e1ec6f39f2bec2ed056cc02b584ea7a8083f1",
          "transactionIndex": "0xb",
          "logIndex": "0x14",
          "removed": false
        },
        {
          "address": "0xE2Bb56ee936fd6433DC0F6e7e3b8365C906AA057",
          "topics": [
            "0xdb80dd488acf86d17c747445b0eabb5d57c541d3bd7b6b87af987858e5066b2b",
            "0x000000000000000000000000ce5485cfb26914c5dce00b9baf0580364dafc7a4",
            "0x0594c1582459ea03f77deaf9eb7e3917d6994a03c13405ba42867f83d85f085d",
            "0x008bce41827dd5484d80312a2e43bc42a896e3fcf75bf84c2b49339168dfa00a"
          ],
          "data": "0x0000000000000000000000000000000000000000000000000000000000000060000000000000000000000000000000000000000000000000000000000000277f000000000000000000000000000000000000000000000000002386f26fc10000000000000000000000000000000000000000000000000000000000000000000d000000000000000000000000ca14007eff0db1f8135f4c25b34de49ab0d42766000000000000000000000000b5a9054238b3f15854174191d3c55e1d51da99a5003322b3e75f1a830f1dd8269d7f358340d815d07ee9063eb4ced4fd1e81a54100000000000000000000000000000000000000000000000000038d7ea4c68000000000000000000000000000000000000000000000000000000000000000000000000000000000000000000000000000000000000000000000000000000000070000000000000000000000000000000000000000000000000000000000000000000000000000000000000000ddb342ecc94236c29a5307d3757d0724d759453c04718f5a0fc34cc1af16a1cdee98ffb20c31f5cd61d6ab07201858f4287c938d053b40a647cedfca6ca84f542a0fe36736031905a9639a7f19a3c1e66bfd5080000000000000000000000000000000000000000000000000000000000000000000000000000000000000000000000000000000000000000000000000672cca7000000000000000000000000000000000000000000000000000000000672ccab0",
          "blockHash": "0xc93f017f4b7e8e28cd5577e31b69a289a0be3dd9eac247edc95793d4c22ccb5c",
          "blockNumber": "0x6b471f",
          "transactionHash": "0x2a91410cc757614743af28d4219e1ec6f39f2bec2ed056cc02b584ea7a8083f1",
          "transactionIndex": "0xb",
          "logIndex": "0x15",
          "removed": false
        },
        {
          "address": "0xcE5485Cfb26914C5dcE00B9BAF0580364daFC7a4",
          "topics": [
            "0x2203a49c69f1a46c1164f5e4a30643dd77b7c59c0ff9bc433256048365c247f1",
            "0x000000000000000000000000b5a9054238b3f15854174191d3c55e1d51da99a5",
            "0x000000000000000000000000ca14007eff0db1f8135f4c25b34de49ab0d42766",
            "0x003322b3e75f1a830f1dd8269d7f358340d815d07ee9063eb4ced4fd1e81a541"
          ],
          "data": "0x00000000000000000000000000000000000000000000000000038d7ea4c680000000000000000000000000000000000000000000000000000000000000000080000000000000000000000000000000000000000000000000000000000000277f000000000000000000000000000000000000000000000000002386f26fc1000000000000000000000000000000000000000000000000000000000000000000070000000000000000000000000000000000000000000000000000000000000000000000000000000000000000ddb342ecc94236c29a5307d3757d0724d759453c04718f5a0fc34cc1af16a1cdee98ffb20c31f5cd61d6ab07201858f4287c938d053b40a647cedfca6ca84f542a0fe36736031905a9639a7f19a3c1e66bfd5080000000000000000000000000000000000000000000000000000000000000000000000000000000000000000000000000000000000000000000000000672cca7000000000000000000000000000000000000000000000000000000000672ccab0",
          "blockHash": "0xc93f017f4b7e8e28cd5577e31b69a289a0be3dd9eac247edc95793d4c22ccb5c",
          "blockNumber": "0x6b471f",
          "transactionHash": "0x2a91410cc757614743af28d4219e1ec6f39f2bec2ed056cc02b584ea7a8083f1",
          "transactionIndex": "0xb",
          "logIndex": "0x16",
          "removed": false
        },
        {
          "address": "0xB5A9054238B3f15854174191d3C55E1d51dA99A5",
          "topics": [
            "0xaf43445f7721522b7a3864ed3de53d7e2e658bfa1eeffa18e1e229be68ce2545",
            "0x000000000000000000000000ddb342ecc94236c29a5307d3757d0724d759453c",
            "0x003322b3e75f1a830f1dd8269d7f358340d815d07ee9063eb4ced4fd1e81a541"
          ],
          "data": "0x00000000000000000000000000000000000000000000000000038d7ea4c680000000000000000000000000000000000000000000000000000000000000000001",
          "blockHash": "0xc93f017f4b7e8e28cd5577e31b69a289a0be3dd9eac247edc95793d4c22ccb5c",
          "blockNumber": "0x6b471f",
          "transactionHash": "0x2a91410cc757614743af28d4219e1ec6f39f2bec2ed056cc02b584ea7a8083f1",
          "transactionIndex": "0xb",
          "logIndex": "0x17",
          "removed": false
        }
      ],
      "status": "0x1",
      "logsBloom": "0x00000200000000000000000000020000000000000000000000000040000000000000000000000000000000000000000000000000000004000000020000200400000000000000800000000008080000000000000000000040001000000000000600000000100000000000000000000008400000000000000000000011400008002000000000000000000000020000000000008000000200000000000000100010020020800000000000000020000000021000000000000000010000000000000000800002000000024010000000000000000000200001000000800000000000000010010000010000000000020004000000000000001000000000000000000000",
      "type": "0x2",
      "effectiveGasPrice": "0x1f1b96a20"
    }
  ],
  "libraries": [],
  "pending": [],
  "returns": {},
  "timestamp": 1730988710,
  "chain": 11155111,
  "multi": false,
  "commit": "e344443"
}