{
  "transactions": [
    {
      "hash": "0x5d82671c79c98f45b247eee41223247d7f96e469139f1356208f11c1a8eb383c",
      "transactionType": "CALL",
      "contractName": null,
      "contractAddress": "0x17ceb8da41205f1026241766328751884afa7fe8",
      "function": "initiateWithdrawal(address,address,uint64)",
      "arguments": [
        "0xDdb342ecc94236c29a5307d3757d0724D759453C",
        "0x1c7D4B196Cb0C7B01d743Fbc6116a902379C7238",
        "538"
      ],
      "transaction": {
        "from": "0xddb342ecc94236c29a5307d3757d0724d759453c",
        "to": "0x17ceb8da41205f1026241766328751884afa7fe8",
        "gas": "0x1b4c1",
        "value": "0x1c6bf52634000",
        "input": "0x9b4085f6000000000000000000000000ddb342ecc94236c29a5307d3757d0724d759453c0000000000000000000000001c7d4b196cb0c7b01d743fbc6116a902379c7238000000000000000000000000000000000000000000000000000000000000021a",
        "nonce": "0x51f",
        "chainId": "0xaa36a7"
      },
      "additionalContracts": [],
      "isFixedGasLimit": false
    }
  ],
  "receipts": [
    {
      "status": "0x1",
      "cumulativeGasUsed": "0xbf98dc",
      "logs": [
        {
          "address": "0xe2bb56ee936fd6433dc0f6e7e3b8365c906aa057",
          "topics": [
            "0xdb80dd488acf86d17c747445b0eabb5d57c541d3bd7b6b87af987858e5066b2b",
            "0x00000000000000000000000017ceb8da41205f1026241766328751884afa7fe8",
            "0x05384d7aa25d47c73d60f2ee889af6b337544c534b05d8560578c06f01db55bd",
            "0x00f1149cade9d692862ad41df96b108aa2c20af34f640457e781d166c98dc6b0"
          ],
          "data": "0x00000000000000000000000000000000000000000000000000000000000000600000000000000000000000000000000000000000000000000000000000002c7f0000000000000000000000000000000000000000000000000001c6bf5263400000000000000000000000000000000000000000000000000000000000000000050000000000000000000000000000000000000000000000000000000000000002000000000000000000000000ddb342ecc94236c29a5307d3757d0724d759453c000000000000000000000000ddb342ecc94236c29a5307d3757d0724d759453c0000000000000000000000001c7d4b196cb0c7b01d743fbc6116a902379c7238000000000000000000000000000000000000000000000000000000000000021a",
          "blockHash": "0xe97fb9a7979e91990ea62e0c120750782d3c814073cf990028277431e5ef0826",
          "blockNumber": "0x730f0c",
          "transactionHash": "0x5d82671c79c98f45b247eee41223247d7f96e469139f1356208f11c1a8eb383c",
          "transactionIndex": "0x69",
          "logIndex": "0x9a",
          "removed": false
        },
        {
          "address": "0x17ceb8da41205f1026241766328751884afa7fe8",
          "topics": [
            "0x89bd98ae1b8dd4dbaeba50e40ad484414a306be9fb54ec4eecf1a801ca9aeacf",
            "0x000000000000000000000000ddb342ecc94236c29a5307d3757d0724d759453c"
          ],
          "data": "0x000000000000000000000000000000000000000000000000000000000000021a",
          "blockHash": "0xe97fb9a7979e91990ea62e0c120750782d3c814073cf990028277431e5ef0826",
          "blockNumber": "0x730f0c",
          "transactionHash": "0x5d82671c79c98f45b247eee41223247d7f96e469139f1356208f11c1a8eb383c",
          "transactionIndex": "0x69",
          "logIndex": "0x9b",
          "removed": false
        }
      ],
      "logsBloom": "0x00400002040000000000000000020000000000000000000000000000000000000000000000000000000000000800000000000000000000000000000000000000000000000000000000000000000000000000000000000040001000000000000400000000100000010000000000000000400000000000000000000000400000000000000000000000000000000000000004000000800000000000000000000010000000000000000000000020000000000000000004000000000000000000002800000000000000000000000000000000020000000000000000000000000000000000000000400000000000002000008000000000000000080000000000000000",
      "type": "0x2",
      "transactionHash": "0x5d82671c79c98f45b247eee41223247d7f96e469139f1356208f11c1a8eb383c",
      "transactionIndex": "0x69",
      "blockHash": "0xe97fb9a7979e91990ea62e0c120750782d3c814073cf990028277431e5ef0826",
      "blockNumber": "0x730f0c",
      "gasUsed": "0x12aa3",
      "effectiveGasPrice": "0xf469cb63",
      "from": "0xddb342ecc94236c29a5307d3757d0724d759453c",
      "to": "0x17ceb8da41205f1026241766328751884afa7fe8",
      "contractAddress": null
    }
  ],
  "libraries": [],
  "pending": [],
  "returns": {},
  "timestamp": 1737470246,
  "chain": 11155111,
  "commit": "fcbff6b"
}