{
  "transactions": [
    {
      "hash": "0x73ded81facf2d4d8fecded46c59bf8382f96e90c0da50d835e57b29c631cf7b2",
      "transactionType": "CALL",
      "contractName": null,
      "contractAddress": "0xca14007eff0db1f8135f4c25b34de49ab0d42766",
      "function": "approve(address,uint256)",
      "arguments": [
        "0x17ceB8Da41205f1026241766328751884Afa7FE8",
        "115792089237316195423570985008687907853269984665640564039457584007913129639935"
      ],
      "transaction": {
        "from": "0xddb342ecc94236c29a5307d3757d0724d759453c",
        "to": "0xca14007eff0db1f8135f4c25b34de49ab0d42766",
        "gas": "0x93a9",
        "value": "0x0",
        "input": "0x095ea7b300000000000000000000000017ceb8da41205f1026241766328751884afa7fe8ffffffffffffffffffffffffffffffffffffffffffffffffffffffffffffffff",
        "nonce": "0x4ea",
        "chainId": "0xaa36a7"
      },
      "additionalContracts": [],
      "isFixedGasLimit": false
    },
    {
      "hash": "0x54656a7c103aa36df1c8b44de46e5ed09e49471dc6e90298d8c200c7fe076b68",
      "transactionType": "CALL",
      "contractName": null,
      "contractAddress": "0x17ceb8da41205f1026241766328751884afa7fe8",
      "function": "depositAndCreateOrder((address,uint256,uint256,uint128,uint128,uint128,uint128))",
      "arguments": [
        "(0xDdb342ecc94236c29a5307d3757d0724D759453C, 2009894490435840142178314390393166646092438090257831307886760648929397478285, 2087021424722619777119509474943472645767659996348769578120564519014510906823, 170141183460469235273462165868118016, 1737398048, 1737398176, 5000000000000000)"
      ],
      "transaction": {
        "from": "0xddb342ecc94236c29a5307d3757d0724d759453c",
        "to": "0x17ceb8da41205f1026241766328751884afa7fe8",
        "gas": "0x3bc6d",
        "value": "0x1c6bf52634000",
        "input": "0x6c1cc3f4000000000000000000000000ddb342ecc94236c29a5307d3757d0724d759453c04718f5a0fc34cc1af16a1cdee98ffb20c31f5cd61d6ab07201858f4287c938d049d36570d4e46f48e99674bd3fcc84644ddd6b96f7c741b1562b82f9e004dc7000000000000000000000000000000000020c49ba5e353f8000000000000000000000000000000000000000000000000000000000000000000000000678e972000000000000000000000000000000000000000000000000000000000678e97a00000000000000000000000000000000000000000000000000011c37937e08000",
        "nonce": "0x4eb",
        "chainId": "0xaa36a7"
      },
      "additionalContracts": [],
      "isFixedGasLimit": false
    }
  ],
  "receipts": [
    {
      "status": "0x1",
      "cumulativeGasUsed": "0xa8797a",
      "logs": [
        {
          "address": "0xca14007eff0db1f8135f4c25b34de49ab0d42766",
          "topics": [
            "0x8c5be1e5ebec7d5bd14f71427d1e84f3dd0314c0f7b2291e5b200ac8c7c3b925",
            "0x000000000000000000000000ddb342ecc94236c29a5307d3757d0724d759453c",
            "0x00000000000000000000000017ceb8da41205f1026241766328751884afa7fe8"
          ],
          "data": "0xffffffffffffffffffffffffffffffffffffffffffffffffffffffffffffffff",
          "blockHash": "0xd0d1086e4fb97babd93d71c8988bc572dd4cdec6dc2ccb3456920ca8c6fce117",
          "blockNumber": "0x72f798",
          "transactionHash": "0x73ded81facf2d4d8fecded46c59bf8382f96e90c0da50d835e57b29c631cf7b2",
          "transactionIndex": "0x3a",
          "logIndex": "0x77",
          "removed": false
        }
      ],
      "logsBloom": "0x00000000000000000000000000000000000000000000000000000000000000000000000000000000000000000800000000000000000000000000000000200000000000000000000000000000000000000000000000000000000000000000000400000000000000000000000000000000400000000000000000000000400000000000000000000000000000000000000000000000000000000000000000000000020000000000000000000000000000000000000000000000000000000000000000000000000000020000000000000000020000000000000000800000000000000010000000400000000000000000000000000000001000000000000000000000",
      "type": "0x2",
      "transactionHash": "0x73ded81facf2d4d8fecded46c59bf8382f96e90c0da50d835e57b29c631cf7b2",
      "transactionIndex": "0x3a",
      "blockHash": "0xd0d1086e4fb97babd93d71c8988bc572dd4cdec6dc2ccb3456920ca8c6fce117",
      "blockNumber": "0x72f798",
      "gasUsed": "0x6ae8",
      "effectiveGasPrice": "0x3f4e2042",
      "from": "0xddb342ecc94236c29a5307d3757d0724d759453c",
      "to": "0xca14007eff0db1f8135f4c25b34de49ab0d42766",
      "contractAddress": null
    },
    {
      "status": "0x1",
      "cumulativeGasUsed": "0xab2dea",
      "logs": [
        {
          "address": "0xca14007eff0db1f8135f4c25b34de49ab0d42766",
          "topics": [
            "0x8c5be1e5ebec7d5bd14f71427d1e84f3dd0314c0f7b2291e5b200ac8c7c3b925",
            "0x00000000000000000000000017ceb8da41205f1026241766328751884afa7fe8",
            "0x00000000000000000000000017ceb8da41205f1026241766328751884afa7fe8"
          ],
          "data": "0x0000000000000000000000000000000000000000000000000011c37937e08000",
          "blockHash": "0xd0d1086e4fb97babd93d71c8988bc572dd4cdec6dc2ccb3456920ca8c6fce117",
          "blockNumber": "0x72f798",
          "transactionHash": "0x54656a7c103aa36df1c8b44de46e5ed09e49471dc6e90298d8c200c7fe076b68",
          "transactionIndex": "0x3b",
          "logIndex": "0x78",
          "removed": false
        },
        {
          "address": "0xca14007eff0db1f8135f4c25b34de49ab0d42766",
          "topics": [
            "0xddf252ad1be2c89b69c2b068fc378daa952ba7f163c4a11628f55a4df523b3ef",
            "0x000000000000000000000000ddb342ecc94236c29a5307d3757d0724d759453c",
            "0x00000000000000000000000017ceb8da41205f1026241766328751884afa7fe8"
          ],
          "data": "0x0000000000000000000000000000000000000000000000000011c37937e08000",
          "blockHash": "0xd0d1086e4fb97babd93d71c8988bc572dd4cdec6dc2ccb3456920ca8c6fce117",
          "blockNumber": "0x72f798",
          "transactionHash": "0x54656a7c103aa36df1c8b44de46e5ed09e49471dc6e90298d8c200c7fe076b68",
          "transactionIndex": "0x3b",
          "logIndex": "0x79",
          "removed": false
        },
        {
          "address": "0xca14007eff0db1f8135f4c25b34de49ab0d42766",
          "topics": [
            "0x8c5be1e5ebec7d5bd14f71427d1e84f3dd0314c0f7b2291e5b200ac8c7c3b925",
            "0x00000000000000000000000017ceb8da41205f1026241766328751884afa7fe8",
            "0x000000000000000000000000ce5485cfb26914c5dce00b9baf0580364dafc7a4"
          ],
          "data": "0x0000000000000000000000000000000000000000000000000011c37937e08000",
          "blockHash": "0xd0d1086e4fb97babd93d71c8988bc572dd4cdec6dc2ccb3456920ca8c6fce117",
          "blockNumber": "0x72f798",
          "transactionHash": "0x54656a7c103aa36df1c8b44de46e5ed09e49471dc6e90298d8c200c7fe076b68",
          "transactionIndex": "0x3b",
          "logIndex": "0x7a",
          "removed": false
        },
        {
          "address": "0xca14007eff0db1f8135f4c25b34de49ab0d42766",
          "topics": [
            "0x8c5be1e5ebec7d5bd14f71427d1e84f3dd0314c0f7b2291e5b200ac8c7c3b925",
            "0x00000000000000000000000017ceb8da41205f1026241766328751884afa7fe8",
            "0x000000000000000000000000ce5485cfb26914c5dce00b9baf0580364dafc7a4"
          ],
          "data": "0x0000000000000000000000000000000000000000000000000000000000000000",
          "blockHash": "0xd0d1086e4fb97babd93d71c8988bc572dd4cdec6dc2ccb3456920ca8c6fce117",
          "blockNumber": "0x72f798",
          "transactionHash": "0x54656a7c103aa36df1c8b44de46e5ed09e49471dc6e90298d8c200c7fe076b68",
          "transactionIndex": "0x3b",
          "logIndex": "0x7b",
          "removed": false
        },
        {
          "address": "0xca14007eff0db1f8135f4c25b34de49ab0d42766",
          "topics": [
            "0xddf252ad1be2c89b69c2b068fc378daa952ba7f163c4a11628f55a4df523b3ef",
            "0x00000000000000000000000017ceb8da41205f1026241766328751884afa7fe8",
            "0x000000000000000000000000ce5485cfb26914c5dce00b9baf0580364dafc7a4"
          ],
          "data": "0x0000000000000000000000000000000000000000000000000011c37937e08000",
          "blockHash": "0xd0d1086e4fb97babd93d71c8988bc572dd4cdec6dc2ccb3456920ca8c6fce117",
          "blockNumber": "0x72f798",
          "transactionHash": "0x54656a7c103aa36df1c8b44de46e5ed09e49471dc6e90298d8c200c7fe076b68",
          "transactionIndex": "0x3b",
          "logIndex": "0x7c",
          "removed": false
        },
        {
          "address": "0xe2bb56ee936fd6433dc0f6e7e3b8365c906aa057",
          "topics": [
            "0xdb80dd488acf86d17c747445b0eabb5d57c541d3bd7b6b87af987858e5066b2b",
            "0x000000000000000000000000ce5485cfb26914c5dce00b9baf0580364dafc7a4",
            "0x0594c1582459ea03f77deaf9eb7e3917d6994a03c13405ba42867f83d85f085d",
            "0x008bce41827dd5484d80312a2e43bc42a896e3fcf75bf84c2b49339168dfa00a"
          ],
          "data": "0x00000000000000000000000000000000000000000000000000000000000000600000000000000000000000000000000000000000000000000000000000002c430000000000000000000000000000000000000000000000000001c6bf52634000000000000000000000000000000000000000000000000000000000000000000e000000000000000000000000ca14007eff0db1f8135f4c25b34de49ab0d4276600000000000000000000000017ceb8da41205f1026241766328751884afa7fe807f7634d530030231a04892601d83bbc79defee8145d116d18fc4978e21f27410000000000000000000000000000000000000000000000000011c37937e08000000000000000000000000000000000000000000000000000000000000000000000000000000000000000000000000000000000000000000000000000000000080000000000000000000000000000000000000000000000000000000000000000000000000000000000000000ddb342ecc94236c29a5307d3757d0724d759453c04718f5a0fc34cc1af16a1cdee98ffb20c31f5cd61d6ab07201858f4287c938d049d36570d4e46f48e99674bd3fcc84644ddd6b96f7c741b1562b82f9e004dc7000000000000000000000000000000000020c49ba5e353f8000000000000000000000000000000000000000000000000000000000000000000000000678e972000000000000000000000000000000000000000000000000000000000678e97a00000000000000000000000000000000000000000000000000011c37937e08000",
          "blockHash": "0xd0d1086e4fb97babd93d71c8988bc572dd4cdec6dc2ccb3456920ca8c6fce117",
          "blockNumber": "0x72f798",
          "transactionHash": "0x54656a7c103aa36df1c8b44de46e5ed09e49471dc6e90298d8c200c7fe076b68",
          "transactionIndex": "0x3b",
          "logIndex": "0x7d",
          "removed": false
        },
        {
          "address": "0xce5485cfb26914c5dce00b9baf0580364dafc7a4",
          "topics": [
            "0x2203a49c69f1a46c1164f5e4a30643dd77b7c59c0ff9bc433256048365c247f1",
            "0x00000000000000000000000017ceb8da41205f1026241766328751884afa7fe8",
            "0x000000000000000000000000ca14007eff0db1f8135f4c25b34de49ab0d42766",
            "0x07f7634d530030231a04892601d83bbc79defee8145d116d18fc4978e21f2741"
          ],
          "data": "0x0000000000000000000000000000000000000000000000000011c37937e0800000000000000000000000000000000000000000000000000000000000000000800000000000000000000000000000000000000000000000000000000000002c430000000000000000000000000000000000000000000000000001c6bf5263400000000000000000000000000000000000000000000000000000000000000000080000000000000000000000000000000000000000000000000000000000000000000000000000000000000000ddb342ecc94236c29a5307d3757d0724d759453c04718f5a0fc34cc1af16a1cdee98ffb20c31f5cd61d6ab07201858f4287c938d049d36570d4e46f48e99674bd3fcc84644ddd6b96f7c741b1562b82f9e004dc7000000000000000000000000000000000020c49ba5e353f8000000000000000000000000000000000000000000000000000000000000000000000000678e972000000000000000000000000000000000000000000000000000000000678e97a00000000000000000000000000000000000000000000000000011c37937e08000",
          "blockHash": "0xd0d1086e4fb97babd93d71c8988bc572dd4cdec6dc2ccb3456920ca8c6fce117",
          "blockNumber": "0x72f798",
          "transactionHash": "0x54656a7c103aa36df1c8b44de46e5ed09e49471dc6e90298d8c200c7fe076b68",
          "transactionIndex": "0x3b",
          "logIndex": "0x7e",
          "removed": false
        },
        {
          "address": "0x17ceb8da41205f1026241766328751884afa7fe8",
          "topics": [
            "0xaf43445f7721522b7a3864ed3de53d7e2e658bfa1eeffa18e1e229be68ce2545",
            "0x000000000000000000000000ddb342ecc94236c29a5307d3757d0724d759453c",
            "0x07f7634d530030231a04892601d83bbc79defee8145d116d18fc4978e21f2741"
          ],
          "data": "0x0000000000000000000000000000000000000000000000000011c37937e080000000000000000000000000000000000000000000000000000000000000000001",
          "blockHash": "0xd0d1086e4fb97babd93d71c8988bc572dd4cdec6dc2ccb3456920ca8c6fce117",
          "blockNumber": "0x72f798",
          "transactionHash": "0x54656a7c103aa36df1c8b44de46e5ed09e49471dc6e90298d8c200c7fe076b68",
          "transactionIndex": "0x3b",
          "logIndex": "0x7f",
          "removed": false
        }
      ],
      "logsBloom": "0x00000200000000000000000000020000000000000000000000000040000000000000000000000000000000000800000000000000000004000000020000200000000000000000000000000008080000000000000000000040001000000000000600000000100000000000000000000000400000000000000000000010400008002000000000000000000000020000000000008000002200000000000000000010020000800000000000000020000000021000000004000000000000000000002800800002000000024010200000000000020000200000000000800000000000000010000000410000000000020004000000000000001000000000000000200000",
      "type": "0x2",
      "transactionHash": "0x54656a7c103aa36df1c8b44de46e5ed09e49471dc6e90298d8c200c7fe076b68",
      "transactionIndex": "0x3b",
      "blockHash": "0xd0d1086e4fb97babd93d71c8988bc572dd4cdec6dc2ccb3456920ca8c6fce117",
      "blockNumber": "0x72f798",
      "gasUsed": "0x2b470",
      "effectiveGasPrice": "0x3f4e2042",
      "from": "0xddb342ecc94236c29a5307d3757d0724d759453c",
      "to": "0x17ceb8da41205f1026241766328751884afa7fe8",
      "contractAddress": null
    }
  ],
  "libraries": [],
  "pending": [],
  "returns": {},
  "timestamp": 1737398078,
  "chain": 11155111,
  "commit": "fcbff6b"
}