{
  "transactions": [
    {
      "hash": "0x3e1c9bc8576c9013c53244f56c88ddb38490c5c7388c8a926a57bcde391d037a",
      "transactionType": "CALL",
      "contractName": null,
      "contractAddress": "0x8c3f4901dfaf00f43b11554d96db04fae340479e",
      "function": "initiateCancelDepositRequest(address,(address,uint256,uint256,uint128,uint128,uint128,uint128,address),uint256)",
      "arguments": [
        "0xCa14007Eff0dB1f8135f4C25B34De49AB0d42766",
        "(0xDdb342ecc94236c29a5307d3757d0724D759453C, 2009894490435840142178314390393166646092438090257831307886760648929397478285, 2366254414417873771392932940469309727793822550615514268240785277201753657472, 170141183460469235273462165868118016, 1736650848, 1736650976, 700000000000000, 0x8c3F4901dfAf00f43B11554d96Db04FAe340479E)",
        "11141"
      ],
      "transaction": {
        "from": "0xddb342ecc94236c29a5307d3757d0724d759453c",
        "to": "0x8c3f4901dfaf00f43b11554d96db04fae340479e",
        "gas": "0x22c4d",
        "value": "0x0",
        "input": "0xe2b3bddf000000000000000000000000ca14007eff0db1f8135f4c25b34de49ab0d42766000000000000000000000000ddb342ecc94236c29a5307d3757d0724d759453c04718f5a0fc34cc1af16a1cdee98ffb20c31f5cd61d6ab07201858f4287c938d053b40a647cedfca6ca84f542a0fe36736031905a9639a7f19a3c1e66bfd5080000000000000000000000000000000000020c49ba5e353f80000000000000000000000000000000000000000000000000000000000000000000000006783306000000000000000000000000000000000000000000000000000000000678330e000000000000000000000000000000000000000000000000000027ca57357c0000000000000000000000000008c3f4901dfaf00f43b11554d96db04fae340479e0000000000000000000000000000000000000000000000000000000000002b85",
        "nonce": "0x4a0",
        "chainId": "0xaa36a7"
      },
      "additionalContracts": [],
      "isFixedGasLimit": false
    }
  ],
  "receipts": [
    {
      "status": "0x1",
      "cumulativeGasUsed": "0xc0ad38",
      "logs": [
        {
          "address": "0xe2bb56ee936fd6433dc0f6e7e3b8365c906aa057",
          "topics": [
            "0x2e00dccd686fd6823ec7dc3e125582aa82881b6ff5f6b5a73856e1ea8338a3be",
            "0x000000000000000000000000ce5485cfb26914c5dce00b9baf0580364dafc7a4",
            "0x0594c1582459ea03f77deaf9eb7e3917d6994a03c13405ba42867f83d85f085d",
            "0x008bce41827dd5484d80312a2e43bc42a896e3fcf75bf84c2b49339168dfa00a"
          ],
          "data": "0x00000000000000000000000000000000000000000000000000000000000000400000000000000000000000000000000000000000000000000000000000002b85000000000000000000000000000000000000000000000000000000000000000f000000000000000000000000ca14007eff0db1f8135f4c25b34de49ab0d427660000000000000000000000008c3f4901dfaf00f43b11554d96db04fae340479e00b3fa26e2af15dda3690ff437257057ad524115b00182928b60d213d50281a600000000000000000000000000000000000000000000000000027ca57357c000000000000000000000000000000000000000000000000000000000000000000000000000000000000000000000000000000000000000000000000000000000090000000000000000000000000000000000000000000000000000000000000000000000000000000000000000ddb342ecc94236c29a5307d3757d0724d759453c04718f5a0fc34cc1af16a1cdee98ffb20c31f5cd61d6ab07201858f4287c938d053b40a647cedfca6ca84f542a0fe36736031905a9639a7f19a3c1e66bfd5080000000000000000000000000000000000020c49ba5e353f80000000000000000000000000000000000000000000000000000000000000000000000006783306000000000000000000000000000000000000000000000000000000000678330e000000000000000000000000000000000000000000000000000027ca57357c0000000000000000000000000008c3f4901dfaf00f43b11554d96db04fae340479e",
          "blockHash": "0x75c7ffddbc97c80e0eb126da93148dcc583f38a540931c2b293d165541a05bbe",
          "blockNumber": "0x720588",
          "transactionHash": "0x3e1c9bc8576c9013c53244f56c88ddb38490c5c7388c8a926a57bcde391d037a",
          "transactionIndex": "0x58",
          "logIndex": "0xd7",
          "removed": false
        },
        {
          "address": "0xce5485cfb26914c5dce00b9baf0580364dafc7a4",
          "topics": [
            "0x889e470f207032611b2f68dbd2124e3139794f19a6b536c83892fd5057603860",
            "0x0000000000000000000000008c3f4901dfaf00f43b11554d96db04fae340479e",
            "0x000000000000000000000000ca14007eff0db1f8135f4c25b34de49ab0d42766",
            "0x00b3fa26e2af15dda3690ff437257057ad524115b00182928b60d213d50281a6"
          ],
          "data": "0x00000000000000000000000000000000000000000000000000027ca57357c00000000000000000000000000000000000000000000000000000000000000000600000000000000000000000000000000000000000000000000000000000002b8500000000000000000000000000000000000000000000000000000000000000090000000000000000000000000000000000000000000000000000000000000000000000000000000000000000ddb342ecc94236c29a5307d3757d0724d759453c04718f5a0fc34cc1af16a1cdee98ffb20c31f5cd61d6ab07201858f4287c938d053b40a647cedfca6ca84f542a0fe36736031905a9639a7f19a3c1e66bfd5080000000000000000000000000000000000020c49ba5e353f80000000000000000000000000000000000000000000000000000000000000000000000006783306000000000000000000000000000000000000000000000000000000000678330e000000000000000000000000000000000000000000000000000027ca57357c0000000000000000000000000008c3f4901dfaf00f43b11554d96db04fae340479e",
          "blockHash": "0x75c7ffddbc97c80e0eb126da93148dcc583f38a540931c2b293d165541a05bbe",
          "blockNumber": "0x720588",
          "transactionHash": "0x3e1c9bc8576c9013c53244f56c88ddb38490c5c7388c8a926a57bcde391d037a",
          "transactionIndex": "0x58",
          "logIndex": "0xd8",
          "removed": false
        }
      ],
      "logsBloom": "0x00000000000000000000000000020000000000000000000000000040000000000000000000000000000000000000000000000000000004000000020200000000000000000000000000000000080000000000000000000040000000000000000000000000000000000000000000080000000000000000000004000000000008002000000000000000000000000000080000000000000200000000100028000010000000000000000000000002000000021200000000000000000000000000000000002000000000006010000000000000000000200000000000000000000000000000000000010000000000020004000000000000000000000000000000000004",
      "type": "0x2",
      "transactionHash": "0x3e1c9bc8576c9013c53244f56c88ddb38490c5c7388c8a926a57bcde391d037a",
      "transactionIndex": "0x58",
      "blockHash": "0x75c7ffddbc97c80e0eb126da93148dcc583f38a540931c2b293d165541a05bbe",
      "blockNumber": "0x720588",
      "gasUsed": "0x17c61",
      "effectiveGasPrice": "0xba8f4b3a",
      "from": "0xddb342ecc94236c29a5307d3757d0724d759453c",
      "to": "0x8c3f4901dfaf00f43b11554d96db04fae340479e",
      "contractAddress": null
    }
  ],
  "libraries": [],
  "pending": [],
  "returns": {},
  "timestamp": 1736651221,
  "chain": 11155111,
  "commit": "81b7af0"
}