{
  "transactions": [
    {
      "hash": "0xe24d2fbf2288625151371ea51e7833a55b1e773f5264a08acae92b866df25781",
      "transactionType": "CALL",
      "contractName": "StarkNetToken",
      "contractAddress": "0xCa14007Eff0dB1f8135f4C25B34De49AB0d42766",
      "function": "approve(address,uint256)",
      "arguments": [
        "0xfD56da8288718FC12A3ee96b47E2e8e46618081d",
        "115792089237316195423570985008687907853269984665640564039457584007913129639935"
      ],
      "transaction": {
        "type": "0x02",
        "from": "0xddb342ecc94236c29a5307d3757d0724d759453c",
        "to": "0xca14007eff0db1f8135f4c25b34de49ab0d42766",
        "gas": "0x93a9",
        "value": "0x0",
        "data": "0x095ea7b3000000000000000000000000fd56da8288718fc12a3ee96b47e2e8e46618081dffffffffffffffffffffffffffffffffffffffffffffffffffffffffffffffff",
        "nonce": "0x243",
        "accessList": []
      },
      "additionalContracts": [],
      "isFixedGasLimit": false
    },
    {
      "hash": "0x317dfdf2ce17c073403ff144016bc6b22cc545ac16cd33e8459ea32450be7aea",
      "transactionType": "CALL",
      "contractName": "L1TWAMMBridge",
      "contractAddress": "0xfD56da8288718FC12A3ee96b47E2e8e46618081d",
      "function": "_sendMessage(uint256,uint256,uint256[])",
      "arguments": [
        "3089538330910281035820262199898854238093350356025608835410404352860430644004",
        "425952401605428413817582304755919420533935873840436977667370850915372091056",
        "[2]"
      ],
      "transaction": {
        "type": "0x02",
        "from": "0xddb342ecc94236c29a5307d3757d0724d759453c",
        "to": "0xfd56da8288718fc12a3ee96b47e2e8e46618081d",
        "gas": "0x18293",
        "value": "0x7a120",
        "data": "0x88f439ef06d49de1cc47bd0d2e0e26a421268ec0139dc43c0870d5c0dec58c7603e9b32400f1149cade9d692862ad41df96b108aa2c20af34f640457e781d166c98dc6b0000000000000000000000000000000000000000000000000000000000000006000000000000000000000000000000000000000000000000000000000000000010000000000000000000000000000000000000000000000000000000000000002",
        "nonce": "0x244",
        "accessList": []
      },
      "additionalContracts": [],
      "isFixedGasLimit": false
    }
  ],
  "receipts": [],
  "libraries": [],
  "pending": [
    "0xe24d2fbf2288625151371ea51e7833a55b1e773f5264a08acae92b866df25781",
    "0x317dfdf2ce17c073403ff144016bc6b22cc545ac16cd33e8459ea32450be7aea"
  ],
  "returns": {},
  "timestamp": 1731060918,
  "chain": 11155111,
  "multi": false,
  "commit": "7c9bc56"
}