{
  "transactions": [
    {
      "hash": "0xb1ec9eddefff42bc3c994f0b26de0dd869f01a17d961286c3346cde9dd99c201",
      "transactionType": "CALL",
      "contractName": "StarkNetToken",
      "contractAddress": "0xCa14007Eff0dB1f8135f4C25B34De49AB0d42766",
      "function": "approve(address,uint256)",
      "arguments": [
        "0x450eED8bf009a64AD3F2f0a953E35e38100b93FB",
        "115792089237316195423570985008687907853269984665640564039457584007913129639935"
      ],
      "transaction": {
        "type": "0x02",
        "from": "0xddb342ecc94236c29a5307d3757d0724d759453c",
        "to": "0xca14007eff0db1f8135f4c25b34de49ab0d42766",
        "gas": "0xff08",
        "value": "0x0",
        "data": "0x095ea7b3000000000000000000000000450eed8bf009a64ad3f2f0a953e35e38100b93fbffffffffffffffffffffffffffffffffffffffffffffffffffffffffffffffff",
        "nonce": "0x2c2",
        "accessList": []
      },
      "additionalContracts": [],
      "isFixedGasLimit": false
    },
    {
      "hash": "0xf5f70581d50363d248d0f9c03478db4f3f79a114d852d73af130bbdd3af2084a",
      "transactionType": "CALL",
      "contractName": "StarkNetToken",
      "contractAddress": "0xCa14007Eff0dB1f8135f4C25B34De49AB0d42766",
      "function": "transfer(address,uint256)",
      "arguments": [
        "0x450eED8bf009a64AD3F2f0a953E35e38100b93FB",
        "500000000000"
      ],
      "transaction": {
        "type": "0x02",
        "from": "0xddb342ecc94236c29a5307d3757d0724d759453c",
        "to": "0xca14007eff0db1f8135f4c25b34de49ab0d42766",
        "gas": "0x1339c",
        "value": "0x0",
        "data": "0xa9059cbb000000000000000000000000450eed8bf009a64ad3f2f0a953e35e38100b93fb000000000000000000000000000000000000000000000000000000746a528800",
        "nonce": "0x2c3",
        "accessList": []
      },
      "additionalContracts": [],
      "isFixedGasLimit": false
    },
    {
      "hash": "0x072b80c5e8092eb1ef3a6f886607ab622235e022a5b174331b9f7dd71e5e267a",
      "transactionType": "CALL",
      "contractName": "L1TWAMMBridge",
      "contractAddress": "0x450eED8bf009a64AD3F2f0a953E35e38100b93FB",
      "function": "deposit(uint256,uint256)",
      "arguments": [
        "500000000000",
        "3117531291322932174770525195364711944787082330642693319882321808621721800224"
      ],
      "transaction": {
        "type": "0x02",
        "from": "0xddb342ecc94236c29a5307d3757d0724d759453c",
        "to": "0x450eed8bf009a64ad3f2f0a953e35e38100b93fb",
        "gas": "0x30231",
        "value": "0x5af3107a4000",
        "data": "0xe2bbb158000000000000000000000000000000000000000000000000000000746a52880006e475ce68486e1177a16ed9c8d22477b6fae34c3dc5c46015b02f20cc4ace20",
        "nonce": "0x2c4",
        "accessList": []
      },
      "additionalContracts": [],
      "isFixedGasLimit": false
    },
    {
      "hash": "0x24724925a9a4e49f0011d6b7dcd6abb4c99f09e377f1465dbbbc565f30c63aef",
      "transactionType": "CALL",
      "contractName": "Proxy",
      "contractAddress": "0xE2Bb56ee936fd6433DC0F6e7e3b8365C906AA057",
      "function": "sendMessageToL2(uint256,uint256,uint256[])",
      "arguments": [
        "3117531291322932174770525195364711944787082330642693319882321808621721800224",
        "425952401605428413817582304755919420533935873840436977667370850915372091056",
        "[0, 1265684623727634235329190328445374361672779121980, 2009894490435840142178314390393166646092438090257831307886760648929397478285, 2366254414417873771392932940469309727793822550615514268240785277201753657472, 170141183460469235273462165868118016, 1731437184, 1731437248, 500000000000]"
      ],
      "transaction": {
        "type": "0x02",
        "from": "0xddb342ecc94236c29a5307d3757d0724d759453c",
        "to": "0xe2bb56ee936fd6433dc0f6e7e3b8365c906aa057",
        "gas": "0x173c2",
        "value": "0x5af3107a4000",
        "data": "0x3e3aa6c506e475ce68486e1177a16ed9c8d22477b6fae34c3dc5c46015b02f20cc4ace2000f1149cade9d692862ad41df96b108aa2c20af34f640457e781d166c98dc6b0000000000000000000000000000000000000000000000000000000000000006000000000000000000000000000000000000000000000000000000000000000080000000000000000000000000000000000000000000000000000000000000000000000000000000000000000ddb342ecc94236c29a5307d3757d0724d759453c04718f5a0fc34cc1af16a1cdee98ffb20c31f5cd61d6ab07201858f4287c938d053b40a647cedfca6ca84f542a0fe36736031905a9639a7f19a3c1e66bfd5080000000000000000000000000000000000020c49ba5e353f80000000000000000000000000000000000000000000000000000000000000000000000006733a280000000000000000000000000000000000000000000000000000000006733a2c0000000000000000000000000000000000000000000000000000000746a528800",
        "nonce": "0x2c5",
        "accessList": []
      },
      "additionalContracts": [],
      "isFixedGasLimit": false
    }
  ],
  "receipts": [
    {
      "transactionHash": "0xb1ec9eddefff42bc3c994f0b26de0dd869f01a17d961286c3346cde9dd99c201",
      "transactionIndex": "0x7",
      "blockHash": "0x80d9097cf99895f541863273e983954d902661b9c1a76beb8a4347973fe7ff3a",
      "blockNumber": "0x6bc782",
      "from": "0xDdb342ecc94236c29a5307d3757d0724D759453C",
      "to": "0xCa14007Eff0dB1f8135f4C25B34De49AB0d42766",
      "cumulativeGasUsed": "0x962b0",
      "gasUsed": "0xb8a4",
      "contractAddress": null,
      "logs": [
        {
          "address": "0xCa14007Eff0dB1f8135f4C25B34De49AB0d42766",
          "topics": [
            "0x8c5be1e5ebec7d5bd14f71427d1e84f3dd0314c0f7b2291e5b200ac8c7c3b925",
            "0x000000000000000000000000ddb342ecc94236c29a5307d3757d0724d759453c",
            "0x000000000000000000000000450eed8bf009a64ad3f2f0a953e35e38100b93fb"
          ],
          "data": "0xffffffffffffffffffffffffffffffffffffffffffffffffffffffffffffffff",
          "blockHash": "0x80d9097cf99895f541863273e983954d902661b9c1a76beb8a4347973fe7ff3a",
          "blockNumber": "0x6bc782",
          "transactionHash": "0xb1ec9eddefff42bc3c994f0b26de0dd869f01a17d961286c3346cde9dd99c201",
          "transactionIndex": "0x7",
          "logIndex": "0xb",
          "removed": false
        }
      ],
      "status": "0x1",
      "logsBloom": "0x00000000000000000000000000000000000000000000000000000000000000000000000000000000000000000000000000000000000000000000001000200000000000000000000000000000000000000000000000000000000000000000000400000000000000000000000000000000400000000000000000000000480000000000000000000000000000000000000000000000000000000000000000000000020000000000000000000000000000000000000000000000000000000000008000000000000000020000000000000000000000000000000000800000000000000010000000000000000000000000000000000000001000000000000000000000",
      "type": "0x2",
      "effectiveGasPrice": "0x163e1807e"
    },
    {
      "transactionHash": "0xf5f70581d50363d248d0f9c03478db4f3f79a114d852d73af130bbdd3af2084a",
      "transactionIndex": "0x8",
      "blockHash": "0x80d9097cf99895f541863273e983954d902661b9c1a76beb8a4347973fe7ff3a",
      "blockNumber": "0x6bc782",
      "from": "0xDdb342ecc94236c29a5307d3757d0724D759453C",
      "to": "0xCa14007Eff0dB1f8135f4C25B34De49AB0d42766",
      "cumulativeGasUsed": "0xa4165",
      "gasUsed": "0xdeb5",
      "contractAddress": null,
      "logs": [
        {
          "address": "0xCa14007Eff0dB1f8135f4C25B34De49AB0d42766",
          "topics": [
            "0xddf252ad1be2c89b69c2b068fc378daa952ba7f163c4a11628f55a4df523b3ef",
            "0x000000000000000000000000ddb342ecc94236c29a5307d3757d0724d759453c",
            "0x000000000000000000000000450eed8bf009a64ad3f2f0a953e35e38100b93fb"
          ],
          "data": "0x000000000000000000000000000000000000000000000000000000746a528800",
          "blockHash": "0x80d9097cf99895f541863273e983954d902661b9c1a76beb8a4347973fe7ff3a",
          "blockNumber": "0x6bc782",
          "transactionHash": "0xf5f70581d50363d248d0f9c03478db4f3f79a114d852d73af130bbdd3af2084a",
          "transactionIndex": "0x8",
          "logIndex": "0xc",
          "removed": false
        }
      ],
      "status": "0x1",
      "logsBloom": "0x00000000000000000000000000000000000000000000000000000000000000000000000000000000000000000000000000000000000000000000001000000000000000000000000000000008000000000000000000000000000000000000000400000000000000000000000000000000400000000000000000000010480000000000000000000000000000000000000000000000000000000000000000000000000000000000000000000000000000000000000000000000000000000000008000000002000000020000000000000000000000000000000000800000000000000000000000000000000000000000000000000000001000000000000000000000",
      "type": "0x2",
      "effectiveGasPrice": "0x163e1807e"
    },
    {
      "transactionHash": "0x072b80c5e8092eb1ef3a6f886607ab622235e022a5b174331b9f7dd71e5e267a",
      "transactionIndex": "0x9",
      "blockHash": "0x80d9097cf99895f541863273e983954d902661b9c1a76beb8a4347973fe7ff3a",
      "blockNumber": "0x6bc782",
      "from": "0xDdb342ecc94236c29a5307d3757d0724D759453C",
      "to": "0x450eED8bf009a64AD3F2f0a953E35e38100b93FB",
      "cumulativeGasUsed": "0xc5006",
      "gasUsed": "0x20ea1",
      "contractAddress": null,
      "logs": [
        {
          "address": "0xCa14007Eff0dB1f8135f4C25B34De49AB0d42766",
          "topics": [
            "0x8c5be1e5ebec7d5bd14f71427d1e84f3dd0314c0f7b2291e5b200ac8c7c3b925",
            "0x000000000000000000000000450eed8bf009a64ad3f2f0a953e35e38100b93fb",
            "0x000000000000000000000000ce5485cfb26914c5dce00b9baf0580364dafc7a4"
          ],
          "data": "0x000000000000000000000000000000000000000000000000000000746a528800",
          "blockHash": "0x80d9097cf99895f541863273e983954d902661b9c1a76beb8a4347973fe7ff3a",
          "blockNumber": "0x6bc782",
          "transactionHash": "0x072b80c5e8092eb1ef3a6f886607ab622235e022a5b174331b9f7dd71e5e267a",
          "transactionIndex": "0x9",
          "logIndex": "0xd",
          "removed": false
        },
        {
          "address": "0xCa14007Eff0dB1f8135f4C25B34De49AB0d42766",
          "topics": [
            "0x8c5be1e5ebec7d5bd14f71427d1e84f3dd0314c0f7b2291e5b200ac8c7c3b925",
            "0x000000000000000000000000450eed8bf009a64ad3f2f0a953e35e38100b93fb",
            "0x000000000000000000000000ce5485cfb26914c5dce00b9baf0580364dafc7a4"
          ],
          "data": "0x0000000000000000000000000000000000000000000000000000000000000000",
          "blockHash": "0x80d9097cf99895f541863273e983954d902661b9c1a76beb8a4347973fe7ff3a",
          "blockNumber": "0x6bc782",
          "transactionHash": "0x072b80c5e8092eb1ef3a6f886607ab622235e022a5b174331b9f7dd71e5e267a",
          "transactionIndex": "0x9",
          "logIndex": "0xe",
          "removed": false
        },
        {
          "address": "0xCa14007Eff0dB1f8135f4C25B34De49AB0d42766",
          "topics": [
            "0xddf252ad1be2c89b69c2b068fc378daa952ba7f163c4a11628f55a4df523b3ef",
            "0x000000000000000000000000450eed8bf009a64ad3f2f0a953e35e38100b93fb",
            "0x000000000000000000000000ce5485cfb26914c5dce00b9baf0580364dafc7a4"
          ],
          "data": "0x000000000000000000000000000000000000000000000000000000746a528800",
          "blockHash": "0x80d9097cf99895f541863273e983954d902661b9c1a76beb8a4347973fe7ff3a",
          "blockNumber": "0x6bc782",
          "transactionHash": "0x072b80c5e8092eb1ef3a6f886607ab622235e022a5b174331b9f7dd71e5e267a",
          "transactionIndex": "0x9",
          "logIndex": "0xf",
          "removed": false
        },
        {
          "address": "0xE2Bb56ee936fd6433DC0F6e7e3b8365C906AA057",
          "topics": [
            "0xdb80dd488acf86d17c747445b0eabb5d57c541d3bd7b6b87af987858e5066b2b",
            "0x000000000000000000000000ce5485cfb26914c5dce00b9baf0580364dafc7a4",
            "0x0594c1582459ea03f77deaf9eb7e3917d6994a03c13405ba42867f83d85f085d",
            "0x01b64b1b3b690b43b9b514fb81377518f4039cd3e4f4914d8a6bdf01d679fb19"
          ],
          "data": "0x0000000000000000000000000000000000000000000000000000000000000060000000000000000000000000000000000000000000000000000000000000283600000000000000000000000000000000000000000000000000005af3107a40000000000000000000000000000000000000000000000000000000000000000005000000000000000000000000ca14007eff0db1f8135f4c25b34de49ab0d42766000000000000000000000000450eed8bf009a64ad3f2f0a953e35e38100b93fb06e475ce68486e1177a16ed9c8d22477b6fae34c3dc5c46015b02f20cc4ace20000000000000000000000000000000000000000000000000000000746a5288000000000000000000000000000000000000000000000000000000000000000000",
          "blockHash": "0x80d9097cf99895f541863273e983954d902661b9c1a76beb8a4347973fe7ff3a",
          "blockNumber": "0x6bc782",
          "transactionHash": "0x072b80c5e8092eb1ef3a6f886607ab622235e022a5b174331b9f7dd71e5e267a",
          "transactionIndex": "0x9",
          "logIndex": "0x10",
          "removed": false
        },
        {
          "address": "0xcE5485Cfb26914C5dcE00B9BAF0580364daFC7a4",
          "topics": [
            "0x5f971bd00bf3ffbca8a6d72cdd4fd92cfd4f62636161921d1e5a64f0b64ccb6d",
            "0x000000000000000000000000450eed8bf009a64ad3f2f0a953e35e38100b93fb",
            "0x000000000000000000000000ca14007eff0db1f8135f4c25b34de49ab0d42766",
            "0x06e475ce68486e1177a16ed9c8d22477b6fae34c3dc5c46015b02f20cc4ace20"
          ],
          "data": "0x000000000000000000000000000000000000000000000000000000746a528800000000000000000000000000000000000000000000000000000000000000283600000000000000000000000000000000000000000000000000005af3107a4000",
          "blockHash": "0x80d9097cf99895f541863273e983954d902661b9c1a76beb8a4347973fe7ff3a",
          "blockNumber": "0x6bc782",
          "transactionHash": "0x072b80c5e8092eb1ef3a6f886607ab622235e022a5b174331b9f7dd71e5e267a",
          "transactionIndex": "0x9",
          "logIndex": "0x11",
          "removed": false
        }
      ],
      "status": "0x1",
      "logsBloom": "0x00001000000004000200000000020000000000000000000000000000000000400000000000000000000000000000000000000000000004000000001000200000000000000000000000000008080000000000000000000040001000000000000000000000100000000000000000000000000000000000000000000010080008002000000000000000000000000400000000000000000200000000020000000010020000000000000000000020000000001000000000000020000000000000008000000002000000024010000000000000000000200000000000800000020000000010000000010000000000020084000000000000001000000000000000000000",
      "type": "0x2",
      "effectiveGasPrice": "0x163e1807e"
    },
    {
      "transactionHash": "0x24724925a9a4e49f0011d6b7dcd6abb4c99f09e377f1465dbbbc565f30c63aef",
      "transactionIndex": "0xa",
      "blockHash": "0x80d9097cf99895f541863273e983954d902661b9c1a76beb8a4347973fe7ff3a",
      "blockNumber": "0x6bc782",
      "from": "0xDdb342ecc94236c29a5307d3757d0724D759453C",
      "to": "0xE2Bb56ee936fd6433DC0F6e7e3b8365C906AA057",
      "cumulativeGasUsed": "0xd4e38",
      "gasUsed": "0xfe32",
      "contractAddress": null,
      "logs": [
        {
          "address": "0xE2Bb56ee936fd6433DC0F6e7e3b8365C906AA057",
          "topics": [
            "0xdb80dd488acf86d17c747445b0eabb5d57c541d3bd7b6b87af987858e5066b2b",
            "0x000000000000000000000000ddb342ecc94236c29a5307d3757d0724d759453c",
            "0x06e475ce68486e1177a16ed9c8d22477b6fae34c3dc5c46015b02f20cc4ace20",
            "0x00f1149cade9d692862ad41df96b108aa2c20af34f640457e781d166c98dc6b0"
          ],
          "data": "0x0000000000000000000000000000000000000000000000000000000000000060000000000000000000000000000000000000000000000000000000000000283700000000000000000000000000000000000000000000000000005af3107a400000000000000000000000000000000000000000000000000000000000000000080000000000000000000000000000000000000000000000000000000000000000000000000000000000000000ddb342ecc94236c29a5307d3757d0724d759453c04718f5a0fc34cc1af16a1cdee98ffb20c31f5cd61d6ab07201858f4287c938d053b40a647cedfca6ca84f542a0fe36736031905a9639a7f19a3c1e66bfd5080000000000000000000000000000000000020c49ba5e353f80000000000000000000000000000000000000000000000000000000000000000000000006733a280000000000000000000000000000000000000000000000000000000006733a2c0000000000000000000000000000000000000000000000000000000746a528800",
          "blockHash": "0x80d9097cf99895f541863273e983954d902661b9c1a76beb8a4347973fe7ff3a",
          "blockNumber": "0x6bc782",
          "transactionHash": "0x24724925a9a4e49f0011d6b7dcd6abb4c99f09e377f1465dbbbc565f30c63aef",
          "transactionIndex": "0xa",
          "logIndex": "0x12",
          "removed": false
        }
      ],
      "status": "0x1",
      "logsBloom": "0x00401000000004000000000000020000000000000000000000000000000000000000000000000000000000000000000000000000000000000000000000000000000000000000000000000000000000000000000000000040001000000000000400000000100000010000000000000000400000000000000000000000400000000000000000000000000000000000000004000000000000000000000000000010000000000000000000000020000000000000000000000000000000000000000000000000000000000000000000000000000000000000000000000000020000000000000000000000000000000000000000000000000000000000000000000000",
      "type": "0x2",
      "effectiveGasPrice": "0x163e1807e"
    }
  ],
  "libraries": [],
  "pending": [],
  "returns": {},
  "timestamp": 1731437239,
  "chain": 11155111,
  "multi": false,
  "commit": "39f9f49"
}