{
  "transactions": [
    {
      "hash": "0xd2188d5ee104307e5cdc854ff1254551bbde4b284cf4164252439a0884c359d7",
      "transactionType": "CALL",
      "contractName": "StarkNetToken",
      "contractAddress": "0xCa14007Eff0dB1f8135f4C25B34De49AB0d42766",
      "function": "approve(address,uint256)",
      "arguments": [
        "0x7eb4C59eABE1234E8A6D02FdF4d1BB595C4702Cd",
        "115792089237316195423570985008687907853269984665640564039457584007913129639935"
      ],
      "transaction": {
        "type": "0x02",
        "from": "0xddb342ecc94236c29a5307d3757d0724d759453c",
        "to": "0xca14007eff0db1f8135f4c25b34de49ab0d42766",
        "gas": "0x93a9",
        "value": "0x0",
        "data": "0x095ea7b30000000000000000000000007eb4c59eabe1234e8a6d02fdf4d1bb595c4702cdffffffffffffffffffffffffffffffffffffffffffffffffffffffffffffffff",
        "nonce": "0x379",
        "accessList": []
      },
      "additionalContracts": [],
      "isFixedGasLimit": false
    },
    {
      "hash": "0x10a2b2024b1b0185991e00c3bb0ffdc858f2dc73d6a28f83a03828e3780d510f",
      "transactionType": "CALL",
      "contractName": null,
      "contractAddress": "0x7eb4C59eABE1234E8A6D02FdF4d1BB595C4702Cd",
      "function": "setL2EndpointAddress(uint256)",
      "arguments": [
        "1086827774494004519519743595103294548273267632387970365253716245041346144282"
      ],
      "transaction": {
        "type": "0x02",
        "from": "0xddb342ecc94236c29a5307d3757d0724d759453c",
        "to": "0x7eb4c59eabe1234e8a6d02fdf4d1bb595c4702cd",
        "gas": "0xabab",
        "value": "0x0",
        "data": "0x5155fb2f02671f6aa8ae616126c428d5ba4ff9ad3c4b871c2fc6518bb79497ff9786681a",
        "nonce": "0x37a",
        "accessList": []
      },
      "additionalContracts": [],
      "isFixedGasLimit": false
    }
  ],
  "receipts": [
    {
      "transactionHash": "0xd2188d5ee104307e5cdc854ff1254551bbde4b284cf4164252439a0884c359d7",
      "transactionIndex": "0x1",
      "blockHash": "0xfb44128ab9b78571bba5db1e0c813515832c4c662129c68d507fbda0daf18ab9",
      "blockNumber": "0x6d3c70",
      "from": "0xDdb342ecc94236c29a5307d3757d0724D759453C",
      "to": "0xCa14007Eff0dB1f8135f4C25B34De49AB0d42766",
      "cumulativeGasUsed": "0xbcf0",
      "gasUsed": "0x6ae8",
      "contractAddress": null,
      "logs": [
        {
          "address": "0xCa14007Eff0dB1f8135f4C25B34De49AB0d42766",
          "topics": [
            "0x8c5be1e5ebec7d5bd14f71427d1e84f3dd0314c0f7b2291e5b200ac8c7c3b925",
            "0x000000000000000000000000ddb342ecc94236c29a5307d3757d0724d759453c",
            "0x0000000000000000000000007eb4c59eabe1234e8a6d02fdf4d1bb595c4702cd"
          ],
          "data": "0xffffffffffffffffffffffffffffffffffffffffffffffffffffffffffffffff",
          "blockHash": "0xfb44128ab9b78571bba5db1e0c813515832c4c662129c68d507fbda0daf18ab9",
          "blockNumber": "0x6d3c70",
          "transactionHash": "0xd2188d5ee104307e5cdc854ff1254551bbde4b284cf4164252439a0884c359d7",
          "transactionIndex": "0x1",
          "logIndex": "0x0",
          "removed": false
        }
      ],
      "status": "0x1",
      "logsBloom": "0x00000000000000100000000000000000000000000000000000000000000000000000000000000000000000000000000000000000000000000000000000200000000000000000000000000000000000000000000000000000000000000000000400020000000000000000000000000000400000000000000000000000400000000000000000000000000000000000000000000000000000000000000000000000020000000000000000000000000000008000000000000000000000000000000000000000000000020000000000000000000000000000000000800000000000000010000000000000000000000000000000000000001000000000000000000000",
      "type": "0x2",
      "effectiveGasPrice": "0xf49ce129"
    },
    {
      "transactionHash": "0x10a2b2024b1b0185991e00c3bb0ffdc858f2dc73d6a28f83a03828e3780d510f",
      "transactionIndex": "0x2",
      "blockHash": "0xfb44128ab9b78571bba5db1e0c813515832c4c662129c68d507fbda0daf18ab9",
      "blockNumber": "0x6d3c70",
      "from": "0xDdb342ecc94236c29a5307d3757d0724D759453C",
      "to": "0x7eb4C59eABE1234E8A6D02FdF4d1BB595C4702Cd",
      "cumulativeGasUsed": "0x13252",
      "gasUsed": "0x7562",
      "contractAddress": null,
      "logs": [
        {
          "address": "0x7eb4C59eABE1234E8A6D02FdF4d1BB595C4702Cd",
          "topics": [
            "0xa35dce9e53611b0cabca886209c4a1d09c80214af9b6fb6027f7b2f7c39838e8"
          ],
          "data": "0x02671f6aa8ae616126c428d5ba4ff9ad3c4b871c2fc6518bb79497ff9786681a",
          "blockHash": "0xfb44128ab9b78571bba5db1e0c813515832c4c662129c68d507fbda0daf18ab9",
          "blockNumber": "0x6d3c70",
          "transactionHash": "0x10a2b2024b1b0185991e00c3bb0ffdc858f2dc73d6a28f83a03828e3780d510f",
          "transactionIndex": "0x2",
          "logIndex": "0x1",
          "removed": false
        }
      ],
      "status": "0x1",
      "logsBloom": "0x00000000000000000000000010000000000000000000000000000000000000000000000000000000000000000000000000000000000000200000000000000000000000000000000000000000000200000000000000000000000000000000000000000000000000000000000000000000000000000000000000000001000000000000000000000000000000000000000000000000000000000000000000000000800000000000000000000000000000200000000000000000000000000000000000000000000000000000000000000000000000000000000000000000000000000000000000000000000000000000000000000000000000000000000000000000",
      "type": "0x2",
      "effectiveGasPrice": "0xf49ce129"
    }
  ],
  "libraries": [],
  "pending": [],
  "returns": {},
  "timestamp": 1732655514,
  "chain": 11155111,
  "multi": false,
  "commit": "1254ada"
}