{
  "transactions": [
    {
      "hash": "0x544f93e1b4146ce9f4e3047c654967d6667ce9d6ec2fd63456464c4ad1a5c3e4",
      "transactionType": "CALL",
      "contractName": "StarkNetToken",
      "contractAddress": "0xCa14007Eff0dB1f8135f4C25B34De49AB0d42766",
      "function": "approve(address,uint256)",
      "arguments": [
        "0x0Ed0e15f0D7362b95A7F4441FCBfb948b63FD61b",
        "115792089237316195423570985008687907853269984665640564039457584007913129639935"
      ],
      "transaction": {
        "type": "0x02",
        "from": "0xddb342ecc94236c29a5307d3757d0724d759453c",
        "to": "0xca14007eff0db1f8135f4c25b34de49ab0d42766",
        "gas": "0x93a9",
        "value": "0x0",
        "data": "0x095ea7b30000000000000000000000000ed0e15f0d7362b95a7f4441fcbfb948b63fd61bffffffffffffffffffffffffffffffffffffffffffffffffffffffffffffffff",
        "nonce": "0x3b8",
        "accessList": []
      },
      "additionalContracts": [],
      "isFixedGasLimit": false
    },
    {
      "hash": "0x741a7622c49dd32c2873dc6a996002938b2c6d975e3100cd1d89f499765ca205",
      "transactionType": "CALL",
      "contractName": null,
      "contractAddress": "0x0Ed0e15f0D7362b95A7F4441FCBfb948b63FD61b",
      "function": "depositAndCreateOrder((address,uint256,uint256,uint128,uint128,uint128,uint128))",
      "arguments": [
        "(0xDdb342ecc94236c29a5307d3757d0724D759453C, 2009894490435840142178314390393166646092438090257831307886760648929397478285, 2366254414417873771392932940469309727793822550615514268240785277201753657472, 170141183460469235273462165868118016, 1733404880, 1733405136, 500000000000000)"
      ],
      "transaction": {
        "type": "0x02",
        "from": "0xddb342ecc94236c29a5307d3757d0724d759453c",
        "to": "0x0ed0e15f0d7362b95a7f4441fcbfb948b63fd61b",
        "gas": "0x44df4",
        "value": "0x1c6bf52634000",
        "data": "0x6c1cc3f4000000000000000000000000ddb342ecc94236c29a5307d3757d0724d759453c04718f5a0fc34cc1af16a1cdee98ffb20c31f5cd61d6ab07201858f4287c938d053b40a647cedfca6ca84f542a0fe36736031905a9639a7f19a3c1e66bfd5080000000000000000000000000000000000020c49ba5e353f80000000000000000000000000000000000000000000000000000000000000000000000006751a8d0000000000000000000000000000000000000000000000000000000006751a9d00000000000000000000000000000000000000000000000000001c6bf52634000",
        "nonce": "0x3b9",
        "accessList": []
      },
      "additionalContracts": [],
      "isFixedGasLimit": false
    }
  ],
  "receipts": [
    {
      "transactionHash": "0x544f93e1b4146ce9f4e3047c654967d6667ce9d6ec2fd63456464c4ad1a5c3e4",
      "transactionIndex": "0xa",
      "blockHash": "0xcbb07280d80313688c613729b66ef91a3170eaef54893de57cdfa78c35bc9c38",
      "blockNumber": "0x6e1dde",
      "from": "0xDdb342ecc94236c29a5307d3757d0724D759453C",
      "to": "0xCa14007Eff0dB1f8135f4C25B34De49AB0d42766",
      "cumulativeGasUsed": "0x11bea3",
      "gasUsed": "0x6ae8",
      "contractAddress": null,
      "logs": [
        {
          "address": "0xCa14007Eff0dB1f8135f4C25B34De49AB0d42766",
          "topics": [
            "0x8c5be1e5ebec7d5bd14f71427d1e84f3dd0314c0f7b2291e5b200ac8c7c3b925",
            "0x000000000000000000000000ddb342ecc94236c29a5307d3757d0724d759453c",
            "0x0000000000000000000000000ed0e15f0d7362b95a7f4441fcbfb948b63fd61b"
          ],
          "data": "0xffffffffffffffffffffffffffffffffffffffffffffffffffffffffffffffff",
          "blockHash": "0xcbb07280d80313688c613729b66ef91a3170eaef54893de57cdfa78c35bc9c38",
          "blockNumber": "0x6e1dde",
          "transactionHash": "0x544f93e1b4146ce9f4e3047c654967d6667ce9d6ec2fd63456464c4ad1a5c3e4",
          "transactionIndex": "0xa",
          "logIndex": "0x21",
          "removed": false
        }
      ],
      "status": "0x1",
      "logsBloom": "0x00000000000000000000000000000000000000000000000000000000000000000000001000000000000000000000000002002000000000000000000000200000000000000000000000000000000000000000000000000000000000000000000400000000000000000000000000000000400000000000000000000000400000000000000000000000000000000000000000000000000000000000000000000000020000000000000000000000000000000000000000000000000000000000000000000000000000020000000000000000000000000000000000800000000000000010000000000000000000000000000000000000001000000000000000000000",
      "type": "0x2",
      "effectiveGasPrice": "0x8306ce919"
    },
    {
      "transactionHash": "0x741a7622c49dd32c2873dc6a996002938b2c6d975e3100cd1d89f499765ca205",
      "transactionIndex": "0xb",
      "blockHash": "0xcbb07280d80313688c613729b66ef91a3170eaef54893de57cdfa78c35bc9c38",
      "blockNumber": "0x6e1dde",
      "from": "0xDdb342ecc94236c29a5307d3757d0724D759453C",
      "to": "0x0Ed0e15f0D7362b95A7F4441FCBfb948b63FD61b",
      "cumulativeGasUsed": "0x14dc6f",
      "gasUsed": "0x31dcc",
      "contractAddress": null,
      "logs": [
        {
          "address": "0xCa14007Eff0dB1f8135f4C25B34De49AB0d42766",
          "topics": [
            "0xddf252ad1be2c89b69c2b068fc378daa952ba7f163c4a11628f55a4df523b3ef",
            "0x000000000000000000000000ddb342ecc94236c29a5307d3757d0724d759453c",
            "0x0000000000000000000000000ed0e15f0d7362b95a7f4441fcbfb948b63fd61b"
          ],
          "data": "0x0000000000000000000000000000000000000000000000000001c6bf52634000",
          "blockHash": "0xcbb07280d80313688c613729b66ef91a3170eaef54893de57cdfa78c35bc9c38",
          "blockNumber": "0x6e1dde",
          "transactionHash": "0x741a7622c49dd32c2873dc6a996002938b2c6d975e3100cd1d89f499765ca205",
          "transactionIndex": "0xb",
          "logIndex": "0x22",
          "removed": false
        },
        {
          "address": "0xCa14007Eff0dB1f8135f4C25B34De49AB0d42766",
          "topics": [
            "0x8c5be1e5ebec7d5bd14f71427d1e84f3dd0314c0f7b2291e5b200ac8c7c3b925",
            "0x0000000000000000000000000ed0e15f0d7362b95a7f4441fcbfb948b63fd61b",
            "0x000000000000000000000000ce5485cfb26914c5dce00b9baf0580364dafc7a4"
          ],
          "data": "0x0000000000000000000000000000000000000000000000000000000000000000",
          "blockHash": "0xcbb07280d80313688c613729b66ef91a3170eaef54893de57cdfa78c35bc9c38",
          "blockNumber": "0x6e1dde",
          "transactionHash": "0x741a7622c49dd32c2873dc6a996002938b2c6d975e3100cd1d89f499765ca205",
          "transactionIndex": "0xb",
          "logIndex": "0x23",
          "removed": false
        },
        {
          "address": "0xCa14007Eff0dB1f8135f4C25B34De49AB0d42766",
          "topics": [
            "0x8c5be1e5ebec7d5bd14f71427d1e84f3dd0314c0f7b2291e5b200ac8c7c3b925",
            "0x0000000000000000000000000ed0e15f0d7362b95a7f4441fcbfb948b63fd61b",
            "0x000000000000000000000000ce5485cfb26914c5dce00b9baf0580364dafc7a4"
          ],
          "data": "0x0000000000000000000000000000000000000000000000000001c6bf52634000",
          "blockHash": "0xcbb07280d80313688c613729b66ef91a3170eaef54893de57cdfa78c35bc9c38",
          "blockNumber": "0x6e1dde",
          "transactionHash": "0x741a7622c49dd32c2873dc6a996002938b2c6d975e3100cd1d89f499765ca205",
          "transactionIndex": "0xb",
          "logIndex": "0x24",
          "removed": false
        },
        {
          "address": "0xCa14007Eff0dB1f8135f4C25B34De49AB0d42766",
          "topics": [
            "0x8c5be1e5ebec7d5bd14f71427d1e84f3dd0314c0f7b2291e5b200ac8c7c3b925",
            "0x0000000000000000000000000ed0e15f0d7362b95a7f4441fcbfb948b63fd61b",
            "0x000000000000000000000000ce5485cfb26914c5dce00b9baf0580364dafc7a4"
          ],
          "data": "0x0000000000000000000000000000000000000000000000000000000000000000",
          "blockHash": "0xcbb07280d80313688c613729b66ef91a3170eaef54893de57cdfa78c35bc9c38",
          "blockNumber": "0x6e1dde",
          "transactionHash": "0x741a7622c49dd32c2873dc6a996002938b2c6d975e3100cd1d89f499765ca205",
          "transactionIndex": "0xb",
          "logIndex": "0x25",
          "removed": false
        },
        {
          "address": "0xCa14007Eff0dB1f8135f4C25B34De49AB0d42766",
          "topics": [
            "0xddf252ad1be2c89b69c2b068fc378daa952ba7f163c4a11628f55a4df523b3ef",
            "0x0000000000000000000000000ed0e15f0d7362b95a7f4441fcbfb948b63fd61b",
            "0x000000000000000000000000ce5485cfb26914c5dce00b9baf0580364dafc7a4"
          ],
          "data": "0x0000000000000000000000000000000000000000000000000001c6bf52634000",
          "blockHash": "0xcbb07280d80313688c613729b66ef91a3170eaef54893de57cdfa78c35bc9c38",
          "blockNumber": "0x6e1dde",
          "transactionHash": "0x741a7622c49dd32c2873dc6a996002938b2c6d975e3100cd1d89f499765ca205",
          "transactionIndex": "0xb",
          "logIndex": "0x26",
          "removed": false
        },
        {
          "address": "0xE2Bb56ee936fd6433DC0F6e7e3b8365C906AA057",
          "topics": [
            "0xdb80dd488acf86d17c747445b0eabb5d57c541d3bd7b6b87af987858e5066b2b",
            "0x000000000000000000000000ce5485cfb26914c5dce00b9baf0580364dafc7a4",
            "0x0594c1582459ea03f77deaf9eb7e3917d6994a03c13405ba42867f83d85f085d",
            "0x01b64b1b3b690b43b9b514fb81377518f4039cd3e4f4914d8a6bdf01d679fb19"
          ],
          "data": "0x000000000000000000000000000000000000000000000000000000000000006000000000000000000000000000000000000000000000000000000000000029af00000000000000000000000000000000000000000000000000005af3107a40000000000000000000000000000000000000000000000000000000000000000005000000000000000000000000ca14007eff0db1f8135f4c25b34de49ab0d427660000000000000000000000000ed0e15f0d7362b95a7f4441fcbfb948b63fd61b015da9803e7252cea729da23bf18f83c7d6d608cfc4bff24e9acb72b3fd01a650000000000000000000000000000000000000000000000000001c6bf526340000000000000000000000000000000000000000000000000000000000000000000",
          "blockHash": "0xcbb07280d80313688c613729b66ef91a3170eaef54893de57cdfa78c35bc9c38",
          "blockNumber": "0x6e1dde",
          "transactionHash": "0x741a7622c49dd32c2873dc6a996002938b2c6d975e3100cd1d89f499765ca205",
          "transactionIndex": "0xb",
          "logIndex": "0x27",
          "removed": false
        },
        {
          "address": "0xcE5485Cfb26914C5dcE00B9BAF0580364daFC7a4",
          "topics": [
            "0x5f971bd00bf3ffbca8a6d72cdd4fd92cfd4f62636161921d1e5a64f0b64ccb6d",
            "0x0000000000000000000000000ed0e15f0d7362b95a7f4441fcbfb948b63fd61b",
            "0x000000000000000000000000ca14007eff0db1f8135f4c25b34de49ab0d42766",
            "0x015da9803e7252cea729da23bf18f83c7d6d608cfc4bff24e9acb72b3fd01a65"
          ],
          "data": "0x0000000000000000000000000000000000000000000000000001c6bf5263400000000000000000000000000000000000000000000000000000000000000029af00000000000000000000000000000000000000000000000000005af3107a4000",
          "blockHash": "0xcbb07280d80313688c613729b66ef91a3170eaef54893de57cdfa78c35bc9c38",
          "blockNumber": "0x6e1dde",
          "transactionHash": "0x741a7622c49dd32c2873dc6a996002938b2c6d975e3100cd1d89f499765ca205",
          "transactionIndex": "0xb",
          "logIndex": "0x28",
          "removed": false
        },
        {
          "address": "0xE2Bb56ee936fd6433DC0F6e7e3b8365C906AA057",
          "topics": [
            "0xdb80dd488acf86d17c747445b0eabb5d57c541d3bd7b6b87af987858e5066b2b",
            "0x0000000000000000000000000ed0e15f0d7362b95a7f4441fcbfb948b63fd61b",
            "0x015da9803e7252cea729da23bf18f83c7d6d608cfc4bff24e9acb72b3fd01a65",
            "0x00f1149cade9d692862ad41df96b108aa2c20af34f640457e781d166c98dc6b0"
          ],
          "data": "0x000000000000000000000000000000000000000000000000000000000000006000000000000000000000000000000000000000000000000000000000000029b000000000000000000000000000000000000000000000000000016bcc41e9000000000000000000000000000000000000000000000000000000000000000000080000000000000000000000000000000000000000000000000000000000000000000000000000000000000000ddb342ecc94236c29a5307d3757d0724d759453c04718f5a0fc34cc1af16a1cdee98ffb20c31f5cd61d6ab07201858f4287c938d053b40a647cedfca6ca84f542a0fe36736031905a9639a7f19a3c1e66bfd5080000000000000000000000000000000000020c49ba5e353f80000000000000000000000000000000000000000000000000000000000000000000000006751a8d0000000000000000000000000000000000000000000000000000000006751a9d00000000000000000000000000000000000000000000000000001c6bf52634000",
          "blockHash": "0xcbb07280d80313688c613729b66ef91a3170eaef54893de57cdfa78c35bc9c38",
          "blockNumber": "0x6e1dde",
          "transactionHash": "0x741a7622c49dd32c2873dc6a996002938b2c6d975e3100cd1d89f499765ca205",
          "transactionIndex": "0xb",
          "logIndex": "0x29",
          "removed": false
        },
        {
          "address": "0x0Ed0e15f0D7362b95A7F4441FCBfb948b63FD61b",
          "topics": [
            "0xaf43445f7721522b7a3864ed3de53d7e2e658bfa1eeffa18e1e229be68ce2545",
            "0x000000000000000000000000ddb342ecc94236c29a5307d3757d0724d759453c",
            "0x015da9803e7252cea729da23bf18f83c7d6d608cfc4bff24e9acb72b3fd01a65"
          ],
          "data": "0x0000000000000000000000000000000000000000000000000001c6bf526340000000000000000000000000000000000000000000000000000000000000000001",
          "blockHash": "0xcbb07280d80313688c613729b66ef91a3170eaef54893de57cdfa78c35bc9c38",
          "blockNumber": "0x6e1dde",
          "transactionHash": "0x741a7622c49dd32c2873dc6a996002938b2c6d975e3100cd1d89f499765ca205",
          "transactionIndex": "0xb",
          "logIndex": "0x2a",
          "removed": false
        }
      ],
      "status": "0x1",
      "logsBloom": "0x00400200000000000200000000020000000000000080000000000000000000400000001000000000000000000000000002002000000004000000000000200000000000000000010000000008080000000000000000000040001000000000000600000000100000010000000000000000400000000000000000000010400008002000000000000000000000000400000004000000000200000000020000000010060000800000000000000020000000001000000000000020100000000000000000000002002800024010000000000000000000200000000000800000000000000010000000010000000000020084000000000000001000000000000000000000",
      "type": "0x2",
      "effectiveGasPrice": "0x8306ce919"
    }
  ],
  "libraries": [],
  "pending": [],
  "returns": {},
  "timestamp": 1733404925,
  "chain": 11155111,
  "multi": false,
  "commit": "0c80a24"
}