{
  "transactions": [
    {
      "hash": "0x56aefca2f9f4e66884a1057abc5102625d4038161f508f21415268288d7ac011",
      "transactionType": "CALL",
      "contractName": null,
      "contractAddress": "0xca14007eff0db1f8135f4c25b34de49ab0d42766",
      "function": "approve(address,uint256)",
      "arguments": [
        "0xc3360d8071C02fE072b595D489ce5e34A057FF26",
        "115792089237316195423570985008687907853269984665640564039457584007913129639935"
      ],
      "transaction": {
        "from": "0x1b382a7b4496f14e0aaa2da1e1626da400426a03",
        "to": "0xca14007eff0db1f8135f4c25b34de49ab0d42766",
        "gas": "0xff08",
        "value": "0x0",
        "input": "0x095ea7b3000000000000000000000000c3360d8071c02fe072b595d489ce5e34a057ff26ffffffffffffffffffffffffffffffffffffffffffffffffffffffffffffffff",
        "nonce": "0xff",
        "chainId": "0xaa36a7"
      },
      "additionalContracts": [],
      "isFixedGasLimit": false
    },
    {
      "hash": "0xd5967420a52ab4a623a372340dcc78c77892d7318a17a7b057a51660d1ca53fe",
      "transactionType": "CALL",
      "contractName": null,
      "contractAddress": "0xc3360d8071c02fe072b595d489ce5e34a057ff26",
      "function": "_sendMessage(uint256,uint256,uint256[])",
      "arguments": [
        "2052360518287847084670585165768142511622270366805606066949417485611547106743",
        "148648911813996339441237705416989480313666662291090082193117818992478592220",
        "[2]"
      ],
      "transaction": {
        "from": "0x1b382a7b4496f14e0aaa2da1e1626da400426a03",
        "to": "0xc3360d8071c02fe072b595d489ce5e34a057ff26",
        "gas": "0x182bd",
        "value": "0x38d7ea4c68000",
        "input": "0x88f439ef0489984a941ffc5a6999dc60ebb117c8c13cf6164beb72f3326367ceb80e1db7005421de947699472df434466845d68528f221a52fce7ad2934c5dae2e1f1cdc000000000000000000000000000000000000000000000000000000000000006000000000000000000000000000000000000000000000000000000000000000010000000000000000000000000000000000000000000000000000000000000002",
        "nonce": "0x100",
        "chainId": "0xaa36a7"
      },
      "additionalContracts": [],
      "isFixedGasLimit": false
    }
  ],
  "receipts": [
    {
      "status": "0x1",
      "cumulativeGasUsed": "0x1808605",
      "logs": [
        {
          "address": "0xca14007eff0db1f8135f4c25b34de49ab0d42766",
          "topics": [
            "0x8c5be1e5ebec7d5bd14f71427d1e84f3dd0314c0f7b2291e5b200ac8c7c3b925",
            "0x0000000000000000000000001b382a7b4496f14e0aaa2da1e1626da400426a03",
            "0x000000000000000000000000c3360d8071c02fe072b595d489ce5e34a057ff26"
          ],
          "data": "0xffffffffffffffffffffffffffffffffffffffffffffffffffffffffffffffff",
          "blockHash": "0x648e9bcfcf75477362516474f0442f6070aac36503ac071088205b2637ffe841",
          "blockNumber": "0x6b4c0c",
          "transactionHash": "0x56aefca2f9f4e66884a1057abc5102625d4038161f508f21415268288d7ac011",
          "transactionIndex": "0x7f",
          "logIndex": "0xc8",
          "removed": false
        }
      ],
      "logsBloom": "0x00000000000000000000000000000000000000000000000000000000000000000000000000000000000000000000000000000000000000000000000000200000000000000000000000000000000000000000000000000000000000000000000000000000002000000000000000000000000000000010000020000000000000040000000000000000000000000000000000000000000000000000000000000000020000000000000000000000000000000080000000000000000000000000000000000000000000020000000000000000000000000000000000800000000000000010000000000000000080000000000000000000001000000000000000000000",
      "type": "0x2",
      "transactionHash": "0x56aefca2f9f4e66884a1057abc5102625d4038161f508f21415268288d7ac011",
      "transactionIndex": "0x7f",
      "blockHash": "0x648e9bcfcf75477362516474f0442f6070aac36503ac071088205b2637ffe841",
      "blockNumber": "0x6b4c0c",
      "gasUsed": "0xb8a4",
      "effectiveGasPrice": "0xeda9a7b6",
      "blobGasUsed": "0x0",
      "from": "0x1b382a7b4496f14e0aaa2da1e1626da400426a03",
      "to": "0xca14007eff0db1f8135f4c25b34de49ab0d42766",
      "contractAddress": null
    },
    {
      "status": "0x1",
      "cumulativeGasUsed": "0xfa78e5",
      "logs": [
        {
          "address": "0xe2bb56ee936fd6433dc0f6e7e3b8365c906aa057",
          "topics": [
            "0xdb80dd488acf86d17c747445b0eabb5d57c541d3bd7b6b87af987858e5066b2b",
            "0x000000000000000000000000c3360d8071c02fe072b595d489ce5e34a057ff26",
            "0x0489984a941ffc5a6999dc60ebb117c8c13cf6164beb72f3326367ceb80e1db7",
            "0x005421de947699472df434466845d68528f221a52fce7ad2934c5dae2e1f1cdc"
          ],
          "data": "0x0000000000000000000000000000000000000000000000000000000000000060000000000000000000000000000000000000000000000000000000000000279300000000000000000000000000000000000000000000000000038d7ea4c6800000000000000000000000000000000000000000000000000000000000000000010000000000000000000000000000000000000000000000000000000000000002",
          "blockHash": "0x8d9f1abef90135d8770f5c95e88ca60c0dd1d9a596725ebfbd53b7e6dc1496f1",
          "blockNumber": "0x6b4c0d",
          "transactionHash": "0xd5967420a52ab4a623a372340dcc78c77892d7318a17a7b057a51660d1ca53fe",
          "transactionIndex": "0x5c",
          "logIndex": "0x78",
          "removed": false
        }
      ],
      "logsBloom": "0x00000000000000000000000000020000000000000000000000000000000001000000000000000000000000000000000000000000000000000000000000000000000000000000000000000000000000000000000000000040001000000000000000000000103000000000000000020000000000040000000000000000000000000000000000000000000040000000000000000000000000000000000000000010000000000000000000000020000000000080000000000000000000000000000000000000000000000000000000000000000000000000000000000000000000000000000000000000000080000040000000000000000000000000000000000000",
      "type": "0x2",
      "transactionHash": "0xd5967420a52ab4a623a372340dcc78c77892d7318a17a7b057a51660d1ca53fe",
      "transactionIndex": "0x5c",
      "blockHash": "0x8d9f1abef90135d8770f5c95e88ca60c0dd1d9a596725ebfbd53b7e6dc1496f1",
      "blockNumber": "0x6b4c0d",
      "gasUsed": "0x117ff",
      "effectiveGasPrice": "0x106512337",
      "blobGasUsed": "0x0",
      "from": "0x1b382a7b4496f14e0aaa2da1e1626da400426a03",
      "to": "0xc3360d8071c02fe072b595d489ce5e34a057ff26",
      "contractAddress": null
    }
  ],
  "libraries": [],
  "pending": [],
  "returns": {},
  "timestamp": 1731006015,
  "chain": 11155111,
  "commit": "7c9bc56"
}