{
  "transactions": [
    {
      "hash": "0xc9b7f2920c53fd5f3a3b014460899387498107a27c0a0c38ad237bc81358fc06",
      "transactionType": "CALL",
      "contractName": "StarkNetToken",
      "contractAddress": "0xCa14007Eff0dB1f8135f4C25B34De49AB0d42766",
      "function": "approve(address,uint256)",
      "arguments": [
        "0x43fD0A68732aBc3fff6696A12E3C2Dc899AC246e",
        "115792089237316195423570985008687907853269984665640564039457584007913129639935"
      ],
      "transaction": {
        "type": "0x02",
        "from": "0xddb342ecc94236c29a5307d3757d0724d759453c",
        "to": "0xca14007eff0db1f8135f4c25b34de49ab0d42766",
        "gas": "0x93a9",
        "value": "0x0",
        "data": "0x095ea7b300000000000000000000000043fd0a68732abc3fff6696a12e3c2dc899ac246effffffffffffffffffffffffffffffffffffffffffffffffffffffffffffffff",
        "nonce": "0x20d",
        "accessList": []
      },
      "additionalContracts": [],
      "isFixedGasLimit": false
    },
    {
      "hash": "0x37e84fae49d52a56e34be1ac95238fcb05e3e9fe179f9a399fe0540ee1f58daf",
      "transactionType": "CALL",
      "contractName": "StarkNetToken",
      "contractAddress": "0xCa14007Eff0dB1f8135f4C25B34De49AB0d42766",
      "function": "transfer(address,uint256)",
      "arguments": [
        "0x43fD0A68732aBc3fff6696A12E3C2Dc899AC246e",
        "1000000000000000"
      ],
      "transaction": {
        "type": "0x02",
        "from": "0xddb342ecc94236c29a5307d3757d0724d759453c",
        "to": "0xca14007eff0db1f8135f4c25b34de49ab0d42766",
        "gas": "0xe427",
        "value": "0x0",
        "data": "0xa9059cbb00000000000000000000000043fd0a68732abc3fff6696a12e3c2dc899ac246e00000000000000000000000000000000000000000000000000038d7ea4c68000",
        "nonce": "0x20e",
        "accessList": []
      },
      "additionalContracts": [],
      "isFixedGasLimit": false
    },
    {
      "hash": "0x84dec18c888365dc056eece3d9f633dd20f7f3ff3b8f138e90aa6da1f327fca5",
      "transactionType": "CALL",
      "contractName": "L1TWAMMBridge",
      "contractAddress": "0x43fD0A68732aBc3fff6696A12E3C2Dc899AC246e",
      "function": "depositAndCreateOrder((address,uint256,uint256,uint128,uint128,uint128,uint128,uint256))",
      "arguments": [
        "(0xDdb342ecc94236c29a5307d3757d0724D759453C, 2009894490435840142178314390393166646092438090257831307886760648929397478285, 2366254414417873771392932940469309727793822550615514268240785277201753657472, 0, 1730985888, 1730985952, 1000000000000000, 720497044718282856132808402811211455430767220625338061895696555375981203244)"
      ],
      "transaction": {
        "type": "0x02",
        "from": "0xddb342ecc94236c29a5307d3757d0724d759453c",
        "to": "0x43fd0a68732abc3fff6696a12e3c2dc899ac246e",
        "gas": "0x3a53a",
        "value": "0x2386f26fc10000",
        "data": "0x5ce510fa000000000000000000000000ddb342ecc94236c29a5307d3757d0724d759453c04718f5a0fc34cc1af16a1cdee98ffb20c31f5cd61d6ab07201858f4287c938d053b40a647cedfca6ca84f542a0fe36736031905a9639a7f19a3c1e66bfd5080000000000000000000000000000000000000000000000000000000000000000000000000000000000000000000000000000000000000000000000000672cbfa000000000000000000000000000000000000000000000000000000000672cbfe000000000000000000000000000000000000000000000000000038d7ea4c680000197c970b2bdffa49baa467519256e86311f2acd7175501954f364bec47b8f2c",
        "nonce": "0x20f",
        "accessList": []
      },
      "additionalContracts": [],
      "isFixedGasLimit": false
    }
  ],
  "receipts": [],
  "libraries": [],
  "pending": [
    "0xc9b7f2920c53fd5f3a3b014460899387498107a27c0a0c38ad237bc81358fc06",
    "0x37e84fae49d52a56e34be1ac95238fcb05e3e9fe179f9a399fe0540ee1f58daf",
    "0x84dec18c888365dc056eece3d9f633dd20f7f3ff3b8f138e90aa6da1f327fca5"
  ],
  "returns": {},
  "timestamp": 1730985948,
  "chain": 11155111,
  "multi": false,
  "commit": "e344443"
}