{
  "transactions": [
    {
      "hash": "0x1f91cee0f4c327186c6ff04125f145af337d00e59321756a2c070f221d2472df",
      "transactionType": "CALL",
      "contractName": "StarkNetToken",
      "contractAddress": "0xCa14007Eff0dB1f8135f4C25B34De49AB0d42766",
      "function": "approve(address,uint256)",
      "arguments": [
        "0x2112b149516Def254dfe6B341Cf5df70d8CB6B06",
        "115792089237316195423570985008687907853269984665640564039457584007913129639935"
      ],
      "transaction": {
        "type": "0x02",
        "from": "0xddb342ecc94236c29a5307d3757d0724d759453c",
        "to": "0xca14007eff0db1f8135f4c25b34de49ab0d42766",
        "gas": "0x93a9",
        "value": "0x0",
        "data": "0x095ea7b30000000000000000000000002112b149516def254dfe6b341cf5df70d8cb6b06ffffffffffffffffffffffffffffffffffffffffffffffffffffffffffffffff",
        "nonce": "0x2ee",
        "accessList": []
      },
      "additionalContracts": [],
      "isFixedGasLimit": false
    },
    {
      "hash": "0x8e0c7237299b746f06da5a877bf9bae05c1691a12c8998da0afd12626115b339",
      "transactionType": "CALL",
      "contractName": "StarkNetToken",
      "contractAddress": "0xCa14007Eff0dB1f8135f4C25B34De49AB0d42766",
      "function": "transfer(address,uint256)",
      "arguments": [
        "0x2112b149516Def254dfe6B341Cf5df70d8CB6B06",
        "500000"
      ],
      "transaction": {
        "type": "0x02",
        "from": "0xddb342ecc94236c29a5307d3757d0724d759453c",
        "to": "0xca14007eff0db1f8135f4c25b34de49ab0d42766",
        "gas": "0xd748",
        "value": "0x0",
        "data": "0xa9059cbb0000000000000000000000002112b149516def254dfe6b341cf5df70d8cb6b06000000000000000000000000000000000000000000000000000000000007a120",
        "nonce": "0x2ef",
        "accessList": []
      },
      "additionalContracts": [],
      "isFixedGasLimit": false
    },
    {
      "hash": "0x3a8513e1e80c1f7657c91f2da2a8cc5eff9b5c125a727fb6533e64c145f8f0d2",
      "transactionType": "CALL",
      "contractName": "Proxy",
      "contractAddress": "0xE2Bb56ee936fd6433DC0F6e7e3b8365C906AA057",
      "function": "sendMessageToL2(uint256,uint256,uint256[])",
      "arguments": [
        "2545442141390223358248142364047625979260270735181103727477035125832369927267",
        "425952401605428413817582304755919420533935873840436977667370850915372091056",
        "[3, 1265684623727634235329190328445374361672779121980, 0, 162645876805862407557836451532389263558424949304, 0, 0, 0, 500000, 2524392021852001135582825949054576525094493216367559068627275826195272239197]"
      ],
      "transaction": {
        "type": "0x02",
        "from": "0xddb342ecc94236c29a5307d3757d0724d759453c",
        "to": "0xe2bb56ee936fd6433dc0f6e7e3b8365c906aa057",
        "gas": "0x17438",
        "value": "0x38d7ea4c68000",
        "data": "0x3e3aa6c505a0ab50787b96096b0720c29a7f1959163e62688d6585fe1cf646f1d58d746300f1149cade9d692862ad41df96b108aa2c20af34f640457e781d166c98dc6b0000000000000000000000000000000000000000000000000000000000000006000000000000000000000000000000000000000000000000000000000000000090000000000000000000000000000000000000000000000000000000000000003000000000000000000000000ddb342ecc94236c29a5307d3757d0724d759453c00000000000000000000000000000000000000000000000000000000000000000000000000000000000000001c7d4b196cb0c7b01d743fbc6116a902379c7238000000000000000000000000000000000000000000000000000000000000000000000000000000000000000000000000000000000000000000000000000000000000000000000000000000000000000000000000000000000000000000000000000000000000000000000000000000000000000000000000000000000007a1200594c1582459ea03f77deaf9eb7e3917d6994a03c13405ba42867f83d85f085d",
        "nonce": "0x2f0",
        "accessList": []
      },
      "additionalContracts": [],
      "isFixedGasLimit": false
    }
  ],
  "receipts": [],
  "libraries": [],
  "pending": [
    "0x1f91cee0f4c327186c6ff04125f145af337d00e59321756a2c070f221d2472df",
    "0x8e0c7237299b746f06da5a877bf9bae05c1691a12c8998da0afd12626115b339",
    "0x3a8513e1e80c1f7657c91f2da2a8cc5eff9b5c125a727fb6533e64c145f8f0d2"
  ],
  "returns": {},
  "timestamp": 1731684721,
  "chain": 11155111,
  "multi": false,
  "commit": "945f7f2"
}