{
  "transactions": [
    {
      "hash": "0x21721068851330eb168a237d71e8a86cb62990433cad2f3cc18c218565d21203",
      "transactionType": "CALL",
      "contractName": null,
      "contractAddress": "0xe2bb56ee936fd6433dc0f6e7e3b8365c906aa057",
      "function": "sendMessageToL2(uint256,uint256,uint256[])",
      "arguments": [
        "2812710952364249994127119030704660708892146755952486819483888414710739530805",
        "425952401605428413817582304755919420533935873840436977667370850915372091056",
        "[3, 1265684623727634235329190328445374361672779121980, 0, 1153662193824988676821566247033479441673014749030]"
      ],
      "transaction": {
        "from": "0xddb342ecc94236c29a5307d3757d0724d759453c",
        "to": "0xe2bb56ee936fd6433dc0f6e7e3b8365c906aa057",
        "gas": "0x15236",
        "value": "0x1c6bf52634000",
        "input": "0x3e3aa6c50637f01fa56a50f82627a8b711bd1c2c1f866900f6dc30bcb988b6622068743500f1149cade9d692862ad41df96b108aa2c20af34f640457e781d166c98dc6b0000000000000000000000000000000000000000000000000000000000000006000000000000000000000000000000000000000000000000000000000000000040000000000000000000000000000000000000000000000000000000000000003000000000000000000000000ddb342ecc94236c29a5307d3757d0724d759453c0000000000000000000000000000000000000000000000000000000000000000000000000000000000000000ca14007eff0db1f8135f4c25b34de49ab0d42766",
        "nonce": "0x4a5",
        "chainId": "0xaa36a7"
      },
      "additionalContracts": [],
      "isFixedGasLimit": false
    }
  ],
  "receipts": [
    {
      "status": "0x1",
      "cumulativeGasUsed": "0x41d337",
      "logs": [
        {
          "address": "0xe2bb56ee936fd6433dc0f6e7e3b8365c906aa057",
          "topics": [
            "0xdb80dd488acf86d17c747445b0eabb5d57c541d3bd7b6b87af987858e5066b2b",
            "0x000000000000000000000000ddb342ecc94236c29a5307d3757d0724d759453c",
            "0x0637f01fa56a50f82627a8b711bd1c2c1f866900f6dc30bcb988b66220687435",
            "0x00f1149cade9d692862ad41df96b108aa2c20af34f640457e781d166c98dc6b0"
          ],
          "data": "0x00000000000000000000000000000000000000000000000000000000000000600000000000000000000000000000000000000000000000000000000000002bef0000000000000000000000000000000000000000000000000001c6bf5263400000000000000000000000000000000000000000000000000000000000000000040000000000000000000000000000000000000000000000000000000000000003000000000000000000000000ddb342ecc94236c29a5307d3757d0724d759453c0000000000000000000000000000000000000000000000000000000000000000000000000000000000000000ca14007eff0db1f8135f4c25b34de49ab0d42766",
          "blockHash": "0x7044e053bf24d175b0b3ba3e66bd58553dc33998a1676f3ffdcc0db0174c3318",
          "blockNumber": "0x72cb39",
          "transactionHash": "0x21721068851330eb168a237d71e8a86cb62990433cad2f3cc18c218565d21203",
          "transactionIndex": "0x40",
          "logIndex": "0x23",
          "removed": false
        }
      ],
      "logsBloom": "0x01400000000000000000000000020000000000000000000000000000000000000000000000000000000000000000000000000000000000000000000000000000000000000000000000000000000000040000000000000040001000000000000400000000100000010000000000000000400000000000000000000000400000000000000000000000000000000000000004000000000000000000000000000010000000000000000000000020000000000000000000000000000000000000000000000000000000000000000000000000000000000000000000000000000000000000000000000000000000000000000000000000000000000000000000000000",
      "type": "0x2",
      "transactionHash": "0x21721068851330eb168a237d71e8a86cb62990433cad2f3cc18c218565d21203",
      "transactionIndex": "0x40",
      "blockHash": "0x7044e053bf24d175b0b3ba3e66bd58553dc33998a1676f3ffdcc0db0174c3318",
      "blockNumber": "0x72cb39",
      "gasUsed": "0xf4dd",
      "effectiveGasPrice": "0x3ab987ab9",
      "from": "0xddb342ecc94236c29a5307d3757d0724d759453c",
      "to": "0xe2bb56ee936fd6433dc0f6e7e3b8365c906aa057",
      "contractAddress": null
    }
  ],
  "libraries": [],
  "pending": [],
  "returns": {},
  "timestamp": 1737260930,
  "chain": 11155111,
  "commit": "fcbff6b"
}