{
  "transactions": [
    {
      "hash": "0xe79377c2cebccdfd36ac76b4ff34e62b62add4af83b84f740e0e771015cad28f",
      "transactionType": "CALL",
      "contractName": "StarkNetToken",
      "contractAddress": "0xCa14007Eff0dB1f8135f4C25B34De49AB0d42766",
      "function": "approve(address,uint256)",
      "arguments": [
        "0x7eb4C59eABE1234E8A6D02FdF4d1BB595C4702Cd",
        "115792089237316195423570985008687907853269984665640564039457584007913129639935"
      ],
      "transaction": {
        "type": "0x02",
        "from": "0xddb342ecc94236c29a5307d3757d0724d759453c",
        "to": "0xca14007eff0db1f8135f4c25b34de49ab0d42766",
        "gas": "0x93a9",
        "value": "0x0",
        "data": "0x095ea7b30000000000000000000000007eb4c59eabe1234e8a6d02fdf4d1bb595c4702cdffffffffffffffffffffffffffffffffffffffffffffffffffffffffffffffff",
        "nonce": "0x391",
        "accessList": []
      },
      "additionalContracts": [],
      "isFixedGasLimit": false
    },
    {
      "hash": "0x0e75d53a1296038d43fd82b6e3e6f933e0aa4938f4fd44a3b83a00eda65ac060",
      "transactionType": "CALL",
      "contractName": "StarkNetToken",
      "contractAddress": "0xCa14007Eff0dB1f8135f4C25B34De49AB0d42766",
      "function": "transfer(address,uint256)",
      "arguments": [
        "0xcE5485Cfb26914C5dcE00B9BAF0580364daFC7a4",
        "500000000000000"
      ],
      "transaction": {
        "type": "0x02",
        "from": "0xddb342ecc94236c29a5307d3757d0724d759453c",
        "to": "0xca14007eff0db1f8135f4c25b34de49ab0d42766",
        "gas": "0xe427",
        "value": "0x0",
        "data": "0xa9059cbb000000000000000000000000ce5485cfb26914c5dce00b9baf0580364dafc7a40000000000000000000000000000000000000000000000000001c6bf52634000",
        "nonce": "0x392",
        "accessList": []
      },
      "additionalContracts": [],
      "isFixedGasLimit": false
    },
    {
      "hash": "0x0714e8f6cf9b46abb2a19ca981521d960615c6b73f90bb388fc75f95c8c65327",
      "transactionType": "CALL",
      "contractName": "Proxy",
      "contractAddress": "0xcE5485Cfb26914C5dcE00B9BAF0580364daFC7a4",
      "function": "deposit(uint256,uint256)",
      "arguments": [
        "500000000000000",
        "1260982957119863879256996864418490802570835642900898883839531106374629143480"
      ],
      "transaction": {
        "type": "0x02",
        "from": "0xddb342ecc94236c29a5307d3757d0724d759453c",
        "to": "0xce5485cfb26914c5dce00b9baf0580364dafc7a4",
        "gas": "0x2c24e",
        "value": "0x1c6bf52634000",
        "data": "0xe2bbb1580000000000000000000000000000000000000000000000000001c6bf5263400002c9b0e967948762be38c87ac131d2958f7988d6aff58885993f1c186a5333b8",
        "nonce": "0x393",
        "accessList": []
      },
      "additionalContracts": [],
      "isFixedGasLimit": false
    }
  ],
  "receipts": [
    {
      "transactionHash": "0xe79377c2cebccdfd36ac76b4ff34e62b62add4af83b84f740e0e771015cad28f",
      "transactionIndex": "0x3",
      "blockHash": "0xda327a060563000af3451cfc9c3b6e051f1fdf2b0f487d0f2ef720843d55c05f",
      "blockNumber": "0x6d4e2b",
      "from": "0xDdb342ecc94236c29a5307d3757d0724D759453C",
      "to": "0xCa14007Eff0dB1f8135f4C25B34De49AB0d42766",
      "cumulativeGasUsed": "0x67766",
      "gasUsed": "0x6ae8",
      "contractAddress": null,
      "logs": [
        {
          "address": "0xCa14007Eff0dB1f8135f4C25B34De49AB0d42766",
          "topics": [
            "0x8c5be1e5ebec7d5bd14f71427d1e84f3dd0314c0f7b2291e5b200ac8c7c3b925",
            "0x000000000000000000000000ddb342ecc94236c29a5307d3757d0724d759453c",
            "0x0000000000000000000000007eb4c59eabe1234e8a6d02fdf4d1bb595c4702cd"
          ],
          "data": "0xffffffffffffffffffffffffffffffffffffffffffffffffffffffffffffffff",
          "blockHash": "0xda327a060563000af3451cfc9c3b6e051f1fdf2b0f487d0f2ef720843d55c05f",
          "blockNumber": "0x6d4e2b",
          "transactionHash": "0xe79377c2cebccdfd36ac76b4ff34e62b62add4af83b84f740e0e771015cad28f",
          "transactionIndex": "0x3",
          "logIndex": "0x2",
          "removed": false
        }
      ],
      "status": "0x1",
      "logsBloom": "0x00000000000000100000000000000000000000000000000000000000000000000000000000000000000000000000000000000000000000000000000000200000000000000000000000000000000000000000000000000000000000000000000400020000000000000000000000000000400000000000000000000000400000000000000000000000000000000000000000000000000000000000000000000000020000000000000000000000000000008000000000000000000000000000000000000000000000020000000000000000000000000000000000800000000000000010000000000000000000000000000000000000001000000000000000000000",
      "type": "0x2",
      "effectiveGasPrice": "0x295219fe0"
    },
    {
      "transactionHash": "0x0e75d53a1296038d43fd82b6e3e6f933e0aa4938f4fd44a3b83a00eda65ac060",
      "transactionIndex": "0x4",
      "blockHash": "0xda327a060563000af3451cfc9c3b6e051f1fdf2b0f487d0f2ef720843d55c05f",
      "blockNumber": "0x6d4e2b",
      "from": "0xDdb342ecc94236c29a5307d3757d0724D759453C",
      "to": "0xCa14007Eff0dB1f8135f4C25B34De49AB0d42766",
      "cumulativeGasUsed": "0x71367",
      "gasUsed": "0x9c01",
      "contractAddress": null,
      "logs": [
        {
          "address": "0xCa14007Eff0dB1f8135f4C25B34De49AB0d42766",
          "topics": [
            "0xddf252ad1be2c89b69c2b068fc378daa952ba7f163c4a11628f55a4df523b3ef",
            "0x000000000000000000000000ddb342ecc94236c29a5307d3757d0724d759453c",
            "0x000000000000000000000000ce5485cfb26914c5dce00b9baf0580364dafc7a4"
          ],
          "data": "0x0000000000000000000000000000000000000000000000000001c6bf52634000",
          "blockHash": "0xda327a060563000af3451cfc9c3b6e051f1fdf2b0f487d0f2ef720843d55c05f",
          "blockNumber": "0x6d4e2b",
          "transactionHash": "0x0e75d53a1296038d43fd82b6e3e6f933e0aa4938f4fd44a3b83a00eda65ac060",
          "transactionIndex": "0x4",
          "logIndex": "0x3",
          "removed": false
        }
      ],
      "status": "0x1",
      "logsBloom": "0x00000000000000000000000000000000000000000000000000000000000000000000000000000000000000000000000000000000000000000000000000000000000000000000000000000008000000000000000000000000000000000000000400000000000000000000000000000000400000000000000000000010400008000000000000000000000000000000000000000000000000000000000000000000000000000000000000000000000000001000000000000000000000000000000000000002000000020010000000000000000000000000000000800000000000000000000000000000000000000000000000000000001000000000000000000000",
      "type": "0x2",
      "effectiveGasPrice": "0x295219fe0"
    },
    {
      "transactionHash": "0x0714e8f6cf9b46abb2a19ca981521d960615c6b73f90bb388fc75f95c8c65327",
      "transactionIndex": "0x5",
      "blockHash": "0xda327a060563000af3451cfc9c3b6e051f1fdf2b0f487d0f2ef720843d55c05f",
      "blockNumber": "0x6d4e2b",
      "from": "0xDdb342ecc94236c29a5307d3757d0724D759453C",
      "to": "0xcE5485Cfb26914C5dcE00B9BAF0580364daFC7a4",
      "cumulativeGasUsed": "0x8f659",
      "gasUsed": "0x1e2f2",
      "contractAddress": null,
      "logs": [
        {
          "address": "0xCa14007Eff0dB1f8135f4C25B34De49AB0d42766",
          "topics": [
            "0xddf252ad1be2c89b69c2b068fc378daa952ba7f163c4a11628f55a4df523b3ef",
            "0x000000000000000000000000ddb342ecc94236c29a5307d3757d0724d759453c",
            "0x000000000000000000000000ce5485cfb26914c5dce00b9baf0580364dafc7a4"
          ],
          "data": "0x0000000000000000000000000000000000000000000000000001c6bf52634000",
          "blockHash": "0xda327a060563000af3451cfc9c3b6e051f1fdf2b0f487d0f2ef720843d55c05f",
          "blockNumber": "0x6d4e2b",
          "transactionHash": "0x0714e8f6cf9b46abb2a19ca981521d960615c6b73f90bb388fc75f95c8c65327",
          "transactionIndex": "0x5",
          "logIndex": "0x4",
          "removed": false
        },
        {
          "address": "0xE2Bb56ee936fd6433DC0F6e7e3b8365C906AA057",
          "topics": [
            "0xdb80dd488acf86d17c747445b0eabb5d57c541d3bd7b6b87af987858e5066b2b",
            "0x000000000000000000000000ce5485cfb26914c5dce00b9baf0580364dafc7a4",
            "0x0594c1582459ea03f77deaf9eb7e3917d6994a03c13405ba42867f83d85f085d",
            "0x01b64b1b3b690b43b9b514fb81377518f4039cd3e4f4914d8a6bdf01d679fb19"
          ],
          "data": "0x000000000000000000000000000000000000000000000000000000000000006000000000000000000000000000000000000000000000000000000000000029650000000000000000000000000000000000000000000000000001c6bf526340000000000000000000000000000000000000000000000000000000000000000005000000000000000000000000ca14007eff0db1f8135f4c25b34de49ab0d42766000000000000000000000000ddb342ecc94236c29a5307d3757d0724d759453c02c9b0e967948762be38c87ac131d2958f7988d6aff58885993f1c186a5333b80000000000000000000000000000000000000000000000000001c6bf526340000000000000000000000000000000000000000000000000000000000000000000",
          "blockHash": "0xda327a060563000af3451cfc9c3b6e051f1fdf2b0f487d0f2ef720843d55c05f",
          "blockNumber": "0x6d4e2b",
          "transactionHash": "0x0714e8f6cf9b46abb2a19ca981521d960615c6b73f90bb388fc75f95c8c65327",
          "transactionIndex": "0x5",
          "logIndex": "0x5",
          "removed": false
        },
        {
          "address": "0xcE5485Cfb26914C5dcE00B9BAF0580364daFC7a4",
          "topics": [
            "0x5f971bd00bf3ffbca8a6d72cdd4fd92cfd4f62636161921d1e5a64f0b64ccb6d",
            "0x000000000000000000000000ddb342ecc94236c29a5307d3757d0724d759453c",
            "0x000000000000000000000000ca14007eff0db1f8135f4c25b34de49ab0d42766",
            "0x02c9b0e967948762be38c87ac131d2958f7988d6aff58885993f1c186a5333b8"
          ],
          "data": "0x0000000000000000000000000000000000000000000000000001c6bf5263400000000000000000000000000000000000000000000000000000000000000029650000000000000000000000000000000000000000000000000001c6bf52634000",
          "blockHash": "0xda327a060563000af3451cfc9c3b6e051f1fdf2b0f487d0f2ef720843d55c05f",
          "blockNumber": "0x6d4e2b",
          "transactionHash": "0x0714e8f6cf9b46abb2a19ca981521d960615c6b73f90bb388fc75f95c8c65327",
          "transactionIndex": "0x5",
          "logIndex": "0x6",
          "removed": false
        },
        {
          "address": "0xcE5485Cfb26914C5dcE00B9BAF0580364daFC7a4",
          "topics": [
            "0x5b5dbc6c64043a15d3fe6943a6e443a826b78755edc257b2ec890c022225dbcf",
            "0x000000000000000000000000ddb342ecc94236c29a5307d3757d0724d759453c",
            "0x02c9b0e967948762be38c87ac131d2958f7988d6aff58885993f1c186a5333b8"
          ],
          "data": "0x0000000000000000000000000000000000000000000000000001c6bf5263400000000000000000000000000000000000000000000000000000000000000029650000000000000000000000000000000000000000000000000001c6bf52634000",
          "blockHash": "0xda327a060563000af3451cfc9c3b6e051f1fdf2b0f487d0f2ef720843d55c05f",
          "blockNumber": "0x6d4e2b",
          "transactionHash": "0x0714e8f6cf9b46abb2a19ca981521d960615c6b73f90bb388fc75f95c8c65327",
          "transactionIndex": "0x5",
          "logIndex": "0x7",
          "removed": false
        }
      ],
      "status": "0x1",
      "logsBloom": "0x00000000000200000200000000020000000000000000000000000000000000400000004000000000000000000400000000000000000004000000000000000000000000000400000000000008080000000000000000000040001000000000000400010000100000000000000000000000400000000000000000000010400008002000000000000000000000000400000000000000000200000000020000000010000000000000000000000020000000001000000000000020000000000000000000000002000000024010000000000000000000200000200000800000000000000000000000010000000000020084000000000000001000000000000000000000",
      "type": "0x2",
      "effectiveGasPrice": "0x295219fe0"
    }
  ],
  "libraries": [],
  "pending": [],
  "returns": {},
  "timestamp": 1732714203,
  "chain": 11155111,
  "multi": false,
  "commit": "1254ada"
}