{
  "transactions": [
    {
      "hash": "0x870df1ce926ebccdaf2a889df960d70a36069a4f65860b657a23d04b33031256",
      "transactionType": "CALL",
      "contractName": null,
      "contractAddress": "0xca14007eff0db1f8135f4c25b34de49ab0d42766",
      "function": "approve(address,uint256)",
      "arguments": [
        "0x21e0b6863F74642fc7764Aa1A394079E388a7b53",
        "115792089237316195423570985008687907853269984665640564039457584007913129639935"
      ],
      "transaction": {
        "from": "0xddb342ecc94236c29a5307d3757d0724d759453c",
        "to": "0xca14007eff0db1f8135f4c25b34de49ab0d42766",
        "gas": "0x93a9",
        "value": "0x0",
        "input": "0x095ea7b300000000000000000000000021e0b6863f74642fc7764aa1a394079e388a7b53ffffffffffffffffffffffffffffffffffffffffffffffffffffffffffffffff",
        "nonce": "0x47a",
        "chainId": "0xaa36a7"
      },
      "additionalContracts": [],
      "isFixedGasLimit": false
    },
    {
      "hash": "0xd47a5302a923adf1bf87ebedc192875cd51d56e1dff4e5fedc1859fb99e5d09e",
      "transactionType": "CALL",
      "contractName": null,
      "contractAddress": "0x21e0b6863f74642fc7764aa1a394079e388a7b53",
      "function": "initiateWithdrawal(address,address,uint64)",
      "arguments": [
        "0xDdb342ecc94236c29a5307d3757d0724D759453C",
        "0x1c7D4B196Cb0C7B01d743Fbc6116a902379C7238",
        "480"
      ],
      "transaction": {
        "from": "0xddb342ecc94236c29a5307d3757d0724d759453c",
        "to": "0x21e0b6863f74642fc7764aa1a394079e388a7b53",
        "gas": "0x19c5e",
        "value": "0x1c6bf52634000",
        "input": "0x9b4085f6000000000000000000000000ddb342ecc94236c29a5307d3757d0724d759453c0000000000000000000000001c7d4b196cb0c7b01d743fbc6116a902379c723800000000000000000000000000000000000000000000000000000000000001e0",
        "nonce": "0x47b",
        "chainId": "0xaa36a7"
      },
      "additionalContracts": [],
      "isFixedGasLimit": false
    }
  ],
  "receipts": [
    {
      "status": "0x1",
      "cumulativeGasUsed": "0x77d421",
      "logs": [
        {
          "address": "0xca14007eff0db1f8135f4c25b34de49ab0d42766",
          "topics": [
            "0x8c5be1e5ebec7d5bd14f71427d1e84f3dd0314c0f7b2291e5b200ac8c7c3b925",
            "0x000000000000000000000000ddb342ecc94236c29a5307d3757d0724d759453c",
            "0x00000000000000000000000021e0b6863f74642fc7764aa1a394079e388a7b53"
          ],
          "data": "0xffffffffffffffffffffffffffffffffffffffffffffffffffffffffffffffff",
          "blockHash": "0xdba00331e4c611401118668dc5f6992d02f8cb1143432a000fd7a5354fc02656",
          "blockNumber": "0x71beeb",
          "transactionHash": "0x870df1ce926ebccdaf2a889df960d70a36069a4f65860b657a23d04b33031256",
          "transactionIndex": "0x4d",
          "logIndex": "0x5b",
          "removed": false
        }
      ],
      "logsBloom": "0x00000000000000000000000000000000000000000000000000000000000000000000000000000000000000000000000000200000000000000000000000200000000000000000000000000000000000000000000000000000000000000000000600000000000000000000000000000000400000000000000000000000400000000000000000000000000000000000000000000000000000000000000000000000020000000000000000000000000000000000000000000000000000000000000000000000000000020000000000000000000000000000000000800000000000000010000000000000000000000000000200000000001000000000000000000000",
      "type": "0x2",
      "transactionHash": "0x870df1ce926ebccdaf2a889df960d70a36069a4f65860b657a23d04b33031256",
      "transactionIndex": "0x4d",
      "blockHash": "0xdba00331e4c611401118668dc5f6992d02f8cb1143432a000fd7a5354fc02656",
      "blockNumber": "0x71beeb",
      "gasUsed": "0x6ae8",
      "effectiveGasPrice": "0x1166624f35",
      "from": "0xddb342ecc94236c29a5307d3757d0724d759453c",
      "to": "0xca14007eff0db1f8135f4c25b34de49ab0d42766",
      "contractAddress": null
    },
    {
      "status": "0x1",
      "cumulativeGasUsed": "0x78feae",
      "logs": [
        {
          "address": "0xe2bb56ee936fd6433dc0f6e7e3b8365c906aa057",
          "topics": [
            "0xdb80dd488acf86d17c747445b0eabb5d57c541d3bd7b6b87af987858e5066b2b",
            "0x00000000000000000000000021e0b6863f74642fc7764aa1a394079e388a7b53",
            "0x00af6ada98856c64bd418b6a948c36ee31f2676876a4c02abe4a66372b640346",
            "0x00f1149cade9d692862ad41df96b108aa2c20af34f640457e781d166c98dc6b0"
          ],
          "data": "0x00000000000000000000000000000000000000000000000000000000000000600000000000000000000000000000000000000000000000000000000000002b6a0000000000000000000000000000000000000000000000000001c6bf5263400000000000000000000000000000000000000000000000000000000000000000050000000000000000000000000000000000000000000000000000000000000002000000000000000000000000ddb342ecc94236c29a5307d3757d0724d759453c000000000000000000000000ddb342ecc94236c29a5307d3757d0724d759453c0000000000000000000000001c7d4b196cb0c7b01d743fbc6116a902379c723800000000000000000000000000000000000000000000000000000000000001e0",
          "blockHash": "0xdba00331e4c611401118668dc5f6992d02f8cb1143432a000fd7a5354fc02656",
          "blockNumber": "0x71beeb",
          "transactionHash": "0xd47a5302a923adf1bf87ebedc192875cd51d56e1dff4e5fedc1859fb99e5d09e",
          "transactionIndex": "0x4e",
          "logIndex": "0x5c",
          "removed": false
        },
        {
          "address": "0x21e0b6863f74642fc7764aa1a394079e388a7b53",
          "topics": [
            "0x89bd98ae1b8dd4dbaeba50e40ad484414a306be9fb54ec4eecf1a801ca9aeacf",
            "0x000000000000000000000000ddb342ecc94236c29a5307d3757d0724d759453c"
          ],
          "data": "0x00000000000000000000000000000000000000000000000000000000000001e0",
          "blockHash": "0xdba00331e4c611401118668dc5f6992d02f8cb1143432a000fd7a5354fc02656",
          "blockNumber": "0x71beeb",
          "transactionHash": "0xd47a5302a923adf1bf87ebedc192875cd51d56e1dff4e5fedc1859fb99e5d09e",
          "transactionIndex": "0x4e",
          "logIndex": "0x5d",
          "removed": false
        }
      ],
      "logsBloom": "0x00400000140000000000000000020000000000000000000000008000000000000000000000000000000000000000000000200000000000000000000000000000000000000040000000000000000000000000000000000040001000004000000600000000100000010000000000000000400000000000008000000000400000000000000000000000000000000000000004000000800000000000000000000010000000000000001000000020000000000000000000000000000000000000000000000000000000000000000000000000000000000000000000000000000000000000000000000000000000002000000200000000000000000000000000000000",
      "type": "0x2",
      "transactionHash": "0xd47a5302a923adf1bf87ebedc192875cd51d56e1dff4e5fedc1859fb99e5d09e",
      "transactionIndex": "0x4e",
      "blockHash": "0xdba00331e4c611401118668dc5f6992d02f8cb1143432a000fd7a5354fc02656",
      "blockNumber": "0x71beeb",
      "gasUsed": "0x12a8d",
      "effectiveGasPrice": "0x1166624f35",
      "from": "0xddb342ecc94236c29a5307d3757d0724d759453c",
      "to": "0x21e0b6863f74642fc7764aa1a394079e388a7b53",
      "contractAddress": null
    }
  ],
  "libraries": [],
  "pending": [],
  "returns": {},
  "timestamp": 1736433794,
  "chain": 11155111,
  "commit": "6a172c2"
}