{
  "transactions": [
    {
      "hash": "0x03f2f327b4388d64110d4380f2d86d0c21e4e6b69b537cbd42bd6c443093a79c",
      "transactionType": "CALL",
      "contractName": null,
      "contractAddress": "0xca14007eff0db1f8135f4c25b34de49ab0d42766",
      "function": "approve(address,uint256)",
      "arguments": [
        "0xC9e9844BCF3c6e5dAD789214967dAa9f20A004Ef",
        "115792089237316195423570985008687907853269984665640564039457584007913129639935"
      ],
      "transaction": {
        "from": "0x1b382a7b4496f14e0aaa2da1e1626da400426a03",
        "to": "0xca14007eff0db1f8135f4c25b34de49ab0d42766",
        "gas": "0x93a9",
        "value": "0x0",
        "input": "0x095ea7b3000000000000000000000000c9e9844bcf3c6e5dad789214967daa9f20a004efffffffffffffffffffffffffffffffffffffffffffffffffffffffffffffffff",
        "nonce": "0xd6",
        "chainId": "0xaa36a7"
      },
      "additionalContracts": [],
      "isFixedGasLimit": false
    },
    {
      "hash": "0x94068cca7a3a1dacf1a4523938a9e86ee671f0cdd8415796bc3b30447f57c476",
      "transactionType": "CALL",
      "contractName": null,
      "contractAddress": "0xca14007eff0db1f8135f4c25b34de49ab0d42766",
      "function": "transfer(address,uint256)",
      "arguments": [
        "0xC9e9844BCF3c6e5dAD789214967dAa9f20A004Ef",
        "10000000000000000"
      ],
      "transaction": {
        "from": "0x1b382a7b4496f14e0aaa2da1e1626da400426a03",
        "to": "0xca14007eff0db1f8135f4c25b34de49ab0d42766",
        "gas": "0xd76a",
        "value": "0x0",
        "input": "0xa9059cbb000000000000000000000000c9e9844bcf3c6e5dad789214967daa9f20a004ef000000000000000000000000000000000000000000000000002386f26fc10000",
        "nonce": "0xd7",
        "chainId": "0xaa36a7"
      },
      "additionalContracts": [],
      "isFixedGasLimit": false
    },
    {
      "hash": "0xec5548ce8158ef4efb210af861add6318c51deaf64cb36d5e99454fe796a9259",
      "transactionType": "CALL",
      "contractName": null,
      "contractAddress": "0xc9e9844bcf3c6e5dad789214967daa9f20a004ef",
      "function": "deposit(uint256,uint256)",
      "arguments": [
        "10000000000000000",
        "2302026450899964116598633535803371029781208350664236710329791223191688208360"
      ],
      "transaction": {
        "from": "0x1b382a7b4496f14e0aaa2da1e1626da400426a03",
        "to": "0xc9e9844bcf3c6e5dad789214967daa9f20a004ef",
        "gas": "0x2f13f",
        "value": "0x2386f26fc10000",
        "input": "0xe2bbb158000000000000000000000000000000000000000000000000002386f26fc100000516e69ab50d35cef4606116266187593f1ec83d67274143da15e0b439e45fe8",
        "nonce": "0xd8",
        "chainId": "0xaa36a7"
      },
      "additionalContracts": [],
      "isFixedGasLimit": false
    }
  ],
  "receipts": [
    {
      "status": "0x1",
      "cumulativeGasUsed": "0x181d002",
      "logs": [
        {
          "address": "0xca14007eff0db1f8135f4c25b34de49ab0d42766",
          "topics": [
            "0x8c5be1e5ebec7d5bd14f71427d1e84f3dd0314c0f7b2291e5b200ac8c7c3b925",
            "0x0000000000000000000000001b382a7b4496f14e0aaa2da1e1626da400426a03",
            "0x000000000000000000000000c9e9844bcf3c6e5dad789214967daa9f20a004ef"
          ],
          "data": "0xffffffffffffffffffffffffffffffffffffffffffffffffffffffffffffffff",
          "blockHash": "0x307c490974837ab71969729bd725beaff9f972306cfde96dadb860f0904fdd7e",
          "blockNumber": "0x6b35ed",
          "transactionHash": "0x03f2f327b4388d64110d4380f2d86d0c21e4e6b69b537cbd42bd6c443093a79c",
          "transactionIndex": "0x37",
          "logIndex": "0x73",
          "removed": false
        }
      ],
      "logsBloom": "0x00000000000000000000000000000000000000000400000000000000000000000000000000000000000000000000000000000000000000000000000000200000000000000000000000000000000000000000000000000000000000000000000000000000000000000000000000000000000000010810000020000000000000040000000000000000000000000000000000000000000000000000000000000000020000000000000000000000000000000000000000000000000000000000000000000000000000020000000000000000000000000000000000800000000000000010000000000000000000000000000000000000001000000000000000000000",
      "type": "0x2",
      "transactionHash": "0x03f2f327b4388d64110d4380f2d86d0c21e4e6b69b537cbd42bd6c443093a79c",
      "transactionIndex": "0x37",
      "blockHash": "0x307c490974837ab71969729bd725beaff9f972306cfde96dadb860f0904fdd7e",
      "blockNumber": "0x6b35ed",
      "gasUsed": "0x6ae8",
      "effectiveGasPrice": "0x121037e4b",
      "blobGasUsed": "0x0",
      "from": "0x1b382a7b4496f14e0aaa2da1e1626da400426a03",
      "to": "0xca14007eff0db1f8135f4c25b34de49ab0d42766",
      "contractAddress": null
    },
    {
      "status": "0x1",
      "cumulativeGasUsed": "0x1826bf7",
      "logs": [
        {
          "address": "0xca14007eff0db1f8135f4c25b34de49ab0d42766",
          "topics": [
            "0xddf252ad1be2c89b69c2b068fc378daa952ba7f163c4a11628f55a4df523b3ef",
            "0x0000000000000000000000001b382a7b4496f14e0aaa2da1e1626da400426a03",
            "0x000000000000000000000000c9e9844bcf3c6e5dad789214967daa9f20a004ef"
          ],
          "data": "0x000000000000000000000000000000000000000000000000002386f26fc10000",
          "blockHash": "0x307c490974837ab71969729bd725beaff9f972306cfde96dadb860f0904fdd7e",
          "blockNumber": "0x6b35ed",
          "transactionHash": "0x94068cca7a3a1dacf1a4523938a9e86ee671f0cdd8415796bc3b30447f57c476",
          "transactionIndex": "0x38",
          "logIndex": "0x74",
          "removed": false
        }
      ],
      "logsBloom": "0x00000000000000000000000000000000000000000400000000000000000000000000000000000000000000000000000000000000000000000000000000000000000000000000000000000008000000000000000000000000000000000000000000000000000000000000000000000000000000010810000020000010000000040000000000000000000000000000000000000000000000000000000000000000000000000000000000000000000000000000000000000000000000000000000000000002000000020000000000000000000000000000000000800000000000000000000000000000000000000000000000000000001000000000000000000000",
      "type": "0x2",
      "transactionHash": "0x94068cca7a3a1dacf1a4523938a9e86ee671f0cdd8415796bc3b30447f57c476",
      "transactionIndex": "0x38",
      "blockHash": "0x307c490974837ab71969729bd725beaff9f972306cfde96dadb860f0904fdd7e",
      "blockNumber": "0x6b35ed",
      "gasUsed": "0x9bf5",
      "effectiveGasPrice": "0x121037e4b",
      "blobGasUsed": "0x0",
      "from": "0x1b382a7b4496f14e0aaa2da1e1626da400426a03",
      "to": "0xca14007eff0db1f8135f4c25b34de49ab0d42766",
      "contractAddress": null
    },
    {
      "status": "0x1",
      "cumulativeGasUsed": "0x1848d4e",
      "logs": [
        {
          "address": "0xca14007eff0db1f8135f4c25b34de49ab0d42766",
          "topics": [
            "0x8c5be1e5ebec7d5bd14f71427d1e84f3dd0314c0f7b2291e5b200ac8c7c3b925",
            "0x000000000000000000000000c9e9844bcf3c6e5dad789214967daa9f20a004ef",
            "0x000000000000000000000000ce5485cfb26914c5dce00b9baf0580364dafc7a4"
          ],
          "data": "0x000000000000000000000000000000000000000000000000002386f26fc10000",
          "blockHash": "0x307c490974837ab71969729bd725beaff9f972306cfde96dadb860f0904fdd7e",
          "blockNumber": "0x6b35ed",
          "transactionHash": "0xec5548ce8158ef4efb210af861add6318c51deaf64cb36d5e99454fe796a9259",
          "transactionIndex": "0x39",
          "logIndex": "0x75",
          "removed": false
        },
        {
          "address": "0xca14007eff0db1f8135f4c25b34de49ab0d42766",
          "topics": [
            "0x8c5be1e5ebec7d5bd14f71427d1e84f3dd0314c0f7b2291e5b200ac8c7c3b925",
            "0x000000000000000000000000c9e9844bcf3c6e5dad789214967daa9f20a004ef",
            "0x000000000000000000000000ce5485cfb26914c5dce00b9baf0580364dafc7a4"
          ],
          "data": "0x0000000000000000000000000000000000000000000000000000000000000000",
          "blockHash": "0x307c490974837ab71969729bd725beaff9f972306cfde96dadb860f0904fdd7e",
          "blockNumber": "0x6b35ed",
          "transactionHash": "0xec5548ce8158ef4efb210af861add6318c51deaf64cb36d5e99454fe796a9259",
          "transactionIndex": "0x39",
          "logIndex": "0x76",
          "removed": false
        },
        {
          "address": "0xca14007eff0db1f8135f4c25b34de49ab0d42766",
          "topics": [
            "0xddf252ad1be2c89b69c2b068fc378daa952ba7f163c4a11628f55a4df523b3ef",
            "0x000000000000000000000000c9e9844bcf3c6e5dad789214967daa9f20a004ef",
            "0x000000000000000000000000ce5485cfb26914c5dce00b9baf0580364dafc7a4"
          ],
          "data": "0x000000000000000000000000000000000000000000000000002386f26fc10000",
          "blockHash": "0x307c490974837ab71969729bd725beaff9f972306cfde96dadb860f0904fdd7e",
          "blockNumber": "0x6b35ed",
          "transactionHash": "0xec5548ce8158ef4efb210af861add6318c51deaf64cb36d5e99454fe796a9259",
          "transactionIndex": "0x39",
          "logIndex": "0x77",
          "removed": false
        },
        {
          "address": "0xe2bb56ee936fd6433dc0f6e7e3b8365c906aa057",
          "topics": [
            "0xdb80dd488acf86d17c747445b0eabb5d57c541d3bd7b6b87af987858e5066b2b",
            "0x000000000000000000000000ce5485cfb26914c5dce00b9baf0580364dafc7a4",
            "0x0594c1582459ea03f77deaf9eb7e3917d6994a03c13405ba42867f83d85f085d",
            "0x01b64b1b3b690b43b9b514fb81377518f4039cd3e4f4914d8a6bdf01d679fb19"
          ],
          "data": "0x00000000000000000000000000000000000000000000000000000000000000600000000000000000000000000000000000000000000000000000000000002770000000000000000000000000000000000000000000000000002386f26fc100000000000000000000000000000000000000000000000000000000000000000005000000000000000000000000ca14007eff0db1f8135f4c25b34de49ab0d42766000000000000000000000000c9e9844bcf3c6e5dad789214967daa9f20a004ef03a4b7e2d060bd8eb48e2db10f16c1303b131c266cc928902c3a3a8ead7e386d000000000000000000000000000000000000000000000000002386f26fc100000000000000000000000000000000000000000000000000000000000000000000",
          "blockHash": "0x307c490974837ab71969729bd725beaff9f972306cfde96dadb860f0904fdd7e",
          "blockNumber": "0x6b35ed",
          "transactionHash": "0xec5548ce8158ef4efb210af861add6318c51deaf64cb36d5e99454fe796a9259",
          "transactionIndex": "0x39",
          "logIndex": "0x78",
          "removed": false
        },
        {
          "address": "0xce5485cfb26914c5dce00b9baf0580364dafc7a4",
          "topics": [
            "0x5f971bd00bf3ffbca8a6d72cdd4fd92cfd4f62636161921d1e5a64f0b64ccb6d",
            "0x000000000000000000000000c9e9844bcf3c6e5dad789214967daa9f20a004ef",
            "0x000000000000000000000000ca14007eff0db1f8135f4c25b34de49ab0d42766",
            "0x03a4b7e2d060bd8eb48e2db10f16c1303b131c266cc928902c3a3a8ead7e386d"
          ],
          "data": "0x000000000000000000000000000000000000000000000000002386f26fc100000000000000000000000000000000000000000000000000000000000000002770000000000000000000000000000000000000000000000000002386f26fc10000",
          "blockHash": "0x307c490974837ab71969729bd725beaff9f972306cfde96dadb860f0904fdd7e",
          "blockNumber": "0x6b35ed",
          "transactionHash": "0xec5548ce8158ef4efb210af861add6318c51deaf64cb36d5e99454fe796a9259",
          "transactionIndex": "0x39",
          "logIndex": "0x79",
          "removed": false
        }
      ],
      "logsBloom": "0x00000000000000000200000000020000000000000400000000000002000000400000000000000000000000000000000000000000000004000000000000200000000000000000000000000008080000000000000000000040001000000000000000000000100000000000000000000000000000010800000000000010000008002000000000000000000000000400000000000000000200000100020000000010020000000000000000000020000000001000000000000020000000000000000000000002000000024010000000000000000000200000000000800000200000000010000000010000000000020084000000000000001000000000000000000000",
      "type": "0x2",
      "transactionHash": "0xec5548ce8158ef4efb210af861add6318c51deaf64cb36d5e99454fe796a9259",
      "transactionIndex": "0x39",
      "blockHash": "0x307c490974837ab71969729bd725beaff9f972306cfde96dadb860f0904fdd7e",
      "blockNumber": "0x6b35ed",
      "gasUsed": "0x22157",
      "effectiveGasPrice": "0x121037e4b",
      "blobGasUsed": "0x0",
      "from": "0x1b382a7b4496f14e0aaa2da1e1626da400426a03",
      "to": "0xc9e9844bcf3c6e5dad789214967daa9f20a004ef",
      "contractAddress": null
    }
  ],
  "libraries": [],
  "pending": [],
  "returns": {},
  "timestamp": 1730931329,
  "chain": 11155111,
  "commit": "ed7f201"
}