{
  "transactions": [
    {
      "hash": "0x5bca9cd955e69b4ed12ae3007c19e9f9c1f79b35a67d25098697ba036cf14013",
      "transactionType": "CALL",
      "contractName": "StarkNetToken",
      "contractAddress": "0xCa14007Eff0dB1f8135f4C25B34De49AB0d42766",
      "function": "approve(address,uint256)",
      "arguments": [
        "0x7346cbEf540CA234bFad26649DB2e234fa8d9947",
        "115792089237316195423570985008687907853269984665640564039457584007913129639935"
      ],
      "transaction": {
        "type": "0x02",
        "from": "0xddb342ecc94236c29a5307d3757d0724d759453c",
        "to": "0xca14007eff0db1f8135f4c25b34de49ab0d42766",
        "gas": "0xff08",
        "value": "0x0",
        "data": "0x095ea7b30000000000000000000000007346cbef540ca234bfad26649db2e234fa8d9947ffffffffffffffffffffffffffffffffffffffffffffffffffffffffffffffff",
        "nonce": "0x280",
        "accessList": []
      },
      "additionalContracts": [],
      "isFixedGasLimit": false
    },
    {
      "hash": "0xbefc96dd417b1462ebbc8f0dcca51e110d50a28cfa7c39a11ccaa77e1c15a97d",
      "transactionType": "CALL",
      "contractName": "StarkNetToken",
      "contractAddress": "0xCa14007Eff0dB1f8135f4C25B34De49AB0d42766",
      "function": "transfer(address,uint256)",
      "arguments": [
        "0x7346cbEf540CA234bFad26649DB2e234fa8d9947",
        "500000000000"
      ],
      "transaction": {
        "type": "0x02",
        "from": "0xddb342ecc94236c29a5307d3757d0724d759453c",
        "to": "0xca14007eff0db1f8135f4c25b34de49ab0d42766",
        "gas": "0x1339c",
        "value": "0x0",
        "data": "0xa9059cbb0000000000000000000000007346cbef540ca234bfad26649db2e234fa8d9947000000000000000000000000000000000000000000000000000000746a528800",
        "nonce": "0x281",
        "accessList": []
      },
      "additionalContracts": [],
      "isFixedGasLimit": false
    },
    {
      "hash": "0x7b0d47cd7f5950a9b7d8d6397ba5cc502d6a79052c3b2d4ba9e7e4a590b57773",
      "transactionType": "CALL",
      "contractName": "Proxy",
      "contractAddress": "0xE2Bb56ee936fd6433DC0F6e7e3b8365C906AA057",
      "function": "sendMessageToL2(uint256,uint256,uint256[])",
      "arguments": [
        "1004782957644767218087711407023668012729021277185697465743202972123519228980",
        "425952401605428413817582304755919420533935873840436977667370850915372091056",
        "[2, 0, 0, 0, 0, 0, 0, 0]"
      ],
      "transaction": {
        "type": "0x02",
        "from": "0xddb342ecc94236c29a5307d3757d0724d759453c",
        "to": "0xe2bb56ee936fd6433dc0f6e7e3b8365c906aa057",
        "gas": "0x16cc4",
        "value": "0x5af3107a4000",
        "data": "0x3e3aa6c50238afdf4419cd15ba32bf5529db6862e60ebdf9b6d1b05b7ca4d9be9e879c3400f1149cade9d692862ad41df96b108aa2c20af34f640457e781d166c98dc6b00000000000000000000000000000000000000000000000000000000000000060000000000000000000000000000000000000000000000000000000000000000800000000000000000000000000000000000000000000000000000000000000020000000000000000000000000000000000000000000000000000000000000000000000000000000000000000000000000000000000000000000000000000000000000000000000000000000000000000000000000000000000000000000000000000000000000000000000000000000000000000000000000000000000000000000000000000000000000000000000000000000000000000000000000000000000000000000000000000000000000000000000000000000000000000000000000000000000000000000000000000000000000000000000000000000000000000",
        "nonce": "0x282",
        "accessList": []
      },
      "additionalContracts": [],
      "isFixedGasLimit": false
    }
  ],
  "receipts": [
    {
      "transactionHash": "0x5bca9cd955e69b4ed12ae3007c19e9f9c1f79b35a67d25098697ba036cf14013",
      "transactionIndex": "0x3",
      "blockHash": "0x9731b23c5c4b2f1314a14b778c4596d9bcfe32c096e21cdc08a9d57cb48850fb",
      "blockNumber": "0x6bc33e",
      "from": "0xDdb342ecc94236c29a5307d3757d0724D759453C",
      "to": "0xCa14007Eff0dB1f8135f4C25B34De49AB0d42766",
      "cumulativeGasUsed": "0x3be96",
      "gasUsed": "0xb8a4",
      "contractAddress": null,
      "logs": [
        {
          "address": "0xCa14007Eff0dB1f8135f4C25B34De49AB0d42766",
          "topics": [
            "0x8c5be1e5ebec7d5bd14f71427d1e84f3dd0314c0f7b2291e5b200ac8c7c3b925",
            "0x000000000000000000000000ddb342ecc94236c29a5307d3757d0724d759453c",
            "0x0000000000000000000000007346cbef540ca234bfad26649db2e234fa8d9947"
          ],
          "data": "0xffffffffffffffffffffffffffffffffffffffffffffffffffffffffffffffff",
          "blockHash": "0x9731b23c5c4b2f1314a14b778c4596d9bcfe32c096e21cdc08a9d57cb48850fb",
          "blockNumber": "0x6bc33e",
          "transactionHash": "0x5bca9cd955e69b4ed12ae3007c19e9f9c1f79b35a67d25098697ba036cf14013",
          "transactionIndex": "0x3",
          "logIndex": "0x5",
          "removed": false
        }
      ],
      "status": "0x1",
      "logsBloom": "0x00000000000000000000000000000000000000000000000000000000000000000000000000000000000000000000000000000000000000000000000000200000000000000000000000000000000000000000000000000000000000000000000440000000000000000000000000000000400000000000000000000000400000000000000000000000000000000000000000000000000000000000000000000000020000000000000000000000000000000000000000000000000000000000000000000000000000020000000000000000000000000000000010800000000000000010000000000000000000000000000000040000001000000000000000000000",
      "type": "0x2",
      "effectiveGasPrice": "0x15e7908c0"
    },
    {
      "transactionHash": "0xbefc96dd417b1462ebbc8f0dcca51e110d50a28cfa7c39a11ccaa77e1c15a97d",
      "transactionIndex": "0x4",
      "blockHash": "0x9731b23c5c4b2f1314a14b778c4596d9bcfe32c096e21cdc08a9d57cb48850fb",
      "blockNumber": "0x6bc33e",
      "from": "0xDdb342ecc94236c29a5307d3757d0724D759453C",
      "to": "0xCa14007Eff0dB1f8135f4C25B34De49AB0d42766",
      "cumulativeGasUsed": "0x49d4b",
      "gasUsed": "0xdeb5",
      "contractAddress": null,
      "logs": [
        {
          "address": "0xCa14007Eff0dB1f8135f4C25B34De49AB0d42766",
          "topics": [
            "0xddf252ad1be2c89b69c2b068fc378daa952ba7f163c4a11628f55a4df523b3ef",
            "0x000000000000000000000000ddb342ecc94236c29a5307d3757d0724d759453c",
            "0x0000000000000000000000007346cbef540ca234bfad26649db2e234fa8d9947"
          ],
          "data": "0x000000000000000000000000000000000000000000000000000000746a528800",
          "blockHash": "0x9731b23c5c4b2f1314a14b778c4596d9bcfe32c096e21cdc08a9d57cb48850fb",
          "blockNumber": "0x6bc33e",
          "transactionHash": "0xbefc96dd417b1462ebbc8f0dcca51e110d50a28cfa7c39a11ccaa77e1c15a97d",
          "transactionIndex": "0x4",
          "logIndex": "0x6",
          "removed": false
        }
      ],
      "status": "0x1",
      "logsBloom": "0x00000000000000000000000000000000000000000000000000000000000000000000000000000000000000000000000000000000000000000000000000000000000000000000000000000008000000000000000000000000000000000000000440000000000000000000000000000000400000000000000000000010400000000000000000000000000000000000000000000000000000000000000000000000000000000000000000000000000000000000000000000000000000000000000000000002000000020000000000000000000000000000000010800000000000000000000000000000000000000000000000040000001000000000000000000000",
      "type": "0x2",
      "effectiveGasPrice": "0x15e7908c0"
    },
    {
      "transactionHash": "0x7b0d47cd7f5950a9b7d8d6397ba5cc502d6a79052c3b2d4ba9e7e4a590b57773",
      "transactionIndex": "0x5",
      "blockHash": "0x9731b23c5c4b2f1314a14b778c4596d9bcfe32c096e21cdc08a9d57cb48850fb",
      "blockNumber": "0x6bc33e",
      "from": "0xDdb342ecc94236c29a5307d3757d0724D759453C",
      "to": "0xE2Bb56ee936fd6433DC0F6e7e3b8365C906AA057",
      "cumulativeGasUsed": "0x596b5",
      "gasUsed": "0xf96a",
      "contractAddress": null,
      "logs": [
        {
          "address": "0xE2Bb56ee936fd6433DC0F6e7e3b8365C906AA057",
          "topics": [
            "0xdb80dd488acf86d17c747445b0eabb5d57c541d3bd7b6b87af987858e5066b2b",
            "0x000000000000000000000000ddb342ecc94236c29a5307d3757d0724d759453c",
            "0x0238afdf4419cd15ba32bf5529db6862e60ebdf9b6d1b05b7ca4d9be9e879c34",
            "0x00f1149cade9d692862ad41df96b108aa2c20af34f640457e781d166c98dc6b0"
          ],
          "data": "0x0000000000000000000000000000000000000000000000000000000000000060000000000000000000000000000000000000000000000000000000000000281c00000000000000000000000000000000000000000000000000005af3107a4000000000000000000000000000000000000000000000000000000000000000000800000000000000000000000000000000000000000000000000000000000000020000000000000000000000000000000000000000000000000000000000000000000000000000000000000000000000000000000000000000000000000000000000000000000000000000000000000000000000000000000000000000000000000000000000000000000000000000000000000000000000000000000000000000000000000000000000000000000000000000000000000000000000000000000000000000000000000000000000000000000000000000000000000000000000000000000000000000000000000000000000000000000000000000000000000000",
          "blockHash": "0x9731b23c5c4b2f1314a14b778c4596d9bcfe32c096e21cdc08a9d57cb48850fb",
          "blockNumber": "0x6bc33e",
          "transactionHash": "0x7b0d47cd7f5950a9b7d8d6397ba5cc502d6a79052c3b2d4ba9e7e4a590b57773",
          "transactionIndex": "0x5",
          "logIndex": "0x7",
          "removed": false
        }
      ],
      "status": "0x1",
      "logsBloom": "0x00400000000000000000000000020000000000000000000000000000000000000000000000000000000000000000000000000000000000000000000000000000000000000000000000000000000000000000000000000040001000000000000400000000100000010000040000000000400000000000000000000000400000000000000000000000000000000000000004000000000000000080000000000010000000000000000000000020000000000000000000000000000000000000000000000000000080000000000000000000000000000000000000000000000000000000000000000000000000000000000000000000000000000000000000000000",
      "type": "0x2",
      "effectiveGasPrice": "0x15e7908c0"
    }
  ],
  "libraries": [],
  "pending": [],
  "returns": {},
  "timestamp": 1731422355,
  "chain": 11155111,
  "multi": false,
  "commit": "b1a5e4e"
}