{
  "transactions": [
    {
      "hash": "0xc8366764da87fcae6fd84b2d0da67201b4569402fe8270a0208319a4a2bda3d2",
      "transactionType": "CALL",
      "contractName": "StarkNetToken",
      "contractAddress": "0xCa14007Eff0dB1f8135f4C25B34De49AB0d42766",
      "function": "approve(address,uint256)",
      "arguments": [
        "0x7eb4C59eABE1234E8A6D02FdF4d1BB595C4702Cd",
        "115792089237316195423570985008687907853269984665640564039457584007913129639935"
      ],
      "transaction": {
        "type": "0x02",
        "from": "0xddb342ecc94236c29a5307d3757d0724d759453c",
        "to": "0xca14007eff0db1f8135f4c25b34de49ab0d42766",
        "gas": "0x93a9",
        "value": "0x0",
        "data": "0x095ea7b30000000000000000000000007eb4c59eabe1234e8a6d02fdf4d1bb595c4702cdffffffffffffffffffffffffffffffffffffffffffffffffffffffffffffffff",
        "nonce": "0x373",
        "accessList": []
      },
      "additionalContracts": [],
      "isFixedGasLimit": false
    },
    {
      "hash": "0xaa5f449d51397d9687d9a1b18d8be85082ff70f94881d92924307d269d0f8a6c",
      "transactionType": "CALL",
      "contractName": null,
      "contractAddress": "0x7eb4C59eABE1234E8A6D02FdF4d1BB595C4702Cd",
      "function": "initiateCancelDepositRequest(address,uint256,uint256)",
      "arguments": [
        "0xCa14007Eff0dB1f8135f4C25B34De49AB0d42766",
        "500000000000000",
        "10576"
      ],
      "transaction": {
        "type": "0x02",
        "from": "0xddb342ecc94236c29a5307d3757d0724d759453c",
        "to": "0x7eb4c59eabe1234e8a6d02fdf4d1bb595c4702cd",
        "gas": "0x1d036",
        "value": "0x0",
        "data": "0x1544a45d000000000000000000000000ca14007eff0db1f8135f4c25b34de49ab0d427660000000000000000000000000000000000000000000000000001c6bf526340000000000000000000000000000000000000000000000000000000000000002950",
        "nonce": "0x374",
        "accessList": []
      },
      "additionalContracts": [],
      "isFixedGasLimit": false
    }
  ],
  "receipts": [
    {
      "transactionHash": "0xc8366764da87fcae6fd84b2d0da67201b4569402fe8270a0208319a4a2bda3d2",
      "transactionIndex": "0x1",
      "blockHash": "0x80e88f43abf523665e54bbd78f4930e5981897580a96159127a6fe77b4952bbb",
      "blockNumber": "0x6d3b60",
      "from": "0xDdb342ecc94236c29a5307d3757d0724D759453C",
      "to": "0xCa14007Eff0dB1f8135f4C25B34De49AB0d42766",
      "cumulativeGasUsed": "0xbcf0",
      "gasUsed": "0x6ae8",
      "contractAddress": null,
      "logs": [
        {
          "address": "0xCa14007Eff0dB1f8135f4C25B34De49AB0d42766",
          "topics": [
            "0x8c5be1e5ebec7d5bd14f71427d1e84f3dd0314c0f7b2291e5b200ac8c7c3b925",
            "0x000000000000000000000000ddb342ecc94236c29a5307d3757d0724d759453c",
            "0x0000000000000000000000007eb4c59eabe1234e8a6d02fdf4d1bb595c4702cd"
          ],
          "data": "0xffffffffffffffffffffffffffffffffffffffffffffffffffffffffffffffff",
          "blockHash": "0x80e88f43abf523665e54bbd78f4930e5981897580a96159127a6fe77b4952bbb",
          "blockNumber": "0x6d3b60",
          "transactionHash": "0xc8366764da87fcae6fd84b2d0da67201b4569402fe8270a0208319a4a2bda3d2",
          "transactionIndex": "0x1",
          "logIndex": "0x0",
          "removed": false
        }
      ],
      "status": "0x1",
      "logsBloom": "0x00000000000000100000000000000000000000000000000000000000000000000000000000000000000000000000000000000000000000000000000000200000000000000000000000000000000000000000000000000000000000000000000400020000000000000000000000000000400000000000000000000000400000000000000000000000000000000000000000000000000000000000000000000000020000000000000000000000000000008000000000000000000000000000000000000000000000020000000000000000000000000000000000800000000000000010000000000000000000000000000000000000001000000000000000000000",
      "type": "0x2",
      "effectiveGasPrice": "0x103c951ce"
    },
    {
      "transactionHash": "0xaa5f449d51397d9687d9a1b18d8be85082ff70f94881d92924307d269d0f8a6c",
      "transactionIndex": "0x2",
      "blockHash": "0x80e88f43abf523665e54bbd78f4930e5981897580a96159127a6fe77b4952bbb",
      "blockNumber": "0x6d3b60",
      "from": "0xDdb342ecc94236c29a5307d3757d0724D759453C",
      "to": "0x7eb4C59eABE1234E8A6D02FdF4d1BB595C4702Cd",
      "cumulativeGasUsed": "0x1fa59",
      "gasUsed": "0x13d69",
      "contractAddress": null,
      "logs": [
        {
          "address": "0xE2Bb56ee936fd6433DC0F6e7e3b8365C906AA057",
          "topics": [
            "0x2e00dccd686fd6823ec7dc3e125582aa82881b6ff5f6b5a73856e1ea8338a3be",
            "0x000000000000000000000000ce5485cfb26914c5dce00b9baf0580364dafc7a4",
            "0x0594c1582459ea03f77deaf9eb7e3917d6994a03c13405ba42867f83d85f085d",
            "0x01b64b1b3b690b43b9b514fb81377518f4039cd3e4f4914d8a6bdf01d679fb19"
          ],
          "data": "0x000000000000000000000000000000000000000000000000000000000000004000000000000000000000000000000000000000000000000000000000000029500000000000000000000000000000000000000000000000000000000000000005000000000000000000000000ca14007eff0db1f8135f4c25b34de49ab0d427660000000000000000000000007eb4c59eabe1234e8a6d02fdf4d1bb595c4702cd07c64cd8c107a46ededec6721ca978c24178bb32e779ef54ef52cbbc6e53bf760000000000000000000000000000000000000000000000000001c6bf526340000000000000000000000000000000000000000000000000000000000000000000",
          "blockHash": "0x80e88f43abf523665e54bbd78f4930e5981897580a96159127a6fe77b4952bbb",
          "blockNumber": "0x6d3b60",
          "transactionHash": "0xaa5f449d51397d9687d9a1b18d8be85082ff70f94881d92924307d269d0f8a6c",
          "transactionIndex": "0x2",
          "logIndex": "0x1",
          "removed": false
        },
        {
          "address": "0xcE5485Cfb26914C5dcE00B9BAF0580364daFC7a4",
          "topics": [
            "0x8f3da3ce93acd45e015b069c8f032d37be93dc9efcaaeda368aa9ca74f64c30a",
            "0x0000000000000000000000007eb4c59eabe1234e8a6d02fdf4d1bb595c4702cd",
            "0x000000000000000000000000ca14007eff0db1f8135f4c25b34de49ab0d42766",
            "0x07c64cd8c107a46ededec6721ca978c24178bb32e779ef54ef52cbbc6e53bf76"
          ],
          "data": "0x0000000000000000000000000000000000000000000000000001c6bf526340000000000000000000000000000000000000000000000000000000000000002950",
          "blockHash": "0x80e88f43abf523665e54bbd78f4930e5981897580a96159127a6fe77b4952bbb",
          "blockNumber": "0x6d3b60",
          "transactionHash": "0xaa5f449d51397d9687d9a1b18d8be85082ff70f94881d92924307d269d0f8a6c",
          "transactionIndex": "0x2",
          "logIndex": "0x2",
          "removed": false
        }
      ],
      "status": "0x1",
      "logsBloom": "0x00000000000001100000000000020000000000000000000000000000000000400000000000000000000000000000000000000000000004000000000000000000000000000000000000000000080000000000000000000040000000000000000000020000000000000000000000080000000000000000000000000000000008002000000000000000000000000000080000000000000200004000010000000010000000000000002000000002000000009000000000000020000000000000000000000000000000004810000000000000000000200000000000000000000000008000000000010000000000020084000000000000000000000000000000000000",
      "type": "0x2",
      "effectiveGasPrice": "0x103c951ce"
    }
  ],
  "libraries": [],
  "pending": [],
  "returns": {},
  "timestamp": 1732652034,
  "chain": 11155111,
  "multi": false,
  "commit": "1254ada"
}