{
  "transactions": [
    {
      "hash": "0xc8366764da87fcae6fd84b2d0da67201b4569402fe8270a0208319a4a2bda3d2",
      "transactionType": "CALL",
      "contractName": "StarkNetToken",
      "contractAddress": "0xCa14007Eff0dB1f8135f4C25B34De49AB0d42766",
      "function": "approve(address,uint256)",
      "arguments": [
        "0x7eb4C59eABE1234E8A6D02FdF4d1BB595C4702Cd",
        "115792089237316195423570985008687907853269984665640564039457584007913129639935"
      ],
      "transaction": {
        "type": "0x02",
        "from": "0xddb342ecc94236c29a5307d3757d0724d759453c",
        "to": "0xca14007eff0db1f8135f4c25b34de49ab0d42766",
        "gas": "0x93a9",
        "value": "0x0",
        "data": "0x095ea7b30000000000000000000000007eb4c59eabe1234e8a6d02fdf4d1bb595c4702cdffffffffffffffffffffffffffffffffffffffffffffffffffffffffffffffff",
        "nonce": "0x373",
        "accessList": []
      },
      "additionalContracts": [],
      "isFixedGasLimit": false
    },
    {
      "hash": "0xaa5f449d51397d9687d9a1b18d8be85082ff70f94881d92924307d269d0f8a6c",
      "transactionType": "CALL",
      "contractName": null,
      "contractAddress": "0x7eb4C59eABE1234E8A6D02FdF4d1BB595C4702Cd",
      "function": "initiateCancelDepositRequest(address,uint256,uint256)",
      "arguments": [
        "0xCa14007Eff0dB1f8135f4C25B34De49AB0d42766",
        "500000000000000",
        "10576"
      ],
      "transaction": {
        "type": "0x02",
        "from": "0xddb342ecc94236c29a5307d3757d0724d759453c",
        "to": "0x7eb4c59eabe1234e8a6d02fdf4d1bb595c4702cd",
        "gas": "0x1d036",
        "value": "0x0",
        "data": "0x1544a45d000000000000000000000000ca14007eff0db1f8135f4c25b34de49ab0d427660000000000000000000000000000000000000000000000000001c6bf526340000000000000000000000000000000000000000000000000000000000000002950",
        "nonce": "0x374",
        "accessList": []
      },
      "additionalContracts": [],
      "isFixedGasLimit": false
    }
  ],
  "receipts": [],
  "libraries": [],
  "pending": [
    "0xc8366764da87fcae6fd84b2d0da67201b4569402fe8270a0208319a4a2bda3d2",
    "0xaa5f449d51397d9687d9a1b18d8be85082ff70f94881d92924307d269d0f8a6c"
  ],
  "returns": {},
  "timestamp": 1732652019,
  "chain": 11155111,
  "multi": false,
  "commit": "1254ada"
}