{
  "transactions": [
    {
      "hash": "0x262cc9fd268040d64b7c20f6690bc0629e6b1c24e69d4140a4cb3f6ea601df74",
      "transactionType": "CALL",
      "contractName": "StarkNetToken",
      "contractAddress": "0xCa14007Eff0dB1f8135f4C25B34De49AB0d42766",
      "function": "approve(address,uint256)",
      "arguments": [
        "0x4E3d409Bf0583cD9D2Cdb58265B9C6f15556325d",
        "115792089237316195423570985008687907853269984665640564039457584007913129639935"
      ],
      "transaction": {
        "type": "0x02",
        "from": "0xddb342ecc94236c29a5307d3757d0724d759453c",
        "to": "0xca14007eff0db1f8135f4c25b34de49ab0d42766",
        "gas": "0xff08",
        "value": "0x0",
        "data": "0x095ea7b30000000000000000000000004e3d409bf0583cd9d2cdb58265b9c6f15556325dffffffffffffffffffffffffffffffffffffffffffffffffffffffffffffffff",
        "nonce": "0x206",
        "accessList": []
      },
      "additionalContracts": [],
      "isFixedGasLimit": false
    },
    {
      "hash": "0x10b82e8297c9d946169fc3fcf465bb412711ca7081a2137c9c4c85f26bc7b517",
      "transactionType": "CALL",
      "contractName": "StarkNetToken",
      "contractAddress": "0xCa14007Eff0dB1f8135f4C25B34De49AB0d42766",
      "function": "transfer(address,uint256)",
      "arguments": [
        "0x4E3d409Bf0583cD9D2Cdb58265B9C6f15556325d",
        "10000000000000000"
      ],
      "transaction": {
        "type": "0x02",
        "from": "0xddb342ecc94236c29a5307d3757d0724d759453c",
        "to": "0xca14007eff0db1f8135f4c25b34de49ab0d42766",
        "gas": "0xd76a",
        "value": "0x0",
        "data": "0xa9059cbb0000000000000000000000004e3d409bf0583cd9d2cdb58265b9c6f15556325d000000000000000000000000000000000000000000000000002386f26fc10000",
        "nonce": "0x207",
        "accessList": []
      },
      "additionalContracts": [],
      "isFixedGasLimit": false
    },
    {
      "hash": "0x1cb5f3a9486031c2efeb69d9607c01c02ea4bf8a875ab4ae368b11f241efa873",
      "transactionType": "CALL",
      "contractName": null,
      "contractAddress": "0x4E3d409Bf0583cD9D2Cdb58265B9C6f15556325d",
      "function": "depositAndCreateOrder((address,uint256,uint256,uint128,uint128,uint128,uint128,uint256))",
      "arguments": [
        "(0xDdb342ecc94236c29a5307d3757d0724D759453C, 2009894490435840142178314390393166646092438090257831307886760648929397478285, 2366254414417873771392932940469309727793822550615514268240785277201753657472, 0, 1730983616, 1730983680, 10000000000000000, 2542228151485226030473115636463082607718917399207268216013992033859688605244)"
      ],
      "transaction": {
        "type": "0x02",
        "from": "0xddb342ecc94236c29a5307d3757d0724d759453c",
        "to": "0x4e3d409bf0583cd9d2cdb58265b9c6f15556325d",
        "gas": "0x3ab5f",
        "value": "0x2386f26fc10000",
        "data": "0x5ce510fa000000000000000000000000ddb342ecc94236c29a5307d3757d0724d759453c04718f5a0fc34cc1af16a1cdee98ffb20c31f5cd61d6ab07201858f4287c938d053b40a647cedfca6ca84f542a0fe36736031905a9639a7f19a3c1e66bfd5080000000000000000000000000000000000000000000000000000000000000000000000000000000000000000000000000000000000000000000000000672cb6c000000000000000000000000000000000000000000000000000000000672cb700000000000000000000000000000000000000000000000000002386f26fc10000059ed9a2f59b0d0d4123a21d02ee64d3c3e9119b34494b73c70714ed4efa263c",
        "nonce": "0x208",
        "accessList": []
      },
      "additionalContracts": [],
      "isFixedGasLimit": false
    }
  ],
  "receipts": [
    {
      "transactionHash": "0x262cc9fd268040d64b7c20f6690bc0629e6b1c24e69d4140a4cb3f6ea601df74",
      "transactionIndex": "0x3",
      "blockHash": "0x18da8096a1f60b4210c3ef46ffa0a3d82a1a04f90648281bc06320e54b88d81a",
      "blockNumber": "0x6b459f",
      "from": "0xDdb342ecc94236c29a5307d3757d0724D759453C",
      "to": "0xCa14007Eff0dB1f8135f4C25B34De49AB0d42766",
      "cumulativeGasUsed": "0x29628",
      "gasUsed": "0xb8a4",
      "contractAddress": null,
      "logs": [
        {
          "address": "0xCa14007Eff0dB1f8135f4C25B34De49AB0d42766",
          "topics": [
            "0x8c5be1e5ebec7d5bd14f71427d1e84f3dd0314c0f7b2291e5b200ac8c7c3b925",
            "0x000000000000000000000000ddb342ecc94236c29a5307d3757d0724d759453c",
            "0x0000000000000000000000004e3d409bf0583cd9d2cdb58265b9c6f15556325d"
          ],
          "data": "0xffffffffffffffffffffffffffffffffffffffffffffffffffffffffffffffff",
          "blockHash": "0x18da8096a1f60b4210c3ef46ffa0a3d82a1a04f90648281bc06320e54b88d81a",
          "blockNumber": "0x6b459f",
          "transactionHash": "0x262cc9fd268040d64b7c20f6690bc0629e6b1c24e69d4140a4cb3f6ea601df74",
          "transactionIndex": "0x3",
          "logIndex": "0x1",
          "removed": false
        }
      ],
      "status": "0x1",
      "logsBloom": "0x00000400000000000000000008000000000000000000000000000000000000000000000000000000000000000000000000000000000000000000000000200000000000000000000000000000000000000000000000000000000000000000000400000000000000000000000000000000400000000000000000000000400000000000000000000000000000000000000000000000000000000000000000000000020000000000000000000000000000000000000000000000000000000000000000000000000000020000000000000000000000000000000000800000000000002010000000000000000000000000000000000000001000000000000000000000",
      "type": "0x2",
      "effectiveGasPrice": "0x1d9f55f6c"
    },
    {
      "transactionHash": "0x10b82e8297c9d946169fc3fcf465bb412711ca7081a2137c9c4c85f26bc7b517",
      "transactionIndex": "0x4",
      "blockHash": "0x18da8096a1f60b4210c3ef46ffa0a3d82a1a04f90648281bc06320e54b88d81a",
      "blockNumber": "0x6b459f",
      "from": "0xDdb342ecc94236c29a5307d3757d0724D759453C",
      "to": "0xCa14007Eff0dB1f8135f4C25B34De49AB0d42766",
      "cumulativeGasUsed": "0x3321d",
      "gasUsed": "0x9bf5",
      "contractAddress": null,
      "logs": [
        {
          "address": "0xCa14007Eff0dB1f8135f4C25B34De49AB0d42766",
          "topics": [
            "0xddf252ad1be2c89b69c2b068fc378daa952ba7f163c4a11628f55a4df523b3ef",
            "0x000000000000000000000000ddb342ecc94236c29a5307d3757d0724d759453c",
            "0x0000000000000000000000004e3d409bf0583cd9d2cdb58265b9c6f15556325d"
          ],
          "data": "0x000000000000000000000000000000000000000000000000002386f26fc10000",
          "blockHash": "0x18da8096a1f60b4210c3ef46ffa0a3d82a1a04f90648281bc06320e54b88d81a",
          "blockNumber": "0x6b459f",
          "transactionHash": "0x10b82e8297c9d946169fc3fcf465bb412711ca7081a2137c9c4c85f26bc7b517",
          "transactionIndex": "0x4",
          "logIndex": "0x2",
          "removed": false
        }
      ],
      "status": "0x1",
      "logsBloom": "0x00000400000000000000000008000000000000000000000000000000000000000000000000000000000000000000000000000000000000000000000000000000000000000000000000000008000000000000000000000000000000000000000400000000000000000000000000000000400000000000000000000010400000000000000000000000000000000000000000000000000000000000000000000000000000000000000000000000000000000000000000000000000000000000000000000002000000020000000000000000000000000000000000800000000000002000000000000000000000000000000000000000001000000000000000000000",
      "type": "0x2",
      "effectiveGasPrice": "0x1d9f55f6c"
    },
    {
      "transactionHash": "0x1cb5f3a9486031c2efeb69d9607c01c02ea4bf8a875ab4ae368b11f241efa873",
      "transactionIndex": "0x5",
      "blockHash": "0x18da8096a1f60b4210c3ef46ffa0a3d82a1a04f90648281bc06320e54b88d81a",
      "blockNumber": "0x6b459f",
      "from": "0xDdb342ecc94236c29a5307d3757d0724D759453C",
      "to": "0x4E3d409Bf0583cD9D2Cdb58265B9C6f15556325d",
      "cumulativeGasUsed": "0x5d5a9",
      "gasUsed": "0x2a38c",
      "contractAddress": null,
      "logs": [
        {
          "address": "0xCa14007Eff0dB1f8135f4C25B34De49AB0d42766",
          "topics": [
            "0xddf252ad1be2c89b69c2b068fc378daa952ba7f163c4a11628f55a4df523b3ef",
            "0x000000000000000000000000ddb342ecc94236c29a5307d3757d0724d759453c",
            "0x0000000000000000000000004e3d409bf0583cd9d2cdb58265b9c6f15556325d"
          ],
          "data": "0x000000000000000000000000000000000000000000000000002386f26fc10000",
          "blockHash": "0x18da8096a1f60b4210c3ef46ffa0a3d82a1a04f90648281bc06320e54b88d81a",
          "blockNumber": "0x6b459f",
          "transactionHash": "0x1cb5f3a9486031c2efeb69d9607c01c02ea4bf8a875ab4ae368b11f241efa873",
          "transactionIndex": "0x5",
          "logIndex": "0x3",
          "removed": false
        },
        {
          "address": "0xCa14007Eff0dB1f8135f4C25B34De49AB0d42766",
          "topics": [
            "0x8c5be1e5ebec7d5bd14f71427d1e84f3dd0314c0f7b2291e5b200ac8c7c3b925",
            "0x0000000000000000000000004e3d409bf0583cd9d2cdb58265b9c6f15556325d",
            "0x000000000000000000000000ce5485cfb26914c5dce00b9baf0580364dafc7a4"
          ],
          "data": "0x0000000000000000000000000000000000000000000000000000000000000000",
          "blockHash": "0x18da8096a1f60b4210c3ef46ffa0a3d82a1a04f90648281bc06320e54b88d81a",
          "blockNumber": "0x6b459f",
          "transactionHash": "0x1cb5f3a9486031c2efeb69d9607c01c02ea4bf8a875ab4ae368b11f241efa873",
          "transactionIndex": "0x5",
          "logIndex": "0x4",
          "removed": false
        },
        {
          "address": "0xCa14007Eff0dB1f8135f4C25B34De49AB0d42766",
          "topics": [
            "0x8c5be1e5ebec7d5bd14f71427d1e84f3dd0314c0f7b2291e5b200ac8c7c3b925",
            "0x0000000000000000000000004e3d409bf0583cd9d2cdb58265b9c6f15556325d",
            "0x000000000000000000000000ce5485cfb26914c5dce00b9baf0580364dafc7a4"
          ],
          "data": "0x000000000000000000000000000000000000000000000000002386f26fc10000",
          "blockHash": "0x18da8096a1f60b4210c3ef46ffa0a3d82a1a04f90648281bc06320e54b88d81a",
          "blockNumber": "0x6b459f",
          "transactionHash": "0x1cb5f3a9486031c2efeb69d9607c01c02ea4bf8a875ab4ae368b11f241efa873",
          "transactionIndex": "0x5",
          "logIndex": "0x5",
          "removed": false
        },
        {
          "address": "0xCa14007Eff0dB1f8135f4C25B34De49AB0d42766",
          "topics": [
            "0x8c5be1e5ebec7d5bd14f71427d1e84f3dd0314c0f7b2291e5b200ac8c7c3b925",
            "0x0000000000000000000000004e3d409bf0583cd9d2cdb58265b9c6f15556325d",
            "0x000000000000000000000000ce5485cfb26914c5dce00b9baf0580364dafc7a4"
          ],
          "data": "0x0000000000000000000000000000000000000000000000000000000000000000",
          "blockHash": "0x18da8096a1f60b4210c3ef46ffa0a3d82a1a04f90648281bc06320e54b88d81a",
          "blockNumber": "0x6b459f",
          "transactionHash": "0x1cb5f3a9486031c2efeb69d9607c01c02ea4bf8a875ab4ae368b11f241efa873",
          "transactionIndex": "0x5",
          "logIndex": "0x6",
          "removed": false
        },
        {
          "address": "0xCa14007Eff0dB1f8135f4C25B34De49AB0d42766",
          "topics": [
            "0xddf252ad1be2c89b69c2b068fc378daa952ba7f163c4a11628f55a4df523b3ef",
            "0x0000000000000000000000004e3d409bf0583cd9d2cdb58265b9c6f15556325d",
            "0x000000000000000000000000ce5485cfb26914c5dce00b9baf0580364dafc7a4"
          ],
          "data": "0x000000000000000000000000000000000000000000000000002386f26fc10000",
          "blockHash": "0x18da8096a1f60b4210c3ef46ffa0a3d82a1a04f90648281bc06320e54b88d81a",
          "blockNumber": "0x6b459f",
          "transactionHash": "0x1cb5f3a9486031c2efeb69d9607c01c02ea4bf8a875ab4ae368b11f241efa873",
          "transactionIndex": "0x5",
          "logIndex": "0x7",
          "removed": false
        },
        {
          "address": "0xE2Bb56ee936fd6433DC0F6e7e3b8365C906AA057",
          "topics": [
            "0xdb80dd488acf86d17c747445b0eabb5d57c541d3bd7b6b87af987858e5066b2b",
            "0x000000000000000000000000ce5485cfb26914c5dce00b9baf0580364dafc7a4",
            "0x0594c1582459ea03f77deaf9eb7e3917d6994a03c13405ba42867f83d85f085d",
            "0x008bce41827dd5484d80312a2e43bc42a896e3fcf75bf84c2b49339168dfa00a"
          ],
          "data": "0x0000000000000000000000000000000000000000000000000000000000000060000000000000000000000000000000000000000000000000000000000000277b000000000000000000000000000000000000000000000000002386f26fc10000000000000000000000000000000000000000000000000000000000000000000d000000000000000000000000ca14007eff0db1f8135f4c25b34de49ab0d427660000000000000000000000004e3d409bf0583cd9d2cdb58265b9c6f15556325d059ed9a2f59b0d0d4123a21d02ee64d3c3e9119b34494b73c70714ed4efa263c000000000000000000000000000000000000000000000000002386f26fc10000000000000000000000000000000000000000000000000000000000000000000000000000000000000000000000000000000000000000000000000000000000070000000000000000000000000000000000000000000000000000000000000000000000000000000000000000ddb342ecc94236c29a5307d3757d0724d759453c04718f5a0fc34cc1af16a1cdee98ffb20c31f5cd61d6ab07201858f4287c938d053b40a647cedfca6ca84f542a0fe36736031905a9639a7f19a3c1e66bfd5080000000000000000000000000000000000000000000000000000000000000000000000000000000000000000000000000000000000000000000000000672cb6c000000000000000000000000000000000000000000000000000000000672cb700",
          "blockHash": "0x18da8096a1f60b4210c3ef46ffa0a3d82a1a04f90648281bc06320e54b88d81a",
          "blockNumber": "0x6b459f",
          "transactionHash": "0x1cb5f3a9486031c2efeb69d9607c01c02ea4bf8a875ab4ae368b11f241efa873",
          "transactionIndex": "0x5",
          "logIndex": "0x8",
          "removed": false
        },
        {
          "address": "0xcE5485Cfb26914C5dcE00B9BAF0580364daFC7a4",
          "topics": [
            "0x2203a49c69f1a46c1164f5e4a30643dd77b7c59c0ff9bc433256048365c247f1",
            "0x0000000000000000000000004e3d409bf0583cd9d2cdb58265b9c6f15556325d",
            "0x000000000000000000000000ca14007eff0db1f8135f4c25b34de49ab0d42766",
            "0x059ed9a2f59b0d0d4123a21d02ee64d3c3e9119b34494b73c70714ed4efa263c"
          ],
          "data": "0x000000000000000000000000000000000000000000000000002386f26fc100000000000000000000000000000000000000000000000000000000000000000080000000000000000000000000000000000000000000000000000000000000277b000000000000000000000000000000000000000000000000002386f26fc1000000000000000000000000000000000000000000000000000000000000000000070000000000000000000000000000000000000000000000000000000000000000000000000000000000000000ddb342ecc94236c29a5307d3757d0724d759453c04718f5a0fc34cc1af16a1cdee98ffb20c31f5cd61d6ab07201858f4287c938d053b40a647cedfca6ca84f542a0fe36736031905a9639a7f19a3c1e66bfd5080000000000000000000000000000000000000000000000000000000000000000000000000000000000000000000000000000000000000000000000000672cb6c000000000000000000000000000000000000000000000000000000000672cb700",
          "blockHash": "0x18da8096a1f60b4210c3ef46ffa0a3d82a1a04f90648281bc06320e54b88d81a",
          "blockNumber": "0x6b459f",
          "transactionHash": "0x1cb5f3a9486031c2efeb69d9607c01c02ea4bf8a875ab4ae368b11f241efa873",
          "transactionIndex": "0x5",
          "logIndex": "0x9",
          "removed": false
        },
        {
          "address": "0x4E3d409Bf0583cD9D2Cdb58265B9C6f15556325d",
          "topics": [
            "0xaf43445f7721522b7a3864ed3de53d7e2e658bfa1eeffa18e1e229be68ce2545",
            "0x000000000000000000000000ddb342ecc94236c29a5307d3757d0724d759453c",
            "0x059ed9a2f59b0d0d4123a21d02ee64d3c3e9119b34494b73c70714ed4efa263c"
          ],
          "data": "0x000000000000000000000000000000000000000000000000002386f26fc100000000000000000000000000000000000000000000000000000000000000000001",
          "blockHash": "0x18da8096a1f60b4210c3ef46ffa0a3d82a1a04f90648281bc06320e54b88d81a",
          "blockNumber": "0x6b459f",
          "transactionHash": "0x1cb5f3a9486031c2efeb69d9607c01c02ea4bf8a875ab4ae368b11f241efa873",
          "transactionIndex": "0x5",
          "logIndex": "0xa",
          "removed": false
        }
      ],
      "status": "0x1",
      "logsBloom": "0x00000600000000000000000008020000000000000000000000000040000000000000000000000000000000000000000000000000000004000000020000200000000004000000000020000008080000000000000000000040001000000000000600000000100000000000000000000000400000000000000000000030400008002000000000000000000000020000000000008000400200000000000000000010020000800000000000000020000000021000000000000000000000000000000000800002000000024010001000000000000000200000000000800000000080002010000000010000000000020004000000000000001000000000000000000000",
      "type": "0x2",
      "effectiveGasPrice": "0x1d9f55f6c"
    }
  ],
  "libraries": [],
  "pending": [],
  "returns": {},
  "timestamp": 1730983676,
  "chain": 11155111,
  "multi": false,
  "commit": "e344443"
}