{
  "transactions": [
    {
      "hash": "0xf08d8447b0e9d1f81fcf03aed90d912646466349ac1368865400ac5e1c9de5bf",
      "transactionType": "CALL",
      "contractName": "StarkNetToken",
      "contractAddress": "0xCa14007Eff0dB1f8135f4C25B34De49AB0d42766",
      "function": "approve(address,uint256)",
      "arguments": [
        "0x42456035d7d5b31aA5f1f4c3945fD786d5B9047b",
        "115792089237316195423570985008687907853269984665640564039457584007913129639935"
      ],
      "transaction": {
        "type": "0x02",
        "from": "0xddb342ecc94236c29a5307d3757d0724d759453c",
        "to": "0xca14007eff0db1f8135f4c25b34de49ab0d42766",
        "gas": "0x93a9",
        "value": "0x0",
        "data": "0x095ea7b300000000000000000000000042456035d7d5b31aa5f1f4c3945fd786d5b9047bffffffffffffffffffffffffffffffffffffffffffffffffffffffffffffffff",
        "nonce": "0x219",
        "accessList": []
      },
      "additionalContracts": [],
      "isFixedGasLimit": false
    },
    {
      "hash": "0xaea5e0065a144ff952d65c93965b489a3c3103bdd6849546759e2d55e6ee2639",
      "transactionType": "CALL",
      "contractName": "StarkNetToken",
      "contractAddress": "0xCa14007Eff0dB1f8135f4C25B34De49AB0d42766",
      "function": "transfer(address,uint256)",
      "arguments": [
        "0x42456035d7d5b31aA5f1f4c3945fD786d5B9047b",
        "1000000000000000"
      ],
      "transaction": {
        "type": "0x02",
        "from": "0xddb342ecc94236c29a5307d3757d0724d759453c",
        "to": "0xca14007eff0db1f8135f4c25b34de49ab0d42766",
        "gas": "0xe427",
        "value": "0x0",
        "data": "0xa9059cbb00000000000000000000000042456035d7d5b31aa5f1f4c3945fd786d5b9047b00000000000000000000000000000000000000000000000000038d7ea4c68000",
        "nonce": "0x21a",
        "accessList": []
      },
      "additionalContracts": [],
      "isFixedGasLimit": false
    },
    {
      "hash": "0xa58fb229ebd125ddd33008dc7bab4fe05e259e93dfa812430f43dab6f25e852f",
      "transactionType": "CALL",
      "contractName": "L1TWAMMBridge",
      "contractAddress": "0x42456035d7d5b31aA5f1f4c3945fD786d5B9047b",
      "function": "depositAndCreateOrder((address,uint256,uint256,uint128,uint128,uint128,uint128,uint256))",
      "arguments": [
        "(0xDdb342ecc94236c29a5307d3757d0724D759453C, 2009894490435840142178314390393166646092438090257831307886760648929397478285, 2366254414417873771392932940469309727793822550615514268240785277201753657472, 0, 1730990016, 1730990080, 1000000000000000, 2475222393109939375102424682875175304048438104125586224731729781738300548063)"
      ],
      "transaction": {
        "type": "0x02",
        "from": "0xddb342ecc94236c29a5307d3757d0724d759453c",
        "to": "0x42456035d7d5b31aa5f1f4c3945fd786d5b9047b",
        "gas": "0x3a529",
        "value": "0x38d7ea4c68000",
        "data": "0x5ce510fa000000000000000000000000ddb342ecc94236c29a5307d3757d0724d759453c04718f5a0fc34cc1af16a1cdee98ffb20c31f5cd61d6ab07201858f4287c938d053b40a647cedfca6ca84f542a0fe36736031905a9639a7f19a3c1e66bfd5080000000000000000000000000000000000000000000000000000000000000000000000000000000000000000000000000000000000000000000000000672ccfc000000000000000000000000000000000000000000000000000000000672cd00000000000000000000000000000000000000000000000000000038d7ea4c680000578ed1d3f98dcf36dfc9525e80c4a42d383642ab182a846447edbb77384a3df",
        "nonce": "0x21b",
        "accessList": []
      },
      "additionalContracts": [],
      "isFixedGasLimit": false
    }
  ],
  "receipts": [
    {
      "transactionHash": "0xf08d8447b0e9d1f81fcf03aed90d912646466349ac1368865400ac5e1c9de5bf",
      "transactionIndex": "0x9",
      "blockHash": "0x3a09e6c018dd6283212542c9d4ee29ea86e8df53f8bf68aab951dbbfff9eafed",
      "blockNumber": "0x6b4787",
      "from": "0xDdb342ecc94236c29a5307d3757d0724D759453C",
      "to": "0xCa14007Eff0dB1f8135f4C25B34De49AB0d42766",
      "cumulativeGasUsed": "0x38232",
      "gasUsed": "0x6ae8",
      "contractAddress": null,
      "logs": [
        {
          "address": "0xCa14007Eff0dB1f8135f4C25B34De49AB0d42766",
          "topics": [
            "0x8c5be1e5ebec7d5bd14f71427d1e84f3dd0314c0f7b2291e5b200ac8c7c3b925",
            "0x000000000000000000000000ddb342ecc94236c29a5307d3757d0724d759453c",
            "0x00000000000000000000000042456035d7d5b31aa5f1f4c3945fd786d5b9047b"
          ],
          "data": "0xffffffffffffffffffffffffffffffffffffffffffffffffffffffffffffffff",
          "blockHash": "0x3a09e6c018dd6283212542c9d4ee29ea86e8df53f8bf68aab951dbbfff9eafed",
          "blockNumber": "0x6b4787",
          "transactionHash": "0xf08d8447b0e9d1f81fcf03aed90d912646466349ac1368865400ac5e1c9de5bf",
          "transactionIndex": "0x9",
          "logIndex": "0x1",
          "removed": false
        }
      ],
      "status": "0x1",
      "logsBloom": "0x00000000000000000000000000000000000000000000000000000000000000000000000000008000000000000000000000000000000000000000000000200000000000010000000000000000000000000000000000000000000000000000000400000000000000000000000000000000400000000000000000000000400000000000000000000000000000000000000000000000000000000000000000000000020000000000000000000000000000000000000000000000000000000000000000000000000000020000000000000000000000000000000000800000000000000010000000000000000000010000000000000000001000000000000000000000",
      "type": "0x2",
      "effectiveGasPrice": "0x1cc2bc98f"
    },
    {
      "transactionHash": "0xaea5e0065a144ff952d65c93965b489a3c3103bdd6849546759e2d55e6ee2639",
      "transactionIndex": "0xa",
      "blockHash": "0x3a09e6c018dd6283212542c9d4ee29ea86e8df53f8bf68aab951dbbfff9eafed",
      "blockNumber": "0x6b4787",
      "from": "0xDdb342ecc94236c29a5307d3757d0724D759453C",
      "to": "0xCa14007Eff0dB1f8135f4C25B34De49AB0d42766",
      "cumulativeGasUsed": "0x41e33",
      "gasUsed": "0x9c01",
      "contractAddress": null,
      "logs": [
        {
          "address": "0xCa14007Eff0dB1f8135f4C25B34De49AB0d42766",
          "topics": [
            "0xddf252ad1be2c89b69c2b068fc378daa952ba7f163c4a11628f55a4df523b3ef",
            "0x000000000000000000000000ddb342ecc94236c29a5307d3757d0724d759453c",
            "0x00000000000000000000000042456035d7d5b31aa5f1f4c3945fd786d5b9047b"
          ],
          "data": "0x00000000000000000000000000000000000000000000000000038d7ea4c68000",
          "blockHash": "0x3a09e6c018dd6283212542c9d4ee29ea86e8df53f8bf68aab951dbbfff9eafed",
          "blockNumber": "0x6b4787",
          "transactionHash": "0xaea5e0065a144ff952d65c93965b489a3c3103bdd6849546759e2d55e6ee2639",
          "transactionIndex": "0xa",
          "logIndex": "0x2",
          "removed": false
        }
      ],
      "status": "0x1",
      "logsBloom": "0x00000000000000000000000000000000000000000000000000000000000000000000000000008000000000000000000000000000000000000000000000000000000000010000000000000008000000000000000000000000000000000000000400000000000000000000000000000000400000000000000000000010400000000000000000000000000000000000000000000000000000000000000000000000000000000000000000000000000000000000000000000000000000000000000000000002000000020000000000000000000000000000000000800000000000000000000000000000000000010000000000000000001000000000000000000000",
      "type": "0x2",
      "effectiveGasPrice": "0x1cc2bc98f"
    },
    {
      "transactionHash": "0xa58fb229ebd125ddd33008dc7bab4fe05e259e93dfa812430f43dab6f25e852f",
      "transactionIndex": "0xb",
      "blockHash": "0x3a09e6c018dd6283212542c9d4ee29ea86e8df53f8bf68aab951dbbfff9eafed",
      "blockNumber": "0x6b4787",
      "from": "0xDdb342ecc94236c29a5307d3757d0724D759453C",
      "to": "0x42456035d7d5b31aA5f1f4c3945fD786d5B9047b",
      "cumulativeGasUsed": "0x6c1cb",
      "gasUsed": "0x2a398",
      "contractAddress": null,
      "logs": [
        {
          "address": "0xCa14007Eff0dB1f8135f4C25B34De49AB0d42766",
          "topics": [
            "0xddf252ad1be2c89b69c2b068fc378daa952ba7f163c4a11628f55a4df523b3ef",
            "0x000000000000000000000000ddb342ecc94236c29a5307d3757d0724d759453c",
            "0x00000000000000000000000042456035d7d5b31aa5f1f4c3945fd786d5b9047b"
          ],
          "data": "0x00000000000000000000000000000000000000000000000000038d7ea4c68000",
          "blockHash": "0x3a09e6c018dd6283212542c9d4ee29ea86e8df53f8bf68aab951dbbfff9eafed",
          "blockNumber": "0x6b4787",
          "transactionHash": "0xa58fb229ebd125ddd33008dc7bab4fe05e259e93dfa812430f43dab6f25e852f",
          "transactionIndex": "0xb",
          "logIndex": "0x3",
          "removed": false
        },
        {
          "address": "0xCa14007Eff0dB1f8135f4C25B34De49AB0d42766",
          "topics": [
            "0x8c5be1e5ebec7d5bd14f71427d1e84f3dd0314c0f7b2291e5b200ac8c7c3b925",
            "0x00000000000000000000000042456035d7d5b31aa5f1f4c3945fd786d5b9047b",
            "0x000000000000000000000000ce5485cfb26914c5dce00b9baf0580364dafc7a4"
          ],
          "data": "0x0000000000000000000000000000000000000000000000000000000000000000",
          "blockHash": "0x3a09e6c018dd6283212542c9d4ee29ea86e8df53f8bf68aab951dbbfff9eafed",
          "blockNumber": "0x6b4787",
          "transactionHash": "0xa58fb229ebd125ddd33008dc7bab4fe05e259e93dfa812430f43dab6f25e852f",
          "transactionIndex": "0xb",
          "logIndex": "0x4",
          "removed": false
        },
        {
          "address": "0xCa14007Eff0dB1f8135f4C25B34De49AB0d42766",
          "topics": [
            "0x8c5be1e5ebec7d5bd14f71427d1e84f3dd0314c0f7b2291e5b200ac8c7c3b925",
            "0x00000000000000000000000042456035d7d5b31aa5f1f4c3945fd786d5b9047b",
            "0x000000000000000000000000ce5485cfb26914c5dce00b9baf0580364dafc7a4"
          ],
          "data": "0x00000000000000000000000000000000000000000000000000038d7ea4c68000",
          "blockHash": "0x3a09e6c018dd6283212542c9d4ee29ea86e8df53f8bf68aab951dbbfff9eafed",
          "blockNumber": "0x6b4787",
          "transactionHash": "0xa58fb229ebd125ddd33008dc7bab4fe05e259e93dfa812430f43dab6f25e852f",
          "transactionIndex": "0xb",
          "logIndex": "0x5",
          "removed": false
        },
        {
          "address": "0xCa14007Eff0dB1f8135f4C25B34De49AB0d42766",
          "topics": [
            "0x8c5be1e5ebec7d5bd14f71427d1e84f3dd0314c0f7b2291e5b200ac8c7c3b925",
            "0x00000000000000000000000042456035d7d5b31aa5f1f4c3945fd786d5b9047b",
            "0x000000000000000000000000ce5485cfb26914c5dce00b9baf0580364dafc7a4"
          ],
          "data": "0x0000000000000000000000000000000000000000000000000000000000000000",
          "blockHash": "0x3a09e6c018dd6283212542c9d4ee29ea86e8df53f8bf68aab951dbbfff9eafed",
          "blockNumber": "0x6b4787",
          "transactionHash": "0xa58fb229ebd125ddd33008dc7bab4fe05e259e93dfa812430f43dab6f25e852f",
          "transactionIndex": "0xb",
          "logIndex": "0x6",
          "removed": false
        },
        {
          "address": "0xCa14007Eff0dB1f8135f4C25B34De49AB0d42766",
          "topics": [
            "0xddf252ad1be2c89b69c2b068fc378daa952ba7f163c4a11628f55a4df523b3ef",
            "0x00000000000000000000000042456035d7d5b31aa5f1f4c3945fd786d5b9047b",
            "0x000000000000000000000000ce5485cfb26914c5dce00b9baf0580364dafc7a4"
          ],
          "data": "0x00000000000000000000000000000000000000000000000000038d7ea4c68000",
          "blockHash": "0x3a09e6c018dd6283212542c9d4ee29ea86e8df53f8bf68aab951dbbfff9eafed",
          "blockNumber": "0x6b4787",
          "transactionHash": "0xa58fb229ebd125ddd33008dc7bab4fe05e259e93dfa812430f43dab6f25e852f",
          "transactionIndex": "0xb",
          "logIndex": "0x7",
          "removed": false
        },
        {
          "address": "0xE2Bb56ee936fd6433DC0F6e7e3b8365C906AA057",
          "topics": [
            "0xdb80dd488acf86d17c747445b0eabb5d57c541d3bd7b6b87af987858e5066b2b",
            "0x000000000000000000000000ce5485cfb26914c5dce00b9baf0580364dafc7a4",
            "0x0594c1582459ea03f77deaf9eb7e3917d6994a03c13405ba42867f83d85f085d",
            "0x008bce41827dd5484d80312a2e43bc42a896e3fcf75bf84c2b49339168dfa00a"
          ],
          "data": "0x0000000000000000000000000000000000000000000000000000000000000060000000000000000000000000000000000000000000000000000000000000278000000000000000000000000000000000000000000000000000038d7ea4c68000000000000000000000000000000000000000000000000000000000000000000d000000000000000000000000ca14007eff0db1f8135f4c25b34de49ab0d4276600000000000000000000000042456035d7d5b31aa5f1f4c3945fd786d5b9047b0578ed1d3f98dcf36dfc9525e80c4a42d383642ab182a846447edbb77384a3df00000000000000000000000000000000000000000000000000038d7ea4c68000000000000000000000000000000000000000000000000000000000000000000000000000000000000000000000000000000000000000000000000000000000070000000000000000000000000000000000000000000000000000000000000000000000000000000000000000ddb342ecc94236c29a5307d3757d0724d759453c04718f5a0fc34cc1af16a1cdee98ffb20c31f5cd61d6ab07201858f4287c938d053b40a647cedfca6ca84f542a0fe36736031905a9639a7f19a3c1e66bfd5080000000000000000000000000000000000000000000000000000000000000000000000000000000000000000000000000000000000000000000000000672ccfc000000000000000000000000000000000000000000000000000000000672cd000",
          "blockHash": "0x3a09e6c018dd6283212542c9d4ee29ea86e8df53f8bf68aab951dbbfff9eafed",
          "blockNumber": "0x6b4787",
          "transactionHash": "0xa58fb229ebd125ddd33008dc7bab4fe05e259e93dfa812430f43dab6f25e852f",
          "transactionIndex": "0xb",
          "logIndex": "0x8",
          "removed": false
        },
        {
          "address": "0xcE5485Cfb26914C5dcE00B9BAF0580364daFC7a4",
          "topics": [
            "0x2203a49c69f1a46c1164f5e4a30643dd77b7c59c0ff9bc433256048365c247f1",
            "0x00000000000000000000000042456035d7d5b31aa5f1f4c3945fd786d5b9047b",
            "0x000000000000000000000000ca14007eff0db1f8135f4c25b34de49ab0d42766",
            "0x0578ed1d3f98dcf36dfc9525e80c4a42d383642ab182a846447edbb77384a3df"
          ],
          "data": "0x00000000000000000000000000000000000000000000000000038d7ea4c680000000000000000000000000000000000000000000000000000000000000000080000000000000000000000000000000000000000000000000000000000000278000000000000000000000000000000000000000000000000000038d7ea4c6800000000000000000000000000000000000000000000000000000000000000000070000000000000000000000000000000000000000000000000000000000000000000000000000000000000000ddb342ecc94236c29a5307d3757d0724d759453c04718f5a0fc34cc1af16a1cdee98ffb20c31f5cd61d6ab07201858f4287c938d053b40a647cedfca6ca84f542a0fe36736031905a9639a7f19a3c1e66bfd5080000000000000000000000000000000000000000000000000000000000000000000000000000000000000000000000000000000000000000000000000672ccfc000000000000000000000000000000000000000000000000000000000672cd000",
          "blockHash": "0x3a09e6c018dd6283212542c9d4ee29ea86e8df53f8bf68aab951dbbfff9eafed",
          "blockNumber": "0x6b4787",
          "transactionHash": "0xa58fb229ebd125ddd33008dc7bab4fe05e259e93dfa812430f43dab6f25e852f",
          "transactionIndex": "0xb",
          "logIndex": "0x9",
          "removed": false
        },
        {
          "address": "0x42456035d7d5b31aA5f1f4c3945fD786d5B9047b",
          "topics": [
            "0xaf43445f7721522b7a3864ed3de53d7e2e658bfa1eeffa18e1e229be68ce2545",
            "0x000000000000000000000000ddb342ecc94236c29a5307d3757d0724d759453c",
            "0x0578ed1d3f98dcf36dfc9525e80c4a42d383642ab182a846447edbb77384a3df"
          ],
          "data": "0x00000000000000000000000000000000000000000000000000038d7ea4c680000000000000000000000000000000000000000000000000000000000000000001",
          "blockHash": "0x3a09e6c018dd6283212542c9d4ee29ea86e8df53f8bf68aab951dbbfff9eafed",
          "blockNumber": "0x6b4787",
          "transactionHash": "0xa58fb229ebd125ddd33008dc7bab4fe05e259e93dfa812430f43dab6f25e852f",
          "transactionIndex": "0xb",
          "logIndex": "0xa",
          "removed": false
        }
      ],
      "status": "0x1",
      "logsBloom": "0x00000200000000000000000000020000000000000000000000000040000000000000000000008000000000000000000000000000000004000040020000200000000000010000000000000008080000000000000000000040001000000400000600000000100000000000000000000000400000000000000000000010400008002000000000000000000000020000000000008000000200000000000000000010020200800000000000000020000000021000000000000000000000000000000000800002000000024010000000000000000000200000000000800000000008000010000000010000000000030004000000000000001200000000010000000000",
      "type": "0x2",
      "effectiveGasPrice": "0x1cc2bc98f"
    }
  ],
  "libraries": [],
  "pending": [],
  "returns": {},
  "timestamp": 1730990107,
  "chain": 11155111,
  "multi": false,
  "commit": "e344443"
}