{
  "transactions": [
    {
      "hash": "0xfdb66d1a23ba746fa255e2f2413c98ae9bdd88f2a296fa524eff9657c7eb8483",
      "transactionType": "CALL",
      "contractName": null,
      "contractAddress": "0xca14007eff0db1f8135f4c25b34de49ab0d42766",
      "function": "approve(address,uint256)",
      "arguments": [
        "0xA5fF09d43E9f0572BC072b169d4a975768fe05BB",
        "115792089237316195423570985008687907853269984665640564039457584007913129639935"
      ],
      "transaction": {
        "from": "0xddb342ecc94236c29a5307d3757d0724d759453c",
        "to": "0xca14007eff0db1f8135f4c25b34de49ab0d42766",
        "gas": "0xff08",
        "value": "0x0",
        "input": "0x095ea7b3000000000000000000000000a5ff09d43e9f0572bc072b169d4a975768fe05bbffffffffffffffffffffffffffffffffffffffffffffffffffffffffffffffff",
        "nonce": "0x456",
        "chainId": "0xaa36a7"
      },
      "additionalContracts": [],
      "isFixedGasLimit": false
    },
    {
      "hash": "0xf20fbd0da13a2af8a9db214d693f9049d97d54771363020f8a78811ab9ef06af",
      "transactionType": "CALL",
      "contractName": null,
      "contractAddress": "0xa5ff09d43e9f0572bc072b169d4a975768fe05bb",
      "function": "depositAndCreateOrder((address,uint256,uint256,uint128,uint128,uint128,uint128))",
      "arguments": [
        "(0xDdb342ecc94236c29a5307d3757d0724D759453C, 2009894490435840142178314390393166646092438090257831307886760648929397478285, 2366254414417873771392932940469309727793822550615514268240785277201753657472, 170141183460469235273462165868118016, 1736164272, 1736164400, 700000000000000)"
      ],
      "transaction": {
        "from": "0xddb342ecc94236c29a5307d3757d0724d759453c",
        "to": "0xa5ff09d43e9f0572bc072b169d4a975768fe05bb",
        "gas": "0x466d0",
        "value": "0x1c6bf52634000",
        "input": "0x6c1cc3f4000000000000000000000000ddb342ecc94236c29a5307d3757d0724d759453c04718f5a0fc34cc1af16a1cdee98ffb20c31f5cd61d6ab07201858f4287c938d053b40a647cedfca6ca84f542a0fe36736031905a9639a7f19a3c1e66bfd5080000000000000000000000000000000000020c49ba5e353f8000000000000000000000000000000000000000000000000000000000000000000000000677bc3b000000000000000000000000000000000000000000000000000000000677bc43000000000000000000000000000000000000000000000000000027ca57357c000",
        "nonce": "0x457",
        "chainId": "0xaa36a7"
      },
      "additionalContracts": [],
      "isFixedGasLimit": false
    }
  ],
  "receipts": [
    {
      "status": "0x1",
      "cumulativeGasUsed": "0x11bae72",
      "logs": [
        {
          "address": "0xca14007eff0db1f8135f4c25b34de49ab0d42766",
          "topics": [
            "0x8c5be1e5ebec7d5bd14f71427d1e84f3dd0314c0f7b2291e5b200ac8c7c3b925",
            "0x000000000000000000000000ddb342ecc94236c29a5307d3757d0724d759453c",
            "0x000000000000000000000000a5ff09d43e9f0572bc072b169d4a975768fe05bb"
          ],
          "data": "0xffffffffffffffffffffffffffffffffffffffffffffffffffffffffffffffff",
          "blockHash": "0xf390016411796e121d3b64362e3b5875d887f40b307d0db72d28db1bd6b2cc38",
          "blockNumber": "0x716add",
          "transactionHash": "0xfdb66d1a23ba746fa255e2f2413c98ae9bdd88f2a296fa524eff9657c7eb8483",
          "transactionIndex": "0x6e",
          "logIndex": "0xcd",
          "removed": false
        }
      ],
      "logsBloom": "0x00000000000000000000000000000000000000000000000000000000000000000000000000000000000000000000000000000000000000000000000000200000000000000000000000000000000000000000000000000000000000000000000400000000000000000000000000000000400000000000000000000000400000000000000000000000000000000010000000000000000000000000000000000000020000000000000000000000000000000000000000000000000000000000000000000000000000020000000000000000000000000000000000800000000000000090000000000000000000000000000000000000001000000000000000001000",
      "type": "0x2",
      "transactionHash": "0xfdb66d1a23ba746fa255e2f2413c98ae9bdd88f2a296fa524eff9657c7eb8483",
      "transactionIndex": "0x6e",
      "blockHash": "0xf390016411796e121d3b64362e3b5875d887f40b307d0db72d28db1bd6b2cc38",
      "blockNumber": "0x716add",
      "gasUsed": "0xb8a4",
      "effectiveGasPrice": "0x5d77395e6",
      "from": "0xddb342ecc94236c29a5307d3757d0724d759453c",
      "to": "0xca14007eff0db1f8135f4c25b34de49ab0d42766",
      "contractAddress": null
    },
    {
      "status": "0x1",
      "cumulativeGasUsed": "0x11eb06d",
      "logs": [
        {
          "address": "0xca14007eff0db1f8135f4c25b34de49ab0d42766",
          "topics": [
            "0x8c5be1e5ebec7d5bd14f71427d1e84f3dd0314c0f7b2291e5b200ac8c7c3b925",
            "0x000000000000000000000000a5ff09d43e9f0572bc072b169d4a975768fe05bb",
            "0x000000000000000000000000a5ff09d43e9f0572bc072b169d4a975768fe05bb"
          ],
          "data": "0x00000000000000000000000000000000000000000000000000027ca57357c000",
          "blockHash": "0xf390016411796e121d3b64362e3b5875d887f40b307d0db72d28db1bd6b2cc38",
          "blockNumber": "0x716add",
          "transactionHash": "0xf20fbd0da13a2af8a9db214d693f9049d97d54771363020f8a78811ab9ef06af",
          "transactionIndex": "0x6f",
          "logIndex": "0xce",
          "removed": false
        },
        {
          "address": "0xca14007eff0db1f8135f4c25b34de49ab0d42766",
          "topics": [
            "0xddf252ad1be2c89b69c2b068fc378daa952ba7f163c4a11628f55a4df523b3ef",
            "0x000000000000000000000000ddb342ecc94236c29a5307d3757d0724d759453c",
            "0x000000000000000000000000a5ff09d43e9f0572bc072b169d4a975768fe05bb"
          ],
          "data": "0x00000000000000000000000000000000000000000000000000027ca57357c000",
          "blockHash": "0xf390016411796e121d3b64362e3b5875d887f40b307d0db72d28db1bd6b2cc38",
          "blockNumber": "0x716add",
          "transactionHash": "0xf20fbd0da13a2af8a9db214d693f9049d97d54771363020f8a78811ab9ef06af",
          "transactionIndex": "0x6f",
          "logIndex": "0xcf",
          "removed": false
        },
        {
          "address": "0xca14007eff0db1f8135f4c25b34de49ab0d42766",
          "topics": [
            "0x8c5be1e5ebec7d5bd14f71427d1e84f3dd0314c0f7b2291e5b200ac8c7c3b925",
            "0x000000000000000000000000a5ff09d43e9f0572bc072b169d4a975768fe05bb",
            "0x000000000000000000000000ce5485cfb26914c5dce00b9baf0580364dafc7a4"
          ],
          "data": "0x00000000000000000000000000000000000000000000000000027ca57357c000",
          "blockHash": "0xf390016411796e121d3b64362e3b5875d887f40b307d0db72d28db1bd6b2cc38",
          "blockNumber": "0x716add",
          "transactionHash": "0xf20fbd0da13a2af8a9db214d693f9049d97d54771363020f8a78811ab9ef06af",
          "transactionIndex": "0x6f",
          "logIndex": "0xd0",
          "removed": false
        },
        {
          "address": "0xca14007eff0db1f8135f4c25b34de49ab0d42766",
          "topics": [
            "0x8c5be1e5ebec7d5bd14f71427d1e84f3dd0314c0f7b2291e5b200ac8c7c3b925",
            "0x000000000000000000000000a5ff09d43e9f0572bc072b169d4a975768fe05bb",
            "0x000000000000000000000000ce5485cfb26914c5dce00b9baf0580364dafc7a4"
          ],
          "data": "0x0000000000000000000000000000000000000000000000000000000000000000",
          "blockHash": "0xf390016411796e121d3b64362e3b5875d887f40b307d0db72d28db1bd6b2cc38",
          "blockNumber": "0x716add",
          "transactionHash": "0xf20fbd0da13a2af8a9db214d693f9049d97d54771363020f8a78811ab9ef06af",
          "transactionIndex": "0x6f",
          "logIndex": "0xd1",
          "removed": false
        },
        {
          "address": "0xca14007eff0db1f8135f4c25b34de49ab0d42766",
          "topics": [
            "0xddf252ad1be2c89b69c2b068fc378daa952ba7f163c4a11628f55a4df523b3ef",
            "0x000000000000000000000000a5ff09d43e9f0572bc072b169d4a975768fe05bb",
            "0x000000000000000000000000ce5485cfb26914c5dce00b9baf0580364dafc7a4"
          ],
          "data": "0x00000000000000000000000000000000000000000000000000027ca57357c000",
          "blockHash": "0xf390016411796e121d3b64362e3b5875d887f40b307d0db72d28db1bd6b2cc38",
          "blockNumber": "0x716add",
          "transactionHash": "0xf20fbd0da13a2af8a9db214d693f9049d97d54771363020f8a78811ab9ef06af",
          "transactionIndex": "0x6f",
          "logIndex": "0xd2",
          "removed": false
        },
        {
          "address": "0xe2bb56ee936fd6433dc0f6e7e3b8365c906aa057",
          "topics": [
            "0xdb80dd488acf86d17c747445b0eabb5d57c541d3bd7b6b87af987858e5066b2b",
            "0x000000000000000000000000ce5485cfb26914c5dce00b9baf0580364dafc7a4",
            "0x0594c1582459ea03f77deaf9eb7e3917d6994a03c13405ba42867f83d85f085d",
            "0x008bce41827dd5484d80312a2e43bc42a896e3fcf75bf84c2b49339168dfa00a"
          ],
          "data": "0x00000000000000000000000000000000000000000000000000000000000000600000000000000000000000000000000000000000000000000000000000002b320000000000000000000000000000000000000000000000000001c6bf52634000000000000000000000000000000000000000000000000000000000000000000e000000000000000000000000ca14007eff0db1f8135f4c25b34de49ab0d42766000000000000000000000000a5ff09d43e9f0572bc072b169d4a975768fe05bb01faf6acdf200ef465ed828e948e626c1b063707810b4702e3197b8ac9eb132a00000000000000000000000000000000000000000000000000027ca57357c000000000000000000000000000000000000000000000000000000000000000000000000000000000000000000000000000000000000000000000000000000000080000000000000000000000000000000000000000000000000000000000000000000000000000000000000000ddb342ecc94236c29a5307d3757d0724d759453c04718f5a0fc34cc1af16a1cdee98ffb20c31f5cd61d6ab07201858f4287c938d053b40a647cedfca6ca84f542a0fe36736031905a9639a7f19a3c1e66bfd5080000000000000000000000000000000000020c49ba5e353f8000000000000000000000000000000000000000000000000000000000000000000000000677bc3b000000000000000000000000000000000000000000000000000000000677bc43000000000000000000000000000000000000000000000000000027ca57357c000",
          "blockHash": "0xf390016411796e121d3b64362e3b5875d887f40b307d0db72d28db1bd6b2cc38",
          "blockNumber": "0x716add",
          "transactionHash": "0xf20fbd0da13a2af8a9db214d693f9049d97d54771363020f8a78811ab9ef06af",
          "transactionIndex": "0x6f",
          "logIndex": "0xd3",
          "removed": false
        },
        {
          "address": "0xce5485cfb26914c5dce00b9baf0580364dafc7a4",
          "topics": [
            "0x2203a49c69f1a46c1164f5e4a30643dd77b7c59c0ff9bc433256048365c247f1",
            "0x000000000000000000000000a5ff09d43e9f0572bc072b169d4a975768fe05bb",
            "0x000000000000000000000000ca14007eff0db1f8135f4c25b34de49ab0d42766",
            "0x01faf6acdf200ef465ed828e948e626c1b063707810b4702e3197b8ac9eb132a"
          ],
          "data": "0x00000000000000000000000000000000000000000000000000027ca57357c00000000000000000000000000000000000000000000000000000000000000000800000000000000000000000000000000000000000000000000000000000002b320000000000000000000000000000000000000000000000000001c6bf5263400000000000000000000000000000000000000000000000000000000000000000080000000000000000000000000000000000000000000000000000000000000000000000000000000000000000ddb342ecc94236c29a5307d3757d0724d759453c04718f5a0fc34cc1af16a1cdee98ffb20c31f5cd61d6ab07201858f4287c938d053b40a647cedfca6ca84f542a0fe36736031905a9639a7f19a3c1e66bfd5080000000000000000000000000000000000020c49ba5e353f8000000000000000000000000000000000000000000000000000000000000000000000000677bc3b000000000000000000000000000000000000000000000000000000000677bc43000000000000000000000000000000000000000000000000000027ca57357c000",
          "blockHash": "0xf390016411796e121d3b64362e3b5875d887f40b307d0db72d28db1bd6b2cc38",
          "blockNumber": "0x716add",
          "transactionHash": "0xf20fbd0da13a2af8a9db214d693f9049d97d54771363020f8a78811ab9ef06af",
          "transactionIndex": "0x6f",
          "logIndex": "0xd4",
          "removed": false
        },
        {
          "address": "0xa5ff09d43e9f0572bc072b169d4a975768fe05bb",
          "topics": [
            "0xaf43445f7721522b7a3864ed3de53d7e2e658bfa1eeffa18e1e229be68ce2545",
            "0x000000000000000000000000ddb342ecc94236c29a5307d3757d0724d759453c",
            "0x01faf6acdf200ef465ed828e948e626c1b063707810b4702e3197b8ac9eb132a"
          ],
          "data": "0x00000000000000000000000000000000000000000000000000027ca57357c0000000000000000000000000000000000000000000000000000000000000000001",
          "blockHash": "0xf390016411796e121d3b64362e3b5875d887f40b307d0db72d28db1bd6b2cc38",
          "blockNumber": "0x716add",
          "transactionHash": "0xf20fbd0da13a2af8a9db214d693f9049d97d54771363020f8a78811ab9ef06af",
          "transactionIndex": "0x6f",
          "logIndex": "0xd5",
          "removed": false
        }
      ],
      "logsBloom": "0x0000020000000000000000000002000002000000000000000000044000000000000000000000000000000000000000000000000000000400000002000020000000000000000000000000000808000000000000000000004000100000000000060000000010000000000000000000000040000000000000000000001040000c002000000000000000000000020010000000008000000200000000000000000010020000800000000000000020000000021000000000000001000000000000000000800002000001024010000000000000000000200000000040800000000000000090000000010000000000020004000000000000001000000000000000001000",
      "type": "0x2",
      "transactionHash": "0xf20fbd0da13a2af8a9db214d693f9049d97d54771363020f8a78811ab9ef06af",
      "transactionIndex": "0x6f",
      "blockHash": "0xf390016411796e121d3b64362e3b5875d887f40b307d0db72d28db1bd6b2cc38",
      "blockNumber": "0x716add",
      "gasUsed": "0x301fb",
      "effectiveGasPrice": "0x5d77395e6",
      "from": "0xddb342ecc94236c29a5307d3757d0724d759453c",
      "to": "0xa5ff09d43e9f0572bc072b169d4a975768fe05bb",
      "contractAddress": null
    }
  ],
  "libraries": [],
  "pending": [],
  "returns": {},
  "timestamp": 1736164297,
  "chain": 11155111,
  "commit": "3ea534e"
}