{
  "transactions": [
    {
      "hash": "0x65f83e2e5b9ab0e01b5614bffe57e49695650c5b035fff1f458a290f30de3ab2",
      "transactionType": "CALL",
      "contractName": null,
      "contractAddress": "0xca14007eff0db1f8135f4c25b34de49ab0d42766",
      "function": "approve(address,uint256)",
      "arguments": [
        "0xcE5485Cfb26914C5dcE00B9BAF0580364daFC7a4",
        "115792089237316195423570985008687907853269984665640564039457584007913129639935"
      ],
      "transaction": {
        "from": "0xddb342ecc94236c29a5307d3757d0724d759453c",
        "to": "0xca14007eff0db1f8135f4c25b34de49ab0d42766",
        "gas": "0x93a9",
        "value": "0x0",
        "input": "0x095ea7b3000000000000000000000000ce5485cfb26914c5dce00b9baf0580364dafc7a4ffffffffffffffffffffffffffffffffffffffffffffffffffffffffffffffff",
        "nonce": "0x446",
        "chainId": "0xaa36a7"
      },
      "additionalContracts": [],
      "isFixedGasLimit": false
    },
    {
      "hash": "0xc2520e9a9c6e46f657bfddf52c86d4422cb9566189a302df39f7454e8e1b0897",
      "transactionType": "CALL",
      "contractName": null,
      "contractAddress": "0xce5485cfb26914c5dce00b9baf0580364dafc7a4",
      "function": "depositWithMessage(address,uint256,uint256,uint256[])",
      "arguments": [
        "0xCa14007Eff0dB1f8135f4C25B34De49AB0d42766",
        "700000000000000",
        "345751955439181436304245855405722208342534014448616746001669417917885503548",
        "[0, 1265684623727634235329190328445374361672779121980, 2009894490435840142178314390393166646092438090257831307886760648929397478285, 2366254414417873771392932940469309727793822550615514268240785277201753657472, 170141183460469235273462165868118016, 1736156464, 1736156592, 700000000000000]"
      ],
      "transaction": {
        "from": "0xddb342ecc94236c29a5307d3757d0724d759453c",
        "to": "0xce5485cfb26914c5dce00b9baf0580364dafc7a4",
        "gas": "0x2d960",
        "value": "0x1c6bf52634000",
        "input": "0xbe58b18e000000000000000000000000ca14007eff0db1f8135f4c25b34de49ab0d4276600000000000000000000000000000000000000000000000000027ca57357c00000c3b04ccc1a07133e05d2733694cdbbddd25fd405f0d3cbe9ddb8c7ff7cd83c000000000000000000000000000000000000000000000000000000000000008000000000000000000000000000000000000000000000000000000000000000080000000000000000000000000000000000000000000000000000000000000000000000000000000000000000ddb342ecc94236c29a5307d3757d0724d759453c04718f5a0fc34cc1af16a1cdee98ffb20c31f5cd61d6ab07201858f4287c938d053b40a647cedfca6ca84f542a0fe36736031905a9639a7f19a3c1e66bfd5080000000000000000000000000000000000020c49ba5e353f8000000000000000000000000000000000000000000000000000000000000000000000000677ba53000000000000000000000000000000000000000000000000000000000677ba5b000000000000000000000000000000000000000000000000000027ca57357c000",
        "nonce": "0x447",
        "chainId": "0xaa36a7"
      },
      "additionalContracts": [],
      "isFixedGasLimit": false
    }
  ],
  "receipts": [
    {
      "status": "0x1",
      "cumulativeGasUsed": "0xbc41a7",
      "logs": [
        {
          "address": "0xca14007eff0db1f8135f4c25b34de49ab0d42766",
          "topics": [
            "0x8c5be1e5ebec7d5bd14f71427d1e84f3dd0314c0f7b2291e5b200ac8c7c3b925",
            "0x000000000000000000000000ddb342ecc94236c29a5307d3757d0724d759453c",
            "0x000000000000000000000000ce5485cfb26914c5dce00b9baf0580364dafc7a4"
          ],
          "data": "0xffffffffffffffffffffffffffffffffffffffffffffffffffffffffffffffff",
          "blockHash": "0xd917defb23bc4199972bea56479230cf5cbf740231bb886f2a206b155f665f68",
          "blockNumber": "0x716878",
          "transactionHash": "0x65f83e2e5b9ab0e01b5614bffe57e49695650c5b035fff1f458a290f30de3ab2",
          "transactionIndex": "0x67",
          "logIndex": "0xa3",
          "removed": false
        }
      ],
      "logsBloom": "0x00000000000000000000000000000000000000000000000000000000000000000000000000000000000000000000000000000000000000000000000000200000000000000000000000000000000000000000000000000000000000000000000400000000000000000000000000000000400000000000000000000000400008000000000000000000000000000000000000000000000000000000000000000000020000000000000000000000000000001000000000000000000000000000000000000000000000020010000000000000000000000000000000800000000000000010000000000000000000000000000000000000001000000000000000000000",
      "type": "0x2",
      "transactionHash": "0x65f83e2e5b9ab0e01b5614bffe57e49695650c5b035fff1f458a290f30de3ab2",
      "transactionIndex": "0x67",
      "blockHash": "0xd917defb23bc4199972bea56479230cf5cbf740231bb886f2a206b155f665f68",
      "blockNumber": "0x716878",
      "gasUsed": "0x6ae8",
      "effectiveGasPrice": "0x664d92dcf",
      "from": "0xddb342ecc94236c29a5307d3757d0724d759453c",
      "to": "0xca14007eff0db1f8135f4c25b34de49ab0d42766",
      "contractAddress": null
    },
    {
      "status": "0x1",
      "cumulativeGasUsed": "0xbe51b6",
      "logs": [
        {
          "address": "0xca14007eff0db1f8135f4c25b34de49ab0d42766",
          "topics": [
            "0xddf252ad1be2c89b69c2b068fc378daa952ba7f163c4a11628f55a4df523b3ef",
            "0x000000000000000000000000ddb342ecc94236c29a5307d3757d0724d759453c",
            "0x000000000000000000000000ce5485cfb26914c5dce00b9baf0580364dafc7a4"
          ],
          "data": "0x00000000000000000000000000000000000000000000000000027ca57357c000",
          "blockHash": "0xd917defb23bc4199972bea56479230cf5cbf740231bb886f2a206b155f665f68",
          "blockNumber": "0x716878",
          "transactionHash": "0xc2520e9a9c6e46f657bfddf52c86d4422cb9566189a302df39f7454e8e1b0897",
          "transactionIndex": "0x68",
          "logIndex": "0xa4",
          "removed": false
        },
        {
          "address": "0xe2bb56ee936fd6433dc0f6e7e3b8365c906aa057",
          "topics": [
            "0xdb80dd488acf86d17c747445b0eabb5d57c541d3bd7b6b87af987858e5066b2b",
            "0x000000000000000000000000ce5485cfb26914c5dce00b9baf0580364dafc7a4",
            "0x0594c1582459ea03f77deaf9eb7e3917d6994a03c13405ba42867f83d85f085d",
            "0x008bce41827dd5484d80312a2e43bc42a896e3fcf75bf84c2b49339168dfa00a"
          ],
          "data": "0x00000000000000000000000000000000000000000000000000000000000000600000000000000000000000000000000000000000000000000000000000002b2c0000000000000000000000000000000000000000000000000001c6bf52634000000000000000000000000000000000000000000000000000000000000000000e000000000000000000000000ca14007eff0db1f8135f4c25b34de49ab0d42766000000000000000000000000ddb342ecc94236c29a5307d3757d0724d759453c00c3b04ccc1a07133e05d2733694cdbbddd25fd405f0d3cbe9ddb8c7ff7cd83c00000000000000000000000000000000000000000000000000027ca57357c000000000000000000000000000000000000000000000000000000000000000000000000000000000000000000000000000000000000000000000000000000000080000000000000000000000000000000000000000000000000000000000000000000000000000000000000000ddb342ecc94236c29a5307d3757d0724d759453c04718f5a0fc34cc1af16a1cdee98ffb20c31f5cd61d6ab07201858f4287c938d053b40a647cedfca6ca84f542a0fe36736031905a9639a7f19a3c1e66bfd5080000000000000000000000000000000000020c49ba5e353f8000000000000000000000000000000000000000000000000000000000000000000000000677ba53000000000000000000000000000000000000000000000000000000000677ba5b000000000000000000000000000000000000000000000000000027ca57357c000",
          "blockHash": "0xd917defb23bc4199972bea56479230cf5cbf740231bb886f2a206b155f665f68",
          "blockNumber": "0x716878",
          "transactionHash": "0xc2520e9a9c6e46f657bfddf52c86d4422cb9566189a302df39f7454e8e1b0897",
          "transactionIndex": "0x68",
          "logIndex": "0xa5",
          "removed": false
        },
        {
          "address": "0xce5485cfb26914c5dce00b9baf0580364dafc7a4",
          "topics": [
            "0x2203a49c69f1a46c1164f5e4a30643dd77b7c59c0ff9bc433256048365c247f1",
            "0x000000000000000000000000ddb342ecc94236c29a5307d3757d0724d759453c",
            "0x000000000000000000000000ca14007eff0db1f8135f4c25b34de49ab0d42766",
            "0x00c3b04ccc1a07133e05d2733694cdbbddd25fd405f0d3cbe9ddb8c7ff7cd83c"
          ],
          "data": "0x00000000000000000000000000000000000000000000000000027ca57357c00000000000000000000000000000000000000000000000000000000000000000800000000000000000000000000000000000000000000000000000000000002b2c0000000000000000000000000000000000000000000000000001c6bf5263400000000000000000000000000000000000000000000000000000000000000000080000000000000000000000000000000000000000000000000000000000000000000000000000000000000000ddb342ecc94236c29a5307d3757d0724d759453c04718f5a0fc34cc1af16a1cdee98ffb20c31f5cd61d6ab07201858f4287c938d053b40a647cedfca6ca84f542a0fe36736031905a9639a7f19a3c1e66bfd5080000000000000000000000000000000000020c49ba5e353f8000000000000000000000000000000000000000000000000000000000000000000000000677ba53000000000000000000000000000000000000000000000000000000000677ba5b000000000000000000000000000000000000000000000000000027ca57357c000",
          "blockHash": "0xd917defb23bc4199972bea56479230cf5cbf740231bb886f2a206b155f665f68",
          "blockNumber": "0x716878",
          "transactionHash": "0xc2520e9a9c6e46f657bfddf52c86d4422cb9566189a302df39f7454e8e1b0897",
          "transactionIndex": "0x68",
          "logIndex": "0xa6",
          "removed": false
        }
      ],
      "logsBloom": "0x00000000000000000000000000020000000000000000000000000040000008000000000000000100000000000000000000000000000004000000020000000000000000000000000000000008080000000000000000000040001000000000000400000000100000000000000000000000400000000000000000000010400008002000000000000000000000020000000000008000000200000000000000000010000000000000000000000020000000021000000000000000000000000000000000800002000000024010800000000000000000200000000000800000000000000000000000010000000000020004000000000000001000000000000000000000",
      "type": "0x2",
      "transactionHash": "0xc2520e9a9c6e46f657bfddf52c86d4422cb9566189a302df39f7454e8e1b0897",
      "transactionIndex": "0x68",
      "blockHash": "0xd917defb23bc4199972bea56479230cf5cbf740231bb886f2a206b155f665f68",
      "blockNumber": "0x716878",
      "gasUsed": "0x2100f",
      "effectiveGasPrice": "0x664d92dcf",
      "from": "0xddb342ecc94236c29a5307d3757d0724d759453c",
      "to": "0xce5485cfb26914c5dce00b9baf0580364dafc7a4",
      "contractAddress": null
    }
  ],
  "libraries": [],
  "pending": [],
  "returns": {},
  "timestamp": 1736156497,
  "chain": 11155111,
  "commit": "3ea534e"
}