{
  "transactions": [
    {
      "hash": "0x0538f9431d195e67f85734368aa1e9a8a2a34e7e975d6817dda5ff82a2d9e3c9",
      "transactionType": "CALL",
      "contractName": "FiatTokenProxy",
      "contractAddress": "0x1c7D4B196Cb0C7B01d743Fbc6116a902379C7238",
      "function": "approve(address,uint256)",
      "arguments": [
        "0xADDc4aa40570b7c45d57f3e4203F5a5135CD6c39",
        "115792089237316195423570985008687907853269984665640564039457584007913129639935"
      ],
      "transaction": {
        "type": "0x02",
        "from": "0xddb342ecc94236c29a5307d3757d0724d759453c",
        "to": "0x1c7d4b196cb0c7b01d743fbc6116a902379c7238",
        "gas": "0xc19d",
        "value": "0x0",
        "data": "0x095ea7b3000000000000000000000000addc4aa40570b7c45d57f3e4203f5a5135cd6c39ffffffffffffffffffffffffffffffffffffffffffffffffffffffffffffffff",
        "nonce": "0x1dd",
        "accessList": []
      },
      "additionalContracts": [],
      "isFixedGasLimit": false
    },
    {
      "hash": "0xa29dd980a06ed9948b6ea9fd8e3c77ada23b27d14e80292b6a96532c15c11e2c",
      "transactionType": "CALL",
      "contractName": "FiatTokenProxy",
      "contractAddress": "0x1c7D4B196Cb0C7B01d743Fbc6116a902379C7238",
      "function": "transfer(address,uint256)",
      "arguments": [
        "0xADDc4aa40570b7c45d57f3e4203F5a5135CD6c39",
        "100000"
      ],
      "transaction": {
        "type": "0x02",
        "from": "0xddb342ecc94236c29a5307d3757d0724d759453c",
        "to": "0x1c7d4b196cb0c7b01d743fbc6116a902379c7238",
        "gas": "0x1016a",
        "value": "0x0",
        "data": "0xa9059cbb000000000000000000000000addc4aa40570b7c45d57f3e4203f5a5135cd6c3900000000000000000000000000000000000000000000000000000000000186a0",
        "nonce": "0x1de",
        "accessList": []
      },
      "additionalContracts": [],
      "isFixedGasLimit": false
    },
    {
      "hash": "0x27c175e36b60b4928e3b550e320018c3c06b9a756fd8415aad0199f5fd04b09c",
      "transactionType": "CALL",
      "contractName": "L1TWAMMBridge",
      "contractAddress": "0xADDc4aa40570b7c45d57f3e4203F5a5135CD6c39",
      "function": "deposit(uint256,uint256)",
      "arguments": [
        "100000",
        "834389543886275815094376301029049503606351689021623334845040058375429691485"
      ],
      "transaction": {
        "type": "0x02",
        "from": "0xddb342ecc94236c29a5307d3757d0724d759453c",
        "to": "0xaddc4aa40570b7c45d57f3e4203f5a5135cd6c39",
        "gas": "0x307e6",
        "value": "0x2386f26fc10000",
        "data": "0xe2bbb15800000000000000000000000000000000000000000000000000000000000186a001d83f6c48536465fef0bd01400b78fcd97c3804e2a3edadf906badf6698185d",
        "nonce": "0x1df",
        "accessList": []
      },
      "additionalContracts": [],
      "isFixedGasLimit": false
    }
  ],
  "receipts": [
    {
      "transactionHash": "0x0538f9431d195e67f85734368aa1e9a8a2a34e7e975d6817dda5ff82a2d9e3c9",
      "transactionIndex": "0x12",
      "blockHash": "0x145835d3a1a8acddb6b35adec8782149cc4971504274666c2e6e6cfaf98a2c30",
      "blockNumber": "0x6b29c7",
      "from": "0xDdb342ecc94236c29a5307d3757d0724D759453C",
      "to": "0x1c7D4B196Cb0C7B01d743Fbc6116a902379C7238",
      "cumulativeGasUsed": "0x1c4554",
      "gasUsed": "0x8c2d",
      "contractAddress": null,
      "logs": [
        {
          "address": "0x1c7D4B196Cb0C7B01d743Fbc6116a902379C7238",
          "topics": [
            "0x8c5be1e5ebec7d5bd14f71427d1e84f3dd0314c0f7b2291e5b200ac8c7c3b925",
            "0x000000000000000000000000ddb342ecc94236c29a5307d3757d0724d759453c",
            "0x000000000000000000000000addc4aa40570b7c45d57f3e4203f5a5135cd6c39"
          ],
          "data": "0xffffffffffffffffffffffffffffffffffffffffffffffffffffffffffffffff",
          "blockHash": "0x145835d3a1a8acddb6b35adec8782149cc4971504274666c2e6e6cfaf98a2c30",
          "blockNumber": "0x6b29c7",
          "transactionHash": "0x0538f9431d195e67f85734368aa1e9a8a2a34e7e975d6817dda5ff82a2d9e3c9",
          "transactionIndex": "0x12",
          "logIndex": "0x39",
          "removed": false
        }
      ],
      "status": "0x1",
      "logsBloom": "0x00000000000000000000000000000000000000000000000000000000000200000000000000000000000000000000000000000000000000000000000000200000000000000000000000000000000000000000000000000000000000000000000400000000000000000000000000000000400000000000000000000000400000000000004000100000000000000000000000000000000000000000000000000000020100000000000000000000000000000000000000000000000000000000000000000000000000000000000000000000000000000000000000000000000000000010000000000000000810000000000000000000000000000000000000000000",
      "type": "0x2",
      "effectiveGasPrice": "0xd79c4ef72"
    },
    {
      "transactionHash": "0xa29dd980a06ed9948b6ea9fd8e3c77ada23b27d14e80292b6a96532c15c11e2c",
      "transactionIndex": "0x13",
      "blockHash": "0x145835d3a1a8acddb6b35adec8782149cc4971504274666c2e6e6cfaf98a2c30",
      "blockNumber": "0x6b29c7",
      "from": "0xDdb342ecc94236c29a5307d3757d0724D759453C",
      "to": "0x1c7D4B196Cb0C7B01d743Fbc6116a902379C7238",
      "cumulativeGasUsed": "0x1cf557",
      "gasUsed": "0xb003",
      "contractAddress": null,
      "logs": [
        {
          "address": "0x1c7D4B196Cb0C7B01d743Fbc6116a902379C7238",
          "topics": [
            "0xddf252ad1be2c89b69c2b068fc378daa952ba7f163c4a11628f55a4df523b3ef",
            "0x000000000000000000000000ddb342ecc94236c29a5307d3757d0724d759453c",
            "0x000000000000000000000000addc4aa40570b7c45d57f3e4203f5a5135cd6c39"
          ],
          "data": "0x00000000000000000000000000000000000000000000000000000000000186a0",
          "blockHash": "0x145835d3a1a8acddb6b35adec8782149cc4971504274666c2e6e6cfaf98a2c30",
          "blockNumber": "0x6b29c7",
          "transactionHash": "0xa29dd980a06ed9948b6ea9fd8e3c77ada23b27d14e80292b6a96532c15c11e2c",
          "transactionIndex": "0x13",
          "logIndex": "0x3a",
          "removed": false
        }
      ],
      "status": "0x1",
      "logsBloom": "0x00000000000000000000000000000000000000000000000000000000000200000000000000000000000000000000000000000000000000000000000000000000000000000000000000000008000000000000000000000000000000000000000400000000000000000000000000000000400000000000000000000010400000000000004000100000000000000000000000000000000000000000000000000000000100000000000000000000000000000000000000000000000000000000000000000002000000000000000000000000000000000000000000000000000000000000000000000000000810000000000000000000000000000000000000000000",
      "type": "0x2",
      "effectiveGasPrice": "0xd79c4ef72"
    },
    {
      "transactionHash": "0x27c175e36b60b4928e3b550e320018c3c06b9a756fd8415aad0199f5fd04b09c",
      "transactionIndex": "0xd",
      "blockHash": "0x250c1cd34f2cff43fa9dca759bec5393b2296bcf11ea49f4351aee4f8e81d531",
      "blockNumber": "0x6b29c8",
      "from": "0xDdb342ecc94236c29a5307d3757d0724D759453C",
      "to": "0xADDc4aa40570b7c45d57f3e4203F5a5135CD6c39",
      "cumulativeGasUsed": "0x4251ea",
      "gasUsed": "0x231be",
      "contractAddress": null,
      "logs": [
        {
          "address": "0x1c7D4B196Cb0C7B01d743Fbc6116a902379C7238",
          "topics": [
            "0x8c5be1e5ebec7d5bd14f71427d1e84f3dd0314c0f7b2291e5b200ac8c7c3b925",
            "0x000000000000000000000000addc4aa40570b7c45d57f3e4203f5a5135cd6c39",
            "0x00000000000000000000000086dc0b32a5045ffa48d9a60b7e7ca32f11facd7b"
          ],
          "data": "0x00000000000000000000000000000000000000000000000000000000000186a0",
          "blockHash": "0x250c1cd34f2cff43fa9dca759bec5393b2296bcf11ea49f4351aee4f8e81d531",
          "blockNumber": "0x6b29c8",
          "transactionHash": "0x27c175e36b60b4928e3b550e320018c3c06b9a756fd8415aad0199f5fd04b09c",
          "transactionIndex": "0xd",
          "logIndex": "0xa1",
          "removed": false
        },
        {
          "address": "0x1c7D4B196Cb0C7B01d743Fbc6116a902379C7238",
          "topics": [
            "0xddf252ad1be2c89b69c2b068fc378daa952ba7f163c4a11628f55a4df523b3ef",
            "0x000000000000000000000000addc4aa40570b7c45d57f3e4203f5a5135cd6c39",
            "0x00000000000000000000000086dc0b32a5045ffa48d9a60b7e7ca32f11facd7b"
          ],
          "data": "0x00000000000000000000000000000000000000000000000000000000000186a0",
          "blockHash": "0x250c1cd34f2cff43fa9dca759bec5393b2296bcf11ea49f4351aee4f8e81d531",
          "blockNumber": "0x6b29c8",
          "transactionHash": "0x27c175e36b60b4928e3b550e320018c3c06b9a756fd8415aad0199f5fd04b09c",
          "transactionIndex": "0xd",
          "logIndex": "0xa2",
          "removed": false
        },
        {
          "address": "0xE2Bb56ee936fd6433DC0F6e7e3b8365C906AA057",
          "topics": [
            "0xdb80dd488acf86d17c747445b0eabb5d57c541d3bd7b6b87af987858e5066b2b",
            "0x00000000000000000000000086dc0b32a5045ffa48d9a60b7e7ca32f11facd7b",
            "0x0028729b12ce1140cbc1e7cbc7245455d3c15fa0c7f5d2e9fc8e0441567f6b50",
            "0x01b64b1b3b690b43b9b514fb81377518f4039cd3e4f4914d8a6bdf01d679fb19"
          ],
          "data": "0x0000000000000000000000000000000000000000000000000000000000000060000000000000000000000000000000000000000000000000000000000000275d000000000000000000000000000000000000000000000000002386f26fc1000000000000000000000000000000000000000000000000000000000000000000050000000000000000000000001c7d4b196cb0c7b01d743fbc6116a902379c7238000000000000000000000000addc4aa40570b7c45d57f3e4203f5a5135cd6c3901d83f6c48536465fef0bd01400b78fcd97c3804e2a3edadf906badf6698185d00000000000000000000000000000000000000000000000000000000000186a00000000000000000000000000000000000000000000000000000000000000000",
          "blockHash": "0x250c1cd34f2cff43fa9dca759bec5393b2296bcf11ea49f4351aee4f8e81d531",
          "blockNumber": "0x6b29c8",
          "transactionHash": "0x27c175e36b60b4928e3b550e320018c3c06b9a756fd8415aad0199f5fd04b09c",
          "transactionIndex": "0xd",
          "logIndex": "0xa3",
          "removed": false
        },
        {
          "address": "0x86dC0B32a5045FFa48D9a60B7e7Ca32F11faCd7B",
          "topics": [
            "0x5f971bd00bf3ffbca8a6d72cdd4fd92cfd4f62636161921d1e5a64f0b64ccb6d",
            "0x000000000000000000000000addc4aa40570b7c45d57f3e4203f5a5135cd6c39",
            "0x0000000000000000000000001c7d4b196cb0c7b01d743fbc6116a902379c7238",
            "0x01d83f6c48536465fef0bd01400b78fcd97c3804e2a3edadf906badf6698185d"
          ],
          "data": "0x00000000000000000000000000000000000000000000000000000000000186a0000000000000000000000000000000000000000000000000000000000000275d000000000000000000000000000000000000000000000000002386f26fc10000",
          "blockHash": "0x250c1cd34f2cff43fa9dca759bec5393b2296bcf11ea49f4351aee4f8e81d531",
          "blockNumber": "0x6b29c8",
          "transactionHash": "0x27c175e36b60b4928e3b550e320018c3c06b9a756fd8415aad0199f5fd04b09c",
          "transactionIndex": "0xd",
          "logIndex": "0xa4",
          "removed": false
        }
      ],
      "status": "0x1",
      "logsBloom": "0x00000000000000000200000000020000000000000000000000000000000200400000000000000000000000000000000000000000000004000000400000200000100000000000000000000008000000000000000000000040001000000000000000000000100000000000000000000000000200000000000000000210000080000000004000102000000000000404000000000000000000000000020000000010020100000000000000000020000000001000008000000020000002000000000000000002000000000000000040000000000000000000000000000000000000000011088000000000000810000080000000000000000000000000000000000000",
      "type": "0x2",
      "effectiveGasPrice": "0xd0e5007aa"
    }
  ],
  "libraries": [],
  "pending": [],
  "returns": {},
  "timestamp": 1730890299,
  "chain": 11155111,
  "multi": false,
  "commit": "9e60aff"
}