{
  "transactions": [
    {
      "hash": "0xec54a0e87c139f006e31aba69904d2bdec65e2ebd0b047a5ae356b197056e08d",
      "transactionType": "CALL",
      "contractName": "StarkNetToken",
      "contractAddress": "0xCa14007Eff0dB1f8135f4C25B34De49AB0d42766",
      "function": "approve(address,uint256)",
      "arguments": [
        "0x7eb4C59eABE1234E8A6D02FdF4d1BB595C4702Cd",
        "115792089237316195423570985008687907853269984665640564039457584007913129639935"
      ],
      "transaction": {
        "type": "0x02",
        "from": "0xddb342ecc94236c29a5307d3757d0724d759453c",
        "to": "0xca14007eff0db1f8135f4c25b34de49ab0d42766",
        "gas": "0x93a9",
        "value": "0x0",
        "data": "0x095ea7b30000000000000000000000007eb4c59eabe1234e8a6d02fdf4d1bb595c4702cdffffffffffffffffffffffffffffffffffffffffffffffffffffffffffffffff",
        "nonce": "0x37f",
        "accessList": []
      },
      "additionalContracts": [],
      "isFixedGasLimit": false
    },
    {
      "hash": "0xcb1632561c817fed11dbe1f27bfc6891fab67fc963b69b1709ea1f4c91366ca0",
      "transactionType": "CALL",
      "contractName": null,
      "contractAddress": "0x7eb4C59eABE1234E8A6D02FdF4d1BB595C4702Cd",
      "function": "setL2EndpointAddress(uint256)",
      "arguments": [
        "2886128985683437260314295438681623917506770676252250034839361525468561404177"
      ],
      "transaction": {
        "type": "0x02",
        "from": "0xddb342ecc94236c29a5307d3757d0724d759453c",
        "to": "0x7eb4c59eabe1234e8a6d02fdf4d1bb595c4702cd",
        "gas": "0xabab",
        "value": "0x0",
        "data": "0x5155fb2f06617db9da8edf0a341c0bfa66a62785beb9febe8a215b52aab169594ed7f111",
        "nonce": "0x380",
        "accessList": []
      },
      "additionalContracts": [],
      "isFixedGasLimit": false
    }
  ],
  "receipts": [
    {
      "transactionHash": "0xec54a0e87c139f006e31aba69904d2bdec65e2ebd0b047a5ae356b197056e08d",
      "transactionIndex": "0x1",
      "blockHash": "0xdf61905bc67c53753c3e06f866023d77f757dd5deabcf7eef6ef8968b01c0cd9",
      "blockNumber": "0x6d3d45",
      "from": "0xDdb342ecc94236c29a5307d3757d0724D759453C",
      "to": "0xCa14007Eff0dB1f8135f4C25B34De49AB0d42766",
      "cumulativeGasUsed": "0xd68d",
      "gasUsed": "0x6ae8",
      "contractAddress": null,
      "logs": [
        {
          "address": "0xCa14007Eff0dB1f8135f4C25B34De49AB0d42766",
          "topics": [
            "0x8c5be1e5ebec7d5bd14f71427d1e84f3dd0314c0f7b2291e5b200ac8c7c3b925",
            "0x000000000000000000000000ddb342ecc94236c29a5307d3757d0724d759453c",
            "0x0000000000000000000000007eb4c59eabe1234e8a6d02fdf4d1bb595c4702cd"
          ],
          "data": "0xffffffffffffffffffffffffffffffffffffffffffffffffffffffffffffffff",
          "blockHash": "0xdf61905bc67c53753c3e06f866023d77f757dd5deabcf7eef6ef8968b01c0cd9",
          "blockNumber": "0x6d3d45",
          "transactionHash": "0xec54a0e87c139f006e31aba69904d2bdec65e2ebd0b047a5ae356b197056e08d",
          "transactionIndex": "0x1",
          "logIndex": "0x0",
          "removed": false
        }
      ],
      "status": "0x1",
      "logsBloom": "0x00000000000000100000000000000000000000000000000000000000000000000000000000000000000000000000000000000000000000000000000000200000000000000000000000000000000000000000000000000000000000000000000400020000000000000000000000000000400000000000000000000000400000000000000000000000000000000000000000000000000000000000000000000000020000000000000000000000000000008000000000000000000000000000000000000000000000020000000000000000000000000000000000800000000000000010000000000000000000000000000000000000001000000000000000000000",
      "type": "0x2",
      "effectiveGasPrice": "0xd2f31526"
    },
    {
      "transactionHash": "0xcb1632561c817fed11dbe1f27bfc6891fab67fc963b69b1709ea1f4c91366ca0",
      "transactionIndex": "0x2",
      "blockHash": "0xdf61905bc67c53753c3e06f866023d77f757dd5deabcf7eef6ef8968b01c0cd9",
      "blockNumber": "0x6d3d45",
      "from": "0xDdb342ecc94236c29a5307d3757d0724D759453C",
      "to": "0x7eb4C59eABE1234E8A6D02FdF4d1BB595C4702Cd",
      "cumulativeGasUsed": "0x14bef",
      "gasUsed": "0x7562",
      "contractAddress": null,
      "logs": [
        {
          "address": "0x7eb4C59eABE1234E8A6D02FdF4d1BB595C4702Cd",
          "topics": [
            "0xa35dce9e53611b0cabca886209c4a1d09c80214af9b6fb6027f7b2f7c39838e8"
          ],
          "data": "0x06617db9da8edf0a341c0bfa66a62785beb9febe8a215b52aab169594ed7f111",
          "blockHash": "0xdf61905bc67c53753c3e06f866023d77f757dd5deabcf7eef6ef8968b01c0cd9",
          "blockNumber": "0x6d3d45",
          "transactionHash": "0xcb1632561c817fed11dbe1f27bfc6891fab67fc963b69b1709ea1f4c91366ca0",
          "transactionIndex": "0x2",
          "logIndex": "0x1",
          "removed": false
        }
      ],
      "status": "0x1",
      "logsBloom": "0x00000000000000000000000010000000000000000000000000000000000000000000000000000000000000000000000000000000000000200000000000000000000000000000000000000000000200000000000000000000000000000000000000000000000000000000000000000000000000000000000000000001000000000000000000000000000000000000000000000000000000000000000000000000800000000000000000000000000000200000000000000000000000000000000000000000000000000000000000000000000000000000000000000000000000000000000000000000000000000000000000000000000000000000000000000000",
      "type": "0x2",
      "effectiveGasPrice": "0xd2f31526"
    }
  ],
  "libraries": [],
  "pending": [],
  "returns": {},
  "timestamp": 1732658161,
  "chain": 11155111,
  "multi": false,
  "commit": "1254ada"
}