{
  "transactions": [
    {
      "hash": "0xb44925b89228f065fb26961d6f0f68a2588ae459d7d702517ab3ae30bfe0b208",
      "transactionType": "CALL",
      "contractName": null,
      "contractAddress": "0xca14007eff0db1f8135f4c25b34de49ab0d42766",
      "function": "approve(address,uint256)",
      "arguments": [
        "0xeEaD9DC94aa25623aFDB6B04135C31FB58Ff09F1",
        "115792089237316195423570985008687907853269984665640564039457584007913129639935"
      ],
      "transaction": {
        "from": "0x1b382a7b4496f14e0aaa2da1e1626da400426a03",
        "to": "0xca14007eff0db1f8135f4c25b34de49ab0d42766",
        "gas": "0x93a9",
        "value": "0x0",
        "input": "0x095ea7b3000000000000000000000000eead9dc94aa25623afdb6b04135c31fb58ff09f1ffffffffffffffffffffffffffffffffffffffffffffffffffffffffffffffff",
        "nonce": "0x131",
        "chainId": "0xaa36a7"
      },
      "additionalContracts": [],
      "isFixedGasLimit": false
    },
    {
      "hash": "0x7a3441dcedc7a23fa76e8a344db99e8faf323753b56e21e0769f8884a2e1dd37",
      "transactionType": "CALL",
      "contractName": null,
      "contractAddress": "0xeead9dc94aa25623afdb6b04135c31fb58ff09f1",
      "function": "_sendMessage(uint256,uint256,uint256[])",
      "arguments": [
        "3259602240350311970645602134312331656320193105313558229419674373643512196801",
        "425952401605428413817582304755919420533935873840436977667370850915372091056",
        "[0, 0, 0, 0, 0, 0, 0, 0]"
      ],
      "transaction": {
        "from": "0x1b382a7b4496f14e0aaa2da1e1626da400426a03",
        "to": "0xeead9dc94aa25623afdb6b04135c31fb58ff09f1",
        "gas": "0x1b0a1",
        "value": "0x5af3107a4000",
        "input": "0x88f439ef0734de96c97a0faa920b16901a762f32c4637fb871c938d8fdf14d576f3a2ec100f1149cade9d692862ad41df96b108aa2c20af34f640457e781d166c98dc6b00000000000000000000000000000000000000000000000000000000000000060000000000000000000000000000000000000000000000000000000000000000800000000000000000000000000000000000000000000000000000000000000000000000000000000000000000000000000000000000000000000000000000000000000000000000000000000000000000000000000000000000000000000000000000000000000000000000000000000000000000000000000000000000000000000000000000000000000000000000000000000000000000000000000000000000000000000000000000000000000000000000000000000000000000000000000000000000000000000000000000000000000000000000000000000000000000000000000000000000000000000000000000000000000000000000000000000",
        "nonce": "0x132",
        "chainId": "0xaa36a7"
      },
      "additionalContracts": [],
      "isFixedGasLimit": false
    }
  ],
  "receipts": [
    {
      "status": "0x1",
      "cumulativeGasUsed": "0x46b76f",
      "logs": [
        {
          "address": "0xca14007eff0db1f8135f4c25b34de49ab0d42766",
          "topics": [
            "0x8c5be1e5ebec7d5bd14f71427d1e84f3dd0314c0f7b2291e5b200ac8c7c3b925",
            "0x0000000000000000000000001b382a7b4496f14e0aaa2da1e1626da400426a03",
            "0x000000000000000000000000eead9dc94aa25623afdb6b04135c31fb58ff09f1"
          ],
          "data": "0xffffffffffffffffffffffffffffffffffffffffffffffffffffffffffffffff",
          "blockHash": "0x4f7f621402b41cec1e32ac9c4c7df014404582e4318cb1af48dfc287f865bdae",
          "blockNumber": "0x6bb368",
          "transactionHash": "0xb44925b89228f065fb26961d6f0f68a2588ae459d7d702517ab3ae30bfe0b208",
          "transactionIndex": "0x36",
          "logIndex": "0x28",
          "removed": false
        }
      ],
      "logsBloom": "0x00000000000000000000000000000000000000000000000000000000000000000000000000000000000000000000000000000000000000000000000000200000000000000000000000000000000000000000000000000000000000000000000000000000000000000000000000000000000000000010000020000000000000040000000000000000000000000000000000000000000000000004000000000000020000000000000000000000000000000000100000000000000000000000000000000000000000020000000000000000000000000000000000800000000000000010000010000000000000000000000000000000001000000000000000000000",
      "type": "0x2",
      "transactionHash": "0xb44925b89228f065fb26961d6f0f68a2588ae459d7d702517ab3ae30bfe0b208",
      "transactionIndex": "0x36",
      "blockHash": "0x4f7f621402b41cec1e32ac9c4c7df014404582e4318cb1af48dfc287f865bdae",
      "blockNumber": "0x6bb368",
      "gasUsed": "0x6ae8",
      "effectiveGasPrice": "0x143a0e7c",
      "blobGasUsed": "0x0",
      "from": "0x1b382a7b4496f14e0aaa2da1e1626da400426a03",
      "to": "0xca14007eff0db1f8135f4c25b34de49ab0d42766",
      "contractAddress": null
    },
    {
      "status": "0x1",
      "cumulativeGasUsed": "0x524e87",
      "logs": [
        {
          "address": "0xe2bb56ee936fd6433dc0f6e7e3b8365c906aa057",
          "topics": [
            "0xdb80dd488acf86d17c747445b0eabb5d57c541d3bd7b6b87af987858e5066b2b",
            "0x000000000000000000000000eead9dc94aa25623afdb6b04135c31fb58ff09f1",
            "0x0734de96c97a0faa920b16901a762f32c4637fb871c938d8fdf14d576f3a2ec1",
            "0x00f1149cade9d692862ad41df96b108aa2c20af34f640457e781d166c98dc6b0"
          ],
          "data": "0x000000000000000000000000000000000000000000000000000000000000006000000000000000000000000000000000000000000000000000000000000027fa00000000000000000000000000000000000000000000000000005af3107a4000000000000000000000000000000000000000000000000000000000000000000800000000000000000000000000000000000000000000000000000000000000000000000000000000000000000000000000000000000000000000000000000000000000000000000000000000000000000000000000000000000000000000000000000000000000000000000000000000000000000000000000000000000000000000000000000000000000000000000000000000000000000000000000000000000000000000000000000000000000000000000000000000000000000000000000000000000000000000000000000000000000000000000000000000000000000000000000000000000000000000000000000000000000000000000000000000",
          "blockHash": "0x4f7f621402b41cec1e32ac9c4c7df014404582e4318cb1af48dfc287f865bdae",
          "blockNumber": "0x6bb368",
          "transactionHash": "0x7a3441dcedc7a23fa76e8a344db99e8faf323753b56e21e0769f8884a2e1dd37",
          "transactionIndex": "0x39",
          "logIndex": "0x2f",
          "removed": false
        }
      ],
      "logsBloom": "0x00400000000000000000000000020000000000080000000000000000000000000000000000000000000000000000000000000000000000000000000000000000000000000000000000000000000000000000000000000040001000000000000000000000100000010000000000000000000000000000000000000000002000000000000000000000000000000000000004000000000000000004000000000010000000000000000000000020000000000000180000000000000000000000000000000000000000000000000000000000000000000000000000000000000000000000000010000000000000000000000000000000000000000000000000000000",
      "type": "0x2",
      "transactionHash": "0x7a3441dcedc7a23fa76e8a344db99e8faf323753b56e21e0769f8884a2e1dd37",
      "transactionIndex": "0x39",
      "blockHash": "0x4f7f621402b41cec1e32ac9c4c7df014404582e4318cb1af48dfc287f865bdae",
      "blockNumber": "0x6bb368",
      "gasUsed": "0x127d1",
      "effectiveGasPrice": "0x143a0e7c",
      "blobGasUsed": "0x0",
      "from": "0x1b382a7b4496f14e0aaa2da1e1626da400426a03",
      "to": "0xeead9dc94aa25623afdb6b04135c31fb58ff09f1",
      "contractAddress": null
    }
  ],
  "libraries": [],
  "pending": [],
  "returns": {},
  "timestamp": 1731367481,
  "chain": 11155111,
  "commit": "a5302c4"
}