{
  "transactions": [
    {
      "hash": "0xe6e0049cc1406df3421147e90fd8f930165dd167f9ba99a9fd1646e58a04ebb1",
      "transactionType": "CALL",
      "contractName": "StarkNetToken",
      "contractAddress": "0xCa14007Eff0dB1f8135f4C25B34De49AB0d42766",
      "function": "approve(address,uint256)",
      "arguments": [
        "0x7256eDF31b165EA502cd3718726dD0aa6f543b12",
        "115792089237316195423570985008687907853269984665640564039457584007913129639935"
      ],
      "transaction": {
        "type": "0x02",
        "from": "0xddb342ecc94236c29a5307d3757d0724d759453c",
        "to": "0xca14007eff0db1f8135f4c25b34de49ab0d42766",
        "gas": "0x93a9",
        "value": "0x0",
        "data": "0x095ea7b30000000000000000000000007256edf31b165ea502cd3718726dd0aa6f543b12ffffffffffffffffffffffffffffffffffffffffffffffffffffffffffffffff",
        "nonce": "0x3d2",
        "accessList": []
      },
      "additionalContracts": [],
      "isFixedGasLimit": false
    },
    {
      "hash": "0x8bb891e5de52f4f74fe909d46cf6db8725c44f8825b34a07b25c33881f1342f8",
      "transactionType": "CALL",
      "contractName": null,
      "contractAddress": "0x7256eDF31b165EA502cd3718726dD0aa6f543b12",
      "function": "initiateWithdrawal(uint256,address)",
      "arguments": [
        "500000000000000",
        "0x1c7D4B196Cb0C7B01d743Fbc6116a902379C7238"
      ],
      "transaction": {
        "type": "0x02",
        "from": "0xddb342ecc94236c29a5307d3757d0724d759453c",
        "to": "0x7256edf31b165ea502cd3718726dd0aa6f543b12",
        "gas": "0x1b98b",
        "value": "0x1c6bf52634000",
        "data": "0x544381270000000000000000000000000000000000000000000000000001c6bf526340000000000000000000000000001c7d4b196cb0c7b01d743fbc6116a902379c7238",
        "nonce": "0x3d3",
        "accessList": []
      },
      "additionalContracts": [],
      "isFixedGasLimit": false
    }
  ],
  "receipts": [
    {
      "transactionHash": "0xe6e0049cc1406df3421147e90fd8f930165dd167f9ba99a9fd1646e58a04ebb1",
      "transactionIndex": "0x2",
      "blockHash": "0xcc1fe4ecaa309802a7d09b91649711c86e0764858d4f3c8fdfc2304d057c413a",
      "blockNumber": "0x6e249d",
      "from": "0xDdb342ecc94236c29a5307d3757d0724D759453C",
      "to": "0xCa14007Eff0dB1f8135f4C25B34De49AB0d42766",
      "cumulativeGasUsed": "0x2f6f2",
      "gasUsed": "0x6ae8",
      "contractAddress": null,
      "logs": [
        {
          "address": "0xCa14007Eff0dB1f8135f4C25B34De49AB0d42766",
          "topics": [
            "0x8c5be1e5ebec7d5bd14f71427d1e84f3dd0314c0f7b2291e5b200ac8c7c3b925",
            "0x000000000000000000000000ddb342ecc94236c29a5307d3757d0724d759453c",
            "0x0000000000000000000000007256edf31b165ea502cd3718726dd0aa6f543b12"
          ],
          "data": "0xffffffffffffffffffffffffffffffffffffffffffffffffffffffffffffffff",
          "blockHash": "0xcc1fe4ecaa309802a7d09b91649711c86e0764858d4f3c8fdfc2304d057c413a",
          "blockNumber": "0x6e249d",
          "transactionHash": "0xe6e0049cc1406df3421147e90fd8f930165dd167f9ba99a9fd1646e58a04ebb1",
          "transactionIndex": "0x2",
          "logIndex": "0x2",
          "removed": false
        }
      ],
      "status": "0x1",
      "logsBloom": "0x00000008000000000000000000000000000000000000000000000000000000000000000000000000000000000000000000000000000000000000000000200000000000000000000000000000000000000000000000000000000000000000000400000000000000000000000000000000400000000000000000000000400000000000000000000000000000000000000000002000000000000000000000000000020000000000000000000000000000000000000000000000000000000000000004000000000000020000000000000000000000000000000000800000000000000010000000000000000000000000000000000000001000000000000000000000",
      "type": "0x2",
      "effectiveGasPrice": "0xe3e8cfb6"
    },
    {
      "transactionHash": "0x8bb891e5de52f4f74fe909d46cf6db8725c44f8825b34a07b25c33881f1342f8",
      "transactionIndex": "0x3",
      "blockHash": "0xcc1fe4ecaa309802a7d09b91649711c86e0764858d4f3c8fdfc2304d057c413a",
      "blockNumber": "0x6e249d",
      "from": "0xDdb342ecc94236c29a5307d3757d0724D759453C",
      "to": "0x7256eDF31b165EA502cd3718726dD0aa6f543b12",
      "cumulativeGasUsed": "0x424db",
      "gasUsed": "0x12de9",
      "contractAddress": null,
      "logs": [
        {
          "address": "0xE2Bb56ee936fd6433DC0F6e7e3b8365C906AA057",
          "topics": [
            "0xdb80dd488acf86d17c747445b0eabb5d57c541d3bd7b6b87af987858e5066b2b",
            "0x0000000000000000000000007256edf31b165ea502cd3718726dd0aa6f543b12",
            "0x000941d1412d360843361e6321f3317452f07a3fbaaca6058ff02be368182abe",
            "0x00f1149cade9d692862ad41df96b108aa2c20af34f640457e781d166c98dc6b0"
          ],
          "data": "0x000000000000000000000000000000000000000000000000000000000000006000000000000000000000000000000000000000000000000000000000000029bd0000000000000000000000000000000000000000000000000001c6bf5263400000000000000000000000000000000000000000000000000000000000000000080000000000000000000000000000000000000000000000000000000000000002000000000000000000000000ddb342ecc94236c29a5307d3757d0724d759453c00000000000000000000000000000000000000000000000000000000000000000000000000000000000000001c7d4b196cb0c7b01d743fbc6116a902379c72380000000000000000000000000000000000000000000000000000000000000000000000000000000000000000000000000000000000000000000000000000000000000000000000000000000000000000000000000000000000000000000000000000000000000000000000000000000000000000000000000001c6bf52634000",
          "blockHash": "0xcc1fe4ecaa309802a7d09b91649711c86e0764858d4f3c8fdfc2304d057c413a",
          "blockNumber": "0x6e249d",
          "transactionHash": "0x8bb891e5de52f4f74fe909d46cf6db8725c44f8825b34a07b25c33881f1342f8",
          "transactionIndex": "0x3",
          "logIndex": "0x3",
          "removed": false
        },
        {
          "address": "0x7256eDF31b165EA502cd3718726dD0aa6f543b12",
          "topics": [
            "0x6d92f7d3303f995bf21956bb0c51b388bae348eaf45c23debd2cfa3fcd9ec646",
            "0x000000000000000000000000ddb342ecc94236c29a5307d3757d0724d759453c"
          ],
          "data": "0x0000000000000000000000000000000000000000000000000001c6bf52634000",
          "blockHash": "0xcc1fe4ecaa309802a7d09b91649711c86e0764858d4f3c8fdfc2304d057c413a",
          "blockNumber": "0x6e249d",
          "transactionHash": "0x8bb891e5de52f4f74fe909d46cf6db8725c44f8825b34a07b25c33881f1342f8",
          "transactionIndex": "0x3",
          "logIndex": "0x4",
          "removed": false
        }
      ],
      "status": "0x1",
      "logsBloom": "0x00400008000000000000000000020000000000000000000000000000000000000000000000000000000000000004000000000000000002000000000000000000000000000800000000000000000000000000000000000040001000000000000400000000100000010000000000000000400000000000000000000000400000000000000000000000000000000000010004002000000000000000000000800010000000000000000040000020000000000000000000000000000000000000000004000000000000000000000000000000000000000000000000000800000000000000001000000000000000000000000000000000000000000000004000000000",
      "type": "0x2",
      "effectiveGasPrice": "0xe3e8cfb6"
    }
  ],
  "libraries": [],
  "pending": [],
  "returns": {},
  "timestamp": 1733426837,
  "chain": 11155111,
  "multi": false,
  "commit": "0c80a24"
}