{
  "transactions": [
    {
      "hash": "0x87e224c7acf4c45796e4a45fb85ab85fef791bc2b6e3861a6765a348cc6100ef",
      "transactionType": "CALL",
      "contractName": null,
      "contractAddress": "0xca14007eff0db1f8135f4c25b34de49ab0d42766",
      "function": "approve(address,uint256)",
      "arguments": [
        "0x67B7A14745F14C253Beb5d44b767ef1BFB916253",
        "115792089237316195423570985008687907853269984665640564039457584007913129639935"
      ],
      "transaction": {
        "from": "0xddb342ecc94236c29a5307d3757d0724d759453c",
        "to": "0xca14007eff0db1f8135f4c25b34de49ab0d42766",
        "gas": "0xff08",
        "value": "0x0",
        "input": "0x095ea7b300000000000000000000000067b7a14745f14c253beb5d44b767ef1bfb916253ffffffffffffffffffffffffffffffffffffffffffffffffffffffffffffffff",
        "nonce": "0x534",
        "chainId": "0xaa36a7"
      },
      "additionalContracts": [],
      "isFixedGasLimit": false
    },
    {
      "hash": "0x4eec06e606dd2d7e18238c6fe64bd4371984580d6484e1fb4b31e16d08079276",
      "transactionType": "CALL",
      "contractName": null,
      "contractAddress": "0x67b7a14745f14c253beb5d44b767ef1bfb916253",
      "function": "depositAndCreateOrder((address,uint256,uint256,uint128,uint128,uint128,uint128))",
      "arguments": [
        "(0xDdb342ecc94236c29a5307d3757d0724D759453C, 2009894490435840142178314390393166646092438090257831307886760648929397478285, 2366254414417873771392932940469309727793822550615514268240785277201753657472, 170141183460469235273462165868118016, 1737477904, 1737478032, 500000000000000)"
      ],
      "transaction": {
        "from": "0xddb342ecc94236c29a5307d3757d0724d759453c",
        "to": "0x67b7a14745f14c253beb5d44b767ef1bfb916253",
        "gas": "0x427dc",
        "value": "0x1c6bf52634000",
        "input": "0x6c1cc3f4000000000000000000000000ddb342ecc94236c29a5307d3757d0724d759453c04718f5a0fc34cc1af16a1cdee98ffb20c31f5cd61d6ab07201858f4287c938d053b40a647cedfca6ca84f542a0fe36736031905a9639a7f19a3c1e66bfd5080000000000000000000000000000000000020c49ba5e353f8000000000000000000000000000000000000000000000000000000000000000000000000678fcf1000000000000000000000000000000000000000000000000000000000678fcf900000000000000000000000000000000000000000000000000001c6bf52634000",
        "nonce": "0x535",
        "chainId": "0xaa36a7"
      },
      "additionalContracts": [],
      "isFixedGasLimit": false
    }
  ],
  "receipts": [
    {
      "status": "0x1",
      "cumulativeGasUsed": "0x1935a7e",
      "logs": [
        {
          "address": "0xca14007eff0db1f8135f4c25b34de49ab0d42766",
          "topics": [
            "0x8c5be1e5ebec7d5bd14f71427d1e84f3dd0314c0f7b2291e5b200ac8c7c3b925",
            "0x000000000000000000000000ddb342ecc94236c29a5307d3757d0724d759453c",
            "0x00000000000000000000000067b7a14745f14c253beb5d44b767ef1bfb916253"
          ],
          "data": "0xffffffffffffffffffffffffffffffffffffffffffffffffffffffffffffffff",
          "blockHash": "0xa20a92c90f5558754283ad4e0b0b03285e138c9a396f45ed7de6d99a5b7d5abc",
          "blockNumber": "0x73118e",
          "transactionHash": "0x87e224c7acf4c45796e4a45fb85ab85fef791bc2b6e3861a6765a348cc6100ef",
          "transactionIndex": "0x77",
          "logIndex": "0x104",
          "removed": false
        }
      ],
      "logsBloom": "0x00000000010000000000000000000000000000000000000000000000000000000000000000000000000000000002000000000000000004000000000000200000000000000000000000000000000000000000000000000000000000000000000400000000000000000000000000000000400000000000000000000000400000000000000000000000000000000000000000000000000000000000000000000000020000000000000000000000000000000000000000000000000000000000000000000000000000020000000000000000000000000000000000800000000000000010000000000000000000000000000000000000001000000000000000000000",
      "type": "0x2",
      "transactionHash": "0x87e224c7acf4c45796e4a45fb85ab85fef791bc2b6e3861a6765a348cc6100ef",
      "transactionIndex": "0x77",
      "blockHash": "0xa20a92c90f5558754283ad4e0b0b03285e138c9a396f45ed7de6d99a5b7d5abc",
      "blockNumber": "0x73118e",
      "gasUsed": "0xb8a4",
      "effectiveGasPrice": "0xe966e96f",
      "from": "0xddb342ecc94236c29a5307d3757d0724d759453c",
      "to": "0xca14007eff0db1f8135f4c25b34de49ab0d42766",
      "contractAddress": null
    },
    {
      "status": "0x1",
      "cumulativeGasUsed": "0x1965cb6",
      "logs": [
        {
          "address": "0xca14007eff0db1f8135f4c25b34de49ab0d42766",
          "topics": [
            "0x8c5be1e5ebec7d5bd14f71427d1e84f3dd0314c0f7b2291e5b200ac8c7c3b925",
            "0x00000000000000000000000067b7a14745f14c253beb5d44b767ef1bfb916253",
            "0x00000000000000000000000067b7a14745f14c253beb5d44b767ef1bfb916253"
          ],
          "data": "0x0000000000000000000000000000000000000000000000000001c6bf52634000",
          "blockHash": "0xa20a92c90f5558754283ad4e0b0b03285e138c9a396f45ed7de6d99a5b7d5abc",
          "blockNumber": "0x73118e",
          "transactionHash": "0x4eec06e606dd2d7e18238c6fe64bd4371984580d6484e1fb4b31e16d08079276",
          "transactionIndex": "0x78",
          "logIndex": "0x105",
          "removed": false
        },
        {
          "address": "0xca14007eff0db1f8135f4c25b34de49ab0d42766",
          "topics": [
            "0xddf252ad1be2c89b69c2b068fc378daa952ba7f163c4a11628f55a4df523b3ef",
            "0x000000000000000000000000ddb342ecc94236c29a5307d3757d0724d759453c",
            "0x00000000000000000000000067b7a14745f14c253beb5d44b767ef1bfb916253"
          ],
          "data": "0x0000000000000000000000000000000000000000000000000001c6bf52634000",
          "blockHash": "0xa20a92c90f5558754283ad4e0b0b03285e138c9a396f45ed7de6d99a5b7d5abc",
          "blockNumber": "0x73118e",
          "transactionHash": "0x4eec06e606dd2d7e18238c6fe64bd4371984580d6484e1fb4b31e16d08079276",
          "transactionIndex": "0x78",
          "logIndex": "0x106",
          "removed": false
        },
        {
          "address": "0xca14007eff0db1f8135f4c25b34de49ab0d42766",
          "topics": [
            "0x8c5be1e5ebec7d5bd14f71427d1e84f3dd0314c0f7b2291e5b200ac8c7c3b925",
            "0x00000000000000000000000067b7a14745f14c253beb5d44b767ef1bfb916253",
            "0x000000000000000000000000ce5485cfb26914c5dce00b9baf0580364dafc7a4"
          ],
          "data": "0x0000000000000000000000000000000000000000000000000001c6bf52634000",
          "blockHash": "0xa20a92c90f5558754283ad4e0b0b03285e138c9a396f45ed7de6d99a5b7d5abc",
          "blockNumber": "0x73118e",
          "transactionHash": "0x4eec06e606dd2d7e18238c6fe64bd4371984580d6484e1fb4b31e16d08079276",
          "transactionIndex": "0x78",
          "logIndex": "0x107",
          "removed": false
        },
        {
          "address": "0xca14007eff0db1f8135f4c25b34de49ab0d42766",
          "topics": [
            "0x8c5be1e5ebec7d5bd14f71427d1e84f3dd0314c0f7b2291e5b200ac8c7c3b925",
            "0x00000000000000000000000067b7a14745f14c253beb5d44b767ef1bfb916253",
            "0x000000000000000000000000ce5485cfb26914c5dce00b9baf0580364dafc7a4"
          ],
          "data": "0x0000000000000000000000000000000000000000000000000000000000000000",
          "blockHash": "0xa20a92c90f5558754283ad4e0b0b03285e138c9a396f45ed7de6d99a5b7d5abc",
          "blockNumber": "0x73118e",
          "transactionHash": "0x4eec06e606dd2d7e18238c6fe64bd4371984580d6484e1fb4b31e16d08079276",
          "transactionIndex": "0x78",
          "logIndex": "0x108",
          "removed": false
        },
        {
          "address": "0xca14007eff0db1f8135f4c25b34de49ab0d42766",
          "topics": [
            "0xddf252ad1be2c89b69c2b068fc378daa952ba7f163c4a11628f55a4df523b3ef",
            "0x00000000000000000000000067b7a14745f14c253beb5d44b767ef1bfb916253",
            "0x000000000000000000000000ce5485cfb26914c5dce00b9baf0580364dafc7a4"
          ],
          "data": "0x0000000000000000000000000000000000000000000000000001c6bf52634000",
          "blockHash": "0xa20a92c90f5558754283ad4e0b0b03285e138c9a396f45ed7de6d99a5b7d5abc",
          "blockNumber": "0x73118e",
          "transactionHash": "0x4eec06e606dd2d7e18238c6fe64bd4371984580d6484e1fb4b31e16d08079276",
          "transactionIndex": "0x78",
          "logIndex": "0x109",
          "removed": false
        },
        {
          "address": "0xe2bb56ee936fd6433dc0f6e7e3b8365c906aa057",
          "topics": [
            "0xdb80dd488acf86d17c747445b0eabb5d57c541d3bd7b6b87af987858e5066b2b",
            "0x000000000000000000000000ce5485cfb26914c5dce00b9baf0580364dafc7a4",
            "0x0594c1582459ea03f77deaf9eb7e3917d6994a03c13405ba42867f83d85f085d",
            "0x008bce41827dd5484d80312a2e43bc42a896e3fcf75bf84c2b49339168dfa00a"
          ],
          "data": "0x00000000000000000000000000000000000000000000000000000000000000600000000000000000000000000000000000000000000000000000000000002c8f0000000000000000000000000000000000000000000000000001c6bf52634000000000000000000000000000000000000000000000000000000000000000000e000000000000000000000000ca14007eff0db1f8135f4c25b34de49ab0d4276600000000000000000000000067b7a14745f14c253beb5d44b767ef1bfb91625305384d7aa25d47c73d60f2ee889af6b337544c534b05d8560578c06f01db55bd0000000000000000000000000000000000000000000000000001c6bf52634000000000000000000000000000000000000000000000000000000000000000000000000000000000000000000000000000000000000000000000000000000000080000000000000000000000000000000000000000000000000000000000000000000000000000000000000000ddb342ecc94236c29a5307d3757d0724d759453c04718f5a0fc34cc1af16a1cdee98ffb20c31f5cd61d6ab07201858f4287c938d053b40a647cedfca6ca84f542a0fe36736031905a9639a7f19a3c1e66bfd5080000000000000000000000000000000000020c49ba5e353f8000000000000000000000000000000000000000000000000000000000000000000000000678fcf1000000000000000000000000000000000000000000000000000000000678fcf900000000000000000000000000000000000000000000000000001c6bf52634000",
          "blockHash": "0xa20a92c90f5558754283ad4e0b0b03285e138c9a396f45ed7de6d99a5b7d5abc",
          "blockNumber": "0x73118e",
          "transactionHash": "0x4eec06e606dd2d7e18238c6fe64bd4371984580d6484e1fb4b31e16d08079276",
          "transactionIndex": "0x78",
          "logIndex": "0x10a",
          "removed": false
        },
        {
          "address": "0xce5485cfb26914c5dce00b9baf0580364dafc7a4",
          "topics": [
            "0x2203a49c69f1a46c1164f5e4a30643dd77b7c59c0ff9bc433256048365c247f1",
            "0x00000000000000000000000067b7a14745f14c253beb5d44b767ef1bfb916253",
            "0x000000000000000000000000ca14007eff0db1f8135f4c25b34de49ab0d42766",
            "0x05384d7aa25d47c73d60f2ee889af6b337544c534b05d8560578c06f01db55bd"
          ],
          "data": "0x0000000000000000000000000000000000000000000000000001c6bf5263400000000000000000000000000000000000000000000000000000000000000000800000000000000000000000000000000000000000000000000000000000002c8f0000000000000000000000000000000000000000000000000001c6bf5263400000000000000000000000000000000000000000000000000000000000000000080000000000000000000000000000000000000000000000000000000000000000000000000000000000000000ddb342ecc94236c29a5307d3757d0724d759453c04718f5a0fc34cc1af16a1cdee98ffb20c31f5cd61d6ab07201858f4287c938d053b40a647cedfca6ca84f542a0fe36736031905a9639a7f19a3c1e66bfd5080000000000000000000000000000000000020c49ba5e353f8000000000000000000000000000000000000000000000000000000000000000000000000678fcf1000000000000000000000000000000000000000000000000000000000678fcf900000000000000000000000000000000000000000000000000001c6bf52634000",
          "blockHash": "0xa20a92c90f5558754283ad4e0b0b03285e138c9a396f45ed7de6d99a5b7d5abc",
          "blockNumber": "0x73118e",
          "transactionHash": "0x4eec06e606dd2d7e18238c6fe64bd4371984580d6484e1fb4b31e16d08079276",
          "transactionIndex": "0x78",
          "logIndex": "0x10b",
          "removed": false
        },
        {
          "address": "0x67b7a14745f14c253beb5d44b767ef1bfb916253",
          "topics": [
            "0xaf43445f7721522b7a3864ed3de53d7e2e658bfa1eeffa18e1e229be68ce2545",
            "0x000000000000000000000000ddb342ecc94236c29a5307d3757d0724d759453c",
            "0x05384d7aa25d47c73d60f2ee889af6b337544c534b05d8560578c06f01db55bd"
          ],
          "data": "0x0000000000000000000000000000000000000000000000000001c6bf526340000000000000000000000000000000000000000000000000000000000000000001",
          "blockHash": "0xa20a92c90f5558754283ad4e0b0b03285e138c9a396f45ed7de6d99a5b7d5abc",
          "blockNumber": "0x73118e",
          "transactionHash": "0x4eec06e606dd2d7e18238c6fe64bd4371984580d6484e1fb4b31e16d08079276",
          "transactionIndex": "0x78",
          "logIndex": "0x10c",
          "removed": false
        }
      ],
      "logsBloom": "0x00000202810000000000000000020000000000000000000000000040000000000000000000000000000000000002000000000000000004000000020000200000000000000000000000000008080000000000000000000040001000000000000600000000100000000000000000000000400000000000000000000010400008002000000000000000000000020000000000008000000200000000000000000010020000800000000000000020000000021000000000000000000000000000000000800002000008024010000000000000000000200000000000800000000000000010000000010000000000020004008000000010001000080000000000000000",
      "type": "0x2",
      "transactionHash": "0x4eec06e606dd2d7e18238c6fe64bd4371984580d6484e1fb4b31e16d08079276",
      "transactionIndex": "0x78",
      "blockHash": "0xa20a92c90f5558754283ad4e0b0b03285e138c9a396f45ed7de6d99a5b7d5abc",
      "blockNumber": "0x73118e",
      "gasUsed": "0x30238",
      "effectiveGasPrice": "0xe966e96f",
      "from": "0xddb342ecc94236c29a5307d3757d0724d759453c",
      "to": "0x67b7a14745f14c253beb5d44b767ef1bfb916253",
      "contractAddress": null
    }
  ],
  "libraries": [],
  "pending": [],
  "returns": {},
  "timestamp": 1737477950,
  "chain": 11155111,
  "commit": "fcbff6b"
}