{
  "transactions": [
    {
      "hash": "0x2bf5770951a7200800972bbbb2cec2f66761ff782ff363676a4551eadd59202f",
      "transactionType": "CALL",
      "contractName": "Proxy",
      "contractAddress": "0xE2Bb56ee936fd6433DC0F6e7e3b8365C906AA057",
      "function": "sendMessageToL2(uint256,uint256,uint256[])",
      "arguments": [
        "670480297538169057437347445413454523455254844930047652078303647114824175019",
        "425952401605428413817582304755919420533935873840436977667370850915372091056",
        "[2, 1265684623727634235329190328445374361672779121980, 0, 162645876805862407557836451532389263558424949304, 0, 0, 0, 50000000000000000, 1613553031957232432120143202400887878434836332722537805011348850121881864968]"
      ],
      "transaction": {
        "type": "0x02",
        "from": "0xddb342ecc94236c29a5307d3757d0724d759453c",
        "to": "0xe2bb56ee936fd6433dc0f6e7e3b8365c906aa057",
        "gas": "0x1745b",
        "value": "0x38d7ea4c68000",
        "data": "0x3e3aa6c5017b7a786f788b022067f7ed23d6183c3ee6cb2d4e463e1835821a2b8f22cdab00f1149cade9d692862ad41df96b108aa2c20af34f640457e781d166c98dc6b0000000000000000000000000000000000000000000000000000000000000006000000000000000000000000000000000000000000000000000000000000000090000000000000000000000000000000000000000000000000000000000000002000000000000000000000000ddb342ecc94236c29a5307d3757d0724d759453c00000000000000000000000000000000000000000000000000000000000000000000000000000000000000001c7d4b196cb0c7b01d743fbc6116a902379c723800000000000000000000000000000000000000000000000000000000000000000000000000000000000000000000000000000000000000000000000000000000000000000000000000000000000000000000000000000000000000000000000000000000000000000000000000000000000000000000000000b1a2bc2ec5000003913d184e537671dfeca3f67015bb845f2d12a26e5ec56bdc495913b20acb08",
        "nonce": "0x333",
        "accessList": []
      },
      "additionalContracts": [],
      "isFixedGasLimit": false
    }
  ],
  "receipts": [
    {
      "transactionHash": "0x2bf5770951a7200800972bbbb2cec2f66761ff782ff363676a4551eadd59202f",
      "transactionIndex": "0xe",
      "blockHash": "0x407e441f9db5bce952cad4f851dcbdf0b37ced045d41491dcca504d6442b4579",
      "blockNumber": "0x6c2a3e",
      "from": "0xDdb342ecc94236c29a5307d3757d0724D759453C",
      "to": "0xE2Bb56ee936fd6433DC0F6e7e3b8365C906AA057",
      "cumulativeGasUsed": "0x11a2e3",
      "gasUsed": "0xfe9b",
      "contractAddress": null,
      "logs": [
        {
          "address": "0xE2Bb56ee936fd6433DC0F6e7e3b8365C906AA057",
          "topics": [
            "0xdb80dd488acf86d17c747445b0eabb5d57c541d3bd7b6b87af987858e5066b2b",
            "0x000000000000000000000000ddb342ecc94236c29a5307d3757d0724d759453c",
            "0x017b7a786f788b022067f7ed23d6183c3ee6cb2d4e463e1835821a2b8f22cdab",
            "0x00f1149cade9d692862ad41df96b108aa2c20af34f640457e781d166c98dc6b0"
          ],
          "data": "0x0000000000000000000000000000000000000000000000000000000000000060000000000000000000000000000000000000000000000000000000000000289700000000000000000000000000000000000000000000000000038d7ea4c6800000000000000000000000000000000000000000000000000000000000000000090000000000000000000000000000000000000000000000000000000000000002000000000000000000000000ddb342ecc94236c29a5307d3757d0724d759453c00000000000000000000000000000000000000000000000000000000000000000000000000000000000000001c7d4b196cb0c7b01d743fbc6116a902379c723800000000000000000000000000000000000000000000000000000000000000000000000000000000000000000000000000000000000000000000000000000000000000000000000000000000000000000000000000000000000000000000000000000000000000000000000000000000000000000000000000b1a2bc2ec5000003913d184e537671dfeca3f67015bb845f2d12a26e5ec56bdc495913b20acb08",
          "blockHash": "0x407e441f9db5bce952cad4f851dcbdf0b37ced045d41491dcca504d6442b4579",
          "blockNumber": "0x6c2a3e",
          "transactionHash": "0x2bf5770951a7200800972bbbb2cec2f66761ff782ff363676a4551eadd59202f",
          "transactionIndex": "0xe",
          "logIndex": "0x13",
          "removed": false
        }
      ],
      "status": "0x1",
      "logsBloom": "0x00400000000000000000000000020000000000000000000000000000000000000000000000000000000000100000000000000000000000000000000000000000000000000000000000000000000000000000000000000040001000000000000400000000100000010000000000000000400000000000000000000000400000000000000000000000000000000000000004000000000000000000000000000010000000000000000000000020000000000000000000000000000000000000000000000000000000000000000000000000000000000000000000000000000000000008000000000000000000000000000400000000000000000000000000000000",
      "type": "0x2",
      "effectiveGasPrice": "0xd69316f0"
    }
  ],
  "libraries": [],
  "pending": [],
  "returns": {},
  "timestamp": 1731759427,
  "chain": 11155111,
  "multi": false,
  "commit": "945f7f2"
}