{
  "transactions": [
    {
      "hash": "0x6494ce2b17cbe34af8a5f43312efd9019cec114b20d67a405c798aacc8b96c66",
      "transactionType": "CALL",
      "contractName": "StarkNetToken",
      "contractAddress": "0xCa14007Eff0dB1f8135f4C25B34De49AB0d42766",
      "function": "approve(address,uint256)",
      "arguments": [
        "0x7eb4C59eABE1234E8A6D02FdF4d1BB595C4702Cd",
        "115792089237316195423570985008687907853269984665640564039457584007913129639935"
      ],
      "transaction": {
        "type": "0x02",
        "from": "0xddb342ecc94236c29a5307d3757d0724d759453c",
        "to": "0xca14007eff0db1f8135f4c25b34de49ab0d42766",
        "gas": "0x93a9",
        "value": "0x0",
        "data": "0x095ea7b30000000000000000000000007eb4c59eabe1234e8a6d02fdf4d1bb595c4702cdffffffffffffffffffffffffffffffffffffffffffffffffffffffffffffffff",
        "nonce": "0x36a",
        "accessList": []
      },
      "additionalContracts": [],
      "isFixedGasLimit": false
    },
    {
      "hash": "0x20ca0b75fbdcb5723b39bdd9eba8e551a0b88dfd0841e40f76c032895783fc14",
      "transactionType": "CALL",
      "contractName": null,
      "contractAddress": "0x7eb4C59eABE1234E8A6D02FdF4d1BB595C4702Cd",
      "function": "setL2EndpointAddress(uint256)",
      "arguments": [
        "1302990203855312861076927237332903100413718131952783847631303276509141977183"
      ],
      "transaction": {
        "type": "0x02",
        "from": "0xddb342ecc94236c29a5307d3757d0724d759453c",
        "to": "0x7eb4c59eabe1234e8a6d02fdf4d1bb595c4702cd",
        "gas": "0xabab",
        "value": "0x0",
        "data": "0x5155fb2f02e17760c8c4fd8b47c0f59d6b9979fdf26ff59dad1db5c422b79fe6edfcc85f",
        "nonce": "0x36b",
        "accessList": []
      },
      "additionalContracts": [],
      "isFixedGasLimit": false
    }
  ],
  "receipts": [
    {
      "transactionHash": "0x6494ce2b17cbe34af8a5f43312efd9019cec114b20d67a405c798aacc8b96c66",
      "transactionIndex": "0x3",
      "blockHash": "0x44cd91ff5e031dc55c085afb4d81400d566c0bf8ba4ae72238b910620e04476c",
      "blockNumber": "0x6d369d",
      "from": "0xDdb342ecc94236c29a5307d3757d0724D759453C",
      "to": "0xCa14007Eff0dB1f8135f4C25B34De49AB0d42766",
      "cumulativeGasUsed": "0x39504",
      "gasUsed": "0x6ae8",
      "contractAddress": null,
      "logs": [
        {
          "address": "0xCa14007Eff0dB1f8135f4C25B34De49AB0d42766",
          "topics": [
            "0x8c5be1e5ebec7d5bd14f71427d1e84f3dd0314c0f7b2291e5b200ac8c7c3b925",
            "0x000000000000000000000000ddb342ecc94236c29a5307d3757d0724d759453c",
            "0x0000000000000000000000007eb4c59eabe1234e8a6d02fdf4d1bb595c4702cd"
          ],
          "data": "0xffffffffffffffffffffffffffffffffffffffffffffffffffffffffffffffff",
          "blockHash": "0x44cd91ff5e031dc55c085afb4d81400d566c0bf8ba4ae72238b910620e04476c",
          "blockNumber": "0x6d369d",
          "transactionHash": "0x6494ce2b17cbe34af8a5f43312efd9019cec114b20d67a405c798aacc8b96c66",
          "transactionIndex": "0x3",
          "logIndex": "0x2",
          "removed": false
        }
      ],
      "status": "0x1",
      "logsBloom": "0x00000000000000100000000000000000000000000000000000000000000000000000000000000000000000000000000000000000000000000000000000200000000000000000000000000000000000000000000000000000000000000000000400020000000000000000000000000000400000000000000000000000400000000000000000000000000000000000000000000000000000000000000000000000020000000000000000000000000000008000000000000000000000000000000000000000000000020000000000000000000000000000000000800000000000000010000000000000000000000000000000000000001000000000000000000000",
      "type": "0x2",
      "effectiveGasPrice": "0x215877428"
    },
    {
      "transactionHash": "0x20ca0b75fbdcb5723b39bdd9eba8e551a0b88dfd0841e40f76c032895783fc14",
      "transactionIndex": "0x4",
      "blockHash": "0x44cd91ff5e031dc55c085afb4d81400d566c0bf8ba4ae72238b910620e04476c",
      "blockNumber": "0x6d369d",
      "from": "0xDdb342ecc94236c29a5307d3757d0724D759453C",
      "to": "0x7eb4C59eABE1234E8A6D02FdF4d1BB595C4702Cd",
      "cumulativeGasUsed": "0x40a66",
      "gasUsed": "0x7562",
      "contractAddress": null,
      "logs": [
        {
          "address": "0x7eb4C59eABE1234E8A6D02FdF4d1BB595C4702Cd",
          "topics": [
            "0xa35dce9e53611b0cabca886209c4a1d09c80214af9b6fb6027f7b2f7c39838e8"
          ],
          "data": "0x02e17760c8c4fd8b47c0f59d6b9979fdf26ff59dad1db5c422b79fe6edfcc85f",
          "blockHash": "0x44cd91ff5e031dc55c085afb4d81400d566c0bf8ba4ae72238b910620e04476c",
          "blockNumber": "0x6d369d",
          "transactionHash": "0x20ca0b75fbdcb5723b39bdd9eba8e551a0b88dfd0841e40f76c032895783fc14",
          "transactionIndex": "0x4",
          "logIndex": "0x3",
          "removed": false
        }
      ],
      "status": "0x1",
      "logsBloom": "0x00000000000000000000000010000000000000000000000000000000000000000000000000000000000000000000000000000000000000200000000000000000000000000000000000000000000200000000000000000000000000000000000000000000000000000000000000000000000000000000000000000001000000000000000000000000000000000000000000000000000000000000000000000000800000000000000000000000000000200000000000000000000000000000000000000000000000000000000000000000000000000000000000000000000000000000000000000000000000000000000000000000000000000000000000000000",
      "type": "0x2",
      "effectiveGasPrice": "0x215877428"
    }
  ],
  "libraries": [],
  "pending": [],
  "returns": {},
  "timestamp": 1732636505,
  "chain": 11155111,
  "multi": false,
  "commit": "1254ada"
}