{
  "transactions": [
    {
      "hash": "0x8cb9dbaa2b61a2663df19336d707eadd46eaa42b33ad9aeeabb2c0362b362b3c",
      "transactionType": "CALL",
      "contractName": null,
      "contractAddress": "0xca14007eff0db1f8135f4c25b34de49ab0d42766",
      "function": "approve(address,uint256)",
      "arguments": [
        "0x67B7A14745F14C253Beb5d44b767ef1BFB916253",
        "115792089237316195423570985008687907853269984665640564039457584007913129639935"
      ],
      "transaction": {
        "from": "0xddb342ecc94236c29a5307d3757d0724d759453c",
        "to": "0xca14007eff0db1f8135f4c25b34de49ab0d42766",
        "gas": "0x93a9",
        "value": "0x0",
        "input": "0x095ea7b300000000000000000000000067b7a14745f14c253beb5d44b767ef1bfb916253ffffffffffffffffffffffffffffffffffffffffffffffffffffffffffffffff",
        "nonce": "0x540",
        "chainId": "0xaa36a7"
      },
      "additionalContracts": [],
      "isFixedGasLimit": false
    },
    {
      "hash": "0x826a5c281d33624da72306b7c4b554cb3352d67a8a874d59e6dcaa6b9a61c67f",
      "transactionType": "CALL",
      "contractName": null,
      "contractAddress": "0x67b7a14745f14c253beb5d44b767ef1bfb916253",
      "function": "setL2EndpointAddress(uint256)",
      "arguments": [
        "317992109532605666088532397923801128619695735836428311754951062151174980006"
      ],
      "transaction": {
        "from": "0xddb342ecc94236c29a5307d3757d0724d759453c",
        "to": "0x67b7a14745f14c253beb5d44b767ef1bfb916253",
        "gas": "0xabb8",
        "value": "0x0",
        "input": "0x5155fb2f00b3fa26e2af15dda3690ff437257057ad524115b00182928b60d213d50281a6",
        "nonce": "0x541",
        "chainId": "0xaa36a7"
      },
      "additionalContracts": [],
      "isFixedGasLimit": false
    }
  ],
  "receipts": [
    {
      "status": "0x1",
      "cumulativeGasUsed": "0x108a715",
      "logs": [
        {
          "address": "0xca14007eff0db1f8135f4c25b34de49ab0d42766",
          "topics": [
            "0x8c5be1e5ebec7d5bd14f71427d1e84f3dd0314c0f7b2291e5b200ac8c7c3b925",
            "0x000000000000000000000000ddb342ecc94236c29a5307d3757d0724d759453c",
            "0x00000000000000000000000067b7a14745f14c253beb5d44b767ef1bfb916253"
          ],
          "data": "0xffffffffffffffffffffffffffffffffffffffffffffffffffffffffffffffff",
          "blockHash": "0x4db60207fe6e60d9d938e502f78f33be30c90969a10f89a4371fae71f0cef25a",
          "blockNumber": "0x7320c6",
          "transactionHash": "0x8cb9dbaa2b61a2663df19336d707eadd46eaa42b33ad9aeeabb2c0362b362b3c",
          "transactionIndex": "0x8d",
          "logIndex": "0x136",
          "removed": false
        }
      ],
      "logsBloom": "0x00000000010000000000000000000000000000000000000000000000000000000000000000000000000000000002000000000000000004000000000000200000000000000000000000000000000000000000000000000000000000000000000400000000000000000000000000000000400000000000000000000000400000000000000000000000000000000000000000000000000000000000000000000000020000000000000000000000000000000000000000000000000000000000000000000000000000020000000000000000000000000000000000800000000000000010000000000000000000000000000000000000001000000000000000000000",
      "type": "0x2",
      "transactionHash": "0x8cb9dbaa2b61a2663df19336d707eadd46eaa42b33ad9aeeabb2c0362b362b3c",
      "transactionIndex": "0x8d",
      "blockHash": "0x4db60207fe6e60d9d938e502f78f33be30c90969a10f89a4371fae71f0cef25a",
      "blockNumber": "0x7320c6",
      "gasUsed": "0x6ae8",
      "effectiveGasPrice": "0x45372626",
      "from": "0xddb342ecc94236c29a5307d3757d0724d759453c",
      "to": "0xca14007eff0db1f8135f4c25b34de49ab0d42766",
      "contractAddress": null
    },
    {
      "status": "0x1",
      "cumulativeGasUsed": "0x1091c80",
      "logs": [
        {
          "address": "0x67b7a14745f14c253beb5d44b767ef1bfb916253",
          "topics": [
            "0xa35dce9e53611b0cabca886209c4a1d09c80214af9b6fb6027f7b2f7c39838e8"
          ],
          "data": "0x00b3fa26e2af15dda3690ff437257057ad524115b00182928b60d213d50281a6",
          "blockHash": "0x4db60207fe6e60d9d938e502f78f33be30c90969a10f89a4371fae71f0cef25a",
          "blockNumber": "0x7320c6",
          "transactionHash": "0x826a5c281d33624da72306b7c4b554cb3352d67a8a874d59e6dcaa6b9a61c67f",
          "transactionIndex": "0x8e",
          "logIndex": "0x137",
          "removed": false
        }
      ],
      "logsBloom": "0x00000000800000000000000010000000000000000000000000000000000000000000000000000000000000000000000000000000000000000000000000000000000000000000000000000000000200000000000000000000000000000000000000000000000000000000000000000000000000000000000000000000000000000000000000000000000000000000000000000000000000000000000000000000800000000000000000000000000000000000000000000000000000000000000000000000000008000000000000000000000000000000000000000000000000000000000000000000000000000000000000000010000000000000000000000000",
      "type": "0x2",
      "transactionHash": "0x826a5c281d33624da72306b7c4b554cb3352d67a8a874d59e6dcaa6b9a61c67f",
      "transactionIndex": "0x8e",
      "blockHash": "0x4db60207fe6e60d9d938e502f78f33be30c90969a10f89a4371fae71f0cef25a",
      "blockNumber": "0x7320c6",
      "gasUsed": "0x756b",
      "effectiveGasPrice": "0x45372626",
      "from": "0xddb342ecc94236c29a5307d3757d0724d759453c",
      "to": "0x67b7a14745f14c253beb5d44b767ef1bfb916253",
      "contractAddress": null
    }
  ],
  "libraries": [],
  "pending": [],
  "returns": {},
  "timestamp": 1737524785,
  "chain": 11155111,
  "commit": "fcbff6b"
}