{
  "transactions": [
    {
      "hash": "0x225af6b8a380307bf601f7c9b6a8dc2d48ad8d042a463288115f6b1ae8500cc7",
      "transactionType": "CALL",
      "contractName": "StarkNetToken",
      "contractAddress": "0xCa14007Eff0dB1f8135f4C25B34De49AB0d42766",
      "function": "approve(address,uint256)",
      "arguments": [
        "0x0Ed0e15f0D7362b95A7F4441FCBfb948b63FD61b",
        "115792089237316195423570985008687907853269984665640564039457584007913129639935"
      ],
      "transaction": {
        "type": "0x02",
        "from": "0xddb342ecc94236c29a5307d3757d0724d759453c",
        "to": "0xca14007eff0db1f8135f4c25b34de49ab0d42766",
        "gas": "0x93a9",
        "value": "0x0",
        "data": "0x095ea7b30000000000000000000000000ed0e15f0d7362b95a7f4441fcbfb948b63fd61bffffffffffffffffffffffffffffffffffffffffffffffffffffffffffffffff",
        "nonce": "0x3b2",
        "accessList": []
      },
      "additionalContracts": [],
      "isFixedGasLimit": false
    },
    {
      "hash": "0xb981eed26c3038a57e1d5d940b640fea8751f27eeef248117caf964d75468409",
      "transactionType": "CALL",
      "contractName": null,
      "contractAddress": "0x0Ed0e15f0D7362b95A7F4441FCBfb948b63FD61b",
      "function": "setL2EndpointAddress(uint256)",
      "arguments": [
        "617799478189829161022164413953132065880027155424823591051003479268659305061"
      ],
      "transaction": {
        "type": "0x02",
        "from": "0xddb342ecc94236c29a5307d3757d0724d759453c",
        "to": "0x0ed0e15f0d7362b95a7f4441fcbfb948b63fd61b",
        "gas": "0xabab",
        "value": "0x0",
        "data": "0x5155fb2f015da9803e7252cea729da23bf18f83c7d6d608cfc4bff24e9acb72b3fd01a65",
        "nonce": "0x3b3",
        "accessList": []
      },
      "additionalContracts": [],
      "isFixedGasLimit": false
    }
  ],
  "receipts": [],
  "libraries": [],
  "pending": [
    "0x225af6b8a380307bf601f7c9b6a8dc2d48ad8d042a463288115f6b1ae8500cc7",
    "0xb981eed26c3038a57e1d5d940b640fea8751f27eeef248117caf964d75468409"
  ],
  "returns": {},
  "timestamp": 1733195443,
  "chain": 11155111,
  "multi": false,
  "commit": "67ce98f"
}