{
  "transactions": [
    {
      "hash": "0xef94695d528856939ac5f1f4c20ab85efdad7bc9c820225ee6b37ca3443d36a9",
      "transactionType": "CALL",
      "contractName": null,
      "contractAddress": "0xca14007eff0db1f8135f4c25b34de49ab0d42766",
      "function": "approve(address,uint256)",
      "arguments": [
        "0xCfF560487550C16e86f8e350A11ca0938e50a7B6",
        "115792089237316195423570985008687907853269984665640564039457584007913129639935"
      ],
      "transaction": {
        "from": "0x1b382a7b4496f14e0aaa2da1e1626da400426a03",
        "to": "0xca14007eff0db1f8135f4c25b34de49ab0d42766",
        "gas": "0x93a9",
        "value": "0x0",
        "input": "0x095ea7b3000000000000000000000000cff560487550c16e86f8e350a11ca0938e50a7b6ffffffffffffffffffffffffffffffffffffffffffffffffffffffffffffffff",
        "nonce": "0xdd",
        "chainId": "0xaa36a7"
      },
      "additionalContracts": [],
      "isFixedGasLimit": false
    },
    {
      "hash": "0x1a6198fdbc340abeb9b22e407ecb8a88125e6f1f6064967550a40e0345e8de72",
      "transactionType": "CALL",
      "contractName": null,
      "contractAddress": "0xca14007eff0db1f8135f4c25b34de49ab0d42766",
      "function": "transfer(address,uint256)",
      "arguments": [
        "0xCfF560487550C16e86f8e350A11ca0938e50a7B6",
        "10000000000000000"
      ],
      "transaction": {
        "from": "0x1b382a7b4496f14e0aaa2da1e1626da400426a03",
        "to": "0xca14007eff0db1f8135f4c25b34de49ab0d42766",
        "gas": "0xd76a",
        "value": "0x0",
        "input": "0xa9059cbb000000000000000000000000cff560487550c16e86f8e350a11ca0938e50a7b6000000000000000000000000000000000000000000000000002386f26fc10000",
        "nonce": "0xde",
        "chainId": "0xaa36a7"
      },
      "additionalContracts": [],
      "isFixedGasLimit": false
    },
    {
      "hash": "0xcd9085c6cdebd2d257dba45605015539d54786fd680f982c301ee56aa03b93c1",
      "transactionType": "CALL",
      "contractName": null,
      "contractAddress": "0xcff560487550c16e86f8e350a11ca0938e50a7b6",
      "function": "depositAndCreateOrder((address,uint256,uint256,uint128,uint128,uint128,uint128,uint256))",
      "arguments": [
        "(0x1B382A7b4496F14e0AAA2DA1E1626Da400426A03, 2009894490435840142178314390393166646092438090257831307886760648929397478285, 2366254414417873771392932940469309727793822550615514268240785277201753657472, 0, 1730933520, 1730933584, 10000000000000000, 330440499925559345275239878224073676414287754235236409736554229990928467395)"
      ],
      "transaction": {
        "from": "0x1b382a7b4496f14e0aaa2da1e1626da400426a03",
        "to": "0xcff560487550c16e86f8e350a11ca0938e50a7b6",
        "gas": "0x3ab67",
        "value": "0x2386f26fc10000",
        "input": "0x5ce510fa0000000000000000000000001b382a7b4496f14e0aaa2da1e1626da400426a0304718f5a0fc34cc1af16a1cdee98ffb20c31f5cd61d6ab07201858f4287c938d053b40a647cedfca6ca84f542a0fe36736031905a9639a7f19a3c1e66bfd5080000000000000000000000000000000000000000000000000000000000000000000000000000000000000000000000000000000000000000000000000672bf31000000000000000000000000000000000000000000000000000000000672bf350000000000000000000000000000000000000000000000000002386f26fc1000000bb05cf58fc62ed2cb385383216c6a349ba1e6713c84ac7d5c103df5648c5c3",
        "nonce": "0xdf",
        "chainId": "0xaa36a7"
      },
      "additionalContracts": [],
      "isFixedGasLimit": false
    }
  ],
  "receipts": [
    {
      "status": "0x1",
      "cumulativeGasUsed": "0x816566",
      "logs": [
        {
          "address": "0xca14007eff0db1f8135f4c25b34de49ab0d42766",
          "topics": [
            "0x8c5be1e5ebec7d5bd14f71427d1e84f3dd0314c0f7b2291e5b200ac8c7c3b925",
            "0x0000000000000000000000001b382a7b4496f14e0aaa2da1e1626da400426a03",
            "0x000000000000000000000000cff560487550c16e86f8e350a11ca0938e50a7b6"
          ],
          "data": "0xffffffffffffffffffffffffffffffffffffffffffffffffffffffffffffffff",
          "blockHash": "0xe6837d370dd336f2034cd19f342a2b3cea96673f9c3cda8e0aed03863ded2b87",
          "blockNumber": "0x6b3696",
          "transactionHash": "0xef94695d528856939ac5f1f4c20ab85efdad7bc9c820225ee6b37ca3443d36a9",
          "transactionIndex": "0x34",
          "logIndex": "0x31",
          "removed": false
        }
      ],
      "logsBloom": "0x00000000001000000000000000000000000000000000000000000000000000000000000000000000000000000000000000000000000000000000000000200800000000000000000000000000000000000000000000000000000000000000000000000000000000000000000000000000000000000010000020000000000000040000000000000000000000000000000000000000000000000000000000000000020000000000020000000000000000000000000000000000000000000000000000000000000000020000000000000000000000000000000000800000000000000010000000000000000000000000000000000000001000000000000000000000",
      "type": "0x2",
      "transactionHash": "0xef94695d528856939ac5f1f4c20ab85efdad7bc9c820225ee6b37ca3443d36a9",
      "transactionIndex": "0x34",
      "blockHash": "0xe6837d370dd336f2034cd19f342a2b3cea96673f9c3cda8e0aed03863ded2b87",
      "blockNumber": "0x6b3696",
      "gasUsed": "0x6ae8",
      "effectiveGasPrice": "0x11c1edbca",
      "blobGasUsed": "0x0",
      "from": "0x1b382a7b4496f14e0aaa2da1e1626da400426a03",
      "to": "0xca14007eff0db1f8135f4c25b34de49ab0d42766",
      "contractAddress": null
    },
    {
      "status": "0x1",
      "cumulativeGasUsed": "0x82015b",
      "logs": [
        {
          "address": "0xca14007eff0db1f8135f4c25b34de49ab0d42766",
          "topics": [
            "0xddf252ad1be2c89b69c2b068fc378daa952ba7f163c4a11628f55a4df523b3ef",
            "0x0000000000000000000000001b382a7b4496f14e0aaa2da1e1626da400426a03",
            "0x000000000000000000000000cff560487550c16e86f8e350a11ca0938e50a7b6"
          ],
          "data": "0x000000000000000000000000000000000000000000000000002386f26fc10000",
          "blockHash": "0xe6837d370dd336f2034cd19f342a2b3cea96673f9c3cda8e0aed03863ded2b87",
          "blockNumber": "0x6b3696",
          "transactionHash": "0x1a6198fdbc340abeb9b22e407ecb8a88125e6f1f6064967550a40e0345e8de72",
          "transactionIndex": "0x35",
          "logIndex": "0x32",
          "removed": false
        }
      ],
      "logsBloom": "0x00000000001000000000000000000000000000000000000000000000000000000000000000000000000000000000000000000000000000000000000000000800000000000000000000000008000000000000000000000000000000000000000000000000000000000000000000000000000000000010000020000010000000040000000000000000000000000000000000000000000000000000000000000000000000000000020000000000000000000000000000000000000000000000000000000002000000020000000000000000000000000000000000800000000000000000000000000000000000000000000000000000001000000000000000000000",
      "type": "0x2",
      "transactionHash": "0x1a6198fdbc340abeb9b22e407ecb8a88125e6f1f6064967550a40e0345e8de72",
      "transactionIndex": "0x35",
      "blockHash": "0xe6837d370dd336f2034cd19f342a2b3cea96673f9c3cda8e0aed03863ded2b87",
      "blockNumber": "0x6b3696",
      "gasUsed": "0x9bf5",
      "effectiveGasPrice": "0x11c1edbca",
      "blobGasUsed": "0x0",
      "from": "0x1b382a7b4496f14e0aaa2da1e1626da400426a03",
      "to": "0xca14007eff0db1f8135f4c25b34de49ab0d42766",
      "contractAddress": null
    },
    {
      "status": "0x1",
      "cumulativeGasUsed": "0x84a8fa",
      "logs": [
        {
          "address": "0xca14007eff0db1f8135f4c25b34de49ab0d42766",
          "topics": [
            "0xddf252ad1be2c89b69c2b068fc378daa952ba7f163c4a11628f55a4df523b3ef",
            "0x0000000000000000000000001b382a7b4496f14e0aaa2da1e1626da400426a03",
            "0x000000000000000000000000cff560487550c16e86f8e350a11ca0938e50a7b6"
          ],
          "data": "0x000000000000000000000000000000000000000000000000002386f26fc10000",
          "blockHash": "0xe6837d370dd336f2034cd19f342a2b3cea96673f9c3cda8e0aed03863ded2b87",
          "blockNumber": "0x6b3696",
          "transactionHash": "0xcd9085c6cdebd2d257dba45605015539d54786fd680f982c301ee56aa03b93c1",
          "transactionIndex": "0x36",
          "logIndex": "0x33",
          "removed": false
        },
        {
          "address": "0xca14007eff0db1f8135f4c25b34de49ab0d42766",
          "topics": [
            "0x8c5be1e5ebec7d5bd14f71427d1e84f3dd0314c0f7b2291e5b200ac8c7c3b925",
            "0x000000000000000000000000cff560487550c16e86f8e350a11ca0938e50a7b6",
            "0x000000000000000000000000ce5485cfb26914c5dce00b9baf0580364dafc7a4"
          ],
          "data": "0x0000000000000000000000000000000000000000000000000000000000000000",
          "blockHash": "0xe6837d370dd336f2034cd19f342a2b3cea96673f9c3cda8e0aed03863ded2b87",
          "blockNumber": "0x6b3696",
          "transactionHash": "0xcd9085c6cdebd2d257dba45605015539d54786fd680f982c301ee56aa03b93c1",
          "transactionIndex": "0x36",
          "logIndex": "0x34",
          "removed": false
        },
        {
          "address": "0xca14007eff0db1f8135f4c25b34de49ab0d42766",
          "topics": [
            "0x8c5be1e5ebec7d5bd14f71427d1e84f3dd0314c0f7b2291e5b200ac8c7c3b925",
            "0x000000000000000000000000cff560487550c16e86f8e350a11ca0938e50a7b6",
            "0x000000000000000000000000ce5485cfb26914c5dce00b9baf0580364dafc7a4"
          ],
          "data": "0x000000000000000000000000000000000000000000000000002386f26fc10000",
          "blockHash": "0xe6837d370dd336f2034cd19f342a2b3cea96673f9c3cda8e0aed03863ded2b87",
          "blockNumber": "0x6b3696",
          "transactionHash": "0xcd9085c6cdebd2d257dba45605015539d54786fd680f982c301ee56aa03b93c1",
          "transactionIndex": "0x36",
          "logIndex": "0x35",
          "removed": false
        },
        {
          "address": "0xca14007eff0db1f8135f4c25b34de49ab0d42766",
          "topics": [
            "0x8c5be1e5ebec7d5bd14f71427d1e84f3dd0314c0f7b2291e5b200ac8c7c3b925",
            "0x000000000000000000000000cff560487550c16e86f8e350a11ca0938e50a7b6",
            "0x000000000000000000000000ce5485cfb26914c5dce00b9baf0580364dafc7a4"
          ],
          "data": "0x0000000000000000000000000000000000000000000000000000000000000000",
          "blockHash": "0xe6837d370dd336f2034cd19f342a2b3cea96673f9c3cda8e0aed03863ded2b87",
          "blockNumber": "0x6b3696",
          "transactionHash": "0xcd9085c6cdebd2d257dba45605015539d54786fd680f982c301ee56aa03b93c1",
          "transactionIndex": "0x36",
          "logIndex": "0x36",
          "removed": false
        },
        {
          "address": "0xca14007eff0db1f8135f4c25b34de49ab0d42766",
          "topics": [
            "0xddf252ad1be2c89b69c2b068fc378daa952ba7f163c4a11628f55a4df523b3ef",
            "0x000000000000000000000000cff560487550c16e86f8e350a11ca0938e50a7b6",
            "0x000000000000000000000000ce5485cfb26914c5dce00b9baf0580364dafc7a4"
          ],
          "data": "0x000000000000000000000000000000000000000000000000002386f26fc10000",
          "blockHash": "0xe6837d370dd336f2034cd19f342a2b3cea96673f9c3cda8e0aed03863ded2b87",
          "blockNumber": "0x6b3696",
          "transactionHash": "0xcd9085c6cdebd2d257dba45605015539d54786fd680f982c301ee56aa03b93c1",
          "transactionIndex": "0x36",
          "logIndex": "0x37",
          "removed": false
        },
        {
          "address": "0xe2bb56ee936fd6433dc0f6e7e3b8365c906aa057",
          "topics": [
            "0xdb80dd488acf86d17c747445b0eabb5d57c541d3bd7b6b87af987858e5066b2b",
            "0x000000000000000000000000ce5485cfb26914c5dce00b9baf0580364dafc7a4",
            "0x0594c1582459ea03f77deaf9eb7e3917d6994a03c13405ba42867f83d85f085d",
            "0x008bce41827dd5484d80312a2e43bc42a896e3fcf75bf84c2b49339168dfa00a"
          ],
          "data": "0x00000000000000000000000000000000000000000000000000000000000000600000000000000000000000000000000000000000000000000000000000002772000000000000000000000000000000000000000000000000002386f26fc10000000000000000000000000000000000000000000000000000000000000000000d000000000000000000000000ca14007eff0db1f8135f4c25b34de49ab0d42766000000000000000000000000cff560487550c16e86f8e350a11ca0938e50a7b603a4b7e2d060bd8eb48e2db10f16c1303b131c266cc928902c3a3a8ead7e386d000000000000000000000000000000000000000000000000002386f26fc100000000000000000000000000000000000000000000000000000000000000000000000000000000000000000000000000000000000000000000000000000000000700000000000000000000000000000000000000000000000000000000000000000000000000000000000000001b382a7b4496f14e0aaa2da1e1626da400426a0304718f5a0fc34cc1af16a1cdee98ffb20c31f5cd61d6ab07201858f4287c938d053b40a647cedfca6ca84f542a0fe36736031905a9639a7f19a3c1e66bfd5080000000000000000000000000000000000000000000000000000000000000000000000000000000000000000000000000000000000000000000000000672bf31000000000000000000000000000000000000000000000000000000000672bf350",
          "blockHash": "0xe6837d370dd336f2034cd19f342a2b3cea96673f9c3cda8e0aed03863ded2b87",
          "blockNumber": "0x6b3696",
          "transactionHash": "0xcd9085c6cdebd2d257dba45605015539d54786fd680f982c301ee56aa03b93c1",
          "transactionIndex": "0x36",
          "logIndex": "0x38",
          "removed": false
        },
        {
          "address": "0xce5485cfb26914c5dce00b9baf0580364dafc7a4",
          "topics": [
            "0x2203a49c69f1a46c1164f5e4a30643dd77b7c59c0ff9bc433256048365c247f1",
            "0x000000000000000000000000cff560487550c16e86f8e350a11ca0938e50a7b6",
            "0x000000000000000000000000ca14007eff0db1f8135f4c25b34de49ab0d42766",
            "0x03a4b7e2d060bd8eb48e2db10f16c1303b131c266cc928902c3a3a8ead7e386d"
          ],
          "data": "0x000000000000000000000000000000000000000000000000002386f26fc1000000000000000000000000000000000000000000000000000000000000000000800000000000000000000000000000000000000000000000000000000000002772000000000000000000000000000000000000000000000000002386f26fc10000000000000000000000000000000000000000000000000000000000000000000700000000000000000000000000000000000000000000000000000000000000000000000000000000000000001b382a7b4496f14e0aaa2da1e1626da400426a0304718f5a0fc34cc1af16a1cdee98ffb20c31f5cd61d6ab07201858f4287c938d053b40a647cedfca6ca84f542a0fe36736031905a9639a7f19a3c1e66bfd5080000000000000000000000000000000000000000000000000000000000000000000000000000000000000000000000000000000000000000000000000672bf31000000000000000000000000000000000000000000000000000000000672bf350",
          "blockHash": "0xe6837d370dd336f2034cd19f342a2b3cea96673f9c3cda8e0aed03863ded2b87",
          "blockNumber": "0x6b3696",
          "transactionHash": "0xcd9085c6cdebd2d257dba45605015539d54786fd680f982c301ee56aa03b93c1",
          "transactionIndex": "0x36",
          "logIndex": "0x39",
          "removed": false
        },
        {
          "address": "0xcff560487550c16e86f8e350a11ca0938e50a7b6",
          "topics": [
            "0xaf43445f7721522b7a3864ed3de53d7e2e658bfa1eeffa18e1e229be68ce2545",
            "0x0000000000000000000000001b382a7b4496f14e0aaa2da1e1626da400426a03",
            "0x03a4b7e2d060bd8eb48e2db10f16c1303b131c266cc928902c3a3a8ead7e386d"
          ],
          "data": "0x000000000000000000000000000000000000000000000000002386f26fc100000000000000000000000000000000000000000000000000000000000000000001",
          "blockHash": "0xe6837d370dd336f2034cd19f342a2b3cea96673f9c3cda8e0aed03863ded2b87",
          "blockNumber": "0x6b3696",
          "transactionHash": "0xcd9085c6cdebd2d257dba45605015539d54786fd680f982c301ee56aa03b93c1",
          "transactionIndex": "0x36",
          "logIndex": "0x3a",
          "removed": false
        }
      ],
      "logsBloom": "0x00000200001000000000000000020000000000000000000002000042000000000000000000000000000000000000000000000000000004000000020000200800000000000000000000000008080000000000000000000040001000000000000200000000100000000000000000000000000000000010000020000010000008042000000000000000000000020000000010008000000200000100000000000012020000800000020000000020000000021000000000000000000000000000000000800002000000024010000000000000000000200000000000800000200000000010000000010000000000020004000000000000001000000000000000000000",
      "type": "0x2",
      "transactionHash": "0xcd9085c6cdebd2d257dba45605015539d54786fd680f982c301ee56aa03b93c1",
      "transactionIndex": "0x36",
      "blockHash": "0xe6837d370dd336f2034cd19f342a2b3cea96673f9c3cda8e0aed03863ded2b87",
      "blockNumber": "0x6b3696",
      "gasUsed": "0x2a79f",
      "effectiveGasPrice": "0x11c1edbca",
      "blobGasUsed": "0x0",
      "from": "0x1b382a7b4496f14e0aaa2da1e1626da400426a03",
      "to": "0xcff560487550c16e86f8e350a11ca0938e50a7b6",
      "contractAddress": null
    }
  ],
  "libraries": [],
  "pending": [],
  "returns": {},
  "timestamp": 1730933561,
  "chain": 11155111,
  "commit": "ed7f201"
}