{
  "transactions": [
    {
      "hash": "0x7c1b457ad244876bc69378b7f360151afd0c407f482f537b45a3881217935ed5",
      "transactionType": "CALL",
      "contractName": null,
      "contractAddress": "0x8c3f4901dfaf00f43b11554d96db04fae340479e",
      "function": "initiateWithdrawal(address,address,uint64)",
      "arguments": [
        "0xDdb342ecc94236c29a5307d3757d0724D759453C",
        "0x1c7D4B196Cb0C7B01d743Fbc6116a902379C7238",
        "482"
      ],
      "transaction": {
        "from": "0xddb342ecc94236c29a5307d3757d0724d759453c",
        "to": "0x8c3f4901dfaf00f43b11554d96db04fae340479e",
        "gas": "0x1b788",
        "value": "0x1c6bf52634000",
        "input": "0x9b4085f6000000000000000000000000ddb342ecc94236c29a5307d3757d0724d759453c0000000000000000000000001c7d4b196cb0c7b01d743fbc6116a902379c723800000000000000000000000000000000000000000000000000000000000001e2",
        "nonce": "0x4a3",
        "chainId": "0xaa36a7"
      },
      "additionalContracts": [],
      "isFixedGasLimit": false
    }
  ],
  "receipts": [
    {
      "status": "0x1",
      "cumulativeGasUsed": "0x110c230",
      "logs": [
        {
          "address": "0xe2bb56ee936fd6433dc0f6e7e3b8365c906aa057",
          "topics": [
            "0xdb80dd488acf86d17c747445b0eabb5d57c541d3bd7b6b87af987858e5066b2b",
            "0x0000000000000000000000008c3f4901dfaf00f43b11554d96db04fae340479e",
            "0x0637f01fa56a50f82627a8b711bd1c2c1f866900f6dc30bcb988b66220687435",
            "0x00f1149cade9d692862ad41df96b108aa2c20af34f640457e781d166c98dc6b0"
          ],
          "data": "0x00000000000000000000000000000000000000000000000000000000000000600000000000000000000000000000000000000000000000000000000000002bed0000000000000000000000000000000000000000000000000001c6bf5263400000000000000000000000000000000000000000000000000000000000000000060000000000000000000000000000000000000000000000000000000000000002000000000000000000000000ddb342ecc94236c29a5307d3757d0724d759453c000000000000000000000000ddb342ecc94236c29a5307d3757d0724d759453c0000000000000000000000001c7d4b196cb0c7b01d743fbc6116a902379c723800000000000000000000000000000000000000000000000000000000000001e20000000000000000000000008c3f4901dfaf00f43b11554d96db04fae340479e",
          "blockHash": "0x6f185fa505c26aade8333f76b04d5280c4013f657894b963ec0619e4a524d139",
          "blockNumber": "0x72cae9",
          "transactionHash": "0x7c1b457ad244876bc69378b7f360151afd0c407f482f537b45a3881217935ed5",
          "transactionIndex": "0xb7",
          "logIndex": "0xdd",
          "removed": false
        },
        {
          "address": "0x8c3f4901dfaf00f43b11554d96db04fae340479e",
          "topics": [
            "0x89bd98ae1b8dd4dbaeba50e40ad484414a306be9fb54ec4eecf1a801ca9aeacf",
            "0x000000000000000000000000ddb342ecc94236c29a5307d3757d0724d759453c"
          ],
          "data": "0x00000000000000000000000000000000000000000000000000000000000001e2",
          "blockHash": "0x6f185fa505c26aade8333f76b04d5280c4013f657894b963ec0619e4a524d139",
          "blockNumber": "0x72cae9",
          "transactionHash": "0x7c1b457ad244876bc69378b7f360151afd0c407f482f537b45a3881217935ed5",
          "transactionIndex": "0xb7",
          "logIndex": "0xde",
          "removed": false
        }
      ],
      "logsBloom": "0x01400000040000000000000000020000000000000000000000000000000000000000000000000000000000000000000000000000000000000000000000000000000000000000000000000000000000040000000000000040001000000000000400000000100000010000000000000000400000000000000000000000400000000000000000000000010400000000000004000000800000000000100000000010000000000000000000000020000000000200000000000000001000000000000000002000000000000000000000000000000000000000000000000000000000000000000000000000000000002000000000000000000000000000000000000000",
      "type": "0x2",
      "transactionHash": "0x7c1b457ad244876bc69378b7f360151afd0c407f482f537b45a3881217935ed5",
      "transactionIndex": "0xb7",
      "blockHash": "0x6f185fa505c26aade8333f76b04d5280c4013f657894b963ec0619e4a524d139",
      "blockNumber": "0x72cae9",
      "gasUsed": "0x12c89",
      "effectiveGasPrice": "0x330bd2850",
      "from": "0xddb342ecc94236c29a5307d3757d0724d759453c",
      "to": "0x8c3f4901dfaf00f43b11554d96db04fae340479e",
      "contractAddress": null
    }
  ],
  "libraries": [],
  "pending": [],
  "returns": {},
  "timestamp": 1737259970,
  "chain": 11155111,
  "commit": "fcbff6b"
}