{
  "transactions": [
    {
      "hash": "0x045aacfa73d5822c7cbd6df4fd41c6dfcb4b8dc909922ccb09d6bdab483cf25e",
      "transactionType": "CALL",
      "contractName": "StarkNetToken",
      "contractAddress": "0xCa14007Eff0dB1f8135f4C25B34De49AB0d42766",
      "function": "approve(address,uint256)",
      "arguments": [
        "0xE36655D07368519aBe20ecC9d6c18fd26Db1d0a0",
        "115792089237316195423570985008687907853269984665640564039457584007913129639935"
      ],
      "transaction": {
        "type": "0x02",
        "from": "0xddb342ecc94236c29a5307d3757d0724d759453c",
        "to": "0xca14007eff0db1f8135f4c25b34de49ab0d42766",
        "gas": "0xff08",
        "value": "0x0",
        "data": "0x095ea7b3000000000000000000000000e36655d07368519abe20ecc9d6c18fd26db1d0a0ffffffffffffffffffffffffffffffffffffffffffffffffffffffffffffffff",
        "nonce": "0x2ae",
        "accessList": []
      },
      "additionalContracts": [],
      "isFixedGasLimit": false
    },
    {
      "hash": "0x1879d30a453c4cfc51b727ba52de51b7edc0a6eb7f123124a5eb66e0b59f1960",
      "transactionType": "CALL",
      "contractName": "StarkNetToken",
      "contractAddress": "0xCa14007Eff0dB1f8135f4C25B34De49AB0d42766",
      "function": "transfer(address,uint256)",
      "arguments": [
        "0xE36655D07368519aBe20ecC9d6c18fd26Db1d0a0",
        "500000000000"
      ],
      "transaction": {
        "type": "0x02",
        "from": "0xddb342ecc94236c29a5307d3757d0724d759453c",
        "to": "0xca14007eff0db1f8135f4c25b34de49ab0d42766",
        "gas": "0x1339c",
        "value": "0x0",
        "data": "0xa9059cbb000000000000000000000000e36655d07368519abe20ecc9d6c18fd26db1d0a0000000000000000000000000000000000000000000000000000000746a528800",
        "nonce": "0x2af",
        "accessList": []
      },
      "additionalContracts": [],
      "isFixedGasLimit": false
    },
    {
      "hash": "0x9e2f5464846f2a0939806c30327b5d084dbee8fbc80c50b57688853de0eec96c",
      "transactionType": "CALL",
      "contractName": "L1TWAMMBridge",
      "contractAddress": "0xE36655D07368519aBe20ecC9d6c18fd26Db1d0a0",
      "function": "deposit(uint256,uint256)",
      "arguments": [
        "500000000000",
        "2218835325546629175384211136446492474786052758603793932898516559357400907028"
      ],
      "transaction": {
        "type": "0x02",
        "from": "0xddb342ecc94236c29a5307d3757d0724d759453c",
        "to": "0xe36655d07368519abe20ecc9d6c18fd26db1d0a0",
        "gas": "0x30231",
        "value": "0x5af3107a4000",
        "data": "0xe2bbb158000000000000000000000000000000000000000000000000000000746a52880004e7d0f85e69bb56625aa34643e39e54a4f12c6f0e1e5a099c83fbdf0790fd14",
        "nonce": "0x2b0",
        "accessList": []
      },
      "additionalContracts": [],
      "isFixedGasLimit": false
    },
    {
      "hash": "0x5a20e06d99142bbb49b8760da498b001ff7a375527bdfb74878349ee3cb35219",
      "transactionType": "CALL",
      "contractName": "Proxy",
      "contractAddress": "0xE2Bb56ee936fd6433DC0F6e7e3b8365C906AA057",
      "function": "sendMessageToL2(uint256,uint256,uint256[])",
      "arguments": [
        "2218835325546629175384211136446492474786052758603793932898516559357400907028",
        "425952401605428413817582304755919420533935873840436977667370850915372091056",
        "[0, 1265684623727634235329190328445374361672779121980, 2009894490435840142178314390393166646092438090257831307886760648929397478285, 2366254414417873771392932940469309727793822550615514268240785277201753657472, 170141183460469235273462165868118016, 1731430784, 1731430848, 500000000000]"
      ],
      "transaction": {
        "type": "0x02",
        "from": "0xddb342ecc94236c29a5307d3757d0724d759453c",
        "to": "0xe2bb56ee936fd6433dc0f6e7e3b8365c906aa057",
        "gas": "0x173c2",
        "value": "0x5af3107a4000",
        "data": "0x3e3aa6c504e7d0f85e69bb56625aa34643e39e54a4f12c6f0e1e5a099c83fbdf0790fd1400f1149cade9d692862ad41df96b108aa2c20af34f640457e781d166c98dc6b0000000000000000000000000000000000000000000000000000000000000006000000000000000000000000000000000000000000000000000000000000000080000000000000000000000000000000000000000000000000000000000000000000000000000000000000000ddb342ecc94236c29a5307d3757d0724d759453c04718f5a0fc34cc1af16a1cdee98ffb20c31f5cd61d6ab07201858f4287c938d053b40a647cedfca6ca84f542a0fe36736031905a9639a7f19a3c1e66bfd5080000000000000000000000000000000000020c49ba5e353f80000000000000000000000000000000000000000000000000000000000000000000000006733898000000000000000000000000000000000000000000000000000000000673389c0000000000000000000000000000000000000000000000000000000746a528800",
        "nonce": "0x2b1",
        "accessList": []
      },
      "additionalContracts": [],
      "isFixedGasLimit": false
    }
  ],
  "receipts": [],
  "libraries": [],
  "pending": [
    "0x045aacfa73d5822c7cbd6df4fd41c6dfcb4b8dc909922ccb09d6bdab483cf25e",
    "0x1879d30a453c4cfc51b727ba52de51b7edc0a6eb7f123124a5eb66e0b59f1960",
    "0x9e2f5464846f2a0939806c30327b5d084dbee8fbc80c50b57688853de0eec96c",
    "0x5a20e06d99142bbb49b8760da498b001ff7a375527bdfb74878349ee3cb35219"
  ],
  "returns": {},
  "timestamp": 1731430877,
  "chain": 11155111,
  "multi": false,
  "commit": "39f9f49"
}