{
  "transactions": [
    {
      "hash": "0x156a93fe6f9dcf64077d7af8e80b0ecaf94f86e215ed754bbe6d90ef397aa6ba",
      "transactionType": "CALL",
      "contractName": "StarkNetToken",
      "contractAddress": "0xCa14007Eff0dB1f8135f4C25B34De49AB0d42766",
      "function": "approve(address,uint256)",
      "arguments": [
        "0x18E770E8006c6d791f476A8e74feEac33C1B62F0",
        "115792089237316195423570985008687907853269984665640564039457584007913129639935"
      ],
      "transaction": {
        "type": "0x02",
        "from": "0xddb342ecc94236c29a5307d3757d0724d759453c",
        "to": "0xca14007eff0db1f8135f4c25b34de49ab0d42766",
        "gas": "0x9398",
        "value": "0x0",
        "data": "0x095ea7b300000000000000000000000018e770e8006c6d791f476a8e74feeac33c1b62f0ffffffffffffffffffffffffffffffffffffffffffffffffffffffffffffffff",
        "nonce": "0x226",
        "accessList": []
      },
      "additionalContracts": [],
      "isFixedGasLimit": false
    },
    {
      "hash": "0x62d186bb0a1b754e1acd91b555bcdf94fabb3cf6fb6c0bd592e3a84b5149e9d3",
      "transactionType": "CALL",
      "contractName": "StarkNetToken",
      "contractAddress": "0xCa14007Eff0dB1f8135f4C25B34De49AB0d42766",
      "function": "transfer(address,uint256)",
      "arguments": [
        "0x18E770E8006c6d791f476A8e74feEac33C1B62F0",
        "1000000000000000"
      ],
      "transaction": {
        "type": "0x02",
        "from": "0xddb342ecc94236c29a5307d3757d0724d759453c",
        "to": "0xca14007eff0db1f8135f4c25b34de49ab0d42766",
        "gas": "0x145c6",
        "value": "0x0",
        "data": "0xa9059cbb00000000000000000000000018e770e8006c6d791f476a8e74feeac33c1b62f000000000000000000000000000000000000000000000000000038d7ea4c68000",
        "nonce": "0x227",
        "accessList": []
      },
      "additionalContracts": [],
      "isFixedGasLimit": false
    },
    {
      "hash": "0x8b44d039a72266dfe7d694a868d1e3f0cee7628f6c55f6eb90a5c748ab1afb4b",
      "transactionType": "CALL",
      "contractName": "L1TWAMMBridge",
      "contractAddress": "0x18E770E8006c6d791f476A8e74feEac33C1B62F0",
      "function": "depositAndCreateOrder((address,uint256,uint256,uint128,uint128,uint128,uint128,uint256))",
      "arguments": [
        "(0xDdb342ecc94236c29a5307d3757d0724D759453C, 2009894490435840142178314390393166646092438090257831307886760648929397478285, 2366254414417873771392932940469309727793822550615514268240785277201753657472, 0, 1730995936, 1730996000, 1000000000000000, 1934250793915401077506364354188462523298219632061844703357579827826604130867)"
      ],
      "transaction": {
        "type": "0x02",
        "from": "0xddb342ecc94236c29a5307d3757d0724d759453c",
        "to": "0x18e770e8006c6d791f476a8e74feeac33c1b62f0",
        "gas": "0x3ab7f",
        "value": "0x38d7ea4c68000",
        "data": "0x5ce510fa000000000000000000000000ddb342ecc94236c29a5307d3757d0724d759453c04718f5a0fc34cc1af16a1cdee98ffb20c31f5cd61d6ab07201858f4287c938d053b40a647cedfca6ca84f542a0fe36736031905a9639a7f19a3c1e66bfd5080000000000000000000000000000000000000000000000000000000000000000000000000000000000000000000000000000000000000000000000000672ce6e000000000000000000000000000000000000000000000000000000000672ce72000000000000000000000000000000000000000000000000000038d7ea4c680000446bf456ae9d25bb083a57dba988fd5cb5414f832b6f1d2d4c5332aef744233",
        "nonce": "0x228",
        "accessList": []
      },
      "additionalContracts": [],
      "isFixedGasLimit": false
    }
  ],
  "receipts": [
    {
      "transactionHash": "0x156a93fe6f9dcf64077d7af8e80b0ecaf94f86e215ed754bbe6d90ef397aa6ba",
      "transactionIndex": "0x8",
      "blockHash": "0x67bef74e18b9a9db0274b496e1c60709b6390170ee94a64d5e59b6a02658afa6",
      "blockNumber": "0x6b4934",
      "from": "0xDdb342ecc94236c29a5307d3757d0724D759453C",
      "to": "0xCa14007Eff0dB1f8135f4C25B34De49AB0d42766",
      "cumulativeGasUsed": "0x45282",
      "gasUsed": "0x6adc",
      "contractAddress": null,
      "logs": [
        {
          "address": "0xCa14007Eff0dB1f8135f4C25B34De49AB0d42766",
          "topics": [
            "0x8c5be1e5ebec7d5bd14f71427d1e84f3dd0314c0f7b2291e5b200ac8c7c3b925",
            "0x000000000000000000000000ddb342ecc94236c29a5307d3757d0724d759453c",
            "0x00000000000000000000000018e770e8006c6d791f476a8e74feeac33c1b62f0"
          ],
          "data": "0xffffffffffffffffffffffffffffffffffffffffffffffffffffffffffffffff",
          "blockHash": "0x67bef74e18b9a9db0274b496e1c60709b6390170ee94a64d5e59b6a02658afa6",
          "blockNumber": "0x6b4934",
          "transactionHash": "0x156a93fe6f9dcf64077d7af8e80b0ecaf94f86e215ed754bbe6d90ef397aa6ba",
          "transactionIndex": "0x8",
          "logIndex": "0x3",
          "removed": false
        }
      ],
      "status": "0x1",
      "logsBloom": "0x00000000000000000000000000000000000000000000000000000000000000000000000000000000000000000000000000000000000100000008000000200000000000000000000000000000000000000000000000000000000000000000000400000000000000000000000000000000400000000000000000000000400000000000000000000000000000000000000000000000000000000000000000000000020000000000000000000000000000000000000000000000000000008000000000000000000000020000000000000000000000000000000000800000000000000010000000000000000000000000000000000000001000000000000000000000",
      "type": "0x2",
      "effectiveGasPrice": "0x1f04e4e6d"
    },
    {
      "transactionHash": "0x62d186bb0a1b754e1acd91b555bcdf94fabb3cf6fb6c0bd592e3a84b5149e9d3",
      "transactionIndex": "0x9",
      "blockHash": "0x67bef74e18b9a9db0274b496e1c60709b6390170ee94a64d5e59b6a02658afa6",
      "blockNumber": "0x6b4934",
      "from": "0xDdb342ecc94236c29a5307d3757d0724D759453C",
      "to": "0xCa14007Eff0dB1f8135f4C25B34De49AB0d42766",
      "cumulativeGasUsed": "0x53143",
      "gasUsed": "0xdec1",
      "contractAddress": null,
      "logs": [
        {
          "address": "0xCa14007Eff0dB1f8135f4C25B34De49AB0d42766",
          "topics": [
            "0xddf252ad1be2c89b69c2b068fc378daa952ba7f163c4a11628f55a4df523b3ef",
            "0x000000000000000000000000ddb342ecc94236c29a5307d3757d0724d759453c",
            "0x00000000000000000000000018e770e8006c6d791f476a8e74feeac33c1b62f0"
          ],
          "data": "0x00000000000000000000000000000000000000000000000000038d7ea4c68000",
          "blockHash": "0x67bef74e18b9a9db0274b496e1c60709b6390170ee94a64d5e59b6a02658afa6",
          "blockNumber": "0x6b4934",
          "transactionHash": "0x62d186bb0a1b754e1acd91b555bcdf94fabb3cf6fb6c0bd592e3a84b5149e9d3",
          "transactionIndex": "0x9",
          "logIndex": "0x4",
          "removed": false
        }
      ],
      "status": "0x1",
      "logsBloom": "0x00000000000000000000000000000000000000000000000000000000000000000000000000000000000000000000000000000000000100000008000000000000000000000000000000000008000000000000000000000000000000000000000400000000000000000000000000000000400000000000000000000010400000000000000000000000000000000000000000000000000000000000000000000000000000000000000000000000000000000000000000000000000000008000000000000002000000020000000000000000000000000000000000800000000000000000000000000000000000000000000000000000001000000000000000000000",
      "type": "0x2",
      "effectiveGasPrice": "0x1f04e4e6d"
    },
    {
      "transactionHash": "0x8b44d039a72266dfe7d694a868d1e3f0cee7628f6c55f6eb90a5c748ab1afb4b",
      "transactionIndex": "0xa",
      "blockHash": "0x67bef74e18b9a9db0274b496e1c60709b6390170ee94a64d5e59b6a02658afa6",
      "blockNumber": "0x6b4934",
      "from": "0xDdb342ecc94236c29a5307d3757d0724D759453C",
      "to": "0x18E770E8006c6d791f476A8e74feEac33C1B62F0",
      "cumulativeGasUsed": "0x7d8f4",
      "gasUsed": "0x2a7b1",
      "contractAddress": null,
      "logs": [
        {
          "address": "0xCa14007Eff0dB1f8135f4C25B34De49AB0d42766",
          "topics": [
            "0xddf252ad1be2c89b69c2b068fc378daa952ba7f163c4a11628f55a4df523b3ef",
            "0x000000000000000000000000ddb342ecc94236c29a5307d3757d0724d759453c",
            "0x00000000000000000000000018e770e8006c6d791f476a8e74feeac33c1b62f0"
          ],
          "data": "0x00000000000000000000000000000000000000000000000000038d7ea4c68000",
          "blockHash": "0x67bef74e18b9a9db0274b496e1c60709b6390170ee94a64d5e59b6a02658afa6",
          "blockNumber": "0x6b4934",
          "transactionHash": "0x8b44d039a72266dfe7d694a868d1e3f0cee7628f6c55f6eb90a5c748ab1afb4b",
          "transactionIndex": "0xa",
          "logIndex": "0x5",
          "removed": false
        },
        {
          "address": "0xCa14007Eff0dB1f8135f4C25B34De49AB0d42766",
          "topics": [
            "0x8c5be1e5ebec7d5bd14f71427d1e84f3dd0314c0f7b2291e5b200ac8c7c3b925",
            "0x00000000000000000000000018e770e8006c6d791f476a8e74feeac33c1b62f0",
            "0x000000000000000000000000ce5485cfb26914c5dce00b9baf0580364dafc7a4"
          ],
          "data": "0x0000000000000000000000000000000000000000000000000000000000000000",
          "blockHash": "0x67bef74e18b9a9db0274b496e1c60709b6390170ee94a64d5e59b6a02658afa6",
          "blockNumber": "0x6b4934",
          "transactionHash": "0x8b44d039a72266dfe7d694a868d1e3f0cee7628f6c55f6eb90a5c748ab1afb4b",
          "transactionIndex": "0xa",
          "logIndex": "0x6",
          "removed": false
        },
        {
          "address": "0xCa14007Eff0dB1f8135f4C25B34De49AB0d42766",
          "topics": [
            "0x8c5be1e5ebec7d5bd14f71427d1e84f3dd0314c0f7b2291e5b200ac8c7c3b925",
            "0x00000000000000000000000018e770e8006c6d791f476a8e74feeac33c1b62f0",
            "0x000000000000000000000000ce5485cfb26914c5dce00b9baf0580364dafc7a4"
          ],
          "data": "0x00000000000000000000000000000000000000000000000000038d7ea4c68000",
          "blockHash": "0x67bef74e18b9a9db0274b496e1c60709b6390170ee94a64d5e59b6a02658afa6",
          "blockNumber": "0x6b4934",
          "transactionHash": "0x8b44d039a72266dfe7d694a868d1e3f0cee7628f6c55f6eb90a5c748ab1afb4b",
          "transactionIndex": "0xa",
          "logIndex": "0x7",
          "removed": false
        },
        {
          "address": "0xCa14007Eff0dB1f8135f4C25B34De49AB0d42766",
          "topics": [
            "0x8c5be1e5ebec7d5bd14f71427d1e84f3dd0314c0f7b2291e5b200ac8c7c3b925",
            "0x00000000000000000000000018e770e8006c6d791f476a8e74feeac33c1b62f0",
            "0x000000000000000000000000ce5485cfb26914c5dce00b9baf0580364dafc7a4"
          ],
          "data": "0x0000000000000000000000000000000000000000000000000000000000000000",
          "blockHash": "0x67bef74e18b9a9db0274b496e1c60709b6390170ee94a64d5e59b6a02658afa6",
          "blockNumber": "0x6b4934",
          "transactionHash": "0x8b44d039a72266dfe7d694a868d1e3f0cee7628f6c55f6eb90a5c748ab1afb4b",
          "transactionIndex": "0xa",
          "logIndex": "0x8",
          "removed": false
        },
        {
          "address": "0xCa14007Eff0dB1f8135f4C25B34De49AB0d42766",
          "topics": [
            "0xddf252ad1be2c89b69c2b068fc378daa952ba7f163c4a11628f55a4df523b3ef",
            "0x00000000000000000000000018e770e8006c6d791f476a8e74feeac33c1b62f0",
            "0x000000000000000000000000ce5485cfb26914c5dce00b9baf0580364dafc7a4"
          ],
          "data": "0x00000000000000000000000000000000000000000000000000038d7ea4c68000",
          "blockHash": "0x67bef74e18b9a9db0274b496e1c60709b6390170ee94a64d5e59b6a02658afa6",
          "blockNumber": "0x6b4934",
          "transactionHash": "0x8b44d039a72266dfe7d694a868d1e3f0cee7628f6c55f6eb90a5c748ab1afb4b",
          "transactionIndex": "0xa",
          "logIndex": "0x9",
          "removed": false
        },
        {
          "address": "0xE2Bb56ee936fd6433DC0F6e7e3b8365C906AA057",
          "topics": [
            "0xdb80dd488acf86d17c747445b0eabb5d57c541d3bd7b6b87af987858e5066b2b",
            "0x000000000000000000000000ce5485cfb26914c5dce00b9baf0580364dafc7a4",
            "0x0594c1582459ea03f77deaf9eb7e3917d6994a03c13405ba42867f83d85f085d",
            "0x008bce41827dd5484d80312a2e43bc42a896e3fcf75bf84c2b49339168dfa00a"
          ],
          "data": "0x0000000000000000000000000000000000000000000000000000000000000060000000000000000000000000000000000000000000000000000000000000278500000000000000000000000000000000000000000000000000038d7ea4c68000000000000000000000000000000000000000000000000000000000000000000d000000000000000000000000ca14007eff0db1f8135f4c25b34de49ab0d4276600000000000000000000000018e770e8006c6d791f476a8e74feeac33c1b62f00446bf456ae9d25bb083a57dba988fd5cb5414f832b6f1d2d4c5332aef74423300000000000000000000000000000000000000000000000000038d7ea4c68000000000000000000000000000000000000000000000000000000000000000000000000000000000000000000000000000000000000000000000000000000000070000000000000000000000000000000000000000000000000000000000000000000000000000000000000000ddb342ecc94236c29a5307d3757d0724d759453c04718f5a0fc34cc1af16a1cdee98ffb20c31f5cd61d6ab07201858f4287c938d053b40a647cedfca6ca84f542a0fe36736031905a9639a7f19a3c1e66bfd5080000000000000000000000000000000000000000000000000000000000000000000000000000000000000000000000000000000000000000000000000672ce6e000000000000000000000000000000000000000000000000000000000672ce720",
          "blockHash": "0x67bef74e18b9a9db0274b496e1c60709b6390170ee94a64d5e59b6a02658afa6",
          "blockNumber": "0x6b4934",
          "transactionHash": "0x8b44d039a72266dfe7d694a868d1e3f0cee7628f6c55f6eb90a5c748ab1afb4b",
          "transactionIndex": "0xa",
          "logIndex": "0xa",
          "removed": false
        },
        {
          "address": "0xcE5485Cfb26914C5dcE00B9BAF0580364daFC7a4",
          "topics": [
            "0x2203a49c69f1a46c1164f5e4a30643dd77b7c59c0ff9bc433256048365c247f1",
            "0x00000000000000000000000018e770e8006c6d791f476a8e74feeac33c1b62f0",
            "0x000000000000000000000000ca14007eff0db1f8135f4c25b34de49ab0d42766",
            "0x0446bf456ae9d25bb083a57dba988fd5cb5414f832b6f1d2d4c5332aef744233"
          ],
          "data": "0x00000000000000000000000000000000000000000000000000038d7ea4c680000000000000000000000000000000000000000000000000000000000000000080000000000000000000000000000000000000000000000000000000000000278500000000000000000000000000000000000000000000000000038d7ea4c6800000000000000000000000000000000000000000000000000000000000000000070000000000000000000000000000000000000000000000000000000000000000000000000000000000000000ddb342ecc94236c29a5307d3757d0724d759453c04718f5a0fc34cc1af16a1cdee98ffb20c31f5cd61d6ab07201858f4287c938d053b40a647cedfca6ca84f542a0fe36736031905a9639a7f19a3c1e66bfd5080000000000000000000000000000000000000000000000000000000000000000000000000000000000000000000000000000000000000000000000000672ce6e000000000000000000000000000000000000000000000000000000000672ce720",
          "blockHash": "0x67bef74e18b9a9db0274b496e1c60709b6390170ee94a64d5e59b6a02658afa6",
          "blockNumber": "0x6b4934",
          "transactionHash": "0x8b44d039a72266dfe7d694a868d1e3f0cee7628f6c55f6eb90a5c748ab1afb4b",
          "transactionIndex": "0xa",
          "logIndex": "0xb",
          "removed": false
        },
        {
          "address": "0x18E770E8006c6d791f476A8e74feEac33C1B62F0",
          "topics": [
            "0xaf43445f7721522b7a3864ed3de53d7e2e658bfa1eeffa18e1e229be68ce2545",
            "0x000000000000000000000000ddb342ecc94236c29a5307d3757d0724d759453c",
            "0x0446bf456ae9d25bb083a57dba988fd5cb5414f832b6f1d2d4c5332aef744233"
          ],
          "data": "0x00000000000000000000000000000000000000000000000000038d7ea4c680000000000000000000000000000000000000000000000000000000000000000001",
          "blockHash": "0x67bef74e18b9a9db0274b496e1c60709b6390170ee94a64d5e59b6a02658afa6",
          "blockNumber": "0x6b4934",
          "transactionHash": "0x8b44d039a72266dfe7d694a868d1e3f0cee7628f6c55f6eb90a5c748ab1afb4b",
          "transactionIndex": "0xa",
          "logIndex": "0xc",
          "removed": false
        }
      ],
      "status": "0x1",
      "logsBloom": "0x00000200000000000000000000020000000000000000000000000040000000000000000000000000000000000000000000000000000104000008020000200000000000000000000000000008080000000000000002000040001000000000000600000000100000000000000000000000400000100000000000000010400008002000000000000000000000030000000000008000000200000000000000000010020000800000000000000020000000021000000000000000000000008000000000800002000000024010000000080000000000200000000000840000000000000010000000010000000000020004002000000000001000000000000000000000",
      "type": "0x2",
      "effectiveGasPrice": "0x1f04e4e6d"
    }
  ],
  "libraries": [],
  "pending": [],
  "returns": {},
  "timestamp": 1730995982,
  "chain": 11155111,
  "multi": false,
  "commit": "e344443"
}