{
  "transactions": [
    {
      "hash": "0x7e5b49012ee21ac2449969082e965a80332598fbc613bbfdd7d223572f73ead2",
      "transactionType": "CALL",
      "contractName": "StarkNetToken",
      "contractAddress": "0xCa14007Eff0dB1f8135f4C25B34De49AB0d42766",
      "function": "approve(address,uint256)",
      "arguments": [
        "0x401E18AdF48A7739bdE78d6e8da2feD1194C56aE",
        "115792089237316195423570985008687907853269984665640564039457584007913129639935"
      ],
      "transaction": {
        "type": "0x02",
        "from": "0xddb342ecc94236c29a5307d3757d0724d759453c",
        "to": "0xca14007eff0db1f8135f4c25b34de49ab0d42766",
        "gas": "0xff08",
        "value": "0x0",
        "data": "0x095ea7b3000000000000000000000000401e18adf48a7739bde78d6e8da2fed1194c56aeffffffffffffffffffffffffffffffffffffffffffffffffffffffffffffffff",
        "nonce": "0x29d",
        "accessList": []
      },
      "additionalContracts": [],
      "isFixedGasLimit": false
    },
    {
      "hash": "0xd6fd866dc6bf19f93e61299f25763edce5fd6bcd5724cfbd32910fab895f2a6e",
      "transactionType": "CALL",
      "contractName": "StarkNetToken",
      "contractAddress": "0xCa14007Eff0dB1f8135f4C25B34De49AB0d42766",
      "function": "transfer(address,uint256)",
      "arguments": [
        "0x401E18AdF48A7739bdE78d6e8da2feD1194C56aE",
        "500000000000"
      ],
      "transaction": {
        "type": "0x02",
        "from": "0xddb342ecc94236c29a5307d3757d0724d759453c",
        "to": "0xca14007eff0db1f8135f4c25b34de49ab0d42766",
        "gas": "0x1339c",
        "value": "0x0",
        "data": "0xa9059cbb000000000000000000000000401e18adf48a7739bde78d6e8da2fed1194c56ae000000000000000000000000000000000000000000000000000000746a528800",
        "nonce": "0x29e",
        "accessList": []
      },
      "additionalContracts": [],
      "isFixedGasLimit": false
    },
    {
      "hash": "0xc00fadc8962c43c7989f5d03468e43c995489b68a98c9d46ffa6842ed205489f",
      "transactionType": "CALL",
      "contractName": "L1TWAMMBridge",
      "contractAddress": "0x401E18AdF48A7739bdE78d6e8da2feD1194C56aE",
      "function": "deposit(uint256,uint256)",
      "arguments": [
        "500000000000",
        "1593005272703067202249842598176259572354258342724471863641679598897887992489"
      ],
      "transaction": {
        "type": "0x02",
        "from": "0xddb342ecc94236c29a5307d3757d0724d759453c",
        "to": "0x401e18adf48a7739bde78d6e8da2fed1194c56ae",
        "gas": "0x30231",
        "value": "0x5af3107a4000",
        "data": "0xe2bbb158000000000000000000000000000000000000000000000000000000746a52880003859be98e4df6280c57e0adf5d649b20c28ba11b6943ae6b796e41148205aa9",
        "nonce": "0x29f",
        "accessList": []
      },
      "additionalContracts": [],
      "isFixedGasLimit": false
    },
    {
      "hash": "0x77552c11fb4379be6bf59b9843b38163d80768fdda8f6ce4e03d486063f15c73",
      "transactionType": "CALL",
      "contractName": "Proxy",
      "contractAddress": "0xE2Bb56ee936fd6433DC0F6e7e3b8365C906AA057",
      "function": "sendMessageToL2(uint256,uint256,uint256[])",
      "arguments": [
        "1593005272703067202249842598176259572354258342724471863641679598897887992489",
        "425952401605428413817582304755919420533935873840436977667370850915372091056",
        "[0, 1265684623727634235329190328445374361672779121980, 2009894490435840142178314390393166646092438090257831307886760648929397478285, 2366254414417873771392932940469309727793822550615514268240785277201753657472, 170141183460469235273462165868118016, 1731426960, 1731427024, 500000000000]"
      ],
      "transaction": {
        "type": "0x02",
        "from": "0xddb342ecc94236c29a5307d3757d0724d759453c",
        "to": "0xe2bb56ee936fd6433dc0f6e7e3b8365c906aa057",
        "gas": "0x173c2",
        "value": "0x5af3107a4000",
        "data": "0x3e3aa6c503859be98e4df6280c57e0adf5d649b20c28ba11b6943ae6b796e41148205aa900f1149cade9d692862ad41df96b108aa2c20af34f640457e781d166c98dc6b0000000000000000000000000000000000000000000000000000000000000006000000000000000000000000000000000000000000000000000000000000000080000000000000000000000000000000000000000000000000000000000000000000000000000000000000000ddb342ecc94236c29a5307d3757d0724d759453c04718f5a0fc34cc1af16a1cdee98ffb20c31f5cd61d6ab07201858f4287c938d053b40a647cedfca6ca84f542a0fe36736031905a9639a7f19a3c1e66bfd5080000000000000000000000000000000000020c49ba5e353f800000000000000000000000000000000000000000000000000000000000000000000000067337a900000000000000000000000000000000000000000000000000000000067337ad0000000000000000000000000000000000000000000000000000000746a528800",
        "nonce": "0x2a0",
        "accessList": []
      },
      "additionalContracts": [],
      "isFixedGasLimit": false
    }
  ],
  "receipts": [],
  "libraries": [],
  "pending": [
    "0x7e5b49012ee21ac2449969082e965a80332598fbc613bbfdd7d223572f73ead2",
    "0xd6fd866dc6bf19f93e61299f25763edce5fd6bcd5724cfbd32910fab895f2a6e",
    "0xc00fadc8962c43c7989f5d03468e43c995489b68a98c9d46ffa6842ed205489f",
    "0x77552c11fb4379be6bf59b9843b38163d80768fdda8f6ce4e03d486063f15c73"
  ],
  "returns": {},
  "timestamp": 1731427022,
  "chain": 11155111,
  "multi": false,
  "commit": "b1a5e4e"
}