{
  "transactions": [
    {
      "hash": "0x262947de2e5588da3b7b1e1e2b2c9c453e2eb653b0bf5932a8c118a03e16362f",
      "transactionType": "CALL",
      "contractName": null,
      "contractAddress": "0x67b7a14745f14c253beb5d44b767ef1bfb916253",
      "function": "setL2EndpointAddress(uint256)",
      "arguments": [
        "2569639627509262774299360552210909587064759874720422393331656688514562998158"
      ],
      "transaction": {
        "from": "0xddb342ecc94236c29a5307d3757d0724d759453c",
        "to": "0x67b7a14745f14c253beb5d44b767ef1bfb916253",
        "gas": "0xa23f",
        "value": "0x0",
        "input": "0x5155fb2f05ae5d4f1d34038e4fcb69c97df6e654b9d8aed2711be385cd8f9cae1e873f8e",
        "nonce": "0x54a",
        "chainId": "0xaa36a7"
      },
      "additionalContracts": [],
      "isFixedGasLimit": false
    }
  ],
  "receipts": [
    {
      "status": "0x1",
      "cumulativeGasUsed": "0xe5e06d",
      "logs": [
        {
          "address": "0x67b7a14745f14c253beb5d44b767ef1bfb916253",
          "topics": [
            "0xa35dce9e53611b0cabca886209c4a1d09c80214af9b6fb6027f7b2f7c39838e8"
          ],
          "data": "0x05ae5d4f1d34038e4fcb69c97df6e654b9d8aed2711be385cd8f9cae1e873f8e",
          "blockHash": "0xbfc549528142d13bbc3c39eb452bb73a7275bd0a93aa2ea0373f99afb5333142",
          "blockNumber": "0x735d27",
          "transactionHash": "0x262947de2e5588da3b7b1e1e2b2c9c453e2eb653b0bf5932a8c118a03e16362f",
          "transactionIndex": "0x88",
          "logIndex": "0xdf",
          "removed": false
        }
      ],
      "logsBloom": "0x00000000800000000000000010000000000000000000000000000000000000000000000000000000000000000000000000000000000000000000000000000000000000000000000000000000000200000000000000000000000000000000000000000000000000000000000000000000000000000000000000000000000000000000000000000000000000000000000000000000000000000000000000000000800000000000000000000000000000000000000000000000000000000000000000000000000008000000000000000000000000000000000000000000000000000000000000000000000000000000000000000010000000000000000000000000",
      "type": "0x2",
      "transactionHash": "0x262947de2e5588da3b7b1e1e2b2c9c453e2eb653b0bf5932a8c118a03e16362f",
      "transactionIndex": "0x88",
      "blockHash": "0xbfc549528142d13bbc3c39eb452bb73a7275bd0a93aa2ea0373f99afb5333142",
      "blockNumber": "0x735d27",
      "gasUsed": "0x7577",
      "effectiveGasPrice": "0x121c7c5a90",
      "from": "0xddb342ecc94236c29a5307d3757d0724d759453c",
      "to": "0x67b7a14745f14c253beb5d44b767ef1bfb916253",
      "contractAddress": null
    }
  ],
  "libraries": [],
  "pending": [],
  "returns": {},
  "timestamp": 1737715994,
  "chain": 11155111,
  "commit": "19821e3"
}