{
  "transactions": [
    {
      "hash": "0x2b26b2051d187047c408dfae2848488e8f0310e55ea6bc4880bae285a5e07778",
      "transactionType": "CALL",
      "contractName": "StarkNetToken",
      "contractAddress": "0xCa14007Eff0dB1f8135f4C25B34De49AB0d42766",
      "function": "approve(address,uint256)",
      "arguments": [
        "0xcE5485Cfb26914C5dcE00B9BAF0580364daFC7a4",
        "115792089237316195423570985008687907853269984665640564039457584007913129639935"
      ],
      "transaction": {
        "type": "0x02",
        "from": "0xddb342ecc94236c29a5307d3757d0724d759453c",
        "to": "0xca14007eff0db1f8135f4c25b34de49ab0d42766",
        "gas": "0x93a9",
        "value": "0x0",
        "data": "0x095ea7b3000000000000000000000000ce5485cfb26914c5dce00b9baf0580364dafc7a4ffffffffffffffffffffffffffffffffffffffffffffffffffffffffffffffff",
        "nonce": "0x32c",
        "accessList": []
      },
      "additionalContracts": [],
      "isFixedGasLimit": false
    },
    {
      "hash": "0x4511d7f5d63914ee5f6f5bd0371fb24ff9063895b2689f7091619e084b0b3bd7",
      "transactionType": "CALL",
      "contractName": "Proxy",
      "contractAddress": "0xE2Bb56ee936fd6433DC0F6e7e3b8365C906AA057",
      "function": "sendMessageToL2(uint256,uint256,uint256[])",
      "arguments": [
        "62301728547129837933902137800937307301715406443610871299182581282663615278",
        "425952401605428413817582304755919420533935873840436977667370850915372091056",
        "[2, 1265684623727634235329190328445374361672779121980, 0, 162645876805862407557836451532389263558424949304, 0, 0, 0, 50000000000000000, 1613553031957232432120143202400887878434836332722537805011348850121881864968]"
      ],
      "transaction": {
        "type": "0x02",
        "from": "0xddb342ecc94236c29a5307d3757d0724d759453c",
        "to": "0xe2bb56ee936fd6433dc0f6e7e3b8365c906aa057",
        "gas": "0x15f9a",
        "value": "0x38d7ea4c68000",
        "data": "0x3e3aa6c5002342f38c18e2a949efbbe36063b9f4ba7ac70d30c4b4f5d4da5c211df8cb2e00f1149cade9d692862ad41df96b108aa2c20af34f640457e781d166c98dc6b0000000000000000000000000000000000000000000000000000000000000006000000000000000000000000000000000000000000000000000000000000000090000000000000000000000000000000000000000000000000000000000000002000000000000000000000000ddb342ecc94236c29a5307d3757d0724d759453c00000000000000000000000000000000000000000000000000000000000000000000000000000000000000001c7d4b196cb0c7b01d743fbc6116a902379c723800000000000000000000000000000000000000000000000000000000000000000000000000000000000000000000000000000000000000000000000000000000000000000000000000000000000000000000000000000000000000000000000000000000000000000000000000000000000000000000000000b1a2bc2ec5000003913d184e537671dfeca3f67015bb845f2d12a26e5ec56bdc495913b20acb08",
        "nonce": "0x32d",
        "accessList": []
      },
      "additionalContracts": [],
      "isFixedGasLimit": false
    }
  ],
  "receipts": [],
  "libraries": [],
  "pending": [
    "0x2b26b2051d187047c408dfae2848488e8f0310e55ea6bc4880bae285a5e07778",
    "0x4511d7f5d63914ee5f6f5bd0371fb24ff9063895b2689f7091619e084b0b3bd7"
  ],
  "returns": {},
  "timestamp": 1731758001,
  "chain": 11155111,
  "multi": false,
  "commit": "945f7f2"
}