{
  "transactions": [
    {
      "hash": "0xafa0378eeabe7ed58904f183a5afe73fb6f0c13fa9a71edabbd1be000a2736f8",
      "transactionType": "CALL",
      "contractName": "StarkNetToken",
      "contractAddress": "0xCa14007Eff0dB1f8135f4C25B34De49AB0d42766",
      "function": "approve(address,uint256)",
      "arguments": [
        "0xDd2a2bC41f947cdCd3F173fD03CD15b5a66Cd6b5",
        "115792089237316195423570985008687907853269984665640564039457584007913129639935"
      ],
      "transaction": {
        "type": "0x02",
        "from": "0xddb342ecc94236c29a5307d3757d0724d759453c",
        "to": "0xca14007eff0db1f8135f4c25b34de49ab0d42766",
        "gas": "0x93a9",
        "value": "0x0",
        "data": "0x095ea7b3000000000000000000000000dd2a2bc41f947cdcd3f173fd03cd15b5a66cd6b5ffffffffffffffffffffffffffffffffffffffffffffffffffffffffffffffff",
        "nonce": "0x1bc",
        "accessList": []
      },
      "additionalContracts": [],
      "isFixedGasLimit": false
    },
    {
      "hash": "0xead7d335b3cd4af76d959c2feb8d6186cc813b94d73272f2d843da2edccc13d0",
      "transactionType": "CALL",
      "contractName": "StarkNetToken",
      "contractAddress": "0xCa14007Eff0dB1f8135f4C25B34De49AB0d42766",
      "function": "transfer(address,uint256)",
      "arguments": [
        "0xDd2a2bC41f947cdCd3F173fD03CD15b5a66Cd6b5",
        "1000000000000000"
      ],
      "transaction": {
        "type": "0x02",
        "from": "0xddb342ecc94236c29a5307d3757d0724d759453c",
        "to": "0xca14007eff0db1f8135f4c25b34de49ab0d42766",
        "gas": "0xe427",
        "value": "0x0",
        "data": "0xa9059cbb000000000000000000000000dd2a2bc41f947cdcd3f173fd03cd15b5a66cd6b500000000000000000000000000000000000000000000000000038d7ea4c68000",
        "nonce": "0x1bd",
        "accessList": []
      },
      "additionalContracts": [],
      "isFixedGasLimit": false
    },
    {
      "hash": "0xe2681ccfe2d53094be6cf5ace1e5b255a60e91552c63a1b3955e9e760f7fe3b0",
      "transactionType": "CALL",
      "contractName": "L1TWAMMBridge",
      "contractAddress": "0xDd2a2bC41f947cdCd3F173fD03CD15b5a66Cd6b5",
      "function": "depositAndCreateOrder((address,address,address,uint128,uint128,uint128,uint128,uint256))",
      "arguments": [
        "(0xDdb342ecc94236c29a5307d3757d0724D759453C, 0xCa14007Eff0dB1f8135f4C25B34De49AB0d42766, 0xCa14007Eff0dB1f8135f4C25B34De49AB0d42766, 10000000000000000, 1730875760, 1730875824, 1000000000000000, 1647970598847617027890947728899760175249314077903923387400359173436953475181)"
      ],
      "transaction": {
        "type": "0x02",
        "from": "0xddb342ecc94236c29a5307d3757d0724d759453c",
        "to": "0xdd2a2bc41f947cdcd3f173fd03cd15b5a66cd6b5",
        "gas": "0x3e1eb",
        "value": "0x2386f26fc10000",
        "data": "0x9d251505000000000000000000000000ddb342ecc94236c29a5307d3757d0724d759453c000000000000000000000000ca14007eff0db1f8135f4c25b34de49ab0d42766000000000000000000000000ca14007eff0db1f8135f4c25b34de49ab0d42766000000000000000000000000000000000000000000000000002386f26fc1000000000000000000000000000000000000000000000000000000000000672b117000000000000000000000000000000000000000000000000000000000672b11b000000000000000000000000000000000000000000000000000038d7ea4c6800003a4b7e2d060bd8eb48e2db10f16c1303b131c266cc928902c3a3a8ead7e386d",
        "nonce": "0x1be",
        "accessList": []
      },
      "additionalContracts": [],
      "isFixedGasLimit": false
    }
  ],
  "receipts": [
    {
      "transactionHash": "0xafa0378eeabe7ed58904f183a5afe73fb6f0c13fa9a71edabbd1be000a2736f8",
      "transactionIndex": "0xa",
      "blockHash": "0xca7992c9b8c7eaa1e35d2825445eee6b1ed403770d6f9b633f0a438eb73337b2",
      "blockNumber": "0x6b2572",
      "from": "0xDdb342ecc94236c29a5307d3757d0724D759453C",
      "to": "0xCa14007Eff0dB1f8135f4C25B34De49AB0d42766",
      "cumulativeGasUsed": "0x9e421",
      "gasUsed": "0x6ae8",
      "contractAddress": null,
      "logs": [
        {
          "address": "0xCa14007Eff0dB1f8135f4C25B34De49AB0d42766",
          "topics": [
            "0x8c5be1e5ebec7d5bd14f71427d1e84f3dd0314c0f7b2291e5b200ac8c7c3b925",
            "0x000000000000000000000000ddb342ecc94236c29a5307d3757d0724d759453c",
            "0x000000000000000000000000dd2a2bc41f947cdcd3f173fd03cd15b5a66cd6b5"
          ],
          "data": "0xffffffffffffffffffffffffffffffffffffffffffffffffffffffffffffffff",
          "blockHash": "0xca7992c9b8c7eaa1e35d2825445eee6b1ed403770d6f9b633f0a438eb73337b2",
          "blockNumber": "0x6b2572",
          "transactionHash": "0xafa0378eeabe7ed58904f183a5afe73fb6f0c13fa9a71edabbd1be000a2736f8",
          "transactionIndex": "0xa",
          "logIndex": "0x7",
          "removed": false
        }
      ],
      "status": "0x1",
      "logsBloom": "0x00000000000000200000000000020000000000000000000000000000000000000000000000000000000000000000000000000000000000000000000000200000000000000000000000000000000000000000000000000000000000000000000400000000000000000000000000000000400000000000000000000000400000000000000000000000000000000000000000000000000000000000000000000000020000000000000000000000000000000000000000000000000000000000000000000000020000020000000000000000000000000000000000800000000000000010000000000000000000000000000000000000001000000000000000000000",
      "type": "0x2",
      "effectiveGasPrice": "0x316246c54"
    },
    {
      "transactionHash": "0xead7d335b3cd4af76d959c2feb8d6186cc813b94d73272f2d843da2edccc13d0",
      "transactionIndex": "0xb",
      "blockHash": "0xca7992c9b8c7eaa1e35d2825445eee6b1ed403770d6f9b633f0a438eb73337b2",
      "blockNumber": "0x6b2572",
      "from": "0xDdb342ecc94236c29a5307d3757d0724D759453C",
      "to": "0xCa14007Eff0dB1f8135f4C25B34De49AB0d42766",
      "cumulativeGasUsed": "0xa8022",
      "gasUsed": "0x9c01",
      "contractAddress": null,
      "logs": [
        {
          "address": "0xCa14007Eff0dB1f8135f4C25B34De49AB0d42766",
          "topics": [
            "0xddf252ad1be2c89b69c2b068fc378daa952ba7f163c4a11628f55a4df523b3ef",
            "0x000000000000000000000000ddb342ecc94236c29a5307d3757d0724d759453c",
            "0x000000000000000000000000dd2a2bc41f947cdcd3f173fd03cd15b5a66cd6b5"
          ],
          "data": "0x00000000000000000000000000000000000000000000000000038d7ea4c68000",
          "blockHash": "0xca7992c9b8c7eaa1e35d2825445eee6b1ed403770d6f9b633f0a438eb73337b2",
          "blockNumber": "0x6b2572",
          "transactionHash": "0xead7d335b3cd4af76d959c2feb8d6186cc813b94d73272f2d843da2edccc13d0",
          "transactionIndex": "0xb",
          "logIndex": "0x8",
          "removed": false
        }
      ],
      "status": "0x1",
      "logsBloom": "0x00000000000000200000000000020000000000000000000000000000000000000000000000000000000000000000000000000000000000000000000000000000000000000000000000000008000000000000000000000000000000000000000400000000000000000000000000000000400000000000000000000010400000000000000000000000000000000000000000000000000000000000000000000000000000000000000000000000000000000000000000000000000000000000000000000002020000020000000000000000000000000000000000800000000000000000000000000000000000000000000000000000001000000000000000000000",
      "type": "0x2",
      "effectiveGasPrice": "0x316246c54"
    },
    {
      "transactionHash": "0xe2681ccfe2d53094be6cf5ace1e5b255a60e91552c63a1b3955e9e760f7fe3b0",
      "transactionIndex": "0xc",
      "blockHash": "0xca7992c9b8c7eaa1e35d2825445eee6b1ed403770d6f9b633f0a438eb73337b2",
      "blockNumber": "0x6b2572",
      "from": "0xDdb342ecc94236c29a5307d3757d0724D759453C",
      "to": "0xDd2a2bC41f947cdCd3F173fD03CD15b5a66Cd6b5",
      "cumulativeGasUsed": "0xd23b0",
      "gasUsed": "0x2a38e",
      "contractAddress": null,
      "logs": [
        {
          "address": "0xCa14007Eff0dB1f8135f4C25B34De49AB0d42766",
          "topics": [
            "0xddf252ad1be2c89b69c2b068fc378daa952ba7f163c4a11628f55a4df523b3ef",
            "0x000000000000000000000000ddb342ecc94236c29a5307d3757d0724d759453c",
            "0x000000000000000000000000dd2a2bc41f947cdcd3f173fd03cd15b5a66cd6b5"
          ],
          "data": "0x00000000000000000000000000000000000000000000000000038d7ea4c68000",
          "blockHash": "0xca7992c9b8c7eaa1e35d2825445eee6b1ed403770d6f9b633f0a438eb73337b2",
          "blockNumber": "0x6b2572",
          "transactionHash": "0xe2681ccfe2d53094be6cf5ace1e5b255a60e91552c63a1b3955e9e760f7fe3b0",
          "transactionIndex": "0xc",
          "logIndex": "0x9",
          "removed": false
        },
        {
          "address": "0xCa14007Eff0dB1f8135f4C25B34De49AB0d42766",
          "topics": [
            "0x8c5be1e5ebec7d5bd14f71427d1e84f3dd0314c0f7b2291e5b200ac8c7c3b925",
            "0x000000000000000000000000dd2a2bc41f947cdcd3f173fd03cd15b5a66cd6b5",
            "0x000000000000000000000000ce5485cfb26914c5dce00b9baf0580364dafc7a4"
          ],
          "data": "0x0000000000000000000000000000000000000000000000000000000000000000",
          "blockHash": "0xca7992c9b8c7eaa1e35d2825445eee6b1ed403770d6f9b633f0a438eb73337b2",
          "blockNumber": "0x6b2572",
          "transactionHash": "0xe2681ccfe2d53094be6cf5ace1e5b255a60e91552c63a1b3955e9e760f7fe3b0",
          "transactionIndex": "0xc",
          "logIndex": "0xa",
          "removed": false
        },
        {
          "address": "0xCa14007Eff0dB1f8135f4C25B34De49AB0d42766",
          "topics": [
            "0x8c5be1e5ebec7d5bd14f71427d1e84f3dd0314c0f7b2291e5b200ac8c7c3b925",
            "0x000000000000000000000000dd2a2bc41f947cdcd3f173fd03cd15b5a66cd6b5",
            "0x000000000000000000000000ce5485cfb26914c5dce00b9baf0580364dafc7a4"
          ],
          "data": "0x00000000000000000000000000000000000000000000000000038d7ea4c68000",
          "blockHash": "0xca7992c9b8c7eaa1e35d2825445eee6b1ed403770d6f9b633f0a438eb73337b2",
          "blockNumber": "0x6b2572",
          "transactionHash": "0xe2681ccfe2d53094be6cf5ace1e5b255a60e91552c63a1b3955e9e760f7fe3b0",
          "transactionIndex": "0xc",
          "logIndex": "0xb",
          "removed": false
        },
        {
          "address": "0xCa14007Eff0dB1f8135f4C25B34De49AB0d42766",
          "topics": [
            "0x8c5be1e5ebec7d5bd14f71427d1e84f3dd0314c0f7b2291e5b200ac8c7c3b925",
            "0x000000000000000000000000dd2a2bc41f947cdcd3f173fd03cd15b5a66cd6b5",
            "0x000000000000000000000000ce5485cfb26914c5dce00b9baf0580364dafc7a4"
          ],
          "data": "0x0000000000000000000000000000000000000000000000000000000000000000",
          "blockHash": "0xca7992c9b8c7eaa1e35d2825445eee6b1ed403770d6f9b633f0a438eb73337b2",
          "blockNumber": "0x6b2572",
          "transactionHash": "0xe2681ccfe2d53094be6cf5ace1e5b255a60e91552c63a1b3955e9e760f7fe3b0",
          "transactionIndex": "0xc",
          "logIndex": "0xc",
          "removed": false
        },
        {
          "address": "0xCa14007Eff0dB1f8135f4C25B34De49AB0d42766",
          "topics": [
            "0xddf252ad1be2c89b69c2b068fc378daa952ba7f163c4a11628f55a4df523b3ef",
            "0x000000000000000000000000dd2a2bc41f947cdcd3f173fd03cd15b5a66cd6b5",
            "0x000000000000000000000000ce5485cfb26914c5dce00b9baf0580364dafc7a4"
          ],
          "data": "0x00000000000000000000000000000000000000000000000000038d7ea4c68000",
          "blockHash": "0xca7992c9b8c7eaa1e35d2825445eee6b1ed403770d6f9b633f0a438eb73337b2",
          "blockNumber": "0x6b2572",
          "transactionHash": "0xe2681ccfe2d53094be6cf5ace1e5b255a60e91552c63a1b3955e9e760f7fe3b0",
          "transactionIndex": "0xc",
          "logIndex": "0xd",
          "removed": false
        },
        {
          "address": "0xE2Bb56ee936fd6433DC0F6e7e3b8365C906AA057",
          "topics": [
            "0xdb80dd488acf86d17c747445b0eabb5d57c541d3bd7b6b87af987858e5066b2b",
            "0x000000000000000000000000ce5485cfb26914c5dce00b9baf0580364dafc7a4",
            "0x0594c1582459ea03f77deaf9eb7e3917d6994a03c13405ba42867f83d85f085d",
            "0x008bce41827dd5484d80312a2e43bc42a896e3fcf75bf84c2b49339168dfa00a"
          ],
          "data": "0x00000000000000000000000000000000000000000000000000000000000000600000000000000000000000000000000000000000000000000000000000002754000000000000000000000000000000000000000000000000002386f26fc10000000000000000000000000000000000000000000000000000000000000000000d000000000000000000000000ca14007eff0db1f8135f4c25b34de49ab0d42766000000000000000000000000dd2a2bc41f947cdcd3f173fd03cd15b5a66cd6b503a4b7e2d060bd8eb48e2db10f16c1303b131c266cc928902c3a3a8ead7e386d00000000000000000000000000000000000000000000000000038d7ea4c68000000000000000000000000000000000000000000000000000000000000000000000000000000000000000000000000000000000000000000000000000000000070000000000000000000000000000000000000000000000000000000000000000000000000000000000000000ddb342ecc94236c29a5307d3757d0724d759453c000000000000000000000000ca14007eff0db1f8135f4c25b34de49ab0d42766000000000000000000000000ca14007eff0db1f8135f4c25b34de49ab0d42766000000000000000000000000000000000000000000000000002386f26fc1000000000000000000000000000000000000000000000000000000000000672b117000000000000000000000000000000000000000000000000000000000672b11b0",
          "blockHash": "0xca7992c9b8c7eaa1e35d2825445eee6b1ed403770d6f9b633f0a438eb73337b2",
          "blockNumber": "0x6b2572",
          "transactionHash": "0xe2681ccfe2d53094be6cf5ace1e5b255a60e91552c63a1b3955e9e760f7fe3b0",
          "transactionIndex": "0xc",
          "logIndex": "0xe",
          "removed": false
        },
        {
          "address": "0xcE5485Cfb26914C5dcE00B9BAF0580364daFC7a4",
          "topics": [
            "0x2203a49c69f1a46c1164f5e4a30643dd77b7c59c0ff9bc433256048365c247f1",
            "0x000000000000000000000000dd2a2bc41f947cdcd3f173fd03cd15b5a66cd6b5",
            "0x000000000000000000000000ca14007eff0db1f8135f4c25b34de49ab0d42766",
            "0x03a4b7e2d060bd8eb48e2db10f16c1303b131c266cc928902c3a3a8ead7e386d"
          ],
          "data": "0x00000000000000000000000000000000000000000000000000038d7ea4c6800000000000000000000000000000000000000000000000000000000000000000800000000000000000000000000000000000000000000000000000000000002754000000000000000000000000000000000000000000000000002386f26fc1000000000000000000000000000000000000000000000000000000000000000000070000000000000000000000000000000000000000000000000000000000000000000000000000000000000000ddb342ecc94236c29a5307d3757d0724d759453c000000000000000000000000ca14007eff0db1f8135f4c25b34de49ab0d42766000000000000000000000000ca14007eff0db1f8135f4c25b34de49ab0d42766000000000000000000000000000000000000000000000000002386f26fc1000000000000000000000000000000000000000000000000000000000000672b117000000000000000000000000000000000000000000000000000000000672b11b0",
          "blockHash": "0xca7992c9b8c7eaa1e35d2825445eee6b1ed403770d6f9b633f0a438eb73337b2",
          "blockNumber": "0x6b2572",
          "transactionHash": "0xe2681ccfe2d53094be6cf5ace1e5b255a60e91552c63a1b3955e9e760f7fe3b0",
          "transactionIndex": "0xc",
          "logIndex": "0xf",
          "removed": false
        },
        {
          "address": "0xDd2a2bC41f947cdCd3F173fD03CD15b5a66Cd6b5",
          "topics": [
            "0xaf43445f7721522b7a3864ed3de53d7e2e658bfa1eeffa18e1e229be68ce2545",
            "0x000000000000000000000000ddb342ecc94236c29a5307d3757d0724d759453c",
            "0x03a4b7e2d060bd8eb48e2db10f16c1303b131c266cc928902c3a3a8ead7e386d"
          ],
          "data": "0x00000000000000000000000000000000000000000000000000038d7ea4c680000000000000000000000000000000000000000000000000000000000000000001",
          "blockHash": "0xca7992c9b8c7eaa1e35d2825445eee6b1ed403770d6f9b633f0a438eb73337b2",
          "blockNumber": "0x6b2572",
          "transactionHash": "0xe2681ccfe2d53094be6cf5ace1e5b255a60e91552c63a1b3955e9e760f7fe3b0",
          "transactionIndex": "0xc",
          "logIndex": "0x10",
          "removed": false
        }
      ],
      "status": "0x1",
      "logsBloom": "0x00000200000000200000000000020000000000000000000000000042000000000000000000000000000000000000000000000000000004000000020000200000000000000000000000000008080000000000000000000040001000000000400600000000100000000000000000000000400000000000000000000010400008002000000000000000000000020000200000008000000200000100000000000010020000800000000000000020000000021000000000000000000000000000000000800002020000024010000040000000000000200000000000800000200000000010000000010000000000020004000000000000001000000000000000000000",
      "type": "0x2",
      "effectiveGasPrice": "0x316246c54"
    }
  ],
  "libraries": [],
  "pending": [],
  "returns": {},
  "timestamp": 1730875826,
  "chain": 11155111,
  "multi": false,
  "commit": "71ba860"
}