{
  "transactions": [
    {
      "hash": "0x987766c81409ce5a1c1e2376c5d1385662ba1823c5ff68d6886bced26740f141",
      "transactionType": "CALL",
      "contractName": null,
      "contractAddress": "0xca14007eff0db1f8135f4c25b34de49ab0d42766",
      "function": "approve(address,uint256)",
      "arguments": [
        "0xcE5485Cfb26914C5dcE00B9BAF0580364daFC7a4",
        "115792089237316195423570985008687907853269984665640564039457584007913129639935"
      ],
      "transaction": {
        "from": "0xddb342ecc94236c29a5307d3757d0724d759453c",
        "to": "0xca14007eff0db1f8135f4c25b34de49ab0d42766",
        "gas": "0x93a9",
        "value": "0x0",
        "input": "0x095ea7b3000000000000000000000000ce5485cfb26914c5dce00b9baf0580364dafc7a4ffffffffffffffffffffffffffffffffffffffffffffffffffffffffffffffff",
        "nonce": "0x43a",
        "chainId": "0xaa36a7"
      },
      "additionalContracts": [],
      "isFixedGasLimit": false
    },
    {
      "hash": "0x8bc3900b5b8405f75e158e1d44841d2b7f0b7e006a89cc3eb3a70dd21f08cfca",
      "transactionType": "CALL",
      "contractName": null,
      "contractAddress": "0xce5485cfb26914c5dce00b9baf0580364dafc7a4",
      "function": "depositWithMessage(address,uint256,uint256,uint256[])",
      "arguments": [
        "0xCa14007Eff0dB1f8135f4C25B34De49AB0d42766",
        "700000000000000",
        "2932202427945065394137390132547565409350242376166854054769138269551944290616",
        "[0, 1265684623727634235329190328445374361672779121980, 2009894490435840142178314390393166646092438090257831307886760648929397478285, 2366254414417873771392932940469309727793822550615514268240785277201753657472, 170141183460469235273462165868118016, 1736152048, 1736152176, 700000000000000]"
      ],
      "transaction": {
        "from": "0xddb342ecc94236c29a5307d3757d0724d759453c",
        "to": "0xce5485cfb26914c5dce00b9baf0580364dafc7a4",
        "gas": "0x3045a",
        "value": "0x1c6bf52634000",
        "input": "0xbe58b18e000000000000000000000000ca14007eff0db1f8135f4c25b34de49ab0d4276600000000000000000000000000000000000000000000000000027ca57357c000067b9158ced56f8c01771e5d4fa46791f3d1b87edc5890413c71baeb16085138000000000000000000000000000000000000000000000000000000000000008000000000000000000000000000000000000000000000000000000000000000080000000000000000000000000000000000000000000000000000000000000000000000000000000000000000ddb342ecc94236c29a5307d3757d0724d759453c04718f5a0fc34cc1af16a1cdee98ffb20c31f5cd61d6ab07201858f4287c938d053b40a647cedfca6ca84f542a0fe36736031905a9639a7f19a3c1e66bfd5080000000000000000000000000000000000020c49ba5e353f8000000000000000000000000000000000000000000000000000000000000000000000000677b93f000000000000000000000000000000000000000000000000000000000677b947000000000000000000000000000000000000000000000000000027ca57357c000",
        "nonce": "0x43b",
        "chainId": "0xaa36a7"
      },
      "additionalContracts": [],
      "isFixedGasLimit": false
    }
  ],
  "receipts": [
    {
      "status": "0x1",
      "cumulativeGasUsed": "0x123fded",
      "logs": [
        {
          "address": "0xca14007eff0db1f8135f4c25b34de49ab0d42766",
          "topics": [
            "0x8c5be1e5ebec7d5bd14f71427d1e84f3dd0314c0f7b2291e5b200ac8c7c3b925",
            "0x000000000000000000000000ddb342ecc94236c29a5307d3757d0724d759453c",
            "0x000000000000000000000000ce5485cfb26914c5dce00b9baf0580364dafc7a4"
          ],
          "data": "0xffffffffffffffffffffffffffffffffffffffffffffffffffffffffffffffff",
          "blockHash": "0x77da8602d05d54be6881edfe608ea02fac5732a3c41041042c51c60b1eb1082f",
          "blockNumber": "0x716726",
          "transactionHash": "0x987766c81409ce5a1c1e2376c5d1385662ba1823c5ff68d6886bced26740f141",
          "transactionIndex": "0x74",
          "logIndex": "0xe5",
          "removed": false
        }
      ],
      "logsBloom": "0x00000000000000000000000000000000000000000000000000000000000000000000000000000000000000000000000000000000000000000000000000200000000000000000000000000000000000000000000000000000000000000000000400000000000000000000000000000000400000000000000000000000400008000000000000000000000000000000000000000000000000000000000000000000020000000000000000000000000000001000000000000000000000000000000000000000000000020010000000000000000000000000000000800000000000000010000000000000000000000000000000000000001000000000000000000000",
      "type": "0x2",
      "transactionHash": "0x987766c81409ce5a1c1e2376c5d1385662ba1823c5ff68d6886bced26740f141",
      "transactionIndex": "0x74",
      "blockHash": "0x77da8602d05d54be6881edfe608ea02fac5732a3c41041042c51c60b1eb1082f",
      "blockNumber": "0x716726",
      "gasUsed": "0x6ae8",
      "effectiveGasPrice": "0x97a22380a",
      "from": "0xddb342ecc94236c29a5307d3757d0724d759453c",
      "to": "0xca14007eff0db1f8135f4c25b34de49ab0d42766",
      "contractAddress": null
    },
    {
      "status": "0x1",
      "cumulativeGasUsed": "0x1260e08",
      "logs": [
        {
          "address": "0xca14007eff0db1f8135f4c25b34de49ab0d42766",
          "topics": [
            "0xddf252ad1be2c89b69c2b068fc378daa952ba7f163c4a11628f55a4df523b3ef",
            "0x000000000000000000000000ddb342ecc94236c29a5307d3757d0724d759453c",
            "0x000000000000000000000000ce5485cfb26914c5dce00b9baf0580364dafc7a4"
          ],
          "data": "0x00000000000000000000000000000000000000000000000000027ca57357c000",
          "blockHash": "0x77da8602d05d54be6881edfe608ea02fac5732a3c41041042c51c60b1eb1082f",
          "blockNumber": "0x716726",
          "transactionHash": "0x8bc3900b5b8405f75e158e1d44841d2b7f0b7e006a89cc3eb3a70dd21f08cfca",
          "transactionIndex": "0x75",
          "logIndex": "0xe6",
          "removed": false
        },
        {
          "address": "0xe2bb56ee936fd6433dc0f6e7e3b8365c906aa057",
          "topics": [
            "0xdb80dd488acf86d17c747445b0eabb5d57c541d3bd7b6b87af987858e5066b2b",
            "0x000000000000000000000000ce5485cfb26914c5dce00b9baf0580364dafc7a4",
            "0x0594c1582459ea03f77deaf9eb7e3917d6994a03c13405ba42867f83d85f085d",
            "0x008bce41827dd5484d80312a2e43bc42a896e3fcf75bf84c2b49339168dfa00a"
          ],
          "data": "0x00000000000000000000000000000000000000000000000000000000000000600000000000000000000000000000000000000000000000000000000000002b260000000000000000000000000000000000000000000000000001c6bf52634000000000000000000000000000000000000000000000000000000000000000000e000000000000000000000000ca14007eff0db1f8135f4c25b34de49ab0d42766000000000000000000000000ddb342ecc94236c29a5307d3757d0724d759453c067b9158ced56f8c01771e5d4fa46791f3d1b87edc5890413c71baeb1608513800000000000000000000000000000000000000000000000000027ca57357c000000000000000000000000000000000000000000000000000000000000000000000000000000000000000000000000000000000000000000000000000000000080000000000000000000000000000000000000000000000000000000000000000000000000000000000000000ddb342ecc94236c29a5307d3757d0724d759453c04718f5a0fc34cc1af16a1cdee98ffb20c31f5cd61d6ab07201858f4287c938d053b40a647cedfca6ca84f542a0fe36736031905a9639a7f19a3c1e66bfd5080000000000000000000000000000000000020c49ba5e353f8000000000000000000000000000000000000000000000000000000000000000000000000677b93f000000000000000000000000000000000000000000000000000000000677b947000000000000000000000000000000000000000000000000000027ca57357c000",
          "blockHash": "0x77da8602d05d54be6881edfe608ea02fac5732a3c41041042c51c60b1eb1082f",
          "blockNumber": "0x716726",
          "transactionHash": "0x8bc3900b5b8405f75e158e1d44841d2b7f0b7e006a89cc3eb3a70dd21f08cfca",
          "transactionIndex": "0x75",
          "logIndex": "0xe7",
          "removed": false
        },
        {
          "address": "0xce5485cfb26914c5dce00b9baf0580364dafc7a4",
          "topics": [
            "0x2203a49c69f1a46c1164f5e4a30643dd77b7c59c0ff9bc433256048365c247f1",
            "0x000000000000000000000000ddb342ecc94236c29a5307d3757d0724d759453c",
            "0x000000000000000000000000ca14007eff0db1f8135f4c25b34de49ab0d42766",
            "0x067b9158ced56f8c01771e5d4fa46791f3d1b87edc5890413c71baeb16085138"
          ],
          "data": "0x00000000000000000000000000000000000000000000000000027ca57357c00000000000000000000000000000000000000000000000000000000000000000800000000000000000000000000000000000000000000000000000000000002b260000000000000000000000000000000000000000000000000001c6bf5263400000000000000000000000000000000000000000000000000000000000000000080000000000000000000000000000000000000000000000000000000000000000000000000000000000000000ddb342ecc94236c29a5307d3757d0724d759453c04718f5a0fc34cc1af16a1cdee98ffb20c31f5cd61d6ab07201858f4287c938d053b40a647cedfca6ca84f542a0fe36736031905a9639a7f19a3c1e66bfd5080000000000000000000000000000000000020c49ba5e353f8000000000000000000000000000000000000000000000000000000000000000000000000677b93f000000000000000000000000000000000000000000000000000000000677b947000000000000000000000000000000000000000000000000000027ca57357c000",
          "blockHash": "0x77da8602d05d54be6881edfe608ea02fac5732a3c41041042c51c60b1eb1082f",
          "blockNumber": "0x716726",
          "transactionHash": "0x8bc3900b5b8405f75e158e1d44841d2b7f0b7e006a89cc3eb3a70dd21f08cfca",
          "transactionIndex": "0x75",
          "logIndex": "0xe8",
          "removed": false
        }
      ],
      "logsBloom": "0x00000000000000000000000000020000000000000000000000000040000000000000000000000000000000000000000000000000000004000000020000000000000000000000000000000008080000000000000000000040001000000000000400000000100000000000001000000000400000000000000000000010400008002000000000000000000000020000000000008000000200000000000000000010000000000000000000000020000000021000002000000000000000000000000000800002000000024010000000000000000000200400000000800000000000000000000000010000000000020004000000000000001000000000000000000000",
      "type": "0x2",
      "transactionHash": "0x8bc3900b5b8405f75e158e1d44841d2b7f0b7e006a89cc3eb3a70dd21f08cfca",
      "transactionIndex": "0x75",
      "blockHash": "0x77da8602d05d54be6881edfe608ea02fac5732a3c41041042c51c60b1eb1082f",
      "blockNumber": "0x716726",
      "gasUsed": "0x2101b",
      "effectiveGasPrice": "0x97a22380a",
      "from": "0xddb342ecc94236c29a5307d3757d0724d759453c",
      "to": "0xce5485cfb26914c5dce00b9baf0580364dafc7a4",
      "contractAddress": null
    }
  ],
  "libraries": [],
  "pending": [],
  "returns": {},
  "timestamp": 1736152070,
  "chain": 11155111,
  "commit": "3ea534e"
}