{
  "transactions": [
    {
      "hash": "0xe5708034ae5fa7ff7db8bb53240ed3398c821f6c168664bed70a008c9ef0fe1d",
      "transactionType": "CALL",
      "contractName": "StarkNetToken",
      "contractAddress": "0xCa14007Eff0dB1f8135f4C25B34De49AB0d42766",
      "function": "approve(address,uint256)",
      "arguments": [
        "0x22C03EE9eAF066495c805EFC04ee4b482fea6137",
        "115792089237316195423570985008687907853269984665640564039457584007913129639935"
      ],
      "transaction": {
        "type": "0x02",
        "from": "0xddb342ecc94236c29a5307d3757d0724d759453c",
        "to": "0xca14007eff0db1f8135f4c25b34de49ab0d42766",
        "gas": "0x93a9",
        "value": "0x0",
        "data": "0x095ea7b300000000000000000000000022c03ee9eaf066495c805efc04ee4b482fea6137ffffffffffffffffffffffffffffffffffffffffffffffffffffffffffffffff",
        "nonce": "0x2d0",
        "accessList": []
      },
      "additionalContracts": [],
      "isFixedGasLimit": false
    },
    {
      "hash": "0x27c4449a27efa0627badcdf38221d88c308dfd69a96fd11d665ad77ce442456c",
      "transactionType": "CALL",
      "contractName": "StarkNetToken",
      "contractAddress": "0xCa14007Eff0dB1f8135f4C25B34De49AB0d42766",
      "function": "transfer(address,uint256)",
      "arguments": [
        "0x22C03EE9eAF066495c805EFC04ee4b482fea6137",
        "500000000000"
      ],
      "transaction": {
        "type": "0x02",
        "from": "0xddb342ecc94236c29a5307d3757d0724d759453c",
        "to": "0xca14007eff0db1f8135f4c25b34de49ab0d42766",
        "gas": "0x1339c",
        "value": "0x0",
        "data": "0xa9059cbb00000000000000000000000022c03ee9eaf066495c805efc04ee4b482fea6137000000000000000000000000000000000000000000000000000000746a528800",
        "nonce": "0x2d1",
        "accessList": []
      },
      "additionalContracts": [],
      "isFixedGasLimit": false
    },
    {
      "hash": "0xf545de304e26dfd81fc7bcd2d013c9f7f932e7b1019cf53972bf41ace3ec0caf",
      "transactionType": "CALL",
      "contractName": "L1TWAMMBridge",
      "contractAddress": "0x22C03EE9eAF066495c805EFC04ee4b482fea6137",
      "function": "deposit(uint256,uint256)",
      "arguments": [
        "500000000000",
        "2998091806065710591252079788641021476463271876874862055092610509344621264852"
      ],
      "transaction": {
        "type": "0x02",
        "from": "0xddb342ecc94236c29a5307d3757d0724d759453c",
        "to": "0x22c03ee9eaf066495c805efc04ee4b482fea6137",
        "gas": "0x30231",
        "value": "0x5af3107a4000",
        "data": "0xe2bbb158000000000000000000000000000000000000000000000000000000746a52880006a0dc1dac811a0462737db5d09225dffbc1b7f72e0b895c1cf82243d484ffd4",
        "nonce": "0x2d2",
        "accessList": []
      },
      "additionalContracts": [],
      "isFixedGasLimit": false
    },
    {
      "hash": "0x4a3eaa903cd7bd394ca62c1ec64e984149b89f2b2bf249e8d2cd70f2f3f94fac",
      "transactionType": "CALL",
      "contractName": "Proxy",
      "contractAddress": "0xE2Bb56ee936fd6433DC0F6e7e3b8365C906AA057",
      "function": "sendMessageToL2(uint256,uint256,uint256[])",
      "arguments": [
        "2998091806065710591252079788641021476463271876874862055092610509344621264852",
        "425952401605428413817582304755919420533935873840436977667370850915372091056",
        "[2, 0, 0, 0, 0, 0, 0, 500000000000]"
      ],
      "transaction": {
        "type": "0x02",
        "from": "0xddb342ecc94236c29a5307d3757d0724d759453c",
        "to": "0xe2bb56ee936fd6433dc0f6e7e3b8365c906aa057",
        "gas": "0x16d0a",
        "value": "0x5af3107a4000",
        "data": "0x3e3aa6c506a0dc1dac811a0462737db5d09225dffbc1b7f72e0b895c1cf82243d484ffd400f1149cade9d692862ad41df96b108aa2c20af34f640457e781d166c98dc6b0000000000000000000000000000000000000000000000000000000000000006000000000000000000000000000000000000000000000000000000000000000080000000000000000000000000000000000000000000000000000000000000002000000000000000000000000000000000000000000000000000000000000000000000000000000000000000000000000000000000000000000000000000000000000000000000000000000000000000000000000000000000000000000000000000000000000000000000000000000000000000000000000000000000000000000000000000000000000000000000000000000000000000000000000000000000000000000000000000000000000000000000000000000000000000000000000000000000000000000000000000000000000000000000000000000746a528800",
        "nonce": "0x2d3",
        "accessList": []
      },
      "additionalContracts": [],
      "isFixedGasLimit": false
    }
  ],
  "receipts": [
    {
      "transactionHash": "0xe5708034ae5fa7ff7db8bb53240ed3398c821f6c168664bed70a008c9ef0fe1d",
      "transactionIndex": "0x8",
      "blockHash": "0x29936a7ab471a5dce837b4c3ddce49f06addb4889d2cfd1dfe8d11fb6bbadd0f",
      "blockNumber": "0x6bdbdf",
      "from": "0xDdb342ecc94236c29a5307d3757d0724D759453C",
      "to": "0xCa14007Eff0dB1f8135f4C25B34De49AB0d42766",
      "cumulativeGasUsed": "0x62f00",
      "gasUsed": "0x6ae8",
      "contractAddress": null,
      "logs": [
        {
          "address": "0xCa14007Eff0dB1f8135f4C25B34De49AB0d42766",
          "topics": [
            "0x8c5be1e5ebec7d5bd14f71427d1e84f3dd0314c0f7b2291e5b200ac8c7c3b925",
            "0x000000000000000000000000ddb342ecc94236c29a5307d3757d0724d759453c",
            "0x00000000000000000000000022c03ee9eaf066495c805efc04ee4b482fea6137"
          ],
          "data": "0xffffffffffffffffffffffffffffffffffffffffffffffffffffffffffffffff",
          "blockHash": "0x29936a7ab471a5dce837b4c3ddce49f06addb4889d2cfd1dfe8d11fb6bbadd0f",
          "blockNumber": "0x6bdbdf",
          "transactionHash": "0xe5708034ae5fa7ff7db8bb53240ed3398c821f6c168664bed70a008c9ef0fe1d",
          "transactionIndex": "0x8",
          "logIndex": "0x4",
          "removed": false
        }
      ],
      "status": "0x1",
      "logsBloom": "0x00000000000000000000000000000000000000000000000000000000000000000000000000000000000000000000000000000000000000000000000000200000000000000000000000000000000000000000000000000000800000010001000400000000000000000000000000000000400000000000000000000000400000000000000000000000000000000000000000000000000000000000000000000000020000000000000000000000000000000000000000000000000000000000000000000000000000020000000000000000000000000000000000800000000000000010000000000000000000000000000000000000001000000000000000000000",
      "type": "0x2",
      "effectiveGasPrice": "0x104ec9821"
    },
    {
      "transactionHash": "0x27c4449a27efa0627badcdf38221d88c308dfd69a96fd11d665ad77ce442456c",
      "transactionIndex": "0x9",
      "blockHash": "0x29936a7ab471a5dce837b4c3ddce49f06addb4889d2cfd1dfe8d11fb6bbadd0f",
      "blockNumber": "0x6bdbdf",
      "from": "0xDdb342ecc94236c29a5307d3757d0724D759453C",
      "to": "0xCa14007Eff0dB1f8135f4C25B34De49AB0d42766",
      "cumulativeGasUsed": "0x70db5",
      "gasUsed": "0xdeb5",
      "contractAddress": null,
      "logs": [
        {
          "address": "0xCa14007Eff0dB1f8135f4C25B34De49AB0d42766",
          "topics": [
            "0xddf252ad1be2c89b69c2b068fc378daa952ba7f163c4a11628f55a4df523b3ef",
            "0x000000000000000000000000ddb342ecc94236c29a5307d3757d0724d759453c",
            "0x00000000000000000000000022c03ee9eaf066495c805efc04ee4b482fea6137"
          ],
          "data": "0x000000000000000000000000000000000000000000000000000000746a528800",
          "blockHash": "0x29936a7ab471a5dce837b4c3ddce49f06addb4889d2cfd1dfe8d11fb6bbadd0f",
          "blockNumber": "0x6bdbdf",
          "transactionHash": "0x27c4449a27efa0627badcdf38221d88c308dfd69a96fd11d665ad77ce442456c",
          "transactionIndex": "0x9",
          "logIndex": "0x5",
          "removed": false
        }
      ],
      "status": "0x1",
      "logsBloom": "0x00000000000000000000000000000000000000000000000000000000000000000000000000000000000000000000000000000000000000000000000000000000000000000000000000000008000000000000000000000000800000010001000400000000000000000000000000000000400000000000000000000010400000000000000000000000000000000000000000000000000000000000000000000000000000000000000000000000000000000000000000000000000000000000000000000002000000020000000000000000000000000000000000800000000000000000000000000000000000000000000000000000001000000000000000000000",
      "type": "0x2",
      "effectiveGasPrice": "0x104ec9821"
    },
    {
      "transactionHash": "0xf545de304e26dfd81fc7bcd2d013c9f7f932e7b1019cf53972bf41ace3ec0caf",
      "transactionIndex": "0xa",
      "blockHash": "0x29936a7ab471a5dce837b4c3ddce49f06addb4889d2cfd1dfe8d11fb6bbadd0f",
      "blockNumber": "0x6bdbdf",
      "from": "0xDdb342ecc94236c29a5307d3757d0724D759453C",
      "to": "0x22C03EE9eAF066495c805EFC04ee4b482fea6137",
      "cumulativeGasUsed": "0x91c56",
      "gasUsed": "0x20ea1",
      "contractAddress": null,
      "logs": [
        {
          "address": "0xCa14007Eff0dB1f8135f4C25B34De49AB0d42766",
          "topics": [
            "0x8c5be1e5ebec7d5bd14f71427d1e84f3dd0314c0f7b2291e5b200ac8c7c3b925",
            "0x00000000000000000000000022c03ee9eaf066495c805efc04ee4b482fea6137",
            "0x000000000000000000000000ce5485cfb26914c5dce00b9baf0580364dafc7a4"
          ],
          "data": "0x000000000000000000000000000000000000000000000000000000746a528800",
          "blockHash": "0x29936a7ab471a5dce837b4c3ddce49f06addb4889d2cfd1dfe8d11fb6bbadd0f",
          "blockNumber": "0x6bdbdf",
          "transactionHash": "0xf545de304e26dfd81fc7bcd2d013c9f7f932e7b1019cf53972bf41ace3ec0caf",
          "transactionIndex": "0xa",
          "logIndex": "0x6",
          "removed": false
        },
        {
          "address": "0xCa14007Eff0dB1f8135f4C25B34De49AB0d42766",
          "topics": [
            "0x8c5be1e5ebec7d5bd14f71427d1e84f3dd0314c0f7b2291e5b200ac8c7c3b925",
            "0x00000000000000000000000022c03ee9eaf066495c805efc04ee4b482fea6137",
            "0x000000000000000000000000ce5485cfb26914c5dce00b9baf0580364dafc7a4"
          ],
          "data": "0x0000000000000000000000000000000000000000000000000000000000000000",
          "blockHash": "0x29936a7ab471a5dce837b4c3ddce49f06addb4889d2cfd1dfe8d11fb6bbadd0f",
          "blockNumber": "0x6bdbdf",
          "transactionHash": "0xf545de304e26dfd81fc7bcd2d013c9f7f932e7b1019cf53972bf41ace3ec0caf",
          "transactionIndex": "0xa",
          "logIndex": "0x7",
          "removed": false
        },
        {
          "address": "0xCa14007Eff0dB1f8135f4C25B34De49AB0d42766",
          "topics": [
            "0xddf252ad1be2c89b69c2b068fc378daa952ba7f163c4a11628f55a4df523b3ef",
            "0x00000000000000000000000022c03ee9eaf066495c805efc04ee4b482fea6137",
            "0x000000000000000000000000ce5485cfb26914c5dce00b9baf0580364dafc7a4"
          ],
          "data": "0x000000000000000000000000000000000000000000000000000000746a528800",
          "blockHash": "0x29936a7ab471a5dce837b4c3ddce49f06addb4889d2cfd1dfe8d11fb6bbadd0f",
          "blockNumber": "0x6bdbdf",
          "transactionHash": "0xf545de304e26dfd81fc7bcd2d013c9f7f932e7b1019cf53972bf41ace3ec0caf",
          "transactionIndex": "0xa",
          "logIndex": "0x8",
          "removed": false
        },
        {
          "address": "0xE2Bb56ee936fd6433DC0F6e7e3b8365C906AA057",
          "topics": [
            "0xdb80dd488acf86d17c747445b0eabb5d57c541d3bd7b6b87af987858e5066b2b",
            "0x000000000000000000000000ce5485cfb26914c5dce00b9baf0580364dafc7a4",
            "0x0594c1582459ea03f77deaf9eb7e3917d6994a03c13405ba42867f83d85f085d",
            "0x01b64b1b3b690b43b9b514fb81377518f4039cd3e4f4914d8a6bdf01d679fb19"
          ],
          "data": "0x0000000000000000000000000000000000000000000000000000000000000060000000000000000000000000000000000000000000000000000000000000284500000000000000000000000000000000000000000000000000005af3107a40000000000000000000000000000000000000000000000000000000000000000005000000000000000000000000ca14007eff0db1f8135f4c25b34de49ab0d4276600000000000000000000000022c03ee9eaf066495c805efc04ee4b482fea613706a0dc1dac811a0462737db5d09225dffbc1b7f72e0b895c1cf82243d484ffd4000000000000000000000000000000000000000000000000000000746a5288000000000000000000000000000000000000000000000000000000000000000000",
          "blockHash": "0x29936a7ab471a5dce837b4c3ddce49f06addb4889d2cfd1dfe8d11fb6bbadd0f",
          "blockNumber": "0x6bdbdf",
          "transactionHash": "0xf545de304e26dfd81fc7bcd2d013c9f7f932e7b1019cf53972bf41ace3ec0caf",
          "transactionIndex": "0xa",
          "logIndex": "0x9",
          "removed": false
        },
        {
          "address": "0xcE5485Cfb26914C5dcE00B9BAF0580364daFC7a4",
          "topics": [
            "0x5f971bd00bf3ffbca8a6d72cdd4fd92cfd4f62636161921d1e5a64f0b64ccb6d",
            "0x00000000000000000000000022c03ee9eaf066495c805efc04ee4b482fea6137",
            "0x000000000000000000000000ca14007eff0db1f8135f4c25b34de49ab0d42766",
            "0x06a0dc1dac811a0462737db5d09225dffbc1b7f72e0b895c1cf82243d484ffd4"
          ],
          "data": "0x000000000000000000000000000000000000000000000000000000746a528800000000000000000000000000000000000000000000000000000000000000284500000000000000000000000000000000000000000000000000005af3107a4000",
          "blockHash": "0x29936a7ab471a5dce837b4c3ddce49f06addb4889d2cfd1dfe8d11fb6bbadd0f",
          "blockNumber": "0x6bdbdf",
          "transactionHash": "0xf545de304e26dfd81fc7bcd2d013c9f7f932e7b1019cf53972bf41ace3ec0caf",
          "transactionIndex": "0xa",
          "logIndex": "0xa",
          "removed": false
        }
      ],
      "status": "0x1",
      "logsBloom": "0x00800000000000000200000000020000000000000000000000000000000000400000000000000000000000000000000000000000000004001000000000200000000000000000000000000008080000000000000000000040801000010001000000000000100000000000000000000000000000000020000000000010000008002000000000000000000000000400000000000000000200000000020000000010020000000000000000000020000000001000000000000020000000000000000000000002000000024010000000000000000000200000000000800000000000000010000000010000000000020084000000000000001000000000000000000000",
      "type": "0x2",
      "effectiveGasPrice": "0x104ec9821"
    },
    {
      "transactionHash": "0x4a3eaa903cd7bd394ca62c1ec64e984149b89f2b2bf249e8d2cd70f2f3f94fac",
      "transactionIndex": "0xb",
      "blockHash": "0x29936a7ab471a5dce837b4c3ddce49f06addb4889d2cfd1dfe8d11fb6bbadd0f",
      "blockNumber": "0x6bdbdf",
      "from": "0xDdb342ecc94236c29a5307d3757d0724D759453C",
      "to": "0xE2Bb56ee936fd6433DC0F6e7e3b8365C906AA057",
      "cumulativeGasUsed": "0xa15f0",
      "gasUsed": "0xf99a",
      "contractAddress": null,
      "logs": [
        {
          "address": "0xE2Bb56ee936fd6433DC0F6e7e3b8365C906AA057",
          "topics": [
            "0xdb80dd488acf86d17c747445b0eabb5d57c541d3bd7b6b87af987858e5066b2b",
            "0x000000000000000000000000ddb342ecc94236c29a5307d3757d0724d759453c",
            "0x06a0dc1dac811a0462737db5d09225dffbc1b7f72e0b895c1cf82243d484ffd4",
            "0x00f1149cade9d692862ad41df96b108aa2c20af34f640457e781d166c98dc6b0"
          ],
          "data": "0x0000000000000000000000000000000000000000000000000000000000000060000000000000000000000000000000000000000000000000000000000000284600000000000000000000000000000000000000000000000000005af3107a400000000000000000000000000000000000000000000000000000000000000000080000000000000000000000000000000000000000000000000000000000000002000000000000000000000000000000000000000000000000000000000000000000000000000000000000000000000000000000000000000000000000000000000000000000000000000000000000000000000000000000000000000000000000000000000000000000000000000000000000000000000000000000000000000000000000000000000000000000000000000000000000000000000000000000000000000000000000000000000000000000000000000000000000000000000000000000000000000000000000000000000000000000000000000000746a528800",
          "blockHash": "0x29936a7ab471a5dce837b4c3ddce49f06addb4889d2cfd1dfe8d11fb6bbadd0f",
          "blockNumber": "0x6bdbdf",
          "transactionHash": "0x4a3eaa903cd7bd394ca62c1ec64e984149b89f2b2bf249e8d2cd70f2f3f94fac",
          "transactionIndex": "0xb",
          "logIndex": "0xb",
          "removed": false
        }
      ],
      "status": "0x1",
      "logsBloom": "0x00c00000000000000000000000020000000000000000000000000000000000000000000000000000000000000000000000000000000000001000000000000000000000000000000000000000000000000000000000000040001000000000000400000000100000010000000000000000400000000020000000000000400000000000000000000000000000000000000004000000000000000000000000000010000000000000000000000020000000000000000000000000000000000000000000000000000000000000000000000000000000000000000000000000000000000000000000000000000000000000000000000000000000000000000000000000",
      "type": "0x2",
      "effectiveGasPrice": "0x104ec9821"
    }
  ],
  "libraries": [],
  "pending": [],
  "returns": {},
  "timestamp": 1731503416,
  "chain": 11155111,
  "multi": false,
  "commit": "a4bf47e"
}