{
  "transactions": [
    {
      "hash": "0x4cd5369038683e8ab960da672da47018e1d0dd29d5fb9e7de395744856753e2a",
      "transactionType": "CALL",
      "contractName": "FiatTokenProxy",
      "contractAddress": "0x1c7D4B196Cb0C7B01d743Fbc6116a902379C7238",
      "function": "approve(address,uint256)",
      "arguments": [
        "0xADDc4aa40570b7c45d57f3e4203F5a5135CD6c39",
        "115792089237316195423570985008687907853269984665640564039457584007913129639935"
      ],
      "transaction": {
        "type": "0x02",
        "from": "0xddb342ecc94236c29a5307d3757d0724d759453c",
        "to": "0x1c7d4b196cb0c7b01d743fbc6116a902379c7238",
        "gas": "0xd0b8",
        "value": "0x0",
        "data": "0x095ea7b3000000000000000000000000addc4aa40570b7c45d57f3e4203f5a5135cd6c39ffffffffffffffffffffffffffffffffffffffffffffffffffffffffffffffff",
        "nonce": "0x1db",
        "accessList": []
      },
      "additionalContracts": [],
      "isFixedGasLimit": false
    },
    {
      "hash": "0x1581a0868e684c7143f3367d31f465d83d42ffca5045c9611ab88f180525b86b",
      "transactionType": "CALL",
      "contractName": "FiatTokenProxy",
      "contractAddress": "0x1c7D4B196Cb0C7B01d743Fbc6116a902379C7238",
      "function": "transfer(address,uint256)",
      "arguments": [
        "0xADDc4aa40570b7c45d57f3e4203F5a5135CD6c39",
        "100000"
      ],
      "transaction": {
        "type": "0x02",
        "from": "0xddb342ecc94236c29a5307d3757d0724d759453c",
        "to": "0x1c7d4b196cb0c7b01d743fbc6116a902379c7238",
        "gas": "0x1016a",
        "value": "0x0",
        "data": "0xa9059cbb000000000000000000000000addc4aa40570b7c45d57f3e4203f5a5135cd6c3900000000000000000000000000000000000000000000000000000000000186a0",
        "nonce": "0x1dc",
        "accessList": []
      },
      "additionalContracts": [],
      "isFixedGasLimit": false
    },
    {
      "hash": null,
      "transactionType": "CALL",
      "contractName": "L1TWAMMBridge",
      "contractAddress": "0xADDc4aa40570b7c45d57f3e4203F5a5135CD6c39",
      "function": "deposit(uint256,uint256)",
      "arguments": [
        "100000",
        "834389543886275815094376301029049503606351689021623334845040058375429691485"
      ],
      "transaction": {
        "type": "0x02",
        "from": "0xddb342ecc94236c29a5307d3757d0724d759453c",
        "to": "0xaddc4aa40570b7c45d57f3e4203f5a5135cd6c39",
        "gas": "0x307e6",
        "value": "0x2386f26fc10000",
        "data": "0xe2bbb15800000000000000000000000000000000000000000000000000000000000186a001d83f6c48536465fef0bd01400b78fcd97c3804e2a3edadf906badf6698185d",
        "nonce": "0x1dd",
        "accessList": []
      },
      "additionalContracts": [],
      "isFixedGasLimit": false
    }
  ],
  "receipts": [],
  "libraries": [],
  "pending": [
    "0x4cd5369038683e8ab960da672da47018e1d0dd29d5fb9e7de395744856753e2a",
    "0x1581a0868e684c7143f3367d31f465d83d42ffca5045c9611ab88f180525b86b"
  ],
  "returns": {},
  "timestamp": 1730889975,
  "chain": 11155111,
  "multi": false,
  "commit": "9e60aff"
}