{
  "transactions": [
    {
      "hash": "0xcba9e0cf488f3545fa6db94654f8e60dda35ddf205f62feefffc26b7066e13a6",
      "transactionType": "CALL",
      "contractName": "StarkNetToken",
      "contractAddress": "0xCa14007Eff0dB1f8135f4C25B34De49AB0d42766",
      "function": "approve(address,uint256)",
      "arguments": [
        "0xc50f83156Deac1169fc762Fbb660B92CBD448243",
        "115792089237316195423570985008687907853269984665640564039457584007913129639935"
      ],
      "transaction": {
        "type": "0x02",
        "from": "0xddb342ecc94236c29a5307d3757d0724d759453c",
        "to": "0xca14007eff0db1f8135f4c25b34de49ab0d42766",
        "gas": "0xff08",
        "value": "0x0",
        "data": "0x095ea7b3000000000000000000000000c50f83156deac1169fc762fbb660b92cbd448243ffffffffffffffffffffffffffffffffffffffffffffffffffffffffffffffff",
        "nonce": "0x284",
        "accessList": []
      },
      "additionalContracts": [],
      "isFixedGasLimit": false
    },
    {
      "hash": "0x75fed67c17227a2007ee2098e3534ddb37af9c83a4e2f5d611a8c678a70a9d4a",
      "transactionType": "CALL",
      "contractName": "StarkNetToken",
      "contractAddress": "0xCa14007Eff0dB1f8135f4C25B34De49AB0d42766",
      "function": "transfer(address,uint256)",
      "arguments": [
        "0xc50f83156Deac1169fc762Fbb660B92CBD448243",
        "500000000000"
      ],
      "transaction": {
        "type": "0x02",
        "from": "0xddb342ecc94236c29a5307d3757d0724d759453c",
        "to": "0xca14007eff0db1f8135f4c25b34de49ab0d42766",
        "gas": "0x1339c",
        "value": "0x0",
        "data": "0xa9059cbb000000000000000000000000c50f83156deac1169fc762fbb660b92cbd448243000000000000000000000000000000000000000000000000000000746a528800",
        "nonce": "0x285",
        "accessList": []
      },
      "additionalContracts": [],
      "isFixedGasLimit": false
    },
    {
      "hash": "0x32a30cf0467e2340e67da91a1b9f1ca1fe00b2eb52c93de3e15e8b64ce522cca",
      "transactionType": "CALL",
      "contractName": "L1TWAMMBridge",
      "contractAddress": "0xc50f83156Deac1169fc762Fbb660B92CBD448243",
      "function": "deposit(uint256,uint256)",
      "arguments": [
        "500000000000",
        "293148238452220483849131302862572749419250093620151588657785473700601956467"
      ],
      "transaction": {
        "type": "0x02",
        "from": "0xddb342ecc94236c29a5307d3757d0724d759453c",
        "to": "0xc50f83156deac1169fc762fbb660b92cbd448243",
        "gas": "0x2d757",
        "value": "0x5af3107a4000",
        "data": "0xe2bbb158000000000000000000000000000000000000000000000000000000746a52880000a5ea807dc5f0e87329c1a2c8a4892c7bcf9a3434941c338f6efaf04eee8873",
        "nonce": "0x286",
        "accessList": []
      },
      "additionalContracts": [],
      "isFixedGasLimit": false
    },
    {
      "hash": "0x803fdd83a39bc61018c7aadfdb97699d915f3cac37cc30383243c8ec2ee2fd2f",
      "transactionType": "CALL",
      "contractName": "Proxy",
      "contractAddress": "0xE2Bb56ee936fd6433DC0F6e7e3b8365C906AA057",
      "function": "sendMessageToL2(uint256,uint256,uint256[])",
      "arguments": [
        "293148238452220483849131302862572749419250093620151588657785473700601956467",
        "425952401605428413817582304755919420533935873840436977667370850915372091056",
        "[0, 1265684623727634235329190328445374361672779121980, 2009894490435840142178314390393166646092438090257831307886760648929397478285, 2366254414417873771392932940469309727793822550615514268240785277201753657472, 170141183460469235273462165868118016, 1731423104, 1731423168, 500000000000]"
      ],
      "transaction": {
        "type": "0x02",
        "from": "0xddb342ecc94236c29a5307d3757d0724d759453c",
        "to": "0xe2bb56ee936fd6433dc0f6e7e3b8365c906aa057",
        "gas": "0x15f0a",
        "value": "0x5af3107a4000",
        "data": "0x3e3aa6c500a5ea807dc5f0e87329c1a2c8a4892c7bcf9a3434941c338f6efaf04eee887300f1149cade9d692862ad41df96b108aa2c20af34f640457e781d166c98dc6b0000000000000000000000000000000000000000000000000000000000000006000000000000000000000000000000000000000000000000000000000000000080000000000000000000000000000000000000000000000000000000000000000000000000000000000000000ddb342ecc94236c29a5307d3757d0724d759453c04718f5a0fc34cc1af16a1cdee98ffb20c31f5cd61d6ab07201858f4287c938d053b40a647cedfca6ca84f542a0fe36736031905a9639a7f19a3c1e66bfd5080000000000000000000000000000000000020c49ba5e353f800000000000000000000000000000000000000000000000000000000000000000000000067336b800000000000000000000000000000000000000000000000000000000067336bc0000000000000000000000000000000000000000000000000000000746a528800",
        "nonce": "0x287",
        "accessList": []
      },
      "additionalContracts": [],
      "isFixedGasLimit": false
    }
  ],
  "receipts": [],
  "libraries": [],
  "pending": [
    "0xcba9e0cf488f3545fa6db94654f8e60dda35ddf205f62feefffc26b7066e13a6",
    "0x75fed67c17227a2007ee2098e3534ddb37af9c83a4e2f5d611a8c678a70a9d4a",
    "0x32a30cf0467e2340e67da91a1b9f1ca1fe00b2eb52c93de3e15e8b64ce522cca",
    "0x803fdd83a39bc61018c7aadfdb97699d915f3cac37cc30383243c8ec2ee2fd2f"
  ],
  "returns": {},
  "timestamp": 1731423145,
  "chain": 11155111,
  "multi": false,
  "commit": "b1a5e4e"
}