{
  "transactions": [
    {
      "hash": "0x7ba675ecd3847ec48567c2ce72303c3944abf741282769641a8aef70b3869545",
      "transactionType": "CALL",
      "contractName": null,
      "contractAddress": "0xca14007eff0db1f8135f4c25b34de49ab0d42766",
      "function": "approve(address,uint256)",
      "arguments": [
        "0xeD96a3a46F30B51E5D6a9D3492C5e877a4086160",
        "115792089237316195423570985008687907853269984665640564039457584007913129639935"
      ],
      "transaction": {
        "from": "0xddb342ecc94236c29a5307d3757d0724d759453c",
        "to": "0xca14007eff0db1f8135f4c25b34de49ab0d42766",
        "gas": "0xff08",
        "value": "0x0",
        "input": "0x095ea7b3000000000000000000000000ed96a3a46f30b51e5d6a9d3492c5e877a4086160ffffffffffffffffffffffffffffffffffffffffffffffffffffffffffffffff",
        "nonce": "0x556",
        "chainId": "0xaa36a7"
      },
      "additionalContracts": [],
      "isFixedGasLimit": false
    },
    {
      "hash": "0xfa800589a8326079bcc5d5dc54d3538869656e2f359229ed8eebda3c80aab7e0",
      "transactionType": "CALL",
      "contractName": null,
      "contractAddress": "0xed96a3a46f30b51e5d6a9d3492c5e877a4086160",
      "function": "depositAndCreateOrder(address,(address,uint256,uint256,uint128,uint128,uint128,uint128))",
      "arguments": [
        "0xCa14007Eff0dB1f8135f4C25B34De49AB0d42766",
        "(0xDdb342ecc94236c29a5307d3757d0724D759453C, 2009894490435840142178314390393166646092438090257831307886760648929397478285, 2366254414417873771392932940469309727793822550615514268240785277201753657472, 170141183460469235273462165868118016, 1738065520, 1738065648, 50000000000000000)"
      ],
      "transaction": {
        "from": "0xddb342ecc94236c29a5307d3757d0724d759453c",
        "to": "0xed96a3a46f30b51e5d6a9d3492c5e877a4086160",
        "gas": "0x3d276",
        "value": "0x1c6bf52634000",
        "input": "0x9e76a944000000000000000000000000ca14007eff0db1f8135f4c25b34de49ab0d42766000000000000000000000000ddb342ecc94236c29a5307d3757d0724d759453c04718f5a0fc34cc1af16a1cdee98ffb20c31f5cd61d6ab07201858f4287c938d053b40a647cedfca6ca84f542a0fe36736031905a9639a7f19a3c1e66bfd5080000000000000000000000000000000000020c49ba5e353f80000000000000000000000000000000000000000000000000000000000000000000000006798c670000000000000000000000000000000000000000000000000000000006798c6f000000000000000000000000000000000000000000000000000b1a2bc2ec50000",
        "nonce": "0x557",
        "chainId": "0xaa36a7"
      },
      "additionalContracts": [],
      "isFixedGasLimit": false
    }
  ],
  "receipts": [
    {
      "status": "0x1",
      "cumulativeGasUsed": "0x1b6c74f",
      "logs": [
        {
          "address": "0xca14007eff0db1f8135f4c25b34de49ab0d42766",
          "topics": [
            "0x8c5be1e5ebec7d5bd14f71427d1e84f3dd0314c0f7b2291e5b200ac8c7c3b925",
            "0x000000000000000000000000ddb342ecc94236c29a5307d3757d0724d759453c",
            "0x000000000000000000000000ed96a3a46f30b51e5d6a9d3492c5e877a4086160"
          ],
          "data": "0xffffffffffffffffffffffffffffffffffffffffffffffffffffffffffffffff",
          "blockHash": "0x150d66eb1b100bac08ec80d9c062ebbee17e39e7deb59ca877079047466614a2",
          "blockNumber": "0x73caf2",
          "transactionHash": "0x7ba675ecd3847ec48567c2ce72303c3944abf741282769641a8aef70b3869545",
          "transactionIndex": "0xa9",
          "logIndex": "0xf8",
          "removed": false
        }
      ],
      "logsBloom": "0x00000000000000000000000000000000000000000000000000000000000000000000000000000008000000000000000000000000000000000000000000200000000000000000100000000000000000000000000000000000000000000000000400000000000000000000000000000000400000000000000000000000400000000000000000000000000000000000000000000000000000000000000000000000020000000000000000000000000000000000000000000000000000000000000000000000000000020000000000000000000000000000000000800000400000000010000000000000000000000000000000000000001000000000000000000000",
      "type": "0x2",
      "transactionHash": "0x7ba675ecd3847ec48567c2ce72303c3944abf741282769641a8aef70b3869545",
      "transactionIndex": "0xa9",
      "blockHash": "0x150d66eb1b100bac08ec80d9c062ebbee17e39e7deb59ca877079047466614a2",
      "blockNumber": "0x73caf2",
      "gasUsed": "0xb8a4",
      "effectiveGasPrice": "0x1bc23c521",
      "from": "0xddb342ecc94236c29a5307d3757d0724d759453c",
      "to": "0xca14007eff0db1f8135f4c25b34de49ab0d42766",
      "contractAddress": null
    },
    {
      "status": "0x1",
      "cumulativeGasUsed": "0x1b96458",
      "logs": [
        {
          "address": "0xca14007eff0db1f8135f4c25b34de49ab0d42766",
          "topics": [
            "0xddf252ad1be2c89b69c2b068fc378daa952ba7f163c4a11628f55a4df523b3ef",
            "0x000000000000000000000000ddb342ecc94236c29a5307d3757d0724d759453c",
            "0x000000000000000000000000ed96a3a46f30b51e5d6a9d3492c5e877a4086160"
          ],
          "data": "0x00000000000000000000000000000000000000000000000000b1a2bc2ec50000",
          "blockHash": "0x150d66eb1b100bac08ec80d9c062ebbee17e39e7deb59ca877079047466614a2",
          "blockNumber": "0x73caf2",
          "transactionHash": "0xfa800589a8326079bcc5d5dc54d3538869656e2f359229ed8eebda3c80aab7e0",
          "transactionIndex": "0xaa",
          "logIndex": "0xf9",
          "removed": false
        },
        {
          "address": "0xca14007eff0db1f8135f4c25b34de49ab0d42766",
          "topics": [
            "0x8c5be1e5ebec7d5bd14f71427d1e84f3dd0314c0f7b2291e5b200ac8c7c3b925",
            "0x000000000000000000000000ed96a3a46f30b51e5d6a9d3492c5e877a4086160",
            "0x000000000000000000000000ce5485cfb26914c5dce00b9baf0580364dafc7a4"
          ],
          "data": "0x00000000000000000000000000000000000000000000000000b1a2bc2ec50000",
          "blockHash": "0x150d66eb1b100bac08ec80d9c062ebbee17e39e7deb59ca877079047466614a2",
          "blockNumber": "0x73caf2",
          "transactionHash": "0xfa800589a8326079bcc5d5dc54d3538869656e2f359229ed8eebda3c80aab7e0",
          "transactionIndex": "0xaa",
          "logIndex": "0xfa",
          "removed": false
        },
        {
          "address": "0xca14007eff0db1f8135f4c25b34de49ab0d42766",
          "topics": [
            "0x8c5be1e5ebec7d5bd14f71427d1e84f3dd0314c0f7b2291e5b200ac8c7c3b925",
            "0x000000000000000000000000ed96a3a46f30b51e5d6a9d3492c5e877a4086160",
            "0x000000000000000000000000ce5485cfb26914c5dce00b9baf0580364dafc7a4"
          ],
          "data": "0x0000000000000000000000000000000000000000000000000000000000000000",
          "blockHash": "0x150d66eb1b100bac08ec80d9c062ebbee17e39e7deb59ca877079047466614a2",
          "blockNumber": "0x73caf2",
          "transactionHash": "0xfa800589a8326079bcc5d5dc54d3538869656e2f359229ed8eebda3c80aab7e0",
          "transactionIndex": "0xaa",
          "logIndex": "0xfb",
          "removed": false
        },
        {
          "address": "0xca14007eff0db1f8135f4c25b34de49ab0d42766",
          "topics": [
            "0xddf252ad1be2c89b69c2b068fc378daa952ba7f163c4a11628f55a4df523b3ef",
            "0x000000000000000000000000ed96a3a46f30b51e5d6a9d3492c5e877a4086160",
            "0x000000000000000000000000ce5485cfb26914c5dce00b9baf0580364dafc7a4"
          ],
          "data": "0x00000000000000000000000000000000000000000000000000b1a2bc2ec50000",
          "blockHash": "0x150d66eb1b100bac08ec80d9c062ebbee17e39e7deb59ca877079047466614a2",
          "blockNumber": "0x73caf2",
          "transactionHash": "0xfa800589a8326079bcc5d5dc54d3538869656e2f359229ed8eebda3c80aab7e0",
          "transactionIndex": "0xaa",
          "logIndex": "0xfc",
          "removed": false
        },
        {
          "address": "0xe2bb56ee936fd6433dc0f6e7e3b8365c906aa057",
          "topics": [
            "0xdb80dd488acf86d17c747445b0eabb5d57c541d3bd7b6b87af987858e5066b2b",
            "0x000000000000000000000000ce5485cfb26914c5dce00b9baf0580364dafc7a4",
            "0x0594c1582459ea03f77deaf9eb7e3917d6994a03c13405ba42867f83d85f085d",
            "0x008bce41827dd5484d80312a2e43bc42a896e3fcf75bf84c2b49339168dfa00a"
          ],
          "data": "0x00000000000000000000000000000000000000000000000000000000000000600000000000000000000000000000000000000000000000000000000000002d400000000000000000000000000000000000000000000000000001c6bf52634000000000000000000000000000000000000000000000000000000000000000000f000000000000000000000000ca14007eff0db1f8135f4c25b34de49ab0d42766000000000000000000000000ed96a3a46f30b51e5d6a9d3492c5e877a40861600583041d2839d71b9a138856b2b2b1a815234045d04d16dad78092b4ca4d16a300000000000000000000000000000000000000000000000000b1a2bc2ec50000000000000000000000000000000000000000000000000000000000000000000000000000000000000000000000000000000000000000000000000000000000090000000000000000000000000000000000000000000000000000000000000000000000000000000000000000ddb342ecc94236c29a5307d3757d0724d759453c04718f5a0fc34cc1af16a1cdee98ffb20c31f5cd61d6ab07201858f4287c938d053b40a647cedfca6ca84f542a0fe36736031905a9639a7f19a3c1e66bfd5080000000000000000000000000000000000020c49ba5e353f80000000000000000000000000000000000000000000000000000000000000000000000006798c670000000000000000000000000000000000000000000000000000000006798c6f000000000000000000000000000000000000000000000000000b1a2bc2ec500000000000000000000000000000000000000000000000000000000000000000000",
          "blockHash": "0x150d66eb1b100bac08ec80d9c062ebbee17e39e7deb59ca877079047466614a2",
          "blockNumber": "0x73caf2",
          "transactionHash": "0xfa800589a8326079bcc5d5dc54d3538869656e2f359229ed8eebda3c80aab7e0",
          "transactionIndex": "0xaa",
          "logIndex": "0xfd",
          "removed": false
        },
        {
          "address": "0xce5485cfb26914c5dce00b9baf0580364dafc7a4",
          "topics": [
            "0x2203a49c69f1a46c1164f5e4a30643dd77b7c59c0ff9bc433256048365c247f1",
            "0x000000000000000000000000ed96a3a46f30b51e5d6a9d3492c5e877a4086160",
            "0x000000000000000000000000ca14007eff0db1f8135f4c25b34de49ab0d42766",
            "0x0583041d2839d71b9a138856b2b2b1a815234045d04d16dad78092b4ca4d16a3"
          ],
          "data": "0x00000000000000000000000000000000000000000000000000b1a2bc2ec5000000000000000000000000000000000000000000000000000000000000000000800000000000000000000000000000000000000000000000000000000000002d400000000000000000000000000000000000000000000000000001c6bf5263400000000000000000000000000000000000000000000000000000000000000000090000000000000000000000000000000000000000000000000000000000000000000000000000000000000000ddb342ecc94236c29a5307d3757d0724d759453c04718f5a0fc34cc1af16a1cdee98ffb20c31f5cd61d6ab07201858f4287c938d053b40a647cedfca6ca84f542a0fe36736031905a9639a7f19a3c1e66bfd5080000000000000000000000000000000000020c49ba5e353f80000000000000000000000000000000000000000000000000000000000000000000000006798c670000000000000000000000000000000000000000000000000000000006798c6f000000000000000000000000000000000000000000000000000b1a2bc2ec500000000000000000000000000000000000000000000000000000000000000000000",
          "blockHash": "0x150d66eb1b100bac08ec80d9c062ebbee17e39e7deb59ca877079047466614a2",
          "blockNumber": "0x73caf2",
          "transactionHash": "0xfa800589a8326079bcc5d5dc54d3538869656e2f359229ed8eebda3c80aab7e0",
          "transactionIndex": "0xaa",
          "logIndex": "0xfe",
          "removed": false
        },
        {
          "address": "0xed96a3a46f30b51e5d6a9d3492c5e877a4086160",
          "topics": [
            "0xaf43445f7721522b7a3864ed3de53d7e2e658bfa1eeffa18e1e229be68ce2545",
            "0x000000000000000000000000ddb342ecc94236c29a5307d3757d0724d759453c",
            "0x0583041d2839d71b9a138856b2b2b1a815234045d04d16dad78092b4ca4d16a3"
          ],
          "data": "0x00000000000000000000000000000000000000000000000000b1a2bc2ec500000000000000000000000000000000000000000000000000000000000000000001",
          "blockHash": "0x150d66eb1b100bac08ec80d9c062ebbee17e39e7deb59ca877079047466614a2",
          "blockNumber": "0x73caf2",
          "transactionHash": "0xfa800589a8326079bcc5d5dc54d3538869656e2f359229ed8eebda3c80aab7e0",
          "transactionIndex": "0xaa",
          "logIndex": "0xff",
          "removed": false
        }
      ],
      "logsBloom": "0x00000200000000000000000000020000000000000000000000000040000000000000000000000008000002000000000010000000000004000000020000200000000000000000100000000008080000000000000000000040001000000000000600000000100000000000000000000000400000000000000000000010400008002000000000000000000000020000000000008000000200400000000000000010020000800040000000000020000000021000000000000000000000000000000000800002000000024010000000000000000000200100000000800000400000000010000000010000000000020004000000000000001001000000000000000000",
      "type": "0x2",
      "transactionHash": "0xfa800589a8326079bcc5d5dc54d3538869656e2f359229ed8eebda3c80aab7e0",
      "transactionIndex": "0xaa",
      "blockHash": "0x150d66eb1b100bac08ec80d9c062ebbee17e39e7deb59ca877079047466614a2",
      "blockNumber": "0x73caf2",
      "gasUsed": "0x29d09",
      "effectiveGasPrice": "0x1bc23c521",
      "from": "0xddb342ecc94236c29a5307d3757d0724d759453c",
      "to": "0xed96a3a46f30b51e5d6a9d3492c5e877a4086160",
      "contractAddress": null
    }
  ],
  "libraries": [],
  "pending": [],
  "returns": {},
  "timestamp": 1738065554,
  "chain": 11155111,
  "commit": "1045b34"
}