{
  "transactions": [
    {
      "hash": "0x35770bb9a94b9335c53eaf8623c4c3badb02286ee113cb6605f4059d84f57d2c",
      "transactionType": "CALL",
      "contractName": "StarkNetToken",
      "contractAddress": "0xCa14007Eff0dB1f8135f4C25B34De49AB0d42766",
      "function": "approve(address,uint256)",
      "arguments": [
        "0xDd2a2bC41f947cdCd3F173fD03CD15b5a66Cd6b5",
        "115792089237316195423570985008687907853269984665640564039457584007913129639935"
      ],
      "transaction": {
        "type": "0x02",
        "from": "0xddb342ecc94236c29a5307d3757d0724d759453c",
        "to": "0xca14007eff0db1f8135f4c25b34de49ab0d42766",
        "gas": "0x93a9",
        "value": "0x0",
        "data": "0x095ea7b3000000000000000000000000dd2a2bc41f947cdcd3f173fd03cd15b5a66cd6b5ffffffffffffffffffffffffffffffffffffffffffffffffffffffffffffffff",
        "nonce": "0x1bf",
        "accessList": []
      },
      "additionalContracts": [],
      "isFixedGasLimit": false
    },
    {
      "hash": "0x7fc489ed157c6370cf1ace939b3d8183945e3dfa85d997cb09703a2aae9d8b1f",
      "transactionType": "CALL",
      "contractName": "StarkNetToken",
      "contractAddress": "0xCa14007Eff0dB1f8135f4C25B34De49AB0d42766",
      "function": "transfer(address,uint256)",
      "arguments": [
        "0xDd2a2bC41f947cdCd3F173fD03CD15b5a66Cd6b5",
        "1000000000000000"
      ],
      "transaction": {
        "type": "0x02",
        "from": "0xddb342ecc94236c29a5307d3757d0724d759453c",
        "to": "0xca14007eff0db1f8135f4c25b34de49ab0d42766",
        "gas": "0xe427",
        "value": "0x0",
        "data": "0xa9059cbb000000000000000000000000dd2a2bc41f947cdcd3f173fd03cd15b5a66cd6b500000000000000000000000000000000000000000000000000038d7ea4c68000",
        "nonce": "0x1c0",
        "accessList": []
      },
      "additionalContracts": [],
      "isFixedGasLimit": false
    },
    {
      "hash": "0x506fbe7ae54505881bfc42bcb8522784f196ef75bbf2dd3418a0956d31318e38",
      "transactionType": "CALL",
      "contractName": "L1TWAMMBridge",
      "contractAddress": "0xDd2a2bC41f947cdCd3F173fD03CD15b5a66Cd6b5",
      "function": "deposit(uint256,uint256)",
      "arguments": [
        "1000000000000000",
        "1647970598847617027890947728899760175249314077903923387400359173436953475181"
      ],
      "transaction": {
        "type": "0x02",
        "from": "0xddb342ecc94236c29a5307d3757d0724d759453c",
        "to": "0xdd2a2bc41f947cdcd3f173fd03cd15b5a66cd6b5",
        "gas": "0x31da0",
        "value": "0x2386f26fc10000",
        "data": "0xe2bbb15800000000000000000000000000000000000000000000000000038d7ea4c6800003a4b7e2d060bd8eb48e2db10f16c1303b131c266cc928902c3a3a8ead7e386d",
        "nonce": "0x1c1",
        "accessList": []
      },
      "additionalContracts": [],
      "isFixedGasLimit": false
    }
  ],
  "receipts": [],
  "libraries": [],
  "pending": [
    "0x35770bb9a94b9335c53eaf8623c4c3badb02286ee113cb6605f4059d84f57d2c",
    "0x7fc489ed157c6370cf1ace939b3d8183945e3dfa85d997cb09703a2aae9d8b1f",
    "0x506fbe7ae54505881bfc42bcb8522784f196ef75bbf2dd3418a0956d31318e38"
  ],
  "returns": {},
  "timestamp": 1730876282,
  "chain": 11155111,
  "multi": false,
  "commit": "71ba860"
}