{
  "transactions": [
    {
      "hash": "0xca6cb1003cc6654881fe9ce6c8de171948d215e214ed47e35d6afb2b9082a83b",
      "transactionType": "CALL",
      "contractName": "StarkNetToken",
      "contractAddress": "0xCa14007Eff0dB1f8135f4C25B34De49AB0d42766",
      "function": "approve(address,uint256)",
      "arguments": [
        "0xB1847a192FfD8aE271526712011673f10036445d",
        "115792089237316195423570985008687907853269984665640564039457584007913129639935"
      ],
      "transaction": {
        "type": "0x02",
        "from": "0xddb342ecc94236c29a5307d3757d0724d759453c",
        "to": "0xca14007eff0db1f8135f4c25b34de49ab0d42766",
        "gas": "0x9398",
        "value": "0x0",
        "data": "0x095ea7b3000000000000000000000000b1847a192ffd8ae271526712011673f10036445dffffffffffffffffffffffffffffffffffffffffffffffffffffffffffffffff",
        "nonce": "0x2d9",
        "accessList": []
      },
      "additionalContracts": [],
      "isFixedGasLimit": false
    },
    {
      "hash": "0xa06f0db7fedf632b6a57cfef6ed5e77f47c8b4f3f3c552095a35da1a97ca5e04",
      "transactionType": "CALL",
      "contractName": "StarkNetToken",
      "contractAddress": "0xCa14007Eff0dB1f8135f4C25B34De49AB0d42766",
      "function": "transfer(address,uint256)",
      "arguments": [
        "0xB1847a192FfD8aE271526712011673f10036445d",
        "500000000000"
      ],
      "transaction": {
        "type": "0x02",
        "from": "0xddb342ecc94236c29a5307d3757d0724d759453c",
        "to": "0xca14007eff0db1f8135f4c25b34de49ab0d42766",
        "gas": "0x145a3",
        "value": "0x0",
        "data": "0xa9059cbb000000000000000000000000b1847a192ffd8ae271526712011673f10036445d000000000000000000000000000000000000000000000000000000746a528800",
        "nonce": "0x2da",
        "accessList": []
      },
      "additionalContracts": [],
      "isFixedGasLimit": false
    },
    {
      "hash": "0x602cc5ac768382cd2f794a915f1b0e90cd18c72e5668e8d35e59fb402bbdb8a3",
      "transactionType": "CALL",
      "contractName": "L1TWAMMBridge",
      "contractAddress": "0xB1847a192FfD8aE271526712011673f10036445d",
      "function": "deposit(uint256,uint256)",
      "arguments": [
        "500000000000",
        "1824234952420037527378371352948043633712066992391853301619305426347898228241"
      ],
      "transaction": {
        "type": "0x02",
        "from": "0xddb342ecc94236c29a5307d3757d0724d759453c",
        "to": "0xb1847a192ffd8ae271526712011673f10036445d",
        "gas": "0x30231",
        "value": "0x5af3107a4000",
        "data": "0xe2bbb158000000000000000000000000000000000000000000000000000000746a52880004087afb0ee32aa53f254ded96d49bdc40fa21a74de84c40d5ff55cd7970ce11",
        "nonce": "0x2db",
        "accessList": []
      },
      "additionalContracts": [],
      "isFixedGasLimit": false
    },
    {
      "hash": "0xd2a0136ca01dfeaecca6bbdb24b2e3893c9231fb58cfcbd719f0eadc0c7037bf",
      "transactionType": "CALL",
      "contractName": "Proxy",
      "contractAddress": "0xE2Bb56ee936fd6433DC0F6e7e3b8365C906AA057",
      "function": "sendMessageToL2(uint256,uint256,uint256[])",
      "arguments": [
        "1824234952420037527378371352948043633712066992391853301619305426347898228241",
        "425952401605428413817582304755919420533935873840436977667370850915372091056",
        "[2, 1265684623727634235329190328445374361672779121980, 0, 0, 0, 0, 0, 500000000000]"
      ],
      "transaction": {
        "type": "0x02",
        "from": "0xddb342ecc94236c29a5307d3757d0724d759453c",
        "to": "0xe2bb56ee936fd6433dc0f6e7e3b8365c906aa057",
        "gas": "0x16e69",
        "value": "0x5af3107a4000",
        "data": "0x3e3aa6c504087afb0ee32aa53f254ded96d49bdc40fa21a74de84c40d5ff55cd7970ce1100f1149cade9d692862ad41df96b108aa2c20af34f640457e781d166c98dc6b0000000000000000000000000000000000000000000000000000000000000006000000000000000000000000000000000000000000000000000000000000000080000000000000000000000000000000000000000000000000000000000000002000000000000000000000000ddb342ecc94236c29a5307d3757d0724d759453c00000000000000000000000000000000000000000000000000000000000000000000000000000000000000000000000000000000000000000000000000000000000000000000000000000000000000000000000000000000000000000000000000000000000000000000000000000000000000000000000000000000000000000000000000000000000000000000000000000000000000000000000000000000000000000000000000000000000000000000000000000000000000746a528800",
        "nonce": "0x2dc",
        "accessList": []
      },
      "additionalContracts": [],
      "isFixedGasLimit": false
    }
  ],
  "receipts": [],
  "libraries": [],
  "pending": [
    "0xca6cb1003cc6654881fe9ce6c8de171948d215e214ed47e35d6afb2b9082a83b",
    "0xa06f0db7fedf632b6a57cfef6ed5e77f47c8b4f3f3c552095a35da1a97ca5e04",
    "0x602cc5ac768382cd2f794a915f1b0e90cd18c72e5668e8d35e59fb402bbdb8a3",
    "0xd2a0136ca01dfeaecca6bbdb24b2e3893c9231fb58cfcbd719f0eadc0c7037bf"
  ],
  "returns": {},
  "timestamp": 1731504430,
  "chain": 11155111,
  "multi": false,
  "commit": "a4bf47e"
}