{
  "transactions": [
    {
      "hash": "0xb2dbacb241471f6c0afce759c0ebfbd5cebf41a878807d06e21f79ea91748306",
      "transactionType": "CALL",
      "contractName": null,
      "contractAddress": "0xca14007eff0db1f8135f4c25b34de49ab0d42766",
      "function": "approve(address,uint256)",
      "arguments": [
        "0x7754F43A4975004600c4839a5642b03550fE5b55",
        "115792089237316195423570985008687907853269984665640564039457584007913129639935"
      ],
      "transaction": {
        "from": "0xddb342ecc94236c29a5307d3757d0724d759453c",
        "to": "0xca14007eff0db1f8135f4c25b34de49ab0d42766",
        "gas": "0x9388",
        "value": "0x0",
        "input": "0x095ea7b30000000000000000000000007754f43a4975004600c4839a5642b03550fe5b55ffffffffffffffffffffffffffffffffffffffffffffffffffffffffffffffff",
        "nonce": "0x45c",
        "chainId": "0xaa36a7"
      },
      "additionalContracts": [],
      "isFixedGasLimit": false
    },
    {
      "hash": "0x41257560b44f0a7dfcc12dbc9810982cdef4ce4b3a6141d525b3b526f18d94fc",
      "transactionType": "CALL",
      "contractName": null,
      "contractAddress": "0x7754f43a4975004600c4839a5642b03550fe5b55",
      "function": "initiateWithdrawal(uint256,address)",
      "arguments": [
        "700000000000000",
        "0x1c7D4B196Cb0C7B01d743Fbc6116a902379C7238"
      ],
      "transaction": {
        "from": "0xddb342ecc94236c29a5307d3757d0724d759453c",
        "to": "0x7754f43a4975004600c4839a5642b03550fe5b55",
        "gas": "0x1b9bb",
        "value": "0x1c6bf52634000",
        "input": "0x5443812700000000000000000000000000000000000000000000000000027ca57357c0000000000000000000000000001c7d4b196cb0c7b01d743fbc6116a902379c7238",
        "nonce": "0x45d",
        "chainId": "0xaa36a7"
      },
      "additionalContracts": [],
      "isFixedGasLimit": false
    }
  ],
  "receipts": [
    {
      "status": "0x1",
      "cumulativeGasUsed": "0xa96a17",
      "logs": [
        {
          "address": "0xca14007eff0db1f8135f4c25b34de49ab0d42766",
          "topics": [
            "0x8c5be1e5ebec7d5bd14f71427d1e84f3dd0314c0f7b2291e5b200ac8c7c3b925",
            "0x000000000000000000000000ddb342ecc94236c29a5307d3757d0724d759453c",
            "0x0000000000000000000000007754f43a4975004600c4839a5642b03550fe5b55"
          ],
          "data": "0xffffffffffffffffffffffffffffffffffffffffffffffffffffffffffffffff",
          "blockHash": "0x7e90e8400ff89ea7f31d66d664a1bdb05ef17024831d1236ccf97960717eeb0e",
          "blockNumber": "0x716b2a",
          "transactionHash": "0xb2dbacb241471f6c0afce759c0ebfbd5cebf41a878807d06e21f79ea91748306",
          "transactionIndex": "0x4c",
          "logIndex": "0x72",
          "removed": false
        }
      ],
      "logsBloom": "0x00000000000000000000000000000000000000000000000080000000000000000000000000000000000000000000000000000000000000000000000000200000000000000000000000000000000000008000000000000000000000000000000400000000000000000000000000000000400000000000000000000000400000000000000000000000000000000000000000000000000000000000000000000000020000000000000000000000000000000000000000000000000000000000000000000000000000020000000040000000000000000000000000800000000000000010000000000000000000000000000000000000001000000000000000000000",
      "type": "0x2",
      "transactionHash": "0xb2dbacb241471f6c0afce759c0ebfbd5cebf41a878807d06e21f79ea91748306",
      "transactionIndex": "0x4c",
      "blockHash": "0x7e90e8400ff89ea7f31d66d664a1bdb05ef17024831d1236ccf97960717eeb0e",
      "blockNumber": "0x716b2a",
      "gasUsed": "0x6ad0",
      "effectiveGasPrice": "0x4f32cbbeb",
      "from": "0xddb342ecc94236c29a5307d3757d0724d759453c",
      "to": "0xca14007eff0db1f8135f4c25b34de49ab0d42766",
      "contractAddress": null
    },
    {
      "status": "0x1",
      "cumulativeGasUsed": "0xaa9821",
      "logs": [
        {
          "address": "0xe2bb56ee936fd6433dc0f6e7e3b8365c906aa057",
          "topics": [
            "0xdb80dd488acf86d17c747445b0eabb5d57c541d3bd7b6b87af987858e5066b2b",
            "0x0000000000000000000000007754f43a4975004600c4839a5642b03550fe5b55",
            "0x0294a726b321a41e88c7fe4cdc186066f75aada1f4ff5f7b92a7e82c0f9c6bf5",
            "0x008bce41827dd5484d80312a2e43bc42a896e3fcf75bf84c2b49339168dfa00a"
          ],
          "data": "0x00000000000000000000000000000000000000000000000000000000000000600000000000000000000000000000000000000000000000000000000000002b350000000000000000000000000000000000000000000000000001c6bf5263400000000000000000000000000000000000000000000000000000000000000000080000000000000000000000000000000000000000000000000000000000000002000000000000000000000000ddb342ecc94236c29a5307d3757d0724d759453c00000000000000000000000000000000000000000000000000000000000000000000000000000000000000001c7d4b196cb0c7b01d743fbc6116a902379c723800000000000000000000000000000000000000000000000000000000000000000000000000000000000000000000000000000000000000000000000000000000000000000000000000000000000000000000000000000000000000000000000000000000000000000000000000000000000000000000000000027ca57357c000",
          "blockHash": "0x7e90e8400ff89ea7f31d66d664a1bdb05ef17024831d1236ccf97960717eeb0e",
          "blockNumber": "0x716b2a",
          "transactionHash": "0x41257560b44f0a7dfcc12dbc9810982cdef4ce4b3a6141d525b3b526f18d94fc",
          "transactionIndex": "0x4d",
          "logIndex": "0x73",
          "removed": false
        },
        {
          "address": "0x7754f43a4975004600c4839a5642b03550fe5b55",
          "topics": [
            "0x6d92f7d3303f995bf21956bb0c51b388bae348eaf45c23debd2cfa3fcd9ec646",
            "0x000000000000000000000000ddb342ecc94236c29a5307d3757d0724d759453c"
          ],
          "data": "0x00000000000000000000000000000000000000000000000000027ca57357c000",
          "blockHash": "0x7e90e8400ff89ea7f31d66d664a1bdb05ef17024831d1236ccf97960717eeb0e",
          "blockNumber": "0x716b2a",
          "transactionHash": "0x41257560b44f0a7dfcc12dbc9810982cdef4ce4b3a6141d525b3b526f18d94fc",
          "transactionIndex": "0x4d",
          "logIndex": "0x74",
          "removed": false
        }
      ],
      "logsBloom": "0x00000000000000400000000000020000000000000000000080000040000000000000000000000000000000000000000000000800000000000000020000000000000000000000000000000000000000008000000000000040001000000000000400000008100000000000000000000000400000000000000000000000400000000000000000000000000000000000000000000000000000000000000000000010000000000000000040000020000000020000001000000000000000000000000000100000000000000000000040000000000000000000000000000800000000000000001000000000000000000000000000000000000000000100000000000000",
      "type": "0x2",
      "transactionHash": "0x41257560b44f0a7dfcc12dbc9810982cdef4ce4b3a6141d525b3b526f18d94fc",
      "transactionIndex": "0x4d",
      "blockHash": "0x7e90e8400ff89ea7f31d66d664a1bdb05ef17024831d1236ccf97960717eeb0e",
      "blockNumber": "0x716b2a",
      "gasUsed": "0x12e0a",
      "effectiveGasPrice": "0x4f32cbbeb",
      "from": "0xddb342ecc94236c29a5307d3757d0724d759453c",
      "to": "0x7754f43a4975004600c4839a5642b03550fe5b55",
      "contractAddress": null
    }
  ],
  "libraries": [],
  "pending": [],
  "returns": {},
  "timestamp": 1736165269,
  "chain": 11155111,
  "commit": "3ea534e"
}