{
  "transactions": [
    {
      "hash": "0x919e25783fa1e2ad80089ed743630b7838e2fe0982de2fe74cb0725063aa80ca",
      "transactionType": "CALL",
      "contractName": "StarkNetToken",
      "contractAddress": "0xCa14007Eff0dB1f8135f4C25B34De49AB0d42766",
      "function": "approve(address,uint256)",
      "arguments": [
        "0x800480524107edEd9B2d87Ea835fec2614605ca5",
        "115792089237316195423570985008687907853269984665640564039457584007913129639935"
      ],
      "transaction": {
        "type": "0x02",
        "from": "0xddb342ecc94236c29a5307d3757d0724d759453c",
        "to": "0xca14007eff0db1f8135f4c25b34de49ab0d42766",
        "gas": "0x93a9",
        "value": "0x0",
        "data": "0x095ea7b3000000000000000000000000800480524107eded9b2d87ea835fec2614605ca5ffffffffffffffffffffffffffffffffffffffffffffffffffffffffffffffff",
        "nonce": "0x2e2",
        "accessList": []
      },
      "additionalContracts": [],
      "isFixedGasLimit": false
    },
    {
      "hash": "0x984809598d29d038adf77eb8057d3dde98146c3d9d2b7c5037b7b97a105c4f0a",
      "transactionType": "CALL",
      "contractName": "StarkNetToken",
      "contractAddress": "0xCa14007Eff0dB1f8135f4C25B34De49AB0d42766",
      "function": "transfer(address,uint256)",
      "arguments": [
        "0x800480524107edEd9B2d87Ea835fec2614605ca5",
        "500000000000"
      ],
      "transaction": {
        "type": "0x02",
        "from": "0xddb342ecc94236c29a5307d3757d0724d759453c",
        "to": "0xca14007eff0db1f8135f4c25b34de49ab0d42766",
        "gas": "0x1339c",
        "value": "0x0",
        "data": "0xa9059cbb000000000000000000000000800480524107eded9b2d87ea835fec2614605ca5000000000000000000000000000000000000000000000000000000746a528800",
        "nonce": "0x2e3",
        "accessList": []
      },
      "additionalContracts": [],
      "isFixedGasLimit": false
    },
    {
      "hash": "0xc34d2b3f6aee6abd06b2a6b67458237e733e1b849a1ccbaf9367dbde87964e4e",
      "transactionType": "CALL",
      "contractName": "L1TWAMMBridge",
      "contractAddress": "0x800480524107edEd9B2d87Ea835fec2614605ca5",
      "function": "deposit(uint256,uint256)",
      "arguments": [
        "500000000000",
        "3506623030916034188942742443137463598163805523457718257233226466542451029911"
      ],
      "transaction": {
        "type": "0x02",
        "from": "0xddb342ecc94236c29a5307d3757d0724d759453c",
        "to": "0x800480524107eded9b2d87ea835fec2614605ca5",
        "gas": "0x30231",
        "value": "0x5af3107a4000",
        "data": "0xe2bbb158000000000000000000000000000000000000000000000000000000746a52880007c0ada524e79e572c4f705e6c677d2f8881aa78c7d3e312f623a4ad26f1f797",
        "nonce": "0x2e4",
        "accessList": []
      },
      "additionalContracts": [],
      "isFixedGasLimit": false
    },
    {
      "hash": "0xa88512123204a83312555e1fc33ba53bcad5f9f355c1b9307875c17f2b4d16f1",
      "transactionType": "CALL",
      "contractName": "Proxy",
      "contractAddress": "0xE2Bb56ee936fd6433DC0F6e7e3b8365C906AA057",
      "function": "sendMessageToL2(uint256,uint256,uint256[])",
      "arguments": [
        "3506623030916034188942742443137463598163805523457718257233226466542451029911",
        "425952401605428413817582304755919420533935873840436977667370850915372091056",
        "[2, 1265684623727634235329190328445374361672779121980, 0, 0, 0, 0, 0, 500000000000]"
      ],
      "transaction": {
        "type": "0x02",
        "from": "0xddb342ecc94236c29a5307d3757d0724d759453c",
        "to": "0xe2bb56ee936fd6433dc0f6e7e3b8365c906aa057",
        "gas": "0x16e69",
        "value": "0x5af3107a4000",
        "data": "0x3e3aa6c507c0ada524e79e572c4f705e6c677d2f8881aa78c7d3e312f623a4ad26f1f79700f1149cade9d692862ad41df96b108aa2c20af34f640457e781d166c98dc6b0000000000000000000000000000000000000000000000000000000000000006000000000000000000000000000000000000000000000000000000000000000080000000000000000000000000000000000000000000000000000000000000002000000000000000000000000ddb342ecc94236c29a5307d3757d0724d759453c00000000000000000000000000000000000000000000000000000000000000000000000000000000000000000000000000000000000000000000000000000000000000000000000000000000000000000000000000000000000000000000000000000000000000000000000000000000000000000000000000000000000000000000000000000000000000000000000000000000000000000000000000000000000000000000000000000000000000000000000000000000000000746a528800",
        "nonce": "0x2e5",
        "accessList": []
      },
      "additionalContracts": [],
      "isFixedGasLimit": false
    }
  ],
  "receipts": [],
  "libraries": [],
  "pending": [
    "0x919e25783fa1e2ad80089ed743630b7838e2fe0982de2fe74cb0725063aa80ca",
    "0x984809598d29d038adf77eb8057d3dde98146c3d9d2b7c5037b7b97a105c4f0a",
    "0xc34d2b3f6aee6abd06b2a6b67458237e733e1b849a1ccbaf9367dbde87964e4e",
    "0xa88512123204a83312555e1fc33ba53bcad5f9f355c1b9307875c17f2b4d16f1"
  ],
  "returns": {},
  "timestamp": 1731509939,
  "chain": 11155111,
  "multi": false,
  "commit": "a4bf47e"
}