{
  "transactions": [
    {
      "hash": "0x61d33c4fe8ab00ef0535163095a57bc542011134620ec45376a0999bee6189a7",
      "transactionType": "CALL",
      "contractName": null,
      "contractAddress": "0xca14007eff0db1f8135f4c25b34de49ab0d42766",
      "function": "approve(address,uint256)",
      "arguments": [
        "0xC9e9844BCF3c6e5dAD789214967dAa9f20A004Ef",
        "115792089237316195423570985008687907853269984665640564039457584007913129639935"
      ],
      "transaction": {
        "from": "0x1b382a7b4496f14e0aaa2da1e1626da400426a03",
        "to": "0xca14007eff0db1f8135f4c25b34de49ab0d42766",
        "gas": "0x93a9",
        "value": "0x0",
        "input": "0x095ea7b3000000000000000000000000c9e9844bcf3c6e5dad789214967daa9f20a004efffffffffffffffffffffffffffffffffffffffffffffffffffffffffffffffff",
        "nonce": "0xd3",
        "chainId": "0xaa36a7"
      },
      "additionalContracts": [],
      "isFixedGasLimit": false
    },
    {
      "hash": "0xde2d92c62bafa30ae5def9fa14278d92bf402948cd014d3733c1da0912e1bb5d",
      "transactionType": "CALL",
      "contractName": null,
      "contractAddress": "0xca14007eff0db1f8135f4c25b34de49ab0d42766",
      "function": "transfer(address,uint256)",
      "arguments": [
        "0xC9e9844BCF3c6e5dAD789214967dAa9f20A004Ef",
        "10000000000000000"
      ],
      "transaction": {
        "from": "0x1b382a7b4496f14e0aaa2da1e1626da400426a03",
        "to": "0xca14007eff0db1f8135f4c25b34de49ab0d42766",
        "gas": "0x145c6",
        "value": "0x0",
        "input": "0xa9059cbb000000000000000000000000c9e9844bcf3c6e5dad789214967daa9f20a004ef000000000000000000000000000000000000000000000000002386f26fc10000",
        "nonce": "0xd4",
        "chainId": "0xaa36a7"
      },
      "additionalContracts": [],
      "isFixedGasLimit": false
    },
    {
      "hash": "0xe9ed430c0ee855abfeb46ffb87181949c1776ec891bb8acfe720f126aa40614d",
      "transactionType": "CALL",
      "contractName": null,
      "contractAddress": "0xc9e9844bcf3c6e5dad789214967daa9f20a004ef",
      "function": "depositAndCreateOrder((address,address,address,uint128,uint128,uint128,uint128,uint256))",
      "arguments": [
        "(0x1B382A7b4496F14e0AAA2DA1E1626Da400426A03, 0xCa14007Eff0dB1f8135f4C25B34De49AB0d42766, 0xCa14007Eff0dB1f8135f4C25B34De49AB0d42766, 10000000000000000, 1730921344, 1730921408, 10000000000000000, 2169773808687659603100182366605025465472357345959668453959019803432951827096)"
      ],
      "transaction": {
        "from": "0x1b382a7b4496f14e0aaa2da1e1626da400426a03",
        "to": "0xc9e9844bcf3c6e5dad789214967daa9f20a004ef",
        "gas": "0x3ab50",
        "value": "0x2386f26fc10000",
        "input": "0x9d2515050000000000000000000000001b382a7b4496f14e0aaa2da1e1626da400426a03000000000000000000000000ca14007eff0db1f8135f4c25b34de49ab0d42766000000000000000000000000ca14007eff0db1f8135f4c25b34de49ab0d42766000000000000000000000000000000000000000000000000002386f26fc1000000000000000000000000000000000000000000000000000000000000672bc38000000000000000000000000000000000000000000000000000000000672bc3c0000000000000000000000000000000000000000000000000002386f26fc1000004cc0c67915e726014f5498f17898303cad4dbe637d1f6f34e53c31c7f294a98",
        "nonce": "0xd5",
        "chainId": "0xaa36a7"
      },
      "additionalContracts": [],
      "isFixedGasLimit": false
    }
  ],
  "receipts": [
    {
      "status": "0x1",
      "cumulativeGasUsed": "0x3d76e6",
      "logs": [
        {
          "address": "0xca14007eff0db1f8135f4c25b34de49ab0d42766",
          "topics": [
            "0x8c5be1e5ebec7d5bd14f71427d1e84f3dd0314c0f7b2291e5b200ac8c7c3b925",
            "0x0000000000000000000000001b382a7b4496f14e0aaa2da1e1626da400426a03",
            "0x000000000000000000000000c9e9844bcf3c6e5dad789214967daa9f20a004ef"
          ],
          "data": "0xffffffffffffffffffffffffffffffffffffffffffffffffffffffffffffffff",
          "blockHash": "0x459eef93e236dcbff65e51c49f5f54cfba62ad3cbc5c9edb4cd81a7e6c2a42a9",
          "blockNumber": "0x6b330f",
          "transactionHash": "0x61d33c4fe8ab00ef0535163095a57bc542011134620ec45376a0999bee6189a7",
          "transactionIndex": "0x1a",
          "logIndex": "0x21",
          "removed": false
        }
      ],
      "logsBloom": "0x00000000000000000000000000000000000000000400000000000000000000000000000000000000000000000000000000000000000000000000000000200000000000000000000000000000000000000000000000000000000000000000000000000000000000000000000000000000000000010810000020000000000000040000000000000000000000000000000000000000000000000000000000000000020000000000000000000000000000000000000000000000000000000000000000000000000000020000000000000000000000000000000000800000000000000010000000000000000000000000000000000000001000000000000000000000",
      "type": "0x2",
      "transactionHash": "0x61d33c4fe8ab00ef0535163095a57bc542011134620ec45376a0999bee6189a7",
      "transactionIndex": "0x1a",
      "blockHash": "0x459eef93e236dcbff65e51c49f5f54cfba62ad3cbc5c9edb4cd81a7e6c2a42a9",
      "blockNumber": "0x6b330f",
      "gasUsed": "0x6ae8",
      "effectiveGasPrice": "0x20b172120",
      "blobGasUsed": "0x0",
      "from": "0x1b382a7b4496f14e0aaa2da1e1626da400426a03",
      "to": "0xca14007eff0db1f8135f4c25b34de49ab0d42766",
      "contractAddress": null
    },
    {
      "status": "0x1",
      "cumulativeGasUsed": "0x7dd601",
      "logs": [
        {
          "address": "0xca14007eff0db1f8135f4c25b34de49ab0d42766",
          "topics": [
            "0xddf252ad1be2c89b69c2b068fc378daa952ba7f163c4a11628f55a4df523b3ef",
            "0x0000000000000000000000001b382a7b4496f14e0aaa2da1e1626da400426a03",
            "0x000000000000000000000000c9e9844bcf3c6e5dad789214967daa9f20a004ef"
          ],
          "data": "0x000000000000000000000000000000000000000000000000002386f26fc10000",
          "blockHash": "0x26f64f400cffb3756cfe2fcd7a4ef28839465786de40f4142cda20e96242f8f4",
          "blockNumber": "0x6b3310",
          "transactionHash": "0xde2d92c62bafa30ae5def9fa14278d92bf402948cd014d3733c1da0912e1bb5d",
          "transactionIndex": "0x45",
          "logIndex": "0x6d",
          "removed": false
        }
      ],
      "logsBloom": "0x00000000000000000000000000000000000000000400000000000000000000000000000000000000000000000000000000000000000000000000000000000000000000000000000000000008000000000000000000000000000000000000000000000000000000000000000000000000000000010810000020000010000000040000000000000000000000000000000000000000000000000000000000000000000000000000000000000000000000000000000000000000000000000000000000000002000000020000000000000000000000000000000000800000000000000000000000000000000000000000000000000000001000000000000000000000",
      "type": "0x2",
      "transactionHash": "0xde2d92c62bafa30ae5def9fa14278d92bf402948cd014d3733c1da0912e1bb5d",
      "transactionIndex": "0x45",
      "blockHash": "0x26f64f400cffb3756cfe2fcd7a4ef28839465786de40f4142cda20e96242f8f4",
      "blockNumber": "0x6b3310",
      "gasUsed": "0xdec1",
      "effectiveGasPrice": "0x2495b17de",
      "blobGasUsed": "0x0",
      "from": "0x1b382a7b4496f14e0aaa2da1e1626da400426a03",
      "to": "0xca14007eff0db1f8135f4c25b34de49ab0d42766",
      "contractAddress": null
    },
    {
      "status": "0x1",
      "cumulativeGasUsed": "0x807983",
      "logs": [
        {
          "address": "0xca14007eff0db1f8135f4c25b34de49ab0d42766",
          "topics": [
            "0xddf252ad1be2c89b69c2b068fc378daa952ba7f163c4a11628f55a4df523b3ef",
            "0x0000000000000000000000001b382a7b4496f14e0aaa2da1e1626da400426a03",
            "0x000000000000000000000000c9e9844bcf3c6e5dad789214967daa9f20a004ef"
          ],
          "data": "0x000000000000000000000000000000000000000000000000002386f26fc10000",
          "blockHash": "0x26f64f400cffb3756cfe2fcd7a4ef28839465786de40f4142cda20e96242f8f4",
          "blockNumber": "0x6b3310",
          "transactionHash": "0xe9ed430c0ee855abfeb46ffb87181949c1776ec891bb8acfe720f126aa40614d",
          "transactionIndex": "0x46",
          "logIndex": "0x6e",
          "removed": false
        },
        {
          "address": "0xca14007eff0db1f8135f4c25b34de49ab0d42766",
          "topics": [
            "0x8c5be1e5ebec7d5bd14f71427d1e84f3dd0314c0f7b2291e5b200ac8c7c3b925",
            "0x000000000000000000000000c9e9844bcf3c6e5dad789214967daa9f20a004ef",
            "0x000000000000000000000000ce5485cfb26914c5dce00b9baf0580364dafc7a4"
          ],
          "data": "0x0000000000000000000000000000000000000000000000000000000000000000",
          "blockHash": "0x26f64f400cffb3756cfe2fcd7a4ef28839465786de40f4142cda20e96242f8f4",
          "blockNumber": "0x6b3310",
          "transactionHash": "0xe9ed430c0ee855abfeb46ffb87181949c1776ec891bb8acfe720f126aa40614d",
          "transactionIndex": "0x46",
          "logIndex": "0x6f",
          "removed": false
        },
        {
          "address": "0xca14007eff0db1f8135f4c25b34de49ab0d42766",
          "topics": [
            "0x8c5be1e5ebec7d5bd14f71427d1e84f3dd0314c0f7b2291e5b200ac8c7c3b925",
            "0x000000000000000000000000c9e9844bcf3c6e5dad789214967daa9f20a004ef",
            "0x000000000000000000000000ce5485cfb26914c5dce00b9baf0580364dafc7a4"
          ],
          "data": "0x000000000000000000000000000000000000000000000000002386f26fc10000",
          "blockHash": "0x26f64f400cffb3756cfe2fcd7a4ef28839465786de40f4142cda20e96242f8f4",
          "blockNumber": "0x6b3310",
          "transactionHash": "0xe9ed430c0ee855abfeb46ffb87181949c1776ec891bb8acfe720f126aa40614d",
          "transactionIndex": "0x46",
          "logIndex": "0x70",
          "removed": false
        },
        {
          "address": "0xca14007eff0db1f8135f4c25b34de49ab0d42766",
          "topics": [
            "0x8c5be1e5ebec7d5bd14f71427d1e84f3dd0314c0f7b2291e5b200ac8c7c3b925",
            "0x000000000000000000000000c9e9844bcf3c6e5dad789214967daa9f20a004ef",
            "0x000000000000000000000000ce5485cfb26914c5dce00b9baf0580364dafc7a4"
          ],
          "data": "0x0000000000000000000000000000000000000000000000000000000000000000",
          "blockHash": "0x26f64f400cffb3756cfe2fcd7a4ef28839465786de40f4142cda20e96242f8f4",
          "blockNumber": "0x6b3310",
          "transactionHash": "0xe9ed430c0ee855abfeb46ffb87181949c1776ec891bb8acfe720f126aa40614d",
          "transactionIndex": "0x46",
          "logIndex": "0x71",
          "removed": false
        },
        {
          "address": "0xca14007eff0db1f8135f4c25b34de49ab0d42766",
          "topics": [
            "0xddf252ad1be2c89b69c2b068fc378daa952ba7f163c4a11628f55a4df523b3ef",
            "0x000000000000000000000000c9e9844bcf3c6e5dad789214967daa9f20a004ef",
            "0x000000000000000000000000ce5485cfb26914c5dce00b9baf0580364dafc7a4"
          ],
          "data": "0x000000000000000000000000000000000000000000000000002386f26fc10000",
          "blockHash": "0x26f64f400cffb3756cfe2fcd7a4ef28839465786de40f4142cda20e96242f8f4",
          "blockNumber": "0x6b3310",
          "transactionHash": "0xe9ed430c0ee855abfeb46ffb87181949c1776ec891bb8acfe720f126aa40614d",
          "transactionIndex": "0x46",
          "logIndex": "0x72",
          "removed": false
        },
        {
          "address": "0xe2bb56ee936fd6433dc0f6e7e3b8365c906aa057",
          "topics": [
            "0xdb80dd488acf86d17c747445b0eabb5d57c541d3bd7b6b87af987858e5066b2b",
            "0x000000000000000000000000ce5485cfb26914c5dce00b9baf0580364dafc7a4",
            "0x0594c1582459ea03f77deaf9eb7e3917d6994a03c13405ba42867f83d85f085d",
            "0x008bce41827dd5484d80312a2e43bc42a896e3fcf75bf84c2b49339168dfa00a"
          ],
          "data": "0x0000000000000000000000000000000000000000000000000000000000000060000000000000000000000000000000000000000000000000000000000000276d000000000000000000000000000000000000000000000000002386f26fc10000000000000000000000000000000000000000000000000000000000000000000d000000000000000000000000ca14007eff0db1f8135f4c25b34de49ab0d42766000000000000000000000000c9e9844bcf3c6e5dad789214967daa9f20a004ef03a4b7e2d060bd8eb48e2db10f16c1303b131c266cc928902c3a3a8ead7e386d000000000000000000000000000000000000000000000000002386f26fc100000000000000000000000000000000000000000000000000000000000000000000000000000000000000000000000000000000000000000000000000000000000700000000000000000000000000000000000000000000000000000000000000000000000000000000000000001b382a7b4496f14e0aaa2da1e1626da400426a03000000000000000000000000ca14007eff0db1f8135f4c25b34de49ab0d42766000000000000000000000000ca14007eff0db1f8135f4c25b34de49ab0d42766000000000000000000000000000000000000000000000000002386f26fc1000000000000000000000000000000000000000000000000000000000000672bc38000000000000000000000000000000000000000000000000000000000672bc3c0",
          "blockHash": "0x26f64f400cffb3756cfe2fcd7a4ef28839465786de40f4142cda20e96242f8f4",
          "blockNumber": "0x6b3310",
          "transactionHash": "0xe9ed430c0ee855abfeb46ffb87181949c1776ec891bb8acfe720f126aa40614d",
          "transactionIndex": "0x46",
          "logIndex": "0x73",
          "removed": false
        },
        {
          "address": "0xce5485cfb26914c5dce00b9baf0580364dafc7a4",
          "topics": [
            "0x2203a49c69f1a46c1164f5e4a30643dd77b7c59c0ff9bc433256048365c247f1",
            "0x000000000000000000000000c9e9844bcf3c6e5dad789214967daa9f20a004ef",
            "0x000000000000000000000000ca14007eff0db1f8135f4c25b34de49ab0d42766",
            "0x03a4b7e2d060bd8eb48e2db10f16c1303b131c266cc928902c3a3a8ead7e386d"
          ],
          "data": "0x000000000000000000000000000000000000000000000000002386f26fc100000000000000000000000000000000000000000000000000000000000000000080000000000000000000000000000000000000000000000000000000000000276d000000000000000000000000000000000000000000000000002386f26fc10000000000000000000000000000000000000000000000000000000000000000000700000000000000000000000000000000000000000000000000000000000000000000000000000000000000001b382a7b4496f14e0aaa2da1e1626da400426a03000000000000000000000000ca14007eff0db1f8135f4c25b34de49ab0d42766000000000000000000000000ca14007eff0db1f8135f4c25b34de49ab0d42766000000000000000000000000000000000000000000000000002386f26fc1000000000000000000000000000000000000000000000000000000000000672bc38000000000000000000000000000000000000000000000000000000000672bc3c0",
          "blockHash": "0x26f64f400cffb3756cfe2fcd7a4ef28839465786de40f4142cda20e96242f8f4",
          "blockNumber": "0x6b3310",
          "transactionHash": "0xe9ed430c0ee855abfeb46ffb87181949c1776ec891bb8acfe720f126aa40614d",
          "transactionIndex": "0x46",
          "logIndex": "0x74",
          "removed": false
        },
        {
          "address": "0xc9e9844bcf3c6e5dad789214967daa9f20a004ef",
          "topics": [
            "0xaf43445f7721522b7a3864ed3de53d7e2e658bfa1eeffa18e1e229be68ce2545",
            "0x0000000000000000000000001b382a7b4496f14e0aaa2da1e1626da400426a03",
            "0x03a4b7e2d060bd8eb48e2db10f16c1303b131c266cc928902c3a3a8ead7e386d"
          ],
          "data": "0x000000000000000000000000000000000000000000000000002386f26fc100000000000000000000000000000000000000000000000000000000000000000001",
          "blockHash": "0x26f64f400cffb3756cfe2fcd7a4ef28839465786de40f4142cda20e96242f8f4",
          "blockNumber": "0x6b3310",
          "transactionHash": "0xe9ed430c0ee855abfeb46ffb87181949c1776ec891bb8acfe720f126aa40614d",
          "transactionIndex": "0x46",
          "logIndex": "0x75",
          "removed": false
        }
      ],
      "logsBloom": "0x00000202000000000000000000020000000000000400000000000042000000000000000000000000000000000000000000000000000004000000020000200000020000000000000000000008080000000000000000000040001000000000000200000000100000000000000000000000000000010810000020000010000008042000000000000000000000020000000000008000000200000100000000000010020000800000000000000020000000021000000002000000000000000000000000800002000000024010000000000000000000200000000000800000200000000010000000010000000000020004000000000000001000000000000000000000",
      "type": "0x2",
      "transactionHash": "0xe9ed430c0ee855abfeb46ffb87181949c1776ec891bb8acfe720f126aa40614d",
      "transactionIndex": "0x46",
      "blockHash": "0x26f64f400cffb3756cfe2fcd7a4ef28839465786de40f4142cda20e96242f8f4",
      "blockNumber": "0x6b3310",
      "gasUsed": "0x2a382",
      "effectiveGasPrice": "0x2495b17de",
      "blobGasUsed": "0x0",
      "from": "0x1b382a7b4496f14e0aaa2da1e1626da400426a03",
      "to": "0xc9e9844bcf3c6e5dad789214967daa9f20a004ef",
      "contractAddress": null
    }
  ],
  "libraries": [],
  "pending": [],
  "returns": {},
  "timestamp": 1730921407,
  "chain": 11155111,
  "commit": "ed7f201"
}