{
  "transactions": [
    {
      "hash": "0x727e210fc430d768d145c72f4ca4c1de61ec1d286536fadba461ec00e9f35223",
      "transactionType": "CALL",
      "contractName": "FiatTokenProxy",
      "contractAddress": "0x1c7D4B196Cb0C7B01d743Fbc6116a902379C7238",
      "function": "approve(address,uint256)",
      "arguments": [
        "0xa3DC73197D315c4442cB13feE3e0F744b7134159",
        "115792089237316195423570985008687907853269984665640564039457584007913129639935"
      ],
      "transaction": {
        "type": "0x02",
        "from": "0xddb342ecc94236c29a5307d3757d0724d759453c",
        "to": "0x1c7d4b196cb0c7b01d743fbc6116a902379c7238",
        "gas": "0xc19d",
        "value": "0x0",
        "data": "0x095ea7b3000000000000000000000000a3dc73197d315c4442cb13fee3e0f744b7134159ffffffffffffffffffffffffffffffffffffffffffffffffffffffffffffffff",
        "nonce": "0x1e4",
        "accessList": []
      },
      "additionalContracts": [],
      "isFixedGasLimit": false
    },
    {
      "hash": "0x9a2fdb8fc88784bec2e3b22e878d889cb18e577f0ab6ad0849c0b3f4abe629d8",
      "transactionType": "CALL",
      "contractName": "FiatTokenProxy",
      "contractAddress": "0x1c7D4B196Cb0C7B01d743Fbc6116a902379C7238",
      "function": "transfer(address,uint256)",
      "arguments": [
        "0xa3DC73197D315c4442cB13feE3e0F744b7134159",
        "100000"
      ],
      "transaction": {
        "type": "0x02",
        "from": "0xddb342ecc94236c29a5307d3757d0724d759453c",
        "to": "0x1c7d4b196cb0c7b01d743fbc6116a902379c7238",
        "gas": "0x1016a",
        "value": "0x0",
        "data": "0xa9059cbb000000000000000000000000a3dc73197d315c4442cb13fee3e0f744b713415900000000000000000000000000000000000000000000000000000000000186a0",
        "nonce": "0x1e5",
        "accessList": []
      },
      "additionalContracts": [],
      "isFixedGasLimit": false
    },
    {
      "hash": "0xd6319cdaedf90bb3a1221571d13f36214d5d2b4b7121498831c87b80efdeded1",
      "transactionType": "CALL",
      "contractName": "L1TWAMMBridge",
      "contractAddress": "0xa3DC73197D315c4442cB13feE3e0F744b7134159",
      "function": "depositAndCreateOrder((address,address,address,uint128,uint128,uint128,uint128,uint256))",
      "arguments": [
        "(0xDdb342ecc94236c29a5307d3757d0724D759453C, 0x1c7D4B196Cb0C7B01d743Fbc6116a902379C7238, 0x1c7D4B196Cb0C7B01d743Fbc6116a902379C7238, 1000000000000000, 1730891584, 1730891648, 100000, 834389543886275815094376301029049503606351689021623334845040058375429691485)"
      ],
      "transaction": {
        "type": "0x02",
        "from": "0xddb342ecc94236c29a5307d3757d0724d759453c",
        "to": "0xa3dc73197d315c4442cb13fee3e0f744b7134159",
        "gas": "0x3ccb0",
        "value": "0x38d7ea4c68000",
        "data": "0x9d251505000000000000000000000000ddb342ecc94236c29a5307d3757d0724d759453c0000000000000000000000001c7d4b196cb0c7b01d743fbc6116a902379c72380000000000000000000000001c7d4b196cb0c7b01d743fbc6116a902379c723800000000000000000000000000000000000000000000000000038d7ea4c6800000000000000000000000000000000000000000000000000000000000672b4f4000000000000000000000000000000000000000000000000000000000672b4f8000000000000000000000000000000000000000000000000000000000000186a001d83f6c48536465fef0bd01400b78fcd97c3804e2a3edadf906badf6698185d",
        "nonce": "0x1e6",
        "accessList": []
      },
      "additionalContracts": [],
      "isFixedGasLimit": false
    }
  ],
  "receipts": [],
  "libraries": [],
  "pending": [
    "0x727e210fc430d768d145c72f4ca4c1de61ec1d286536fadba461ec00e9f35223",
    "0x9a2fdb8fc88784bec2e3b22e878d889cb18e577f0ab6ad0849c0b3f4abe629d8",
    "0xd6319cdaedf90bb3a1221571d13f36214d5d2b4b7121498831c87b80efdeded1"
  ],
  "returns": {},
  "timestamp": 1730891632,
  "chain": 11155111,
  "multi": false,
  "commit": "9e60aff"
}