{
  "transactions": [
    {
      "hash": "0x7db4ad434a7440b092e6e94cbf4ee59b0c5fb7f78c1919328b2a2af736798d9a",
      "transactionType": "CALL",
      "contractName": null,
      "contractAddress": "0x17ceb8da41205f1026241766328751884afa7fe8",
      "function": "setL2EndpointAddress(uint256)",
      "arguments": [
        "2567391702517330908147284909971791477627590599643031615962519229588461693677"
      ],
      "transaction": {
        "from": "0xddb342ecc94236c29a5307d3757d0724d759453c",
        "to": "0x17ceb8da41205f1026241766328751884afa7fe8",
        "gas": "0xa23f",
        "value": "0x0",
        "input": "0x5155fb2f05ad179af127a7c4690ab7e60c6064b5e7f8c41d3be13f67f3a3389d1849aaed",
        "nonce": "0x518",
        "chainId": "0xaa36a7"
      },
      "additionalContracts": [],
      "isFixedGasLimit": false
    }
  ],
  "receipts": [
    {
      "status": "0x1",
      "cumulativeGasUsed": "0xcf82f9",
      "logs": [
        {
          "address": "0x17ceb8da41205f1026241766328751884afa7fe8",
          "topics": [
            "0xa35dce9e53611b0cabca886209c4a1d09c80214af9b6fb6027f7b2f7c39838e8"
          ],
          "data": "0x05ad179af127a7c4690ab7e60c6064b5e7f8c41d3be13f67f3a3389d1849aaed",
          "blockHash": "0x43ed2ba25a02fe976c10b116411486b42864a8fe4a873f621c86301db129d824",
          "blockNumber": "0x730e91",
          "transactionHash": "0x7db4ad434a7440b092e6e94cbf4ee59b0c5fb7f78c1919328b2a2af736798d9a",
          "transactionIndex": "0x6b",
          "logIndex": "0x11f",
          "removed": false
        }
      ],
      "logsBloom": "0x00000000000000000000000010000000000000000000000000000000000000000000000000000000000000000000000000000000000000000000000000000000000000000000000000000000000200000000000000000000000000000000000000000000000000000000000000000000000000000000000000000000000000000000000000000000000000000000000000000000000000000000000000000000800000000000000000000000000000000000000004000000000000000000002800000000000000000000000000000000000000000000000000000000000000000000000000000000000000000000000000000000000000000000000000000000",
      "type": "0x2",
      "transactionHash": "0x7db4ad434a7440b092e6e94cbf4ee59b0c5fb7f78c1919328b2a2af736798d9a",
      "transactionIndex": "0x6b",
      "blockHash": "0x43ed2ba25a02fe976c10b116411486b42864a8fe4a873f621c86301db129d824",
      "blockNumber": "0x730e91",
      "gasUsed": "0x7577",
      "effectiveGasPrice": "0x1a992ab10",
      "from": "0xddb342ecc94236c29a5307d3757d0724d759453c",
      "to": "0x17ceb8da41205f1026241766328751884afa7fe8",
      "contractAddress": null
    }
  ],
  "libraries": [],
  "pending": [],
  "returns": {},
  "timestamp": 1737468771,
  "chain": 11155111,
  "commit": "fcbff6b"
}