{
  "transactions": [
    {
      "hash": "0xcfdd54350ad6d4383a6af6e70451028e4ebb7322b535363939b6e2759c802178",
      "transactionType": "CALL",
      "contractName": "StarkNetToken",
      "contractAddress": "0xCa14007Eff0dB1f8135f4C25B34De49AB0d42766",
      "function": "approve(address,uint256)",
      "arguments": [
        "0x7eb4C59eABE1234E8A6D02FdF4d1BB595C4702Cd",
        "115792089237316195423570985008687907853269984665640564039457584007913129639935"
      ],
      "transaction": {
        "type": "0x02",
        "from": "0xddb342ecc94236c29a5307d3757d0724d759453c",
        "to": "0xca14007eff0db1f8135f4c25b34de49ab0d42766",
        "gas": "0x93a9",
        "value": "0x0",
        "data": "0x095ea7b30000000000000000000000007eb4c59eabe1234e8a6d02fdf4d1bb595c4702cdffffffffffffffffffffffffffffffffffffffffffffffffffffffffffffffff",
        "nonce": "0x383",
        "accessList": []
      },
      "additionalContracts": [],
      "isFixedGasLimit": false
    },
    {
      "hash": "0x70e9a025ee91021ae85edf366aff972073b89c30030b85268350c3a44bbfdad1",
      "transactionType": "CALL",
      "contractName": null,
      "contractAddress": "0x7eb4C59eABE1234E8A6D02FdF4d1BB595C4702Cd",
      "function": "setL2EndpointAddress(uint256)",
      "arguments": [
        "724103513970500002052639628236854722977971715615467354252910116174465977276"
      ],
      "transaction": {
        "type": "0x02",
        "from": "0xddb342ecc94236c29a5307d3757d0724d759453c",
        "to": "0x7eb4c59eabe1234e8a6d02fdf4d1bb595c4702cd",
        "gas": "0xabab",
        "value": "0x0",
        "data": "0x5155fb2f0199d3fc13d980048336cdfba849a8ef4f509573439b530b5b92535a1e11cbbc",
        "nonce": "0x384",
        "accessList": []
      },
      "additionalContracts": [],
      "isFixedGasLimit": false
    }
  ],
  "receipts": [],
  "libraries": [],
  "pending": [
    "0xcfdd54350ad6d4383a6af6e70451028e4ebb7322b535363939b6e2759c802178",
    "0x70e9a025ee91021ae85edf366aff972073b89c30030b85268350c3a44bbfdad1"
  ],
  "returns": {},
  "timestamp": 1732681795,
  "chain": 11155111,
  "multi": false,
  "commit": "1254ada"
}