{
  "transactions": [
    {
      "hash": "0x792d5c137a6aa16b3f050f57b96f968527220e9c20808629c0a252c00bc45ccc",
      "transactionType": "CALL",
      "contractName": "StarkNetToken",
      "contractAddress": "0xCa14007Eff0dB1f8135f4C25B34De49AB0d42766",
      "function": "approve(address,uint256)",
      "arguments": [
        "0x789896a584070A7E2554a39C4f1d9Ff010D5De16",
        "115792089237316195423570985008687907853269984665640564039457584007913129639935"
      ],
      "transaction": {
        "type": "0x02",
        "from": "0xddb342ecc94236c29a5307d3757d0724d759453c",
        "to": "0xca14007eff0db1f8135f4c25b34de49ab0d42766",
        "gas": "0x93a9",
        "value": "0x0",
        "data": "0x095ea7b3000000000000000000000000789896a584070a7e2554a39c4f1d9ff010d5de16ffffffffffffffffffffffffffffffffffffffffffffffffffffffffffffffff",
        "nonce": "0x301",
        "accessList": []
      },
      "additionalContracts": [],
      "isFixedGasLimit": false
    },
    {
      "hash": "0xc119b102228d2b8ca18a704cabe3bbda0bb4585f26bbc041c98ea00f9c45bcb4",
      "transactionType": "CALL",
      "contractName": "StarkNetToken",
      "contractAddress": "0xCa14007Eff0dB1f8135f4C25B34De49AB0d42766",
      "function": "transfer(address,uint256)",
      "arguments": [
        "0x789896a584070A7E2554a39C4f1d9Ff010D5De16",
        "500000"
      ],
      "transaction": {
        "type": "0x02",
        "from": "0xddb342ecc94236c29a5307d3757d0724d759453c",
        "to": "0xca14007eff0db1f8135f4c25b34de49ab0d42766",
        "gas": "0xd748",
        "value": "0x0",
        "data": "0xa9059cbb000000000000000000000000789896a584070a7e2554a39c4f1d9ff010d5de16000000000000000000000000000000000000000000000000000000000007a120",
        "nonce": "0x302",
        "accessList": []
      },
      "additionalContracts": [],
      "isFixedGasLimit": false
    },
    {
      "hash": "0x0c4a12847f4df19ece55031e3cac7e205042c853f3dd873526974c303ded190b",
      "transactionType": "CALL",
      "contractName": "Proxy",
      "contractAddress": "0xE2Bb56ee936fd6433DC0F6e7e3b8365C906AA057",
      "function": "sendMessageToL2(uint256,uint256,uint256[])",
      "arguments": [
        "3104898144467012964635926007210104918205344450701816193649102609848795779895",
        "425952401605428413817582304755919420533935873840436977667370850915372091056",
        "[0, 1265684623727634235329190328445374361672779121980, 2009894490435840142178314390393166646092438090257831307886760648929397478285, 2366254414417873771392932940469309727793822550615514268240785277201753657472, 170141183460469235273462165868118016, 1731687680, 1731687744, 500000, 2366254414417873771392932940469309727793822550615514268240785277201753657472]"
      ],
      "transaction": {
        "type": "0x02",
        "from": "0xddb342ecc94236c29a5307d3757d0724d759453c",
        "to": "0xe2bb56ee936fd6433dc0f6e7e3b8365c906aa057",
        "gas": "0x1633a",
        "value": "0x38d7ea4c68000",
        "data": "0x3e3aa6c506dd4f60f2786d32f2754e08448c06265558ca6336ba4e38dc3610fa4f11d33700f1149cade9d692862ad41df96b108aa2c20af34f640457e781d166c98dc6b0000000000000000000000000000000000000000000000000000000000000006000000000000000000000000000000000000000000000000000000000000000090000000000000000000000000000000000000000000000000000000000000000000000000000000000000000ddb342ecc94236c29a5307d3757d0724d759453c04718f5a0fc34cc1af16a1cdee98ffb20c31f5cd61d6ab07201858f4287c938d053b40a647cedfca6ca84f542a0fe36736031905a9639a7f19a3c1e66bfd5080000000000000000000000000000000000020c49ba5e353f8000000000000000000000000000000000000000000000000000000000000000000000000673775000000000000000000000000000000000000000000000000000000000067377540000000000000000000000000000000000000000000000000000000000007a120053b40a647cedfca6ca84f542a0fe36736031905a9639a7f19a3c1e66bfd5080",
        "nonce": "0x303",
        "accessList": []
      },
      "additionalContracts": [],
      "isFixedGasLimit": false
    }
  ],
  "receipts": [
    {
      "transactionHash": "0x792d5c137a6aa16b3f050f57b96f968527220e9c20808629c0a252c00bc45ccc",
      "transactionIndex": "0x3",
      "blockHash": "0xf66c9ef7b6f7f706ab52fbcedae4b2c7fdee5719f6eba2c7e3bc7e7f6680908e",
      "blockNumber": "0x6c1462",
      "from": "0xDdb342ecc94236c29a5307d3757d0724D759453C",
      "to": "0xCa14007Eff0dB1f8135f4C25B34De49AB0d42766",
      "cumulativeGasUsed": "0x43285",
      "gasUsed": "0x6ae8",
      "contractAddress": null,
      "logs": [
        {
          "address": "0xCa14007Eff0dB1f8135f4C25B34De49AB0d42766",
          "topics": [
            "0x8c5be1e5ebec7d5bd14f71427d1e84f3dd0314c0f7b2291e5b200ac8c7c3b925",
            "0x000000000000000000000000ddb342ecc94236c29a5307d3757d0724d759453c",
            "0x000000000000000000000000789896a584070a7e2554a39c4f1d9ff010d5de16"
          ],
          "data": "0xffffffffffffffffffffffffffffffffffffffffffffffffffffffffffffffff",
          "blockHash": "0xf66c9ef7b6f7f706ab52fbcedae4b2c7fdee5719f6eba2c7e3bc7e7f6680908e",
          "blockNumber": "0x6c1462",
          "transactionHash": "0x792d5c137a6aa16b3f050f57b96f968527220e9c20808629c0a252c00bc45ccc",
          "transactionIndex": "0x3",
          "logIndex": "0x3",
          "removed": false
        }
      ],
      "status": "0x1",
      "logsBloom": "0x00000000000000000000000000000000000000000000000000000000000000000000000000000000000000000000000000000000000000000000000000200000000000000000000000000000000008000000000000000000000000000000000400000000000000000000000000000000400000000000000000000000400000000000000000000000000000000000200000000000000000000000000000000000020000000000000000000000000000000000000000000000000000000000000000000000000000020000000000000000000000000000000000800000000000000010000000000000000000000000000000000000001000000000000000200000",
      "type": "0x2",
      "effectiveGasPrice": "0xde63bfef"
    },
    {
      "transactionHash": "0xc119b102228d2b8ca18a704cabe3bbda0bb4585f26bbc041c98ea00f9c45bcb4",
      "transactionIndex": "0x4",
      "blockHash": "0xf66c9ef7b6f7f706ab52fbcedae4b2c7fdee5719f6eba2c7e3bc7e7f6680908e",
      "blockNumber": "0x6c1462",
      "from": "0xDdb342ecc94236c29a5307d3757d0724D759453C",
      "to": "0xCa14007Eff0dB1f8135f4C25B34De49AB0d42766",
      "cumulativeGasUsed": "0x4ce62",
      "gasUsed": "0x9bdd",
      "contractAddress": null,
      "logs": [
        {
          "address": "0xCa14007Eff0dB1f8135f4C25B34De49AB0d42766",
          "topics": [
            "0xddf252ad1be2c89b69c2b068fc378daa952ba7f163c4a11628f55a4df523b3ef",
            "0x000000000000000000000000ddb342ecc94236c29a5307d3757d0724d759453c",
            "0x000000000000000000000000789896a584070a7e2554a39c4f1d9ff010d5de16"
          ],
          "data": "0x000000000000000000000000000000000000000000000000000000000007a120",
          "blockHash": "0xf66c9ef7b6f7f706ab52fbcedae4b2c7fdee5719f6eba2c7e3bc7e7f6680908e",
          "blockNumber": "0x6c1462",
          "transactionHash": "0xc119b102228d2b8ca18a704cabe3bbda0bb4585f26bbc041c98ea00f9c45bcb4",
          "transactionIndex": "0x4",
          "logIndex": "0x4",
          "removed": false
        }
      ],
      "status": "0x1",
      "logsBloom": "0x00000000000000000000000000000000000000000000000000000000000000000000000000000000000000000000000000000000000000000000000000000000000000000000000000000008000008000000000000000000000000000000000400000000000000000000000000000000400000000000000000000010400000000000000000000000000000000000200000000000000000000000000000000000000000000000000000000000000000000000000000000000000000000000000000000002000000020000000000000000000000000000000000800000000000000000000000000000000000000000000000000000001000000000000000200000",
      "type": "0x2",
      "effectiveGasPrice": "0xde63bfef"
    },
    {
      "transactionHash": "0x0c4a12847f4df19ece55031e3cac7e205042c853f3dd873526974c303ded190b",
      "transactionIndex": "0x5",
      "blockHash": "0xf66c9ef7b6f7f706ab52fbcedae4b2c7fdee5719f6eba2c7e3bc7e7f6680908e",
      "blockNumber": "0x6c1462",
      "from": "0xDdb342ecc94236c29a5307d3757d0724D759453C",
      "to": "0xE2Bb56ee936fd6433DC0F6e7e3b8365C906AA057",
      "cumulativeGasUsed": "0x5cf91",
      "gasUsed": "0x1012f",
      "contractAddress": null,
      "logs": [
        {
          "address": "0xE2Bb56ee936fd6433DC0F6e7e3b8365C906AA057",
          "topics": [
            "0xdb80dd488acf86d17c747445b0eabb5d57c541d3bd7b6b87af987858e5066b2b",
            "0x000000000000000000000000ddb342ecc94236c29a5307d3757d0724d759453c",
            "0x06dd4f60f2786d32f2754e08448c06265558ca6336ba4e38dc3610fa4f11d337",
            "0x00f1149cade9d692862ad41df96b108aa2c20af34f640457e781d166c98dc6b0"
          ],
          "data": "0x0000000000000000000000000000000000000000000000000000000000000060000000000000000000000000000000000000000000000000000000000000287d00000000000000000000000000000000000000000000000000038d7ea4c6800000000000000000000000000000000000000000000000000000000000000000090000000000000000000000000000000000000000000000000000000000000000000000000000000000000000ddb342ecc94236c29a5307d3757d0724d759453c04718f5a0fc34cc1af16a1cdee98ffb20c31f5cd61d6ab07201858f4287c938d053b40a647cedfca6ca84f542a0fe36736031905a9639a7f19a3c1e66bfd5080000000000000000000000000000000000020c49ba5e353f8000000000000000000000000000000000000000000000000000000000000000000000000673775000000000000000000000000000000000000000000000000000000000067377540000000000000000000000000000000000000000000000000000000000007a120053b40a647cedfca6ca84f542a0fe36736031905a9639a7f19a3c1e66bfd5080",
          "blockHash": "0xf66c9ef7b6f7f706ab52fbcedae4b2c7fdee5719f6eba2c7e3bc7e7f6680908e",
          "blockNumber": "0x6c1462",
          "transactionHash": "0x0c4a12847f4df19ece55031e3cac7e205042c853f3dd873526974c303ded190b",
          "transactionIndex": "0x5",
          "logIndex": "0x5",
          "removed": false
        }
      ],
      "status": "0x1",
      "logsBloom": "0x00480000000000000000000000020000000000000000000000000000000000000000000000000000000000000000000000000000000000000000000000000000000000000000000000000000000000000000000000000040001000000000000400000000100000010000000000000000400000000000000000000000400000000000000000000000000000000000000004000000000000000000000000000010000000000000000000000020000000000000000000000000000000000001000000000000000000000000000000000000000000000000000000000000000000000000000000000000000008000000000000000000000000000000000000000000",
      "type": "0x2",
      "effectiveGasPrice": "0xde63bfef"
    }
  ],
  "libraries": [],
  "pending": [],
  "returns": {},
  "timestamp": 1731687737,
  "chain": 11155111,
  "multi": false,
  "commit": "945f7f2"
}