{
  "transactions": [
    {
      "hash": "0x9a784dd1da41913a708a482ef37ab6bef15ce8b93b65aaf1a700d562822dd41a",
      "transactionType": "CALL",
      "contractName": "StarkNetToken",
      "contractAddress": "0xCa14007Eff0dB1f8135f4C25B34De49AB0d42766",
      "function": "approve(address,uint256)",
      "arguments": [
        "0x3e62Ebc750CAe9c151E10df4a8d1d041ca05481c",
        "115792089237316195423570985008687907853269984665640564039457584007913129639935"
      ],
      "transaction": {
        "type": "0x02",
        "from": "0xddb342ecc94236c29a5307d3757d0724d759453c",
        "to": "0xca14007eff0db1f8135f4c25b34de49ab0d42766",
        "gas": "0x93a9",
        "value": "0x0",
        "data": "0x095ea7b30000000000000000000000003e62ebc750cae9c151e10df4a8d1d041ca05481cffffffffffffffffffffffffffffffffffffffffffffffffffffffffffffffff",
        "nonce": "0x2b8",
        "accessList": []
      },
      "additionalContracts": [],
      "isFixedGasLimit": false
    },
    {
      "hash": "0x6cc44f1963c7696e31741eeca82f5cdd14e055f7f3ffaae83e801781852ddbe5",
      "transactionType": "CALL",
      "contractName": "StarkNetToken",
      "contractAddress": "0xCa14007Eff0dB1f8135f4C25B34De49AB0d42766",
      "function": "transfer(address,uint256)",
      "arguments": [
        "0x3e62Ebc750CAe9c151E10df4a8d1d041ca05481c",
        "500000000000"
      ],
      "transaction": {
        "type": "0x02",
        "from": "0xddb342ecc94236c29a5307d3757d0724d759453c",
        "to": "0xca14007eff0db1f8135f4c25b34de49ab0d42766",
        "gas": "0x1339c",
        "value": "0x0",
        "data": "0xa9059cbb0000000000000000000000003e62ebc750cae9c151e10df4a8d1d041ca05481c000000000000000000000000000000000000000000000000000000746a528800",
        "nonce": "0x2b9",
        "accessList": []
      },
      "additionalContracts": [],
      "isFixedGasLimit": false
    },
    {
      "hash": "0x6d58279a03fc448e4fa0c0d8dc02fc569aaeefb86d47b55b40fb3c5db0c5c65d",
      "transactionType": "CALL",
      "contractName": "L1TWAMMBridge",
      "contractAddress": "0x3e62Ebc750CAe9c151E10df4a8d1d041ca05481c",
      "function": "deposit(uint256,uint256)",
      "arguments": [
        "500000000000",
        "291006592231246577856538276766947392559524049344532502594027743470236547622"
      ],
      "transaction": {
        "type": "0x02",
        "from": "0xddb342ecc94236c29a5307d3757d0724d759453c",
        "to": "0x3e62ebc750cae9c151e10df4a8d1d041ca05481c",
        "gas": "0x2d757",
        "value": "0x5af3107a4000",
        "data": "0xe2bbb158000000000000000000000000000000000000000000000000000000746a52880000a4b4326afe977d0a44d258d0402ffacc9b7925608dade6d0ed454f90113a26",
        "nonce": "0x2ba",
        "accessList": []
      },
      "additionalContracts": [],
      "isFixedGasLimit": false
    },
    {
      "hash": "0xb58a6c1b16d00391e20c7b8bd78f17fc94d189489753b9eb149752a438170879",
      "transactionType": "CALL",
      "contractName": "Proxy",
      "contractAddress": "0xE2Bb56ee936fd6433DC0F6e7e3b8365C906AA057",
      "function": "sendMessageToL2(uint256,uint256,uint256[])",
      "arguments": [
        "291006592231246577856538276766947392559524049344532502594027743470236547622",
        "425952401605428413817582304755919420533935873840436977667370850915372091056",
        "[0, 1265684623727634235329190328445374361672779121980, 2009894490435840142178314390393166646092438090257831307886760648929397478285, 2366254414417873771392932940469309727793822550615514268240785277201753657472, 170141183460469235273462165868118016, 1731434992, 1731435056, 500000000000]"
      ],
      "transaction": {
        "type": "0x02",
        "from": "0xddb342ecc94236c29a5307d3757d0724d759453c",
        "to": "0xe2bb56ee936fd6433dc0f6e7e3b8365c906aa057",
        "gas": "0x15f0a",
        "value": "0x5af3107a4000",
        "data": "0x3e3aa6c500a4b4326afe977d0a44d258d0402ffacc9b7925608dade6d0ed454f90113a2600f1149cade9d692862ad41df96b108aa2c20af34f640457e781d166c98dc6b0000000000000000000000000000000000000000000000000000000000000006000000000000000000000000000000000000000000000000000000000000000080000000000000000000000000000000000000000000000000000000000000000000000000000000000000000ddb342ecc94236c29a5307d3757d0724d759453c04718f5a0fc34cc1af16a1cdee98ffb20c31f5cd61d6ab07201858f4287c938d053b40a647cedfca6ca84f542a0fe36736031905a9639a7f19a3c1e66bfd5080000000000000000000000000000000000020c49ba5e353f8000000000000000000000000000000000000000000000000000000000000000000000000673399f00000000000000000000000000000000000000000000000000000000067339a30000000000000000000000000000000000000000000000000000000746a528800",
        "nonce": "0x2bb",
        "accessList": []
      },
      "additionalContracts": [],
      "isFixedGasLimit": false
    }
  ],
  "receipts": [
    {
      "transactionHash": "0x9a784dd1da41913a708a482ef37ab6bef15ce8b93b65aaf1a700d562822dd41a",
      "transactionIndex": "0x8",
      "blockHash": "0x790151cd798f9ed43e80337509a370411307fd2f1cfeca78eebd0003336e1ce3",
      "blockNumber": "0x6bc6db",
      "from": "0xDdb342ecc94236c29a5307d3757d0724D759453C",
      "to": "0xCa14007Eff0dB1f8135f4C25B34De49AB0d42766",
      "cumulativeGasUsed": "0x836c4",
      "gasUsed": "0x6ae8",
      "contractAddress": null,
      "logs": [
        {
          "address": "0xCa14007Eff0dB1f8135f4C25B34De49AB0d42766",
          "topics": [
            "0x8c5be1e5ebec7d5bd14f71427d1e84f3dd0314c0f7b2291e5b200ac8c7c3b925",
            "0x000000000000000000000000ddb342ecc94236c29a5307d3757d0724d759453c",
            "0x0000000000000000000000003e62ebc750cae9c151e10df4a8d1d041ca05481c"
          ],
          "data": "0xffffffffffffffffffffffffffffffffffffffffffffffffffffffffffffffff",
          "blockHash": "0x790151cd798f9ed43e80337509a370411307fd2f1cfeca78eebd0003336e1ce3",
          "blockNumber": "0x6bc6db",
          "transactionHash": "0x9a784dd1da41913a708a482ef37ab6bef15ce8b93b65aaf1a700d562822dd41a",
          "transactionIndex": "0x8",
          "logIndex": "0xb",
          "removed": false
        }
      ],
      "status": "0x1",
      "logsBloom": "0x00000000000000000000000000000000000000000000000000000000000000000000000000000000000000000000000000000000000000000000000000200000000000000000000000000000000000000000000000000000000000000000000400000000000000000000000000000000400000000000000000000000400000000000000000000000000000000000000000000000000000000000000000000000020000000000000000000000000000000000000000000000000000000000008000000000000000022000040000000000000000000000000000800000000000000010000000000000000000000000000000000000001000000000000000000000",
      "type": "0x2",
      "effectiveGasPrice": "0x237811990"
    },
    {
      "transactionHash": "0x6cc44f1963c7696e31741eeca82f5cdd14e055f7f3ffaae83e801781852ddbe5",
      "transactionIndex": "0x9",
      "blockHash": "0x790151cd798f9ed43e80337509a370411307fd2f1cfeca78eebd0003336e1ce3",
      "blockNumber": "0x6bc6db",
      "from": "0xDdb342ecc94236c29a5307d3757d0724D759453C",
      "to": "0xCa14007Eff0dB1f8135f4C25B34De49AB0d42766",
      "cumulativeGasUsed": "0x91579",
      "gasUsed": "0xdeb5",
      "contractAddress": null,
      "logs": [
        {
          "address": "0xCa14007Eff0dB1f8135f4C25B34De49AB0d42766",
          "topics": [
            "0xddf252ad1be2c89b69c2b068fc378daa952ba7f163c4a11628f55a4df523b3ef",
            "0x000000000000000000000000ddb342ecc94236c29a5307d3757d0724d759453c",
            "0x0000000000000000000000003e62ebc750cae9c151e10df4a8d1d041ca05481c"
          ],
          "data": "0x000000000000000000000000000000000000000000000000000000746a528800",
          "blockHash": "0x790151cd798f9ed43e80337509a370411307fd2f1cfeca78eebd0003336e1ce3",
          "blockNumber": "0x6bc6db",
          "transactionHash": "0x6cc44f1963c7696e31741eeca82f5cdd14e055f7f3ffaae83e801781852ddbe5",
          "transactionIndex": "0x9",
          "logIndex": "0xc",
          "removed": false
        }
      ],
      "status": "0x1",
      "logsBloom": "0x00000000000000000000000000000000000000000000000000000000000000000000000000000000000000000000000000000000000000000000000000000000000000000000000000000008000000000000000000000000000000000000000400000000000000000000000000000000400000000000000000000010400000000000000000000000000000000000000000000000000000000000000000000000000000000000000000000000000000000000000000000000000000000000008000000002000000022000040000000000000000000000000000800000000000000000000000000000000000000000000000000000001000000000000000000000",
      "type": "0x2",
      "effectiveGasPrice": "0x237811990"
    },
    {
      "transactionHash": "0x6d58279a03fc448e4fa0c0d8dc02fc569aaeefb86d47b55b40fb3c5db0c5c65d",
      "transactionIndex": "0xa",
      "blockHash": "0x790151cd798f9ed43e80337509a370411307fd2f1cfeca78eebd0003336e1ce3",
      "blockNumber": "0x6bc6db",
      "from": "0xDdb342ecc94236c29a5307d3757d0724D759453C",
      "to": "0x3e62Ebc750CAe9c151E10df4a8d1d041ca05481c",
      "cumulativeGasUsed": "0xb240e",
      "gasUsed": "0x20e95",
      "contractAddress": null,
      "logs": [
        {
          "address": "0xCa14007Eff0dB1f8135f4C25B34De49AB0d42766",
          "topics": [
            "0x8c5be1e5ebec7d5bd14f71427d1e84f3dd0314c0f7b2291e5b200ac8c7c3b925",
            "0x0000000000000000000000003e62ebc750cae9c151e10df4a8d1d041ca05481c",
            "0x000000000000000000000000ce5485cfb26914c5dce00b9baf0580364dafc7a4"
          ],
          "data": "0x000000000000000000000000000000000000000000000000000000746a528800",
          "blockHash": "0x790151cd798f9ed43e80337509a370411307fd2f1cfeca78eebd0003336e1ce3",
          "blockNumber": "0x6bc6db",
          "transactionHash": "0x6d58279a03fc448e4fa0c0d8dc02fc569aaeefb86d47b55b40fb3c5db0c5c65d",
          "transactionIndex": "0xa",
          "logIndex": "0xd",
          "removed": false
        },
        {
          "address": "0xCa14007Eff0dB1f8135f4C25B34De49AB0d42766",
          "topics": [
            "0x8c5be1e5ebec7d5bd14f71427d1e84f3dd0314c0f7b2291e5b200ac8c7c3b925",
            "0x0000000000000000000000003e62ebc750cae9c151e10df4a8d1d041ca05481c",
            "0x000000000000000000000000ce5485cfb26914c5dce00b9baf0580364dafc7a4"
          ],
          "data": "0x0000000000000000000000000000000000000000000000000000000000000000",
          "blockHash": "0x790151cd798f9ed43e80337509a370411307fd2f1cfeca78eebd0003336e1ce3",
          "blockNumber": "0x6bc6db",
          "transactionHash": "0x6d58279a03fc448e4fa0c0d8dc02fc569aaeefb86d47b55b40fb3c5db0c5c65d",
          "transactionIndex": "0xa",
          "logIndex": "0xe",
          "removed": false
        },
        {
          "address": "0xCa14007Eff0dB1f8135f4C25B34De49AB0d42766",
          "topics": [
            "0xddf252ad1be2c89b69c2b068fc378daa952ba7f163c4a11628f55a4df523b3ef",
            "0x0000000000000000000000003e62ebc750cae9c151e10df4a8d1d041ca05481c",
            "0x000000000000000000000000ce5485cfb26914c5dce00b9baf0580364dafc7a4"
          ],
          "data": "0x000000000000000000000000000000000000000000000000000000746a528800",
          "blockHash": "0x790151cd798f9ed43e80337509a370411307fd2f1cfeca78eebd0003336e1ce3",
          "blockNumber": "0x6bc6db",
          "transactionHash": "0x6d58279a03fc448e4fa0c0d8dc02fc569aaeefb86d47b55b40fb3c5db0c5c65d",
          "transactionIndex": "0xa",
          "logIndex": "0xf",
          "removed": false
        },
        {
          "address": "0xE2Bb56ee936fd6433DC0F6e7e3b8365C906AA057",
          "topics": [
            "0xdb80dd488acf86d17c747445b0eabb5d57c541d3bd7b6b87af987858e5066b2b",
            "0x000000000000000000000000ce5485cfb26914c5dce00b9baf0580364dafc7a4",
            "0x0594c1582459ea03f77deaf9eb7e3917d6994a03c13405ba42867f83d85f085d",
            "0x01b64b1b3b690b43b9b514fb81377518f4039cd3e4f4914d8a6bdf01d679fb19"
          ],
          "data": "0x0000000000000000000000000000000000000000000000000000000000000060000000000000000000000000000000000000000000000000000000000000283200000000000000000000000000000000000000000000000000005af3107a40000000000000000000000000000000000000000000000000000000000000000005000000000000000000000000ca14007eff0db1f8135f4c25b34de49ab0d427660000000000000000000000003e62ebc750cae9c151e10df4a8d1d041ca05481c00a4b4326afe977d0a44d258d0402ffacc9b7925608dade6d0ed454f90113a26000000000000000000000000000000000000000000000000000000746a5288000000000000000000000000000000000000000000000000000000000000000000",
          "blockHash": "0x790151cd798f9ed43e80337509a370411307fd2f1cfeca78eebd0003336e1ce3",
          "blockNumber": "0x6bc6db",
          "transactionHash": "0x6d58279a03fc448e4fa0c0d8dc02fc569aaeefb86d47b55b40fb3c5db0c5c65d",
          "transactionIndex": "0xa",
          "logIndex": "0x10",
          "removed": false
        },
        {
          "address": "0xcE5485Cfb26914C5dcE00B9BAF0580364daFC7a4",
          "topics": [
            "0x5f971bd00bf3ffbca8a6d72cdd4fd92cfd4f62636161921d1e5a64f0b64ccb6d",
            "0x0000000000000000000000003e62ebc750cae9c151e10df4a8d1d041ca05481c",
            "0x000000000000000000000000ca14007eff0db1f8135f4c25b34de49ab0d42766",
            "0x00a4b4326afe977d0a44d258d0402ffacc9b7925608dade6d0ed454f90113a26"
          ],
          "data": "0x000000000000000000000000000000000000000000000000000000746a528800000000000000000000000000000000000000000000000000000000000000283200000000000000000000000000000000000000000000000000005af3107a4000",
          "blockHash": "0x790151cd798f9ed43e80337509a370411307fd2f1cfeca78eebd0003336e1ce3",
          "blockNumber": "0x6bc6db",
          "transactionHash": "0x6d58279a03fc448e4fa0c0d8dc02fc569aaeefb86d47b55b40fb3c5db0c5c65d",
          "transactionIndex": "0xa",
          "logIndex": "0x11",
          "removed": false
        }
      ],
      "status": "0x1",
      "logsBloom": "0x000000000000000002000000000200000000000000000000000000000000004000000000000000000000000000000000000000000000440000000000002000000000000000000000000000080800000000000000000000400010000000000000000000001000000000000000000000000000000000000000000000100000080020000000000000000000000004000000000000000002000000000200000000100200000000000000000000200000000010000000000000200000000000000080000000020000000260100400000000000000002000000000008000000000000000100000040100000000000200c4000000000000001000000000000000000000",
      "type": "0x2",
      "effectiveGasPrice": "0x237811990"
    },
    {
      "transactionHash": "0xb58a6c1b16d00391e20c7b8bd78f17fc94d189489753b9eb149752a438170879",
      "transactionIndex": "0xb",
      "blockHash": "0x790151cd798f9ed43e80337509a370411307fd2f1cfeca78eebd0003336e1ce3",
      "blockNumber": "0x6bc6db",
      "from": "0xDdb342ecc94236c29a5307d3757d0724D759453C",
      "to": "0xE2Bb56ee936fd6433DC0F6e7e3b8365C906AA057",
      "cumulativeGasUsed": "0xc2234",
      "gasUsed": "0xfe26",
      "contractAddress": null,
      "logs": [
        {
          "address": "0xE2Bb56ee936fd6433DC0F6e7e3b8365C906AA057",
          "topics": [
            "0xdb80dd488acf86d17c747445b0eabb5d57c541d3bd7b6b87af987858e5066b2b",
            "0x000000000000000000000000ddb342ecc94236c29a5307d3757d0724d759453c",
            "0x00a4b4326afe977d0a44d258d0402ffacc9b7925608dade6d0ed454f90113a26",
            "0x00f1149cade9d692862ad41df96b108aa2c20af34f640457e781d166c98dc6b0"
          ],
          "data": "0x0000000000000000000000000000000000000000000000000000000000000060000000000000000000000000000000000000000000000000000000000000283300000000000000000000000000000000000000000000000000005af3107a400000000000000000000000000000000000000000000000000000000000000000080000000000000000000000000000000000000000000000000000000000000000000000000000000000000000ddb342ecc94236c29a5307d3757d0724d759453c04718f5a0fc34cc1af16a1cdee98ffb20c31f5cd61d6ab07201858f4287c938d053b40a647cedfca6ca84f542a0fe36736031905a9639a7f19a3c1e66bfd5080000000000000000000000000000000000020c49ba5e353f8000000000000000000000000000000000000000000000000000000000000000000000000673399f00000000000000000000000000000000000000000000000000000000067339a30000000000000000000000000000000000000000000000000000000746a528800",
          "blockHash": "0x790151cd798f9ed43e80337509a370411307fd2f1cfeca78eebd0003336e1ce3",
          "blockNumber": "0x6bc6db",
          "transactionHash": "0xb58a6c1b16d00391e20c7b8bd78f17fc94d189489753b9eb149752a438170879",
          "transactionIndex": "0xb",
          "logIndex": "0x12",
          "removed": false
        }
      ],
      "status": "0x1",
      "logsBloom": "0x00400000000000000000000000020000000000000000000000000000000000000000000000000000000000000000000000000000000040000000000000000000000000000000000000000000000000000000000000000040001000000000000400000000100000010000000000000000400000000000000000000000400000000000000000000000000000000000000004000000000000000000000000000010000000000000000000000020000000000000000000000000000000000000000000000000000000000000000000000000000000000000000000000000000000000000000004000000000000000040000000000000000000000000000000000000",
      "type": "0x2",
      "effectiveGasPrice": "0x237811990"
    }
  ],
  "libraries": [],
  "pending": [],
  "returns": {},
  "timestamp": 1731435052,
  "chain": 11155111,
  "multi": false,
  "commit": "39f9f49"
}