{
  "transactions": [
    {
      "hash": "0x7f1551d257212f26852fd89355de8e083c7020b6401393ddeeb042046c207a40",
      "transactionType": "CALL",
      "contractName": null,
      "contractAddress": "0xca14007eff0db1f8135f4c25b34de49ab0d42766",
      "function": "approve(address,uint256)",
      "arguments": [
        "0x21e0b6863F74642fc7764Aa1A394079E388a7b53",
        "115792089237316195423570985008687907853269984665640564039457584007913129639935"
      ],
      "transaction": {
        "from": "0xddb342ecc94236c29a5307d3757d0724d759453c",
        "to": "0xca14007eff0db1f8135f4c25b34de49ab0d42766",
        "gas": "0x93a9",
        "value": "0x0",
        "input": "0x095ea7b300000000000000000000000021e0b6863f74642fc7764aa1a394079e388a7b53ffffffffffffffffffffffffffffffffffffffffffffffffffffffffffffffff",
        "nonce": "0x486",
        "chainId": "0xaa36a7"
      },
      "additionalContracts": [],
      "isFixedGasLimit": false
    },
    {
      "hash": "0x3629e9ec0d82b6d6e542f3cb90f6541b86ceb7322fc955e9e2390ec01e9c2858",
      "transactionType": "CALL",
      "contractName": null,
      "contractAddress": "0x21e0b6863f74642fc7764aa1a394079e388a7b53",
      "function": "initiateWithdrawal(address,address,uint64)",
      "arguments": [
        "0xDdb342ecc94236c29a5307d3757d0724D759453C",
        "0x1c7D4B196Cb0C7B01d743Fbc6116a902379C7238",
        "482"
      ],
      "transaction": {
        "from": "0xddb342ecc94236c29a5307d3757d0724d759453c",
        "to": "0x21e0b6863f74642fc7764aa1a394079e388a7b53",
        "gas": "0x19c5e",
        "value": "0x1c6bf52634000",
        "input": "0x9b4085f6000000000000000000000000ddb342ecc94236c29a5307d3757d0724d759453c0000000000000000000000001c7d4b196cb0c7b01d743fbc6116a902379c723800000000000000000000000000000000000000000000000000000000000001e2",
        "nonce": "0x487",
        "chainId": "0xaa36a7"
      },
      "additionalContracts": [],
      "isFixedGasLimit": false
    }
  ],
  "receipts": [
    {
      "status": "0x1",
      "cumulativeGasUsed": "0xe10425",
      "logs": [
        {
          "address": "0xca14007eff0db1f8135f4c25b34de49ab0d42766",
          "topics": [
            "0x8c5be1e5ebec7d5bd14f71427d1e84f3dd0314c0f7b2291e5b200ac8c7c3b925",
            "0x000000000000000000000000ddb342ecc94236c29a5307d3757d0724d759453c",
            "0x00000000000000000000000021e0b6863f74642fc7764aa1a394079e388a7b53"
          ],
          "data": "0xffffffffffffffffffffffffffffffffffffffffffffffffffffffffffffffff",
          "blockHash": "0xdaf2c3dedb2203b6d8cd7ec220819c88729030a49c9e1d5335652ab434fc166d",
          "blockNumber": "0x71c131",
          "transactionHash": "0x7f1551d257212f26852fd89355de8e083c7020b6401393ddeeb042046c207a40",
          "transactionIndex": "0x61",
          "logIndex": "0x8f",
          "removed": false
        }
      ],
      "logsBloom": "0x00000000000000000000000000000000000000000000000000000000000000000000000000000000000000000000000000200000000000000000000000200000000000000000000000000000000000000000000000000000000000000000000600000000000000000000000000000000400000000000000000000000400000000000000000000000000000000000000000000000000000000000000000000000020000000000000000000000000000000000000000000000000000000000000000000000000000020000000000000000000000000000000000800000000000000010000000000000000000000000000200000000001000000000000000000000",
      "type": "0x2",
      "transactionHash": "0x7f1551d257212f26852fd89355de8e083c7020b6401393ddeeb042046c207a40",
      "transactionIndex": "0x61",
      "blockHash": "0xdaf2c3dedb2203b6d8cd7ec220819c88729030a49c9e1d5335652ab434fc166d",
      "blockNumber": "0x71c131",
      "gasUsed": "0x6ae8",
      "effectiveGasPrice": "0x29117f6a1",
      "from": "0xddb342ecc94236c29a5307d3757d0724d759453c",
      "to": "0xca14007eff0db1f8135f4c25b34de49ab0d42766",
      "contractAddress": null
    },
    {
      "status": "0x1",
      "cumulativeGasUsed": "0xe22eb2",
      "logs": [
        {
          "address": "0xe2bb56ee936fd6433dc0f6e7e3b8365c906aa057",
          "topics": [
            "0xdb80dd488acf86d17c747445b0eabb5d57c541d3bd7b6b87af987858e5066b2b",
            "0x00000000000000000000000021e0b6863f74642fc7764aa1a394079e388a7b53",
            "0x018a1a551c99cef5b5b4d6bb5b81754683ea084bb89807490c67049ea67e93a0",
            "0x00f1149cade9d692862ad41df96b108aa2c20af34f640457e781d166c98dc6b0"
          ],
          "data": "0x00000000000000000000000000000000000000000000000000000000000000600000000000000000000000000000000000000000000000000000000000002b6f0000000000000000000000000000000000000000000000000001c6bf5263400000000000000000000000000000000000000000000000000000000000000000050000000000000000000000000000000000000000000000000000000000000002000000000000000000000000ddb342ecc94236c29a5307d3757d0724d759453c000000000000000000000000ddb342ecc94236c29a5307d3757d0724d759453c0000000000000000000000001c7d4b196cb0c7b01d743fbc6116a902379c723800000000000000000000000000000000000000000000000000000000000001e2",
          "blockHash": "0xdaf2c3dedb2203b6d8cd7ec220819c88729030a49c9e1d5335652ab434fc166d",
          "blockNumber": "0x71c131",
          "transactionHash": "0x3629e9ec0d82b6d6e542f3cb90f6541b86ceb7322fc955e9e2390ec01e9c2858",
          "transactionIndex": "0x62",
          "logIndex": "0x90",
          "removed": false
        },
        {
          "address": "0x21e0b6863f74642fc7764aa1a394079e388a7b53",
          "topics": [
            "0x89bd98ae1b8dd4dbaeba50e40ad484414a306be9fb54ec4eecf1a801ca9aeacf",
            "0x000000000000000000000000ddb342ecc94236c29a5307d3757d0724d759453c"
          ],
          "data": "0x00000000000000000000000000000000000000000000000000000000000001e2",
          "blockHash": "0xdaf2c3dedb2203b6d8cd7ec220819c88729030a49c9e1d5335652ab434fc166d",
          "blockNumber": "0x71c131",
          "transactionHash": "0x3629e9ec0d82b6d6e542f3cb90f6541b86ceb7322fc955e9e2390ec01e9c2858",
          "transactionIndex": "0x62",
          "logIndex": "0x91",
          "removed": false
        }
      ],
      "logsBloom": "0x00400000040000000000000000020000000000000000000000000000000000000000000000000000000000000000000000200000000000000000000000000000000800000040000000000000000000000000000000000040001000000000000600000000100000010000000000000000400000000000008000000000400000000000100000000000000000000000000004000000800000000000000000000010000000000000001000000020000000000000000000000000000000000000000000000000000008000000000000000000000000000000000000000000000000000000000000000000000000002000000200000000000000000000000000000000",
      "type": "0x2",
      "transactionHash": "0x3629e9ec0d82b6d6e542f3cb90f6541b86ceb7322fc955e9e2390ec01e9c2858",
      "transactionIndex": "0x62",
      "blockHash": "0xdaf2c3dedb2203b6d8cd7ec220819c88729030a49c9e1d5335652ab434fc166d",
      "blockNumber": "0x71c131",
      "gasUsed": "0x12a8d",
      "effectiveGasPrice": "0x29117f6a1",
      "from": "0xddb342ecc94236c29a5307d3757d0724d759453c",
      "to": "0x21e0b6863f74642fc7764aa1a394079e388a7b53",
      "contractAddress": null
    }
  ],
  "libraries": [],
  "pending": [],
  "returns": {},
  "timestamp": 1736440837,
  "chain": 11155111,
  "commit": "6a172c2"
}