{
  "transactions": [
    {
      "hash": "0xdb330e1eef9a30ed3b5cf717a47b72700939053d404c02337ea4c34ceb033229",
      "transactionType": "CALL",
      "contractName": null,
      "contractAddress": "0xca14007eff0db1f8135f4c25b34de49ab0d42766",
      "function": "approve(address,uint256)",
      "arguments": [
        "0xabcd70100c04F7aD20DDF425705c91AB2BeA4e56",
        "115792089237316195423570985008687907853269984665640564039457584007913129639935"
      ],
      "transaction": {
        "from": "0xddb342ecc94236c29a5307d3757d0724d759453c",
        "to": "0xca14007eff0db1f8135f4c25b34de49ab0d42766",
        "gas": "0x93a9",
        "value": "0x0",
        "input": "0x095ea7b3000000000000000000000000abcd70100c04f7ad20ddf425705c91ab2bea4e56ffffffffffffffffffffffffffffffffffffffffffffffffffffffffffffffff",
        "nonce": "0x525",
        "chainId": "0xaa36a7"
      },
      "additionalContracts": [],
      "isFixedGasLimit": false
    },
    {
      "hash": "0x39aef9920d6df22b1825e21595ced5fe08108c1b3dd72480a392f824e26cffe5",
      "transactionType": "CALL",
      "contractName": null,
      "contractAddress": "0xabcd70100c04f7ad20ddf425705c91ab2bea4e56",
      "function": "initiateWithdrawal(address,address,uint64)",
      "arguments": [
        "0xDdb342ecc94236c29a5307d3757d0724D759453C",
        "0x1c7D4B196Cb0C7B01d743Fbc6116a902379C7238",
        "539"
      ],
      "transaction": {
        "from": "0xddb342ecc94236c29a5307d3757d0724d759453c",
        "to": "0xabcd70100c04f7ad20ddf425705c91ab2bea4e56",
        "gas": "0x1b4c1",
        "value": "0x1c6bf52634000",
        "input": "0x9b4085f6000000000000000000000000ddb342ecc94236c29a5307d3757d0724d759453c0000000000000000000000001c7d4b196cb0c7b01d743fbc6116a902379c7238000000000000000000000000000000000000000000000000000000000000021b",
        "nonce": "0x526",
        "chainId": "0xaa36a7"
      },
      "additionalContracts": [],
      "isFixedGasLimit": false
    }
  ],
  "receipts": [
    {
      "status": "0x1",
      "cumulativeGasUsed": "0x9f3aed",
      "logs": [
        {
          "address": "0xca14007eff0db1f8135f4c25b34de49ab0d42766",
          "topics": [
            "0x8c5be1e5ebec7d5bd14f71427d1e84f3dd0314c0f7b2291e5b200ac8c7c3b925",
            "0x000000000000000000000000ddb342ecc94236c29a5307d3757d0724d759453c",
            "0x000000000000000000000000abcd70100c04f7ad20ddf425705c91ab2bea4e56"
          ],
          "data": "0xffffffffffffffffffffffffffffffffffffffffffffffffffffffffffffffff",
          "blockHash": "0xf82c39d669a052fde8f4b8757a166cdbae5719f1d29d8eb1167b800bc1161bb3",
          "blockNumber": "0x731082",
          "transactionHash": "0xdb330e1eef9a30ed3b5cf717a47b72700939053d404c02337ea4c34ceb033229",
          "transactionIndex": "0x50",
          "logIndex": "0x5c",
          "removed": false
        }
      ],
      "logsBloom": "0x00000000010000000000100000000000000000000000000000000000000000000000000000000000000000000000000000000000000000000000000000200000000000000000000000000000000000000000000000000000000000000000000400000000000000000000000000000000400000000000000000000000400000000000000000000000000000000000000000000000000000000000000000000000020000000000000000000000000000000000000000000000000000000000000000000000000000020000000000000000000000000000000000800000000000000010000000001000000000000000000000000000001000000000000000000000",
      "type": "0x2",
      "transactionHash": "0xdb330e1eef9a30ed3b5cf717a47b72700939053d404c02337ea4c34ceb033229",
      "transactionIndex": "0x50",
      "blockHash": "0xf82c39d669a052fde8f4b8757a166cdbae5719f1d29d8eb1167b800bc1161bb3",
      "blockNumber": "0x731082",
      "gasUsed": "0x6ae8",
      "effectiveGasPrice": "0xba6ccaa2",
      "from": "0xddb342ecc94236c29a5307d3757d0724d759453c",
      "to": "0xca14007eff0db1f8135f4c25b34de49ab0d42766",
      "contractAddress": null
    },
    {
      "status": "0x1",
      "cumulativeGasUsed": "0xa06590",
      "logs": [
        {
          "address": "0xe2bb56ee936fd6433dc0f6e7e3b8365c906aa057",
          "topics": [
            "0xdb80dd488acf86d17c747445b0eabb5d57c541d3bd7b6b87af987858e5066b2b",
            "0x000000000000000000000000abcd70100c04f7ad20ddf425705c91ab2bea4e56",
            "0x05384d7aa25d47c73d60f2ee889af6b337544c534b05d8560578c06f01db55bd",
            "0x00f1149cade9d692862ad41df96b108aa2c20af34f640457e781d166c98dc6b0"
          ],
          "data": "0x00000000000000000000000000000000000000000000000000000000000000600000000000000000000000000000000000000000000000000000000000002c860000000000000000000000000000000000000000000000000001c6bf5263400000000000000000000000000000000000000000000000000000000000000000050000000000000000000000000000000000000000000000000000000000000002000000000000000000000000ddb342ecc94236c29a5307d3757d0724d759453c000000000000000000000000ddb342ecc94236c29a5307d3757d0724d759453c0000000000000000000000001c7d4b196cb0c7b01d743fbc6116a902379c7238000000000000000000000000000000000000000000000000000000000000021b",
          "blockHash": "0xf82c39d669a052fde8f4b8757a166cdbae5719f1d29d8eb1167b800bc1161bb3",
          "blockNumber": "0x731082",
          "transactionHash": "0x39aef9920d6df22b1825e21595ced5fe08108c1b3dd72480a392f824e26cffe5",
          "transactionIndex": "0x51",
          "logIndex": "0x5d",
          "removed": false
        },
        {
          "address": "0xabcd70100c04f7ad20ddf425705c91ab2bea4e56",
          "topics": [
            "0x89bd98ae1b8dd4dbaeba50e40ad484414a306be9fb54ec4eecf1a801ca9aeacf",
            "0x000000000000000000000000ddb342ecc94236c29a5307d3757d0724d759453c"
          ],
          "data": "0x000000000000000000000000000000000000000000000000000000000000021b",
          "blockHash": "0xf82c39d669a052fde8f4b8757a166cdbae5719f1d29d8eb1167b800bc1161bb3",
          "blockNumber": "0x731082",
          "transactionHash": "0x39aef9920d6df22b1825e21595ced5fe08108c1b3dd72480a392f824e26cffe5",
          "transactionIndex": "0x51",
          "logIndex": "0x5e",
          "removed": false
        }
      ],
      "logsBloom": "0x00400002050000000020100000020000000000000000000000000000000000000000000000000000000000000000000000000000000000000000000000000000000000000000000000000000000000000000000000000040001800000000000400000000100000010000000000000000400000000000000000000000400000000000000000000000000000000000000004000000800000080000000000000010000000000000000000000020000000000000000000000000000000000000000000000000000000000000000000000000000000000000000000000000000000000000000000001000000000002000008000000000000000080000000000000000",
      "type": "0x2",
      "transactionHash": "0x39aef9920d6df22b1825e21595ced5fe08108c1b3dd72480a392f824e26cffe5",
      "transactionIndex": "0x51",
      "blockHash": "0xf82c39d669a052fde8f4b8757a166cdbae5719f1d29d8eb1167b800bc1161bb3",
      "blockNumber": "0x731082",
      "gasUsed": "0x12aa3",
      "effectiveGasPrice": "0xba6ccaa2",
      "from": "0xddb342ecc94236c29a5307d3757d0724d759453c",
      "to": "0xabcd70100c04f7ad20ddf425705c91ab2bea4e56",
      "contractAddress": null
    }
  ],
  "libraries": [],
  "pending": [],
  "returns": {},
  "timestamp": 1737474733,
  "chain": 11155111,
  "commit": "fcbff6b"
}