{
  "transactions": [
    {
      "hash": "0x7060bc41a9565af8260622d42afd821017241b79c6a525411f5e25d128d830f4",
      "transactionType": "CALL",
      "contractName": null,
      "contractAddress": "0xe2bb56ee936fd6433dc0f6e7e3b8365c906aa057",
      "function": "sendMessageToL2(uint256,uint256,uint256[])",
      "arguments": [
        "895727104987828809162429241625736935916774918917144689929620246848995005226",
        "425952401605428413817582304755919420533935873840436977667370850915372091056",
        "[2, 1265684623727634235329190328445374361672779121980, 0, 162645876805862407557836451532389263558424949304, 0, 0, 0, 5000000000000000]"
      ],
      "transaction": {
        "from": "0xddb342ecc94236c29a5307d3757d0724d759453c",
        "to": "0xe2bb56ee936fd6433dc0f6e7e3b8365c906aa057",
        "gas": "0x16feb",
        "value": "0x11c37937e08000",
        "input": "0x3e3aa6c501faf6acdf200ef465ed828e948e626c1b063707810b4702e3197b8ac9eb132a00f1149cade9d692862ad41df96b108aa2c20af34f640457e781d166c98dc6b0000000000000000000000000000000000000000000000000000000000000006000000000000000000000000000000000000000000000000000000000000000080000000000000000000000000000000000000000000000000000000000000002000000000000000000000000ddb342ecc94236c29a5307d3757d0724d759453c00000000000000000000000000000000000000000000000000000000000000000000000000000000000000001c7d4b196cb0c7b01d743fbc6116a902379c72380000000000000000000000000000000000000000000000000000000000000000000000000000000000000000000000000000000000000000000000000000000000000000000000000000000000000000000000000000000000000000000000000000000000000000000000000000000000000000000000000011c37937e08000",
        "nonce": "0x50a",
        "chainId": "0xaa36a7"
      },
      "additionalContracts": [],
      "isFixedGasLimit": false
    }
  ],
  "receipts": [
    {
      "status": "0x1",
      "cumulativeGasUsed": "0x6cba9d",
      "logs": [
        {
          "address": "0xe2bb56ee936fd6433dc0f6e7e3b8365c906aa057",
          "topics": [
            "0xdb80dd488acf86d17c747445b0eabb5d57c541d3bd7b6b87af987858e5066b2b",
            "0x000000000000000000000000ddb342ecc94236c29a5307d3757d0724d759453c",
            "0x01faf6acdf200ef465ed828e948e626c1b063707810b4702e3197b8ac9eb132a",
            "0x00f1149cade9d692862ad41df96b108aa2c20af34f640457e781d166c98dc6b0"
          ],
          "data": "0x00000000000000000000000000000000000000000000000000000000000000600000000000000000000000000000000000000000000000000000000000002c690000000000000000000000000000000000000000000000000011c37937e0800000000000000000000000000000000000000000000000000000000000000000080000000000000000000000000000000000000000000000000000000000000002000000000000000000000000ddb342ecc94236c29a5307d3757d0724d759453c00000000000000000000000000000000000000000000000000000000000000000000000000000000000000001c7d4b196cb0c7b01d743fbc6116a902379c72380000000000000000000000000000000000000000000000000000000000000000000000000000000000000000000000000000000000000000000000000000000000000000000000000000000000000000000000000000000000000000000000000000000000000000000000000000000000000000000000000011c37937e08000",
          "blockHash": "0xff9e87d963fed1f3cc4e5912ac2fa63acab3352b9109a070e37171581972bbc0",
          "blockNumber": "0x730add",
          "transactionHash": "0x7060bc41a9565af8260622d42afd821017241b79c6a525411f5e25d128d830f4",
          "transactionIndex": "0x4e",
          "logIndex": "0x71",
          "removed": false
        }
      ],
      "logsBloom": "0x00400000000000000000000000020000020000000000000000000000000000000000000000000000000000000000000000000000000000000000000000000000000000000000000000000000000000000000000000000040001000000000000400000000100000010000000000000000400000000000000000000000400004000000000000000000000000000000000004000000000000000000000000000010000000000000000000000020000000000000000000000001000000000000000000000000000000000000000000000000000000000000000000000000000000000000000000000000000000000000000000000000000000000000000000000000",
      "type": "0x2",
      "transactionHash": "0x7060bc41a9565af8260622d42afd821017241b79c6a525411f5e25d128d830f4",
      "transactionIndex": "0x4e",
      "blockHash": "0xff9e87d963fed1f3cc4e5912ac2fa63acab3352b9109a070e37171581972bbc0",
      "blockNumber": "0x730add",
      "gasUsed": "0xfb92",
      "effectiveGasPrice": "0x9689cf34",
      "from": "0xddb342ecc94236c29a5307d3757d0724d759453c",
      "to": "0xe2bb56ee936fd6433dc0f6e7e3b8365c906aa057",
      "contractAddress": null
    }
  ],
  "libraries": [],
  "pending": [],
  "returns": {},
  "timestamp": 1737457392,
  "chain": 11155111,
  "commit": "fcbff6b"
}