{
  "transactions": [
    {
      "hash": "0xc2bfc2dbb4087312b12584ad4abce60693a4637804944737feccc7676ac19ffb",
      "transactionType": "CALL",
      "contractName": "StarkNetToken",
      "contractAddress": "0xCa14007Eff0dB1f8135f4C25B34De49AB0d42766",
      "function": "approve(address,uint256)",
      "arguments": [
        "0x7eb4C59eABE1234E8A6D02FdF4d1BB595C4702Cd",
        "115792089237316195423570985008687907853269984665640564039457584007913129639935"
      ],
      "transaction": {
        "type": "0x02",
        "from": "0xddb342ecc94236c29a5307d3757d0724d759453c",
        "to": "0xca14007eff0db1f8135f4c25b34de49ab0d42766",
        "gas": "0x93a9",
        "value": "0x0",
        "data": "0x095ea7b30000000000000000000000007eb4c59eabe1234e8a6d02fdf4d1bb595c4702cdffffffffffffffffffffffffffffffffffffffffffffffffffffffffffffffff",
        "nonce": "0x39c",
        "accessList": []
      },
      "additionalContracts": [],
      "isFixedGasLimit": false
    },
    {
      "hash": "0x42c3979fa4bc5eb73eab06e449fd118c6c4c44db0f2d66e8f96353a316a387d8",
      "transactionType": "CALL",
      "contractName": null,
      "contractAddress": "0x7eb4C59eABE1234E8A6D02FdF4d1BB595C4702Cd",
      "function": "depositAndCreateOrder((address,uint256,uint256,uint128,uint128,uint128,uint128,uint256))",
      "arguments": [
        "(0xDdb342ecc94236c29a5307d3757d0724D759453C, 2009894490435840142178314390393166646092438090257831307886760648929397478285, 2366254414417873771392932940469309727793822550615514268240785277201753657472, 170141183460469235273462165868118016, 1733130112, 1733130176, 500000000000000, 2077074972910245189621335464059728964575110875832755872137813659996403293134)"
      ],
      "transaction": {
        "type": "0x02",
        "from": "0xddb342ecc94236c29a5307d3757d0724d759453c",
        "to": "0x7eb4c59eabe1234e8a6d02fdf4d1bb595c4702cd",
        "gas": "0x4515d",
        "value": "0x1c6bf52634000",
        "data": "0x5ce510fa000000000000000000000000ddb342ecc94236c29a5307d3757d0724d759453c04718f5a0fc34cc1af16a1cdee98ffb20c31f5cd61d6ab07201858f4287c938d053b40a647cedfca6ca84f542a0fe36736031905a9639a7f19a3c1e66bfd5080000000000000000000000000000000000020c49ba5e353f8000000000000000000000000000000000000000000000000000000000000000000000000674d778000000000000000000000000000000000000000000000000000000000674d77c00000000000000000000000000000000000000000000000000001c6bf5263400004979530a64a9b49088d61067fca21c6fa47526dcda0b985c981174026145bce",
        "nonce": "0x39d",
        "accessList": []
      },
      "additionalContracts": [],
      "isFixedGasLimit": false
    }
  ],
  "receipts": [
    {
      "transactionHash": "0xc2bfc2dbb4087312b12584ad4abce60693a4637804944737feccc7676ac19ffb",
      "transactionIndex": "0x5",
      "blockHash": "0x01d6f82517b651cfcb3491d90fff37677889d7d17b70549b603198cd684857d7",
      "blockNumber": "0x6dc9c9",
      "from": "0xDdb342ecc94236c29a5307d3757d0724D759453C",
      "to": "0xCa14007Eff0dB1f8135f4C25B34De49AB0d42766",
      "cumulativeGasUsed": "0x85947",
      "gasUsed": "0x6ae8",
      "contractAddress": null,
      "logs": [
        {
          "address": "0xCa14007Eff0dB1f8135f4C25B34De49AB0d42766",
          "topics": [
            "0x8c5be1e5ebec7d5bd14f71427d1e84f3dd0314c0f7b2291e5b200ac8c7c3b925",
            "0x000000000000000000000000ddb342ecc94236c29a5307d3757d0724d759453c",
            "0x0000000000000000000000007eb4c59eabe1234e8a6d02fdf4d1bb595c4702cd"
          ],
          "data": "0xffffffffffffffffffffffffffffffffffffffffffffffffffffffffffffffff",
          "blockHash": "0x01d6f82517b651cfcb3491d90fff37677889d7d17b70549b603198cd684857d7",
          "blockNumber": "0x6dc9c9",
          "transactionHash": "0xc2bfc2dbb4087312b12584ad4abce60693a4637804944737feccc7676ac19ffb",
          "transactionIndex": "0x5",
          "logIndex": "0x10",
          "removed": false
        }
      ],
      "status": "0x1",
      "logsBloom": "0x00000000000000100000000000000000000000000000000000000000000000000000000000000000000000000000000000000000000000000000000000200000000000000000000000000000000000000000000000000000000000000000000400020000000000000000000000000000400000000000000000000000400000000000000000000000000000000000000000000000000000000000000000000000020000000000000000000000000000008000000000000000000000000000000000000000000000020000000000000000000000000000000000800000000000000010000000000000000000000000000000000000001000000000000000000000",
      "type": "0x2",
      "effectiveGasPrice": "0x449a791d8"
    },
    {
      "transactionHash": "0x42c3979fa4bc5eb73eab06e449fd118c6c4c44db0f2d66e8f96353a316a387d8",
      "transactionIndex": "0x6",
      "blockHash": "0x01d6f82517b651cfcb3491d90fff37677889d7d17b70549b603198cd684857d7",
      "blockNumber": "0x6dc9c9",
      "from": "0xDdb342ecc94236c29a5307d3757d0724D759453C",
      "to": "0x7eb4C59eABE1234E8A6D02FdF4d1BB595C4702Cd",
      "cumulativeGasUsed": "0xb757e",
      "gasUsed": "0x31c37",
      "contractAddress": null,
      "logs": [
        {
          "address": "0xCa14007Eff0dB1f8135f4C25B34De49AB0d42766",
          "topics": [
            "0xddf252ad1be2c89b69c2b068fc378daa952ba7f163c4a11628f55a4df523b3ef",
            "0x000000000000000000000000ddb342ecc94236c29a5307d3757d0724d759453c",
            "0x0000000000000000000000007eb4c59eabe1234e8a6d02fdf4d1bb595c4702cd"
          ],
          "data": "0x0000000000000000000000000000000000000000000000000001c6bf52634000",
          "blockHash": "0x01d6f82517b651cfcb3491d90fff37677889d7d17b70549b603198cd684857d7",
          "blockNumber": "0x6dc9c9",
          "transactionHash": "0x42c3979fa4bc5eb73eab06e449fd118c6c4c44db0f2d66e8f96353a316a387d8",
          "transactionIndex": "0x6",
          "logIndex": "0x11",
          "removed": false
        },
        {
          "address": "0xCa14007Eff0dB1f8135f4C25B34De49AB0d42766",
          "topics": [
            "0x8c5be1e5ebec7d5bd14f71427d1e84f3dd0314c0f7b2291e5b200ac8c7c3b925",
            "0x0000000000000000000000007eb4c59eabe1234e8a6d02fdf4d1bb595c4702cd",
            "0x000000000000000000000000ce5485cfb26914c5dce00b9baf0580364dafc7a4"
          ],
          "data": "0x0000000000000000000000000000000000000000000000000000000000000000",
          "blockHash": "0x01d6f82517b651cfcb3491d90fff37677889d7d17b70549b603198cd684857d7",
          "blockNumber": "0x6dc9c9",
          "transactionHash": "0x42c3979fa4bc5eb73eab06e449fd118c6c4c44db0f2d66e8f96353a316a387d8",
          "transactionIndex": "0x6",
          "logIndex": "0x12",
          "removed": false
        },
        {
          "address": "0xCa14007Eff0dB1f8135f4C25B34De49AB0d42766",
          "topics": [
            "0x8c5be1e5ebec7d5bd14f71427d1e84f3dd0314c0f7b2291e5b200ac8c7c3b925",
            "0x0000000000000000000000007eb4c59eabe1234e8a6d02fdf4d1bb595c4702cd",
            "0x000000000000000000000000ce5485cfb26914c5dce00b9baf0580364dafc7a4"
          ],
          "data": "0x0000000000000000000000000000000000000000000000000001c6bf52634000",
          "blockHash": "0x01d6f82517b651cfcb3491d90fff37677889d7d17b70549b603198cd684857d7",
          "blockNumber": "0x6dc9c9",
          "transactionHash": "0x42c3979fa4bc5eb73eab06e449fd118c6c4c44db0f2d66e8f96353a316a387d8",
          "transactionIndex": "0x6",
          "logIndex": "0x13",
          "removed": false
        },
        {
          "address": "0xCa14007Eff0dB1f8135f4C25B34De49AB0d42766",
          "topics": [
            "0x8c5be1e5ebec7d5bd14f71427d1e84f3dd0314c0f7b2291e5b200ac8c7c3b925",
            "0x0000000000000000000000007eb4c59eabe1234e8a6d02fdf4d1bb595c4702cd",
            "0x000000000000000000000000ce5485cfb26914c5dce00b9baf0580364dafc7a4"
          ],
          "data": "0x0000000000000000000000000000000000000000000000000000000000000000",
          "blockHash": "0x01d6f82517b651cfcb3491d90fff37677889d7d17b70549b603198cd684857d7",
          "blockNumber": "0x6dc9c9",
          "transactionHash": "0x42c3979fa4bc5eb73eab06e449fd118c6c4c44db0f2d66e8f96353a316a387d8",
          "transactionIndex": "0x6",
          "logIndex": "0x14",
          "removed": false
        },
        {
          "address": "0xCa14007Eff0dB1f8135f4C25B34De49AB0d42766",
          "topics": [
            "0xddf252ad1be2c89b69c2b068fc378daa952ba7f163c4a11628f55a4df523b3ef",
            "0x0000000000000000000000007eb4c59eabe1234e8a6d02fdf4d1bb595c4702cd",
            "0x000000000000000000000000ce5485cfb26914c5dce00b9baf0580364dafc7a4"
          ],
          "data": "0x0000000000000000000000000000000000000000000000000001c6bf52634000",
          "blockHash": "0x01d6f82517b651cfcb3491d90fff37677889d7d17b70549b603198cd684857d7",
          "blockNumber": "0x6dc9c9",
          "transactionHash": "0x42c3979fa4bc5eb73eab06e449fd118c6c4c44db0f2d66e8f96353a316a387d8",
          "transactionIndex": "0x6",
          "logIndex": "0x15",
          "removed": false
        },
        {
          "address": "0xE2Bb56ee936fd6433DC0F6e7e3b8365C906AA057",
          "topics": [
            "0xdb80dd488acf86d17c747445b0eabb5d57c541d3bd7b6b87af987858e5066b2b",
            "0x000000000000000000000000ce5485cfb26914c5dce00b9baf0580364dafc7a4",
            "0x0594c1582459ea03f77deaf9eb7e3917d6994a03c13405ba42867f83d85f085d",
            "0x01b64b1b3b690b43b9b514fb81377518f4039cd3e4f4914d8a6bdf01d679fb19"
          ],
          "data": "0x0000000000000000000000000000000000000000000000000000000000000060000000000000000000000000000000000000000000000000000000000000298700000000000000000000000000000000000000000000000000005af3107a40000000000000000000000000000000000000000000000000000000000000000005000000000000000000000000ca14007eff0db1f8135f4c25b34de49ab0d427660000000000000000000000007eb4c59eabe1234e8a6d02fdf4d1bb595c4702cd04979530a64a9b49088d61067fca21c6fa47526dcda0b985c981174026145bce0000000000000000000000000000000000000000000000000001c6bf526340000000000000000000000000000000000000000000000000000000000000000000",
          "blockHash": "0x01d6f82517b651cfcb3491d90fff37677889d7d17b70549b603198cd684857d7",
          "blockNumber": "0x6dc9c9",
          "transactionHash": "0x42c3979fa4bc5eb73eab06e449fd118c6c4c44db0f2d66e8f96353a316a387d8",
          "transactionIndex": "0x6",
          "logIndex": "0x16",
          "removed": false
        },
        {
          "address": "0xcE5485Cfb26914C5dcE00B9BAF0580364daFC7a4",
          "topics": [
            "0x5f971bd00bf3ffbca8a6d72cdd4fd92cfd4f62636161921d1e5a64f0b64ccb6d",
            "0x0000000000000000000000007eb4c59eabe1234e8a6d02fdf4d1bb595c4702cd",
            "0x000000000000000000000000ca14007eff0db1f8135f4c25b34de49ab0d42766",
            "0x04979530a64a9b49088d61067fca21c6fa47526dcda0b985c981174026145bce"
          ],
          "data": "0x0000000000000000000000000000000000000000000000000001c6bf52634000000000000000000000000000000000000000000000000000000000000000298700000000000000000000000000000000000000000000000000005af3107a4000",
          "blockHash": "0x01d6f82517b651cfcb3491d90fff37677889d7d17b70549b603198cd684857d7",
          "blockNumber": "0x6dc9c9",
          "transactionHash": "0x42c3979fa4bc5eb73eab06e449fd118c6c4c44db0f2d66e8f96353a316a387d8",
          "transactionIndex": "0x6",
          "logIndex": "0x17",
          "removed": false
        },
        {
          "address": "0xE2Bb56ee936fd6433DC0F6e7e3b8365C906AA057",
          "topics": [
            "0xdb80dd488acf86d17c747445b0eabb5d57c541d3bd7b6b87af987858e5066b2b",
            "0x0000000000000000000000007eb4c59eabe1234e8a6d02fdf4d1bb595c4702cd",
            "0x04979530a64a9b49088d61067fca21c6fa47526dcda0b985c981174026145bce",
            "0x00f1149cade9d692862ad41df96b108aa2c20af34f640457e781d166c98dc6b0"
          ],
          "data": "0x0000000000000000000000000000000000000000000000000000000000000060000000000000000000000000000000000000000000000000000000000000298800000000000000000000000000000000000000000000000000016bcc41e9000000000000000000000000000000000000000000000000000000000000000000090000000000000000000000000000000000000000000000000000000000000000000000000000000000000000ddb342ecc94236c29a5307d3757d0724d759453c04718f5a0fc34cc1af16a1cdee98ffb20c31f5cd61d6ab07201858f4287c938d053b40a647cedfca6ca84f542a0fe36736031905a9639a7f19a3c1e66bfd5080000000000000000000000000000000000020c49ba5e353f8000000000000000000000000000000000000000000000000000000000000000000000000674d778000000000000000000000000000000000000000000000000000000000674d77c00000000000000000000000000000000000000000000000000001c6bf52634000000000000000000000000000ce5485cfb26914c5dce00b9baf0580364dafc7a4",
          "blockHash": "0x01d6f82517b651cfcb3491d90fff37677889d7d17b70549b603198cd684857d7",
          "blockNumber": "0x6dc9c9",
          "transactionHash": "0x42c3979fa4bc5eb73eab06e449fd118c6c4c44db0f2d66e8f96353a316a387d8",
          "transactionIndex": "0x6",
          "logIndex": "0x18",
          "removed": false
        },
        {
          "address": "0x7eb4C59eABE1234E8A6D02FdF4d1BB595C4702Cd",
          "topics": [
            "0xaf43445f7721522b7a3864ed3de53d7e2e658bfa1eeffa18e1e229be68ce2545",
            "0x000000000000000000000000ddb342ecc94236c29a5307d3757d0724d759453c",
            "0x04979530a64a9b49088d61067fca21c6fa47526dcda0b985c981174026145bce"
          ],
          "data": "0x0000000000000000000000000000000000000000000000000001c6bf526340000000000000000000000000000000000000000000000000000000000000000001",
          "blockHash": "0x01d6f82517b651cfcb3491d90fff37677889d7d17b70549b603198cd684857d7",
          "blockNumber": "0x6dc9c9",
          "transactionHash": "0x42c3979fa4bc5eb73eab06e449fd118c6c4c44db0f2d66e8f96353a316a387d8",
          "transactionIndex": "0x6",
          "logIndex": "0x19",
          "removed": false
        }
      ],
      "status": "0x1",
      "logsBloom": "0x00400200000000100200000800020000000000000000000000000000000000400000000000000000000000000000000000000000000004200000000000200000000000000000000000000008080000000000000000000040001000000000000602020000100000010000000000000000400000000000000000000011400008002000000000000000000000080400000004000000000200000000020000000010020000800000000000000020000000209000000000000020000000000000000000000002000000024010000000000000000000200000000000800000000000000010000000010000000000020084000000000000001000000000000000000000",
      "type": "0x2",
      "effectiveGasPrice": "0x449a791d8"
    }
  ],
  "libraries": [],
  "pending": [],
  "returns": {},
  "timestamp": 1733130182,
  "chain": 11155111,
  "multi": false,
  "commit": "578600f"
}