{
  "transactions": [
    {
      "hash": "0xa8b1863808bde8a6eee61b1a07c1a9701c073debb4a5078a0a444ccef4e877f6",
      "transactionType": "CALL",
      "contractName": null,
      "contractAddress": "0x17ceb8da41205f1026241766328751884afa7fe8",
      "function": "setL2EndpointAddress(uint256)",
      "arguments": [
        "2361042419225082304626344415068641103339443172836640990408796361498044356029"
      ],
      "transaction": {
        "from": "0xddb342ecc94236c29a5307d3757d0724d759453c",
        "to": "0x17ceb8da41205f1026241766328751884afa7fe8",
        "gas": "0xa23f",
        "value": "0x0",
        "input": "0x5155fb2f05384d7aa25d47c73d60f2ee889af6b337544c534b05d8560578c06f01db55bd",
        "nonce": "0x51d",
        "chainId": "0xaa36a7"
      },
      "additionalContracts": [],
      "isFixedGasLimit": false
    }
  ],
  "receipts": [
    {
      "status": "0x1",
      "cumulativeGasUsed": "0xc1da81",
      "logs": [
        {
          "address": "0x17ceb8da41205f1026241766328751884afa7fe8",
          "topics": [
            "0xa35dce9e53611b0cabca886209c4a1d09c80214af9b6fb6027f7b2f7c39838e8"
          ],
          "data": "0x05384d7aa25d47c73d60f2ee889af6b337544c534b05d8560578c06f01db55bd",
          "blockHash": "0xe7a6170d791af82f1ac159aea96d7ff9663d50e9baa8e9c0a61c1d2087e1d35b",
          "blockNumber": "0x730eec",
          "transactionHash": "0xa8b1863808bde8a6eee61b1a07c1a9701c073debb4a5078a0a444ccef4e877f6",
          "transactionIndex": "0x64",
          "logIndex": "0xac",
          "removed": false
        }
      ],
      "logsBloom": "0x00000000000000000000000010000000000000000000000000000000000000000000000000000000000000000000000000000000000000000000000000000000000000000000000000000000000200000000000000000000000000000000000000000000000000000000000000000000000000000000000000000000000000000000000000000000000000000000000000000000000000000000000000000000800000000000000000000000000000000000000004000000000000000000002800000000000000000000000000000000000000000000000000000000000000000000000000000000000000000000000000000000000000000000000000000000",
      "type": "0x2",
      "transactionHash": "0xa8b1863808bde8a6eee61b1a07c1a9701c073debb4a5078a0a444ccef4e877f6",
      "transactionIndex": "0x64",
      "blockHash": "0xe7a6170d791af82f1ac159aea96d7ff9663d50e9baa8e9c0a61c1d2087e1d35b",
      "blockNumber": "0x730eec",
      "gasUsed": "0x7577",
      "effectiveGasPrice": "0x12809e54b",
      "from": "0xddb342ecc94236c29a5307d3757d0724d759453c",
      "to": "0x17ceb8da41205f1026241766328751884afa7fe8",
      "contractAddress": null
    }
  ],
  "libraries": [],
  "pending": [],
  "returns": {},
  "timestamp": 1737469866,
  "chain": 11155111,
  "commit": "fcbff6b"
}