{
  "transactions": [
    {
      "hash": "0x4a556905e171d11233eb2bd53960057174d44e77ed85cf86e7b89293d254c3b9",
      "transactionType": "CALL",
      "contractName": "StarkNetToken",
      "contractAddress": "0xCa14007Eff0dB1f8135f4C25B34De49AB0d42766",
      "function": "approve(address,uint256)",
      "arguments": [
        "0xa37Cb2cD03619597Bca95D8DCbcCcb642e526756",
        "115792089237316195423570985008687907853269984665640564039457584007913129639935"
      ],
      "transaction": {
        "type": "0x02",
        "from": "0xddb342ecc94236c29a5307d3757d0724d759453c",
        "to": "0xca14007eff0db1f8135f4c25b34de49ab0d42766",
        "gas": "0x93a9",
        "value": "0x0",
        "data": "0x095ea7b3000000000000000000000000a37cb2cd03619597bca95d8dcbcccb642e526756ffffffffffffffffffffffffffffffffffffffffffffffffffffffffffffffff",
        "nonce": "0x24c",
        "accessList": []
      },
      "additionalContracts": [],
      "isFixedGasLimit": false
    },
    {
      "hash": "0x3841a12e2fcae7a84a2b175d3fc162c4c6e7bc3089935f61719eac705b52d43c",
      "transactionType": "CALL",
      "contractName": "Proxy",
      "contractAddress": "0xE2Bb56ee936fd6433DC0F6e7e3b8365C906AA057",
      "function": "sendMessageToL2(uint256,uint256,uint256[])",
      "arguments": [
        "2713084791089798182203929627013997587429769799537287053777356579100485534376",
        "774397379524139446221206168840917193112228400237242521560346153613428128537",
        "[2]"
      ],
      "transaction": {
        "type": "0x02",
        "from": "0xddb342ecc94236c29a5307d3757d0724d759453c",
        "to": "0xe2bb56ee936fd6433dc0f6e7e3b8365c906aa057",
        "gas": "0x15ca2",
        "value": "0x7a120",
        "data": "0x3e3aa6c505ff8d33f1c8a3cdb45297782da67cbc6d1eb866f26cab25170112ad8768c2a801b64b1b3b690b43b9b514fb81377518f4039cd3e4f4914d8a6bdf01d679fb19000000000000000000000000000000000000000000000000000000000000006000000000000000000000000000000000000000000000000000000000000000010000000000000000000000000000000000000000000000000000000000000002",
        "nonce": "0x24d",
        "accessList": []
      },
      "additionalContracts": [],
      "isFixedGasLimit": false
    }
  ],
  "receipts": [],
  "libraries": [],
  "pending": [
    "0x4a556905e171d11233eb2bd53960057174d44e77ed85cf86e7b89293d254c3b9",
    "0x3841a12e2fcae7a84a2b175d3fc162c4c6e7bc3089935f61719eac705b52d43c"
  ],
  "returns": {},
  "timestamp": 1731075049,
  "chain": 11155111,
  "multi": false,
  "commit": "3f88c93"
}