{
  "transactions": [
    {
      "hash": "0xc2b128cb0399bedafde69fe2e3652bae2b8b100e4b70038047c16ea1c1ca40c5",
      "transactionType": "CALL",
      "contractName": "StarkNetToken",
      "contractAddress": "0xCa14007Eff0dB1f8135f4C25B34De49AB0d42766",
      "function": "approve(address,uint256)",
      "arguments": [
        "0xcE5485Cfb26914C5dcE00B9BAF0580364daFC7a4",
        "115792089237316195423570985008687907853269984665640564039457584007913129639935"
      ],
      "transaction": {
        "type": "0x02",
        "from": "0xddb342ecc94236c29a5307d3757d0724d759453c",
        "to": "0xca14007eff0db1f8135f4c25b34de49ab0d42766",
        "gas": "0x93a9",
        "value": "0x0",
        "data": "0x095ea7b3000000000000000000000000ce5485cfb26914c5dce00b9baf0580364dafc7a4ffffffffffffffffffffffffffffffffffffffffffffffffffffffffffffffff",
        "nonce": "0x325",
        "accessList": []
      },
      "additionalContracts": [],
      "isFixedGasLimit": false
    },
    {
      "hash": "0x935e4320d3837d602483290f64c0885dde01175273802cee762623e7864efce3",
      "transactionType": "CALL",
      "contractName": "Proxy",
      "contractAddress": "0xE2Bb56ee936fd6433DC0F6e7e3b8365C906AA057",
      "function": "sendMessageToL2(uint256,uint256,uint256[])",
      "arguments": [
        "1679293599215612895602115969234718662272992800232045406787472908163456150857",
        "425952401605428413817582304755919420533935873840436977667370850915372091056",
        "[3, 1265684623727634235329190328445374361672779121980, 0, 1153662193824988676821566247033479441673014749030, 0, 0, 0, 50000000000000000, 2524392021852001135582825949054576525094493216367559068627275826195272239197]"
      ],
      "transaction": {
        "type": "0x02",
        "from": "0xddb342ecc94236c29a5307d3757d0724d759453c",
        "to": "0xe2bb56ee936fd6433dc0f6e7e3b8365c906aa057",
        "gas": "0x15f9a",
        "value": "0x38d7ea4c68000",
        "data": "0x3e3aa6c503b6724d785f6666fd9f8047206141799a1020ebe21fe5d5a11d45524d5bad4900f1149cade9d692862ad41df96b108aa2c20af34f640457e781d166c98dc6b0000000000000000000000000000000000000000000000000000000000000006000000000000000000000000000000000000000000000000000000000000000090000000000000000000000000000000000000000000000000000000000000003000000000000000000000000ddb342ecc94236c29a5307d3757d0724d759453c0000000000000000000000000000000000000000000000000000000000000000000000000000000000000000ca14007eff0db1f8135f4c25b34de49ab0d4276600000000000000000000000000000000000000000000000000000000000000000000000000000000000000000000000000000000000000000000000000000000000000000000000000000000000000000000000000000000000000000000000000000000000000000000000000000000000000000000000000b1a2bc2ec500000594c1582459ea03f77deaf9eb7e3917d6994a03c13405ba42867f83d85f085d",
        "nonce": "0x326",
        "accessList": []
      },
      "additionalContracts": [],
      "isFixedGasLimit": false
    }
  ],
  "receipts": [
    {
      "transactionHash": "0xc2b128cb0399bedafde69fe2e3652bae2b8b100e4b70038047c16ea1c1ca40c5",
      "transactionIndex": "0x0",
      "blockHash": "0xfb34abb9ca43254cce9c18e3598ad7899b845388443a6b48fbc95647378f3c22",
      "blockNumber": "0x6c25fa",
      "from": "0xDdb342ecc94236c29a5307d3757d0724D759453C",
      "to": "0xCa14007Eff0dB1f8135f4C25B34De49AB0d42766",
      "cumulativeGasUsed": "0x6ae8",
      "gasUsed": "0x6ae8",
      "contractAddress": null,
      "logs": [
        {
          "address": "0xCa14007Eff0dB1f8135f4C25B34De49AB0d42766",
          "topics": [
            "0x8c5be1e5ebec7d5bd14f71427d1e84f3dd0314c0f7b2291e5b200ac8c7c3b925",
            "0x000000000000000000000000ddb342ecc94236c29a5307d3757d0724d759453c",
            "0x000000000000000000000000ce5485cfb26914c5dce00b9baf0580364dafc7a4"
          ],
          "data": "0xffffffffffffffffffffffffffffffffffffffffffffffffffffffffffffffff",
          "blockHash": "0xfb34abb9ca43254cce9c18e3598ad7899b845388443a6b48fbc95647378f3c22",
          "blockNumber": "0x6c25fa",
          "transactionHash": "0xc2b128cb0399bedafde69fe2e3652bae2b8b100e4b70038047c16ea1c1ca40c5",
          "transactionIndex": "0x0",
          "logIndex": "0x0",
          "removed": false
        }
      ],
      "status": "0x1",
      "logsBloom": "0x00000000000000000000000000000000000000000000000000000000000000000000000000000000000000000000000000000000000000000000000000200000000000000000000000000000000000000000000000000000000000000000000400000000000000000000000000000000400000000000000000000000400008000000000000000000000000000000000000000000000000000000000000000000020000000000000000000000000000001000000000000000000000000000000000000000000000020010000000000000000000000000000000800000000000000010000000000000000000000000000000000000001000000000000000000000",
      "type": "0x2",
      "effectiveGasPrice": "0xd20a088f"
    },
    {
      "transactionHash": "0x935e4320d3837d602483290f64c0885dde01175273802cee762623e7864efce3",
      "transactionIndex": "0x1",
      "blockHash": "0xfb34abb9ca43254cce9c18e3598ad7899b845388443a6b48fbc95647378f3c22",
      "blockNumber": "0x6c25fa",
      "from": "0xDdb342ecc94236c29a5307d3757d0724D759453C",
      "to": "0xE2Bb56ee936fd6433DC0F6e7e3b8365C906AA057",
      "cumulativeGasUsed": "0x16977",
      "gasUsed": "0xfe8f",
      "contractAddress": null,
      "logs": [
        {
          "address": "0xE2Bb56ee936fd6433DC0F6e7e3b8365C906AA057",
          "topics": [
            "0xdb80dd488acf86d17c747445b0eabb5d57c541d3bd7b6b87af987858e5066b2b",
            "0x000000000000000000000000ddb342ecc94236c29a5307d3757d0724d759453c",
            "0x03b6724d785f6666fd9f8047206141799a1020ebe21fe5d5a11d45524d5bad49",
            "0x00f1149cade9d692862ad41df96b108aa2c20af34f640457e781d166c98dc6b0"
          ],
          "data": "0x0000000000000000000000000000000000000000000000000000000000000060000000000000000000000000000000000000000000000000000000000000288f00000000000000000000000000000000000000000000000000038d7ea4c6800000000000000000000000000000000000000000000000000000000000000000090000000000000000000000000000000000000000000000000000000000000003000000000000000000000000ddb342ecc94236c29a5307d3757d0724d759453c0000000000000000000000000000000000000000000000000000000000000000000000000000000000000000ca14007eff0db1f8135f4c25b34de49ab0d4276600000000000000000000000000000000000000000000000000000000000000000000000000000000000000000000000000000000000000000000000000000000000000000000000000000000000000000000000000000000000000000000000000000000000000000000000000000000000000000000000000b1a2bc2ec500000594c1582459ea03f77deaf9eb7e3917d6994a03c13405ba42867f83d85f085d",
          "blockHash": "0xfb34abb9ca43254cce9c18e3598ad7899b845388443a6b48fbc95647378f3c22",
          "blockNumber": "0x6c25fa",
          "transactionHash": "0x935e4320d3837d602483290f64c0885dde01175273802cee762623e7864efce3",
          "transactionIndex": "0x1",
          "logIndex": "0x1",
          "removed": false
        }
      ],
      "status": "0x1",
      "logsBloom": "0x00400000000000000000000000020000000000000000000000000000000000000000000000000000000000000000000000000000000000000000000000000000000000000000000000000000000000000000000000000040001000000000000400000000100000010000000000000000400000000000000000000000400000000000000000000000000100000000000004000000000000000000000000000010000000000000000000000020000000000000000000000000000000000000000000000000000000000000000000000000000000000000000000000000000000000000000000000000000000000000000000000000010000000002000000000000",
      "type": "0x2",
      "effectiveGasPrice": "0xd20a088f"
    }
  ],
  "libraries": [],
  "pending": [],
  "returns": {},
  "timestamp": 1731745348,
  "chain": 11155111,
  "multi": false,
  "commit": "945f7f2"
}