{
  "transactions": [
    {
      "hash": "0x4efe9368a126a3b38495e08344b3b135ed2a48b98653eea4f9bceba1294f2807",
      "transactionType": "CALL",
      "contractName": "Proxy",
      "contractAddress": "0xE2Bb56ee936fd6433DC0F6e7e3b8365C906AA057",
      "function": "sendMessageToL2(uint256,uint256,uint256[])",
      "arguments": [
        "1883401296703965083189570633031918159622068791907768462215909222728633759331",
        "425952401605428413817582304755919420533935873840436977667370850915372091056",
        "[2, 1265684623727634235329190328445374361672779121980, 0, 162645876805862407557836451532389263558424949304, 0, 0, 0, 50000000000000000, 1613553031957232432120143202400887878434836332722537805011348850121881864968]"
      ],
      "transaction": {
        "type": "0x02",
        "from": "0xddb342ecc94236c29a5307d3757d0724d759453c",
        "to": "0xe2bb56ee936fd6433dc0f6e7e3b8365c906aa057",
        "gas": "0x1745b",
        "value": "0x38d7ea4c68000",
        "data": "0x3e3aa6c50429f7a4bd4de9fc98a94cec9163caf6f50a5d7fcec583fa30d2d9bb33a9366300f1149cade9d692862ad41df96b108aa2c20af34f640457e781d166c98dc6b0000000000000000000000000000000000000000000000000000000000000006000000000000000000000000000000000000000000000000000000000000000090000000000000000000000000000000000000000000000000000000000000002000000000000000000000000ddb342ecc94236c29a5307d3757d0724d759453c00000000000000000000000000000000000000000000000000000000000000000000000000000000000000001c7d4b196cb0c7b01d743fbc6116a902379c723800000000000000000000000000000000000000000000000000000000000000000000000000000000000000000000000000000000000000000000000000000000000000000000000000000000000000000000000000000000000000000000000000000000000000000000000000000000000000000000000000b1a2bc2ec5000003913d184e537671dfeca3f67015bb845f2d12a26e5ec56bdc495913b20acb08",
        "nonce": "0x340",
        "accessList": []
      },
      "additionalContracts": [],
      "isFixedGasLimit": false
    }
  ],
  "receipts": [
    {
      "transactionHash": "0x4efe9368a126a3b38495e08344b3b135ed2a48b98653eea4f9bceba1294f2807",
      "transactionIndex": "0x3",
      "blockHash": "0x6579ade4263c88c9da23b88ed5ea3934cf2f19582a0031f681e15cc5423375e8",
      "blockNumber": "0x6c7839",
      "from": "0xDdb342ecc94236c29a5307d3757d0724D759453C",
      "to": "0xE2Bb56ee936fd6433DC0F6e7e3b8365C906AA057",
      "cumulativeGasUsed": "0x2424c",
      "gasUsed": "0xfe9b",
      "contractAddress": null,
      "logs": [
        {
          "address": "0xE2Bb56ee936fd6433DC0F6e7e3b8365C906AA057",
          "topics": [
            "0xdb80dd488acf86d17c747445b0eabb5d57c541d3bd7b6b87af987858e5066b2b",
            "0x000000000000000000000000ddb342ecc94236c29a5307d3757d0724d759453c",
            "0x0429f7a4bd4de9fc98a94cec9163caf6f50a5d7fcec583fa30d2d9bb33a93663",
            "0x00f1149cade9d692862ad41df96b108aa2c20af34f640457e781d166c98dc6b0"
          ],
          "data": "0x000000000000000000000000000000000000000000000000000000000000006000000000000000000000000000000000000000000000000000000000000028b900000000000000000000000000000000000000000000000000038d7ea4c6800000000000000000000000000000000000000000000000000000000000000000090000000000000000000000000000000000000000000000000000000000000002000000000000000000000000ddb342ecc94236c29a5307d3757d0724d759453c00000000000000000000000000000000000000000000000000000000000000000000000000000000000000001c7d4b196cb0c7b01d743fbc6116a902379c723800000000000000000000000000000000000000000000000000000000000000000000000000000000000000000000000000000000000000000000000000000000000000000000000000000000000000000000000000000000000000000000000000000000000000000000000000000000000000000000000000b1a2bc2ec5000003913d184e537671dfeca3f67015bb845f2d12a26e5ec56bdc495913b20acb08",
          "blockHash": "0x6579ade4263c88c9da23b88ed5ea3934cf2f19582a0031f681e15cc5423375e8",
          "blockNumber": "0x6c7839",
          "transactionHash": "0x4efe9368a126a3b38495e08344b3b135ed2a48b98653eea4f9bceba1294f2807",
          "transactionIndex": "0x3",
          "logIndex": "0x0",
          "removed": false
        }
      ],
      "status": "0x1",
      "logsBloom": "0x00400000000000000000000000020000000000000000000000000000000000000000000000000000000000000000000000000000000000000000000000000000000000000000000000000000000000000000000000000040001000000000000400000000100000010000000000000000400010000000000000000000400000000000000000000000400000000000000004000000000000000000000000000010000000000000000000000020000000000000000000000000000000000000000000000000400000000000000000000000000000000000000000000000000000000000000000000000000000000000000000000000000000000000000000000000",
      "type": "0x2",
      "effectiveGasPrice": "0xffa05f14"
    }
  ],
  "libraries": [],
  "pending": [],
  "returns": {},
  "timestamp": 1732014391,
  "chain": 11155111,
  "multi": false,
  "commit": "2a68d09"
}