{
  "transactions": [
    {
      "hash": "0xaf34d8c242d1f6e57e248b9c66e7f752398f8e4bc842710018b9cbd4a1a138b1",
      "transactionType": "CALL",
      "contractName": "StarkNetToken",
      "contractAddress": "0xCa14007Eff0dB1f8135f4C25B34De49AB0d42766",
      "function": "approve(address,uint256)",
      "arguments": [
        "0x7eb4C59eABE1234E8A6D02FdF4d1BB595C4702Cd",
        "115792089237316195423570985008687907853269984665640564039457584007913129639935"
      ],
      "transaction": {
        "type": "0x02",
        "from": "0xddb342ecc94236c29a5307d3757d0724d759453c",
        "to": "0xca14007eff0db1f8135f4c25b34de49ab0d42766",
        "gas": "0x93a9",
        "value": "0x0",
        "data": "0x095ea7b30000000000000000000000007eb4c59eabe1234e8a6d02fdf4d1bb595c4702cdffffffffffffffffffffffffffffffffffffffffffffffffffffffffffffffff",
        "nonce": "0x362",
        "accessList": []
      },
      "additionalContracts": [],
      "isFixedGasLimit": false
    },
    {
      "hash": "0x50877ddee69d104906e6655f37e098392453f543758cc1cf24160fd7092a8bc7",
      "transactionType": "CALL",
      "contractName": null,
      "contractAddress": "0x7eb4C59eABE1234E8A6D02FdF4d1BB595C4702Cd",
      "function": "setL2EndpointAddress(uint256)",
      "arguments": [
        "2879875340837536213011855770562966970737820331716732077869784715739353037478"
      ],
      "transaction": {
        "type": "0x02",
        "from": "0xddb342ecc94236c29a5307d3757d0724d759453c",
        "to": "0x7eb4c59eabe1234e8a6d02fdf4d1bb595c4702cd",
        "gas": "0xabab",
        "value": "0x0",
        "data": "0x5155fb2f065df3a14644130f41d7f540ecf2ecd94dd42a874e73136eda5774f3d65fbaa6",
        "nonce": "0x363",
        "accessList": []
      },
      "additionalContracts": [],
      "isFixedGasLimit": false
    }
  ],
  "receipts": [],
  "libraries": [],
  "pending": [
    "0xaf34d8c242d1f6e57e248b9c66e7f752398f8e4bc842710018b9cbd4a1a138b1",
    "0x50877ddee69d104906e6655f37e098392453f543758cc1cf24160fd7092a8bc7"
  ],
  "returns": {},
  "timestamp": 1732633567,
  "chain": 11155111,
  "multi": false,
  "commit": "1254ada"
}