{
  "transactions": [
    {
      "hash": "0xe7c03737517ac9d3d4a4d16ae5322fe177a218603fa4f779c193a78429bb2b86",
      "transactionType": "CALL",
      "contractName": "StarkNetToken",
      "contractAddress": "0xCa14007Eff0dB1f8135f4C25B34De49AB0d42766",
      "function": "approve(address,uint256)",
      "arguments": [
        "0xa37Cb2cD03619597Bca95D8DCbcCcb642e526756",
        "115792089237316195423570985008687907853269984665640564039457584007913129639935"
      ],
      "transaction": {
        "type": "0x02",
        "from": "0xddb342ecc94236c29a5307d3757d0724d759453c",
        "to": "0xca14007eff0db1f8135f4c25b34de49ab0d42766",
        "gas": "0x93a9",
        "value": "0x0",
        "data": "0x095ea7b3000000000000000000000000a37cb2cd03619597bca95d8dcbcccb642e526756ffffffffffffffffffffffffffffffffffffffffffffffffffffffffffffffff",
        "nonce": "0x251",
        "accessList": []
      },
      "additionalContracts": [],
      "isFixedGasLimit": false
    },
    {
      "hash": "0x051f8b0ed8fe87a9464d7335f167737a5c2a0614e3508731887d58783706f866",
      "transactionType": "CALL",
      "contractName": "Proxy",
      "contractAddress": "0xE2Bb56ee936fd6433DC0F6e7e3b8365C906AA057",
      "function": "sendMessageToL2(uint256,uint256,uint256[])",
      "arguments": [
        "1075423328339169260941454253384513505933143179428251503526984140281440002942",
        "425952401605428413817582304755919420533935873840436977667370850915372091056",
        "[0, 1265684623727634235329190328445374361672779121980, 2009894490435840142178314390393166646092438090257831307886760648929397478285, 2366254414417873771392932940469309727793822550615514268240785277201753657472, 0, 1731095536, 1731095600, 500000]"
      ],
      "transaction": {
        "type": "0x02",
        "from": "0xddb342ecc94236c29a5307d3757d0724d759453c",
        "to": "0xe2bb56ee936fd6433dc0f6e7e3b8365c906aa057",
        "gas": "0x17336",
        "value": "0x5af3107a4000",
        "data": "0x3e3aa6c50260ab043d9d74ec44758051204196d95ba8aa92b579b358c3c2f74b033a637e00f1149cade9d692862ad41df96b108aa2c20af34f640457e781d166c98dc6b0000000000000000000000000000000000000000000000000000000000000006000000000000000000000000000000000000000000000000000000000000000080000000000000000000000000000000000000000000000000000000000000000000000000000000000000000ddb342ecc94236c29a5307d3757d0724d759453c04718f5a0fc34cc1af16a1cdee98ffb20c31f5cd61d6ab07201858f4287c938d053b40a647cedfca6ca84f542a0fe36736031905a9639a7f19a3c1e66bfd5080000000000000000000000000000000000000000000000000000000000000000000000000000000000000000000000000000000000000000000000000672e6bf000000000000000000000000000000000000000000000000000000000672e6c30000000000000000000000000000000000000000000000000000000000007a120",
        "nonce": "0x252",
        "accessList": []
      },
      "additionalContracts": [],
      "isFixedGasLimit": false
    }
  ],
  "receipts": [
    {
      "transactionHash": "0xe7c03737517ac9d3d4a4d16ae5322fe177a218603fa4f779c193a78429bb2b86",
      "transactionIndex": "0x1",
      "blockHash": "0x54dfbfddec33fe3c86092a81232130b6e60c8c11e2ebae1a1a23dad94c1f97e5",
      "blockNumber": "0x6b652e",
      "from": "0xDdb342ecc94236c29a5307d3757d0724D759453C",
      "to": "0xCa14007Eff0dB1f8135f4C25B34De49AB0d42766",
      "cumulativeGasUsed": "0xbcf0",
      "gasUsed": "0x6ae8",
      "contractAddress": null,
      "logs": [
        {
          "address": "0xCa14007Eff0dB1f8135f4C25B34De49AB0d42766",
          "topics": [
            "0x8c5be1e5ebec7d5bd14f71427d1e84f3dd0314c0f7b2291e5b200ac8c7c3b925",
            "0x000000000000000000000000ddb342ecc94236c29a5307d3757d0724d759453c",
            "0x000000000000000000000000a37cb2cd03619597bca95d8dcbcccb642e526756"
          ],
          "data": "0xffffffffffffffffffffffffffffffffffffffffffffffffffffffffffffffff",
          "blockHash": "0x54dfbfddec33fe3c86092a81232130b6e60c8c11e2ebae1a1a23dad94c1f97e5",
          "blockNumber": "0x6b652e",
          "transactionHash": "0xe7c03737517ac9d3d4a4d16ae5322fe177a218603fa4f779c193a78429bb2b86",
          "transactionIndex": "0x1",
          "logIndex": "0x0",
          "removed": false
        }
      ],
      "status": "0x1",
      "logsBloom": "0x00000000000000002000000000000000000000000000000000000000000000000000000000000000000000000000000000000000000000000000000000200100000000000000000000000000000000000000000000000000000000000000000400000000000000000000000000000000400000000020000000000000400000000000000000000000000000000000000000000000000000000000000000000000020000000000000000000000000000000000000000000000000000000000000000000000000000020000000000000000000000000000000000800000000000000010000000000000000000000000000000000000001000000000000000000000",
      "type": "0x2",
      "effectiveGasPrice": "0x182609170"
    },
    {
      "transactionHash": "0x051f8b0ed8fe87a9464d7335f167737a5c2a0614e3508731887d58783706f866",
      "transactionIndex": "0x2",
      "blockHash": "0x54dfbfddec33fe3c86092a81232130b6e60c8c11e2ebae1a1a23dad94c1f97e5",
      "blockNumber": "0x6b652e",
      "from": "0xDdb342ecc94236c29a5307d3757d0724D759453C",
      "to": "0xE2Bb56ee936fd6433DC0F6e7e3b8365C906AA057",
      "cumulativeGasUsed": "0x1bac2",
      "gasUsed": "0xfdd2",
      "contractAddress": null,
      "logs": [
        {
          "address": "0xE2Bb56ee936fd6433DC0F6e7e3b8365C906AA057",
          "topics": [
            "0xdb80dd488acf86d17c747445b0eabb5d57c541d3bd7b6b87af987858e5066b2b",
            "0x000000000000000000000000ddb342ecc94236c29a5307d3757d0724d759453c",
            "0x0260ab043d9d74ec44758051204196d95ba8aa92b579b358c3c2f74b033a637e",
            "0x00f1149cade9d692862ad41df96b108aa2c20af34f640457e781d166c98dc6b0"
          ],
          "data": "0x000000000000000000000000000000000000000000000000000000000000006000000000000000000000000000000000000000000000000000000000000027a700000000000000000000000000000000000000000000000000005af3107a400000000000000000000000000000000000000000000000000000000000000000080000000000000000000000000000000000000000000000000000000000000000000000000000000000000000ddb342ecc94236c29a5307d3757d0724d759453c04718f5a0fc34cc1af16a1cdee98ffb20c31f5cd61d6ab07201858f4287c938d053b40a647cedfca6ca84f542a0fe36736031905a9639a7f19a3c1e66bfd5080000000000000000000000000000000000000000000000000000000000000000000000000000000000000000000000000000000000000000000000000672e6bf000000000000000000000000000000000000000000000000000000000672e6c30000000000000000000000000000000000000000000000000000000000007a120",
          "blockHash": "0x54dfbfddec33fe3c86092a81232130b6e60c8c11e2ebae1a1a23dad94c1f97e5",
          "blockNumber": "0x6b652e",
          "transactionHash": "0x051f8b0ed8fe87a9464d7335f167737a5c2a0614e3508731887d58783706f866",
          "transactionIndex": "0x2",
          "logIndex": "0x1",
          "removed": false
        }
      ],
      "status": "0x1",
      "logsBloom": "0x00400000000000000000000000020000000000000000000000000000002000000000000000000000000000000000000000000000000000000000000000000000000000000000000000000000000000000000000000000040001000000000000400000000100000010000000000000000400000002000000000000000400000000000000000000000000000000000000004000000000000000000000000000010000000000000000000000020100000000000000000000000000000000000000000000000000000000000000000000000000000000000000000000000000000000000000000000000000000000000000000000000000000000000000000000000",
      "type": "0x2",
      "effectiveGasPrice": "0x182609170"
    }
  ],
  "libraries": [],
  "pending": [],
  "returns": {},
  "timestamp": 1731095597,
  "chain": 11155111,
  "multi": false,
  "commit": "75c82f5"
}