{
  "transactions": [
    {
      "hash": "0x5fe0c148171fea1e6ad2ab73326b5ef19a8c1b2fed15a2cf39741a7fef215e1f",
      "transactionType": "CALL",
      "contractName": null,
      "contractAddress": "0x67b7a14745f14c253beb5d44b767ef1bfb916253",
      "function": "initiateWithdrawal(address,address,uint64)",
      "arguments": [
        "0xDdb342ecc94236c29a5307d3757d0724D759453C",
        "0x1c7D4B196Cb0C7B01d743Fbc6116a902379C7238",
        "557"
      ],
      "transaction": {
        "from": "0xddb342ecc94236c29a5307d3757d0724d759453c",
        "to": "0x67b7a14745f14c253beb5d44b767ef1bfb916253",
        "gas": "0x1b4c1",
        "value": "0x1c6bf52634000",
        "input": "0x9b4085f6000000000000000000000000ddb342ecc94236c29a5307d3757d0724d759453c0000000000000000000000001c7d4b196cb0c7b01d743fbc6116a902379c7238000000000000000000000000000000000000000000000000000000000000022d",
        "nonce": "0x54f",
        "chainId": "0xaa36a7"
      },
      "additionalContracts": [],
      "isFixedGasLimit": false
    }
  ],
  "receipts": [
    {
      "status": "0x1",
      "cumulativeGasUsed": "0x1502141",
      "logs": [
        {
          "address": "0xe2bb56ee936fd6433dc0f6e7e3b8365c906aa057",
          "topics": [
            "0xdb80dd488acf86d17c747445b0eabb5d57c541d3bd7b6b87af987858e5066b2b",
            "0x00000000000000000000000067b7a14745f14c253beb5d44b767ef1bfb916253",
            "0x05ae5d4f1d34038e4fcb69c97df6e654b9d8aed2711be385cd8f9cae1e873f8e",
            "0x00f1149cade9d692862ad41df96b108aa2c20af34f640457e781d166c98dc6b0"
          ],
          "data": "0x00000000000000000000000000000000000000000000000000000000000000600000000000000000000000000000000000000000000000000000000000002cd10000000000000000000000000000000000000000000000000001c6bf5263400000000000000000000000000000000000000000000000000000000000000000050000000000000000000000000000000000000000000000000000000000000002000000000000000000000000ddb342ecc94236c29a5307d3757d0724d759453c000000000000000000000000ddb342ecc94236c29a5307d3757d0724d759453c0000000000000000000000001c7d4b196cb0c7b01d743fbc6116a902379c7238000000000000000000000000000000000000000000000000000000000000022d",
          "blockHash": "0x316b683bd27c0ce28ec5f24ca3fe4ab356564f1d929b013c71b2b816deeb3337",
          "blockNumber": "0x735ddb",
          "transactionHash": "0x5fe0c148171fea1e6ad2ab73326b5ef19a8c1b2fed15a2cf39741a7fef215e1f",
          "transactionIndex": "0x8b",
          "logIndex": "0x131",
          "removed": false
        },
        {
          "address": "0x67b7a14745f14c253beb5d44b767ef1bfb916253",
          "topics": [
            "0x89bd98ae1b8dd4dbaeba50e40ad484414a306be9fb54ec4eecf1a801ca9aeacf",
            "0x000000000000000000000000ddb342ecc94236c29a5307d3757d0724d759453c"
          ],
          "data": "0x000000000000000000000000000000000000000000000000000000000000022d",
          "blockHash": "0x316b683bd27c0ce28ec5f24ca3fe4ab356564f1d929b013c71b2b816deeb3337",
          "blockNumber": "0x735ddb",
          "transactionHash": "0x5fe0c148171fea1e6ad2ab73326b5ef19a8c1b2fed15a2cf39741a7fef215e1f",
          "transactionIndex": "0x8b",
          "logIndex": "0x132",
          "removed": false
        }
      ],
      "logsBloom": "0x00400000850000000000000000020000000000000000000000000000000000000000000000000000000000000002000000000000000004000000000000000000040000000000000000000000000008000000000000000040001000000000000400000000100000010000000000000000400000000000000000000000400000000000000000000000000000000000000404000000800000000000000000000010000000000000000000000020000000000000000000000000000000000000000000000000000008000000000000000000000000000000000000000000000000000000000000000000000000002000000000000010000000000000000000000000",
      "type": "0x2",
      "transactionHash": "0x5fe0c148171fea1e6ad2ab73326b5ef19a8c1b2fed15a2cf39741a7fef215e1f",
      "transactionIndex": "0x8b",
      "blockHash": "0x316b683bd27c0ce28ec5f24ca3fe4ab356564f1d929b013c71b2b816deeb3337",
      "blockNumber": "0x735ddb",
      "gasUsed": "0x12aa3",
      "effectiveGasPrice": "0xd94e77c5c",
      "from": "0xddb342ecc94236c29a5307d3757d0724d759453c",
      "to": "0x67b7a14745f14c253beb5d44b767ef1bfb916253",
      "contractAddress": null
    }
  ],
  "libraries": [],
  "pending": [],
  "returns": {},
  "timestamp": 1737718274,
  "chain": 11155111,
  "commit": "19821e3"
}