{
  "transactions": [
    {
      "hash": "0x2d21601516842af24b6ce534f0cf5f4c9176dcf9d501cc8297198f9702cd4398",
      "transactionType": "CALL",
      "contractName": null,
      "contractAddress": "0xca14007eff0db1f8135f4c25b34de49ab0d42766",
      "function": "approve(address,uint256)",
      "arguments": [
        "0xeEaD9DC94aa25623aFDB6B04135C31FB58Ff09F1",
        "115792089237316195423570985008687907853269984665640564039457584007913129639935"
      ],
      "transaction": {
        "from": "0x1b382a7b4496f14e0aaa2da1e1626da400426a03",
        "to": "0xca14007eff0db1f8135f4c25b34de49ab0d42766",
        "gas": "0x93a9",
        "value": "0x0",
        "input": "0x095ea7b3000000000000000000000000eead9dc94aa25623afdb6b04135c31fb58ff09f1ffffffffffffffffffffffffffffffffffffffffffffffffffffffffffffffff",
        "nonce": "0x12f",
        "chainId": "0xaa36a7"
      },
      "additionalContracts": [],
      "isFixedGasLimit": false
    },
    {
      "hash": "0x954e265fb8c84aa586dc75d0cc6a3cf9bfaa52447b302767789509779a780ac8",
      "transactionType": "CALL",
      "contractName": null,
      "contractAddress": "0xeead9dc94aa25623afdb6b04135c31fb58ff09f1",
      "function": "_sendMessage(uint256,uint256,uint256[])",
      "arguments": [
        "3259602240350311970645602134312331656320193105313558229419674373643512196801",
        "425952401605428413817582304755919420533935873840436977667370850915372091056",
        "[3, 0, 0, 0, 0, 0, 0, 0]"
      ],
      "transaction": {
        "from": "0x1b382a7b4496f14e0aaa2da1e1626da400426a03",
        "to": "0xeead9dc94aa25623afdb6b04135c31fb58ff09f1",
        "gas": "0x198a8",
        "value": "0x5af3107a4000",
        "input": "0x88f439ef0734de96c97a0faa920b16901a762f32c4637fb871c938d8fdf14d576f3a2ec100f1149cade9d692862ad41df96b108aa2c20af34f640457e781d166c98dc6b00000000000000000000000000000000000000000000000000000000000000060000000000000000000000000000000000000000000000000000000000000000800000000000000000000000000000000000000000000000000000000000000030000000000000000000000000000000000000000000000000000000000000000000000000000000000000000000000000000000000000000000000000000000000000000000000000000000000000000000000000000000000000000000000000000000000000000000000000000000000000000000000000000000000000000000000000000000000000000000000000000000000000000000000000000000000000000000000000000000000000000000000000000000000000000000000000000000000000000000000000000000000000000000000000000000000000000",
        "nonce": "0x130",
        "chainId": "0xaa36a7"
      },
      "additionalContracts": [],
      "isFixedGasLimit": false
    }
  ],
  "receipts": [
    {
      "status": "0x1",
      "cumulativeGasUsed": "0x9a2040",
      "logs": [
        {
          "address": "0xca14007eff0db1f8135f4c25b34de49ab0d42766",
          "topics": [
            "0x8c5be1e5ebec7d5bd14f71427d1e84f3dd0314c0f7b2291e5b200ac8c7c3b925",
            "0x0000000000000000000000001b382a7b4496f14e0aaa2da1e1626da400426a03",
            "0x000000000000000000000000eead9dc94aa25623afdb6b04135c31fb58ff09f1"
          ],
          "data": "0xffffffffffffffffffffffffffffffffffffffffffffffffffffffffffffffff",
          "blockHash": "0xcfba8603e9595d6c45ce90fe3f2f5dde084ef85f2821fcdcf456391ed3d99e5e",
          "blockNumber": "0x6bb358",
          "transactionHash": "0x2d21601516842af24b6ce534f0cf5f4c9176dcf9d501cc8297198f9702cd4398",
          "transactionIndex": "0x44",
          "logIndex": "0x61",
          "removed": false
        }
      ],
      "logsBloom": "0x00000000000000000000000000000000000000000000000000000000000000000000000000000000000000000000000000000000000000000000000000200000000000000000000000000000000000000000000000000000000000000000000000000000000000000000000000000000000000000010000020000000000000040000000000000000000000000000000000000000000000000004000000000000020000000000000000000000000000000000100000000000000000000000000000000000000000020000000000000000000000000000000000800000000000000010000010000000000000000000000000000000001000000000000000000000",
      "type": "0x2",
      "transactionHash": "0x2d21601516842af24b6ce534f0cf5f4c9176dcf9d501cc8297198f9702cd4398",
      "transactionIndex": "0x44",
      "blockHash": "0xcfba8603e9595d6c45ce90fe3f2f5dde084ef85f2821fcdcf456391ed3d99e5e",
      "blockNumber": "0x6bb358",
      "gasUsed": "0x6ae8",
      "effectiveGasPrice": "0x133dabef",
      "blobGasUsed": "0x0",
      "from": "0x1b382a7b4496f14e0aaa2da1e1626da400426a03",
      "to": "0xca14007eff0db1f8135f4c25b34de49ab0d42766",
      "contractAddress": null
    },
    {
      "status": "0x1",
      "cumulativeGasUsed": "0x9b481d",
      "logs": [
        {
          "address": "0xe2bb56ee936fd6433dc0f6e7e3b8365c906aa057",
          "topics": [
            "0xdb80dd488acf86d17c747445b0eabb5d57c541d3bd7b6b87af987858e5066b2b",
            "0x000000000000000000000000eead9dc94aa25623afdb6b04135c31fb58ff09f1",
            "0x0734de96c97a0faa920b16901a762f32c4637fb871c938d8fdf14d576f3a2ec1",
            "0x00f1149cade9d692862ad41df96b108aa2c20af34f640457e781d166c98dc6b0"
          ],
          "data": "0x000000000000000000000000000000000000000000000000000000000000006000000000000000000000000000000000000000000000000000000000000027f900000000000000000000000000000000000000000000000000005af3107a4000000000000000000000000000000000000000000000000000000000000000000800000000000000000000000000000000000000000000000000000000000000030000000000000000000000000000000000000000000000000000000000000000000000000000000000000000000000000000000000000000000000000000000000000000000000000000000000000000000000000000000000000000000000000000000000000000000000000000000000000000000000000000000000000000000000000000000000000000000000000000000000000000000000000000000000000000000000000000000000000000000000000000000000000000000000000000000000000000000000000000000000000000000000000000000000000000",
          "blockHash": "0xcfba8603e9595d6c45ce90fe3f2f5dde084ef85f2821fcdcf456391ed3d99e5e",
          "blockNumber": "0x6bb358",
          "transactionHash": "0x954e265fb8c84aa586dc75d0cc6a3cf9bfaa52447b302767789509779a780ac8",
          "transactionIndex": "0x45",
          "logIndex": "0x62",
          "removed": false
        }
      ],
      "logsBloom": "0x00400000000000000000000000020000000000080000000000000000000000000000000000000000000000000000000000000000000000000000000000000000000000000000000000000000000000000000000000000040001000000000000000000000100000010000000000000000000000000000000000000000002000000000000000000000000000000000000004000000000000000004000000000010000000000000000000000020000000000000180000000000000000000000000000000000000000000000000000000000000000000000000000000000000000000000000010000000000000000000000000000000000000000000000000000000",
      "type": "0x2",
      "transactionHash": "0x954e265fb8c84aa586dc75d0cc6a3cf9bfaa52447b302767789509779a780ac8",
      "transactionIndex": "0x45",
      "blockHash": "0xcfba8603e9595d6c45ce90fe3f2f5dde084ef85f2821fcdcf456391ed3d99e5e",
      "blockNumber": "0x6bb358",
      "gasUsed": "0x127dd",
      "effectiveGasPrice": "0x133dabef",
      "blobGasUsed": "0x0",
      "from": "0x1b382a7b4496f14e0aaa2da1e1626da400426a03",
      "to": "0xeead9dc94aa25623afdb6b04135c31fb58ff09f1",
      "contractAddress": null
    }
  ],
  "libraries": [],
  "pending": [],
  "returns": {},
  "timestamp": 1731367288,
  "chain": 11155111,
  "commit": "a5302c4"
}