{
  "transactions": [
    {
      "hash": "0xc766bbb5b2c11babf38f41a046985592dfdd6f945f1fe48aafbb56ab936568ed",
      "transactionType": "CALL",
      "contractName": null,
      "contractAddress": "0xca14007eff0db1f8135f4c25b34de49ab0d42766",
      "function": "approve(address,uint256)",
      "arguments": [
        "0x7754F43A4975004600c4839a5642b03550fE5b55",
        "115792089237316195423570985008687907853269984665640564039457584007913129639935"
      ],
      "transaction": {
        "from": "0xddb342ecc94236c29a5307d3757d0724d759453c",
        "to": "0xca14007eff0db1f8135f4c25b34de49ab0d42766",
        "gas": "0x9388",
        "value": "0x0",
        "input": "0x095ea7b30000000000000000000000007754f43a4975004600c4839a5642b03550fe5b55ffffffffffffffffffffffffffffffffffffffffffffffffffffffffffffffff",
        "nonce": "0x451",
        "chainId": "0xaa36a7"
      },
      "additionalContracts": [],
      "isFixedGasLimit": false
    },
    {
      "hash": "0xa8384e71860671ada13013d7e615a01fbb78bdcf6bc27aceb76f74951ff75ca3",
      "transactionType": "CALL",
      "contractName": null,
      "contractAddress": "0x7754f43a4975004600c4839a5642b03550fe5b55",
      "function": "depositAndCreateOrder((address,uint256,uint256,uint128,uint128,uint128,uint128))",
      "arguments": [
        "(0xDdb342ecc94236c29a5307d3757d0724D759453C, 2009894490435840142178314390393166646092438090257831307886760648929397478285, 2366254414417873771392932940469309727793822550615514268240785277201753657472, 170141183460469235273462165868118016, 1736161472, 1736161600, 700000000000000)"
      ],
      "transaction": {
        "from": "0xddb342ecc94236c29a5307d3757d0724d759453c",
        "to": "0x7754f43a4975004600c4839a5642b03550fe5b55",
        "gas": "0x46618",
        "value": "0x1c6bf52634000",
        "input": "0x6c1cc3f4000000000000000000000000ddb342ecc94236c29a5307d3757d0724d759453c04718f5a0fc34cc1af16a1cdee98ffb20c31f5cd61d6ab07201858f4287c938d053b40a647cedfca6ca84f542a0fe36736031905a9639a7f19a3c1e66bfd5080000000000000000000000000000000000020c49ba5e353f8000000000000000000000000000000000000000000000000000000000000000000000000677bb8c000000000000000000000000000000000000000000000000000000000677bb94000000000000000000000000000000000000000000000000000027ca57357c000",
        "nonce": "0x452",
        "chainId": "0xaa36a7"
      },
      "additionalContracts": [],
      "isFixedGasLimit": false
    }
  ],
  "receipts": [
    {
      "status": "0x1",
      "cumulativeGasUsed": "0xce29ab",
      "logs": [
        {
          "address": "0xca14007eff0db1f8135f4c25b34de49ab0d42766",
          "topics": [
            "0x8c5be1e5ebec7d5bd14f71427d1e84f3dd0314c0f7b2291e5b200ac8c7c3b925",
            "0x000000000000000000000000ddb342ecc94236c29a5307d3757d0724d759453c",
            "0x0000000000000000000000007754f43a4975004600c4839a5642b03550fe5b55"
          ],
          "data": "0xffffffffffffffffffffffffffffffffffffffffffffffffffffffffffffffff",
          "blockHash": "0xddad3f802eb77c5ca7a3b371525871ffcbaadc7c43e61b57bc1830713500b7d1",
          "blockNumber": "0x716a06",
          "transactionHash": "0xc766bbb5b2c11babf38f41a046985592dfdd6f945f1fe48aafbb56ab936568ed",
          "transactionIndex": "0x35",
          "logIndex": "0x76",
          "removed": false
        }
      ],
      "logsBloom": "0x00000000000000000000000000000000000000000000000080000000000000000000000000000000000000000000000000000000000000000000000000200000000000000000000000000000000000008000000000000000000000000000000400000000000000000000000000000000400000000000000000000000400000000000000000000000000000000000000000000000000000000000000000000000020000000000000000000000000000000000000000000000000000000000000000000000000000020000000040000000000000000000000000800000000000000010000000000000000000000000000000000000001000000000000000000000",
      "type": "0x2",
      "transactionHash": "0xc766bbb5b2c11babf38f41a046985592dfdd6f945f1fe48aafbb56ab936568ed",
      "transactionIndex": "0x35",
      "blockHash": "0xddad3f802eb77c5ca7a3b371525871ffcbaadc7c43e61b57bc1830713500b7d1",
      "blockNumber": "0x716a06",
      "gasUsed": "0x6ad0",
      "effectiveGasPrice": "0x6a2ef2de5",
      "from": "0xddb342ecc94236c29a5307d3757d0724d759453c",
      "to": "0xca14007eff0db1f8135f4c25b34de49ab0d42766",
      "contractAddress": null
    },
    {
      "status": "0x1",
      "cumulativeGasUsed": "0xd12ba6",
      "logs": [
        {
          "address": "0xca14007eff0db1f8135f4c25b34de49ab0d42766",
          "topics": [
            "0x8c5be1e5ebec7d5bd14f71427d1e84f3dd0314c0f7b2291e5b200ac8c7c3b925",
            "0x0000000000000000000000007754f43a4975004600c4839a5642b03550fe5b55",
            "0x0000000000000000000000007754f43a4975004600c4839a5642b03550fe5b55"
          ],
          "data": "0x00000000000000000000000000000000000000000000000000027ca57357c000",
          "blockHash": "0xddad3f802eb77c5ca7a3b371525871ffcbaadc7c43e61b57bc1830713500b7d1",
          "blockNumber": "0x716a06",
          "transactionHash": "0xa8384e71860671ada13013d7e615a01fbb78bdcf6bc27aceb76f74951ff75ca3",
          "transactionIndex": "0x36",
          "logIndex": "0x77",
          "removed": false
        },
        {
          "address": "0xca14007eff0db1f8135f4c25b34de49ab0d42766",
          "topics": [
            "0xddf252ad1be2c89b69c2b068fc378daa952ba7f163c4a11628f55a4df523b3ef",
            "0x000000000000000000000000ddb342ecc94236c29a5307d3757d0724d759453c",
            "0x0000000000000000000000007754f43a4975004600c4839a5642b03550fe5b55"
          ],
          "data": "0x00000000000000000000000000000000000000000000000000027ca57357c000",
          "blockHash": "0xddad3f802eb77c5ca7a3b371525871ffcbaadc7c43e61b57bc1830713500b7d1",
          "blockNumber": "0x716a06",
          "transactionHash": "0xa8384e71860671ada13013d7e615a01fbb78bdcf6bc27aceb76f74951ff75ca3",
          "transactionIndex": "0x36",
          "logIndex": "0x78",
          "removed": false
        },
        {
          "address": "0xca14007eff0db1f8135f4c25b34de49ab0d42766",
          "topics": [
            "0x8c5be1e5ebec7d5bd14f71427d1e84f3dd0314c0f7b2291e5b200ac8c7c3b925",
            "0x0000000000000000000000007754f43a4975004600c4839a5642b03550fe5b55",
            "0x000000000000000000000000ce5485cfb26914c5dce00b9baf0580364dafc7a4"
          ],
          "data": "0x00000000000000000000000000000000000000000000000000027ca57357c000",
          "blockHash": "0xddad3f802eb77c5ca7a3b371525871ffcbaadc7c43e61b57bc1830713500b7d1",
          "blockNumber": "0x716a06",
          "transactionHash": "0xa8384e71860671ada13013d7e615a01fbb78bdcf6bc27aceb76f74951ff75ca3",
          "transactionIndex": "0x36",
          "logIndex": "0x79",
          "removed": false
        },
        {
          "address": "0xca14007eff0db1f8135f4c25b34de49ab0d42766",
          "topics": [
            "0x8c5be1e5ebec7d5bd14f71427d1e84f3dd0314c0f7b2291e5b200ac8c7c3b925",
            "0x0000000000000000000000007754f43a4975004600c4839a5642b03550fe5b55",
            "0x000000000000000000000000ce5485cfb26914c5dce00b9baf0580364dafc7a4"
          ],
          "data": "0x0000000000000000000000000000000000000000000000000000000000000000",
          "blockHash": "0xddad3f802eb77c5ca7a3b371525871ffcbaadc7c43e61b57bc1830713500b7d1",
          "blockNumber": "0x716a06",
          "transactionHash": "0xa8384e71860671ada13013d7e615a01fbb78bdcf6bc27aceb76f74951ff75ca3",
          "transactionIndex": "0x36",
          "logIndex": "0x7a",
          "removed": false
        },
        {
          "address": "0xca14007eff0db1f8135f4c25b34de49ab0d42766",
          "topics": [
            "0xddf252ad1be2c89b69c2b068fc378daa952ba7f163c4a11628f55a4df523b3ef",
            "0x0000000000000000000000007754f43a4975004600c4839a5642b03550fe5b55",
            "0x000000000000000000000000ce5485cfb26914c5dce00b9baf0580364dafc7a4"
          ],
          "data": "0x00000000000000000000000000000000000000000000000000027ca57357c000",
          "blockHash": "0xddad3f802eb77c5ca7a3b371525871ffcbaadc7c43e61b57bc1830713500b7d1",
          "blockNumber": "0x716a06",
          "transactionHash": "0xa8384e71860671ada13013d7e615a01fbb78bdcf6bc27aceb76f74951ff75ca3",
          "transactionIndex": "0x36",
          "logIndex": "0x7b",
          "removed": false
        },
        {
          "address": "0xe2bb56ee936fd6433dc0f6e7e3b8365c906aa057",
          "topics": [
            "0xdb80dd488acf86d17c747445b0eabb5d57c541d3bd7b6b87af987858e5066b2b",
            "0x000000000000000000000000ce5485cfb26914c5dce00b9baf0580364dafc7a4",
            "0x0594c1582459ea03f77deaf9eb7e3917d6994a03c13405ba42867f83d85f085d",
            "0x008bce41827dd5484d80312a2e43bc42a896e3fcf75bf84c2b49339168dfa00a"
          ],
          "data": "0x00000000000000000000000000000000000000000000000000000000000000600000000000000000000000000000000000000000000000000000000000002b300000000000000000000000000000000000000000000000000001c6bf52634000000000000000000000000000000000000000000000000000000000000000000e000000000000000000000000ca14007eff0db1f8135f4c25b34de49ab0d427660000000000000000000000007754f43a4975004600c4839a5642b03550fe5b550294a726b321a41e88c7fe4cdc186066f75aada1f4ff5f7b92a7e82c0f9c6bf500000000000000000000000000000000000000000000000000027ca57357c000000000000000000000000000000000000000000000000000000000000000000000000000000000000000000000000000000000000000000000000000000000080000000000000000000000000000000000000000000000000000000000000000000000000000000000000000ddb342ecc94236c29a5307d3757d0724d759453c04718f5a0fc34cc1af16a1cdee98ffb20c31f5cd61d6ab07201858f4287c938d053b40a647cedfca6ca84f542a0fe36736031905a9639a7f19a3c1e66bfd5080000000000000000000000000000000000020c49ba5e353f8000000000000000000000000000000000000000000000000000000000000000000000000677bb8c000000000000000000000000000000000000000000000000000000000677bb94000000000000000000000000000000000000000000000000000027ca57357c000",
          "blockHash": "0xddad3f802eb77c5ca7a3b371525871ffcbaadc7c43e61b57bc1830713500b7d1",
          "blockNumber": "0x716a06",
          "transactionHash": "0xa8384e71860671ada13013d7e615a01fbb78bdcf6bc27aceb76f74951ff75ca3",
          "transactionIndex": "0x36",
          "logIndex": "0x7c",
          "removed": false
        },
        {
          "address": "0xce5485cfb26914c5dce00b9baf0580364dafc7a4",
          "topics": [
            "0x2203a49c69f1a46c1164f5e4a30643dd77b7c59c0ff9bc433256048365c247f1",
            "0x0000000000000000000000007754f43a4975004600c4839a5642b03550fe5b55",
            "0x000000000000000000000000ca14007eff0db1f8135f4c25b34de49ab0d42766",
            "0x0294a726b321a41e88c7fe4cdc186066f75aada1f4ff5f7b92a7e82c0f9c6bf5"
          ],
          "data": "0x00000000000000000000000000000000000000000000000000027ca57357c00000000000000000000000000000000000000000000000000000000000000000800000000000000000000000000000000000000000000000000000000000002b300000000000000000000000000000000000000000000000000001c6bf5263400000000000000000000000000000000000000000000000000000000000000000080000000000000000000000000000000000000000000000000000000000000000000000000000000000000000ddb342ecc94236c29a5307d3757d0724d759453c04718f5a0fc34cc1af16a1cdee98ffb20c31f5cd61d6ab07201858f4287c938d053b40a647cedfca6ca84f542a0fe36736031905a9639a7f19a3c1e66bfd5080000000000000000000000000000000000020c49ba5e353f8000000000000000000000000000000000000000000000000000000000000000000000000677bb8c000000000000000000000000000000000000000000000000000000000677bb94000000000000000000000000000000000000000000000000000027ca57357c000",
          "blockHash": "0xddad3f802eb77c5ca7a3b371525871ffcbaadc7c43e61b57bc1830713500b7d1",
          "blockNumber": "0x716a06",
          "transactionHash": "0xa8384e71860671ada13013d7e615a01fbb78bdcf6bc27aceb76f74951ff75ca3",
          "transactionIndex": "0x36",
          "logIndex": "0x7d",
          "removed": false
        },
        {
          "address": "0x7754f43a4975004600c4839a5642b03550fe5b55",
          "topics": [
            "0xaf43445f7721522b7a3864ed3de53d7e2e658bfa1eeffa18e1e229be68ce2545",
            "0x000000000000000000000000ddb342ecc94236c29a5307d3757d0724d759453c",
            "0x0294a726b321a41e88c7fe4cdc186066f75aada1f4ff5f7b92a7e82c0f9c6bf5"
          ],
          "data": "0x00000000000000000000000000000000000000000000000000027ca57357c0000000000000000000000000000000000000000000000000000000000000000001",
          "blockHash": "0xddad3f802eb77c5ca7a3b371525871ffcbaadc7c43e61b57bc1830713500b7d1",
          "blockNumber": "0x716a06",
          "transactionHash": "0xa8384e71860671ada13013d7e615a01fbb78bdcf6bc27aceb76f74951ff75ca3",
          "transactionIndex": "0x36",
          "logIndex": "0x7e",
          "removed": false
        }
      ],
      "logsBloom": "0x00000200000000400000000000020000000000000000000080000040000000000000000000000000000000000000000000000800000004000000020000200000000000000000000000000008080000008000000000000040001000000000000600000008100000000000000000000000400000000000000000000010400008002000000000000000000000020000000000008000000200000000000000000010020000800000000000000020000000021000001000000000000000000000000000900002000000024010000040000000000000200000000000800000000000000010000000010000000000020004000000000000001000000100000000000000",
      "type": "0x2",
      "transactionHash": "0xa8384e71860671ada13013d7e615a01fbb78bdcf6bc27aceb76f74951ff75ca3",
      "transactionIndex": "0x36",
      "blockHash": "0xddad3f802eb77c5ca7a3b371525871ffcbaadc7c43e61b57bc1830713500b7d1",
      "blockNumber": "0x716a06",
      "gasUsed": "0x301fb",
      "effectiveGasPrice": "0x6a2ef2de5",
      "from": "0xddb342ecc94236c29a5307d3757d0724d759453c",
      "to": "0x7754f43a4975004600c4839a5642b03550fe5b55",
      "contractAddress": null
    }
  ],
  "libraries": [],
  "pending": [],
  "returns": {},
  "timestamp": 1736161504,
  "chain": 11155111,
  "commit": "3ea534e"
}