{
  "transactions": [
    {
      "hash": "0x40094188ea50716c1d00795801b0b82672621b1fec64b04f4da1ce70d69d665a",
      "transactionType": "CALL",
      "contractName": "StarkNetToken",
      "contractAddress": "0xCa14007Eff0dB1f8135f4C25B34De49AB0d42766",
      "function": "approve(address,uint256)",
      "arguments": [
        "0x7eb4C59eABE1234E8A6D02FdF4d1BB595C4702Cd",
        "115792089237316195423570985008687907853269984665640564039457584007913129639935"
      ],
      "transaction": {
        "type": "0x02",
        "from": "0xddb342ecc94236c29a5307d3757d0724d759453c",
        "to": "0xca14007eff0db1f8135f4c25b34de49ab0d42766",
        "gas": "0x93a9",
        "value": "0x0",
        "data": "0x095ea7b30000000000000000000000007eb4c59eabe1234e8a6d02fdf4d1bb595c4702cdffffffffffffffffffffffffffffffffffffffffffffffffffffffffffffffff",
        "nonce": "0x389",
        "accessList": []
      },
      "additionalContracts": [],
      "isFixedGasLimit": false
    },
    {
      "hash": "0x1e6026175faa66fa6af5a7c62f6e3b6397e7324cb5de2aba9fd38112e4bb9414",
      "transactionType": "CALL",
      "contractName": null,
      "contractAddress": "0x7eb4C59eABE1234E8A6D02FdF4d1BB595C4702Cd",
      "function": "setL2EndpointAddress(uint256)",
      "arguments": [
        "1260982957119863879256996864418490802570835642900898883839531106374629143480"
      ],
      "transaction": {
        "type": "0x02",
        "from": "0xddb342ecc94236c29a5307d3757d0724d759453c",
        "to": "0x7eb4c59eabe1234e8a6d02fdf4d1bb595c4702cd",
        "gas": "0xabab",
        "value": "0x0",
        "data": "0x5155fb2f02c9b0e967948762be38c87ac131d2958f7988d6aff58885993f1c186a5333b8",
        "nonce": "0x38a",
        "accessList": []
      },
      "additionalContracts": [],
      "isFixedGasLimit": false
    }
  ],
  "receipts": [
    {
      "transactionHash": "0x40094188ea50716c1d00795801b0b82672621b1fec64b04f4da1ce70d69d665a",
      "transactionIndex": "0xa",
      "blockHash": "0xf5b46026e299c6a7ebf7f0e411ac57de34076b813887c8802afe0e3c1530bf3b",
      "blockNumber": "0x6d4da5",
      "from": "0xDdb342ecc94236c29a5307d3757d0724D759453C",
      "to": "0xCa14007Eff0dB1f8135f4C25B34De49AB0d42766",
      "cumulativeGasUsed": "0xfcfe3",
      "gasUsed": "0x6ae8",
      "contractAddress": null,
      "logs": [
        {
          "address": "0xCa14007Eff0dB1f8135f4C25B34De49AB0d42766",
          "topics": [
            "0x8c5be1e5ebec7d5bd14f71427d1e84f3dd0314c0f7b2291e5b200ac8c7c3b925",
            "0x000000000000000000000000ddb342ecc94236c29a5307d3757d0724d759453c",
            "0x0000000000000000000000007eb4c59eabe1234e8a6d02fdf4d1bb595c4702cd"
          ],
          "data": "0xffffffffffffffffffffffffffffffffffffffffffffffffffffffffffffffff",
          "blockHash": "0xf5b46026e299c6a7ebf7f0e411ac57de34076b813887c8802afe0e3c1530bf3b",
          "blockNumber": "0x6d4da5",
          "transactionHash": "0x40094188ea50716c1d00795801b0b82672621b1fec64b04f4da1ce70d69d665a",
          "transactionIndex": "0xa",
          "logIndex": "0xb",
          "removed": false
        }
      ],
      "status": "0x1",
      "logsBloom": "0x00000000000000100000000000000000000000000000000000000000000000000000000000000000000000000000000000000000000000000000000000200000000000000000000000000000000000000000000000000000000000000000000400020000000000000000000000000000400000000000000000000000400000000000000000000000000000000000000000000000000000000000000000000000020000000000000000000000000000008000000000000000000000000000000000000000000000020000000000000000000000000000000000800000000000000010000000000000000000000000000000000000001000000000000000000000",
      "type": "0x2",
      "effectiveGasPrice": "0x41b1cfd04"
    },
    {
      "transactionHash": "0x1e6026175faa66fa6af5a7c62f6e3b6397e7324cb5de2aba9fd38112e4bb9414",
      "transactionIndex": "0xb",
      "blockHash": "0xf5b46026e299c6a7ebf7f0e411ac57de34076b813887c8802afe0e3c1530bf3b",
      "blockNumber": "0x6d4da5",
      "from": "0xDdb342ecc94236c29a5307d3757d0724D759453C",
      "to": "0x7eb4C59eABE1234E8A6D02FdF4d1BB595C4702Cd",
      "cumulativeGasUsed": "0x104545",
      "gasUsed": "0x7562",
      "contractAddress": null,
      "logs": [
        {
          "address": "0x7eb4C59eABE1234E8A6D02FdF4d1BB595C4702Cd",
          "topics": [
            "0xa35dce9e53611b0cabca886209c4a1d09c80214af9b6fb6027f7b2f7c39838e8"
          ],
          "data": "0x02c9b0e967948762be38c87ac131d2958f7988d6aff58885993f1c186a5333b8",
          "blockHash": "0xf5b46026e299c6a7ebf7f0e411ac57de34076b813887c8802afe0e3c1530bf3b",
          "blockNumber": "0x6d4da5",
          "transactionHash": "0x1e6026175faa66fa6af5a7c62f6e3b6397e7324cb5de2aba9fd38112e4bb9414",
          "transactionIndex": "0xb",
          "logIndex": "0xc",
          "removed": false
        }
      ],
      "status": "0x1",
      "logsBloom": "0x00000000000000000000000010000000000000000000000000000000000000000000000000000000000000000000000000000000000000200000000000000000000000000000000000000000000200000000000000000000000000000000000000000000000000000000000000000000000000000000000000000001000000000000000000000000000000000000000000000000000000000000000000000000800000000000000000000000000000200000000000000000000000000000000000000000000000000000000000000000000000000000000000000000000000000000000000000000000000000000000000000000000000000000000000000000",
      "type": "0x2",
      "effectiveGasPrice": "0x41b1cfd04"
    }
  ],
  "libraries": [],
  "pending": [],
  "returns": {},
  "timestamp": 1732712539,
  "chain": 11155111,
  "multi": false,
  "commit": "1254ada"
}