{
  "transactions": [
    {
      "hash": "0xd7efed46f865900c37de2d4126f10b55dcaf6f0f05bd33ee66cd64566da2c918",
      "transactionType": "CALL",
      "contractName": null,
      "contractAddress": "0xe2bb56ee936fd6433dc0f6e7e3b8365c906aa057",
      "function": "sendMessageToL2(uint256,uint256,uint256[])",
      "arguments": [
        "2569639627509262774299360552210909587064759874720422393331656688514562998158",
        "425952401605428413817582304755919420533935873840436977667370850915372091056",
        "[2, 1265684623727634235329190328445374361672779121980, 1265684623727634235329190328445374361672779121980, 557]"
      ],
      "transaction": {
        "from": "0xddb342ecc94236c29a5307d3757d0724d759453c",
        "to": "0xe2bb56ee936fd6433dc0f6e7e3b8365c906aa057",
        "gas": "0x15278",
        "value": "0x1c6bf52634000",
        "input": "0x3e3aa6c505ae5d4f1d34038e4fcb69c97df6e654b9d8aed2711be385cd8f9cae1e873f8e00f1149cade9d692862ad41df96b108aa2c20af34f640457e781d166c98dc6b0000000000000000000000000000000000000000000000000000000000000006000000000000000000000000000000000000000000000000000000000000000040000000000000000000000000000000000000000000000000000000000000002000000000000000000000000ddb342ecc94236c29a5307d3757d0724d759453c000000000000000000000000ddb342ecc94236c29a5307d3757d0724d759453c000000000000000000000000000000000000000000000000000000000000022d",
        "nonce": "0x550",
        "chainId": "0xaa36a7"
      },
      "additionalContracts": [],
      "isFixedGasLimit": false
    }
  ],
  "receipts": [
    {
      "status": "0x1",
      "cumulativeGasUsed": "0x85da91",
      "logs": [
        {
          "address": "0xe2bb56ee936fd6433dc0f6e7e3b8365c906aa057",
          "topics": [
            "0xdb80dd488acf86d17c747445b0eabb5d57c541d3bd7b6b87af987858e5066b2b",
            "0x000000000000000000000000ddb342ecc94236c29a5307d3757d0724d759453c",
            "0x05ae5d4f1d34038e4fcb69c97df6e654b9d8aed2711be385cd8f9cae1e873f8e",
            "0x00f1149cade9d692862ad41df96b108aa2c20af34f640457e781d166c98dc6b0"
          ],
          "data": "0x00000000000000000000000000000000000000000000000000000000000000600000000000000000000000000000000000000000000000000000000000002cd40000000000000000000000000000000000000000000000000001c6bf5263400000000000000000000000000000000000000000000000000000000000000000040000000000000000000000000000000000000000000000000000000000000002000000000000000000000000ddb342ecc94236c29a5307d3757d0724d759453c000000000000000000000000ddb342ecc94236c29a5307d3757d0724d759453c000000000000000000000000000000000000000000000000000000000000022d",
          "blockHash": "0x51556f9bab81b581b149c13eabb16ec7ac00483f7e672b223c05ea87f0feb769",
          "blockNumber": "0x735e33",
          "transactionHash": "0xd7efed46f865900c37de2d4126f10b55dcaf6f0f05bd33ee66cd64566da2c918",
          "transactionIndex": "0x5c",
          "logIndex": "0x7a",
          "removed": false
        }
      ],
      "logsBloom": "0x00400000000000000000000000020000000000000000000000000000000000000000000000000000000000000000000000000000000000000000000000000000040000000000000000000000000008000000000000000040001000000000000400000000100000010000000000000000400000000000000000000000400000000000000000000000000000000000000404000000000000000000000000000010000000000000000000000020000000000000000000000000000000000000000000000000000000000000000000000000000000000000000000000000000000000000000000000000000000000000000000000000000000000000000000000000",
      "type": "0x2",
      "transactionHash": "0xd7efed46f865900c37de2d4126f10b55dcaf6f0f05bd33ee66cd64566da2c918",
      "transactionIndex": "0x5c",
      "blockHash": "0x51556f9bab81b581b149c13eabb16ec7ac00483f7e672b223c05ea87f0feb769",
      "blockNumber": "0x735e33",
      "gasUsed": "0xf50d",
      "effectiveGasPrice": "0xadb2d012f",
      "from": "0xddb342ecc94236c29a5307d3757d0724d759453c",
      "to": "0xe2bb56ee936fd6433dc0f6e7e3b8365c906aa057",
      "contractAddress": null
    }
  ],
  "libraries": [],
  "pending": [],
  "returns": {},
  "timestamp": 1737719354,
  "chain": 11155111,
  "commit": "19821e3"
}