{
  "transactions": [
    {
      "hash": "0xe107e26ee3a48ba971303902d76fa9a80780397354760a1bd5caff8a9460fd93",
      "transactionType": "CALL",
      "contractName": null,
      "contractAddress": "0xca14007eff0db1f8135f4c25b34de49ab0d42766",
      "function": "approve(address,uint256)",
      "arguments": [
        "0x17ceB8Da41205f1026241766328751884Afa7FE8",
        "115792089237316195423570985008687907853269984665640564039457584007913129639935"
      ],
      "transaction": {
        "from": "0xddb342ecc94236c29a5307d3757d0724d759453c",
        "to": "0xca14007eff0db1f8135f4c25b34de49ab0d42766",
        "gas": "0x93a9",
        "value": "0x0",
        "input": "0x095ea7b300000000000000000000000017ceb8da41205f1026241766328751884afa7fe8ffffffffffffffffffffffffffffffffffffffffffffffffffffffffffffffff",
        "nonce": "0x508",
        "chainId": "0xaa36a7"
      },
      "additionalContracts": [],
      "isFixedGasLimit": false
    },
    {
      "hash": "0x1b6a7072ecdf286802f0bfa3782673e0b2a1058ef006a9e0c3f094c4294a5fe1",
      "transactionType": "CALL",
      "contractName": null,
      "contractAddress": "0x17ceb8da41205f1026241766328751884afa7fe8",
      "function": "initiateWithdrawal(address,address,uint64)",
      "arguments": [
        "0xDdb342ecc94236c29a5307d3757d0724D759453C",
        "0x1c7D4B196Cb0C7B01d743Fbc6116a902379C7238",
        "530"
      ],
      "transaction": {
        "from": "0xddb342ecc94236c29a5307d3757d0724d759453c",
        "to": "0x17ceb8da41205f1026241766328751884afa7fe8",
        "gas": "0x1b4c1",
        "value": "0x11c37937e08000",
        "input": "0x9b4085f6000000000000000000000000ddb342ecc94236c29a5307d3757d0724d759453c0000000000000000000000001c7d4b196cb0c7b01d743fbc6116a902379c72380000000000000000000000000000000000000000000000000000000000000212",
        "nonce": "0x509",
        "chainId": "0xaa36a7"
      },
      "additionalContracts": [],
      "isFixedGasLimit": false
    }
  ],
  "receipts": [
    {
      "status": "0x1",
      "cumulativeGasUsed": "0x150b114",
      "logs": [
        {
          "address": "0xca14007eff0db1f8135f4c25b34de49ab0d42766",
          "topics": [
            "0x8c5be1e5ebec7d5bd14f71427d1e84f3dd0314c0f7b2291e5b200ac8c7c3b925",
            "0x000000000000000000000000ddb342ecc94236c29a5307d3757d0724d759453c",
            "0x00000000000000000000000017ceb8da41205f1026241766328751884afa7fe8"
          ],
          "data": "0xffffffffffffffffffffffffffffffffffffffffffffffffffffffffffffffff",
          "blockHash": "0x0149c82a807d455295fc9363d96c9c71f671cfb336bdfaae9feb76fa2d0c4de3",
          "blockNumber": "0x730aba",
          "transactionHash": "0xe107e26ee3a48ba971303902d76fa9a80780397354760a1bd5caff8a9460fd93",
          "transactionIndex": "0x9b",
          "logIndex": "0x125",
          "removed": false
        }
      ],
      "logsBloom": "0x00000000000000000000000000000000000000000000000000000000000000000000000000000000000000000800000000000000000000000000000000200000000000000000000000000000000000000000000000000000000000000000000400000000000000000000000000000000400000000000000000000000400000000000000000000000000000000000000000000000000000000000000000000000020000000000000000000000000000000000000000000000000000000000000000000000000000020000000000000000020000000000000000800000000000000010000000400000000000000000000000000000001000000000000000000000",
      "type": "0x2",
      "transactionHash": "0xe107e26ee3a48ba971303902d76fa9a80780397354760a1bd5caff8a9460fd93",
      "transactionIndex": "0x9b",
      "blockHash": "0x0149c82a807d455295fc9363d96c9c71f671cfb336bdfaae9feb76fa2d0c4de3",
      "blockNumber": "0x730aba",
      "gasUsed": "0x6ae8",
      "effectiveGasPrice": "0xb388cbb3",
      "from": "0xddb342ecc94236c29a5307d3757d0724d759453c",
      "to": "0xca14007eff0db1f8135f4c25b34de49ab0d42766",
      "contractAddress": null
    },
    {
      "status": "0x1",
      "cumulativeGasUsed": "0x151dbb7",
      "logs": [
        {
          "address": "0xe2bb56ee936fd6433dc0f6e7e3b8365c906aa057",
          "topics": [
            "0xdb80dd488acf86d17c747445b0eabb5d57c541d3bd7b6b87af987858e5066b2b",
            "0x00000000000000000000000017ceb8da41205f1026241766328751884afa7fe8",
            "0x01faf6acdf200ef465ed828e948e626c1b063707810b4702e3197b8ac9eb132a",
            "0x00f1149cade9d692862ad41df96b108aa2c20af34f640457e781d166c98dc6b0"
          ],
          "data": "0x00000000000000000000000000000000000000000000000000000000000000600000000000000000000000000000000000000000000000000000000000002c680000000000000000000000000000000000000000000000000011c37937e0800000000000000000000000000000000000000000000000000000000000000000050000000000000000000000000000000000000000000000000000000000000002000000000000000000000000ddb342ecc94236c29a5307d3757d0724d759453c000000000000000000000000ddb342ecc94236c29a5307d3757d0724d759453c0000000000000000000000001c7d4b196cb0c7b01d743fbc6116a902379c72380000000000000000000000000000000000000000000000000000000000000212",
          "blockHash": "0x0149c82a807d455295fc9363d96c9c71f671cfb336bdfaae9feb76fa2d0c4de3",
          "blockNumber": "0x730aba",
          "transactionHash": "0x1b6a7072ecdf286802f0bfa3782673e0b2a1058ef006a9e0c3f094c4294a5fe1",
          "transactionIndex": "0x9c",
          "logIndex": "0x126",
          "removed": false
        },
        {
          "address": "0x17ceb8da41205f1026241766328751884afa7fe8",
          "topics": [
            "0x89bd98ae1b8dd4dbaeba50e40ad484414a306be9fb54ec4eecf1a801ca9aeacf",
            "0x000000000000000000000000ddb342ecc94236c29a5307d3757d0724d759453c"
          ],
          "data": "0x0000000000000000000000000000000000000000000000000000000000000212",
          "blockHash": "0x0149c82a807d455295fc9363d96c9c71f671cfb336bdfaae9feb76fa2d0c4de3",
          "blockNumber": "0x730aba",
          "transactionHash": "0x1b6a7072ecdf286802f0bfa3782673e0b2a1058ef006a9e0c3f094c4294a5fe1",
          "transactionIndex": "0x9c",
          "logIndex": "0x127",
          "removed": false
        }
      ],
      "logsBloom": "0x00400000040000000000000000020000020000000000000000000000000000000000000000000000000000000800000000000000000000000000000000000000000000000000000000000000000000000000000000000040001000000000000400000000100000010000000000000000400000000000000000000000400004000000000000000000000000000000000004000000800000000000000000000010000000000000000000000020000000000000000004000001000000000000002800000000000000000000000000000000020000000000000000000000000000000000000000400000000000002000000000000000000000000000000000000000",
      "type": "0x2",
      "transactionHash": "0x1b6a7072ecdf286802f0bfa3782673e0b2a1058ef006a9e0c3f094c4294a5fe1",
      "transactionIndex": "0x9c",
      "blockHash": "0x0149c82a807d455295fc9363d96c9c71f671cfb336bdfaae9feb76fa2d0c4de3",
      "blockNumber": "0x730aba",
      "gasUsed": "0x12aa3",
      "effectiveGasPrice": "0xb388cbb3",
      "from": "0xddb342ecc94236c29a5307d3757d0724d759453c",
      "to": "0x17ceb8da41205f1026241766328751884afa7fe8",
      "contractAddress": null
    }
  ],
  "libraries": [],
  "pending": [],
  "returns": {},
  "timestamp": 1737456974,
  "chain": 11155111,
  "commit": "fcbff6b"
}