{
  "transactions": [
    {
      "hash": "0x919e25783fa1e2ad80089ed743630b7838e2fe0982de2fe74cb0725063aa80ca",
      "transactionType": "CALL",
      "contractName": "StarkNetToken",
      "contractAddress": "0xCa14007Eff0dB1f8135f4C25B34De49AB0d42766",
      "function": "approve(address,uint256)",
      "arguments": [
        "0x800480524107edEd9B2d87Ea835fec2614605ca5",
        "115792089237316195423570985008687907853269984665640564039457584007913129639935"
      ],
      "transaction": {
        "type": "0x02",
        "from": "0xddb342ecc94236c29a5307d3757d0724d759453c",
        "to": "0xca14007eff0db1f8135f4c25b34de49ab0d42766",
        "gas": "0x93a9",
        "value": "0x0",
        "data": "0x095ea7b3000000000000000000000000800480524107eded9b2d87ea835fec2614605ca5ffffffffffffffffffffffffffffffffffffffffffffffffffffffffffffffff",
        "nonce": "0x2e2",
        "accessList": []
      },
      "additionalContracts": [],
      "isFixedGasLimit": false
    },
    {
      "hash": "0x984809598d29d038adf77eb8057d3dde98146c3d9d2b7c5037b7b97a105c4f0a",
      "transactionType": "CALL",
      "contractName": "StarkNetToken",
      "contractAddress": "0xCa14007Eff0dB1f8135f4C25B34De49AB0d42766",
      "function": "transfer(address,uint256)",
      "arguments": [
        "0x800480524107edEd9B2d87Ea835fec2614605ca5",
        "500000000000"
      ],
      "transaction": {
        "type": "0x02",
        "from": "0xddb342ecc94236c29a5307d3757d0724d759453c",
        "to": "0xca14007eff0db1f8135f4c25b34de49ab0d42766",
        "gas": "0x1339c",
        "value": "0x0",
        "data": "0xa9059cbb000000000000000000000000800480524107eded9b2d87ea835fec2614605ca5000000000000000000000000000000000000000000000000000000746a528800",
        "nonce": "0x2e3",
        "accessList": []
      },
      "additionalContracts": [],
      "isFixedGasLimit": false
    },
    {
      "hash": "0xc34d2b3f6aee6abd06b2a6b67458237e733e1b849a1ccbaf9367dbde87964e4e",
      "transactionType": "CALL",
      "contractName": "L1TWAMMBridge",
      "contractAddress": "0x800480524107edEd9B2d87Ea835fec2614605ca5",
      "function": "deposit(uint256,uint256)",
      "arguments": [
        "500000000000",
        "3506623030916034188942742443137463598163805523457718257233226466542451029911"
      ],
      "transaction": {
        "type": "0x02",
        "from": "0xddb342ecc94236c29a5307d3757d0724d759453c",
        "to": "0x800480524107eded9b2d87ea835fec2614605ca5",
        "gas": "0x30231",
        "value": "0x5af3107a4000",
        "data": "0xe2bbb158000000000000000000000000000000000000000000000000000000746a52880007c0ada524e79e572c4f705e6c677d2f8881aa78c7d3e312f623a4ad26f1f797",
        "nonce": "0x2e4",
        "accessList": []
      },
      "additionalContracts": [],
      "isFixedGasLimit": false
    },
    {
      "hash": "0xa88512123204a83312555e1fc33ba53bcad5f9f355c1b9307875c17f2b4d16f1",
      "transactionType": "CALL",
      "contractName": "Proxy",
      "contractAddress": "0xE2Bb56ee936fd6433DC0F6e7e3b8365C906AA057",
      "function": "sendMessageToL2(uint256,uint256,uint256[])",
      "arguments": [
        "3506623030916034188942742443137463598163805523457718257233226466542451029911",
        "425952401605428413817582304755919420533935873840436977667370850915372091056",
        "[2, 1265684623727634235329190328445374361672779121980, 0, 0, 0, 0, 0, 500000000000]"
      ],
      "transaction": {
        "type": "0x02",
        "from": "0xddb342ecc94236c29a5307d3757d0724d759453c",
        "to": "0xe2bb56ee936fd6433dc0f6e7e3b8365c906aa057",
        "gas": "0x16e69",
        "value": "0x5af3107a4000",
        "data": "0x3e3aa6c507c0ada524e79e572c4f705e6c677d2f8881aa78c7d3e312f623a4ad26f1f79700f1149cade9d692862ad41df96b108aa2c20af34f640457e781d166c98dc6b0000000000000000000000000000000000000000000000000000000000000006000000000000000000000000000000000000000000000000000000000000000080000000000000000000000000000000000000000000000000000000000000002000000000000000000000000ddb342ecc94236c29a5307d3757d0724d759453c00000000000000000000000000000000000000000000000000000000000000000000000000000000000000000000000000000000000000000000000000000000000000000000000000000000000000000000000000000000000000000000000000000000000000000000000000000000000000000000000000000000000000000000000000000000000000000000000000000000000000000000000000000000000000000000000000000000000000000000000000000000000000746a528800",
        "nonce": "0x2e5",
        "accessList": []
      },
      "additionalContracts": [],
      "isFixedGasLimit": false
    }
  ],
  "receipts": [
    {
      "transactionHash": "0x919e25783fa1e2ad80089ed743630b7838e2fe0982de2fe74cb0725063aa80ca",
      "transactionIndex": "0x1",
      "blockHash": "0xfedb181db6744e57665b46ea03750f0f17b1ac368e84c18bf59fa36d9e991484",
      "blockNumber": "0x6bdde2",
      "from": "0xDdb342ecc94236c29a5307d3757d0724D759453C",
      "to": "0xCa14007Eff0dB1f8135f4C25B34De49AB0d42766",
      "cumulativeGasUsed": "0xbcf0",
      "gasUsed": "0x6ae8",
      "contractAddress": null,
      "logs": [
        {
          "address": "0xCa14007Eff0dB1f8135f4C25B34De49AB0d42766",
          "topics": [
            "0x8c5be1e5ebec7d5bd14f71427d1e84f3dd0314c0f7b2291e5b200ac8c7c3b925",
            "0x000000000000000000000000ddb342ecc94236c29a5307d3757d0724d759453c",
            "0x000000000000000000000000800480524107eded9b2d87ea835fec2614605ca5"
          ],
          "data": "0xffffffffffffffffffffffffffffffffffffffffffffffffffffffffffffffff",
          "blockHash": "0xfedb181db6744e57665b46ea03750f0f17b1ac368e84c18bf59fa36d9e991484",
          "blockNumber": "0x6bdde2",
          "transactionHash": "0x919e25783fa1e2ad80089ed743630b7838e2fe0982de2fe74cb0725063aa80ca",
          "transactionIndex": "0x1",
          "logIndex": "0x0",
          "removed": false
        }
      ],
      "status": "0x1",
      "logsBloom": "0x00000000000000000000000000000000000000000000000000000000000000000000000000000000000000000000000000000000000000000000000000200000000000000000000000000000000000000000000000000000000000000000000400000000000000000000000000100000400000000000000000000004400000000000000000000000000000000000000000000000000000000000000000000000020000400000000000000000000000000000000000000000000000000000000000000000000000020000000000000000000000000000000000800000000000000010000000000000000000000000000000000000001000000000000000000000",
      "type": "0x2",
      "effectiveGasPrice": "0xe96f6d05"
    },
    {
      "transactionHash": "0x984809598d29d038adf77eb8057d3dde98146c3d9d2b7c5037b7b97a105c4f0a",
      "transactionIndex": "0x2",
      "blockHash": "0xfedb181db6744e57665b46ea03750f0f17b1ac368e84c18bf59fa36d9e991484",
      "blockNumber": "0x6bdde2",
      "from": "0xDdb342ecc94236c29a5307d3757d0724D759453C",
      "to": "0xCa14007Eff0dB1f8135f4C25B34De49AB0d42766",
      "cumulativeGasUsed": "0x19ba5",
      "gasUsed": "0xdeb5",
      "contractAddress": null,
      "logs": [
        {
          "address": "0xCa14007Eff0dB1f8135f4C25B34De49AB0d42766",
          "topics": [
            "0xddf252ad1be2c89b69c2b068fc378daa952ba7f163c4a11628f55a4df523b3ef",
            "0x000000000000000000000000ddb342ecc94236c29a5307d3757d0724d759453c",
            "0x000000000000000000000000800480524107eded9b2d87ea835fec2614605ca5"
          ],
          "data": "0x000000000000000000000000000000000000000000000000000000746a528800",
          "blockHash": "0xfedb181db6744e57665b46ea03750f0f17b1ac368e84c18bf59fa36d9e991484",
          "blockNumber": "0x6bdde2",
          "transactionHash": "0x984809598d29d038adf77eb8057d3dde98146c3d9d2b7c5037b7b97a105c4f0a",
          "transactionIndex": "0x2",
          "logIndex": "0x1",
          "removed": false
        }
      ],
      "status": "0x1",
      "logsBloom": "0x00000000000000000000000000000000000000000000000000000000000000000000000000000000000000000000000000000000000000000000000000000000000000000000000000000008000000000000000000000000000000000000000400000000000000000000000000100000400000000000000000000014400000000000000000000000000000000000000000000000000000000000000000000000000000400000000000000000000000000000000000000000000000000000000000000002000000020000000000000000000000000000000000800000000000000000000000000000000000000000000000000000001000000000000000000000",
      "type": "0x2",
      "effectiveGasPrice": "0xe96f6d05"
    },
    {
      "transactionHash": "0xc34d2b3f6aee6abd06b2a6b67458237e733e1b849a1ccbaf9367dbde87964e4e",
      "transactionIndex": "0x3",
      "blockHash": "0xfedb181db6744e57665b46ea03750f0f17b1ac368e84c18bf59fa36d9e991484",
      "blockNumber": "0x6bdde2",
      "from": "0xDdb342ecc94236c29a5307d3757d0724D759453C",
      "to": "0x800480524107edEd9B2d87Ea835fec2614605ca5",
      "cumulativeGasUsed": "0x3aa46",
      "gasUsed": "0x20ea1",
      "contractAddress": null,
      "logs": [
        {
          "address": "0xCa14007Eff0dB1f8135f4C25B34De49AB0d42766",
          "topics": [
            "0x8c5be1e5ebec7d5bd14f71427d1e84f3dd0314c0f7b2291e5b200ac8c7c3b925",
            "0x000000000000000000000000800480524107eded9b2d87ea835fec2614605ca5",
            "0x000000000000000000000000ce5485cfb26914c5dce00b9baf0580364dafc7a4"
          ],
          "data": "0x000000000000000000000000000000000000000000000000000000746a528800",
          "blockHash": "0xfedb181db6744e57665b46ea03750f0f17b1ac368e84c18bf59fa36d9e991484",
          "blockNumber": "0x6bdde2",
          "transactionHash": "0xc34d2b3f6aee6abd06b2a6b67458237e733e1b849a1ccbaf9367dbde87964e4e",
          "transactionIndex": "0x3",
          "logIndex": "0x2",
          "removed": false
        },
        {
          "address": "0xCa14007Eff0dB1f8135f4C25B34De49AB0d42766",
          "topics": [
            "0x8c5be1e5ebec7d5bd14f71427d1e84f3dd0314c0f7b2291e5b200ac8c7c3b925",
            "0x000000000000000000000000800480524107eded9b2d87ea835fec2614605ca5",
            "0x000000000000000000000000ce5485cfb26914c5dce00b9baf0580364dafc7a4"
          ],
          "data": "0x0000000000000000000000000000000000000000000000000000000000000000",
          "blockHash": "0xfedb181db6744e57665b46ea03750f0f17b1ac368e84c18bf59fa36d9e991484",
          "blockNumber": "0x6bdde2",
          "transactionHash": "0xc34d2b3f6aee6abd06b2a6b67458237e733e1b849a1ccbaf9367dbde87964e4e",
          "transactionIndex": "0x3",
          "logIndex": "0x3",
          "removed": false
        },
        {
          "address": "0xCa14007Eff0dB1f8135f4C25B34De49AB0d42766",
          "topics": [
            "0xddf252ad1be2c89b69c2b068fc378daa952ba7f163c4a11628f55a4df523b3ef",
            "0x000000000000000000000000800480524107eded9b2d87ea835fec2614605ca5",
            "0x000000000000000000000000ce5485cfb26914c5dce00b9baf0580364dafc7a4"
          ],
          "data": "0x000000000000000000000000000000000000000000000000000000746a528800",
          "blockHash": "0xfedb181db6744e57665b46ea03750f0f17b1ac368e84c18bf59fa36d9e991484",
          "blockNumber": "0x6bdde2",
          "transactionHash": "0xc34d2b3f6aee6abd06b2a6b67458237e733e1b849a1ccbaf9367dbde87964e4e",
          "transactionIndex": "0x3",
          "logIndex": "0x4",
          "removed": false
        },
        {
          "address": "0xE2Bb56ee936fd6433DC0F6e7e3b8365C906AA057",
          "topics": [
            "0xdb80dd488acf86d17c747445b0eabb5d57c541d3bd7b6b87af987858e5066b2b",
            "0x000000000000000000000000ce5485cfb26914c5dce00b9baf0580364dafc7a4",
            "0x0594c1582459ea03f77deaf9eb7e3917d6994a03c13405ba42867f83d85f085d",
            "0x01b64b1b3b690b43b9b514fb81377518f4039cd3e4f4914d8a6bdf01d679fb19"
          ],
          "data": "0x0000000000000000000000000000000000000000000000000000000000000060000000000000000000000000000000000000000000000000000000000000285000000000000000000000000000000000000000000000000000005af3107a40000000000000000000000000000000000000000000000000000000000000000005000000000000000000000000ca14007eff0db1f8135f4c25b34de49ab0d42766000000000000000000000000800480524107eded9b2d87ea835fec2614605ca507c0ada524e79e572c4f705e6c677d2f8881aa78c7d3e312f623a4ad26f1f797000000000000000000000000000000000000000000000000000000746a5288000000000000000000000000000000000000000000000000000000000000000000",
          "blockHash": "0xfedb181db6744e57665b46ea03750f0f17b1ac368e84c18bf59fa36d9e991484",
          "blockNumber": "0x6bdde2",
          "transactionHash": "0xc34d2b3f6aee6abd06b2a6b67458237e733e1b849a1ccbaf9367dbde87964e4e",
          "transactionIndex": "0x3",
          "logIndex": "0x5",
          "removed": false
        },
        {
          "address": "0xcE5485Cfb26914C5dcE00B9BAF0580364daFC7a4",
          "topics": [
            "0x5f971bd00bf3ffbca8a6d72cdd4fd92cfd4f62636161921d1e5a64f0b64ccb6d",
            "0x000000000000000000000000800480524107eded9b2d87ea835fec2614605ca5",
            "0x000000000000000000000000ca14007eff0db1f8135f4c25b34de49ab0d42766",
            "0x07c0ada524e79e572c4f705e6c677d2f8881aa78c7d3e312f623a4ad26f1f797"
          ],
          "data": "0x000000000000000000000000000000000000000000000000000000746a528800000000000000000000000000000000000000000000000000000000000000285000000000000000000000000000000000000000000000000000005af3107a4000",
          "blockHash": "0xfedb181db6744e57665b46ea03750f0f17b1ac368e84c18bf59fa36d9e991484",
          "blockNumber": "0x6bdde2",
          "transactionHash": "0xc34d2b3f6aee6abd06b2a6b67458237e733e1b849a1ccbaf9367dbde87964e4e",
          "transactionIndex": "0x3",
          "logIndex": "0x6",
          "removed": false
        }
      ],
      "status": "0x1",
      "logsBloom": "0x00000000000000000220000000020000000000000000000000000000000000400000000000002000000000000000000000000000000004000000000000200000000000000000000000000008080000000000000000000040001000000000000000000000100000000000000000100000000000000000000000000014080008002000000000000000000000000400000000000000000200000000020000000010020000400000000000000020000000001000000000000020000000000000000000000002000000024010000000000000000000200000000000800000000000000010000000010000000000020084000000000000001000000000000000000000",
      "type": "0x2",
      "effectiveGasPrice": "0xe96f6d05"
    },
    {
      "transactionHash": "0xa88512123204a83312555e1fc33ba53bcad5f9f355c1b9307875c17f2b4d16f1",
      "transactionIndex": "0x4",
      "blockHash": "0xfedb181db6744e57665b46ea03750f0f17b1ac368e84c18bf59fa36d9e991484",
      "blockNumber": "0x6bdde2",
      "from": "0xDdb342ecc94236c29a5307d3757d0724D759453C",
      "to": "0xE2Bb56ee936fd6433DC0F6e7e3b8365C906AA057",
      "cumulativeGasUsed": "0x4a4d0",
      "gasUsed": "0xfa8a",
      "contractAddress": null,
      "logs": [
        {
          "address": "0xE2Bb56ee936fd6433DC0F6e7e3b8365C906AA057",
          "topics": [
            "0xdb80dd488acf86d17c747445b0eabb5d57c541d3bd7b6b87af987858e5066b2b",
            "0x000000000000000000000000ddb342ecc94236c29a5307d3757d0724d759453c",
            "0x07c0ada524e79e572c4f705e6c677d2f8881aa78c7d3e312f623a4ad26f1f797",
            "0x00f1149cade9d692862ad41df96b108aa2c20af34f640457e781d166c98dc6b0"
          ],
          "data": "0x0000000000000000000000000000000000000000000000000000000000000060000000000000000000000000000000000000000000000000000000000000285100000000000000000000000000000000000000000000000000005af3107a400000000000000000000000000000000000000000000000000000000000000000080000000000000000000000000000000000000000000000000000000000000002000000000000000000000000ddb342ecc94236c29a5307d3757d0724d759453c00000000000000000000000000000000000000000000000000000000000000000000000000000000000000000000000000000000000000000000000000000000000000000000000000000000000000000000000000000000000000000000000000000000000000000000000000000000000000000000000000000000000000000000000000000000000000000000000000000000000000000000000000000000000000000000000000000000000000000000000000000000000000746a528800",
          "blockHash": "0xfedb181db6744e57665b46ea03750f0f17b1ac368e84c18bf59fa36d9e991484",
          "blockNumber": "0x6bdde2",
          "transactionHash": "0xa88512123204a83312555e1fc33ba53bcad5f9f355c1b9307875c17f2b4d16f1",
          "transactionIndex": "0x4",
          "logIndex": "0x7",
          "removed": false
        }
      ],
      "status": "0x1",
      "logsBloom": "0x00400000000000000020000000020000000000000000000000000000000000000000000000002000000000000000000000000000000000000000000000000000000000000000000000000000000000000000000000000040001000000000000400000000100000010000000000000000400000000000000000000000480000000000000000000000000000000000000004000000000000000000000000000010000000000000000000000020000000000000000000000000000000000000000000000000000000000000000000000000000000000000000000000000000000000000000000000000000000000000000000000000000000000000000000000000",
      "type": "0x2",
      "effectiveGasPrice": "0xe96f6d05"
    }
  ],
  "libraries": [],
  "pending": [],
  "returns": {},
  "timestamp": 1731509947,
  "chain": 11155111,
  "multi": false,
  "commit": "a4bf47e"
}