{
  "transactions": [
    {
      "hash": "0xe1f9ece77b5135b6461c6ccbff58cca5bfca6fdf074620a3ff8e30b4b37f6b8e",
      "transactionType": "CALL",
      "contractName": null,
      "contractAddress": "0xca14007eff0db1f8135f4c25b34de49ab0d42766",
      "function": "approve(address,uint256)",
      "arguments": [
        "0x5438Cd7f958d6D4CaE2f7A7ca2006555A34c54c0",
        "115792089237316195423570985008687907853269984665640564039457584007913129639935"
      ],
      "transaction": {
        "from": "0x1b382a7b4496f14e0aaa2da1e1626da400426a03",
        "to": "0xca14007eff0db1f8135f4c25b34de49ab0d42766",
        "gas": "0x9398",
        "value": "0x0",
        "input": "0x095ea7b30000000000000000000000005438cd7f958d6d4cae2f7a7ca2006555a34c54c0ffffffffffffffffffffffffffffffffffffffffffffffffffffffffffffffff",
        "nonce": "0x111",
        "chainId": "0xaa36a7"
      },
      "additionalContracts": [],
      "isFixedGasLimit": false
    },
    {
      "hash": "0x8444b3e4defd1bce6f6e106d561ff70a0d78638d0c216ed60adb89d665804704",
      "transactionType": "CALL",
      "contractName": null,
      "contractAddress": "0x5438cd7f958d6d4cae2f7a7ca2006555a34c54c0",
      "function": "depositAndCreateOrder((address,uint256,uint256,uint128,uint128,uint128,uint128,uint256))",
      "arguments": [
        "(0x1B382A7b4496F14e0AAA2DA1E1626Da400426A03, 2009894490435840142178314390393166646092438090257831307886760648929397478285, 2366254414417873771392932940469309727793822550615514268240785277201753657472, 0, 1731359904, 1731359968, 500000, 669357205553508229622705110900730738715992177194231944211058289449787835132)"
      ],
      "transaction": {
        "from": "0x1b382a7b4496f14e0aaa2da1e1626da400426a03",
        "to": "0x5438cd7f958d6d4cae2f7a7ca2006555a34c54c0",
        "gas": "0x3ab3d",
        "value": "0x5af3107a4000",
        "input": "0x5ce510fa0000000000000000000000001b382a7b4496f14e0aaa2da1e1626da400426a0304718f5a0fc34cc1af16a1cdee98ffb20c31f5cd61d6ab07201858f4287c938d053b40a647cedfca6ca84f542a0fe36736031905a9639a7f19a3c1e66bfd5080000000000000000000000000000000000000000000000000000000000000000000000000000000000000000000000000000000000000000000000000673274a000000000000000000000000000000000000000000000000000000000673274e0000000000000000000000000000000000000000000000000000000000007a120017ad7bea372203c6e35fc692f63ee1537f6a5a2081865ba93291aa4592dc2fc",
        "nonce": "0x112",
        "chainId": "0xaa36a7"
      },
      "additionalContracts": [],
      "isFixedGasLimit": false
    },
    {
      "hash": "0x2ae2aecb4c6d3ece993eee8d36d8df3b811780deeb76ebecea02465388a2b6fe",
      "transactionType": "CALL",
      "contractName": null,
      "contractAddress": "0x5438cd7f958d6d4cae2f7a7ca2006555a34c54c0",
      "function": "_sendMessage(uint256,uint256,uint256[])",
      "arguments": [
        "669357205553508229622705110900730738715992177194231944211058289449787835132",
        "148648911813996339441237705416989480313666662291090082193117818992478592220",
        "[2, 0, 0, 0, 0, 0, 0, 0]"
      ],
      "transaction": {
        "from": "0x1b382a7b4496f14e0aaa2da1e1626da400426a03",
        "to": "0x5438cd7f958d6d4cae2f7a7ca2006555a34c54c0",
        "gas": "0x198a8",
        "value": "0x5af3107a4000",
        "input": "0x88f439ef017ad7bea372203c6e35fc692f63ee1537f6a5a2081865ba93291aa4592dc2fc005421de947699472df434466845d68528f221a52fce7ad2934c5dae2e1f1cdc0000000000000000000000000000000000000000000000000000000000000060000000000000000000000000000000000000000000000000000000000000000800000000000000000000000000000000000000000000000000000000000000020000000000000000000000000000000000000000000000000000000000000000000000000000000000000000000000000000000000000000000000000000000000000000000000000000000000000000000000000000000000000000000000000000000000000000000000000000000000000000000000000000000000000000000000000000000000000000000000000000000000000000000000000000000000000000000000000000000000000000000000000000000000000000000000000000000000000000000000000000000000000000000000000000000000000000",
        "nonce": "0x113",
        "chainId": "0xaa36a7"
      },
      "additionalContracts": [],
      "isFixedGasLimit": false
    }
  ],
  "receipts": [
    {
      "status": "0x1",
      "cumulativeGasUsed": "0xddd5f3",
      "logs": [
        {
          "address": "0xca14007eff0db1f8135f4c25b34de49ab0d42766",
          "topics": [
            "0x8c5be1e5ebec7d5bd14f71427d1e84f3dd0314c0f7b2291e5b200ac8c7c3b925",
            "0x0000000000000000000000001b382a7b4496f14e0aaa2da1e1626da400426a03",
            "0x0000000000000000000000005438cd7f958d6d4cae2f7a7ca2006555a34c54c0"
          ],
          "data": "0xffffffffffffffffffffffffffffffffffffffffffffffffffffffffffffffff",
          "blockHash": "0xa76ceaf259ce7ba86783ce738cc35a1f98cec64223c55320fb897b61a9c245c0",
          "blockNumber": "0x6bb143",
          "transactionHash": "0xe1f9ece77b5135b6461c6ccbff58cca5bfca6fdf074620a3ff8e30b4b37f6b8e",
          "transactionIndex": "0x4b",
          "logIndex": "0x73",
          "removed": false
        }
      ],
      "logsBloom": "0x00000000000000000000000000000000000000000000000000020000000000000000000000000000000000000000000000000000000000000000000000200000000000000000000000000000000000000000000000000000000000000000000000000000000000000000000000000000000000000010000020000000000000040000000000000000000000000000000000000000000000000000000000000000020000000000000000000000000000000000000000000000000000000000000000000000000000020000000000000000000000000000040000800000000000020010000000000000000000000000000000000000001000000000000000000000",
      "type": "0x2",
      "transactionHash": "0xe1f9ece77b5135b6461c6ccbff58cca5bfca6fdf074620a3ff8e30b4b37f6b8e",
      "transactionIndex": "0x4b",
      "blockHash": "0xa76ceaf259ce7ba86783ce738cc35a1f98cec64223c55320fb897b61a9c245c0",
      "blockNumber": "0x6bb143",
      "gasUsed": "0x6adc",
      "effectiveGasPrice": "0x1398ad6a",
      "blobGasUsed": "0x0",
      "from": "0x1b382a7b4496f14e0aaa2da1e1626da400426a03",
      "to": "0xca14007eff0db1f8135f4c25b34de49ab0d42766",
      "contractAddress": null
    },
    {
      "status": "0x1",
      "cumulativeGasUsed": "0xe1d128",
      "logs": [
        {
          "address": "0xca14007eff0db1f8135f4c25b34de49ab0d42766",
          "topics": [
            "0xddf252ad1be2c89b69c2b068fc378daa952ba7f163c4a11628f55a4df523b3ef",
            "0x0000000000000000000000001b382a7b4496f14e0aaa2da1e1626da400426a03",
            "0x0000000000000000000000005438cd7f958d6d4cae2f7a7ca2006555a34c54c0"
          ],
          "data": "0x000000000000000000000000000000000000000000000000000000000007a120",
          "blockHash": "0xa76ceaf259ce7ba86783ce738cc35a1f98cec64223c55320fb897b61a9c245c0",
          "blockNumber": "0x6bb143",
          "transactionHash": "0x8444b3e4defd1bce6f6e106d561ff70a0d78638d0c216ed60adb89d665804704",
          "transactionIndex": "0x4d",
          "logIndex": "0x75",
          "removed": false
        },
        {
          "address": "0xca14007eff0db1f8135f4c25b34de49ab0d42766",
          "topics": [
            "0x8c5be1e5ebec7d5bd14f71427d1e84f3dd0314c0f7b2291e5b200ac8c7c3b925",
            "0x0000000000000000000000005438cd7f958d6d4cae2f7a7ca2006555a34c54c0",
            "0x000000000000000000000000ce5485cfb26914c5dce00b9baf0580364dafc7a4"
          ],
          "data": "0x0000000000000000000000000000000000000000000000000000000000000000",
          "blockHash": "0xa76ceaf259ce7ba86783ce738cc35a1f98cec64223c55320fb897b61a9c245c0",
          "blockNumber": "0x6bb143",
          "transactionHash": "0x8444b3e4defd1bce6f6e106d561ff70a0d78638d0c216ed60adb89d665804704",
          "transactionIndex": "0x4d",
          "logIndex": "0x76",
          "removed": false
        },
        {
          "address": "0xca14007eff0db1f8135f4c25b34de49ab0d42766",
          "topics": [
            "0x8c5be1e5ebec7d5bd14f71427d1e84f3dd0314c0f7b2291e5b200ac8c7c3b925",
            "0x0000000000000000000000005438cd7f958d6d4cae2f7a7ca2006555a34c54c0",
            "0x000000000000000000000000ce5485cfb26914c5dce00b9baf0580364dafc7a4"
          ],
          "data": "0x000000000000000000000000000000000000000000000000000000000007a120",
          "blockHash": "0xa76ceaf259ce7ba86783ce738cc35a1f98cec64223c55320fb897b61a9c245c0",
          "blockNumber": "0x6bb143",
          "transactionHash": "0x8444b3e4defd1bce6f6e106d561ff70a0d78638d0c216ed60adb89d665804704",
          "transactionIndex": "0x4d",
          "logIndex": "0x77",
          "removed": false
        },
        {
          "address": "0xca14007eff0db1f8135f4c25b34de49ab0d42766",
          "topics": [
            "0x8c5be1e5ebec7d5bd14f71427d1e84f3dd0314c0f7b2291e5b200ac8c7c3b925",
            "0x0000000000000000000000005438cd7f958d6d4cae2f7a7ca2006555a34c54c0",
            "0x000000000000000000000000ce5485cfb26914c5dce00b9baf0580364dafc7a4"
          ],
          "data": "0x0000000000000000000000000000000000000000000000000000000000000000",
          "blockHash": "0xa76ceaf259ce7ba86783ce738cc35a1f98cec64223c55320fb897b61a9c245c0",
          "blockNumber": "0x6bb143",
          "transactionHash": "0x8444b3e4defd1bce6f6e106d561ff70a0d78638d0c216ed60adb89d665804704",
          "transactionIndex": "0x4d",
          "logIndex": "0x78",
          "removed": false
        },
        {
          "address": "0xca14007eff0db1f8135f4c25b34de49ab0d42766",
          "topics": [
            "0xddf252ad1be2c89b69c2b068fc378daa952ba7f163c4a11628f55a4df523b3ef",
            "0x0000000000000000000000005438cd7f958d6d4cae2f7a7ca2006555a34c54c0",
            "0x000000000000000000000000ce5485cfb26914c5dce00b9baf0580364dafc7a4"
          ],
          "data": "0x000000000000000000000000000000000000000000000000000000000007a120",
          "blockHash": "0xa76ceaf259ce7ba86783ce738cc35a1f98cec64223c55320fb897b61a9c245c0",
          "blockNumber": "0x6bb143",
          "transactionHash": "0x8444b3e4defd1bce6f6e106d561ff70a0d78638d0c216ed60adb89d665804704",
          "transactionIndex": "0x4d",
          "logIndex": "0x79",
          "removed": false
        },
        {
          "address": "0xe2bb56ee936fd6433dc0f6e7e3b8365c906aa057",
          "topics": [
            "0xdb80dd488acf86d17c747445b0eabb5d57c541d3bd7b6b87af987858e5066b2b",
            "0x000000000000000000000000ce5485cfb26914c5dce00b9baf0580364dafc7a4",
            "0x0594c1582459ea03f77deaf9eb7e3917d6994a03c13405ba42867f83d85f085d",
            "0x008bce41827dd5484d80312a2e43bc42a896e3fcf75bf84c2b49339168dfa00a"
          ],
          "data": "0x000000000000000000000000000000000000000000000000000000000000006000000000000000000000000000000000000000000000000000000000000027ec00000000000000000000000000000000000000000000000000005af3107a4000000000000000000000000000000000000000000000000000000000000000000d000000000000000000000000ca14007eff0db1f8135f4c25b34de49ab0d427660000000000000000000000005438cd7f958d6d4cae2f7a7ca2006555a34c54c0017ad7bea372203c6e35fc692f63ee1537f6a5a2081865ba93291aa4592dc2fc000000000000000000000000000000000000000000000000000000000007a1200000000000000000000000000000000000000000000000000000000000000000000000000000000000000000000000000000000000000000000000000000000700000000000000000000000000000000000000000000000000000000000000000000000000000000000000001b382a7b4496f14e0aaa2da1e1626da400426a0304718f5a0fc34cc1af16a1cdee98ffb20c31f5cd61d6ab07201858f4287c938d053b40a647cedfca6ca84f542a0fe36736031905a9639a7f19a3c1e66bfd5080000000000000000000000000000000000000000000000000000000000000000000000000000000000000000000000000000000000000000000000000673274a000000000000000000000000000000000000000000000000000000000673274e0",
          "blockHash": "0xa76ceaf259ce7ba86783ce738cc35a1f98cec64223c55320fb897b61a9c245c0",
          "blockNumber": "0x6bb143",
          "transactionHash": "0x8444b3e4defd1bce6f6e106d561ff70a0d78638d0c216ed60adb89d665804704",
          "transactionIndex": "0x4d",
          "logIndex": "0x7a",
          "removed": false
        },
        {
          "address": "0xce5485cfb26914c5dce00b9baf0580364dafc7a4",
          "topics": [
            "0x2203a49c69f1a46c1164f5e4a30643dd77b7c59c0ff9bc433256048365c247f1",
            "0x0000000000000000000000005438cd7f958d6d4cae2f7a7ca2006555a34c54c0",
            "0x000000000000000000000000ca14007eff0db1f8135f4c25b34de49ab0d42766",
            "0x017ad7bea372203c6e35fc692f63ee1537f6a5a2081865ba93291aa4592dc2fc"
          ],
          "data": "0x000000000000000000000000000000000000000000000000000000000007a120000000000000000000000000000000000000000000000000000000000000008000000000000000000000000000000000000000000000000000000000000027ec00000000000000000000000000000000000000000000000000005af3107a4000000000000000000000000000000000000000000000000000000000000000000700000000000000000000000000000000000000000000000000000000000000000000000000000000000000001b382a7b4496f14e0aaa2da1e1626da400426a0304718f5a0fc34cc1af16a1cdee98ffb20c31f5cd61d6ab07201858f4287c938d053b40a647cedfca6ca84f542a0fe36736031905a9639a7f19a3c1e66bfd5080000000000000000000000000000000000000000000000000000000000000000000000000000000000000000000000000000000000000000000000000673274a000000000000000000000000000000000000000000000000000000000673274e0",
          "blockHash": "0xa76ceaf259ce7ba86783ce738cc35a1f98cec64223c55320fb897b61a9c245c0",
          "blockNumber": "0x6bb143",
          "transactionHash": "0x8444b3e4defd1bce6f6e106d561ff70a0d78638d0c216ed60adb89d665804704",
          "transactionIndex": "0x4d",
          "logIndex": "0x7b",
          "removed": false
        },
        {
          "address": "0x5438cd7f958d6d4cae2f7a7ca2006555a34c54c0",
          "topics": [
            "0xaf43445f7721522b7a3864ed3de53d7e2e658bfa1eeffa18e1e229be68ce2545",
            "0x0000000000000000000000001b382a7b4496f14e0aaa2da1e1626da400426a03",
            "0x017ad7bea372203c6e35fc692f63ee1537f6a5a2081865ba93291aa4592dc2fc"
          ],
          "data": "0x000000000000000000000000000000000000000000000000000000000007a1200000000000000000000000000000000000000000000000000000000000000001",
          "blockHash": "0xa76ceaf259ce7ba86783ce738cc35a1f98cec64223c55320fb897b61a9c245c0",
          "blockNumber": "0x6bb143",
          "transactionHash": "0x8444b3e4defd1bce6f6e106d561ff70a0d78638d0c216ed60adb89d665804704",
          "transactionIndex": "0x4d",
          "logIndex": "0x7c",
          "removed": false
        }
      ],
      "logsBloom": "0x00000200000000000000000000020000000000000000000000020040000000000000000000000040000000000000000000000000000004000000020000200000000000000000000000000008080000000000000000000040001000000000000200000000100000000000000000000800000000000010000020000010200008042000000000000000000000020000000000008000000200000000000000000010020000800000000000000020000000021000008000000000000000000000000000800002000000024011000000000000040000200000040000800000000000020010000000010000000000020004000000000000001000000000000000000000",
      "type": "0x2",
      "transactionHash": "0x8444b3e4defd1bce6f6e106d561ff70a0d78638d0c216ed60adb89d665804704",
      "transactionIndex": "0x4d",
      "blockHash": "0xa76ceaf259ce7ba86783ce738cc35a1f98cec64223c55320fb897b61a9c245c0",
      "blockNumber": "0x6bb143",
      "gasUsed": "0x2a7ff",
      "effectiveGasPrice": "0x1398ad6a",
      "blobGasUsed": "0x0",
      "from": "0x1b382a7b4496f14e0aaa2da1e1626da400426a03",
      "to": "0x5438cd7f958d6d4cae2f7a7ca2006555a34c54c0",
      "contractAddress": null
    },
    {
      "status": "0x1",
      "cumulativeGasUsed": "0xe2f905",
      "logs": [
        {
          "address": "0xe2bb56ee936fd6433dc0f6e7e3b8365c906aa057",
          "topics": [
            "0xdb80dd488acf86d17c747445b0eabb5d57c541d3bd7b6b87af987858e5066b2b",
            "0x0000000000000000000000005438cd7f958d6d4cae2f7a7ca2006555a34c54c0",
            "0x017ad7bea372203c6e35fc692f63ee1537f6a5a2081865ba93291aa4592dc2fc",
            "0x005421de947699472df434466845d68528f221a52fce7ad2934c5dae2e1f1cdc"
          ],
          "data": "0x000000000000000000000000000000000000000000000000000000000000006000000000000000000000000000000000000000000000000000000000000027ed00000000000000000000000000000000000000000000000000005af3107a4000000000000000000000000000000000000000000000000000000000000000000800000000000000000000000000000000000000000000000000000000000000020000000000000000000000000000000000000000000000000000000000000000000000000000000000000000000000000000000000000000000000000000000000000000000000000000000000000000000000000000000000000000000000000000000000000000000000000000000000000000000000000000000000000000000000000000000000000000000000000000000000000000000000000000000000000000000000000000000000000000000000000000000000000000000000000000000000000000000000000000000000000000000000000000000000000000",
          "blockHash": "0xa76ceaf259ce7ba86783ce738cc35a1f98cec64223c55320fb897b61a9c245c0",
          "blockNumber": "0x6bb143",
          "transactionHash": "0x2ae2aecb4c6d3ece993eee8d36d8df3b811780deeb76ebecea02465388a2b6fe",
          "transactionIndex": "0x4e",
          "logIndex": "0x7d",
          "removed": false
        }
      ],
      "logsBloom": "0x00000000000000000000000000020000000000000000000000020000000001000000000000000000000000000000000000000000000000000000000000000000000000000000000000000000000000000000000000000040001000000000000000000000100000000000000000020800000000000000000000000000200000000000000000000000000040000000000000000000000000000000000000000010000000000000000000000020000000000000000000000000000000000000000000000000000000000000000000000000040000000000040000000000000000020000000000000000000000000000000000000000000000000000000000000000",
      "type": "0x2",
      "transactionHash": "0x2ae2aecb4c6d3ece993eee8d36d8df3b811780deeb76ebecea02465388a2b6fe",
      "transactionIndex": "0x4e",
      "blockHash": "0xa76ceaf259ce7ba86783ce738cc35a1f98cec64223c55320fb897b61a9c245c0",
      "blockNumber": "0x6bb143",
      "gasUsed": "0x127dd",
      "effectiveGasPrice": "0x1398ad6a",
      "blobGasUsed": "0x0",
      "from": "0x1b382a7b4496f14e0aaa2da1e1626da400426a03",
      "to": "0x5438cd7f958d6d4cae2f7a7ca2006555a34c54c0",
      "contractAddress": null
    }
  ],
  "libraries": [],
  "pending": [],
  "returns": {},
  "timestamp": 1731359931,
  "chain": 11155111,
  "commit": "a5302c4"
}