{
  "transactions": [
    {
      "hash": "0x44603a5a644433625bc5906cbdf2606135b110235467243bc80585cbf8af22d6",
      "transactionType": "CALL",
      "contractName": null,
      "contractAddress": "0xca14007eff0db1f8135f4c25b34de49ab0d42766",
      "function": "approve(address,uint256)",
      "arguments": [
        "0x4b220A6B4f695db8CEdC121ACFC2484fCaaB8b45",
        "115792089237316195423570985008687907853269984665640564039457584007913129639935"
      ],
      "transaction": {
        "from": "0x1b382a7b4496f14e0aaa2da1e1626da400426a03",
        "to": "0xca14007eff0db1f8135f4c25b34de49ab0d42766",
        "gas": "0x93a9",
        "value": "0x0",
        "input": "0x095ea7b30000000000000000000000004b220a6b4f695db8cedc121acfc2484fcaab8b45ffffffffffffffffffffffffffffffffffffffffffffffffffffffffffffffff",
        "nonce": "0x106",
        "chainId": "0xaa36a7"
      },
      "additionalContracts": [],
      "isFixedGasLimit": false
    },
    {
      "hash": "0x044e829795b859456105439719acea7e5a7f010af0c23da7076fb78bc951defd",
      "transactionType": "CALL",
      "contractName": null,
      "contractAddress": "0x4b220a6b4f695db8cedc121acfc2484fcaab8b45",
      "function": "_sendMessage(uint256,uint256,uint256[])",
      "arguments": [
        "1198744612080150266867724772749533856342102238504638307692048955575403606030",
        "148648911813996339441237705416989480313666662291090082193117818992478592220",
        "[2]"
      ],
      "transaction": {
        "from": "0x1b382a7b4496f14e0aaa2da1e1626da400426a03",
        "to": "0x4b220a6b4f695db8cedc121acfc2484fcaab8b45",
        "gas": "0x182bd",
        "value": "0x38d7ea4c68000",
        "input": "0x88f439ef02a67724e1df2248b9cb493376862a3e8bd71b817ba29dba944f640413e4f00e005421de947699472df434466845d68528f221a52fce7ad2934c5dae2e1f1cdc000000000000000000000000000000000000000000000000000000000000006000000000000000000000000000000000000000000000000000000000000000010000000000000000000000000000000000000000000000000000000000000002",
        "nonce": "0x107",
        "chainId": "0xaa36a7"
      },
      "additionalContracts": [],
      "isFixedGasLimit": false
    }
  ],
  "receipts": [
    {
      "status": "0x1",
      "cumulativeGasUsed": "0x347b5a",
      "logs": [
        {
          "address": "0xca14007eff0db1f8135f4c25b34de49ab0d42766",
          "topics": [
            "0x8c5be1e5ebec7d5bd14f71427d1e84f3dd0314c0f7b2291e5b200ac8c7c3b925",
            "0x0000000000000000000000001b382a7b4496f14e0aaa2da1e1626da400426a03",
            "0x0000000000000000000000004b220a6b4f695db8cedc121acfc2484fcaab8b45"
          ],
          "data": "0xffffffffffffffffffffffffffffffffffffffffffffffffffffffffffffffff",
          "blockHash": "0x3585d7bc2e09afd60cc07d03a6967b7ff2b731826db61ba1bd4cb0c660a4557e",
          "blockNumber": "0x6b62c4",
          "transactionHash": "0x44603a5a644433625bc5906cbdf2606135b110235467243bc80585cbf8af22d6",
          "transactionIndex": "0x2a",
          "logIndex": "0x46",
          "removed": false
        }
      ],
      "logsBloom": "0x00000000000000000000000000000000000000000000000000000000000000000000000000000000000000000000000000000000000000000000000000200000000000000000000000000000000000000000000000000000000000000000000000000000000000000000000000000000000400000010000020000000000000040000000000000000000000000000000000000000000000000000000000000000020000000000000000000000000000000000000000000000000000000000000000000000400040020000000000000000000000000000000000800000000000000010000000000000000000000000000000000000001000000000000000000000",
      "type": "0x2",
      "transactionHash": "0x44603a5a644433625bc5906cbdf2606135b110235467243bc80585cbf8af22d6",
      "transactionIndex": "0x2a",
      "blockHash": "0x3585d7bc2e09afd60cc07d03a6967b7ff2b731826db61ba1bd4cb0c660a4557e",
      "blockNumber": "0x6b62c4",
      "gasUsed": "0x6ae8",
      "effectiveGasPrice": "0x56a93378f",
      "blobGasUsed": "0x0",
      "from": "0x1b382a7b4496f14e0aaa2da1e1626da400426a03",
      "to": "0xca14007eff0db1f8135f4c25b34de49ab0d42766",
      "contractAddress": null
    },
    {
      "status": "0x1",
      "cumulativeGasUsed": "0x359359",
      "logs": [
        {
          "address": "0xe2bb56ee936fd6433dc0f6e7e3b8365c906aa057",
          "topics": [
            "0xdb80dd488acf86d17c747445b0eabb5d57c541d3bd7b6b87af987858e5066b2b",
            "0x0000000000000000000000004b220a6b4f695db8cedc121acfc2484fcaab8b45",
            "0x02a67724e1df2248b9cb493376862a3e8bd71b817ba29dba944f640413e4f00e",
            "0x005421de947699472df434466845d68528f221a52fce7ad2934c5dae2e1f1cdc"
          ],
          "data": "0x000000000000000000000000000000000000000000000000000000000000006000000000000000000000000000000000000000000000000000000000000027a300000000000000000000000000000000000000000000000000038d7ea4c6800000000000000000000000000000000000000000000000000000000000000000010000000000000000000000000000000000000000000000000000000000000002",
          "blockHash": "0x3585d7bc2e09afd60cc07d03a6967b7ff2b731826db61ba1bd4cb0c660a4557e",
          "blockNumber": "0x6b62c4",
          "transactionHash": "0x044e829795b859456105439719acea7e5a7f010af0c23da7076fb78bc951defd",
          "transactionIndex": "0x2b",
          "logIndex": "0x47",
          "removed": false
        }
      ],
      "logsBloom": "0x000000000000000000000000000200000000000000000000000000002000010000000000000000000000000000000000000000000000000000000000000000000000000000000000000000000000000000000000000000400010000000000000000000001000000000000000000a0000000400008000000000000000000000000000000000000000000040000000000000000000000000000000000000000010000000000000000000000020000000000000000000000000000000000000000000000000400040000000000000000000000000000000000000000000000000000000000000000000000000000000000000000000000000000000000000000000",
      "type": "0x2",
      "transactionHash": "0x044e829795b859456105439719acea7e5a7f010af0c23da7076fb78bc951defd",
      "transactionIndex": "0x2b",
      "blockHash": "0x3585d7bc2e09afd60cc07d03a6967b7ff2b731826db61ba1bd4cb0c660a4557e",
      "blockNumber": "0x6b62c4",
      "gasUsed": "0x117ff",
      "effectiveGasPrice": "0x56a93378f",
      "blobGasUsed": "0x0",
      "from": "0x1b382a7b4496f14e0aaa2da1e1626da400426a03",
      "to": "0x4b220a6b4f695db8cedc121acfc2484fcaab8b45",
      "contractAddress": null
    }
  ],
  "libraries": [],
  "pending": [],
  "returns": {},
  "timestamp": 1731086653,
  "chain": 11155111,
  "commit": "0e52493"
}