{
  "transactions": [
    {
      "hash": "0x4cba7b1546921e453b5bb4345f51f1b1684eff077f6cc93389b258cb4d8ce614",
      "transactionType": "CALL",
      "contractName": "StarkNetToken",
      "contractAddress": "0xCa14007Eff0dB1f8135f4C25B34De49AB0d42766",
      "function": "approve(address,uint256)",
      "arguments": [
        "0xDd2a2bC41f947cdCd3F173fD03CD15b5a66Cd6b5",
        "115792089237316195423570985008687907853269984665640564039457584007913129639935"
      ],
      "transaction": {
        "type": "0x02",
        "from": "0xddb342ecc94236c29a5307d3757d0724d759453c",
        "to": "0xca14007eff0db1f8135f4c25b34de49ab0d42766",
        "gas": "0x93a9",
        "value": "0x0",
        "data": "0x095ea7b3000000000000000000000000dd2a2bc41f947cdcd3f173fd03cd15b5a66cd6b5ffffffffffffffffffffffffffffffffffffffffffffffffffffffffffffffff",
        "nonce": "0x1b9",
        "accessList": []
      },
      "additionalContracts": [],
      "isFixedGasLimit": false
    },
    {
      "hash": "0x4c3f7ae4e03894eec762db0f53b2dbc4aac3bd1e951dcb0179f1c8b1a3b8307f",
      "transactionType": "CALL",
      "contractName": "StarkNetToken",
      "contractAddress": "0xCa14007Eff0dB1f8135f4C25B34De49AB0d42766",
      "function": "transfer(address,uint256)",
      "arguments": [
        "0xDd2a2bC41f947cdCd3F173fD03CD15b5a66Cd6b5",
        "1000000000000000"
      ],
      "transaction": {
        "type": "0x02",
        "from": "0xddb342ecc94236c29a5307d3757d0724d759453c",
        "to": "0xca14007eff0db1f8135f4c25b34de49ab0d42766",
        "gas": "0xe427",
        "value": "0x0",
        "data": "0xa9059cbb000000000000000000000000dd2a2bc41f947cdcd3f173fd03cd15b5a66cd6b500000000000000000000000000000000000000000000000000038d7ea4c68000",
        "nonce": "0x1ba",
        "accessList": []
      },
      "additionalContracts": [],
      "isFixedGasLimit": false
    },
    {
      "hash": null,
      "transactionType": "CALL",
      "contractName": "L1TWAMMBridge",
      "contractAddress": "0xDd2a2bC41f947cdCd3F173fD03CD15b5a66Cd6b5",
      "function": "depositAndCreateOrder((address,address,address,uint128,uint128,uint128,uint128,uint256))",
      "arguments": [
        "(0xDdb342ecc94236c29a5307d3757d0724D759453C, 0xCa14007Eff0dB1f8135f4C25B34De49AB0d42766, 0xCa14007Eff0dB1f8135f4C25B34De49AB0d42766, 10000000000000000, 1730875456, 1730875520, 1000000000000000, 1647970598847617027890947728899760175249314077903923387400359173436953475181)"
      ],
      "transaction": {
        "type": "0x02",
        "from": "0xddb342ecc94236c29a5307d3757d0724d759453c",
        "to": "0xdd2a2bc41f947cdcd3f173fd03cd15b5a66cd6b5",
        "gas": "0x3e2a4",
        "value": "0x2386f26fc10000",
        "data": "0x9d251505000000000000000000000000ddb342ecc94236c29a5307d3757d0724d759453c000000000000000000000000ca14007eff0db1f8135f4c25b34de49ab0d42766000000000000000000000000ca14007eff0db1f8135f4c25b34de49ab0d42766000000000000000000000000000000000000000000000000002386f26fc1000000000000000000000000000000000000000000000000000000000000672b104000000000000000000000000000000000000000000000000000000000672b108000000000000000000000000000000000000000000000000000038d7ea4c6800003a4b7e2d060bd8eb48e2db10f16c1303b131c266cc928902c3a3a8ead7e386d",
        "nonce": "0x1bb",
        "accessList": []
      },
      "additionalContracts": [],
      "isFixedGasLimit": false
    }
  ],
  "receipts": [],
  "libraries": [],
  "pending": [
    "0x4cba7b1546921e453b5bb4345f51f1b1684eff077f6cc93389b258cb4d8ce614",
    "0x4c3f7ae4e03894eec762db0f53b2dbc4aac3bd1e951dcb0179f1c8b1a3b8307f"
  ],
  "returns": {},
  "timestamp": 1730875504,
  "chain": 11155111,
  "multi": false,
  "commit": "71ba860"
}