{
  "transactions": [
    {
      "hash": "0x84607001bcc48b0f3d22dcbae38810b73d2424dfac9882472fdebb61ca8c8545",
      "transactionType": "CALL",
      "contractName": "StarkNetToken",
      "contractAddress": "0xCa14007Eff0dB1f8135f4C25B34De49AB0d42766",
      "function": "approve(address,uint256)",
      "arguments": [
        "0xa37Cb2cD03619597Bca95D8DCbcCcb642e526756",
        "115792089237316195423570985008687907853269984665640564039457584007913129639935"
      ],
      "transaction": {
        "type": "0x02",
        "from": "0xddb342ecc94236c29a5307d3757d0724d759453c",
        "to": "0xca14007eff0db1f8135f4c25b34de49ab0d42766",
        "gas": "0x93a9",
        "value": "0x0",
        "data": "0x095ea7b3000000000000000000000000a37cb2cd03619597bca95d8dcbcccb642e526756ffffffffffffffffffffffffffffffffffffffffffffffffffffffffffffffff",
        "nonce": "0x25f",
        "accessList": []
      },
      "additionalContracts": [],
      "isFixedGasLimit": false
    },
    {
      "hash": "0x199054ee336950a4d16250a722aac56dec204699a9b06c66857da969190335a4",
      "transactionType": "CALL",
      "contractName": "L1TWAMMBridge",
      "contractAddress": "0xa37Cb2cD03619597Bca95D8DCbcCcb642e526756",
      "function": "_sendMessage(uint256,uint256,uint256[])",
      "arguments": [
        "1754425528998404332833579752982178953523781828291666396770948545224656187989",
        "425952401605428413817582304755919420533935873840436977667370850915372091056",
        "[2, 0, 0, 0, 0, 0, 0, 0]"
      ],
      "transaction": {
        "type": "0x02",
        "from": "0xddb342ecc94236c29a5307d3757d0724d759453c",
        "to": "0xa37cb2cd03619597bca95d8dcbcccb642e526756",
        "gas": "0x1987d",
        "value": "0x5af3107a4000",
        "data": "0x88f439ef03e0f83ba17eac9112e452a72493e4abc71f4e749fa376278e16a6169d4e725500f1149cade9d692862ad41df96b108aa2c20af34f640457e781d166c98dc6b00000000000000000000000000000000000000000000000000000000000000060000000000000000000000000000000000000000000000000000000000000000800000000000000000000000000000000000000000000000000000000000000020000000000000000000000000000000000000000000000000000000000000000000000000000000000000000000000000000000000000000000000000000000000000000000000000000000000000000000000000000000000000000000000000000000000000000000000000000000000000000000000000000000000000000000000000000000000000000000000000000000000000000000000000000000000000000000000000000000000000000000000000000000000000000000000000000000000000000000000000000000000000000000000000000000000000000",
        "nonce": "0x260",
        "accessList": []
      },
      "additionalContracts": [],
      "isFixedGasLimit": false
    }
  ],
  "receipts": [
    {
      "transactionHash": "0x84607001bcc48b0f3d22dcbae38810b73d2424dfac9882472fdebb61ca8c8545",
      "transactionIndex": "0x0",
      "blockHash": "0xa291d65d34c38a824782ce6c56379b263dddb6ec5508dd1726541a0834422a8d",
      "blockNumber": "0x6b6b8f",
      "from": "0xDdb342ecc94236c29a5307d3757d0724D759453C",
      "to": "0xCa14007Eff0dB1f8135f4C25B34De49AB0d42766",
      "cumulativeGasUsed": "0x6ae8",
      "gasUsed": "0x6ae8",
      "contractAddress": null,
      "logs": [
        {
          "address": "0xCa14007Eff0dB1f8135f4C25B34De49AB0d42766",
          "topics": [
            "0x8c5be1e5ebec7d5bd14f71427d1e84f3dd0314c0f7b2291e5b200ac8c7c3b925",
            "0x000000000000000000000000ddb342ecc94236c29a5307d3757d0724d759453c",
            "0x000000000000000000000000a37cb2cd03619597bca95d8dcbcccb642e526756"
          ],
          "data": "0xffffffffffffffffffffffffffffffffffffffffffffffffffffffffffffffff",
          "blockHash": "0xa291d65d34c38a824782ce6c56379b263dddb6ec5508dd1726541a0834422a8d",
          "blockNumber": "0x6b6b8f",
          "transactionHash": "0x84607001bcc48b0f3d22dcbae38810b73d2424dfac9882472fdebb61ca8c8545",
          "transactionIndex": "0x0",
          "logIndex": "0x0",
          "removed": false
        }
      ],
      "status": "0x1",
      "logsBloom": "0x00000000000000002000000000000000000000000000000000000000000000000000000000000000000000000000000000000000000000000000000000200100000000000000000000000000000000000000000000000000000000000000000400000000000000000000000000000000400000000020000000000000400000000000000000000000000000000000000000000000000000000000000000000000020000000000000000000000000000000000000000000000000000000000000000000000000000020000000000000000000000000000000000800000000000000010000000000000000000000000000000000000001000000000000000000000",
      "type": "0x2",
      "effectiveGasPrice": "0x11df29d4a"
    },
    {
      "transactionHash": "0x199054ee336950a4d16250a722aac56dec204699a9b06c66857da969190335a4",
      "transactionIndex": "0x1",
      "blockHash": "0xa291d65d34c38a824782ce6c56379b263dddb6ec5508dd1726541a0834422a8d",
      "blockNumber": "0x6b6b8f",
      "from": "0xDdb342ecc94236c29a5307d3757d0724D759453C",
      "to": "0xa37Cb2cD03619597Bca95D8DCbcCcb642e526756",
      "cumulativeGasUsed": "0x192a6",
      "gasUsed": "0x127be",
      "contractAddress": null,
      "logs": [
        {
          "address": "0xE2Bb56ee936fd6433DC0F6e7e3b8365C906AA057",
          "topics": [
            "0xdb80dd488acf86d17c747445b0eabb5d57c541d3bd7b6b87af987858e5066b2b",
            "0x000000000000000000000000a37cb2cd03619597bca95d8dcbcccb642e526756",
            "0x03e0f83ba17eac9112e452a72493e4abc71f4e749fa376278e16a6169d4e7255",
            "0x00f1149cade9d692862ad41df96b108aa2c20af34f640457e781d166c98dc6b0"
          ],
          "data": "0x000000000000000000000000000000000000000000000000000000000000006000000000000000000000000000000000000000000000000000000000000027af00000000000000000000000000000000000000000000000000005af3107a4000000000000000000000000000000000000000000000000000000000000000000800000000000000000000000000000000000000000000000000000000000000020000000000000000000000000000000000000000000000000000000000000000000000000000000000000000000000000000000000000000000000000000000000000000000000000000000000000000000000000000000000000000000000000000000000000000000000000000000000000000000000000000000000000000000000000000000000000000000000000000000000000000000000000000000000000000000000000000000000000000000000000000000000000000000000000000000000000000000000000000000000000000000000000000000000000000",
          "blockHash": "0xa291d65d34c38a824782ce6c56379b263dddb6ec5508dd1726541a0834422a8d",
          "blockNumber": "0x6b6b8f",
          "transactionHash": "0x199054ee336950a4d16250a722aac56dec204699a9b06c66857da969190335a4",
          "transactionIndex": "0x1",
          "logIndex": "0x1",
          "removed": false
        }
      ],
      "status": "0x1",
      "logsBloom": "0x20400000000000002000000000020000000000000000000000000000000000000000000000000000000000000000000000000000000000000000000000000100000000000000000000000000000000000000000000000040001000000000000000000000100000010000000000000000000000800020000000000000000000000000001000000000000000000000000004000000000000000000000000000010000000000000000000000020000000000000000000000000000000000000000000000000000000000000000000000000000000000000000000000000000000000000000000000000000000000000000000000000000000000000000000000000",
      "type": "0x2",
      "effectiveGasPrice": "0x11df29d4a"
    }
  ],
  "libraries": [],
  "pending": [],
  "returns": {},
  "timestamp": 1731119068,
  "chain": 11155111,
  "multi": false,
  "commit": "75c82f5"
}