{
  "transactions": [
    {
      "hash": "0x4103047fdf21906d6c84b72782c19bfb26a71cff2c2f11a1e59b693fe330e51d",
      "transactionType": "CALL",
      "contractName": null,
      "contractAddress": "0xca14007eff0db1f8135f4c25b34de49ab0d42766",
      "function": "approve(address,uint256)",
      "arguments": [
        "0x21e0b6863F74642fc7764Aa1A394079E388a7b53",
        "115792089237316195423570985008687907853269984665640564039457584007913129639935"
      ],
      "transaction": {
        "from": "0xddb342ecc94236c29a5307d3757d0724d759453c",
        "to": "0xca14007eff0db1f8135f4c25b34de49ab0d42766",
        "gas": "0x93a9",
        "value": "0x0",
        "input": "0x095ea7b300000000000000000000000021e0b6863f74642fc7764aa1a394079e388a7b53ffffffffffffffffffffffffffffffffffffffffffffffffffffffffffffffff",
        "nonce": "0x48c",
        "chainId": "0xaa36a7"
      },
      "additionalContracts": [],
      "isFixedGasLimit": false
    },
    {
      "hash": "0x0d435d7f7fa060cd6702d0bc7911eef2b9e4f60511b1ec08f064fb793c0a3a96",
      "transactionType": "CALL",
      "contractName": null,
      "contractAddress": "0x21e0b6863f74642fc7764aa1a394079e388a7b53",
      "function": "initiateWithdrawal(address,address,uint64)",
      "arguments": [
        "0xDdb342ecc94236c29a5307d3757d0724D759453C",
        "0x1c7D4B196Cb0C7B01d743Fbc6116a902379C7238",
        "482"
      ],
      "transaction": {
        "from": "0xddb342ecc94236c29a5307d3757d0724d759453c",
        "to": "0x21e0b6863f74642fc7764aa1a394079e388a7b53",
        "gas": "0x19c5e",
        "value": "0x1c6bf52634000",
        "input": "0x9b4085f6000000000000000000000000ddb342ecc94236c29a5307d3757d0724d759453c0000000000000000000000001c7d4b196cb0c7b01d743fbc6116a902379c723800000000000000000000000000000000000000000000000000000000000001e2",
        "nonce": "0x48d",
        "chainId": "0xaa36a7"
      },
      "additionalContracts": [],
      "isFixedGasLimit": false
    },
    {
      "hash": null,
      "transactionType": "CALL",
      "contractName": null,
      "contractAddress": "0x86dc0b32a5045ffa48d9a60b7e7ca32f11facd7b",
      "function": "withdraw(address,uint256,address)",
      "arguments": [
        "0x1c7D4B196Cb0C7B01d743Fbc6116a902379C7238",
        "1",
        "0xDdb342ecc94236c29a5307d3757d0724D759453C"
      ],
      "transaction": {
        "from": "0xddb342ecc94236c29a5307d3757d0724d759453c",
        "to": "0x86dc0b32a5045ffa48d9a60b7e7ca32f11facd7b",
        "gas": "0x1df9e",
        "value": "0x0",
        "input": "0x69328dec0000000000000000000000001c7d4b196cb0c7b01d743fbc6116a902379c72380000000000000000000000000000000000000000000000000000000000000001000000000000000000000000ddb342ecc94236c29a5307d3757d0724d759453c",
        "nonce": "0x48e",
        "chainId": "0xaa36a7"
      },
      "additionalContracts": [],
      "isFixedGasLimit": false
    }
  ],
  "receipts": [],
  "libraries": [],
  "pending": [
    "0x4103047fdf21906d6c84b72782c19bfb26a71cff2c2f11a1e59b693fe330e51d",
    "0x0d435d7f7fa060cd6702d0bc7911eef2b9e4f60511b1ec08f064fb793c0a3a96"
  ],
  "returns": {},
  "timestamp": 1736527827,
  "chain": 11155111,
  "commit": "81b7af0"
}