{
  "transactions": [
    {
      "hash": "0x09e66e85c952d6cb108d0155d8bc10a89269592d8611d2ee42b1eda2e493b7b6",
      "transactionType": "CALL",
      "contractName": null,
      "contractAddress": "0x8c3f4901dfaf00f43b11554d96db04fae340479e",
      "function": "setL2EndpointAddress(uint256)",
      "arguments": [
        "61864690213245826041231292624890891366956010168219831134322117045840250266"
      ],
      "transaction": {
        "from": "0xddb342ecc94236c29a5307d3757d0724d759453c",
        "to": "0x8c3f4901dfaf00f43b11554d96db04fae340479e",
        "gas": "0xa210",
        "value": "0x0",
        "input": "0x5155fb2f002303a0e4fd858af5f1f053586f4af81fbea049ad91e2d24d97f735e020059a",
        "nonce": "0x4a1",
        "chainId": "0xaa36a7"
      },
      "additionalContracts": [],
      "isFixedGasLimit": false
    }
  ],
  "receipts": [
    {
      "status": "0x1",
      "cumulativeGasUsed": "0x177c19f",
      "logs": [
        {
          "address": "0x8c3f4901dfaf00f43b11554d96db04fae340479e",
          "topics": [
            "0xa35dce9e53611b0cabca886209c4a1d09c80214af9b6fb6027f7b2f7c39838e8"
          ],
          "data": "0x002303a0e4fd858af5f1f053586f4af81fbea049ad91e2d24d97f735e020059a",
          "blockHash": "0x6f96885c7d1ec1d38c386e8f625348c1757551fd57c4997dfacf04d5a9dea602",
          "blockNumber": "0x720595",
          "transactionHash": "0x09e66e85c952d6cb108d0155d8bc10a89269592d8611d2ee42b1eda2e493b7b6",
          "transactionIndex": "0xb3",
          "logIndex": "0x134",
          "removed": false
        }
      ],
      "logsBloom": "0x00000000000000000000000010000000000000000000000000000000000000000000000000000000000000000000000000000000000000000000000000000000000000000000000000000000000200000000000000000000000000000000000000000000000000000000000000000000000000000000000000000000000000000000000000000000010400000000000000000000000000000000000000000000800000000000000000000000000000000000000000000000001000000000000000000000000000000000000000000000000000000000000000000000000000000000000000000000000000000000000000000000000000000000000000000000",
      "type": "0x2",
      "transactionHash": "0x09e66e85c952d6cb108d0155d8bc10a89269592d8611d2ee42b1eda2e493b7b6",
      "transactionIndex": "0xb3",
      "blockHash": "0x6f96885c7d1ec1d38c386e8f625348c1757551fd57c4997dfacf04d5a9dea602",
      "blockNumber": "0x720595",
      "gasUsed": "0x7555",
      "effectiveGasPrice": "0x91d4bdc2",
      "from": "0xddb342ecc94236c29a5307d3757d0724d759453c",
      "to": "0x8c3f4901dfaf00f43b11554d96db04fae340479e",
      "contractAddress": null
    }
  ],
  "libraries": [],
  "pending": [],
  "returns": {},
  "timestamp": 1736651377,
  "chain": 11155111,
  "commit": "81b7af0"
}