{
  "transactions": [
    {
      "hash": "0xb0df3bf28e1526ad9bb2849f13140715c9899fde35eda3cf4272024f91228b5b",
      "transactionType": "CALL",
      "contractName": null,
      "contractAddress": "0xca14007eff0db1f8135f4c25b34de49ab0d42766",
      "function": "approve(address,uint256)",
      "arguments": [
        "0xabcd70100c04F7aD20DDF425705c91AB2BeA4e56",
        "115792089237316195423570985008687907853269984665640564039457584007913129639935"
      ],
      "transaction": {
        "from": "0xddb342ecc94236c29a5307d3757d0724d759453c",
        "to": "0xca14007eff0db1f8135f4c25b34de49ab0d42766",
        "gas": "0x93a9",
        "value": "0x0",
        "input": "0x095ea7b3000000000000000000000000abcd70100c04f7ad20ddf425705c91ab2bea4e56ffffffffffffffffffffffffffffffffffffffffffffffffffffffffffffffff",
        "nonce": "0x52b",
        "chainId": "0xaa36a7"
      },
      "additionalContracts": [],
      "isFixedGasLimit": false
    },
    {
      "hash": "0xe6f27b1bbef0d8c9ed64aaba0bcacbf9cf74c829a91aab1ebffcaa861ab2dec5",
      "transactionType": "CALL",
      "contractName": null,
      "contractAddress": "0xabcd70100c04f7ad20ddf425705c91ab2bea4e56",
      "function": "depositAndCreateOrder((address,uint256,uint256,uint128,uint128,uint128,uint128))",
      "arguments": [
        "(0xDdb342ecc94236c29a5307d3757d0724D759453C, 2009894490435840142178314390393166646092438090257831307886760648929397478285, 2366254414417873771392932940469309727793822550615514268240785277201753657472, 170141183460469235273462165868118016, 1737475504, 1737475632, 500000000000000)"
      ],
      "transaction": {
        "from": "0xddb342ecc94236c29a5307d3757d0724d759453c",
        "to": "0xabcd70100c04f7ad20ddf425705c91ab2bea4e56",
        "gas": "0x3cb99",
        "value": "0x1c6bf52634000",
        "input": "0x6c1cc3f4000000000000000000000000ddb342ecc94236c29a5307d3757d0724d759453c04718f5a0fc34cc1af16a1cdee98ffb20c31f5cd61d6ab07201858f4287c938d053b40a647cedfca6ca84f542a0fe36736031905a9639a7f19a3c1e66bfd5080000000000000000000000000000000000020c49ba5e353f8000000000000000000000000000000000000000000000000000000000000000000000000678fc5b000000000000000000000000000000000000000000000000000000000678fc6300000000000000000000000000000000000000000000000000001c6bf52634000",
        "nonce": "0x52c",
        "chainId": "0xaa36a7"
      },
      "additionalContracts": [],
      "isFixedGasLimit": false
    }
  ],
  "receipts": [
    {
      "status": "0x1",
      "cumulativeGasUsed": "0x9c58f1",
      "logs": [
        {
          "address": "0xca14007eff0db1f8135f4c25b34de49ab0d42766",
          "topics": [
            "0x8c5be1e5ebec7d5bd14f71427d1e84f3dd0314c0f7b2291e5b200ac8c7c3b925",
            "0x000000000000000000000000ddb342ecc94236c29a5307d3757d0724d759453c",
            "0x000000000000000000000000abcd70100c04f7ad20ddf425705c91ab2bea4e56"
          ],
          "data": "0xffffffffffffffffffffffffffffffffffffffffffffffffffffffffffffffff",
          "blockHash": "0xbbf83c76c3b71c25944ebc5e32edcdff860a7f03b430ad15d58ea66d307e6167",
          "blockNumber": "0x7310c5",
          "transactionHash": "0xb0df3bf28e1526ad9bb2849f13140715c9899fde35eda3cf4272024f91228b5b",
          "transactionIndex": "0x7e",
          "logIndex": "0xad",
          "removed": false
        }
      ],
      "logsBloom": "0x00000000010000000000100000000000000000000000000000000000000000000000000000000000000000000000000000000000000000000000000000200000000000000000000000000000000000000000000000000000000000000000000400000000000000000000000000000000400000000000000000000000400000000000000000000000000000000000000000000000000000000000000000000000020000000000000000000000000000000000000000000000000000000000000000000000000000020000000000000000000000000000000000800000000000000010000000001000000000000000000000000000001000000000000000000000",
      "type": "0x2",
      "transactionHash": "0xb0df3bf28e1526ad9bb2849f13140715c9899fde35eda3cf4272024f91228b5b",
      "transactionIndex": "0x7e",
      "blockHash": "0xbbf83c76c3b71c25944ebc5e32edcdff860a7f03b430ad15d58ea66d307e6167",
      "blockNumber": "0x7310c5",
      "gasUsed": "0x6ae8",
      "effectiveGasPrice": "0x89c921e2",
      "from": "0xddb342ecc94236c29a5307d3757d0724d759453c",
      "to": "0xca14007eff0db1f8135f4c25b34de49ab0d42766",
      "contractAddress": null
    },
    {
      "status": "0x1",
      "cumulativeGasUsed": "0x9f185d",
      "logs": [
        {
          "address": "0xca14007eff0db1f8135f4c25b34de49ab0d42766",
          "topics": [
            "0x8c5be1e5ebec7d5bd14f71427d1e84f3dd0314c0f7b2291e5b200ac8c7c3b925",
            "0x000000000000000000000000abcd70100c04f7ad20ddf425705c91ab2bea4e56",
            "0x000000000000000000000000abcd70100c04f7ad20ddf425705c91ab2bea4e56"
          ],
          "data": "0x0000000000000000000000000000000000000000000000000001c6bf52634000",
          "blockHash": "0xbbf83c76c3b71c25944ebc5e32edcdff860a7f03b430ad15d58ea66d307e6167",
          "blockNumber": "0x7310c5",
          "transactionHash": "0xe6f27b1bbef0d8c9ed64aaba0bcacbf9cf74c829a91aab1ebffcaa861ab2dec5",
          "transactionIndex": "0x7f",
          "logIndex": "0xae",
          "removed": false
        },
        {
          "address": "0xca14007eff0db1f8135f4c25b34de49ab0d42766",
          "topics": [
            "0xddf252ad1be2c89b69c2b068fc378daa952ba7f163c4a11628f55a4df523b3ef",
            "0x000000000000000000000000ddb342ecc94236c29a5307d3757d0724d759453c",
            "0x000000000000000000000000abcd70100c04f7ad20ddf425705c91ab2bea4e56"
          ],
          "data": "0x0000000000000000000000000000000000000000000000000001c6bf52634000",
          "blockHash": "0xbbf83c76c3b71c25944ebc5e32edcdff860a7f03b430ad15d58ea66d307e6167",
          "blockNumber": "0x7310c5",
          "transactionHash": "0xe6f27b1bbef0d8c9ed64aaba0bcacbf9cf74c829a91aab1ebffcaa861ab2dec5",
          "transactionIndex": "0x7f",
          "logIndex": "0xaf",
          "removed": false
        },
        {
          "address": "0xca14007eff0db1f8135f4c25b34de49ab0d42766",
          "topics": [
            "0x8c5be1e5ebec7d5bd14f71427d1e84f3dd0314c0f7b2291e5b200ac8c7c3b925",
            "0x000000000000000000000000abcd70100c04f7ad20ddf425705c91ab2bea4e56",
            "0x000000000000000000000000ce5485cfb26914c5dce00b9baf0580364dafc7a4"
          ],
          "data": "0x0000000000000000000000000000000000000000000000000001c6bf52634000",
          "blockHash": "0xbbf83c76c3b71c25944ebc5e32edcdff860a7f03b430ad15d58ea66d307e6167",
          "blockNumber": "0x7310c5",
          "transactionHash": "0xe6f27b1bbef0d8c9ed64aaba0bcacbf9cf74c829a91aab1ebffcaa861ab2dec5",
          "transactionIndex": "0x7f",
          "logIndex": "0xb0",
          "removed": false
        },
        {
          "address": "0xca14007eff0db1f8135f4c25b34de49ab0d42766",
          "topics": [
            "0x8c5be1e5ebec7d5bd14f71427d1e84f3dd0314c0f7b2291e5b200ac8c7c3b925",
            "0x000000000000000000000000abcd70100c04f7ad20ddf425705c91ab2bea4e56",
            "0x000000000000000000000000ce5485cfb26914c5dce00b9baf0580364dafc7a4"
          ],
          "data": "0x0000000000000000000000000000000000000000000000000000000000000000",
          "blockHash": "0xbbf83c76c3b71c25944ebc5e32edcdff860a7f03b430ad15d58ea66d307e6167",
          "blockNumber": "0x7310c5",
          "transactionHash": "0xe6f27b1bbef0d8c9ed64aaba0bcacbf9cf74c829a91aab1ebffcaa861ab2dec5",
          "transactionIndex": "0x7f",
          "logIndex": "0xb1",
          "removed": false
        },
        {
          "address": "0xca14007eff0db1f8135f4c25b34de49ab0d42766",
          "topics": [
            "0xddf252ad1be2c89b69c2b068fc378daa952ba7f163c4a11628f55a4df523b3ef",
            "0x000000000000000000000000abcd70100c04f7ad20ddf425705c91ab2bea4e56",
            "0x000000000000000000000000ce5485cfb26914c5dce00b9baf0580364dafc7a4"
          ],
          "data": "0x0000000000000000000000000000000000000000000000000001c6bf52634000",
          "blockHash": "0xbbf83c76c3b71c25944ebc5e32edcdff860a7f03b430ad15d58ea66d307e6167",
          "blockNumber": "0x7310c5",
          "transactionHash": "0xe6f27b1bbef0d8c9ed64aaba0bcacbf9cf74c829a91aab1ebffcaa861ab2dec5",
          "transactionIndex": "0x7f",
          "logIndex": "0xb2",
          "removed": false
        },
        {
          "address": "0xe2bb56ee936fd6433dc0f6e7e3b8365c906aa057",
          "topics": [
            "0xdb80dd488acf86d17c747445b0eabb5d57c541d3bd7b6b87af987858e5066b2b",
            "0x000000000000000000000000ce5485cfb26914c5dce00b9baf0580364dafc7a4",
            "0x0594c1582459ea03f77deaf9eb7e3917d6994a03c13405ba42867f83d85f085d",
            "0x008bce41827dd5484d80312a2e43bc42a896e3fcf75bf84c2b49339168dfa00a"
          ],
          "data": "0x00000000000000000000000000000000000000000000000000000000000000600000000000000000000000000000000000000000000000000000000000002c880000000000000000000000000000000000000000000000000001c6bf52634000000000000000000000000000000000000000000000000000000000000000000e000000000000000000000000ca14007eff0db1f8135f4c25b34de49ab0d42766000000000000000000000000abcd70100c04f7ad20ddf425705c91ab2bea4e5600b3fa26e2af15dda3690ff437257057ad524115b00182928b60d213d50281a60000000000000000000000000000000000000000000000000001c6bf52634000000000000000000000000000000000000000000000000000000000000000000000000000000000000000000000000000000000000000000000000000000000080000000000000000000000000000000000000000000000000000000000000000000000000000000000000000ddb342ecc94236c29a5307d3757d0724d759453c04718f5a0fc34cc1af16a1cdee98ffb20c31f5cd61d6ab07201858f4287c938d053b40a647cedfca6ca84f542a0fe36736031905a9639a7f19a3c1e66bfd5080000000000000000000000000000000000020c49ba5e353f8000000000000000000000000000000000000000000000000000000000000000000000000678fc5b000000000000000000000000000000000000000000000000000000000678fc6300000000000000000000000000000000000000000000000000001c6bf52634000",
          "blockHash": "0xbbf83c76c3b71c25944ebc5e32edcdff860a7f03b430ad15d58ea66d307e6167",
          "blockNumber": "0x7310c5",
          "transactionHash": "0xe6f27b1bbef0d8c9ed64aaba0bcacbf9cf74c829a91aab1ebffcaa861ab2dec5",
          "transactionIndex": "0x7f",
          "logIndex": "0xb3",
          "removed": false
        },
        {
          "address": "0xce5485cfb26914c5dce00b9baf0580364dafc7a4",
          "topics": [
            "0x2203a49c69f1a46c1164f5e4a30643dd77b7c59c0ff9bc433256048365c247f1",
            "0x000000000000000000000000abcd70100c04f7ad20ddf425705c91ab2bea4e56",
            "0x000000000000000000000000ca14007eff0db1f8135f4c25b34de49ab0d42766",
            "0x00b3fa26e2af15dda3690ff437257057ad524115b00182928b60d213d50281a6"
          ],
          "data": "0x0000000000000000000000000000000000000000000000000001c6bf5263400000000000000000000000000000000000000000000000000000000000000000800000000000000000000000000000000000000000000000000000000000002c880000000000000000000000000000000000000000000000000001c6bf5263400000000000000000000000000000000000000000000000000000000000000000080000000000000000000000000000000000000000000000000000000000000000000000000000000000000000ddb342ecc94236c29a5307d3757d0724d759453c04718f5a0fc34cc1af16a1cdee98ffb20c31f5cd61d6ab07201858f4287c938d053b40a647cedfca6ca84f542a0fe36736031905a9639a7f19a3c1e66bfd5080000000000000000000000000000000000020c49ba5e353f8000000000000000000000000000000000000000000000000000000000000000000000000678fc5b000000000000000000000000000000000000000000000000000000000678fc6300000000000000000000000000000000000000000000000000001c6bf52634000",
          "blockHash": "0xbbf83c76c3b71c25944ebc5e32edcdff860a7f03b430ad15d58ea66d307e6167",
          "blockNumber": "0x7310c5",
          "transactionHash": "0xe6f27b1bbef0d8c9ed64aaba0bcacbf9cf74c829a91aab1ebffcaa861ab2dec5",
          "transactionIndex": "0x7f",
          "logIndex": "0xb4",
          "removed": false
        },
        {
          "address": "0xabcd70100c04f7ad20ddf425705c91ab2bea4e56",
          "topics": [
            "0xaf43445f7721522b7a3864ed3de53d7e2e658bfa1eeffa18e1e229be68ce2545",
            "0x000000000000000000000000ddb342ecc94236c29a5307d3757d0724d759453c",
            "0x00b3fa26e2af15dda3690ff437257057ad524115b00182928b60d213d50281a6"
          ],
          "data": "0x0000000000000000000000000000000000000000000000000001c6bf526340000000000000000000000000000000000000000000000000000000000000000001",
          "blockHash": "0xbbf83c76c3b71c25944ebc5e32edcdff860a7f03b430ad15d58ea66d307e6167",
          "blockNumber": "0x7310c5",
          "transactionHash": "0xe6f27b1bbef0d8c9ed64aaba0bcacbf9cf74c829a91aab1ebffcaa861ab2dec5",
          "transactionIndex": "0x7f",
          "logIndex": "0xb5",
          "removed": false
        }
      ],
      "logsBloom": "0x00000200010000000020100000020000000000000000000000000040000000000000000000000000000000000000000000000000000004000000020200200000000000000000000000000008080000000000000000000040001800000000000600000000100000000000000000000000400000000000000000000010400008002000000000000000000000020000000000008000000200080000000008000010020000800000000000000020000000021000000000000000000000000000000000800002000000026010000000000000000000200000000000800000000000000010000000011000000000020004000000000000001000000000000000000000",
      "type": "0x2",
      "transactionHash": "0xe6f27b1bbef0d8c9ed64aaba0bcacbf9cf74c829a91aab1ebffcaa861ab2dec5",
      "transactionIndex": "0x7f",
      "blockHash": "0xbbf83c76c3b71c25944ebc5e32edcdff860a7f03b430ad15d58ea66d307e6167",
      "blockNumber": "0x7310c5",
      "gasUsed": "0x2bf6c",
      "effectiveGasPrice": "0x89c921e2",
      "from": "0xddb342ecc94236c29a5307d3757d0724d759453c",
      "to": "0xabcd70100c04f7ad20ddf425705c91ab2bea4e56",
      "contractAddress": null
    }
  ],
  "libraries": [],
  "pending": [],
  "returns": {},
  "timestamp": 1737475538,
  "chain": 11155111,
  "commit": "fcbff6b"
}