{
  "transactions": [
    {
      "hash": "0xcec9ff197412f22ec35e8941e6e2d2442a28fb938a4e3979633fef22922cd9ef",
      "transactionType": "CALL",
      "contractName": "StarkNetToken",
      "contractAddress": "0xCa14007Eff0dB1f8135f4C25B34De49AB0d42766",
      "function": "approve(address,uint256)",
      "arguments": [
        "0x2112b149516Def254dfe6B341Cf5df70d8CB6B06",
        "115792089237316195423570985008687907853269984665640564039457584007913129639935"
      ],
      "transaction": {
        "type": "0x02",
        "from": "0xddb342ecc94236c29a5307d3757d0724d759453c",
        "to": "0xca14007eff0db1f8135f4c25b34de49ab0d42766",
        "gas": "0x93a9",
        "value": "0x0",
        "data": "0x095ea7b30000000000000000000000002112b149516def254dfe6b341cf5df70d8cb6b06ffffffffffffffffffffffffffffffffffffffffffffffffffffffffffffffff",
        "nonce": "0x2f1",
        "accessList": []
      },
      "additionalContracts": [],
      "isFixedGasLimit": false
    },
    {
      "hash": "0xf215b5e2bc360dc9cfe922f610ce384e7fa6766c78e1fdaf8943782f6422b45c",
      "transactionType": "CALL",
      "contractName": "StarkNetToken",
      "contractAddress": "0xCa14007Eff0dB1f8135f4C25B34De49AB0d42766",
      "function": "transfer(address,uint256)",
      "arguments": [
        "0x2112b149516Def254dfe6B341Cf5df70d8CB6B06",
        "500000"
      ],
      "transaction": {
        "type": "0x02",
        "from": "0xddb342ecc94236c29a5307d3757d0724d759453c",
        "to": "0xca14007eff0db1f8135f4c25b34de49ab0d42766",
        "gas": "0xd748",
        "value": "0x0",
        "data": "0xa9059cbb0000000000000000000000002112b149516def254dfe6b341cf5df70d8cb6b06000000000000000000000000000000000000000000000000000000000007a120",
        "nonce": "0x2f2",
        "accessList": []
      },
      "additionalContracts": [],
      "isFixedGasLimit": false
    },
    {
      "hash": "0x6b0623466228da488f9c8674353a1b1d2a3ccb1cf6d23f7b7f26cad31fde81e4",
      "transactionType": "CALL",
      "contractName": "Proxy",
      "contractAddress": "0xE2Bb56ee936fd6433DC0F6e7e3b8365C906AA057",
      "function": "sendMessageToL2(uint256,uint256,uint256[])",
      "arguments": [
        "2545442141390223358248142364047625979260270735181103727477035125832369927267",
        "425952401605428413817582304755919420533935873840436977667370850915372091056",
        "[3, 1265684623727634235329190328445374361672779121980, 0, 1153662193824988676821566247033479441673014749030, 0, 0, 0, 500000, 2524392021852001135582825949054576525094493216367559068627275826195272239197]"
      ],
      "transaction": {
        "type": "0x02",
        "from": "0xddb342ecc94236c29a5307d3757d0724d759453c",
        "to": "0xe2bb56ee936fd6433dc0f6e7e3b8365c906aa057",
        "gas": "0x15f7a",
        "value": "0x38d7ea4c68000",
        "data": "0x3e3aa6c505a0ab50787b96096b0720c29a7f1959163e62688d6585fe1cf646f1d58d746300f1149cade9d692862ad41df96b108aa2c20af34f640457e781d166c98dc6b0000000000000000000000000000000000000000000000000000000000000006000000000000000000000000000000000000000000000000000000000000000090000000000000000000000000000000000000000000000000000000000000003000000000000000000000000ddb342ecc94236c29a5307d3757d0724d759453c0000000000000000000000000000000000000000000000000000000000000000000000000000000000000000ca14007eff0db1f8135f4c25b34de49ab0d42766000000000000000000000000000000000000000000000000000000000000000000000000000000000000000000000000000000000000000000000000000000000000000000000000000000000000000000000000000000000000000000000000000000000000000000000000000000000000000000000000000000000007a1200594c1582459ea03f77deaf9eb7e3917d6994a03c13405ba42867f83d85f085d",
        "nonce": "0x2f3",
        "accessList": []
      },
      "additionalContracts": [],
      "isFixedGasLimit": false
    }
  ],
  "receipts": [],
  "libraries": [],
  "pending": [
    "0xcec9ff197412f22ec35e8941e6e2d2442a28fb938a4e3979633fef22922cd9ef",
    "0xf215b5e2bc360dc9cfe922f610ce384e7fa6766c78e1fdaf8943782f6422b45c",
    "0x6b0623466228da488f9c8674353a1b1d2a3ccb1cf6d23f7b7f26cad31fde81e4"
  ],
  "returns": {},
  "timestamp": 1731684886,
  "chain": 11155111,
  "multi": false,
  "commit": "945f7f2"
}