{
  "transactions": [
    {
      "hash": "0x6e607ab17517991b492e94ba2d3e4eee4f9b867a80565724b50c338259e145be",
      "transactionType": "CALL",
      "contractName": "StarkNetToken",
      "contractAddress": "0xCa14007Eff0dB1f8135f4C25B34De49AB0d42766",
      "function": "approve(address,uint256)",
      "arguments": [
        "0xE8B8C3BAE95859c0B898cb893395D50e4338DC1A",
        "115792089237316195423570985008687907853269984665640564039457584007913129639935"
      ],
      "transaction": {
        "type": "0x02",
        "from": "0xddb342ecc94236c29a5307d3757d0724d759453c",
        "to": "0xca14007eff0db1f8135f4c25b34de49ab0d42766",
        "gas": "0xff08",
        "value": "0x0",
        "data": "0x095ea7b3000000000000000000000000e8b8c3bae95859c0b898cb893395d50e4338dc1affffffffffffffffffffffffffffffffffffffffffffffffffffffffffffffff",
        "nonce": "0x298",
        "accessList": []
      },
      "additionalContracts": [],
      "isFixedGasLimit": false
    },
    {
      "hash": "0xecdad20b29b1cfbb984d9eda0d75dedc381561047b7ddadff4e265fb802919ff",
      "transactionType": "CALL",
      "contractName": "StarkNetToken",
      "contractAddress": "0xCa14007Eff0dB1f8135f4C25B34De49AB0d42766",
      "function": "transfer(address,uint256)",
      "arguments": [
        "0xE8B8C3BAE95859c0B898cb893395D50e4338DC1A",
        "500000000000"
      ],
      "transaction": {
        "type": "0x02",
        "from": "0xddb342ecc94236c29a5307d3757d0724d759453c",
        "to": "0xca14007eff0db1f8135f4c25b34de49ab0d42766",
        "gas": "0x1339c",
        "value": "0x0",
        "data": "0xa9059cbb000000000000000000000000e8b8c3bae95859c0b898cb893395d50e4338dc1a000000000000000000000000000000000000000000000000000000746a528800",
        "nonce": "0x299",
        "accessList": []
      },
      "additionalContracts": [],
      "isFixedGasLimit": false
    },
    {
      "hash": "0x9ce3341bd205e873c9010fbdcd998aeb2836b149dcbf820936cdda054fa0771c",
      "transactionType": "CALL",
      "contractName": "L1TWAMMBridge",
      "contractAddress": "0xE8B8C3BAE95859c0B898cb893395D50e4338DC1A",
      "function": "deposit(uint256,uint256)",
      "arguments": [
        "500000000000",
        "2106586490596050550996260292438381372643992250707649860755695027936374010719"
      ],
      "transaction": {
        "type": "0x02",
        "from": "0xddb342ecc94236c29a5307d3757d0724d759453c",
        "to": "0xe8b8c3bae95859c0b898cb893395d50e4338dc1a",
        "gas": "0x30231",
        "value": "0x5af3107a4000",
        "data": "0xe2bbb158000000000000000000000000000000000000000000000000000000746a52880004a84923adc1d6e3e0b0afe15de158c00a10c31ead9b20b7a1e8ec1cb6f7b35f",
        "nonce": "0x29a",
        "accessList": []
      },
      "additionalContracts": [],
      "isFixedGasLimit": false
    },
    {
      "hash": "0xbb8834cb02c3f64da5d0da1ee99b49b8ed353d4c403832642767b5742c286dd4",
      "transactionType": "CALL",
      "contractName": "Proxy",
      "contractAddress": "0xE2Bb56ee936fd6433DC0F6e7e3b8365C906AA057",
      "function": "sendMessageToL2(uint256,uint256,uint256[])",
      "arguments": [
        "2106586490596050550996260292438381372643992250707649860755695027936374010719",
        "425952401605428413817582304755919420533935873840436977667370850915372091056",
        "[0, 1265684623727634235329190328445374361672779121980, 2009894490435840142178314390393166646092438090257831307886760648929397478285, 2366254414417873771392932940469309727793822550615514268240785277201753657472, 170141183460469235273462165868118016, 1731426016, 1731426080, 500000000000]"
      ],
      "transaction": {
        "type": "0x02",
        "from": "0xddb342ecc94236c29a5307d3757d0724d759453c",
        "to": "0xe2bb56ee936fd6433dc0f6e7e3b8365c906aa057",
        "gas": "0x173c2",
        "value": "0x5af3107a4000",
        "data": "0x3e3aa6c504a84923adc1d6e3e0b0afe15de158c00a10c31ead9b20b7a1e8ec1cb6f7b35f00f1149cade9d692862ad41df96b108aa2c20af34f640457e781d166c98dc6b0000000000000000000000000000000000000000000000000000000000000006000000000000000000000000000000000000000000000000000000000000000080000000000000000000000000000000000000000000000000000000000000000000000000000000000000000ddb342ecc94236c29a5307d3757d0724d759453c04718f5a0fc34cc1af16a1cdee98ffb20c31f5cd61d6ab07201858f4287c938d053b40a647cedfca6ca84f542a0fe36736031905a9639a7f19a3c1e66bfd5080000000000000000000000000000000000020c49ba5e353f8000000000000000000000000000000000000000000000000000000000000000000000000673376e00000000000000000000000000000000000000000000000000000000067337720000000000000000000000000000000000000000000000000000000746a528800",
        "nonce": "0x29b",
        "accessList": []
      },
      "additionalContracts": [],
      "isFixedGasLimit": false
    }
  ],
  "receipts": [
    {
      "transactionHash": "0x6e607ab17517991b492e94ba2d3e4eee4f9b867a80565724b50c338259e145be",
      "transactionIndex": "0x19",
      "blockHash": "0x4516be96aece5b17b89eee5899486087a65c9cc1e8d8333e63c41e7a751c1cd2",
      "blockNumber": "0x6bc44a",
      "from": "0xDdb342ecc94236c29a5307d3757d0724D759453C",
      "to": "0xCa14007Eff0dB1f8135f4C25B34De49AB0d42766",
      "cumulativeGasUsed": "0x4d33e2",
      "gasUsed": "0xb8a4",
      "contractAddress": null,
      "logs": [
        {
          "address": "0xCa14007Eff0dB1f8135f4C25B34De49AB0d42766",
          "topics": [
            "0x8c5be1e5ebec7d5bd14f71427d1e84f3dd0314c0f7b2291e5b200ac8c7c3b925",
            "0x000000000000000000000000ddb342ecc94236c29a5307d3757d0724d759453c",
            "0x000000000000000000000000e8b8c3bae95859c0b898cb893395d50e4338dc1a"
          ],
          "data": "0xffffffffffffffffffffffffffffffffffffffffffffffffffffffffffffffff",
          "blockHash": "0x4516be96aece5b17b89eee5899486087a65c9cc1e8d8333e63c41e7a751c1cd2",
          "blockNumber": "0x6bc44a",
          "transactionHash": "0x6e607ab17517991b492e94ba2d3e4eee4f9b867a80565724b50c338259e145be",
          "transactionIndex": "0x19",
          "logIndex": "0x3d",
          "removed": false
        }
      ],
      "status": "0x1",
      "logsBloom": "0x00000000000000000000000000000000000000000000000000000000000000000000000000000000000000000000002000000000000000000000000000200000000000000000000000000000000000000000000000000000000000000000000400000000000000000000000000000000400000000000000000000000400000020002000000000000000000000000000000000000000000000000000000000000020000000000000000000000000000000000000000000000000000000000000000000000000000020000000000000000000000000000000000800000000000000010000000000000000000000000000000000000001000000000000000000000",
      "type": "0x2",
      "effectiveGasPrice": "0xe7a6e6b2"
    },
    {
      "transactionHash": "0xecdad20b29b1cfbb984d9eda0d75dedc381561047b7ddadff4e265fb802919ff",
      "transactionIndex": "0x1a",
      "blockHash": "0x4516be96aece5b17b89eee5899486087a65c9cc1e8d8333e63c41e7a751c1cd2",
      "blockNumber": "0x6bc44a",
      "from": "0xDdb342ecc94236c29a5307d3757d0724D759453C",
      "to": "0xCa14007Eff0dB1f8135f4C25B34De49AB0d42766",
      "cumulativeGasUsed": "0x4e1297",
      "gasUsed": "0xdeb5",
      "contractAddress": null,
      "logs": [
        {
          "address": "0xCa14007Eff0dB1f8135f4C25B34De49AB0d42766",
          "topics": [
            "0xddf252ad1be2c89b69c2b068fc378daa952ba7f163c4a11628f55a4df523b3ef",
            "0x000000000000000000000000ddb342ecc94236c29a5307d3757d0724d759453c",
            "0x000000000000000000000000e8b8c3bae95859c0b898cb893395d50e4338dc1a"
          ],
          "data": "0x000000000000000000000000000000000000000000000000000000746a528800",
          "blockHash": "0x4516be96aece5b17b89eee5899486087a65c9cc1e8d8333e63c41e7a751c1cd2",
          "blockNumber": "0x6bc44a",
          "transactionHash": "0xecdad20b29b1cfbb984d9eda0d75dedc381561047b7ddadff4e265fb802919ff",
          "transactionIndex": "0x1a",
          "logIndex": "0x3e",
          "removed": false
        }
      ],
      "status": "0x1",
      "logsBloom": "0x00000000000000000000000000000000000000000000000000000000000000000000000000000000000000000000002000000000000000000000000000000000000000000000000000000008000000000000000000000000000000000000000400000000000000000000000000000000400000000000000000000010400000020002000000000000000000000000000000000000000000000000000000000000000000000000000000000000000000000000000000000000000000000000000000000002000000020000000000000000000000000000000000800000000000000000000000000000000000000000000000000000001000000000000000000000",
      "type": "0x2",
      "effectiveGasPrice": "0xe7a6e6b2"
    },
    {
      "transactionHash": "0x9ce3341bd205e873c9010fbdcd998aeb2836b149dcbf820936cdda054fa0771c",
      "transactionIndex": "0x1b",
      "blockHash": "0x4516be96aece5b17b89eee5899486087a65c9cc1e8d8333e63c41e7a751c1cd2",
      "blockNumber": "0x6bc44a",
      "from": "0xDdb342ecc94236c29a5307d3757d0724D759453C",
      "to": "0xE8B8C3BAE95859c0B898cb893395D50e4338DC1A",
      "cumulativeGasUsed": "0x502138",
      "gasUsed": "0x20ea1",
      "contractAddress": null,
      "logs": [
        {
          "address": "0xCa14007Eff0dB1f8135f4C25B34De49AB0d42766",
          "topics": [
            "0x8c5be1e5ebec7d5bd14f71427d1e84f3dd0314c0f7b2291e5b200ac8c7c3b925",
            "0x000000000000000000000000e8b8c3bae95859c0b898cb893395d50e4338dc1a",
            "0x000000000000000000000000ce5485cfb26914c5dce00b9baf0580364dafc7a4"
          ],
          "data": "0x000000000000000000000000000000000000000000000000000000746a528800",
          "blockHash": "0x4516be96aece5b17b89eee5899486087a65c9cc1e8d8333e63c41e7a751c1cd2",
          "blockNumber": "0x6bc44a",
          "transactionHash": "0x9ce3341bd205e873c9010fbdcd998aeb2836b149dcbf820936cdda054fa0771c",
          "transactionIndex": "0x1b",
          "logIndex": "0x3f",
          "removed": false
        },
        {
          "address": "0xCa14007Eff0dB1f8135f4C25B34De49AB0d42766",
          "topics": [
            "0x8c5be1e5ebec7d5bd14f71427d1e84f3dd0314c0f7b2291e5b200ac8c7c3b925",
            "0x000000000000000000000000e8b8c3bae95859c0b898cb893395d50e4338dc1a",
            "0x000000000000000000000000ce5485cfb26914c5dce00b9baf0580364dafc7a4"
          ],
          "data": "0x0000000000000000000000000000000000000000000000000000000000000000",
          "blockHash": "0x4516be96aece5b17b89eee5899486087a65c9cc1e8d8333e63c41e7a751c1cd2",
          "blockNumber": "0x6bc44a",
          "transactionHash": "0x9ce3341bd205e873c9010fbdcd998aeb2836b149dcbf820936cdda054fa0771c",
          "transactionIndex": "0x1b",
          "logIndex": "0x40",
          "removed": false
        },
        {
          "address": "0xCa14007Eff0dB1f8135f4C25B34De49AB0d42766",
          "topics": [
            "0xddf252ad1be2c89b69c2b068fc378daa952ba7f163c4a11628f55a4df523b3ef",
            "0x000000000000000000000000e8b8c3bae95859c0b898cb893395d50e4338dc1a",
            "0x000000000000000000000000ce5485cfb26914c5dce00b9baf0580364dafc7a4"
          ],
          "data": "0x000000000000000000000000000000000000000000000000000000746a528800",
          "blockHash": "0x4516be96aece5b17b89eee5899486087a65c9cc1e8d8333e63c41e7a751c1cd2",
          "blockNumber": "0x6bc44a",
          "transactionHash": "0x9ce3341bd205e873c9010fbdcd998aeb2836b149dcbf820936cdda054fa0771c",
          "transactionIndex": "0x1b",
          "logIndex": "0x41",
          "removed": false
        },
        {
          "address": "0xE2Bb56ee936fd6433DC0F6e7e3b8365C906AA057",
          "topics": [
            "0xdb80dd488acf86d17c747445b0eabb5d57c541d3bd7b6b87af987858e5066b2b",
            "0x000000000000000000000000ce5485cfb26914c5dce00b9baf0580364dafc7a4",
            "0x0594c1582459ea03f77deaf9eb7e3917d6994a03c13405ba42867f83d85f085d",
            "0x01b64b1b3b690b43b9b514fb81377518f4039cd3e4f4914d8a6bdf01d679fb19"
          ],
          "data": "0x0000000000000000000000000000000000000000000000000000000000000060000000000000000000000000000000000000000000000000000000000000282500000000000000000000000000000000000000000000000000005af3107a40000000000000000000000000000000000000000000000000000000000000000005000000000000000000000000ca14007eff0db1f8135f4c25b34de49ab0d42766000000000000000000000000e8b8c3bae95859c0b898cb893395d50e4338dc1a04a84923adc1d6e3e0b0afe15de158c00a10c31ead9b20b7a1e8ec1cb6f7b35f000000000000000000000000000000000000000000000000000000746a5288000000000000000000000000000000000000000000000000000000000000000000",
          "blockHash": "0x4516be96aece5b17b89eee5899486087a65c9cc1e8d8333e63c41e7a751c1cd2",
          "blockNumber": "0x6bc44a",
          "transactionHash": "0x9ce3341bd205e873c9010fbdcd998aeb2836b149dcbf820936cdda054fa0771c",
          "transactionIndex": "0x1b",
          "logIndex": "0x42",
          "removed": false
        },
        {
          "address": "0xcE5485Cfb26914C5dcE00B9BAF0580364daFC7a4",
          "topics": [
            "0x5f971bd00bf3ffbca8a6d72cdd4fd92cfd4f62636161921d1e5a64f0b64ccb6d",
            "0x000000000000000000000000e8b8c3bae95859c0b898cb893395d50e4338dc1a",
            "0x000000000000000000000000ca14007eff0db1f8135f4c25b34de49ab0d42766",
            "0x04a84923adc1d6e3e0b0afe15de158c00a10c31ead9b20b7a1e8ec1cb6f7b35f"
          ],
          "data": "0x000000000000000000000000000000000000000000000000000000746a528800000000000000000000000000000000000000000000000000000000000000282500000000000000000000000000000000000000000000000000005af3107a4000",
          "blockHash": "0x4516be96aece5b17b89eee5899486087a65c9cc1e8d8333e63c41e7a751c1cd2",
          "blockNumber": "0x6bc44a",
          "transactionHash": "0x9ce3341bd205e873c9010fbdcd998aeb2836b149dcbf820936cdda054fa0771c",
          "transactionIndex": "0x1b",
          "logIndex": "0x43",
          "removed": false
        }
      ],
      "status": "0x1",
      "logsBloom": "0x00000000000000000200000000020000000000000000000000000000000000400000000000000000000000000000002000000000000004000000000000200000000000000000000000000008080000000000000000000040001000000000000000000000100000000000000000000000000000000000000000000010000008022002008000000000000000000400000000000000200200000000020000000010020000000000000000000020000000001000000000000020200000000000000000000002000000024010000000000000000000200000000000800000000000000010000000010000000000020084000000000000001000000000000000000000",
      "type": "0x2",
      "effectiveGasPrice": "0xe7a6e6b2"
    },
    {
      "transactionHash": "0xbb8834cb02c3f64da5d0da1ee99b49b8ed353d4c403832642767b5742c286dd4",
      "transactionIndex": "0x1c",
      "blockHash": "0x4516be96aece5b17b89eee5899486087a65c9cc1e8d8333e63c41e7a751c1cd2",
      "blockNumber": "0x6bc44a",
      "from": "0xDdb342ecc94236c29a5307d3757d0724D759453C",
      "to": "0xE2Bb56ee936fd6433DC0F6e7e3b8365C906AA057",
      "cumulativeGasUsed": "0x511f6a",
      "gasUsed": "0xfe32",
      "contractAddress": null,
      "logs": [
        {
          "address": "0xE2Bb56ee936fd6433DC0F6e7e3b8365C906AA057",
          "topics": [
            "0xdb80dd488acf86d17c747445b0eabb5d57c541d3bd7b6b87af987858e5066b2b",
            "0x000000000000000000000000ddb342ecc94236c29a5307d3757d0724d759453c",
            "0x04a84923adc1d6e3e0b0afe15de158c00a10c31ead9b20b7a1e8ec1cb6f7b35f",
            "0x00f1149cade9d692862ad41df96b108aa2c20af34f640457e781d166c98dc6b0"
          ],
          "data": "0x0000000000000000000000000000000000000000000000000000000000000060000000000000000000000000000000000000000000000000000000000000282600000000000000000000000000000000000000000000000000005af3107a400000000000000000000000000000000000000000000000000000000000000000080000000000000000000000000000000000000000000000000000000000000000000000000000000000000000ddb342ecc94236c29a5307d3757d0724d759453c04718f5a0fc34cc1af16a1cdee98ffb20c31f5cd61d6ab07201858f4287c938d053b40a647cedfca6ca84f542a0fe36736031905a9639a7f19a3c1e66bfd5080000000000000000000000000000000000020c49ba5e353f8000000000000000000000000000000000000000000000000000000000000000000000000673376e00000000000000000000000000000000000000000000000000000000067337720000000000000000000000000000000000000000000000000000000746a528800",
          "blockHash": "0x4516be96aece5b17b89eee5899486087a65c9cc1e8d8333e63c41e7a751c1cd2",
          "blockNumber": "0x6bc44a",
          "transactionHash": "0xbb8834cb02c3f64da5d0da1ee99b49b8ed353d4c403832642767b5742c286dd4",
          "transactionIndex": "0x1c",
          "logIndex": "0x44",
          "removed": false
        }
      ],
      "status": "0x1",
      "logsBloom": "0x00400000000000000000000000020000000000000000000000000000000000000000000000000000000000000000000000000000000000000000000000000000000000000000000000000000000000000000000000000040001000000000000400000000100000010000000000000000400000000000000000000000400000000000008000000000000000000000000004000000200000000000000000000010000000000000000000000020000000000000000000000000200000000000000000000000000000000000000000000000000000000000000000000000000000000000000000000000000000000000000000000000000000000000000000000000",
      "type": "0x2",
      "effectiveGasPrice": "0xe7a6e6b2"
    }
  ],
  "libraries": [],
  "pending": [],
  "returns": {},
  "timestamp": 1731426101,
  "chain": 11155111,
  "multi": false,
  "commit": "b1a5e4e"
}