{
  "transactions": [
    {
      "hash": "0xa1ce1f4cf040d22342d6157d2b4851450828ae10c59b354f6972a7343f3288e9",
      "transactionType": "CALL",
      "contractName": "StarkNetToken",
      "contractAddress": "0xCa14007Eff0dB1f8135f4C25B34De49AB0d42766",
      "function": "approve(address,uint256)",
      "arguments": [
        "0x37BbD079182437e5539F5502D941511decBf644e",
        "115792089237316195423570985008687907853269984665640564039457584007913129639935"
      ],
      "transaction": {
        "type": "0x02",
        "from": "0xddb342ecc94236c29a5307d3757d0724d759453c",
        "to": "0xca14007eff0db1f8135f4c25b34de49ab0d42766",
        "gas": "0x93a9",
        "value": "0x0",
        "data": "0x095ea7b300000000000000000000000037bbd079182437e5539f5502d941511decbf644effffffffffffffffffffffffffffffffffffffffffffffffffffffffffffffff",
        "nonce": "0x21e",
        "accessList": []
      },
      "additionalContracts": [],
      "isFixedGasLimit": false
    },
    {
      "hash": "0x5e43bb434613073800e5fbdf724cc7e2f65ce09c770fec5a1c111702d352cd15",
      "transactionType": "CALL",
      "contractName": "StarkNetToken",
      "contractAddress": "0xCa14007Eff0dB1f8135f4C25B34De49AB0d42766",
      "function": "transfer(address,uint256)",
      "arguments": [
        "0x37BbD079182437e5539F5502D941511decBf644e",
        "1000000000000000"
      ],
      "transaction": {
        "type": "0x02",
        "from": "0xddb342ecc94236c29a5307d3757d0724d759453c",
        "to": "0xca14007eff0db1f8135f4c25b34de49ab0d42766",
        "gas": "0x133bd",
        "value": "0x0",
        "data": "0xa9059cbb00000000000000000000000037bbd079182437e5539f5502d941511decbf644e00000000000000000000000000000000000000000000000000038d7ea4c68000",
        "nonce": "0x21f",
        "accessList": []
      },
      "additionalContracts": [],
      "isFixedGasLimit": false
    },
    {
      "hash": "0xc92a3dda38811afe9c1ba28c0f7e6cfa7a82fa46af36a8da5ed818990bae8002",
      "transactionType": "CALL",
      "contractName": "L1TWAMMBridge",
      "contractAddress": "0x37BbD079182437e5539F5502D941511decBf644e",
      "function": "depositAndCreateOrder((address,uint256,uint256,uint128,uint128,uint128,uint128,uint256))",
      "arguments": [
        "(0xDdb342ecc94236c29a5307d3757d0724D759453C, 2009894490435840142178314390393166646092438090257831307886760648929397478285, 2366254414417873771392932940469309727793822550615514268240785277201753657472, 0, 1730992816, 1730992880, 1000000000000000, 1763984883458940013138224183067070650379048596409881380243345922799428278472)"
      ],
      "transaction": {
        "type": "0x02",
        "from": "0xddb342ecc94236c29a5307d3757d0724d759453c",
        "to": "0x37bbd079182437e5539f5502d941511decbf644e",
        "gas": "0x3e2b2",
        "value": "0x38d7ea4c68000",
        "data": "0x5ce510fa000000000000000000000000ddb342ecc94236c29a5307d3757d0724d759453c04718f5a0fc34cc1af16a1cdee98ffb20c31f5cd61d6ab07201858f4287c938d053b40a647cedfca6ca84f542a0fe36736031905a9639a7f19a3c1e66bfd5080000000000000000000000000000000000000000000000000000000000000000000000000000000000000000000000000000000000000000000000000672cdab000000000000000000000000000000000000000000000000000000000672cdaf000000000000000000000000000000000000000000000000000038d7ea4c6800003e6614bcb616ced009959d75803257971686ac7af7f18dd969cc1351e0d98c8",
        "nonce": "0x220",
        "accessList": []
      },
      "additionalContracts": [],
      "isFixedGasLimit": false
    }
  ],
  "receipts": [
    {
      "transactionHash": "0xa1ce1f4cf040d22342d6157d2b4851450828ae10c59b354f6972a7343f3288e9",
      "transactionIndex": "0x4",
      "blockHash": "0xe8986761bddab20b651441144432bfb71bdafc14090394aabbd3689454d95e42",
      "blockNumber": "0x6b4853",
      "from": "0xDdb342ecc94236c29a5307d3757d0724D759453C",
      "to": "0xCa14007Eff0dB1f8135f4C25B34De49AB0d42766",
      "cumulativeGasUsed": "0x21804",
      "gasUsed": "0x6ae8",
      "contractAddress": null,
      "logs": [
        {
          "address": "0xCa14007Eff0dB1f8135f4C25B34De49AB0d42766",
          "topics": [
            "0x8c5be1e5ebec7d5bd14f71427d1e84f3dd0314c0f7b2291e5b200ac8c7c3b925",
            "0x000000000000000000000000ddb342ecc94236c29a5307d3757d0724d759453c",
            "0x00000000000000000000000037bbd079182437e5539f5502d941511decbf644e"
          ],
          "data": "0xffffffffffffffffffffffffffffffffffffffffffffffffffffffffffffffff",
          "blockHash": "0xe8986761bddab20b651441144432bfb71bdafc14090394aabbd3689454d95e42",
          "blockNumber": "0x6b4853",
          "transactionHash": "0xa1ce1f4cf040d22342d6157d2b4851450828ae10c59b354f6972a7343f3288e9",
          "transactionIndex": "0x4",
          "logIndex": "0x1",
          "removed": false
        }
      ],
      "status": "0x1",
      "logsBloom": "0x00000000000000000000000000000000000000000000000000000000000000000000000000000000000000000000000000000000000000000000000000200000000000000000000000000000000000000000000000000000000000000000800400000000000000000000000000000000400000000000000000000000400000000000000000000000000000000000000000000000000000000000000000000000020000000000004000000000000000000000000000000000000000000000000000000000000000020000000000000000000000000000000000800000000000000810000000000000000000000000000000000000001000000000000000000000",
      "type": "0x2",
      "effectiveGasPrice": "0x1b9f9265d"
    },
    {
      "transactionHash": "0x5e43bb434613073800e5fbdf724cc7e2f65ce09c770fec5a1c111702d352cd15",
      "transactionIndex": "0x5",
      "blockHash": "0xe8986761bddab20b651441144432bfb71bdafc14090394aabbd3689454d95e42",
      "blockNumber": "0x6b4853",
      "from": "0xDdb342ecc94236c29a5307d3757d0724D759453C",
      "to": "0xCa14007Eff0dB1f8135f4C25B34De49AB0d42766",
      "cumulativeGasUsed": "0x2f6d1",
      "gasUsed": "0xdecd",
      "contractAddress": null,
      "logs": [
        {
          "address": "0xCa14007Eff0dB1f8135f4C25B34De49AB0d42766",
          "topics": [
            "0xddf252ad1be2c89b69c2b068fc378daa952ba7f163c4a11628f55a4df523b3ef",
            "0x000000000000000000000000ddb342ecc94236c29a5307d3757d0724d759453c",
            "0x00000000000000000000000037bbd079182437e5539f5502d941511decbf644e"
          ],
          "data": "0x00000000000000000000000000000000000000000000000000038d7ea4c68000",
          "blockHash": "0xe8986761bddab20b651441144432bfb71bdafc14090394aabbd3689454d95e42",
          "blockNumber": "0x6b4853",
          "transactionHash": "0x5e43bb434613073800e5fbdf724cc7e2f65ce09c770fec5a1c111702d352cd15",
          "transactionIndex": "0x5",
          "logIndex": "0x2",
          "removed": false
        }
      ],
      "status": "0x1",
      "logsBloom": "0x00000000000000000000000000000000000000000000000000000000000000000000000000000000000000000000000000000000000000000000000000000000000000000000000000000008000000000000000000000000000000000000800400000000000000000000000000000000400000000000000000000010400000000000000000000000000000000000000000000000000000000000000000000000000000000000004000000000000000000000000000000000000000000000000000000002000000020000000000000000000000000000000000800000000000000800000000000000000000000000000000000000001000000000000000000000",
      "type": "0x2",
      "effectiveGasPrice": "0x1b9f9265d"
    },
    {
      "transactionHash": "0xc92a3dda38811afe9c1ba28c0f7e6cfa7a82fa46af36a8da5ed818990bae8002",
      "transactionIndex": "0x6",
      "blockHash": "0xe8986761bddab20b651441144432bfb71bdafc14090394aabbd3689454d95e42",
      "blockNumber": "0x6b4853",
      "from": "0xDdb342ecc94236c29a5307d3757d0724D759453C",
      "to": "0x37BbD079182437e5539F5502D941511decBf644e",
      "cumulativeGasUsed": "0x59e76",
      "gasUsed": "0x2a7a5",
      "contractAddress": null,
      "logs": [
        {
          "address": "0xCa14007Eff0dB1f8135f4C25B34De49AB0d42766",
          "topics": [
            "0xddf252ad1be2c89b69c2b068fc378daa952ba7f163c4a11628f55a4df523b3ef",
            "0x000000000000000000000000ddb342ecc94236c29a5307d3757d0724d759453c",
            "0x00000000000000000000000037bbd079182437e5539f5502d941511decbf644e"
          ],
          "data": "0x00000000000000000000000000000000000000000000000000038d7ea4c68000",
          "blockHash": "0xe8986761bddab20b651441144432bfb71bdafc14090394aabbd3689454d95e42",
          "blockNumber": "0x6b4853",
          "transactionHash": "0xc92a3dda38811afe9c1ba28c0f7e6cfa7a82fa46af36a8da5ed818990bae8002",
          "transactionIndex": "0x6",
          "logIndex": "0x3",
          "removed": false
        },
        {
          "address": "0xCa14007Eff0dB1f8135f4C25B34De49AB0d42766",
          "topics": [
            "0x8c5be1e5ebec7d5bd14f71427d1e84f3dd0314c0f7b2291e5b200ac8c7c3b925",
            "0x00000000000000000000000037bbd079182437e5539f5502d941511decbf644e",
            "0x000000000000000000000000ce5485cfb26914c5dce00b9baf0580364dafc7a4"
          ],
          "data": "0x0000000000000000000000000000000000000000000000000000000000000000",
          "blockHash": "0xe8986761bddab20b651441144432bfb71bdafc14090394aabbd3689454d95e42",
          "blockNumber": "0x6b4853",
          "transactionHash": "0xc92a3dda38811afe9c1ba28c0f7e6cfa7a82fa46af36a8da5ed818990bae8002",
          "transactionIndex": "0x6",
          "logIndex": "0x4",
          "removed": false
        },
        {
          "address": "0xCa14007Eff0dB1f8135f4C25B34De49AB0d42766",
          "topics": [
            "0x8c5be1e5ebec7d5bd14f71427d1e84f3dd0314c0f7b2291e5b200ac8c7c3b925",
            "0x00000000000000000000000037bbd079182437e5539f5502d941511decbf644e",
            "0x000000000000000000000000ce5485cfb26914c5dce00b9baf0580364dafc7a4"
          ],
          "data": "0x00000000000000000000000000000000000000000000000000038d7ea4c68000",
          "blockHash": "0xe8986761bddab20b651441144432bfb71bdafc14090394aabbd3689454d95e42",
          "blockNumber": "0x6b4853",
          "transactionHash": "0xc92a3dda38811afe9c1ba28c0f7e6cfa7a82fa46af36a8da5ed818990bae8002",
          "transactionIndex": "0x6",
          "logIndex": "0x5",
          "removed": false
        },
        {
          "address": "0xCa14007Eff0dB1f8135f4C25B34De49AB0d42766",
          "topics": [
            "0x8c5be1e5ebec7d5bd14f71427d1e84f3dd0314c0f7b2291e5b200ac8c7c3b925",
            "0x00000000000000000000000037bbd079182437e5539f5502d941511decbf644e",
            "0x000000000000000000000000ce5485cfb26914c5dce00b9baf0580364dafc7a4"
          ],
          "data": "0x0000000000000000000000000000000000000000000000000000000000000000",
          "blockHash": "0xe8986761bddab20b651441144432bfb71bdafc14090394aabbd3689454d95e42",
          "blockNumber": "0x6b4853",
          "transactionHash": "0xc92a3dda38811afe9c1ba28c0f7e6cfa7a82fa46af36a8da5ed818990bae8002",
          "transactionIndex": "0x6",
          "logIndex": "0x6",
          "removed": false
        },
        {
          "address": "0xCa14007Eff0dB1f8135f4C25B34De49AB0d42766",
          "topics": [
            "0xddf252ad1be2c89b69c2b068fc378daa952ba7f163c4a11628f55a4df523b3ef",
            "0x00000000000000000000000037bbd079182437e5539f5502d941511decbf644e",
            "0x000000000000000000000000ce5485cfb26914c5dce00b9baf0580364dafc7a4"
          ],
          "data": "0x00000000000000000000000000000000000000000000000000038d7ea4c68000",
          "blockHash": "0xe8986761bddab20b651441144432bfb71bdafc14090394aabbd3689454d95e42",
          "blockNumber": "0x6b4853",
          "transactionHash": "0xc92a3dda38811afe9c1ba28c0f7e6cfa7a82fa46af36a8da5ed818990bae8002",
          "transactionIndex": "0x6",
          "logIndex": "0x7",
          "removed": false
        },
        {
          "address": "0xE2Bb56ee936fd6433DC0F6e7e3b8365C906AA057",
          "topics": [
            "0xdb80dd488acf86d17c747445b0eabb5d57c541d3bd7b6b87af987858e5066b2b",
            "0x000000000000000000000000ce5485cfb26914c5dce00b9baf0580364dafc7a4",
            "0x0594c1582459ea03f77deaf9eb7e3917d6994a03c13405ba42867f83d85f085d",
            "0x008bce41827dd5484d80312a2e43bc42a896e3fcf75bf84c2b49339168dfa00a"
          ],
          "data": "0x0000000000000000000000000000000000000000000000000000000000000060000000000000000000000000000000000000000000000000000000000000278100000000000000000000000000000000000000000000000000038d7ea4c68000000000000000000000000000000000000000000000000000000000000000000d000000000000000000000000ca14007eff0db1f8135f4c25b34de49ab0d4276600000000000000000000000037bbd079182437e5539f5502d941511decbf644e03e6614bcb616ced009959d75803257971686ac7af7f18dd969cc1351e0d98c800000000000000000000000000000000000000000000000000038d7ea4c68000000000000000000000000000000000000000000000000000000000000000000000000000000000000000000000000000000000000000000000000000000000070000000000000000000000000000000000000000000000000000000000000000000000000000000000000000ddb342ecc94236c29a5307d3757d0724d759453c04718f5a0fc34cc1af16a1cdee98ffb20c31f5cd61d6ab07201858f4287c938d053b40a647cedfca6ca84f542a0fe36736031905a9639a7f19a3c1e66bfd5080000000000000000000000000000000000000000000000000000000000000000000000000000000000000000000000000000000000000000000000000672cdab000000000000000000000000000000000000000000000000000000000672cdaf0",
          "blockHash": "0xe8986761bddab20b651441144432bfb71bdafc14090394aabbd3689454d95e42",
          "blockNumber": "0x6b4853",
          "transactionHash": "0xc92a3dda38811afe9c1ba28c0f7e6cfa7a82fa46af36a8da5ed818990bae8002",
          "transactionIndex": "0x6",
          "logIndex": "0x8",
          "removed": false
        },
        {
          "address": "0xcE5485Cfb26914C5dcE00B9BAF0580364daFC7a4",
          "topics": [
            "0x2203a49c69f1a46c1164f5e4a30643dd77b7c59c0ff9bc433256048365c247f1",
            "0x00000000000000000000000037bbd079182437e5539f5502d941511decbf644e",
            "0x000000000000000000000000ca14007eff0db1f8135f4c25b34de49ab0d42766",
            "0x03e6614bcb616ced009959d75803257971686ac7af7f18dd969cc1351e0d98c8"
          ],
          "data": "0x00000000000000000000000000000000000000000000000000038d7ea4c680000000000000000000000000000000000000000000000000000000000000000080000000000000000000000000000000000000000000000000000000000000278100000000000000000000000000000000000000000000000000038d7ea4c6800000000000000000000000000000000000000000000000000000000000000000070000000000000000000000000000000000000000000000000000000000000000000000000000000000000000ddb342ecc94236c29a5307d3757d0724d759453c04718f5a0fc34cc1af16a1cdee98ffb20c31f5cd61d6ab07201858f4287c938d053b40a647cedfca6ca84f542a0fe36736031905a9639a7f19a3c1e66bfd5080000000000000000000000000000000000000000000000000000000000000000000000000000000000000000000000000000000000000000000000000672cdab000000000000000000000000000000000000000000000000000000000672cdaf0",
          "blockHash": "0xe8986761bddab20b651441144432bfb71bdafc14090394aabbd3689454d95e42",
          "blockNumber": "0x6b4853",
          "transactionHash": "0xc92a3dda38811afe9c1ba28c0f7e6cfa7a82fa46af36a8da5ed818990bae8002",
          "transactionIndex": "0x6",
          "logIndex": "0x9",
          "removed": false
        },
        {
          "address": "0x37BbD079182437e5539F5502D941511decBf644e",
          "topics": [
            "0xaf43445f7721522b7a3864ed3de53d7e2e658bfa1eeffa18e1e229be68ce2545",
            "0x000000000000000000000000ddb342ecc94236c29a5307d3757d0724d759453c",
            "0x03e6614bcb616ced009959d75803257971686ac7af7f18dd969cc1351e0d98c8"
          ],
          "data": "0x00000000000000000000000000000000000000000000000000038d7ea4c680000000000000000000000000000000000000000000000000000000000000000001",
          "blockHash": "0xe8986761bddab20b651441144432bfb71bdafc14090394aabbd3689454d95e42",
          "blockNumber": "0x6b4853",
          "transactionHash": "0xc92a3dda38811afe9c1ba28c0f7e6cfa7a82fa46af36a8da5ed818990bae8002",
          "transactionIndex": "0x6",
          "logIndex": "0xa",
          "removed": false
        }
      ],
      "status": "0x1",
      "logsBloom": "0x00000200000000000000000000020000000020000000000000000040000000000000000000000000000000000000000000000000000004000000020000200000000000000000000000000008080000000000000000000040001000000000800600000000100000000000000000000000400000000000000000000010400008002000000000000000000000020000000000008000000200000000000000000010020000800000004000000020000000021000000000000200000000000000000000800002020000024010000000000000000000200004000000800000000000000810000000010000000000020004000000000040001000000000000000000000",
      "type": "0x2",
      "effectiveGasPrice": "0x1b9f9265d"
    }
  ],
  "libraries": [],
  "pending": [],
  "returns": {},
  "timestamp": 1730992867,
  "chain": 11155111,
  "multi": false,
  "commit": "e344443"
}