{
  "transactions": [
    {
      "hash": "0xe79377c2cebccdfd36ac76b4ff34e62b62add4af83b84f740e0e771015cad28f",
      "transactionType": "CALL",
      "contractName": "StarkNetToken",
      "contractAddress": "0xCa14007Eff0dB1f8135f4C25B34De49AB0d42766",
      "function": "approve(address,uint256)",
      "arguments": [
        "0x7eb4C59eABE1234E8A6D02FdF4d1BB595C4702Cd",
        "115792089237316195423570985008687907853269984665640564039457584007913129639935"
      ],
      "transaction": {
        "type": "0x02",
        "from": "0xddb342ecc94236c29a5307d3757d0724d759453c",
        "to": "0xca14007eff0db1f8135f4c25b34de49ab0d42766",
        "gas": "0x93a9",
        "value": "0x0",
        "data": "0x095ea7b30000000000000000000000007eb4c59eabe1234e8a6d02fdf4d1bb595c4702cdffffffffffffffffffffffffffffffffffffffffffffffffffffffffffffffff",
        "nonce": "0x391",
        "accessList": []
      },
      "additionalContracts": [],
      "isFixedGasLimit": false
    },
    {
      "hash": "0x0e75d53a1296038d43fd82b6e3e6f933e0aa4938f4fd44a3b83a00eda65ac060",
      "transactionType": "CALL",
      "contractName": "StarkNetToken",
      "contractAddress": "0xCa14007Eff0dB1f8135f4C25B34De49AB0d42766",
      "function": "transfer(address,uint256)",
      "arguments": [
        "0xcE5485Cfb26914C5dcE00B9BAF0580364daFC7a4",
        "500000000000000"
      ],
      "transaction": {
        "type": "0x02",
        "from": "0xddb342ecc94236c29a5307d3757d0724d759453c",
        "to": "0xca14007eff0db1f8135f4c25b34de49ab0d42766",
        "gas": "0xe427",
        "value": "0x0",
        "data": "0xa9059cbb000000000000000000000000ce5485cfb26914c5dce00b9baf0580364dafc7a40000000000000000000000000000000000000000000000000001c6bf52634000",
        "nonce": "0x392",
        "accessList": []
      },
      "additionalContracts": [],
      "isFixedGasLimit": false
    },
    {
      "hash": "0x0714e8f6cf9b46abb2a19ca981521d960615c6b73f90bb388fc75f95c8c65327",
      "transactionType": "CALL",
      "contractName": "Proxy",
      "contractAddress": "0xcE5485Cfb26914C5dcE00B9BAF0580364daFC7a4",
      "function": "deposit(uint256,uint256)",
      "arguments": [
        "500000000000000",
        "1260982957119863879256996864418490802570835642900898883839531106374629143480"
      ],
      "transaction": {
        "type": "0x02",
        "from": "0xddb342ecc94236c29a5307d3757d0724d759453c",
        "to": "0xce5485cfb26914c5dce00b9baf0580364dafc7a4",
        "gas": "0x2c24e",
        "value": "0x1c6bf52634000",
        "data": "0xe2bbb1580000000000000000000000000000000000000000000000000001c6bf5263400002c9b0e967948762be38c87ac131d2958f7988d6aff58885993f1c186a5333b8",
        "nonce": "0x393",
        "accessList": []
      },
      "additionalContracts": [],
      "isFixedGasLimit": false
    }
  ],
  "receipts": [],
  "libraries": [],
  "pending": [
    "0xe79377c2cebccdfd36ac76b4ff34e62b62add4af83b84f740e0e771015cad28f",
    "0x0e75d53a1296038d43fd82b6e3e6f933e0aa4938f4fd44a3b83a00eda65ac060",
    "0x0714e8f6cf9b46abb2a19ca981521d960615c6b73f90bb388fc75f95c8c65327"
  ],
  "returns": {},
  "timestamp": 1732714196,
  "chain": 11155111,
  "multi": false,
  "commit": "1254ada"
}