{
  "transactions": [
    {
      "hash": "0x22f1b139b5a0879440d49e55a878f4b2e32b356c548a2bba65ae16459b88c6d9",
      "transactionType": "CALL",
      "contractName": "StarkNetToken",
      "contractAddress": "0xCa14007Eff0dB1f8135f4C25B34De49AB0d42766",
      "function": "approve(address,uint256)",
      "arguments": [
        "0x7eb4C59eABE1234E8A6D02FdF4d1BB595C4702Cd",
        "115792089237316195423570985008687907853269984665640564039457584007913129639935"
      ],
      "transaction": {
        "type": "0x02",
        "from": "0xddb342ecc94236c29a5307d3757d0724d759453c",
        "to": "0xca14007eff0db1f8135f4c25b34de49ab0d42766",
        "gas": "0x93a9",
        "value": "0x0",
        "data": "0x095ea7b30000000000000000000000007eb4c59eabe1234e8a6d02fdf4d1bb595c4702cdffffffffffffffffffffffffffffffffffffffffffffffffffffffffffffffff",
        "nonce": "0x375",
        "accessList": []
      },
      "additionalContracts": [],
      "isFixedGasLimit": false
    },
    {
      "hash": "0xab661d052651ce65f718edda9bbbbb13d1e2f788022c160d256339be0a92ad8a",
      "transactionType": "CALL",
      "contractName": null,
      "contractAddress": "0x7eb4C59eABE1234E8A6D02FdF4d1BB595C4702Cd",
      "function": "setL2EndpointAddress(uint256)",
      "arguments": [
        "3574983005729108333785250415627542978423840714815849409351804065483114960853"
      ],
      "transaction": {
        "type": "0x02",
        "from": "0xddb342ecc94236c29a5307d3757d0724d759453c",
        "to": "0x7eb4c59eabe1234e8a6d02fdf4d1bb595c4702cd",
        "gas": "0xabab",
        "value": "0x0",
        "data": "0x5155fb2f07e75e6188d73aaa530e1e5ae0b405dc8f4f73323cba3f63470fc94f31f457d5",
        "nonce": "0x376",
        "accessList": []
      },
      "additionalContracts": [],
      "isFixedGasLimit": false
    }
  ],
  "receipts": [
    {
      "transactionHash": "0x22f1b139b5a0879440d49e55a878f4b2e32b356c548a2bba65ae16459b88c6d9",
      "transactionIndex": "0x3",
      "blockHash": "0x968760e66412497a6272a2473e32e35aed6913bf9f87fac28574ca84960de58e",
      "blockNumber": "0x6d3bef",
      "from": "0xDdb342ecc94236c29a5307d3757d0724D759453C",
      "to": "0xCa14007Eff0dB1f8135f4C25B34De49AB0d42766",
      "cumulativeGasUsed": "0x689b6",
      "gasUsed": "0x6ae8",
      "contractAddress": null,
      "logs": [
        {
          "address": "0xCa14007Eff0dB1f8135f4C25B34De49AB0d42766",
          "topics": [
            "0x8c5be1e5ebec7d5bd14f71427d1e84f3dd0314c0f7b2291e5b200ac8c7c3b925",
            "0x000000000000000000000000ddb342ecc94236c29a5307d3757d0724d759453c",
            "0x0000000000000000000000007eb4c59eabe1234e8a6d02fdf4d1bb595c4702cd"
          ],
          "data": "0xffffffffffffffffffffffffffffffffffffffffffffffffffffffffffffffff",
          "blockHash": "0x968760e66412497a6272a2473e32e35aed6913bf9f87fac28574ca84960de58e",
          "blockNumber": "0x6d3bef",
          "transactionHash": "0x22f1b139b5a0879440d49e55a878f4b2e32b356c548a2bba65ae16459b88c6d9",
          "transactionIndex": "0x3",
          "logIndex": "0x7",
          "removed": false
        }
      ],
      "status": "0x1",
      "logsBloom": "0x00000000000000100000000000000000000000000000000000000000000000000000000000000000000000000000000000000000000000000000000000200000000000000000000000000000000000000000000000000000000000000000000400020000000000000000000000000000400000000000000000000000400000000000000000000000000000000000000000000000000000000000000000000000020000000000000000000000000000008000000000000000000000000000000000000000000000020000000000000000000000000000000000800000000000000010000000000000000000000000000000000000001000000000000000000000",
      "type": "0x2",
      "effectiveGasPrice": "0x104051e40"
    },
    {
      "transactionHash": "0xab661d052651ce65f718edda9bbbbb13d1e2f788022c160d256339be0a92ad8a",
      "transactionIndex": "0x4",
      "blockHash": "0x968760e66412497a6272a2473e32e35aed6913bf9f87fac28574ca84960de58e",
      "blockNumber": "0x6d3bef",
      "from": "0xDdb342ecc94236c29a5307d3757d0724D759453C",
      "to": "0x7eb4C59eABE1234E8A6D02FdF4d1BB595C4702Cd",
      "cumulativeGasUsed": "0x6ff18",
      "gasUsed": "0x7562",
      "contractAddress": null,
      "logs": [
        {
          "address": "0x7eb4C59eABE1234E8A6D02FdF4d1BB595C4702Cd",
          "topics": [
            "0xa35dce9e53611b0cabca886209c4a1d09c80214af9b6fb6027f7b2f7c39838e8"
          ],
          "data": "0x07e75e6188d73aaa530e1e5ae0b405dc8f4f73323cba3f63470fc94f31f457d5",
          "blockHash": "0x968760e66412497a6272a2473e32e35aed6913bf9f87fac28574ca84960de58e",
          "blockNumber": "0x6d3bef",
          "transactionHash": "0xab661d052651ce65f718edda9bbbbb13d1e2f788022c160d256339be0a92ad8a",
          "transactionIndex": "0x4",
          "logIndex": "0x8",
          "removed": false
        }
      ],
      "status": "0x1",
      "logsBloom": "0x00000000000000000000000010000000000000000000000000000000000000000000000000000000000000000000000000000000000000200000000000000000000000000000000000000000000200000000000000000000000000000000000000000000000000000000000000000000000000000000000000000001000000000000000000000000000000000000000000000000000000000000000000000000800000000000000000000000000000200000000000000000000000000000000000000000000000000000000000000000000000000000000000000000000000000000000000000000000000000000000000000000000000000000000000000000",
      "type": "0x2",
      "effectiveGasPrice": "0x104051e40"
    }
  ],
  "libraries": [],
  "pending": [],
  "returns": {},
  "timestamp": 1732653856,
  "chain": 11155111,
  "multi": false,
  "commit": "1254ada"
}