{
  "transactions": [
    {
      "hash": "0xee8a9addad40c08f4f80b8a7f56386045195aa0cebe0c07b8627c498f0ce2efa",
      "transactionType": "CALL",
      "contractName": null,
      "contractAddress": "0x17ceb8da41205f1026241766328751884afa7fe8",
      "function": "setL2EndpointAddress(uint256)",
      "arguments": [
        "2567391702517330908147284909971791477627590599643031615962519229588461693677"
      ],
      "transaction": {
        "from": "0xddb342ecc94236c29a5307d3757d0724d759453c",
        "to": "0x17ceb8da41205f1026241766328751884afa7fe8",
        "gas": "0xa23f",
        "value": "0x0",
        "input": "0x5155fb2f05ad179af127a7c4690ab7e60c6064b5e7f8c41d3be13f67f3a3389d1849aaed",
        "nonce": "0x50d",
        "chainId": "0xaa36a7"
      },
      "additionalContracts": [],
      "isFixedGasLimit": false
    }
  ],
  "receipts": [
    {
      "status": "0x1",
      "cumulativeGasUsed": "0xfd88ee",
      "logs": [
        {
          "address": "0x17ceb8da41205f1026241766328751884afa7fe8",
          "topics": [
            "0xa35dce9e53611b0cabca886209c4a1d09c80214af9b6fb6027f7b2f7c39838e8"
          ],
          "data": "0x05ad179af127a7c4690ab7e60c6064b5e7f8c41d3be13f67f3a3389d1849aaed",
          "blockHash": "0x02961a663a39ddd7dd27bd2d4c1bd5e636fafa48151c3d021f6d4616f0324127",
          "blockNumber": "0x730c07",
          "transactionHash": "0xee8a9addad40c08f4f80b8a7f56386045195aa0cebe0c07b8627c498f0ce2efa",
          "transactionIndex": "0x6d",
          "logIndex": "0xa7",
          "removed": false
        }
      ],
      "logsBloom": "0x00000000000000000000000010000000000000000000000000000000000000000000000000000000000000000000000000000000000000000000000000000000000000000000000000000000000200000000000000000000000000000000000000000000000000000000000000000000000000000000000000000000000000000000000000000000000000000000000000000000000000000000000000000000800000000000000000000000000000000000000004000000000000000000002800000000000000000000000000000000000000000000000000000000000000000000000000000000000000000000000000000000000000000000000000000000",
      "type": "0x2",
      "transactionHash": "0xee8a9addad40c08f4f80b8a7f56386045195aa0cebe0c07b8627c498f0ce2efa",
      "transactionIndex": "0x6d",
      "blockHash": "0x02961a663a39ddd7dd27bd2d4c1bd5e636fafa48151c3d021f6d4616f0324127",
      "blockNumber": "0x730c07",
      "gasUsed": "0x7577",
      "effectiveGasPrice": "0xe8c27e8e",
      "from": "0xddb342ecc94236c29a5307d3757d0724d759453c",
      "to": "0x17ceb8da41205f1026241766328751884afa7fe8",
      "contractAddress": null
    }
  ],
  "libraries": [],
  "pending": [],
  "returns": {},
  "timestamp": 1737460968,
  "chain": 11155111,
  "commit": "fcbff6b"
}