{
  "transactions": [
    {
      "hash": "0x5007b5302a4225b7735237e63cdb66689c78601007b772b3153ee159aeaa39e0",
      "transactionType": "CALL",
      "contractName": null,
      "contractAddress": "0xca14007eff0db1f8135f4c25b34de49ab0d42766",
      "function": "approve(address,uint256)",
      "arguments": [
        "0xC9e9844BCF3c6e5dAD789214967dAa9f20A004Ef",
        "115792089237316195423570985008687907853269984665640564039457584007913129639935"
      ],
      "transaction": {
        "from": "0x1b382a7b4496f14e0aaa2da1e1626da400426a03",
        "to": "0xca14007eff0db1f8135f4c25b34de49ab0d42766",
        "gas": "0xff08",
        "value": "0x0",
        "input": "0x095ea7b3000000000000000000000000c9e9844bcf3c6e5dad789214967daa9f20a004efffffffffffffffffffffffffffffffffffffffffffffffffffffffffffffffff",
        "nonce": "0xd0",
        "chainId": "0xaa36a7"
      },
      "additionalContracts": [],
      "isFixedGasLimit": false
    },
    {
      "hash": "0x10df3579180a115db32219f1dc8b4d9d679012dafbcb32929679a2eca4114477",
      "transactionType": "CALL",
      "contractName": null,
      "contractAddress": "0xca14007eff0db1f8135f4c25b34de49ab0d42766",
      "function": "transfer(address,uint256)",
      "arguments": [
        "0xC9e9844BCF3c6e5dAD789214967dAa9f20A004Ef",
        "10000000000000000"
      ],
      "transaction": {
        "from": "0x1b382a7b4496f14e0aaa2da1e1626da400426a03",
        "to": "0xca14007eff0db1f8135f4c25b34de49ab0d42766",
        "gas": "0x145c6",
        "value": "0x0",
        "input": "0xa9059cbb000000000000000000000000c9e9844bcf3c6e5dad789214967daa9f20a004ef000000000000000000000000000000000000000000000000002386f26fc10000",
        "nonce": "0xd1",
        "chainId": "0xaa36a7"
      },
      "additionalContracts": [],
      "isFixedGasLimit": false
    },
    {
      "hash": "0x723d17a5285a4038b697310081d5288c22d6693a4c0a0fa7990bce0c4f0eafdd",
      "transactionType": "CALL",
      "contractName": null,
      "contractAddress": "0xc9e9844bcf3c6e5dad789214967daa9f20a004ef",
      "function": "deposit(uint256,uint256)",
      "arguments": [
        "10000000000000000",
        "2169773808687659603100182366605025465472357345959668453959019803432951827096"
      ],
      "transaction": {
        "from": "0x1b382a7b4496f14e0aaa2da1e1626da400426a03",
        "to": "0xc9e9844bcf3c6e5dad789214967daa9f20a004ef",
        "gas": "0x2d759",
        "value": "0x2386f26fc10000",
        "input": "0xe2bbb158000000000000000000000000000000000000000000000000002386f26fc1000004cc0c67915e726014f5498f17898303cad4dbe637d1f6f34e53c31c7f294a98",
        "nonce": "0xd2",
        "chainId": "0xaa36a7"
      },
      "additionalContracts": [],
      "isFixedGasLimit": false
    }
  ],
  "receipts": [
    {
      "status": "0x1",
      "cumulativeGasUsed": "0x1083333",
      "logs": [
        {
          "address": "0xca14007eff0db1f8135f4c25b34de49ab0d42766",
          "topics": [
            "0x8c5be1e5ebec7d5bd14f71427d1e84f3dd0314c0f7b2291e5b200ac8c7c3b925",
            "0x0000000000000000000000001b382a7b4496f14e0aaa2da1e1626da400426a03",
            "0x000000000000000000000000c9e9844bcf3c6e5dad789214967daa9f20a004ef"
          ],
          "data": "0xffffffffffffffffffffffffffffffffffffffffffffffffffffffffffffffff",
          "blockHash": "0x1468ebb016b8fe0ac77d75e7a11abba6287832def70d81b2580db226b44ce84d",
          "blockNumber": "0x6b329a",
          "transactionHash": "0x5007b5302a4225b7735237e63cdb66689c78601007b772b3153ee159aeaa39e0",
          "transactionIndex": "0x1e",
          "logIndex": "0x18f",
          "removed": false
        }
      ],
      "logsBloom": "0x00000000000000000000000000000000000000000400000000000000000000000000000000000000000000000000000000000000000000000000000000200000000000000000000000000000000000000000000000000000000000000000000000000000000000000000000000000000000000010810000020000000000000040000000000000000000000000000000000000000000000000000000000000000020000000000000000000000000000000000000000000000000000000000000000000000000000020000000000000000000000000000000000800000000000000010000000000000000000000000000000000000001000000000000000000000",
      "type": "0x2",
      "transactionHash": "0x5007b5302a4225b7735237e63cdb66689c78601007b772b3153ee159aeaa39e0",
      "transactionIndex": "0x1e",
      "blockHash": "0x1468ebb016b8fe0ac77d75e7a11abba6287832def70d81b2580db226b44ce84d",
      "blockNumber": "0x6b329a",
      "gasUsed": "0xb8a4",
      "effectiveGasPrice": "0x1756a1527",
      "blobGasUsed": "0x0",
      "from": "0x1b382a7b4496f14e0aaa2da1e1626da400426a03",
      "to": "0xca14007eff0db1f8135f4c25b34de49ab0d42766",
      "contractAddress": null
    },
    {
      "status": "0x1",
      "cumulativeGasUsed": "0x10911f4",
      "logs": [
        {
          "address": "0xca14007eff0db1f8135f4c25b34de49ab0d42766",
          "topics": [
            "0xddf252ad1be2c89b69c2b068fc378daa952ba7f163c4a11628f55a4df523b3ef",
            "0x0000000000000000000000001b382a7b4496f14e0aaa2da1e1626da400426a03",
            "0x000000000000000000000000c9e9844bcf3c6e5dad789214967daa9f20a004ef"
          ],
          "data": "0x000000000000000000000000000000000000000000000000002386f26fc10000",
          "blockHash": "0x1468ebb016b8fe0ac77d75e7a11abba6287832def70d81b2580db226b44ce84d",
          "blockNumber": "0x6b329a",
          "transactionHash": "0x10df3579180a115db32219f1dc8b4d9d679012dafbcb32929679a2eca4114477",
          "transactionIndex": "0x1f",
          "logIndex": "0x190",
          "removed": false
        }
      ],
      "logsBloom": "0x00000000000000000000000000000000000000000400000000000000000000000000000000000000000000000000000000000000000000000000000000000000000000000000000000000008000000000000000000000000000000000000000000000000000000000000000000000000000000010810000020000010000000040000000000000000000000000000000000000000000000000000000000000000000000000000000000000000000000000000000000000000000000000000000000000002000000020000000000000000000000000000000000800000000000000000000000000000000000000000000000000000001000000000000000000000",
      "type": "0x2",
      "transactionHash": "0x10df3579180a115db32219f1dc8b4d9d679012dafbcb32929679a2eca4114477",
      "transactionIndex": "0x1f",
      "blockHash": "0x1468ebb016b8fe0ac77d75e7a11abba6287832def70d81b2580db226b44ce84d",
      "blockNumber": "0x6b329a",
      "gasUsed": "0xdec1",
      "effectiveGasPrice": "0x1756a1527",
      "blobGasUsed": "0x0",
      "from": "0x1b382a7b4496f14e0aaa2da1e1626da400426a03",
      "to": "0xca14007eff0db1f8135f4c25b34de49ab0d42766",
      "contractAddress": null
    },
    {
      "status": "0x1",
      "cumulativeGasUsed": "0x10b208b",
      "logs": [
        {
          "address": "0xca14007eff0db1f8135f4c25b34de49ab0d42766",
          "topics": [
            "0x8c5be1e5ebec7d5bd14f71427d1e84f3dd0314c0f7b2291e5b200ac8c7c3b925",
            "0x000000000000000000000000c9e9844bcf3c6e5dad789214967daa9f20a004ef",
            "0x000000000000000000000000ce5485cfb26914c5dce00b9baf0580364dafc7a4"
          ],
          "data": "0x000000000000000000000000000000000000000000000000002386f26fc10000",
          "blockHash": "0x1468ebb016b8fe0ac77d75e7a11abba6287832def70d81b2580db226b44ce84d",
          "blockNumber": "0x6b329a",
          "transactionHash": "0x723d17a5285a4038b697310081d5288c22d6693a4c0a0fa7990bce0c4f0eafdd",
          "transactionIndex": "0x20",
          "logIndex": "0x191",
          "removed": false
        },
        {
          "address": "0xca14007eff0db1f8135f4c25b34de49ab0d42766",
          "topics": [
            "0x8c5be1e5ebec7d5bd14f71427d1e84f3dd0314c0f7b2291e5b200ac8c7c3b925",
            "0x000000000000000000000000c9e9844bcf3c6e5dad789214967daa9f20a004ef",
            "0x000000000000000000000000ce5485cfb26914c5dce00b9baf0580364dafc7a4"
          ],
          "data": "0x0000000000000000000000000000000000000000000000000000000000000000",
          "blockHash": "0x1468ebb016b8fe0ac77d75e7a11abba6287832def70d81b2580db226b44ce84d",
          "blockNumber": "0x6b329a",
          "transactionHash": "0x723d17a5285a4038b697310081d5288c22d6693a4c0a0fa7990bce0c4f0eafdd",
          "transactionIndex": "0x20",
          "logIndex": "0x192",
          "removed": false
        },
        {
          "address": "0xca14007eff0db1f8135f4c25b34de49ab0d42766",
          "topics": [
            "0xddf252ad1be2c89b69c2b068fc378daa952ba7f163c4a11628f55a4df523b3ef",
            "0x000000000000000000000000c9e9844bcf3c6e5dad789214967daa9f20a004ef",
            "0x000000000000000000000000ce5485cfb26914c5dce00b9baf0580364dafc7a4"
          ],
          "data": "0x000000000000000000000000000000000000000000000000002386f26fc10000",
          "blockHash": "0x1468ebb016b8fe0ac77d75e7a11abba6287832def70d81b2580db226b44ce84d",
          "blockNumber": "0x6b329a",
          "transactionHash": "0x723d17a5285a4038b697310081d5288c22d6693a4c0a0fa7990bce0c4f0eafdd",
          "transactionIndex": "0x20",
          "logIndex": "0x193",
          "removed": false
        },
        {
          "address": "0xe2bb56ee936fd6433dc0f6e7e3b8365c906aa057",
          "topics": [
            "0xdb80dd488acf86d17c747445b0eabb5d57c541d3bd7b6b87af987858e5066b2b",
            "0x000000000000000000000000ce5485cfb26914c5dce00b9baf0580364dafc7a4",
            "0x0594c1582459ea03f77deaf9eb7e3917d6994a03c13405ba42867f83d85f085d",
            "0x01b64b1b3b690b43b9b514fb81377518f4039cd3e4f4914d8a6bdf01d679fb19"
          ],
          "data": "0x0000000000000000000000000000000000000000000000000000000000000060000000000000000000000000000000000000000000000000000000000000276c000000000000000000000000000000000000000000000000002386f26fc100000000000000000000000000000000000000000000000000000000000000000005000000000000000000000000ca14007eff0db1f8135f4c25b34de49ab0d42766000000000000000000000000c9e9844bcf3c6e5dad789214967daa9f20a004ef03a4b7e2d060bd8eb48e2db10f16c1303b131c266cc928902c3a3a8ead7e386d000000000000000000000000000000000000000000000000002386f26fc100000000000000000000000000000000000000000000000000000000000000000000",
          "blockHash": "0x1468ebb016b8fe0ac77d75e7a11abba6287832def70d81b2580db226b44ce84d",
          "blockNumber": "0x6b329a",
          "transactionHash": "0x723d17a5285a4038b697310081d5288c22d6693a4c0a0fa7990bce0c4f0eafdd",
          "transactionIndex": "0x20",
          "logIndex": "0x194",
          "removed": false
        },
        {
          "address": "0xce5485cfb26914c5dce00b9baf0580364dafc7a4",
          "topics": [
            "0x5f971bd00bf3ffbca8a6d72cdd4fd92cfd4f62636161921d1e5a64f0b64ccb6d",
            "0x000000000000000000000000c9e9844bcf3c6e5dad789214967daa9f20a004ef",
            "0x000000000000000000000000ca14007eff0db1f8135f4c25b34de49ab0d42766",
            "0x03a4b7e2d060bd8eb48e2db10f16c1303b131c266cc928902c3a3a8ead7e386d"
          ],
          "data": "0x000000000000000000000000000000000000000000000000002386f26fc10000000000000000000000000000000000000000000000000000000000000000276c000000000000000000000000000000000000000000000000002386f26fc10000",
          "blockHash": "0x1468ebb016b8fe0ac77d75e7a11abba6287832def70d81b2580db226b44ce84d",
          "blockNumber": "0x6b329a",
          "transactionHash": "0x723d17a5285a4038b697310081d5288c22d6693a4c0a0fa7990bce0c4f0eafdd",
          "transactionIndex": "0x20",
          "logIndex": "0x195",
          "removed": false
        }
      ],
      "logsBloom": "0x00000000000000000200000000020000000000000400000000000002000000400000000000000000000000000000000000000000000004000000000000200000000000000000000000000008080000000000000000000040001000000000000000000000100000000000000000000000000000010800000000000010000008002000000000000000000000000400000000000000000200000100020000000010020000000000000000000020000000001000000000000020000000000000000000000002000000024010000000000000000000200000000000800000200000000010000000010000000000020084000000000000001000000000000000000000",
      "type": "0x2",
      "transactionHash": "0x723d17a5285a4038b697310081d5288c22d6693a4c0a0fa7990bce0c4f0eafdd",
      "transactionIndex": "0x20",
      "blockHash": "0x1468ebb016b8fe0ac77d75e7a11abba6287832def70d81b2580db226b44ce84d",
      "blockNumber": "0x6b329a",
      "gasUsed": "0x20e97",
      "effectiveGasPrice": "0x1756a1527",
      "blobGasUsed": "0x0",
      "from": "0x1b382a7b4496f14e0aaa2da1e1626da400426a03",
      "to": "0xc9e9844bcf3c6e5dad789214967daa9f20a004ef",
      "contractAddress": null
    }
  ],
  "libraries": [],
  "pending": [],
  "returns": {},
  "timestamp": 1730919836,
  "chain": 11155111,
  "commit": "ed7f201"
}