{
  "transactions": [
    {
      "hash": "0xca80c2d0fafe5318903ca399ab3abdce29765043b34b0fd38da6f707cfdf13eb",
      "transactionType": "CALL",
      "contractName": "FiatTokenProxy",
      "contractAddress": "0x1c7D4B196Cb0C7B01d743Fbc6116a902379C7238",
      "function": "approve(address,uint256)",
      "arguments": [
        "0xD427eF25FDc5387419E5489c58817c0A5Cf3c75c",
        "115792089237316195423570985008687907853269984665640564039457584007913129639935"
      ],
      "transaction": {
        "type": "0x02",
        "from": "0xddb342ecc94236c29a5307d3757d0724d759453c",
        "to": "0x1c7d4b196cb0c7b01d743fbc6116a902379c7238",
        "gas": "0x13eb1",
        "value": "0x0",
        "data": "0x095ea7b3000000000000000000000000d427ef25fdc5387419e5489c58817c0a5cf3c75cffffffffffffffffffffffffffffffffffffffffffffffffffffffffffffffff",
        "nonce": "0x1c4",
        "accessList": []
      },
      "additionalContracts": [],
      "isFixedGasLimit": false
    },
    {
      "hash": "0x63822c337708753052218f2e56947c1d45d6d8afa981404fcdea8d26ccf6945d",
      "transactionType": "CALL",
      "contractName": "FiatTokenProxy",
      "contractAddress": "0x1c7D4B196Cb0C7B01d743Fbc6116a902379C7238",
      "function": "transfer(address,uint256)",
      "arguments": [
        "0xD427eF25FDc5387419E5489c58817c0A5Cf3c75c",
        "500000"
      ],
      "transaction": {
        "type": "0x02",
        "from": "0xddb342ecc94236c29a5307d3757d0724d759453c",
        "to": "0x1c7d4b196cb0c7b01d743fbc6116a902379c7238",
        "gas": "0x14f5f",
        "value": "0x0",
        "data": "0xa9059cbb000000000000000000000000d427ef25fdc5387419e5489c58817c0a5cf3c75c000000000000000000000000000000000000000000000000000000000007a120",
        "nonce": "0x1c5",
        "accessList": []
      },
      "additionalContracts": [],
      "isFixedGasLimit": false
    },
    {
      "hash": "0x5867b0e42c09fe61b5b11638df908e08c9225e0f911d6cd6c0b994c92a24309b",
      "transactionType": "CALL",
      "contractName": "L1TWAMMBridge",
      "contractAddress": "0xD427eF25FDc5387419E5489c58817c0A5Cf3c75c",
      "function": "deposit(uint256,uint256)",
      "arguments": [
        "500000",
        "3448955879387317019440412050333663271322012594403852352000556290394369811302"
      ],
      "transaction": {
        "type": "0x02",
        "from": "0xddb342ecc94236c29a5307d3757d0724d759453c",
        "to": "0xd427ef25fdc5387419e5489c58817c0a5cf3c75c",
        "gas": "0x2ee00",
        "value": "0x2386f26fc10000",
        "data": "0xe2bbb158000000000000000000000000000000000000000000000000000000000007a12007a00a339cdbdc4bed0f4920a0e58bb23202bf8c219c359fe1b1bb9a3c5fe366",
        "nonce": "0x1c6",
        "accessList": []
      },
      "additionalContracts": [],
      "isFixedGasLimit": false
    }
  ],
  "receipts": [
    {
      "transactionHash": "0xca80c2d0fafe5318903ca399ab3abdce29765043b34b0fd38da6f707cfdf13eb",
      "transactionIndex": "0x18",
      "blockHash": "0xb125338bc9933e9f2c8973b8bf5c3a38ec0eb57c11ff60aaa2d4b36697e5161f",
      "blockNumber": "0x6b28a5",
      "from": "0xDdb342ecc94236c29a5307d3757d0724D759453C",
      "to": "0x1c7D4B196Cb0C7B01d743Fbc6116a902379C7238",
      "cumulativeGasUsed": "0x645ac9",
      "gasUsed": "0xd9e9",
      "contractAddress": null,
      "logs": [
        {
          "address": "0x1c7D4B196Cb0C7B01d743Fbc6116a902379C7238",
          "topics": [
            "0x8c5be1e5ebec7d5bd14f71427d1e84f3dd0314c0f7b2291e5b200ac8c7c3b925",
            "0x000000000000000000000000ddb342ecc94236c29a5307d3757d0724d759453c",
            "0x000000000000000000000000d427ef25fdc5387419e5489c58817c0a5cf3c75c"
          ],
          "data": "0xffffffffffffffffffffffffffffffffffffffffffffffffffffffffffffffff",
          "blockHash": "0xb125338bc9933e9f2c8973b8bf5c3a38ec0eb57c11ff60aaa2d4b36697e5161f",
          "blockNumber": "0x6b28a5",
          "transactionHash": "0xca80c2d0fafe5318903ca399ab3abdce29765043b34b0fd38da6f707cfdf13eb",
          "transactionIndex": "0x18",
          "logIndex": "0x31",
          "removed": false
        }
      ],
      "status": "0x1",
      "logsBloom": "0x00000000000000000000000000000000000000000000000000000000000200000000000000000000000000000000000000000000000000000000000000200000000000000000000000000000000000000000000000000000000000000000000400000000000000000000000000000000400000000000000000000000400000000000000000100000000000000000000000000000000000000000000000000000020000200000000000000000000000000000000000000000000000000000000000000000000000000000000000008000000000000000000000000000000000000010000000000000000010100000000000000000000000000000000000000000",
      "type": "0x2",
      "effectiveGasPrice": "0x343f5e4f1"
    },
    {
      "transactionHash": "0x63822c337708753052218f2e56947c1d45d6d8afa981404fcdea8d26ccf6945d",
      "transactionIndex": "0x19",
      "blockHash": "0xb125338bc9933e9f2c8973b8bf5c3a38ec0eb57c11ff60aaa2d4b36697e5161f",
      "blockNumber": "0x6b28a5",
      "from": "0xDdb342ecc94236c29a5307d3757d0724D759453C",
      "to": "0x1c7D4B196Cb0C7B01d743Fbc6116a902379C7238",
      "cumulativeGasUsed": "0x654d98",
      "gasUsed": "0xf2cf",
      "contractAddress": null,
      "logs": [
        {
          "address": "0x1c7D4B196Cb0C7B01d743Fbc6116a902379C7238",
          "topics": [
            "0xddf252ad1be2c89b69c2b068fc378daa952ba7f163c4a11628f55a4df523b3ef",
            "0x000000000000000000000000ddb342ecc94236c29a5307d3757d0724d759453c",
            "0x000000000000000000000000d427ef25fdc5387419e5489c58817c0a5cf3c75c"
          ],
          "data": "0x000000000000000000000000000000000000000000000000000000000007a120",
          "blockHash": "0xb125338bc9933e9f2c8973b8bf5c3a38ec0eb57c11ff60aaa2d4b36697e5161f",
          "blockNumber": "0x6b28a5",
          "transactionHash": "0x63822c337708753052218f2e56947c1d45d6d8afa981404fcdea8d26ccf6945d",
          "transactionIndex": "0x19",
          "logIndex": "0x32",
          "removed": false
        }
      ],
      "status": "0x1",
      "logsBloom": "0x00000000000000000000000000000000000000000000000000000000000200000000000000000000000000000000000000000000000000000000000000000000000000000000000000000008000000000000000000000000000000000000000400000000000000000000000000000000400000000000000000000010400000000000000000100000000000000000000000000000000000000000000000000000000000200000000000000000000000000000000000000000000000000000000000000002000000000000000000008000000000000000000000000000000000000000000000000000000010100000000000000000000000000000000000000000",
      "type": "0x2",
      "effectiveGasPrice": "0x343f5e4f1"
    },
    {
      "transactionHash": "0x5867b0e42c09fe61b5b11638df908e08c9225e0f911d6cd6c0b994c92a24309b",
      "transactionIndex": "0x1a",
      "blockHash": "0xb125338bc9933e9f2c8973b8bf5c3a38ec0eb57c11ff60aaa2d4b36697e5161f",
      "blockNumber": "0x6b28a5",
      "from": "0xDdb342ecc94236c29a5307d3757d0724D759453C",
      "to": "0xD427eF25FDc5387419E5489c58817c0A5Cf3c75c",
      "cumulativeGasUsed": "0x676c96",
      "gasUsed": "0x21efe",
      "contractAddress": null,
      "logs": [
        {
          "address": "0x1c7D4B196Cb0C7B01d743Fbc6116a902379C7238",
          "topics": [
            "0x8c5be1e5ebec7d5bd14f71427d1e84f3dd0314c0f7b2291e5b200ac8c7c3b925",
            "0x000000000000000000000000d427ef25fdc5387419e5489c58817c0a5cf3c75c",
            "0x00000000000000000000000086dc0b32a5045ffa48d9a60b7e7ca32f11facd7b"
          ],
          "data": "0x000000000000000000000000000000000000000000000000000000000007a120",
          "blockHash": "0xb125338bc9933e9f2c8973b8bf5c3a38ec0eb57c11ff60aaa2d4b36697e5161f",
          "blockNumber": "0x6b28a5",
          "transactionHash": "0x5867b0e42c09fe61b5b11638df908e08c9225e0f911d6cd6c0b994c92a24309b",
          "transactionIndex": "0x1a",
          "logIndex": "0x33",
          "removed": false
        },
        {
          "address": "0x1c7D4B196Cb0C7B01d743Fbc6116a902379C7238",
          "topics": [
            "0xddf252ad1be2c89b69c2b068fc378daa952ba7f163c4a11628f55a4df523b3ef",
            "0x000000000000000000000000d427ef25fdc5387419e5489c58817c0a5cf3c75c",
            "0x00000000000000000000000086dc0b32a5045ffa48d9a60b7e7ca32f11facd7b"
          ],
          "data": "0x000000000000000000000000000000000000000000000000000000000007a120",
          "blockHash": "0xb125338bc9933e9f2c8973b8bf5c3a38ec0eb57c11ff60aaa2d4b36697e5161f",
          "blockNumber": "0x6b28a5",
          "transactionHash": "0x5867b0e42c09fe61b5b11638df908e08c9225e0f911d6cd6c0b994c92a24309b",
          "transactionIndex": "0x1a",
          "logIndex": "0x34",
          "removed": false
        },
        {
          "address": "0xE2Bb56ee936fd6433DC0F6e7e3b8365C906AA057",
          "topics": [
            "0xdb80dd488acf86d17c747445b0eabb5d57c541d3bd7b6b87af987858e5066b2b",
            "0x00000000000000000000000086dc0b32a5045ffa48d9a60b7e7ca32f11facd7b",
            "0x0028729b12ce1140cbc1e7cbc7245455d3c15fa0c7f5d2e9fc8e0441567f6b50",
            "0x01b64b1b3b690b43b9b514fb81377518f4039cd3e4f4914d8a6bdf01d679fb19"
          ],
          "data": "0x00000000000000000000000000000000000000000000000000000000000000600000000000000000000000000000000000000000000000000000000000002758000000000000000000000000000000000000000000000000002386f26fc1000000000000000000000000000000000000000000000000000000000000000000050000000000000000000000001c7d4b196cb0c7b01d743fbc6116a902379c7238000000000000000000000000d427ef25fdc5387419e5489c58817c0a5cf3c75c07a00a339cdbdc4bed0f4920a0e58bb23202bf8c219c359fe1b1bb9a3c5fe366000000000000000000000000000000000000000000000000000000000007a1200000000000000000000000000000000000000000000000000000000000000000",
          "blockHash": "0xb125338bc9933e9f2c8973b8bf5c3a38ec0eb57c11ff60aaa2d4b36697e5161f",
          "blockNumber": "0x6b28a5",
          "transactionHash": "0x5867b0e42c09fe61b5b11638df908e08c9225e0f911d6cd6c0b994c92a24309b",
          "transactionIndex": "0x1a",
          "logIndex": "0x35",
          "removed": false
        },
        {
          "address": "0x86dC0B32a5045FFa48D9a60B7e7Ca32F11faCd7B",
          "topics": [
            "0x5f971bd00bf3ffbca8a6d72cdd4fd92cfd4f62636161921d1e5a64f0b64ccb6d",
            "0x000000000000000000000000d427ef25fdc5387419e5489c58817c0a5cf3c75c",
            "0x0000000000000000000000001c7d4b196cb0c7b01d743fbc6116a902379c7238",
            "0x07a00a339cdbdc4bed0f4920a0e58bb23202bf8c219c359fe1b1bb9a3c5fe366"
          ],
          "data": "0x000000000000000000000000000000000000000000000000000000000007a1200000000000000000000000000000000000000000000000000000000000002758000000000000000000000000000000000000000000000000002386f26fc10000",
          "blockHash": "0xb125338bc9933e9f2c8973b8bf5c3a38ec0eb57c11ff60aaa2d4b36697e5161f",
          "blockNumber": "0x6b28a5",
          "transactionHash": "0x5867b0e42c09fe61b5b11638df908e08c9225e0f911d6cd6c0b994c92a24309b",
          "transactionIndex": "0x1a",
          "logIndex": "0x36",
          "removed": false
        }
      ],
      "status": "0x1",
      "logsBloom": "0x00000000000000000200020000020000000000000000000000004000000200400000000000000000000000000000000000000000000004000000400000200000100000000000000000000008000000000000000000000040001000000000000000000000100000000000000000000000000200000000000000000210000088000000000000102000000000000404000000000000000000000000020000000010020000200000000000000020000000001000008000000020000002000000000000000002000000000000000000008000000000000000000000000000000000000010008000000000000010100080000000000000000000000000000000000000",
      "type": "0x2",
      "effectiveGasPrice": "0x343f5e4f1"
    }
  ],
  "libraries": [],
  "pending": [],
  "returns": {},
  "timestamp": 1730886437,
  "chain": 11155111,
  "multi": false,
  "commit": "9e60aff"
}