{
  "transactions": [
    {
      "hash": "0xd806938f1eedc71a59e61554b3d5aab22bac32150a4b00af35d3d6358634185e",
      "transactionType": "CALL",
      "contractName": "StarkNetToken",
      "contractAddress": "0xCa14007Eff0dB1f8135f4C25B34De49AB0d42766",
      "function": "approve(address,uint256)",
      "arguments": [
        "0xBac68C9D3fDee9e3404B75b21B47FeF95aff6268",
        "115792089237316195423570985008687907853269984665640564039457584007913129639935"
      ],
      "transaction": {
        "type": "0x02",
        "from": "0xddb342ecc94236c29a5307d3757d0724d759453c",
        "to": "0xca14007eff0db1f8135f4c25b34de49ab0d42766",
        "gas": "0xff08",
        "value": "0x0",
        "data": "0x095ea7b3000000000000000000000000bac68c9d3fdee9e3404b75b21b47fef95aff6268ffffffffffffffffffffffffffffffffffffffffffffffffffffffffffffffff",
        "nonce": "0x289",
        "accessList": []
      },
      "additionalContracts": [],
      "isFixedGasLimit": false
    },
    {
      "hash": "0xcef171300b754bf2740b08c9af2f4e811bb0314fb5479ef7261ae1463d484464",
      "transactionType": "CALL",
      "contractName": "StarkNetToken",
      "contractAddress": "0xCa14007Eff0dB1f8135f4C25B34De49AB0d42766",
      "function": "transfer(address,uint256)",
      "arguments": [
        "0xBac68C9D3fDee9e3404B75b21B47FeF95aff6268",
        "500000000000"
      ],
      "transaction": {
        "type": "0x02",
        "from": "0xddb342ecc94236c29a5307d3757d0724d759453c",
        "to": "0xca14007eff0db1f8135f4c25b34de49ab0d42766",
        "gas": "0x1339c",
        "value": "0x0",
        "data": "0xa9059cbb000000000000000000000000bac68c9d3fdee9e3404b75b21b47fef95aff6268000000000000000000000000000000000000000000000000000000746a528800",
        "nonce": "0x28a",
        "accessList": []
      },
      "additionalContracts": [],
      "isFixedGasLimit": false
    },
    {
      "hash": "0xc03877f7f6dcb67085c9a32a44fe51e148b6c8d95cf822740ea98a00c267b22c",
      "transactionType": "CALL",
      "contractName": "L1TWAMMBridge",
      "contractAddress": "0xBac68C9D3fDee9e3404B75b21B47FeF95aff6268",
      "function": "deposit(uint256,uint256)",
      "arguments": [
        "500000000000",
        "431856448013950816494627190663679735948539637257145136078562854651620715125"
      ],
      "transaction": {
        "type": "0x02",
        "from": "0xddb342ecc94236c29a5307d3757d0724d759453c",
        "to": "0xbac68c9d3fdee9e3404b75b21b47fef95aff6268",
        "gas": "0x2d757",
        "value": "0x5af3107a4000",
        "data": "0xe2bbb158000000000000000000000000000000000000000000000000000000746a52880000f46c0dee8f462f1470f8a6e1110756fa1cc301d7d6e8672c779f9a707f6a75",
        "nonce": "0x28b",
        "accessList": []
      },
      "additionalContracts": [],
      "isFixedGasLimit": false
    },
    {
      "hash": "0x664a5f630d9de5da9660b34614476372b0c4fb6a0871a2f5af2df5f8b9bac720",
      "transactionType": "CALL",
      "contractName": "Proxy",
      "contractAddress": "0xE2Bb56ee936fd6433DC0F6e7e3b8365C906AA057",
      "function": "sendMessageToL2(uint256,uint256,uint256[])",
      "arguments": [
        "431856448013950816494627190663679735948539637257145136078562854651620715125",
        "425952401605428413817582304755919420533935873840436977667370850915372091056",
        "[0, 1265684623727634235329190328445374361672779121980, 2009894490435840142178314390393166646092438090257831307886760648929397478285, 2366254414417873771392932940469309727793822550615514268240785277201753657472, 170141183460469235273462165868118016, 1731423952, 1731424016, 500000000000]"
      ],
      "transaction": {
        "type": "0x02",
        "from": "0xddb342ecc94236c29a5307d3757d0724d759453c",
        "to": "0xe2bb56ee936fd6433dc0f6e7e3b8365c906aa057",
        "gas": "0x15f0a",
        "value": "0x5af3107a4000",
        "data": "0x3e3aa6c500f46c0dee8f462f1470f8a6e1110756fa1cc301d7d6e8672c779f9a707f6a7500f1149cade9d692862ad41df96b108aa2c20af34f640457e781d166c98dc6b0000000000000000000000000000000000000000000000000000000000000006000000000000000000000000000000000000000000000000000000000000000080000000000000000000000000000000000000000000000000000000000000000000000000000000000000000ddb342ecc94236c29a5307d3757d0724d759453c04718f5a0fc34cc1af16a1cdee98ffb20c31f5cd61d6ab07201858f4287c938d053b40a647cedfca6ca84f542a0fe36736031905a9639a7f19a3c1e66bfd5080000000000000000000000000000000000020c49ba5e353f800000000000000000000000000000000000000000000000000000000000000000000000067336ed00000000000000000000000000000000000000000000000000000000067336f10000000000000000000000000000000000000000000000000000000746a528800",
        "nonce": "0x28c",
        "accessList": []
      },
      "additionalContracts": [],
      "isFixedGasLimit": false
    }
  ],
  "receipts": [],
  "libraries": [],
  "pending": [
    "0xd806938f1eedc71a59e61554b3d5aab22bac32150a4b00af35d3d6358634185e",
    "0xcef171300b754bf2740b08c9af2f4e811bb0314fb5479ef7261ae1463d484464",
    "0xc03877f7f6dcb67085c9a32a44fe51e148b6c8d95cf822740ea98a00c267b22c",
    "0x664a5f630d9de5da9660b34614476372b0c4fb6a0871a2f5af2df5f8b9bac720"
  ],
  "returns": {},
  "timestamp": 1731424003,
  "chain": 11155111,
  "multi": false,
  "commit": "b1a5e4e"
}