{
  "transactions": [
    {
      "hash": "0xe26bea664f91fcc3cc3ce6692ee12804fea21f216b1c15bbdf5d6a357b7a7e00",
      "transactionType": "CALL",
      "contractName": "StarkNetToken",
      "contractAddress": "0xCa14007Eff0dB1f8135f4C25B34De49AB0d42766",
      "function": "approve(address,uint256)",
      "arguments": [
        "0x3f0508421873Ed1df2e11028D9Fee1c6B92A494e",
        "115792089237316195423570985008687907853269984665640564039457584007913129639935"
      ],
      "transaction": {
        "type": "0x02",
        "from": "0xddb342ecc94236c29a5307d3757d0724d759453c",
        "to": "0xca14007eff0db1f8135f4c25b34de49ab0d42766",
        "gas": "0xff08",
        "value": "0x0",
        "data": "0x095ea7b30000000000000000000000003f0508421873ed1df2e11028d9fee1c6b92a494effffffffffffffffffffffffffffffffffffffffffffffffffffffffffffffff",
        "nonce": "0x273",
        "accessList": []
      },
      "additionalContracts": [],
      "isFixedGasLimit": false
    },
    {
      "hash": "0x32278f1694ff8b306c3260f92d452d25321e09e9708aa5e62bd05f232cc730b2",
      "transactionType": "CALL",
      "contractName": "StarkNetToken",
      "contractAddress": "0xCa14007Eff0dB1f8135f4C25B34De49AB0d42766",
      "function": "transfer(address,uint256)",
      "arguments": [
        "0x3f0508421873Ed1df2e11028D9Fee1c6B92A494e",
        "500000"
      ],
      "transaction": {
        "type": "0x02",
        "from": "0xddb342ecc94236c29a5307d3757d0724d759453c",
        "to": "0xca14007eff0db1f8135f4c25b34de49ab0d42766",
        "gas": "0x145a3",
        "value": "0x0",
        "data": "0xa9059cbb0000000000000000000000003f0508421873ed1df2e11028d9fee1c6b92a494e000000000000000000000000000000000000000000000000000000000007a120",
        "nonce": "0x274",
        "accessList": []
      },
      "additionalContracts": [],
      "isFixedGasLimit": false
    },
    {
      "hash": "0xccb73b7761362bf4f022110d20204ed12e17e69984cbf114dabebc26875f50c8",
      "transactionType": "CALL",
      "contractName": "L1TWAMMBridge",
      "contractAddress": "0x3f0508421873Ed1df2e11028D9Fee1c6B92A494e",
      "function": "deposit(uint256,uint256)",
      "arguments": [
        "500000",
        "3437578217456014416958820490559363987930234878582783671264257518363855408765"
      ],
      "transaction": {
        "type": "0x02",
        "from": "0xddb342ecc94236c29a5307d3757d0724d759453c",
        "to": "0x3f0508421873ed1df2e11028d9fee1c6b92a494e",
        "gas": "0x2d757",
        "value": "0x5af3107a4000",
        "data": "0xe2bbb158000000000000000000000000000000000000000000000000000000000007a120079999aead33a8c6d51447c11f80b89c5eb69ddfff66ffd12a434fefec3dce7d",
        "nonce": "0x275",
        "accessList": []
      },
      "additionalContracts": [],
      "isFixedGasLimit": false
    },
    {
      "hash": "0x37f0da0ee4aca19445eb0a73e4f7ef66bf75a07ba6de5d5b7c5f71be9a1302f6",
      "transactionType": "CALL",
      "contractName": "L1TWAMMBridge",
      "contractAddress": "0x3f0508421873Ed1df2e11028D9Fee1c6B92A494e",
      "function": "_sendMessage(uint256,uint256,uint256[])",
      "arguments": [
        "3437578217456014416958820490559363987930234878582783671264257518363855408765",
        "425952401605428413817582304755919420533935873840436977667370850915372091056",
        "[0, 1265684623727634235329190328445374361672779121980, 2009894490435840142178314390393166646092438090257831307886760648929397478285, 2366254414417873771392932940469309727793822550615514268240785277201753657472, 170141183460469235273462165868118016, 1731421168, 1731421232, 500000]"
      ],
      "transaction": {
        "type": "0x02",
        "from": "0xddb342ecc94236c29a5307d3757d0724d759453c",
        "to": "0x3f0508421873ed1df2e11028d9fee1c6b92a494e",
        "gas": "0x1b79f",
        "value": "0x5af3107a4000",
        "data": "0x88f439ef079999aead33a8c6d51447c11f80b89c5eb69ddfff66ffd12a434fefec3dce7d00f1149cade9d692862ad41df96b108aa2c20af34f640457e781d166c98dc6b0000000000000000000000000000000000000000000000000000000000000006000000000000000000000000000000000000000000000000000000000000000080000000000000000000000000000000000000000000000000000000000000000000000000000000000000000ddb342ecc94236c29a5307d3757d0724d759453c04718f5a0fc34cc1af16a1cdee98ffb20c31f5cd61d6ab07201858f4287c938d053b40a647cedfca6ca84f542a0fe36736031905a9639a7f19a3c1e66bfd5080000000000000000000000000000000000020c49ba5e353f8000000000000000000000000000000000000000000000000000000000000000000000000673363f00000000000000000000000000000000000000000000000000000000067336430000000000000000000000000000000000000000000000000000000000007a120",
        "nonce": "0x276",
        "accessList": []
      },
      "additionalContracts": [],
      "isFixedGasLimit": false
    }
  ],
  "receipts": [
    {
      "transactionHash": "0xe26bea664f91fcc3cc3ce6692ee12804fea21f216b1c15bbdf5d6a357b7a7e00",
      "transactionIndex": "0x6",
      "blockHash": "0x660f492fbbae48faad41b4a7ffc15754e9178c700b214a86c8b65a022c367b3a",
      "blockNumber": "0x6bc2ec",
      "from": "0xDdb342ecc94236c29a5307d3757d0724D759453C",
      "to": "0xCa14007Eff0dB1f8135f4C25B34De49AB0d42766",
      "cumulativeGasUsed": "0x6e2fa",
      "gasUsed": "0xb8a4",
      "contractAddress": null,
      "logs": [
        {
          "address": "0xCa14007Eff0dB1f8135f4C25B34De49AB0d42766",
          "topics": [
            "0x8c5be1e5ebec7d5bd14f71427d1e84f3dd0314c0f7b2291e5b200ac8c7c3b925",
            "0x000000000000000000000000ddb342ecc94236c29a5307d3757d0724d759453c",
            "0x0000000000000000000000003f0508421873ed1df2e11028d9fee1c6b92a494e"
          ],
          "data": "0xffffffffffffffffffffffffffffffffffffffffffffffffffffffffffffffff",
          "blockHash": "0x660f492fbbae48faad41b4a7ffc15754e9178c700b214a86c8b65a022c367b3a",
          "blockNumber": "0x6bc2ec",
          "transactionHash": "0xe26bea664f91fcc3cc3ce6692ee12804fea21f216b1c15bbdf5d6a357b7a7e00",
          "transactionIndex": "0x6",
          "logIndex": "0x6",
          "removed": false
        }
      ],
      "status": "0x1",
      "logsBloom": "0x00000000000000000000000000000000000000000000000000000000000000000001000000000000000000000000000000000000000000000000000000200000000000000000000000000000000000000000000000000000000000000000000400000000000000000000000000000000400000000000000000000000400000000000000000000000000000000000000000000000000000000000000000000000020000000000000000000000000000000000000000000000200000000000000000000000000000020000000000000000000000000000000000800000000000000010000000000000000000000000000000000100001000000000000000000000",
      "type": "0x2",
      "effectiveGasPrice": "0xf7db6c82"
    },
    {
      "transactionHash": "0x32278f1694ff8b306c3260f92d452d25321e09e9708aa5e62bd05f232cc730b2",
      "transactionIndex": "0x7",
      "blockHash": "0x660f492fbbae48faad41b4a7ffc15754e9178c700b214a86c8b65a022c367b3a",
      "blockNumber": "0x6bc2ec",
      "from": "0xDdb342ecc94236c29a5307d3757d0724D759453C",
      "to": "0xCa14007Eff0dB1f8135f4C25B34De49AB0d42766",
      "cumulativeGasUsed": "0x7c1a3",
      "gasUsed": "0xdea9",
      "contractAddress": null,
      "logs": [
        {
          "address": "0xCa14007Eff0dB1f8135f4C25B34De49AB0d42766",
          "topics": [
            "0xddf252ad1be2c89b69c2b068fc378daa952ba7f163c4a11628f55a4df523b3ef",
            "0x000000000000000000000000ddb342ecc94236c29a5307d3757d0724d759453c",
            "0x0000000000000000000000003f0508421873ed1df2e11028d9fee1c6b92a494e"
          ],
          "data": "0x000000000000000000000000000000000000000000000000000000000007a120",
          "blockHash": "0x660f492fbbae48faad41b4a7ffc15754e9178c700b214a86c8b65a022c367b3a",
          "blockNumber": "0x6bc2ec",
          "transactionHash": "0x32278f1694ff8b306c3260f92d452d25321e09e9708aa5e62bd05f232cc730b2",
          "transactionIndex": "0x7",
          "logIndex": "0x7",
          "removed": false
        }
      ],
      "status": "0x1",
      "logsBloom": "0x00000000000000000000000000000000000000000000000000000000000000000001000000000000000000000000000000000000000000000000000000000000000000000000000000000008000000000000000000000000000000000000000400000000000000000000000000000000400000000000000000000010400000000000000000000000000000000000000000000000000000000000000000000000000000000000000000000000000000000000000000000000200000000000000000000002000000020000000000000000000000000000000000800000000000000000000000000000000000000000000000000100001000000000000000000000",
      "type": "0x2",
      "effectiveGasPrice": "0xf7db6c82"
    },
    {
      "transactionHash": "0xccb73b7761362bf4f022110d20204ed12e17e69984cbf114dabebc26875f50c8",
      "transactionIndex": "0x8",
      "blockHash": "0x660f492fbbae48faad41b4a7ffc15754e9178c700b214a86c8b65a022c367b3a",
      "blockNumber": "0x6bc2ec",
      "from": "0xDdb342ecc94236c29a5307d3757d0724D759453C",
      "to": "0x3f0508421873Ed1df2e11028D9Fee1c6B92A494e",
      "cumulativeGasUsed": "0x9d038",
      "gasUsed": "0x20e95",
      "contractAddress": null,
      "logs": [
        {
          "address": "0xCa14007Eff0dB1f8135f4C25B34De49AB0d42766",
          "topics": [
            "0x8c5be1e5ebec7d5bd14f71427d1e84f3dd0314c0f7b2291e5b200ac8c7c3b925",
            "0x0000000000000000000000003f0508421873ed1df2e11028d9fee1c6b92a494e",
            "0x000000000000000000000000ce5485cfb26914c5dce00b9baf0580364dafc7a4"
          ],
          "data": "0x000000000000000000000000000000000000000000000000000000000007a120",
          "blockHash": "0x660f492fbbae48faad41b4a7ffc15754e9178c700b214a86c8b65a022c367b3a",
          "blockNumber": "0x6bc2ec",
          "transactionHash": "0xccb73b7761362bf4f022110d20204ed12e17e69984cbf114dabebc26875f50c8",
          "transactionIndex": "0x8",
          "logIndex": "0x8",
          "removed": false
        },
        {
          "address": "0xCa14007Eff0dB1f8135f4C25B34De49AB0d42766",
          "topics": [
            "0x8c5be1e5ebec7d5bd14f71427d1e84f3dd0314c0f7b2291e5b200ac8c7c3b925",
            "0x0000000000000000000000003f0508421873ed1df2e11028d9fee1c6b92a494e",
            "0x000000000000000000000000ce5485cfb26914c5dce00b9baf0580364dafc7a4"
          ],
          "data": "0x0000000000000000000000000000000000000000000000000000000000000000",
          "blockHash": "0x660f492fbbae48faad41b4a7ffc15754e9178c700b214a86c8b65a022c367b3a",
          "blockNumber": "0x6bc2ec",
          "transactionHash": "0xccb73b7761362bf4f022110d20204ed12e17e69984cbf114dabebc26875f50c8",
          "transactionIndex": "0x8",
          "logIndex": "0x9",
          "removed": false
        },
        {
          "address": "0xCa14007Eff0dB1f8135f4C25B34De49AB0d42766",
          "topics": [
            "0xddf252ad1be2c89b69c2b068fc378daa952ba7f163c4a11628f55a4df523b3ef",
            "0x0000000000000000000000003f0508421873ed1df2e11028d9fee1c6b92a494e",
            "0x000000000000000000000000ce5485cfb26914c5dce00b9baf0580364dafc7a4"
          ],
          "data": "0x000000000000000000000000000000000000000000000000000000000007a120",
          "blockHash": "0x660f492fbbae48faad41b4a7ffc15754e9178c700b214a86c8b65a022c367b3a",
          "blockNumber": "0x6bc2ec",
          "transactionHash": "0xccb73b7761362bf4f022110d20204ed12e17e69984cbf114dabebc26875f50c8",
          "transactionIndex": "0x8",
          "logIndex": "0xa",
          "removed": false
        },
        {
          "address": "0xE2Bb56ee936fd6433DC0F6e7e3b8365C906AA057",
          "topics": [
            "0xdb80dd488acf86d17c747445b0eabb5d57c541d3bd7b6b87af987858e5066b2b",
            "0x000000000000000000000000ce5485cfb26914c5dce00b9baf0580364dafc7a4",
            "0x0594c1582459ea03f77deaf9eb7e3917d6994a03c13405ba42867f83d85f085d",
            "0x01b64b1b3b690b43b9b514fb81377518f4039cd3e4f4914d8a6bdf01d679fb19"
          ],
          "data": "0x0000000000000000000000000000000000000000000000000000000000000060000000000000000000000000000000000000000000000000000000000000281600000000000000000000000000000000000000000000000000005af3107a40000000000000000000000000000000000000000000000000000000000000000005000000000000000000000000ca14007eff0db1f8135f4c25b34de49ab0d427660000000000000000000000003f0508421873ed1df2e11028d9fee1c6b92a494e079999aead33a8c6d51447c11f80b89c5eb69ddfff66ffd12a434fefec3dce7d000000000000000000000000000000000000000000000000000000000007a1200000000000000000000000000000000000000000000000000000000000000000",
          "blockHash": "0x660f492fbbae48faad41b4a7ffc15754e9178c700b214a86c8b65a022c367b3a",
          "blockNumber": "0x6bc2ec",
          "transactionHash": "0xccb73b7761362bf4f022110d20204ed12e17e69984cbf114dabebc26875f50c8",
          "transactionIndex": "0x8",
          "logIndex": "0xb",
          "removed": false
        },
        {
          "address": "0xcE5485Cfb26914C5dcE00B9BAF0580364daFC7a4",
          "topics": [
            "0x5f971bd00bf3ffbca8a6d72cdd4fd92cfd4f62636161921d1e5a64f0b64ccb6d",
            "0x0000000000000000000000003f0508421873ed1df2e11028d9fee1c6b92a494e",
            "0x000000000000000000000000ca14007eff0db1f8135f4c25b34de49ab0d42766",
            "0x079999aead33a8c6d51447c11f80b89c5eb69ddfff66ffd12a434fefec3dce7d"
          ],
          "data": "0x000000000000000000000000000000000000000000000000000000000007a120000000000000000000000000000000000000000000000000000000000000281600000000000000000000000000000000000000000000000000005af3107a4000",
          "blockHash": "0x660f492fbbae48faad41b4a7ffc15754e9178c700b214a86c8b65a022c367b3a",
          "blockNumber": "0x6bc2ec",
          "transactionHash": "0xccb73b7761362bf4f022110d20204ed12e17e69984cbf114dabebc26875f50c8",
          "transactionIndex": "0x8",
          "logIndex": "0xc",
          "removed": false
        }
      ],
      "status": "0x1",
      "logsBloom": "0x00000000000000000200000000020000000000000000000000000000000000400001000000000000000000000000000000000000000004000000000000200000000000000000000000000008080000000000000000000040001000000000100000000000100000000000000000000400000000000000000000000010000008002000000000000000000000000400000000000000000200000000020000000010020000000000000000000020000000001000000000000020200000000000000000000002000000024010000000000000000000200000000000800000000000000010000000010000000000020084000000000100801000000000000000000000",
      "type": "0x2",
      "effectiveGasPrice": "0xf7db6c82"
    },
    {
      "transactionHash": "0x37f0da0ee4aca19445eb0a73e4f7ef66bf75a07ba6de5d5b7c5f71be9a1302f6",
      "transactionIndex": "0x9",
      "blockHash": "0x660f492fbbae48faad41b4a7ffc15754e9178c700b214a86c8b65a022c367b3a",
      "blockNumber": "0x6bc2ec",
      "from": "0xDdb342ecc94236c29a5307d3757d0724D759453C",
      "to": "0x3f0508421873Ed1df2e11028D9Fee1c6B92A494e",
      "cumulativeGasUsed": "0xafcd1",
      "gasUsed": "0x12c99",
      "contractAddress": null,
      "logs": [
        {
          "address": "0xE2Bb56ee936fd6433DC0F6e7e3b8365C906AA057",
          "topics": [
            "0xdb80dd488acf86d17c747445b0eabb5d57c541d3bd7b6b87af987858e5066b2b",
            "0x0000000000000000000000003f0508421873ed1df2e11028d9fee1c6b92a494e",
            "0x079999aead33a8c6d51447c11f80b89c5eb69ddfff66ffd12a434fefec3dce7d",
            "0x00f1149cade9d692862ad41df96b108aa2c20af34f640457e781d166c98dc6b0"
          ],
          "data": "0x0000000000000000000000000000000000000000000000000000000000000060000000000000000000000000000000000000000000000000000000000000281700000000000000000000000000000000000000000000000000005af3107a400000000000000000000000000000000000000000000000000000000000000000080000000000000000000000000000000000000000000000000000000000000000000000000000000000000000ddb342ecc94236c29a5307d3757d0724d759453c04718f5a0fc34cc1af16a1cdee98ffb20c31f5cd61d6ab07201858f4287c938d053b40a647cedfca6ca84f542a0fe36736031905a9639a7f19a3c1e66bfd5080000000000000000000000000000000000020c49ba5e353f8000000000000000000000000000000000000000000000000000000000000000000000000673363f00000000000000000000000000000000000000000000000000000000067336430000000000000000000000000000000000000000000000000000000000007a120",
          "blockHash": "0x660f492fbbae48faad41b4a7ffc15754e9178c700b214a86c8b65a022c367b3a",
          "blockNumber": "0x6bc2ec",
          "transactionHash": "0x37f0da0ee4aca19445eb0a73e4f7ef66bf75a07ba6de5d5b7c5f71be9a1302f6",
          "transactionIndex": "0x9",
          "logIndex": "0xd",
          "removed": false
        }
      ],
      "status": "0x1",
      "logsBloom": "0x00400000000000000000000000020000000000000000000000000000000000000001000000000000000000000000000000000000000000000000000000000000000000000000000000000000000000000000000000000040001000000000100000000000100000010000000000000400000000000000000000000000000000000000000000000000000000000000000004000000000000000000000000000010000000000000000000000020000000000000000000000000200000000000000000000000000000000000000000000000000000000000000000000000000000000000000000000000000000000000000000000100800000000000000000000000",
      "type": "0x2",
      "effectiveGasPrice": "0xf7db6c82"
    }
  ],
  "libraries": [],
  "pending": [],
  "returns": {},
  "timestamp": 1731421230,
  "chain": 11155111,
  "multi": false,
  "commit": "b1a5e4e"
}