{
  "transactions": [
    {
      "hash": "0xb20c7ad3b94f2d36c4614334fbc563d2c0b83f16c404f46fb9dfd0ae430bec00",
      "transactionType": "CALL",
      "contractName": null,
      "contractAddress": "0xca14007eff0db1f8135f4c25b34de49ab0d42766",
      "function": "approve(address,uint256)",
      "arguments": [
        "0x67D58f885416bd877b7Dc8594E83Fd89B071fA38",
        "115792089237316195423570985008687907853269984665640564039457584007913129639935"
      ],
      "transaction": {
        "from": "0x1b382a7b4496f14e0aaa2da1e1626da400426a03",
        "to": "0xca14007eff0db1f8135f4c25b34de49ab0d42766",
        "gas": "0xff08",
        "value": "0x0",
        "input": "0x095ea7b300000000000000000000000067d58f885416bd877b7dc8594e83fd89b071fa38ffffffffffffffffffffffffffffffffffffffffffffffffffffffffffffffff",
        "nonce": "0xfa",
        "chainId": "0xaa36a7"
      },
      "additionalContracts": [],
      "isFixedGasLimit": false
    },
    {
      "hash": "0x239d6ee4beed5ed3c2d19a5b7ebb5942d6d6478b2993215a2f1c7290fa75323e",
      "transactionType": "CALL",
      "contractName": null,
      "contractAddress": "0x67d58f885416bd877b7dc8594e83fd89b071fa38",
      "function": "_sendMessage(uint256,uint256,uint256[])",
      "arguments": [
        "1399327374088008587790087752409683901644111396522388012773574621607663411350",
        "148648911813996339441237705416989480313666662291090082193117818992478592220",
        "[2]"
      ],
      "transaction": {
        "from": "0x1b382a7b4496f14e0aaa2da1e1626da400426a03",
        "to": "0x67d58f885416bd877b7dc8594e83fd89b071fa38",
        "gas": "0x182bd",
        "value": "0x38d7ea4c68000",
        "input": "0x88f439ef0317fdc107261b0e08080392124690e189bfe8a020d945098d125dd7b97ea096005421de947699472df434466845d68528f221a52fce7ad2934c5dae2e1f1cdc000000000000000000000000000000000000000000000000000000000000006000000000000000000000000000000000000000000000000000000000000000010000000000000000000000000000000000000000000000000000000000000002",
        "nonce": "0xfb",
        "chainId": "0xaa36a7"
      },
      "additionalContracts": [],
      "isFixedGasLimit": false
    }
  ],
  "receipts": [
    {
      "status": "0x1",
      "cumulativeGasUsed": "0xe0570a",
      "logs": [
        {
          "address": "0xca14007eff0db1f8135f4c25b34de49ab0d42766",
          "topics": [
            "0x8c5be1e5ebec7d5bd14f71427d1e84f3dd0314c0f7b2291e5b200ac8c7c3b925",
            "0x0000000000000000000000001b382a7b4496f14e0aaa2da1e1626da400426a03",
            "0x00000000000000000000000067d58f885416bd877b7dc8594e83fd89b071fa38"
          ],
          "data": "0xffffffffffffffffffffffffffffffffffffffffffffffffffffffffffffffff",
          "blockHash": "0x2ae69e68ace95ab03c5e273ddea10f798e9b4028cc5160a4eed235a6d8523b97",
          "blockNumber": "0x6b4be9",
          "transactionHash": "0xb20c7ad3b94f2d36c4614334fbc563d2c0b83f16c404f46fb9dfd0ae430bec00",
          "transactionIndex": "0x6f",
          "logIndex": "0xb0",
          "removed": false
        }
      ],
      "logsBloom": "0x00000000000000000000000000000000000000000000000000000000000000000000000000000000000000000000000000020000000000000000000000200000000000000000000000000000000000000000000000000000000000000000000000000000000000000000000000000000000010000010000020000000000000040000000000000000000000000000000000000000000000000000000000000000020000000000000000000000000000000000000000000000000000000000000000000000010000020000000000000000000000000000000000800000000000000010000000000000000000000000000000000000001000000000000000000000",
      "type": "0x2",
      "transactionHash": "0xb20c7ad3b94f2d36c4614334fbc563d2c0b83f16c404f46fb9dfd0ae430bec00",
      "transactionIndex": "0x6f",
      "blockHash": "0x2ae69e68ace95ab03c5e273ddea10f798e9b4028cc5160a4eed235a6d8523b97",
      "blockNumber": "0x6b4be9",
      "gasUsed": "0xb8a4",
      "effectiveGasPrice": "0xe64aecdb",
      "blobGasUsed": "0x0",
      "from": "0x1b382a7b4496f14e0aaa2da1e1626da400426a03",
      "to": "0xca14007eff0db1f8135f4c25b34de49ab0d42766",
      "contractAddress": null
    },
    {
      "status": "0x1",
      "cumulativeGasUsed": "0xe16f09",
      "logs": [
        {
          "address": "0xe2bb56ee936fd6433dc0f6e7e3b8365c906aa057",
          "topics": [
            "0xdb80dd488acf86d17c747445b0eabb5d57c541d3bd7b6b87af987858e5066b2b",
            "0x00000000000000000000000067d58f885416bd877b7dc8594e83fd89b071fa38",
            "0x0317fdc107261b0e08080392124690e189bfe8a020d945098d125dd7b97ea096",
            "0x005421de947699472df434466845d68528f221a52fce7ad2934c5dae2e1f1cdc"
          ],
          "data": "0x0000000000000000000000000000000000000000000000000000000000000060000000000000000000000000000000000000000000000000000000000000279100000000000000000000000000000000000000000000000000038d7ea4c6800000000000000000000000000000000000000000000000000000000000000000010000000000000000000000000000000000000000000000000000000000000002",
          "blockHash": "0x2ae69e68ace95ab03c5e273ddea10f798e9b4028cc5160a4eed235a6d8523b97",
          "blockNumber": "0x6b4be9",
          "transactionHash": "0x239d6ee4beed5ed3c2d19a5b7ebb5942d6d6478b2993215a2f1c7290fa75323e",
          "transactionIndex": "0x70",
          "logIndex": "0xb1",
          "removed": false
        }
      ],
      "logsBloom": "0x00000000000000000000000000020000000000000000000000000000000001000000000000000000000000000000000000020000000000000000000000000000000000000000000000000000000000000000000000000040001000000000000000000000100000000000000000020000000010000000000000000000000000000000000000000000000040000800000000000001000000000000000000000010000000000000000000000020000000000000000000000000000000000000000000000000010000000000000000000000000000000000000000000000000000000000000000000000008000000000000000000000000000000000000000000000",
      "type": "0x2",
      "transactionHash": "0x239d6ee4beed5ed3c2d19a5b7ebb5942d6d6478b2993215a2f1c7290fa75323e",
      "transactionIndex": "0x70",
      "blockHash": "0x2ae69e68ace95ab03c5e273ddea10f798e9b4028cc5160a4eed235a6d8523b97",
      "blockNumber": "0x6b4be9",
      "gasUsed": "0x117ff",
      "effectiveGasPrice": "0xe64aecdb",
      "blobGasUsed": "0x0",
      "from": "0x1b382a7b4496f14e0aaa2da1e1626da400426a03",
      "to": "0x67d58f885416bd877b7dc8594e83fd89b071fa38",
      "contractAddress": null
    }
  ],
  "libraries": [],
  "pending": [],
  "returns": {},
  "timestamp": 1731005522,
  "chain": 11155111,
  "commit": "7c9bc56"
}