{
  "transactions": [
    {
      "hash": "0x312d47ae522f2c94296f9ef9627354da6dfb750cf24d3af2323de39876be3bae",
      "transactionType": "CALL",
      "contractName": null,
      "contractAddress": "0xca14007eff0db1f8135f4c25b34de49ab0d42766",
      "function": "approve(address,uint256)",
      "arguments": [
        "0x8c3F4901dfAf00f43B11554d96Db04FAe340479E",
        "115792089237316195423570985008687907853269984665640564039457584007913129639935"
      ],
      "transaction": {
        "from": "0xddb342ecc94236c29a5307d3757d0724d759453c",
        "to": "0xca14007eff0db1f8135f4c25b34de49ab0d42766",
        "gas": "0x9398",
        "value": "0x0",
        "input": "0x095ea7b30000000000000000000000008c3f4901dfaf00f43b11554d96db04fae340479effffffffffffffffffffffffffffffffffffffffffffffffffffffffffffffff",
        "nonce": "0x49e",
        "chainId": "0xaa36a7"
      },
      "additionalContracts": [],
      "isFixedGasLimit": false
    },
    {
      "hash": "0x31747cf149f11dbdc34dc8a9dc58de13a0123b1d7b27a735b7d416904c59dca8",
      "transactionType": "CALL",
      "contractName": null,
      "contractAddress": "0x8c3f4901dfaf00f43b11554d96db04fae340479e",
      "function": "depositAndCreateOrder((address,uint256,uint256,uint128,uint128,uint128,uint128,address))",
      "arguments": [
        "(0xDdb342ecc94236c29a5307d3757d0724D759453C, 2009894490435840142178314390393166646092438090257831307886760648929397478285, 2366254414417873771392932940469309727793822550615514268240785277201753657472, 170141183460469235273462165868118016, 1736650848, 1736650976, 700000000000000, 0x8c3F4901dfAf00f43B11554d96Db04FAe340479E)"
      ],
      "transaction": {
        "from": "0xddb342ecc94236c29a5307d3757d0724d759453c",
        "to": "0x8c3f4901dfaf00f43b11554d96db04fae340479e",
        "gas": "0x3ff70",
        "value": "0x1c6bf52634000",
        "input": "0x056f296a000000000000000000000000ddb342ecc94236c29a5307d3757d0724d759453c04718f5a0fc34cc1af16a1cdee98ffb20c31f5cd61d6ab07201858f4287c938d053b40a647cedfca6ca84f542a0fe36736031905a9639a7f19a3c1e66bfd5080000000000000000000000000000000000020c49ba5e353f80000000000000000000000000000000000000000000000000000000000000000000000006783306000000000000000000000000000000000000000000000000000000000678330e000000000000000000000000000000000000000000000000000027ca57357c0000000000000000000000000008c3f4901dfaf00f43b11554d96db04fae340479e",
        "nonce": "0x49f",
        "chainId": "0xaa36a7"
      },
      "additionalContracts": [],
      "isFixedGasLimit": false
    }
  ],
  "receipts": [
    {
      "status": "0x1",
      "cumulativeGasUsed": "0x51ddc4",
      "logs": [
        {
          "address": "0xca14007eff0db1f8135f4c25b34de49ab0d42766",
          "topics": [
            "0x8c5be1e5ebec7d5bd14f71427d1e84f3dd0314c0f7b2291e5b200ac8c7c3b925",
            "0x000000000000000000000000ddb342ecc94236c29a5307d3757d0724d759453c",
            "0x0000000000000000000000008c3f4901dfaf00f43b11554d96db04fae340479e"
          ],
          "data": "0xffffffffffffffffffffffffffffffffffffffffffffffffffffffffffffffff",
          "blockHash": "0xe7c9d15e1044ad14d97d7fcf719d2201b94b43b4312fde00d94e5c1c81ee4d92",
          "blockNumber": "0x72056a",
          "transactionHash": "0x312d47ae522f2c94296f9ef9627354da6dfb750cf24d3af2323de39876be3bae",
          "transactionIndex": "0x37",
          "logIndex": "0x46",
          "removed": false
        }
      ],
      "logsBloom": "0x00000000000000000000000000000000000000000000000000000000000000000000000000000000000000000000000000000000000000000000000000200000000000000000000000000000000000000000000000000000000000000000000400000000000000000000000000000000400000000000000000000000400000000000000000000000000000000000000000000000000000000000100000000000020000000000000000000000000000000200000000000000000000000000000000002000000000020000000000000000000000000000000000800000000000000010000000000000000000000000000000000000001000000000000000000000",
      "type": "0x2",
      "transactionHash": "0x312d47ae522f2c94296f9ef9627354da6dfb750cf24d3af2323de39876be3bae",
      "transactionIndex": "0x37",
      "blockHash": "0xe7c9d15e1044ad14d97d7fcf719d2201b94b43b4312fde00d94e5c1c81ee4d92",
      "blockNumber": "0x72056a",
      "gasUsed": "0x6adc",
      "effectiveGasPrice": "0xccce7b79",
      "from": "0xddb342ecc94236c29a5307d3757d0724d759453c",
      "to": "0xca14007eff0db1f8135f4c25b34de49ab0d42766",
      "contractAddress": null
    },
    {
      "status": "0x1",
      "cumulativeGasUsed": "0x549910",
      "logs": [
        {
          "address": "0xca14007eff0db1f8135f4c25b34de49ab0d42766",
          "topics": [
            "0x8c5be1e5ebec7d5bd14f71427d1e84f3dd0314c0f7b2291e5b200ac8c7c3b925",
            "0x0000000000000000000000008c3f4901dfaf00f43b11554d96db04fae340479e",
            "0x0000000000000000000000008c3f4901dfaf00f43b11554d96db04fae340479e"
          ],
          "data": "0x00000000000000000000000000000000000000000000000000027ca57357c000",
          "blockHash": "0xe7c9d15e1044ad14d97d7fcf719d2201b94b43b4312fde00d94e5c1c81ee4d92",
          "blockNumber": "0x72056a",
          "transactionHash": "0x31747cf149f11dbdc34dc8a9dc58de13a0123b1d7b27a735b7d416904c59dca8",
          "transactionIndex": "0x38",
          "logIndex": "0x47",
          "removed": false
        },
        {
          "address": "0xca14007eff0db1f8135f4c25b34de49ab0d42766",
          "topics": [
            "0xddf252ad1be2c89b69c2b068fc378daa952ba7f163c4a11628f55a4df523b3ef",
            "0x000000000000000000000000ddb342ecc94236c29a5307d3757d0724d759453c",
            "0x0000000000000000000000008c3f4901dfaf00f43b11554d96db04fae340479e"
          ],
          "data": "0x00000000000000000000000000000000000000000000000000027ca57357c000",
          "blockHash": "0xe7c9d15e1044ad14d97d7fcf719d2201b94b43b4312fde00d94e5c1c81ee4d92",
          "blockNumber": "0x72056a",
          "transactionHash": "0x31747cf149f11dbdc34dc8a9dc58de13a0123b1d7b27a735b7d416904c59dca8",
          "transactionIndex": "0x38",
          "logIndex": "0x48",
          "removed": false
        },
        {
          "address": "0xca14007eff0db1f8135f4c25b34de49ab0d42766",
          "topics": [
            "0x8c5be1e5ebec7d5bd14f71427d1e84f3dd0314c0f7b2291e5b200ac8c7c3b925",
            "0x0000000000000000000000008c3f4901dfaf00f43b11554d96db04fae340479e",
            "0x000000000000000000000000ce5485cfb26914c5dce00b9baf0580364dafc7a4"
          ],
          "data": "0x00000000000000000000000000000000000000000000000000027ca57357c000",
          "blockHash": "0xe7c9d15e1044ad14d97d7fcf719d2201b94b43b4312fde00d94e5c1c81ee4d92",
          "blockNumber": "0x72056a",
          "transactionHash": "0x31747cf149f11dbdc34dc8a9dc58de13a0123b1d7b27a735b7d416904c59dca8",
          "transactionIndex": "0x38",
          "logIndex": "0x49",
          "removed": false
        },
        {
          "address": "0xca14007eff0db1f8135f4c25b34de49ab0d42766",
          "topics": [
            "0x8c5be1e5ebec7d5bd14f71427d1e84f3dd0314c0f7b2291e5b200ac8c7c3b925",
            "0x0000000000000000000000008c3f4901dfaf00f43b11554d96db04fae340479e",
            "0x000000000000000000000000ce5485cfb26914c5dce00b9baf0580364dafc7a4"
          ],
          "data": "0x0000000000000000000000000000000000000000000000000000000000000000",
          "blockHash": "0xe7c9d15e1044ad14d97d7fcf719d2201b94b43b4312fde00d94e5c1c81ee4d92",
          "blockNumber": "0x72056a",
          "transactionHash": "0x31747cf149f11dbdc34dc8a9dc58de13a0123b1d7b27a735b7d416904c59dca8",
          "transactionIndex": "0x38",
          "logIndex": "0x4a",
          "removed": false
        },
        {
          "address": "0xca14007eff0db1f8135f4c25b34de49ab0d42766",
          "topics": [
            "0xddf252ad1be2c89b69c2b068fc378daa952ba7f163c4a11628f55a4df523b3ef",
            "0x0000000000000000000000008c3f4901dfaf00f43b11554d96db04fae340479e",
            "0x000000000000000000000000ce5485cfb26914c5dce00b9baf0580364dafc7a4"
          ],
          "data": "0x00000000000000000000000000000000000000000000000000027ca57357c000",
          "blockHash": "0xe7c9d15e1044ad14d97d7fcf719d2201b94b43b4312fde00d94e5c1c81ee4d92",
          "blockNumber": "0x72056a",
          "transactionHash": "0x31747cf149f11dbdc34dc8a9dc58de13a0123b1d7b27a735b7d416904c59dca8",
          "transactionIndex": "0x38",
          "logIndex": "0x4b",
          "removed": false
        },
        {
          "address": "0xe2bb56ee936fd6433dc0f6e7e3b8365c906aa057",
          "topics": [
            "0xdb80dd488acf86d17c747445b0eabb5d57c541d3bd7b6b87af987858e5066b2b",
            "0x000000000000000000000000ce5485cfb26914c5dce00b9baf0580364dafc7a4",
            "0x0594c1582459ea03f77deaf9eb7e3917d6994a03c13405ba42867f83d85f085d",
            "0x008bce41827dd5484d80312a2e43bc42a896e3fcf75bf84c2b49339168dfa00a"
          ],
          "data": "0x00000000000000000000000000000000000000000000000000000000000000600000000000000000000000000000000000000000000000000000000000002b850000000000000000000000000000000000000000000000000001c6bf52634000000000000000000000000000000000000000000000000000000000000000000f000000000000000000000000ca14007eff0db1f8135f4c25b34de49ab0d427660000000000000000000000008c3f4901dfaf00f43b11554d96db04fae340479e00b3fa26e2af15dda3690ff437257057ad524115b00182928b60d213d50281a600000000000000000000000000000000000000000000000000027ca57357c000000000000000000000000000000000000000000000000000000000000000000000000000000000000000000000000000000000000000000000000000000000090000000000000000000000000000000000000000000000000000000000000000000000000000000000000000ddb342ecc94236c29a5307d3757d0724d759453c04718f5a0fc34cc1af16a1cdee98ffb20c31f5cd61d6ab07201858f4287c938d053b40a647cedfca6ca84f542a0fe36736031905a9639a7f19a3c1e66bfd5080000000000000000000000000000000000020c49ba5e353f80000000000000000000000000000000000000000000000000000000000000000000000006783306000000000000000000000000000000000000000000000000000000000678330e000000000000000000000000000000000000000000000000000027ca57357c0000000000000000000000000008c3f4901dfaf00f43b11554d96db04fae340479e",
          "blockHash": "0xe7c9d15e1044ad14d97d7fcf719d2201b94b43b4312fde00d94e5c1c81ee4d92",
          "blockNumber": "0x72056a",
          "transactionHash": "0x31747cf149f11dbdc34dc8a9dc58de13a0123b1d7b27a735b7d416904c59dca8",
          "transactionIndex": "0x38",
          "logIndex": "0x4c",
          "removed": false
        },
        {
          "address": "0xce5485cfb26914c5dce00b9baf0580364dafc7a4",
          "topics": [
            "0x2203a49c69f1a46c1164f5e4a30643dd77b7c59c0ff9bc433256048365c247f1",
            "0x0000000000000000000000008c3f4901dfaf00f43b11554d96db04fae340479e",
            "0x000000000000000000000000ca14007eff0db1f8135f4c25b34de49ab0d42766",
            "0x00b3fa26e2af15dda3690ff437257057ad524115b00182928b60d213d50281a6"
          ],
          "data": "0x00000000000000000000000000000000000000000000000000027ca57357c00000000000000000000000000000000000000000000000000000000000000000800000000000000000000000000000000000000000000000000000000000002b850000000000000000000000000000000000000000000000000001c6bf5263400000000000000000000000000000000000000000000000000000000000000000090000000000000000000000000000000000000000000000000000000000000000000000000000000000000000ddb342ecc94236c29a5307d3757d0724d759453c04718f5a0fc34cc1af16a1cdee98ffb20c31f5cd61d6ab07201858f4287c938d053b40a647cedfca6ca84f542a0fe36736031905a9639a7f19a3c1e66bfd5080000000000000000000000000000000000020c49ba5e353f80000000000000000000000000000000000000000000000000000000000000000000000006783306000000000000000000000000000000000000000000000000000000000678330e000000000000000000000000000000000000000000000000000027ca57357c0000000000000000000000000008c3f4901dfaf00f43b11554d96db04fae340479e",
          "blockHash": "0xe7c9d15e1044ad14d97d7fcf719d2201b94b43b4312fde00d94e5c1c81ee4d92",
          "blockNumber": "0x72056a",
          "transactionHash": "0x31747cf149f11dbdc34dc8a9dc58de13a0123b1d7b27a735b7d416904c59dca8",
          "transactionIndex": "0x38",
          "logIndex": "0x4d",
          "removed": false
        },
        {
          "address": "0x8c3f4901dfaf00f43b11554d96db04fae340479e",
          "topics": [
            "0xaf43445f7721522b7a3864ed3de53d7e2e658bfa1eeffa18e1e229be68ce2545",
            "0x000000000000000000000000ddb342ecc94236c29a5307d3757d0724d759453c",
            "0x00b3fa26e2af15dda3690ff437257057ad524115b00182928b60d213d50281a6"
          ],
          "data": "0x00000000000000000000000000000000000000000000000000027ca57357c0000000000000000000000000000000000000000000000000000000000000000001",
          "blockHash": "0xe7c9d15e1044ad14d97d7fcf719d2201b94b43b4312fde00d94e5c1c81ee4d92",
          "blockNumber": "0x72056a",
          "transactionHash": "0x31747cf149f11dbdc34dc8a9dc58de13a0123b1d7b27a735b7d416904c59dca8",
          "transactionIndex": "0x38",
          "logIndex": "0x4e",
          "removed": false
        }
      ],
      "logsBloom": "0x00000200000000000000000000020000000000000000000000000040000000000000000000000000000000000000000000000000000004000000020200200000000000000000000000000008080000000000000000000040001000000000000600000000100000000000000000000000400000000000000000000010400008002000000000000000010400020000000000008000000200000000100008000010020000800000000000000020000000021200000000000000001000000000000000802002000000026010000000000000000000200000000000800000000000000010000000010000000000020004000000000000001000000000000000000000",
      "type": "0x2",
      "transactionHash": "0x31747cf149f11dbdc34dc8a9dc58de13a0123b1d7b27a735b7d416904c59dca8",
      "transactionIndex": "0x38",
      "blockHash": "0xe7c9d15e1044ad14d97d7fcf719d2201b94b43b4312fde00d94e5c1c81ee4d92",
      "blockNumber": "0x72056a",
      "gasUsed": "0x2bb4c",
      "effectiveGasPrice": "0xccce7b79",
      "from": "0xddb342ecc94236c29a5307d3757d0724d759453c",
      "to": "0x8c3f4901dfaf00f43b11554d96db04fae340479e",
      "contractAddress": null
    }
  ],
  "libraries": [],
  "pending": [],
  "returns": {},
  "timestamp": 1736650861,
  "chain": 11155111,
  "commit": "81b7af0"
}