{
  "transactions": [
    {
      "hash": "0x8d71da6e6d98e86981791ee679aa29fe1b18ad5d57589344ec4dd6d736783d95",
      "transactionType": "CALL",
      "contractName": null,
      "contractAddress": "0xca14007eff0db1f8135f4c25b34de49ab0d42766",
      "function": "approve(address,uint256)",
      "arguments": [
        "0x17fDD4243F21a38fc4eD5cc9b0954706E3d4b474",
        "115792089237316195423570985008687907853269984665640564039457584007913129639935"
      ],
      "transaction": {
        "from": "0x1b382a7b4496f14e0aaa2da1e1626da400426a03",
        "to": "0xca14007eff0db1f8135f4c25b34de49ab0d42766",
        "gas": "0x93a9",
        "value": "0x0",
        "input": "0x095ea7b300000000000000000000000017fdd4243f21a38fc4ed5cc9b0954706e3d4b474ffffffffffffffffffffffffffffffffffffffffffffffffffffffffffffffff",
        "nonce": "0xf8",
        "chainId": "0xaa36a7"
      },
      "additionalContracts": [],
      "isFixedGasLimit": false
    },
    {
      "hash": "0xca853b6df569d976dc50fddc1b632592c48789ff1040190ea45e6f5e442e82ff",
      "transactionType": "CALL",
      "contractName": null,
      "contractAddress": "0x17fdd4243f21a38fc4ed5cc9b0954706e3d4b474",
      "function": "_sendMessage(uint256,uint256,uint256[])",
      "arguments": [
        "1399327374088008587790087752409683901644111396522388012773574621607663411350",
        "148648911813996339441237705416989480313666662291090082193117818992478592220",
        "[2]"
      ],
      "transaction": {
        "from": "0x1b382a7b4496f14e0aaa2da1e1626da400426a03",
        "to": "0x17fdd4243f21a38fc4ed5cc9b0954706e3d4b474",
        "gas": "0x182bd",
        "value": "0x38d7ea4c68000",
        "input": "0x88f439ef0317fdc107261b0e08080392124690e189bfe8a020d945098d125dd7b97ea096005421de947699472df434466845d68528f221a52fce7ad2934c5dae2e1f1cdc000000000000000000000000000000000000000000000000000000000000006000000000000000000000000000000000000000000000000000000000000000010000000000000000000000000000000000000000000000000000000000000002",
        "nonce": "0xf9",
        "chainId": "0xaa36a7"
      },
      "additionalContracts": [],
      "isFixedGasLimit": false
    }
  ],
  "receipts": [
    {
      "status": "0x1",
      "cumulativeGasUsed": "0x5043b1",
      "logs": [
        {
          "address": "0xca14007eff0db1f8135f4c25b34de49ab0d42766",
          "topics": [
            "0x8c5be1e5ebec7d5bd14f71427d1e84f3dd0314c0f7b2291e5b200ac8c7c3b925",
            "0x0000000000000000000000001b382a7b4496f14e0aaa2da1e1626da400426a03",
            "0x00000000000000000000000017fdd4243f21a38fc4ed5cc9b0954706e3d4b474"
          ],
          "data": "0xffffffffffffffffffffffffffffffffffffffffffffffffffffffffffffffff",
          "blockHash": "0x2dad31bb74f02d836d6264787d262c79301f415eceffb760308e1b1a930ef6ac",
          "blockNumber": "0x6b4be1",
          "transactionHash": "0x8d71da6e6d98e86981791ee679aa29fe1b18ad5d57589344ec4dd6d736783d95",
          "transactionIndex": "0x22",
          "logIndex": "0x3b",
          "removed": false
        }
      ],
      "logsBloom": "0x00000000000000000000800000000000000000000000000000000000000000000000000000000000000000000000000000000000000000000000000000200000000000000000000000000000000000000000000000000000000000000000000000000000000000000000000000000000000000000010000020000010000000040000000000000000000000000000000000000000000000000000000000000000020000000000000000000000000000001000000000000000000000000000000000000000000000020000000000000000000000000000000000800000000000000010000000000000000000000000000000000000001000000000000000000000",
      "type": "0x2",
      "transactionHash": "0x8d71da6e6d98e86981791ee679aa29fe1b18ad5d57589344ec4dd6d736783d95",
      "transactionIndex": "0x22",
      "blockHash": "0x2dad31bb74f02d836d6264787d262c79301f415eceffb760308e1b1a930ef6ac",
      "blockNumber": "0x6b4be1",
      "gasUsed": "0x6ae8",
      "effectiveGasPrice": "0x110bfa5d2",
      "blobGasUsed": "0x0",
      "from": "0x1b382a7b4496f14e0aaa2da1e1626da400426a03",
      "to": "0xca14007eff0db1f8135f4c25b34de49ab0d42766",
      "contractAddress": null
    },
    {
      "status": "0x1",
      "cumulativeGasUsed": "0x515bb0",
      "logs": [
        {
          "address": "0xe2bb56ee936fd6433dc0f6e7e3b8365c906aa057",
          "topics": [
            "0xdb80dd488acf86d17c747445b0eabb5d57c541d3bd7b6b87af987858e5066b2b",
            "0x00000000000000000000000017fdd4243f21a38fc4ed5cc9b0954706e3d4b474",
            "0x0317fdc107261b0e08080392124690e189bfe8a020d945098d125dd7b97ea096",
            "0x005421de947699472df434466845d68528f221a52fce7ad2934c5dae2e1f1cdc"
          ],
          "data": "0x0000000000000000000000000000000000000000000000000000000000000060000000000000000000000000000000000000000000000000000000000000279000000000000000000000000000000000000000000000000000038d7ea4c6800000000000000000000000000000000000000000000000000000000000000000010000000000000000000000000000000000000000000000000000000000000002",
          "blockHash": "0x2dad31bb74f02d836d6264787d262c79301f415eceffb760308e1b1a930ef6ac",
          "blockNumber": "0x6b4be1",
          "transactionHash": "0xca853b6df569d976dc50fddc1b632592c48789ff1040190ea45e6f5e442e82ff",
          "transactionIndex": "0x23",
          "logIndex": "0x3c",
          "removed": false
        }
      ],
      "logsBloom": "0x00000000000000000000800000020000000000000000000000000000000001000000000000000000000000000000000000000000000000000000000000000000000000000000000000000000000000000000000000000040001000000000000000000000100000000000000000020000000000000000000000000010000000000000000000000000000040000800000000000001000000000000000000000010000000000000000000000020000000001000000000000000000000000000000000000000000000000000000000000000000000000000000000000000000000000000000000000000008000000000000000000000000000000000000000000000",
      "type": "0x2",
      "transactionHash": "0xca853b6df569d976dc50fddc1b632592c48789ff1040190ea45e6f5e442e82ff",
      "transactionIndex": "0x23",
      "blockHash": "0x2dad31bb74f02d836d6264787d262c79301f415eceffb760308e1b1a930ef6ac",
      "blockNumber": "0x6b4be1",
      "gasUsed": "0x117ff",
      "effectiveGasPrice": "0x110bfa5d2",
      "blobGasUsed": "0x0",
      "from": "0x1b382a7b4496f14e0aaa2da1e1626da400426a03",
      "to": "0x17fdd4243f21a38fc4ed5cc9b0954706e3d4b474",
      "contractAddress": null
    }
  ],
  "libraries": [],
  "pending": [],
  "returns": {},
  "timestamp": 1731005418,
  "chain": 11155111,
  "commit": "7c9bc56"
}