{
  "transactions": [
    {
      "hash": "0x257d7f2acbb9e1a80e6df93c8e2c9d1cacdbefe0d8537577c9e40747a354bc1d",
      "transactionType": "CALL",
      "contractName": "StarkNetToken",
      "contractAddress": "0xCa14007Eff0dB1f8135f4C25B34De49AB0d42766",
      "function": "approve(address,uint256)",
      "arguments": [
        "0x7256eDF31b165EA502cd3718726dD0aa6f543b12",
        "115792089237316195423570985008687907853269984665640564039457584007913129639935"
      ],
      "transaction": {
        "type": "0x02",
        "from": "0xddb342ecc94236c29a5307d3757d0724d759453c",
        "to": "0xca14007eff0db1f8135f4c25b34de49ab0d42766",
        "gas": "0x93a9",
        "value": "0x0",
        "data": "0x095ea7b30000000000000000000000007256edf31b165ea502cd3718726dd0aa6f543b12ffffffffffffffffffffffffffffffffffffffffffffffffffffffffffffffff",
        "nonce": "0x3cc",
        "accessList": []
      },
      "additionalContracts": [],
      "isFixedGasLimit": false
    },
    {
      "hash": "0x41c8ad586ede4f01bb1f563352adc12e205e515ec30add89dc522308d7805af2",
      "transactionType": "CALL",
      "contractName": null,
      "contractAddress": "0x7256eDF31b165EA502cd3718726dD0aa6f543b12",
      "function": "setL2EndpointAddress(uint256)",
      "arguments": [
        "16355878588297991341453355424840152537665901663002551357724987058443266750"
      ],
      "transaction": {
        "type": "0x02",
        "from": "0xddb342ecc94236c29a5307d3757d0724d759453c",
        "to": "0x7256edf31b165ea502cd3718726dd0aa6f543b12",
        "gas": "0xabb8",
        "value": "0x0",
        "data": "0x5155fb2f000941d1412d360843361e6321f3317452f07a3fbaaca6058ff02be368182abe",
        "nonce": "0x3cd",
        "accessList": []
      },
      "additionalContracts": [],
      "isFixedGasLimit": false
    }
  ],
  "receipts": [],
  "libraries": [],
  "pending": [
    "0x257d7f2acbb9e1a80e6df93c8e2c9d1cacdbefe0d8537577c9e40747a354bc1d",
    "0x41c8ad586ede4f01bb1f563352adc12e205e515ec30add89dc522308d7805af2"
  ],
  "returns": {},
  "timestamp": 1733426181,
  "chain": 11155111,
  "multi": false,
  "commit": "0c80a24"
}