{
  "transactions": [
    {
      "hash": "0x9c9a2ea91f1e6c12b8f73308eee737c4e877606f4f8076d35fd8c373f3ed55cc",
      "transactionType": "CALL",
      "contractName": null,
      "contractAddress": "0xca14007eff0db1f8135f4c25b34de49ab0d42766",
      "function": "approve(address,uint256)",
      "arguments": [
        "0xabcd70100c04F7aD20DDF425705c91AB2BeA4e56",
        "115792089237316195423570985008687907853269984665640564039457584007913129639935"
      ],
      "transaction": {
        "from": "0xddb342ecc94236c29a5307d3757d0724d759453c",
        "to": "0xca14007eff0db1f8135f4c25b34de49ab0d42766",
        "gas": "0x93a9",
        "value": "0x0",
        "input": "0x095ea7b3000000000000000000000000abcd70100c04f7ad20ddf425705c91ab2bea4e56ffffffffffffffffffffffffffffffffffffffffffffffffffffffffffffffff",
        "nonce": "0x52f",
        "chainId": "0xaa36a7"
      },
      "additionalContracts": [],
      "isFixedGasLimit": false
    },
    {
      "hash": "0x41fe54b33b041523cbf8407a2416263cbaf00c1e72790aab2cdca8958fa01055",
      "transactionType": "CALL",
      "contractName": null,
      "contractAddress": "0xabcd70100c04f7ad20ddf425705c91ab2bea4e56",
      "function": "setL2EndpointAddress(uint256)",
      "arguments": [
        "2361042419225082304626344415068641103339443172836640990408796361498044356029"
      ],
      "transaction": {
        "from": "0xddb342ecc94236c29a5307d3757d0724d759453c",
        "to": "0xabcd70100c04f7ad20ddf425705c91ab2bea4e56",
        "gas": "0xa23f",
        "value": "0x0",
        "input": "0x5155fb2f05384d7aa25d47c73d60f2ee889af6b337544c534b05d8560578c06f01db55bd",
        "nonce": "0x530",
        "chainId": "0xaa36a7"
      },
      "additionalContracts": [],
      "isFixedGasLimit": false
    }
  ],
  "receipts": [
    {
      "status": "0x1",
      "cumulativeGasUsed": "0x11a84ea",
      "logs": [
        {
          "address": "0xca14007eff0db1f8135f4c25b34de49ab0d42766",
          "topics": [
            "0x8c5be1e5ebec7d5bd14f71427d1e84f3dd0314c0f7b2291e5b200ac8c7c3b925",
            "0x000000000000000000000000ddb342ecc94236c29a5307d3757d0724d759453c",
            "0x000000000000000000000000abcd70100c04f7ad20ddf425705c91ab2bea4e56"
          ],
          "data": "0xffffffffffffffffffffffffffffffffffffffffffffffffffffffffffffffff",
          "blockHash": "0x80ff02cf6328a95381f7320b91160218888e84849c1ca6b0f6fe4fe46582c13d",
          "blockNumber": "0x731116",
          "transactionHash": "0x9c9a2ea91f1e6c12b8f73308eee737c4e877606f4f8076d35fd8c373f3ed55cc",
          "transactionIndex": "0x65",
          "logIndex": "0xdb",
          "removed": false
        }
      ],
      "logsBloom": "0x00000000010000000000100000000000000000000000000000000000000000000000000000000000000000000000000000000000000000000000000000200000000000000000000000000000000000000000000000000000000000000000000400000000000000000000000000000000400000000000000000000000400000000000000000000000000000000000000000000000000000000000000000000000020000000000000000000000000000000000000000000000000000000000000000000000000000020000000000000000000000000000000000800000000000000010000000001000000000000000000000000000001000000000000000000000",
      "type": "0x2",
      "transactionHash": "0x9c9a2ea91f1e6c12b8f73308eee737c4e877606f4f8076d35fd8c373f3ed55cc",
      "transactionIndex": "0x65",
      "blockHash": "0x80ff02cf6328a95381f7320b91160218888e84849c1ca6b0f6fe4fe46582c13d",
      "blockNumber": "0x731116",
      "gasUsed": "0x6ae8",
      "effectiveGasPrice": "0x8c145eb2",
      "from": "0xddb342ecc94236c29a5307d3757d0724d759453c",
      "to": "0xca14007eff0db1f8135f4c25b34de49ab0d42766",
      "contractAddress": null
    },
    {
      "status": "0x1",
      "cumulativeGasUsed": "0x11afa61",
      "logs": [
        {
          "address": "0xabcd70100c04f7ad20ddf425705c91ab2bea4e56",
          "topics": [
            "0xa35dce9e53611b0cabca886209c4a1d09c80214af9b6fb6027f7b2f7c39838e8"
          ],
          "data": "0x05384d7aa25d47c73d60f2ee889af6b337544c534b05d8560578c06f01db55bd",
          "blockHash": "0x80ff02cf6328a95381f7320b91160218888e84849c1ca6b0f6fe4fe46582c13d",
          "blockNumber": "0x731116",
          "transactionHash": "0x41fe54b33b041523cbf8407a2416263cbaf00c1e72790aab2cdca8958fa01055",
          "transactionIndex": "0x66",
          "logIndex": "0xdc",
          "removed": false
        }
      ],
      "logsBloom": "0x00000000000000000020000010000000000000000000000000000000000000000000000000000000000000000000000000000000000000000000000000000000000000000000000000000000000200000000000000000000000800000000000000000000000000000000000000000000000000000000000000000000000000000000000000000000000000000000000000000000000000080000000000000000800000000000000000000000000000000000000000000000000000000000000000000000000000000000000000000000000000000000000000000000000000000000000000000000000000000000000000000000000000000000000000000000",
      "type": "0x2",
      "transactionHash": "0x41fe54b33b041523cbf8407a2416263cbaf00c1e72790aab2cdca8958fa01055",
      "transactionIndex": "0x66",
      "blockHash": "0x80ff02cf6328a95381f7320b91160218888e84849c1ca6b0f6fe4fe46582c13d",
      "blockNumber": "0x731116",
      "gasUsed": "0x7577",
      "effectiveGasPrice": "0x8c145eb2",
      "from": "0xddb342ecc94236c29a5307d3757d0724d759453c",
      "to": "0xabcd70100c04f7ad20ddf425705c91ab2bea4e56",
      "contractAddress": null
    }
  ],
  "libraries": [],
  "pending": [],
  "returns": {},
  "timestamp": 1737476509,
  "chain": 11155111,
  "commit": "fcbff6b"
}