{
  "transactions": [
    {
      "hash": "0x7fe36c3dab98f223891c5fd1fe8b794a5f7f21c706f745455f520ed65303f88d",
      "transactionType": "CALL",
      "contractName": null,
      "contractAddress": "0xe2bb56ee936fd6433dc0f6e7e3b8365c906aa057",
      "function": "sendMessageToL2(uint256,uint256,uint256[])",
      "arguments": [
        "2812710952364249994127119030704660708892146755952486819483888414710739530805",
        "425952401605428413817582304755919420533935873840436977667370850915372091056",
        "[3, 1265684623727634235329190328445374361672779121980, 1265684623727634235329190328445374361672779121980, 1153662193824988676821566247033479441673014749030, 0, 1153662193824988676821566247033479441673014749030]"
      ],
      "transaction": {
        "from": "0xddb342ecc94236c29a5307d3757d0724d759453c",
        "to": "0xe2bb56ee936fd6433dc0f6e7e3b8365c906aa057",
        "gas": "0x1591d",
        "value": "0x1c6bf52634000",
        "input": "0x3e3aa6c50637f01fa56a50f82627a8b711bd1c2c1f866900f6dc30bcb988b6622068743500f1149cade9d692862ad41df96b108aa2c20af34f640457e781d166c98dc6b0000000000000000000000000000000000000000000000000000000000000006000000000000000000000000000000000000000000000000000000000000000060000000000000000000000000000000000000000000000000000000000000003000000000000000000000000ddb342ecc94236c29a5307d3757d0724d759453c000000000000000000000000ddb342ecc94236c29a5307d3757d0724d759453c000000000000000000000000ca14007eff0db1f8135f4c25b34de49ab0d427660000000000000000000000000000000000000000000000000000000000000000000000000000000000000000ca14007eff0db1f8135f4c25b34de49ab0d42766",
        "nonce": "0x4a7",
        "chainId": "0xaa36a7"
      },
      "additionalContracts": [],
      "isFixedGasLimit": false
    }
  ],
  "receipts": [
    {
      "status": "0x1",
      "cumulativeGasUsed": "0xf275df",
      "logs": [
        {
          "address": "0xe2bb56ee936fd6433dc0f6e7e3b8365c906aa057",
          "topics": [
            "0xdb80dd488acf86d17c747445b0eabb5d57c541d3bd7b6b87af987858e5066b2b",
            "0x000000000000000000000000ddb342ecc94236c29a5307d3757d0724d759453c",
            "0x0637f01fa56a50f82627a8b711bd1c2c1f866900f6dc30bcb988b66220687435",
            "0x00f1149cade9d692862ad41df96b108aa2c20af34f640457e781d166c98dc6b0"
          ],
          "data": "0x00000000000000000000000000000000000000000000000000000000000000600000000000000000000000000000000000000000000000000000000000002c1d0000000000000000000000000000000000000000000000000001c6bf5263400000000000000000000000000000000000000000000000000000000000000000060000000000000000000000000000000000000000000000000000000000000003000000000000000000000000ddb342ecc94236c29a5307d3757d0724d759453c000000000000000000000000ddb342ecc94236c29a5307d3757d0724d759453c000000000000000000000000ca14007eff0db1f8135f4c25b34de49ab0d427660000000000000000000000000000000000000000000000000000000000000000000000000000000000000000ca14007eff0db1f8135f4c25b34de49ab0d42766",
          "blockHash": "0x36d03c456df1fc82594588edc2cc7d9ab1b93229aac9075ffe68ca915db969ac",
          "blockNumber": "0x72f250",
          "transactionHash": "0x7fe36c3dab98f223891c5fd1fe8b794a5f7f21c706f745455f520ed65303f88d",
          "transactionIndex": "0x90",
          "logIndex": "0xe6",
          "removed": false
        }
      ],
      "logsBloom": "0x01400000000000000000000000020000000000000000000000000000000000000000000000000000000000000000000000000000000000000000000000000000000000000000000000000000000000040000000000000040001000000000000400000000100000010000000000000000400000000000000000000000400000000000000000000000000000000000000004000000000000000000000000000010000000000000000000000020000000000000000000000000000000000000000000000000000000000000000000000000000000000000000000000000000000000000000000000000000000000000000000000000000000000000000000000000",
      "type": "0x2",
      "transactionHash": "0x7fe36c3dab98f223891c5fd1fe8b794a5f7f21c706f745455f520ed65303f88d",
      "transactionIndex": "0x90",
      "blockHash": "0x36d03c456df1fc82594588edc2cc7d9ab1b93229aac9075ffe68ca915db969ac",
      "blockNumber": "0x72f250",
      "gasUsed": "0xf9dc",
      "effectiveGasPrice": "0x835bea9a",
      "from": "0xddb342ecc94236c29a5307d3757d0724d759453c",
      "to": "0xe2bb56ee936fd6433dc0f6e7e3b8365c906aa057",
      "contractAddress": null
    }
  ],
  "libraries": [],
  "pending": [],
  "returns": {},
  "timestamp": 1737381781,
  "chain": 11155111,
  "commit": "fcbff6b"
}