{
  "transactions": [
    {
      "hash": "0x51ff5d7ac1c9afc8ff76d0c7e7c91293d0bae53f51a61481d4179c7da32a5fc5",
      "transactionType": "CALL",
      "contractName": "StarkNetToken",
      "contractAddress": "0xCa14007Eff0dB1f8135f4C25B34De49AB0d42766",
      "function": "approve(address,uint256)",
      "arguments": [
        "0x7eb4C59eABE1234E8A6D02FdF4d1BB595C4702Cd",
        "115792089237316195423570985008687907853269984665640564039457584007913129639935"
      ],
      "transaction": {
        "type": "0x02",
        "from": "0xddb342ecc94236c29a5307d3757d0724d759453c",
        "to": "0xca14007eff0db1f8135f4c25b34de49ab0d42766",
        "gas": "0x93a9",
        "value": "0x0",
        "data": "0x095ea7b30000000000000000000000007eb4c59eabe1234e8a6d02fdf4d1bb595c4702cdffffffffffffffffffffffffffffffffffffffffffffffffffffffffffffffff",
        "nonce": "0x3a0",
        "accessList": []
      },
      "additionalContracts": [],
      "isFixedGasLimit": false
    },
    {
      "hash": "0xf5d3cdcdf4e6f06f93e93257ee41787879696827637ec5e1e9a194e97cbf75a7",
      "transactionType": "CALL",
      "contractName": null,
      "contractAddress": "0x7eb4C59eABE1234E8A6D02FdF4d1BB595C4702Cd",
      "function": "initiateCancelDepositRequest(address,uint256,uint256)",
      "arguments": [
        "0xCa14007Eff0dB1f8135f4C25B34De49AB0d42766",
        "500000000000000",
        "10631"
      ],
      "transaction": {
        "type": "0x02",
        "from": "0xddb342ecc94236c29a5307d3757d0724d759453c",
        "to": "0x7eb4c59eabe1234e8a6d02fdf4d1bb595c4702cd",
        "gas": "0x1d036",
        "value": "0x0",
        "data": "0x1544a45d000000000000000000000000ca14007eff0db1f8135f4c25b34de49ab0d427660000000000000000000000000000000000000000000000000001c6bf526340000000000000000000000000000000000000000000000000000000000000002987",
        "nonce": "0x3a1",
        "accessList": []
      },
      "additionalContracts": [],
      "isFixedGasLimit": false
    }
  ],
  "receipts": [],
  "libraries": [],
  "pending": [
    "0x51ff5d7ac1c9afc8ff76d0c7e7c91293d0bae53f51a61481d4179c7da32a5fc5",
    "0xf5d3cdcdf4e6f06f93e93257ee41787879696827637ec5e1e9a194e97cbf75a7"
  ],
  "returns": {},
  "timestamp": 1733131019,
  "chain": 11155111,
  "multi": false,
  "commit": "578600f"
}