{
  "transactions": [
    {
      "hash": "0x39aced01262b842cd4eac27f6ccac9fafbfcd4ba49babd9b3e43d0d118a27fd2",
      "transactionType": "CALL",
      "contractName": "StarkNetToken",
      "contractAddress": "0xCa14007Eff0dB1f8135f4C25B34De49AB0d42766",
      "function": "approve(address,uint256)",
      "arguments": [
        "0xa37Cb2cD03619597Bca95D8DCbcCcb642e526756",
        "115792089237316195423570985008687907853269984665640564039457584007913129639935"
      ],
      "transaction": {
        "type": "0x02",
        "from": "0xddb342ecc94236c29a5307d3757d0724d759453c",
        "to": "0xca14007eff0db1f8135f4c25b34de49ab0d42766",
        "gas": "0x93a9",
        "value": "0x0",
        "data": "0x095ea7b3000000000000000000000000a37cb2cd03619597bca95d8dcbcccb642e526756ffffffffffffffffffffffffffffffffffffffffffffffffffffffffffffffff",
        "nonce": "0x24a",
        "accessList": []
      },
      "additionalContracts": [],
      "isFixedGasLimit": false
    },
    {
      "hash": "0x6490c798b31849ea6185d831e902a998187e0757d2aad01ff8f52fe3d474e706",
      "transactionType": "CALL",
      "contractName": "Proxy",
      "contractAddress": "0xE2Bb56ee936fd6433DC0F6e7e3b8365C906AA057",
      "function": "sendMessageToL2(uint256,uint256,uint256[])",
      "arguments": [
        "677971976306712280810047050700920315075157035301188619020854104939969386538",
        "425952401605428413817582304755919420533935873840436977667370850915372091056",
        "[2]"
      ],
      "transaction": {
        "type": "0x02",
        "from": "0xddb342ecc94236c29a5307d3757d0724d759453c",
        "to": "0xe2bb56ee936fd6433dc0f6e7e3b8365c906aa057",
        "gas": "0x14933",
        "value": "0x7a120",
        "data": "0x3e3aa6c5017fb7f23ebf3e40289ce5ca30169d459217fac332884502360262dd1078182a00f1149cade9d692862ad41df96b108aa2c20af34f640457e781d166c98dc6b0000000000000000000000000000000000000000000000000000000000000006000000000000000000000000000000000000000000000000000000000000000010000000000000000000000000000000000000000000000000000000000000002",
        "nonce": "0x24b",
        "accessList": []
      },
      "additionalContracts": [],
      "isFixedGasLimit": false
    }
  ],
  "receipts": [
    {
      "transactionHash": "0x39aced01262b842cd4eac27f6ccac9fafbfcd4ba49babd9b3e43d0d118a27fd2",
      "transactionIndex": "0x1",
      "blockHash": "0x142d22b3c8513722cfc9366984cc2643f722924e7598cfb9a9102efdae994cac",
      "blockNumber": "0x6b5f41",
      "from": "0xDdb342ecc94236c29a5307d3757d0724D759453C",
      "to": "0xCa14007Eff0dB1f8135f4C25B34De49AB0d42766",
      "cumulativeGasUsed": "0xbcf0",
      "gasUsed": "0x6ae8",
      "contractAddress": null,
      "logs": [
        {
          "address": "0xCa14007Eff0dB1f8135f4C25B34De49AB0d42766",
          "topics": [
            "0x8c5be1e5ebec7d5bd14f71427d1e84f3dd0314c0f7b2291e5b200ac8c7c3b925",
            "0x000000000000000000000000ddb342ecc94236c29a5307d3757d0724d759453c",
            "0x000000000000000000000000a37cb2cd03619597bca95d8dcbcccb642e526756"
          ],
          "data": "0xffffffffffffffffffffffffffffffffffffffffffffffffffffffffffffffff",
          "blockHash": "0x142d22b3c8513722cfc9366984cc2643f722924e7598cfb9a9102efdae994cac",
          "blockNumber": "0x6b5f41",
          "transactionHash": "0x39aced01262b842cd4eac27f6ccac9fafbfcd4ba49babd9b3e43d0d118a27fd2",
          "transactionIndex": "0x1",
          "logIndex": "0x0",
          "removed": false
        }
      ],
      "status": "0x1",
      "logsBloom": "0x00000000000000002000000000000000000000000000000000000000000000000000000000000000000000000000000000000000000000000000000000200100000000000000000000000000000000000000000000000000000000000000000400000000000000000000000000000000400000000020000000000000400000000000000000000000000000000000000000000000000000000000000000000000020000000000000000000000000000000000000000000000000000000000000000000000000000020000000000000000000000000000000000800000000000000010000000000000000000000000000000000000001000000000000000000000",
      "type": "0x2",
      "effectiveGasPrice": "0x1b5ed493f"
    },
    {
      "transactionHash": "0x6490c798b31849ea6185d831e902a998187e0757d2aad01ff8f52fe3d474e706",
      "transactionIndex": "0x2",
      "blockHash": "0x142d22b3c8513722cfc9366984cc2643f722924e7598cfb9a9102efdae994cac",
      "blockNumber": "0x6b5f41",
      "from": "0xDdb342ecc94236c29a5307d3757d0724D759453C",
      "to": "0xE2Bb56ee936fd6433DC0F6e7e3b8365C906AA057",
      "cumulativeGasUsed": "0x1ab46",
      "gasUsed": "0xee56",
      "contractAddress": null,
      "logs": [
        {
          "address": "0xE2Bb56ee936fd6433DC0F6e7e3b8365C906AA057",
          "topics": [
            "0xdb80dd488acf86d17c747445b0eabb5d57c541d3bd7b6b87af987858e5066b2b",
            "0x000000000000000000000000ddb342ecc94236c29a5307d3757d0724d759453c",
            "0x017fb7f23ebf3e40289ce5ca30169d459217fac332884502360262dd1078182a",
            "0x00f1149cade9d692862ad41df96b108aa2c20af34f640457e781d166c98dc6b0"
          ],
          "data": "0x000000000000000000000000000000000000000000000000000000000000006000000000000000000000000000000000000000000000000000000000000027a0000000000000000000000000000000000000000000000000000000000007a12000000000000000000000000000000000000000000000000000000000000000010000000000000000000000000000000000000000000000000000000000000002",
          "blockHash": "0x142d22b3c8513722cfc9366984cc2643f722924e7598cfb9a9102efdae994cac",
          "blockNumber": "0x6b5f41",
          "transactionHash": "0x6490c798b31849ea6185d831e902a998187e0757d2aad01ff8f52fe3d474e706",
          "transactionIndex": "0x2",
          "logIndex": "0x1",
          "removed": false
        }
      ],
      "status": "0x1",
      "logsBloom": "0x00400000000000000000000000020000000000000000000000000000000000000000000000000000000000000000000000000000000000000000400000000000000000000000000000000000000000000040000000000040001800000000000400000000100000010000000000000000400000000000000000000000400000000000000000000000000000000000000004000000000000000000000000000010000000000000000000000020000000000000000000000000000000000000000000000000000000000000000000000000000000000000000000000000000000000000000000000000000000000000000000000000000000000000000000000000",
      "type": "0x2",
      "effectiveGasPrice": "0x1b5ed493f"
    }
  ],
  "libraries": [],
  "pending": [],
  "returns": {},
  "timestamp": 1731073650,
  "chain": 11155111,
  "multi": false,
  "commit": "3f88c93"
}