{
  "transactions": [
    {
      "hash": "0xf9295bec14c69df0b515d4cb1bf9a18cd2d93ebea170475e141fc47e84a3019d",
      "transactionType": "CALL",
      "contractName": null,
      "contractAddress": "0xca14007eff0db1f8135f4c25b34de49ab0d42766",
      "function": "approve(address,uint256)",
      "arguments": [
        "0x21e0b6863F74642fc7764Aa1A394079E388a7b53",
        "115792089237316195423570985008687907853269984665640564039457584007913129639935"
      ],
      "transaction": {
        "from": "0xddb342ecc94236c29a5307d3757d0724d759453c",
        "to": "0xca14007eff0db1f8135f4c25b34de49ab0d42766",
        "gas": "0x93a9",
        "value": "0x0",
        "input": "0x095ea7b300000000000000000000000021e0b6863f74642fc7764aa1a394079e388a7b53ffffffffffffffffffffffffffffffffffffffffffffffffffffffffffffffff",
        "nonce": "0x493",
        "chainId": "0xaa36a7"
      },
      "additionalContracts": [],
      "isFixedGasLimit": false
    },
    {
      "hash": "0xf337f5499f0a8b728471d9cb4b59a01e5d10c30f177df5376e6a233a6d87ca75",
      "transactionType": "CALL",
      "contractName": null,
      "contractAddress": "0x21e0b6863f74642fc7764aa1a394079e388a7b53",
      "function": "setL2EndpointAddress(uint256)",
      "arguments": [
        "2734220068234555827518083835569118205946511831541175908626824029823453357210"
      ],
      "transaction": {
        "from": "0xddb342ecc94236c29a5307d3757d0724d759453c",
        "to": "0x21e0b6863f74642fc7764aa1a394079e388a7b53",
        "gas": "0xa23f",
        "value": "0x0",
        "input": "0x5155fb2f060b8382f1bcb96d57e087f2042a19337b45dbe0a1c7d0d68e7c8906384be49a",
        "nonce": "0x494",
        "chainId": "0xaa36a7"
      },
      "additionalContracts": [],
      "isFixedGasLimit": false
    }
  ],
  "receipts": [
    {
      "status": "0x1",
      "cumulativeGasUsed": "0x5be359",
      "logs": [
        {
          "address": "0xca14007eff0db1f8135f4c25b34de49ab0d42766",
          "topics": [
            "0x8c5be1e5ebec7d5bd14f71427d1e84f3dd0314c0f7b2291e5b200ac8c7c3b925",
            "0x000000000000000000000000ddb342ecc94236c29a5307d3757d0724d759453c",
            "0x00000000000000000000000021e0b6863f74642fc7764aa1a394079e388a7b53"
          ],
          "data": "0xffffffffffffffffffffffffffffffffffffffffffffffffffffffffffffffff",
          "blockHash": "0xc161bed02f0b1bd6d5aaf795194ab5876ad7ae4d91b012d3f4fe00b7f2da183d",
          "blockNumber": "0x72025d",
          "transactionHash": "0xf9295bec14c69df0b515d4cb1bf9a18cd2d93ebea170475e141fc47e84a3019d",
          "transactionIndex": "0x30",
          "logIndex": "0x41",
          "removed": false
        }
      ],
      "logsBloom": "0x00000000000000000000000000000000000000000000000000000000000000000000000000000000000000000000000000200000000000000000000000200000000000000000000000000000000000000000000000000000000000000000000600000000000000000000000000000000400000000000000000000000400000000000000000000000000000000000000000000000000000000000000000000000020000000000000000000000000000000000000000000000000000000000000000000000000000020000000000000000000000000000000000800000000000000010000000000000000000000000000200000000001000000000000000000000",
      "type": "0x2",
      "transactionHash": "0xf9295bec14c69df0b515d4cb1bf9a18cd2d93ebea170475e141fc47e84a3019d",
      "transactionIndex": "0x30",
      "blockHash": "0xc161bed02f0b1bd6d5aaf795194ab5876ad7ae4d91b012d3f4fe00b7f2da183d",
      "blockNumber": "0x72025d",
      "gasUsed": "0x6ae8",
      "effectiveGasPrice": "0x218a03ebf",
      "from": "0xddb342ecc94236c29a5307d3757d0724d759453c",
      "to": "0xca14007eff0db1f8135f4c25b34de49ab0d42766",
      "contractAddress": null
    },
    {
      "status": "0x1",
      "cumulativeGasUsed": "0x5c58d0",
      "logs": [
        {
          "address": "0x21e0b6863f74642fc7764aa1a394079e388a7b53",
          "topics": [
            "0xa35dce9e53611b0cabca886209c4a1d09c80214af9b6fb6027f7b2f7c39838e8"
          ],
          "data": "0x060b8382f1bcb96d57e087f2042a19337b45dbe0a1c7d0d68e7c8906384be49a",
          "blockHash": "0xc161bed02f0b1bd6d5aaf795194ab5876ad7ae4d91b012d3f4fe00b7f2da183d",
          "blockNumber": "0x72025d",
          "transactionHash": "0xf337f5499f0a8b728471d9cb4b59a01e5d10c30f177df5376e6a233a6d87ca75",
          "transactionIndex": "0x31",
          "logIndex": "0x42",
          "removed": false
        }
      ],
      "logsBloom": "0x00000000000000000000000010000000000000000000000000000000000000000000000000000000000000000000000000000000000000000000000000000000000000000040000000000000000200000000000000000000000000000000000000000000000000000000000000000000000000000000008000000000000000000000000000000000000000000000000000000000000000000000000000000000800000000000001000000000000000000000000000000000000000000000000000000000000000000000000000000000000000000000000000000000000000000000000000000000000000000000000000000000000000000000000000000000",
      "type": "0x2",
      "transactionHash": "0xf337f5499f0a8b728471d9cb4b59a01e5d10c30f177df5376e6a233a6d87ca75",
      "transactionIndex": "0x31",
      "blockHash": "0xc161bed02f0b1bd6d5aaf795194ab5876ad7ae4d91b012d3f4fe00b7f2da183d",
      "blockNumber": "0x72025d",
      "gasUsed": "0x7577",
      "effectiveGasPrice": "0x218a03ebf",
      "from": "0xddb342ecc94236c29a5307d3757d0724d759453c",
      "to": "0x21e0b6863f74642fc7764aa1a394079e388a7b53",
      "contractAddress": null
    }
  ],
  "libraries": [],
  "pending": [],
  "returns": {},
  "timestamp": 1736641477,
  "chain": 11155111,
  "commit": "81b7af0"
}