{
  "transactions": [
    {
      "hash": "0x0f8c3992fa874bf8bc575f5b4ed1e012bf4690c9b42fb42851c0ed5da267fdfe",
      "transactionType": "CALL",
      "contractName": "FiatTokenProxy",
      "contractAddress": "0x1c7D4B196Cb0C7B01d743Fbc6116a902379C7238",
      "function": "approve(address,uint256)",
      "arguments": [
        "0x9DdD3bcEa99B0ea940ed5CcB64a6e689a633DFc0",
        "115792089237316195423570985008687907853269984665640564039457584007913129639935"
      ],
      "transaction": {
        "type": "0x02",
        "from": "0xddb342ecc94236c29a5307d3757d0724d759453c",
        "to": "0x1c7d4b196cb0c7b01d743fbc6116a902379c7238",
        "gas": "0xc19d",
        "value": "0x0",
        "data": "0x095ea7b30000000000000000000000009ddd3bcea99b0ea940ed5ccb64a6e689a633dfc0ffffffffffffffffffffffffffffffffffffffffffffffffffffffffffffffff",
        "nonce": "0x1f6",
        "accessList": []
      },
      "additionalContracts": [],
      "isFixedGasLimit": false
    },
    {
      "hash": "0x8aa79ed0d4de823e5d265ba28171c538f1dd1edf6a39de926684e19df2ce8b33",
      "transactionType": "CALL",
      "contractName": "FiatTokenProxy",
      "contractAddress": "0x1c7D4B196Cb0C7B01d743Fbc6116a902379C7238",
      "function": "transfer(address,uint256)",
      "arguments": [
        "0x9DdD3bcEa99B0ea940ed5CcB64a6e689a633DFc0",
        "100000"
      ],
      "transaction": {
        "type": "0x02",
        "from": "0xddb342ecc94236c29a5307d3757d0724d759453c",
        "to": "0x1c7d4b196cb0c7b01d743fbc6116a902379c7238",
        "gas": "0x1016a",
        "value": "0x0",
        "data": "0xa9059cbb0000000000000000000000009ddd3bcea99b0ea940ed5ccb64a6e689a633dfc000000000000000000000000000000000000000000000000000000000000186a0",
        "nonce": "0x1f7",
        "accessList": []
      },
      "additionalContracts": [],
      "isFixedGasLimit": false
    },
    {
      "hash": "0x8eb6a42e451c9bcc420249151a5ec3421367214c0e8775c3f69bbbce60dd28cb",
      "transactionType": "CALL",
      "contractName": "L1TWAMMBridge",
      "contractAddress": "0x9DdD3bcEa99B0ea940ed5CcB64a6e689a633DFc0",
      "function": "depositAndCreateOrder((address,address,address,uint128,uint128,uint128,uint128,uint256))",
      "arguments": [
        "(0xDdb342ecc94236c29a5307d3757d0724D759453C, 0x1c7D4B196Cb0C7B01d743Fbc6116a902379C7238, 0x1c7D4B196Cb0C7B01d743Fbc6116a902379C7238, 1000000000000000, 1730896000, 1730896064, 100000, 426354174457199316223130445775020877565288869270603374107742042000672403087)"
      ],
      "transaction": {
        "type": "0x02",
        "from": "0xddb342ecc94236c29a5307d3757d0724d759453c",
        "to": "0x9ddd3bcea99b0ea940ed5ccb64a6e689a633dfc0",
        "gas": "0x3cbf1",
        "value": "0x38d7ea4c68000",
        "data": "0x9d251505000000000000000000000000ddb342ecc94236c29a5307d3757d0724d759453c0000000000000000000000001c7d4b196cb0c7b01d743fbc6116a902379c72380000000000000000000000001c7d4b196cb0c7b01d743fbc6116a902379c723800000000000000000000000000000000000000000000000000038d7ea4c6800000000000000000000000000000000000000000000000000000000000672b608000000000000000000000000000000000000000000000000000000000672b60c000000000000000000000000000000000000000000000000000000000000186a000f14ed3433eee96c3018e0a7ae1349ac7ae2cab9c64f89686c70da1020bae8f",
        "nonce": "0x1f8",
        "accessList": []
      },
      "additionalContracts": [],
      "isFixedGasLimit": false
    }
  ],
  "receipts": [
    {
      "transactionHash": "0x0f8c3992fa874bf8bc575f5b4ed1e012bf4690c9b42fb42851c0ed5da267fdfe",
      "transactionIndex": "0x9",
      "blockHash": "0xb60d69fccef0454065c7efcb3eb4cdc77bce1ec6d8221827b2725d17ee50281f",
      "blockNumber": "0x6b2b80",
      "from": "0xDdb342ecc94236c29a5307d3757d0724D759453C",
      "to": "0x1c7D4B196Cb0C7B01d743Fbc6116a902379C7238",
      "cumulativeGasUsed": "0x125e92",
      "gasUsed": "0x8c2d",
      "contractAddress": null,
      "logs": [
        {
          "address": "0x1c7D4B196Cb0C7B01d743Fbc6116a902379C7238",
          "topics": [
            "0x8c5be1e5ebec7d5bd14f71427d1e84f3dd0314c0f7b2291e5b200ac8c7c3b925",
            "0x000000000000000000000000ddb342ecc94236c29a5307d3757d0724d759453c",
            "0x0000000000000000000000009ddd3bcea99b0ea940ed5ccb64a6e689a633dfc0"
          ],
          "data": "0xffffffffffffffffffffffffffffffffffffffffffffffffffffffffffffffff",
          "blockHash": "0xb60d69fccef0454065c7efcb3eb4cdc77bce1ec6d8221827b2725d17ee50281f",
          "blockNumber": "0x6b2b80",
          "transactionHash": "0x0f8c3992fa874bf8bc575f5b4ed1e012bf4690c9b42fb42851c0ed5da267fdfe",
          "transactionIndex": "0x9",
          "logIndex": "0xc",
          "removed": false
        }
      ],
      "status": "0x1",
      "logsBloom": "0x00000000000000000000000000000000000000000000000000000000000200000000000000000000040000000100000000000000000000000000000000200000000000000000000000000000000000000000000000000000000000000000000400004000000000000000000000000000400000000000000000000000400000000000000000100000000000000000000000000000000000000000000000000000020000000000000000000000000000000000000000000000000000000000000000000000000000000000000000000000000000000000000000000000000000000010000000000000000010000000000000000000000000000000000000000000",
      "type": "0x2",
      "effectiveGasPrice": "0x419a1cd10"
    },
    {
      "transactionHash": "0x8aa79ed0d4de823e5d265ba28171c538f1dd1edf6a39de926684e19df2ce8b33",
      "transactionIndex": "0xa",
      "blockHash": "0xb60d69fccef0454065c7efcb3eb4cdc77bce1ec6d8221827b2725d17ee50281f",
      "blockNumber": "0x6b2b80",
      "from": "0xDdb342ecc94236c29a5307d3757d0724D759453C",
      "to": "0x1c7D4B196Cb0C7B01d743Fbc6116a902379C7238",
      "cumulativeGasUsed": "0x130e95",
      "gasUsed": "0xb003",
      "contractAddress": null,
      "logs": [
        {
          "address": "0x1c7D4B196Cb0C7B01d743Fbc6116a902379C7238",
          "topics": [
            "0xddf252ad1be2c89b69c2b068fc378daa952ba7f163c4a11628f55a4df523b3ef",
            "0x000000000000000000000000ddb342ecc94236c29a5307d3757d0724d759453c",
            "0x0000000000000000000000009ddd3bcea99b0ea940ed5ccb64a6e689a633dfc0"
          ],
          "data": "0x00000000000000000000000000000000000000000000000000000000000186a0",
          "blockHash": "0xb60d69fccef0454065c7efcb3eb4cdc77bce1ec6d8221827b2725d17ee50281f",
          "blockNumber": "0x6b2b80",
          "transactionHash": "0x8aa79ed0d4de823e5d265ba28171c538f1dd1edf6a39de926684e19df2ce8b33",
          "transactionIndex": "0xa",
          "logIndex": "0xd",
          "removed": false
        }
      ],
      "status": "0x1",
      "logsBloom": "0x00000000000000000000000000000000000000000000000000000000000200000000000000000000040000000100000000000000000000000000000000000000000000000000000000000008000000000000000000000000000000000000000400004000000000000000000000000000400000000000000000000010400000000000000000100000000000000000000000000000000000000000000000000000000000000000000000000000000000000000000000000000000000000000000000000002000000000000000000000000000000000000000000000000000000000000000000000000000010000000000000000000000000000000000000000000",
      "type": "0x2",
      "effectiveGasPrice": "0x419a1cd10"
    },
    {
      "transactionHash": "0x8eb6a42e451c9bcc420249151a5ec3421367214c0e8775c3f69bbbce60dd28cb",
      "transactionIndex": "0xb",
      "blockHash": "0xb60d69fccef0454065c7efcb3eb4cdc77bce1ec6d8221827b2725d17ee50281f",
      "blockNumber": "0x6b2b80",
      "from": "0xDdb342ecc94236c29a5307d3757d0724D759453C",
      "to": "0x9DdD3bcEa99B0ea940ed5CcB64a6e689a633DFc0",
      "cumulativeGasUsed": "0x15ca34",
      "gasUsed": "0x2bb9f",
      "contractAddress": null,
      "logs": [
        {
          "address": "0x1c7D4B196Cb0C7B01d743Fbc6116a902379C7238",
          "topics": [
            "0xddf252ad1be2c89b69c2b068fc378daa952ba7f163c4a11628f55a4df523b3ef",
            "0x000000000000000000000000ddb342ecc94236c29a5307d3757d0724d759453c",
            "0x0000000000000000000000009ddd3bcea99b0ea940ed5ccb64a6e689a633dfc0"
          ],
          "data": "0x00000000000000000000000000000000000000000000000000000000000186a0",
          "blockHash": "0xb60d69fccef0454065c7efcb3eb4cdc77bce1ec6d8221827b2725d17ee50281f",
          "blockNumber": "0x6b2b80",
          "transactionHash": "0x8eb6a42e451c9bcc420249151a5ec3421367214c0e8775c3f69bbbce60dd28cb",
          "transactionIndex": "0xb",
          "logIndex": "0xe",
          "removed": false
        },
        {
          "address": "0x1c7D4B196Cb0C7B01d743Fbc6116a902379C7238",
          "topics": [
            "0x8c5be1e5ebec7d5bd14f71427d1e84f3dd0314c0f7b2291e5b200ac8c7c3b925",
            "0x0000000000000000000000009ddd3bcea99b0ea940ed5ccb64a6e689a633dfc0",
            "0x00000000000000000000000086dc0b32a5045ffa48d9a60b7e7ca32f11facd7b"
          ],
          "data": "0x0000000000000000000000000000000000000000000000000000000000000000",
          "blockHash": "0xb60d69fccef0454065c7efcb3eb4cdc77bce1ec6d8221827b2725d17ee50281f",
          "blockNumber": "0x6b2b80",
          "transactionHash": "0x8eb6a42e451c9bcc420249151a5ec3421367214c0e8775c3f69bbbce60dd28cb",
          "transactionIndex": "0xb",
          "logIndex": "0xf",
          "removed": false
        },
        {
          "address": "0x1c7D4B196Cb0C7B01d743Fbc6116a902379C7238",
          "topics": [
            "0x8c5be1e5ebec7d5bd14f71427d1e84f3dd0314c0f7b2291e5b200ac8c7c3b925",
            "0x0000000000000000000000009ddd3bcea99b0ea940ed5ccb64a6e689a633dfc0",
            "0x00000000000000000000000086dc0b32a5045ffa48d9a60b7e7ca32f11facd7b"
          ],
          "data": "0x00000000000000000000000000000000000000000000000000000000000186a0",
          "blockHash": "0xb60d69fccef0454065c7efcb3eb4cdc77bce1ec6d8221827b2725d17ee50281f",
          "blockNumber": "0x6b2b80",
          "transactionHash": "0x8eb6a42e451c9bcc420249151a5ec3421367214c0e8775c3f69bbbce60dd28cb",
          "transactionIndex": "0xb",
          "logIndex": "0x10",
          "removed": false
        },
        {
          "address": "0x1c7D4B196Cb0C7B01d743Fbc6116a902379C7238",
          "topics": [
            "0xddf252ad1be2c89b69c2b068fc378daa952ba7f163c4a11628f55a4df523b3ef",
            "0x0000000000000000000000009ddd3bcea99b0ea940ed5ccb64a6e689a633dfc0",
            "0x00000000000000000000000086dc0b32a5045ffa48d9a60b7e7ca32f11facd7b"
          ],
          "data": "0x00000000000000000000000000000000000000000000000000000000000186a0",
          "blockHash": "0xb60d69fccef0454065c7efcb3eb4cdc77bce1ec6d8221827b2725d17ee50281f",
          "blockNumber": "0x6b2b80",
          "transactionHash": "0x8eb6a42e451c9bcc420249151a5ec3421367214c0e8775c3f69bbbce60dd28cb",
          "transactionIndex": "0xb",
          "logIndex": "0x11",
          "removed": false
        },
        {
          "address": "0xE2Bb56ee936fd6433DC0F6e7e3b8365C906AA057",
          "topics": [
            "0xdb80dd488acf86d17c747445b0eabb5d57c541d3bd7b6b87af987858e5066b2b",
            "0x00000000000000000000000086dc0b32a5045ffa48d9a60b7e7ca32f11facd7b",
            "0x0028729b12ce1140cbc1e7cbc7245455d3c15fa0c7f5d2e9fc8e0441567f6b50",
            "0x008bce41827dd5484d80312a2e43bc42a896e3fcf75bf84c2b49339168dfa00a"
          ],
          "data": "0x0000000000000000000000000000000000000000000000000000000000000060000000000000000000000000000000000000000000000000000000000000276400000000000000000000000000000000000000000000000000038d7ea4c68000000000000000000000000000000000000000000000000000000000000000000d0000000000000000000000001c7d4b196cb0c7b01d743fbc6116a902379c72380000000000000000000000009ddd3bcea99b0ea940ed5ccb64a6e689a633dfc000f14ed3433eee96c3018e0a7ae1349ac7ae2cab9c64f89686c70da1020bae8f00000000000000000000000000000000000000000000000000000000000186a0000000000000000000000000000000000000000000000000000000000000000000000000000000000000000000000000000000000000000000000000000000070000000000000000000000000000000000000000000000000000000000000000000000000000000000000000ddb342ecc94236c29a5307d3757d0724d759453c0000000000000000000000001c7d4b196cb0c7b01d743fbc6116a902379c72380000000000000000000000001c7d4b196cb0c7b01d743fbc6116a902379c723800000000000000000000000000000000000000000000000000038d7ea4c6800000000000000000000000000000000000000000000000000000000000672b608000000000000000000000000000000000000000000000000000000000672b60c0",
          "blockHash": "0xb60d69fccef0454065c7efcb3eb4cdc77bce1ec6d8221827b2725d17ee50281f",
          "blockNumber": "0x6b2b80",
          "transactionHash": "0x8eb6a42e451c9bcc420249151a5ec3421367214c0e8775c3f69bbbce60dd28cb",
          "transactionIndex": "0xb",
          "logIndex": "0x12",
          "removed": false
        },
        {
          "address": "0x86dC0B32a5045FFa48D9a60B7e7Ca32F11faCd7B",
          "topics": [
            "0x2203a49c69f1a46c1164f5e4a30643dd77b7c59c0ff9bc433256048365c247f1",
            "0x0000000000000000000000009ddd3bcea99b0ea940ed5ccb64a6e689a633dfc0",
            "0x0000000000000000000000001c7d4b196cb0c7b01d743fbc6116a902379c7238",
            "0x00f14ed3433eee96c3018e0a7ae1349ac7ae2cab9c64f89686c70da1020bae8f"
          ],
          "data": "0x00000000000000000000000000000000000000000000000000000000000186a00000000000000000000000000000000000000000000000000000000000000080000000000000000000000000000000000000000000000000000000000000276400000000000000000000000000000000000000000000000000038d7ea4c6800000000000000000000000000000000000000000000000000000000000000000070000000000000000000000000000000000000000000000000000000000000000000000000000000000000000ddb342ecc94236c29a5307d3757d0724d759453c0000000000000000000000001c7d4b196cb0c7b01d743fbc6116a902379c72380000000000000000000000001c7d4b196cb0c7b01d743fbc6116a902379c723800000000000000000000000000000000000000000000000000038d7ea4c6800000000000000000000000000000000000000000000000000000000000672b608000000000000000000000000000000000000000000000000000000000672b60c0",
          "blockHash": "0xb60d69fccef0454065c7efcb3eb4cdc77bce1ec6d8221827b2725d17ee50281f",
          "blockNumber": "0x6b2b80",
          "transactionHash": "0x8eb6a42e451c9bcc420249151a5ec3421367214c0e8775c3f69bbbce60dd28cb",
          "transactionIndex": "0xb",
          "logIndex": "0x13",
          "removed": false
        },
        {
          "address": "0x9DdD3bcEa99B0ea940ed5CcB64a6e689a633DFc0",
          "topics": [
            "0xaf43445f7721522b7a3864ed3de53d7e2e658bfa1eeffa18e1e229be68ce2545",
            "0x000000000000000000000000ddb342ecc94236c29a5307d3757d0724d759453c",
            "0x00f14ed3433eee96c3018e0a7ae1349ac7ae2cab9c64f89686c70da1020bae8f"
          ],
          "data": "0x00000000000000000000000000000000000000000000000000000000000186a00000000000000000000000000000000000000000000000000000000000000001",
          "blockHash": "0xb60d69fccef0454065c7efcb3eb4cdc77bce1ec6d8221827b2725d17ee50281f",
          "blockNumber": "0x6b2b80",
          "transactionHash": "0x8eb6a42e451c9bcc420249151a5ec3421367214c0e8775c3f69bbbce60dd28cb",
          "transactionIndex": "0xb",
          "logIndex": "0x14",
          "removed": false
        }
      ],
      "status": "0x1",
      "logsBloom": "0x00000200080000000000000000020000000000000010000000000040000200000000000000000000040000000100000000000000000004000000420000200000100000000000000000000008000000004000000000000040001000000000000600004000100000000000000000000000400200000200000000000210402080000000000000102000000000020004000000008000000000000000002000000010020000800000000000000020000000021000008000000000000002000000000000800002000000000000000000000000000000000000000000000000000000000010008000000000000010000000000000000000000000000000000000000000",
      "type": "0x2",
      "effectiveGasPrice": "0x419a1cd10"
    }
  ],
  "libraries": [],
  "pending": [],
  "returns": {},
  "timestamp": 1730896070,
  "chain": 11155111,
  "multi": false,
  "commit": "85f3f64"
}