{
  "transactions": [
    {
      "hash": "0xe7fdd7604aaa1947d6703469aabb11be246abe19eadef7d3eaaf87bf8f92be09",
      "transactionType": "CALL",
      "contractName": "FiatTokenProxy",
      "contractAddress": "0x1c7D4B196Cb0C7B01d743Fbc6116a902379C7238",
      "function": "approve(address,uint256)",
      "arguments": [
        "0xE0935B99d1a713588Ec545dbeDd41BbE03Ac7c12",
        "115792089237316195423570985008687907853269984665640564039457584007913129639935"
      ],
      "transaction": {
        "type": "0x02",
        "from": "0xddb342ecc94236c29a5307d3757d0724d759453c",
        "to": "0x1c7d4b196cb0c7b01d743fbc6116a902379c7238",
        "gas": "0xc19d",
        "value": "0x0",
        "data": "0x095ea7b3000000000000000000000000e0935b99d1a713588ec545dbedd41bbe03ac7c12ffffffffffffffffffffffffffffffffffffffffffffffffffffffffffffffff",
        "nonce": "0x1cd",
        "accessList": []
      },
      "additionalContracts": [],
      "isFixedGasLimit": false
    },
    {
      "hash": "0x8a8ef403f2edf23b60eed86cb38975bae69564c48896867f42e25d4973099ca8",
      "transactionType": "CALL",
      "contractName": "FiatTokenProxy",
      "contractAddress": "0x1c7D4B196Cb0C7B01d743Fbc6116a902379C7238",
      "function": "transfer(address,uint256)",
      "arguments": [
        "0xE0935B99d1a713588Ec545dbeDd41BbE03Ac7c12",
        "500000"
      ],
      "transaction": {
        "type": "0x02",
        "from": "0xddb342ecc94236c29a5307d3757d0724d759453c",
        "to": "0x1c7d4b196cb0c7b01d743fbc6116a902379c7238",
        "gas": "0x14f5f",
        "value": "0x0",
        "data": "0xa9059cbb000000000000000000000000e0935b99d1a713588ec545dbedd41bbe03ac7c12000000000000000000000000000000000000000000000000000000000007a120",
        "nonce": "0x1ce",
        "accessList": []
      },
      "additionalContracts": [],
      "isFixedGasLimit": false
    },
    {
      "hash": "0xa8c8837d86f9e292681af191723443abe91aa9028d27d6af6bdf611a51149be5",
      "transactionType": "CALL",
      "contractName": "L1TWAMMBridge",
      "contractAddress": "0xE0935B99d1a713588Ec545dbeDd41BbE03Ac7c12",
      "function": "depositAndCreateOrder((address,address,address,uint128,uint128,uint128,uint128,uint256))",
      "arguments": [
        "(0xDdb342ecc94236c29a5307d3757d0724D759453C, 0x1c7D4B196Cb0C7B01d743Fbc6116a902379C7238, 0x1c7D4B196Cb0C7B01d743Fbc6116a902379C7238, 10000000000000000, 1730887664, 1730887728, 500000, 2962709860935816857512909953167996124532029233098644282835224648946722238470)"
      ],
      "transaction": {
        "type": "0x02",
        "from": "0xddb342ecc94236c29a5307d3757d0724d759453c",
        "to": "0xe0935b99d1a713588ec545dbedd41bbe03ac7c12",
        "gas": "0x3cbd0",
        "value": "0x2386f26fc10000",
        "data": "0x9d251505000000000000000000000000ddb342ecc94236c29a5307d3757d0724d759453c0000000000000000000000001c7d4b196cb0c7b01d743fbc6116a902379c72380000000000000000000000001c7d4b196cb0c7b01d743fbc6116a902379c7238000000000000000000000000000000000000000000000000002386f26fc1000000000000000000000000000000000000000000000000000000000000672b3ff000000000000000000000000000000000000000000000000000000000672b4030000000000000000000000000000000000000000000000000000000000007a120068cd598638bf0af505600ab43b7c8eee178a4dee2280d9800eacfa927f77006",
        "nonce": "0x1cf",
        "accessList": []
      },
      "additionalContracts": [],
      "isFixedGasLimit": false
    }
  ],
  "receipts": [
    {
      "transactionHash": "0xe7fdd7604aaa1947d6703469aabb11be246abe19eadef7d3eaaf87bf8f92be09",
      "transactionIndex": "0x6",
      "blockHash": "0xa2281c912eb0b0f20c92c903943b1fed460518406ad5513607ef0cc4548785b7",
      "blockNumber": "0x6b2902",
      "from": "0xDdb342ecc94236c29a5307d3757d0724D759453C",
      "to": "0x1c7D4B196Cb0C7B01d743Fbc6116a902379C7238",
      "cumulativeGasUsed": "0x1b26ef",
      "gasUsed": "0x8c2d",
      "contractAddress": null,
      "logs": [
        {
          "address": "0x1c7D4B196Cb0C7B01d743Fbc6116a902379C7238",
          "topics": [
            "0x8c5be1e5ebec7d5bd14f71427d1e84f3dd0314c0f7b2291e5b200ac8c7c3b925",
            "0x000000000000000000000000ddb342ecc94236c29a5307d3757d0724d759453c",
            "0x000000000000000000000000e0935b99d1a713588ec545dbedd41bbe03ac7c12"
          ],
          "data": "0xffffffffffffffffffffffffffffffffffffffffffffffffffffffffffffffff",
          "blockHash": "0xa2281c912eb0b0f20c92c903943b1fed460518406ad5513607ef0cc4548785b7",
          "blockNumber": "0x6b2902",
          "transactionHash": "0xe7fdd7604aaa1947d6703469aabb11be246abe19eadef7d3eaaf87bf8f92be09",
          "transactionIndex": "0x6",
          "logIndex": "0x38",
          "removed": false
        }
      ],
      "status": "0x1",
      "logsBloom": "0x00000000000000000000000000000000000000000000000000000000000200000000000000000000000000000000000000000000000000000000000000200000000000000000000000000000000000000000000000000000000000000000000400000000000000000000000000000000400000000000000000000000400000000000001000100000000000400000000000000000000000000000000000000000020000000000000000000000000000000000000000000000000000000000000000000000000000000000000200000000000000000000000000000000000000000010000000000000000010000000000000000000000000000000000000000000",
      "type": "0x2",
      "effectiveGasPrice": "0x330e9ac77"
    },
    {
      "transactionHash": "0x8a8ef403f2edf23b60eed86cb38975bae69564c48896867f42e25d4973099ca8",
      "transactionIndex": "0x7",
      "blockHash": "0xa2281c912eb0b0f20c92c903943b1fed460518406ad5513607ef0cc4548785b7",
      "blockNumber": "0x6b2902",
      "from": "0xDdb342ecc94236c29a5307d3757d0724D759453C",
      "to": "0x1c7D4B196Cb0C7B01d743Fbc6116a902379C7238",
      "cumulativeGasUsed": "0x1c19be",
      "gasUsed": "0xf2cf",
      "contractAddress": null,
      "logs": [
        {
          "address": "0x1c7D4B196Cb0C7B01d743Fbc6116a902379C7238",
          "topics": [
            "0xddf252ad1be2c89b69c2b068fc378daa952ba7f163c4a11628f55a4df523b3ef",
            "0x000000000000000000000000ddb342ecc94236c29a5307d3757d0724d759453c",
            "0x000000000000000000000000e0935b99d1a713588ec545dbedd41bbe03ac7c12"
          ],
          "data": "0x000000000000000000000000000000000000000000000000000000000007a120",
          "blockHash": "0xa2281c912eb0b0f20c92c903943b1fed460518406ad5513607ef0cc4548785b7",
          "blockNumber": "0x6b2902",
          "transactionHash": "0x8a8ef403f2edf23b60eed86cb38975bae69564c48896867f42e25d4973099ca8",
          "transactionIndex": "0x7",
          "logIndex": "0x39",
          "removed": false
        }
      ],
      "status": "0x1",
      "logsBloom": "0x00000000000000000000000000000000000000000000000000000000000200000000000000000000000000000000000000000000000000000000000000000000000000000000000000000008000000000000000000000000000000000000000400000000000000000000000000000000400000000000000000000010400000000000001000100000000000400000000000000000000000000000000000000000000000000000000000000000000000000000000000000000000000000000000000000002000000000000000200000000000000000000000000000000000000000000000000000000000010000000000000000000000000000000000000000000",
      "type": "0x2",
      "effectiveGasPrice": "0x330e9ac77"
    },
    {
      "transactionHash": "0xa8c8837d86f9e292681af191723443abe91aa9028d27d6af6bdf611a51149be5",
      "transactionIndex": "0x8",
      "blockHash": "0xa2281c912eb0b0f20c92c903943b1fed460518406ad5513607ef0cc4548785b7",
      "blockNumber": "0x6b2902",
      "from": "0xDdb342ecc94236c29a5307d3757d0724D759453C",
      "to": "0xE0935B99d1a713588Ec545dbeDd41BbE03Ac7c12",
      "cumulativeGasUsed": "0x1ed545",
      "gasUsed": "0x2bb87",
      "contractAddress": null,
      "logs": [
        {
          "address": "0x1c7D4B196Cb0C7B01d743Fbc6116a902379C7238",
          "topics": [
            "0xddf252ad1be2c89b69c2b068fc378daa952ba7f163c4a11628f55a4df523b3ef",
            "0x000000000000000000000000ddb342ecc94236c29a5307d3757d0724d759453c",
            "0x000000000000000000000000e0935b99d1a713588ec545dbedd41bbe03ac7c12"
          ],
          "data": "0x000000000000000000000000000000000000000000000000000000000007a120",
          "blockHash": "0xa2281c912eb0b0f20c92c903943b1fed460518406ad5513607ef0cc4548785b7",
          "blockNumber": "0x6b2902",
          "transactionHash": "0xa8c8837d86f9e292681af191723443abe91aa9028d27d6af6bdf611a51149be5",
          "transactionIndex": "0x8",
          "logIndex": "0x3a",
          "removed": false
        },
        {
          "address": "0x1c7D4B196Cb0C7B01d743Fbc6116a902379C7238",
          "topics": [
            "0x8c5be1e5ebec7d5bd14f71427d1e84f3dd0314c0f7b2291e5b200ac8c7c3b925",
            "0x000000000000000000000000e0935b99d1a713588ec545dbedd41bbe03ac7c12",
            "0x00000000000000000000000086dc0b32a5045ffa48d9a60b7e7ca32f11facd7b"
          ],
          "data": "0x0000000000000000000000000000000000000000000000000000000000000000",
          "blockHash": "0xa2281c912eb0b0f20c92c903943b1fed460518406ad5513607ef0cc4548785b7",
          "blockNumber": "0x6b2902",
          "transactionHash": "0xa8c8837d86f9e292681af191723443abe91aa9028d27d6af6bdf611a51149be5",
          "transactionIndex": "0x8",
          "logIndex": "0x3b",
          "removed": false
        },
        {
          "address": "0x1c7D4B196Cb0C7B01d743Fbc6116a902379C7238",
          "topics": [
            "0x8c5be1e5ebec7d5bd14f71427d1e84f3dd0314c0f7b2291e5b200ac8c7c3b925",
            "0x000000000000000000000000e0935b99d1a713588ec545dbedd41bbe03ac7c12",
            "0x00000000000000000000000086dc0b32a5045ffa48d9a60b7e7ca32f11facd7b"
          ],
          "data": "0x000000000000000000000000000000000000000000000000000000000007a120",
          "blockHash": "0xa2281c912eb0b0f20c92c903943b1fed460518406ad5513607ef0cc4548785b7",
          "blockNumber": "0x6b2902",
          "transactionHash": "0xa8c8837d86f9e292681af191723443abe91aa9028d27d6af6bdf611a51149be5",
          "transactionIndex": "0x8",
          "logIndex": "0x3c",
          "removed": false
        },
        {
          "address": "0x1c7D4B196Cb0C7B01d743Fbc6116a902379C7238",
          "topics": [
            "0xddf252ad1be2c89b69c2b068fc378daa952ba7f163c4a11628f55a4df523b3ef",
            "0x000000000000000000000000e0935b99d1a713588ec545dbedd41bbe03ac7c12",
            "0x00000000000000000000000086dc0b32a5045ffa48d9a60b7e7ca32f11facd7b"
          ],
          "data": "0x000000000000000000000000000000000000000000000000000000000007a120",
          "blockHash": "0xa2281c912eb0b0f20c92c903943b1fed460518406ad5513607ef0cc4548785b7",
          "blockNumber": "0x6b2902",
          "transactionHash": "0xa8c8837d86f9e292681af191723443abe91aa9028d27d6af6bdf611a51149be5",
          "transactionIndex": "0x8",
          "logIndex": "0x3d",
          "removed": false
        },
        {
          "address": "0xE2Bb56ee936fd6433DC0F6e7e3b8365C906AA057",
          "topics": [
            "0xdb80dd488acf86d17c747445b0eabb5d57c541d3bd7b6b87af987858e5066b2b",
            "0x00000000000000000000000086dc0b32a5045ffa48d9a60b7e7ca32f11facd7b",
            "0x0028729b12ce1140cbc1e7cbc7245455d3c15fa0c7f5d2e9fc8e0441567f6b50",
            "0x008bce41827dd5484d80312a2e43bc42a896e3fcf75bf84c2b49339168dfa00a"
          ],
          "data": "0x0000000000000000000000000000000000000000000000000000000000000060000000000000000000000000000000000000000000000000000000000000275a000000000000000000000000000000000000000000000000002386f26fc10000000000000000000000000000000000000000000000000000000000000000000d0000000000000000000000001c7d4b196cb0c7b01d743fbc6116a902379c7238000000000000000000000000e0935b99d1a713588ec545dbedd41bbe03ac7c12068cd598638bf0af505600ab43b7c8eee178a4dee2280d9800eacfa927f77006000000000000000000000000000000000000000000000000000000000007a120000000000000000000000000000000000000000000000000000000000000000000000000000000000000000000000000000000000000000000000000000000070000000000000000000000000000000000000000000000000000000000000000000000000000000000000000ddb342ecc94236c29a5307d3757d0724d759453c0000000000000000000000001c7d4b196cb0c7b01d743fbc6116a902379c72380000000000000000000000001c7d4b196cb0c7b01d743fbc6116a902379c7238000000000000000000000000000000000000000000000000002386f26fc1000000000000000000000000000000000000000000000000000000000000672b3ff000000000000000000000000000000000000000000000000000000000672b4030",
          "blockHash": "0xa2281c912eb0b0f20c92c903943b1fed460518406ad5513607ef0cc4548785b7",
          "blockNumber": "0x6b2902",
          "transactionHash": "0xa8c8837d86f9e292681af191723443abe91aa9028d27d6af6bdf611a51149be5",
          "transactionIndex": "0x8",
          "logIndex": "0x3e",
          "removed": false
        },
        {
          "address": "0x86dC0B32a5045FFa48D9a60B7e7Ca32F11faCd7B",
          "topics": [
            "0x2203a49c69f1a46c1164f5e4a30643dd77b7c59c0ff9bc433256048365c247f1",
            "0x000000000000000000000000e0935b99d1a713588ec545dbedd41bbe03ac7c12",
            "0x0000000000000000000000001c7d4b196cb0c7b01d743fbc6116a902379c7238",
            "0x068cd598638bf0af505600ab43b7c8eee178a4dee2280d9800eacfa927f77006"
          ],
          "data": "0x000000000000000000000000000000000000000000000000000000000007a1200000000000000000000000000000000000000000000000000000000000000080000000000000000000000000000000000000000000000000000000000000275a000000000000000000000000000000000000000000000000002386f26fc1000000000000000000000000000000000000000000000000000000000000000000070000000000000000000000000000000000000000000000000000000000000000000000000000000000000000ddb342ecc94236c29a5307d3757d0724d759453c0000000000000000000000001c7d4b196cb0c7b01d743fbc6116a902379c72380000000000000000000000001c7d4b196cb0c7b01d743fbc6116a902379c7238000000000000000000000000000000000000000000000000002386f26fc1000000000000000000000000000000000000000000000000000000000000672b3ff000000000000000000000000000000000000000000000000000000000672b4030",
          "blockHash": "0xa2281c912eb0b0f20c92c903943b1fed460518406ad5513607ef0cc4548785b7",
          "blockNumber": "0x6b2902",
          "transactionHash": "0xa8c8837d86f9e292681af191723443abe91aa9028d27d6af6bdf611a51149be5",
          "transactionIndex": "0x8",
          "logIndex": "0x3f",
          "removed": false
        },
        {
          "address": "0xE0935B99d1a713588Ec545dbeDd41BbE03Ac7c12",
          "topics": [
            "0xaf43445f7721522b7a3864ed3de53d7e2e658bfa1eeffa18e1e229be68ce2545",
            "0x000000000000000000000000ddb342ecc94236c29a5307d3757d0724d759453c",
            "0x068cd598638bf0af505600ab43b7c8eee178a4dee2280d9800eacfa927f77006"
          ],
          "data": "0x000000000000000000000000000000000000000000000000000000000007a1200000000000000000000000000000000000000000000000000000000000000001",
          "blockHash": "0xa2281c912eb0b0f20c92c903943b1fed460518406ad5513607ef0cc4548785b7",
          "blockNumber": "0x6b2902",
          "transactionHash": "0xa8c8837d86f9e292681af191723443abe91aa9028d27d6af6bdf611a51149be5",
          "transactionIndex": "0x8",
          "logIndex": "0x40",
          "removed": false
        }
      ],
      "status": "0x1",
      "logsBloom": "0x00000200000000000000000000020000000000000000000000000040000200000000000000000000000000000000000000000000000004000000420000200000100000000000000000000008000000000000000000000040001000000000004600000000100000000000000000000000400200000000000000000210400080000000001000102000000000420004000000008000000080000000000000000050020000800000000000000020040000021000008000000000000002000000000000800002000000000000004200000000000000000000000000000000000000000010008000004000000010000000000000000000000000000000000000000000",
      "type": "0x2",
      "effectiveGasPrice": "0x330e9ac77"
    }
  ],
  "libraries": [],
  "pending": [],
  "returns": {},
  "timestamp": 1730887734,
  "chain": 11155111,
  "multi": false,
  "commit": "9e60aff"
}