{
  "transactions": [
    {
      "hash": "0x530c1fbd0fa31755ac0794c96c25499349566d743661ce62214a191d68a7d2af",
      "transactionType": "CALL",
      "contractName": null,
      "contractAddress": "0xca14007eff0db1f8135f4c25b34de49ab0d42766",
      "function": "approve(address,uint256)",
      "arguments": [
        "0x21e0b6863F74642fc7764Aa1A394079E388a7b53",
        "115792089237316195423570985008687907853269984665640564039457584007913129639935"
      ],
      "transaction": {
        "from": "0xddb342ecc94236c29a5307d3757d0724d759453c",
        "to": "0xca14007eff0db1f8135f4c25b34de49ab0d42766",
        "gas": "0x93a9",
        "value": "0x0",
        "input": "0x095ea7b300000000000000000000000021e0b6863f74642fc7764aa1a394079e388a7b53ffffffffffffffffffffffffffffffffffffffffffffffffffffffffffffffff",
        "nonce": "0x48e",
        "chainId": "0xaa36a7"
      },
      "additionalContracts": [],
      "isFixedGasLimit": false
    },
    {
      "hash": "0xda258aba637e22252fb011d2a3c574f04db15ff7d43cc632f21be7243ac437ec",
      "transactionType": "CALL",
      "contractName": null,
      "contractAddress": "0x21e0b6863f74642fc7764aa1a394079e388a7b53",
      "function": "initiateWithdrawal(address,address,uint64)",
      "arguments": [
        "0xDdb342ecc94236c29a5307d3757d0724D759453C",
        "0x1c7D4B196Cb0C7B01d743Fbc6116a902379C7238",
        "482"
      ],
      "transaction": {
        "from": "0xddb342ecc94236c29a5307d3757d0724d759453c",
        "to": "0x21e0b6863f74642fc7764aa1a394079e388a7b53",
        "gas": "0x19c5e",
        "value": "0x1c6bf52634000",
        "input": "0x9b4085f6000000000000000000000000ddb342ecc94236c29a5307d3757d0724d759453c0000000000000000000000001c7d4b196cb0c7b01d743fbc6116a902379c723800000000000000000000000000000000000000000000000000000000000001e2",
        "nonce": "0x48f",
        "chainId": "0xaa36a7"
      },
      "additionalContracts": [],
      "isFixedGasLimit": false
    },
    {
      "hash": "0x140a775d8738fcab070278e08d8705f73ce47591df78c097799546ad50bbb2b8",
      "transactionType": "CALL",
      "contractName": null,
      "contractAddress": "0x86dc0b32a5045ffa48d9a60b7e7ca32f11facd7b",
      "function": "withdraw(address,uint256,address)",
      "arguments": [
        "0x1c7D4B196Cb0C7B01d743Fbc6116a902379C7238",
        "1",
        "0xDdb342ecc94236c29a5307d3757d0724D759453C"
      ],
      "transaction": {
        "from": "0xddb342ecc94236c29a5307d3757d0724d759453c",
        "to": "0x86dc0b32a5045ffa48d9a60b7e7ca32f11facd7b",
        "gas": "0x1df9e",
        "value": "0x0",
        "input": "0x69328dec0000000000000000000000001c7d4b196cb0c7b01d743fbc6116a902379c72380000000000000000000000000000000000000000000000000000000000000001000000000000000000000000ddb342ecc94236c29a5307d3757d0724d759453c",
        "nonce": "0x490",
        "chainId": "0xaa36a7"
      },
      "additionalContracts": [],
      "isFixedGasLimit": false
    }
  ],
  "receipts": [
    {
      "status": "0x1",
      "cumulativeGasUsed": "0xb511f0",
      "logs": [
        {
          "address": "0xca14007eff0db1f8135f4c25b34de49ab0d42766",
          "topics": [
            "0x8c5be1e5ebec7d5bd14f71427d1e84f3dd0314c0f7b2291e5b200ac8c7c3b925",
            "0x000000000000000000000000ddb342ecc94236c29a5307d3757d0724d759453c",
            "0x00000000000000000000000021e0b6863f74642fc7764aa1a394079e388a7b53"
          ],
          "data": "0xffffffffffffffffffffffffffffffffffffffffffffffffffffffffffffffff",
          "blockHash": "0x96bf33367f45bf4bf223582499fae55097e4aa8b5d182a45f59a9a4281e3d86a",
          "blockNumber": "0x71dd77",
          "transactionHash": "0x530c1fbd0fa31755ac0794c96c25499349566d743661ce62214a191d68a7d2af",
          "transactionIndex": "0x64",
          "logIndex": "0x8f",
          "removed": false
        }
      ],
      "logsBloom": "0x00000000000000000000000000000000000000000000000000000000000000000000000000000000000000000000000000200000000000000000000000200000000000000000000000000000000000000000000000000000000000000000000600000000000000000000000000000000400000000000000000000000400000000000000000000000000000000000000000000000000000000000000000000000020000000000000000000000000000000000000000000000000000000000000000000000000000020000000000000000000000000000000000800000000000000010000000000000000000000000000200000000001000000000000000000000",
      "type": "0x2",
      "transactionHash": "0x530c1fbd0fa31755ac0794c96c25499349566d743661ce62214a191d68a7d2af",
      "transactionIndex": "0x64",
      "blockHash": "0x96bf33367f45bf4bf223582499fae55097e4aa8b5d182a45f59a9a4281e3d86a",
      "blockNumber": "0x71dd77",
      "gasUsed": "0x6ae8",
      "effectiveGasPrice": "0x454f56e00",
      "from": "0xddb342ecc94236c29a5307d3757d0724d759453c",
      "to": "0xca14007eff0db1f8135f4c25b34de49ab0d42766",
      "contractAddress": null
    },
    {
      "status": "0x1",
      "cumulativeGasUsed": "0xb63c7d",
      "logs": [
        {
          "address": "0xe2bb56ee936fd6433dc0f6e7e3b8365c906aa057",
          "topics": [
            "0xdb80dd488acf86d17c747445b0eabb5d57c541d3bd7b6b87af987858e5066b2b",
            "0x00000000000000000000000021e0b6863f74642fc7764aa1a394079e388a7b53",
            "0x018a1a551c99cef5b5b4d6bb5b81754683ea084bb89807490c67049ea67e93a0",
            "0x00f1149cade9d692862ad41df96b108aa2c20af34f640457e781d166c98dc6b0"
          ],
          "data": "0x00000000000000000000000000000000000000000000000000000000000000600000000000000000000000000000000000000000000000000000000000002b7f0000000000000000000000000000000000000000000000000001c6bf5263400000000000000000000000000000000000000000000000000000000000000000050000000000000000000000000000000000000000000000000000000000000002000000000000000000000000ddb342ecc94236c29a5307d3757d0724d759453c000000000000000000000000ddb342ecc94236c29a5307d3757d0724d759453c0000000000000000000000001c7d4b196cb0c7b01d743fbc6116a902379c723800000000000000000000000000000000000000000000000000000000000001e2",
          "blockHash": "0x96bf33367f45bf4bf223582499fae55097e4aa8b5d182a45f59a9a4281e3d86a",
          "blockNumber": "0x71dd77",
          "transactionHash": "0xda258aba637e22252fb011d2a3c574f04db15ff7d43cc632f21be7243ac437ec",
          "transactionIndex": "0x65",
          "logIndex": "0x90",
          "removed": false
        },
        {
          "address": "0x21e0b6863f74642fc7764aa1a394079e388a7b53",
          "topics": [
            "0x89bd98ae1b8dd4dbaeba50e40ad484414a306be9fb54ec4eecf1a801ca9aeacf",
            "0x000000000000000000000000ddb342ecc94236c29a5307d3757d0724d759453c"
          ],
          "data": "0x00000000000000000000000000000000000000000000000000000000000001e2",
          "blockHash": "0x96bf33367f45bf4bf223582499fae55097e4aa8b5d182a45f59a9a4281e3d86a",
          "blockNumber": "0x71dd77",
          "transactionHash": "0xda258aba637e22252fb011d2a3c574f04db15ff7d43cc632f21be7243ac437ec",
          "transactionIndex": "0x65",
          "logIndex": "0x91",
          "removed": false
        }
      ],
      "logsBloom": "0x00400000040000000000000000020000000000000000000000000000000000000000000000000000000000000000000000200000000000000000000000000000000800000040000000000000000000000000000000000040001000000000000600000000100000010000000000000000400000000000008000000000400000000000100000000000000000000000000004000000800000000000000000000010000000000000001000000020000000000000000000000000000000000000000000000000000008000000000000000000000000000000000000000000000000000000000000000000000000002000000200000000000000000000000000000000",
      "type": "0x2",
      "transactionHash": "0xda258aba637e22252fb011d2a3c574f04db15ff7d43cc632f21be7243ac437ec",
      "transactionIndex": "0x65",
      "blockHash": "0x96bf33367f45bf4bf223582499fae55097e4aa8b5d182a45f59a9a4281e3d86a",
      "blockNumber": "0x71dd77",
      "gasUsed": "0x12a8d",
      "effectiveGasPrice": "0x454f56e00",
      "from": "0xddb342ecc94236c29a5307d3757d0724d759453c",
      "to": "0x21e0b6863f74642fc7764aa1a394079e388a7b53",
      "contractAddress": null
    },
    {
      "status": "0x1",
      "cumulativeGasUsed": "0xb797ba",
      "logs": [
        {
          "address": "0xe2bb56ee936fd6433dc0f6e7e3b8365c906aa057",
          "topics": [
            "0x7a06c571aa77f34d9706c51e5d8122b5595aebeaa34233bfe866f22befb973b1",
            "0x0028729b12ce1140cbc1e7cbc7245455d3c15fa0c7f5d2e9fc8e0441567f6b50",
            "0x00000000000000000000000086dc0b32a5045ffa48d9a60b7e7ca32f11facd7b"
          ],
          "data": "0x000000000000000000000000000000000000000000000000000000000000002000000000000000000000000000000000000000000000000000000000000000050000000000000000000000000000000000000000000000000000000000000000000000000000000000000000ddb342ecc94236c29a5307d3757d0724d759453c0000000000000000000000001c7d4b196cb0c7b01d743fbc6116a902379c723800000000000000000000000000000000000000000000000000000000000000010000000000000000000000000000000000000000000000000000000000000000",
          "blockHash": "0x96bf33367f45bf4bf223582499fae55097e4aa8b5d182a45f59a9a4281e3d86a",
          "blockNumber": "0x71dd77",
          "transactionHash": "0x140a775d8738fcab070278e08d8705f73ce47591df78c097799546ad50bbb2b8",
          "transactionIndex": "0x66",
          "logIndex": "0x92",
          "removed": false
        },
        {
          "address": "0x1c7d4b196cb0c7b01d743fbc6116a902379c7238",
          "topics": [
            "0xddf252ad1be2c89b69c2b068fc378daa952ba7f163c4a11628f55a4df523b3ef",
            "0x00000000000000000000000086dc0b32a5045ffa48d9a60b7e7ca32f11facd7b",
            "0x000000000000000000000000ddb342ecc94236c29a5307d3757d0724d759453c"
          ],
          "data": "0x0000000000000000000000000000000000000000000000000000000000000001",
          "blockHash": "0x96bf33367f45bf4bf223582499fae55097e4aa8b5d182a45f59a9a4281e3d86a",
          "blockNumber": "0x71dd77",
          "transactionHash": "0x140a775d8738fcab070278e08d8705f73ce47591df78c097799546ad50bbb2b8",
          "transactionIndex": "0x66",
          "logIndex": "0x93",
          "removed": false
        },
        {
          "address": "0x86dc0b32a5045ffa48d9a60b7e7ca32f11facd7b",
          "topics": [
            "0x2717ead6b9200dd235aad468c9809ea400fe33ac69b5bfaa6d3e90fc922b6398",
            "0x000000000000000000000000ddb342ecc94236c29a5307d3757d0724d759453c",
            "0x0000000000000000000000001c7d4b196cb0c7b01d743fbc6116a902379c7238"
          ],
          "data": "0x0000000000000000000000000000000000000000000000000000000000000001",
          "blockHash": "0x96bf33367f45bf4bf223582499fae55097e4aa8b5d182a45f59a9a4281e3d86a",
          "blockNumber": "0x71dd77",
          "transactionHash": "0x140a775d8738fcab070278e08d8705f73ce47591df78c097799546ad50bbb2b8",
          "transactionIndex": "0x66",
          "logIndex": "0x94",
          "removed": false
        }
      ],
      "logsBloom": "0x00000000000000000000000000020000000000000000000000000000000200000000000000000000000000000000000000000000000004000000400000000000100000000000000000000008000000000000000000000040000208000000000400000000000000000000000000000000400200020000000000000210400080000000000000102000000000000004000000008000000000000000000000000010000000000000000000000000000000001000008000000000000002000000000000002002000000000000000000000000000000000000000000000000000000000000008000000100000010000000000000000000000000000000000000000000",
      "type": "0x2",
      "transactionHash": "0x140a775d8738fcab070278e08d8705f73ce47591df78c097799546ad50bbb2b8",
      "transactionIndex": "0x66",
      "blockHash": "0x96bf33367f45bf4bf223582499fae55097e4aa8b5d182a45f59a9a4281e3d86a",
      "blockNumber": "0x71dd77",
      "gasUsed": "0x15b3d",
      "effectiveGasPrice": "0x454f56e00",
      "from": "0xddb342ecc94236c29a5307d3757d0724d759453c",
      "to": "0x86dc0b32a5045ffa48d9a60b7e7ca32f11facd7b",
      "contractAddress": null
    }
  ],
  "libraries": [],
  "pending": [],
  "returns": {},
  "timestamp": 1736527884,
  "chain": 11155111,
  "commit": "81b7af0"
}