{
  "transactions": [
    {
      "hash": "0x18c7a5e46e5787a7b4b8abcecd4f4ad859f0c294da9fbe9975fe8ee2ef5cd6e2",
      "transactionType": "CALL",
      "contractName": "StarkNetToken",
      "contractAddress": "0xCa14007Eff0dB1f8135f4C25B34De49AB0d42766",
      "function": "approve(address,uint256)",
      "arguments": [
        "0x0Ed0e15f0D7362b95A7F4441FCBfb948b63FD61b",
        "115792089237316195423570985008687907853269984665640564039457584007913129639935"
      ],
      "transaction": {
        "type": "0x02",
        "from": "0xddb342ecc94236c29a5307d3757d0724d759453c",
        "to": "0xca14007eff0db1f8135f4c25b34de49ab0d42766",
        "gas": "0x93a9",
        "value": "0x0",
        "data": "0x095ea7b30000000000000000000000000ed0e15f0d7362b95a7f4441fcbfb948b63fd61bffffffffffffffffffffffffffffffffffffffffffffffffffffffffffffffff",
        "nonce": "0x3ad",
        "accessList": []
      },
      "additionalContracts": [],
      "isFixedGasLimit": false
    },
    {
      "hash": "0x026729c03731ded7f3f9780b11e0161b017a704f195c883df9bf119983ee4eb1",
      "transactionType": "CALL",
      "contractName": null,
      "contractAddress": "0x0Ed0e15f0D7362b95A7F4441FCBfb948b63FD61b",
      "function": "initiateWithdrawal(uint256,address)",
      "arguments": [
        "500000000000000",
        "0x1c7D4B196Cb0C7B01d743Fbc6116a902379C7238"
      ],
      "transaction": {
        "type": "0x02",
        "from": "0xddb342ecc94236c29a5307d3757d0724d759453c",
        "to": "0x0ed0e15f0d7362b95a7f4441fcbfb948b63fd61b",
        "gas": "0x1b96a",
        "value": "0x1c6bf52634000",
        "data": "0x544381270000000000000000000000000000000000000000000000000001c6bf526340000000000000000000000000001c7d4b196cb0c7b01d743fbc6116a902379c7238",
        "nonce": "0x3ae",
        "accessList": []
      },
      "additionalContracts": [],
      "isFixedGasLimit": false
    }
  ],
  "receipts": [
    {
      "transactionHash": "0x18c7a5e46e5787a7b4b8abcecd4f4ad859f0c294da9fbe9975fe8ee2ef5cd6e2",
      "transactionIndex": "0x2",
      "blockHash": "0x5c4173738f1ce846379c872622958a52c3c44442f2de27f93bf07463fbaa89ab",
      "blockNumber": "0x6dcaeb",
      "from": "0xDdb342ecc94236c29a5307d3757d0724D759453C",
      "to": "0xCa14007Eff0dB1f8135f4C25B34De49AB0d42766",
      "cumulativeGasUsed": "0x51d93",
      "gasUsed": "0x6ae8",
      "contractAddress": null,
      "logs": [
        {
          "address": "0xCa14007Eff0dB1f8135f4C25B34De49AB0d42766",
          "topics": [
            "0x8c5be1e5ebec7d5bd14f71427d1e84f3dd0314c0f7b2291e5b200ac8c7c3b925",
            "0x000000000000000000000000ddb342ecc94236c29a5307d3757d0724d759453c",
            "0x0000000000000000000000000ed0e15f0d7362b95a7f4441fcbfb948b63fd61b"
          ],
          "data": "0xffffffffffffffffffffffffffffffffffffffffffffffffffffffffffffffff",
          "blockHash": "0x5c4173738f1ce846379c872622958a52c3c44442f2de27f93bf07463fbaa89ab",
          "blockNumber": "0x6dcaeb",
          "transactionHash": "0x18c7a5e46e5787a7b4b8abcecd4f4ad859f0c294da9fbe9975fe8ee2ef5cd6e2",
          "transactionIndex": "0x2",
          "logIndex": "0xa",
          "removed": false
        }
      ],
      "status": "0x1",
      "logsBloom": "0x00000000000000000000000000000000000000000000000000000000000000000000001000000000000000000000000002002000000000000000000000200000000000000000000000000000000000000000000000000000000000000000000400000000000000000000000000000000400000000000000000000000400000000000000000000000000000000000000000000000000000000000000000000000020000000000000000000000000000000000000000000000000000000000000000000000000000020000000000000000000000000000000000800000000000000010000000000000000000000000000000000000001000000000000000000000",
      "type": "0x2",
      "effectiveGasPrice": "0x2ee92f0fc"
    },
    {
      "transactionHash": "0x026729c03731ded7f3f9780b11e0161b017a704f195c883df9bf119983ee4eb1",
      "transactionIndex": "0x3",
      "blockHash": "0x5c4173738f1ce846379c872622958a52c3c44442f2de27f93bf07463fbaa89ab",
      "blockNumber": "0x6dcaeb",
      "from": "0xDdb342ecc94236c29a5307d3757d0724D759453C",
      "to": "0x0Ed0e15f0D7362b95A7F4441FCBfb948b63FD61b",
      "cumulativeGasUsed": "0x64b66",
      "gasUsed": "0x12dd3",
      "contractAddress": null,
      "logs": [
        {
          "address": "0xE2Bb56ee936fd6433DC0F6e7e3b8365C906AA057",
          "topics": [
            "0xdb80dd488acf86d17c747445b0eabb5d57c541d3bd7b6b87af987858e5066b2b",
            "0x0000000000000000000000000ed0e15f0d7362b95a7f4441fcbfb948b63fd61b",
            "0x026aece05eedcf29505f498ee637e2595c65944423abe26175677e484a72c3af",
            "0x00f1149cade9d692862ad41df96b108aa2c20af34f640457e781d166c98dc6b0"
          ],
          "data": "0x000000000000000000000000000000000000000000000000000000000000006000000000000000000000000000000000000000000000000000000000000029900000000000000000000000000000000000000000000000000001c6bf5263400000000000000000000000000000000000000000000000000000000000000000080000000000000000000000000000000000000000000000000000000000000002000000000000000000000000ddb342ecc94236c29a5307d3757d0724d759453c00000000000000000000000000000000000000000000000000000000000000000000000000000000000000001c7d4b196cb0c7b01d743fbc6116a902379c72380000000000000000000000000000000000000000000000000000000000000000000000000000000000000000000000000000000000000000000000000000000000000000000000000000000000000000000000000000000000000000000000000000000000000000000000000000000000000000000000000001c6bf52634000",
          "blockHash": "0x5c4173738f1ce846379c872622958a52c3c44442f2de27f93bf07463fbaa89ab",
          "blockNumber": "0x6dcaeb",
          "transactionHash": "0x026729c03731ded7f3f9780b11e0161b017a704f195c883df9bf119983ee4eb1",
          "transactionIndex": "0x3",
          "logIndex": "0xb",
          "removed": false
        },
        {
          "address": "0x0Ed0e15f0D7362b95A7F4441FCBfb948b63FD61b",
          "topics": [
            "0x6d92f7d3303f995bf21956bb0c51b388bae348eaf45c23debd2cfa3fcd9ec646",
            "0x000000000000000000000000ddb342ecc94236c29a5307d3757d0724d759453c"
          ],
          "data": "0x0000000000000000000000000000000000000000000000000001c6bf52634000",
          "blockHash": "0x5c4173738f1ce846379c872622958a52c3c44442f2de27f93bf07463fbaa89ab",
          "blockNumber": "0x6dcaeb",
          "transactionHash": "0x026729c03731ded7f3f9780b11e0161b017a704f195c883df9bf119983ee4eb1",
          "transactionIndex": "0x3",
          "logIndex": "0xc",
          "removed": false
        }
      ],
      "status": "0x1",
      "logsBloom": "0x00400000000000000000000000020000000000000080000000000000000000000000001000000000000000000000000002002000000000000000000000000080000000000000010000000000000000000000000000000040001000000000000400000000100000010000000000000000400000000000000000000000400000000000000000000000000000000000000004000000000000000000000000000010040000000000000040000020000000000000000000000000000000000000000000000000000000000000000000000000000000000000000000000800000000000000001000000000020000000000000000000000000000000200000000000000",
      "type": "0x2",
      "effectiveGasPrice": "0x2ee92f0fc"
    }
  ],
  "libraries": [],
  "pending": [],
  "returns": {},
  "timestamp": 1733134040,
  "chain": 11155111,
  "multi": false,
  "commit": "578600f"
}