{
  "transactions": [
    {
      "hash": "0xc56cdeca3dab51d9342add8237565ac8f448693e1ff0a32159a123d20a164f47",
      "transactionType": "CALL",
      "contractName": "StarkNetToken",
      "contractAddress": "0xCa14007Eff0dB1f8135f4C25B34De49AB0d42766",
      "function": "approve(address,uint256)",
      "arguments": [
        "0xcE5485Cfb26914C5dcE00B9BAF0580364daFC7a4",
        "115792089237316195423570985008687907853269984665640564039457584007913129639935"
      ],
      "transaction": {
        "type": "0x02",
        "from": "0xddb342ecc94236c29a5307d3757d0724d759453c",
        "to": "0xca14007eff0db1f8135f4c25b34de49ab0d42766",
        "gas": "0x93a9",
        "value": "0x0",
        "data": "0x095ea7b3000000000000000000000000ce5485cfb26914c5dce00b9baf0580364dafc7a4ffffffffffffffffffffffffffffffffffffffffffffffffffffffffffffffff",
        "nonce": "0x343",
        "accessList": []
      },
      "additionalContracts": [],
      "isFixedGasLimit": false
    },
    {
      "hash": "0x2356e8e783e4e2780d7b83abbe0feb6713e3c9a5d218378f7e31146be4b79c61",
      "transactionType": "CALL",
      "contractName": "Proxy",
      "contractAddress": "0xcE5485Cfb26914C5dcE00B9BAF0580364daFC7a4",
      "function": "deposit(uint256,uint256)",
      "arguments": [
        "50000000000000000",
        "1883401296703965083189570633031918159622068791907768462215909222728633759331"
      ],
      "transaction": {
        "type": "0x02",
        "from": "0xddb342ecc94236c29a5307d3757d0724d759453c",
        "to": "0xce5485cfb26914c5dce00b9baf0580364dafc7a4",
        "gas": "0x29b00",
        "value": "0x38d7ea4c68000",
        "data": "0xe2bbb15800000000000000000000000000000000000000000000000000b1a2bc2ec500000429f7a4bd4de9fc98a94cec9163caf6f50a5d7fcec583fa30d2d9bb33a93663",
        "nonce": "0x344",
        "accessList": []
      },
      "additionalContracts": [],
      "isFixedGasLimit": false
    },
    {
      "hash": "0xd2db8cf6b946f87b6d7e64609be22501c59995c4ead7885e0b69083aca312cf4",
      "transactionType": "CALL",
      "contractName": "Proxy",
      "contractAddress": "0xE2Bb56ee936fd6433DC0F6e7e3b8365C906AA057",
      "function": "sendMessageToL2(uint256,uint256,uint256[])",
      "arguments": [
        "1883401296703965083189570633031918159622068791907768462215909222728633759331",
        "425952401605428413817582304755919420533935873840436977667370850915372091056",
        "[0, 1265684623727634235329190328445374361672779121980, 2009894490435840142178314390393166646092438090257831307886760648929397478285, 2366254414417873771392932940469309727793822550615514268240785277201753657472, 170141183460469235273462165868118016, 1732016336, 1732016400, 50000000000000000, 2524392021852001135582825949054576525094493216367559068627275826195272239197]"
      ],
      "transaction": {
        "type": "0x02",
        "from": "0xddb342ecc94236c29a5307d3757d0724d759453c",
        "to": "0xe2bb56ee936fd6433dc0f6e7e3b8365c906aa057",
        "gas": "0x17855",
        "value": "0x38d7ea4c68000",
        "data": "0x3e3aa6c50429f7a4bd4de9fc98a94cec9163caf6f50a5d7fcec583fa30d2d9bb33a9366300f1149cade9d692862ad41df96b108aa2c20af34f640457e781d166c98dc6b0000000000000000000000000000000000000000000000000000000000000006000000000000000000000000000000000000000000000000000000000000000090000000000000000000000000000000000000000000000000000000000000000000000000000000000000000ddb342ecc94236c29a5307d3757d0724d759453c04718f5a0fc34cc1af16a1cdee98ffb20c31f5cd61d6ab07201858f4287c938d053b40a647cedfca6ca84f542a0fe36736031905a9639a7f19a3c1e66bfd5080000000000000000000000000000000000020c49ba5e353f8000000000000000000000000000000000000000000000000000000000000000000000000673c78d000000000000000000000000000000000000000000000000000000000673c791000000000000000000000000000000000000000000000000000b1a2bc2ec500000594c1582459ea03f77deaf9eb7e3917d6994a03c13405ba42867f83d85f085d",
        "nonce": "0x345",
        "accessList": []
      },
      "additionalContracts": [],
      "isFixedGasLimit": false
    }
  ],
  "receipts": [],
  "libraries": [],
  "pending": [
    "0xc56cdeca3dab51d9342add8237565ac8f448693e1ff0a32159a123d20a164f47",
    "0x2356e8e783e4e2780d7b83abbe0feb6713e3c9a5d218378f7e31146be4b79c61",
    "0xd2db8cf6b946f87b6d7e64609be22501c59995c4ead7885e0b69083aca312cf4"
  ],
  "returns": {},
  "timestamp": 1732016369,
  "chain": 11155111,
  "multi": false,
  "commit": "2a68d09"
}