{
  "transactions": [
    {
      "hash": "0x8aec2c5ed40c10d81e94db423298c04cb9d5817e4ce8a6613802a8ab7e64d653",
      "transactionType": "CALL",
      "contractName": null,
      "contractAddress": "0xca14007eff0db1f8135f4c25b34de49ab0d42766",
      "function": "approve(address,uint256)",
      "arguments": [
        "0xabcd70100c04F7aD20DDF425705c91AB2BeA4e56",
        "115792089237316195423570985008687907853269984665640564039457584007913129639935"
      ],
      "transaction": {
        "from": "0xddb342ecc94236c29a5307d3757d0724d759453c",
        "to": "0xca14007eff0db1f8135f4c25b34de49ab0d42766",
        "gas": "0x93a9",
        "value": "0x0",
        "input": "0x095ea7b3000000000000000000000000abcd70100c04f7ad20ddf425705c91ab2bea4e56ffffffffffffffffffffffffffffffffffffffffffffffffffffffffffffffff",
        "nonce": "0x527",
        "chainId": "0xaa36a7"
      },
      "additionalContracts": [],
      "isFixedGasLimit": false
    },
    {
      "hash": "0x08f3e6ddd1cb37e432f108c087b6cf0dfcac5de9909b5ddea096d06d167a7e0b",
      "transactionType": "CALL",
      "contractName": null,
      "contractAddress": "0xabcd70100c04f7ad20ddf425705c91ab2bea4e56",
      "function": "initiateWithdrawal(address,address,uint64)",
      "arguments": [
        "0xDdb342ecc94236c29a5307d3757d0724D759453C",
        "0x1c7D4B196Cb0C7B01d743Fbc6116a902379C7238",
        "539"
      ],
      "transaction": {
        "from": "0xddb342ecc94236c29a5307d3757d0724d759453c",
        "to": "0xabcd70100c04f7ad20ddf425705c91ab2bea4e56",
        "gas": "0x1b4c1",
        "value": "0x1c6bf52634000",
        "input": "0x9b4085f6000000000000000000000000ddb342ecc94236c29a5307d3757d0724d759453c0000000000000000000000001c7d4b196cb0c7b01d743fbc6116a902379c7238000000000000000000000000000000000000000000000000000000000000021b",
        "nonce": "0x528",
        "chainId": "0xaa36a7"
      },
      "additionalContracts": [],
      "isFixedGasLimit": false
    }
  ],
  "receipts": [
    {
      "status": "0x1",
      "cumulativeGasUsed": "0xf4656f",
      "logs": [
        {
          "address": "0xca14007eff0db1f8135f4c25b34de49ab0d42766",
          "topics": [
            "0x8c5be1e5ebec7d5bd14f71427d1e84f3dd0314c0f7b2291e5b200ac8c7c3b925",
            "0x000000000000000000000000ddb342ecc94236c29a5307d3757d0724d759453c",
            "0x000000000000000000000000abcd70100c04f7ad20ddf425705c91ab2bea4e56"
          ],
          "data": "0xffffffffffffffffffffffffffffffffffffffffffffffffffffffffffffffff",
          "blockHash": "0x59f0f47822d7b7fb41fa1790077e0fc343481fc1745b291e1a4c158699a064d2",
          "blockNumber": "0x73108b",
          "transactionHash": "0x8aec2c5ed40c10d81e94db423298c04cb9d5817e4ce8a6613802a8ab7e64d653",
          "transactionIndex": "0x7b",
          "logIndex": "0x10a",
          "removed": false
        }
      ],
      "logsBloom": "0x00000000010000000000100000000000000000000000000000000000000000000000000000000000000000000000000000000000000000000000000000200000000000000000000000000000000000000000000000000000000000000000000400000000000000000000000000000000400000000000000000000000400000000000000000000000000000000000000000000000000000000000000000000000020000000000000000000000000000000000000000000000000000000000000000000000000000020000000000000000000000000000000000800000000000000010000000001000000000000000000000000000001000000000000000000000",
      "type": "0x2",
      "transactionHash": "0x8aec2c5ed40c10d81e94db423298c04cb9d5817e4ce8a6613802a8ab7e64d653",
      "transactionIndex": "0x7b",
      "blockHash": "0x59f0f47822d7b7fb41fa1790077e0fc343481fc1745b291e1a4c158699a064d2",
      "blockNumber": "0x73108b",
      "gasUsed": "0x6ae8",
      "effectiveGasPrice": "0xb030ec14",
      "from": "0xddb342ecc94236c29a5307d3757d0724d759453c",
      "to": "0xca14007eff0db1f8135f4c25b34de49ab0d42766",
      "contractAddress": null
    },
    {
      "status": "0x1",
      "cumulativeGasUsed": "0xf59012",
      "logs": [
        {
          "address": "0xe2bb56ee936fd6433dc0f6e7e3b8365c906aa057",
          "topics": [
            "0xdb80dd488acf86d17c747445b0eabb5d57c541d3bd7b6b87af987858e5066b2b",
            "0x000000000000000000000000abcd70100c04f7ad20ddf425705c91ab2bea4e56",
            "0x05384d7aa25d47c73d60f2ee889af6b337544c534b05d8560578c06f01db55bd",
            "0x00f1149cade9d692862ad41df96b108aa2c20af34f640457e781d166c98dc6b0"
          ],
          "data": "0x00000000000000000000000000000000000000000000000000000000000000600000000000000000000000000000000000000000000000000000000000002c870000000000000000000000000000000000000000000000000001c6bf5263400000000000000000000000000000000000000000000000000000000000000000050000000000000000000000000000000000000000000000000000000000000002000000000000000000000000ddb342ecc94236c29a5307d3757d0724d759453c000000000000000000000000ddb342ecc94236c29a5307d3757d0724d759453c0000000000000000000000001c7d4b196cb0c7b01d743fbc6116a902379c7238000000000000000000000000000000000000000000000000000000000000021b",
          "blockHash": "0x59f0f47822d7b7fb41fa1790077e0fc343481fc1745b291e1a4c158699a064d2",
          "blockNumber": "0x73108b",
          "transactionHash": "0x08f3e6ddd1cb37e432f108c087b6cf0dfcac5de9909b5ddea096d06d167a7e0b",
          "transactionIndex": "0x7c",
          "logIndex": "0x10b",
          "removed": false
        },
        {
          "address": "0xabcd70100c04f7ad20ddf425705c91ab2bea4e56",
          "topics": [
            "0x89bd98ae1b8dd4dbaeba50e40ad484414a306be9fb54ec4eecf1a801ca9aeacf",
            "0x000000000000000000000000ddb342ecc94236c29a5307d3757d0724d759453c"
          ],
          "data": "0x000000000000000000000000000000000000000000000000000000000000021b",
          "blockHash": "0x59f0f47822d7b7fb41fa1790077e0fc343481fc1745b291e1a4c158699a064d2",
          "blockNumber": "0x73108b",
          "transactionHash": "0x08f3e6ddd1cb37e432f108c087b6cf0dfcac5de9909b5ddea096d06d167a7e0b",
          "transactionIndex": "0x7c",
          "logIndex": "0x10c",
          "removed": false
        }
      ],
      "logsBloom": "0x00400002050000000020100000020000000000000000000000000000000000000000000000000000000000000000000000000000000000000000000000000000000000000000000000000000000000000000000000000040001800000000000400000000100000010000000000000000400000000000000000000000400000000000000000000000000000000000000004000000800000080000000000000010000000000000000000000020000000000000000000000000000000000000000000000000000000000000000000000000000000000000000000000000000000000000000000001000000000002000008000000000000000080000000000000000",
      "type": "0x2",
      "transactionHash": "0x08f3e6ddd1cb37e432f108c087b6cf0dfcac5de9909b5ddea096d06d167a7e0b",
      "transactionIndex": "0x7c",
      "blockHash": "0x59f0f47822d7b7fb41fa1790077e0fc343481fc1745b291e1a4c158699a064d2",
      "blockNumber": "0x73108b",
      "gasUsed": "0x12aa3",
      "effectiveGasPrice": "0xb030ec14",
      "from": "0xddb342ecc94236c29a5307d3757d0724d759453c",
      "to": "0xabcd70100c04f7ad20ddf425705c91ab2bea4e56",
      "contractAddress": null
    }
  ],
  "libraries": [],
  "pending": [],
  "returns": {},
  "timestamp": 1737474841,
  "chain": 11155111,
  "commit": "fcbff6b"
}