{
  "transactions": [
    {
      "hash": "0xf11df27978d1d2efe8259fbc9f5fad0d2b123767176005214b6832a1aa778e4e",
      "transactionType": "CALL",
      "contractName": "StarkNetToken",
      "contractAddress": "0xCa14007Eff0dB1f8135f4C25B34De49AB0d42766",
      "function": "approve(address,uint256)",
      "arguments": [
        "0xDd2a2bC41f947cdCd3F173fD03CD15b5a66Cd6b5",
        "115792089237316195423570985008687907853269984665640564039457584007913129639935"
      ],
      "transaction": {
        "type": "0x02",
        "from": "0xddb342ecc94236c29a5307d3757d0724d759453c",
        "to": "0xca14007eff0db1f8135f4c25b34de49ab0d42766",
        "gas": "0xff08",
        "value": "0x0",
        "data": "0x095ea7b3000000000000000000000000dd2a2bc41f947cdcd3f173fd03cd15b5a66cd6b5ffffffffffffffffffffffffffffffffffffffffffffffffffffffffffffffff",
        "nonce": "0x1b5",
        "accessList": []
      },
      "additionalContracts": [],
      "isFixedGasLimit": false
    },
    {
      "hash": "0xe4a527fecce821e2af32a4b89b75045aa4ad04eebc9efd5e9bf6a6cf1d527131",
      "transactionType": "CALL",
      "contractName": "StarkNetToken",
      "contractAddress": "0xCa14007Eff0dB1f8135f4C25B34De49AB0d42766",
      "function": "transfer(address,uint256)",
      "arguments": [
        "0xDd2a2bC41f947cdCd3F173fD03CD15b5a66Cd6b5",
        "10000000"
      ],
      "transaction": {
        "type": "0x02",
        "from": "0xddb342ecc94236c29a5307d3757d0724d759453c",
        "to": "0xca14007eff0db1f8135f4c25b34de49ab0d42766",
        "gas": "0x145a3",
        "value": "0x0",
        "data": "0xa9059cbb000000000000000000000000dd2a2bc41f947cdcd3f173fd03cd15b5a66cd6b50000000000000000000000000000000000000000000000000000000000989680",
        "nonce": "0x1b6",
        "accessList": []
      },
      "additionalContracts": [],
      "isFixedGasLimit": false
    },
    {
      "hash": "0x13380e109de3886bdec5af794043638b192d55a8da6bb7891a31c66f8b4e4461",
      "transactionType": "CALL",
      "contractName": "L1TWAMMBridge",
      "contractAddress": "0xDd2a2bC41f947cdCd3F173fD03CD15b5a66Cd6b5",
      "function": "depositAndCreateOrder((address,address,address,uint128,uint128,uint128,uint128,uint256))",
      "arguments": [
        "(0xDdb342ecc94236c29a5307d3757d0724D759453C, 0xCa14007Eff0dB1f8135f4C25B34De49AB0d42766, 0xCa14007Eff0dB1f8135f4C25B34De49AB0d42766, 10000000000000000, 1730873440, 1730873504, 10000000, 1647970598847617027890947728899760175249314077903923387400359173436953475181)"
      ],
      "transaction": {
        "type": "0x02",
        "from": "0xddb342ecc94236c29a5307d3757d0724d759453c",
        "to": "0xdd2a2bc41f947cdcd3f173fd03cd15b5a66cd6b5",
        "gas": "0x3aa82",
        "value": "0x2386f26fc10000",
        "data": "0x9d251505000000000000000000000000ddb342ecc94236c29a5307d3757d0724d759453c000000000000000000000000ca14007eff0db1f8135f4c25b34de49ab0d42766000000000000000000000000ca14007eff0db1f8135f4c25b34de49ab0d42766000000000000000000000000000000000000000000000000002386f26fc1000000000000000000000000000000000000000000000000000000000000672b086000000000000000000000000000000000000000000000000000000000672b08a0000000000000000000000000000000000000000000000000000000000098968003a4b7e2d060bd8eb48e2db10f16c1303b131c266cc928902c3a3a8ead7e386d",
        "nonce": "0x1b7",
        "accessList": []
      },
      "additionalContracts": [],
      "isFixedGasLimit": false
    }
  ],
  "receipts": [
    {
      "transactionHash": "0xf11df27978d1d2efe8259fbc9f5fad0d2b123767176005214b6832a1aa778e4e",
      "transactionIndex": "0x16",
      "blockHash": "0x456b28bd6442226e770686324f1858d28442d192d8a34eb289e87bebaa1ed978",
      "blockNumber": "0x6b24c1",
      "from": "0xDdb342ecc94236c29a5307d3757d0724D759453C",
      "to": "0xCa14007Eff0dB1f8135f4C25B34De49AB0d42766",
      "cumulativeGasUsed": "0xf72f0f",
      "gasUsed": "0xb8a4",
      "contractAddress": null,
      "logs": [
        {
          "address": "0xCa14007Eff0dB1f8135f4C25B34De49AB0d42766",
          "topics": [
            "0x8c5be1e5ebec7d5bd14f71427d1e84f3dd0314c0f7b2291e5b200ac8c7c3b925",
            "0x000000000000000000000000ddb342ecc94236c29a5307d3757d0724d759453c",
            "0x000000000000000000000000dd2a2bc41f947cdcd3f173fd03cd15b5a66cd6b5"
          ],
          "data": "0xffffffffffffffffffffffffffffffffffffffffffffffffffffffffffffffff",
          "blockHash": "0x456b28bd6442226e770686324f1858d28442d192d8a34eb289e87bebaa1ed978",
          "blockNumber": "0x6b24c1",
          "transactionHash": "0xf11df27978d1d2efe8259fbc9f5fad0d2b123767176005214b6832a1aa778e4e",
          "transactionIndex": "0x16",
          "logIndex": "0xc",
          "removed": false
        }
      ],
      "status": "0x1",
      "logsBloom": "0x00000000000000200000000000020000000000000000000000000000000000000000000000000000000000000000000000000000000000000000000000200000000000000000000000000000000000000000000000000000000000000000000400000000000000000000000000000000400000000000000000000000400000000000000000000000000000000000000000000000000000000000000000000000020000000000000000000000000000000000000000000000000000000000000000000000020000020000000000000000000000000000000000800000000000000010000000000000000000000000000000000000001000000000000000000000",
      "type": "0x2",
      "effectiveGasPrice": "0x1b3d6cdae9"
    },
    {
      "transactionHash": "0xe4a527fecce821e2af32a4b89b75045aa4ad04eebc9efd5e9bf6a6cf1d527131",
      "transactionIndex": "0x17",
      "blockHash": "0x456b28bd6442226e770686324f1858d28442d192d8a34eb289e87bebaa1ed978",
      "blockNumber": "0x6b24c1",
      "from": "0xDdb342ecc94236c29a5307d3757d0724D759453C",
      "to": "0xCa14007Eff0dB1f8135f4C25B34De49AB0d42766",
      "cumulativeGasUsed": "0xf80db8",
      "gasUsed": "0xdea9",
      "contractAddress": null,
      "logs": [
        {
          "address": "0xCa14007Eff0dB1f8135f4C25B34De49AB0d42766",
          "topics": [
            "0xddf252ad1be2c89b69c2b068fc378daa952ba7f163c4a11628f55a4df523b3ef",
            "0x000000000000000000000000ddb342ecc94236c29a5307d3757d0724d759453c",
            "0x000000000000000000000000dd2a2bc41f947cdcd3f173fd03cd15b5a66cd6b5"
          ],
          "data": "0x0000000000000000000000000000000000000000000000000000000000989680",
          "blockHash": "0x456b28bd6442226e770686324f1858d28442d192d8a34eb289e87bebaa1ed978",
          "blockNumber": "0x6b24c1",
          "transactionHash": "0xe4a527fecce821e2af32a4b89b75045aa4ad04eebc9efd5e9bf6a6cf1d527131",
          "transactionIndex": "0x17",
          "logIndex": "0xd",
          "removed": false
        }
      ],
      "status": "0x1",
      "logsBloom": "0x00000000000000200000000000020000000000000000000000000000000000000000000000000000000000000000000000000000000000000000000000000000000000000000000000000008000000000000000000000000000000000000000400000000000000000000000000000000400000000000000000000010400000000000000000000000000000000000000000000000000000000000000000000000000000000000000000000000000000000000000000000000000000000000000000000002020000020000000000000000000000000000000000800000000000000000000000000000000000000000000000000000001000000000000000000000",
      "type": "0x2",
      "effectiveGasPrice": "0x1b3d6cdae9"
    },
    {
      "transactionHash": "0x13380e109de3886bdec5af794043638b192d55a8da6bb7891a31c66f8b4e4461",
      "transactionIndex": "0x18",
      "blockHash": "0x456b28bd6442226e770686324f1858d28442d192d8a34eb289e87bebaa1ed978",
      "blockNumber": "0x6b24c1",
      "from": "0xDdb342ecc94236c29a5307d3757d0724D759453C",
      "to": "0xDd2a2bC41f947cdCd3F173fD03CD15b5a66Cd6b5",
      "cumulativeGasUsed": "0xfab122",
      "gasUsed": "0x2a36a",
      "contractAddress": null,
      "logs": [
        {
          "address": "0xCa14007Eff0dB1f8135f4C25B34De49AB0d42766",
          "topics": [
            "0xddf252ad1be2c89b69c2b068fc378daa952ba7f163c4a11628f55a4df523b3ef",
            "0x000000000000000000000000ddb342ecc94236c29a5307d3757d0724d759453c",
            "0x000000000000000000000000dd2a2bc41f947cdcd3f173fd03cd15b5a66cd6b5"
          ],
          "data": "0x0000000000000000000000000000000000000000000000000000000000989680",
          "blockHash": "0x456b28bd6442226e770686324f1858d28442d192d8a34eb289e87bebaa1ed978",
          "blockNumber": "0x6b24c1",
          "transactionHash": "0x13380e109de3886bdec5af794043638b192d55a8da6bb7891a31c66f8b4e4461",
          "transactionIndex": "0x18",
          "logIndex": "0xe",
          "removed": false
        },
        {
          "address": "0xCa14007Eff0dB1f8135f4C25B34De49AB0d42766",
          "topics": [
            "0x8c5be1e5ebec7d5bd14f71427d1e84f3dd0314c0f7b2291e5b200ac8c7c3b925",
            "0x000000000000000000000000dd2a2bc41f947cdcd3f173fd03cd15b5a66cd6b5",
            "0x000000000000000000000000ce5485cfb26914c5dce00b9baf0580364dafc7a4"
          ],
          "data": "0x0000000000000000000000000000000000000000000000000000000000000000",
          "blockHash": "0x456b28bd6442226e770686324f1858d28442d192d8a34eb289e87bebaa1ed978",
          "blockNumber": "0x6b24c1",
          "transactionHash": "0x13380e109de3886bdec5af794043638b192d55a8da6bb7891a31c66f8b4e4461",
          "transactionIndex": "0x18",
          "logIndex": "0xf",
          "removed": false
        },
        {
          "address": "0xCa14007Eff0dB1f8135f4C25B34De49AB0d42766",
          "topics": [
            "0x8c5be1e5ebec7d5bd14f71427d1e84f3dd0314c0f7b2291e5b200ac8c7c3b925",
            "0x000000000000000000000000dd2a2bc41f947cdcd3f173fd03cd15b5a66cd6b5",
            "0x000000000000000000000000ce5485cfb26914c5dce00b9baf0580364dafc7a4"
          ],
          "data": "0x0000000000000000000000000000000000000000000000000000000000989680",
          "blockHash": "0x456b28bd6442226e770686324f1858d28442d192d8a34eb289e87bebaa1ed978",
          "blockNumber": "0x6b24c1",
          "transactionHash": "0x13380e109de3886bdec5af794043638b192d55a8da6bb7891a31c66f8b4e4461",
          "transactionIndex": "0x18",
          "logIndex": "0x10",
          "removed": false
        },
        {
          "address": "0xCa14007Eff0dB1f8135f4C25B34De49AB0d42766",
          "topics": [
            "0x8c5be1e5ebec7d5bd14f71427d1e84f3dd0314c0f7b2291e5b200ac8c7c3b925",
            "0x000000000000000000000000dd2a2bc41f947cdcd3f173fd03cd15b5a66cd6b5",
            "0x000000000000000000000000ce5485cfb26914c5dce00b9baf0580364dafc7a4"
          ],
          "data": "0x0000000000000000000000000000000000000000000000000000000000000000",
          "blockHash": "0x456b28bd6442226e770686324f1858d28442d192d8a34eb289e87bebaa1ed978",
          "blockNumber": "0x6b24c1",
          "transactionHash": "0x13380e109de3886bdec5af794043638b192d55a8da6bb7891a31c66f8b4e4461",
          "transactionIndex": "0x18",
          "logIndex": "0x11",
          "removed": false
        },
        {
          "address": "0xCa14007Eff0dB1f8135f4C25B34De49AB0d42766",
          "topics": [
            "0xddf252ad1be2c89b69c2b068fc378daa952ba7f163c4a11628f55a4df523b3ef",
            "0x000000000000000000000000dd2a2bc41f947cdcd3f173fd03cd15b5a66cd6b5",
            "0x000000000000000000000000ce5485cfb26914c5dce00b9baf0580364dafc7a4"
          ],
          "data": "0x0000000000000000000000000000000000000000000000000000000000989680",
          "blockHash": "0x456b28bd6442226e770686324f1858d28442d192d8a34eb289e87bebaa1ed978",
          "blockNumber": "0x6b24c1",
          "transactionHash": "0x13380e109de3886bdec5af794043638b192d55a8da6bb7891a31c66f8b4e4461",
          "transactionIndex": "0x18",
          "logIndex": "0x12",
          "removed": false
        },
        {
          "address": "0xE2Bb56ee936fd6433DC0F6e7e3b8365C906AA057",
          "topics": [
            "0xdb80dd488acf86d17c747445b0eabb5d57c541d3bd7b6b87af987858e5066b2b",
            "0x000000000000000000000000ce5485cfb26914c5dce00b9baf0580364dafc7a4",
            "0x0594c1582459ea03f77deaf9eb7e3917d6994a03c13405ba42867f83d85f085d",
            "0x008bce41827dd5484d80312a2e43bc42a896e3fcf75bf84c2b49339168dfa00a"
          ],
          "data": "0x00000000000000000000000000000000000000000000000000000000000000600000000000000000000000000000000000000000000000000000000000002753000000000000000000000000000000000000000000000000002386f26fc10000000000000000000000000000000000000000000000000000000000000000000d000000000000000000000000ca14007eff0db1f8135f4c25b34de49ab0d42766000000000000000000000000dd2a2bc41f947cdcd3f173fd03cd15b5a66cd6b503a4b7e2d060bd8eb48e2db10f16c1303b131c266cc928902c3a3a8ead7e386d0000000000000000000000000000000000000000000000000000000000989680000000000000000000000000000000000000000000000000000000000000000000000000000000000000000000000000000000000000000000000000000000070000000000000000000000000000000000000000000000000000000000000000000000000000000000000000ddb342ecc94236c29a5307d3757d0724d759453c000000000000000000000000ca14007eff0db1f8135f4c25b34de49ab0d42766000000000000000000000000ca14007eff0db1f8135f4c25b34de49ab0d42766000000000000000000000000000000000000000000000000002386f26fc1000000000000000000000000000000000000000000000000000000000000672b086000000000000000000000000000000000000000000000000000000000672b08a0",
          "blockHash": "0x456b28bd6442226e770686324f1858d28442d192d8a34eb289e87bebaa1ed978",
          "blockNumber": "0x6b24c1",
          "transactionHash": "0x13380e109de3886bdec5af794043638b192d55a8da6bb7891a31c66f8b4e4461",
          "transactionIndex": "0x18",
          "logIndex": "0x13",
          "removed": false
        },
        {
          "address": "0xcE5485Cfb26914C5dcE00B9BAF0580364daFC7a4",
          "topics": [
            "0x2203a49c69f1a46c1164f5e4a30643dd77b7c59c0ff9bc433256048365c247f1",
            "0x000000000000000000000000dd2a2bc41f947cdcd3f173fd03cd15b5a66cd6b5",
            "0x000000000000000000000000ca14007eff0db1f8135f4c25b34de49ab0d42766",
            "0x03a4b7e2d060bd8eb48e2db10f16c1303b131c266cc928902c3a3a8ead7e386d"
          ],
          "data": "0x000000000000000000000000000000000000000000000000000000000098968000000000000000000000000000000000000000000000000000000000000000800000000000000000000000000000000000000000000000000000000000002753000000000000000000000000000000000000000000000000002386f26fc1000000000000000000000000000000000000000000000000000000000000000000070000000000000000000000000000000000000000000000000000000000000000000000000000000000000000ddb342ecc94236c29a5307d3757d0724d759453c000000000000000000000000ca14007eff0db1f8135f4c25b34de49ab0d42766000000000000000000000000ca14007eff0db1f8135f4c25b34de49ab0d42766000000000000000000000000000000000000000000000000002386f26fc1000000000000000000000000000000000000000000000000000000000000672b086000000000000000000000000000000000000000000000000000000000672b08a0",
          "blockHash": "0x456b28bd6442226e770686324f1858d28442d192d8a34eb289e87bebaa1ed978",
          "blockNumber": "0x6b24c1",
          "transactionHash": "0x13380e109de3886bdec5af794043638b192d55a8da6bb7891a31c66f8b4e4461",
          "transactionIndex": "0x18",
          "logIndex": "0x14",
          "removed": false
        },
        {
          "address": "0xDd2a2bC41f947cdCd3F173fD03CD15b5a66Cd6b5",
          "topics": [
            "0xaf43445f7721522b7a3864ed3de53d7e2e658bfa1eeffa18e1e229be68ce2545",
            "0x000000000000000000000000ddb342ecc94236c29a5307d3757d0724d759453c",
            "0x03a4b7e2d060bd8eb48e2db10f16c1303b131c266cc928902c3a3a8ead7e386d"
          ],
          "data": "0x00000000000000000000000000000000000000000000000000000000009896800000000000000000000000000000000000000000000000000000000000000001",
          "blockHash": "0x456b28bd6442226e770686324f1858d28442d192d8a34eb289e87bebaa1ed978",
          "blockNumber": "0x6b24c1",
          "transactionHash": "0x13380e109de3886bdec5af794043638b192d55a8da6bb7891a31c66f8b4e4461",
          "transactionIndex": "0x18",
          "logIndex": "0x15",
          "removed": false
        }
      ],
      "status": "0x1",
      "logsBloom": "0x00000200000000200000000000020000000000000000000000000042000000000000000000000000000000000000000000000000000004000000020000200000000000000000000000000008080000000000000000000040001000000000400600000000100000000000000000000000400000000000000000000010400008002000000000000000000000020000200000008000000200000100000000000010020000800000000000000020000000021000000000000000000000000000000000800002020000024010000040000000000000200000000000800000200000000010000000010000000000020004000000000000001000000000000000000000",
      "type": "0x2",
      "effectiveGasPrice": "0x1b3d6cdae9"
    }
  ],
  "libraries": [],
  "pending": [],
  "returns": {},
  "timestamp": 1730873515,
  "chain": 11155111,
  "multi": false,
  "commit": "71ba860"
}