{
  "transactions": [
    {
      "hash": "0x5b9029b0567c68316395c3639d2bcdc946523a8c52460f3aff7fa4aa00dcadda",
      "transactionType": "CALL",
      "contractName": null,
      "contractAddress": "0xca14007eff0db1f8135f4c25b34de49ab0d42766",
      "function": "approve(address,uint256)",
      "arguments": [
        "0xeEaD9DC94aa25623aFDB6B04135C31FB58Ff09F1",
        "115792089237316195423570985008687907853269984665640564039457584007913129639935"
      ],
      "transaction": {
        "from": "0x1b382a7b4496f14e0aaa2da1e1626da400426a03",
        "to": "0xca14007eff0db1f8135f4c25b34de49ab0d42766",
        "gas": "0xff08",
        "value": "0x0",
        "input": "0x095ea7b3000000000000000000000000eead9dc94aa25623afdb6b04135c31fb58ff09f1ffffffffffffffffffffffffffffffffffffffffffffffffffffffffffffffff",
        "nonce": "0x11e",
        "chainId": "0xaa36a7"
      },
      "additionalContracts": [],
      "isFixedGasLimit": false
    },
    {
      "hash": "0xe4b95bfc18dd88d8eb4a1a09d770a871e487d8cfac694214d3f064dc34ca6cbd",
      "transactionType": "CALL",
      "contractName": null,
      "contractAddress": "0xeead9dc94aa25623afdb6b04135c31fb58ff09f1",
      "function": "depositAndCreateOrder((address,uint256,uint256,uint128,uint128,uint128,uint128,uint256))",
      "arguments": [
        "(0x1B382A7b4496F14e0AAA2DA1E1626Da400426A03, 2009894490435840142178314390393166646092438090257831307886760648929397478285, 2366254414417873771392932940469309727793822550615514268240785277201753657472, 0, 1731361968, 1731362032, 500000, 2789318981096537317422508638270213251163035652519458065417008744915404554912)"
      ],
      "transaction": {
        "from": "0x1b382a7b4496f14e0aaa2da1e1626da400426a03",
        "to": "0xeead9dc94aa25623afdb6b04135c31fb58ff09f1",
        "gas": "0x3ab3d",
        "value": "0x5af3107a4000",
        "input": "0x5ce510fa0000000000000000000000001b382a7b4496f14e0aaa2da1e1626da400426a0304718f5a0fc34cc1af16a1cdee98ffb20c31f5cd61d6ab07201858f4287c938d053b40a647cedfca6ca84f542a0fe36736031905a9639a7f19a3c1e66bfd508000000000000000000000000000000000000000000000000000000000000000000000000000000000000000000000000000000000000000000000000067327cb00000000000000000000000000000000000000000000000000000000067327cf0000000000000000000000000000000000000000000000000000000000007a120062ab2d735892e7c171467546a12833da8e1c90b37119325df79559adacb82a0",
        "nonce": "0x11f",
        "chainId": "0xaa36a7"
      },
      "additionalContracts": [],
      "isFixedGasLimit": false
    },
    {
      "hash": "0xf68dcc2c39722329d9d1f84c06a7b5c835d7462c40e992c480cb5ef8134a5776",
      "transactionType": "CALL",
      "contractName": null,
      "contractAddress": "0xeead9dc94aa25623afdb6b04135c31fb58ff09f1",
      "function": "_sendMessage(uint256,uint256,uint256[])",
      "arguments": [
        "2789318981096537317422508638270213251163035652519458065417008744915404554912",
        "425952401605428413817582304755919420533935873840436977667370850915372091056",
        "[2, 0, 0, 0, 0, 0, 0, 0]"
      ],
      "transaction": {
        "from": "0x1b382a7b4496f14e0aaa2da1e1626da400426a03",
        "to": "0xeead9dc94aa25623afdb6b04135c31fb58ff09f1",
        "gas": "0x198a8",
        "value": "0x5af3107a4000",
        "input": "0x88f439ef062ab2d735892e7c171467546a12833da8e1c90b37119325df79559adacb82a000f1149cade9d692862ad41df96b108aa2c20af34f640457e781d166c98dc6b00000000000000000000000000000000000000000000000000000000000000060000000000000000000000000000000000000000000000000000000000000000800000000000000000000000000000000000000000000000000000000000000020000000000000000000000000000000000000000000000000000000000000000000000000000000000000000000000000000000000000000000000000000000000000000000000000000000000000000000000000000000000000000000000000000000000000000000000000000000000000000000000000000000000000000000000000000000000000000000000000000000000000000000000000000000000000000000000000000000000000000000000000000000000000000000000000000000000000000000000000000000000000000000000000000000000000000",
        "nonce": "0x120",
        "chainId": "0xaa36a7"
      },
      "additionalContracts": [],
      "isFixedGasLimit": false
    }
  ],
  "receipts": [
    {
      "status": "0x1",
      "cumulativeGasUsed": "0x4f33f0",
      "logs": [
        {
          "address": "0xca14007eff0db1f8135f4c25b34de49ab0d42766",
          "topics": [
            "0x8c5be1e5ebec7d5bd14f71427d1e84f3dd0314c0f7b2291e5b200ac8c7c3b925",
            "0x0000000000000000000000001b382a7b4496f14e0aaa2da1e1626da400426a03",
            "0x000000000000000000000000eead9dc94aa25623afdb6b04135c31fb58ff09f1"
          ],
          "data": "0xffffffffffffffffffffffffffffffffffffffffffffffffffffffffffffffff",
          "blockHash": "0x7c56ec759c132c32c769db8ab5114d2a794f9967a4aea3fcf15b6ab9a083742a",
          "blockNumber": "0x6bb1d6",
          "transactionHash": "0x5b9029b0567c68316395c3639d2bcdc946523a8c52460f3aff7fa4aa00dcadda",
          "transactionIndex": "0x30",
          "logIndex": "0x30",
          "removed": false
        }
      ],
      "logsBloom": "0x00000000000000000000000000000000000000000000000000000000000000000000000000000000000000000000000000000000000000000000000000200000000000000000000000000000000000000000000000000000000000000000000000000000000000000000000000000000000000000010000020000000000000040000000000000000000000000000000000000000000000000004000000000000020000000000000000000000000000000000100000000000000000000000000000000000000000020000000000000000000000000000000000800000000000000010000010000000000000000000000000000000001000000000000000000000",
      "type": "0x2",
      "transactionHash": "0x5b9029b0567c68316395c3639d2bcdc946523a8c52460f3aff7fa4aa00dcadda",
      "transactionIndex": "0x30",
      "blockHash": "0x7c56ec759c132c32c769db8ab5114d2a794f9967a4aea3fcf15b6ab9a083742a",
      "blockNumber": "0x6bb1d6",
      "gasUsed": "0xb8a4",
      "effectiveGasPrice": "0x37a6aa81",
      "blobGasUsed": "0x0",
      "from": "0x1b382a7b4496f14e0aaa2da1e1626da400426a03",
      "to": "0xca14007eff0db1f8135f4c25b34de49ab0d42766",
      "contractAddress": null
    },
    {
      "status": "0x1",
      "cumulativeGasUsed": "0x51db71",
      "logs": [
        {
          "address": "0xca14007eff0db1f8135f4c25b34de49ab0d42766",
          "topics": [
            "0xddf252ad1be2c89b69c2b068fc378daa952ba7f163c4a11628f55a4df523b3ef",
            "0x0000000000000000000000001b382a7b4496f14e0aaa2da1e1626da400426a03",
            "0x000000000000000000000000eead9dc94aa25623afdb6b04135c31fb58ff09f1"
          ],
          "data": "0x000000000000000000000000000000000000000000000000000000000007a120",
          "blockHash": "0x7c56ec759c132c32c769db8ab5114d2a794f9967a4aea3fcf15b6ab9a083742a",
          "blockNumber": "0x6bb1d6",
          "transactionHash": "0xe4b95bfc18dd88d8eb4a1a09d770a871e487d8cfac694214d3f064dc34ca6cbd",
          "transactionIndex": "0x31",
          "logIndex": "0x31",
          "removed": false
        },
        {
          "address": "0xca14007eff0db1f8135f4c25b34de49ab0d42766",
          "topics": [
            "0x8c5be1e5ebec7d5bd14f71427d1e84f3dd0314c0f7b2291e5b200ac8c7c3b925",
            "0x000000000000000000000000eead9dc94aa25623afdb6b04135c31fb58ff09f1",
            "0x000000000000000000000000ce5485cfb26914c5dce00b9baf0580364dafc7a4"
          ],
          "data": "0x0000000000000000000000000000000000000000000000000000000000000000",
          "blockHash": "0x7c56ec759c132c32c769db8ab5114d2a794f9967a4aea3fcf15b6ab9a083742a",
          "blockNumber": "0x6bb1d6",
          "transactionHash": "0xe4b95bfc18dd88d8eb4a1a09d770a871e487d8cfac694214d3f064dc34ca6cbd",
          "transactionIndex": "0x31",
          "logIndex": "0x32",
          "removed": false
        },
        {
          "address": "0xca14007eff0db1f8135f4c25b34de49ab0d42766",
          "topics": [
            "0x8c5be1e5ebec7d5bd14f71427d1e84f3dd0314c0f7b2291e5b200ac8c7c3b925",
            "0x000000000000000000000000eead9dc94aa25623afdb6b04135c31fb58ff09f1",
            "0x000000000000000000000000ce5485cfb26914c5dce00b9baf0580364dafc7a4"
          ],
          "data": "0x000000000000000000000000000000000000000000000000000000000007a120",
          "blockHash": "0x7c56ec759c132c32c769db8ab5114d2a794f9967a4aea3fcf15b6ab9a083742a",
          "blockNumber": "0x6bb1d6",
          "transactionHash": "0xe4b95bfc18dd88d8eb4a1a09d770a871e487d8cfac694214d3f064dc34ca6cbd",
          "transactionIndex": "0x31",
          "logIndex": "0x33",
          "removed": false
        },
        {
          "address": "0xca14007eff0db1f8135f4c25b34de49ab0d42766",
          "topics": [
            "0x8c5be1e5ebec7d5bd14f71427d1e84f3dd0314c0f7b2291e5b200ac8c7c3b925",
            "0x000000000000000000000000eead9dc94aa25623afdb6b04135c31fb58ff09f1",
            "0x000000000000000000000000ce5485cfb26914c5dce00b9baf0580364dafc7a4"
          ],
          "data": "0x0000000000000000000000000000000000000000000000000000000000000000",
          "blockHash": "0x7c56ec759c132c32c769db8ab5114d2a794f9967a4aea3fcf15b6ab9a083742a",
          "blockNumber": "0x6bb1d6",
          "transactionHash": "0xe4b95bfc18dd88d8eb4a1a09d770a871e487d8cfac694214d3f064dc34ca6cbd",
          "transactionIndex": "0x31",
          "logIndex": "0x34",
          "removed": false
        },
        {
          "address": "0xca14007eff0db1f8135f4c25b34de49ab0d42766",
          "topics": [
            "0xddf252ad1be2c89b69c2b068fc378daa952ba7f163c4a11628f55a4df523b3ef",
            "0x000000000000000000000000eead9dc94aa25623afdb6b04135c31fb58ff09f1",
            "0x000000000000000000000000ce5485cfb26914c5dce00b9baf0580364dafc7a4"
          ],
          "data": "0x000000000000000000000000000000000000000000000000000000000007a120",
          "blockHash": "0x7c56ec759c132c32c769db8ab5114d2a794f9967a4aea3fcf15b6ab9a083742a",
          "blockNumber": "0x6bb1d6",
          "transactionHash": "0xe4b95bfc18dd88d8eb4a1a09d770a871e487d8cfac694214d3f064dc34ca6cbd",
          "transactionIndex": "0x31",
          "logIndex": "0x35",
          "removed": false
        },
        {
          "address": "0xe2bb56ee936fd6433dc0f6e7e3b8365c906aa057",
          "topics": [
            "0xdb80dd488acf86d17c747445b0eabb5d57c541d3bd7b6b87af987858e5066b2b",
            "0x000000000000000000000000ce5485cfb26914c5dce00b9baf0580364dafc7a4",
            "0x0594c1582459ea03f77deaf9eb7e3917d6994a03c13405ba42867f83d85f085d",
            "0x008bce41827dd5484d80312a2e43bc42a896e3fcf75bf84c2b49339168dfa00a"
          ],
          "data": "0x000000000000000000000000000000000000000000000000000000000000006000000000000000000000000000000000000000000000000000000000000027f100000000000000000000000000000000000000000000000000005af3107a4000000000000000000000000000000000000000000000000000000000000000000d000000000000000000000000ca14007eff0db1f8135f4c25b34de49ab0d42766000000000000000000000000eead9dc94aa25623afdb6b04135c31fb58ff09f1062ab2d735892e7c171467546a12833da8e1c90b37119325df79559adacb82a0000000000000000000000000000000000000000000000000000000000007a1200000000000000000000000000000000000000000000000000000000000000000000000000000000000000000000000000000000000000000000000000000000700000000000000000000000000000000000000000000000000000000000000000000000000000000000000001b382a7b4496f14e0aaa2da1e1626da400426a0304718f5a0fc34cc1af16a1cdee98ffb20c31f5cd61d6ab07201858f4287c938d053b40a647cedfca6ca84f542a0fe36736031905a9639a7f19a3c1e66bfd508000000000000000000000000000000000000000000000000000000000000000000000000000000000000000000000000000000000000000000000000067327cb00000000000000000000000000000000000000000000000000000000067327cf0",
          "blockHash": "0x7c56ec759c132c32c769db8ab5114d2a794f9967a4aea3fcf15b6ab9a083742a",
          "blockNumber": "0x6bb1d6",
          "transactionHash": "0xe4b95bfc18dd88d8eb4a1a09d770a871e487d8cfac694214d3f064dc34ca6cbd",
          "transactionIndex": "0x31",
          "logIndex": "0x36",
          "removed": false
        },
        {
          "address": "0xce5485cfb26914c5dce00b9baf0580364dafc7a4",
          "topics": [
            "0x2203a49c69f1a46c1164f5e4a30643dd77b7c59c0ff9bc433256048365c247f1",
            "0x000000000000000000000000eead9dc94aa25623afdb6b04135c31fb58ff09f1",
            "0x000000000000000000000000ca14007eff0db1f8135f4c25b34de49ab0d42766",
            "0x062ab2d735892e7c171467546a12833da8e1c90b37119325df79559adacb82a0"
          ],
          "data": "0x000000000000000000000000000000000000000000000000000000000007a120000000000000000000000000000000000000000000000000000000000000008000000000000000000000000000000000000000000000000000000000000027f100000000000000000000000000000000000000000000000000005af3107a4000000000000000000000000000000000000000000000000000000000000000000700000000000000000000000000000000000000000000000000000000000000000000000000000000000000001b382a7b4496f14e0aaa2da1e1626da400426a0304718f5a0fc34cc1af16a1cdee98ffb20c31f5cd61d6ab07201858f4287c938d053b40a647cedfca6ca84f542a0fe36736031905a9639a7f19a3c1e66bfd508000000000000000000000000000000000000000000000000000000000000000000000000000000000000000000000000000000000000000000000000067327cb00000000000000000000000000000000000000000000000000000000067327cf0",
          "blockHash": "0x7c56ec759c132c32c769db8ab5114d2a794f9967a4aea3fcf15b6ab9a083742a",
          "blockNumber": "0x6bb1d6",
          "transactionHash": "0xe4b95bfc18dd88d8eb4a1a09d770a871e487d8cfac694214d3f064dc34ca6cbd",
          "transactionIndex": "0x31",
          "logIndex": "0x37",
          "removed": false
        },
        {
          "address": "0xeead9dc94aa25623afdb6b04135c31fb58ff09f1",
          "topics": [
            "0xaf43445f7721522b7a3864ed3de53d7e2e658bfa1eeffa18e1e229be68ce2545",
            "0x0000000000000000000000001b382a7b4496f14e0aaa2da1e1626da400426a03",
            "0x062ab2d735892e7c171467546a12833da8e1c90b37119325df79559adacb82a0"
          ],
          "data": "0x000000000000000000000000000000000000000000000000000000000007a1200000000000000000000000000000000000000000000000000000000000000001",
          "blockHash": "0x7c56ec759c132c32c769db8ab5114d2a794f9967a4aea3fcf15b6ab9a083742a",
          "blockNumber": "0x6bb1d6",
          "transactionHash": "0xe4b95bfc18dd88d8eb4a1a09d770a871e487d8cfac694214d3f064dc34ca6cbd",
          "transactionIndex": "0x31",
          "logIndex": "0x38",
          "removed": false
        }
      ],
      "logsBloom": "0x00000200000000000000000000020000000000000000000000000040000020000000000000000000000000000200000000000000000004000000020000200000000000000000000000000008080000000000800000000040001000000000000200004000100000000000000000000000000000000010000020000010000008042000000100000000000000020000000000008000000200000004000000000010020000800000000000000020000000021000100000000000000000000000000000800002000000024010000000000000000000200000000000800000004000000010000010010000000000020004000000000000001000000000000000000000",
      "type": "0x2",
      "transactionHash": "0xe4b95bfc18dd88d8eb4a1a09d770a871e487d8cfac694214d3f064dc34ca6cbd",
      "transactionIndex": "0x31",
      "blockHash": "0x7c56ec759c132c32c769db8ab5114d2a794f9967a4aea3fcf15b6ab9a083742a",
      "blockNumber": "0x6bb1d6",
      "gasUsed": "0x2a781",
      "effectiveGasPrice": "0x37a6aa81",
      "blobGasUsed": "0x0",
      "from": "0x1b382a7b4496f14e0aaa2da1e1626da400426a03",
      "to": "0xeead9dc94aa25623afdb6b04135c31fb58ff09f1",
      "contractAddress": null
    },
    {
      "status": "0x1",
      "cumulativeGasUsed": "0x53034e",
      "logs": [
        {
          "address": "0xe2bb56ee936fd6433dc0f6e7e3b8365c906aa057",
          "topics": [
            "0xdb80dd488acf86d17c747445b0eabb5d57c541d3bd7b6b87af987858e5066b2b",
            "0x000000000000000000000000eead9dc94aa25623afdb6b04135c31fb58ff09f1",
            "0x062ab2d735892e7c171467546a12833da8e1c90b37119325df79559adacb82a0",
            "0x00f1149cade9d692862ad41df96b108aa2c20af34f640457e781d166c98dc6b0"
          ],
          "data": "0x000000000000000000000000000000000000000000000000000000000000006000000000000000000000000000000000000000000000000000000000000027f200000000000000000000000000000000000000000000000000005af3107a4000000000000000000000000000000000000000000000000000000000000000000800000000000000000000000000000000000000000000000000000000000000020000000000000000000000000000000000000000000000000000000000000000000000000000000000000000000000000000000000000000000000000000000000000000000000000000000000000000000000000000000000000000000000000000000000000000000000000000000000000000000000000000000000000000000000000000000000000000000000000000000000000000000000000000000000000000000000000000000000000000000000000000000000000000000000000000000000000000000000000000000000000000000000000000000000000000",
          "blockHash": "0x7c56ec759c132c32c769db8ab5114d2a794f9967a4aea3fcf15b6ab9a083742a",
          "blockNumber": "0x6bb1d6",
          "transactionHash": "0xf68dcc2c39722329d9d1f84c06a7b5c835d7462c40e992c480cb5ef8134a5776",
          "transactionIndex": "0x32",
          "logIndex": "0x39",
          "removed": false
        }
      ],
      "logsBloom": "0x00400000000000000000000000020000000000000000000000000000000020000000000000000000000000000200000000000000000000000000000000000000000000000000000000000000000000000000000000000040001000000000000000000000100000010000000000000000000000000000000000000000000000000000000000000000000000000000000004000000000000000004000000000010000000000000000000000020000000000000100000000000000000000000000000000000000000000000000000000000000000000000000000000000004000000000000010000000000000000000000000000000000000000000000000000000",
      "type": "0x2",
      "transactionHash": "0xf68dcc2c39722329d9d1f84c06a7b5c835d7462c40e992c480cb5ef8134a5776",
      "transactionIndex": "0x32",
      "blockHash": "0x7c56ec759c132c32c769db8ab5114d2a794f9967a4aea3fcf15b6ab9a083742a",
      "blockNumber": "0x6bb1d6",
      "gasUsed": "0x127dd",
      "effectiveGasPrice": "0x37a6aa81",
      "blobGasUsed": "0x0",
      "from": "0x1b382a7b4496f14e0aaa2da1e1626da400426a03",
      "to": "0xeead9dc94aa25623afdb6b04135c31fb58ff09f1",
      "contractAddress": null
    }
  ],
  "libraries": [],
  "pending": [],
  "returns": {},
  "timestamp": 1731362008,
  "chain": 11155111,
  "commit": "a5302c4"
}