{
  "transactions": [
    {
      "hash": "0x35770bb9a94b9335c53eaf8623c4c3badb02286ee113cb6605f4059d84f57d2c",
      "transactionType": "CALL",
      "contractName": "StarkNetToken",
      "contractAddress": "0xCa14007Eff0dB1f8135f4C25B34De49AB0d42766",
      "function": "approve(address,uint256)",
      "arguments": [
        "0xDd2a2bC41f947cdCd3F173fD03CD15b5a66Cd6b5",
        "115792089237316195423570985008687907853269984665640564039457584007913129639935"
      ],
      "transaction": {
        "type": "0x02",
        "from": "0xddb342ecc94236c29a5307d3757d0724d759453c",
        "to": "0xca14007eff0db1f8135f4c25b34de49ab0d42766",
        "gas": "0x93a9",
        "value": "0x0",
        "data": "0x095ea7b3000000000000000000000000dd2a2bc41f947cdcd3f173fd03cd15b5a66cd6b5ffffffffffffffffffffffffffffffffffffffffffffffffffffffffffffffff",
        "nonce": "0x1bf",
        "accessList": []
      },
      "additionalContracts": [],
      "isFixedGasLimit": false
    },
    {
      "hash": "0x7fc489ed157c6370cf1ace939b3d8183945e3dfa85d997cb09703a2aae9d8b1f",
      "transactionType": "CALL",
      "contractName": "StarkNetToken",
      "contractAddress": "0xCa14007Eff0dB1f8135f4C25B34De49AB0d42766",
      "function": "transfer(address,uint256)",
      "arguments": [
        "0xDd2a2bC41f947cdCd3F173fD03CD15b5a66Cd6b5",
        "1000000000000000"
      ],
      "transaction": {
        "type": "0x02",
        "from": "0xddb342ecc94236c29a5307d3757d0724d759453c",
        "to": "0xca14007eff0db1f8135f4c25b34de49ab0d42766",
        "gas": "0xe427",
        "value": "0x0",
        "data": "0xa9059cbb000000000000000000000000dd2a2bc41f947cdcd3f173fd03cd15b5a66cd6b500000000000000000000000000000000000000000000000000038d7ea4c68000",
        "nonce": "0x1c0",
        "accessList": []
      },
      "additionalContracts": [],
      "isFixedGasLimit": false
    },
    {
      "hash": "0x506fbe7ae54505881bfc42bcb8522784f196ef75bbf2dd3418a0956d31318e38",
      "transactionType": "CALL",
      "contractName": "L1TWAMMBridge",
      "contractAddress": "0xDd2a2bC41f947cdCd3F173fD03CD15b5a66Cd6b5",
      "function": "deposit(uint256,uint256)",
      "arguments": [
        "1000000000000000",
        "1647970598847617027890947728899760175249314077903923387400359173436953475181"
      ],
      "transaction": {
        "type": "0x02",
        "from": "0xddb342ecc94236c29a5307d3757d0724d759453c",
        "to": "0xdd2a2bc41f947cdcd3f173fd03cd15b5a66cd6b5",
        "gas": "0x31da0",
        "value": "0x2386f26fc10000",
        "data": "0xe2bbb15800000000000000000000000000000000000000000000000000038d7ea4c6800003a4b7e2d060bd8eb48e2db10f16c1303b131c266cc928902c3a3a8ead7e386d",
        "nonce": "0x1c1",
        "accessList": []
      },
      "additionalContracts": [],
      "isFixedGasLimit": false
    }
  ],
  "receipts": [
    {
      "transactionHash": "0x35770bb9a94b9335c53eaf8623c4c3badb02286ee113cb6605f4059d84f57d2c",
      "transactionIndex": "0x8",
      "blockHash": "0xcffc9ab8b035dc173fa6ad8c8a2b4c96a9237c744b1f157a72d82fa7ff4a9a0f",
      "blockNumber": "0x6b2598",
      "from": "0xDdb342ecc94236c29a5307d3757d0724D759453C",
      "to": "0xCa14007Eff0dB1f8135f4C25B34De49AB0d42766",
      "cumulativeGasUsed": "0x50c66",
      "gasUsed": "0x6ae8",
      "contractAddress": null,
      "logs": [
        {
          "address": "0xCa14007Eff0dB1f8135f4C25B34De49AB0d42766",
          "topics": [
            "0x8c5be1e5ebec7d5bd14f71427d1e84f3dd0314c0f7b2291e5b200ac8c7c3b925",
            "0x000000000000000000000000ddb342ecc94236c29a5307d3757d0724d759453c",
            "0x000000000000000000000000dd2a2bc41f947cdcd3f173fd03cd15b5a66cd6b5"
          ],
          "data": "0xffffffffffffffffffffffffffffffffffffffffffffffffffffffffffffffff",
          "blockHash": "0xcffc9ab8b035dc173fa6ad8c8a2b4c96a9237c744b1f157a72d82fa7ff4a9a0f",
          "blockNumber": "0x6b2598",
          "transactionHash": "0x35770bb9a94b9335c53eaf8623c4c3badb02286ee113cb6605f4059d84f57d2c",
          "transactionIndex": "0x8",
          "logIndex": "0x7",
          "removed": false
        }
      ],
      "status": "0x1",
      "logsBloom": "0x00000000000000200000000000020000000000000000000000000000000000000000000000000000000000000000000000000000000000000000000000200000000000000000000000000000000000000000000000000000000000000000000400000000000000000000000000000000400000000000000000000000400000000000000000000000000000000000000000000000000000000000000000000000020000000000000000000000000000000000000000000000000000000000000000000000020000020000000000000000000000000000000000800000000000000010000000000000000000000000000000000000001000000000000000000000",
      "type": "0x2",
      "effectiveGasPrice": "0x29e9c5f40"
    },
    {
      "transactionHash": "0x7fc489ed157c6370cf1ace939b3d8183945e3dfa85d997cb09703a2aae9d8b1f",
      "transactionIndex": "0x9",
      "blockHash": "0xcffc9ab8b035dc173fa6ad8c8a2b4c96a9237c744b1f157a72d82fa7ff4a9a0f",
      "blockNumber": "0x6b2598",
      "from": "0xDdb342ecc94236c29a5307d3757d0724D759453C",
      "to": "0xCa14007Eff0dB1f8135f4C25B34De49AB0d42766",
      "cumulativeGasUsed": "0x5a867",
      "gasUsed": "0x9c01",
      "contractAddress": null,
      "logs": [
        {
          "address": "0xCa14007Eff0dB1f8135f4C25B34De49AB0d42766",
          "topics": [
            "0xddf252ad1be2c89b69c2b068fc378daa952ba7f163c4a11628f55a4df523b3ef",
            "0x000000000000000000000000ddb342ecc94236c29a5307d3757d0724d759453c",
            "0x000000000000000000000000dd2a2bc41f947cdcd3f173fd03cd15b5a66cd6b5"
          ],
          "data": "0x00000000000000000000000000000000000000000000000000038d7ea4c68000",
          "blockHash": "0xcffc9ab8b035dc173fa6ad8c8a2b4c96a9237c744b1f157a72d82fa7ff4a9a0f",
          "blockNumber": "0x6b2598",
          "transactionHash": "0x7fc489ed157c6370cf1ace939b3d8183945e3dfa85d997cb09703a2aae9d8b1f",
          "transactionIndex": "0x9",
          "logIndex": "0x8",
          "removed": false
        }
      ],
      "status": "0x1",
      "logsBloom": "0x00000000000000200000000000020000000000000000000000000000000000000000000000000000000000000000000000000000000000000000000000000000000000000000000000000008000000000000000000000000000000000000000400000000000000000000000000000000400000000000000000000010400000000000000000000000000000000000000000000000000000000000000000000000000000000000000000000000000000000000000000000000000000000000000000000002020000020000000000000000000000000000000000800000000000000000000000000000000000000000000000000000001000000000000000000000",
      "type": "0x2",
      "effectiveGasPrice": "0x29e9c5f40"
    },
    {
      "transactionHash": "0x506fbe7ae54505881bfc42bcb8522784f196ef75bbf2dd3418a0956d31318e38",
      "transactionIndex": "0xa",
      "blockHash": "0xcffc9ab8b035dc173fa6ad8c8a2b4c96a9237c744b1f157a72d82fa7ff4a9a0f",
      "blockNumber": "0x6b2598",
      "from": "0xDdb342ecc94236c29a5307d3757d0724D759453C",
      "to": "0xDd2a2bC41f947cdCd3F173fD03CD15b5a66Cd6b5",
      "cumulativeGasUsed": "0x7c9ca",
      "gasUsed": "0x22163",
      "contractAddress": null,
      "logs": [
        {
          "address": "0xCa14007Eff0dB1f8135f4C25B34De49AB0d42766",
          "topics": [
            "0x8c5be1e5ebec7d5bd14f71427d1e84f3dd0314c0f7b2291e5b200ac8c7c3b925",
            "0x000000000000000000000000dd2a2bc41f947cdcd3f173fd03cd15b5a66cd6b5",
            "0x000000000000000000000000ce5485cfb26914c5dce00b9baf0580364dafc7a4"
          ],
          "data": "0x00000000000000000000000000000000000000000000000000038d7ea4c68000",
          "blockHash": "0xcffc9ab8b035dc173fa6ad8c8a2b4c96a9237c744b1f157a72d82fa7ff4a9a0f",
          "blockNumber": "0x6b2598",
          "transactionHash": "0x506fbe7ae54505881bfc42bcb8522784f196ef75bbf2dd3418a0956d31318e38",
          "transactionIndex": "0xa",
          "logIndex": "0x9",
          "removed": false
        },
        {
          "address": "0xCa14007Eff0dB1f8135f4C25B34De49AB0d42766",
          "topics": [
            "0x8c5be1e5ebec7d5bd14f71427d1e84f3dd0314c0f7b2291e5b200ac8c7c3b925",
            "0x000000000000000000000000dd2a2bc41f947cdcd3f173fd03cd15b5a66cd6b5",
            "0x000000000000000000000000ce5485cfb26914c5dce00b9baf0580364dafc7a4"
          ],
          "data": "0x0000000000000000000000000000000000000000000000000000000000000000",
          "blockHash": "0xcffc9ab8b035dc173fa6ad8c8a2b4c96a9237c744b1f157a72d82fa7ff4a9a0f",
          "blockNumber": "0x6b2598",
          "transactionHash": "0x506fbe7ae54505881bfc42bcb8522784f196ef75bbf2dd3418a0956d31318e38",
          "transactionIndex": "0xa",
          "logIndex": "0xa",
          "removed": false
        },
        {
          "address": "0xCa14007Eff0dB1f8135f4C25B34De49AB0d42766",
          "topics": [
            "0xddf252ad1be2c89b69c2b068fc378daa952ba7f163c4a11628f55a4df523b3ef",
            "0x000000000000000000000000dd2a2bc41f947cdcd3f173fd03cd15b5a66cd6b5",
            "0x000000000000000000000000ce5485cfb26914c5dce00b9baf0580364dafc7a4"
          ],
          "data": "0x00000000000000000000000000000000000000000000000000038d7ea4c68000",
          "blockHash": "0xcffc9ab8b035dc173fa6ad8c8a2b4c96a9237c744b1f157a72d82fa7ff4a9a0f",
          "blockNumber": "0x6b2598",
          "transactionHash": "0x506fbe7ae54505881bfc42bcb8522784f196ef75bbf2dd3418a0956d31318e38",
          "transactionIndex": "0xa",
          "logIndex": "0xb",
          "removed": false
        },
        {
          "address": "0xE2Bb56ee936fd6433DC0F6e7e3b8365C906AA057",
          "topics": [
            "0xdb80dd488acf86d17c747445b0eabb5d57c541d3bd7b6b87af987858e5066b2b",
            "0x000000000000000000000000ce5485cfb26914c5dce00b9baf0580364dafc7a4",
            "0x0594c1582459ea03f77deaf9eb7e3917d6994a03c13405ba42867f83d85f085d",
            "0x01b64b1b3b690b43b9b514fb81377518f4039cd3e4f4914d8a6bdf01d679fb19"
          ],
          "data": "0x00000000000000000000000000000000000000000000000000000000000000600000000000000000000000000000000000000000000000000000000000002755000000000000000000000000000000000000000000000000002386f26fc100000000000000000000000000000000000000000000000000000000000000000005000000000000000000000000ca14007eff0db1f8135f4c25b34de49ab0d42766000000000000000000000000dd2a2bc41f947cdcd3f173fd03cd15b5a66cd6b503a4b7e2d060bd8eb48e2db10f16c1303b131c266cc928902c3a3a8ead7e386d00000000000000000000000000000000000000000000000000038d7ea4c680000000000000000000000000000000000000000000000000000000000000000000",
          "blockHash": "0xcffc9ab8b035dc173fa6ad8c8a2b4c96a9237c744b1f157a72d82fa7ff4a9a0f",
          "blockNumber": "0x6b2598",
          "transactionHash": "0x506fbe7ae54505881bfc42bcb8522784f196ef75bbf2dd3418a0956d31318e38",
          "transactionIndex": "0xa",
          "logIndex": "0xc",
          "removed": false
        },
        {
          "address": "0xcE5485Cfb26914C5dcE00B9BAF0580364daFC7a4",
          "topics": [
            "0x5f971bd00bf3ffbca8a6d72cdd4fd92cfd4f62636161921d1e5a64f0b64ccb6d",
            "0x000000000000000000000000dd2a2bc41f947cdcd3f173fd03cd15b5a66cd6b5",
            "0x000000000000000000000000ca14007eff0db1f8135f4c25b34de49ab0d42766",
            "0x03a4b7e2d060bd8eb48e2db10f16c1303b131c266cc928902c3a3a8ead7e386d"
          ],
          "data": "0x00000000000000000000000000000000000000000000000000038d7ea4c680000000000000000000000000000000000000000000000000000000000000002755000000000000000000000000000000000000000000000000002386f26fc10000",
          "blockHash": "0xcffc9ab8b035dc173fa6ad8c8a2b4c96a9237c744b1f157a72d82fa7ff4a9a0f",
          "blockNumber": "0x6b2598",
          "transactionHash": "0x506fbe7ae54505881bfc42bcb8522784f196ef75bbf2dd3418a0956d31318e38",
          "transactionIndex": "0xa",
          "logIndex": "0xd",
          "removed": false
        }
      ],
      "status": "0x1",
      "logsBloom": "0x00000000000000200200000000020000000000000000000000000002000000400000000000000000000000000000000000000000000004000000000000200000000000000000000000000008080000000000000000000040001000000000000000000000100000000000000000000000000000000000000000000010000008002000000000000000000000000400000000000000000200000100020000000010020000000000000000000020000000001000000000000020000000000000000000000002020000024010000000000000000000200000000000800000200000000010000000010000000000020084000000000000001000000000000000000000",
      "type": "0x2",
      "effectiveGasPrice": "0x29e9c5f40"
    }
  ],
  "libraries": [],
  "pending": [],
  "returns": {},
  "timestamp": 1730876295,
  "chain": 11155111,
  "multi": false,
  "commit": "71ba860"
}