{
  "transactions": [
    {
      "hash": "0x225af6b8a380307bf601f7c9b6a8dc2d48ad8d042a463288115f6b1ae8500cc7",
      "transactionType": "CALL",
      "contractName": "StarkNetToken",
      "contractAddress": "0xCa14007Eff0dB1f8135f4C25B34De49AB0d42766",
      "function": "approve(address,uint256)",
      "arguments": [
        "0x0Ed0e15f0D7362b95A7F4441FCBfb948b63FD61b",
        "115792089237316195423570985008687907853269984665640564039457584007913129639935"
      ],
      "transaction": {
        "type": "0x02",
        "from": "0xddb342ecc94236c29a5307d3757d0724d759453c",
        "to": "0xca14007eff0db1f8135f4c25b34de49ab0d42766",
        "gas": "0x93a9",
        "value": "0x0",
        "data": "0x095ea7b30000000000000000000000000ed0e15f0d7362b95a7f4441fcbfb948b63fd61bffffffffffffffffffffffffffffffffffffffffffffffffffffffffffffffff",
        "nonce": "0x3b2",
        "accessList": []
      },
      "additionalContracts": [],
      "isFixedGasLimit": false
    },
    {
      "hash": "0xb981eed26c3038a57e1d5d940b640fea8751f27eeef248117caf964d75468409",
      "transactionType": "CALL",
      "contractName": null,
      "contractAddress": "0x0Ed0e15f0D7362b95A7F4441FCBfb948b63FD61b",
      "function": "setL2EndpointAddress(uint256)",
      "arguments": [
        "617799478189829161022164413953132065880027155424823591051003479268659305061"
      ],
      "transaction": {
        "type": "0x02",
        "from": "0xddb342ecc94236c29a5307d3757d0724d759453c",
        "to": "0x0ed0e15f0d7362b95a7f4441fcbfb948b63fd61b",
        "gas": "0xabab",
        "value": "0x0",
        "data": "0x5155fb2f015da9803e7252cea729da23bf18f83c7d6d608cfc4bff24e9acb72b3fd01a65",
        "nonce": "0x3b3",
        "accessList": []
      },
      "additionalContracts": [],
      "isFixedGasLimit": false
    }
  ],
  "receipts": [
    {
      "transactionHash": "0x225af6b8a380307bf601f7c9b6a8dc2d48ad8d042a463288115f6b1ae8500cc7",
      "transactionIndex": "0x4",
      "blockHash": "0xd7c4634df2e2e08ab0198f2ade6a722b25fc9b94fb7ecbbc0c12158926978b4a",
      "blockNumber": "0x6dddcb",
      "from": "0xDdb342ecc94236c29a5307d3757d0724D759453C",
      "to": "0xCa14007Eff0dB1f8135f4C25B34De49AB0d42766",
      "cumulativeGasUsed": "0x5a6e0",
      "gasUsed": "0x6ae8",
      "contractAddress": null,
      "logs": [
        {
          "address": "0xCa14007Eff0dB1f8135f4C25B34De49AB0d42766",
          "topics": [
            "0x8c5be1e5ebec7d5bd14f71427d1e84f3dd0314c0f7b2291e5b200ac8c7c3b925",
            "0x000000000000000000000000ddb342ecc94236c29a5307d3757d0724d759453c",
            "0x0000000000000000000000000ed0e15f0d7362b95a7f4441fcbfb948b63fd61b"
          ],
          "data": "0xffffffffffffffffffffffffffffffffffffffffffffffffffffffffffffffff",
          "blockHash": "0xd7c4634df2e2e08ab0198f2ade6a722b25fc9b94fb7ecbbc0c12158926978b4a",
          "blockNumber": "0x6dddcb",
          "transactionHash": "0x225af6b8a380307bf601f7c9b6a8dc2d48ad8d042a463288115f6b1ae8500cc7",
          "transactionIndex": "0x4",
          "logIndex": "0xa",
          "removed": false
        }
      ],
      "status": "0x1",
      "logsBloom": "0x00000000000000000000000000000000000000000000000000000000000000000000001000000000000000000000000002002000000000000000000000200000000000000000000000000000000000000000000000000000000000000000000400000000000000000000000000000000400000000000000000000000400000000000000000000000000000000000000000000000000000000000000000000000020000000000000000000000000000000000000000000000000000000000000000000000000000020000000000000000000000000000000000800000000000000010000000000000000000000000000000000000001000000000000000000000",
      "type": "0x2",
      "effectiveGasPrice": "0x3ac731d86"
    },
    {
      "transactionHash": "0xb981eed26c3038a57e1d5d940b640fea8751f27eeef248117caf964d75468409",
      "transactionIndex": "0x5",
      "blockHash": "0xd7c4634df2e2e08ab0198f2ade6a722b25fc9b94fb7ecbbc0c12158926978b4a",
      "blockNumber": "0x6dddcb",
      "from": "0xDdb342ecc94236c29a5307d3757d0724D759453C",
      "to": "0x0Ed0e15f0D7362b95A7F4441FCBfb948b63FD61b",
      "cumulativeGasUsed": "0x61c42",
      "gasUsed": "0x7562",
      "contractAddress": null,
      "logs": [
        {
          "address": "0x0Ed0e15f0D7362b95A7F4441FCBfb948b63FD61b",
          "topics": [
            "0xa35dce9e53611b0cabca886209c4a1d09c80214af9b6fb6027f7b2f7c39838e8"
          ],
          "data": "0x015da9803e7252cea729da23bf18f83c7d6d608cfc4bff24e9acb72b3fd01a65",
          "blockHash": "0xd7c4634df2e2e08ab0198f2ade6a722b25fc9b94fb7ecbbc0c12158926978b4a",
          "blockNumber": "0x6dddcb",
          "transactionHash": "0xb981eed26c3038a57e1d5d940b640fea8751f27eeef248117caf964d75468409",
          "transactionIndex": "0x5",
          "logIndex": "0xb",
          "removed": false
        }
      ],
      "status": "0x1",
      "logsBloom": "0x00000000000000000000000010000000000000000080000000000000000000000000000000000000000000000000000000000000000000000000000000000000000000000000010000000000000200000000000000000000000000000000000000000000000000000000000000000000000000000000000000000000000000000000000000000000000000000000000000000000000000000000000000000000840000000000000000000000000000000000000000000000000000000000000000000000000000000000000000000000000000000000000000000000000000000000000000000000000000000000000000000000000000000000000000000000",
      "type": "0x2",
      "effectiveGasPrice": "0x3ac731d86"
    }
  ],
  "libraries": [],
  "pending": [],
  "returns": {},
  "timestamp": 1733195451,
  "chain": 11155111,
  "multi": false,
  "commit": "67ce98f"
}