{
  "transactions": [
    {
      "hash": "0x6f22ab00b40d7b9899c5a8f568e91400736d8c5bc4b4e7f370e4413390a5353a",
      "transactionType": "CALL",
      "contractName": "StarkNetToken",
      "contractAddress": "0xCa14007Eff0dB1f8135f4C25B34De49AB0d42766",
      "function": "approve(address,uint256)",
      "arguments": [
        "0x7eb4C59eABE1234E8A6D02FdF4d1BB595C4702Cd",
        "115792089237316195423570985008687907853269984665640564039457584007913129639935"
      ],
      "transaction": {
        "type": "0x02",
        "from": "0xddb342ecc94236c29a5307d3757d0724d759453c",
        "to": "0xca14007eff0db1f8135f4c25b34de49ab0d42766",
        "gas": "0x93a9",
        "value": "0x0",
        "data": "0x095ea7b30000000000000000000000007eb4c59eabe1234e8a6d02fdf4d1bb595c4702cdffffffffffffffffffffffffffffffffffffffffffffffffffffffffffffffff",
        "nonce": "0x3a5",
        "accessList": []
      },
      "additionalContracts": [],
      "isFixedGasLimit": false
    },
    {
      "hash": "0xa3ef673b627181662f25f876e21953fff2cb7f2760990a8cc6912e36cc5361cf",
      "transactionType": "CALL",
      "contractName": null,
      "contractAddress": "0x7eb4C59eABE1234E8A6D02FdF4d1BB595C4702Cd",
      "function": "initiateWithdrawal(uint256,address)",
      "arguments": [
        "500000000000000",
        "0x1c7D4B196Cb0C7B01d743Fbc6116a902379C7238"
      ],
      "transaction": {
        "type": "0x02",
        "from": "0xddb342ecc94236c29a5307d3757d0724d759453c",
        "to": "0x7eb4c59eabe1234e8a6d02fdf4d1bb595c4702cd",
        "gas": "0x1bbe2",
        "value": "0x1c6bf52634000",
        "data": "0x544381270000000000000000000000000000000000000000000000000001c6bf526340000000000000000000000000001c7d4b196cb0c7b01d743fbc6116a902379c7238",
        "nonce": "0x3a6",
        "accessList": []
      },
      "additionalContracts": [],
      "isFixedGasLimit": false
    }
  ],
  "receipts": [
    {
      "transactionHash": "0x6f22ab00b40d7b9899c5a8f568e91400736d8c5bc4b4e7f370e4413390a5353a",
      "transactionIndex": "0x12",
      "blockHash": "0x858809ad362212271d01d036a3716f982f129c1b806251aded73a498eea91ac5",
      "blockNumber": "0x6dca33",
      "from": "0xDdb342ecc94236c29a5307d3757d0724D759453C",
      "to": "0xCa14007Eff0dB1f8135f4C25B34De49AB0d42766",
      "cumulativeGasUsed": "0xe9fc8",
      "gasUsed": "0x6ae8",
      "contractAddress": null,
      "logs": [
        {
          "address": "0xCa14007Eff0dB1f8135f4C25B34De49AB0d42766",
          "topics": [
            "0x8c5be1e5ebec7d5bd14f71427d1e84f3dd0314c0f7b2291e5b200ac8c7c3b925",
            "0x000000000000000000000000ddb342ecc94236c29a5307d3757d0724d759453c",
            "0x0000000000000000000000007eb4c59eabe1234e8a6d02fdf4d1bb595c4702cd"
          ],
          "data": "0xffffffffffffffffffffffffffffffffffffffffffffffffffffffffffffffff",
          "blockHash": "0x858809ad362212271d01d036a3716f982f129c1b806251aded73a498eea91ac5",
          "blockNumber": "0x6dca33",
          "transactionHash": "0x6f22ab00b40d7b9899c5a8f568e91400736d8c5bc4b4e7f370e4413390a5353a",
          "transactionIndex": "0x12",
          "logIndex": "0x13",
          "removed": false
        }
      ],
      "status": "0x1",
      "logsBloom": "0x00000000000000100000000000000000000000000000000000000000000000000000000000000000000000000000000000000000000000000000000000200000000000000000000000000000000000000000000000000000000000000000000400020000000000000000000000000000400000000000000000000000400000000000000000000000000000000000000000000000000000000000000000000000020000000000000000000000000000008000000000000000000000000000000000000000000000020000000000000000000000000000000000800000000000000010000000000000000000000000000000000000001000000000000000000000",
      "type": "0x2",
      "effectiveGasPrice": "0x3fdf6ed5f"
    },
    {
      "transactionHash": "0xa3ef673b627181662f25f876e21953fff2cb7f2760990a8cc6912e36cc5361cf",
      "transactionIndex": "0x13",
      "blockHash": "0x858809ad362212271d01d036a3716f982f129c1b806251aded73a498eea91ac5",
      "blockNumber": "0x6dca33",
      "from": "0xDdb342ecc94236c29a5307d3757d0724D759453C",
      "to": "0x7eb4C59eABE1234E8A6D02FdF4d1BB595C4702Cd",
      "cumulativeGasUsed": "0xfcf4b",
      "gasUsed": "0x12f83",
      "contractAddress": null,
      "logs": [
        {
          "address": "0xE2Bb56ee936fd6433DC0F6e7e3b8365C906AA057",
          "topics": [
            "0xdb80dd488acf86d17c747445b0eabb5d57c541d3bd7b6b87af987858e5066b2b",
            "0x0000000000000000000000007eb4c59eabe1234e8a6d02fdf4d1bb595c4702cd",
            "0x04979530a64a9b49088d61067fca21c6fa47526dcda0b985c981174026145bce",
            "0x00f1149cade9d692862ad41df96b108aa2c20af34f640457e781d166c98dc6b0"
          ],
          "data": "0x0000000000000000000000000000000000000000000000000000000000000060000000000000000000000000000000000000000000000000000000000000298b0000000000000000000000000000000000000000000000000001c6bf5263400000000000000000000000000000000000000000000000000000000000000000090000000000000000000000000000000000000000000000000000000000000002000000000000000000000000ddb342ecc94236c29a5307d3757d0724d759453c00000000000000000000000000000000000000000000000000000000000000000000000000000000000000001c7d4b196cb0c7b01d743fbc6116a902379c72380000000000000000000000000000000000000000000000000000000000000000000000000000000000000000000000000000000000000000000000000000000000000000000000000000000000000000000000000000000000000000000000000000000000000000000000000000000000000000000000000001c6bf526340000000000000000000000000000000000000000000000000000000000000000000",
          "blockHash": "0x858809ad362212271d01d036a3716f982f129c1b806251aded73a498eea91ac5",
          "blockNumber": "0x6dca33",
          "transactionHash": "0xa3ef673b627181662f25f876e21953fff2cb7f2760990a8cc6912e36cc5361cf",
          "transactionIndex": "0x13",
          "logIndex": "0x14",
          "removed": false
        },
        {
          "address": "0x7eb4C59eABE1234E8A6D02FdF4d1BB595C4702Cd",
          "topics": [
            "0x6d92f7d3303f995bf21956bb0c51b388bae348eaf45c23debd2cfa3fcd9ec646",
            "0x000000000000000000000000ddb342ecc94236c29a5307d3757d0724d759453c"
          ],
          "data": "0x0000000000000000000000000000000000000000000000000001c6bf52634000",
          "blockHash": "0x858809ad362212271d01d036a3716f982f129c1b806251aded73a498eea91ac5",
          "blockNumber": "0x6dca33",
          "transactionHash": "0xa3ef673b627181662f25f876e21953fff2cb7f2760990a8cc6912e36cc5361cf",
          "transactionIndex": "0x13",
          "logIndex": "0x15",
          "removed": false
        }
      ],
      "status": "0x1",
      "logsBloom": "0x00400000000000100000000800020000000000000000000000000000000000000000000000000000000000000000000000000000000000200000000000000000000000000000000000000000000000000000000000000040001000000000000402020000100000010000000000000000400000000000000000000001400000000000000000000000000000080000000004000000000000000000000000000010000000000000000040000020000000208000000000000000000000000000000000000000000000000000000000000000000000000000000000000800000000000000001000000000000000000000000000000000000000000000000000000000",
      "type": "0x2",
      "effectiveGasPrice": "0x3fdf6ed5f"
    }
  ],
  "libraries": [],
  "pending": [],
  "returns": {},
  "timestamp": 1733131603,
  "chain": 11155111,
  "multi": false,
  "commit": "578600f"
}