{
  "transactions": [
    {
      "hash": "0x0f8c3992fa874bf8bc575f5b4ed1e012bf4690c9b42fb42851c0ed5da267fdfe",
      "transactionType": "CALL",
      "contractName": "FiatTokenProxy",
      "contractAddress": "0x1c7D4B196Cb0C7B01d743Fbc6116a902379C7238",
      "function": "approve(address,uint256)",
      "arguments": [
        "0x9DdD3bcEa99B0ea940ed5CcB64a6e689a633DFc0",
        "115792089237316195423570985008687907853269984665640564039457584007913129639935"
      ],
      "transaction": {
        "type": "0x02",
        "from": "0xddb342ecc94236c29a5307d3757d0724d759453c",
        "to": "0x1c7d4b196cb0c7b01d743fbc6116a902379c7238",
        "gas": "0xc19d",
        "value": "0x0",
        "data": "0x095ea7b30000000000000000000000009ddd3bcea99b0ea940ed5ccb64a6e689a633dfc0ffffffffffffffffffffffffffffffffffffffffffffffffffffffffffffffff",
        "nonce": "0x1f6",
        "accessList": []
      },
      "additionalContracts": [],
      "isFixedGasLimit": false
    },
    {
      "hash": "0x8aa79ed0d4de823e5d265ba28171c538f1dd1edf6a39de926684e19df2ce8b33",
      "transactionType": "CALL",
      "contractName": "FiatTokenProxy",
      "contractAddress": "0x1c7D4B196Cb0C7B01d743Fbc6116a902379C7238",
      "function": "transfer(address,uint256)",
      "arguments": [
        "0x9DdD3bcEa99B0ea940ed5CcB64a6e689a633DFc0",
        "100000"
      ],
      "transaction": {
        "type": "0x02",
        "from": "0xddb342ecc94236c29a5307d3757d0724d759453c",
        "to": "0x1c7d4b196cb0c7b01d743fbc6116a902379c7238",
        "gas": "0x1016a",
        "value": "0x0",
        "data": "0xa9059cbb0000000000000000000000009ddd3bcea99b0ea940ed5ccb64a6e689a633dfc000000000000000000000000000000000000000000000000000000000000186a0",
        "nonce": "0x1f7",
        "accessList": []
      },
      "additionalContracts": [],
      "isFixedGasLimit": false
    },
    {
      "hash": "0x8eb6a42e451c9bcc420249151a5ec3421367214c0e8775c3f69bbbce60dd28cb",
      "transactionType": "CALL",
      "contractName": "L1TWAMMBridge",
      "contractAddress": "0x9DdD3bcEa99B0ea940ed5CcB64a6e689a633DFc0",
      "function": "depositAndCreateOrder((address,address,address,uint128,uint128,uint128,uint128,uint256))",
      "arguments": [
        "(0xDdb342ecc94236c29a5307d3757d0724D759453C, 0x1c7D4B196Cb0C7B01d743Fbc6116a902379C7238, 0x1c7D4B196Cb0C7B01d743Fbc6116a902379C7238, 1000000000000000, 1730896000, 1730896064, 100000, 426354174457199316223130445775020877565288869270603374107742042000672403087)"
      ],
      "transaction": {
        "type": "0x02",
        "from": "0xddb342ecc94236c29a5307d3757d0724d759453c",
        "to": "0x9ddd3bcea99b0ea940ed5ccb64a6e689a633dfc0",
        "gas": "0x3cbf1",
        "value": "0x38d7ea4c68000",
        "data": "0x9d251505000000000000000000000000ddb342ecc94236c29a5307d3757d0724d759453c0000000000000000000000001c7d4b196cb0c7b01d743fbc6116a902379c72380000000000000000000000001c7d4b196cb0c7b01d743fbc6116a902379c723800000000000000000000000000000000000000000000000000038d7ea4c6800000000000000000000000000000000000000000000000000000000000672b608000000000000000000000000000000000000000000000000000000000672b60c000000000000000000000000000000000000000000000000000000000000186a000f14ed3433eee96c3018e0a7ae1349ac7ae2cab9c64f89686c70da1020bae8f",
        "nonce": "0x1f8",
        "accessList": []
      },
      "additionalContracts": [],
      "isFixedGasLimit": false
    }
  ],
  "receipts": [],
  "libraries": [],
  "pending": [
    "0x0f8c3992fa874bf8bc575f5b4ed1e012bf4690c9b42fb42851c0ed5da267fdfe",
    "0x8aa79ed0d4de823e5d265ba28171c538f1dd1edf6a39de926684e19df2ce8b33",
    "0x8eb6a42e451c9bcc420249151a5ec3421367214c0e8775c3f69bbbce60dd28cb"
  ],
  "returns": {},
  "timestamp": 1730896056,
  "chain": 11155111,
  "multi": false,
  "commit": "85f3f64"
}