{
  "transactions": [
    {
      "hash": "0xb26b5fb3dec2a4c44675f813ab0ec2f2ea7a9f151ad4b375f8426d859f1189c5",
      "transactionType": "CALL",
      "contractName": null,
      "contractAddress": "0xca14007eff0db1f8135f4c25b34de49ab0d42766",
      "function": "approve(address,uint256)",
      "arguments": [
        "0xd3D913C0e3C85D6899b3953169014f87F57138E2",
        "115792089237316195423570985008687907853269984665640564039457584007913129639935"
      ],
      "transaction": {
        "from": "0xddb342ecc94236c29a5307d3757d0724d759453c",
        "to": "0xca14007eff0db1f8135f4c25b34de49ab0d42766",
        "gas": "0xff08",
        "value": "0x0",
        "input": "0x095ea7b3000000000000000000000000d3d913c0e3c85d6899b3953169014f87f57138e2ffffffffffffffffffffffffffffffffffffffffffffffffffffffffffffffff",
        "nonce": "0x553",
        "chainId": "0xaa36a7"
      },
      "additionalContracts": [],
      "isFixedGasLimit": false
    },
    {
      "hash": "0xa272bfefc18da4b36280ca8bab674cb844bf928f26ec8dd4626ad5f59571cfd5",
      "transactionType": "CALL",
      "contractName": null,
      "contractAddress": "0xd3d913c0e3c85d6899b3953169014f87f57138e2",
      "function": "depositAndCreateOrder(address,(address,uint256,uint256,uint128,uint128,uint128,uint128))",
      "arguments": [
        "0xCa14007Eff0dB1f8135f4C25B34De49AB0d42766",
        "(0xDdb342ecc94236c29a5307d3757d0724D759453C, 2009894490435840142178314390393166646092438090257831307886760648929397478285, 2366254414417873771392932940469309727793822550615514268240785277201753657472, 170141183460469235273462165868118016, 1737721248, 1737721376, 50000000000000000)"
      ],
      "transaction": {
        "from": "0xddb342ecc94236c29a5307d3757d0724d759453c",
        "to": "0xd3d913c0e3c85d6899b3953169014f87f57138e2",
        "gas": "0x469d7",
        "value": "0x1c6bf52634000",
        "input": "0x9e76a944000000000000000000000000ca14007eff0db1f8135f4c25b34de49ab0d42766000000000000000000000000ddb342ecc94236c29a5307d3757d0724d759453c04718f5a0fc34cc1af16a1cdee98ffb20c31f5cd61d6ab07201858f4287c938d053b40a647cedfca6ca84f542a0fe36736031905a9639a7f19a3c1e66bfd5080000000000000000000000000000000000020c49ba5e353f8000000000000000000000000000000000000000000000000000000000000000000000000679385a0000000000000000000000000000000000000000000000000000000006793862000000000000000000000000000000000000000000000000000b1a2bc2ec50000",
        "nonce": "0x554",
        "chainId": "0xaa36a7"
      },
      "additionalContracts": [],
      "isFixedGasLimit": false
    }
  ],
  "receipts": [
    {
      "status": "0x1",
      "cumulativeGasUsed": "0x1079625",
      "logs": [
        {
          "address": "0xca14007eff0db1f8135f4c25b34de49ab0d42766",
          "topics": [
            "0x8c5be1e5ebec7d5bd14f71427d1e84f3dd0314c0f7b2291e5b200ac8c7c3b925",
            "0x000000000000000000000000ddb342ecc94236c29a5307d3757d0724d759453c",
            "0x000000000000000000000000d3d913c0e3c85d6899b3953169014f87f57138e2"
          ],
          "data": "0xffffffffffffffffffffffffffffffffffffffffffffffffffffffffffffffff",
          "blockHash": "0xc02099065f35e14d1d6ebb83466d3881e174a62a98c37b7c94a0586b0f7bd18d",
          "blockNumber": "0x735ecf",
          "transactionHash": "0xb26b5fb3dec2a4c44675f813ab0ec2f2ea7a9f151ad4b375f8426d859f1189c5",
          "transactionIndex": "0x8c",
          "logIndex": "0xe8",
          "removed": false
        }
      ],
      "logsBloom": "0x00000000000000000000000000000000000000001000000000000000000000000000000000000000000200000000000000000000000000000000000000200000000000000000000000000000000000000000000000000000000000000000000400000000000000000000000000000000400000000000000000000000400000000000000000000000000000000000000000000000000000000010000000000000020000000000000000000000000000000000000000000000000000000000000000000000000000020000000000000000000000000000000000800000000000000010000000000000000000000000000000000000001000000000000000000000",
      "type": "0x2",
      "transactionHash": "0xb26b5fb3dec2a4c44675f813ab0ec2f2ea7a9f151ad4b375f8426d859f1189c5",
      "transactionIndex": "0x8c",
      "blockHash": "0xc02099065f35e14d1d6ebb83466d3881e174a62a98c37b7c94a0586b0f7bd18d",
      "blockNumber": "0x735ecf",
      "gasUsed": "0xb8a4",
      "effectiveGasPrice": "0x9adff76d6",
      "from": "0xddb342ecc94236c29a5307d3757d0724d759453c",
      "to": "0xca14007eff0db1f8135f4c25b34de49ab0d42766",
      "contractAddress": null
    },
    {
      "status": "0x1",
      "cumulativeGasUsed": "0x10a9a32",
      "logs": [
        {
          "address": "0xca14007eff0db1f8135f4c25b34de49ab0d42766",
          "topics": [
            "0x8c5be1e5ebec7d5bd14f71427d1e84f3dd0314c0f7b2291e5b200ac8c7c3b925",
            "0x000000000000000000000000d3d913c0e3c85d6899b3953169014f87f57138e2",
            "0x000000000000000000000000d3d913c0e3c85d6899b3953169014f87f57138e2"
          ],
          "data": "0x00000000000000000000000000000000000000000000000000b1a2bc2ec50000",
          "blockHash": "0xc02099065f35e14d1d6ebb83466d3881e174a62a98c37b7c94a0586b0f7bd18d",
          "blockNumber": "0x735ecf",
          "transactionHash": "0xa272bfefc18da4b36280ca8bab674cb844bf928f26ec8dd4626ad5f59571cfd5",
          "transactionIndex": "0x8d",
          "logIndex": "0xe9",
          "removed": false
        },
        {
          "address": "0xca14007eff0db1f8135f4c25b34de49ab0d42766",
          "topics": [
            "0xddf252ad1be2c89b69c2b068fc378daa952ba7f163c4a11628f55a4df523b3ef",
            "0x000000000000000000000000ddb342ecc94236c29a5307d3757d0724d759453c",
            "0x000000000000000000000000d3d913c0e3c85d6899b3953169014f87f57138e2"
          ],
          "data": "0x00000000000000000000000000000000000000000000000000b1a2bc2ec50000",
          "blockHash": "0xc02099065f35e14d1d6ebb83466d3881e174a62a98c37b7c94a0586b0f7bd18d",
          "blockNumber": "0x735ecf",
          "transactionHash": "0xa272bfefc18da4b36280ca8bab674cb844bf928f26ec8dd4626ad5f59571cfd5",
          "transactionIndex": "0x8d",
          "logIndex": "0xea",
          "removed": false
        },
        {
          "address": "0xca14007eff0db1f8135f4c25b34de49ab0d42766",
          "topics": [
            "0x8c5be1e5ebec7d5bd14f71427d1e84f3dd0314c0f7b2291e5b200ac8c7c3b925",
            "0x000000000000000000000000d3d913c0e3c85d6899b3953169014f87f57138e2",
            "0x000000000000000000000000ce5485cfb26914c5dce00b9baf0580364dafc7a4"
          ],
          "data": "0x00000000000000000000000000000000000000000000000000b1a2bc2ec50000",
          "blockHash": "0xc02099065f35e14d1d6ebb83466d3881e174a62a98c37b7c94a0586b0f7bd18d",
          "blockNumber": "0x735ecf",
          "transactionHash": "0xa272bfefc18da4b36280ca8bab674cb844bf928f26ec8dd4626ad5f59571cfd5",
          "transactionIndex": "0x8d",
          "logIndex": "0xeb",
          "removed": false
        },
        {
          "address": "0xca14007eff0db1f8135f4c25b34de49ab0d42766",
          "topics": [
            "0x8c5be1e5ebec7d5bd14f71427d1e84f3dd0314c0f7b2291e5b200ac8c7c3b925",
            "0x000000000000000000000000d3d913c0e3c85d6899b3953169014f87f57138e2",
            "0x000000000000000000000000ce5485cfb26914c5dce00b9baf0580364dafc7a4"
          ],
          "data": "0x0000000000000000000000000000000000000000000000000000000000000000",
          "blockHash": "0xc02099065f35e14d1d6ebb83466d3881e174a62a98c37b7c94a0586b0f7bd18d",
          "blockNumber": "0x735ecf",
          "transactionHash": "0xa272bfefc18da4b36280ca8bab674cb844bf928f26ec8dd4626ad5f59571cfd5",
          "transactionIndex": "0x8d",
          "logIndex": "0xec",
          "removed": false
        },
        {
          "address": "0xca14007eff0db1f8135f4c25b34de49ab0d42766",
          "topics": [
            "0xddf252ad1be2c89b69c2b068fc378daa952ba7f163c4a11628f55a4df523b3ef",
            "0x000000000000000000000000d3d913c0e3c85d6899b3953169014f87f57138e2",
            "0x000000000000000000000000ce5485cfb26914c5dce00b9baf0580364dafc7a4"
          ],
          "data": "0x00000000000000000000000000000000000000000000000000b1a2bc2ec50000",
          "blockHash": "0xc02099065f35e14d1d6ebb83466d3881e174a62a98c37b7c94a0586b0f7bd18d",
          "blockNumber": "0x735ecf",
          "transactionHash": "0xa272bfefc18da4b36280ca8bab674cb844bf928f26ec8dd4626ad5f59571cfd5",
          "transactionIndex": "0x8d",
          "logIndex": "0xed",
          "removed": false
        },
        {
          "address": "0xe2bb56ee936fd6433dc0f6e7e3b8365c906aa057",
          "topics": [
            "0xdb80dd488acf86d17c747445b0eabb5d57c541d3bd7b6b87af987858e5066b2b",
            "0x000000000000000000000000ce5485cfb26914c5dce00b9baf0580364dafc7a4",
            "0x0594c1582459ea03f77deaf9eb7e3917d6994a03c13405ba42867f83d85f085d",
            "0x008bce41827dd5484d80312a2e43bc42a896e3fcf75bf84c2b49339168dfa00a"
          ],
          "data": "0x00000000000000000000000000000000000000000000000000000000000000600000000000000000000000000000000000000000000000000000000000002ce20000000000000000000000000000000000000000000000000001c6bf52634000000000000000000000000000000000000000000000000000000000000000000e000000000000000000000000ca14007eff0db1f8135f4c25b34de49ab0d42766000000000000000000000000d3d913c0e3c85d6899b3953169014f87f57138e205ae5d4f1d34038e4fcb69c97df6e654b9d8aed2711be385cd8f9cae1e873f8e00000000000000000000000000000000000000000000000000b1a2bc2ec50000000000000000000000000000000000000000000000000000000000000000000000000000000000000000000000000000000000000000000000000000000000080000000000000000000000000000000000000000000000000000000000000000000000000000000000000000ddb342ecc94236c29a5307d3757d0724d759453c04718f5a0fc34cc1af16a1cdee98ffb20c31f5cd61d6ab07201858f4287c938d053b40a647cedfca6ca84f542a0fe36736031905a9639a7f19a3c1e66bfd5080000000000000000000000000000000000020c49ba5e353f8000000000000000000000000000000000000000000000000000000000000000000000000679385a0000000000000000000000000000000000000000000000000000000006793862000000000000000000000000000000000000000000000000000b1a2bc2ec50000",
          "blockHash": "0xc02099065f35e14d1d6ebb83466d3881e174a62a98c37b7c94a0586b0f7bd18d",
          "blockNumber": "0x735ecf",
          "transactionHash": "0xa272bfefc18da4b36280ca8bab674cb844bf928f26ec8dd4626ad5f59571cfd5",
          "transactionIndex": "0x8d",
          "logIndex": "0xee",
          "removed": false
        },
        {
          "address": "0xce5485cfb26914c5dce00b9baf0580364dafc7a4",
          "topics": [
            "0x2203a49c69f1a46c1164f5e4a30643dd77b7c59c0ff9bc433256048365c247f1",
            "0x000000000000000000000000d3d913c0e3c85d6899b3953169014f87f57138e2",
            "0x000000000000000000000000ca14007eff0db1f8135f4c25b34de49ab0d42766",
            "0x05ae5d4f1d34038e4fcb69c97df6e654b9d8aed2711be385cd8f9cae1e873f8e"
          ],
          "data": "0x00000000000000000000000000000000000000000000000000b1a2bc2ec5000000000000000000000000000000000000000000000000000000000000000000800000000000000000000000000000000000000000000000000000000000002ce20000000000000000000000000000000000000000000000000001c6bf5263400000000000000000000000000000000000000000000000000000000000000000080000000000000000000000000000000000000000000000000000000000000000000000000000000000000000ddb342ecc94236c29a5307d3757d0724d759453c04718f5a0fc34cc1af16a1cdee98ffb20c31f5cd61d6ab07201858f4287c938d053b40a647cedfca6ca84f542a0fe36736031905a9639a7f19a3c1e66bfd5080000000000000000000000000000000000020c49ba5e353f8000000000000000000000000000000000000000000000000000000000000000000000000679385a0000000000000000000000000000000000000000000000000000000006793862000000000000000000000000000000000000000000000000000b1a2bc2ec50000",
          "blockHash": "0xc02099065f35e14d1d6ebb83466d3881e174a62a98c37b7c94a0586b0f7bd18d",
          "blockNumber": "0x735ecf",
          "transactionHash": "0xa272bfefc18da4b36280ca8bab674cb844bf928f26ec8dd4626ad5f59571cfd5",
          "transactionIndex": "0x8d",
          "logIndex": "0xef",
          "removed": false
        },
        {
          "address": "0xd3d913c0e3c85d6899b3953169014f87f57138e2",
          "topics": [
            "0xaf43445f7721522b7a3864ed3de53d7e2e658bfa1eeffa18e1e229be68ce2545",
            "0x000000000000000000000000ddb342ecc94236c29a5307d3757d0724d759453c",
            "0x05ae5d4f1d34038e4fcb69c97df6e654b9d8aed2711be385cd8f9cae1e873f8e"
          ],
          "data": "0x00000000000000000000000000000000000000000000000000b1a2bc2ec500000000000000000000000000000000000000000000000000000000000000000001",
          "blockHash": "0xc02099065f35e14d1d6ebb83466d3881e174a62a98c37b7c94a0586b0f7bd18d",
          "blockNumber": "0x735ecf",
          "transactionHash": "0xa272bfefc18da4b36280ca8bab674cb844bf928f26ec8dd4626ad5f59571cfd5",
          "transactionIndex": "0x8d",
          "logIndex": "0xf0",
          "removed": false
        }
      ],
      "logsBloom": "0x00000200000000000000000000020000000000001000000000000040000000000000000000000000000200000000000000000000000004000000020000200000040000000000000080000008080008000000000000000040001000000000000600000000100000000000000000000000400000000000000000000010400008002000000000000000000000020000000400008000000200000010000000000010020000800000000000000020000000021000000000000000000000000000000000800002000000024010000000000000000000200000000000800000000000002010000100010000000000020004000000000000001000000000000000000000",
      "type": "0x2",
      "transactionHash": "0xa272bfefc18da4b36280ca8bab674cb844bf928f26ec8dd4626ad5f59571cfd5",
      "transactionIndex": "0x8d",
      "blockHash": "0xc02099065f35e14d1d6ebb83466d3881e174a62a98c37b7c94a0586b0f7bd18d",
      "blockNumber": "0x735ecf",
      "gasUsed": "0x3040d",
      "effectiveGasPrice": "0x9adff76d6",
      "from": "0xddb342ecc94236c29a5307d3757d0724d759453c",
      "to": "0xd3d913c0e3c85d6899b3953169014f87f57138e2",
      "contractAddress": null
    }
  ],
  "libraries": [],
  "pending": [],
  "returns": {},
  "timestamp": 1737721274,
  "chain": 11155111,
  "commit": "19821e3"
}