{
  "transactions": [
    {
      "hash": "0x4df41ab872ba4a9d6236b6b981ccb094050853a9ab1a04c93161b5d24e833140",
      "transactionType": "CALL",
      "contractName": "StarkNetToken",
      "contractAddress": "0xCa14007Eff0dB1f8135f4C25B34De49AB0d42766",
      "function": "approve(address,uint256)",
      "arguments": [
        "0x21F62Fe4A17d397f84ED53c99E0C9Ae694758685",
        "115792089237316195423570985008687907853269984665640564039457584007913129639935"
      ],
      "transaction": {
        "type": "0x02",
        "from": "0xddb342ecc94236c29a5307d3757d0724d759453c",
        "to": "0xca14007eff0db1f8135f4c25b34de49ab0d42766",
        "gas": "0xff08",
        "value": "0x0",
        "data": "0x095ea7b300000000000000000000000021f62fe4a17d397f84ed53c99e0c9ae694758685ffffffffffffffffffffffffffffffffffffffffffffffffffffffffffffffff",
        "nonce": "0x308",
        "accessList": []
      },
      "additionalContracts": [],
      "isFixedGasLimit": false
    },
    {
      "hash": "0x6a5de752ce3a2cc264b2756fe3c162cc51aae6d8b3dda60cfcfdd8e98951e081",
      "transactionType": "CALL",
      "contractName": "StarkNetToken",
      "contractAddress": "0xCa14007Eff0dB1f8135f4C25B34De49AB0d42766",
      "function": "transfer(address,uint256)",
      "arguments": [
        "0x21F62Fe4A17d397f84ED53c99E0C9Ae694758685",
        "500000"
      ],
      "transaction": {
        "type": "0x02",
        "from": "0xddb342ecc94236c29a5307d3757d0724d759453c",
        "to": "0xca14007eff0db1f8135f4c25b34de49ab0d42766",
        "gas": "0x145a3",
        "value": "0x0",
        "data": "0xa9059cbb00000000000000000000000021f62fe4a17d397f84ed53c99e0c9ae694758685000000000000000000000000000000000000000000000000000000000007a120",
        "nonce": "0x309",
        "accessList": []
      },
      "additionalContracts": [],
      "isFixedGasLimit": false
    },
    {
      "hash": "0x830966e1556865af4eeacee73ac01f7ca925837c5b2e434c56c8d04c112be362",
      "transactionType": "CALL",
      "contractName": "Proxy",
      "contractAddress": "0xE2Bb56ee936fd6433DC0F6e7e3b8365C906AA057",
      "function": "sendMessageToL2(uint256,uint256,uint256[])",
      "arguments": [
        "607667314874542674894384119965969097320255432226437520988012314133551790747",
        "425952401605428413817582304755919420533935873840436977667370850915372091056",
        "[0, 1265684623727634235329190328445374361672779121980, 2009894490435840142178314390393166646092438090257831307886760648929397478285, 2366254414417873771392932940469309727793822550615514268240785277201753657472, 170141183460469235273462165868118016, 1731688640, 1731688704, 500000, 2366254414417873771392932940469309727793822550615514268240785277201753657472]"
      ],
      "transaction": {
        "type": "0x02",
        "from": "0xddb342ecc94236c29a5307d3757d0724d759453c",
        "to": "0xe2bb56ee936fd6433dc0f6e7e3b8365c906aa057",
        "gas": "0x1633a",
        "value": "0x38d7ea4c68000",
        "data": "0x3e3aa6c50157ed716b46719b791498243b6d9305c0225ea0df8e734fb0fec71484023a9b00f1149cade9d692862ad41df96b108aa2c20af34f640457e781d166c98dc6b0000000000000000000000000000000000000000000000000000000000000006000000000000000000000000000000000000000000000000000000000000000090000000000000000000000000000000000000000000000000000000000000000000000000000000000000000ddb342ecc94236c29a5307d3757d0724d759453c04718f5a0fc34cc1af16a1cdee98ffb20c31f5cd61d6ab07201858f4287c938d053b40a647cedfca6ca84f542a0fe36736031905a9639a7f19a3c1e66bfd5080000000000000000000000000000000000020c49ba5e353f8000000000000000000000000000000000000000000000000000000000000000000000000673778c00000000000000000000000000000000000000000000000000000000067377900000000000000000000000000000000000000000000000000000000000007a120053b40a647cedfca6ca84f542a0fe36736031905a9639a7f19a3c1e66bfd5080",
        "nonce": "0x30a",
        "accessList": []
      },
      "additionalContracts": [],
      "isFixedGasLimit": false
    }
  ],
  "receipts": [
    {
      "transactionHash": "0x4df41ab872ba4a9d6236b6b981ccb094050853a9ab1a04c93161b5d24e833140",
      "transactionIndex": "0x2",
      "blockHash": "0x0c5c31ac1d5a8e98c29aaf394aef1a02ea9f906c09617d293419149759a1815e",
      "blockNumber": "0x6c14ae",
      "from": "0xDdb342ecc94236c29a5307d3757d0724D759453C",
      "to": "0xCa14007Eff0dB1f8135f4C25B34De49AB0d42766",
      "cumulativeGasUsed": "0x15cb4",
      "gasUsed": "0xb8a4",
      "contractAddress": null,
      "logs": [
        {
          "address": "0xCa14007Eff0dB1f8135f4C25B34De49AB0d42766",
          "topics": [
            "0x8c5be1e5ebec7d5bd14f71427d1e84f3dd0314c0f7b2291e5b200ac8c7c3b925",
            "0x000000000000000000000000ddb342ecc94236c29a5307d3757d0724d759453c",
            "0x00000000000000000000000021f62fe4a17d397f84ed53c99e0c9ae694758685"
          ],
          "data": "0xffffffffffffffffffffffffffffffffffffffffffffffffffffffffffffffff",
          "blockHash": "0x0c5c31ac1d5a8e98c29aaf394aef1a02ea9f906c09617d293419149759a1815e",
          "blockNumber": "0x6c14ae",
          "transactionHash": "0x4df41ab872ba4a9d6236b6b981ccb094050853a9ab1a04c93161b5d24e833140",
          "transactionIndex": "0x2",
          "logIndex": "0x0",
          "removed": false
        }
      ],
      "status": "0x1",
      "logsBloom": "0x00000000000000000000000000000000000000000000000000000000000000000000000000000000000000000000000000000000000000000000000000200000000000000000000000000000000000000000000000000000000000000000000400000000000000000000000000000000400000000000000000000000400000000000000000000000000000000000000000000000000000000000000000000000020000000000000040000000000000000000000000000000000000000000000000000000200000020000000000000000000000000000000000800000000000000010000000000000000080000000000000000000001000000000000000000000",
      "type": "0x2",
      "effectiveGasPrice": "0xd12918b2"
    },
    {
      "transactionHash": "0x6a5de752ce3a2cc264b2756fe3c162cc51aae6d8b3dda60cfcfdd8e98951e081",
      "transactionIndex": "0x4",
      "blockHash": "0x0c5c31ac1d5a8e98c29aaf394aef1a02ea9f906c09617d293419149759a1815e",
      "blockNumber": "0x6c14ae",
      "from": "0xDdb342ecc94236c29a5307d3757d0724D759453C",
      "to": "0xCa14007Eff0dB1f8135f4C25B34De49AB0d42766",
      "cumulativeGasUsed": "0x38d41",
      "gasUsed": "0xdea9",
      "contractAddress": null,
      "logs": [
        {
          "address": "0xCa14007Eff0dB1f8135f4C25B34De49AB0d42766",
          "topics": [
            "0xddf252ad1be2c89b69c2b068fc378daa952ba7f163c4a11628f55a4df523b3ef",
            "0x000000000000000000000000ddb342ecc94236c29a5307d3757d0724d759453c",
            "0x00000000000000000000000021f62fe4a17d397f84ed53c99e0c9ae694758685"
          ],
          "data": "0x000000000000000000000000000000000000000000000000000000000007a120",
          "blockHash": "0x0c5c31ac1d5a8e98c29aaf394aef1a02ea9f906c09617d293419149759a1815e",
          "blockNumber": "0x6c14ae",
          "transactionHash": "0x6a5de752ce3a2cc264b2756fe3c162cc51aae6d8b3dda60cfcfdd8e98951e081",
          "transactionIndex": "0x4",
          "logIndex": "0x3",
          "removed": false
        }
      ],
      "status": "0x1",
      "logsBloom": "0x00000000000000000000000000000000000000000000000000000000000000000000000000000000000000000000000000000000000000000000000000000000000000000000000000000008000000000000000000000000000000000000000400000000000000000000000000000000400000000000000000000010400000000000000000000000000000000000000000000000000000000000000000000000000000000000000040000000000000000000000000000000000000000000000000000002200000020000000000000000000000000000000000800000000000000000000000000000000080000000000000000000001000000000000000000000",
      "type": "0x2",
      "effectiveGasPrice": "0xd12918b2"
    },
    {
      "transactionHash": "0x830966e1556865af4eeacee73ac01f7ca925837c5b2e434c56c8d04c112be362",
      "transactionIndex": "0x5",
      "blockHash": "0x0c5c31ac1d5a8e98c29aaf394aef1a02ea9f906c09617d293419149759a1815e",
      "blockNumber": "0x6c14ae",
      "from": "0xDdb342ecc94236c29a5307d3757d0724D759453C",
      "to": "0xE2Bb56ee936fd6433DC0F6e7e3b8365C906AA057",
      "cumulativeGasUsed": "0x48e70",
      "gasUsed": "0x1012f",
      "contractAddress": null,
      "logs": [
        {
          "address": "0xE2Bb56ee936fd6433DC0F6e7e3b8365C906AA057",
          "topics": [
            "0xdb80dd488acf86d17c747445b0eabb5d57c541d3bd7b6b87af987858e5066b2b",
            "0x000000000000000000000000ddb342ecc94236c29a5307d3757d0724d759453c",
            "0x0157ed716b46719b791498243b6d9305c0225ea0df8e734fb0fec71484023a9b",
            "0x00f1149cade9d692862ad41df96b108aa2c20af34f640457e781d166c98dc6b0"
          ],
          "data": "0x0000000000000000000000000000000000000000000000000000000000000060000000000000000000000000000000000000000000000000000000000000287f00000000000000000000000000000000000000000000000000038d7ea4c6800000000000000000000000000000000000000000000000000000000000000000090000000000000000000000000000000000000000000000000000000000000000000000000000000000000000ddb342ecc94236c29a5307d3757d0724d759453c04718f5a0fc34cc1af16a1cdee98ffb20c31f5cd61d6ab07201858f4287c938d053b40a647cedfca6ca84f542a0fe36736031905a9639a7f19a3c1e66bfd5080000000000000000000000000000000000020c49ba5e353f8000000000000000000000000000000000000000000000000000000000000000000000000673778c00000000000000000000000000000000000000000000000000000000067377900000000000000000000000000000000000000000000000000000000000007a120053b40a647cedfca6ca84f542a0fe36736031905a9639a7f19a3c1e66bfd5080",
          "blockHash": "0x0c5c31ac1d5a8e98c29aaf394aef1a02ea9f906c09617d293419149759a1815e",
          "blockNumber": "0x6c14ae",
          "transactionHash": "0x830966e1556865af4eeacee73ac01f7ca925837c5b2e434c56c8d04c112be362",
          "transactionIndex": "0x5",
          "logIndex": "0x4",
          "removed": false
        }
      ],
      "status": "0x1",
      "logsBloom": "0x00400000000000000000000000020000000000000200000000000000000000000000000000000000000000000000000010000000000000000000000000000000000000000000000000000000000000000000000000000040001000000000000400000000100000010000000000000000400000000000000080000000400000000000000000000000000000000000000004000000000000000000000000000010000000000000000000000020000000000000000000000000000000000000000000000000000000000000000000000000000000000000000000000000000000000000000000000000000000000000000000000000000000000000000000000000",
      "type": "0x2",
      "effectiveGasPrice": "0xd12918b2"
    }
  ],
  "libraries": [],
  "pending": [],
  "returns": {},
  "timestamp": 1731688681,
  "chain": 11155111,
  "multi": false,
  "commit": "945f7f2"
}