{
  "transactions": [
    {
      "hash": "0xe675d4a3fefac5ccbf50f80ddffc91551a1ba943852801e85eaaffd33a98ced8",
      "transactionType": "CALL",
      "contractName": "StarkNetToken",
      "contractAddress": "0xCa14007Eff0dB1f8135f4C25B34De49AB0d42766",
      "function": "approve(address,uint256)",
      "arguments": [
        "0xb4F545EfEEa78f9C97C681cD70c6a6dd72fbEFee",
        "115792089237316195423570985008687907853269984665640564039457584007913129639935"
      ],
      "transaction": {
        "type": "0x02",
        "from": "0xddb342ecc94236c29a5307d3757d0724d759453c",
        "to": "0xca14007eff0db1f8135f4c25b34de49ab0d42766",
        "gas": "0xff08",
        "value": "0x0",
        "data": "0x095ea7b3000000000000000000000000b4f545efeea78f9c97c681cd70c6a6dd72fbefeeffffffffffffffffffffffffffffffffffffffffffffffffffffffffffffffff",
        "nonce": "0x267",
        "accessList": []
      },
      "additionalContracts": [],
      "isFixedGasLimit": false
    },
    {
      "hash": "0x1d405b929665b56829d5a8bd37ac8d8d45246b7f20f1d1d8a9c16270be616f4b",
      "transactionType": "CALL",
      "contractName": "L1TWAMMBridge",
      "contractAddress": "0xb4F545EfEEa78f9C97C681cD70c6a6dd72fbEFee",
      "function": "depositAndCreateOrder((address,uint256,uint256,uint128,uint128,uint128,uint128,uint256))",
      "arguments": [
        "(0xDdb342ecc94236c29a5307d3757d0724D759453C, 2009894490435840142178314390393166646092438090257831307886760648929397478285, 2366254414417873771392932940469309727793822550615514268240785277201753657472, 0, 1731122752, 1731122816, 500000, 1754425528998404332833579752982178953523781828291666396770948545224656187989)"
      ],
      "transaction": {
        "type": "0x02",
        "from": "0xddb342ecc94236c29a5307d3757d0724d759453c",
        "to": "0xb4f545efeea78f9c97c681cd70c6a6dd72fbefee",
        "gas": "0x446c9",
        "value": "0x5af3107a4000",
        "data": "0x5ce510fa000000000000000000000000ddb342ecc94236c29a5307d3757d0724d759453c04718f5a0fc34cc1af16a1cdee98ffb20c31f5cd61d6ab07201858f4287c938d053b40a647cedfca6ca84f542a0fe36736031905a9639a7f19a3c1e66bfd5080000000000000000000000000000000000000000000000000000000000000000000000000000000000000000000000000000000000000000000000000672ed64000000000000000000000000000000000000000000000000000000000672ed680000000000000000000000000000000000000000000000000000000000007a12003e0f83ba17eac9112e452a72493e4abc71f4e749fa376278e16a6169d4e7255",
        "nonce": "0x268",
        "accessList": []
      },
      "additionalContracts": [],
      "isFixedGasLimit": false
    }
  ],
  "receipts": [],
  "libraries": [],
  "pending": [
    "0xe675d4a3fefac5ccbf50f80ddffc91551a1ba943852801e85eaaffd33a98ced8",
    "0x1d405b929665b56829d5a8bd37ac8d8d45246b7f20f1d1d8a9c16270be616f4b"
  ],
  "returns": {},
  "timestamp": 1731122804,
  "chain": 11155111,
  "multi": false,
  "commit": "75c82f5"
}