{
  "transactions": [
    {
      "hash": "0xd9a5edea363a0c3faa2ab5f712293078ae9315a422a40881bec46170da1fb5d3",
      "transactionType": "CALL",
      "contractName": null,
      "contractAddress": "0xca14007eff0db1f8135f4c25b34de49ab0d42766",
      "function": "approve(address,uint256)",
      "arguments": [
        "0xA5fF09d43E9f0572BC072b169d4a975768fe05BB",
        "115792089237316195423570985008687907853269984665640564039457584007913129639935"
      ],
      "transaction": {
        "from": "0xddb342ecc94236c29a5307d3757d0724d759453c",
        "to": "0xca14007eff0db1f8135f4c25b34de49ab0d42766",
        "gas": "0x93a9",
        "value": "0x0",
        "input": "0x095ea7b3000000000000000000000000a5ff09d43e9f0572bc072b169d4a975768fe05bbffffffffffffffffffffffffffffffffffffffffffffffffffffffffffffffff",
        "nonce": "0x458",
        "chainId": "0xaa36a7"
      },
      "additionalContracts": [],
      "isFixedGasLimit": false
    },
    {
      "hash": "0x6841e2f3f55583c6a8ed7f43fe8588fe21a3a255343f0d06c2ae4e65a5d56535",
      "transactionType": "CALL",
      "contractName": null,
      "contractAddress": "0xa5ff09d43e9f0572bc072b169d4a975768fe05bb",
      "function": "initiateWithdrawal(uint256,address)",
      "arguments": [
        "700000000000000",
        "0x1c7D4B196Cb0C7B01d743Fbc6116a902379C7238"
      ],
      "transaction": {
        "from": "0xddb342ecc94236c29a5307d3757d0724d759453c",
        "to": "0xa5ff09d43e9f0572bc072b169d4a975768fe05bb",
        "gas": "0x1b9bb",
        "value": "0x1c6bf52634000",
        "input": "0x5443812700000000000000000000000000000000000000000000000000027ca57357c0000000000000000000000000001c7d4b196cb0c7b01d743fbc6116a902379c7238",
        "nonce": "0x459",
        "chainId": "0xaa36a7"
      },
      "additionalContracts": [],
      "isFixedGasLimit": false
    }
  ],
  "receipts": [
    {
      "status": "0x1",
      "cumulativeGasUsed": "0xf0c5ac",
      "logs": [
        {
          "address": "0xca14007eff0db1f8135f4c25b34de49ab0d42766",
          "topics": [
            "0x8c5be1e5ebec7d5bd14f71427d1e84f3dd0314c0f7b2291e5b200ac8c7c3b925",
            "0x000000000000000000000000ddb342ecc94236c29a5307d3757d0724d759453c",
            "0x000000000000000000000000a5ff09d43e9f0572bc072b169d4a975768fe05bb"
          ],
          "data": "0xffffffffffffffffffffffffffffffffffffffffffffffffffffffffffffffff",
          "blockHash": "0xeb2c7561463ecbc48e9154aadde667639cdf0c243da273d7d179dc0ee27f3c5b",
          "blockNumber": "0x716aee",
          "transactionHash": "0xd9a5edea363a0c3faa2ab5f712293078ae9315a422a40881bec46170da1fb5d3",
          "transactionIndex": "0x47",
          "logIndex": "0x84",
          "removed": false
        }
      ],
      "logsBloom": "0x00000000000000000000000000000000000000000000000000000000000000000000000000000000000000000000000000000000000000000000000000200000000000000000000000000000000000000000000000000000000000000000000400000000000000000000000000000000400000000000000000000000400000000000000000000000000000000010000000000000000000000000000000000000020000000000000000000000000000000000000000000000000000000000000000000000000000020000000000000000000000000000000000800000000000000090000000000000000000000000000000000000001000000000000000001000",
      "type": "0x2",
      "transactionHash": "0xd9a5edea363a0c3faa2ab5f712293078ae9315a422a40881bec46170da1fb5d3",
      "transactionIndex": "0x47",
      "blockHash": "0xeb2c7561463ecbc48e9154aadde667639cdf0c243da273d7d179dc0ee27f3c5b",
      "blockNumber": "0x716aee",
      "gasUsed": "0x6ae8",
      "effectiveGasPrice": "0x6aeccbf2e",
      "from": "0xddb342ecc94236c29a5307d3757d0724d759453c",
      "to": "0xca14007eff0db1f8135f4c25b34de49ab0d42766",
      "contractAddress": null
    },
    {
      "status": "0x1",
      "cumulativeGasUsed": "0xf1f3b6",
      "logs": [
        {
          "address": "0xe2bb56ee936fd6433dc0f6e7e3b8365c906aa057",
          "topics": [
            "0xdb80dd488acf86d17c747445b0eabb5d57c541d3bd7b6b87af987858e5066b2b",
            "0x000000000000000000000000a5ff09d43e9f0572bc072b169d4a975768fe05bb",
            "0x01faf6acdf200ef465ed828e948e626c1b063707810b4702e3197b8ac9eb132a",
            "0x00f1149cade9d692862ad41df96b108aa2c20af34f640457e781d166c98dc6b0"
          ],
          "data": "0x00000000000000000000000000000000000000000000000000000000000000600000000000000000000000000000000000000000000000000000000000002b330000000000000000000000000000000000000000000000000001c6bf5263400000000000000000000000000000000000000000000000000000000000000000080000000000000000000000000000000000000000000000000000000000000002000000000000000000000000ddb342ecc94236c29a5307d3757d0724d759453c00000000000000000000000000000000000000000000000000000000000000000000000000000000000000001c7d4b196cb0c7b01d743fbc6116a902379c723800000000000000000000000000000000000000000000000000000000000000000000000000000000000000000000000000000000000000000000000000000000000000000000000000000000000000000000000000000000000000000000000000000000000000000000000000000000000000000000000000027ca57357c000",
          "blockHash": "0xeb2c7561463ecbc48e9154aadde667639cdf0c243da273d7d179dc0ee27f3c5b",
          "blockNumber": "0x716aee",
          "transactionHash": "0x6841e2f3f55583c6a8ed7f43fe8588fe21a3a255343f0d06c2ae4e65a5d56535",
          "transactionIndex": "0x48",
          "logIndex": "0x85",
          "removed": false
        },
        {
          "address": "0xa5ff09d43e9f0572bc072b169d4a975768fe05bb",
          "topics": [
            "0x6d92f7d3303f995bf21956bb0c51b388bae348eaf45c23debd2cfa3fcd9ec646",
            "0x000000000000000000000000ddb342ecc94236c29a5307d3757d0724d759453c"
          ],
          "data": "0x00000000000000000000000000000000000000000000000000027ca57357c000",
          "blockHash": "0xeb2c7561463ecbc48e9154aadde667639cdf0c243da273d7d179dc0ee27f3c5b",
          "blockNumber": "0x716aee",
          "transactionHash": "0x6841e2f3f55583c6a8ed7f43fe8588fe21a3a255343f0d06c2ae4e65a5d56535",
          "transactionIndex": "0x48",
          "logIndex": "0x86",
          "removed": false
        }
      ],
      "logsBloom": "0x00400000000000000000000000020000020000000000000000000400000000000000000000000000000000000000000000000000000000000000000000000000000000000000000000000000000000000000000000000040001000000000000400000000100000010000000000000000400000000000000000000000400004000000000000000000000000000010000004000000000000000000000000000010000000000000000040000020000000000000000000000001000000000000000000000000000001000000000000000000000000000000000040000800000000000080001000000000000000000000000000000000000000000000000000001000",
      "type": "0x2",
      "transactionHash": "0x6841e2f3f55583c6a8ed7f43fe8588fe21a3a255343f0d06c2ae4e65a5d56535",
      "transactionIndex": "0x48",
      "blockHash": "0xeb2c7561463ecbc48e9154aadde667639cdf0c243da273d7d179dc0ee27f3c5b",
      "blockNumber": "0x716aee",
      "gasUsed": "0x12e0a",
      "effectiveGasPrice": "0x6aeccbf2e",
      "from": "0xddb342ecc94236c29a5307d3757d0724d759453c",
      "to": "0xa5ff09d43e9f0572bc072b169d4a975768fe05bb",
      "contractAddress": null
    }
  ],
  "libraries": [],
  "pending": [],
  "returns": {},
  "timestamp": 1736164526,
  "chain": 11155111,
  "commit": "3ea534e"
}