{
  "transactions": [
    {
      "hash": "0x6f13516e1bf3e96e92c12e327a40b456bc4aa55490cc22cf285a8221311df24b",
      "transactionType": "CALL",
      "contractName": null,
      "contractAddress": "0xca14007eff0db1f8135f4c25b34de49ab0d42766",
      "function": "approve(address,uint256)",
      "arguments": [
        "0xA8F524DfE0F3943FEF0430a453B6a4380218B656",
        "115792089237316195423570985008687907853269984665640564039457584007913129639935"
      ],
      "transaction": {
        "from": "0x1b382a7b4496f14e0aaa2da1e1626da400426a03",
        "to": "0xca14007eff0db1f8135f4c25b34de49ab0d42766",
        "gas": "0xff08",
        "value": "0x0",
        "input": "0x095ea7b3000000000000000000000000a8f524dfe0f3943fef0430a453b6a4380218b656ffffffffffffffffffffffffffffffffffffffffffffffffffffffffffffffff",
        "nonce": "0xc7",
        "chainId": "0xaa36a7"
      },
      "additionalContracts": [],
      "isFixedGasLimit": false
    },
    {
      "hash": "0x991d5f7859feaa6f9d9ec97b2f4c62c2ab96709f79e038c9800c4542e191aa1a",
      "transactionType": "CALL",
      "contractName": null,
      "contractAddress": "0xca14007eff0db1f8135f4c25b34de49ab0d42766",
      "function": "transfer(address,uint256)",
      "arguments": [
        "0xA8F524DfE0F3943FEF0430a453B6a4380218B656",
        "10000000000000000"
      ],
      "transaction": {
        "from": "0x1b382a7b4496f14e0aaa2da1e1626da400426a03",
        "to": "0xca14007eff0db1f8135f4c25b34de49ab0d42766",
        "gas": "0x145c6",
        "value": "0x0",
        "input": "0xa9059cbb000000000000000000000000a8f524dfe0f3943fef0430a453b6a4380218b656000000000000000000000000000000000000000000000000002386f26fc10000",
        "nonce": "0xc8",
        "chainId": "0xaa36a7"
      },
      "additionalContracts": [],
      "isFixedGasLimit": false
    },
    {
      "hash": "0x1f17c754f01297352737ae504beedd15a75e8ad6c8eda7750394384dd350871a",
      "transactionType": "CALL",
      "contractName": null,
      "contractAddress": "0xa8f524dfe0f3943fef0430a453b6a4380218b656",
      "function": "deposit(uint256,uint256)",
      "arguments": [
        "10000000000000000",
        "1647970598847617027890947728899760175249314077903923387400359173436953475181"
      ],
      "transaction": {
        "from": "0x1b382a7b4496f14e0aaa2da1e1626da400426a03",
        "to": "0xa8f524dfe0f3943fef0430a453b6a4380218b656",
        "gas": "0x2d759",
        "value": "0x2386f26fc10000",
        "input": "0xe2bbb158000000000000000000000000000000000000000000000000002386f26fc1000003a4b7e2d060bd8eb48e2db10f16c1303b131c266cc928902c3a3a8ead7e386d",
        "nonce": "0xc9",
        "chainId": "0xaa36a7"
      },
      "additionalContracts": [],
      "isFixedGasLimit": false
    }
  ],
  "receipts": [
    {
      "status": "0x1",
      "cumulativeGasUsed": "0x504496",
      "logs": [
        {
          "address": "0xca14007eff0db1f8135f4c25b34de49ab0d42766",
          "topics": [
            "0x8c5be1e5ebec7d5bd14f71427d1e84f3dd0314c0f7b2291e5b200ac8c7c3b925",
            "0x0000000000000000000000001b382a7b4496f14e0aaa2da1e1626da400426a03",
            "0x000000000000000000000000a8f524dfe0f3943fef0430a453b6a4380218b656"
          ],
          "data": "0xffffffffffffffffffffffffffffffffffffffffffffffffffffffffffffffff",
          "blockHash": "0xf065e550e4bb999a366bad819ffda051e4890c6611fc5f4edb5fd0d906e8d9ae",
          "blockNumber": "0x6b22f9",
          "transactionHash": "0x6f13516e1bf3e96e92c12e327a40b456bc4aa55490cc22cf285a8221311df24b",
          "transactionIndex": "0x30",
          "logIndex": "0x28",
          "removed": false
        }
      ],
      "logsBloom": "0x00000000000100000000000000000000000000000000000000000000000000000000000000000000000000000000000000000000000000000200000000200000000000000000000000000000000000000000000000000000000000000000000000000000000000000000000000000000000000000010000020000000000000040000000000000000000000000000000000000000000000000000000000000000020000000000000000000000000000000000000000000000000000000000000000000000000000020000000000000000000000000000000000800000000000000010000000000000000000000000000400000000001000000000000000000000",
      "type": "0x2",
      "transactionHash": "0x6f13516e1bf3e96e92c12e327a40b456bc4aa55490cc22cf285a8221311df24b",
      "transactionIndex": "0x30",
      "blockHash": "0xf065e550e4bb999a366bad819ffda051e4890c6611fc5f4edb5fd0d906e8d9ae",
      "blockNumber": "0x6b22f9",
      "gasUsed": "0xb8a4",
      "effectiveGasPrice": "0xbb8931a5",
      "blobGasUsed": "0x0",
      "from": "0x1b382a7b4496f14e0aaa2da1e1626da400426a03",
      "to": "0xca14007eff0db1f8135f4c25b34de49ab0d42766",
      "contractAddress": null
    },
    {
      "status": "0x1",
      "cumulativeGasUsed": "0x512357",
      "logs": [
        {
          "address": "0xca14007eff0db1f8135f4c25b34de49ab0d42766",
          "topics": [
            "0xddf252ad1be2c89b69c2b068fc378daa952ba7f163c4a11628f55a4df523b3ef",
            "0x0000000000000000000000001b382a7b4496f14e0aaa2da1e1626da400426a03",
            "0x000000000000000000000000a8f524dfe0f3943fef0430a453b6a4380218b656"
          ],
          "data": "0x000000000000000000000000000000000000000000000000002386f26fc10000",
          "blockHash": "0xf065e550e4bb999a366bad819ffda051e4890c6611fc5f4edb5fd0d906e8d9ae",
          "blockNumber": "0x6b22f9",
          "transactionHash": "0x991d5f7859feaa6f9d9ec97b2f4c62c2ab96709f79e038c9800c4542e191aa1a",
          "transactionIndex": "0x31",
          "logIndex": "0x29",
          "removed": false
        }
      ],
      "logsBloom": "0x00000000000100000000000000000000000000000000000000000000000000000000000000000000000000000000000000000000000000000200000000000000000000000000000000000008000000000000000000000000000000000000000000000000000000000000000000000000000000000010000020000010000000040000000000000000000000000000000000000000000000000000000000000000000000000000000000000000000000000000000000000000000000000000000000000002000000020000000000000000000000000000000000800000000000000000000000000000000000000000000400000000001000000000000000000000",
      "type": "0x2",
      "transactionHash": "0x991d5f7859feaa6f9d9ec97b2f4c62c2ab96709f79e038c9800c4542e191aa1a",
      "transactionIndex": "0x31",
      "blockHash": "0xf065e550e4bb999a366bad819ffda051e4890c6611fc5f4edb5fd0d906e8d9ae",
      "blockNumber": "0x6b22f9",
      "gasUsed": "0xdec1",
      "effectiveGasPrice": "0xbb8931a5",
      "blobGasUsed": "0x0",
      "from": "0x1b382a7b4496f14e0aaa2da1e1626da400426a03",
      "to": "0xca14007eff0db1f8135f4c25b34de49ab0d42766",
      "contractAddress": null
    },
    {
      "status": "0x1",
      "cumulativeGasUsed": "0x5428ec",
      "logs": [
        {
          "address": "0xca14007eff0db1f8135f4c25b34de49ab0d42766",
          "topics": [
            "0x8c5be1e5ebec7d5bd14f71427d1e84f3dd0314c0f7b2291e5b200ac8c7c3b925",
            "0x000000000000000000000000a8f524dfe0f3943fef0430a453b6a4380218b656",
            "0x000000000000000000000000ce5485cfb26914c5dce00b9baf0580364dafc7a4"
          ],
          "data": "0x000000000000000000000000000000000000000000000000002386f26fc10000",
          "blockHash": "0xf065e550e4bb999a366bad819ffda051e4890c6611fc5f4edb5fd0d906e8d9ae",
          "blockNumber": "0x6b22f9",
          "transactionHash": "0x1f17c754f01297352737ae504beedd15a75e8ad6c8eda7750394384dd350871a",
          "transactionIndex": "0x33",
          "logIndex": "0x2b",
          "removed": false
        },
        {
          "address": "0xca14007eff0db1f8135f4c25b34de49ab0d42766",
          "topics": [
            "0x8c5be1e5ebec7d5bd14f71427d1e84f3dd0314c0f7b2291e5b200ac8c7c3b925",
            "0x000000000000000000000000a8f524dfe0f3943fef0430a453b6a4380218b656",
            "0x000000000000000000000000ce5485cfb26914c5dce00b9baf0580364dafc7a4"
          ],
          "data": "0x0000000000000000000000000000000000000000000000000000000000000000",
          "blockHash": "0xf065e550e4bb999a366bad819ffda051e4890c6611fc5f4edb5fd0d906e8d9ae",
          "blockNumber": "0x6b22f9",
          "transactionHash": "0x1f17c754f01297352737ae504beedd15a75e8ad6c8eda7750394384dd350871a",
          "transactionIndex": "0x33",
          "logIndex": "0x2c",
          "removed": false
        },
        {
          "address": "0xca14007eff0db1f8135f4c25b34de49ab0d42766",
          "topics": [
            "0xddf252ad1be2c89b69c2b068fc378daa952ba7f163c4a11628f55a4df523b3ef",
            "0x000000000000000000000000a8f524dfe0f3943fef0430a453b6a4380218b656",
            "0x000000000000000000000000ce5485cfb26914c5dce00b9baf0580364dafc7a4"
          ],
          "data": "0x000000000000000000000000000000000000000000000000002386f26fc10000",
          "blockHash": "0xf065e550e4bb999a366bad819ffda051e4890c6611fc5f4edb5fd0d906e8d9ae",
          "blockNumber": "0x6b22f9",
          "transactionHash": "0x1f17c754f01297352737ae504beedd15a75e8ad6c8eda7750394384dd350871a",
          "transactionIndex": "0x33",
          "logIndex": "0x2d",
          "removed": false
        },
        {
          "address": "0xe2bb56ee936fd6433dc0f6e7e3b8365c906aa057",
          "topics": [
            "0xdb80dd488acf86d17c747445b0eabb5d57c541d3bd7b6b87af987858e5066b2b",
            "0x000000000000000000000000ce5485cfb26914c5dce00b9baf0580364dafc7a4",
            "0x0594c1582459ea03f77deaf9eb7e3917d6994a03c13405ba42867f83d85f085d",
            "0x01b64b1b3b690b43b9b514fb81377518f4039cd3e4f4914d8a6bdf01d679fb19"
          ],
          "data": "0x00000000000000000000000000000000000000000000000000000000000000600000000000000000000000000000000000000000000000000000000000002750000000000000000000000000000000000000000000000000002386f26fc100000000000000000000000000000000000000000000000000000000000000000005000000000000000000000000ca14007eff0db1f8135f4c25b34de49ab0d42766000000000000000000000000a8f524dfe0f3943fef0430a453b6a4380218b65602375bffe9c0aa2f7752ba2ea6631eb2168c7334c7d56a630b203a161c0aec49000000000000000000000000000000000000000000000000002386f26fc100000000000000000000000000000000000000000000000000000000000000000000",
          "blockHash": "0xf065e550e4bb999a366bad819ffda051e4890c6611fc5f4edb5fd0d906e8d9ae",
          "blockNumber": "0x6b22f9",
          "transactionHash": "0x1f17c754f01297352737ae504beedd15a75e8ad6c8eda7750394384dd350871a",
          "transactionIndex": "0x33",
          "logIndex": "0x2e",
          "removed": false
        },
        {
          "address": "0xce5485cfb26914c5dce00b9baf0580364dafc7a4",
          "topics": [
            "0x5f971bd00bf3ffbca8a6d72cdd4fd92cfd4f62636161921d1e5a64f0b64ccb6d",
            "0x000000000000000000000000a8f524dfe0f3943fef0430a453b6a4380218b656",
            "0x000000000000000000000000ca14007eff0db1f8135f4c25b34de49ab0d42766",
            "0x02375bffe9c0aa2f7752ba2ea6631eb2168c7334c7d56a630b203a161c0aec49"
          ],
          "data": "0x000000000000000000000000000000000000000000000000002386f26fc100000000000000000000000000000000000000000000000000000000000000002750000000000000000000000000000000000000000000000000002386f26fc10000",
          "blockHash": "0xf065e550e4bb999a366bad819ffda051e4890c6611fc5f4edb5fd0d906e8d9ae",
          "blockNumber": "0x6b22f9",
          "transactionHash": "0x1f17c754f01297352737ae504beedd15a75e8ad6c8eda7750394384dd350871a",
          "transactionIndex": "0x33",
          "logIndex": "0x2f",
          "removed": false
        }
      ],
      "logsBloom": "0x0000000000010000020000000002000000000000000000000000000000000040000000000000000400000000000000000000000000000400020000000020000000000000000000000000000808000000000000000000004000100000000000000000000010000000000000000000000000000000100000000000001000000800200000000000000000000000040000000000000000020000000002000000001002000000000000000000002000000000100000000000002000000000000000000000000200000002401000000000000000000020000000000080000000000000001000000001000000000002008c000400000000001000000000000000000000",
      "type": "0x2",
      "transactionHash": "0x1f17c754f01297352737ae504beedd15a75e8ad6c8eda7750394384dd350871a",
      "transactionIndex": "0x33",
      "blockHash": "0xf065e550e4bb999a366bad819ffda051e4890c6611fc5f4edb5fd0d906e8d9ae",
      "blockNumber": "0x6b22f9",
      "gasUsed": "0x20e97",
      "effectiveGasPrice": "0xbb8931a5",
      "blobGasUsed": "0x0",
      "from": "0x1b382a7b4496f14e0aaa2da1e1626da400426a03",
      "to": "0xa8f524dfe0f3943fef0430a453b6a4380218b656",
      "contractAddress": null
    }
  ],
  "libraries": [],
  "pending": [],
  "returns": {},
  "timestamp": 1730867618,
  "chain": 11155111,
  "commit": "e29a78b"
}