{
  "transactions": [
    {
      "hash": "0xc6afa908c7119959597decba2f14671d3ca7dcec54de78b900d1ae42c0a808b0",
      "transactionType": "CALL",
      "contractName": "StarkNetToken",
      "contractAddress": "0xCa14007Eff0dB1f8135f4C25B34De49AB0d42766",
      "function": "approve(address,uint256)",
      "arguments": [
        "0xcE5485Cfb26914C5dcE00B9BAF0580364daFC7a4",
        "115792089237316195423570985008687907853269984665640564039457584007913129639935"
      ],
      "transaction": {
        "type": "0x02",
        "from": "0xddb342ecc94236c29a5307d3757d0724d759453c",
        "to": "0xca14007eff0db1f8135f4c25b34de49ab0d42766",
        "gas": "0x93a9",
        "value": "0x0",
        "data": "0x095ea7b3000000000000000000000000ce5485cfb26914c5dce00b9baf0580364dafc7a4ffffffffffffffffffffffffffffffffffffffffffffffffffffffffffffffff",
        "nonce": "0x334",
        "accessList": []
      },
      "additionalContracts": [],
      "isFixedGasLimit": false
    },
    {
      "hash": "0x2ddb0ca2634e9bf53a5c811e00960ac9a1f612428bc6c16526600fe4d1c6c96d",
      "transactionType": "CALL",
      "contractName": "Proxy",
      "contractAddress": "0xcE5485Cfb26914C5dcE00B9BAF0580364daFC7a4",
      "function": "deposit(uint256,uint256)",
      "arguments": [
        "50000000000000000",
        "858507305425294870476490032296454528727643637577361427320734804062863934507"
      ],
      "transaction": {
        "type": "0x02",
        "from": "0xddb342ecc94236c29a5307d3757d0724d759453c",
        "to": "0xce5485cfb26914c5dce00b9baf0580364dafc7a4",
        "gas": "0x29b00",
        "value": "0x38d7ea4c68000",
        "data": "0xe2bbb15800000000000000000000000000000000000000000000000000b1a2bc2ec5000001e5e5ddc6e545240a1f47645ccc873562d72586bc7e8861e70dead0ad64c42b",
        "nonce": "0x335",
        "accessList": []
      },
      "additionalContracts": [],
      "isFixedGasLimit": false
    },
    {
      "hash": "0xac4502429d2da804ab846a9629f672ce10f7e079303b3e07c3ec7567427ddb2e",
      "transactionType": "CALL",
      "contractName": "Proxy",
      "contractAddress": "0xE2Bb56ee936fd6433DC0F6e7e3b8365C906AA057",
      "function": "sendMessageToL2(uint256,uint256,uint256[])",
      "arguments": [
        "858507305425294870476490032296454528727643637577361427320734804062863934507",
        "425952401605428413817582304755919420533935873840436977667370850915372091056",
        "[0, 1265684623727634235329190328445374361672779121980, 2009894490435840142178314390393166646092438090257831307886760648929397478285, 2366254414417873771392932940469309727793822550615514268240785277201753657472, 170141183460469235273462165868118016, 1731760128, 1731760192, 50000000000000000, 2524392021852001135582825949054576525094493216367559068627275826195272239197]"
      ],
      "transaction": {
        "type": "0x02",
        "from": "0xddb342ecc94236c29a5307d3757d0724d759453c",
        "to": "0xe2bb56ee936fd6433dc0f6e7e3b8365c906aa057",
        "gas": "0x1635c",
        "value": "0x38d7ea4c68000",
        "data": "0x3e3aa6c501e5e5ddc6e545240a1f47645ccc873562d72586bc7e8861e70dead0ad64c42b00f1149cade9d692862ad41df96b108aa2c20af34f640457e781d166c98dc6b0000000000000000000000000000000000000000000000000000000000000006000000000000000000000000000000000000000000000000000000000000000090000000000000000000000000000000000000000000000000000000000000000000000000000000000000000ddb342ecc94236c29a5307d3757d0724d759453c04718f5a0fc34cc1af16a1cdee98ffb20c31f5cd61d6ab07201858f4287c938d053b40a647cedfca6ca84f542a0fe36736031905a9639a7f19a3c1e66bfd5080000000000000000000000000000000000020c49ba5e353f800000000000000000000000000000000000000000000000000000000000000000000000067389000000000000000000000000000000000000000000000000000000000006738904000000000000000000000000000000000000000000000000000b1a2bc2ec500000594c1582459ea03f77deaf9eb7e3917d6994a03c13405ba42867f83d85f085d",
        "nonce": "0x336",
        "accessList": []
      },
      "additionalContracts": [],
      "isFixedGasLimit": false
    }
  ],
  "receipts": [
    {
      "transactionHash": "0xc6afa908c7119959597decba2f14671d3ca7dcec54de78b900d1ae42c0a808b0",
      "transactionIndex": "0x19",
      "blockHash": "0x0e1307d0f72bc2ca7c5be045fc5d6baa2131579034836b4bd94fde8b5c5da94c",
      "blockNumber": "0x6c2a7c",
      "from": "0xDdb342ecc94236c29a5307d3757d0724D759453C",
      "to": "0xCa14007Eff0dB1f8135f4C25B34De49AB0d42766",
      "cumulativeGasUsed": "0x2068bc",
      "gasUsed": "0x6ae8",
      "contractAddress": null,
      "logs": [
        {
          "address": "0xCa14007Eff0dB1f8135f4C25B34De49AB0d42766",
          "topics": [
            "0x8c5be1e5ebec7d5bd14f71427d1e84f3dd0314c0f7b2291e5b200ac8c7c3b925",
            "0x000000000000000000000000ddb342ecc94236c29a5307d3757d0724d759453c",
            "0x000000000000000000000000ce5485cfb26914c5dce00b9baf0580364dafc7a4"
          ],
          "data": "0xffffffffffffffffffffffffffffffffffffffffffffffffffffffffffffffff",
          "blockHash": "0x0e1307d0f72bc2ca7c5be045fc5d6baa2131579034836b4bd94fde8b5c5da94c",
          "blockNumber": "0x6c2a7c",
          "transactionHash": "0xc6afa908c7119959597decba2f14671d3ca7dcec54de78b900d1ae42c0a808b0",
          "transactionIndex": "0x19",
          "logIndex": "0x26",
          "removed": false
        }
      ],
      "status": "0x1",
      "logsBloom": "0x00000000000000000000000000000000000000000000000000000000000000000000000000000000000000000000000000000000000000000000000000200000000000000000000000000000000000000000000000000000000000000000000400000000000000000000000000000000400000000000000000000000400008000000000000000000000000000000000000000000000000000000000000000000020000000000000000000000000000001000000000000000000000000000000000000000000000020010000000000000000000000000000000800000000000000010000000000000000000000000000000000000001000000000000000000000",
      "type": "0x2",
      "effectiveGasPrice": "0xedde81fb"
    },
    {
      "transactionHash": "0x2ddb0ca2634e9bf53a5c811e00960ac9a1f612428bc6c16526600fe4d1c6c96d",
      "transactionIndex": "0x1a",
      "blockHash": "0x0e1307d0f72bc2ca7c5be045fc5d6baa2131579034836b4bd94fde8b5c5da94c",
      "blockNumber": "0x6c2a7c",
      "from": "0xDdb342ecc94236c29a5307d3757d0724D759453C",
      "to": "0xcE5485Cfb26914C5dcE00B9BAF0580364daFC7a4",
      "cumulativeGasUsed": "0x224ba2",
      "gasUsed": "0x1e2e6",
      "contractAddress": null,
      "logs": [
        {
          "address": "0xCa14007Eff0dB1f8135f4C25B34De49AB0d42766",
          "topics": [
            "0xddf252ad1be2c89b69c2b068fc378daa952ba7f163c4a11628f55a4df523b3ef",
            "0x000000000000000000000000ddb342ecc94236c29a5307d3757d0724d759453c",
            "0x000000000000000000000000ce5485cfb26914c5dce00b9baf0580364dafc7a4"
          ],
          "data": "0x00000000000000000000000000000000000000000000000000b1a2bc2ec50000",
          "blockHash": "0x0e1307d0f72bc2ca7c5be045fc5d6baa2131579034836b4bd94fde8b5c5da94c",
          "blockNumber": "0x6c2a7c",
          "transactionHash": "0x2ddb0ca2634e9bf53a5c811e00960ac9a1f612428bc6c16526600fe4d1c6c96d",
          "transactionIndex": "0x1a",
          "logIndex": "0x27",
          "removed": false
        },
        {
          "address": "0xE2Bb56ee936fd6433DC0F6e7e3b8365C906AA057",
          "topics": [
            "0xdb80dd488acf86d17c747445b0eabb5d57c541d3bd7b6b87af987858e5066b2b",
            "0x000000000000000000000000ce5485cfb26914c5dce00b9baf0580364dafc7a4",
            "0x0594c1582459ea03f77deaf9eb7e3917d6994a03c13405ba42867f83d85f085d",
            "0x01b64b1b3b690b43b9b514fb81377518f4039cd3e4f4914d8a6bdf01d679fb19"
          ],
          "data": "0x0000000000000000000000000000000000000000000000000000000000000060000000000000000000000000000000000000000000000000000000000000289800000000000000000000000000000000000000000000000000038d7ea4c680000000000000000000000000000000000000000000000000000000000000000005000000000000000000000000ca14007eff0db1f8135f4c25b34de49ab0d42766000000000000000000000000ddb342ecc94236c29a5307d3757d0724d759453c01e5e5ddc6e545240a1f47645ccc873562d72586bc7e8861e70dead0ad64c42b00000000000000000000000000000000000000000000000000b1a2bc2ec500000000000000000000000000000000000000000000000000000000000000000000",
          "blockHash": "0x0e1307d0f72bc2ca7c5be045fc5d6baa2131579034836b4bd94fde8b5c5da94c",
          "blockNumber": "0x6c2a7c",
          "transactionHash": "0x2ddb0ca2634e9bf53a5c811e00960ac9a1f612428bc6c16526600fe4d1c6c96d",
          "transactionIndex": "0x1a",
          "logIndex": "0x28",
          "removed": false
        },
        {
          "address": "0xcE5485Cfb26914C5dcE00B9BAF0580364daFC7a4",
          "topics": [
            "0x5f971bd00bf3ffbca8a6d72cdd4fd92cfd4f62636161921d1e5a64f0b64ccb6d",
            "0x000000000000000000000000ddb342ecc94236c29a5307d3757d0724d759453c",
            "0x000000000000000000000000ca14007eff0db1f8135f4c25b34de49ab0d42766",
            "0x01e5e5ddc6e545240a1f47645ccc873562d72586bc7e8861e70dead0ad64c42b"
          ],
          "data": "0x00000000000000000000000000000000000000000000000000b1a2bc2ec50000000000000000000000000000000000000000000000000000000000000000289800000000000000000000000000000000000000000000000000038d7ea4c68000",
          "blockHash": "0x0e1307d0f72bc2ca7c5be045fc5d6baa2131579034836b4bd94fde8b5c5da94c",
          "blockNumber": "0x6c2a7c",
          "transactionHash": "0x2ddb0ca2634e9bf53a5c811e00960ac9a1f612428bc6c16526600fe4d1c6c96d",
          "transactionIndex": "0x1a",
          "logIndex": "0x29",
          "removed": false
        },
        {
          "address": "0xcE5485Cfb26914C5dcE00B9BAF0580364daFC7a4",
          "topics": [
            "0x5b5dbc6c64043a15d3fe6943a6e443a826b78755edc257b2ec890c022225dbcf",
            "0x000000000000000000000000ddb342ecc94236c29a5307d3757d0724d759453c",
            "0x01e5e5ddc6e545240a1f47645ccc873562d72586bc7e8861e70dead0ad64c42b"
          ],
          "data": "0x00000000000000000000000000000000000000000000000000b1a2bc2ec50000000000000000000000000000000000000000000000000000000000000000289800000000000000000000000000000000000000000000000000038d7ea4c68000",
          "blockHash": "0x0e1307d0f72bc2ca7c5be045fc5d6baa2131579034836b4bd94fde8b5c5da94c",
          "blockNumber": "0x6c2a7c",
          "transactionHash": "0x2ddb0ca2634e9bf53a5c811e00960ac9a1f612428bc6c16526600fe4d1c6c96d",
          "transactionIndex": "0x1a",
          "logIndex": "0x2a",
          "removed": false
        }
      ],
      "status": "0x1",
      "logsBloom": "0x00000000000000000200000000020000000000000000000000000000000000400000004000000000000000000000000000000000000004000000000000000000000000000400001000000008080080000000000000000040001000000000000400000000100000000000000000000000400000000000000000000010400008002000000000000000000000000400000000000000000200000000020000000010000000000000000000000020000000001000000000000020000000000000000000000002000000024010000000000000000000200000200000800000000000000000000000010000000000020084000000000000001000000000000002000000",
      "type": "0x2",
      "effectiveGasPrice": "0xedde81fb"
    },
    {
      "transactionHash": "0xac4502429d2da804ab846a9629f672ce10f7e079303b3e07c3ec7567427ddb2e",
      "transactionIndex": "0x1b",
      "blockHash": "0x0e1307d0f72bc2ca7c5be045fc5d6baa2131579034836b4bd94fde8b5c5da94c",
      "blockNumber": "0x6c2a7c",
      "from": "0xDdb342ecc94236c29a5307d3757d0724D759453C",
      "to": "0xE2Bb56ee936fd6433DC0F6e7e3b8365C906AA057",
      "cumulativeGasUsed": "0x234ce9",
      "gasUsed": "0x10147",
      "contractAddress": null,
      "logs": [
        {
          "address": "0xE2Bb56ee936fd6433DC0F6e7e3b8365C906AA057",
          "topics": [
            "0xdb80dd488acf86d17c747445b0eabb5d57c541d3bd7b6b87af987858e5066b2b",
            "0x000000000000000000000000ddb342ecc94236c29a5307d3757d0724d759453c",
            "0x01e5e5ddc6e545240a1f47645ccc873562d72586bc7e8861e70dead0ad64c42b",
            "0x00f1149cade9d692862ad41df96b108aa2c20af34f640457e781d166c98dc6b0"
          ],
          "data": "0x0000000000000000000000000000000000000000000000000000000000000060000000000000000000000000000000000000000000000000000000000000289900000000000000000000000000000000000000000000000000038d7ea4c6800000000000000000000000000000000000000000000000000000000000000000090000000000000000000000000000000000000000000000000000000000000000000000000000000000000000ddb342ecc94236c29a5307d3757d0724d759453c04718f5a0fc34cc1af16a1cdee98ffb20c31f5cd61d6ab07201858f4287c938d053b40a647cedfca6ca84f542a0fe36736031905a9639a7f19a3c1e66bfd5080000000000000000000000000000000000020c49ba5e353f800000000000000000000000000000000000000000000000000000000000000000000000067389000000000000000000000000000000000000000000000000000000000006738904000000000000000000000000000000000000000000000000000b1a2bc2ec500000594c1582459ea03f77deaf9eb7e3917d6994a03c13405ba42867f83d85f085d",
          "blockHash": "0x0e1307d0f72bc2ca7c5be045fc5d6baa2131579034836b4bd94fde8b5c5da94c",
          "blockNumber": "0x6c2a7c",
          "transactionHash": "0xac4502429d2da804ab846a9629f672ce10f7e079303b3e07c3ec7567427ddb2e",
          "transactionIndex": "0x1b",
          "logIndex": "0x2b",
          "removed": false
        }
      ],
      "status": "0x1",
      "logsBloom": "0x00400000000000000000000000020000000000000000000000000000000000000000000000000000000000000000000000000000000000000000000000000000000000000000001000000000000080000000000000000040001000000000000400000000100000010000000000000000400000000000000000000000400000000000000000000000000000000000000004000000000000000000000000000010000000000000000000000020000000000000000000000000000000000000000000000000000000000000000000000000000000000000000000000000000000000000000000000000000000000000000000000000000000000000000002000000",
      "type": "0x2",
      "effectiveGasPrice": "0xedde81fb"
    }
  ],
  "libraries": [],
  "pending": [],
  "returns": {},
  "timestamp": 1731760191,
  "chain": 11155111,
  "multi": false,
  "commit": "5233bbb"
}