{
  "transactions": [
    {
      "hash": "0x3f940278017ed400db2db25098aa8d2fbab2f00fb9cdd1a74aa469458ac8d93a",
      "transactionType": "CALL",
      "contractName": null,
      "contractAddress": "0xca14007eff0db1f8135f4c25b34de49ab0d42766",
      "function": "approve(address,uint256)",
      "arguments": [
        "0x5438Cd7f958d6D4CaE2f7A7ca2006555A34c54c0",
        "115792089237316195423570985008687907853269984665640564039457584007913129639935"
      ],
      "transaction": {
        "from": "0x1b382a7b4496f14e0aaa2da1e1626da400426a03",
        "to": "0xca14007eff0db1f8135f4c25b34de49ab0d42766",
        "gas": "0x9398",
        "value": "0x0",
        "input": "0x095ea7b30000000000000000000000005438cd7f958d6d4cae2f7a7ca2006555a34c54c0ffffffffffffffffffffffffffffffffffffffffffffffffffffffffffffffff",
        "nonce": "0x114",
        "chainId": "0xaa36a7"
      },
      "additionalContracts": [],
      "isFixedGasLimit": false
    },
    {
      "hash": "0xe85525af35da5e41187b8b1c2f1f6256bf3a46856eac3471421a4d40b90be216",
      "transactionType": "CALL",
      "contractName": null,
      "contractAddress": "0x5438cd7f958d6d4cae2f7a7ca2006555a34c54c0",
      "function": "depositAndCreateOrder((address,uint256,uint256,uint128,uint128,uint128,uint128,uint256))",
      "arguments": [
        "(0x1B382A7b4496F14e0AAA2DA1E1626Da400426A03, 2009894490435840142178314390393166646092438090257831307886760648929397478285, 2366254414417873771392932940469309727793822550615514268240785277201753657472, 0, 1731359936, 1731360000, 500000, 669357205553508229622705110900730738715992177194231944211058289449787835132)"
      ],
      "transaction": {
        "from": "0x1b382a7b4496f14e0aaa2da1e1626da400426a03",
        "to": "0x5438cd7f958d6d4cae2f7a7ca2006555a34c54c0",
        "gas": "0x3e26c",
        "value": "0x5af3107a4000",
        "input": "0x5ce510fa0000000000000000000000001b382a7b4496f14e0aaa2da1e1626da400426a0304718f5a0fc34cc1af16a1cdee98ffb20c31f5cd61d6ab07201858f4287c938d053b40a647cedfca6ca84f542a0fe36736031905a9639a7f19a3c1e66bfd5080000000000000000000000000000000000000000000000000000000000000000000000000000000000000000000000000000000000000000000000000673274c00000000000000000000000000000000000000000000000000000000067327500000000000000000000000000000000000000000000000000000000000007a120017ad7bea372203c6e35fc692f63ee1537f6a5a2081865ba93291aa4592dc2fc",
        "nonce": "0x115",
        "chainId": "0xaa36a7"
      },
      "additionalContracts": [],
      "isFixedGasLimit": false
    },
    {
      "hash": "0x76fbfc89086537ff00ab02026f4094c3072f1b74fd20d9b97838570b1407d290",
      "transactionType": "CALL",
      "contractName": null,
      "contractAddress": "0x5438cd7f958d6d4cae2f7a7ca2006555a34c54c0",
      "function": "_sendMessage(uint256,uint256,uint256[])",
      "arguments": [
        "669357205553508229622705110900730738715992177194231944211058289449787835132",
        "425952401605428413817582304755919420533935873840436977667370850915372091056",
        "[2, 0, 0, 0, 0, 0, 0, 0]"
      ],
      "transaction": {
        "from": "0x1b382a7b4496f14e0aaa2da1e1626da400426a03",
        "to": "0x5438cd7f958d6d4cae2f7a7ca2006555a34c54c0",
        "gas": "0x198a8",
        "value": "0x5af3107a4000",
        "input": "0x88f439ef017ad7bea372203c6e35fc692f63ee1537f6a5a2081865ba93291aa4592dc2fc00f1149cade9d692862ad41df96b108aa2c20af34f640457e781d166c98dc6b00000000000000000000000000000000000000000000000000000000000000060000000000000000000000000000000000000000000000000000000000000000800000000000000000000000000000000000000000000000000000000000000020000000000000000000000000000000000000000000000000000000000000000000000000000000000000000000000000000000000000000000000000000000000000000000000000000000000000000000000000000000000000000000000000000000000000000000000000000000000000000000000000000000000000000000000000000000000000000000000000000000000000000000000000000000000000000000000000000000000000000000000000000000000000000000000000000000000000000000000000000000000000000000000000000000000000000",
        "nonce": "0x116",
        "chainId": "0xaa36a7"
      },
      "additionalContracts": [],
      "isFixedGasLimit": false
    }
  ],
  "receipts": [
    {
      "status": "0x1",
      "cumulativeGasUsed": "0xf80b7f",
      "logs": [
        {
          "address": "0xca14007eff0db1f8135f4c25b34de49ab0d42766",
          "topics": [
            "0x8c5be1e5ebec7d5bd14f71427d1e84f3dd0314c0f7b2291e5b200ac8c7c3b925",
            "0x0000000000000000000000001b382a7b4496f14e0aaa2da1e1626da400426a03",
            "0x0000000000000000000000005438cd7f958d6d4cae2f7a7ca2006555a34c54c0"
          ],
          "data": "0xffffffffffffffffffffffffffffffffffffffffffffffffffffffffffffffff",
          "blockHash": "0x6339d2d41a1d53d95c1eddc814d8c72d19195d7aa5e6b87610fab4474802e293",
          "blockNumber": "0x6bb146",
          "transactionHash": "0x3f940278017ed400db2db25098aa8d2fbab2f00fb9cdd1a74aa469458ac8d93a",
          "transactionIndex": "0x73",
          "logIndex": "0xa2",
          "removed": false
        }
      ],
      "logsBloom": "0x00000000000000000000000000000000000000000000000000020000000000000000000000000000000000000000000000000000000000000000000000200000000000000000000000000000000000000000000000000000000000000000000000000000000000000000000000000000000000000010000020000000000000040000000000000000000000000000000000000000000000000000000000000000020000000000000000000000000000000000000000000000000000000000000000000000000000020000000000000000000000000000040000800000000000020010000000000000000000000000000000000000001000000000000000000000",
      "type": "0x2",
      "transactionHash": "0x3f940278017ed400db2db25098aa8d2fbab2f00fb9cdd1a74aa469458ac8d93a",
      "transactionIndex": "0x73",
      "blockHash": "0x6339d2d41a1d53d95c1eddc814d8c72d19195d7aa5e6b87610fab4474802e293",
      "blockNumber": "0x6bb146",
      "gasUsed": "0x6adc",
      "effectiveGasPrice": "0x128ff01f",
      "blobGasUsed": "0x0",
      "from": "0x1b382a7b4496f14e0aaa2da1e1626da400426a03",
      "to": "0xca14007eff0db1f8135f4c25b34de49ab0d42766",
      "contractAddress": null
    },
    {
      "status": "0x1",
      "cumulativeGasUsed": "0xfab2f4",
      "logs": [
        {
          "address": "0xca14007eff0db1f8135f4c25b34de49ab0d42766",
          "topics": [
            "0xddf252ad1be2c89b69c2b068fc378daa952ba7f163c4a11628f55a4df523b3ef",
            "0x0000000000000000000000001b382a7b4496f14e0aaa2da1e1626da400426a03",
            "0x0000000000000000000000005438cd7f958d6d4cae2f7a7ca2006555a34c54c0"
          ],
          "data": "0x000000000000000000000000000000000000000000000000000000000007a120",
          "blockHash": "0x6339d2d41a1d53d95c1eddc814d8c72d19195d7aa5e6b87610fab4474802e293",
          "blockNumber": "0x6bb146",
          "transactionHash": "0xe85525af35da5e41187b8b1c2f1f6256bf3a46856eac3471421a4d40b90be216",
          "transactionIndex": "0x74",
          "logIndex": "0xa3",
          "removed": false
        },
        {
          "address": "0xca14007eff0db1f8135f4c25b34de49ab0d42766",
          "topics": [
            "0x8c5be1e5ebec7d5bd14f71427d1e84f3dd0314c0f7b2291e5b200ac8c7c3b925",
            "0x0000000000000000000000005438cd7f958d6d4cae2f7a7ca2006555a34c54c0",
            "0x000000000000000000000000ce5485cfb26914c5dce00b9baf0580364dafc7a4"
          ],
          "data": "0x0000000000000000000000000000000000000000000000000000000000000000",
          "blockHash": "0x6339d2d41a1d53d95c1eddc814d8c72d19195d7aa5e6b87610fab4474802e293",
          "blockNumber": "0x6bb146",
          "transactionHash": "0xe85525af35da5e41187b8b1c2f1f6256bf3a46856eac3471421a4d40b90be216",
          "transactionIndex": "0x74",
          "logIndex": "0xa4",
          "removed": false
        },
        {
          "address": "0xca14007eff0db1f8135f4c25b34de49ab0d42766",
          "topics": [
            "0x8c5be1e5ebec7d5bd14f71427d1e84f3dd0314c0f7b2291e5b200ac8c7c3b925",
            "0x0000000000000000000000005438cd7f958d6d4cae2f7a7ca2006555a34c54c0",
            "0x000000000000000000000000ce5485cfb26914c5dce00b9baf0580364dafc7a4"
          ],
          "data": "0x000000000000000000000000000000000000000000000000000000000007a120",
          "blockHash": "0x6339d2d41a1d53d95c1eddc814d8c72d19195d7aa5e6b87610fab4474802e293",
          "blockNumber": "0x6bb146",
          "transactionHash": "0xe85525af35da5e41187b8b1c2f1f6256bf3a46856eac3471421a4d40b90be216",
          "transactionIndex": "0x74",
          "logIndex": "0xa5",
          "removed": false
        },
        {
          "address": "0xca14007eff0db1f8135f4c25b34de49ab0d42766",
          "topics": [
            "0x8c5be1e5ebec7d5bd14f71427d1e84f3dd0314c0f7b2291e5b200ac8c7c3b925",
            "0x0000000000000000000000005438cd7f958d6d4cae2f7a7ca2006555a34c54c0",
            "0x000000000000000000000000ce5485cfb26914c5dce00b9baf0580364dafc7a4"
          ],
          "data": "0x0000000000000000000000000000000000000000000000000000000000000000",
          "blockHash": "0x6339d2d41a1d53d95c1eddc814d8c72d19195d7aa5e6b87610fab4474802e293",
          "blockNumber": "0x6bb146",
          "transactionHash": "0xe85525af35da5e41187b8b1c2f1f6256bf3a46856eac3471421a4d40b90be216",
          "transactionIndex": "0x74",
          "logIndex": "0xa6",
          "removed": false
        },
        {
          "address": "0xca14007eff0db1f8135f4c25b34de49ab0d42766",
          "topics": [
            "0xddf252ad1be2c89b69c2b068fc378daa952ba7f163c4a11628f55a4df523b3ef",
            "0x0000000000000000000000005438cd7f958d6d4cae2f7a7ca2006555a34c54c0",
            "0x000000000000000000000000ce5485cfb26914c5dce00b9baf0580364dafc7a4"
          ],
          "data": "0x000000000000000000000000000000000000000000000000000000000007a120",
          "blockHash": "0x6339d2d41a1d53d95c1eddc814d8c72d19195d7aa5e6b87610fab4474802e293",
          "blockNumber": "0x6bb146",
          "transactionHash": "0xe85525af35da5e41187b8b1c2f1f6256bf3a46856eac3471421a4d40b90be216",
          "transactionIndex": "0x74",
          "logIndex": "0xa7",
          "removed": false
        },
        {
          "address": "0xe2bb56ee936fd6433dc0f6e7e3b8365c906aa057",
          "topics": [
            "0xdb80dd488acf86d17c747445b0eabb5d57c541d3bd7b6b87af987858e5066b2b",
            "0x000000000000000000000000ce5485cfb26914c5dce00b9baf0580364dafc7a4",
            "0x0594c1582459ea03f77deaf9eb7e3917d6994a03c13405ba42867f83d85f085d",
            "0x008bce41827dd5484d80312a2e43bc42a896e3fcf75bf84c2b49339168dfa00a"
          ],
          "data": "0x000000000000000000000000000000000000000000000000000000000000006000000000000000000000000000000000000000000000000000000000000027ee00000000000000000000000000000000000000000000000000005af3107a4000000000000000000000000000000000000000000000000000000000000000000d000000000000000000000000ca14007eff0db1f8135f4c25b34de49ab0d427660000000000000000000000005438cd7f958d6d4cae2f7a7ca2006555a34c54c0017ad7bea372203c6e35fc692f63ee1537f6a5a2081865ba93291aa4592dc2fc000000000000000000000000000000000000000000000000000000000007a1200000000000000000000000000000000000000000000000000000000000000000000000000000000000000000000000000000000000000000000000000000000700000000000000000000000000000000000000000000000000000000000000000000000000000000000000001b382a7b4496f14e0aaa2da1e1626da400426a0304718f5a0fc34cc1af16a1cdee98ffb20c31f5cd61d6ab07201858f4287c938d053b40a647cedfca6ca84f542a0fe36736031905a9639a7f19a3c1e66bfd5080000000000000000000000000000000000000000000000000000000000000000000000000000000000000000000000000000000000000000000000000673274c00000000000000000000000000000000000000000000000000000000067327500",
          "blockHash": "0x6339d2d41a1d53d95c1eddc814d8c72d19195d7aa5e6b87610fab4474802e293",
          "blockNumber": "0x6bb146",
          "transactionHash": "0xe85525af35da5e41187b8b1c2f1f6256bf3a46856eac3471421a4d40b90be216",
          "transactionIndex": "0x74",
          "logIndex": "0xa8",
          "removed": false
        },
        {
          "address": "0xce5485cfb26914c5dce00b9baf0580364dafc7a4",
          "topics": [
            "0x2203a49c69f1a46c1164f5e4a30643dd77b7c59c0ff9bc433256048365c247f1",
            "0x0000000000000000000000005438cd7f958d6d4cae2f7a7ca2006555a34c54c0",
            "0x000000000000000000000000ca14007eff0db1f8135f4c25b34de49ab0d42766",
            "0x017ad7bea372203c6e35fc692f63ee1537f6a5a2081865ba93291aa4592dc2fc"
          ],
          "data": "0x000000000000000000000000000000000000000000000000000000000007a120000000000000000000000000000000000000000000000000000000000000008000000000000000000000000000000000000000000000000000000000000027ee00000000000000000000000000000000000000000000000000005af3107a4000000000000000000000000000000000000000000000000000000000000000000700000000000000000000000000000000000000000000000000000000000000000000000000000000000000001b382a7b4496f14e0aaa2da1e1626da400426a0304718f5a0fc34cc1af16a1cdee98ffb20c31f5cd61d6ab07201858f4287c938d053b40a647cedfca6ca84f542a0fe36736031905a9639a7f19a3c1e66bfd5080000000000000000000000000000000000000000000000000000000000000000000000000000000000000000000000000000000000000000000000000673274c00000000000000000000000000000000000000000000000000000000067327500",
          "blockHash": "0x6339d2d41a1d53d95c1eddc814d8c72d19195d7aa5e6b87610fab4474802e293",
          "blockNumber": "0x6bb146",
          "transactionHash": "0xe85525af35da5e41187b8b1c2f1f6256bf3a46856eac3471421a4d40b90be216",
          "transactionIndex": "0x74",
          "logIndex": "0xa9",
          "removed": false
        },
        {
          "address": "0x5438cd7f958d6d4cae2f7a7ca2006555a34c54c0",
          "topics": [
            "0xaf43445f7721522b7a3864ed3de53d7e2e658bfa1eeffa18e1e229be68ce2545",
            "0x0000000000000000000000001b382a7b4496f14e0aaa2da1e1626da400426a03",
            "0x017ad7bea372203c6e35fc692f63ee1537f6a5a2081865ba93291aa4592dc2fc"
          ],
          "data": "0x000000000000000000000000000000000000000000000000000000000007a1200000000000000000000000000000000000000000000000000000000000000001",
          "blockHash": "0x6339d2d41a1d53d95c1eddc814d8c72d19195d7aa5e6b87610fab4474802e293",
          "blockNumber": "0x6bb146",
          "transactionHash": "0xe85525af35da5e41187b8b1c2f1f6256bf3a46856eac3471421a4d40b90be216",
          "transactionIndex": "0x74",
          "logIndex": "0xaa",
          "removed": false
        }
      ],
      "logsBloom": "0x00000200000000000000000000020000000000000000000000020040000000000000000000000040000000000000000000000000000004000000020000200000000000000000000000000008080000000000000000000040001000000000000200000000100000000000000000000800000000000010000020000010200008042000000000000000000000020000000000008000000200000000000000000010020000800000000000000020000000021000008000000000000000000000000000800002000000024011000000000000040000200000040000800000000000020010000000010000000000020004000000000000001000000000000000000000",
      "type": "0x2",
      "transactionHash": "0xe85525af35da5e41187b8b1c2f1f6256bf3a46856eac3471421a4d40b90be216",
      "transactionIndex": "0x74",
      "blockHash": "0x6339d2d41a1d53d95c1eddc814d8c72d19195d7aa5e6b87610fab4474802e293",
      "blockNumber": "0x6bb146",
      "gasUsed": "0x2a775",
      "effectiveGasPrice": "0x128ff01f",
      "blobGasUsed": "0x0",
      "from": "0x1b382a7b4496f14e0aaa2da1e1626da400426a03",
      "to": "0x5438cd7f958d6d4cae2f7a7ca2006555a34c54c0",
      "contractAddress": null
    },
    {
      "status": "0x1",
      "cumulativeGasUsed": "0xfbdad1",
      "logs": [
        {
          "address": "0xe2bb56ee936fd6433dc0f6e7e3b8365c906aa057",
          "topics": [
            "0xdb80dd488acf86d17c747445b0eabb5d57c541d3bd7b6b87af987858e5066b2b",
            "0x0000000000000000000000005438cd7f958d6d4cae2f7a7ca2006555a34c54c0",
            "0x017ad7bea372203c6e35fc692f63ee1537f6a5a2081865ba93291aa4592dc2fc",
            "0x00f1149cade9d692862ad41df96b108aa2c20af34f640457e781d166c98dc6b0"
          ],
          "data": "0x000000000000000000000000000000000000000000000000000000000000006000000000000000000000000000000000000000000000000000000000000027ef00000000000000000000000000000000000000000000000000005af3107a4000000000000000000000000000000000000000000000000000000000000000000800000000000000000000000000000000000000000000000000000000000000020000000000000000000000000000000000000000000000000000000000000000000000000000000000000000000000000000000000000000000000000000000000000000000000000000000000000000000000000000000000000000000000000000000000000000000000000000000000000000000000000000000000000000000000000000000000000000000000000000000000000000000000000000000000000000000000000000000000000000000000000000000000000000000000000000000000000000000000000000000000000000000000000000000000000000",
          "blockHash": "0x6339d2d41a1d53d95c1eddc814d8c72d19195d7aa5e6b87610fab4474802e293",
          "blockNumber": "0x6bb146",
          "transactionHash": "0x76fbfc89086537ff00ab02026f4094c3072f1b74fd20d9b97838570b1407d290",
          "transactionIndex": "0x75",
          "logIndex": "0xab",
          "removed": false
        }
      ],
      "logsBloom": "0x00400000000000000000000000020000000000000000000000020000000000000000000000000000000000000000000000000000000000000000000000000000000000000000000000000000000000000000000000000040001000000000000000000000100000010000000000000800000000000000000000000000200000000000000000000000000000000000000004000000000000000000000000000010000000000000000000000020000000000000000000000000000000000000000000000000000000000000000000000000040000000000040000000000000000020000000000000000000000000000000000000000000000000000000000000000",
      "type": "0x2",
      "transactionHash": "0x76fbfc89086537ff00ab02026f4094c3072f1b74fd20d9b97838570b1407d290",
      "transactionIndex": "0x75",
      "blockHash": "0x6339d2d41a1d53d95c1eddc814d8c72d19195d7aa5e6b87610fab4474802e293",
      "blockNumber": "0x6bb146",
      "gasUsed": "0x127dd",
      "effectiveGasPrice": "0x128ff01f",
      "blobGasUsed": "0x0",
      "from": "0x1b382a7b4496f14e0aaa2da1e1626da400426a03",
      "to": "0x5438cd7f958d6d4cae2f7a7ca2006555a34c54c0",
      "contractAddress": null
    }
  ],
  "libraries": [],
  "pending": [],
  "returns": {},
  "timestamp": 1731359983,
  "chain": 11155111,
  "commit": "a5302c4"
}