{
  "transactions": [
    {
      "hash": "0xa5f4b6751e24a2e4bad756879e95a9593762d031f31f7576db6cc1f5a2672f00",
      "transactionType": "CALL",
      "contractName": null,
      "contractAddress": "0x17ceb8da41205f1026241766328751884afa7fe8",
      "function": "initiateWithdrawal(address,address,uint64)",
      "arguments": [
        "0xDdb342ecc94236c29a5307d3757d0724D759453C",
        "0x1c7D4B196Cb0C7B01d743Fbc6116a902379C7238",
        "534"
      ],
      "transaction": {
        "from": "0xddb342ecc94236c29a5307d3757d0724d759453c",
        "to": "0x17ceb8da41205f1026241766328751884afa7fe8",
        "gas": "0x1b4c1",
        "value": "0x1c6bf52634000",
        "input": "0x9b4085f6000000000000000000000000ddb342ecc94236c29a5307d3757d0724d759453c0000000000000000000000001c7d4b196cb0c7b01d743fbc6116a902379c72380000000000000000000000000000000000000000000000000000000000000216",
        "nonce": "0x514",
        "chainId": "0xaa36a7"
      },
      "additionalContracts": [],
      "isFixedGasLimit": false
    }
  ],
  "receipts": [
    {
      "status": "0x1",
      "cumulativeGasUsed": "0x1a2fdbc",
      "logs": [
        {
          "address": "0xe2bb56ee936fd6433dc0f6e7e3b8365c906aa057",
          "topics": [
            "0xdb80dd488acf86d17c747445b0eabb5d57c541d3bd7b6b87af987858e5066b2b",
            "0x00000000000000000000000017ceb8da41205f1026241766328751884afa7fe8",
            "0x07f7634d530030231a04892601d83bbc79defee8145d116d18fc4978e21f2741",
            "0x00f1149cade9d692862ad41df96b108aa2c20af34f640457e781d166c98dc6b0"
          ],
          "data": "0x00000000000000000000000000000000000000000000000000000000000000600000000000000000000000000000000000000000000000000000000000002c750000000000000000000000000000000000000000000000000001c6bf5263400000000000000000000000000000000000000000000000000000000000000000050000000000000000000000000000000000000000000000000000000000000002000000000000000000000000ddb342ecc94236c29a5307d3757d0724d759453c000000000000000000000000ddb342ecc94236c29a5307d3757d0724d759453c0000000000000000000000001c7d4b196cb0c7b01d743fbc6116a902379c72380000000000000000000000000000000000000000000000000000000000000216",
          "blockHash": "0x73ae316ad33938aa6651dcd92cc4728349b1aac24720eb28edb50f881bd4f15c",
          "blockNumber": "0x730dff",
          "transactionHash": "0xa5f4b6751e24a2e4bad756879e95a9593762d031f31f7576db6cc1f5a2672f00",
          "transactionIndex": "0xec",
          "logIndex": "0x1b2",
          "removed": false
        },
        {
          "address": "0x17ceb8da41205f1026241766328751884afa7fe8",
          "topics": [
            "0x89bd98ae1b8dd4dbaeba50e40ad484414a306be9fb54ec4eecf1a801ca9aeacf",
            "0x000000000000000000000000ddb342ecc94236c29a5307d3757d0724d759453c"
          ],
          "data": "0x0000000000000000000000000000000000000000000000000000000000000216",
          "blockHash": "0x73ae316ad33938aa6651dcd92cc4728349b1aac24720eb28edb50f881bd4f15c",
          "blockNumber": "0x730dff",
          "transactionHash": "0xa5f4b6751e24a2e4bad756879e95a9593762d031f31f7576db6cc1f5a2672f00",
          "transactionIndex": "0xec",
          "logIndex": "0x1b3",
          "removed": false
        }
      ],
      "logsBloom": "0x00400000040000000000000000020000000000000000000000000000000000000000000000000000000000000800000000000000000000000000000000000000000000000000000000000000000000000000000000000040001000000000000400000000100000010000000000000000400000000000000000000000400000000000000000000000000000000000000004000000802000000000000000000010000000000000000000000020000000000000000004000000000000000000002800000000000000000000200000000000020000000000000000000000000000000000000000400000000000002000000000000000000000000000000000200000",
      "type": "0x2",
      "transactionHash": "0xa5f4b6751e24a2e4bad756879e95a9593762d031f31f7576db6cc1f5a2672f00",
      "transactionIndex": "0xec",
      "blockHash": "0x73ae316ad33938aa6651dcd92cc4728349b1aac24720eb28edb50f881bd4f15c",
      "blockNumber": "0x730dff",
      "gasUsed": "0x12aa3",
      "effectiveGasPrice": "0xe2b61ebe",
      "from": "0xddb342ecc94236c29a5307d3757d0724d759453c",
      "to": "0x17ceb8da41205f1026241766328751884afa7fe8",
      "contractAddress": null
    }
  ],
  "libraries": [],
  "pending": [],
  "returns": {},
  "timestamp": 1737467017,
  "chain": 11155111,
  "commit": "fcbff6b"
}