{
  "transactions": [
    {
      "hash": "0x28d44ebe4bbe774618583563d3e529852e7105651bf2e2caf8f5dc1399314de1",
      "transactionType": "CALL",
      "contractName": "StarkNetToken",
      "contractAddress": "0xCa14007Eff0dB1f8135f4C25B34De49AB0d42766",
      "function": "approve(address,uint256)",
      "arguments": [
        "0x7eb4C59eABE1234E8A6D02FdF4d1BB595C4702Cd",
        "115792089237316195423570985008687907853269984665640564039457584007913129639935"
      ],
      "transaction": {
        "type": "0x02",
        "from": "0xddb342ecc94236c29a5307d3757d0724d759453c",
        "to": "0xca14007eff0db1f8135f4c25b34de49ab0d42766",
        "gas": "0x93a9",
        "value": "0x0",
        "data": "0x095ea7b30000000000000000000000007eb4c59eabe1234e8a6d02fdf4d1bb595c4702cdffffffffffffffffffffffffffffffffffffffffffffffffffffffffffffffff",
        "nonce": "0x39a",
        "accessList": []
      },
      "additionalContracts": [],
      "isFixedGasLimit": false
    },
    {
      "hash": "0xc026b81529dfec0addfe8bc942d3acbd12c0c027e95d1c36be234ff1068021f4",
      "transactionType": "CALL",
      "contractName": null,
      "contractAddress": "0x7eb4C59eABE1234E8A6D02FdF4d1BB595C4702Cd",
      "function": "setL2EndpointAddress(uint256)",
      "arguments": [
        "2077074972910245189621335464059728964575110875832755872137813659996403293134"
      ],
      "transaction": {
        "type": "0x02",
        "from": "0xddb342ecc94236c29a5307d3757d0724d759453c",
        "to": "0x7eb4c59eabe1234e8a6d02fdf4d1bb595c4702cd",
        "gas": "0xabab",
        "value": "0x0",
        "data": "0x5155fb2f04979530a64a9b49088d61067fca21c6fa47526dcda0b985c981174026145bce",
        "nonce": "0x39b",
        "accessList": []
      },
      "additionalContracts": [],
      "isFixedGasLimit": false
    }
  ],
  "receipts": [],
  "libraries": [],
  "pending": [
    "0x28d44ebe4bbe774618583563d3e529852e7105651bf2e2caf8f5dc1399314de1",
    "0xc026b81529dfec0addfe8bc942d3acbd12c0c027e95d1c36be234ff1068021f4"
  ],
  "returns": {},
  "timestamp": 1733130035,
  "chain": 11155111,
  "multi": false,
  "commit": "578600f"
}