{
  "transactions": [
    {
      "hash": "0x7d43b0db502da5b19c627ff3a2d8a37c78a2af6280d654c20a1ebf9d4f8c860f",
      "transactionType": "CALL",
      "contractName": "StarkNetToken",
      "contractAddress": "0xCa14007Eff0dB1f8135f4C25B34De49AB0d42766",
      "function": "approve(address,uint256)",
      "arguments": [
        "0x2112b149516Def254dfe6B341Cf5df70d8CB6B06",
        "115792089237316195423570985008687907853269984665640564039457584007913129639935"
      ],
      "transaction": {
        "type": "0x02",
        "from": "0xddb342ecc94236c29a5307d3757d0724d759453c",
        "to": "0xca14007eff0db1f8135f4c25b34de49ab0d42766",
        "gas": "0xff08",
        "value": "0x0",
        "data": "0x095ea7b30000000000000000000000002112b149516def254dfe6b341cf5df70d8cb6b06ffffffffffffffffffffffffffffffffffffffffffffffffffffffffffffffff",
        "nonce": "0x2eb",
        "accessList": []
      },
      "additionalContracts": [],
      "isFixedGasLimit": false
    },
    {
      "hash": "0xa89bd42cc89ad1311eab9f99e1c20bbd83b34e87d8d0c1ad2df92708c3a9affd",
      "transactionType": "CALL",
      "contractName": "StarkNetToken",
      "contractAddress": "0xCa14007Eff0dB1f8135f4C25B34De49AB0d42766",
      "function": "transfer(address,uint256)",
      "arguments": [
        "0x2112b149516Def254dfe6B341Cf5df70d8CB6B06",
        "500000"
      ],
      "transaction": {
        "type": "0x02",
        "from": "0xddb342ecc94236c29a5307d3757d0724d759453c",
        "to": "0xca14007eff0db1f8135f4c25b34de49ab0d42766",
        "gas": "0x145a3",
        "value": "0x0",
        "data": "0xa9059cbb0000000000000000000000002112b149516def254dfe6b341cf5df70d8cb6b06000000000000000000000000000000000000000000000000000000000007a120",
        "nonce": "0x2ec",
        "accessList": []
      },
      "additionalContracts": [],
      "isFixedGasLimit": false
    },
    {
      "hash": "0xc119f36d6c1839d9985107ac28465ea1432e01bf0db201add456548d1815ec91",
      "transactionType": "CALL",
      "contractName": "Proxy",
      "contractAddress": "0xE2Bb56ee936fd6433DC0F6e7e3b8365C906AA057",
      "function": "sendMessageToL2(uint256,uint256,uint256[])",
      "arguments": [
        "2545442141390223358248142364047625979260270735181103727477035125832369927267",
        "425952401605428413817582304755919420533935873840436977667370850915372091056",
        "[0, 1265684623727634235329190328445374361672779121980, 2009894490435840142178314390393166646092438090257831307886760648929397478285, 2366254414417873771392932940469309727793822550615514268240785277201753657472, 170141183460469235273462165868118016, 1731684384, 1731684448, 500000, 2524392021852001135582825949054576525094493216367559068627275826195272239197]"
      ],
      "transaction": {
        "type": "0x02",
        "from": "0xddb342ecc94236c29a5307d3757d0724d759453c",
        "to": "0xe2bb56ee936fd6433dc0f6e7e3b8365c906aa057",
        "gas": "0x17832",
        "value": "0x38d7ea4c68000",
        "data": "0x3e3aa6c505a0ab50787b96096b0720c29a7f1959163e62688d6585fe1cf646f1d58d746300f1149cade9d692862ad41df96b108aa2c20af34f640457e781d166c98dc6b0000000000000000000000000000000000000000000000000000000000000006000000000000000000000000000000000000000000000000000000000000000090000000000000000000000000000000000000000000000000000000000000000000000000000000000000000ddb342ecc94236c29a5307d3757d0724d759453c04718f5a0fc34cc1af16a1cdee98ffb20c31f5cd61d6ab07201858f4287c938d053b40a647cedfca6ca84f542a0fe36736031905a9639a7f19a3c1e66bfd5080000000000000000000000000000000000020c49ba5e353f8000000000000000000000000000000000000000000000000000000000000000000000000673768200000000000000000000000000000000000000000000000000000000067376860000000000000000000000000000000000000000000000000000000000007a1200594c1582459ea03f77deaf9eb7e3917d6994a03c13405ba42867f83d85f085d",
        "nonce": "0x2ed",
        "accessList": []
      },
      "additionalContracts": [],
      "isFixedGasLimit": false
    }
  ],
  "receipts": [],
  "libraries": [],
  "pending": [
    "0x7d43b0db502da5b19c627ff3a2d8a37c78a2af6280d654c20a1ebf9d4f8c860f",
    "0xa89bd42cc89ad1311eab9f99e1c20bbd83b34e87d8d0c1ad2df92708c3a9affd",
    "0xc119f36d6c1839d9985107ac28465ea1432e01bf0db201add456548d1815ec91"
  ],
  "returns": {},
  "timestamp": 1731684427,
  "chain": 11155111,
  "multi": false,
  "commit": "945f7f2"
}