{
  "transactions": [
    {
      "hash": "0x5bcdf14974c63a27fda0253c4eb13b860fbc9f8ebfad2f9a7755471f359c56ec",
      "transactionType": "CALL",
      "contractName": null,
      "contractAddress": "0xca14007eff0db1f8135f4c25b34de49ab0d42766",
      "function": "approve(address,uint256)",
      "arguments": [
        "0x21e0b6863F74642fc7764Aa1A394079E388a7b53",
        "115792089237316195423570985008687907853269984665640564039457584007913129639935"
      ],
      "transaction": {
        "from": "0xddb342ecc94236c29a5307d3757d0724d759453c",
        "to": "0xca14007eff0db1f8135f4c25b34de49ab0d42766",
        "gas": "0x93a9",
        "value": "0x0",
        "input": "0x095ea7b300000000000000000000000021e0b6863f74642fc7764aa1a394079e388a7b53ffffffffffffffffffffffffffffffffffffffffffffffffffffffffffffffff",
        "nonce": "0x47e",
        "chainId": "0xaa36a7"
      },
      "additionalContracts": [],
      "isFixedGasLimit": false
    },
    {
      "hash": "0x318fbccd6825c8844a08d8dbce831c02246cba061ea6bb07ce49890423d53f5e",
      "transactionType": "CALL",
      "contractName": null,
      "contractAddress": "0x21e0b6863f74642fc7764aa1a394079e388a7b53",
      "function": "setL2EndpointAddress(uint256)",
      "arguments": [
        "696319483535183975938282947940358897836185920596529151041819534721533514656"
      ],
      "transaction": {
        "from": "0xddb342ecc94236c29a5307d3757d0724d759453c",
        "to": "0x21e0b6863f74642fc7764aa1a394079e388a7b53",
        "gas": "0xa23f",
        "value": "0x0",
        "input": "0x5155fb2f018a1a551c99cef5b5b4d6bb5b81754683ea084bb89807490c67049ea67e93a0",
        "nonce": "0x47f",
        "chainId": "0xaa36a7"
      },
      "additionalContracts": [],
      "isFixedGasLimit": false
    }
  ],
  "receipts": [
    {
      "status": "0x1",
      "cumulativeGasUsed": "0xae3d81",
      "logs": [
        {
          "address": "0xca14007eff0db1f8135f4c25b34de49ab0d42766",
          "topics": [
            "0x8c5be1e5ebec7d5bd14f71427d1e84f3dd0314c0f7b2291e5b200ac8c7c3b925",
            "0x000000000000000000000000ddb342ecc94236c29a5307d3757d0724d759453c",
            "0x00000000000000000000000021e0b6863f74642fc7764aa1a394079e388a7b53"
          ],
          "data": "0xffffffffffffffffffffffffffffffffffffffffffffffffffffffffffffffff",
          "blockHash": "0x769eab9b7be26b391786b21ac68b530ca0017ba2c1439f63b8e6e21c40e81b4a",
          "blockNumber": "0x71c0f1",
          "transactionHash": "0x5bcdf14974c63a27fda0253c4eb13b860fbc9f8ebfad2f9a7755471f359c56ec",
          "transactionIndex": "0x61",
          "logIndex": "0x87",
          "removed": false
        }
      ],
      "logsBloom": "0x00000000000000000000000000000000000000000000000000000000000000000000000000000000000000000000000000200000000000000000000000200000000000000000000000000000000000000000000000000000000000000000000600000000000000000000000000000000400000000000000000000000400000000000000000000000000000000000000000000000000000000000000000000000020000000000000000000000000000000000000000000000000000000000000000000000000000020000000000000000000000000000000000800000000000000010000000000000000000000000000200000000001000000000000000000000",
      "type": "0x2",
      "transactionHash": "0x5bcdf14974c63a27fda0253c4eb13b860fbc9f8ebfad2f9a7755471f359c56ec",
      "transactionIndex": "0x61",
      "blockHash": "0x769eab9b7be26b391786b21ac68b530ca0017ba2c1439f63b8e6e21c40e81b4a",
      "blockNumber": "0x71c0f1",
      "gasUsed": "0x6ae8",
      "effectiveGasPrice": "0x33dbe3986",
      "from": "0xddb342ecc94236c29a5307d3757d0724d759453c",
      "to": "0xca14007eff0db1f8135f4c25b34de49ab0d42766",
      "contractAddress": null
    },
    {
      "status": "0x1",
      "cumulativeGasUsed": "0xaeb2f8",
      "logs": [
        {
          "address": "0x21e0b6863f74642fc7764aa1a394079e388a7b53",
          "topics": [
            "0xa35dce9e53611b0cabca886209c4a1d09c80214af9b6fb6027f7b2f7c39838e8"
          ],
          "data": "0x018a1a551c99cef5b5b4d6bb5b81754683ea084bb89807490c67049ea67e93a0",
          "blockHash": "0x769eab9b7be26b391786b21ac68b530ca0017ba2c1439f63b8e6e21c40e81b4a",
          "blockNumber": "0x71c0f1",
          "transactionHash": "0x318fbccd6825c8844a08d8dbce831c02246cba061ea6bb07ce49890423d53f5e",
          "transactionIndex": "0x62",
          "logIndex": "0x88",
          "removed": false
        }
      ],
      "logsBloom": "0x00000000000000000000000010000000000000000000000000000000000000000000000000000000000000000000000000000000000000000000000000000000000000000040000000000000000200000000000000000000000000000000000000000000000000000000000000000000000000000000008000000000000000000000000000000000000000000000000000000000000000000000000000000000800000000000001000000000000000000000000000000000000000000000000000000000000000000000000000000000000000000000000000000000000000000000000000000000000000000000000000000000000000000000000000000000",
      "type": "0x2",
      "transactionHash": "0x318fbccd6825c8844a08d8dbce831c02246cba061ea6bb07ce49890423d53f5e",
      "transactionIndex": "0x62",
      "blockHash": "0x769eab9b7be26b391786b21ac68b530ca0017ba2c1439f63b8e6e21c40e81b4a",
      "blockNumber": "0x71c0f1",
      "gasUsed": "0x7577",
      "effectiveGasPrice": "0x33dbe3986",
      "from": "0xddb342ecc94236c29a5307d3757d0724d759453c",
      "to": "0x21e0b6863f74642fc7764aa1a394079e388a7b53",
      "contractAddress": null
    }
  ],
  "libraries": [],
  "pending": [],
  "returns": {},
  "timestamp": 1736440056,
  "chain": 11155111,
  "commit": "6a172c2"
}