{
  "transactions": [
    {
      "hash": "0x79722fef2faf6c5a2159fea60a4133dfe7d1cc79bf5695d0f454dc66e8b59181",
      "transactionType": "CALL",
      "contractName": null,
      "contractAddress": "0xca14007eff0db1f8135f4c25b34de49ab0d42766",
      "function": "approve(address,uint256)",
      "arguments": [
        "0x17ceB8Da41205f1026241766328751884Afa7FE8",
        "115792089237316195423570985008687907853269984665640564039457584007913129639935"
      ],
      "transaction": {
        "from": "0xddb342ecc94236c29a5307d3757d0724d759453c",
        "to": "0xca14007eff0db1f8135f4c25b34de49ab0d42766",
        "gas": "0x93a9",
        "value": "0x0",
        "input": "0x095ea7b300000000000000000000000017ceb8da41205f1026241766328751884afa7fe8ffffffffffffffffffffffffffffffffffffffffffffffffffffffffffffffff",
        "nonce": "0x4de",
        "chainId": "0xaa36a7"
      },
      "additionalContracts": [],
      "isFixedGasLimit": false
    },
    {
      "hash": "0x05eb9c1e63a9afe39649252d0302a3e910d661f58b9d971b082d300b45c9b6e9",
      "transactionType": "CALL",
      "contractName": null,
      "contractAddress": "0x17ceb8da41205f1026241766328751884afa7fe8",
      "function": "setL2EndpointAddress(uint256)",
      "arguments": [
        "2716788009235838147547197326281004790292360285087890483483596014460959451708"
      ],
      "transaction": {
        "from": "0xddb342ecc94236c29a5307d3757d0724d759453c",
        "to": "0x17ceb8da41205f1026241766328751884afa7fe8",
        "gas": "0xa23f",
        "value": "0x0",
        "input": "0x5155fb2f0601a5c3f09119bc381509ed202e5c37d09132ff6448140f621781343e07ea3c",
        "nonce": "0x4df",
        "chainId": "0xaa36a7"
      },
      "additionalContracts": [],
      "isFixedGasLimit": false
    }
  ],
  "receipts": [
    {
      "status": "0x1",
      "cumulativeGasUsed": "0xe920a8",
      "logs": [
        {
          "address": "0xca14007eff0db1f8135f4c25b34de49ab0d42766",
          "topics": [
            "0x8c5be1e5ebec7d5bd14f71427d1e84f3dd0314c0f7b2291e5b200ac8c7c3b925",
            "0x000000000000000000000000ddb342ecc94236c29a5307d3757d0724d759453c",
            "0x00000000000000000000000017ceb8da41205f1026241766328751884afa7fe8"
          ],
          "data": "0xffffffffffffffffffffffffffffffffffffffffffffffffffffffffffffffff",
          "blockHash": "0x7935f5c1e9c9f70edcc36b129782f15f4db640491968450c7a14b55f06a54341",
          "blockNumber": "0x72f6e6",
          "transactionHash": "0x79722fef2faf6c5a2159fea60a4133dfe7d1cc79bf5695d0f454dc66e8b59181",
          "transactionIndex": "0x89",
          "logIndex": "0xb2",
          "removed": false
        }
      ],
      "logsBloom": "0x00000000000000000000000000000000000000000000000000000000000000000000000000000000000000000800000000000000000000000000000000200000000000000000000000000000000000000000000000000000000000000000000400000000000000000000000000000000400000000000000000000000400000000000000000000000000000000000000000000000000000000000000000000000020000000000000000000000000000000000000000000000000000000000000000000000000000020000000000000000020000000000000000800000000000000010000000400000000000000000000000000000001000000000000000000000",
      "type": "0x2",
      "transactionHash": "0x79722fef2faf6c5a2159fea60a4133dfe7d1cc79bf5695d0f454dc66e8b59181",
      "transactionIndex": "0x89",
      "blockHash": "0x7935f5c1e9c9f70edcc36b129782f15f4db640491968450c7a14b55f06a54341",
      "blockNumber": "0x72f6e6",
      "gasUsed": "0x6ae8",
      "effectiveGasPrice": "0x42f76aab",
      "from": "0xddb342ecc94236c29a5307d3757d0724d759453c",
      "to": "0xca14007eff0db1f8135f4c25b34de49ab0d42766",
      "contractAddress": null
    },
    {
      "status": "0x1",
      "cumulativeGasUsed": "0xe9961f",
      "logs": [
        {
          "address": "0x17ceb8da41205f1026241766328751884afa7fe8",
          "topics": [
            "0xa35dce9e53611b0cabca886209c4a1d09c80214af9b6fb6027f7b2f7c39838e8"
          ],
          "data": "0x0601a5c3f09119bc381509ed202e5c37d09132ff6448140f621781343e07ea3c",
          "blockHash": "0x7935f5c1e9c9f70edcc36b129782f15f4db640491968450c7a14b55f06a54341",
          "blockNumber": "0x72f6e6",
          "transactionHash": "0x05eb9c1e63a9afe39649252d0302a3e910d661f58b9d971b082d300b45c9b6e9",
          "transactionIndex": "0x8a",
          "logIndex": "0xb3",
          "removed": false
        }
      ],
      "logsBloom": "0x00000000000000000000000010000000000000000000000000000000000000000000000000000000000000000000000000000000000000000000000000000000000000000000000000000000000200000000000000000000000000000000000000000000000000000000000000000000000000000000000000000000000000000000000000000000000000000000000000000000000000000000000000000000800000000000000000000000000000000000000004000000000000000000002800000000000000000000000000000000000000000000000000000000000000000000000000000000000000000000000000000000000000000000000000000000",
      "type": "0x2",
      "transactionHash": "0x05eb9c1e63a9afe39649252d0302a3e910d661f58b9d971b082d300b45c9b6e9",
      "transactionIndex": "0x8a",
      "blockHash": "0x7935f5c1e9c9f70edcc36b129782f15f4db640491968450c7a14b55f06a54341",
      "blockNumber": "0x72f6e6",
      "gasUsed": "0x7577",
      "effectiveGasPrice": "0x42f76aab",
      "from": "0xddb342ecc94236c29a5307d3757d0724d759453c",
      "to": "0x17ceb8da41205f1026241766328751884afa7fe8",
      "contractAddress": null
    }
  ],
  "libraries": [],
  "pending": [],
  "returns": {},
  "timestamp": 1737395942,
  "chain": 11155111,
  "commit": "fcbff6b"
}