{
  "transactions": [
    {
      "hash": "0xd3907ea9d5bc19965636d3f0f08993e4fb7639d8689191deba7c563d4bde069f",
      "transactionType": "CALL",
      "contractName": "StarkNetToken",
      "contractAddress": "0xCa14007Eff0dB1f8135f4C25B34De49AB0d42766",
      "function": "approve(address,uint256)",
      "arguments": [
        "0xcE5485Cfb26914C5dcE00B9BAF0580364daFC7a4",
        "115792089237316195423570985008687907853269984665640564039457584007913129639935"
      ],
      "transaction": {
        "type": "0x02",
        "from": "0xddb342ecc94236c29a5307d3757d0724d759453c",
        "to": "0xca14007eff0db1f8135f4c25b34de49ab0d42766",
        "gas": "0x93a9",
        "value": "0x0",
        "data": "0x095ea7b3000000000000000000000000ce5485cfb26914c5dce00b9baf0580364dafc7a4ffffffffffffffffffffffffffffffffffffffffffffffffffffffffffffffff",
        "nonce": "0x320",
        "accessList": []
      },
      "additionalContracts": [],
      "isFixedGasLimit": false
    },
    {
      "hash": "0x32aac0f9ed2c7c2830194f62674bf019c0abc688c73af8d8da6f4e5ef2d6f435",
      "transactionType": "CALL",
      "contractName": "Proxy",
      "contractAddress": "0xcE5485Cfb26914C5dcE00B9BAF0580364daFC7a4",
      "function": "deposit(uint256,uint256)",
      "arguments": [
        "50000000000000000",
        "1679293599215612895602115969234718662272992800232045406787472908163456150857"
      ],
      "transaction": {
        "type": "0x02",
        "from": "0xddb342ecc94236c29a5307d3757d0724d759453c",
        "to": "0xce5485cfb26914c5dce00b9baf0580364dafc7a4",
        "gas": "0x29b00",
        "value": "0x38d7ea4c68000",
        "data": "0xe2bbb15800000000000000000000000000000000000000000000000000b1a2bc2ec5000003b6724d785f6666fd9f8047206141799a1020ebe21fe5d5a11d45524d5bad49",
        "nonce": "0x321",
        "accessList": []
      },
      "additionalContracts": [],
      "isFixedGasLimit": false
    },
    {
      "hash": "0x15f9ce5bd2b38c4beb83c95eb7e81e65165abc1f73e198a59fb2e63503a472f0",
      "transactionType": "CALL",
      "contractName": "Proxy",
      "contractAddress": "0xE2Bb56ee936fd6433DC0F6e7e3b8365C906AA057",
      "function": "sendMessageToL2(uint256,uint256,uint256[])",
      "arguments": [
        "1679293599215612895602115969234718662272992800232045406787472908163456150857",
        "425952401605428413817582304755919420533935873840436977667370850915372091056",
        "[0, 1265684623727634235329190328445374361672779121980, 2009894490435840142178314390393166646092438090257831307886760648929397478285, 2366254414417873771392932940469309727793822550615514268240785277201753657472, 170141183460469235273462165868118016, 1731743888, 1731743952, 50000000000000000, 2524392021852001135582825949054576525094493216367559068627275826195272239197]"
      ],
      "transaction": {
        "type": "0x02",
        "from": "0xddb342ecc94236c29a5307d3757d0724d759453c",
        "to": "0xe2bb56ee936fd6433dc0f6e7e3b8365c906aa057",
        "gas": "0x17855",
        "value": "0x38d7ea4c68000",
        "data": "0x3e3aa6c503b6724d785f6666fd9f8047206141799a1020ebe21fe5d5a11d45524d5bad4900f1149cade9d692862ad41df96b108aa2c20af34f640457e781d166c98dc6b0000000000000000000000000000000000000000000000000000000000000006000000000000000000000000000000000000000000000000000000000000000090000000000000000000000000000000000000000000000000000000000000000000000000000000000000000ddb342ecc94236c29a5307d3757d0724d759453c04718f5a0fc34cc1af16a1cdee98ffb20c31f5cd61d6ab07201858f4287c938d053b40a647cedfca6ca84f542a0fe36736031905a9639a7f19a3c1e66bfd5080000000000000000000000000000000000020c49ba5e353f80000000000000000000000000000000000000000000000000000000000000000000000006738509000000000000000000000000000000000000000000000000000000000673850d000000000000000000000000000000000000000000000000000b1a2bc2ec500000594c1582459ea03f77deaf9eb7e3917d6994a03c13405ba42867f83d85f085d",
        "nonce": "0x322",
        "accessList": []
      },
      "additionalContracts": [],
      "isFixedGasLimit": false
    }
  ],
  "receipts": [
    {
      "transactionHash": "0xd3907ea9d5bc19965636d3f0f08993e4fb7639d8689191deba7c563d4bde069f",
      "transactionIndex": "0x2",
      "blockHash": "0x5dac4948bfc34e85173d80f42ccb33d2caddef3d163f0cc8cae5faee6e5e0c4b",
      "blockNumber": "0x6c258c",
      "from": "0xDdb342ecc94236c29a5307d3757d0724D759453C",
      "to": "0xCa14007Eff0dB1f8135f4C25B34De49AB0d42766",
      "cumulativeGasUsed": "0x10ef8",
      "gasUsed": "0x6ae8",
      "contractAddress": null,
      "logs": [
        {
          "address": "0xCa14007Eff0dB1f8135f4C25B34De49AB0d42766",
          "topics": [
            "0x8c5be1e5ebec7d5bd14f71427d1e84f3dd0314c0f7b2291e5b200ac8c7c3b925",
            "0x000000000000000000000000ddb342ecc94236c29a5307d3757d0724d759453c",
            "0x000000000000000000000000ce5485cfb26914c5dce00b9baf0580364dafc7a4"
          ],
          "data": "0xffffffffffffffffffffffffffffffffffffffffffffffffffffffffffffffff",
          "blockHash": "0x5dac4948bfc34e85173d80f42ccb33d2caddef3d163f0cc8cae5faee6e5e0c4b",
          "blockNumber": "0x6c258c",
          "transactionHash": "0xd3907ea9d5bc19965636d3f0f08993e4fb7639d8689191deba7c563d4bde069f",
          "transactionIndex": "0x2",
          "logIndex": "0x0",
          "removed": false
        }
      ],
      "status": "0x1",
      "logsBloom": "0x00000000000000000000000000000000000000000000000000000000000000000000000000000000000000000000000000000000000000000000000000200000000000000000000000000000000000000000000000000000000000000000000400000000000000000000000000000000400000000000000000000000400008000000000000000000000000000000000000000000000000000000000000000000020000000000000000000000000000001000000000000000000000000000000000000000000000020010000000000000000000000000000000800000000000000010000000000000000000000000000000000000001000000000000000000000",
      "type": "0x2",
      "effectiveGasPrice": "0xd09d45e8"
    },
    {
      "transactionHash": "0x32aac0f9ed2c7c2830194f62674bf019c0abc688c73af8d8da6f4e5ef2d6f435",
      "transactionIndex": "0x3",
      "blockHash": "0x5dac4948bfc34e85173d80f42ccb33d2caddef3d163f0cc8cae5faee6e5e0c4b",
      "blockNumber": "0x6c258c",
      "from": "0xDdb342ecc94236c29a5307d3757d0724D759453C",
      "to": "0xcE5485Cfb26914C5dcE00B9BAF0580364daFC7a4",
      "cumulativeGasUsed": "0x2f1de",
      "gasUsed": "0x1e2e6",
      "contractAddress": null,
      "logs": [
        {
          "address": "0xCa14007Eff0dB1f8135f4C25B34De49AB0d42766",
          "topics": [
            "0xddf252ad1be2c89b69c2b068fc378daa952ba7f163c4a11628f55a4df523b3ef",
            "0x000000000000000000000000ddb342ecc94236c29a5307d3757d0724d759453c",
            "0x000000000000000000000000ce5485cfb26914c5dce00b9baf0580364dafc7a4"
          ],
          "data": "0x00000000000000000000000000000000000000000000000000b1a2bc2ec50000",
          "blockHash": "0x5dac4948bfc34e85173d80f42ccb33d2caddef3d163f0cc8cae5faee6e5e0c4b",
          "blockNumber": "0x6c258c",
          "transactionHash": "0x32aac0f9ed2c7c2830194f62674bf019c0abc688c73af8d8da6f4e5ef2d6f435",
          "transactionIndex": "0x3",
          "logIndex": "0x1",
          "removed": false
        },
        {
          "address": "0xE2Bb56ee936fd6433DC0F6e7e3b8365C906AA057",
          "topics": [
            "0xdb80dd488acf86d17c747445b0eabb5d57c541d3bd7b6b87af987858e5066b2b",
            "0x000000000000000000000000ce5485cfb26914c5dce00b9baf0580364dafc7a4",
            "0x0594c1582459ea03f77deaf9eb7e3917d6994a03c13405ba42867f83d85f085d",
            "0x01b64b1b3b690b43b9b514fb81377518f4039cd3e4f4914d8a6bdf01d679fb19"
          ],
          "data": "0x0000000000000000000000000000000000000000000000000000000000000060000000000000000000000000000000000000000000000000000000000000288c00000000000000000000000000000000000000000000000000038d7ea4c680000000000000000000000000000000000000000000000000000000000000000005000000000000000000000000ca14007eff0db1f8135f4c25b34de49ab0d42766000000000000000000000000ddb342ecc94236c29a5307d3757d0724d759453c03b6724d785f6666fd9f8047206141799a1020ebe21fe5d5a11d45524d5bad4900000000000000000000000000000000000000000000000000b1a2bc2ec500000000000000000000000000000000000000000000000000000000000000000000",
          "blockHash": "0x5dac4948bfc34e85173d80f42ccb33d2caddef3d163f0cc8cae5faee6e5e0c4b",
          "blockNumber": "0x6c258c",
          "transactionHash": "0x32aac0f9ed2c7c2830194f62674bf019c0abc688c73af8d8da6f4e5ef2d6f435",
          "transactionIndex": "0x3",
          "logIndex": "0x2",
          "removed": false
        },
        {
          "address": "0xcE5485Cfb26914C5dcE00B9BAF0580364daFC7a4",
          "topics": [
            "0x5f971bd00bf3ffbca8a6d72cdd4fd92cfd4f62636161921d1e5a64f0b64ccb6d",
            "0x000000000000000000000000ddb342ecc94236c29a5307d3757d0724d759453c",
            "0x000000000000000000000000ca14007eff0db1f8135f4c25b34de49ab0d42766",
            "0x03b6724d785f6666fd9f8047206141799a1020ebe21fe5d5a11d45524d5bad49"
          ],
          "data": "0x00000000000000000000000000000000000000000000000000b1a2bc2ec50000000000000000000000000000000000000000000000000000000000000000288c00000000000000000000000000000000000000000000000000038d7ea4c68000",
          "blockHash": "0x5dac4948bfc34e85173d80f42ccb33d2caddef3d163f0cc8cae5faee6e5e0c4b",
          "blockNumber": "0x6c258c",
          "transactionHash": "0x32aac0f9ed2c7c2830194f62674bf019c0abc688c73af8d8da6f4e5ef2d6f435",
          "transactionIndex": "0x3",
          "logIndex": "0x3",
          "removed": false
        },
        {
          "address": "0xcE5485Cfb26914C5dcE00B9BAF0580364daFC7a4",
          "topics": [
            "0x5b5dbc6c64043a15d3fe6943a6e443a826b78755edc257b2ec890c022225dbcf",
            "0x000000000000000000000000ddb342ecc94236c29a5307d3757d0724d759453c",
            "0x03b6724d785f6666fd9f8047206141799a1020ebe21fe5d5a11d45524d5bad49"
          ],
          "data": "0x00000000000000000000000000000000000000000000000000b1a2bc2ec50000000000000000000000000000000000000000000000000000000000000000288c00000000000000000000000000000000000000000000000000038d7ea4c68000",
          "blockHash": "0x5dac4948bfc34e85173d80f42ccb33d2caddef3d163f0cc8cae5faee6e5e0c4b",
          "blockNumber": "0x6c258c",
          "transactionHash": "0x32aac0f9ed2c7c2830194f62674bf019c0abc688c73af8d8da6f4e5ef2d6f435",
          "transactionIndex": "0x3",
          "logIndex": "0x4",
          "removed": false
        }
      ],
      "status": "0x1",
      "logsBloom": "0x00000000000000000200000000020000000000000000000000000000000000400000004000000000000000000000000000000000000004000000000000000000000000000400000000000008080000000000000000000040001000000000000400000000100000000000000000000000400000000000000000000010400008002000000000000000000100000400000000000000000200000000020000000010000000000000000000000020000000001000000000000020000000000000000000000002000000024010000000000000000000200000200000800000000000000000000000010000000000020084000000000000011000000002000000000000",
      "type": "0x2",
      "effectiveGasPrice": "0xd09d45e8"
    },
    {
      "transactionHash": "0x15f9ce5bd2b38c4beb83c95eb7e81e65165abc1f73e198a59fb2e63503a472f0",
      "transactionIndex": "0x4",
      "blockHash": "0x5dac4948bfc34e85173d80f42ccb33d2caddef3d163f0cc8cae5faee6e5e0c4b",
      "blockNumber": "0x6c258c",
      "from": "0xDdb342ecc94236c29a5307d3757d0724D759453C",
      "to": "0xE2Bb56ee936fd6433DC0F6e7e3b8365C906AA057",
      "cumulativeGasUsed": "0x3f331",
      "gasUsed": "0x10153",
      "contractAddress": null,
      "logs": [
        {
          "address": "0xE2Bb56ee936fd6433DC0F6e7e3b8365C906AA057",
          "topics": [
            "0xdb80dd488acf86d17c747445b0eabb5d57c541d3bd7b6b87af987858e5066b2b",
            "0x000000000000000000000000ddb342ecc94236c29a5307d3757d0724d759453c",
            "0x03b6724d785f6666fd9f8047206141799a1020ebe21fe5d5a11d45524d5bad49",
            "0x00f1149cade9d692862ad41df96b108aa2c20af34f640457e781d166c98dc6b0"
          ],
          "data": "0x0000000000000000000000000000000000000000000000000000000000000060000000000000000000000000000000000000000000000000000000000000288d00000000000000000000000000000000000000000000000000038d7ea4c6800000000000000000000000000000000000000000000000000000000000000000090000000000000000000000000000000000000000000000000000000000000000000000000000000000000000ddb342ecc94236c29a5307d3757d0724d759453c04718f5a0fc34cc1af16a1cdee98ffb20c31f5cd61d6ab07201858f4287c938d053b40a647cedfca6ca84f542a0fe36736031905a9639a7f19a3c1e66bfd5080000000000000000000000000000000000020c49ba5e353f80000000000000000000000000000000000000000000000000000000000000000000000006738509000000000000000000000000000000000000000000000000000000000673850d000000000000000000000000000000000000000000000000000b1a2bc2ec500000594c1582459ea03f77deaf9eb7e3917d6994a03c13405ba42867f83d85f085d",
          "blockHash": "0x5dac4948bfc34e85173d80f42ccb33d2caddef3d163f0cc8cae5faee6e5e0c4b",
          "blockNumber": "0x6c258c",
          "transactionHash": "0x15f9ce5bd2b38c4beb83c95eb7e81e65165abc1f73e198a59fb2e63503a472f0",
          "transactionIndex": "0x4",
          "logIndex": "0x5",
          "removed": false
        }
      ],
      "status": "0x1",
      "logsBloom": "0x00400000000000000000000000020000000000000000000000000000000000000000000000000000000000000000000000000000000000000000000000000000000000000000000000000000000000000000000000000040001000000000000400000000100000010000000000000000400000000000000000000000400000000000000000000000000100000000000004000000000000000000000000000010000000000000000000000020000000000000000000000000000000000000000000000000000000000000000000000000000000000000000000000000000000000000000000000000000000000000000000000000010000000002000000000000",
      "type": "0x2",
      "effectiveGasPrice": "0xd09d45e8"
    }
  ],
  "libraries": [],
  "pending": [],
  "returns": {},
  "timestamp": 1731743934,
  "chain": 11155111,
  "multi": false,
  "commit": "945f7f2"
}