{
  "transactions": [
    {
      "hash": "0xd5dc70f6e6d8bef359449215a85cdb39a48329e02901bfb92b60db4fb083a233",
      "transactionType": "CALL",
      "contractName": null,
      "contractAddress": "0xca14007eff0db1f8135f4c25b34de49ab0d42766",
      "function": "approve(address,uint256)",
      "arguments": [
        "0x8c3F4901dfAf00f43B11554d96Db04FAe340479E",
        "115792089237316195423570985008687907853269984665640564039457584007913129639935"
      ],
      "transaction": {
        "from": "0xddb342ecc94236c29a5307d3757d0724d759453c",
        "to": "0xca14007eff0db1f8135f4c25b34de49ab0d42766",
        "gas": "0xfef7",
        "value": "0x0",
        "input": "0x095ea7b30000000000000000000000008c3f4901dfaf00f43b11554d96db04fae340479effffffffffffffffffffffffffffffffffffffffffffffffffffffffffffffff",
        "nonce": "0x498",
        "chainId": "0xaa36a7"
      },
      "additionalContracts": [],
      "isFixedGasLimit": false
    },
    {
      "hash": "0xb2c2b482ac9f748fdd5e810a571d584e7572363de99a3f8c00e127a3765ff91a",
      "transactionType": "CALL",
      "contractName": null,
      "contractAddress": "0x8c3f4901dfaf00f43b11554d96db04fae340479e",
      "function": "depositAndCreateOrder((address,uint256,uint256,uint128,uint128,uint128,uint128,address))",
      "arguments": [
        "(0xDdb342ecc94236c29a5307d3757d0724D759453C, 2009894490435840142178314390393166646092438090257831307886760648929397478285, 2366254414417873771392932940469309727793822550615514268240785277201753657472, 170141183460469235273462165868118016, 1736649856, 1736649984, 700000000000000, 0x8c3F4901dfAf00f43B11554d96Db04FAe340479E)"
      ],
      "transaction": {
        "from": "0xddb342ecc94236c29a5307d3757d0724d759453c",
        "to": "0x8c3f4901dfaf00f43b11554d96db04fae340479e",
        "gas": "0x43134",
        "value": "0x1c6bf52634000",
        "input": "0x056f296a000000000000000000000000ddb342ecc94236c29a5307d3757d0724d759453c04718f5a0fc34cc1af16a1cdee98ffb20c31f5cd61d6ab07201858f4287c938d053b40a647cedfca6ca84f542a0fe36736031905a9639a7f19a3c1e66bfd5080000000000000000000000000000000000020c49ba5e353f800000000000000000000000000000000000000000000000000000000000000000000000067832c800000000000000000000000000000000000000000000000000000000067832d0000000000000000000000000000000000000000000000000000027ca57357c0000000000000000000000000008c3f4901dfaf00f43b11554d96db04fae340479e",
        "nonce": "0x499",
        "chainId": "0xaa36a7"
      },
      "additionalContracts": [],
      "isFixedGasLimit": false
    }
  ],
  "receipts": [
    {
      "status": "0x1",
      "cumulativeGasUsed": "0xd00498",
      "logs": [
        {
          "address": "0xca14007eff0db1f8135f4c25b34de49ab0d42766",
          "topics": [
            "0x8c5be1e5ebec7d5bd14f71427d1e84f3dd0314c0f7b2291e5b200ac8c7c3b925",
            "0x000000000000000000000000ddb342ecc94236c29a5307d3757d0724d759453c",
            "0x0000000000000000000000008c3f4901dfaf00f43b11554d96db04fae340479e"
          ],
          "data": "0xffffffffffffffffffffffffffffffffffffffffffffffffffffffffffffffff",
          "blockHash": "0x973cf0c6ebeac489009229ca84087e55ac42e690fe0e6b0882f8cf0603f80eb6",
          "blockNumber": "0x720518",
          "transactionHash": "0xd5dc70f6e6d8bef359449215a85cdb39a48329e02901bfb92b60db4fb083a233",
          "transactionIndex": "0x5e",
          "logIndex": "0x9f",
          "removed": false
        }
      ],
      "logsBloom": "0x00000000000000000000000000000000000000000000000000000000000000000000000000000000000000000000000000000000000000000000000000200000000000000000000000000000000000000000000000000000000000000000000400000000000000000000000000000000400000000000000000000000400000000000000000000000000000000000000000000000000000000000100000000000020000000000000000000000000000000200000000000000000000000000000000002000000000020000000000000000000000000000000000800000000000000010000000000000000000000000000000000000001000000000000000000000",
      "type": "0x2",
      "transactionHash": "0xd5dc70f6e6d8bef359449215a85cdb39a48329e02901bfb92b60db4fb083a233",
      "transactionIndex": "0x5e",
      "blockHash": "0x973cf0c6ebeac489009229ca84087e55ac42e690fe0e6b0882f8cf0603f80eb6",
      "blockNumber": "0x720518",
      "gasUsed": "0xb898",
      "effectiveGasPrice": "0x1025e8144",
      "from": "0xddb342ecc94236c29a5307d3757d0724d759453c",
      "to": "0xca14007eff0db1f8135f4c25b34de49ab0d42766",
      "contractAddress": null
    },
    {
      "status": "0x1",
      "cumulativeGasUsed": "0xd30d94",
      "logs": [
        {
          "address": "0xca14007eff0db1f8135f4c25b34de49ab0d42766",
          "topics": [
            "0x8c5be1e5ebec7d5bd14f71427d1e84f3dd0314c0f7b2291e5b200ac8c7c3b925",
            "0x0000000000000000000000008c3f4901dfaf00f43b11554d96db04fae340479e",
            "0x0000000000000000000000008c3f4901dfaf00f43b11554d96db04fae340479e"
          ],
          "data": "0x00000000000000000000000000000000000000000000000000027ca57357c000",
          "blockHash": "0x973cf0c6ebeac489009229ca84087e55ac42e690fe0e6b0882f8cf0603f80eb6",
          "blockNumber": "0x720518",
          "transactionHash": "0xb2c2b482ac9f748fdd5e810a571d584e7572363de99a3f8c00e127a3765ff91a",
          "transactionIndex": "0x5f",
          "logIndex": "0xa0",
          "removed": false
        },
        {
          "address": "0xca14007eff0db1f8135f4c25b34de49ab0d42766",
          "topics": [
            "0xddf252ad1be2c89b69c2b068fc378daa952ba7f163c4a11628f55a4df523b3ef",
            "0x000000000000000000000000ddb342ecc94236c29a5307d3757d0724d759453c",
            "0x0000000000000000000000008c3f4901dfaf00f43b11554d96db04fae340479e"
          ],
          "data": "0x00000000000000000000000000000000000000000000000000027ca57357c000",
          "blockHash": "0x973cf0c6ebeac489009229ca84087e55ac42e690fe0e6b0882f8cf0603f80eb6",
          "blockNumber": "0x720518",
          "transactionHash": "0xb2c2b482ac9f748fdd5e810a571d584e7572363de99a3f8c00e127a3765ff91a",
          "transactionIndex": "0x5f",
          "logIndex": "0xa1",
          "removed": false
        },
        {
          "address": "0xca14007eff0db1f8135f4c25b34de49ab0d42766",
          "topics": [
            "0x8c5be1e5ebec7d5bd14f71427d1e84f3dd0314c0f7b2291e5b200ac8c7c3b925",
            "0x0000000000000000000000008c3f4901dfaf00f43b11554d96db04fae340479e",
            "0x000000000000000000000000ce5485cfb26914c5dce00b9baf0580364dafc7a4"
          ],
          "data": "0x00000000000000000000000000000000000000000000000000027ca57357c000",
          "blockHash": "0x973cf0c6ebeac489009229ca84087e55ac42e690fe0e6b0882f8cf0603f80eb6",
          "blockNumber": "0x720518",
          "transactionHash": "0xb2c2b482ac9f748fdd5e810a571d584e7572363de99a3f8c00e127a3765ff91a",
          "transactionIndex": "0x5f",
          "logIndex": "0xa2",
          "removed": false
        },
        {
          "address": "0xca14007eff0db1f8135f4c25b34de49ab0d42766",
          "topics": [
            "0x8c5be1e5ebec7d5bd14f71427d1e84f3dd0314c0f7b2291e5b200ac8c7c3b925",
            "0x0000000000000000000000008c3f4901dfaf00f43b11554d96db04fae340479e",
            "0x000000000000000000000000ce5485cfb26914c5dce00b9baf0580364dafc7a4"
          ],
          "data": "0x0000000000000000000000000000000000000000000000000000000000000000",
          "blockHash": "0x973cf0c6ebeac489009229ca84087e55ac42e690fe0e6b0882f8cf0603f80eb6",
          "blockNumber": "0x720518",
          "transactionHash": "0xb2c2b482ac9f748fdd5e810a571d584e7572363de99a3f8c00e127a3765ff91a",
          "transactionIndex": "0x5f",
          "logIndex": "0xa3",
          "removed": false
        },
        {
          "address": "0xca14007eff0db1f8135f4c25b34de49ab0d42766",
          "topics": [
            "0xddf252ad1be2c89b69c2b068fc378daa952ba7f163c4a11628f55a4df523b3ef",
            "0x0000000000000000000000008c3f4901dfaf00f43b11554d96db04fae340479e",
            "0x000000000000000000000000ce5485cfb26914c5dce00b9baf0580364dafc7a4"
          ],
          "data": "0x00000000000000000000000000000000000000000000000000027ca57357c000",
          "blockHash": "0x973cf0c6ebeac489009229ca84087e55ac42e690fe0e6b0882f8cf0603f80eb6",
          "blockNumber": "0x720518",
          "transactionHash": "0xb2c2b482ac9f748fdd5e810a571d584e7572363de99a3f8c00e127a3765ff91a",
          "transactionIndex": "0x5f",
          "logIndex": "0xa4",
          "removed": false
        },
        {
          "address": "0xe2bb56ee936fd6433dc0f6e7e3b8365c906aa057",
          "topics": [
            "0xdb80dd488acf86d17c747445b0eabb5d57c541d3bd7b6b87af987858e5066b2b",
            "0x000000000000000000000000ce5485cfb26914c5dce00b9baf0580364dafc7a4",
            "0x0594c1582459ea03f77deaf9eb7e3917d6994a03c13405ba42867f83d85f085d",
            "0x008bce41827dd5484d80312a2e43bc42a896e3fcf75bf84c2b49339168dfa00a"
          ],
          "data": "0x00000000000000000000000000000000000000000000000000000000000000600000000000000000000000000000000000000000000000000000000000002b830000000000000000000000000000000000000000000000000001c6bf52634000000000000000000000000000000000000000000000000000000000000000000f000000000000000000000000ca14007eff0db1f8135f4c25b34de49ab0d427660000000000000000000000008c3f4901dfaf00f43b11554d96db04fae340479e002303a0e4fd858af5f1f053586f4af81fbea049ad91e2d24d97f735e020059a00000000000000000000000000000000000000000000000000027ca57357c000000000000000000000000000000000000000000000000000000000000000000000000000000000000000000000000000000000000000000000000000000000090000000000000000000000000000000000000000000000000000000000000000000000000000000000000000ddb342ecc94236c29a5307d3757d0724d759453c04718f5a0fc34cc1af16a1cdee98ffb20c31f5cd61d6ab07201858f4287c938d053b40a647cedfca6ca84f542a0fe36736031905a9639a7f19a3c1e66bfd5080000000000000000000000000000000000020c49ba5e353f800000000000000000000000000000000000000000000000000000000000000000000000067832c800000000000000000000000000000000000000000000000000000000067832d0000000000000000000000000000000000000000000000000000027ca57357c0000000000000000000000000008c3f4901dfaf00f43b11554d96db04fae340479e",
          "blockHash": "0x973cf0c6ebeac489009229ca84087e55ac42e690fe0e6b0882f8cf0603f80eb6",
          "blockNumber": "0x720518",
          "transactionHash": "0xb2c2b482ac9f748fdd5e810a571d584e7572363de99a3f8c00e127a3765ff91a",
          "transactionIndex": "0x5f",
          "logIndex": "0xa5",
          "removed": false
        },
        {
          "address": "0xce5485cfb26914c5dce00b9baf0580364dafc7a4",
          "topics": [
            "0x2203a49c69f1a46c1164f5e4a30643dd77b7c59c0ff9bc433256048365c247f1",
            "0x0000000000000000000000008c3f4901dfaf00f43b11554d96db04fae340479e",
            "0x000000000000000000000000ca14007eff0db1f8135f4c25b34de49ab0d42766",
            "0x002303a0e4fd858af5f1f053586f4af81fbea049ad91e2d24d97f735e020059a"
          ],
          "data": "0x00000000000000000000000000000000000000000000000000027ca57357c00000000000000000000000000000000000000000000000000000000000000000800000000000000000000000000000000000000000000000000000000000002b830000000000000000000000000000000000000000000000000001c6bf5263400000000000000000000000000000000000000000000000000000000000000000090000000000000000000000000000000000000000000000000000000000000000000000000000000000000000ddb342ecc94236c29a5307d3757d0724d759453c04718f5a0fc34cc1af16a1cdee98ffb20c31f5cd61d6ab07201858f4287c938d053b40a647cedfca6ca84f542a0fe36736031905a9639a7f19a3c1e66bfd5080000000000000000000000000000000000020c49ba5e353f800000000000000000000000000000000000000000000000000000000000000000000000067832c800000000000000000000000000000000000000000000000000000000067832d0000000000000000000000000000000000000000000000000000027ca57357c0000000000000000000000000008c3f4901dfaf00f43b11554d96db04fae340479e",
          "blockHash": "0x973cf0c6ebeac489009229ca84087e55ac42e690fe0e6b0882f8cf0603f80eb6",
          "blockNumber": "0x720518",
          "transactionHash": "0xb2c2b482ac9f748fdd5e810a571d584e7572363de99a3f8c00e127a3765ff91a",
          "transactionIndex": "0x5f",
          "logIndex": "0xa6",
          "removed": false
        },
        {
          "address": "0x8c3f4901dfaf00f43b11554d96db04fae340479e",
          "topics": [
            "0xaf43445f7721522b7a3864ed3de53d7e2e658bfa1eeffa18e1e229be68ce2545",
            "0x000000000000000000000000ddb342ecc94236c29a5307d3757d0724d759453c",
            "0x002303a0e4fd858af5f1f053586f4af81fbea049ad91e2d24d97f735e020059a"
          ],
          "data": "0x00000000000000000000000000000000000000000000000000027ca57357c0000000000000000000000000000000000000000000000000000000000000000001",
          "blockHash": "0x973cf0c6ebeac489009229ca84087e55ac42e690fe0e6b0882f8cf0603f80eb6",
          "blockNumber": "0x720518",
          "transactionHash": "0xb2c2b482ac9f748fdd5e810a571d584e7572363de99a3f8c00e127a3765ff91a",
          "transactionIndex": "0x5f",
          "logIndex": "0xa7",
          "removed": false
        }
      ],
      "logsBloom": "0x00000200000000000000000000020000000000000000000100000040000000000000000000004000000000000000000000000000000004000000020000200000000000000000000000000008080000000000000000000040001000000000000600000000100000000000000000000000400000000000000000000010400008002000000000000000010400020000000000008000000200000000100000000010020000800000000000000020000000021200000000000000001000000000000000802002000000024010000000000000000000200000000000800000000000000010000000010000000000020004000000000000001000020000000000000000",
      "type": "0x2",
      "transactionHash": "0xb2c2b482ac9f748fdd5e810a571d584e7572363de99a3f8c00e127a3765ff91a",
      "transactionIndex": "0x5f",
      "blockHash": "0x973cf0c6ebeac489009229ca84087e55ac42e690fe0e6b0882f8cf0603f80eb6",
      "blockNumber": "0x720518",
      "gasUsed": "0x308fc",
      "effectiveGasPrice": "0x1025e8144",
      "from": "0xddb342ecc94236c29a5307d3757d0724d759453c",
      "to": "0x8c3f4901dfaf00f43b11554d96db04fae340479e",
      "contractAddress": null
    }
  ],
  "libraries": [],
  "pending": [],
  "returns": {},
  "timestamp": 1736649878,
  "chain": 11155111,
  "commit": "81b7af0"
}