{
  "transactions": [
    {
      "hash": "0x80f8009f66f50db705833a075e31918ef738a7dfe3fcafcbdf802df2d9a2ad76",
      "transactionType": "CALL",
      "contractName": null,
      "contractAddress": "0xca14007eff0db1f8135f4c25b34de49ab0d42766",
      "function": "approve(address,uint256)",
      "arguments": [
        "0xcE5485Cfb26914C5dcE00B9BAF0580364daFC7a4",
        "115792089237316195423570985008687907853269984665640564039457584007913129639935"
      ],
      "transaction": {
        "from": "0xddb342ecc94236c29a5307d3757d0724d759453c",
        "to": "0xca14007eff0db1f8135f4c25b34de49ab0d42766",
        "gas": "0x93a9",
        "value": "0x0",
        "input": "0x095ea7b3000000000000000000000000ce5485cfb26914c5dce00b9baf0580364dafc7a4ffffffffffffffffffffffffffffffffffffffffffffffffffffffffffffffff",
        "nonce": "0x43e",
        "chainId": "0xaa36a7"
      },
      "additionalContracts": [],
      "isFixedGasLimit": false
    },
    {
      "hash": "0xbd72c5c64d4450a74586defb79f2db3b3904b6dca08b1163017cf9d9fdd4705f",
      "transactionType": "CALL",
      "contractName": null,
      "contractAddress": "0xce5485cfb26914c5dce00b9baf0580364dafc7a4",
      "function": "depositWithMessage(address,uint256,uint256,uint256[])",
      "arguments": [
        "0xCa14007Eff0dB1f8135f4C25B34De49AB0d42766",
        "700000000000000",
        "3586015861891504113677942014027311239337062804802480740628931090825570889132",
        "[0, 1265684623727634235329190328445374361672779121980, 2009894490435840142178314390393166646092438090257831307886760648929397478285, 2366254414417873771392932940469309727793822550615514268240785277201753657472, 170141183460469235273462165868118016, 1736153120, 1736153248, 700000000000000]"
      ],
      "transaction": {
        "from": "0xddb342ecc94236c29a5307d3757d0724d759453c",
        "to": "0xce5485cfb26914c5dce00b9baf0580364dafc7a4",
        "gas": "0x2d960",
        "value": "0x1c6bf52634000",
        "input": "0xbe58b18e000000000000000000000000ca14007eff0db1f8135f4c25b34de49ab0d4276600000000000000000000000000000000000000000000000000027ca57357c00007ed9cf0e9f5c200f303cbb97d6d834497fc99833f9e5eb7b728a4e40f972dac000000000000000000000000000000000000000000000000000000000000008000000000000000000000000000000000000000000000000000000000000000080000000000000000000000000000000000000000000000000000000000000000000000000000000000000000ddb342ecc94236c29a5307d3757d0724d759453c04718f5a0fc34cc1af16a1cdee98ffb20c31f5cd61d6ab07201858f4287c938d053b40a647cedfca6ca84f542a0fe36736031905a9639a7f19a3c1e66bfd5080000000000000000000000000000000000020c49ba5e353f8000000000000000000000000000000000000000000000000000000000000000000000000677b982000000000000000000000000000000000000000000000000000000000677b98a000000000000000000000000000000000000000000000000000027ca57357c000",
        "nonce": "0x43f",
        "chainId": "0xaa36a7"
      },
      "additionalContracts": [],
      "isFixedGasLimit": false
    }
  ],
  "receipts": [
    {
      "status": "0x1",
      "cumulativeGasUsed": "0xc35bdf",
      "logs": [
        {
          "address": "0xca14007eff0db1f8135f4c25b34de49ab0d42766",
          "topics": [
            "0x8c5be1e5ebec7d5bd14f71427d1e84f3dd0314c0f7b2291e5b200ac8c7c3b925",
            "0x000000000000000000000000ddb342ecc94236c29a5307d3757d0724d759453c",
            "0x000000000000000000000000ce5485cfb26914c5dce00b9baf0580364dafc7a4"
          ],
          "data": "0xffffffffffffffffffffffffffffffffffffffffffffffffffffffffffffffff",
          "blockHash": "0x45f5430eda8f141f823a784a01275e0f8cf21acad33cd882fbd5dd5494927914",
          "blockNumber": "0x716778",
          "transactionHash": "0x80f8009f66f50db705833a075e31918ef738a7dfe3fcafcbdf802df2d9a2ad76",
          "transactionIndex": "0x58",
          "logIndex": "0xe5",
          "removed": false
        }
      ],
      "logsBloom": "0x00000000000000000000000000000000000000000000000000000000000000000000000000000000000000000000000000000000000000000000000000200000000000000000000000000000000000000000000000000000000000000000000400000000000000000000000000000000400000000000000000000000400008000000000000000000000000000000000000000000000000000000000000000000020000000000000000000000000000001000000000000000000000000000000000000000000000020010000000000000000000000000000000800000000000000010000000000000000000000000000000000000001000000000000000000000",
      "type": "0x2",
      "transactionHash": "0x80f8009f66f50db705833a075e31918ef738a7dfe3fcafcbdf802df2d9a2ad76",
      "transactionIndex": "0x58",
      "blockHash": "0x45f5430eda8f141f823a784a01275e0f8cf21acad33cd882fbd5dd5494927914",
      "blockNumber": "0x716778",
      "gasUsed": "0x6ae8",
      "effectiveGasPrice": "0x82da70771",
      "from": "0xddb342ecc94236c29a5307d3757d0724d759453c",
      "to": "0xca14007eff0db1f8135f4c25b34de49ab0d42766",
      "contractAddress": null
    },
    {
      "status": "0x1",
      "cumulativeGasUsed": "0xc56bee",
      "logs": [
        {
          "address": "0xca14007eff0db1f8135f4c25b34de49ab0d42766",
          "topics": [
            "0xddf252ad1be2c89b69c2b068fc378daa952ba7f163c4a11628f55a4df523b3ef",
            "0x000000000000000000000000ddb342ecc94236c29a5307d3757d0724d759453c",
            "0x000000000000000000000000ce5485cfb26914c5dce00b9baf0580364dafc7a4"
          ],
          "data": "0x00000000000000000000000000000000000000000000000000027ca57357c000",
          "blockHash": "0x45f5430eda8f141f823a784a01275e0f8cf21acad33cd882fbd5dd5494927914",
          "blockNumber": "0x716778",
          "transactionHash": "0xbd72c5c64d4450a74586defb79f2db3b3904b6dca08b1163017cf9d9fdd4705f",
          "transactionIndex": "0x59",
          "logIndex": "0xe6",
          "removed": false
        },
        {
          "address": "0xe2bb56ee936fd6433dc0f6e7e3b8365c906aa057",
          "topics": [
            "0xdb80dd488acf86d17c747445b0eabb5d57c541d3bd7b6b87af987858e5066b2b",
            "0x000000000000000000000000ce5485cfb26914c5dce00b9baf0580364dafc7a4",
            "0x0594c1582459ea03f77deaf9eb7e3917d6994a03c13405ba42867f83d85f085d",
            "0x008bce41827dd5484d80312a2e43bc42a896e3fcf75bf84c2b49339168dfa00a"
          ],
          "data": "0x00000000000000000000000000000000000000000000000000000000000000600000000000000000000000000000000000000000000000000000000000002b280000000000000000000000000000000000000000000000000001c6bf52634000000000000000000000000000000000000000000000000000000000000000000e000000000000000000000000ca14007eff0db1f8135f4c25b34de49ab0d42766000000000000000000000000ddb342ecc94236c29a5307d3757d0724d759453c07ed9cf0e9f5c200f303cbb97d6d834497fc99833f9e5eb7b728a4e40f972dac00000000000000000000000000000000000000000000000000027ca57357c000000000000000000000000000000000000000000000000000000000000000000000000000000000000000000000000000000000000000000000000000000000080000000000000000000000000000000000000000000000000000000000000000000000000000000000000000ddb342ecc94236c29a5307d3757d0724d759453c04718f5a0fc34cc1af16a1cdee98ffb20c31f5cd61d6ab07201858f4287c938d053b40a647cedfca6ca84f542a0fe36736031905a9639a7f19a3c1e66bfd5080000000000000000000000000000000000020c49ba5e353f8000000000000000000000000000000000000000000000000000000000000000000000000677b982000000000000000000000000000000000000000000000000000000000677b98a000000000000000000000000000000000000000000000000000027ca57357c000",
          "blockHash": "0x45f5430eda8f141f823a784a01275e0f8cf21acad33cd882fbd5dd5494927914",
          "blockNumber": "0x716778",
          "transactionHash": "0xbd72c5c64d4450a74586defb79f2db3b3904b6dca08b1163017cf9d9fdd4705f",
          "transactionIndex": "0x59",
          "logIndex": "0xe7",
          "removed": false
        },
        {
          "address": "0xce5485cfb26914c5dce00b9baf0580364dafc7a4",
          "topics": [
            "0x2203a49c69f1a46c1164f5e4a30643dd77b7c59c0ff9bc433256048365c247f1",
            "0x000000000000000000000000ddb342ecc94236c29a5307d3757d0724d759453c",
            "0x000000000000000000000000ca14007eff0db1f8135f4c25b34de49ab0d42766",
            "0x07ed9cf0e9f5c200f303cbb97d6d834497fc99833f9e5eb7b728a4e40f972dac"
          ],
          "data": "0x00000000000000000000000000000000000000000000000000027ca57357c00000000000000000000000000000000000000000000000000000000000000000800000000000000000000000000000000000000000000000000000000000002b280000000000000000000000000000000000000000000000000001c6bf5263400000000000000000000000000000000000000000000000000000000000000000080000000000000000000000000000000000000000000000000000000000000000000000000000000000000000ddb342ecc94236c29a5307d3757d0724d759453c04718f5a0fc34cc1af16a1cdee98ffb20c31f5cd61d6ab07201858f4287c938d053b40a647cedfca6ca84f542a0fe36736031905a9639a7f19a3c1e66bfd5080000000000000000000000000000000000020c49ba5e353f8000000000000000000000000000000000000000000000000000000000000000000000000677b982000000000000000000000000000000000000000000000000000000000677b98a000000000000000000000000000000000000000000000000000027ca57357c000",
          "blockHash": "0x45f5430eda8f141f823a784a01275e0f8cf21acad33cd882fbd5dd5494927914",
          "blockNumber": "0x716778",
          "transactionHash": "0xbd72c5c64d4450a74586defb79f2db3b3904b6dca08b1163017cf9d9fdd4705f",
          "transactionIndex": "0x59",
          "logIndex": "0xe8",
          "removed": false
        }
      ],
      "logsBloom": "0x00000000000000000000000000020000000000000000000000000040000000000000000000000000000000000000000000000000000004000000020000000000000000400000000000000008080000000000000000000040001000000000000400000000100000000000002000000000410000000000000000000010400008002000000000000000000000020000000000008000000200000000000000000010000000000000000000000020000000021000000000000000000000000000000000800002000000024010000000000000000000200000000000800000000000000000000000010000000000020004000000000000001000000000000000000000",
      "type": "0x2",
      "transactionHash": "0xbd72c5c64d4450a74586defb79f2db3b3904b6dca08b1163017cf9d9fdd4705f",
      "transactionIndex": "0x59",
      "blockHash": "0x45f5430eda8f141f823a784a01275e0f8cf21acad33cd882fbd5dd5494927914",
      "blockNumber": "0x716778",
      "gasUsed": "0x2100f",
      "effectiveGasPrice": "0x82da70771",
      "from": "0xddb342ecc94236c29a5307d3757d0724d759453c",
      "to": "0xce5485cfb26914c5dce00b9baf0580364dafc7a4",
      "contractAddress": null
    }
  ],
  "libraries": [],
  "pending": [],
  "returns": {},
  "timestamp": 1736153137,
  "chain": 11155111,
  "commit": "3ea534e"
}