{
  "transactions": [
    {
      "hash": "0x52a491fc1fadacd3f6b8675e2e2af609a7f96cabaad4dd617a38dfb73d670263",
      "transactionType": "CALL",
      "contractName": null,
      "contractAddress": "0xca14007eff0db1f8135f4c25b34de49ab0d42766",
      "function": "approve(address,uint256)",
      "arguments": [
        "0x17fDD4243F21a38fc4eD5cc9b0954706E3d4b474",
        "115792089237316195423570985008687907853269984665640564039457584007913129639935"
      ],
      "transaction": {
        "from": "0x1b382a7b4496f14e0aaa2da1e1626da400426a03",
        "to": "0xca14007eff0db1f8135f4c25b34de49ab0d42766",
        "gas": "0xff08",
        "value": "0x0",
        "input": "0x095ea7b300000000000000000000000017fdd4243f21a38fc4ed5cc9b0954706e3d4b474ffffffffffffffffffffffffffffffffffffffffffffffffffffffffffffffff",
        "nonce": "0xf5",
        "chainId": "0xaa36a7"
      },
      "additionalContracts": [],
      "isFixedGasLimit": false
    },
    {
      "hash": "0xf7705046af44c8f872ca16153f099a94a59aa935d03b7a7e5e7f0a1ab3ae6c5f",
      "transactionType": "CALL",
      "contractName": null,
      "contractAddress": "0x17fdd4243f21a38fc4ed5cc9b0954706e3d4b474",
      "function": "_sendMessage(uint256,uint256,uint256[])",
      "arguments": [
        "1198744612080150266867724772749533856342102238504638307692048955575403606030",
        "148648911813996339441237705416989480313666662291090082193117818992478592220",
        "[2]"
      ],
      "transaction": {
        "from": "0x1b382a7b4496f14e0aaa2da1e1626da400426a03",
        "to": "0x17fdd4243f21a38fc4ed5cc9b0954706e3d4b474",
        "gas": "0x182bd",
        "value": "0x38d7ea4c68000",
        "input": "0x88f439ef02a67724e1df2248b9cb493376862a3e8bd71b817ba29dba944f640413e4f00e005421de947699472df434466845d68528f221a52fce7ad2934c5dae2e1f1cdc000000000000000000000000000000000000000000000000000000000000006000000000000000000000000000000000000000000000000000000000000000010000000000000000000000000000000000000000000000000000000000000002",
        "nonce": "0xf6",
        "chainId": "0xaa36a7"
      },
      "additionalContracts": [],
      "isFixedGasLimit": false
    }
  ],
  "receipts": [
    {
      "status": "0x1",
      "cumulativeGasUsed": "0xd93e51",
      "logs": [
        {
          "address": "0xca14007eff0db1f8135f4c25b34de49ab0d42766",
          "topics": [
            "0x8c5be1e5ebec7d5bd14f71427d1e84f3dd0314c0f7b2291e5b200ac8c7c3b925",
            "0x0000000000000000000000001b382a7b4496f14e0aaa2da1e1626da400426a03",
            "0x00000000000000000000000017fdd4243f21a38fc4ed5cc9b0954706e3d4b474"
          ],
          "data": "0xffffffffffffffffffffffffffffffffffffffffffffffffffffffffffffffff",
          "blockHash": "0xc109d75b9d17f39f873c83645bcd7eb5121451a556a2870b0c7fe2d94fd1a497",
          "blockNumber": "0x6b4bb7",
          "transactionHash": "0x52a491fc1fadacd3f6b8675e2e2af609a7f96cabaad4dd617a38dfb73d670263",
          "transactionIndex": "0x46",
          "logIndex": "0xac",
          "removed": false
        }
      ],
      "logsBloom": "0x00000000000000000000800000000000000000000000000000000000000000000000000000000000000000000000000000000000000000000000000000200000000000000000000000000000000000000000000000000000000000000000000000000000000000000000000000000000000000000010000020000010000000040000000000000000000000000000000000000000000000000000000000000000020000000000000000000000000000001000000000000000000000000000000000000000000000020000000000000000000000000000000000800000000000000010000000000000000000000000000000000000001000000000000000000000",
      "type": "0x2",
      "transactionHash": "0x52a491fc1fadacd3f6b8675e2e2af609a7f96cabaad4dd617a38dfb73d670263",
      "transactionIndex": "0x46",
      "blockHash": "0xc109d75b9d17f39f873c83645bcd7eb5121451a556a2870b0c7fe2d94fd1a497",
      "blockNumber": "0x6b4bb7",
      "gasUsed": "0xb8a4",
      "effectiveGasPrice": "0x1073e6066",
      "blobGasUsed": "0x0",
      "from": "0x1b382a7b4496f14e0aaa2da1e1626da400426a03",
      "to": "0xca14007eff0db1f8135f4c25b34de49ab0d42766",
      "contractAddress": null
    },
    {
      "status": "0x1",
      "cumulativeGasUsed": "0xdaa858",
      "logs": [
        {
          "address": "0xe2bb56ee936fd6433dc0f6e7e3b8365c906aa057",
          "topics": [
            "0xdb80dd488acf86d17c747445b0eabb5d57c541d3bd7b6b87af987858e5066b2b",
            "0x00000000000000000000000017fdd4243f21a38fc4ed5cc9b0954706e3d4b474",
            "0x02a67724e1df2248b9cb493376862a3e8bd71b817ba29dba944f640413e4f00e",
            "0x005421de947699472df434466845d68528f221a52fce7ad2934c5dae2e1f1cdc"
          ],
          "data": "0x0000000000000000000000000000000000000000000000000000000000000060000000000000000000000000000000000000000000000000000000000000278f00000000000000000000000000000000000000000000000000038d7ea4c6800000000000000000000000000000000000000000000000000000000000000000010000000000000000000000000000000000000000000000000000000000000002",
          "blockHash": "0xc109d75b9d17f39f873c83645bcd7eb5121451a556a2870b0c7fe2d94fd1a497",
          "blockNumber": "0x6b4bb7",
          "transactionHash": "0xf7705046af44c8f872ca16153f099a94a59aa935d03b7a7e5e7f0a1ab3ae6c5f",
          "transactionIndex": "0x48",
          "logIndex": "0xad",
          "removed": false
        }
      ],
      "logsBloom": "0x000000000000000000008000000200000000000000000000000000002000010000000000000000000000000000000000000000000000000000000000000000000000000000000000000000000000000000000000000000400010000000000000000000001000000000000000000a0000000000008000000000000010000000000000000000000000000040000000000000000000000000000000000000000010000000000000000000000020000000001000000000000000000000000000000000000000000000000000000000000000000000000000000000000000000000000000000000000000000000000000000000000000000000000000000000000000",
      "type": "0x2",
      "transactionHash": "0xf7705046af44c8f872ca16153f099a94a59aa935d03b7a7e5e7f0a1ab3ae6c5f",
      "transactionIndex": "0x48",
      "blockHash": "0xc109d75b9d17f39f873c83645bcd7eb5121451a556a2870b0c7fe2d94fd1a497",
      "blockNumber": "0x6b4bb7",
      "gasUsed": "0x117ff",
      "effectiveGasPrice": "0x1073e6066",
      "blobGasUsed": "0x0",
      "from": "0x1b382a7b4496f14e0aaa2da1e1626da400426a03",
      "to": "0x17fdd4243f21a38fc4ed5cc9b0954706e3d4b474",
      "contractAddress": null
    }
  ],
  "libraries": [],
  "pending": [],
  "returns": {},
  "timestamp": 1731004791,
  "chain": 11155111,
  "commit": "7c9bc56"
}