{
  "transactions": [
    {
      "hash": "0x435d6292a198cef011603258a331f75d4a498c3f6990729127becd1720ff5226",
      "transactionType": "CALL",
      "contractName": "StarkNetToken",
      "contractAddress": "0xCa14007Eff0dB1f8135f4C25B34De49AB0d42766",
      "function": "approve(address,uint256)",
      "arguments": [
        "0x7eb4C59eABE1234E8A6D02FdF4d1BB595C4702Cd",
        "115792089237316195423570985008687907853269984665640564039457584007913129639935"
      ],
      "transaction": {
        "type": "0x02",
        "from": "0xddb342ecc94236c29a5307d3757d0724d759453c",
        "to": "0xca14007eff0db1f8135f4c25b34de49ab0d42766",
        "gas": "0x93a9",
        "value": "0x0",
        "data": "0x095ea7b30000000000000000000000007eb4c59eabe1234e8a6d02fdf4d1bb595c4702cdffffffffffffffffffffffffffffffffffffffffffffffffffffffffffffffff",
        "nonce": "0x368",
        "accessList": []
      },
      "additionalContracts": [],
      "isFixedGasLimit": false
    },
    {
      "hash": "0x722505bbcb3e27fe16210c4e4dbf200ca6439cb818f4f1842c284cde2fcb67a4",
      "transactionType": "CALL",
      "contractName": null,
      "contractAddress": "0x7eb4C59eABE1234E8A6D02FdF4d1BB595C4702Cd",
      "function": "setL2EndpointAddress(uint256)",
      "arguments": [
        "1638036633545184602566549297785375826980333648743316795678353027257451851748"
      ],
      "transaction": {
        "type": "0x02",
        "from": "0xddb342ecc94236c29a5307d3757d0724d759453c",
        "to": "0x7eb4c59eabe1234e8a6d02fdf4d1bb595c4702cd",
        "gas": "0xabab",
        "value": "0x0",
        "data": "0x5155fb2f039f188b8fdd579c88331fd5f4808ce559fa9765e5104499728022ff562aafe4",
        "nonce": "0x369",
        "accessList": []
      },
      "additionalContracts": [],
      "isFixedGasLimit": false
    }
  ],
  "receipts": [],
  "libraries": [],
  "pending": [
    "0x435d6292a198cef011603258a331f75d4a498c3f6990729127becd1720ff5226",
    "0x722505bbcb3e27fe16210c4e4dbf200ca6439cb818f4f1842c284cde2fcb67a4"
  ],
  "returns": {},
  "timestamp": 1732636068,
  "chain": 11155111,
  "multi": false,
  "commit": "1254ada"
}