{
  "transactions": [
    {
      "hash": "0xa1ce1f4cf040d22342d6157d2b4851450828ae10c59b354f6972a7343f3288e9",
      "transactionType": "CALL",
      "contractName": "StarkNetToken",
      "contractAddress": "0xCa14007Eff0dB1f8135f4C25B34De49AB0d42766",
      "function": "approve(address,uint256)",
      "arguments": [
        "0x37BbD079182437e5539F5502D941511decBf644e",
        "115792089237316195423570985008687907853269984665640564039457584007913129639935"
      ],
      "transaction": {
        "type": "0x02",
        "from": "0xddb342ecc94236c29a5307d3757d0724d759453c",
        "to": "0xca14007eff0db1f8135f4c25b34de49ab0d42766",
        "gas": "0x93a9",
        "value": "0x0",
        "data": "0x095ea7b300000000000000000000000037bbd079182437e5539f5502d941511decbf644effffffffffffffffffffffffffffffffffffffffffffffffffffffffffffffff",
        "nonce": "0x21e",
        "accessList": []
      },
      "additionalContracts": [],
      "isFixedGasLimit": false
    },
    {
      "hash": "0x5e43bb434613073800e5fbdf724cc7e2f65ce09c770fec5a1c111702d352cd15",
      "transactionType": "CALL",
      "contractName": "StarkNetToken",
      "contractAddress": "0xCa14007Eff0dB1f8135f4C25B34De49AB0d42766",
      "function": "transfer(address,uint256)",
      "arguments": [
        "0x37BbD079182437e5539F5502D941511decBf644e",
        "1000000000000000"
      ],
      "transaction": {
        "type": "0x02",
        "from": "0xddb342ecc94236c29a5307d3757d0724d759453c",
        "to": "0xca14007eff0db1f8135f4c25b34de49ab0d42766",
        "gas": "0x133bd",
        "value": "0x0",
        "data": "0xa9059cbb00000000000000000000000037bbd079182437e5539f5502d941511decbf644e00000000000000000000000000000000000000000000000000038d7ea4c68000",
        "nonce": "0x21f",
        "accessList": []
      },
      "additionalContracts": [],
      "isFixedGasLimit": false
    },
    {
      "hash": "0xc92a3dda38811afe9c1ba28c0f7e6cfa7a82fa46af36a8da5ed818990bae8002",
      "transactionType": "CALL",
      "contractName": "L1TWAMMBridge",
      "contractAddress": "0x37BbD079182437e5539F5502D941511decBf644e",
      "function": "depositAndCreateOrder((address,uint256,uint256,uint128,uint128,uint128,uint128,uint256))",
      "arguments": [
        "(0xDdb342ecc94236c29a5307d3757d0724D759453C, 2009894490435840142178314390393166646092438090257831307886760648929397478285, 2366254414417873771392932940469309727793822550615514268240785277201753657472, 0, 1730992816, 1730992880, 1000000000000000, 1763984883458940013138224183067070650379048596409881380243345922799428278472)"
      ],
      "transaction": {
        "type": "0x02",
        "from": "0xddb342ecc94236c29a5307d3757d0724d759453c",
        "to": "0x37bbd079182437e5539f5502d941511decbf644e",
        "gas": "0x3e2b2",
        "value": "0x38d7ea4c68000",
        "data": "0x5ce510fa000000000000000000000000ddb342ecc94236c29a5307d3757d0724d759453c04718f5a0fc34cc1af16a1cdee98ffb20c31f5cd61d6ab07201858f4287c938d053b40a647cedfca6ca84f542a0fe36736031905a9639a7f19a3c1e66bfd5080000000000000000000000000000000000000000000000000000000000000000000000000000000000000000000000000000000000000000000000000672cdab000000000000000000000000000000000000000000000000000000000672cdaf000000000000000000000000000000000000000000000000000038d7ea4c6800003e6614bcb616ced009959d75803257971686ac7af7f18dd969cc1351e0d98c8",
        "nonce": "0x220",
        "accessList": []
      },
      "additionalContracts": [],
      "isFixedGasLimit": false
    }
  ],
  "receipts": [],
  "libraries": [],
  "pending": [
    "0xa1ce1f4cf040d22342d6157d2b4851450828ae10c59b354f6972a7343f3288e9",
    "0x5e43bb434613073800e5fbdf724cc7e2f65ce09c770fec5a1c111702d352cd15",
    "0xc92a3dda38811afe9c1ba28c0f7e6cfa7a82fa46af36a8da5ed818990bae8002"
  ],
  "returns": {},
  "timestamp": 1730992853,
  "chain": 11155111,
  "multi": false,
  "commit": "e344443"
}