{
  "transactions": [
    {
      "hash": "0xb94280410cf7d8f229759df57b37464218bc68c0f440e5fb3f26bcc6fe9e19e9",
      "transactionType": "CALL",
      "contractName": null,
      "contractAddress": "0xca14007eff0db1f8135f4c25b34de49ab0d42766",
      "function": "approve(address,uint256)",
      "arguments": [
        "0x4E3d409Bf0583cD9D2Cdb58265B9C6f15556325d",
        "115792089237316195423570985008687907853269984665640564039457584007913129639935"
      ],
      "transaction": {
        "from": "0x1b382a7b4496f14e0aaa2da1e1626da400426a03",
        "to": "0xca14007eff0db1f8135f4c25b34de49ab0d42766",
        "gas": "0x93a9",
        "value": "0x0",
        "input": "0x095ea7b30000000000000000000000004e3d409bf0583cd9d2cdb58265b9c6f15556325dffffffffffffffffffffffffffffffffffffffffffffffffffffffffffffffff",
        "nonce": "0xed",
        "chainId": "0xaa36a7"
      },
      "additionalContracts": [],
      "isFixedGasLimit": false
    },
    {
      "hash": "0x8ea4c4bbee3f1ad41dbe979791f3fd0b8ce4c7123b1a54b7ebd0f5c96b79ed4f",
      "transactionType": "CALL",
      "contractName": null,
      "contractAddress": "0xca14007eff0db1f8135f4c25b34de49ab0d42766",
      "function": "transfer(address,uint256)",
      "arguments": [
        "0x4E3d409Bf0583cD9D2Cdb58265B9C6f15556325d",
        "10000000000000000"
      ],
      "transaction": {
        "from": "0x1b382a7b4496f14e0aaa2da1e1626da400426a03",
        "to": "0xca14007eff0db1f8135f4c25b34de49ab0d42766",
        "gas": "0xd76a",
        "value": "0x0",
        "input": "0xa9059cbb0000000000000000000000004e3d409bf0583cd9d2cdb58265b9c6f15556325d000000000000000000000000000000000000000000000000002386f26fc10000",
        "nonce": "0xee",
        "chainId": "0xaa36a7"
      },
      "additionalContracts": [],
      "isFixedGasLimit": false
    },
    {
      "hash": "0x8cf61d5208ff053f99cba450eed76ce35f980f3d44b5c416e1ba9a2e00b63423",
      "transactionType": "CALL",
      "contractName": null,
      "contractAddress": "0x4e3d409bf0583cd9d2cdb58265b9c6f15556325d",
      "function": "initiateWithdrawal(uint256)",
      "arguments": [
        "0"
      ],
      "transaction": {
        "from": "0x1b382a7b4496f14e0aaa2da1e1626da400426a03",
        "to": "0x4e3d409bf0583cd9d2cdb58265b9c6f15556325d",
        "gas": "0x18cfa",
        "value": "0x2386f26fc10000",
        "input": "0x12edde5e0000000000000000000000000000000000000000000000000000000000000000",
        "nonce": "0xef",
        "chainId": "0xaa36a7"
      },
      "additionalContracts": [],
      "isFixedGasLimit": false
    }
  ],
  "receipts": [
    {
      "status": "0x1",
      "cumulativeGasUsed": "0x698cd8",
      "logs": [
        {
          "address": "0xca14007eff0db1f8135f4c25b34de49ab0d42766",
          "topics": [
            "0x8c5be1e5ebec7d5bd14f71427d1e84f3dd0314c0f7b2291e5b200ac8c7c3b925",
            "0x0000000000000000000000001b382a7b4496f14e0aaa2da1e1626da400426a03",
            "0x0000000000000000000000004e3d409bf0583cd9d2cdb58265b9c6f15556325d"
          ],
          "data": "0xffffffffffffffffffffffffffffffffffffffffffffffffffffffffffffffff",
          "blockHash": "0xcf49beec8ed6b55d6ae302ed6163573fc743f09c4935f5e89b1a16ab4c299c2a",
          "blockNumber": "0x6b3b07",
          "transactionHash": "0xb94280410cf7d8f229759df57b37464218bc68c0f440e5fb3f26bcc6fe9e19e9",
          "transactionIndex": "0x12",
          "logIndex": "0x2e",
          "removed": false
        }
      ],
      "logsBloom": "0x00000400000000000000000008000000000000000000000000000000000000000000000000000000000000000000000000000000000000000000000000200000000000000000000000000000000000000000000000000000000000000000000000000000000000000000000000000000000000000010000020000000000000040000000000000000000000000000000000000000000000000000000000000000020000000000000000000000000000000000000000000000000000000000000000000000000000020000000000000000000000000000000000800000000000002010000000000000000000000000000000000000001000000000000000000000",
      "type": "0x2",
      "transactionHash": "0xb94280410cf7d8f229759df57b37464218bc68c0f440e5fb3f26bcc6fe9e19e9",
      "transactionIndex": "0x12",
      "blockHash": "0xcf49beec8ed6b55d6ae302ed6163573fc743f09c4935f5e89b1a16ab4c299c2a",
      "blockNumber": "0x6b3b07",
      "gasUsed": "0x6ae8",
      "effectiveGasPrice": "0x279f133eb",
      "blobGasUsed": "0x0",
      "from": "0x1b382a7b4496f14e0aaa2da1e1626da400426a03",
      "to": "0xca14007eff0db1f8135f4c25b34de49ab0d42766",
      "contractAddress": null
    },
    {
      "status": "0x1",
      "cumulativeGasUsed": "0x6a28cd",
      "logs": [
        {
          "address": "0xca14007eff0db1f8135f4c25b34de49ab0d42766",
          "topics": [
            "0xddf252ad1be2c89b69c2b068fc378daa952ba7f163c4a11628f55a4df523b3ef",
            "0x0000000000000000000000001b382a7b4496f14e0aaa2da1e1626da400426a03",
            "0x0000000000000000000000004e3d409bf0583cd9d2cdb58265b9c6f15556325d"
          ],
          "data": "0x000000000000000000000000000000000000000000000000002386f26fc10000",
          "blockHash": "0xcf49beec8ed6b55d6ae302ed6163573fc743f09c4935f5e89b1a16ab4c299c2a",
          "blockNumber": "0x6b3b07",
          "transactionHash": "0x8ea4c4bbee3f1ad41dbe979791f3fd0b8ce4c7123b1a54b7ebd0f5c96b79ed4f",
          "transactionIndex": "0x13",
          "logIndex": "0x2f",
          "removed": false
        }
      ],
      "logsBloom": "0x00000400000000000000000008000000000000000000000000000000000000000000000000000000000000000000000000000000000000000000000000000000000000000000000000000008000000000000000000000000000000000000000000000000000000000000000000000000000000000010000020000010000000040000000000000000000000000000000000000000000000000000000000000000000000000000000000000000000000000000000000000000000000000000000000000002000000020000000000000000000000000000000000800000000000002000000000000000000000000000000000000000001000000000000000000000",
      "type": "0x2",
      "transactionHash": "0x8ea4c4bbee3f1ad41dbe979791f3fd0b8ce4c7123b1a54b7ebd0f5c96b79ed4f",
      "transactionIndex": "0x13",
      "blockHash": "0xcf49beec8ed6b55d6ae302ed6163573fc743f09c4935f5e89b1a16ab4c299c2a",
      "blockNumber": "0x6b3b07",
      "gasUsed": "0x9bf5",
      "effectiveGasPrice": "0x279f133eb",
      "blobGasUsed": "0x0",
      "from": "0x1b382a7b4496f14e0aaa2da1e1626da400426a03",
      "to": "0xca14007eff0db1f8135f4c25b34de49ab0d42766",
      "contractAddress": null
    },
    {
      "status": "0x1",
      "cumulativeGasUsed": "0x6b4835",
      "logs": [
        {
          "address": "0xe2bb56ee936fd6433dc0f6e7e3b8365c906aa057",
          "topics": [
            "0xdb80dd488acf86d17c747445b0eabb5d57c541d3bd7b6b87af987858e5066b2b",
            "0x0000000000000000000000004e3d409bf0583cd9d2cdb58265b9c6f15556325d",
            "0x059ed9a2f59b0d0d4123a21d02ee64d3c3e9119b34494b73c70714ed4efa263c",
            "0x01b64b1b3b690b43b9b514fb81377518f4039cd3e4f4914d8a6bdf01d679fb19"
          ],
          "data": "0x00000000000000000000000000000000000000000000000000000000000000600000000000000000000000000000000000000000000000000000000000002776000000000000000000000000000000000000000000000000002386f26fc1000000000000000000000000000000000000000000000000000000000000000000010000000000000000000000000000000000000000000000000000000000000002",
          "blockHash": "0xcf49beec8ed6b55d6ae302ed6163573fc743f09c4935f5e89b1a16ab4c299c2a",
          "blockNumber": "0x6b3b07",
          "transactionHash": "0x8cf61d5208ff053f99cba450eed76ce35f980f3d44b5c416e1ba9a2e00b63423",
          "transactionIndex": "0x14",
          "logIndex": "0x30",
          "removed": false
        },
        {
          "address": "0x4e3d409bf0583cd9d2cdb58265b9c6f15556325d",
          "topics": [
            "0x6d92f7d3303f995bf21956bb0c51b388bae348eaf45c23debd2cfa3fcd9ec646",
            "0x0000000000000000000000001b382a7b4496f14e0aaa2da1e1626da400426a03"
          ],
          "data": "0x0000000000000000000000000000000000000000000000000000000000000000",
          "blockHash": "0xcf49beec8ed6b55d6ae302ed6163573fc743f09c4935f5e89b1a16ab4c299c2a",
          "blockNumber": "0x6b3b07",
          "transactionHash": "0x8cf61d5208ff053f99cba450eed76ce35f980f3d44b5c416e1ba9a2e00b63423",
          "transactionIndex": "0x14",
          "logIndex": "0x31",
          "removed": false
        }
      ],
      "logsBloom": "0x00000400000000000000000008020000000000000000000000000000000000400000000000000000000000000000000000000000000000000000000000000000000004000000000020000000000000000000000000000040001000000000000000000000100000000000000000000000000000000010000020000020000000040000000000000000000000000000000000000000400000000000000000000010000000000000000040000020000000000000000000000020000000000000000000000000000000000000001000000000000000000000000000000800000080002000001000000000000000000080000000000000000000000000000000000000",
      "type": "0x2",
      "transactionHash": "0x8cf61d5208ff053f99cba450eed76ce35f980f3d44b5c416e1ba9a2e00b63423",
      "transactionIndex": "0x14",
      "blockHash": "0xcf49beec8ed6b55d6ae302ed6163573fc743f09c4935f5e89b1a16ab4c299c2a",
      "blockNumber": "0x6b3b07",
      "gasUsed": "0x11f68",
      "effectiveGasPrice": "0x279f133eb",
      "blobGasUsed": "0x0",
      "from": "0x1b382a7b4496f14e0aaa2da1e1626da400426a03",
      "to": "0x4e3d409bf0583cd9d2cdb58265b9c6f15556325d",
      "contractAddress": null
    }
  ],
  "libraries": [],
  "pending": [],
  "returns": {},
  "timestamp": 1730948216,
  "chain": 11155111,
  "commit": "d32face"
}