{
  "transactions": [
    {
      "hash": "0x3ec188f8b3d9d674ed173f237521b39d60811b0ff8151a17629124757f8f4cc6",
      "transactionType": "CALL",
      "contractName": "StarkNetToken",
      "contractAddress": "0xCa14007Eff0dB1f8135f4C25B34De49AB0d42766",
      "function": "approve(address,uint256)",
      "arguments": [
        "0x7eb4C59eABE1234E8A6D02FdF4d1BB595C4702Cd",
        "115792089237316195423570985008687907853269984665640564039457584007913129639935"
      ],
      "transaction": {
        "type": "0x02",
        "from": "0xddb342ecc94236c29a5307d3757d0724d759453c",
        "to": "0xca14007eff0db1f8135f4c25b34de49ab0d42766",
        "gas": "0x93a9",
        "value": "0x0",
        "data": "0x095ea7b30000000000000000000000007eb4c59eabe1234e8a6d02fdf4d1bb595c4702cdffffffffffffffffffffffffffffffffffffffffffffffffffffffffffffffff",
        "nonce": "0x377",
        "accessList": []
      },
      "additionalContracts": [],
      "isFixedGasLimit": false
    },
    {
      "hash": "0xb4d6631f1b2b4673699c7f61435d4ba5d46a0ec5a9adf026b8d9eac03fca7430",
      "transactionType": "CALL",
      "contractName": null,
      "contractAddress": "0x7eb4C59eABE1234E8A6D02FdF4d1BB595C4702Cd",
      "function": "depositAndCreateOrder((address,uint256,uint256,uint128,uint128,uint128,uint128,uint256))",
      "arguments": [
        "(0xDdb342ecc94236c29a5307d3757d0724D759453C, 2009894490435840142178314390393166646092438090257831307886760648929397478285, 2366254414417873771392932940469309727793822550615514268240785277201753657472, 170141183460469235273462165868118016, 1732654320, 1732654384, 500000000000000, 3574983005729108333785250415627542978423840714815849409351804065483114960853)"
      ],
      "transaction": {
        "type": "0x02",
        "from": "0xddb342ecc94236c29a5307d3757d0724d759453c",
        "to": "0x7eb4c59eabe1234e8a6d02fdf4d1bb595c4702cd",
        "gas": "0x4515d",
        "value": "0x1c6bf52634000",
        "data": "0x5ce510fa000000000000000000000000ddb342ecc94236c29a5307d3757d0724d759453c04718f5a0fc34cc1af16a1cdee98ffb20c31f5cd61d6ab07201858f4287c938d053b40a647cedfca6ca84f542a0fe36736031905a9639a7f19a3c1e66bfd5080000000000000000000000000000000000020c49ba5e353f8000000000000000000000000000000000000000000000000000000000000000000000000674634f000000000000000000000000000000000000000000000000000000000674635300000000000000000000000000000000000000000000000000001c6bf5263400007e75e6188d73aaa530e1e5ae0b405dc8f4f73323cba3f63470fc94f31f457d5",
        "nonce": "0x378",
        "accessList": []
      },
      "additionalContracts": [],
      "isFixedGasLimit": false
    }
  ],
  "receipts": [
    {
      "transactionHash": "0x3ec188f8b3d9d674ed173f237521b39d60811b0ff8151a17629124757f8f4cc6",
      "transactionIndex": "0x0",
      "blockHash": "0xc52578f68810a56b9b774aca6da7ac6df1059e95e80db26851459c597d0738d9",
      "blockNumber": "0x6d3c17",
      "from": "0xDdb342ecc94236c29a5307d3757d0724D759453C",
      "to": "0xCa14007Eff0dB1f8135f4C25B34De49AB0d42766",
      "cumulativeGasUsed": "0x6ae8",
      "gasUsed": "0x6ae8",
      "contractAddress": null,
      "logs": [
        {
          "address": "0xCa14007Eff0dB1f8135f4C25B34De49AB0d42766",
          "topics": [
            "0x8c5be1e5ebec7d5bd14f71427d1e84f3dd0314c0f7b2291e5b200ac8c7c3b925",
            "0x000000000000000000000000ddb342ecc94236c29a5307d3757d0724d759453c",
            "0x0000000000000000000000007eb4c59eabe1234e8a6d02fdf4d1bb595c4702cd"
          ],
          "data": "0xffffffffffffffffffffffffffffffffffffffffffffffffffffffffffffffff",
          "blockHash": "0xc52578f68810a56b9b774aca6da7ac6df1059e95e80db26851459c597d0738d9",
          "blockNumber": "0x6d3c17",
          "transactionHash": "0x3ec188f8b3d9d674ed173f237521b39d60811b0ff8151a17629124757f8f4cc6",
          "transactionIndex": "0x0",
          "logIndex": "0x0",
          "removed": false
        }
      ],
      "status": "0x1",
      "logsBloom": "0x00000000000000100000000000000000000000000000000000000000000000000000000000000000000000000000000000000000000000000000000000200000000000000000000000000000000000000000000000000000000000000000000400020000000000000000000000000000400000000000000000000000400000000000000000000000000000000000000000000000000000000000000000000000020000000000000000000000000000008000000000000000000000000000000000000000000000020000000000000000000000000000000000800000000000000010000000000000000000000000000000000000001000000000000000000000",
      "type": "0x2",
      "effectiveGasPrice": "0x1014a89fc"
    },
    {
      "transactionHash": "0xb4d6631f1b2b4673699c7f61435d4ba5d46a0ec5a9adf026b8d9eac03fca7430",
      "transactionIndex": "0x1",
      "blockHash": "0xc52578f68810a56b9b774aca6da7ac6df1059e95e80db26851459c597d0738d9",
      "blockNumber": "0x6d3c17",
      "from": "0xDdb342ecc94236c29a5307d3757d0724D759453C",
      "to": "0x7eb4C59eABE1234E8A6D02FdF4d1BB595C4702Cd",
      "cumulativeGasUsed": "0x3871f",
      "gasUsed": "0x31c37",
      "contractAddress": null,
      "logs": [
        {
          "address": "0xCa14007Eff0dB1f8135f4C25B34De49AB0d42766",
          "topics": [
            "0xddf252ad1be2c89b69c2b068fc378daa952ba7f163c4a11628f55a4df523b3ef",
            "0x000000000000000000000000ddb342ecc94236c29a5307d3757d0724d759453c",
            "0x0000000000000000000000007eb4c59eabe1234e8a6d02fdf4d1bb595c4702cd"
          ],
          "data": "0x0000000000000000000000000000000000000000000000000001c6bf52634000",
          "blockHash": "0xc52578f68810a56b9b774aca6da7ac6df1059e95e80db26851459c597d0738d9",
          "blockNumber": "0x6d3c17",
          "transactionHash": "0xb4d6631f1b2b4673699c7f61435d4ba5d46a0ec5a9adf026b8d9eac03fca7430",
          "transactionIndex": "0x1",
          "logIndex": "0x1",
          "removed": false
        },
        {
          "address": "0xCa14007Eff0dB1f8135f4C25B34De49AB0d42766",
          "topics": [
            "0x8c5be1e5ebec7d5bd14f71427d1e84f3dd0314c0f7b2291e5b200ac8c7c3b925",
            "0x0000000000000000000000007eb4c59eabe1234e8a6d02fdf4d1bb595c4702cd",
            "0x000000000000000000000000ce5485cfb26914c5dce00b9baf0580364dafc7a4"
          ],
          "data": "0x0000000000000000000000000000000000000000000000000000000000000000",
          "blockHash": "0xc52578f68810a56b9b774aca6da7ac6df1059e95e80db26851459c597d0738d9",
          "blockNumber": "0x6d3c17",
          "transactionHash": "0xb4d6631f1b2b4673699c7f61435d4ba5d46a0ec5a9adf026b8d9eac03fca7430",
          "transactionIndex": "0x1",
          "logIndex": "0x2",
          "removed": false
        },
        {
          "address": "0xCa14007Eff0dB1f8135f4C25B34De49AB0d42766",
          "topics": [
            "0x8c5be1e5ebec7d5bd14f71427d1e84f3dd0314c0f7b2291e5b200ac8c7c3b925",
            "0x0000000000000000000000007eb4c59eabe1234e8a6d02fdf4d1bb595c4702cd",
            "0x000000000000000000000000ce5485cfb26914c5dce00b9baf0580364dafc7a4"
          ],
          "data": "0x0000000000000000000000000000000000000000000000000001c6bf52634000",
          "blockHash": "0xc52578f68810a56b9b774aca6da7ac6df1059e95e80db26851459c597d0738d9",
          "blockNumber": "0x6d3c17",
          "transactionHash": "0xb4d6631f1b2b4673699c7f61435d4ba5d46a0ec5a9adf026b8d9eac03fca7430",
          "transactionIndex": "0x1",
          "logIndex": "0x3",
          "removed": false
        },
        {
          "address": "0xCa14007Eff0dB1f8135f4C25B34De49AB0d42766",
          "topics": [
            "0x8c5be1e5ebec7d5bd14f71427d1e84f3dd0314c0f7b2291e5b200ac8c7c3b925",
            "0x0000000000000000000000007eb4c59eabe1234e8a6d02fdf4d1bb595c4702cd",
            "0x000000000000000000000000ce5485cfb26914c5dce00b9baf0580364dafc7a4"
          ],
          "data": "0x0000000000000000000000000000000000000000000000000000000000000000",
          "blockHash": "0xc52578f68810a56b9b774aca6da7ac6df1059e95e80db26851459c597d0738d9",
          "blockNumber": "0x6d3c17",
          "transactionHash": "0xb4d6631f1b2b4673699c7f61435d4ba5d46a0ec5a9adf026b8d9eac03fca7430",
          "transactionIndex": "0x1",
          "logIndex": "0x4",
          "removed": false
        },
        {
          "address": "0xCa14007Eff0dB1f8135f4C25B34De49AB0d42766",
          "topics": [
            "0xddf252ad1be2c89b69c2b068fc378daa952ba7f163c4a11628f55a4df523b3ef",
            "0x0000000000000000000000007eb4c59eabe1234e8a6d02fdf4d1bb595c4702cd",
            "0x000000000000000000000000ce5485cfb26914c5dce00b9baf0580364dafc7a4"
          ],
          "data": "0x0000000000000000000000000000000000000000000000000001c6bf52634000",
          "blockHash": "0xc52578f68810a56b9b774aca6da7ac6df1059e95e80db26851459c597d0738d9",
          "blockNumber": "0x6d3c17",
          "transactionHash": "0xb4d6631f1b2b4673699c7f61435d4ba5d46a0ec5a9adf026b8d9eac03fca7430",
          "transactionIndex": "0x1",
          "logIndex": "0x5",
          "removed": false
        },
        {
          "address": "0xE2Bb56ee936fd6433DC0F6e7e3b8365C906AA057",
          "topics": [
            "0xdb80dd488acf86d17c747445b0eabb5d57c541d3bd7b6b87af987858e5066b2b",
            "0x000000000000000000000000ce5485cfb26914c5dce00b9baf0580364dafc7a4",
            "0x0594c1582459ea03f77deaf9eb7e3917d6994a03c13405ba42867f83d85f085d",
            "0x01b64b1b3b690b43b9b514fb81377518f4039cd3e4f4914d8a6bdf01d679fb19"
          ],
          "data": "0x0000000000000000000000000000000000000000000000000000000000000060000000000000000000000000000000000000000000000000000000000000295200000000000000000000000000000000000000000000000000005af3107a40000000000000000000000000000000000000000000000000000000000000000005000000000000000000000000ca14007eff0db1f8135f4c25b34de49ab0d427660000000000000000000000007eb4c59eabe1234e8a6d02fdf4d1bb595c4702cd07e75e6188d73aaa530e1e5ae0b405dc8f4f73323cba3f63470fc94f31f457d50000000000000000000000000000000000000000000000000001c6bf526340000000000000000000000000000000000000000000000000000000000000000000",
          "blockHash": "0xc52578f68810a56b9b774aca6da7ac6df1059e95e80db26851459c597d0738d9",
          "blockNumber": "0x6d3c17",
          "transactionHash": "0xb4d6631f1b2b4673699c7f61435d4ba5d46a0ec5a9adf026b8d9eac03fca7430",
          "transactionIndex": "0x1",
          "logIndex": "0x6",
          "removed": false
        },
        {
          "address": "0xcE5485Cfb26914C5dcE00B9BAF0580364daFC7a4",
          "topics": [
            "0x5f971bd00bf3ffbca8a6d72cdd4fd92cfd4f62636161921d1e5a64f0b64ccb6d",
            "0x0000000000000000000000007eb4c59eabe1234e8a6d02fdf4d1bb595c4702cd",
            "0x000000000000000000000000ca14007eff0db1f8135f4c25b34de49ab0d42766",
            "0x07e75e6188d73aaa530e1e5ae0b405dc8f4f73323cba3f63470fc94f31f457d5"
          ],
          "data": "0x0000000000000000000000000000000000000000000000000001c6bf52634000000000000000000000000000000000000000000000000000000000000000295200000000000000000000000000000000000000000000000000005af3107a4000",
          "blockHash": "0xc52578f68810a56b9b774aca6da7ac6df1059e95e80db26851459c597d0738d9",
          "blockNumber": "0x6d3c17",
          "transactionHash": "0xb4d6631f1b2b4673699c7f61435d4ba5d46a0ec5a9adf026b8d9eac03fca7430",
          "transactionIndex": "0x1",
          "logIndex": "0x7",
          "removed": false
        },
        {
          "address": "0xE2Bb56ee936fd6433DC0F6e7e3b8365C906AA057",
          "topics": [
            "0xdb80dd488acf86d17c747445b0eabb5d57c541d3bd7b6b87af987858e5066b2b",
            "0x0000000000000000000000007eb4c59eabe1234e8a6d02fdf4d1bb595c4702cd",
            "0x07e75e6188d73aaa530e1e5ae0b405dc8f4f73323cba3f63470fc94f31f457d5",
            "0x00f1149cade9d692862ad41df96b108aa2c20af34f640457e781d166c98dc6b0"
          ],
          "data": "0x0000000000000000000000000000000000000000000000000000000000000060000000000000000000000000000000000000000000000000000000000000295300000000000000000000000000000000000000000000000000016bcc41e9000000000000000000000000000000000000000000000000000000000000000000090000000000000000000000000000000000000000000000000000000000000000000000000000000000000000ddb342ecc94236c29a5307d3757d0724d759453c04718f5a0fc34cc1af16a1cdee98ffb20c31f5cd61d6ab07201858f4287c938d053b40a647cedfca6ca84f542a0fe36736031905a9639a7f19a3c1e66bfd5080000000000000000000000000000000000020c49ba5e353f8000000000000000000000000000000000000000000000000000000000000000000000000674634f000000000000000000000000000000000000000000000000000000000674635300000000000000000000000000000000000000000000000000001c6bf52634000000000000000000000000000ce5485cfb26914c5dce00b9baf0580364dafc7a4",
          "blockHash": "0xc52578f68810a56b9b774aca6da7ac6df1059e95e80db26851459c597d0738d9",
          "blockNumber": "0x6d3c17",
          "transactionHash": "0xb4d6631f1b2b4673699c7f61435d4ba5d46a0ec5a9adf026b8d9eac03fca7430",
          "transactionIndex": "0x1",
          "logIndex": "0x8",
          "removed": false
        },
        {
          "address": "0x7eb4C59eABE1234E8A6D02FdF4d1BB595C4702Cd",
          "topics": [
            "0xaf43445f7721522b7a3864ed3de53d7e2e658bfa1eeffa18e1e229be68ce2545",
            "0x000000000000000000000000ddb342ecc94236c29a5307d3757d0724d759453c",
            "0x07e75e6188d73aaa530e1e5ae0b405dc8f4f73323cba3f63470fc94f31f457d5"
          ],
          "data": "0x0000000000000000000000000000000000000000000000000001c6bf526340000000000000000000000000000000000000000000000000000000000000000001",
          "blockHash": "0xc52578f68810a56b9b774aca6da7ac6df1059e95e80db26851459c597d0738d9",
          "blockNumber": "0x6d3c17",
          "transactionHash": "0xb4d6631f1b2b4673699c7f61435d4ba5d46a0ec5a9adf026b8d9eac03fca7430",
          "transactionIndex": "0x1",
          "logIndex": "0x9",
          "removed": false
        }
      ],
      "status": "0x1",
      "logsBloom": "0x00400200000000100200000000020000000000000000000000000000000000400000000000000000000000000000000000000000000004200000000000200000000000000000000000000008080000000000000000000040001000000000000600020000100000010000000000000000400000000000000000000011400008002000000000000000000000000400000004000000000200000000020000000010020000880000000000000020000000209000000000000020000000000000000000000002000000024010000000000000000000200000000000800000000000000010000000010080000000020084000000000000001000000000000000000000",
      "type": "0x2",
      "effectiveGasPrice": "0x1014a89fc"
    }
  ],
  "libraries": [],
  "pending": [],
  "returns": {},
  "timestamp": 1732654383,
  "chain": 11155111,
  "multi": false,
  "commit": "1254ada"
}