{
  "transactions": [
    {
      "hash": "0x4a556905e171d11233eb2bd53960057174d44e77ed85cf86e7b89293d254c3b9",
      "transactionType": "CALL",
      "contractName": "StarkNetToken",
      "contractAddress": "0xCa14007Eff0dB1f8135f4C25B34De49AB0d42766",
      "function": "approve(address,uint256)",
      "arguments": [
        "0xa37Cb2cD03619597Bca95D8DCbcCcb642e526756",
        "115792089237316195423570985008687907853269984665640564039457584007913129639935"
      ],
      "transaction": {
        "type": "0x02",
        "from": "0xddb342ecc94236c29a5307d3757d0724d759453c",
        "to": "0xca14007eff0db1f8135f4c25b34de49ab0d42766",
        "gas": "0x93a9",
        "value": "0x0",
        "data": "0x095ea7b3000000000000000000000000a37cb2cd03619597bca95d8dcbcccb642e526756ffffffffffffffffffffffffffffffffffffffffffffffffffffffffffffffff",
        "nonce": "0x24c",
        "accessList": []
      },
      "additionalContracts": [],
      "isFixedGasLimit": false
    },
    {
      "hash": "0x3841a12e2fcae7a84a2b175d3fc162c4c6e7bc3089935f61719eac705b52d43c",
      "transactionType": "CALL",
      "contractName": "Proxy",
      "contractAddress": "0xE2Bb56ee936fd6433DC0F6e7e3b8365C906AA057",
      "function": "sendMessageToL2(uint256,uint256,uint256[])",
      "arguments": [
        "2713084791089798182203929627013997587429769799537287053777356579100485534376",
        "774397379524139446221206168840917193112228400237242521560346153613428128537",
        "[2]"
      ],
      "transaction": {
        "type": "0x02",
        "from": "0xddb342ecc94236c29a5307d3757d0724d759453c",
        "to": "0xe2bb56ee936fd6433dc0f6e7e3b8365c906aa057",
        "gas": "0x15ca2",
        "value": "0x7a120",
        "data": "0x3e3aa6c505ff8d33f1c8a3cdb45297782da67cbc6d1eb866f26cab25170112ad8768c2a801b64b1b3b690b43b9b514fb81377518f4039cd3e4f4914d8a6bdf01d679fb19000000000000000000000000000000000000000000000000000000000000006000000000000000000000000000000000000000000000000000000000000000010000000000000000000000000000000000000000000000000000000000000002",
        "nonce": "0x24d",
        "accessList": []
      },
      "additionalContracts": [],
      "isFixedGasLimit": false
    }
  ],
  "receipts": [
    {
      "transactionHash": "0x4a556905e171d11233eb2bd53960057174d44e77ed85cf86e7b89293d254c3b9",
      "transactionIndex": "0x4",
      "blockHash": "0x846446298f0caf214f4b8b184fe1714c7008e8713c8119bbd51a636e82582960",
      "blockNumber": "0x6b5fa6",
      "from": "0xDdb342ecc94236c29a5307d3757d0724D759453C",
      "to": "0xCa14007Eff0dB1f8135f4C25B34De49AB0d42766",
      "cumulativeGasUsed": "0x55e00",
      "gasUsed": "0x6ae8",
      "contractAddress": null,
      "logs": [
        {
          "address": "0xCa14007Eff0dB1f8135f4C25B34De49AB0d42766",
          "topics": [
            "0x8c5be1e5ebec7d5bd14f71427d1e84f3dd0314c0f7b2291e5b200ac8c7c3b925",
            "0x000000000000000000000000ddb342ecc94236c29a5307d3757d0724d759453c",
            "0x000000000000000000000000a37cb2cd03619597bca95d8dcbcccb642e526756"
          ],
          "data": "0xffffffffffffffffffffffffffffffffffffffffffffffffffffffffffffffff",
          "blockHash": "0x846446298f0caf214f4b8b184fe1714c7008e8713c8119bbd51a636e82582960",
          "blockNumber": "0x6b5fa6",
          "transactionHash": "0x4a556905e171d11233eb2bd53960057174d44e77ed85cf86e7b89293d254c3b9",
          "transactionIndex": "0x4",
          "logIndex": "0x2",
          "removed": false
        }
      ],
      "status": "0x1",
      "logsBloom": "0x00000000000000002000000000000000000000000000000000000000000000000000000000000000000000000000000000000000000000000000000000200100000000000000000000000000000000000000000000000000000000000000000400000000000000000000000000000000400000000020000000000000400000000000000000000000000000000000000000000000000000000000000000000000020000000000000000000000000000000000000000000000000000000000000000000000000000020000000000000000000000000000000000800000000000000010000000000000000000000000000000000000001000000000000000000000",
      "type": "0x2",
      "effectiveGasPrice": "0x111039bba"
    },
    {
      "transactionHash": "0x3841a12e2fcae7a84a2b175d3fc162c4c6e7bc3089935f61719eac705b52d43c",
      "transactionIndex": "0x5",
      "blockHash": "0x846446298f0caf214f4b8b184fe1714c7008e8713c8119bbd51a636e82582960",
      "blockNumber": "0x6b5fa6",
      "from": "0xDdb342ecc94236c29a5307d3757d0724D759453C",
      "to": "0xE2Bb56ee936fd6433DC0F6e7e3b8365C906AA057",
      "cumulativeGasUsed": "0x64c62",
      "gasUsed": "0xee62",
      "contractAddress": null,
      "logs": [
        {
          "address": "0xE2Bb56ee936fd6433DC0F6e7e3b8365C906AA057",
          "topics": [
            "0xdb80dd488acf86d17c747445b0eabb5d57c541d3bd7b6b87af987858e5066b2b",
            "0x000000000000000000000000ddb342ecc94236c29a5307d3757d0724d759453c",
            "0x05ff8d33f1c8a3cdb45297782da67cbc6d1eb866f26cab25170112ad8768c2a8",
            "0x01b64b1b3b690b43b9b514fb81377518f4039cd3e4f4914d8a6bdf01d679fb19"
          ],
          "data": "0x000000000000000000000000000000000000000000000000000000000000006000000000000000000000000000000000000000000000000000000000000027a1000000000000000000000000000000000000000000000000000000000007a12000000000000000000000000000000000000000000000000000000000000000010000000000000000000000000000000000000000000000000000000000000002",
          "blockHash": "0x846446298f0caf214f4b8b184fe1714c7008e8713c8119bbd51a636e82582960",
          "blockNumber": "0x6b5fa6",
          "transactionHash": "0x3841a12e2fcae7a84a2b175d3fc162c4c6e7bc3089935f61719eac705b52d43c",
          "transactionIndex": "0x5",
          "logIndex": "0x3",
          "removed": false
        }
      ],
      "status": "0x1",
      "logsBloom": "0x00000000000000000000000000020000000000000000000000000000000000400000000000000000000000000000000000000000000000000000000000000000000000000000000000000000000000000000000000000040001000000000000400000000100000000000000000000000400000000000000002000000400000000000000000000000000000000000000000000000000000000000000000000010000000002000000000200020000000000000000000000020000000000000000000000000000000000000000000000000000000000000000000000000000000000000000000000000000000000080000000000000000000000000000000000000",
      "type": "0x2",
      "effectiveGasPrice": "0x111039bba"
    }
  ],
  "libraries": [],
  "pending": [],
  "returns": {},
  "timestamp": 1731075063,
  "chain": 11155111,
  "multi": false,
  "commit": "3f88c93"
}