{
  "transactions": [
    {
      "hash": "0xbdbb105f6ea1cbe95500d20207266f376d727cc9d89521d886fb517e031ddc18",
      "transactionType": "CALL",
      "contractName": null,
      "contractAddress": "0xca14007eff0db1f8135f4c25b34de49ab0d42766",
      "function": "approve(address,uint256)",
      "arguments": [
        "0x573a408aa3f4c74F0Fee3433228B1De259B79cDA",
        "115792089237316195423570985008687907853269984665640564039457584007913129639935"
      ],
      "transaction": {
        "from": "0x1b382a7b4496f14e0aaa2da1e1626da400426a03",
        "to": "0xca14007eff0db1f8135f4c25b34de49ab0d42766",
        "gas": "0xff08",
        "value": "0x0",
        "input": "0x095ea7b3000000000000000000000000573a408aa3f4c74f0fee3433228b1de259b79cdaffffffffffffffffffffffffffffffffffffffffffffffffffffffffffffffff",
        "nonce": "0xe6",
        "chainId": "0xaa36a7"
      },
      "additionalContracts": [],
      "isFixedGasLimit": false
    },
    {
      "hash": "0x395edca814bc2316739b1d1f260d46eece7859a782fdd0f08beae64fea57fb76",
      "transactionType": "CALL",
      "contractName": null,
      "contractAddress": "0xca14007eff0db1f8135f4c25b34de49ab0d42766",
      "function": "transfer(address,uint256)",
      "arguments": [
        "0x573a408aa3f4c74F0Fee3433228B1De259B79cDA",
        "10000000000000000"
      ],
      "transaction": {
        "from": "0x1b382a7b4496f14e0aaa2da1e1626da400426a03",
        "to": "0xca14007eff0db1f8135f4c25b34de49ab0d42766",
        "gas": "0x145c6",
        "value": "0x0",
        "input": "0xa9059cbb000000000000000000000000573a408aa3f4c74f0fee3433228b1de259b79cda000000000000000000000000000000000000000000000000002386f26fc10000",
        "nonce": "0xe7",
        "chainId": "0xaa36a7"
      },
      "additionalContracts": [],
      "isFixedGasLimit": false
    },
    {
      "hash": "0x9e5f55e509e43922d70e748de32328892a71e2d23eef6fbf52d55834ce2bd27d",
      "transactionType": "CALL",
      "contractName": null,
      "contractAddress": "0x573a408aa3f4c74f0fee3433228b1de259b79cda",
      "function": "initiateWithdrawal(uint256)",
      "arguments": [
        "0"
      ],
      "transaction": {
        "from": "0x1b382a7b4496f14e0aaa2da1e1626da400426a03",
        "to": "0x573a408aa3f4c74f0fee3433228b1de259b79cda",
        "gas": "0x18cfa",
        "value": "0x2386f26fc10000",
        "input": "0x12edde5e0000000000000000000000000000000000000000000000000000000000000000",
        "nonce": "0xe8",
        "chainId": "0xaa36a7"
      },
      "additionalContracts": [],
      "isFixedGasLimit": false
    }
  ],
  "receipts": [
    {
      "status": "0x1",
      "cumulativeGasUsed": "0xda0a3f",
      "logs": [
        {
          "address": "0xca14007eff0db1f8135f4c25b34de49ab0d42766",
          "topics": [
            "0x8c5be1e5ebec7d5bd14f71427d1e84f3dd0314c0f7b2291e5b200ac8c7c3b925",
            "0x0000000000000000000000001b382a7b4496f14e0aaa2da1e1626da400426a03",
            "0x000000000000000000000000573a408aa3f4c74f0fee3433228b1de259b79cda"
          ],
          "data": "0xffffffffffffffffffffffffffffffffffffffffffffffffffffffffffffffff",
          "blockHash": "0x7436198cc8627affac343613182e344c519e7eeddd8e409166c1d7cc70316d9f",
          "blockNumber": "0x6b3acf",
          "transactionHash": "0xbdbb105f6ea1cbe95500d20207266f376d727cc9d89521d886fb517e031ddc18",
          "transactionIndex": "0x3b",
          "logIndex": "0x53",
          "removed": false
        }
      ],
      "logsBloom": "0x00000000000000000000000000000000000000000000000000000000000000000000000000000000000000000000000000000000000000000000000000200000000000000000000000000000000000000000000010000000000000000000000000000000000000000000000000000000000000020010000020000000000000040000000000080000000000000000000000000000000000000000000000000000020000000000000000000000000000000000000000000000000000000000000000000000000000020000000000000000000000000000000000800000000000000010000000000000000000000000000000000000001000000000000000000000",
      "type": "0x2",
      "transactionHash": "0xbdbb105f6ea1cbe95500d20207266f376d727cc9d89521d886fb517e031ddc18",
      "transactionIndex": "0x3b",
      "blockHash": "0x7436198cc8627affac343613182e344c519e7eeddd8e409166c1d7cc70316d9f",
      "blockNumber": "0x6b3acf",
      "gasUsed": "0xb8a4",
      "effectiveGasPrice": "0x1b2f1091c",
      "blobGasUsed": "0x0",
      "from": "0x1b382a7b4496f14e0aaa2da1e1626da400426a03",
      "to": "0xca14007eff0db1f8135f4c25b34de49ab0d42766",
      "contractAddress": null
    },
    {
      "status": "0x1",
      "cumulativeGasUsed": "0xdae900",
      "logs": [
        {
          "address": "0xca14007eff0db1f8135f4c25b34de49ab0d42766",
          "topics": [
            "0xddf252ad1be2c89b69c2b068fc378daa952ba7f163c4a11628f55a4df523b3ef",
            "0x0000000000000000000000001b382a7b4496f14e0aaa2da1e1626da400426a03",
            "0x000000000000000000000000573a408aa3f4c74f0fee3433228b1de259b79cda"
          ],
          "data": "0x000000000000000000000000000000000000000000000000002386f26fc10000",
          "blockHash": "0x7436198cc8627affac343613182e344c519e7eeddd8e409166c1d7cc70316d9f",
          "blockNumber": "0x6b3acf",
          "transactionHash": "0x395edca814bc2316739b1d1f260d46eece7859a782fdd0f08beae64fea57fb76",
          "transactionIndex": "0x3c",
          "logIndex": "0x54",
          "removed": false
        }
      ],
      "logsBloom": "0x00000000000000000000000000000000000000000000000000000000000000000000000000000000000000000000000000000000000000000000000000000000000000000000000000000008000000000000000010000000000000000000000000000000000000000000000000000000000000020010000020000010000000040000000000080000000000000000000000000000000000000000000000000000000000000000000000000000000000000000000000000000000000000000000000000002000000020000000000000000000000000000000000800000000000000000000000000000000000000000000000000000001000000000000000000000",
      "type": "0x2",
      "transactionHash": "0x395edca814bc2316739b1d1f260d46eece7859a782fdd0f08beae64fea57fb76",
      "transactionIndex": "0x3c",
      "blockHash": "0x7436198cc8627affac343613182e344c519e7eeddd8e409166c1d7cc70316d9f",
      "blockNumber": "0x6b3acf",
      "gasUsed": "0xdec1",
      "effectiveGasPrice": "0x1b2f1091c",
      "blobGasUsed": "0x0",
      "from": "0x1b382a7b4496f14e0aaa2da1e1626da400426a03",
      "to": "0xca14007eff0db1f8135f4c25b34de49ab0d42766",
      "contractAddress": null
    },
    {
      "status": "0x1",
      "cumulativeGasUsed": "0xdc0868",
      "logs": [
        {
          "address": "0xe2bb56ee936fd6433dc0f6e7e3b8365c906aa057",
          "topics": [
            "0xdb80dd488acf86d17c747445b0eabb5d57c541d3bd7b6b87af987858e5066b2b",
            "0x000000000000000000000000573a408aa3f4c74f0fee3433228b1de259b79cda",
            "0x03a4b7e2d060bd8eb48e2db10f16c1303b131c266cc928902c3a3a8ead7e386d",
            "0x01b64b1b3b690b43b9b514fb81377518f4039cd3e4f4914d8a6bdf01d679fb19"
          ],
          "data": "0x00000000000000000000000000000000000000000000000000000000000000600000000000000000000000000000000000000000000000000000000000002774000000000000000000000000000000000000000000000000002386f26fc1000000000000000000000000000000000000000000000000000000000000000000010000000000000000000000000000000000000000000000000000000000000002",
          "blockHash": "0x7436198cc8627affac343613182e344c519e7eeddd8e409166c1d7cc70316d9f",
          "blockNumber": "0x6b3acf",
          "transactionHash": "0x9e5f55e509e43922d70e748de32328892a71e2d23eef6fbf52d55834ce2bd27d",
          "transactionIndex": "0x3d",
          "logIndex": "0x55",
          "removed": false
        },
        {
          "address": "0x573a408aa3f4c74f0fee3433228b1de259b79cda",
          "topics": [
            "0x6d92f7d3303f995bf21956bb0c51b388bae348eaf45c23debd2cfa3fcd9ec646",
            "0x0000000000000000000000001b382a7b4496f14e0aaa2da1e1626da400426a03"
          ],
          "data": "0x0000000000000000000000000000000000000000000000000000000000000000",
          "blockHash": "0x7436198cc8627affac343613182e344c519e7eeddd8e409166c1d7cc70316d9f",
          "blockNumber": "0x6b3acf",
          "transactionHash": "0x9e5f55e509e43922d70e748de32328892a71e2d23eef6fbf52d55834ce2bd27d",
          "transactionIndex": "0x3d",
          "logIndex": "0x56",
          "removed": false
        }
      ],
      "logsBloom": "0x00000000000000000000000000020000000000000000000000000002000000400000000000000000000000000000000000000000000000000000000000000000000000000000000000000000000000000000000010000040001000000000000000000000100000000000000000000000000000020010000020000000000000040000000000080000000000000000000000000000000100000100000000000010000000000000000040000020000000000000000000000020000000000000000000000000000000000000000000000000000000100000000000000800200000000000001000000000000000000080000000000000000020000000000000000000",
      "type": "0x2",
      "transactionHash": "0x9e5f55e509e43922d70e748de32328892a71e2d23eef6fbf52d55834ce2bd27d",
      "transactionIndex": "0x3d",
      "blockHash": "0x7436198cc8627affac343613182e344c519e7eeddd8e409166c1d7cc70316d9f",
      "blockNumber": "0x6b3acf",
      "gasUsed": "0x11f68",
      "effectiveGasPrice": "0x1b2f1091c",
      "blobGasUsed": "0x0",
      "from": "0x1b382a7b4496f14e0aaa2da1e1626da400426a03",
      "to": "0x573a408aa3f4c74f0fee3433228b1de259b79cda",
      "contractAddress": null
    }
  ],
  "libraries": [],
  "pending": [],
  "returns": {},
  "timestamp": 1730947479,
  "chain": 11155111,
  "commit": "ce847f7"
}