{
  "transactions": [
    {
      "hash": "0x5a1b1fe443967760da53027b19445b78c247d82aaabf81fb025db3f3279e5628",
      "transactionType": "CALL",
      "contractName": "StarkNetToken",
      "contractAddress": "0xCa14007Eff0dB1f8135f4C25B34De49AB0d42766",
      "function": "approve(address,uint256)",
      "arguments": [
        "0xa37Cb2cD03619597Bca95D8DCbcCcb642e526756",
        "115792089237316195423570985008687907853269984665640564039457584007913129639935"
      ],
      "transaction": {
        "type": "0x02",
        "from": "0xddb342ecc94236c29a5307d3757d0724d759453c",
        "to": "0xca14007eff0db1f8135f4c25b34de49ab0d42766",
        "gas": "0x93a9",
        "value": "0x0",
        "data": "0x095ea7b3000000000000000000000000a37cb2cd03619597bca95d8dcbcccb642e526756ffffffffffffffffffffffffffffffffffffffffffffffffffffffffffffffff",
        "nonce": "0x24e",
        "accessList": []
      },
      "additionalContracts": [],
      "isFixedGasLimit": false
    },
    {
      "hash": "0xc8672b67e6e97c5797f178d2ce1a16e6781a60144a5ee11413582c937a100f46",
      "transactionType": "CALL",
      "contractName": "Proxy",
      "contractAddress": "0xE2Bb56ee936fd6433DC0F6e7e3b8365C906AA057",
      "function": "sendMessageToL2(uint256,uint256,uint256[])",
      "arguments": [
        "3287174330916563833952630243165911082887663150067442863102871242864769128430",
        "425952401605428413817582304755919420533935873840436977667370850915372091056",
        "[2, 3]"
      ],
      "transaction": {
        "type": "0x02",
        "from": "0xddb342ecc94236c29a5307d3757d0724d759453c",
        "to": "0xe2bb56ee936fd6433dc0f6e7e3b8365c906aa057",
        "gas": "0x14b73",
        "value": "0x5af3107a4000",
        "data": "0x3e3aa6c5074479887757434e7d97182af2753f1e8510c01edfcacfa29936c2335ce057ee00f1149cade9d692862ad41df96b108aa2c20af34f640457e781d166c98dc6b00000000000000000000000000000000000000000000000000000000000000060000000000000000000000000000000000000000000000000000000000000000200000000000000000000000000000000000000000000000000000000000000020000000000000000000000000000000000000000000000000000000000000003",
        "nonce": "0x24f",
        "accessList": []
      },
      "additionalContracts": [],
      "isFixedGasLimit": false
    }
  ],
  "receipts": [
    {
      "transactionHash": "0x5a1b1fe443967760da53027b19445b78c247d82aaabf81fb025db3f3279e5628",
      "transactionIndex": "0x3",
      "blockHash": "0xf7e2403d4966081778ea370e8c2dfe99eac63573f4f0c4f0184c0d7ea7a3999c",
      "blockNumber": "0x6b64f8",
      "from": "0xDdb342ecc94236c29a5307d3757d0724D759453C",
      "to": "0xCa14007Eff0dB1f8135f4C25B34De49AB0d42766",
      "cumulativeGasUsed": "0x16100",
      "gasUsed": "0x6ae8",
      "contractAddress": null,
      "logs": [
        {
          "address": "0xCa14007Eff0dB1f8135f4C25B34De49AB0d42766",
          "topics": [
            "0x8c5be1e5ebec7d5bd14f71427d1e84f3dd0314c0f7b2291e5b200ac8c7c3b925",
            "0x000000000000000000000000ddb342ecc94236c29a5307d3757d0724d759453c",
            "0x000000000000000000000000a37cb2cd03619597bca95d8dcbcccb642e526756"
          ],
          "data": "0xffffffffffffffffffffffffffffffffffffffffffffffffffffffffffffffff",
          "blockHash": "0xf7e2403d4966081778ea370e8c2dfe99eac63573f4f0c4f0184c0d7ea7a3999c",
          "blockNumber": "0x6b64f8",
          "transactionHash": "0x5a1b1fe443967760da53027b19445b78c247d82aaabf81fb025db3f3279e5628",
          "transactionIndex": "0x3",
          "logIndex": "0x0",
          "removed": false
        }
      ],
      "status": "0x1",
      "logsBloom": "0x00000000000000002000000000000000000000000000000000000000000000000000000000000000000000000000000000000000000000000000000000200100000000000000000000000000000000000000000000000000000000000000000400000000000000000000000000000000400000000020000000000000400000000000000000000000000000000000000000000000000000000000000000000000020000000000000000000000000000000000000000000000000000000000000000000000000000020000000000000000000000000000000000800000000000000010000000000000000000000000000000000000001000000000000000000000",
      "type": "0x2",
      "effectiveGasPrice": "0x1994f96b8"
    },
    {
      "transactionHash": "0xc8672b67e6e97c5797f178d2ce1a16e6781a60144a5ee11413582c937a100f46",
      "transactionIndex": "0x4",
      "blockHash": "0xf7e2403d4966081778ea370e8c2dfe99eac63573f4f0c4f0184c0d7ea7a3999c",
      "blockNumber": "0x6b64f8",
      "from": "0xDdb342ecc94236c29a5307d3757d0724D759453C",
      "to": "0xE2Bb56ee936fd6433DC0F6e7e3b8365C906AA057",
      "cumulativeGasUsed": "0x250f7",
      "gasUsed": "0xeff7",
      "contractAddress": null,
      "logs": [
        {
          "address": "0xE2Bb56ee936fd6433DC0F6e7e3b8365C906AA057",
          "topics": [
            "0xdb80dd488acf86d17c747445b0eabb5d57c541d3bd7b6b87af987858e5066b2b",
            "0x000000000000000000000000ddb342ecc94236c29a5307d3757d0724d759453c",
            "0x074479887757434e7d97182af2753f1e8510c01edfcacfa29936c2335ce057ee",
            "0x00f1149cade9d692862ad41df96b108aa2c20af34f640457e781d166c98dc6b0"
          ],
          "data": "0x000000000000000000000000000000000000000000000000000000000000006000000000000000000000000000000000000000000000000000000000000027a600000000000000000000000000000000000000000000000000005af3107a4000000000000000000000000000000000000000000000000000000000000000000200000000000000000000000000000000000000000000000000000000000000020000000000000000000000000000000000000000000000000000000000000003",
          "blockHash": "0xf7e2403d4966081778ea370e8c2dfe99eac63573f4f0c4f0184c0d7ea7a3999c",
          "blockNumber": "0x6b64f8",
          "transactionHash": "0xc8672b67e6e97c5797f178d2ce1a16e6781a60144a5ee11413582c937a100f46",
          "transactionIndex": "0x4",
          "logIndex": "0x1",
          "removed": false
        }
      ],
      "status": "0x1",
      "logsBloom": "0x00400000000000000000000000020000000000000000000000000000000000000000000000000000000000000000000000000000000000000000000000000000000000000000000000000000000000000000000000000040001000000000000400000000100000010000000000000000400000000000000000000200400000000000000000000000000000000000000004000000000000000000000000000010000000000000000000000020000000000000000000000000008000000000000200000000000000000000000000000000000000000000000000000000000000000000000000000000000000000000000000000000000000000000000000000000",
      "type": "0x2",
      "effectiveGasPrice": "0x1994f96b8"
    }
  ],
  "libraries": [],
  "pending": [],
  "returns": {},
  "timestamp": 1731094802,
  "chain": 11155111,
  "multi": false,
  "commit": "75c82f5"
}