{
  "transactions": [
    {
      "hash": "0x6f22ab00b40d7b9899c5a8f568e91400736d8c5bc4b4e7f370e4413390a5353a",
      "transactionType": "CALL",
      "contractName": "StarkNetToken",
      "contractAddress": "0xCa14007Eff0dB1f8135f4C25B34De49AB0d42766",
      "function": "approve(address,uint256)",
      "arguments": [
        "0x7eb4C59eABE1234E8A6D02FdF4d1BB595C4702Cd",
        "115792089237316195423570985008687907853269984665640564039457584007913129639935"
      ],
      "transaction": {
        "type": "0x02",
        "from": "0xddb342ecc94236c29a5307d3757d0724d759453c",
        "to": "0xca14007eff0db1f8135f4c25b34de49ab0d42766",
        "gas": "0x93a9",
        "value": "0x0",
        "data": "0x095ea7b30000000000000000000000007eb4c59eabe1234e8a6d02fdf4d1bb595c4702cdffffffffffffffffffffffffffffffffffffffffffffffffffffffffffffffff",
        "nonce": "0x3a5",
        "accessList": []
      },
      "additionalContracts": [],
      "isFixedGasLimit": false
    },
    {
      "hash": "0xa3ef673b627181662f25f876e21953fff2cb7f2760990a8cc6912e36cc5361cf",
      "transactionType": "CALL",
      "contractName": null,
      "contractAddress": "0x7eb4C59eABE1234E8A6D02FdF4d1BB595C4702Cd",
      "function": "initiateWithdrawal(uint256,address)",
      "arguments": [
        "500000000000000",
        "0x1c7D4B196Cb0C7B01d743Fbc6116a902379C7238"
      ],
      "transaction": {
        "type": "0x02",
        "from": "0xddb342ecc94236c29a5307d3757d0724d759453c",
        "to": "0x7eb4c59eabe1234e8a6d02fdf4d1bb595c4702cd",
        "gas": "0x1bbe2",
        "value": "0x1c6bf52634000",
        "data": "0x544381270000000000000000000000000000000000000000000000000001c6bf526340000000000000000000000000001c7d4b196cb0c7b01d743fbc6116a902379c7238",
        "nonce": "0x3a6",
        "accessList": []
      },
      "additionalContracts": [],
      "isFixedGasLimit": false
    }
  ],
  "receipts": [],
  "libraries": [],
  "pending": [
    "0x6f22ab00b40d7b9899c5a8f568e91400736d8c5bc4b4e7f370e4413390a5353a",
    "0xa3ef673b627181662f25f876e21953fff2cb7f2760990a8cc6912e36cc5361cf"
  ],
  "returns": {},
  "timestamp": 1733131590,
  "chain": 11155111,
  "multi": false,
  "commit": "578600f"
}