{
  "transactions": [
    {
      "hash": "0x4574aeb1c6f74cd2cace8fc10344e18abd8624e5b09c083141bee209aba90c11",
      "transactionType": "CALL",
      "contractName": "StarkNetToken",
      "contractAddress": "0xCa14007Eff0dB1f8135f4C25B34De49AB0d42766",
      "function": "approve(address,uint256)",
      "arguments": [
        "0x82066948CC929c4707787cF1214E08eD7d2B1f20",
        "115792089237316195423570985008687907853269984665640564039457584007913129639935"
      ],
      "transaction": {
        "type": "0x02",
        "from": "0xddb342ecc94236c29a5307d3757d0724d759453c",
        "to": "0xca14007eff0db1f8135f4c25b34de49ab0d42766",
        "gas": "0xff08",
        "value": "0x0",
        "data": "0x095ea7b300000000000000000000000082066948cc929c4707787cf1214e08ed7d2b1f20ffffffffffffffffffffffffffffffffffffffffffffffffffffffffffffffff",
        "nonce": "0x2a6",
        "accessList": []
      },
      "additionalContracts": [],
      "isFixedGasLimit": false
    },
    {
      "hash": "0xd070ca3eb620d0b309a70c54e0060b3bc161d12e24a504de8c57c7fa2f03ea14",
      "transactionType": "CALL",
      "contractName": "StarkNetToken",
      "contractAddress": "0xCa14007Eff0dB1f8135f4C25B34De49AB0d42766",
      "function": "transfer(address,uint256)",
      "arguments": [
        "0x82066948CC929c4707787cF1214E08eD7d2B1f20",
        "500000000000"
      ],
      "transaction": {
        "type": "0x02",
        "from": "0xddb342ecc94236c29a5307d3757d0724d759453c",
        "to": "0xca14007eff0db1f8135f4c25b34de49ab0d42766",
        "gas": "0x1339c",
        "value": "0x0",
        "data": "0xa9059cbb00000000000000000000000082066948cc929c4707787cf1214e08ed7d2b1f20000000000000000000000000000000000000000000000000000000746a528800",
        "nonce": "0x2a7",
        "accessList": []
      },
      "additionalContracts": [],
      "isFixedGasLimit": false
    },
    {
      "hash": null,
      "transactionType": "CALL",
      "contractName": "L1TWAMMBridge",
      "contractAddress": "0x82066948CC929c4707787cF1214E08eD7d2B1f20",
      "function": "deposit(uint256,uint256)",
      "arguments": [
        "500000000000",
        "80756551688165857620544480464209230113661696152336388978584739899148792283"
      ],
      "transaction": {
        "type": "0x02",
        "from": "0xddb342ecc94236c29a5307d3757d0724d759453c",
        "to": "0x82066948cc929c4707787cf1214e08ed7d2b1f20",
        "gas": "0x2d757",
        "value": "0x5af3107a4000",
        "data": "0xe2bbb158000000000000000000000000000000000000000000000000000000746a528800002db4e2fb780be922c23ff0cdeb6b5480c14dcdf62b010c3f94d6df0d4af1db",
        "nonce": "0x2a8",
        "accessList": []
      },
      "additionalContracts": [],
      "isFixedGasLimit": false
    },
    {
      "hash": null,
      "transactionType": "CALL",
      "contractName": "Proxy",
      "contractAddress": "0xE2Bb56ee936fd6433DC0F6e7e3b8365C906AA057",
      "function": "sendMessageToL2(uint256,uint256,uint256[])",
      "arguments": [
        "80756551688165857620544480464209230113661696152336388978584739899148792283",
        "425952401605428413817582304755919420533935873840436977667370850915372091056",
        "[0, 1265684623727634235329190328445374361672779121980, 2009894490435840142178314390393166646092438090257831307886760648929397478285, 2366254414417873771392932940469309727793822550615514268240785277201753657472, 170141183460469235273462165868118016, 1731428256, 1731428320, 500000000000]"
      ],
      "transaction": {
        "type": "0x02",
        "from": "0xddb342ecc94236c29a5307d3757d0724d759453c",
        "to": "0xe2bb56ee936fd6433dc0f6e7e3b8365c906aa057",
        "gas": "0x15f0a",
        "value": "0x5af3107a4000",
        "data": "0x3e3aa6c5002db4e2fb780be922c23ff0cdeb6b5480c14dcdf62b010c3f94d6df0d4af1db00f1149cade9d692862ad41df96b108aa2c20af34f640457e781d166c98dc6b0000000000000000000000000000000000000000000000000000000000000006000000000000000000000000000000000000000000000000000000000000000080000000000000000000000000000000000000000000000000000000000000000000000000000000000000000ddb342ecc94236c29a5307d3757d0724d759453c04718f5a0fc34cc1af16a1cdee98ffb20c31f5cd61d6ab07201858f4287c938d053b40a647cedfca6ca84f542a0fe36736031905a9639a7f19a3c1e66bfd5080000000000000000000000000000000000020c49ba5e353f800000000000000000000000000000000000000000000000000000000000000000000000067337fa00000000000000000000000000000000000000000000000000000000067337fe0000000000000000000000000000000000000000000000000000000746a528800",
        "nonce": "0x2a9",
        "accessList": []
      },
      "additionalContracts": [],
      "isFixedGasLimit": false
    }
  ],
  "receipts": [],
  "libraries": [],
  "pending": [
    "0x4574aeb1c6f74cd2cace8fc10344e18abd8624e5b09c083141bee209aba90c11",
    "0xd070ca3eb620d0b309a70c54e0060b3bc161d12e24a504de8c57c7fa2f03ea14"
  ],
  "returns": {},
  "timestamp": 1731428322,
  "chain": 11155111,
  "multi": false,
  "commit": "b1a5e4e"
}