{
  "transactions": [
    {
      "hash": "0x70e79f52da195d76e6a9da6e2916f50ae0887ef9984c29d7c2dc4a8144a6acb1",
      "transactionType": "CALL",
      "contractName": "StarkNetToken",
      "contractAddress": "0xCa14007Eff0dB1f8135f4C25B34De49AB0d42766",
      "function": "approve(address,uint256)",
      "arguments": [
        "0x3f0508421873Ed1df2e11028D9Fee1c6B92A494e",
        "115792089237316195423570985008687907853269984665640564039457584007913129639935"
      ],
      "transaction": {
        "type": "0x02",
        "from": "0xddb342ecc94236c29a5307d3757d0724d759453c",
        "to": "0xca14007eff0db1f8135f4c25b34de49ab0d42766",
        "gas": "0x93a9",
        "value": "0x0",
        "data": "0x095ea7b30000000000000000000000003f0508421873ed1df2e11028d9fee1c6b92a494effffffffffffffffffffffffffffffffffffffffffffffffffffffffffffffff",
        "nonce": "0x277",
        "accessList": []
      },
      "additionalContracts": [],
      "isFixedGasLimit": false
    },
    {
      "hash": "0x65593039f2d6f67215882e9c222288d05efbd79909bcb04910665cda7250d140",
      "transactionType": "CALL",
      "contractName": "StarkNetToken",
      "contractAddress": "0xCa14007Eff0dB1f8135f4C25B34De49AB0d42766",
      "function": "transfer(address,uint256)",
      "arguments": [
        "0x3f0508421873Ed1df2e11028D9Fee1c6B92A494e",
        "500000000000"
      ],
      "transaction": {
        "type": "0x02",
        "from": "0xddb342ecc94236c29a5307d3757d0724d759453c",
        "to": "0xca14007eff0db1f8135f4c25b34de49ab0d42766",
        "gas": "0x1339c",
        "value": "0x0",
        "data": "0xa9059cbb0000000000000000000000003f0508421873ed1df2e11028d9fee1c6b92a494e000000000000000000000000000000000000000000000000000000746a528800",
        "nonce": "0x278",
        "accessList": []
      },
      "additionalContracts": [],
      "isFixedGasLimit": false
    },
    {
      "hash": "0xf91b611c2011a959d049ff51f906574e19e658a4c6a1645a2b213c9536f3640f",
      "transactionType": "CALL",
      "contractName": "L1TWAMMBridge",
      "contractAddress": "0x3f0508421873Ed1df2e11028D9Fee1c6B92A494e",
      "function": "deposit(uint256,uint256)",
      "arguments": [
        "500000000000",
        "3437578217456014416958820490559363987930234878582783671264257518363855408765"
      ],
      "transaction": {
        "type": "0x02",
        "from": "0xddb342ecc94236c29a5307d3757d0724d759453c",
        "to": "0x3f0508421873ed1df2e11028d9fee1c6b92a494e",
        "gas": "0x30231",
        "value": "0x5af3107a4000",
        "data": "0xe2bbb158000000000000000000000000000000000000000000000000000000746a528800079999aead33a8c6d51447c11f80b89c5eb69ddfff66ffd12a434fefec3dce7d",
        "nonce": "0x279",
        "accessList": []
      },
      "additionalContracts": [],
      "isFixedGasLimit": false
    },
    {
      "hash": "0xb6aef2384c798892b4d7666604400700ca17007815b0be357617bb2861ad0cf3",
      "transactionType": "CALL",
      "contractName": "Proxy",
      "contractAddress": "0xE2Bb56ee936fd6433DC0F6e7e3b8365C906AA057",
      "function": "sendMessageToL2(uint256,uint256,uint256[])",
      "arguments": [
        "3437578217456014416958820490559363987930234878582783671264257518363855408765",
        "425952401605428413817582304755919420533935873840436977667370850915372091056",
        "[0, 1265684623727634235329190328445374361672779121980, 2009894490435840142178314390393166646092438090257831307886760648929397478285, 2366254414417873771392932940469309727793822550615514268240785277201753657472, 170141183460469235273462165868118016, 1731421632, 1731421696, 500000000000]"
      ],
      "transaction": {
        "type": "0x02",
        "from": "0xddb342ecc94236c29a5307d3757d0724d759453c",
        "to": "0xe2bb56ee936fd6433dc0f6e7e3b8365c906aa057",
        "gas": "0x15f0a",
        "value": "0x5af3107a4000",
        "data": "0x3e3aa6c5079999aead33a8c6d51447c11f80b89c5eb69ddfff66ffd12a434fefec3dce7d00f1149cade9d692862ad41df96b108aa2c20af34f640457e781d166c98dc6b0000000000000000000000000000000000000000000000000000000000000006000000000000000000000000000000000000000000000000000000000000000080000000000000000000000000000000000000000000000000000000000000000000000000000000000000000ddb342ecc94236c29a5307d3757d0724d759453c04718f5a0fc34cc1af16a1cdee98ffb20c31f5cd61d6ab07201858f4287c938d053b40a647cedfca6ca84f542a0fe36736031905a9639a7f19a3c1e66bfd5080000000000000000000000000000000000020c49ba5e353f8000000000000000000000000000000000000000000000000000000000000000000000000673365c00000000000000000000000000000000000000000000000000000000067336600000000000000000000000000000000000000000000000000000000746a528800",
        "nonce": "0x27a",
        "accessList": []
      },
      "additionalContracts": [],
      "isFixedGasLimit": false
    }
  ],
  "receipts": [],
  "libraries": [],
  "pending": [
    "0x70e79f52da195d76e6a9da6e2916f50ae0887ef9984c29d7c2dc4a8144a6acb1",
    "0x65593039f2d6f67215882e9c222288d05efbd79909bcb04910665cda7250d140",
    "0xf91b611c2011a959d049ff51f906574e19e658a4c6a1645a2b213c9536f3640f",
    "0xb6aef2384c798892b4d7666604400700ca17007815b0be357617bb2861ad0cf3"
  ],
  "returns": {},
  "timestamp": 1731421682,
  "chain": 11155111,
  "multi": false,
  "commit": "b1a5e4e"
}