{
  "transactions": [
    {
      "hash": "0x4c1166bfa360889a971d4ba215ee68b75b53f19b546b40b3d9b9d033ea970f10",
      "transactionType": "CALL",
      "contractName": "StarkNetToken",
      "contractAddress": "0xCa14007Eff0dB1f8135f4C25B34De49AB0d42766",
      "function": "approve(address,uint256)",
      "arguments": [
        "0xfD56da8288718FC12A3ee96b47E2e8e46618081d",
        "115792089237316195423570985008687907853269984665640564039457584007913129639935"
      ],
      "transaction": {
        "type": "0x02",
        "from": "0xddb342ecc94236c29a5307d3757d0724d759453c",
        "to": "0xca14007eff0db1f8135f4c25b34de49ab0d42766",
        "gas": "0xff08",
        "value": "0x0",
        "data": "0x095ea7b3000000000000000000000000fd56da8288718fc12a3ee96b47e2e8e46618081dffffffffffffffffffffffffffffffffffffffffffffffffffffffffffffffff",
        "nonce": "0x23e",
        "accessList": []
      },
      "additionalContracts": [],
      "isFixedGasLimit": false
    },
    {
      "hash": "0x6f08efb1fd56ad81ed8d613172f2b4b29f87ba35378b72832bef749f20727dae",
      "transactionType": "CALL",
      "contractName": "StarkNetToken",
      "contractAddress": "0xCa14007Eff0dB1f8135f4C25B34De49AB0d42766",
      "function": "transfer(address,uint256)",
      "arguments": [
        "0xfD56da8288718FC12A3ee96b47E2e8e46618081d",
        "500000"
      ],
      "transaction": {
        "type": "0x02",
        "from": "0xddb342ecc94236c29a5307d3757d0724d759453c",
        "to": "0xca14007eff0db1f8135f4c25b34de49ab0d42766",
        "gas": "0x145a3",
        "value": "0x0",
        "data": "0xa9059cbb000000000000000000000000fd56da8288718fc12a3ee96b47e2e8e46618081d000000000000000000000000000000000000000000000000000000000007a120",
        "nonce": "0x23f",
        "accessList": []
      },
      "additionalContracts": [],
      "isFixedGasLimit": false
    },
    {
      "hash": "0x5b599acec36d045bbaeb285938ad96942c924bba7e49dde087cff24c1789a495",
      "transactionType": "CALL",
      "contractName": "L1TWAMMBridge",
      "contractAddress": "0xfD56da8288718FC12A3ee96b47E2e8e46618081d",
      "function": "deposit(uint256,uint256)",
      "arguments": [
        "500000",
        "3089538330910281035820262199898854238093350356025608835410404352860430644004"
      ],
      "transaction": {
        "type": "0x02",
        "from": "0xddb342ecc94236c29a5307d3757d0724d759453c",
        "to": "0xfd56da8288718fc12a3ee96b47e2e8e46618081d",
        "gas": "0x2d757",
        "value": "0x5af3107a4000",
        "data": "0xe2bbb158000000000000000000000000000000000000000000000000000000000007a12006d49de1cc47bd0d2e0e26a421268ec0139dc43c0870d5c0dec58c7603e9b324",
        "nonce": "0x240",
        "accessList": []
      },
      "additionalContracts": [],
      "isFixedGasLimit": false
    },
    {
      "hash": "0x40356bc61a25a1975418dc33ade1ca25f2e4539867891ee5caf15a43e674e85f",
      "transactionType": "CALL",
      "contractName": "L1TWAMMBridge",
      "contractAddress": "0xfD56da8288718FC12A3ee96b47E2e8e46618081d",
      "function": "_sendMessage(uint256,uint256,uint256[])",
      "arguments": [
        "3089538330910281035820262199898854238093350356025608835410404352860430644004",
        "425952401605428413817582304755919420533935873840436977667370850915372091056",
        "[0, 1265684623727634235329190328445374361672779121980, 2009894490435840142178314390393166646092438090257831307886760648929397478285, 2366254414417873771392932940469309727793822550615514268240785277201753657472, 0, 1731060272, 1731060336, 500000]"
      ],
      "transaction": {
        "type": "0x02",
        "from": "0xddb342ecc94236c29a5307d3757d0724d759453c",
        "to": "0xfd56da8288718fc12a3ee96b47e2e8e46618081d",
        "gas": "0x19e94",
        "value": "0x7a120",
        "data": "0x88f439ef06d49de1cc47bd0d2e0e26a421268ec0139dc43c0870d5c0dec58c7603e9b32400f1149cade9d692862ad41df96b108aa2c20af34f640457e781d166c98dc6b0000000000000000000000000000000000000000000000000000000000000006000000000000000000000000000000000000000000000000000000000000000080000000000000000000000000000000000000000000000000000000000000000000000000000000000000000ddb342ecc94236c29a5307d3757d0724d759453c04718f5a0fc34cc1af16a1cdee98ffb20c31f5cd61d6ab07201858f4287c938d053b40a647cedfca6ca84f542a0fe36736031905a9639a7f19a3c1e66bfd5080000000000000000000000000000000000000000000000000000000000000000000000000000000000000000000000000000000000000000000000000672de23000000000000000000000000000000000000000000000000000000000672de270000000000000000000000000000000000000000000000000000000000007a120",
        "nonce": "0x241",
        "accessList": []
      },
      "additionalContracts": [],
      "isFixedGasLimit": false
    }
  ],
  "receipts": [
    {
      "transactionHash": "0x4c1166bfa360889a971d4ba215ee68b75b53f19b546b40b3d9b9d033ea970f10",
      "transactionIndex": "0x5",
      "blockHash": "0xa39859f075bc1b1688c49cf966fbe73c47ae10bc26af9e629b9863d0f1a1ea9f",
      "blockNumber": "0x6b5b88",
      "from": "0xDdb342ecc94236c29a5307d3757d0724D759453C",
      "to": "0xCa14007Eff0dB1f8135f4C25B34De49AB0d42766",
      "cumulativeGasUsed": "0x73760",
      "gasUsed": "0xb8a4",
      "contractAddress": null,
      "logs": [
        {
          "address": "0xCa14007Eff0dB1f8135f4C25B34De49AB0d42766",
          "topics": [
            "0x8c5be1e5ebec7d5bd14f71427d1e84f3dd0314c0f7b2291e5b200ac8c7c3b925",
            "0x000000000000000000000000ddb342ecc94236c29a5307d3757d0724d759453c",
            "0x000000000000000000000000fd56da8288718fc12a3ee96b47e2e8e46618081d"
          ],
          "data": "0xffffffffffffffffffffffffffffffffffffffffffffffffffffffffffffffff",
          "blockHash": "0xa39859f075bc1b1688c49cf966fbe73c47ae10bc26af9e629b9863d0f1a1ea9f",
          "blockNumber": "0x6b5b88",
          "transactionHash": "0x4c1166bfa360889a971d4ba215ee68b75b53f19b546b40b3d9b9d033ea970f10",
          "transactionIndex": "0x5",
          "logIndex": "0xd",
          "removed": false
        }
      ],
      "status": "0x1",
      "logsBloom": "0x00000000000000000000000000000000000000000000000000000000000000000000000000000000000002000000000000000000000000000000000000200000000000000000000000000000000000000000000000000000000000000000000400000000000000000000000000000000400000000000000000000000400000000000000000000000000000000000000000000000000000000000000000000000020000000000000000000000000000000000000000000000000000000000000000000000000000020000000000000000000000000000400000800000000000000010000000000000000000000000000000000000001000200000000000000000",
      "type": "0x2",
      "effectiveGasPrice": "0x223e05b28"
    },
    {
      "transactionHash": "0x6f08efb1fd56ad81ed8d613172f2b4b29f87ba35378b72832bef749f20727dae",
      "transactionIndex": "0x6",
      "blockHash": "0xa39859f075bc1b1688c49cf966fbe73c47ae10bc26af9e629b9863d0f1a1ea9f",
      "blockNumber": "0x6b5b88",
      "from": "0xDdb342ecc94236c29a5307d3757d0724D759453C",
      "to": "0xCa14007Eff0dB1f8135f4C25B34De49AB0d42766",
      "cumulativeGasUsed": "0x81609",
      "gasUsed": "0xdea9",
      "contractAddress": null,
      "logs": [
        {
          "address": "0xCa14007Eff0dB1f8135f4C25B34De49AB0d42766",
          "topics": [
            "0xddf252ad1be2c89b69c2b068fc378daa952ba7f163c4a11628f55a4df523b3ef",
            "0x000000000000000000000000ddb342ecc94236c29a5307d3757d0724d759453c",
            "0x000000000000000000000000fd56da8288718fc12a3ee96b47e2e8e46618081d"
          ],
          "data": "0x000000000000000000000000000000000000000000000000000000000007a120",
          "blockHash": "0xa39859f075bc1b1688c49cf966fbe73c47ae10bc26af9e629b9863d0f1a1ea9f",
          "blockNumber": "0x6b5b88",
          "transactionHash": "0x6f08efb1fd56ad81ed8d613172f2b4b29f87ba35378b72832bef749f20727dae",
          "transactionIndex": "0x6",
          "logIndex": "0xe",
          "removed": false
        }
      ],
      "status": "0x1",
      "logsBloom": "0x00000000000000000000000000000000000000000000000000000000000000000000000000000000000002000000000000000000000000000000000000000000000000000000000000000008000000000000000000000000000000000000000400000000000000000000000000000000400000000000000000000010400000000000000000000000000000000000000000000000000000000000000000000000000000000000000000000000000000000000000000000000000000000000000000000002000000020000000000000000000000000000400000800000000000000000000000000000000000000000000000000000001000200000000000000000",
      "type": "0x2",
      "effectiveGasPrice": "0x223e05b28"
    },
    {
      "transactionHash": "0x5b599acec36d045bbaeb285938ad96942c924bba7e49dde087cff24c1789a495",
      "transactionIndex": "0x7",
      "blockHash": "0xa39859f075bc1b1688c49cf966fbe73c47ae10bc26af9e629b9863d0f1a1ea9f",
      "blockNumber": "0x6b5b88",
      "from": "0xDdb342ecc94236c29a5307d3757d0724D759453C",
      "to": "0xfD56da8288718FC12A3ee96b47E2e8e46618081d",
      "cumulativeGasUsed": "0xa249e",
      "gasUsed": "0x20e95",
      "contractAddress": null,
      "logs": [
        {
          "address": "0xCa14007Eff0dB1f8135f4C25B34De49AB0d42766",
          "topics": [
            "0x8c5be1e5ebec7d5bd14f71427d1e84f3dd0314c0f7b2291e5b200ac8c7c3b925",
            "0x000000000000000000000000fd56da8288718fc12a3ee96b47e2e8e46618081d",
            "0x000000000000000000000000ce5485cfb26914c5dce00b9baf0580364dafc7a4"
          ],
          "data": "0x000000000000000000000000000000000000000000000000000000000007a120",
          "blockHash": "0xa39859f075bc1b1688c49cf966fbe73c47ae10bc26af9e629b9863d0f1a1ea9f",
          "blockNumber": "0x6b5b88",
          "transactionHash": "0x5b599acec36d045bbaeb285938ad96942c924bba7e49dde087cff24c1789a495",
          "transactionIndex": "0x7",
          "logIndex": "0xf",
          "removed": false
        },
        {
          "address": "0xCa14007Eff0dB1f8135f4C25B34De49AB0d42766",
          "topics": [
            "0x8c5be1e5ebec7d5bd14f71427d1e84f3dd0314c0f7b2291e5b200ac8c7c3b925",
            "0x000000000000000000000000fd56da8288718fc12a3ee96b47e2e8e46618081d",
            "0x000000000000000000000000ce5485cfb26914c5dce00b9baf0580364dafc7a4"
          ],
          "data": "0x0000000000000000000000000000000000000000000000000000000000000000",
          "blockHash": "0xa39859f075bc1b1688c49cf966fbe73c47ae10bc26af9e629b9863d0f1a1ea9f",
          "blockNumber": "0x6b5b88",
          "transactionHash": "0x5b599acec36d045bbaeb285938ad96942c924bba7e49dde087cff24c1789a495",
          "transactionIndex": "0x7",
          "logIndex": "0x10",
          "removed": false
        },
        {
          "address": "0xCa14007Eff0dB1f8135f4C25B34De49AB0d42766",
          "topics": [
            "0xddf252ad1be2c89b69c2b068fc378daa952ba7f163c4a11628f55a4df523b3ef",
            "0x000000000000000000000000fd56da8288718fc12a3ee96b47e2e8e46618081d",
            "0x000000000000000000000000ce5485cfb26914c5dce00b9baf0580364dafc7a4"
          ],
          "data": "0x000000000000000000000000000000000000000000000000000000000007a120",
          "blockHash": "0xa39859f075bc1b1688c49cf966fbe73c47ae10bc26af9e629b9863d0f1a1ea9f",
          "blockNumber": "0x6b5b88",
          "transactionHash": "0x5b599acec36d045bbaeb285938ad96942c924bba7e49dde087cff24c1789a495",
          "transactionIndex": "0x7",
          "logIndex": "0x11",
          "removed": false
        },
        {
          "address": "0xE2Bb56ee936fd6433DC0F6e7e3b8365C906AA057",
          "topics": [
            "0xdb80dd488acf86d17c747445b0eabb5d57c541d3bd7b6b87af987858e5066b2b",
            "0x000000000000000000000000ce5485cfb26914c5dce00b9baf0580364dafc7a4",
            "0x0594c1582459ea03f77deaf9eb7e3917d6994a03c13405ba42867f83d85f085d",
            "0x01b64b1b3b690b43b9b514fb81377518f4039cd3e4f4914d8a6bdf01d679fb19"
          ],
          "data": "0x0000000000000000000000000000000000000000000000000000000000000060000000000000000000000000000000000000000000000000000000000000279a00000000000000000000000000000000000000000000000000005af3107a40000000000000000000000000000000000000000000000000000000000000000005000000000000000000000000ca14007eff0db1f8135f4c25b34de49ab0d42766000000000000000000000000fd56da8288718fc12a3ee96b47e2e8e46618081d06d49de1cc47bd0d2e0e26a421268ec0139dc43c0870d5c0dec58c7603e9b324000000000000000000000000000000000000000000000000000000000007a1200000000000000000000000000000000000000000000000000000000000000000",
          "blockHash": "0xa39859f075bc1b1688c49cf966fbe73c47ae10bc26af9e629b9863d0f1a1ea9f",
          "blockNumber": "0x6b5b88",
          "transactionHash": "0x5b599acec36d045bbaeb285938ad96942c924bba7e49dde087cff24c1789a495",
          "transactionIndex": "0x7",
          "logIndex": "0x12",
          "removed": false
        },
        {
          "address": "0xcE5485Cfb26914C5dcE00B9BAF0580364daFC7a4",
          "topics": [
            "0x5f971bd00bf3ffbca8a6d72cdd4fd92cfd4f62636161921d1e5a64f0b64ccb6d",
            "0x000000000000000000000000fd56da8288718fc12a3ee96b47e2e8e46618081d",
            "0x000000000000000000000000ca14007eff0db1f8135f4c25b34de49ab0d42766",
            "0x06d49de1cc47bd0d2e0e26a421268ec0139dc43c0870d5c0dec58c7603e9b324"
          ],
          "data": "0x000000000000000000000000000000000000000000000000000000000007a120000000000000000000000000000000000000000000000000000000000000279a00000000000000000000000000000000000000000000000000005af3107a4000",
          "blockHash": "0xa39859f075bc1b1688c49cf966fbe73c47ae10bc26af9e629b9863d0f1a1ea9f",
          "blockNumber": "0x6b5b88",
          "transactionHash": "0x5b599acec36d045bbaeb285938ad96942c924bba7e49dde087cff24c1789a495",
          "transactionIndex": "0x7",
          "logIndex": "0x13",
          "removed": false
        }
      ],
      "status": "0x1",
      "logsBloom": "0x00000800000000000200000000020000000000000000000000000000000000400000000000000000000022000000000000000000000004000000000000200000000000000000000000000008080000000000000000000040001000000000000001000000100000000000000000000000000000000000000000000010000008002000000000000000000000000400000000000000000200000000020000000010020000000000000000000020000000001000000000000020000000000000000000000002000000024010000000000000000000200000400000800000000000000010000000010000000000020084000000000000001000200000000000000000",
      "type": "0x2",
      "effectiveGasPrice": "0x223e05b28"
    },
    {
      "transactionHash": "0x40356bc61a25a1975418dc33ade1ca25f2e4539867891ee5caf15a43e674e85f",
      "transactionIndex": "0x8",
      "blockHash": "0xa39859f075bc1b1688c49cf966fbe73c47ae10bc26af9e629b9863d0f1a1ea9f",
      "blockNumber": "0x6b5b88",
      "from": "0xDdb342ecc94236c29a5307d3757d0724D759453C",
      "to": "0xfD56da8288718FC12A3ee96b47E2e8e46618081d",
      "cumulativeGasUsed": "0xb50c4",
      "gasUsed": "0x12c26",
      "contractAddress": null,
      "logs": [
        {
          "address": "0xE2Bb56ee936fd6433DC0F6e7e3b8365C906AA057",
          "topics": [
            "0xdb80dd488acf86d17c747445b0eabb5d57c541d3bd7b6b87af987858e5066b2b",
            "0x000000000000000000000000fd56da8288718fc12a3ee96b47e2e8e46618081d",
            "0x06d49de1cc47bd0d2e0e26a421268ec0139dc43c0870d5c0dec58c7603e9b324",
            "0x00f1149cade9d692862ad41df96b108aa2c20af34f640457e781d166c98dc6b0"
          ],
          "data": "0x0000000000000000000000000000000000000000000000000000000000000060000000000000000000000000000000000000000000000000000000000000279b000000000000000000000000000000000000000000000000000000000007a12000000000000000000000000000000000000000000000000000000000000000080000000000000000000000000000000000000000000000000000000000000000000000000000000000000000ddb342ecc94236c29a5307d3757d0724d759453c04718f5a0fc34cc1af16a1cdee98ffb20c31f5cd61d6ab07201858f4287c938d053b40a647cedfca6ca84f542a0fe36736031905a9639a7f19a3c1e66bfd5080000000000000000000000000000000000000000000000000000000000000000000000000000000000000000000000000000000000000000000000000672de23000000000000000000000000000000000000000000000000000000000672de270000000000000000000000000000000000000000000000000000000000007a120",
          "blockHash": "0xa39859f075bc1b1688c49cf966fbe73c47ae10bc26af9e629b9863d0f1a1ea9f",
          "blockNumber": "0x6b5b88",
          "transactionHash": "0x40356bc61a25a1975418dc33ade1ca25f2e4539867891ee5caf15a43e674e85f",
          "transactionIndex": "0x8",
          "logIndex": "0x14",
          "removed": false
        }
      ],
      "status": "0x1",
      "logsBloom": "0x00400800000000000000000000020000000000000000000000000000000000000000000000000000000022000000000000000000000000000000000000000000000000000000000000000000000000000000000000000040001000000000000001000000100000010000000000000000000000000000000000000000000000000000000000000000000000000000000004000000000000000000000000000010000000000000000000000020000000000000000000000000000000000000000000000000000000000000000000000000000000000000400000000000000000000000000000000000000000000000000000000000000000200000000000000000",
      "type": "0x2",
      "effectiveGasPrice": "0x223e05b28"
    }
  ],
  "libraries": [],
  "pending": [],
  "returns": {},
  "timestamp": 1731060340,
  "chain": 11155111,
  "multi": false,
  "commit": "7c9bc56"
}