{
  "transactions": [
    {
      "hash": "0xe9ac9c37393fe68683a06c871fbd8efa89b8e0cfda08036e43b6a0057bebedc2",
      "transactionType": "CALL",
      "contractName": "StarkNetToken",
      "contractAddress": "0xCa14007Eff0dB1f8135f4C25B34De49AB0d42766",
      "function": "approve(address,uint256)",
      "arguments": [
        "0x86BFbbaCCafa9a422978f00b35f97D95844fb83A",
        "115792089237316195423570985008687907853269984665640564039457584007913129639935"
      ],
      "transaction": {
        "type": "0x02",
        "from": "0xddb342ecc94236c29a5307d3757d0724d759453c",
        "to": "0xca14007eff0db1f8135f4c25b34de49ab0d42766",
        "gas": "0x93a9",
        "value": "0x0",
        "data": "0x095ea7b300000000000000000000000086bfbbaccafa9a422978f00b35f97d95844fb83affffffffffffffffffffffffffffffffffffffffffffffffffffffffffffffff",
        "nonce": "0x34c",
        "accessList": []
      },
      "additionalContracts": [],
      "isFixedGasLimit": false
    },
    {
      "hash": "0xee5fa6245fed1d51c7babe163e3c36ad454457a00df048d62704d7371cfe1f7a",
      "transactionType": "CALL",
      "contractName": null,
      "contractAddress": "0x86BFbbaCCafa9a422978f00b35f97D95844fb83A",
      "function": "initiateWithdrawal(uint256,address)",
      "arguments": [
        "50000000000000000",
        "0x1c7D4B196Cb0C7B01d743Fbc6116a902379C7238"
      ],
      "transaction": {
        "type": "0x02",
        "from": "0xddb342ecc94236c29a5307d3757d0724d759453c",
        "to": "0x86bfbbaccafa9a422978f00b35f97d95844fb83a",
        "gas": "0x1bbb0",
        "value": "0x1c6bf52634000",
        "data": "0x5443812700000000000000000000000000000000000000000000000000b1a2bc2ec500000000000000000000000000001c7d4b196cb0c7b01d743fbc6116a902379c7238",
        "nonce": "0x34d",
        "accessList": []
      },
      "additionalContracts": [],
      "isFixedGasLimit": false
    }
  ],
  "receipts": [
    {
      "transactionHash": "0xe9ac9c37393fe68683a06c871fbd8efa89b8e0cfda08036e43b6a0057bebedc2",
      "transactionIndex": "0x6",
      "blockHash": "0x923b9124f7aacf7cadc25f8736895aaeb1d008e391e35eeaa3fa57e1bc065ef6",
      "blockNumber": "0x6ccb77",
      "from": "0xDdb342ecc94236c29a5307d3757d0724D759453C",
      "to": "0xCa14007Eff0dB1f8135f4C25B34De49AB0d42766",
      "cumulativeGasUsed": "0xf8187",
      "gasUsed": "0x6ae8",
      "contractAddress": null,
      "logs": [
        {
          "address": "0xCa14007Eff0dB1f8135f4C25B34De49AB0d42766",
          "topics": [
            "0x8c5be1e5ebec7d5bd14f71427d1e84f3dd0314c0f7b2291e5b200ac8c7c3b925",
            "0x000000000000000000000000ddb342ecc94236c29a5307d3757d0724d759453c",
            "0x00000000000000000000000086bfbbaccafa9a422978f00b35f97d95844fb83a"
          ],
          "data": "0xffffffffffffffffffffffffffffffffffffffffffffffffffffffffffffffff",
          "blockHash": "0x923b9124f7aacf7cadc25f8736895aaeb1d008e391e35eeaa3fa57e1bc065ef6",
          "blockNumber": "0x6ccb77",
          "transactionHash": "0xe9ac9c37393fe68683a06c871fbd8efa89b8e0cfda08036e43b6a0057bebedc2",
          "transactionIndex": "0x6",
          "logIndex": "0x1b",
          "removed": false
        }
      ],
      "status": "0x1",
      "logsBloom": "0x00000000800000000000000000000000000000000000000000000000000000000000000000000000000000000000000000000000000000000000000000200000000000000000000000000000000000000000000000000000000000000000000400000000000000000000000004000000400000000000000000000000400000000000000000000000000000000000000000000000000000000000000000000000022000000000000000000000000000000000000000000000000000000000000000000000000000020000000000000000000000000000000000800000000000000010000000000000000000000000000000000000001000000000000000000000",
      "type": "0x2",
      "effectiveGasPrice": "0x491d57438"
    },
    {
      "transactionHash": "0xee5fa6245fed1d51c7babe163e3c36ad454457a00df048d62704d7371cfe1f7a",
      "transactionIndex": "0x7",
      "blockHash": "0x923b9124f7aacf7cadc25f8736895aaeb1d008e391e35eeaa3fa57e1bc065ef6",
      "blockNumber": "0x6ccb77",
      "from": "0xDdb342ecc94236c29a5307d3757d0724D759453C",
      "to": "0x86BFbbaCCafa9a422978f00b35f97D95844fb83A",
      "cumulativeGasUsed": "0x10b0e8",
      "gasUsed": "0x12f61",
      "contractAddress": null,
      "logs": [
        {
          "address": "0xE2Bb56ee936fd6433DC0F6e7e3b8365C906AA057",
          "topics": [
            "0xdb80dd488acf86d17c747445b0eabb5d57c541d3bd7b6b87af987858e5066b2b",
            "0x00000000000000000000000086bfbbaccafa9a422978f00b35f97d95844fb83a",
            "0x003ab3e22ed982eee791557781ca80a3859afc78f5e6cce579d15bed1fa66972",
            "0x00f1149cade9d692862ad41df96b108aa2c20af34f640457e781d166c98dc6b0"
          ],
          "data": "0x000000000000000000000000000000000000000000000000000000000000006000000000000000000000000000000000000000000000000000000000000029090000000000000000000000000000000000000000000000000001c6bf5263400000000000000000000000000000000000000000000000000000000000000000090000000000000000000000000000000000000000000000000000000000000002000000000000000000000000ddb342ecc94236c29a5307d3757d0724d759453c00000000000000000000000000000000000000000000000000000000000000000000000000000000000000001c7d4b196cb0c7b01d743fbc6116a902379c723800000000000000000000000000000000000000000000000000000000000000000000000000000000000000000000000000000000000000000000000000000000000000000000000000000000000000000000000000000000000000000000000000000000000000000000000000000000000000000000000000b1a2bc2ec500000000000000000000000000000000000000000000000000000000000000000000",
          "blockHash": "0x923b9124f7aacf7cadc25f8736895aaeb1d008e391e35eeaa3fa57e1bc065ef6",
          "blockNumber": "0x6ccb77",
          "transactionHash": "0xee5fa6245fed1d51c7babe163e3c36ad454457a00df048d62704d7371cfe1f7a",
          "transactionIndex": "0x7",
          "logIndex": "0x1c",
          "removed": false
        },
        {
          "address": "0x86BFbbaCCafa9a422978f00b35f97D95844fb83A",
          "topics": [
            "0x6d92f7d3303f995bf21956bb0c51b388bae348eaf45c23debd2cfa3fcd9ec646",
            "0x000000000000000000000000ddb342ecc94236c29a5307d3757d0724d759453c"
          ],
          "data": "0x00000000000000000000000000000000000000000000000000b1a2bc2ec50000",
          "blockHash": "0x923b9124f7aacf7cadc25f8736895aaeb1d008e391e35eeaa3fa57e1bc065ef6",
          "blockNumber": "0x6ccb77",
          "transactionHash": "0xee5fa6245fed1d51c7babe163e3c36ad454457a00df048d62704d7371cfe1f7a",
          "transactionIndex": "0x7",
          "logIndex": "0x1d",
          "removed": false
        }
      ],
      "status": "0x1",
      "logsBloom": "0x00400000800000000000000000020400000000000000400000000000000800000000000000000000000000000000000000008000000000000000000000000000000000000000000000000800000000000000000000000040001000000000000400000000100000010000000004000000400000000000000000000000400000000000000000000000000000000000000004000000000000000000000000000010002000000000000040000020004000000000000000000000000000000000000000000000000000000000000000000000000000000000000000000800000000000000001000000000000000000000000000000000000000000000000000000000",
      "type": "0x2",
      "effectiveGasPrice": "0x491d57438"
    }
  ],
  "libraries": [],
  "pending": [],
  "returns": {},
  "timestamp": 1732286439,
  "chain": 11155111,
  "multi": false,
  "commit": "56a4d39"
}