{
  "transactions": [
    {
      "hash": "0x305a4552d3876e85fcd1ea0f22f3491182ebf2811a57a797e99ff6a63fd4883e",
      "transactionType": "CALL",
      "contractName": null,
      "contractAddress": "0xd3d913c0e3c85d6899b3953169014f87f57138e2",
      "function": "setL2EndpointAddress(uint256)",
      "arguments": [
        "2569639627509262774299360552210909587064759874720422393331656688514562998158"
      ],
      "transaction": {
        "from": "0xddb342ecc94236c29a5307d3757d0724d759453c",
        "to": "0xd3d913c0e3c85d6899b3953169014f87f57138e2",
        "gas": "0xa23f",
        "value": "0x0",
        "input": "0x5155fb2f05ae5d4f1d34038e4fcb69c97df6e654b9d8aed2711be385cd8f9cae1e873f8e",
        "nonce": "0x552",
        "chainId": "0xaa36a7"
      },
      "additionalContracts": [],
      "isFixedGasLimit": false
    }
  ],
  "receipts": [
    {
      "status": "0x1",
      "cumulativeGasUsed": "0x15d97f4",
      "logs": [
        {
          "address": "0xd3d913c0e3c85d6899b3953169014f87f57138e2",
          "topics": [
            "0xa35dce9e53611b0cabca886209c4a1d09c80214af9b6fb6027f7b2f7c39838e8"
          ],
          "data": "0x05ae5d4f1d34038e4fcb69c97df6e654b9d8aed2711be385cd8f9cae1e873f8e",
          "blockHash": "0x951e97af648cbae039da740e9b4ef256869fef56134f9ef522a7c3c8f8b2582e",
          "blockNumber": "0x735ec7",
          "transactionHash": "0x305a4552d3876e85fcd1ea0f22f3491182ebf2811a57a797e99ff6a63fd4883e",
          "transactionIndex": "0xaa",
          "logIndex": "0x191",
          "removed": false
        }
      ],
      "logsBloom": "0x00000000000000000000000010000000000000000000000000000000000000000000000000000000000000000000000000000000000000000000000000000000000000000000000080000000000200000000000000000000000000000000000000000000000000000000000000000000000000000000000000000000000000000000000000000000000000000000000000000000000000000000000000000000800000000000000000000000000000000000000000000000000000000000000000000000000000000000000000000000000000000000000000000000000000002000000100000000000000000000000000000000000000000000000000000000",
      "type": "0x2",
      "transactionHash": "0x305a4552d3876e85fcd1ea0f22f3491182ebf2811a57a797e99ff6a63fd4883e",
      "transactionIndex": "0xaa",
      "blockHash": "0x951e97af648cbae039da740e9b4ef256869fef56134f9ef522a7c3c8f8b2582e",
      "blockNumber": "0x735ec7",
      "gasUsed": "0x7577",
      "effectiveGasPrice": "0x93bf04437",
      "from": "0xddb342ecc94236c29a5307d3757d0724d759453c",
      "to": "0xd3d913c0e3c85d6899b3953169014f87f57138e2",
      "contractAddress": null
    }
  ],
  "libraries": [],
  "pending": [],
  "returns": {},
  "timestamp": 1737721177,
  "chain": 11155111,
  "commit": "19821e3"
}