{
  "transactions": [
    {
      "hash": "0xfcf0ea94167e9d4c794a193484eff9fe1261b9430faf373dc4e9b1f74a49d9c0",
      "transactionType": "CALL",
      "contractName": "StarkNetToken",
      "contractAddress": "0xCa14007Eff0dB1f8135f4C25B34De49AB0d42766",
      "function": "approve(address,uint256)",
      "arguments": [
        "0xa37Cb2cD03619597Bca95D8DCbcCcb642e526756",
        "115792089237316195423570985008687907853269984665640564039457584007913129639935"
      ],
      "transaction": {
        "type": "0x02",
        "from": "0xddb342ecc94236c29a5307d3757d0724d759453c",
        "to": "0xca14007eff0db1f8135f4c25b34de49ab0d42766",
        "gas": "0x93a9",
        "value": "0x0",
        "data": "0x095ea7b3000000000000000000000000a37cb2cd03619597bca95d8dcbcccb642e526756ffffffffffffffffffffffffffffffffffffffffffffffffffffffffffffffff",
        "nonce": "0x253",
        "accessList": []
      },
      "additionalContracts": [],
      "isFixedGasLimit": false
    },
    {
      "hash": "0x3a4ed25fef897e2347efaa88c85df2e5cb79c596ad02ced2e39b7ad42489fd3f",
      "transactionType": "CALL",
      "contractName": "Proxy",
      "contractAddress": "0xE2Bb56ee936fd6433DC0F6e7e3b8365C906AA057",
      "function": "sendMessageToL2(uint256,uint256,uint256[])",
      "arguments": [
        "3421787914070682271509539825269293548873784048280752321935402925129945361143",
        "425952401605428413817582304755919420533935873840436977667370850915372091056",
        "[0, 1265684623727634235329190328445374361672779121980, 2009894490435840142178314390393166646092438090257831307886760648929397478285, 2366254414417873771392932940469309727793822550615514268240785277201753657472, 0, 1731096816, 1731096880, 500000]"
      ],
      "transaction": {
        "type": "0x02",
        "from": "0xddb342ecc94236c29a5307d3757d0724d759453c",
        "to": "0xe2bb56ee936fd6433dc0f6e7e3b8365c906aa057",
        "gas": "0x17336",
        "value": "0x5af3107a4000",
        "data": "0x3e3aa6c50790a9cfc5ae2654f8def17ff20b0cde2f8b2a3d449801887d92fc4c8e54aaf700f1149cade9d692862ad41df96b108aa2c20af34f640457e781d166c98dc6b0000000000000000000000000000000000000000000000000000000000000006000000000000000000000000000000000000000000000000000000000000000080000000000000000000000000000000000000000000000000000000000000000000000000000000000000000ddb342ecc94236c29a5307d3757d0724d759453c04718f5a0fc34cc1af16a1cdee98ffb20c31f5cd61d6ab07201858f4287c938d053b40a647cedfca6ca84f542a0fe36736031905a9639a7f19a3c1e66bfd5080000000000000000000000000000000000000000000000000000000000000000000000000000000000000000000000000000000000000000000000000672e70f000000000000000000000000000000000000000000000000000000000672e7130000000000000000000000000000000000000000000000000000000000007a120",
        "nonce": "0x254",
        "accessList": []
      },
      "additionalContracts": [],
      "isFixedGasLimit": false
    }
  ],
  "receipts": [
    {
      "transactionHash": "0xfcf0ea94167e9d4c794a193484eff9fe1261b9430faf373dc4e9b1f74a49d9c0",
      "transactionIndex": "0x12",
      "blockHash": "0x08bba7d784aab7ce29c6c8460248098e07e0fc63d3faf9453a2a3f229454c01b",
      "blockNumber": "0x6b6589",
      "from": "0xDdb342ecc94236c29a5307d3757d0724D759453C",
      "to": "0xCa14007Eff0dB1f8135f4C25B34De49AB0d42766",
      "cumulativeGasUsed": "0x539ec7",
      "gasUsed": "0x6ae8",
      "contractAddress": null,
      "logs": [
        {
          "address": "0xCa14007Eff0dB1f8135f4C25B34De49AB0d42766",
          "topics": [
            "0x8c5be1e5ebec7d5bd14f71427d1e84f3dd0314c0f7b2291e5b200ac8c7c3b925",
            "0x000000000000000000000000ddb342ecc94236c29a5307d3757d0724d759453c",
            "0x000000000000000000000000a37cb2cd03619597bca95d8dcbcccb642e526756"
          ],
          "data": "0xffffffffffffffffffffffffffffffffffffffffffffffffffffffffffffffff",
          "blockHash": "0x08bba7d784aab7ce29c6c8460248098e07e0fc63d3faf9453a2a3f229454c01b",
          "blockNumber": "0x6b6589",
          "transactionHash": "0xfcf0ea94167e9d4c794a193484eff9fe1261b9430faf373dc4e9b1f74a49d9c0",
          "transactionIndex": "0x12",
          "logIndex": "0x18",
          "removed": false
        }
      ],
      "status": "0x1",
      "logsBloom": "0x00000000000000002000000000000000000000000000000000000000000000000000000000000000000000000000000000000000000000000000000000200100000000000000000000000000000000000000000000000000000000000000000400000000000000000000000000000000400000000020000000000000400000000000000000000000000000000000000000000000000000000000000000000000020000000000000000000000000000000000000000000000000000000000000000000000000000020000000000000000000000000000000000800000000000000010000000000000000000000000000000000000001000000000000000000000",
      "type": "0x2",
      "effectiveGasPrice": "0x16e988993"
    },
    {
      "transactionHash": "0x3a4ed25fef897e2347efaa88c85df2e5cb79c596ad02ced2e39b7ad42489fd3f",
      "transactionIndex": "0x13",
      "blockHash": "0x08bba7d784aab7ce29c6c8460248098e07e0fc63d3faf9453a2a3f229454c01b",
      "blockNumber": "0x6b6589",
      "from": "0xDdb342ecc94236c29a5307d3757d0724D759453C",
      "to": "0xE2Bb56ee936fd6433DC0F6e7e3b8365C906AA057",
      "cumulativeGasUsed": "0x549c99",
      "gasUsed": "0xfdd2",
      "contractAddress": null,
      "logs": [
        {
          "address": "0xE2Bb56ee936fd6433DC0F6e7e3b8365C906AA057",
          "topics": [
            "0xdb80dd488acf86d17c747445b0eabb5d57c541d3bd7b6b87af987858e5066b2b",
            "0x000000000000000000000000ddb342ecc94236c29a5307d3757d0724d759453c",
            "0x0790a9cfc5ae2654f8def17ff20b0cde2f8b2a3d449801887d92fc4c8e54aaf7",
            "0x00f1149cade9d692862ad41df96b108aa2c20af34f640457e781d166c98dc6b0"
          ],
          "data": "0x000000000000000000000000000000000000000000000000000000000000006000000000000000000000000000000000000000000000000000000000000027a800000000000000000000000000000000000000000000000000005af3107a400000000000000000000000000000000000000000000000000000000000000000080000000000000000000000000000000000000000000000000000000000000000000000000000000000000000ddb342ecc94236c29a5307d3757d0724d759453c04718f5a0fc34cc1af16a1cdee98ffb20c31f5cd61d6ab07201858f4287c938d053b40a647cedfca6ca84f542a0fe36736031905a9639a7f19a3c1e66bfd5080000000000000000000000000000000000000000000000000000000000000000000000000000000000000000000000000000000000000000000000000672e70f000000000000000000000000000000000000000000000000000000000672e7130000000000000000000000000000000000000000000000000000000000007a120",
          "blockHash": "0x08bba7d784aab7ce29c6c8460248098e07e0fc63d3faf9453a2a3f229454c01b",
          "blockNumber": "0x6b6589",
          "transactionHash": "0x3a4ed25fef897e2347efaa88c85df2e5cb79c596ad02ced2e39b7ad42489fd3f",
          "transactionIndex": "0x13",
          "logIndex": "0x19",
          "removed": false
        }
      ],
      "status": "0x1",
      "logsBloom": "0x00400000000000000000000000020000000000000000000000000000000000000000000000000000000000000000000000000000000000000000000000000020000000000000000000000000000000000000000000000040001000000000000400000000100000010002000000000000400000000000000000000000400000000000000000000000000000000000000004000000000000000000000000000010000000000000000000000020000000000040000000000000000000000000000000000000000000000000000000000000000000000000000000000000000000000000000000000000000000000000000000000000000000000000000000000000",
      "type": "0x2",
      "effectiveGasPrice": "0x16e988993"
    }
  ],
  "libraries": [],
  "pending": [],
  "returns": {},
  "timestamp": 1731096869,
  "chain": 11155111,
  "multi": false,
  "commit": "75c82f5"
}