{
  "transactions": [
    {
      "hash": "0x2181c5eee0e54060086d6c92b1770e764d49b35c3aece00fe41517e860149c81",
      "transactionType": "CALL",
      "contractName": "StarkNetToken",
      "contractAddress": "0xCa14007Eff0dB1f8135f4C25B34De49AB0d42766",
      "function": "approve(address,uint256)",
      "arguments": [
        "0x7eb4C59eABE1234E8A6D02FdF4d1BB595C4702Cd",
        "115792089237316195423570985008687907853269984665640564039457584007913129639935"
      ],
      "transaction": {
        "type": "0x02",
        "from": "0xddb342ecc94236c29a5307d3757d0724d759453c",
        "to": "0xca14007eff0db1f8135f4c25b34de49ab0d42766",
        "gas": "0x93a9",
        "value": "0x0",
        "data": "0x095ea7b30000000000000000000000007eb4c59eabe1234e8a6d02fdf4d1bb595c4702cdffffffffffffffffffffffffffffffffffffffffffffffffffffffffffffffff",
        "nonce": "0x35a",
        "accessList": []
      },
      "additionalContracts": [],
      "isFixedGasLimit": false
    },
    {
      "hash": "0x76fc756d71a6870ea4a5a72b65ca4ccee334b93581bf723fa2f78c46f8a46deb",
      "transactionType": "CALL",
      "contractName": "Proxy",
      "contractAddress": "0xE2Bb56ee936fd6433DC0F6e7e3b8365C906AA057",
      "function": "sendMessageToL2(uint256,uint256,uint256[])",
      "arguments": [
        "2258992648689496964006205690611118620783054004623630209335656735200797133329",
        "425952401605428413817582304755919420533935873840436977667370850915372091056",
        "[3, 1265684623727634235329190328445374361672779121980, 0, 162645876805862407557836451532389263558424949304, 0, 0, 0, 500000000000000, 1613553031957232432120143202400887878434836332722537805011348850121881864968]"
      ],
      "transaction": {
        "type": "0x02",
        "from": "0xddb342ecc94236c29a5307d3757d0724d759453c",
        "to": "0xe2bb56ee936fd6433dc0f6e7e3b8365c906aa057",
        "gas": "0x15fbc",
        "value": "0x1c6bf52634000",
        "data": "0x3e3aa6c504fe8b6644cdf2a469abc0dcf097cdd3608e2f89c1c189962f0a6d8a1d7e0a1100f1149cade9d692862ad41df96b108aa2c20af34f640457e781d166c98dc6b0000000000000000000000000000000000000000000000000000000000000006000000000000000000000000000000000000000000000000000000000000000090000000000000000000000000000000000000000000000000000000000000003000000000000000000000000ddb342ecc94236c29a5307d3757d0724d759453c00000000000000000000000000000000000000000000000000000000000000000000000000000000000000001c7d4b196cb0c7b01d743fbc6116a902379c72380000000000000000000000000000000000000000000000000000000000000000000000000000000000000000000000000000000000000000000000000000000000000000000000000000000000000000000000000000000000000000000000000000000000000000000000000000000000000000000000000001c6bf5263400003913d184e537671dfeca3f67015bb845f2d12a26e5ec56bdc495913b20acb08",
        "nonce": "0x35b",
        "accessList": []
      },
      "additionalContracts": [],
      "isFixedGasLimit": false
    }
  ],
  "receipts": [],
  "libraries": [],
  "pending": [
    "0x2181c5eee0e54060086d6c92b1770e764d49b35c3aece00fe41517e860149c81",
    "0x76fc756d71a6870ea4a5a72b65ca4ccee334b93581bf723fa2f78c46f8a46deb"
  ],
  "returns": {},
  "timestamp": 1732626272,
  "chain": 11155111,
  "multi": false,
  "commit": "1254ada"
}