{
  "transactions": [
    {
      "hash": "0x8ba26b7e98bb5e34faa7ead95a41ddd698dd5e89717a93b9e428375bd8fb17dd",
      "transactionType": "CALL",
      "contractName": "StarkNetToken",
      "contractAddress": "0xCa14007Eff0dB1f8135f4C25B34De49AB0d42766",
      "function": "approve(address,uint256)",
      "arguments": [
        "0xcE5485Cfb26914C5dcE00B9BAF0580364daFC7a4",
        "115792089237316195423570985008687907853269984665640564039457584007913129639935"
      ],
      "transaction": {
        "type": "0x02",
        "from": "0xddb342ecc94236c29a5307d3757d0724d759453c",
        "to": "0xca14007eff0db1f8135f4c25b34de49ab0d42766",
        "gas": "0x93a9",
        "value": "0x0",
        "data": "0x095ea7b3000000000000000000000000ce5485cfb26914c5dce00b9baf0580364dafc7a4ffffffffffffffffffffffffffffffffffffffffffffffffffffffffffffffff",
        "nonce": "0x319",
        "accessList": []
      },
      "additionalContracts": [],
      "isFixedGasLimit": false
    },
    {
      "hash": "0x2f2a5313a93788022f06f4468f4df1051b9cc3ca0493f0870ee93b26c978c9f8",
      "transactionType": "CALL",
      "contractName": "Proxy",
      "contractAddress": "0xcE5485Cfb26914C5dcE00B9BAF0580364daFC7a4",
      "function": "deposit(uint256,uint256)",
      "arguments": [
        "500000000000",
        "3194435984014145551229495133282245157638173580087187245605185774843875992479"
      ],
      "transaction": {
        "type": "0x02",
        "from": "0xddb342ecc94236c29a5307d3757d0724d759453c",
        "to": "0xce5485cfb26914c5dce00b9baf0580364dafc7a4",
        "gas": "0x2c22b",
        "value": "0x38d7ea4c68000",
        "data": "0xe2bbb158000000000000000000000000000000000000000000000000000000746a528800070ffc97ffb2fdc2b6f01845f86f8357674babea62730b53f10cd34f92e2a39f",
        "nonce": "0x31a",
        "accessList": []
      },
      "additionalContracts": [],
      "isFixedGasLimit": false
    },
    {
      "hash": "0x14e68196edac6356b04be2aab668198f66891b8e0efd874dceed8abc447fd3b6",
      "transactionType": "CALL",
      "contractName": "Proxy",
      "contractAddress": "0xE2Bb56ee936fd6433DC0F6e7e3b8365C906AA057",
      "function": "sendMessageToL2(uint256,uint256,uint256[])",
      "arguments": [
        "3194435984014145551229495133282245157638173580087187245605185774843875992479",
        "425952401605428413817582304755919420533935873840436977667370850915372091056",
        "[0, 1265684623727634235329190328445374361672779121980, 2009894490435840142178314390393166646092438090257831307886760648929397478285, 2366254414417873771392932940469309727793822550615514268240785277201753657472, 170141183460469235273462165868118016, 1731726784, 1731726848, 500000000000, 2524392021852001135582825949054576525094493216367559068627275826195272239197]"
      ],
      "transaction": {
        "type": "0x02",
        "from": "0xddb342ecc94236c29a5307d3757d0724d759453c",
        "to": "0xe2bb56ee936fd6433dc0f6e7e3b8365c906aa057",
        "gas": "0x17832",
        "value": "0x38d7ea4c68000",
        "data": "0x3e3aa6c5070ffc97ffb2fdc2b6f01845f86f8357674babea62730b53f10cd34f92e2a39f00f1149cade9d692862ad41df96b108aa2c20af34f640457e781d166c98dc6b0000000000000000000000000000000000000000000000000000000000000006000000000000000000000000000000000000000000000000000000000000000090000000000000000000000000000000000000000000000000000000000000000000000000000000000000000ddb342ecc94236c29a5307d3757d0724d759453c04718f5a0fc34cc1af16a1cdee98ffb20c31f5cd61d6ab07201858f4287c938d053b40a647cedfca6ca84f542a0fe36736031905a9639a7f19a3c1e66bfd5080000000000000000000000000000000000020c49ba5e353f800000000000000000000000000000000000000000000000000000000000000000000000067380dc00000000000000000000000000000000000000000000000000000000067380e00000000000000000000000000000000000000000000000000000000746a5288000594c1582459ea03f77deaf9eb7e3917d6994a03c13405ba42867f83d85f085d",
        "nonce": "0x31b",
        "accessList": []
      },
      "additionalContracts": [],
      "isFixedGasLimit": false
    }
  ],
  "receipts": [
    {
      "transactionHash": "0x8ba26b7e98bb5e34faa7ead95a41ddd698dd5e89717a93b9e428375bd8fb17dd",
      "transactionIndex": "0x0",
      "blockHash": "0x40723978a8b249ac95d75901ada4bb8ee2deb0511e82552ca0f33f83cfbba579",
      "blockNumber": "0x6c204f",
      "from": "0xDdb342ecc94236c29a5307d3757d0724D759453C",
      "to": "0xCa14007Eff0dB1f8135f4C25B34De49AB0d42766",
      "cumulativeGasUsed": "0x6ae8",
      "gasUsed": "0x6ae8",
      "contractAddress": null,
      "logs": [
        {
          "address": "0xCa14007Eff0dB1f8135f4C25B34De49AB0d42766",
          "topics": [
            "0x8c5be1e5ebec7d5bd14f71427d1e84f3dd0314c0f7b2291e5b200ac8c7c3b925",
            "0x000000000000000000000000ddb342ecc94236c29a5307d3757d0724d759453c",
            "0x000000000000000000000000ce5485cfb26914c5dce00b9baf0580364dafc7a4"
          ],
          "data": "0xffffffffffffffffffffffffffffffffffffffffffffffffffffffffffffffff",
          "blockHash": "0x40723978a8b249ac95d75901ada4bb8ee2deb0511e82552ca0f33f83cfbba579",
          "blockNumber": "0x6c204f",
          "transactionHash": "0x8ba26b7e98bb5e34faa7ead95a41ddd698dd5e89717a93b9e428375bd8fb17dd",
          "transactionIndex": "0x0",
          "logIndex": "0x0",
          "removed": false
        }
      ],
      "status": "0x1",
      "logsBloom": "0x00000000000000000000000000000000000000000000000000000000000000000000000000000000000000000000000000000000000000000000000000200000000000000000000000000000000000000000000000000000000000000000000400000000000000000000000000000000400000000000000000000000400008000000000000000000000000000000000000000000000000000000000000000000020000000000000000000000000000001000000000000000000000000000000000000000000000020010000000000000000000000000000000800000000000000010000000000000000000000000000000000000001000000000000000000000",
      "type": "0x2",
      "effectiveGasPrice": "0xbefeea53"
    },
    {
      "transactionHash": "0x2f2a5313a93788022f06f4468f4df1051b9cc3ca0493f0870ee93b26c978c9f8",
      "transactionIndex": "0x1",
      "blockHash": "0x40723978a8b249ac95d75901ada4bb8ee2deb0511e82552ca0f33f83cfbba579",
      "blockNumber": "0x6c204f",
      "from": "0xDdb342ecc94236c29a5307d3757d0724D759453C",
      "to": "0xcE5485Cfb26914C5dcE00B9BAF0580364daFC7a4",
      "cumulativeGasUsed": "0x24dc2",
      "gasUsed": "0x1e2da",
      "contractAddress": null,
      "logs": [
        {
          "address": "0xCa14007Eff0dB1f8135f4C25B34De49AB0d42766",
          "topics": [
            "0xddf252ad1be2c89b69c2b068fc378daa952ba7f163c4a11628f55a4df523b3ef",
            "0x000000000000000000000000ddb342ecc94236c29a5307d3757d0724d759453c",
            "0x000000000000000000000000ce5485cfb26914c5dce00b9baf0580364dafc7a4"
          ],
          "data": "0x000000000000000000000000000000000000000000000000000000746a528800",
          "blockHash": "0x40723978a8b249ac95d75901ada4bb8ee2deb0511e82552ca0f33f83cfbba579",
          "blockNumber": "0x6c204f",
          "transactionHash": "0x2f2a5313a93788022f06f4468f4df1051b9cc3ca0493f0870ee93b26c978c9f8",
          "transactionIndex": "0x1",
          "logIndex": "0x1",
          "removed": false
        },
        {
          "address": "0xE2Bb56ee936fd6433DC0F6e7e3b8365C906AA057",
          "topics": [
            "0xdb80dd488acf86d17c747445b0eabb5d57c541d3bd7b6b87af987858e5066b2b",
            "0x000000000000000000000000ce5485cfb26914c5dce00b9baf0580364dafc7a4",
            "0x0594c1582459ea03f77deaf9eb7e3917d6994a03c13405ba42867f83d85f085d",
            "0x01b64b1b3b690b43b9b514fb81377518f4039cd3e4f4914d8a6bdf01d679fb19"
          ],
          "data": "0x0000000000000000000000000000000000000000000000000000000000000060000000000000000000000000000000000000000000000000000000000000288700000000000000000000000000000000000000000000000000038d7ea4c680000000000000000000000000000000000000000000000000000000000000000005000000000000000000000000ca14007eff0db1f8135f4c25b34de49ab0d42766000000000000000000000000ddb342ecc94236c29a5307d3757d0724d759453c070ffc97ffb2fdc2b6f01845f86f8357674babea62730b53f10cd34f92e2a39f000000000000000000000000000000000000000000000000000000746a5288000000000000000000000000000000000000000000000000000000000000000000",
          "blockHash": "0x40723978a8b249ac95d75901ada4bb8ee2deb0511e82552ca0f33f83cfbba579",
          "blockNumber": "0x6c204f",
          "transactionHash": "0x2f2a5313a93788022f06f4468f4df1051b9cc3ca0493f0870ee93b26c978c9f8",
          "transactionIndex": "0x1",
          "logIndex": "0x2",
          "removed": false
        },
        {
          "address": "0xcE5485Cfb26914C5dcE00B9BAF0580364daFC7a4",
          "topics": [
            "0x5f971bd00bf3ffbca8a6d72cdd4fd92cfd4f62636161921d1e5a64f0b64ccb6d",
            "0x000000000000000000000000ddb342ecc94236c29a5307d3757d0724d759453c",
            "0x000000000000000000000000ca14007eff0db1f8135f4c25b34de49ab0d42766",
            "0x070ffc97ffb2fdc2b6f01845f86f8357674babea62730b53f10cd34f92e2a39f"
          ],
          "data": "0x000000000000000000000000000000000000000000000000000000746a528800000000000000000000000000000000000000000000000000000000000000288700000000000000000000000000000000000000000000000000038d7ea4c68000",
          "blockHash": "0x40723978a8b249ac95d75901ada4bb8ee2deb0511e82552ca0f33f83cfbba579",
          "blockNumber": "0x6c204f",
          "transactionHash": "0x2f2a5313a93788022f06f4468f4df1051b9cc3ca0493f0870ee93b26c978c9f8",
          "transactionIndex": "0x1",
          "logIndex": "0x3",
          "removed": false
        },
        {
          "address": "0xcE5485Cfb26914C5dcE00B9BAF0580364daFC7a4",
          "topics": [
            "0x5b5dbc6c64043a15d3fe6943a6e443a826b78755edc257b2ec890c022225dbcf",
            "0x000000000000000000000000ddb342ecc94236c29a5307d3757d0724d759453c",
            "0x070ffc97ffb2fdc2b6f01845f86f8357674babea62730b53f10cd34f92e2a39f"
          ],
          "data": "0x000000000000000000000000000000000000000000000000000000746a528800000000000000000000000000000000000000000000000000000000000000288700000000000000000000000000000000000000000000000000038d7ea4c68000",
          "blockHash": "0x40723978a8b249ac95d75901ada4bb8ee2deb0511e82552ca0f33f83cfbba579",
          "blockNumber": "0x6c204f",
          "transactionHash": "0x2f2a5313a93788022f06f4468f4df1051b9cc3ca0493f0870ee93b26c978c9f8",
          "transactionIndex": "0x1",
          "logIndex": "0x4",
          "removed": false
        }
      ],
      "status": "0x1",
      "logsBloom": "0x00000000000000000200000000020000000000000000000000000000000000400000004000000000000000000000000000000000000004000000800000000000000000000400000000000008080000000000000000000040001000000000000400000000100000000020000000000000400000010000000000000010400008002000000000000000000000000400000000000000000200000000020000000010000000000000000000000020000000001000000000000020000000000000000000000002000000024010000000000000000000200000200000800000000000000000000000010000000000020084000000000000001000000000000000000000",
      "type": "0x2",
      "effectiveGasPrice": "0xbefeea53"
    },
    {
      "transactionHash": "0x14e68196edac6356b04be2aab668198f66891b8e0efd874dceed8abc447fd3b6",
      "transactionIndex": "0x2",
      "blockHash": "0x40723978a8b249ac95d75901ada4bb8ee2deb0511e82552ca0f33f83cfbba579",
      "blockNumber": "0x6c204f",
      "from": "0xDdb342ecc94236c29a5307d3757d0724D759453C",
      "to": "0xE2Bb56ee936fd6433DC0F6e7e3b8365C906AA057",
      "cumulativeGasUsed": "0x34efd",
      "gasUsed": "0x1013b",
      "contractAddress": null,
      "logs": [
        {
          "address": "0xE2Bb56ee936fd6433DC0F6e7e3b8365C906AA057",
          "topics": [
            "0xdb80dd488acf86d17c747445b0eabb5d57c541d3bd7b6b87af987858e5066b2b",
            "0x000000000000000000000000ddb342ecc94236c29a5307d3757d0724d759453c",
            "0x070ffc97ffb2fdc2b6f01845f86f8357674babea62730b53f10cd34f92e2a39f",
            "0x00f1149cade9d692862ad41df96b108aa2c20af34f640457e781d166c98dc6b0"
          ],
          "data": "0x0000000000000000000000000000000000000000000000000000000000000060000000000000000000000000000000000000000000000000000000000000288800000000000000000000000000000000000000000000000000038d7ea4c6800000000000000000000000000000000000000000000000000000000000000000090000000000000000000000000000000000000000000000000000000000000000000000000000000000000000ddb342ecc94236c29a5307d3757d0724d759453c04718f5a0fc34cc1af16a1cdee98ffb20c31f5cd61d6ab07201858f4287c938d053b40a647cedfca6ca84f542a0fe36736031905a9639a7f19a3c1e66bfd5080000000000000000000000000000000000020c49ba5e353f800000000000000000000000000000000000000000000000000000000000000000000000067380dc00000000000000000000000000000000000000000000000000000000067380e00000000000000000000000000000000000000000000000000000000746a5288000594c1582459ea03f77deaf9eb7e3917d6994a03c13405ba42867f83d85f085d",
          "blockHash": "0x40723978a8b249ac95d75901ada4bb8ee2deb0511e82552ca0f33f83cfbba579",
          "blockNumber": "0x6c204f",
          "transactionHash": "0x14e68196edac6356b04be2aab668198f66891b8e0efd874dceed8abc447fd3b6",
          "transactionIndex": "0x2",
          "logIndex": "0x5",
          "removed": false
        }
      ],
      "status": "0x1",
      "logsBloom": "0x00400000000000000000000000020000000000000000000000000000000000000000000000000000000000000000000000000000000000000000800000000000000000000000000000000000000000000000000000000040001000000000000400000000100000010020000000000000400000010000000000000000400000000000000000000000000000000000000004000000000000000000000000000010000000000000000000000020000000000000000000000000000000000000000000000000000000000000000000000000000000000000000000000000000000000000000000000000000000000000000000000000000000000000000000000000",
      "type": "0x2",
      "effectiveGasPrice": "0xbefeea53"
    }
  ],
  "libraries": [],
  "pending": [],
  "returns": {},
  "timestamp": 1731726850,
  "chain": 11155111,
  "multi": false,
  "commit": "945f7f2"
}