{
  "transactions": [
    {
      "hash": "0xa2a918b0c39e78e1827a0b6921dd6d6d93184d2ba46f5f92a320ad26b67b6736",
      "transactionType": "CALL",
      "contractName": "FiatTokenProxy",
      "contractAddress": "0x1c7D4B196Cb0C7B01d743Fbc6116a902379C7238",
      "function": "approve(address,uint256)",
      "arguments": [
        "0x429C016bdeFDD906F665FF42592D6B7381A3a44A",
        "115792089237316195423570985008687907853269984665640564039457584007913129639935"
      ],
      "transaction": {
        "type": "0x02",
        "from": "0xddb342ecc94236c29a5307d3757d0724d759453c",
        "to": "0x1c7d4b196cb0c7b01d743fbc6116a902379c7238",
        "gas": "0xc19d",
        "value": "0x0",
        "data": "0x095ea7b3000000000000000000000000429c016bdefdd906f665ff42592d6b7381a3a44affffffffffffffffffffffffffffffffffffffffffffffffffffffffffffffff",
        "nonce": "0x1fe",
        "accessList": []
      },
      "additionalContracts": [],
      "isFixedGasLimit": false
    },
    {
      "hash": "0xef86af8f148e3dcff2f40904e7440c44183625cb8f1efc45ca82abac224f653f",
      "transactionType": "CALL",
      "contractName": "FiatTokenProxy",
      "contractAddress": "0x1c7D4B196Cb0C7B01d743Fbc6116a902379C7238",
      "function": "transfer(address,uint256)",
      "arguments": [
        "0x429C016bdeFDD906F665FF42592D6B7381A3a44A",
        "100000"
      ],
      "transaction": {
        "type": "0x02",
        "from": "0xddb342ecc94236c29a5307d3757d0724d759453c",
        "to": "0x1c7d4b196cb0c7b01d743fbc6116a902379c7238",
        "gas": "0x1016a",
        "value": "0x0",
        "data": "0xa9059cbb000000000000000000000000429c016bdefdd906f665ff42592d6b7381a3a44a00000000000000000000000000000000000000000000000000000000000186a0",
        "nonce": "0x1ff",
        "accessList": []
      },
      "additionalContracts": [],
      "isFixedGasLimit": false
    },
    {
      "hash": "0x87182e5de5636fa73f387ce8425c1a5af1caf9f8e8f5759209dc5156da8dcea0",
      "transactionType": "CALL",
      "contractName": "L1TWAMMBridge",
      "contractAddress": "0x429C016bdeFDD906F665FF42592D6B7381A3a44A",
      "function": "depositAndCreateOrder((address,address,address,uint128,uint128,uint128,uint128,uint256))",
      "arguments": [
        "(0xDdb342ecc94236c29a5307d3757d0724D759453C, 0x1c7D4B196Cb0C7B01d743Fbc6116a902379C7238, 0x1c7D4B196Cb0C7B01d743Fbc6116a902379C7238, 1000000000000000, 1730898496, 1730898560, 100000, 2502691132453856371954262829625446647500106672685387171108675801779834587358)"
      ],
      "transaction": {
        "type": "0x02",
        "from": "0xddb342ecc94236c29a5307d3757d0724d759453c",
        "to": "0x429c016bdefdd906f665ff42592d6b7381a3a44a",
        "gas": "0x3ccb0",
        "value": "0x38d7ea4c68000",
        "data": "0x9d251505000000000000000000000000ddb342ecc94236c29a5307d3757d0724d759453c0000000000000000000000001c7d4b196cb0c7b01d743fbc6116a902379c72380000000000000000000000001c7d4b196cb0c7b01d743fbc6116a902379c723800000000000000000000000000000000000000000000000000038d7ea4c6800000000000000000000000000000000000000000000000000000000000672b6a4000000000000000000000000000000000000000000000000000000000672b6a8000000000000000000000000000000000000000000000000000000000000186a0058879156aed8b0a9c6829a60bcd474b4f1db3ec58aa7aae9ecd5d18dfae08de",
        "nonce": "0x200",
        "accessList": []
      },
      "additionalContracts": [],
      "isFixedGasLimit": false
    }
  ],
  "receipts": [
    {
      "transactionHash": "0xa2a918b0c39e78e1827a0b6921dd6d6d93184d2ba46f5f92a320ad26b67b6736",
      "transactionIndex": "0x17",
      "blockHash": "0xe4cb950e6c49a404fa0aafdac9749bab1d411d4037fd64a3746f5332ae994861",
      "blockNumber": "0x6b2c3d",
      "from": "0xDdb342ecc94236c29a5307d3757d0724D759453C",
      "to": "0x1c7D4B196Cb0C7B01d743Fbc6116a902379C7238",
      "cumulativeGasUsed": "0x221852",
      "gasUsed": "0x8c2d",
      "contractAddress": null,
      "logs": [
        {
          "address": "0x1c7D4B196Cb0C7B01d743Fbc6116a902379C7238",
          "topics": [
            "0x8c5be1e5ebec7d5bd14f71427d1e84f3dd0314c0f7b2291e5b200ac8c7c3b925",
            "0x000000000000000000000000ddb342ecc94236c29a5307d3757d0724d759453c",
            "0x000000000000000000000000429c016bdefdd906f665ff42592d6b7381a3a44a"
          ],
          "data": "0xffffffffffffffffffffffffffffffffffffffffffffffffffffffffffffffff",
          "blockHash": "0xe4cb950e6c49a404fa0aafdac9749bab1d411d4037fd64a3746f5332ae994861",
          "blockNumber": "0x6b2c3d",
          "transactionHash": "0xa2a918b0c39e78e1827a0b6921dd6d6d93184d2ba46f5f92a320ad26b67b6736",
          "transactionIndex": "0x17",
          "logIndex": "0x34",
          "removed": false
        }
      ],
      "status": "0x1",
      "logsBloom": "0x00000000000000000080000000000000000000000000000000000000000200000000000000000000000000000000000000000000001000000000000000200000000000000000000000000000000000000000000000000000000000000000000400000000000000000000000000000000400000000000000000000000400000000000000000100000000000000000000000000000000000000000000000000000020000000000000000000000000000000000000000000000000000000000100000000000000000000000000000000000000000000000000000000000000000000010000000000000000010000000000000000000000000000000000000000000",
      "type": "0x2",
      "effectiveGasPrice": "0x369b2b357"
    },
    {
      "transactionHash": "0xef86af8f148e3dcff2f40904e7440c44183625cb8f1efc45ca82abac224f653f",
      "transactionIndex": "0x18",
      "blockHash": "0xe4cb950e6c49a404fa0aafdac9749bab1d411d4037fd64a3746f5332ae994861",
      "blockNumber": "0x6b2c3d",
      "from": "0xDdb342ecc94236c29a5307d3757d0724D759453C",
      "to": "0x1c7D4B196Cb0C7B01d743Fbc6116a902379C7238",
      "cumulativeGasUsed": "0x22c855",
      "gasUsed": "0xb003",
      "contractAddress": null,
      "logs": [
        {
          "address": "0x1c7D4B196Cb0C7B01d743Fbc6116a902379C7238",
          "topics": [
            "0xddf252ad1be2c89b69c2b068fc378daa952ba7f163c4a11628f55a4df523b3ef",
            "0x000000000000000000000000ddb342ecc94236c29a5307d3757d0724d759453c",
            "0x000000000000000000000000429c016bdefdd906f665ff42592d6b7381a3a44a"
          ],
          "data": "0x00000000000000000000000000000000000000000000000000000000000186a0",
          "blockHash": "0xe4cb950e6c49a404fa0aafdac9749bab1d411d4037fd64a3746f5332ae994861",
          "blockNumber": "0x6b2c3d",
          "transactionHash": "0xef86af8f148e3dcff2f40904e7440c44183625cb8f1efc45ca82abac224f653f",
          "transactionIndex": "0x18",
          "logIndex": "0x35",
          "removed": false
        }
      ],
      "status": "0x1",
      "logsBloom": "0x00000000000000000080000000000000000000000000000000000000000200000000000000000000000000000000000000000000001000000000000000000000000000000000000000000008000000000000000000000000000000000000000400000000000000000000000000000000400000000000000000000010400000000000000000100000000000000000000000000000000000000000000000000000000000000000000000000000000000000000000000000000000000000000100000000002000000000000000000000000000000000000000000000000000000000000000000000000000010000000000000000000000000000000000000000000",
      "type": "0x2",
      "effectiveGasPrice": "0x369b2b357"
    },
    {
      "transactionHash": "0x87182e5de5636fa73f387ce8425c1a5af1caf9f8e8f5759209dc5156da8dcea0",
      "transactionIndex": "0x19",
      "blockHash": "0xe4cb950e6c49a404fa0aafdac9749bab1d411d4037fd64a3746f5332ae994861",
      "blockNumber": "0x6b2c3d",
      "from": "0xDdb342ecc94236c29a5307d3757d0724D759453C",
      "to": "0x429C016bdeFDD906F665FF42592D6B7381A3a44A",
      "cumulativeGasUsed": "0x258400",
      "gasUsed": "0x2bbab",
      "contractAddress": null,
      "logs": [
        {
          "address": "0x1c7D4B196Cb0C7B01d743Fbc6116a902379C7238",
          "topics": [
            "0xddf252ad1be2c89b69c2b068fc378daa952ba7f163c4a11628f55a4df523b3ef",
            "0x000000000000000000000000ddb342ecc94236c29a5307d3757d0724d759453c",
            "0x000000000000000000000000429c016bdefdd906f665ff42592d6b7381a3a44a"
          ],
          "data": "0x00000000000000000000000000000000000000000000000000000000000186a0",
          "blockHash": "0xe4cb950e6c49a404fa0aafdac9749bab1d411d4037fd64a3746f5332ae994861",
          "blockNumber": "0x6b2c3d",
          "transactionHash": "0x87182e5de5636fa73f387ce8425c1a5af1caf9f8e8f5759209dc5156da8dcea0",
          "transactionIndex": "0x19",
          "logIndex": "0x36",
          "removed": false
        },
        {
          "address": "0x1c7D4B196Cb0C7B01d743Fbc6116a902379C7238",
          "topics": [
            "0x8c5be1e5ebec7d5bd14f71427d1e84f3dd0314c0f7b2291e5b200ac8c7c3b925",
            "0x000000000000000000000000429c016bdefdd906f665ff42592d6b7381a3a44a",
            "0x00000000000000000000000086dc0b32a5045ffa48d9a60b7e7ca32f11facd7b"
          ],
          "data": "0x0000000000000000000000000000000000000000000000000000000000000000",
          "blockHash": "0xe4cb950e6c49a404fa0aafdac9749bab1d411d4037fd64a3746f5332ae994861",
          "blockNumber": "0x6b2c3d",
          "transactionHash": "0x87182e5de5636fa73f387ce8425c1a5af1caf9f8e8f5759209dc5156da8dcea0",
          "transactionIndex": "0x19",
          "logIndex": "0x37",
          "removed": false
        },
        {
          "address": "0x1c7D4B196Cb0C7B01d743Fbc6116a902379C7238",
          "topics": [
            "0x8c5be1e5ebec7d5bd14f71427d1e84f3dd0314c0f7b2291e5b200ac8c7c3b925",
            "0x000000000000000000000000429c016bdefdd906f665ff42592d6b7381a3a44a",
            "0x00000000000000000000000086dc0b32a5045ffa48d9a60b7e7ca32f11facd7b"
          ],
          "data": "0x00000000000000000000000000000000000000000000000000000000000186a0",
          "blockHash": "0xe4cb950e6c49a404fa0aafdac9749bab1d411d4037fd64a3746f5332ae994861",
          "blockNumber": "0x6b2c3d",
          "transactionHash": "0x87182e5de5636fa73f387ce8425c1a5af1caf9f8e8f5759209dc5156da8dcea0",
          "transactionIndex": "0x19",
          "logIndex": "0x38",
          "removed": false
        },
        {
          "address": "0x1c7D4B196Cb0C7B01d743Fbc6116a902379C7238",
          "topics": [
            "0xddf252ad1be2c89b69c2b068fc378daa952ba7f163c4a11628f55a4df523b3ef",
            "0x000000000000000000000000429c016bdefdd906f665ff42592d6b7381a3a44a",
            "0x00000000000000000000000086dc0b32a5045ffa48d9a60b7e7ca32f11facd7b"
          ],
          "data": "0x00000000000000000000000000000000000000000000000000000000000186a0",
          "blockHash": "0xe4cb950e6c49a404fa0aafdac9749bab1d411d4037fd64a3746f5332ae994861",
          "blockNumber": "0x6b2c3d",
          "transactionHash": "0x87182e5de5636fa73f387ce8425c1a5af1caf9f8e8f5759209dc5156da8dcea0",
          "transactionIndex": "0x19",
          "logIndex": "0x39",
          "removed": false
        },
        {
          "address": "0xE2Bb56ee936fd6433DC0F6e7e3b8365C906AA057",
          "topics": [
            "0xdb80dd488acf86d17c747445b0eabb5d57c541d3bd7b6b87af987858e5066b2b",
            "0x00000000000000000000000086dc0b32a5045ffa48d9a60b7e7ca32f11facd7b",
            "0x0028729b12ce1140cbc1e7cbc7245455d3c15fa0c7f5d2e9fc8e0441567f6b50",
            "0x008bce41827dd5484d80312a2e43bc42a896e3fcf75bf84c2b49339168dfa00a"
          ],
          "data": "0x0000000000000000000000000000000000000000000000000000000000000060000000000000000000000000000000000000000000000000000000000000276600000000000000000000000000000000000000000000000000038d7ea4c68000000000000000000000000000000000000000000000000000000000000000000d0000000000000000000000001c7d4b196cb0c7b01d743fbc6116a902379c7238000000000000000000000000429c016bdefdd906f665ff42592d6b7381a3a44a058879156aed8b0a9c6829a60bcd474b4f1db3ec58aa7aae9ecd5d18dfae08de00000000000000000000000000000000000000000000000000000000000186a0000000000000000000000000000000000000000000000000000000000000000000000000000000000000000000000000000000000000000000000000000000070000000000000000000000000000000000000000000000000000000000000000000000000000000000000000ddb342ecc94236c29a5307d3757d0724d759453c0000000000000000000000001c7d4b196cb0c7b01d743fbc6116a902379c72380000000000000000000000001c7d4b196cb0c7b01d743fbc6116a902379c723800000000000000000000000000000000000000000000000000038d7ea4c6800000000000000000000000000000000000000000000000000000000000672b6a4000000000000000000000000000000000000000000000000000000000672b6a80",
          "blockHash": "0xe4cb950e6c49a404fa0aafdac9749bab1d411d4037fd64a3746f5332ae994861",
          "blockNumber": "0x6b2c3d",
          "transactionHash": "0x87182e5de5636fa73f387ce8425c1a5af1caf9f8e8f5759209dc5156da8dcea0",
          "transactionIndex": "0x19",
          "logIndex": "0x3a",
          "removed": false
        },
        {
          "address": "0x86dC0B32a5045FFa48D9a60B7e7Ca32F11faCd7B",
          "topics": [
            "0x2203a49c69f1a46c1164f5e4a30643dd77b7c59c0ff9bc433256048365c247f1",
            "0x000000000000000000000000429c016bdefdd906f665ff42592d6b7381a3a44a",
            "0x0000000000000000000000001c7d4b196cb0c7b01d743fbc6116a902379c7238",
            "0x058879156aed8b0a9c6829a60bcd474b4f1db3ec58aa7aae9ecd5d18dfae08de"
          ],
          "data": "0x00000000000000000000000000000000000000000000000000000000000186a00000000000000000000000000000000000000000000000000000000000000080000000000000000000000000000000000000000000000000000000000000276600000000000000000000000000000000000000000000000000038d7ea4c6800000000000000000000000000000000000000000000000000000000000000000070000000000000000000000000000000000000000000000000000000000000000000000000000000000000000ddb342ecc94236c29a5307d3757d0724d759453c0000000000000000000000001c7d4b196cb0c7b01d743fbc6116a902379c72380000000000000000000000001c7d4b196cb0c7b01d743fbc6116a902379c723800000000000000000000000000000000000000000000000000038d7ea4c6800000000000000000000000000000000000000000000000000000000000672b6a4000000000000000000000000000000000000000000000000000000000672b6a80",
          "blockHash": "0xe4cb950e6c49a404fa0aafdac9749bab1d411d4037fd64a3746f5332ae994861",
          "blockNumber": "0x6b2c3d",
          "transactionHash": "0x87182e5de5636fa73f387ce8425c1a5af1caf9f8e8f5759209dc5156da8dcea0",
          "transactionIndex": "0x19",
          "logIndex": "0x3b",
          "removed": false
        },
        {
          "address": "0x429C016bdeFDD906F665FF42592D6B7381A3a44A",
          "topics": [
            "0xaf43445f7721522b7a3864ed3de53d7e2e658bfa1eeffa18e1e229be68ce2545",
            "0x000000000000000000000000ddb342ecc94236c29a5307d3757d0724d759453c",
            "0x058879156aed8b0a9c6829a60bcd474b4f1db3ec58aa7aae9ecd5d18dfae08de"
          ],
          "data": "0x00000000000000000000000000000000000000000000000000000000000186a00000000000000000000000000000000000000000000000000000000000000001",
          "blockHash": "0xe4cb950e6c49a404fa0aafdac9749bab1d411d4037fd64a3746f5332ae994861",
          "blockNumber": "0x6b2c3d",
          "transactionHash": "0x87182e5de5636fa73f387ce8425c1a5af1caf9f8e8f5759209dc5156da8dcea0",
          "transactionIndex": "0x19",
          "logIndex": "0x3c",
          "removed": false
        }
      ],
      "status": "0x1",
      "logsBloom": "0x0000020200000000008000000002000000000000000000000000004000020000000000000000000000008000000000000000000000100c000000420000200000100000000000000000000008000000000020000000000040001000000000000600000000100000000000000000000000400200000000000000000210400080000000000000102000000000020004000000008000000000000000000000000010020000800000000000000020000000021000008000000000000002000000100008800002000000000000000000000000000000000000000000000000000000000010008000000000000010000000000000000000000000000000000000000000",
      "type": "0x2",
      "effectiveGasPrice": "0x369b2b357"
    }
  ],
  "libraries": [],
  "pending": [],
  "returns": {},
  "timestamp": 1730898558,
  "chain": 11155111,
  "multi": false,
  "commit": "85f3f64"
}