{
  "transactions": [
    {
      "hash": "0x63a85fae30c70c6ca1392bbaf65bfd6a10da1bff1c4fdaf018e688cdfe482d12",
      "transactionType": "CALL",
      "contractName": "StarkNetToken",
      "contractAddress": "0xCa14007Eff0dB1f8135f4C25B34De49AB0d42766",
      "function": "approve(address,uint256)",
      "arguments": [
        "0x244243801CdcC4931C16A00D049749881B07d1F6",
        "115792089237316195423570985008687907853269984665640564039457584007913129639935"
      ],
      "transaction": {
        "type": "0x02",
        "from": "0xddb342ecc94236c29a5307d3757d0724d759453c",
        "to": "0xca14007eff0db1f8135f4c25b34de49ab0d42766",
        "gas": "0xff08",
        "value": "0x0",
        "data": "0x095ea7b3000000000000000000000000244243801cdcc4931c16a00d049749881b07d1f6ffffffffffffffffffffffffffffffffffffffffffffffffffffffffffffffff",
        "nonce": "0x28e",
        "accessList": []
      },
      "additionalContracts": [],
      "isFixedGasLimit": false
    },
    {
      "hash": "0x1cc3f6ce7167e39c0f6e5ab2b9087565e085a768cb3f8982bd86831ee9ced562",
      "transactionType": "CALL",
      "contractName": "StarkNetToken",
      "contractAddress": "0xCa14007Eff0dB1f8135f4C25B34De49AB0d42766",
      "function": "transfer(address,uint256)",
      "arguments": [
        "0x244243801CdcC4931C16A00D049749881B07d1F6",
        "500000000000"
      ],
      "transaction": {
        "type": "0x02",
        "from": "0xddb342ecc94236c29a5307d3757d0724d759453c",
        "to": "0xca14007eff0db1f8135f4c25b34de49ab0d42766",
        "gas": "0x1339c",
        "value": "0x0",
        "data": "0xa9059cbb000000000000000000000000244243801cdcc4931c16a00d049749881b07d1f6000000000000000000000000000000000000000000000000000000746a528800",
        "nonce": "0x28f",
        "accessList": []
      },
      "additionalContracts": [],
      "isFixedGasLimit": false
    },
    {
      "hash": "0x3f34a551ff36b0f561bfa7719a9998f200efed255f19c2fd86316f3a5993b394",
      "transactionType": "CALL",
      "contractName": "L1TWAMMBridge",
      "contractAddress": "0x244243801CdcC4931C16A00D049749881B07d1F6",
      "function": "deposit(uint256,uint256)",
      "arguments": [
        "500000000000",
        "900936662005913591730544797122872273397412806185262845512484451000984691999"
      ],
      "transaction": {
        "type": "0x02",
        "from": "0xddb342ecc94236c29a5307d3757d0724d759453c",
        "to": "0x244243801cdcc4931c16a00d049749881b07d1f6",
        "gas": "0x30231",
        "value": "0x5af3107a4000",
        "data": "0xe2bbb158000000000000000000000000000000000000000000000000000000746a52880001fde97e14b741fcf3013147207ca30d0def0c5a7a61a2f3d063e030ece6651f",
        "nonce": "0x290",
        "accessList": []
      },
      "additionalContracts": [],
      "isFixedGasLimit": false
    },
    {
      "hash": "0x956bc1283e8447c8f3729c4bd3d3da6127945718f2405b1725cbd0ec0564ffc5",
      "transactionType": "CALL",
      "contractName": "Proxy",
      "contractAddress": "0xE2Bb56ee936fd6433DC0F6e7e3b8365C906AA057",
      "function": "sendMessageToL2(uint256,uint256,uint256[])",
      "arguments": [
        "900936662005913591730544797122872273397412806185262845512484451000984691999",
        "425952401605428413817582304755919420533935873840436977667370850915372091056",
        "[0, 1265684623727634235329190328445374361672779121980, 2009894490435840142178314390393166646092438090257831307886760648929397478285, 2366254414417873771392932940469309727793822550615514268240785277201753657472, 170141183460469235273462165868118016, 1731424528, 1731424592, 500000000000]"
      ],
      "transaction": {
        "type": "0x02",
        "from": "0xddb342ecc94236c29a5307d3757d0724d759453c",
        "to": "0xe2bb56ee936fd6433dc0f6e7e3b8365c906aa057",
        "gas": "0x173c2",
        "value": "0x5af3107a4000",
        "data": "0x3e3aa6c501fde97e14b741fcf3013147207ca30d0def0c5a7a61a2f3d063e030ece6651f00f1149cade9d692862ad41df96b108aa2c20af34f640457e781d166c98dc6b0000000000000000000000000000000000000000000000000000000000000006000000000000000000000000000000000000000000000000000000000000000080000000000000000000000000000000000000000000000000000000000000000000000000000000000000000ddb342ecc94236c29a5307d3757d0724d759453c04718f5a0fc34cc1af16a1cdee98ffb20c31f5cd61d6ab07201858f4287c938d053b40a647cedfca6ca84f542a0fe36736031905a9639a7f19a3c1e66bfd5080000000000000000000000000000000000020c49ba5e353f8000000000000000000000000000000000000000000000000000000000000000000000000673371100000000000000000000000000000000000000000000000000000000067337150000000000000000000000000000000000000000000000000000000746a528800",
        "nonce": "0x291",
        "accessList": []
      },
      "additionalContracts": [],
      "isFixedGasLimit": false
    }
  ],
  "receipts": [
    {
      "transactionHash": "0x63a85fae30c70c6ca1392bbaf65bfd6a10da1bff1c4fdaf018e688cdfe482d12",
      "transactionIndex": "0x6",
      "blockHash": "0xb8651c6b87db95746e21a287d09caeb50acacebffe652e71c428c3e3b933e966",
      "blockNumber": "0x6bc3e1",
      "from": "0xDdb342ecc94236c29a5307d3757d0724D759453C",
      "to": "0xCa14007Eff0dB1f8135f4C25B34De49AB0d42766",
      "cumulativeGasUsed": "0x4d135",
      "gasUsed": "0xb8a4",
      "contractAddress": null,
      "logs": [
        {
          "address": "0xCa14007Eff0dB1f8135f4C25B34De49AB0d42766",
          "topics": [
            "0x8c5be1e5ebec7d5bd14f71427d1e84f3dd0314c0f7b2291e5b200ac8c7c3b925",
            "0x000000000000000000000000ddb342ecc94236c29a5307d3757d0724d759453c",
            "0x000000000000000000000000244243801cdcc4931c16a00d049749881b07d1f6"
          ],
          "data": "0xffffffffffffffffffffffffffffffffffffffffffffffffffffffffffffffff",
          "blockHash": "0xb8651c6b87db95746e21a287d09caeb50acacebffe652e71c428c3e3b933e966",
          "blockNumber": "0x6bc3e1",
          "transactionHash": "0x63a85fae30c70c6ca1392bbaf65bfd6a10da1bff1c4fdaf018e688cdfe482d12",
          "transactionIndex": "0x6",
          "logIndex": "0x5",
          "removed": false
        }
      ],
      "status": "0x1",
      "logsBloom": "0x00000000000000000000000000000000000000000000000000000000000000000020000000000000000000000000000000000000000000000000000200200000000000000000000000000000000000000000000000000000000000000000000400000000000000000000000000000000400000000000000000000000400000000000000000000000000000000000000000000000000000000000000000000000030000000000000000000000000000000000000000000000000000000000000000000000000000020000000000000000000000000000000000800000000000000010000000000000000000000000000000000000001000000000000000000000",
      "type": "0x2",
      "effectiveGasPrice": "0x105ac5337"
    },
    {
      "transactionHash": "0x1cc3f6ce7167e39c0f6e5ab2b9087565e085a768cb3f8982bd86831ee9ced562",
      "transactionIndex": "0x7",
      "blockHash": "0xb8651c6b87db95746e21a287d09caeb50acacebffe652e71c428c3e3b933e966",
      "blockNumber": "0x6bc3e1",
      "from": "0xDdb342ecc94236c29a5307d3757d0724D759453C",
      "to": "0xCa14007Eff0dB1f8135f4C25B34De49AB0d42766",
      "cumulativeGasUsed": "0x5afea",
      "gasUsed": "0xdeb5",
      "contractAddress": null,
      "logs": [
        {
          "address": "0xCa14007Eff0dB1f8135f4C25B34De49AB0d42766",
          "topics": [
            "0xddf252ad1be2c89b69c2b068fc378daa952ba7f163c4a11628f55a4df523b3ef",
            "0x000000000000000000000000ddb342ecc94236c29a5307d3757d0724d759453c",
            "0x000000000000000000000000244243801cdcc4931c16a00d049749881b07d1f6"
          ],
          "data": "0x000000000000000000000000000000000000000000000000000000746a528800",
          "blockHash": "0xb8651c6b87db95746e21a287d09caeb50acacebffe652e71c428c3e3b933e966",
          "blockNumber": "0x6bc3e1",
          "transactionHash": "0x1cc3f6ce7167e39c0f6e5ab2b9087565e085a768cb3f8982bd86831ee9ced562",
          "transactionIndex": "0x7",
          "logIndex": "0x6",
          "removed": false
        }
      ],
      "status": "0x1",
      "logsBloom": "0x00000000000000000000000000000000000000000000000000000000000000000020000000000000000000000000000000000000000000000000000200000000000000000000000000000008000000000000000000000000000000000000000400000000000000000000000000000000400000000000000000000010400000000000000000000000000000000000000000000000000000000000000000000000010000000000000000000000000000000000000000000000000000000000000000000002000000020000000000000000000000000000000000800000000000000000000000000000000000000000000000000000001000000000000000000000",
      "type": "0x2",
      "effectiveGasPrice": "0x105ac5337"
    },
    {
      "transactionHash": "0x3f34a551ff36b0f561bfa7719a9998f200efed255f19c2fd86316f3a5993b394",
      "transactionIndex": "0x8",
      "blockHash": "0xb8651c6b87db95746e21a287d09caeb50acacebffe652e71c428c3e3b933e966",
      "blockNumber": "0x6bc3e1",
      "from": "0xDdb342ecc94236c29a5307d3757d0724D759453C",
      "to": "0x244243801CdcC4931C16A00D049749881B07d1F6",
      "cumulativeGasUsed": "0x7be8b",
      "gasUsed": "0x20ea1",
      "contractAddress": null,
      "logs": [
        {
          "address": "0xCa14007Eff0dB1f8135f4C25B34De49AB0d42766",
          "topics": [
            "0x8c5be1e5ebec7d5bd14f71427d1e84f3dd0314c0f7b2291e5b200ac8c7c3b925",
            "0x000000000000000000000000244243801cdcc4931c16a00d049749881b07d1f6",
            "0x000000000000000000000000ce5485cfb26914c5dce00b9baf0580364dafc7a4"
          ],
          "data": "0x000000000000000000000000000000000000000000000000000000746a528800",
          "blockHash": "0xb8651c6b87db95746e21a287d09caeb50acacebffe652e71c428c3e3b933e966",
          "blockNumber": "0x6bc3e1",
          "transactionHash": "0x3f34a551ff36b0f561bfa7719a9998f200efed255f19c2fd86316f3a5993b394",
          "transactionIndex": "0x8",
          "logIndex": "0x7",
          "removed": false
        },
        {
          "address": "0xCa14007Eff0dB1f8135f4C25B34De49AB0d42766",
          "topics": [
            "0x8c5be1e5ebec7d5bd14f71427d1e84f3dd0314c0f7b2291e5b200ac8c7c3b925",
            "0x000000000000000000000000244243801cdcc4931c16a00d049749881b07d1f6",
            "0x000000000000000000000000ce5485cfb26914c5dce00b9baf0580364dafc7a4"
          ],
          "data": "0x0000000000000000000000000000000000000000000000000000000000000000",
          "blockHash": "0xb8651c6b87db95746e21a287d09caeb50acacebffe652e71c428c3e3b933e966",
          "blockNumber": "0x6bc3e1",
          "transactionHash": "0x3f34a551ff36b0f561bfa7719a9998f200efed255f19c2fd86316f3a5993b394",
          "transactionIndex": "0x8",
          "logIndex": "0x8",
          "removed": false
        },
        {
          "address": "0xCa14007Eff0dB1f8135f4C25B34De49AB0d42766",
          "topics": [
            "0xddf252ad1be2c89b69c2b068fc378daa952ba7f163c4a11628f55a4df523b3ef",
            "0x000000000000000000000000244243801cdcc4931c16a00d049749881b07d1f6",
            "0x000000000000000000000000ce5485cfb26914c5dce00b9baf0580364dafc7a4"
          ],
          "data": "0x000000000000000000000000000000000000000000000000000000746a528800",
          "blockHash": "0xb8651c6b87db95746e21a287d09caeb50acacebffe652e71c428c3e3b933e966",
          "blockNumber": "0x6bc3e1",
          "transactionHash": "0x3f34a551ff36b0f561bfa7719a9998f200efed255f19c2fd86316f3a5993b394",
          "transactionIndex": "0x8",
          "logIndex": "0x9",
          "removed": false
        },
        {
          "address": "0xE2Bb56ee936fd6433DC0F6e7e3b8365C906AA057",
          "topics": [
            "0xdb80dd488acf86d17c747445b0eabb5d57c541d3bd7b6b87af987858e5066b2b",
            "0x000000000000000000000000ce5485cfb26914c5dce00b9baf0580364dafc7a4",
            "0x0594c1582459ea03f77deaf9eb7e3917d6994a03c13405ba42867f83d85f085d",
            "0x01b64b1b3b690b43b9b514fb81377518f4039cd3e4f4914d8a6bdf01d679fb19"
          ],
          "data": "0x0000000000000000000000000000000000000000000000000000000000000060000000000000000000000000000000000000000000000000000000000000282100000000000000000000000000000000000000000000000000005af3107a40000000000000000000000000000000000000000000000000000000000000000005000000000000000000000000ca14007eff0db1f8135f4c25b34de49ab0d42766000000000000000000000000244243801cdcc4931c16a00d049749881b07d1f601fde97e14b741fcf3013147207ca30d0def0c5a7a61a2f3d063e030ece6651f000000000000000000000000000000000000000000000000000000746a5288000000000000000000000000000000000000000000000000000000000000000000",
          "blockHash": "0xb8651c6b87db95746e21a287d09caeb50acacebffe652e71c428c3e3b933e966",
          "blockNumber": "0x6bc3e1",
          "transactionHash": "0x3f34a551ff36b0f561bfa7719a9998f200efed255f19c2fd86316f3a5993b394",
          "transactionIndex": "0x8",
          "logIndex": "0xa",
          "removed": false
        },
        {
          "address": "0xcE5485Cfb26914C5dcE00B9BAF0580364daFC7a4",
          "topics": [
            "0x5f971bd00bf3ffbca8a6d72cdd4fd92cfd4f62636161921d1e5a64f0b64ccb6d",
            "0x000000000000000000000000244243801cdcc4931c16a00d049749881b07d1f6",
            "0x000000000000000000000000ca14007eff0db1f8135f4c25b34de49ab0d42766",
            "0x01fde97e14b741fcf3013147207ca30d0def0c5a7a61a2f3d063e030ece6651f"
          ],
          "data": "0x000000000000000000000000000000000000000000000000000000746a528800000000000000000000000000000000000000000000000000000000000000282100000000000000000000000000000000000000000000000000005af3107a4000",
          "blockHash": "0xb8651c6b87db95746e21a287d09caeb50acacebffe652e71c428c3e3b933e966",
          "blockNumber": "0x6bc3e1",
          "transactionHash": "0x3f34a551ff36b0f561bfa7719a9998f200efed255f19c2fd86316f3a5993b394",
          "transactionIndex": "0x8",
          "logIndex": "0xb",
          "removed": false
        }
      ],
      "status": "0x1",
      "logsBloom": "0x00000000000000000200000000020000000000000000000000000000040000400020000000000000000000000000000000000000000004000000000200200000000000000000000000000008080000000000000000000040001000000000000000000000100000000000000000000000000000000000000000000010000048002000000000000000000000000400000000000000000200000000020000000010030000000000000000000020000000001000000000000020000000000000000000000002000000024010000000000000000000200000000000800000000000000010000000010000000000020084000000000000001100000000000000000000",
      "type": "0x2",
      "effectiveGasPrice": "0x105ac5337"
    },
    {
      "transactionHash": "0x956bc1283e8447c8f3729c4bd3d3da6127945718f2405b1725cbd0ec0564ffc5",
      "transactionIndex": "0x9",
      "blockHash": "0xb8651c6b87db95746e21a287d09caeb50acacebffe652e71c428c3e3b933e966",
      "blockNumber": "0x6bc3e1",
      "from": "0xDdb342ecc94236c29a5307d3757d0724D759453C",
      "to": "0xE2Bb56ee936fd6433DC0F6e7e3b8365C906AA057",
      "cumulativeGasUsed": "0x8bcbd",
      "gasUsed": "0xfe32",
      "contractAddress": null,
      "logs": [
        {
          "address": "0xE2Bb56ee936fd6433DC0F6e7e3b8365C906AA057",
          "topics": [
            "0xdb80dd488acf86d17c747445b0eabb5d57c541d3bd7b6b87af987858e5066b2b",
            "0x000000000000000000000000ddb342ecc94236c29a5307d3757d0724d759453c",
            "0x01fde97e14b741fcf3013147207ca30d0def0c5a7a61a2f3d063e030ece6651f",
            "0x00f1149cade9d692862ad41df96b108aa2c20af34f640457e781d166c98dc6b0"
          ],
          "data": "0x0000000000000000000000000000000000000000000000000000000000000060000000000000000000000000000000000000000000000000000000000000282200000000000000000000000000000000000000000000000000005af3107a400000000000000000000000000000000000000000000000000000000000000000080000000000000000000000000000000000000000000000000000000000000000000000000000000000000000ddb342ecc94236c29a5307d3757d0724d759453c04718f5a0fc34cc1af16a1cdee98ffb20c31f5cd61d6ab07201858f4287c938d053b40a647cedfca6ca84f542a0fe36736031905a9639a7f19a3c1e66bfd5080000000000000000000000000000000000020c49ba5e353f8000000000000000000000000000000000000000000000000000000000000000000000000673371100000000000000000000000000000000000000000000000000000000067337150000000000000000000000000000000000000000000000000000000746a528800",
          "blockHash": "0xb8651c6b87db95746e21a287d09caeb50acacebffe652e71c428c3e3b933e966",
          "blockNumber": "0x6bc3e1",
          "transactionHash": "0x956bc1283e8447c8f3729c4bd3d3da6127945718f2405b1725cbd0ec0564ffc5",
          "transactionIndex": "0x9",
          "logIndex": "0xc",
          "removed": false
        }
      ],
      "status": "0x1",
      "logsBloom": "0x00400000000000000000000000020000000000000000000000000000040000000000000000000000000000000000000000000000000000000000000000000000000000000000000000000000000000000000000000000040001000000000000400000000100000010000000000000000400000000000000000000000400040000000000000000000000000000000000004000000000000000000000000000010000000000000000000000020000000000000000000000000000000000000000000000000000000000000000000000000000000000000000000000000000000000000000000000000000000000000000000000000000100000000000000000000",
      "type": "0x2",
      "effectiveGasPrice": "0x105ac5337"
    }
  ],
  "libraries": [],
  "pending": [],
  "returns": {},
  "timestamp": 1731424577,
  "chain": 11155111,
  "multi": false,
  "commit": "b1a5e4e"
}