{
  "transactions": [
    {
      "hash": "0xb3983b7543889701c2bc5428062b2a54f0fe54323a209f159d7fdca0288af5b6",
      "transactionType": "CALL",
      "contractName": null,
      "contractAddress": "0xca14007eff0db1f8135f4c25b34de49ab0d42766",
      "function": "approve(address,uint256)",
      "arguments": [
        "0x67B7A14745F14C253Beb5d44b767ef1BFB916253",
        "115792089237316195423570985008687907853269984665640564039457584007913129639935"
      ],
      "transaction": {
        "from": "0xddb342ecc94236c29a5307d3757d0724d759453c",
        "to": "0xca14007eff0db1f8135f4c25b34de49ab0d42766",
        "gas": "0x93a9",
        "value": "0x0",
        "input": "0x095ea7b300000000000000000000000067b7a14745f14c253beb5d44b767ef1bfb916253ffffffffffffffffffffffffffffffffffffffffffffffffffffffffffffffff",
        "nonce": "0x53a",
        "chainId": "0xaa36a7"
      },
      "additionalContracts": [],
      "isFixedGasLimit": false
    },
    {
      "hash": "0x5c73b6fda3dcad0b98fcf501b04210fc61f24d2e327d6e0aa90ebb3c1f9f3672",
      "transactionType": "CALL",
      "contractName": null,
      "contractAddress": "0x67b7a14745f14c253beb5d44b767ef1bfb916253",
      "function": "initiateWithdrawal(address,address,uint64)",
      "arguments": [
        "0xDdb342ecc94236c29a5307d3757d0724D759453C",
        "0x1c7D4B196Cb0C7B01d743Fbc6116a902379C7238",
        "542"
      ],
      "transaction": {
        "from": "0xddb342ecc94236c29a5307d3757d0724d759453c",
        "to": "0x67b7a14745f14c253beb5d44b767ef1bfb916253",
        "gas": "0x1b4c1",
        "value": "0x1c6bf52634000",
        "input": "0x9b4085f6000000000000000000000000ddb342ecc94236c29a5307d3757d0724d759453c0000000000000000000000001c7d4b196cb0c7b01d743fbc6116a902379c7238000000000000000000000000000000000000000000000000000000000000021e",
        "nonce": "0x53b",
        "chainId": "0xaa36a7"
      },
      "additionalContracts": [],
      "isFixedGasLimit": false
    }
  ],
  "receipts": [
    {
      "status": "0x1",
      "cumulativeGasUsed": "0x1431369",
      "logs": [
        {
          "address": "0xca14007eff0db1f8135f4c25b34de49ab0d42766",
          "topics": [
            "0x8c5be1e5ebec7d5bd14f71427d1e84f3dd0314c0f7b2291e5b200ac8c7c3b925",
            "0x000000000000000000000000ddb342ecc94236c29a5307d3757d0724d759453c",
            "0x00000000000000000000000067b7a14745f14c253beb5d44b767ef1bfb916253"
          ],
          "data": "0xffffffffffffffffffffffffffffffffffffffffffffffffffffffffffffffff",
          "blockHash": "0xcf0affac566712e754caf91d018cb976ee0b77531329e3c1c1737f1ba251f57d",
          "blockNumber": "0x73207d",
          "transactionHash": "0xb3983b7543889701c2bc5428062b2a54f0fe54323a209f159d7fdca0288af5b6",
          "transactionIndex": "0xb1",
          "logIndex": "0x130",
          "removed": false
        }
      ],
      "logsBloom": "0x00000000010000000000000000000000000000000000000000000000000000000000000000000000000000000002000000000000000004000000000000200000000000000000000000000000000000000000000000000000000000000000000400000000000000000000000000000000400000000000000000000000400000000000000000000000000000000000000000000000000000000000000000000000020000000000000000000000000000000000000000000000000000000000000000000000000000020000000000000000000000000000000000800000000000000010000000000000000000000000000000000000001000000000000000000000",
      "type": "0x2",
      "transactionHash": "0xb3983b7543889701c2bc5428062b2a54f0fe54323a209f159d7fdca0288af5b6",
      "transactionIndex": "0xb1",
      "blockHash": "0xcf0affac566712e754caf91d018cb976ee0b77531329e3c1c1737f1ba251f57d",
      "blockNumber": "0x73207d",
      "gasUsed": "0x6ae8",
      "effectiveGasPrice": "0x3d236c52",
      "from": "0xddb342ecc94236c29a5307d3757d0724d759453c",
      "to": "0xca14007eff0db1f8135f4c25b34de49ab0d42766",
      "contractAddress": null
    },
    {
      "status": "0x1",
      "cumulativeGasUsed": "0x1443e0c",
      "logs": [
        {
          "address": "0xe2bb56ee936fd6433dc0f6e7e3b8365c906aa057",
          "topics": [
            "0xdb80dd488acf86d17c747445b0eabb5d57c541d3bd7b6b87af987858e5066b2b",
            "0x00000000000000000000000067b7a14745f14c253beb5d44b767ef1bfb916253",
            "0x05384d7aa25d47c73d60f2ee889af6b337544c534b05d8560578c06f01db55bd",
            "0x00f1149cade9d692862ad41df96b108aa2c20af34f640457e781d166c98dc6b0"
          ],
          "data": "0x00000000000000000000000000000000000000000000000000000000000000600000000000000000000000000000000000000000000000000000000000002ca00000000000000000000000000000000000000000000000000001c6bf5263400000000000000000000000000000000000000000000000000000000000000000050000000000000000000000000000000000000000000000000000000000000002000000000000000000000000ddb342ecc94236c29a5307d3757d0724d759453c000000000000000000000000ddb342ecc94236c29a5307d3757d0724d759453c0000000000000000000000001c7d4b196cb0c7b01d743fbc6116a902379c7238000000000000000000000000000000000000000000000000000000000000021e",
          "blockHash": "0xcf0affac566712e754caf91d018cb976ee0b77531329e3c1c1737f1ba251f57d",
          "blockNumber": "0x73207d",
          "transactionHash": "0x5c73b6fda3dcad0b98fcf501b04210fc61f24d2e327d6e0aa90ebb3c1f9f3672",
          "transactionIndex": "0xb2",
          "logIndex": "0x131",
          "removed": false
        },
        {
          "address": "0x67b7a14745f14c253beb5d44b767ef1bfb916253",
          "topics": [
            "0x89bd98ae1b8dd4dbaeba50e40ad484414a306be9fb54ec4eecf1a801ca9aeacf",
            "0x000000000000000000000000ddb342ecc94236c29a5307d3757d0724d759453c"
          ],
          "data": "0x000000000000000000000000000000000000000000000000000000000000021e",
          "blockHash": "0xcf0affac566712e754caf91d018cb976ee0b77531329e3c1c1737f1ba251f57d",
          "blockNumber": "0x73207d",
          "transactionHash": "0x5c73b6fda3dcad0b98fcf501b04210fc61f24d2e327d6e0aa90ebb3c1f9f3672",
          "transactionIndex": "0xb2",
          "logIndex": "0x132",
          "removed": false
        }
      ],
      "logsBloom": "0x00400002850000000000000000020000000000000000000000000000000000000000000000000000000000000002000000000000000004000000000000000000000000000000000000000000000000000000000000000040001000000000000400000000100000010000000000000000400000000000000000000000400000000000000000000000000000000000000004000000800000000000000000000010000000000000000000000020000000000000000000000000000000000000000000000000000008000000000000000000000000000000000000000000000000000000000000000000000000002000008000000010000000080000000000000000",
      "type": "0x2",
      "transactionHash": "0x5c73b6fda3dcad0b98fcf501b04210fc61f24d2e327d6e0aa90ebb3c1f9f3672",
      "transactionIndex": "0xb2",
      "blockHash": "0xcf0affac566712e754caf91d018cb976ee0b77531329e3c1c1737f1ba251f57d",
      "blockNumber": "0x73207d",
      "gasUsed": "0x12aa3",
      "effectiveGasPrice": "0x3d236c52",
      "from": "0xddb342ecc94236c29a5307d3757d0724d759453c",
      "to": "0x67b7a14745f14c253beb5d44b767ef1bfb916253",
      "contractAddress": null
    }
  ],
  "libraries": [],
  "pending": [],
  "returns": {},
  "timestamp": 1737523910,
  "chain": 11155111,
  "commit": "fcbff6b"
}