{
  "transactions": [
    {
      "hash": "0xf8d362154de26b6bb0dd063314b8535c2785d80f2373970d5672cbd478877fdd",
      "transactionType": "CALL",
      "contractName": "StarkNetToken",
      "contractAddress": "0xCa14007Eff0dB1f8135f4C25B34De49AB0d42766",
      "function": "approve(address,uint256)",
      "arguments": [
        "0x3A169a1C2341ed3fa9e0d4A32421156b6b20DA84",
        "115792089237316195423570985008687907853269984665640564039457584007913129639935"
      ],
      "transaction": {
        "type": "0x02",
        "from": "0xddb342ecc94236c29a5307d3757d0724d759453c",
        "to": "0xca14007eff0db1f8135f4c25b34de49ab0d42766",
        "gas": "0x93a9",
        "value": "0x0",
        "data": "0x095ea7b30000000000000000000000003a169a1c2341ed3fa9e0d4a32421156b6b20da84ffffffffffffffffffffffffffffffffffffffffffffffffffffffffffffffff",
        "nonce": "0x264",
        "accessList": []
      },
      "additionalContracts": [],
      "isFixedGasLimit": false
    },
    {
      "hash": "0x853993d0dfcefc3738903ffc0469f16e9bdde771a7e346b6d2d9f4f965d6f077",
      "transactionType": "CALL",
      "contractName": "L1TWAMMBridge",
      "contractAddress": "0x3A169a1C2341ed3fa9e0d4A32421156b6b20DA84",
      "function": "initiateWithdrawal(uint256)",
      "arguments": [
        "0"
      ],
      "transaction": {
        "type": "0x02",
        "from": "0xddb342ecc94236c29a5307d3757d0724d759453c",
        "to": "0x3a169a1c2341ed3fa9e0d4a32421156b6b20da84",
        "gas": "0x19d1e",
        "value": "0x5af3107a4000",
        "data": "0x12edde5e0000000000000000000000000000000000000000000000000000000000000000",
        "nonce": "0x265",
        "accessList": []
      },
      "additionalContracts": [],
      "isFixedGasLimit": false
    }
  ],
  "receipts": [
    {
      "transactionHash": "0xf8d362154de26b6bb0dd063314b8535c2785d80f2373970d5672cbd478877fdd",
      "transactionIndex": "0x0",
      "blockHash": "0xc98e0cdda78b0611c9f2a5f1541c0e176a1092e7883f6cd4959089d0e4fd6805",
      "blockNumber": "0x6b6c2a",
      "from": "0xDdb342ecc94236c29a5307d3757d0724D759453C",
      "to": "0xCa14007Eff0dB1f8135f4C25B34De49AB0d42766",
      "cumulativeGasUsed": "0x6ae8",
      "gasUsed": "0x6ae8",
      "contractAddress": null,
      "logs": [
        {
          "address": "0xCa14007Eff0dB1f8135f4C25B34De49AB0d42766",
          "topics": [
            "0x8c5be1e5ebec7d5bd14f71427d1e84f3dd0314c0f7b2291e5b200ac8c7c3b925",
            "0x000000000000000000000000ddb342ecc94236c29a5307d3757d0724d759453c",
            "0x0000000000000000000000003a169a1c2341ed3fa9e0d4a32421156b6b20da84"
          ],
          "data": "0xffffffffffffffffffffffffffffffffffffffffffffffffffffffffffffffff",
          "blockHash": "0xc98e0cdda78b0611c9f2a5f1541c0e176a1092e7883f6cd4959089d0e4fd6805",
          "blockNumber": "0x6b6c2a",
          "transactionHash": "0xf8d362154de26b6bb0dd063314b8535c2785d80f2373970d5672cbd478877fdd",
          "transactionIndex": "0x0",
          "logIndex": "0x0",
          "removed": false
        }
      ],
      "status": "0x1",
      "logsBloom": "0x00000000000000000000000000000000000000000000000000000000000000000000000000000000000000000000000000000000000000000000000000200000000020000000004000000000000000000000000000000000000000000000000400000000000000000000000000000000402000000000000000000000400000000000000000000000000000000000000000000000000000000000000000000000020000000000000000000000000000000000000000000000000000000000000000000000000000020000000000000000000000000000000000800000000000000010000000000000000000000000000000000000001000000000000000000000",
      "type": "0x2",
      "effectiveGasPrice": "0x1029af41e"
    },
    {
      "transactionHash": "0x853993d0dfcefc3738903ffc0469f16e9bdde771a7e346b6d2d9f4f965d6f077",
      "transactionIndex": "0x1",
      "blockHash": "0xc98e0cdda78b0611c9f2a5f1541c0e176a1092e7883f6cd4959089d0e4fd6805",
      "blockNumber": "0x6b6c2a",
      "from": "0xDdb342ecc94236c29a5307d3757d0724D759453C",
      "to": "0x3A169a1C2341ed3fa9e0d4A32421156b6b20DA84",
      "cumulativeGasUsed": "0x19600",
      "gasUsed": "0x12b18",
      "contractAddress": null,
      "logs": [
        {
          "address": "0xE2Bb56ee936fd6433DC0F6e7e3b8365C906AA057",
          "topics": [
            "0xdb80dd488acf86d17c747445b0eabb5d57c541d3bd7b6b87af987858e5066b2b",
            "0x0000000000000000000000003a169a1c2341ed3fa9e0d4a32421156b6b20da84",
            "0x03e0f83ba17eac9112e452a72493e4abc71f4e749fa376278e16a6169d4e7255",
            "0x00f1149cade9d692862ad41df96b108aa2c20af34f640457e781d166c98dc6b0"
          ],
          "data": "0x000000000000000000000000000000000000000000000000000000000000006000000000000000000000000000000000000000000000000000000000000027b000000000000000000000000000000000000000000000000000005af3107a4000000000000000000000000000000000000000000000000000000000000000000800000000000000000000000000000000000000000000000000000000000000020000000000000000000000000000000000000000000000000000000000000000000000000000000000000000000000000000000000000000000000000000000000000000000000000000000000000000000000000000000000000000000000000000000000000000000000000000000000000000000000000000000000000000000000000000000000000000000000000000000000000000000000000000000000000000000000000000000000000000000000000000000000000000000000000000000000000000000000000000000000000000000000000000000000000000",
          "blockHash": "0xc98e0cdda78b0611c9f2a5f1541c0e176a1092e7883f6cd4959089d0e4fd6805",
          "blockNumber": "0x6b6c2a",
          "transactionHash": "0x853993d0dfcefc3738903ffc0469f16e9bdde771a7e346b6d2d9f4f965d6f077",
          "transactionIndex": "0x1",
          "logIndex": "0x1",
          "removed": false
        },
        {
          "address": "0x3A169a1C2341ed3fa9e0d4A32421156b6b20DA84",
          "topics": [
            "0x6d92f7d3303f995bf21956bb0c51b388bae348eaf45c23debd2cfa3fcd9ec646",
            "0x000000000000000000000000ddb342ecc94236c29a5307d3757d0724d759453c"
          ],
          "data": "0x0000000000000000000000000000000000000000000000000000000000000000",
          "blockHash": "0xc98e0cdda78b0611c9f2a5f1541c0e176a1092e7883f6cd4959089d0e4fd6805",
          "blockNumber": "0x6b6c2a",
          "transactionHash": "0x853993d0dfcefc3738903ffc0469f16e9bdde771a7e346b6d2d9f4f965d6f077",
          "transactionIndex": "0x1",
          "logIndex": "0x2",
          "removed": false
        }
      ],
      "status": "0x1",
      "logsBloom": "0x20400000000000000000000000020000000000000000000000000000000000000000000000000000000000000000000000000000000000000000000000000000000020000000004000000000000000000000000000000040001000000000000400000000100040010000000000000000402000800000000000000000400000000000001000001000000000000000000004000000000000000000000000000010000000000000000040000020000000000000000000000000000000000000000000000000000000000000000000000000000000000000000000000800000000000000001000000000000080000000000000000000000000000000000000000000",
      "type": "0x2",
      "effectiveGasPrice": "0x1029af41e"
    }
  ],
  "libraries": [],
  "pending": [],
  "returns": {},
  "timestamp": 1731121321,
  "chain": 11155111,
  "multi": false,
  "commit": "75c82f5"
}