{
  "transactions": [
    {
      "hash": "0x383b6ff5861165b29e46730b990a1abb0d7a5a87621c38ce6747c3c1a3e17d5d",
      "transactionType": "CALL",
      "contractName": null,
      "contractAddress": "0xca14007eff0db1f8135f4c25b34de49ab0d42766",
      "function": "approve(address,uint256)",
      "arguments": [
        "0xabcd70100c04F7aD20DDF425705c91AB2BeA4e56",
        "115792089237316195423570985008687907853269984665640564039457584007913129639935"
      ],
      "transaction": {
        "from": "0xddb342ecc94236c29a5307d3757d0724d759453c",
        "to": "0xca14007eff0db1f8135f4c25b34de49ab0d42766",
        "gas": "0x93a9",
        "value": "0x0",
        "input": "0x095ea7b3000000000000000000000000abcd70100c04f7ad20ddf425705c91ab2bea4e56ffffffffffffffffffffffffffffffffffffffffffffffffffffffffffffffff",
        "nonce": "0x531",
        "chainId": "0xaa36a7"
      },
      "additionalContracts": [],
      "isFixedGasLimit": false
    },
    {
      "hash": "0xbc749d133cd2e15695a5da2d0a2ab95f4090dda7f8ceda563afa919ba55d8944",
      "transactionType": "CALL",
      "contractName": null,
      "contractAddress": "0xabcd70100c04f7ad20ddf425705c91ab2bea4e56",
      "function": "depositAndCreateOrder((address,uint256,uint256,uint128,uint128,uint128,uint128))",
      "arguments": [
        "(0xDdb342ecc94236c29a5307d3757d0724D759453C, 2009894490435840142178314390393166646092438090257831307886760648929397478285, 2009894490435840142178314390393166646092438090257831307886760648929397478285, 170141183460469235273462165868118016, 1737476624, 1737476752, 500000000000000)"
      ],
      "transaction": {
        "from": "0xddb342ecc94236c29a5307d3757d0724d759453c",
        "to": "0xabcd70100c04f7ad20ddf425705c91ab2bea4e56",
        "gas": "0x3bc7d",
        "value": "0x1c6bf52634000",
        "input": "0x6c1cc3f4000000000000000000000000ddb342ecc94236c29a5307d3757d0724d759453c04718f5a0fc34cc1af16a1cdee98ffb20c31f5cd61d6ab07201858f4287c938d04718f5a0fc34cc1af16a1cdee98ffb20c31f5cd61d6ab07201858f4287c938d000000000000000000000000000000000020c49ba5e353f8000000000000000000000000000000000000000000000000000000000000000000000000678fca1000000000000000000000000000000000000000000000000000000000678fca900000000000000000000000000000000000000000000000000001c6bf52634000",
        "nonce": "0x532",
        "chainId": "0xaa36a7"
      },
      "additionalContracts": [],
      "isFixedGasLimit": false
    }
  ],
  "receipts": [
    {
      "status": "0x1",
      "cumulativeGasUsed": "0xbbeaa6",
      "logs": [
        {
          "address": "0xca14007eff0db1f8135f4c25b34de49ab0d42766",
          "topics": [
            "0x8c5be1e5ebec7d5bd14f71427d1e84f3dd0314c0f7b2291e5b200ac8c7c3b925",
            "0x000000000000000000000000ddb342ecc94236c29a5307d3757d0724d759453c",
            "0x000000000000000000000000abcd70100c04f7ad20ddf425705c91ab2bea4e56"
          ],
          "data": "0xffffffffffffffffffffffffffffffffffffffffffffffffffffffffffffffff",
          "blockHash": "0xfacd067ba87c5a8346d2b39e32d40910d7c3be60a6d7bae022aaaad6378a5917",
          "blockNumber": "0x731122",
          "transactionHash": "0x383b6ff5861165b29e46730b990a1abb0d7a5a87621c38ce6747c3c1a3e17d5d",
          "transactionIndex": "0x62",
          "logIndex": "0xd9",
          "removed": false
        }
      ],
      "logsBloom": "0x00000000010000000000100000000000000000000000000000000000000000000000000000000000000000000000000000000000000000000000000000200000000000000000000000000000000000000000000000000000000000000000000400000000000000000000000000000000400000000000000000000000400000000000000000000000000000000000000000000000000000000000000000000000020000000000000000000000000000000000000000000000000000000000000000000000000000020000000000000000000000000000000000800000000000000010000000001000000000000000000000000000001000000000000000000000",
      "type": "0x2",
      "transactionHash": "0x383b6ff5861165b29e46730b990a1abb0d7a5a87621c38ce6747c3c1a3e17d5d",
      "transactionIndex": "0x62",
      "blockHash": "0xfacd067ba87c5a8346d2b39e32d40910d7c3be60a6d7bae022aaaad6378a5917",
      "blockNumber": "0x731122",
      "gasUsed": "0x6ae8",
      "effectiveGasPrice": "0xb86fb7c0",
      "from": "0xddb342ecc94236c29a5307d3757d0724d759453c",
      "to": "0xca14007eff0db1f8135f4c25b34de49ab0d42766",
      "contractAddress": null
    },
    {
      "status": "0x1",
      "cumulativeGasUsed": "0xbe9f22",
      "logs": [
        {
          "address": "0xca14007eff0db1f8135f4c25b34de49ab0d42766",
          "topics": [
            "0x8c5be1e5ebec7d5bd14f71427d1e84f3dd0314c0f7b2291e5b200ac8c7c3b925",
            "0x000000000000000000000000abcd70100c04f7ad20ddf425705c91ab2bea4e56",
            "0x000000000000000000000000abcd70100c04f7ad20ddf425705c91ab2bea4e56"
          ],
          "data": "0x0000000000000000000000000000000000000000000000000001c6bf52634000",
          "blockHash": "0xfacd067ba87c5a8346d2b39e32d40910d7c3be60a6d7bae022aaaad6378a5917",
          "blockNumber": "0x731122",
          "transactionHash": "0xbc749d133cd2e15695a5da2d0a2ab95f4090dda7f8ceda563afa919ba55d8944",
          "transactionIndex": "0x63",
          "logIndex": "0xda",
          "removed": false
        },
        {
          "address": "0xca14007eff0db1f8135f4c25b34de49ab0d42766",
          "topics": [
            "0xddf252ad1be2c89b69c2b068fc378daa952ba7f163c4a11628f55a4df523b3ef",
            "0x000000000000000000000000ddb342ecc94236c29a5307d3757d0724d759453c",
            "0x000000000000000000000000abcd70100c04f7ad20ddf425705c91ab2bea4e56"
          ],
          "data": "0x0000000000000000000000000000000000000000000000000001c6bf52634000",
          "blockHash": "0xfacd067ba87c5a8346d2b39e32d40910d7c3be60a6d7bae022aaaad6378a5917",
          "blockNumber": "0x731122",
          "transactionHash": "0xbc749d133cd2e15695a5da2d0a2ab95f4090dda7f8ceda563afa919ba55d8944",
          "transactionIndex": "0x63",
          "logIndex": "0xdb",
          "removed": false
        },
        {
          "address": "0xca14007eff0db1f8135f4c25b34de49ab0d42766",
          "topics": [
            "0x8c5be1e5ebec7d5bd14f71427d1e84f3dd0314c0f7b2291e5b200ac8c7c3b925",
            "0x000000000000000000000000abcd70100c04f7ad20ddf425705c91ab2bea4e56",
            "0x000000000000000000000000ce5485cfb26914c5dce00b9baf0580364dafc7a4"
          ],
          "data": "0x0000000000000000000000000000000000000000000000000001c6bf52634000",
          "blockHash": "0xfacd067ba87c5a8346d2b39e32d40910d7c3be60a6d7bae022aaaad6378a5917",
          "blockNumber": "0x731122",
          "transactionHash": "0xbc749d133cd2e15695a5da2d0a2ab95f4090dda7f8ceda563afa919ba55d8944",
          "transactionIndex": "0x63",
          "logIndex": "0xdc",
          "removed": false
        },
        {
          "address": "0xca14007eff0db1f8135f4c25b34de49ab0d42766",
          "topics": [
            "0x8c5be1e5ebec7d5bd14f71427d1e84f3dd0314c0f7b2291e5b200ac8c7c3b925",
            "0x000000000000000000000000abcd70100c04f7ad20ddf425705c91ab2bea4e56",
            "0x000000000000000000000000ce5485cfb26914c5dce00b9baf0580364dafc7a4"
          ],
          "data": "0x0000000000000000000000000000000000000000000000000000000000000000",
          "blockHash": "0xfacd067ba87c5a8346d2b39e32d40910d7c3be60a6d7bae022aaaad6378a5917",
          "blockNumber": "0x731122",
          "transactionHash": "0xbc749d133cd2e15695a5da2d0a2ab95f4090dda7f8ceda563afa919ba55d8944",
          "transactionIndex": "0x63",
          "logIndex": "0xdd",
          "removed": false
        },
        {
          "address": "0xca14007eff0db1f8135f4c25b34de49ab0d42766",
          "topics": [
            "0xddf252ad1be2c89b69c2b068fc378daa952ba7f163c4a11628f55a4df523b3ef",
            "0x000000000000000000000000abcd70100c04f7ad20ddf425705c91ab2bea4e56",
            "0x000000000000000000000000ce5485cfb26914c5dce00b9baf0580364dafc7a4"
          ],
          "data": "0x0000000000000000000000000000000000000000000000000001c6bf52634000",
          "blockHash": "0xfacd067ba87c5a8346d2b39e32d40910d7c3be60a6d7bae022aaaad6378a5917",
          "blockNumber": "0x731122",
          "transactionHash": "0xbc749d133cd2e15695a5da2d0a2ab95f4090dda7f8ceda563afa919ba55d8944",
          "transactionIndex": "0x63",
          "logIndex": "0xde",
          "removed": false
        },
        {
          "address": "0xe2bb56ee936fd6433dc0f6e7e3b8365c906aa057",
          "topics": [
            "0xdb80dd488acf86d17c747445b0eabb5d57c541d3bd7b6b87af987858e5066b2b",
            "0x000000000000000000000000ce5485cfb26914c5dce00b9baf0580364dafc7a4",
            "0x0594c1582459ea03f77deaf9eb7e3917d6994a03c13405ba42867f83d85f085d",
            "0x008bce41827dd5484d80312a2e43bc42a896e3fcf75bf84c2b49339168dfa00a"
          ],
          "data": "0x00000000000000000000000000000000000000000000000000000000000000600000000000000000000000000000000000000000000000000000000000002c890000000000000000000000000000000000000000000000000001c6bf52634000000000000000000000000000000000000000000000000000000000000000000e000000000000000000000000ca14007eff0db1f8135f4c25b34de49ab0d42766000000000000000000000000abcd70100c04f7ad20ddf425705c91ab2bea4e5605384d7aa25d47c73d60f2ee889af6b337544c534b05d8560578c06f01db55bd0000000000000000000000000000000000000000000000000001c6bf52634000000000000000000000000000000000000000000000000000000000000000000000000000000000000000000000000000000000000000000000000000000000080000000000000000000000000000000000000000000000000000000000000000000000000000000000000000ddb342ecc94236c29a5307d3757d0724d759453c04718f5a0fc34cc1af16a1cdee98ffb20c31f5cd61d6ab07201858f4287c938d04718f5a0fc34cc1af16a1cdee98ffb20c31f5cd61d6ab07201858f4287c938d000000000000000000000000000000000020c49ba5e353f8000000000000000000000000000000000000000000000000000000000000000000000000678fca1000000000000000000000000000000000000000000000000000000000678fca900000000000000000000000000000000000000000000000000001c6bf52634000",
          "blockHash": "0xfacd067ba87c5a8346d2b39e32d40910d7c3be60a6d7bae022aaaad6378a5917",
          "blockNumber": "0x731122",
          "transactionHash": "0xbc749d133cd2e15695a5da2d0a2ab95f4090dda7f8ceda563afa919ba55d8944",
          "transactionIndex": "0x63",
          "logIndex": "0xdf",
          "removed": false
        },
        {
          "address": "0xce5485cfb26914c5dce00b9baf0580364dafc7a4",
          "topics": [
            "0x2203a49c69f1a46c1164f5e4a30643dd77b7c59c0ff9bc433256048365c247f1",
            "0x000000000000000000000000abcd70100c04f7ad20ddf425705c91ab2bea4e56",
            "0x000000000000000000000000ca14007eff0db1f8135f4c25b34de49ab0d42766",
            "0x05384d7aa25d47c73d60f2ee889af6b337544c534b05d8560578c06f01db55bd"
          ],
          "data": "0x0000000000000000000000000000000000000000000000000001c6bf5263400000000000000000000000000000000000000000000000000000000000000000800000000000000000000000000000000000000000000000000000000000002c890000000000000000000000000000000000000000000000000001c6bf5263400000000000000000000000000000000000000000000000000000000000000000080000000000000000000000000000000000000000000000000000000000000000000000000000000000000000ddb342ecc94236c29a5307d3757d0724d759453c04718f5a0fc34cc1af16a1cdee98ffb20c31f5cd61d6ab07201858f4287c938d04718f5a0fc34cc1af16a1cdee98ffb20c31f5cd61d6ab07201858f4287c938d000000000000000000000000000000000020c49ba5e353f8000000000000000000000000000000000000000000000000000000000000000000000000678fca1000000000000000000000000000000000000000000000000000000000678fca900000000000000000000000000000000000000000000000000001c6bf52634000",
          "blockHash": "0xfacd067ba87c5a8346d2b39e32d40910d7c3be60a6d7bae022aaaad6378a5917",
          "blockNumber": "0x731122",
          "transactionHash": "0xbc749d133cd2e15695a5da2d0a2ab95f4090dda7f8ceda563afa919ba55d8944",
          "transactionIndex": "0x63",
          "logIndex": "0xe0",
          "removed": false
        },
        {
          "address": "0xabcd70100c04f7ad20ddf425705c91ab2bea4e56",
          "topics": [
            "0xaf43445f7721522b7a3864ed3de53d7e2e658bfa1eeffa18e1e229be68ce2545",
            "0x000000000000000000000000ddb342ecc94236c29a5307d3757d0724d759453c",
            "0x05384d7aa25d47c73d60f2ee889af6b337544c534b05d8560578c06f01db55bd"
          ],
          "data": "0x0000000000000000000000000000000000000000000000000001c6bf526340000000000000000000000000000000000000000000000000000000000000000001",
          "blockHash": "0xfacd067ba87c5a8346d2b39e32d40910d7c3be60a6d7bae022aaaad6378a5917",
          "blockNumber": "0x731122",
          "transactionHash": "0xbc749d133cd2e15695a5da2d0a2ab95f4090dda7f8ceda563afa919ba55d8944",
          "transactionIndex": "0x63",
          "logIndex": "0xe1",
          "removed": false
        }
      ],
      "logsBloom": "0x00000202010000000020100000020000000000000000000000000040000000000000000000000000000000000000000000000000000004000000020000200000000000000000000000000008080000000000000000000040001800000000000600000000100000000000000000000000400000000000000000000010400008002000000000000000000000020000000000008000000200080000000000000010020000800000000000000020000000021000000000000000000000000000000000800002000000024010000000000000000000200000000000800000000000000010000000011000000000020004008000000000001000080000000000000000",
      "type": "0x2",
      "transactionHash": "0xbc749d133cd2e15695a5da2d0a2ab95f4090dda7f8ceda563afa919ba55d8944",
      "transactionIndex": "0x63",
      "blockHash": "0xfacd067ba87c5a8346d2b39e32d40910d7c3be60a6d7bae022aaaad6378a5917",
      "blockNumber": "0x731122",
      "gasUsed": "0x2b47c",
      "effectiveGasPrice": "0xb86fb7c0",
      "from": "0xddb342ecc94236c29a5307d3757d0724d759453c",
      "to": "0xabcd70100c04f7ad20ddf425705c91ab2bea4e56",
      "contractAddress": null
    }
  ],
  "libraries": [],
  "pending": [],
  "returns": {},
  "timestamp": 1737476652,
  "chain": 11155111,
  "commit": "fcbff6b"
}