{
  "transactions": [
    {
      "hash": "0x0c1babe80132979b8dbed60156bc36d09d0097464692f82b3edaec4e449ca5f2",
      "transactionType": "CALL",
      "contractName": null,
      "contractAddress": "0xca14007eff0db1f8135f4c25b34de49ab0d42766",
      "function": "approve(address,uint256)",
      "arguments": [
        "0x8c3F4901dfAf00f43B11554d96Db04FAe340479E",
        "115792089237316195423570985008687907853269984665640564039457584007913129639935"
      ],
      "transaction": {
        "from": "0xddb342ecc94236c29a5307d3757d0724d759453c",
        "to": "0xca14007eff0db1f8135f4c25b34de49ab0d42766",
        "gas": "0x9398",
        "value": "0x0",
        "input": "0x095ea7b30000000000000000000000008c3f4901dfaf00f43b11554d96db04fae340479effffffffffffffffffffffffffffffffffffffffffffffffffffffffffffffff",
        "nonce": "0x49c",
        "chainId": "0xaa36a7"
      },
      "additionalContracts": [],
      "isFixedGasLimit": false
    },
    {
      "hash": "0xc10a851d4de0abcb581293af985f6024cf23ba5a1d52de6e424899e071acf6d3",
      "transactionType": "CALL",
      "contractName": null,
      "contractAddress": "0x8c3f4901dfaf00f43b11554d96db04fae340479e",
      "function": "setL2EndpointAddress(uint256)",
      "arguments": [
        "317992109532605666088532397923801128619695735836428311754951062151174980006"
      ],
      "transaction": {
        "from": "0xddb342ecc94236c29a5307d3757d0724d759453c",
        "to": "0x8c3f4901dfaf00f43b11554d96db04fae340479e",
        "gas": "0xa210",
        "value": "0x0",
        "input": "0x5155fb2f00b3fa26e2af15dda3690ff437257057ad524115b00182928b60d213d50281a6",
        "nonce": "0x49d",
        "chainId": "0xaa36a7"
      },
      "additionalContracts": [],
      "isFixedGasLimit": false
    }
  ],
  "receipts": [
    {
      "status": "0x1",
      "cumulativeGasUsed": "0x171a88e",
      "logs": [
        {
          "address": "0xca14007eff0db1f8135f4c25b34de49ab0d42766",
          "topics": [
            "0x8c5be1e5ebec7d5bd14f71427d1e84f3dd0314c0f7b2291e5b200ac8c7c3b925",
            "0x000000000000000000000000ddb342ecc94236c29a5307d3757d0724d759453c",
            "0x0000000000000000000000008c3f4901dfaf00f43b11554d96db04fae340479e"
          ],
          "data": "0xffffffffffffffffffffffffffffffffffffffffffffffffffffffffffffffff",
          "blockHash": "0x4af42b5bbb29302ab57697d3e6357662ad32d9a5ab88bfc4a46be1767592b2c0",
          "blockNumber": "0x720560",
          "transactionHash": "0x0c1babe80132979b8dbed60156bc36d09d0097464692f82b3edaec4e449ca5f2",
          "transactionIndex": "0x80",
          "logIndex": "0x123",
          "removed": false
        }
      ],
      "logsBloom": "0x00000000000000000000000000000000000000000000000000000000000000000000000000000000000000000000000000000000000000000000000000200000000000000000000000000000000000000000000000000000000000000000000400000000000000000000000000000000400000000000000000000000400000000000000000000000000000000000000000000000000000000000100000000000020000000000000000000000000000000200000000000000000000000000000000002000000000020000000000000000000000000000000000800000000000000010000000000000000000000000000000000000001000000000000000000000",
      "type": "0x2",
      "transactionHash": "0x0c1babe80132979b8dbed60156bc36d09d0097464692f82b3edaec4e449ca5f2",
      "transactionIndex": "0x80",
      "blockHash": "0x4af42b5bbb29302ab57697d3e6357662ad32d9a5ab88bfc4a46be1767592b2c0",
      "blockNumber": "0x720560",
      "gasUsed": "0x6adc",
      "effectiveGasPrice": "0xa82d4a57",
      "from": "0xddb342ecc94236c29a5307d3757d0724d759453c",
      "to": "0xca14007eff0db1f8135f4c25b34de49ab0d42766",
      "contractAddress": null
    },
    {
      "status": "0x1",
      "cumulativeGasUsed": "0x1721de3",
      "logs": [
        {
          "address": "0x8c3f4901dfaf00f43b11554d96db04fae340479e",
          "topics": [
            "0xa35dce9e53611b0cabca886209c4a1d09c80214af9b6fb6027f7b2f7c39838e8"
          ],
          "data": "0x00b3fa26e2af15dda3690ff437257057ad524115b00182928b60d213d50281a6",
          "blockHash": "0x4af42b5bbb29302ab57697d3e6357662ad32d9a5ab88bfc4a46be1767592b2c0",
          "blockNumber": "0x720560",
          "transactionHash": "0xc10a851d4de0abcb581293af985f6024cf23ba5a1d52de6e424899e071acf6d3",
          "transactionIndex": "0x81",
          "logIndex": "0x124",
          "removed": false
        }
      ],
      "logsBloom": "0x00000000000000000000000010000000000000000000000000000000000000000000000000000000000000000000000000000000000000000000000000000000000000000000000000000000000200000000000000000000000000000000000000000000000000000000000000000000000000000000000000000000000000000000000000000000010400000000000000000000000000000000000000000000800000000000000000000000000000000000000000000000001000000000000000000000000000000000000000000000000000000000000000000000000000000000000000000000000000000000000000000000000000000000000000000000",
      "type": "0x2",
      "transactionHash": "0xc10a851d4de0abcb581293af985f6024cf23ba5a1d52de6e424899e071acf6d3",
      "transactionIndex": "0x81",
      "blockHash": "0x4af42b5bbb29302ab57697d3e6357662ad32d9a5ab88bfc4a46be1767592b2c0",
      "blockNumber": "0x720560",
      "gasUsed": "0x7555",
      "effectiveGasPrice": "0xa82d4a57",
      "from": "0xddb342ecc94236c29a5307d3757d0724d759453c",
      "to": "0x8c3f4901dfaf00f43b11554d96db04fae340479e",
      "contractAddress": null
    }
  ],
  "libraries": [],
  "pending": [],
  "returns": {},
  "timestamp": 1736650742,
  "chain": 11155111,
  "commit": "81b7af0"
}