{
  "transactions": [
    {
      "hash": "0x6fd97547041eba49af314c328096070843714a3f2a0e90b16640e88eecbbc161",
      "transactionType": "CALL",
      "contractName": null,
      "contractAddress": "0xca14007eff0db1f8135f4c25b34de49ab0d42766",
      "function": "approve(address,uint256)",
      "arguments": [
        "0x17ceB8Da41205f1026241766328751884Afa7FE8",
        "115792089237316195423570985008687907853269984665640564039457584007913129639935"
      ],
      "transaction": {
        "from": "0xddb342ecc94236c29a5307d3757d0724d759453c",
        "to": "0xca14007eff0db1f8135f4c25b34de49ab0d42766",
        "gas": "0x93a9",
        "value": "0x0",
        "input": "0x095ea7b300000000000000000000000017ceb8da41205f1026241766328751884afa7fe8ffffffffffffffffffffffffffffffffffffffffffffffffffffffffffffffff",
        "nonce": "0x4e8",
        "chainId": "0xaa36a7"
      },
      "additionalContracts": [],
      "isFixedGasLimit": false
    },
    {
      "hash": "0x3fd94b72dae91a7c1842f05557db5549df659162ed8a6a5ffff034b8e99d60f2",
      "transactionType": "CALL",
      "contractName": null,
      "contractAddress": "0x17ceb8da41205f1026241766328751884afa7fe8",
      "function": "initiateWithdrawal(address,address,uint64)",
      "arguments": [
        "0xDdb342ecc94236c29a5307d3757d0724D759453C",
        "0x1c7D4B196Cb0C7B01d743Fbc6116a902379C7238",
        "528"
      ],
      "transaction": {
        "from": "0xddb342ecc94236c29a5307d3757d0724d759453c",
        "to": "0x17ceb8da41205f1026241766328751884afa7fe8",
        "gas": "0x1b4c1",
        "value": "0x1c6bf52634000",
        "input": "0x9b4085f6000000000000000000000000ddb342ecc94236c29a5307d3757d0724d759453c0000000000000000000000001c7d4b196cb0c7b01d743fbc6116a902379c72380000000000000000000000000000000000000000000000000000000000000210",
        "nonce": "0x4e9",
        "chainId": "0xaa36a7"
      },
      "additionalContracts": [],
      "isFixedGasLimit": false
    }
  ],
  "receipts": [
    {
      "status": "0x1",
      "cumulativeGasUsed": "0x9811ca",
      "logs": [
        {
          "address": "0xca14007eff0db1f8135f4c25b34de49ab0d42766",
          "topics": [
            "0x8c5be1e5ebec7d5bd14f71427d1e84f3dd0314c0f7b2291e5b200ac8c7c3b925",
            "0x000000000000000000000000ddb342ecc94236c29a5307d3757d0724d759453c",
            "0x00000000000000000000000017ceb8da41205f1026241766328751884afa7fe8"
          ],
          "data": "0xffffffffffffffffffffffffffffffffffffffffffffffffffffffffffffffff",
          "blockHash": "0x77e16bb54bd4237e863b6f8beb48799f63cf6bdda5edb0985ee01336d8b7652f",
          "blockNumber": "0x72f781",
          "transactionHash": "0x6fd97547041eba49af314c328096070843714a3f2a0e90b16640e88eecbbc161",
          "transactionIndex": "0x53",
          "logIndex": "0x99",
          "removed": false
        }
      ],
      "logsBloom": "0x00000000000000000000000000000000000000000000000000000000000000000000000000000000000000000800000000000000000000000000000000200000000000000000000000000000000000000000000000000000000000000000000400000000000000000000000000000000400000000000000000000000400000000000000000000000000000000000000000000000000000000000000000000000020000000000000000000000000000000000000000000000000000000000000000000000000000020000000000000000020000000000000000800000000000000010000000400000000000000000000000000000001000000000000000000000",
      "type": "0x2",
      "transactionHash": "0x6fd97547041eba49af314c328096070843714a3f2a0e90b16640e88eecbbc161",
      "transactionIndex": "0x53",
      "blockHash": "0x77e16bb54bd4237e863b6f8beb48799f63cf6bdda5edb0985ee01336d8b7652f",
      "blockNumber": "0x72f781",
      "gasUsed": "0x6ae8",
      "effectiveGasPrice": "0x3f504a9e",
      "from": "0xddb342ecc94236c29a5307d3757d0724d759453c",
      "to": "0xca14007eff0db1f8135f4c25b34de49ab0d42766",
      "contractAddress": null
    },
    {
      "status": "0x1",
      "cumulativeGasUsed": "0x993c6d",
      "logs": [
        {
          "address": "0xe2bb56ee936fd6433dc0f6e7e3b8365c906aa057",
          "topics": [
            "0xdb80dd488acf86d17c747445b0eabb5d57c541d3bd7b6b87af987858e5066b2b",
            "0x00000000000000000000000017ceb8da41205f1026241766328751884afa7fe8",
            "0x07f7634d530030231a04892601d83bbc79defee8145d116d18fc4978e21f2741",
            "0x00f1149cade9d692862ad41df96b108aa2c20af34f640457e781d166c98dc6b0"
          ],
          "data": "0x00000000000000000000000000000000000000000000000000000000000000600000000000000000000000000000000000000000000000000000000000002c410000000000000000000000000000000000000000000000000001c6bf5263400000000000000000000000000000000000000000000000000000000000000000050000000000000000000000000000000000000000000000000000000000000002000000000000000000000000ddb342ecc94236c29a5307d3757d0724d759453c000000000000000000000000ddb342ecc94236c29a5307d3757d0724d759453c0000000000000000000000001c7d4b196cb0c7b01d743fbc6116a902379c72380000000000000000000000000000000000000000000000000000000000000210",
          "blockHash": "0x77e16bb54bd4237e863b6f8beb48799f63cf6bdda5edb0985ee01336d8b7652f",
          "blockNumber": "0x72f781",
          "transactionHash": "0x3fd94b72dae91a7c1842f05557db5549df659162ed8a6a5ffff034b8e99d60f2",
          "transactionIndex": "0x54",
          "logIndex": "0x9a",
          "removed": false
        },
        {
          "address": "0x17ceb8da41205f1026241766328751884afa7fe8",
          "topics": [
            "0x89bd98ae1b8dd4dbaeba50e40ad484414a306be9fb54ec4eecf1a801ca9aeacf",
            "0x000000000000000000000000ddb342ecc94236c29a5307d3757d0724d759453c"
          ],
          "data": "0x0000000000000000000000000000000000000000000000000000000000000210",
          "blockHash": "0x77e16bb54bd4237e863b6f8beb48799f63cf6bdda5edb0985ee01336d8b7652f",
          "blockNumber": "0x72f781",
          "transactionHash": "0x3fd94b72dae91a7c1842f05557db5549df659162ed8a6a5ffff034b8e99d60f2",
          "transactionIndex": "0x54",
          "logIndex": "0x9b",
          "removed": false
        }
      ],
      "logsBloom": "0x00400000040000000000000000020000000000000000000000000000000000000000000000000000000000000800000000000000000000000000000000000000000000000000000000000000000000000000000000000040001000000000000400000000100000010000000000000000400000000000000000000000400000000000000000000000000000000000000004000000802000000000000000000010000000000000000000000020000000000000000004000000000000000000002800000000000000000000200000000000020000000000000000000000000000000000000000400000000000002000000000000000000000000000000000200000",
      "type": "0x2",
      "transactionHash": "0x3fd94b72dae91a7c1842f05557db5549df659162ed8a6a5ffff034b8e99d60f2",
      "transactionIndex": "0x54",
      "blockHash": "0x77e16bb54bd4237e863b6f8beb48799f63cf6bdda5edb0985ee01336d8b7652f",
      "blockNumber": "0x72f781",
      "gasUsed": "0x12aa3",
      "effectiveGasPrice": "0x3f504a9e",
      "from": "0xddb342ecc94236c29a5307d3757d0724d759453c",
      "to": "0x17ceb8da41205f1026241766328751884afa7fe8",
      "contractAddress": null
    }
  ],
  "libraries": [],
  "pending": [],
  "returns": {},
  "timestamp": 1737397801,
  "chain": 11155111,
  "commit": "fcbff6b"
}