{
  "transactions": [
    {
      "hash": "0x116026a96c9f981aeb6c660c0409cb0ebc31cfff6d464726382f741452a6d723",
      "transactionType": "CALL",
      "contractName": "StarkNetToken",
      "contractAddress": "0xCa14007Eff0dB1f8135f4C25B34De49AB0d42766",
      "function": "approve(address,uint256)",
      "arguments": [
        "0x82066948CC929c4707787cF1214E08eD7d2B1f20",
        "115792089237316195423570985008687907853269984665640564039457584007913129639935"
      ],
      "transaction": {
        "type": "0x02",
        "from": "0xddb342ecc94236c29a5307d3757d0724d759453c",
        "to": "0xca14007eff0db1f8135f4c25b34de49ab0d42766",
        "gas": "0x93a9",
        "value": "0x0",
        "data": "0x095ea7b300000000000000000000000082066948cc929c4707787cf1214e08ed7d2b1f20ffffffffffffffffffffffffffffffffffffffffffffffffffffffffffffffff",
        "nonce": "0x2a8",
        "accessList": []
      },
      "additionalContracts": [],
      "isFixedGasLimit": false
    },
    {
      "hash": "0xaea98e9dbdfb466c31e327cf0ecfc54224a6a66b82415d5b0a6eaa43c8e75d90",
      "transactionType": "CALL",
      "contractName": "StarkNetToken",
      "contractAddress": "0xCa14007Eff0dB1f8135f4C25B34De49AB0d42766",
      "function": "transfer(address,uint256)",
      "arguments": [
        "0x82066948CC929c4707787cF1214E08eD7d2B1f20",
        "500000000000"
      ],
      "transaction": {
        "type": "0x02",
        "from": "0xddb342ecc94236c29a5307d3757d0724d759453c",
        "to": "0xca14007eff0db1f8135f4c25b34de49ab0d42766",
        "gas": "0xe404",
        "value": "0x0",
        "data": "0xa9059cbb00000000000000000000000082066948cc929c4707787cf1214e08ed7d2b1f20000000000000000000000000000000000000000000000000000000746a528800",
        "nonce": "0x2a9",
        "accessList": []
      },
      "additionalContracts": [],
      "isFixedGasLimit": false
    },
    {
      "hash": "0xfc3130a15d8014d9f91727e3b2c3245c3f5cfc82a38256102bb9d5624f7d8920",
      "transactionType": "CALL",
      "contractName": "L1TWAMMBridge",
      "contractAddress": "0x82066948CC929c4707787cF1214E08eD7d2B1f20",
      "function": "deposit(uint256,uint256)",
      "arguments": [
        "500000000000",
        "80756551688165857620544480464209230113661696152336388978584739899148792283"
      ],
      "transaction": {
        "type": "0x02",
        "from": "0xddb342ecc94236c29a5307d3757d0724d759453c",
        "to": "0x82066948cc929c4707787cf1214e08ed7d2b1f20",
        "gas": "0x2f13d",
        "value": "0x5af3107a4000",
        "data": "0xe2bbb158000000000000000000000000000000000000000000000000000000746a528800002db4e2fb780be922c23ff0cdeb6b5480c14dcdf62b010c3f94d6df0d4af1db",
        "nonce": "0x2aa",
        "accessList": []
      },
      "additionalContracts": [],
      "isFixedGasLimit": false
    },
    {
      "hash": "0xc1652a46d47d390199891f016b72a4f60b235322da3413f8cb7dc56771a6a40a",
      "transactionType": "CALL",
      "contractName": "Proxy",
      "contractAddress": "0xE2Bb56ee936fd6433DC0F6e7e3b8365C906AA057",
      "function": "sendMessageToL2(uint256,uint256,uint256[])",
      "arguments": [
        "80756551688165857620544480464209230113661696152336388978584739899148792283",
        "425952401605428413817582304755919420533935873840436977667370850915372091056",
        "[0, 1265684623727634235329190328445374361672779121980, 2009894490435840142178314390393166646092438090257831307886760648929397478285, 2366254414417873771392932940469309727793822550615514268240785277201753657472, 170141183460469235273462165868118016, 1731428416, 1731428480, 500000000000]"
      ],
      "transaction": {
        "type": "0x02",
        "from": "0xddb342ecc94236c29a5307d3757d0724d759453c",
        "to": "0xe2bb56ee936fd6433dc0f6e7e3b8365c906aa057",
        "gas": "0x15f0a",
        "value": "0x5af3107a4000",
        "data": "0x3e3aa6c5002db4e2fb780be922c23ff0cdeb6b5480c14dcdf62b010c3f94d6df0d4af1db00f1149cade9d692862ad41df96b108aa2c20af34f640457e781d166c98dc6b0000000000000000000000000000000000000000000000000000000000000006000000000000000000000000000000000000000000000000000000000000000080000000000000000000000000000000000000000000000000000000000000000000000000000000000000000ddb342ecc94236c29a5307d3757d0724d759453c04718f5a0fc34cc1af16a1cdee98ffb20c31f5cd61d6ab07201858f4287c938d053b40a647cedfca6ca84f542a0fe36736031905a9639a7f19a3c1e66bfd5080000000000000000000000000000000000020c49ba5e353f8000000000000000000000000000000000000000000000000000000000000000000000000673380400000000000000000000000000000000000000000000000000000000067338080000000000000000000000000000000000000000000000000000000746a528800",
        "nonce": "0x2ab",
        "accessList": []
      },
      "additionalContracts": [],
      "isFixedGasLimit": false
    }
  ],
  "receipts": [],
  "libraries": [],
  "pending": [
    "0x116026a96c9f981aeb6c660c0409cb0ebc31cfff6d464726382f741452a6d723",
    "0xaea98e9dbdfb466c31e327cf0ecfc54224a6a66b82415d5b0a6eaa43c8e75d90",
    "0xfc3130a15d8014d9f91727e3b2c3245c3f5cfc82a38256102bb9d5624f7d8920",
    "0xc1652a46d47d390199891f016b72a4f60b235322da3413f8cb7dc56771a6a40a"
  ],
  "returns": {},
  "timestamp": 1731428483,
  "chain": 11155111,
  "multi": false,
  "commit": "b1a5e4e"
}