{
  "transactions": [
    {
      "hash": "0x93326e622d7698d150f103d229e3c0b518648d341418ca6f2527a1ba5c3da3a3",
      "transactionType": "CALL",
      "contractName": "StarkNetToken",
      "contractAddress": "0xCa14007Eff0dB1f8135f4C25B34De49AB0d42766",
      "function": "approve(address,uint256)",
      "arguments": [
        "0x800480524107edEd9B2d87Ea835fec2614605ca5",
        "115792089237316195423570985008687907853269984665640564039457584007913129639935"
      ],
      "transaction": {
        "type": "0x02",
        "from": "0xddb342ecc94236c29a5307d3757d0724d759453c",
        "to": "0xca14007eff0db1f8135f4c25b34de49ab0d42766",
        "gas": "0xff08",
        "value": "0x0",
        "data": "0x095ea7b3000000000000000000000000800480524107eded9b2d87ea835fec2614605ca5ffffffffffffffffffffffffffffffffffffffffffffffffffffffffffffffff",
        "nonce": "0x2de",
        "accessList": []
      },
      "additionalContracts": [],
      "isFixedGasLimit": false
    },
    {
      "hash": "0x00bf046291aa2847d40203108258230b97d3797296f18d1c62e4fa79a1841480",
      "transactionType": "CALL",
      "contractName": "StarkNetToken",
      "contractAddress": "0xCa14007Eff0dB1f8135f4C25B34De49AB0d42766",
      "function": "transfer(address,uint256)",
      "arguments": [
        "0x800480524107edEd9B2d87Ea835fec2614605ca5",
        "500000000000"
      ],
      "transaction": {
        "type": "0x02",
        "from": "0xddb342ecc94236c29a5307d3757d0724d759453c",
        "to": "0xca14007eff0db1f8135f4c25b34de49ab0d42766",
        "gas": "0x1339c",
        "value": "0x0",
        "data": "0xa9059cbb000000000000000000000000800480524107eded9b2d87ea835fec2614605ca5000000000000000000000000000000000000000000000000000000746a528800",
        "nonce": "0x2df",
        "accessList": []
      },
      "additionalContracts": [],
      "isFixedGasLimit": false
    },
    {
      "hash": "0xba68f252140519f3c56dfd1d421448da3c7bee70075317278c57b83027641340",
      "transactionType": "CALL",
      "contractName": "L1TWAMMBridge",
      "contractAddress": "0x800480524107edEd9B2d87Ea835fec2614605ca5",
      "function": "deposit(uint256,uint256)",
      "arguments": [
        "500000000000",
        "3506623030916034188942742443137463598163805523457718257233226466542451029911"
      ],
      "transaction": {
        "type": "0x02",
        "from": "0xddb342ecc94236c29a5307d3757d0724d759453c",
        "to": "0x800480524107eded9b2d87ea835fec2614605ca5",
        "gas": "0x30231",
        "value": "0x5af3107a4000",
        "data": "0xe2bbb158000000000000000000000000000000000000000000000000000000746a52880007c0ada524e79e572c4f705e6c677d2f8881aa78c7d3e312f623a4ad26f1f797",
        "nonce": "0x2e0",
        "accessList": []
      },
      "additionalContracts": [],
      "isFixedGasLimit": false
    },
    {
      "hash": "0xd48a32397648fd5d9293498137584ce36cb7635ce1a182f9272fd12b5242b30f",
      "transactionType": "CALL",
      "contractName": "Proxy",
      "contractAddress": "0xE2Bb56ee936fd6433DC0F6e7e3b8365C906AA057",
      "function": "sendMessageToL2(uint256,uint256,uint256[])",
      "arguments": [
        "3506623030916034188942742443137463598163805523457718257233226466542451029911",
        "425952401605428413817582304755919420533935873840436977667370850915372091056",
        "[0, 1265684623727634235329190328445374361672779121980, 2009894490435840142178314390393166646092438090257831307886760648929397478285, 2366254414417873771392932940469309727793822550615514268240785277201753657472, 170141183460469235273462165868118016, 1731509664, 1731509728, 500000000000]"
      ],
      "transaction": {
        "type": "0x02",
        "from": "0xddb342ecc94236c29a5307d3757d0724d759453c",
        "to": "0xe2bb56ee936fd6433dc0f6e7e3b8365c906aa057",
        "gas": "0x173c2",
        "value": "0x5af3107a4000",
        "data": "0x3e3aa6c507c0ada524e79e572c4f705e6c677d2f8881aa78c7d3e312f623a4ad26f1f79700f1149cade9d692862ad41df96b108aa2c20af34f640457e781d166c98dc6b0000000000000000000000000000000000000000000000000000000000000006000000000000000000000000000000000000000000000000000000000000000080000000000000000000000000000000000000000000000000000000000000000000000000000000000000000ddb342ecc94236c29a5307d3757d0724d759453c04718f5a0fc34cc1af16a1cdee98ffb20c31f5cd61d6ab07201858f4287c938d053b40a647cedfca6ca84f542a0fe36736031905a9639a7f19a3c1e66bfd5080000000000000000000000000000000000020c49ba5e353f80000000000000000000000000000000000000000000000000000000000000000000000006734bda0000000000000000000000000000000000000000000000000000000006734bde0000000000000000000000000000000000000000000000000000000746a528800",
        "nonce": "0x2e1",
        "accessList": []
      },
      "additionalContracts": [],
      "isFixedGasLimit": false
    }
  ],
  "receipts": [
    {
      "transactionHash": "0x93326e622d7698d150f103d229e3c0b518648d341418ca6f2527a1ba5c3da3a3",
      "transactionIndex": "0x3",
      "blockHash": "0x246c0260851adc038bcc037508852505837986045e7cf572aa8cd32c63dbb41f",
      "blockNumber": "0x6bddcf",
      "from": "0xDdb342ecc94236c29a5307d3757d0724D759453C",
      "to": "0xCa14007Eff0dB1f8135f4C25B34De49AB0d42766",
      "cumulativeGasUsed": "0x1327fd",
      "gasUsed": "0xb8a4",
      "contractAddress": null,
      "logs": [
        {
          "address": "0xCa14007Eff0dB1f8135f4C25B34De49AB0d42766",
          "topics": [
            "0x8c5be1e5ebec7d5bd14f71427d1e84f3dd0314c0f7b2291e5b200ac8c7c3b925",
            "0x000000000000000000000000ddb342ecc94236c29a5307d3757d0724d759453c",
            "0x000000000000000000000000800480524107eded9b2d87ea835fec2614605ca5"
          ],
          "data": "0xffffffffffffffffffffffffffffffffffffffffffffffffffffffffffffffff",
          "blockHash": "0x246c0260851adc038bcc037508852505837986045e7cf572aa8cd32c63dbb41f",
          "blockNumber": "0x6bddcf",
          "transactionHash": "0x93326e622d7698d150f103d229e3c0b518648d341418ca6f2527a1ba5c3da3a3",
          "transactionIndex": "0x3",
          "logIndex": "0xa",
          "removed": false
        }
      ],
      "status": "0x1",
      "logsBloom": "0x00000000000000000000000000000000000000000000000000000000000000000000000000000000000000000000000000000000000000000000000000200000000000000000000000000000000000000000000000000000000000000000000400000000000000000000000000100000400000000000000000000004400000000000000000000000000000000000000000000000000000000000000000000000020000400000000000000000000000000000000000000000000000000000000000000000000000020000000000000000000000000000000000800000000000000010000000000000000000000000000000000000001000000000000000000000",
      "type": "0x2",
      "effectiveGasPrice": "0xeb07147a"
    },
    {
      "transactionHash": "0x00bf046291aa2847d40203108258230b97d3797296f18d1c62e4fa79a1841480",
      "transactionIndex": "0x4",
      "blockHash": "0x246c0260851adc038bcc037508852505837986045e7cf572aa8cd32c63dbb41f",
      "blockNumber": "0x6bddcf",
      "from": "0xDdb342ecc94236c29a5307d3757d0724D759453C",
      "to": "0xCa14007Eff0dB1f8135f4C25B34De49AB0d42766",
      "cumulativeGasUsed": "0x1406b2",
      "gasUsed": "0xdeb5",
      "contractAddress": null,
      "logs": [
        {
          "address": "0xCa14007Eff0dB1f8135f4C25B34De49AB0d42766",
          "topics": [
            "0xddf252ad1be2c89b69c2b068fc378daa952ba7f163c4a11628f55a4df523b3ef",
            "0x000000000000000000000000ddb342ecc94236c29a5307d3757d0724d759453c",
            "0x000000000000000000000000800480524107eded9b2d87ea835fec2614605ca5"
          ],
          "data": "0x000000000000000000000000000000000000000000000000000000746a528800",
          "blockHash": "0x246c0260851adc038bcc037508852505837986045e7cf572aa8cd32c63dbb41f",
          "blockNumber": "0x6bddcf",
          "transactionHash": "0x00bf046291aa2847d40203108258230b97d3797296f18d1c62e4fa79a1841480",
          "transactionIndex": "0x4",
          "logIndex": "0xb",
          "removed": false
        }
      ],
      "status": "0x1",
      "logsBloom": "0x00000000000000000000000000000000000000000000000000000000000000000000000000000000000000000000000000000000000000000000000000000000000000000000000000000008000000000000000000000000000000000000000400000000000000000000000000100000400000000000000000000014400000000000000000000000000000000000000000000000000000000000000000000000000000400000000000000000000000000000000000000000000000000000000000000002000000020000000000000000000000000000000000800000000000000000000000000000000000000000000000000000001000000000000000000000",
      "type": "0x2",
      "effectiveGasPrice": "0xeb07147a"
    },
    {
      "transactionHash": "0xba68f252140519f3c56dfd1d421448da3c7bee70075317278c57b83027641340",
      "transactionIndex": "0x5",
      "blockHash": "0x246c0260851adc038bcc037508852505837986045e7cf572aa8cd32c63dbb41f",
      "blockNumber": "0x6bddcf",
      "from": "0xDdb342ecc94236c29a5307d3757d0724D759453C",
      "to": "0x800480524107edEd9B2d87Ea835fec2614605ca5",
      "cumulativeGasUsed": "0x161553",
      "gasUsed": "0x20ea1",
      "contractAddress": null,
      "logs": [
        {
          "address": "0xCa14007Eff0dB1f8135f4C25B34De49AB0d42766",
          "topics": [
            "0x8c5be1e5ebec7d5bd14f71427d1e84f3dd0314c0f7b2291e5b200ac8c7c3b925",
            "0x000000000000000000000000800480524107eded9b2d87ea835fec2614605ca5",
            "0x000000000000000000000000ce5485cfb26914c5dce00b9baf0580364dafc7a4"
          ],
          "data": "0x000000000000000000000000000000000000000000000000000000746a528800",
          "blockHash": "0x246c0260851adc038bcc037508852505837986045e7cf572aa8cd32c63dbb41f",
          "blockNumber": "0x6bddcf",
          "transactionHash": "0xba68f252140519f3c56dfd1d421448da3c7bee70075317278c57b83027641340",
          "transactionIndex": "0x5",
          "logIndex": "0xc",
          "removed": false
        },
        {
          "address": "0xCa14007Eff0dB1f8135f4C25B34De49AB0d42766",
          "topics": [
            "0x8c5be1e5ebec7d5bd14f71427d1e84f3dd0314c0f7b2291e5b200ac8c7c3b925",
            "0x000000000000000000000000800480524107eded9b2d87ea835fec2614605ca5",
            "0x000000000000000000000000ce5485cfb26914c5dce00b9baf0580364dafc7a4"
          ],
          "data": "0x0000000000000000000000000000000000000000000000000000000000000000",
          "blockHash": "0x246c0260851adc038bcc037508852505837986045e7cf572aa8cd32c63dbb41f",
          "blockNumber": "0x6bddcf",
          "transactionHash": "0xba68f252140519f3c56dfd1d421448da3c7bee70075317278c57b83027641340",
          "transactionIndex": "0x5",
          "logIndex": "0xd",
          "removed": false
        },
        {
          "address": "0xCa14007Eff0dB1f8135f4C25B34De49AB0d42766",
          "topics": [
            "0xddf252ad1be2c89b69c2b068fc378daa952ba7f163c4a11628f55a4df523b3ef",
            "0x000000000000000000000000800480524107eded9b2d87ea835fec2614605ca5",
            "0x000000000000000000000000ce5485cfb26914c5dce00b9baf0580364dafc7a4"
          ],
          "data": "0x000000000000000000000000000000000000000000000000000000746a528800",
          "blockHash": "0x246c0260851adc038bcc037508852505837986045e7cf572aa8cd32c63dbb41f",
          "blockNumber": "0x6bddcf",
          "transactionHash": "0xba68f252140519f3c56dfd1d421448da3c7bee70075317278c57b83027641340",
          "transactionIndex": "0x5",
          "logIndex": "0xe",
          "removed": false
        },
        {
          "address": "0xE2Bb56ee936fd6433DC0F6e7e3b8365C906AA057",
          "topics": [
            "0xdb80dd488acf86d17c747445b0eabb5d57c541d3bd7b6b87af987858e5066b2b",
            "0x000000000000000000000000ce5485cfb26914c5dce00b9baf0580364dafc7a4",
            "0x0594c1582459ea03f77deaf9eb7e3917d6994a03c13405ba42867f83d85f085d",
            "0x01b64b1b3b690b43b9b514fb81377518f4039cd3e4f4914d8a6bdf01d679fb19"
          ],
          "data": "0x0000000000000000000000000000000000000000000000000000000000000060000000000000000000000000000000000000000000000000000000000000284e00000000000000000000000000000000000000000000000000005af3107a40000000000000000000000000000000000000000000000000000000000000000005000000000000000000000000ca14007eff0db1f8135f4c25b34de49ab0d42766000000000000000000000000800480524107eded9b2d87ea835fec2614605ca507c0ada524e79e572c4f705e6c677d2f8881aa78c7d3e312f623a4ad26f1f797000000000000000000000000000000000000000000000000000000746a5288000000000000000000000000000000000000000000000000000000000000000000",
          "blockHash": "0x246c0260851adc038bcc037508852505837986045e7cf572aa8cd32c63dbb41f",
          "blockNumber": "0x6bddcf",
          "transactionHash": "0xba68f252140519f3c56dfd1d421448da3c7bee70075317278c57b83027641340",
          "transactionIndex": "0x5",
          "logIndex": "0xf",
          "removed": false
        },
        {
          "address": "0xcE5485Cfb26914C5dcE00B9BAF0580364daFC7a4",
          "topics": [
            "0x5f971bd00bf3ffbca8a6d72cdd4fd92cfd4f62636161921d1e5a64f0b64ccb6d",
            "0x000000000000000000000000800480524107eded9b2d87ea835fec2614605ca5",
            "0x000000000000000000000000ca14007eff0db1f8135f4c25b34de49ab0d42766",
            "0x07c0ada524e79e572c4f705e6c677d2f8881aa78c7d3e312f623a4ad26f1f797"
          ],
          "data": "0x000000000000000000000000000000000000000000000000000000746a528800000000000000000000000000000000000000000000000000000000000000284e00000000000000000000000000000000000000000000000000005af3107a4000",
          "blockHash": "0x246c0260851adc038bcc037508852505837986045e7cf572aa8cd32c63dbb41f",
          "blockNumber": "0x6bddcf",
          "transactionHash": "0xba68f252140519f3c56dfd1d421448da3c7bee70075317278c57b83027641340",
          "transactionIndex": "0x5",
          "logIndex": "0x10",
          "removed": false
        }
      ],
      "status": "0x1",
      "logsBloom": "0x00000000000000000220000000020000000000000000000000000000000000400000000000002000000000000000000000000000000004000000000000200000000000000000000000000008080000000000000000000040001000000000000000000000100000000000000000100000000000000000000000000014080008002000000000000000000000000400000000000000000200000000020000000010020000400000000000000020000000001000000000000020000000000000000000000002000000024010000000000000000000200000000000800000000000000010000000010000000000020084000000000000001000000000000000000000",
      "type": "0x2",
      "effectiveGasPrice": "0xeb07147a"
    },
    {
      "transactionHash": "0xd48a32397648fd5d9293498137584ce36cb7635ce1a182f9272fd12b5242b30f",
      "transactionIndex": "0x0",
      "blockHash": "0xbad9015ffa392adb532cd055d9df0181bbde913d33e26705d7b53145cf38e253",
      "blockNumber": "0x6bddd0",
      "from": "0xDdb342ecc94236c29a5307d3757d0724D759453C",
      "to": "0xE2Bb56ee936fd6433DC0F6e7e3b8365C906AA057",
      "cumulativeGasUsed": "0xfe32",
      "gasUsed": "0xfe32",
      "contractAddress": null,
      "logs": [
        {
          "address": "0xE2Bb56ee936fd6433DC0F6e7e3b8365C906AA057",
          "topics": [
            "0xdb80dd488acf86d17c747445b0eabb5d57c541d3bd7b6b87af987858e5066b2b",
            "0x000000000000000000000000ddb342ecc94236c29a5307d3757d0724d759453c",
            "0x07c0ada524e79e572c4f705e6c677d2f8881aa78c7d3e312f623a4ad26f1f797",
            "0x00f1149cade9d692862ad41df96b108aa2c20af34f640457e781d166c98dc6b0"
          ],
          "data": "0x0000000000000000000000000000000000000000000000000000000000000060000000000000000000000000000000000000000000000000000000000000284f00000000000000000000000000000000000000000000000000005af3107a400000000000000000000000000000000000000000000000000000000000000000080000000000000000000000000000000000000000000000000000000000000000000000000000000000000000ddb342ecc94236c29a5307d3757d0724d759453c04718f5a0fc34cc1af16a1cdee98ffb20c31f5cd61d6ab07201858f4287c938d053b40a647cedfca6ca84f542a0fe36736031905a9639a7f19a3c1e66bfd5080000000000000000000000000000000000020c49ba5e353f80000000000000000000000000000000000000000000000000000000000000000000000006734bda0000000000000000000000000000000000000000000000000000000006734bde0000000000000000000000000000000000000000000000000000000746a528800",
          "blockHash": "0xbad9015ffa392adb532cd055d9df0181bbde913d33e26705d7b53145cf38e253",
          "blockNumber": "0x6bddd0",
          "transactionHash": "0xd48a32397648fd5d9293498137584ce36cb7635ce1a182f9272fd12b5242b30f",
          "transactionIndex": "0x0",
          "logIndex": "0x0",
          "removed": false
        }
      ],
      "status": "0x1",
      "logsBloom": "0x00400000000000000020000000020000000000000000000000000000000000000000000000002000000000000000000000000000000000000000000000000000000000000000000000000000000000000000000000000040001000000000000400000000100000010000000000000000400000000000000000000000480000000000000000000000000000000000000004000000000000000000000000000010000000000000000000000020000000000000000000000000000000000000000000000000000000000000000000000000000000000000000000000000000000000000000000000000000000000000000000000000000000000000000000000000",
      "type": "0x2",
      "effectiveGasPrice": "0xeb522031"
    }
  ],
  "libraries": [],
  "pending": [],
  "returns": {},
  "timestamp": 1731509719,
  "chain": 11155111,
  "multi": false,
  "commit": "a4bf47e"
}