{
  "transactions": [
    {
      "hash": "0x05a5d42002f15426c948c06b5c9826b1bb5908eeb1dbdf4390dd521958f216ae",
      "transactionType": "CALL",
      "contractName": null,
      "contractAddress": "0xca14007eff0db1f8135f4c25b34de49ab0d42766",
      "function": "approve(address,uint256)",
      "arguments": [
        "0x17ceB8Da41205f1026241766328751884Afa7FE8",
        "115792089237316195423570985008687907853269984665640564039457584007913129639935"
      ],
      "transaction": {
        "from": "0xddb342ecc94236c29a5307d3757d0724d759453c",
        "to": "0xca14007eff0db1f8135f4c25b34de49ab0d42766",
        "gas": "0x93a9",
        "value": "0x0",
        "input": "0x095ea7b300000000000000000000000017ceb8da41205f1026241766328751884afa7fe8ffffffffffffffffffffffffffffffffffffffffffffffffffffffffffffffff",
        "nonce": "0x4da",
        "chainId": "0xaa36a7"
      },
      "additionalContracts": [],
      "isFixedGasLimit": false
    },
    {
      "hash": "0xc516daf8f4c9039a68fdcfbddf16ae93512096922f20770467852a4ea72ef476",
      "transactionType": "CALL",
      "contractName": null,
      "contractAddress": "0x17ceb8da41205f1026241766328751884afa7fe8",
      "function": "initiateWithdrawal(address,address,uint64)",
      "arguments": [
        "0xDdb342ecc94236c29a5307d3757d0724D759453C",
        "0x1c7D4B196Cb0C7B01d743Fbc6116a902379C7238",
        "526"
      ],
      "transaction": {
        "from": "0xddb342ecc94236c29a5307d3757d0724d759453c",
        "to": "0x17ceb8da41205f1026241766328751884afa7fe8",
        "gas": "0x1b4c1",
        "value": "0x1c6bf52634000",
        "input": "0x9b4085f6000000000000000000000000ddb342ecc94236c29a5307d3757d0724d759453c0000000000000000000000001c7d4b196cb0c7b01d743fbc6116a902379c7238000000000000000000000000000000000000000000000000000000000000020e",
        "nonce": "0x4db",
        "chainId": "0xaa36a7"
      },
      "additionalContracts": [],
      "isFixedGasLimit": false
    }
  ],
  "receipts": [
    {
      "status": "0x1",
      "cumulativeGasUsed": "0xd36e0a",
      "logs": [
        {
          "address": "0xca14007eff0db1f8135f4c25b34de49ab0d42766",
          "topics": [
            "0x8c5be1e5ebec7d5bd14f71427d1e84f3dd0314c0f7b2291e5b200ac8c7c3b925",
            "0x000000000000000000000000ddb342ecc94236c29a5307d3757d0724d759453c",
            "0x00000000000000000000000017ceb8da41205f1026241766328751884afa7fe8"
          ],
          "data": "0xffffffffffffffffffffffffffffffffffffffffffffffffffffffffffffffff",
          "blockHash": "0xcc8bb1443e24e235d5ac7e9a3684c14f5b334ed62b8966e7577ed4f52e0ac3dd",
          "blockNumber": "0x72f606",
          "transactionHash": "0x05a5d42002f15426c948c06b5c9826b1bb5908eeb1dbdf4390dd521958f216ae",
          "transactionIndex": "0x66",
          "logIndex": "0xb9",
          "removed": false
        }
      ],
      "logsBloom": "0x00000000000000000000000000000000000000000000000000000000000000000000000000000000000000000800000000000000000000000000000000200000000000000000000000000000000000000000000000000000000000000000000400000000000000000000000000000000400000000000000000000000400000000000000000000000000000000000000000000000000000000000000000000000020000000000000000000000000000000000000000000000000000000000000000000000000000020000000000000000020000000000000000800000000000000010000000400000000000000000000000000000001000000000000000000000",
      "type": "0x2",
      "transactionHash": "0x05a5d42002f15426c948c06b5c9826b1bb5908eeb1dbdf4390dd521958f216ae",
      "transactionIndex": "0x66",
      "blockHash": "0xcc8bb1443e24e235d5ac7e9a3684c14f5b334ed62b8966e7577ed4f52e0ac3dd",
      "blockNumber": "0x72f606",
      "gasUsed": "0x6ae8",
      "effectiveGasPrice": "0x3fe3f7f3",
      "from": "0xddb342ecc94236c29a5307d3757d0724d759453c",
      "to": "0xca14007eff0db1f8135f4c25b34de49ab0d42766",
      "contractAddress": null
    },
    {
      "status": "0x1",
      "cumulativeGasUsed": "0xd498ad",
      "logs": [
        {
          "address": "0xe2bb56ee936fd6433dc0f6e7e3b8365c906aa057",
          "topics": [
            "0xdb80dd488acf86d17c747445b0eabb5d57c541d3bd7b6b87af987858e5066b2b",
            "0x00000000000000000000000017ceb8da41205f1026241766328751884afa7fe8",
            "0x046378ed317e00cb21e538b89b145a2b16633c5ff51dfb3f4486d070b8c345c6",
            "0x00f1149cade9d692862ad41df96b108aa2c20af34f640457e781d166c98dc6b0"
          ],
          "data": "0x00000000000000000000000000000000000000000000000000000000000000600000000000000000000000000000000000000000000000000000000000002c380000000000000000000000000000000000000000000000000001c6bf5263400000000000000000000000000000000000000000000000000000000000000000050000000000000000000000000000000000000000000000000000000000000002000000000000000000000000ddb342ecc94236c29a5307d3757d0724d759453c000000000000000000000000ddb342ecc94236c29a5307d3757d0724d759453c0000000000000000000000001c7d4b196cb0c7b01d743fbc6116a902379c7238000000000000000000000000000000000000000000000000000000000000020e",
          "blockHash": "0xcc8bb1443e24e235d5ac7e9a3684c14f5b334ed62b8966e7577ed4f52e0ac3dd",
          "blockNumber": "0x72f606",
          "transactionHash": "0xc516daf8f4c9039a68fdcfbddf16ae93512096922f20770467852a4ea72ef476",
          "transactionIndex": "0x67",
          "logIndex": "0xba",
          "removed": false
        },
        {
          "address": "0x17ceb8da41205f1026241766328751884afa7fe8",
          "topics": [
            "0x89bd98ae1b8dd4dbaeba50e40ad484414a306be9fb54ec4eecf1a801ca9aeacf",
            "0x000000000000000000000000ddb342ecc94236c29a5307d3757d0724d759453c"
          ],
          "data": "0x000000000000000000000000000000000000000000000000000000000000020e",
          "blockHash": "0xcc8bb1443e24e235d5ac7e9a3684c14f5b334ed62b8966e7577ed4f52e0ac3dd",
          "blockNumber": "0x72f606",
          "transactionHash": "0xc516daf8f4c9039a68fdcfbddf16ae93512096922f20770467852a4ea72ef476",
          "transactionIndex": "0x67",
          "logIndex": "0xbb",
          "removed": false
        }
      ],
      "logsBloom": "0x00400000040000004000000000020000000000000000000000000000000000000000000000000000000000000800000000000000000000000000000000000000000000000000000000000000000000000000000000000040001000000000000410000000100000010000000000000000400000000000000000000000400000000000000000000000000000000000000004000000800000000000000000000010000000000000000000000020000000000000000004000000000000000000002800000002000000000000000000000000020000000000000000000000000000000000000000400000000000002000000000000000000000000000000000000000",
      "type": "0x2",
      "transactionHash": "0xc516daf8f4c9039a68fdcfbddf16ae93512096922f20770467852a4ea72ef476",
      "transactionIndex": "0x67",
      "blockHash": "0xcc8bb1443e24e235d5ac7e9a3684c14f5b334ed62b8966e7577ed4f52e0ac3dd",
      "blockNumber": "0x72f606",
      "gasUsed": "0x12aa3",
      "effectiveGasPrice": "0x3fe3f7f3",
      "from": "0xddb342ecc94236c29a5307d3757d0724d759453c",
      "to": "0x17ceb8da41205f1026241766328751884afa7fe8",
      "contractAddress": null
    }
  ],
  "libraries": [],
  "pending": [],
  "returns": {},
  "timestamp": 1737393241,
  "chain": 11155111,
  "commit": "fcbff6b"
}