{
  "transactions": [
    {
      "hash": "0xe9486e5e158f4a12df1017c315be24eb0d725d4539cf6fcbd21d1e5f4eac305c",
      "transactionType": "CALL",
      "contractName": "StarkNetToken",
      "contractAddress": "0xCa14007Eff0dB1f8135f4C25B34De49AB0d42766",
      "function": "approve(address,uint256)",
      "arguments": [
        "0xab26B1058f9A03E111c2BC17866eA5aF0dD37f0e",
        "115792089237316195423570985008687907853269984665640564039457584007913129639935"
      ],
      "transaction": {
        "type": "0x02",
        "from": "0xddb342ecc94236c29a5307d3757d0724d759453c",
        "to": "0xca14007eff0db1f8135f4c25b34de49ab0d42766",
        "gas": "0x93a9",
        "value": "0x0",
        "data": "0x095ea7b3000000000000000000000000ab26b1058f9a03e111c2bc17866ea5af0dd37f0effffffffffffffffffffffffffffffffffffffffffffffffffffffffffffffff",
        "nonce": "0x234",
        "accessList": []
      },
      "additionalContracts": [],
      "isFixedGasLimit": false
    },
    {
      "hash": "0xd1ffb43d8cf8515531274a8c92587ff03a39aaef99af2808020f3ab800c2607c",
      "transactionType": "CALL",
      "contractName": "L1TWAMMBridge",
      "contractAddress": "0xab26B1058f9A03E111c2BC17866eA5aF0dD37f0e",
      "function": "_sendMessage(uint256,uint256,uint256[])",
      "arguments": [
        "1950369285680605967319277169315996976196054019708971360272429325191653144944",
        "148648911813996339441237705416989480313666662291090082193117818992478592220",
        "[2]"
      ],
      "transaction": {
        "type": "0x02",
        "from": "0xddb342ecc94236c29a5307d3757d0724d759453c",
        "to": "0xab26b1058f9a03e111c2bc17866ea5af0dd37f0e",
        "gas": "0x182bd",
        "value": "0x38d7ea4c68000",
        "data": "0x88f439ef044fdeb1816de942e7afc558c3a4552cac8e50626f43f6bf831710a1abdcb970005421de947699472df434466845d68528f221a52fce7ad2934c5dae2e1f1cdc000000000000000000000000000000000000000000000000000000000000006000000000000000000000000000000000000000000000000000000000000000010000000000000000000000000000000000000000000000000000000000000002",
        "nonce": "0x235",
        "accessList": []
      },
      "additionalContracts": [],
      "isFixedGasLimit": false
    }
  ],
  "receipts": [
    {
      "transactionHash": "0xe9486e5e158f4a12df1017c315be24eb0d725d4539cf6fcbd21d1e5f4eac305c",
      "transactionIndex": "0x3",
      "blockHash": "0x37086a004f80ee38eedd808c15b642e679dde8c96785cdf102fd3423b78f6f75",
      "blockNumber": "0x6b4aab",
      "from": "0xDdb342ecc94236c29a5307d3757d0724D759453C",
      "to": "0xCa14007Eff0dB1f8135f4C25B34De49AB0d42766",
      "cumulativeGasUsed": "0x16100",
      "gasUsed": "0x6ae8",
      "contractAddress": null,
      "logs": [
        {
          "address": "0xCa14007Eff0dB1f8135f4C25B34De49AB0d42766",
          "topics": [
            "0x8c5be1e5ebec7d5bd14f71427d1e84f3dd0314c0f7b2291e5b200ac8c7c3b925",
            "0x000000000000000000000000ddb342ecc94236c29a5307d3757d0724d759453c",
            "0x000000000000000000000000ab26b1058f9a03e111c2bc17866ea5af0dd37f0e"
          ],
          "data": "0xffffffffffffffffffffffffffffffffffffffffffffffffffffffffffffffff",
          "blockHash": "0x37086a004f80ee38eedd808c15b642e679dde8c96785cdf102fd3423b78f6f75",
          "blockNumber": "0x6b4aab",
          "transactionHash": "0xe9486e5e158f4a12df1017c315be24eb0d725d4539cf6fcbd21d1e5f4eac305c",
          "transactionIndex": "0x3",
          "logIndex": "0x0",
          "removed": false
        }
      ],
      "status": "0x1",
      "logsBloom": "0x00000000000000000000000000000000000000000000000000000000000000000000000000000000000000000000000000000000000000000000000000200000000000008000000000000000000000000000000000000000000000000000000400000000000000000000000000000000400000000800000000000000400000000000000000000000000000000000000000000000000000000000000000000000020000000000000000000000000000000000000000000000000000000000000000000000000000020000000000000000000000000000000000800000000000000010000000000000000000000002000000000000001000000000000000000000",
      "type": "0x2",
      "effectiveGasPrice": "0x1c597abc2"
    },
    {
      "transactionHash": "0xd1ffb43d8cf8515531274a8c92587ff03a39aaef99af2808020f3ab800c2607c",
      "transactionIndex": "0x4",
      "blockHash": "0x37086a004f80ee38eedd808c15b642e679dde8c96785cdf102fd3423b78f6f75",
      "blockNumber": "0x6b4aab",
      "from": "0xDdb342ecc94236c29a5307d3757d0724D759453C",
      "to": "0xab26B1058f9A03E111c2BC17866eA5aF0dD37f0e",
      "cumulativeGasUsed": "0x278ff",
      "gasUsed": "0x117ff",
      "contractAddress": null,
      "logs": [
        {
          "address": "0xE2Bb56ee936fd6433DC0F6e7e3b8365C906AA057",
          "topics": [
            "0xdb80dd488acf86d17c747445b0eabb5d57c541d3bd7b6b87af987858e5066b2b",
            "0x000000000000000000000000ab26b1058f9a03e111c2bc17866ea5af0dd37f0e",
            "0x044fdeb1816de942e7afc558c3a4552cac8e50626f43f6bf831710a1abdcb970",
            "0x005421de947699472df434466845d68528f221a52fce7ad2934c5dae2e1f1cdc"
          ],
          "data": "0x0000000000000000000000000000000000000000000000000000000000000060000000000000000000000000000000000000000000000000000000000000278a00000000000000000000000000000000000000000000000000038d7ea4c6800000000000000000000000000000000000000000000000000000000000000000010000000000000000000000000000000000000000000000000000000000000002",
          "blockHash": "0x37086a004f80ee38eedd808c15b642e679dde8c96785cdf102fd3423b78f6f75",
          "blockNumber": "0x6b4aab",
          "transactionHash": "0xd1ffb43d8cf8515531274a8c92587ff03a39aaef99af2808020f3ab800c2607c",
          "transactionIndex": "0x4",
          "logIndex": "0x1",
          "removed": false
        }
      ],
      "status": "0x1",
      "logsBloom": "0x00000000000000000000000000020000000000000000000000000000000001000000000000000000000000001000000000000000000000000000000000000000000000008000000000000000000000000000000000000040001000000000000000000000100000000000000000020000000000000800000000000000000000000000000000000400000040000000000000000000000000000000000000000010000000000000000000000020000000000000000000000000000000000000000000000000000000400000000000000000000000000000000000000000000000000000000000000000000000000002000000000000000000000000000000000000",
      "type": "0x2",
      "effectiveGasPrice": "0x1c597abc2"
    }
  ],
  "libraries": [],
  "pending": [],
  "returns": {},
  "timestamp": 1731001183,
  "chain": 11155111,
  "multi": false,
  "commit": "e344443"
}