{
  "transactions": [
    {
      "hash": "0x28d44ebe4bbe774618583563d3e529852e7105651bf2e2caf8f5dc1399314de1",
      "transactionType": "CALL",
      "contractName": "StarkNetToken",
      "contractAddress": "0xCa14007Eff0dB1f8135f4C25B34De49AB0d42766",
      "function": "approve(address,uint256)",
      "arguments": [
        "0x7eb4C59eABE1234E8A6D02FdF4d1BB595C4702Cd",
        "115792089237316195423570985008687907853269984665640564039457584007913129639935"
      ],
      "transaction": {
        "type": "0x02",
        "from": "0xddb342ecc94236c29a5307d3757d0724d759453c",
        "to": "0xca14007eff0db1f8135f4c25b34de49ab0d42766",
        "gas": "0x93a9",
        "value": "0x0",
        "data": "0x095ea7b30000000000000000000000007eb4c59eabe1234e8a6d02fdf4d1bb595c4702cdffffffffffffffffffffffffffffffffffffffffffffffffffffffffffffffff",
        "nonce": "0x39a",
        "accessList": []
      },
      "additionalContracts": [],
      "isFixedGasLimit": false
    },
    {
      "hash": "0xc026b81529dfec0addfe8bc942d3acbd12c0c027e95d1c36be234ff1068021f4",
      "transactionType": "CALL",
      "contractName": null,
      "contractAddress": "0x7eb4C59eABE1234E8A6D02FdF4d1BB595C4702Cd",
      "function": "setL2EndpointAddress(uint256)",
      "arguments": [
        "2077074972910245189621335464059728964575110875832755872137813659996403293134"
      ],
      "transaction": {
        "type": "0x02",
        "from": "0xddb342ecc94236c29a5307d3757d0724d759453c",
        "to": "0x7eb4c59eabe1234e8a6d02fdf4d1bb595c4702cd",
        "gas": "0xabab",
        "value": "0x0",
        "data": "0x5155fb2f04979530a64a9b49088d61067fca21c6fa47526dcda0b985c981174026145bce",
        "nonce": "0x39b",
        "accessList": []
      },
      "additionalContracts": [],
      "isFixedGasLimit": false
    }
  ],
  "receipts": [
    {
      "transactionHash": "0x28d44ebe4bbe774618583563d3e529852e7105651bf2e2caf8f5dc1399314de1",
      "transactionIndex": "0x12",
      "blockHash": "0xb9fa829937d12ec9da8584c67723f908968c22552ee6b1f27569536253df576d",
      "blockNumber": "0x6dc9c0",
      "from": "0xDdb342ecc94236c29a5307d3757d0724D759453C",
      "to": "0xCa14007Eff0dB1f8135f4C25B34De49AB0d42766",
      "cumulativeGasUsed": "0xd9fd4",
      "gasUsed": "0x6ae8",
      "contractAddress": null,
      "logs": [
        {
          "address": "0xCa14007Eff0dB1f8135f4C25B34De49AB0d42766",
          "topics": [
            "0x8c5be1e5ebec7d5bd14f71427d1e84f3dd0314c0f7b2291e5b200ac8c7c3b925",
            "0x000000000000000000000000ddb342ecc94236c29a5307d3757d0724d759453c",
            "0x0000000000000000000000007eb4c59eabe1234e8a6d02fdf4d1bb595c4702cd"
          ],
          "data": "0xffffffffffffffffffffffffffffffffffffffffffffffffffffffffffffffff",
          "blockHash": "0xb9fa829937d12ec9da8584c67723f908968c22552ee6b1f27569536253df576d",
          "blockNumber": "0x6dc9c0",
          "transactionHash": "0x28d44ebe4bbe774618583563d3e529852e7105651bf2e2caf8f5dc1399314de1",
          "transactionIndex": "0x12",
          "logIndex": "0xd",
          "removed": false
        }
      ],
      "status": "0x1",
      "logsBloom": "0x00000000000000100000000000000000000000000000000000000000000000000000000000000000000000000000000000000000000000000000000000200000000000000000000000000000000000000000000000000000000000000000000400020000000000000000000000000000400000000000000000000000400000000000000000000000000000000000000000000000000000000000000000000000020000000000000000000000000000008000000000000000000000000000000000000000000000020000000000000000000000000000000000800000000000000010000000000000000000000000000000000000001000000000000000000000",
      "type": "0x2",
      "effectiveGasPrice": "0x4bf7e5d57"
    },
    {
      "transactionHash": "0xc026b81529dfec0addfe8bc942d3acbd12c0c027e95d1c36be234ff1068021f4",
      "transactionIndex": "0x13",
      "blockHash": "0xb9fa829937d12ec9da8584c67723f908968c22552ee6b1f27569536253df576d",
      "blockNumber": "0x6dc9c0",
      "from": "0xDdb342ecc94236c29a5307d3757d0724D759453C",
      "to": "0x7eb4C59eABE1234E8A6D02FdF4d1BB595C4702Cd",
      "cumulativeGasUsed": "0xe1536",
      "gasUsed": "0x7562",
      "contractAddress": null,
      "logs": [
        {
          "address": "0x7eb4C59eABE1234E8A6D02FdF4d1BB595C4702Cd",
          "topics": [
            "0xa35dce9e53611b0cabca886209c4a1d09c80214af9b6fb6027f7b2f7c39838e8"
          ],
          "data": "0x04979530a64a9b49088d61067fca21c6fa47526dcda0b985c981174026145bce",
          "blockHash": "0xb9fa829937d12ec9da8584c67723f908968c22552ee6b1f27569536253df576d",
          "blockNumber": "0x6dc9c0",
          "transactionHash": "0xc026b81529dfec0addfe8bc942d3acbd12c0c027e95d1c36be234ff1068021f4",
          "transactionIndex": "0x13",
          "logIndex": "0xe",
          "removed": false
        }
      ],
      "status": "0x1",
      "logsBloom": "0x00000000000000000000000010000000000000000000000000000000000000000000000000000000000000000000000000000000000000200000000000000000000000000000000000000000000200000000000000000000000000000000000000000000000000000000000000000000000000000000000000000001000000000000000000000000000000000000000000000000000000000000000000000000800000000000000000000000000000200000000000000000000000000000000000000000000000000000000000000000000000000000000000000000000000000000000000000000000000000000000000000000000000000000000000000000",
      "type": "0x2",
      "effectiveGasPrice": "0x4bf7e5d57"
    }
  ],
  "libraries": [],
  "pending": [],
  "returns": {},
  "timestamp": 1733130055,
  "chain": 11155111,
  "multi": false,
  "commit": "578600f"
}