{
  "transactions": [
    {
      "hash": "0x70b28679d0f4d578bda86e789d6f625a3ae0f41f253fe8dd5e907495236b8c20",
      "transactionType": "CALL",
      "contractName": null,
      "contractAddress": "0xca14007eff0db1f8135f4c25b34de49ab0d42766",
      "function": "approve(address,uint256)",
      "arguments": [
        "0x21e0b6863F74642fc7764Aa1A394079E388a7b53",
        "115792089237316195423570985008687907853269984665640564039457584007913129639935"
      ],
      "transaction": {
        "from": "0xddb342ecc94236c29a5307d3757d0724d759453c",
        "to": "0xca14007eff0db1f8135f4c25b34de49ab0d42766",
        "gas": "0x93a9",
        "value": "0x0",
        "input": "0x095ea7b300000000000000000000000021e0b6863f74642fc7764aa1a394079e388a7b53ffffffffffffffffffffffffffffffffffffffffffffffffffffffffffffffff",
        "nonce": "0x471",
        "chainId": "0xaa36a7"
      },
      "additionalContracts": [],
      "isFixedGasLimit": false
    },
    {
      "hash": "0x86a231cad02e3da731b04e13c109dc9d00564bce57134268582182589e9a67d0",
      "transactionType": "CALL",
      "contractName": null,
      "contractAddress": "0x21e0b6863f74642fc7764aa1a394079e388a7b53",
      "function": "depositAndCreateOrder((address,uint256,uint256,uint128,uint128,uint128,uint128))",
      "arguments": [
        "(0xDdb342ecc94236c29a5307d3757d0724D759453C, 2009894490435840142178314390393166646092438090257831307886760648929397478285, 2366254414417873771392932940469309727793822550615514268240785277201753657472, 170141183460469235273462165868118016, 1736432128, 1736432256, 700000000000000)"
      ],
      "transaction": {
        "from": "0xddb342ecc94236c29a5307d3757d0724d759453c",
        "to": "0x21e0b6863f74642fc7764aa1a394079e388a7b53",
        "gas": "0x3bbfa",
        "value": "0x1c6bf52634000",
        "input": "0x6c1cc3f4000000000000000000000000ddb342ecc94236c29a5307d3757d0724d759453c04718f5a0fc34cc1af16a1cdee98ffb20c31f5cd61d6ab07201858f4287c938d053b40a647cedfca6ca84f542a0fe36736031905a9639a7f19a3c1e66bfd5080000000000000000000000000000000000020c49ba5e353f8000000000000000000000000000000000000000000000000000000000000000000000000677fda0000000000000000000000000000000000000000000000000000000000677fda8000000000000000000000000000000000000000000000000000027ca57357c000",
        "nonce": "0x472",
        "chainId": "0xaa36a7"
      },
      "additionalContracts": [],
      "isFixedGasLimit": false
    }
  ],
  "receipts": [
    {
      "status": "0x1",
      "cumulativeGasUsed": "0xe24a23",
      "logs": [
        {
          "address": "0xca14007eff0db1f8135f4c25b34de49ab0d42766",
          "topics": [
            "0x8c5be1e5ebec7d5bd14f71427d1e84f3dd0314c0f7b2291e5b200ac8c7c3b925",
            "0x000000000000000000000000ddb342ecc94236c29a5307d3757d0724d759453c",
            "0x00000000000000000000000021e0b6863f74642fc7764aa1a394079e388a7b53"
          ],
          "data": "0xffffffffffffffffffffffffffffffffffffffffffffffffffffffffffffffff",
          "blockHash": "0xa2f47bf9d1a674bbdbd6a3d031753751bedb2725ef5d646a6315b6e9faa15545",
          "blockNumber": "0x71be65",
          "transactionHash": "0x70b28679d0f4d578bda86e789d6f625a3ae0f41f253fe8dd5e907495236b8c20",
          "transactionIndex": "0x5d",
          "logIndex": "0x88",
          "removed": false
        }
      ],
      "logsBloom": "0x00000000000000000000000000000000000000000000000000000000000000000000000000000000000000000000000000200000000000000000000000200000000000000000000000000000000000000000000000000000000000000000000600000000000000000000000000000000400000000000000000000000400000000000000000000000000000000000000000000000000000000000000000000000020000000000000000000000000000000000000000000000000000000000000000000000000000020000000000000000000000000000000000800000000000000010000000000000000000000000000200000000001000000000000000000000",
      "type": "0x2",
      "transactionHash": "0x70b28679d0f4d578bda86e789d6f625a3ae0f41f253fe8dd5e907495236b8c20",
      "transactionIndex": "0x5d",
      "blockHash": "0xa2f47bf9d1a674bbdbd6a3d031753751bedb2725ef5d646a6315b6e9faa15545",
      "blockNumber": "0x71be65",
      "gasUsed": "0x6ae8",
      "effectiveGasPrice": "0xe0fd05eec",
      "from": "0xddb342ecc94236c29a5307d3757d0724d759453c",
      "to": "0xca14007eff0db1f8135f4c25b34de49ab0d42766",
      "contractAddress": null
    },
    {
      "status": "0x1",
      "cumulativeGasUsed": "0xe4fe40",
      "logs": [
        {
          "address": "0xca14007eff0db1f8135f4c25b34de49ab0d42766",
          "topics": [
            "0x8c5be1e5ebec7d5bd14f71427d1e84f3dd0314c0f7b2291e5b200ac8c7c3b925",
            "0x00000000000000000000000021e0b6863f74642fc7764aa1a394079e388a7b53",
            "0x00000000000000000000000021e0b6863f74642fc7764aa1a394079e388a7b53"
          ],
          "data": "0x00000000000000000000000000000000000000000000000000027ca57357c000",
          "blockHash": "0xa2f47bf9d1a674bbdbd6a3d031753751bedb2725ef5d646a6315b6e9faa15545",
          "blockNumber": "0x71be65",
          "transactionHash": "0x86a231cad02e3da731b04e13c109dc9d00564bce57134268582182589e9a67d0",
          "transactionIndex": "0x5e",
          "logIndex": "0x89",
          "removed": false
        },
        {
          "address": "0xca14007eff0db1f8135f4c25b34de49ab0d42766",
          "topics": [
            "0xddf252ad1be2c89b69c2b068fc378daa952ba7f163c4a11628f55a4df523b3ef",
            "0x000000000000000000000000ddb342ecc94236c29a5307d3757d0724d759453c",
            "0x00000000000000000000000021e0b6863f74642fc7764aa1a394079e388a7b53"
          ],
          "data": "0x00000000000000000000000000000000000000000000000000027ca57357c000",
          "blockHash": "0xa2f47bf9d1a674bbdbd6a3d031753751bedb2725ef5d646a6315b6e9faa15545",
          "blockNumber": "0x71be65",
          "transactionHash": "0x86a231cad02e3da731b04e13c109dc9d00564bce57134268582182589e9a67d0",
          "transactionIndex": "0x5e",
          "logIndex": "0x8a",
          "removed": false
        },
        {
          "address": "0xca14007eff0db1f8135f4c25b34de49ab0d42766",
          "topics": [
            "0x8c5be1e5ebec7d5bd14f71427d1e84f3dd0314c0f7b2291e5b200ac8c7c3b925",
            "0x00000000000000000000000021e0b6863f74642fc7764aa1a394079e388a7b53",
            "0x000000000000000000000000ce5485cfb26914c5dce00b9baf0580364dafc7a4"
          ],
          "data": "0x00000000000000000000000000000000000000000000000000027ca57357c000",
          "blockHash": "0xa2f47bf9d1a674bbdbd6a3d031753751bedb2725ef5d646a6315b6e9faa15545",
          "blockNumber": "0x71be65",
          "transactionHash": "0x86a231cad02e3da731b04e13c109dc9d00564bce57134268582182589e9a67d0",
          "transactionIndex": "0x5e",
          "logIndex": "0x8b",
          "removed": false
        },
        {
          "address": "0xca14007eff0db1f8135f4c25b34de49ab0d42766",
          "topics": [
            "0x8c5be1e5ebec7d5bd14f71427d1e84f3dd0314c0f7b2291e5b200ac8c7c3b925",
            "0x00000000000000000000000021e0b6863f74642fc7764aa1a394079e388a7b53",
            "0x000000000000000000000000ce5485cfb26914c5dce00b9baf0580364dafc7a4"
          ],
          "data": "0x0000000000000000000000000000000000000000000000000000000000000000",
          "blockHash": "0xa2f47bf9d1a674bbdbd6a3d031753751bedb2725ef5d646a6315b6e9faa15545",
          "blockNumber": "0x71be65",
          "transactionHash": "0x86a231cad02e3da731b04e13c109dc9d00564bce57134268582182589e9a67d0",
          "transactionIndex": "0x5e",
          "logIndex": "0x8c",
          "removed": false
        },
        {
          "address": "0xca14007eff0db1f8135f4c25b34de49ab0d42766",
          "topics": [
            "0xddf252ad1be2c89b69c2b068fc378daa952ba7f163c4a11628f55a4df523b3ef",
            "0x00000000000000000000000021e0b6863f74642fc7764aa1a394079e388a7b53",
            "0x000000000000000000000000ce5485cfb26914c5dce00b9baf0580364dafc7a4"
          ],
          "data": "0x00000000000000000000000000000000000000000000000000027ca57357c000",
          "blockHash": "0xa2f47bf9d1a674bbdbd6a3d031753751bedb2725ef5d646a6315b6e9faa15545",
          "blockNumber": "0x71be65",
          "transactionHash": "0x86a231cad02e3da731b04e13c109dc9d00564bce57134268582182589e9a67d0",
          "transactionIndex": "0x5e",
          "logIndex": "0x8d",
          "removed": false
        },
        {
          "address": "0xe2bb56ee936fd6433dc0f6e7e3b8365c906aa057",
          "topics": [
            "0xdb80dd488acf86d17c747445b0eabb5d57c541d3bd7b6b87af987858e5066b2b",
            "0x000000000000000000000000ce5485cfb26914c5dce00b9baf0580364dafc7a4",
            "0x0594c1582459ea03f77deaf9eb7e3917d6994a03c13405ba42867f83d85f085d",
            "0x008bce41827dd5484d80312a2e43bc42a896e3fcf75bf84c2b49339168dfa00a"
          ],
          "data": "0x00000000000000000000000000000000000000000000000000000000000000600000000000000000000000000000000000000000000000000000000000002b660000000000000000000000000000000000000000000000000001c6bf52634000000000000000000000000000000000000000000000000000000000000000000e000000000000000000000000ca14007eff0db1f8135f4c25b34de49ab0d4276600000000000000000000000021e0b6863f74642fc7764aa1a394079e388a7b5300af6ada98856c64bd418b6a948c36ee31f2676876a4c02abe4a66372b64034600000000000000000000000000000000000000000000000000027ca57357c000000000000000000000000000000000000000000000000000000000000000000000000000000000000000000000000000000000000000000000000000000000080000000000000000000000000000000000000000000000000000000000000000000000000000000000000000ddb342ecc94236c29a5307d3757d0724d759453c04718f5a0fc34cc1af16a1cdee98ffb20c31f5cd61d6ab07201858f4287c938d053b40a647cedfca6ca84f542a0fe36736031905a9639a7f19a3c1e66bfd5080000000000000000000000000000000000020c49ba5e353f8000000000000000000000000000000000000000000000000000000000000000000000000677fda0000000000000000000000000000000000000000000000000000000000677fda8000000000000000000000000000000000000000000000000000027ca57357c000",
          "blockHash": "0xa2f47bf9d1a674bbdbd6a3d031753751bedb2725ef5d646a6315b6e9faa15545",
          "blockNumber": "0x71be65",
          "transactionHash": "0x86a231cad02e3da731b04e13c109dc9d00564bce57134268582182589e9a67d0",
          "transactionIndex": "0x5e",
          "logIndex": "0x8e",
          "removed": false
        },
        {
          "address": "0xce5485cfb26914c5dce00b9baf0580364dafc7a4",
          "topics": [
            "0x2203a49c69f1a46c1164f5e4a30643dd77b7c59c0ff9bc433256048365c247f1",
            "0x00000000000000000000000021e0b6863f74642fc7764aa1a394079e388a7b53",
            "0x000000000000000000000000ca14007eff0db1f8135f4c25b34de49ab0d42766",
            "0x00af6ada98856c64bd418b6a948c36ee31f2676876a4c02abe4a66372b640346"
          ],
          "data": "0x00000000000000000000000000000000000000000000000000027ca57357c00000000000000000000000000000000000000000000000000000000000000000800000000000000000000000000000000000000000000000000000000000002b660000000000000000000000000000000000000000000000000001c6bf5263400000000000000000000000000000000000000000000000000000000000000000080000000000000000000000000000000000000000000000000000000000000000000000000000000000000000ddb342ecc94236c29a5307d3757d0724d759453c04718f5a0fc34cc1af16a1cdee98ffb20c31f5cd61d6ab07201858f4287c938d053b40a647cedfca6ca84f542a0fe36736031905a9639a7f19a3c1e66bfd5080000000000000000000000000000000000020c49ba5e353f8000000000000000000000000000000000000000000000000000000000000000000000000677fda0000000000000000000000000000000000000000000000000000000000677fda8000000000000000000000000000000000000000000000000000027ca57357c000",
          "blockHash": "0xa2f47bf9d1a674bbdbd6a3d031753751bedb2725ef5d646a6315b6e9faa15545",
          "blockNumber": "0x71be65",
          "transactionHash": "0x86a231cad02e3da731b04e13c109dc9d00564bce57134268582182589e9a67d0",
          "transactionIndex": "0x5e",
          "logIndex": "0x8f",
          "removed": false
        },
        {
          "address": "0x21e0b6863f74642fc7764aa1a394079e388a7b53",
          "topics": [
            "0xaf43445f7721522b7a3864ed3de53d7e2e658bfa1eeffa18e1e229be68ce2545",
            "0x000000000000000000000000ddb342ecc94236c29a5307d3757d0724d759453c",
            "0x00af6ada98856c64bd418b6a948c36ee31f2676876a4c02abe4a66372b640346"
          ],
          "data": "0x00000000000000000000000000000000000000000000000000027ca57357c0000000000000000000000000000000000000000000000000000000000000000001",
          "blockHash": "0xa2f47bf9d1a674bbdbd6a3d031753751bedb2725ef5d646a6315b6e9faa15545",
          "blockNumber": "0x71be65",
          "transactionHash": "0x86a231cad02e3da731b04e13c109dc9d00564bce57134268582182589e9a67d0",
          "transactionIndex": "0x5e",
          "logIndex": "0x90",
          "removed": false
        }
      ],
      "logsBloom": "0x00000200100000000000000000020000000000000000000000008040000000000000000000000000000000000000000000200000000004000000020000200000000000000040000000000008080000000000000000000040001000004000000600000000100000000000000000000000400000000000008000000010400008002000000000000000000000020000000000008000000200000000000000000010020000800000001000000020000000021000000000000000000000000000000000800002000000024010000000000000000000200000000000800000000000000010000000010000000000020004000200000000001000000000000000000000",
      "type": "0x2",
      "transactionHash": "0x86a231cad02e3da731b04e13c109dc9d00564bce57134268582182589e9a67d0",
      "transactionIndex": "0x5e",
      "blockHash": "0xa2f47bf9d1a674bbdbd6a3d031753751bedb2725ef5d646a6315b6e9faa15545",
      "blockNumber": "0x71be65",
      "gasUsed": "0x2b41d",
      "effectiveGasPrice": "0xe0fd05eec",
      "from": "0xddb342ecc94236c29a5307d3757d0724d759453c",
      "to": "0x21e0b6863f74642fc7764aa1a394079e388a7b53",
      "contractAddress": null
    }
  ],
  "libraries": [],
  "pending": [],
  "returns": {},
  "timestamp": 1736432171,
  "chain": 11155111,
  "commit": "6a172c2"
}