{
  "transactions": [
    {
      "hash": "0x12e4dd9e9621f8c4a531b0f82b3d7a951d9a57d277044a516aa6f2dbb57dabc9",
      "transactionType": "CALL",
      "contractName": "StarkNetToken",
      "contractAddress": "0xCa14007Eff0dB1f8135f4C25B34De49AB0d42766",
      "function": "approve(address,uint256)",
      "arguments": [
        "0x7256eDF31b165EA502cd3718726dD0aa6f543b12",
        "115792089237316195423570985008687907853269984665640564039457584007913129639935"
      ],
      "transaction": {
        "type": "0x02",
        "from": "0xddb342ecc94236c29a5307d3757d0724d759453c",
        "to": "0xca14007eff0db1f8135f4c25b34de49ab0d42766",
        "gas": "0x93a9",
        "value": "0x0",
        "data": "0x095ea7b30000000000000000000000007256edf31b165ea502cd3718726dd0aa6f543b12ffffffffffffffffffffffffffffffffffffffffffffffffffffffffffffffff",
        "nonce": "0x3ca",
        "accessList": []
      },
      "additionalContracts": [],
      "isFixedGasLimit": false
    },
    {
      "hash": "0xda07b5d397f8fac85eba744af1e3abb213cef241c877d5433909fb14ff8a6f51",
      "transactionType": "CALL",
      "contractName": null,
      "contractAddress": "0x7256eDF31b165EA502cd3718726dD0aa6f543b12",
      "function": "initiateWithdrawal(uint256,address)",
      "arguments": [
        "500000000000000",
        "0x1c7D4B196Cb0C7B01d743Fbc6116a902379C7238"
      ],
      "transaction": {
        "type": "0x02",
        "from": "0xddb342ecc94236c29a5307d3757d0724d759453c",
        "to": "0x7256edf31b165ea502cd3718726dd0aa6f543b12",
        "gas": "0x1b98b",
        "value": "0x1c6bf52634000",
        "data": "0x544381270000000000000000000000000000000000000000000000000001c6bf526340000000000000000000000000001c7d4b196cb0c7b01d743fbc6116a902379c7238",
        "nonce": "0x3cb",
        "accessList": []
      },
      "additionalContracts": [],
      "isFixedGasLimit": false
    }
  ],
  "receipts": [],
  "libraries": [],
  "pending": [
    "0x12e4dd9e9621f8c4a531b0f82b3d7a951d9a57d277044a516aa6f2dbb57dabc9",
    "0xda07b5d397f8fac85eba744af1e3abb213cef241c877d5433909fb14ff8a6f51"
  ],
  "returns": {},
  "timestamp": 1733412405,
  "chain": 11155111,
  "multi": false,
  "commit": "0c80a24"
}