{
  "transactions": [
    {
      "hash": "0xcfca4db59575c4d73b189dbfb148d0fc10e61ca979a180c5286060f26b3cf65e",
      "transactionType": "CALL",
      "contractName": "FiatTokenProxy",
      "contractAddress": "0x1c7D4B196Cb0C7B01d743Fbc6116a902379C7238",
      "function": "approve(address,uint256)",
      "arguments": [
        "0xE0935B99d1a713588Ec545dbeDd41BbE03Ac7c12",
        "115792089237316195423570985008687907853269984665640564039457584007913129639935"
      ],
      "transaction": {
        "type": "0x02",
        "from": "0xddb342ecc94236c29a5307d3757d0724d759453c",
        "to": "0x1c7d4b196cb0c7b01d743fbc6116a902379c7238",
        "gas": "0x13eb1",
        "value": "0x0",
        "data": "0x095ea7b3000000000000000000000000e0935b99d1a713588ec545dbedd41bbe03ac7c12ffffffffffffffffffffffffffffffffffffffffffffffffffffffffffffffff",
        "nonce": "0x1ca",
        "accessList": []
      },
      "additionalContracts": [],
      "isFixedGasLimit": false
    },
    {
      "hash": "0xc2de09a73189d126e487df4873c7ddd265cd2a49e9135eb0aee29503e3316808",
      "transactionType": "CALL",
      "contractName": "FiatTokenProxy",
      "contractAddress": "0x1c7D4B196Cb0C7B01d743Fbc6116a902379C7238",
      "function": "transfer(address,uint256)",
      "arguments": [
        "0xE0935B99d1a713588Ec545dbeDd41BbE03Ac7c12",
        "500000"
      ],
      "transaction": {
        "type": "0x02",
        "from": "0xddb342ecc94236c29a5307d3757d0724d759453c",
        "to": "0x1c7d4b196cb0c7b01d743fbc6116a902379c7238",
        "gas": "0x14f5f",
        "value": "0x0",
        "data": "0xa9059cbb000000000000000000000000e0935b99d1a713588ec545dbedd41bbe03ac7c12000000000000000000000000000000000000000000000000000000000007a120",
        "nonce": "0x1cb",
        "accessList": []
      },
      "additionalContracts": [],
      "isFixedGasLimit": false
    },
    {
      "hash": "0x728cc4298d48a61e73c5a09702ff1819b425658b401a48428ea873740ae08311",
      "transactionType": "CALL",
      "contractName": "L1TWAMMBridge",
      "contractAddress": "0xE0935B99d1a713588Ec545dbeDd41BbE03Ac7c12",
      "function": "deposit(uint256,uint256)",
      "arguments": [
        "500000",
        "2962709860935816857512909953167996124532029233098644282835224648946722238470"
      ],
      "transaction": {
        "type": "0x02",
        "from": "0xddb342ecc94236c29a5307d3757d0724d759453c",
        "to": "0xe0935b99d1a713588ec545dbedd41bbe03ac7c12",
        "gas": "0x2ede0",
        "value": "0x2386f26fc10000",
        "data": "0xe2bbb158000000000000000000000000000000000000000000000000000000000007a120068cd598638bf0af505600ab43b7c8eee178a4dee2280d9800eacfa927f77006",
        "nonce": "0x1cc",
        "accessList": []
      },
      "additionalContracts": [],
      "isFixedGasLimit": false
    }
  ],
  "receipts": [],
  "libraries": [],
  "pending": [
    "0xcfca4db59575c4d73b189dbfb148d0fc10e61ca979a180c5286060f26b3cf65e",
    "0xc2de09a73189d126e487df4873c7ddd265cd2a49e9135eb0aee29503e3316808",
    "0x728cc4298d48a61e73c5a09702ff1819b425658b401a48428ea873740ae08311"
  ],
  "returns": {},
  "timestamp": 1730887464,
  "chain": 11155111,
  "multi": false,
  "commit": "9e60aff"
}