{
  "transactions": [
    {
      "hash": "0xb1ec9eddefff42bc3c994f0b26de0dd869f01a17d961286c3346cde9dd99c201",
      "transactionType": "CALL",
      "contractName": "StarkNetToken",
      "contractAddress": "0xCa14007Eff0dB1f8135f4C25B34De49AB0d42766",
      "function": "approve(address,uint256)",
      "arguments": [
        "0x450eED8bf009a64AD3F2f0a953E35e38100b93FB",
        "115792089237316195423570985008687907853269984665640564039457584007913129639935"
      ],
      "transaction": {
        "type": "0x02",
        "from": "0xddb342ecc94236c29a5307d3757d0724d759453c",
        "to": "0xca14007eff0db1f8135f4c25b34de49ab0d42766",
        "gas": "0xff08",
        "value": "0x0",
        "data": "0x095ea7b3000000000000000000000000450eed8bf009a64ad3f2f0a953e35e38100b93fbffffffffffffffffffffffffffffffffffffffffffffffffffffffffffffffff",
        "nonce": "0x2c2",
        "accessList": []
      },
      "additionalContracts": [],
      "isFixedGasLimit": false
    },
    {
      "hash": "0xf5f70581d50363d248d0f9c03478db4f3f79a114d852d73af130bbdd3af2084a",
      "transactionType": "CALL",
      "contractName": "StarkNetToken",
      "contractAddress": "0xCa14007Eff0dB1f8135f4C25B34De49AB0d42766",
      "function": "transfer(address,uint256)",
      "arguments": [
        "0x450eED8bf009a64AD3F2f0a953E35e38100b93FB",
        "500000000000"
      ],
      "transaction": {
        "type": "0x02",
        "from": "0xddb342ecc94236c29a5307d3757d0724d759453c",
        "to": "0xca14007eff0db1f8135f4c25b34de49ab0d42766",
        "gas": "0x1339c",
        "value": "0x0",
        "data": "0xa9059cbb000000000000000000000000450eed8bf009a64ad3f2f0a953e35e38100b93fb000000000000000000000000000000000000000000000000000000746a528800",
        "nonce": "0x2c3",
        "accessList": []
      },
      "additionalContracts": [],
      "isFixedGasLimit": false
    },
    {
      "hash": "0x072b80c5e8092eb1ef3a6f886607ab622235e022a5b174331b9f7dd71e5e267a",
      "transactionType": "CALL",
      "contractName": "L1TWAMMBridge",
      "contractAddress": "0x450eED8bf009a64AD3F2f0a953E35e38100b93FB",
      "function": "deposit(uint256,uint256)",
      "arguments": [
        "500000000000",
        "3117531291322932174770525195364711944787082330642693319882321808621721800224"
      ],
      "transaction": {
        "type": "0x02",
        "from": "0xddb342ecc94236c29a5307d3757d0724d759453c",
        "to": "0x450eed8bf009a64ad3f2f0a953e35e38100b93fb",
        "gas": "0x30231",
        "value": "0x5af3107a4000",
        "data": "0xe2bbb158000000000000000000000000000000000000000000000000000000746a52880006e475ce68486e1177a16ed9c8d22477b6fae34c3dc5c46015b02f20cc4ace20",
        "nonce": "0x2c4",
        "accessList": []
      },
      "additionalContracts": [],
      "isFixedGasLimit": false
    },
    {
      "hash": "0x24724925a9a4e49f0011d6b7dcd6abb4c99f09e377f1465dbbbc565f30c63aef",
      "transactionType": "CALL",
      "contractName": "Proxy",
      "contractAddress": "0xE2Bb56ee936fd6433DC0F6e7e3b8365C906AA057",
      "function": "sendMessageToL2(uint256,uint256,uint256[])",
      "arguments": [
        "3117531291322932174770525195364711944787082330642693319882321808621721800224",
        "425952401605428413817582304755919420533935873840436977667370850915372091056",
        "[0, 1265684623727634235329190328445374361672779121980, 2009894490435840142178314390393166646092438090257831307886760648929397478285, 2366254414417873771392932940469309727793822550615514268240785277201753657472, 170141183460469235273462165868118016, 1731437184, 1731437248, 500000000000]"
      ],
      "transaction": {
        "type": "0x02",
        "from": "0xddb342ecc94236c29a5307d3757d0724d759453c",
        "to": "0xe2bb56ee936fd6433dc0f6e7e3b8365c906aa057",
        "gas": "0x173c2",
        "value": "0x5af3107a4000",
        "data": "0x3e3aa6c506e475ce68486e1177a16ed9c8d22477b6fae34c3dc5c46015b02f20cc4ace2000f1149cade9d692862ad41df96b108aa2c20af34f640457e781d166c98dc6b0000000000000000000000000000000000000000000000000000000000000006000000000000000000000000000000000000000000000000000000000000000080000000000000000000000000000000000000000000000000000000000000000000000000000000000000000ddb342ecc94236c29a5307d3757d0724d759453c04718f5a0fc34cc1af16a1cdee98ffb20c31f5cd61d6ab07201858f4287c938d053b40a647cedfca6ca84f542a0fe36736031905a9639a7f19a3c1e66bfd5080000000000000000000000000000000000020c49ba5e353f80000000000000000000000000000000000000000000000000000000000000000000000006733a280000000000000000000000000000000000000000000000000000000006733a2c0000000000000000000000000000000000000000000000000000000746a528800",
        "nonce": "0x2c5",
        "accessList": []
      },
      "additionalContracts": [],
      "isFixedGasLimit": false
    }
  ],
  "receipts": [],
  "libraries": [],
  "pending": [
    "0xb1ec9eddefff42bc3c994f0b26de0dd869f01a17d961286c3346cde9dd99c201",
    "0xf5f70581d50363d248d0f9c03478db4f3f79a114d852d73af130bbdd3af2084a",
    "0x072b80c5e8092eb1ef3a6f886607ab622235e022a5b174331b9f7dd71e5e267a",
    "0x24724925a9a4e49f0011d6b7dcd6abb4c99f09e377f1465dbbbc565f30c63aef"
  ],
  "returns": {},
  "timestamp": 1731437229,
  "chain": 11155111,
  "multi": false,
  "commit": "39f9f49"
}