{
  "transactions": [
    {
      "hash": "0xe675d4a3fefac5ccbf50f80ddffc91551a1ba943852801e85eaaffd33a98ced8",
      "transactionType": "CALL",
      "contractName": "StarkNetToken",
      "contractAddress": "0xCa14007Eff0dB1f8135f4C25B34De49AB0d42766",
      "function": "approve(address,uint256)",
      "arguments": [
        "0xb4F545EfEEa78f9C97C681cD70c6a6dd72fbEFee",
        "115792089237316195423570985008687907853269984665640564039457584007913129639935"
      ],
      "transaction": {
        "type": "0x02",
        "from": "0xddb342ecc94236c29a5307d3757d0724d759453c",
        "to": "0xca14007eff0db1f8135f4c25b34de49ab0d42766",
        "gas": "0xff08",
        "value": "0x0",
        "data": "0x095ea7b3000000000000000000000000b4f545efeea78f9c97c681cd70c6a6dd72fbefeeffffffffffffffffffffffffffffffffffffffffffffffffffffffffffffffff",
        "nonce": "0x267",
        "accessList": []
      },
      "additionalContracts": [],
      "isFixedGasLimit": false
    },
    {
      "hash": "0x1d405b929665b56829d5a8bd37ac8d8d45246b7f20f1d1d8a9c16270be616f4b",
      "transactionType": "CALL",
      "contractName": "L1TWAMMBridge",
      "contractAddress": "0xb4F545EfEEa78f9C97C681cD70c6a6dd72fbEFee",
      "function": "depositAndCreateOrder((address,uint256,uint256,uint128,uint128,uint128,uint128,uint256))",
      "arguments": [
        "(0xDdb342ecc94236c29a5307d3757d0724D759453C, 2009894490435840142178314390393166646092438090257831307886760648929397478285, 2366254414417873771392932940469309727793822550615514268240785277201753657472, 0, 1731122752, 1731122816, 500000, 1754425528998404332833579752982178953523781828291666396770948545224656187989)"
      ],
      "transaction": {
        "type": "0x02",
        "from": "0xddb342ecc94236c29a5307d3757d0724d759453c",
        "to": "0xb4f545efeea78f9c97c681cd70c6a6dd72fbefee",
        "gas": "0x446c9",
        "value": "0x5af3107a4000",
        "data": "0x5ce510fa000000000000000000000000ddb342ecc94236c29a5307d3757d0724d759453c04718f5a0fc34cc1af16a1cdee98ffb20c31f5cd61d6ab07201858f4287c938d053b40a647cedfca6ca84f542a0fe36736031905a9639a7f19a3c1e66bfd5080000000000000000000000000000000000000000000000000000000000000000000000000000000000000000000000000000000000000000000000000672ed64000000000000000000000000000000000000000000000000000000000672ed680000000000000000000000000000000000000000000000000000000000007a12003e0f83ba17eac9112e452a72493e4abc71f4e749fa376278e16a6169d4e7255",
        "nonce": "0x268",
        "accessList": []
      },
      "additionalContracts": [],
      "isFixedGasLimit": false
    }
  ],
  "receipts": [
    {
      "transactionHash": "0xe675d4a3fefac5ccbf50f80ddffc91551a1ba943852801e85eaaffd33a98ced8",
      "transactionIndex": "0x0",
      "blockHash": "0xeee222e495cb8d3700d763eaeca219794eac70bdc0928e2fe9a1d1d7143c2646",
      "blockNumber": "0x6b6c98",
      "from": "0xDdb342ecc94236c29a5307d3757d0724D759453C",
      "to": "0xCa14007Eff0dB1f8135f4C25B34De49AB0d42766",
      "cumulativeGasUsed": "0xb8a4",
      "gasUsed": "0xb8a4",
      "contractAddress": null,
      "logs": [
        {
          "address": "0xCa14007Eff0dB1f8135f4C25B34De49AB0d42766",
          "topics": [
            "0x8c5be1e5ebec7d5bd14f71427d1e84f3dd0314c0f7b2291e5b200ac8c7c3b925",
            "0x000000000000000000000000ddb342ecc94236c29a5307d3757d0724d759453c",
            "0x000000000000000000000000b4f545efeea78f9c97c681cd70c6a6dd72fbefee"
          ],
          "data": "0xffffffffffffffffffffffffffffffffffffffffffffffffffffffffffffffff",
          "blockHash": "0xeee222e495cb8d3700d763eaeca219794eac70bdc0928e2fe9a1d1d7143c2646",
          "blockNumber": "0x6b6c98",
          "transactionHash": "0xe675d4a3fefac5ccbf50f80ddffc91551a1ba943852801e85eaaffd33a98ced8",
          "transactionIndex": "0x0",
          "logIndex": "0x0",
          "removed": false
        }
      ],
      "status": "0x1",
      "logsBloom": "0x00000000000000000000040000000000000000000000000000000000000000000000000000000000000000000000000000000000000000000000000000200000000000000000000000000000000000000000000000000000000000000000000400000000000000000000000000000000400000000000000000000000400000000000000000000000000000002000000000000000000000000000000000000000020000000000000000000000000000000000000000000000000000000000000000000000000000020000000000000000000000000000000000810000000000000010000000000000000000000000000000000000001000000000000000000000",
      "type": "0x2",
      "effectiveGasPrice": "0x157e3ebcb"
    },
    {
      "transactionHash": "0x1d405b929665b56829d5a8bd37ac8d8d45246b7f20f1d1d8a9c16270be616f4b",
      "transactionIndex": "0x1",
      "blockHash": "0xeee222e495cb8d3700d763eaeca219794eac70bdc0928e2fe9a1d1d7143c2646",
      "blockNumber": "0x6b6c98",
      "from": "0xDdb342ecc94236c29a5307d3757d0724D759453C",
      "to": "0xb4F545EfEEa78f9C97C681cD70c6a6dd72fbEFee",
      "cumulativeGasUsed": "0x3cd33",
      "gasUsed": "0x3148f",
      "contractAddress": null,
      "logs": [
        {
          "address": "0xCa14007Eff0dB1f8135f4C25B34De49AB0d42766",
          "topics": [
            "0xddf252ad1be2c89b69c2b068fc378daa952ba7f163c4a11628f55a4df523b3ef",
            "0x000000000000000000000000ddb342ecc94236c29a5307d3757d0724d759453c",
            "0x000000000000000000000000b4f545efeea78f9c97c681cd70c6a6dd72fbefee"
          ],
          "data": "0x000000000000000000000000000000000000000000000000000000000007a120",
          "blockHash": "0xeee222e495cb8d3700d763eaeca219794eac70bdc0928e2fe9a1d1d7143c2646",
          "blockNumber": "0x6b6c98",
          "transactionHash": "0x1d405b929665b56829d5a8bd37ac8d8d45246b7f20f1d1d8a9c16270be616f4b",
          "transactionIndex": "0x1",
          "logIndex": "0x1",
          "removed": false
        },
        {
          "address": "0xCa14007Eff0dB1f8135f4C25B34De49AB0d42766",
          "topics": [
            "0x8c5be1e5ebec7d5bd14f71427d1e84f3dd0314c0f7b2291e5b200ac8c7c3b925",
            "0x000000000000000000000000b4f545efeea78f9c97c681cd70c6a6dd72fbefee",
            "0x000000000000000000000000ce5485cfb26914c5dce00b9baf0580364dafc7a4"
          ],
          "data": "0x0000000000000000000000000000000000000000000000000000000000000000",
          "blockHash": "0xeee222e495cb8d3700d763eaeca219794eac70bdc0928e2fe9a1d1d7143c2646",
          "blockNumber": "0x6b6c98",
          "transactionHash": "0x1d405b929665b56829d5a8bd37ac8d8d45246b7f20f1d1d8a9c16270be616f4b",
          "transactionIndex": "0x1",
          "logIndex": "0x2",
          "removed": false
        },
        {
          "address": "0xCa14007Eff0dB1f8135f4C25B34De49AB0d42766",
          "topics": [
            "0x8c5be1e5ebec7d5bd14f71427d1e84f3dd0314c0f7b2291e5b200ac8c7c3b925",
            "0x000000000000000000000000b4f545efeea78f9c97c681cd70c6a6dd72fbefee",
            "0x000000000000000000000000ce5485cfb26914c5dce00b9baf0580364dafc7a4"
          ],
          "data": "0x000000000000000000000000000000000000000000000000000000000007a120",
          "blockHash": "0xeee222e495cb8d3700d763eaeca219794eac70bdc0928e2fe9a1d1d7143c2646",
          "blockNumber": "0x6b6c98",
          "transactionHash": "0x1d405b929665b56829d5a8bd37ac8d8d45246b7f20f1d1d8a9c16270be616f4b",
          "transactionIndex": "0x1",
          "logIndex": "0x3",
          "removed": false
        },
        {
          "address": "0xCa14007Eff0dB1f8135f4C25B34De49AB0d42766",
          "topics": [
            "0x8c5be1e5ebec7d5bd14f71427d1e84f3dd0314c0f7b2291e5b200ac8c7c3b925",
            "0x000000000000000000000000b4f545efeea78f9c97c681cd70c6a6dd72fbefee",
            "0x000000000000000000000000ce5485cfb26914c5dce00b9baf0580364dafc7a4"
          ],
          "data": "0x0000000000000000000000000000000000000000000000000000000000000000",
          "blockHash": "0xeee222e495cb8d3700d763eaeca219794eac70bdc0928e2fe9a1d1d7143c2646",
          "blockNumber": "0x6b6c98",
          "transactionHash": "0x1d405b929665b56829d5a8bd37ac8d8d45246b7f20f1d1d8a9c16270be616f4b",
          "transactionIndex": "0x1",
          "logIndex": "0x4",
          "removed": false
        },
        {
          "address": "0xCa14007Eff0dB1f8135f4C25B34De49AB0d42766",
          "topics": [
            "0xddf252ad1be2c89b69c2b068fc378daa952ba7f163c4a11628f55a4df523b3ef",
            "0x000000000000000000000000b4f545efeea78f9c97c681cd70c6a6dd72fbefee",
            "0x000000000000000000000000ce5485cfb26914c5dce00b9baf0580364dafc7a4"
          ],
          "data": "0x000000000000000000000000000000000000000000000000000000000007a120",
          "blockHash": "0xeee222e495cb8d3700d763eaeca219794eac70bdc0928e2fe9a1d1d7143c2646",
          "blockNumber": "0x6b6c98",
          "transactionHash": "0x1d405b929665b56829d5a8bd37ac8d8d45246b7f20f1d1d8a9c16270be616f4b",
          "transactionIndex": "0x1",
          "logIndex": "0x5",
          "removed": false
        },
        {
          "address": "0xE2Bb56ee936fd6433DC0F6e7e3b8365C906AA057",
          "topics": [
            "0xdb80dd488acf86d17c747445b0eabb5d57c541d3bd7b6b87af987858e5066b2b",
            "0x000000000000000000000000ce5485cfb26914c5dce00b9baf0580364dafc7a4",
            "0x0594c1582459ea03f77deaf9eb7e3917d6994a03c13405ba42867f83d85f085d",
            "0x01b64b1b3b690b43b9b514fb81377518f4039cd3e4f4914d8a6bdf01d679fb19"
          ],
          "data": "0x000000000000000000000000000000000000000000000000000000000000006000000000000000000000000000000000000000000000000000000000000027b100000000000000000000000000000000000000000000000000002d79883d20000000000000000000000000000000000000000000000000000000000000000005000000000000000000000000ca14007eff0db1f8135f4c25b34de49ab0d42766000000000000000000000000b4f545efeea78f9c97c681cd70c6a6dd72fbefee03e0f83ba17eac9112e452a72493e4abc71f4e749fa376278e16a6169d4e7255000000000000000000000000000000000000000000000000000000000007a1200000000000000000000000000000000000000000000000000000000000000000",
          "blockHash": "0xeee222e495cb8d3700d763eaeca219794eac70bdc0928e2fe9a1d1d7143c2646",
          "blockNumber": "0x6b6c98",
          "transactionHash": "0x1d405b929665b56829d5a8bd37ac8d8d45246b7f20f1d1d8a9c16270be616f4b",
          "transactionIndex": "0x1",
          "logIndex": "0x6",
          "removed": false
        },
        {
          "address": "0xcE5485Cfb26914C5dcE00B9BAF0580364daFC7a4",
          "topics": [
            "0x5f971bd00bf3ffbca8a6d72cdd4fd92cfd4f62636161921d1e5a64f0b64ccb6d",
            "0x000000000000000000000000b4f545efeea78f9c97c681cd70c6a6dd72fbefee",
            "0x000000000000000000000000ca14007eff0db1f8135f4c25b34de49ab0d42766",
            "0x03e0f83ba17eac9112e452a72493e4abc71f4e749fa376278e16a6169d4e7255"
          ],
          "data": "0x000000000000000000000000000000000000000000000000000000000007a12000000000000000000000000000000000000000000000000000000000000027b100000000000000000000000000000000000000000000000000002d79883d2000",
          "blockHash": "0xeee222e495cb8d3700d763eaeca219794eac70bdc0928e2fe9a1d1d7143c2646",
          "blockNumber": "0x6b6c98",
          "transactionHash": "0x1d405b929665b56829d5a8bd37ac8d8d45246b7f20f1d1d8a9c16270be616f4b",
          "transactionIndex": "0x1",
          "logIndex": "0x7",
          "removed": false
        },
        {
          "address": "0xE2Bb56ee936fd6433DC0F6e7e3b8365C906AA057",
          "topics": [
            "0xdb80dd488acf86d17c747445b0eabb5d57c541d3bd7b6b87af987858e5066b2b",
            "0x000000000000000000000000b4f545efeea78f9c97c681cd70c6a6dd72fbefee",
            "0x03e0f83ba17eac9112e452a72493e4abc71f4e749fa376278e16a6169d4e7255",
            "0x00f1149cade9d692862ad41df96b108aa2c20af34f640457e781d166c98dc6b0"
          ],
          "data": "0x000000000000000000000000000000000000000000000000000000000000006000000000000000000000000000000000000000000000000000000000000027b200000000000000000000000000000000000000000000000000002d79883d200000000000000000000000000000000000000000000000000000000000000000080000000000000000000000000000000000000000000000000000000000000000000000000000000000000000ddb342ecc94236c29a5307d3757d0724d759453c04718f5a0fc34cc1af16a1cdee98ffb20c31f5cd61d6ab07201858f4287c938d053b40a647cedfca6ca84f542a0fe36736031905a9639a7f19a3c1e66bfd5080000000000000000000000000000000000000000000000000000000000000000000000000000000000000000000000000000000000000000000000000672ed64000000000000000000000000000000000000000000000000000000000672ed680000000000000000000000000000000000000000000000000000000000007a120",
          "blockHash": "0xeee222e495cb8d3700d763eaeca219794eac70bdc0928e2fe9a1d1d7143c2646",
          "blockNumber": "0x6b6c98",
          "transactionHash": "0x1d405b929665b56829d5a8bd37ac8d8d45246b7f20f1d1d8a9c16270be616f4b",
          "transactionIndex": "0x1",
          "logIndex": "0x8",
          "removed": false
        },
        {
          "address": "0xb4F545EfEEa78f9C97C681cD70c6a6dd72fbEFee",
          "topics": [
            "0xaf43445f7721522b7a3864ed3de53d7e2e658bfa1eeffa18e1e229be68ce2545",
            "0x000000000000000000000000ddb342ecc94236c29a5307d3757d0724d759453c",
            "0x03e0f83ba17eac9112e452a72493e4abc71f4e749fa376278e16a6169d4e7255"
          ],
          "data": "0x000000000000000000000000000000000000000000000000000000000007a1200000000000000000000000000000000000000000000000000000000000000001",
          "blockHash": "0xeee222e495cb8d3700d763eaeca219794eac70bdc0928e2fe9a1d1d7143c2646",
          "blockNumber": "0x6b6c98",
          "transactionHash": "0x1d405b929665b56829d5a8bd37ac8d8d45246b7f20f1d1d8a9c16270be616f4b",
          "transactionIndex": "0x1",
          "logIndex": "0x9",
          "removed": false
        }
      ],
      "status": "0x1",
      "logsBloom": "0x20400200000000000200040000020000000000000000000000000000000000400000000000000000000000000000000000000000000004000000000000200000000020000000000000100008080000000000000000000040001000000000000600000000100000010000000000000000400000800000000000000010400008002000001000000000000000002400000004000000000200000000020000000010020000800000000000000020000000001000000000000020000000000000000000000002000000024010000000000000000000202000000000810000000000000010000000010000000000020084000000000000001000000000000000000000",
      "type": "0x2",
      "effectiveGasPrice": "0x157e3ebcb"
    }
  ],
  "libraries": [],
  "pending": [],
  "returns": {},
  "timestamp": 1731122811,
  "chain": 11155111,
  "multi": false,
  "commit": "75c82f5"
}