{
  "transactions": [
    {
      "hash": "0xebde8ba9b02254db568e4fe881c939b769525fffba51b8af9f1a44ae807afad1",
      "transactionType": "CALL",
      "contractName": "StarkNetToken",
      "contractAddress": "0xCa14007Eff0dB1f8135f4C25B34De49AB0d42766",
      "function": "approve(address,uint256)",
      "arguments": [
        "0xe5B8F72aA01A6ff64d9918269C9Ab83296dFAfF6",
        "115792089237316195423570985008687907853269984665640564039457584007913129639935"
      ],
      "transaction": {
        "type": "0x02",
        "from": "0xddb342ecc94236c29a5307d3757d0724d759453c",
        "to": "0xca14007eff0db1f8135f4c25b34de49ab0d42766",
        "gas": "0xff08",
        "value": "0x0",
        "data": "0x095ea7b3000000000000000000000000e5b8f72aa01a6ff64d9918269c9ab83296dfaff6ffffffffffffffffffffffffffffffffffffffffffffffffffffffffffffffff",
        "nonce": "0x2bd",
        "accessList": []
      },
      "additionalContracts": [],
      "isFixedGasLimit": false
    },
    {
      "hash": "0x42c57a08825ea3c0694385c83d9c376a02d4e1268ef978d9ea5a27a9e0185e26",
      "transactionType": "CALL",
      "contractName": "StarkNetToken",
      "contractAddress": "0xCa14007Eff0dB1f8135f4C25B34De49AB0d42766",
      "function": "transfer(address,uint256)",
      "arguments": [
        "0xe5B8F72aA01A6ff64d9918269C9Ab83296dFAfF6",
        "500000000000"
      ],
      "transaction": {
        "type": "0x02",
        "from": "0xddb342ecc94236c29a5307d3757d0724d759453c",
        "to": "0xca14007eff0db1f8135f4c25b34de49ab0d42766",
        "gas": "0x1339c",
        "value": "0x0",
        "data": "0xa9059cbb000000000000000000000000e5b8f72aa01a6ff64d9918269c9ab83296dfaff6000000000000000000000000000000000000000000000000000000746a528800",
        "nonce": "0x2be",
        "accessList": []
      },
      "additionalContracts": [],
      "isFixedGasLimit": false
    },
    {
      "hash": "0x5c39fa8afdd78292134d63ca00819ae8e277ae4d75c8b7f644cd843cd927cb0e",
      "transactionType": "CALL",
      "contractName": "L1TWAMMBridge",
      "contractAddress": "0xe5B8F72aA01A6ff64d9918269C9Ab83296dFAfF6",
      "function": "deposit(uint256,uint256)",
      "arguments": [
        "500000000000",
        "3242390005465865893332244748113192919068573953410991991501800973163201750965"
      ],
      "transaction": {
        "type": "0x02",
        "from": "0xddb342ecc94236c29a5307d3757d0724d759453c",
        "to": "0xe5b8f72aa01a6ff64d9918269c9ab83296dfaff6",
        "gas": "0x2d757",
        "value": "0x5af3107a4000",
        "data": "0xe2bbb158000000000000000000000000000000000000000000000000000000746a528800072b20b183135b6c0d42ef242d923a29fcf9c88ae609d90e49c565009656e7b5",
        "nonce": "0x2bf",
        "accessList": []
      },
      "additionalContracts": [],
      "isFixedGasLimit": false
    },
    {
      "hash": "0xe8ae54885a20deffec0b65c6210199b745ef4169e4fe4172c0812420eaf3b6c6",
      "transactionType": "CALL",
      "contractName": "Proxy",
      "contractAddress": "0xE2Bb56ee936fd6433DC0F6e7e3b8365C906AA057",
      "function": "sendMessageToL2(uint256,uint256,uint256[])",
      "arguments": [
        "3242390005465865893332244748113192919068573953410991991501800973163201750965",
        "425952401605428413817582304755919420533935873840436977667370850915372091056",
        "[0, 1265684623727634235329190328445374361672779121980, 2009894490435840142178314390393166646092438090257831307886760648929397478285, 2366254414417873771392932940469309727793822550615514268240785277201753657472, 170141183460469235273462165868118016, 1731435696, 1731435760, 500000000000]"
      ],
      "transaction": {
        "type": "0x02",
        "from": "0xddb342ecc94236c29a5307d3757d0724d759453c",
        "to": "0xe2bb56ee936fd6433dc0f6e7e3b8365c906aa057",
        "gas": "0x15f0a",
        "value": "0x5af3107a4000",
        "data": "0x3e3aa6c5072b20b183135b6c0d42ef242d923a29fcf9c88ae609d90e49c565009656e7b500f1149cade9d692862ad41df96b108aa2c20af34f640457e781d166c98dc6b0000000000000000000000000000000000000000000000000000000000000006000000000000000000000000000000000000000000000000000000000000000080000000000000000000000000000000000000000000000000000000000000000000000000000000000000000ddb342ecc94236c29a5307d3757d0724d759453c04718f5a0fc34cc1af16a1cdee98ffb20c31f5cd61d6ab07201858f4287c938d053b40a647cedfca6ca84f542a0fe36736031905a9639a7f19a3c1e66bfd5080000000000000000000000000000000000020c49ba5e353f800000000000000000000000000000000000000000000000000000000000000000000000067339cb00000000000000000000000000000000000000000000000000000000067339cf0000000000000000000000000000000000000000000000000000000746a528800",
        "nonce": "0x2c0",
        "accessList": []
      },
      "additionalContracts": [],
      "isFixedGasLimit": false
    }
  ],
  "receipts": [
    {
      "transactionHash": "0xebde8ba9b02254db568e4fe881c939b769525fffba51b8af9f1a44ae807afad1",
      "transactionIndex": "0x5",
      "blockHash": "0xceebecce90bb92d3751230d86cf203984f43f11a23a503017c92ee39050aea80",
      "blockNumber": "0x6bc70c",
      "from": "0xDdb342ecc94236c29a5307d3757d0724D759453C",
      "to": "0xCa14007Eff0dB1f8135f4C25B34De49AB0d42766",
      "cumulativeGasUsed": "0x64fb0",
      "gasUsed": "0xb8a4",
      "contractAddress": null,
      "logs": [
        {
          "address": "0xCa14007Eff0dB1f8135f4C25B34De49AB0d42766",
          "topics": [
            "0x8c5be1e5ebec7d5bd14f71427d1e84f3dd0314c0f7b2291e5b200ac8c7c3b925",
            "0x000000000000000000000000ddb342ecc94236c29a5307d3757d0724d759453c",
            "0x000000000000000000000000e5b8f72aa01a6ff64d9918269c9ab83296dfaff6"
          ],
          "data": "0xffffffffffffffffffffffffffffffffffffffffffffffffffffffffffffffff",
          "blockHash": "0xceebecce90bb92d3751230d86cf203984f43f11a23a503017c92ee39050aea80",
          "blockNumber": "0x6bc70c",
          "transactionHash": "0xebde8ba9b02254db568e4fe881c939b769525fffba51b8af9f1a44ae807afad1",
          "transactionIndex": "0x5",
          "logIndex": "0x8",
          "removed": false
        }
      ],
      "status": "0x1",
      "logsBloom": "0x00000000000000000000000000000000000000000000000000000000000000000000000000000000000000000000000000000000000000000000000000200000000000000000000000000000000000000000000000000000000000000000000400000000000000000000000000000010400000000000000400000000400000000000000000000000000000000800000000000000000000000000000000000000020000000000000000000000000000000000000000000000000000000000000000000000000000020000000000000000000000000000000000800000000000000010000000000000000000000000000000000000001000000000000000000000",
      "type": "0x2",
      "effectiveGasPrice": "0x1ba7b4eee"
    },
    {
      "transactionHash": "0x42c57a08825ea3c0694385c83d9c376a02d4e1268ef978d9ea5a27a9e0185e26",
      "transactionIndex": "0x6",
      "blockHash": "0xceebecce90bb92d3751230d86cf203984f43f11a23a503017c92ee39050aea80",
      "blockNumber": "0x6bc70c",
      "from": "0xDdb342ecc94236c29a5307d3757d0724D759453C",
      "to": "0xCa14007Eff0dB1f8135f4C25B34De49AB0d42766",
      "cumulativeGasUsed": "0x72e65",
      "gasUsed": "0xdeb5",
      "contractAddress": null,
      "logs": [
        {
          "address": "0xCa14007Eff0dB1f8135f4C25B34De49AB0d42766",
          "topics": [
            "0xddf252ad1be2c89b69c2b068fc378daa952ba7f163c4a11628f55a4df523b3ef",
            "0x000000000000000000000000ddb342ecc94236c29a5307d3757d0724d759453c",
            "0x000000000000000000000000e5b8f72aa01a6ff64d9918269c9ab83296dfaff6"
          ],
          "data": "0x000000000000000000000000000000000000000000000000000000746a528800",
          "blockHash": "0xceebecce90bb92d3751230d86cf203984f43f11a23a503017c92ee39050aea80",
          "blockNumber": "0x6bc70c",
          "transactionHash": "0x42c57a08825ea3c0694385c83d9c376a02d4e1268ef978d9ea5a27a9e0185e26",
          "transactionIndex": "0x6",
          "logIndex": "0x9",
          "removed": false
        }
      ],
      "status": "0x1",
      "logsBloom": "0x00000000000000000000000000000000000000000000000000000000000000000000000000000000000000000000000000000000000000000000000000000000000000000000000000000008000000000000000000000000000000000000000400000000000000000000000000000010400000000000000400000010400000000000000000000000000000000800000000000000000000000000000000000000000000000000000000000000000000000000000000000000000000000000000000000002000000020000000000000000000000000000000000800000000000000000000000000000000000000000000000000000001000000000000000000000",
      "type": "0x2",
      "effectiveGasPrice": "0x1ba7b4eee"
    },
    {
      "transactionHash": "0x5c39fa8afdd78292134d63ca00819ae8e277ae4d75c8b7f644cd843cd927cb0e",
      "transactionIndex": "0x7",
      "blockHash": "0xceebecce90bb92d3751230d86cf203984f43f11a23a503017c92ee39050aea80",
      "blockNumber": "0x6bc70c",
      "from": "0xDdb342ecc94236c29a5307d3757d0724D759453C",
      "to": "0xe5B8F72aA01A6ff64d9918269C9Ab83296dFAfF6",
      "cumulativeGasUsed": "0x93cfa",
      "gasUsed": "0x20e95",
      "contractAddress": null,
      "logs": [
        {
          "address": "0xCa14007Eff0dB1f8135f4C25B34De49AB0d42766",
          "topics": [
            "0x8c5be1e5ebec7d5bd14f71427d1e84f3dd0314c0f7b2291e5b200ac8c7c3b925",
            "0x000000000000000000000000e5b8f72aa01a6ff64d9918269c9ab83296dfaff6",
            "0x000000000000000000000000ce5485cfb26914c5dce00b9baf0580364dafc7a4"
          ],
          "data": "0x000000000000000000000000000000000000000000000000000000746a528800",
          "blockHash": "0xceebecce90bb92d3751230d86cf203984f43f11a23a503017c92ee39050aea80",
          "blockNumber": "0x6bc70c",
          "transactionHash": "0x5c39fa8afdd78292134d63ca00819ae8e277ae4d75c8b7f644cd843cd927cb0e",
          "transactionIndex": "0x7",
          "logIndex": "0xa",
          "removed": false
        },
        {
          "address": "0xCa14007Eff0dB1f8135f4C25B34De49AB0d42766",
          "topics": [
            "0x8c5be1e5ebec7d5bd14f71427d1e84f3dd0314c0f7b2291e5b200ac8c7c3b925",
            "0x000000000000000000000000e5b8f72aa01a6ff64d9918269c9ab83296dfaff6",
            "0x000000000000000000000000ce5485cfb26914c5dce00b9baf0580364dafc7a4"
          ],
          "data": "0x0000000000000000000000000000000000000000000000000000000000000000",
          "blockHash": "0xceebecce90bb92d3751230d86cf203984f43f11a23a503017c92ee39050aea80",
          "blockNumber": "0x6bc70c",
          "transactionHash": "0x5c39fa8afdd78292134d63ca00819ae8e277ae4d75c8b7f644cd843cd927cb0e",
          "transactionIndex": "0x7",
          "logIndex": "0xb",
          "removed": false
        },
        {
          "address": "0xCa14007Eff0dB1f8135f4C25B34De49AB0d42766",
          "topics": [
            "0xddf252ad1be2c89b69c2b068fc378daa952ba7f163c4a11628f55a4df523b3ef",
            "0x000000000000000000000000e5b8f72aa01a6ff64d9918269c9ab83296dfaff6",
            "0x000000000000000000000000ce5485cfb26914c5dce00b9baf0580364dafc7a4"
          ],
          "data": "0x000000000000000000000000000000000000000000000000000000746a528800",
          "blockHash": "0xceebecce90bb92d3751230d86cf203984f43f11a23a503017c92ee39050aea80",
          "blockNumber": "0x6bc70c",
          "transactionHash": "0x5c39fa8afdd78292134d63ca00819ae8e277ae4d75c8b7f644cd843cd927cb0e",
          "transactionIndex": "0x7",
          "logIndex": "0xc",
          "removed": false
        },
        {
          "address": "0xE2Bb56ee936fd6433DC0F6e7e3b8365C906AA057",
          "topics": [
            "0xdb80dd488acf86d17c747445b0eabb5d57c541d3bd7b6b87af987858e5066b2b",
            "0x000000000000000000000000ce5485cfb26914c5dce00b9baf0580364dafc7a4",
            "0x0594c1582459ea03f77deaf9eb7e3917d6994a03c13405ba42867f83d85f085d",
            "0x01b64b1b3b690b43b9b514fb81377518f4039cd3e4f4914d8a6bdf01d679fb19"
          ],
          "data": "0x0000000000000000000000000000000000000000000000000000000000000060000000000000000000000000000000000000000000000000000000000000283400000000000000000000000000000000000000000000000000005af3107a40000000000000000000000000000000000000000000000000000000000000000005000000000000000000000000ca14007eff0db1f8135f4c25b34de49ab0d42766000000000000000000000000e5b8f72aa01a6ff64d9918269c9ab83296dfaff6072b20b183135b6c0d42ef242d923a29fcf9c88ae609d90e49c565009656e7b5000000000000000000000000000000000000000000000000000000746a5288000000000000000000000000000000000000000000000000000000000000000000",
          "blockHash": "0xceebecce90bb92d3751230d86cf203984f43f11a23a503017c92ee39050aea80",
          "blockNumber": "0x6bc70c",
          "transactionHash": "0x5c39fa8afdd78292134d63ca00819ae8e277ae4d75c8b7f644cd843cd927cb0e",
          "transactionIndex": "0x7",
          "logIndex": "0xd",
          "removed": false
        },
        {
          "address": "0xcE5485Cfb26914C5dcE00B9BAF0580364daFC7a4",
          "topics": [
            "0x5f971bd00bf3ffbca8a6d72cdd4fd92cfd4f62636161921d1e5a64f0b64ccb6d",
            "0x000000000000000000000000e5b8f72aa01a6ff64d9918269c9ab83296dfaff6",
            "0x000000000000000000000000ca14007eff0db1f8135f4c25b34de49ab0d42766",
            "0x072b20b183135b6c0d42ef242d923a29fcf9c88ae609d90e49c565009656e7b5"
          ],
          "data": "0x000000000000000000000000000000000000000000000000000000746a528800000000000000000000000000000000000000000000000000000000000000283400000000000000000000000000000000000000000000000000005af3107a4000",
          "blockHash": "0xceebecce90bb92d3751230d86cf203984f43f11a23a503017c92ee39050aea80",
          "blockNumber": "0x6bc70c",
          "transactionHash": "0x5c39fa8afdd78292134d63ca00819ae8e277ae4d75c8b7f644cd843cd927cb0e",
          "transactionIndex": "0x7",
          "logIndex": "0xe",
          "removed": false
        }
      ],
      "status": "0x1",
      "logsBloom": "0x00000000000000000200000000020000000000000000000000000000000000400000000000000000000000000000000000000000000004000000000000200000000000000000000000000008080000000000000000000040001000000000000000000000100000000000000000000010000000000000000400000010000008002000000000000000000000000c00000000000000000200000000020000000010020000000000000000000020000000001000000000400020000000000000000000000002000000024010000000000000000000200000000000800000000000000010000000010000000000020084001002000000001000000000000000000000",
      "type": "0x2",
      "effectiveGasPrice": "0x1ba7b4eee"
    },
    {
      "transactionHash": "0xe8ae54885a20deffec0b65c6210199b745ef4169e4fe4172c0812420eaf3b6c6",
      "transactionIndex": "0x8",
      "blockHash": "0xceebecce90bb92d3751230d86cf203984f43f11a23a503017c92ee39050aea80",
      "blockNumber": "0x6bc70c",
      "from": "0xDdb342ecc94236c29a5307d3757d0724D759453C",
      "to": "0xE2Bb56ee936fd6433DC0F6e7e3b8365C906AA057",
      "cumulativeGasUsed": "0xa3b20",
      "gasUsed": "0xfe26",
      "contractAddress": null,
      "logs": [
        {
          "address": "0xE2Bb56ee936fd6433DC0F6e7e3b8365C906AA057",
          "topics": [
            "0xdb80dd488acf86d17c747445b0eabb5d57c541d3bd7b6b87af987858e5066b2b",
            "0x000000000000000000000000ddb342ecc94236c29a5307d3757d0724d759453c",
            "0x072b20b183135b6c0d42ef242d923a29fcf9c88ae609d90e49c565009656e7b5",
            "0x00f1149cade9d692862ad41df96b108aa2c20af34f640457e781d166c98dc6b0"
          ],
          "data": "0x0000000000000000000000000000000000000000000000000000000000000060000000000000000000000000000000000000000000000000000000000000283500000000000000000000000000000000000000000000000000005af3107a400000000000000000000000000000000000000000000000000000000000000000080000000000000000000000000000000000000000000000000000000000000000000000000000000000000000ddb342ecc94236c29a5307d3757d0724d759453c04718f5a0fc34cc1af16a1cdee98ffb20c31f5cd61d6ab07201858f4287c938d053b40a647cedfca6ca84f542a0fe36736031905a9639a7f19a3c1e66bfd5080000000000000000000000000000000000020c49ba5e353f800000000000000000000000000000000000000000000000000000000000000000000000067339cb00000000000000000000000000000000000000000000000000000000067339cf0000000000000000000000000000000000000000000000000000000746a528800",
          "blockHash": "0xceebecce90bb92d3751230d86cf203984f43f11a23a503017c92ee39050aea80",
          "blockNumber": "0x6bc70c",
          "transactionHash": "0xe8ae54885a20deffec0b65c6210199b745ef4169e4fe4172c0812420eaf3b6c6",
          "transactionIndex": "0x8",
          "logIndex": "0xf",
          "removed": false
        }
      ],
      "status": "0x1",
      "logsBloom": "0x00400000000000000000000000020000000000000000000000000000000000000000000000000000000000000000000000000000000000000000000000000000000000000000000000000000000000000000000000000040001000000000000400000000100000010000000000000000400000000000000000000000400000000000000000000000000000000000000004000000000000000000000000000010000000000000000000000020000000000000000000400000000000000000000000000000000000000000000000000000000000000000000000000000000000000000000000000000000000000000001002000000000000000000000000000000",
      "type": "0x2",
      "effectiveGasPrice": "0x1ba7b4eee"
    }
  ],
  "libraries": [],
  "pending": [],
  "returns": {},
  "timestamp": 1731435735,
  "chain": 11155111,
  "multi": false,
  "commit": "39f9f49"
}