{
  "transactions": [
    {
      "hash": "0xccdec2bede130d9f1af0643e19077795dc54c209ffbcabe658b58a39a097da29",
      "transactionType": "CALL",
      "contractName": null,
      "contractAddress": "0xca14007eff0db1f8135f4c25b34de49ab0d42766",
      "function": "approve(address,uint256)",
      "arguments": [
        "0x4b220A6B4f695db8CEdC121ACFC2484fCaaB8b45",
        "115792089237316195423570985008687907853269984665640564039457584007913129639935"
      ],
      "transaction": {
        "from": "0x1b382a7b4496f14e0aaa2da1e1626da400426a03",
        "to": "0xca14007eff0db1f8135f4c25b34de49ab0d42766",
        "gas": "0x93a9",
        "value": "0x0",
        "input": "0x095ea7b30000000000000000000000004b220a6b4f695db8cedc121acfc2484fcaab8b45ffffffffffffffffffffffffffffffffffffffffffffffffffffffffffffffff",
        "nonce": "0x104",
        "chainId": "0xaa36a7"
      },
      "additionalContracts": [],
      "isFixedGasLimit": false
    },
    {
      "hash": "0xa941cdbbaccdbf8a93b703c44aea2da2fa81c667e14041b95c22f7bd66f59b70",
      "transactionType": "CALL",
      "contractName": null,
      "contractAddress": "0x4b220a6b4f695db8cedc121acfc2484fcaab8b45",
      "function": "_sendMessage(uint256,uint256,uint256[])",
      "arguments": [
        "3367814274186954602442889852831281490309191636973557138916013017206680205515",
        "148648911813996339441237705416989480313666662291090082193117818992478592220",
        "[2]"
      ],
      "transaction": {
        "from": "0x1b382a7b4496f14e0aaa2da1e1626da400426a03",
        "to": "0x4b220a6b4f695db8cedc121acfc2484fcaab8b45",
        "gas": "0x182bd",
        "value": "0x38d7ea4c68000",
        "input": "0x88f439ef07721d8633add90ecf6bffe9dcd71b0ce5cc5436923b9d90b56c20d3a53438cb005421de947699472df434466845d68528f221a52fce7ad2934c5dae2e1f1cdc000000000000000000000000000000000000000000000000000000000000006000000000000000000000000000000000000000000000000000000000000000010000000000000000000000000000000000000000000000000000000000000002",
        "nonce": "0x105",
        "chainId": "0xaa36a7"
      },
      "additionalContracts": [],
      "isFixedGasLimit": false
    }
  ],
  "receipts": [
    {
      "status": "0x1",
      "cumulativeGasUsed": "0x1c40fa0",
      "logs": [
        {
          "address": "0xca14007eff0db1f8135f4c25b34de49ab0d42766",
          "topics": [
            "0x8c5be1e5ebec7d5bd14f71427d1e84f3dd0314c0f7b2291e5b200ac8c7c3b925",
            "0x0000000000000000000000001b382a7b4496f14e0aaa2da1e1626da400426a03",
            "0x0000000000000000000000004b220a6b4f695db8cedc121acfc2484fcaab8b45"
          ],
          "data": "0xffffffffffffffffffffffffffffffffffffffffffffffffffffffffffffffff",
          "blockHash": "0x697c861b344db6aa54db481bc086ff09a2899b0e8dcc8c9589ff1a9346fb5fb3",
          "blockNumber": "0x6b4c57",
          "transactionHash": "0xccdec2bede130d9f1af0643e19077795dc54c209ffbcabe658b58a39a097da29",
          "transactionIndex": "0x55",
          "logIndex": "0x3f",
          "removed": false
        }
      ],
      "logsBloom": "0x00000000000000000000000000000000000000000000000000000000000000000000000000000000000000000000000000000000000000000000000000200000000000000000000000000000000000000000000000000000000000000000000000000000000000000000000000000000000400000010000020000000000000040000000000000000000000000000000000000000000000000000000000000000020000000000000000000000000000000000000000000000000000000000000000000000400040020000000000000000000000000000000000800000000000000010000000000000000000000000000000000000001000000000000000000000",
      "type": "0x2",
      "transactionHash": "0xccdec2bede130d9f1af0643e19077795dc54c209ffbcabe658b58a39a097da29",
      "transactionIndex": "0x55",
      "blockHash": "0x697c861b344db6aa54db481bc086ff09a2899b0e8dcc8c9589ff1a9346fb5fb3",
      "blockNumber": "0x6b4c57",
      "gasUsed": "0x6ae8",
      "effectiveGasPrice": "0xd749565c",
      "blobGasUsed": "0x0",
      "from": "0x1b382a7b4496f14e0aaa2da1e1626da400426a03",
      "to": "0xca14007eff0db1f8135f4c25b34de49ab0d42766",
      "contractAddress": null
    },
    {
      "status": "0x1",
      "cumulativeGasUsed": "0x1c5279f",
      "logs": [
        {
          "address": "0xe2bb56ee936fd6433dc0f6e7e3b8365c906aa057",
          "topics": [
            "0xdb80dd488acf86d17c747445b0eabb5d57c541d3bd7b6b87af987858e5066b2b",
            "0x0000000000000000000000004b220a6b4f695db8cedc121acfc2484fcaab8b45",
            "0x07721d8633add90ecf6bffe9dcd71b0ce5cc5436923b9d90b56c20d3a53438cb",
            "0x005421de947699472df434466845d68528f221a52fce7ad2934c5dae2e1f1cdc"
          ],
          "data": "0x0000000000000000000000000000000000000000000000000000000000000060000000000000000000000000000000000000000000000000000000000000279500000000000000000000000000000000000000000000000000038d7ea4c6800000000000000000000000000000000000000000000000000000000000000000010000000000000000000000000000000000000000000000000000000000000002",
          "blockHash": "0x697c861b344db6aa54db481bc086ff09a2899b0e8dcc8c9589ff1a9346fb5fb3",
          "blockNumber": "0x6b4c57",
          "transactionHash": "0xa941cdbbaccdbf8a93b703c44aea2da2fa81c667e14041b95c22f7bd66f59b70",
          "transactionIndex": "0x56",
          "logIndex": "0x40",
          "removed": false
        }
      ],
      "logsBloom": "0x00000000000000000000000000020000000000000000000000000000000001000000000000000000000000000000000000000000000000000000000000000000000000000000000000000000000000000000000000000040001000000000000000000000100000000000000000020000000400000000000000000000000000000000000000000200000040000000000000000000000000000000000000000010000000000000000000000020000000000000000000000000000000000000000000004000400040000000000000000000000000000000000000000000000000000000000008000000000000000000000000000000000000000000000000000000",
      "type": "0x2",
      "transactionHash": "0xa941cdbbaccdbf8a93b703c44aea2da2fa81c667e14041b95c22f7bd66f59b70",
      "transactionIndex": "0x56",
      "blockHash": "0x697c861b344db6aa54db481bc086ff09a2899b0e8dcc8c9589ff1a9346fb5fb3",
      "blockNumber": "0x6b4c57",
      "gasUsed": "0x117ff",
      "effectiveGasPrice": "0xd749565c",
      "blobGasUsed": "0x0",
      "from": "0x1b382a7b4496f14e0aaa2da1e1626da400426a03",
      "to": "0x4b220a6b4f695db8cedc121acfc2484fcaab8b45",
      "contractAddress": null
    }
  ],
  "libraries": [],
  "pending": [],
  "returns": {},
  "timestamp": 1731007008,
  "chain": 11155111,
  "commit": "7c9bc56"
}