{
  "transactions": [
    {
      "hash": "0x0d49960e43460b8a23970b614699ada2c4e12fe2c56c2e2c1b27fd8aaaa1499a",
      "transactionType": "CALL",
      "contractName": null,
      "contractAddress": "0xca14007eff0db1f8135f4c25b34de49ab0d42766",
      "function": "approve(address,uint256)",
      "arguments": [
        "0x17ceB8Da41205f1026241766328751884Afa7FE8",
        "115792089237316195423570985008687907853269984665640564039457584007913129639935"
      ],
      "transaction": {
        "from": "0xddb342ecc94236c29a5307d3757d0724d759453c",
        "to": "0xca14007eff0db1f8135f4c25b34de49ab0d42766",
        "gas": "0x93a9",
        "value": "0x0",
        "input": "0x095ea7b300000000000000000000000017ceb8da41205f1026241766328751884afa7fe8ffffffffffffffffffffffffffffffffffffffffffffffffffffffffffffffff",
        "nonce": "0x4e4",
        "chainId": "0xaa36a7"
      },
      "additionalContracts": [],
      "isFixedGasLimit": false
    },
    {
      "hash": "0x20e20af442812dd6763366bdc8a1b9d0c213705419b25fec4bedecfff44cd0a0",
      "transactionType": "CALL",
      "contractName": null,
      "contractAddress": "0x17ceb8da41205f1026241766328751884afa7fe8",
      "function": "setL2EndpointAddress(uint256)",
      "arguments": [
        "3603286522628348846287448082418031106768078204170716810180907894571395917633"
      ],
      "transaction": {
        "from": "0xddb342ecc94236c29a5307d3757d0724d759453c",
        "to": "0x17ceb8da41205f1026241766328751884afa7fe8",
        "gas": "0xabb8",
        "value": "0x0",
        "input": "0x5155fb2f07f7634d530030231a04892601d83bbc79defee8145d116d18fc4978e21f2741",
        "nonce": "0x4e5",
        "chainId": "0xaa36a7"
      },
      "additionalContracts": [],
      "isFixedGasLimit": false
    }
  ],
  "receipts": [
    {
      "status": "0x1",
      "cumulativeGasUsed": "0x215fce6",
      "logs": [
        {
          "address": "0xca14007eff0db1f8135f4c25b34de49ab0d42766",
          "topics": [
            "0x8c5be1e5ebec7d5bd14f71427d1e84f3dd0314c0f7b2291e5b200ac8c7c3b925",
            "0x000000000000000000000000ddb342ecc94236c29a5307d3757d0724d759453c",
            "0x00000000000000000000000017ceb8da41205f1026241766328751884afa7fe8"
          ],
          "data": "0xffffffffffffffffffffffffffffffffffffffffffffffffffffffffffffffff",
          "blockHash": "0xed51eadfef768bdebe92ca18bcc3158472b1be3c29f8d4d0fee1e9476fb0fc43",
          "blockNumber": "0x72f769",
          "transactionHash": "0x0d49960e43460b8a23970b614699ada2c4e12fe2c56c2e2c1b27fd8aaaa1499a",
          "transactionIndex": "0x43",
          "logIndex": "0x10eb",
          "removed": false
        }
      ],
      "logsBloom": "0x00000000000000000000000000000000000000000000000000000000000000000000000000000000000000000800000000000000000000000000000000200000000000000000000000000000000000000000000000000000000000000000000400000000000000000000000000000000400000000000000000000000400000000000000000000000000000000000000000000000000000000000000000000000020000000000000000000000000000000000000000000000000000000000000000000000000000020000000000000000020000000000000000800000000000000010000000400000000000000000000000000000001000000000000000000000",
      "type": "0x2",
      "transactionHash": "0x0d49960e43460b8a23970b614699ada2c4e12fe2c56c2e2c1b27fd8aaaa1499a",
      "transactionIndex": "0x43",
      "blockHash": "0xed51eadfef768bdebe92ca18bcc3158472b1be3c29f8d4d0fee1e9476fb0fc43",
      "blockNumber": "0x72f769",
      "gasUsed": "0x6ae8",
      "effectiveGasPrice": "0x41c32245",
      "from": "0xddb342ecc94236c29a5307d3757d0724d759453c",
      "to": "0xca14007eff0db1f8135f4c25b34de49ab0d42766",
      "contractAddress": null
    },
    {
      "status": "0x1",
      "cumulativeGasUsed": "0x2167251",
      "logs": [
        {
          "address": "0x17ceb8da41205f1026241766328751884afa7fe8",
          "topics": [
            "0xa35dce9e53611b0cabca886209c4a1d09c80214af9b6fb6027f7b2f7c39838e8"
          ],
          "data": "0x07f7634d530030231a04892601d83bbc79defee8145d116d18fc4978e21f2741",
          "blockHash": "0xed51eadfef768bdebe92ca18bcc3158472b1be3c29f8d4d0fee1e9476fb0fc43",
          "blockNumber": "0x72f769",
          "transactionHash": "0x20e20af442812dd6763366bdc8a1b9d0c213705419b25fec4bedecfff44cd0a0",
          "transactionIndex": "0x44",
          "logIndex": "0x10ec",
          "removed": false
        }
      ],
      "logsBloom": "0x00000000000000000000000010000000000000000000000000000000000000000000000000000000000000000000000000000000000000000000000000000000000000000000000000000000000200000000000000000000000000000000000000000000000000000000000000000000000000000000000000000000000000000000000000000000000000000000000000000000000000000000000000000000800000000000000000000000000000000000000004000000000000000000002800000000000000000000000000000000000000000000000000000000000000000000000000000000000000000000000000000000000000000000000000000000",
      "type": "0x2",
      "transactionHash": "0x20e20af442812dd6763366bdc8a1b9d0c213705419b25fec4bedecfff44cd0a0",
      "transactionIndex": "0x44",
      "blockHash": "0xed51eadfef768bdebe92ca18bcc3158472b1be3c29f8d4d0fee1e9476fb0fc43",
      "blockNumber": "0x72f769",
      "gasUsed": "0x756b",
      "effectiveGasPrice": "0x41c32245",
      "from": "0xddb342ecc94236c29a5307d3757d0724d759453c",
      "to": "0x17ceb8da41205f1026241766328751884afa7fe8",
      "contractAddress": null
    }
  ],
  "libraries": [],
  "pending": [],
  "returns": {},
  "timestamp": 1737397513,
  "chain": 11155111,
  "commit": "fcbff6b"
}