{
  "transactions": [
    {
      "hash": "0xc82e4892e44c443560ccdd04111d0f412b92cd3f3540be28bcc612c1ad47248f",
      "transactionType": "CALL",
      "contractName": null,
      "contractAddress": "0xca14007eff0db1f8135f4c25b34de49ab0d42766",
      "function": "approve(address,uint256)",
      "arguments": [
        "0x7754F43A4975004600c4839a5642b03550fE5b55",
        "115792089237316195423570985008687907853269984665640564039457584007913129639935"
      ],
      "transaction": {
        "from": "0xddb342ecc94236c29a5307d3757d0724d759453c",
        "to": "0xca14007eff0db1f8135f4c25b34de49ab0d42766",
        "gas": "0x9388",
        "value": "0x0",
        "input": "0x095ea7b30000000000000000000000007754f43a4975004600c4839a5642b03550fe5b55ffffffffffffffffffffffffffffffffffffffffffffffffffffffffffffffff",
        "nonce": "0x453",
        "chainId": "0xaa36a7"
      },
      "additionalContracts": [],
      "isFixedGasLimit": false
    },
    {
      "hash": "0x23c782380cf889d5101d789a0ebf7c69be7489d2740d4356057dc939cd4a9ca2",
      "transactionType": "CALL",
      "contractName": null,
      "contractAddress": "0x7754f43a4975004600c4839a5642b03550fe5b55",
      "function": "initiateWithdrawal(uint256,address)",
      "arguments": [
        "700000000000000",
        "0x1c7D4B196Cb0C7B01d743Fbc6116a902379C7238"
      ],
      "transaction": {
        "from": "0xddb342ecc94236c29a5307d3757d0724d759453c",
        "to": "0x7754f43a4975004600c4839a5642b03550fe5b55",
        "gas": "0x1b9bb",
        "value": "0x1c6bf52634000",
        "input": "0x5443812700000000000000000000000000000000000000000000000000027ca57357c0000000000000000000000000001c7d4b196cb0c7b01d743fbc6116a902379c7238",
        "nonce": "0x454",
        "chainId": "0xaa36a7"
      },
      "additionalContracts": [],
      "isFixedGasLimit": false
    }
  ],
  "receipts": [
    {
      "status": "0x1",
      "cumulativeGasUsed": "0x945598",
      "logs": [
        {
          "address": "0xca14007eff0db1f8135f4c25b34de49ab0d42766",
          "topics": [
            "0x8c5be1e5ebec7d5bd14f71427d1e84f3dd0314c0f7b2291e5b200ac8c7c3b925",
            "0x000000000000000000000000ddb342ecc94236c29a5307d3757d0724d759453c",
            "0x0000000000000000000000007754f43a4975004600c4839a5642b03550fe5b55"
          ],
          "data": "0xffffffffffffffffffffffffffffffffffffffffffffffffffffffffffffffff",
          "blockHash": "0x291c7c91ebb5bf099188bbd3d56bb376c9a4ef14b04f2b748c015d409df17bb8",
          "blockNumber": "0x716a17",
          "transactionHash": "0xc82e4892e44c443560ccdd04111d0f412b92cd3f3540be28bcc612c1ad47248f",
          "transactionIndex": "0x3a",
          "logIndex": "0x7b",
          "removed": false
        }
      ],
      "logsBloom": "0x00000000000000000000000000000000000000000000000080000000000000000000000000000000000000000000000000000000000000000000000000200000000000000000000000000000000000008000000000000000000000000000000400000000000000000000000000000000400000000000000000000000400000000000000000000000000000000000000000000000000000000000000000000000020000000000000000000000000000000000000000000000000000000000000000000000000000020000000040000000000000000000000000800000000000000010000000000000000000000000000000000000001000000000000000000000",
      "type": "0x2",
      "transactionHash": "0xc82e4892e44c443560ccdd04111d0f412b92cd3f3540be28bcc612c1ad47248f",
      "transactionIndex": "0x3a",
      "blockHash": "0x291c7c91ebb5bf099188bbd3d56bb376c9a4ef14b04f2b748c015d409df17bb8",
      "blockNumber": "0x716a17",
      "gasUsed": "0x6ad0",
      "effectiveGasPrice": "0x6979fe797",
      "from": "0xddb342ecc94236c29a5307d3757d0724d759453c",
      "to": "0xca14007eff0db1f8135f4c25b34de49ab0d42766",
      "contractAddress": null
    },
    {
      "status": "0x1",
      "cumulativeGasUsed": "0x9583a2",
      "logs": [
        {
          "address": "0xe2bb56ee936fd6433dc0f6e7e3b8365c906aa057",
          "topics": [
            "0xdb80dd488acf86d17c747445b0eabb5d57c541d3bd7b6b87af987858e5066b2b",
            "0x0000000000000000000000007754f43a4975004600c4839a5642b03550fe5b55",
            "0x0294a726b321a41e88c7fe4cdc186066f75aada1f4ff5f7b92a7e82c0f9c6bf5",
            "0x008bce41827dd5484d80312a2e43bc42a896e3fcf75bf84c2b49339168dfa00a"
          ],
          "data": "0x00000000000000000000000000000000000000000000000000000000000000600000000000000000000000000000000000000000000000000000000000002b310000000000000000000000000000000000000000000000000001c6bf5263400000000000000000000000000000000000000000000000000000000000000000080000000000000000000000000000000000000000000000000000000000000002000000000000000000000000ddb342ecc94236c29a5307d3757d0724d759453c00000000000000000000000000000000000000000000000000000000000000000000000000000000000000001c7d4b196cb0c7b01d743fbc6116a902379c723800000000000000000000000000000000000000000000000000000000000000000000000000000000000000000000000000000000000000000000000000000000000000000000000000000000000000000000000000000000000000000000000000000000000000000000000000000000000000000000000000027ca57357c000",
          "blockHash": "0x291c7c91ebb5bf099188bbd3d56bb376c9a4ef14b04f2b748c015d409df17bb8",
          "blockNumber": "0x716a17",
          "transactionHash": "0x23c782380cf889d5101d789a0ebf7c69be7489d2740d4356057dc939cd4a9ca2",
          "transactionIndex": "0x3b",
          "logIndex": "0x7c",
          "removed": false
        },
        {
          "address": "0x7754f43a4975004600c4839a5642b03550fe5b55",
          "topics": [
            "0x6d92f7d3303f995bf21956bb0c51b388bae348eaf45c23debd2cfa3fcd9ec646",
            "0x000000000000000000000000ddb342ecc94236c29a5307d3757d0724d759453c"
          ],
          "data": "0x00000000000000000000000000000000000000000000000000027ca57357c000",
          "blockHash": "0x291c7c91ebb5bf099188bbd3d56bb376c9a4ef14b04f2b748c015d409df17bb8",
          "blockNumber": "0x716a17",
          "transactionHash": "0x23c782380cf889d5101d789a0ebf7c69be7489d2740d4356057dc939cd4a9ca2",
          "transactionIndex": "0x3b",
          "logIndex": "0x7d",
          "removed": false
        }
      ],
      "logsBloom": "0x00000000000000400000000000020000000000000000000080000040000000000000000000000000000000000000000000000800000000000000020000000000000000000000000000000000000000008000000000000040001000000000000400000008100000000000000000000000400000000000000000000000400000000000000000000000000000000000000000000000000000000000000000000010000000000000000040000020000000020000001000000000000000000000000000100000000000000000000040000000000000000000000000000800000000000000001000000000000000000000000000000000000000000100000000000000",
      "type": "0x2",
      "transactionHash": "0x23c782380cf889d5101d789a0ebf7c69be7489d2740d4356057dc939cd4a9ca2",
      "transactionIndex": "0x3b",
      "blockHash": "0x291c7c91ebb5bf099188bbd3d56bb376c9a4ef14b04f2b748c015d409df17bb8",
      "blockNumber": "0x716a17",
      "gasUsed": "0x12e0a",
      "effectiveGasPrice": "0x6979fe797",
      "from": "0xddb342ecc94236c29a5307d3757d0724d759453c",
      "to": "0x7754f43a4975004600c4839a5642b03550fe5b55",
      "contractAddress": null
    }
  ],
  "libraries": [],
  "pending": [],
  "returns": {},
  "timestamp": 1736161706,
  "chain": 11155111,
  "commit": "3ea534e"
}