{
  "transactions": [
    {
      "hash": "0x7d43b0db502da5b19c627ff3a2d8a37c78a2af6280d654c20a1ebf9d4f8c860f",
      "transactionType": "CALL",
      "contractName": "StarkNetToken",
      "contractAddress": "0xCa14007Eff0dB1f8135f4C25B34De49AB0d42766",
      "function": "approve(address,uint256)",
      "arguments": [
        "0x2112b149516Def254dfe6B341Cf5df70d8CB6B06",
        "115792089237316195423570985008687907853269984665640564039457584007913129639935"
      ],
      "transaction": {
        "type": "0x02",
        "from": "0xddb342ecc94236c29a5307d3757d0724d759453c",
        "to": "0xca14007eff0db1f8135f4c25b34de49ab0d42766",
        "gas": "0xff08",
        "value": "0x0",
        "data": "0x095ea7b30000000000000000000000002112b149516def254dfe6b341cf5df70d8cb6b06ffffffffffffffffffffffffffffffffffffffffffffffffffffffffffffffff",
        "nonce": "0x2eb",
        "accessList": []
      },
      "additionalContracts": [],
      "isFixedGasLimit": false
    },
    {
      "hash": "0xa89bd42cc89ad1311eab9f99e1c20bbd83b34e87d8d0c1ad2df92708c3a9affd",
      "transactionType": "CALL",
      "contractName": "StarkNetToken",
      "contractAddress": "0xCa14007Eff0dB1f8135f4C25B34De49AB0d42766",
      "function": "transfer(address,uint256)",
      "arguments": [
        "0x2112b149516Def254dfe6B341Cf5df70d8CB6B06",
        "500000"
      ],
      "transaction": {
        "type": "0x02",
        "from": "0xddb342ecc94236c29a5307d3757d0724d759453c",
        "to": "0xca14007eff0db1f8135f4c25b34de49ab0d42766",
        "gas": "0x145a3",
        "value": "0x0",
        "data": "0xa9059cbb0000000000000000000000002112b149516def254dfe6b341cf5df70d8cb6b06000000000000000000000000000000000000000000000000000000000007a120",
        "nonce": "0x2ec",
        "accessList": []
      },
      "additionalContracts": [],
      "isFixedGasLimit": false
    },
    {
      "hash": "0xc119f36d6c1839d9985107ac28465ea1432e01bf0db201add456548d1815ec91",
      "transactionType": "CALL",
      "contractName": "Proxy",
      "contractAddress": "0xE2Bb56ee936fd6433DC0F6e7e3b8365C906AA057",
      "function": "sendMessageToL2(uint256,uint256,uint256[])",
      "arguments": [
        "2545442141390223358248142364047625979260270735181103727477035125832369927267",
        "425952401605428413817582304755919420533935873840436977667370850915372091056",
        "[0, 1265684623727634235329190328445374361672779121980, 2009894490435840142178314390393166646092438090257831307886760648929397478285, 2366254414417873771392932940469309727793822550615514268240785277201753657472, 170141183460469235273462165868118016, 1731684384, 1731684448, 500000, 2524392021852001135582825949054576525094493216367559068627275826195272239197]"
      ],
      "transaction": {
        "type": "0x02",
        "from": "0xddb342ecc94236c29a5307d3757d0724d759453c",
        "to": "0xe2bb56ee936fd6433dc0f6e7e3b8365c906aa057",
        "gas": "0x17832",
        "value": "0x38d7ea4c68000",
        "data": "0x3e3aa6c505a0ab50787b96096b0720c29a7f1959163e62688d6585fe1cf646f1d58d746300f1149cade9d692862ad41df96b108aa2c20af34f640457e781d166c98dc6b0000000000000000000000000000000000000000000000000000000000000006000000000000000000000000000000000000000000000000000000000000000090000000000000000000000000000000000000000000000000000000000000000000000000000000000000000ddb342ecc94236c29a5307d3757d0724d759453c04718f5a0fc34cc1af16a1cdee98ffb20c31f5cd61d6ab07201858f4287c938d053b40a647cedfca6ca84f542a0fe36736031905a9639a7f19a3c1e66bfd5080000000000000000000000000000000000020c49ba5e353f8000000000000000000000000000000000000000000000000000000000000000000000000673768200000000000000000000000000000000000000000000000000000000067376860000000000000000000000000000000000000000000000000000000000007a1200594c1582459ea03f77deaf9eb7e3917d6994a03c13405ba42867f83d85f085d",
        "nonce": "0x2ed",
        "accessList": []
      },
      "additionalContracts": [],
      "isFixedGasLimit": false
    }
  ],
  "receipts": [
    {
      "transactionHash": "0x7d43b0db502da5b19c627ff3a2d8a37c78a2af6280d654c20a1ebf9d4f8c860f",
      "transactionIndex": "0x1",
      "blockHash": "0xe4726817d17f3960c59c1e49c890d42f6866993784cf7f7574342b33c8fbdc22",
      "blockNumber": "0x6c1365",
      "from": "0xDdb342ecc94236c29a5307d3757d0724D759453C",
      "to": "0xCa14007Eff0dB1f8135f4C25B34De49AB0d42766",
      "cumulativeGasUsed": "0x6694c",
      "gasUsed": "0xb8a4",
      "contractAddress": null,
      "logs": [
        {
          "address": "0xCa14007Eff0dB1f8135f4C25B34De49AB0d42766",
          "topics": [
            "0x8c5be1e5ebec7d5bd14f71427d1e84f3dd0314c0f7b2291e5b200ac8c7c3b925",
            "0x000000000000000000000000ddb342ecc94236c29a5307d3757d0724d759453c",
            "0x0000000000000000000000002112b149516def254dfe6b341cf5df70d8cb6b06"
          ],
          "data": "0xffffffffffffffffffffffffffffffffffffffffffffffffffffffffffffffff",
          "blockHash": "0xe4726817d17f3960c59c1e49c890d42f6866993784cf7f7574342b33c8fbdc22",
          "blockNumber": "0x6c1365",
          "transactionHash": "0x7d43b0db502da5b19c627ff3a2d8a37c78a2af6280d654c20a1ebf9d4f8c860f",
          "transactionIndex": "0x1",
          "logIndex": "0x3",
          "removed": false
        }
      ],
      "status": "0x1",
      "logsBloom": "0x00000000000000000000000000000000000000000000000000000000000000000000000000000000000000000000000000000000000000000000000000200000000000000000000000000000008000000000000000000000000000000000000400000000000000000000000000000000400000000000000000000000400000000000000002000000000000000000000000000000000000000000000000000000020000000000000000000000000000000000000000000000000000000000000000000000000000020000000000000000000080000000000000800000000000000010000000000000000000000000000000000000001000000000000000000000",
      "type": "0x2",
      "effectiveGasPrice": "0xee3191a4"
    },
    {
      "transactionHash": "0xa89bd42cc89ad1311eab9f99e1c20bbd83b34e87d8d0c1ad2df92708c3a9affd",
      "transactionIndex": "0x2",
      "blockHash": "0xe4726817d17f3960c59c1e49c890d42f6866993784cf7f7574342b33c8fbdc22",
      "blockNumber": "0x6c1365",
      "from": "0xDdb342ecc94236c29a5307d3757d0724D759453C",
      "to": "0xCa14007Eff0dB1f8135f4C25B34De49AB0d42766",
      "cumulativeGasUsed": "0x747f5",
      "gasUsed": "0xdea9",
      "contractAddress": null,
      "logs": [
        {
          "address": "0xCa14007Eff0dB1f8135f4C25B34De49AB0d42766",
          "topics": [
            "0xddf252ad1be2c89b69c2b068fc378daa952ba7f163c4a11628f55a4df523b3ef",
            "0x000000000000000000000000ddb342ecc94236c29a5307d3757d0724d759453c",
            "0x0000000000000000000000002112b149516def254dfe6b341cf5df70d8cb6b06"
          ],
          "data": "0x000000000000000000000000000000000000000000000000000000000007a120",
          "blockHash": "0xe4726817d17f3960c59c1e49c890d42f6866993784cf7f7574342b33c8fbdc22",
          "blockNumber": "0x6c1365",
          "transactionHash": "0xa89bd42cc89ad1311eab9f99e1c20bbd83b34e87d8d0c1ad2df92708c3a9affd",
          "transactionIndex": "0x2",
          "logIndex": "0x4",
          "removed": false
        }
      ],
      "status": "0x1",
      "logsBloom": "0x00000000000000000000000000000000000000000000000000000000000000000000000000000000000000000000000000000000000000000000000000000000000000000000000000000008008000000000000000000000000000000000000400000000000000000000000000000000400000000000000000000010400000000000000002000000000000000000000000000000000000000000000000000000000000000000000000000000000000000000000000000000000000000000000000000002000000020000000000000000000080000000000000800000000000000000000000000000000000000000000000000000001000000000000000000000",
      "type": "0x2",
      "effectiveGasPrice": "0xee3191a4"
    },
    {
      "transactionHash": "0xc119f36d6c1839d9985107ac28465ea1432e01bf0db201add456548d1815ec91",
      "transactionIndex": "0x3",
      "blockHash": "0xe4726817d17f3960c59c1e49c890d42f6866993784cf7f7574342b33c8fbdc22",
      "blockNumber": "0x6c1365",
      "from": "0xDdb342ecc94236c29a5307d3757d0724D759453C",
      "to": "0xE2Bb56ee936fd6433DC0F6e7e3b8365C906AA057",
      "cumulativeGasUsed": "0x84930",
      "gasUsed": "0x1013b",
      "contractAddress": null,
      "logs": [
        {
          "address": "0xE2Bb56ee936fd6433DC0F6e7e3b8365C906AA057",
          "topics": [
            "0xdb80dd488acf86d17c747445b0eabb5d57c541d3bd7b6b87af987858e5066b2b",
            "0x000000000000000000000000ddb342ecc94236c29a5307d3757d0724d759453c",
            "0x05a0ab50787b96096b0720c29a7f1959163e62688d6585fe1cf646f1d58d7463",
            "0x00f1149cade9d692862ad41df96b108aa2c20af34f640457e781d166c98dc6b0"
          ],
          "data": "0x0000000000000000000000000000000000000000000000000000000000000060000000000000000000000000000000000000000000000000000000000000287400000000000000000000000000000000000000000000000000038d7ea4c6800000000000000000000000000000000000000000000000000000000000000000090000000000000000000000000000000000000000000000000000000000000000000000000000000000000000ddb342ecc94236c29a5307d3757d0724d759453c04718f5a0fc34cc1af16a1cdee98ffb20c31f5cd61d6ab07201858f4287c938d053b40a647cedfca6ca84f542a0fe36736031905a9639a7f19a3c1e66bfd5080000000000000000000000000000000000020c49ba5e353f8000000000000000000000000000000000000000000000000000000000000000000000000673768200000000000000000000000000000000000000000000000000000000067376860000000000000000000000000000000000000000000000000000000000007a1200594c1582459ea03f77deaf9eb7e3917d6994a03c13405ba42867f83d85f085d",
          "blockHash": "0xe4726817d17f3960c59c1e49c890d42f6866993784cf7f7574342b33c8fbdc22",
          "blockNumber": "0x6c1365",
          "transactionHash": "0xc119f36d6c1839d9985107ac28465ea1432e01bf0db201add456548d1815ec91",
          "transactionIndex": "0x3",
          "logIndex": "0x5",
          "removed": false
        }
      ],
      "status": "0x1",
      "logsBloom": "0x00400000000000000000000000020000000000000000000000000020000000000000000000000000000000000000000000000000000000000000000000010000000000000000000000000000000000000000000000000040001000000000000400000000100000010000000000000000400000000000000000000000400000000000000000000000000000000000000004000000000000000000000000000010000000000000000000040020000000000000000000000000000000000000000000000000000000000000000000000000000000000000000000000000000000000000000000000000000000000000000000000000000000000000000000000000",
      "type": "0x2",
      "effectiveGasPrice": "0xee3191a4"
    }
  ],
  "libraries": [],
  "pending": [],
  "returns": {},
  "timestamp": 1731684434,
  "chain": 11155111,
  "multi": false,
  "commit": "945f7f2"
}