{
  "transactions": [
    {
      "hash": "0x7e388d797de3f9887d506100e6ab0e7d14615db3c58436665f3df671b6168927",
      "transactionType": "CALL",
      "contractName": null,
      "contractAddress": "0x17ceb8da41205f1026241766328751884afa7fe8",
      "function": "setL2EndpointAddress(uint256)",
      "arguments": [
        "2361042419225082304626344415068641103339443172836640990408796361498044356029"
      ],
      "transaction": {
        "from": "0xddb342ecc94236c29a5307d3757d0724d759453c",
        "to": "0x17ceb8da41205f1026241766328751884afa7fe8",
        "gas": "0xa23f",
        "value": "0x0",
        "input": "0x5155fb2f05384d7aa25d47c73d60f2ee889af6b337544c534b05d8560578c06f01db55bd",
        "nonce": "0x515",
        "chainId": "0xaa36a7"
      },
      "additionalContracts": [],
      "isFixedGasLimit": false
    }
  ],
  "receipts": [
    {
      "status": "0x1",
      "cumulativeGasUsed": "0xde1a5f",
      "logs": [
        {
          "address": "0x17ceb8da41205f1026241766328751884afa7fe8",
          "topics": [
            "0xa35dce9e53611b0cabca886209c4a1d09c80214af9b6fb6027f7b2f7c39838e8"
          ],
          "data": "0x05384d7aa25d47c73d60f2ee889af6b337544c534b05d8560578c06f01db55bd",
          "blockHash": "0xc1aabac4d4c5fe8f703560c85d6a227a8672617a37ab0b5e72303755c61aadbe",
          "blockNumber": "0x730e2a",
          "transactionHash": "0x7e388d797de3f9887d506100e6ab0e7d14615db3c58436665f3df671b6168927",
          "transactionIndex": "0x82",
          "logIndex": "0xf4",
          "removed": false
        }
      ],
      "logsBloom": "0x00000000000000000000000010000000000000000000000000000000000000000000000000000000000000000000000000000000000000000000000000000000000000000000000000000000000200000000000000000000000000000000000000000000000000000000000000000000000000000000000000000000000000000000000000000000000000000000000000000000000000000000000000000000800000000000000000000000000000000000000004000000000000000000002800000000000000000000000000000000000000000000000000000000000000000000000000000000000000000000000000000000000000000000000000000000",
      "type": "0x2",
      "transactionHash": "0x7e388d797de3f9887d506100e6ab0e7d14615db3c58436665f3df671b6168927",
      "transactionIndex": "0x82",
      "blockHash": "0xc1aabac4d4c5fe8f703560c85d6a227a8672617a37ab0b5e72303755c61aadbe",
      "blockNumber": "0x730e2a",
      "gasUsed": "0x7577",
      "effectiveGasPrice": "0xb2503620",
      "from": "0xddb342ecc94236c29a5307d3757d0724d759453c",
      "to": "0x17ceb8da41205f1026241766328751884afa7fe8",
      "contractAddress": null
    }
  ],
  "libraries": [],
  "pending": [],
  "returns": {},
  "timestamp": 1737467533,
  "chain": 11155111,
  "commit": "fcbff6b"
}