{
  "transactions": [
    {
      "hash": "0xe4bfece5966dfe5afd9bf25528dabbd2b31153bbe116edb4ff0f500123625080",
      "transactionType": "CALL",
      "contractName": null,
      "contractAddress": "0xca14007eff0db1f8135f4c25b34de49ab0d42766",
      "function": "approve(address,uint256)",
      "arguments": [
        "0xeEaD9DC94aa25623aFDB6B04135C31FB58Ff09F1",
        "115792089237316195423570985008687907853269984665640564039457584007913129639935"
      ],
      "transaction": {
        "from": "0x1b382a7b4496f14e0aaa2da1e1626da400426a03",
        "to": "0xca14007eff0db1f8135f4c25b34de49ab0d42766",
        "gas": "0x93a9",
        "value": "0x0",
        "input": "0x095ea7b3000000000000000000000000eead9dc94aa25623afdb6b04135c31fb58ff09f1ffffffffffffffffffffffffffffffffffffffffffffffffffffffffffffffff",
        "nonce": "0x12a",
        "chainId": "0xaa36a7"
      },
      "additionalContracts": [],
      "isFixedGasLimit": false
    },
    {
      "hash": "0xfa4444c89ecbd6561f6b720a67be91f1bc02457974d7addcea255e3c1c531b8e",
      "transactionType": "CALL",
      "contractName": null,
      "contractAddress": "0xeead9dc94aa25623afdb6b04135c31fb58ff09f1",
      "function": "_sendMessage(uint256,uint256,uint256[])",
      "arguments": [
        "2789318981096537317422508638270213251163035652519458065417008744915404554912",
        "425952401605428413817582304755919420533935873840436977667370850915372091056",
        "[0, 155395293205272889741977291769804687991023757827, 2009894490435840142178314390393166646092438090257831307886760648929397478285, 2366254414417873771392932940469309727793822550615514268240785277201753657472, 170141183460469235273462165868118016, 1731365616, 1731365680, 500000]"
      ],
      "transaction": {
        "from": "0x1b382a7b4496f14e0aaa2da1e1626da400426a03",
        "to": "0xeead9dc94aa25623afdb6b04135c31fb58ff09f1",
        "gas": "0x19f21",
        "value": "0x5af3107a4000",
        "input": "0x88f439ef062ab2d735892e7c171467546a12833da8e1c90b37119325df79559adacb82a000f1149cade9d692862ad41df96b108aa2c20af34f640457e781d166c98dc6b00000000000000000000000000000000000000000000000000000000000000060000000000000000000000000000000000000000000000000000000000000000800000000000000000000000000000000000000000000000000000000000000000000000000000000000000001b382a7b4496f14e0aaa2da1e1626da400426a0304718f5a0fc34cc1af16a1cdee98ffb20c31f5cd61d6ab07201858f4287c938d053b40a647cedfca6ca84f542a0fe36736031905a9639a7f19a3c1e66bfd5080000000000000000000000000000000000020c49ba5e353f800000000000000000000000000000000000000000000000000000000000000000000000067328af00000000000000000000000000000000000000000000000000000000067328b30000000000000000000000000000000000000000000000000000000000007a120",
        "nonce": "0x12b",
        "chainId": "0xaa36a7"
      },
      "additionalContracts": [],
      "isFixedGasLimit": false
    }
  ],
  "receipts": [
    {
      "status": "0x1",
      "cumulativeGasUsed": "0x45cf3a",
      "logs": [
        {
          "address": "0xca14007eff0db1f8135f4c25b34de49ab0d42766",
          "topics": [
            "0x8c5be1e5ebec7d5bd14f71427d1e84f3dd0314c0f7b2291e5b200ac8c7c3b925",
            "0x0000000000000000000000001b382a7b4496f14e0aaa2da1e1626da400426a03",
            "0x000000000000000000000000eead9dc94aa25623afdb6b04135c31fb58ff09f1"
          ],
          "data": "0xffffffffffffffffffffffffffffffffffffffffffffffffffffffffffffffff",
          "blockHash": "0x9f31d04ba6214ba6cc50e3f5f7a03f49d8f8232805e0d038f818c3f1b35b8ab2",
          "blockNumber": "0x6bb2dc",
          "transactionHash": "0xe4bfece5966dfe5afd9bf25528dabbd2b31153bbe116edb4ff0f500123625080",
          "transactionIndex": "0x2c",
          "logIndex": "0x35",
          "removed": false
        }
      ],
      "logsBloom": "0x00000000000000000000000000000000000000000000000000000000000000000000000000000000000000000000000000000000000000000000000000200000000000000000000000000000000000000000000000000000000000000000000000000000000000000000000000000000000000000010000020000000000000040000000000000000000000000000000000000000000000000004000000000000020000000000000000000000000000000000100000000000000000000000000000000000000000020000000000000000000000000000000000800000000000000010000010000000000000000000000000000000001000000000000000000000",
      "type": "0x2",
      "transactionHash": "0xe4bfece5966dfe5afd9bf25528dabbd2b31153bbe116edb4ff0f500123625080",
      "transactionIndex": "0x2c",
      "blockHash": "0x9f31d04ba6214ba6cc50e3f5f7a03f49d8f8232805e0d038f818c3f1b35b8ab2",
      "blockNumber": "0x6bb2dc",
      "gasUsed": "0x6ae8",
      "effectiveGasPrice": "0x141b876e",
      "blobGasUsed": "0x0",
      "from": "0x1b382a7b4496f14e0aaa2da1e1626da400426a03",
      "to": "0xca14007eff0db1f8135f4c25b34de49ab0d42766",
      "contractAddress": null
    },
    {
      "status": "0x1",
      "cumulativeGasUsed": "0x46fbc7",
      "logs": [
        {
          "address": "0xe2bb56ee936fd6433dc0f6e7e3b8365c906aa057",
          "topics": [
            "0xdb80dd488acf86d17c747445b0eabb5d57c541d3bd7b6b87af987858e5066b2b",
            "0x000000000000000000000000eead9dc94aa25623afdb6b04135c31fb58ff09f1",
            "0x062ab2d735892e7c171467546a12833da8e1c90b37119325df79559adacb82a0",
            "0x00f1149cade9d692862ad41df96b108aa2c20af34f640457e781d166c98dc6b0"
          ],
          "data": "0x000000000000000000000000000000000000000000000000000000000000006000000000000000000000000000000000000000000000000000000000000027f700000000000000000000000000000000000000000000000000005af3107a4000000000000000000000000000000000000000000000000000000000000000000800000000000000000000000000000000000000000000000000000000000000000000000000000000000000001b382a7b4496f14e0aaa2da1e1626da400426a0304718f5a0fc34cc1af16a1cdee98ffb20c31f5cd61d6ab07201858f4287c938d053b40a647cedfca6ca84f542a0fe36736031905a9639a7f19a3c1e66bfd5080000000000000000000000000000000000020c49ba5e353f800000000000000000000000000000000000000000000000000000000000000000000000067328af00000000000000000000000000000000000000000000000000000000067328b30000000000000000000000000000000000000000000000000000000000007a120",
          "blockHash": "0x9f31d04ba6214ba6cc50e3f5f7a03f49d8f8232805e0d038f818c3f1b35b8ab2",
          "blockNumber": "0x6bb2dc",
          "transactionHash": "0xfa4444c89ecbd6561f6b720a67be91f1bc02457974d7addcea255e3c1c531b8e",
          "transactionIndex": "0x2d",
          "logIndex": "0x36",
          "removed": false
        }
      ],
      "logsBloom": "0x00400000000000000000000000020000000000000000000000000000000020000000000000000000000000000200000000000000000000000000000000000000000000000000000000000000000000000000000000000040001000000000000000000000100000010000000000000000000000000000000000000000000000000000000000000000000000000000000004000000000000000004000000000010000000000000000000000020000000000000100000000000000000000000000000000000000000000000000000000000000000000000000000000000004000000000000010000000000000000000000000000000000000000000000000000000",
      "type": "0x2",
      "transactionHash": "0xfa4444c89ecbd6561f6b720a67be91f1bc02457974d7addcea255e3c1c531b8e",
      "transactionIndex": "0x2d",
      "blockHash": "0x9f31d04ba6214ba6cc50e3f5f7a03f49d8f8232805e0d038f818c3f1b35b8ab2",
      "blockNumber": "0x6bb2dc",
      "gasUsed": "0x12c8d",
      "effectiveGasPrice": "0x141b876e",
      "blobGasUsed": "0x0",
      "from": "0x1b382a7b4496f14e0aaa2da1e1626da400426a03",
      "to": "0xeead9dc94aa25623afdb6b04135c31fb58ff09f1",
      "contractAddress": null
    }
  ],
  "libraries": [],
  "pending": [],
  "returns": {},
  "timestamp": 1731365656,
  "chain": 11155111,
  "commit": "a5302c4"
}