{
  "transactions": [
    {
      "hash": "0x1958d049abc61698d38ef49a04342361c0d582939564d4a8b524900faf48f444",
      "transactionType": "CALL",
      "contractName": "StarkNetToken",
      "contractAddress": "0xCa14007Eff0dB1f8135f4C25B34De49AB0d42766",
      "function": "approve(address,uint256)",
      "arguments": [
        "0xa37Cb2cD03619597Bca95D8DCbcCcb642e526756",
        "115792089237316195423570985008687907853269984665640564039457584007913129639935"
      ],
      "transaction": {
        "type": "0x02",
        "from": "0xddb342ecc94236c29a5307d3757d0724d759453c",
        "to": "0xca14007eff0db1f8135f4c25b34de49ab0d42766",
        "gas": "0x93a9",
        "value": "0x0",
        "data": "0x095ea7b3000000000000000000000000a37cb2cd03619597bca95d8dcbcccb642e526756ffffffffffffffffffffffffffffffffffffffffffffffffffffffffffffffff",
        "nonce": "0x259",
        "accessList": []
      },
      "additionalContracts": [],
      "isFixedGasLimit": false
    },
    {
      "hash": "0x6ef1e2a6528588da5c6c6bc5ce93e53ff588de8b2422de7ecaa51e412b7eb6f5",
      "transactionType": "CALL",
      "contractName": "Proxy",
      "contractAddress": "0xE2Bb56ee936fd6433DC0F6e7e3b8365C906AA057",
      "function": "sendMessageToL2(uint256,uint256,uint256[])",
      "arguments": [
        "1754425528998404332833579752982178953523781828291666396770948545224656187989",
        "425952401605428413817582304755919420533935873840436977667370850915372091056",
        "[0, 1265684623727634235329190328445374361672779121980, 2009894490435840142178314390393166646092438090257831307886760648929397478285, 2366254414417873771392932940469309727793822550615514268240785277201753657472, 0, 1731099136, 1731099200, 500000]"
      ],
      "transaction": {
        "type": "0x02",
        "from": "0xddb342ecc94236c29a5307d3757d0724d759453c",
        "to": "0xe2bb56ee936fd6433dc0f6e7e3b8365c906aa057",
        "gas": "0x15e85",
        "value": "0x5af3107a4000",
        "data": "0x3e3aa6c503e0f83ba17eac9112e452a72493e4abc71f4e749fa376278e16a6169d4e725500f1149cade9d692862ad41df96b108aa2c20af34f640457e781d166c98dc6b0000000000000000000000000000000000000000000000000000000000000006000000000000000000000000000000000000000000000000000000000000000080000000000000000000000000000000000000000000000000000000000000000000000000000000000000000ddb342ecc94236c29a5307d3757d0724d759453c04718f5a0fc34cc1af16a1cdee98ffb20c31f5cd61d6ab07201858f4287c938d053b40a647cedfca6ca84f542a0fe36736031905a9639a7f19a3c1e66bfd5080000000000000000000000000000000000000000000000000000000000000000000000000000000000000000000000000000000000000000000000000672e7a0000000000000000000000000000000000000000000000000000000000672e7a40000000000000000000000000000000000000000000000000000000000007a120",
        "nonce": "0x25a",
        "accessList": []
      },
      "additionalContracts": [],
      "isFixedGasLimit": false
    }
  ],
  "receipts": [],
  "libraries": [],
  "pending": [
    "0x1958d049abc61698d38ef49a04342361c0d582939564d4a8b524900faf48f444",
    "0x6ef1e2a6528588da5c6c6bc5ce93e53ff588de8b2422de7ecaa51e412b7eb6f5"
  ],
  "returns": {},
  "timestamp": 1731099167,
  "chain": 11155111,
  "multi": false,
  "commit": "75c82f5"
}