{
  "transactions": [
    {
      "hash": "0xc3f0a0f1f286ab2e6201b147b53e2a2d935a760ec31fc5fc9abbcc5c22d2d2e7",
      "transactionType": "CALL",
      "contractName": null,
      "contractAddress": "0x17ceb8da41205f1026241766328751884afa7fe8",
      "function": "initiateWithdrawal(address,address,uint64)",
      "arguments": [
        "0xDdb342ecc94236c29a5307d3757d0724D759453C",
        "0x1c7D4B196Cb0C7B01d743Fbc6116a902379C7238",
        "532"
      ],
      "transaction": {
        "from": "0xddb342ecc94236c29a5307d3757d0724d759453c",
        "to": "0x17ceb8da41205f1026241766328751884afa7fe8",
        "gas": "0x1b4c1",
        "value": "0x11c37937e08000",
        "input": "0x9b4085f6000000000000000000000000ddb342ecc94236c29a5307d3757d0724d759453c0000000000000000000000001c7d4b196cb0c7b01d743fbc6116a902379c72380000000000000000000000000000000000000000000000000000000000000214",
        "nonce": "0x50f",
        "chainId": "0xaa36a7"
      },
      "additionalContracts": [],
      "isFixedGasLimit": false
    }
  ],
  "receipts": [
    {
      "status": "0x1",
      "cumulativeGasUsed": "0x1003860",
      "logs": [
        {
          "address": "0xe2bb56ee936fd6433dc0f6e7e3b8365c906aa057",
          "topics": [
            "0xdb80dd488acf86d17c747445b0eabb5d57c541d3bd7b6b87af987858e5066b2b",
            "0x00000000000000000000000017ceb8da41205f1026241766328751884afa7fe8",
            "0x05ad179af127a7c4690ab7e60c6064b5e7f8c41d3be13f67f3a3389d1849aaed",
            "0x00f1149cade9d692862ad41df96b108aa2c20af34f640457e781d166c98dc6b0"
          ],
          "data": "0x00000000000000000000000000000000000000000000000000000000000000600000000000000000000000000000000000000000000000000000000000002c700000000000000000000000000000000000000000000000000011c37937e0800000000000000000000000000000000000000000000000000000000000000000050000000000000000000000000000000000000000000000000000000000000002000000000000000000000000ddb342ecc94236c29a5307d3757d0724d759453c000000000000000000000000ddb342ecc94236c29a5307d3757d0724d759453c0000000000000000000000001c7d4b196cb0c7b01d743fbc6116a902379c72380000000000000000000000000000000000000000000000000000000000000214",
          "blockHash": "0xcff16d0c6a9fbcd76aaef8c1f679a23586879c305c4602302657eafdc8b2973d",
          "blockNumber": "0x730c24",
          "transactionHash": "0xc3f0a0f1f286ab2e6201b147b53e2a2d935a760ec31fc5fc9abbcc5c22d2d2e7",
          "transactionIndex": "0x63",
          "logIndex": "0xc3",
          "removed": false
        },
        {
          "address": "0x17ceb8da41205f1026241766328751884afa7fe8",
          "topics": [
            "0x89bd98ae1b8dd4dbaeba50e40ad484414a306be9fb54ec4eecf1a801ca9aeacf",
            "0x000000000000000000000000ddb342ecc94236c29a5307d3757d0724d759453c"
          ],
          "data": "0x0000000000000000000000000000000000000000000000000000000000000214",
          "blockHash": "0xcff16d0c6a9fbcd76aaef8c1f679a23586879c305c4602302657eafdc8b2973d",
          "blockNumber": "0x730c24",
          "transactionHash": "0xc3f0a0f1f286ab2e6201b147b53e2a2d935a760ec31fc5fc9abbcc5c22d2d2e7",
          "transactionIndex": "0x63",
          "logIndex": "0xc4",
          "removed": false
        }
      ],
      "logsBloom": "0x00400000040000000000000000020000000000000000000000000000000000000000000000000000000000000800000000000000000000000000000000000000000000000000000000000000000000000000000000000040001000000000000400000000100000010000000000000000400000000000000000000000400000000000000000000000000000000000000004000000800000000000000000000010000000000000000000000020000000000000000004000000000000000000002800000000000000000000000000000000020000000000000000000080000000000000000000400000000000002000000000000000000400000000000000000100",
      "type": "0x2",
      "transactionHash": "0xc3f0a0f1f286ab2e6201b147b53e2a2d935a760ec31fc5fc9abbcc5c22d2d2e7",
      "transactionIndex": "0x63",
      "blockHash": "0xcff16d0c6a9fbcd76aaef8c1f679a23586879c305c4602302657eafdc8b2973d",
      "blockNumber": "0x730c24",
      "gasUsed": "0x12aa3",
      "effectiveGasPrice": "0xfafd216c",
      "from": "0xddb342ecc94236c29a5307d3757d0724d759453c",
      "to": "0x17ceb8da41205f1026241766328751884afa7fe8",
      "contractAddress": null
    }
  ],
  "libraries": [],
  "pending": [],
  "returns": {},
  "timestamp": 1737461316,
  "chain": 11155111,
  "commit": "fcbff6b"
}