{
  "transactions": [
    {
      "hash": "0x83f8652004035264bfb2711d6436518cf8d7b3e553f2ac5b0b51e0d9a0a1c72b",
      "transactionType": "CALL",
      "contractName": "StarkNetToken",
      "contractAddress": "0xCa14007Eff0dB1f8135f4C25B34De49AB0d42766",
      "function": "approve(address,uint256)",
      "arguments": [
        "0x7eb4C59eABE1234E8A6D02FdF4d1BB595C4702Cd",
        "115792089237316195423570985008687907853269984665640564039457584007913129639935"
      ],
      "transaction": {
        "type": "0x02",
        "from": "0xddb342ecc94236c29a5307d3757d0724d759453c",
        "to": "0xca14007eff0db1f8135f4c25b34de49ab0d42766",
        "gas": "0x93a9",
        "value": "0x0",
        "data": "0x095ea7b30000000000000000000000007eb4c59eabe1234e8a6d02fdf4d1bb595c4702cdffffffffffffffffffffffffffffffffffffffffffffffffffffffffffffffff",
        "nonce": "0x360",
        "accessList": []
      },
      "additionalContracts": [],
      "isFixedGasLimit": false
    },
    {
      "hash": "0xbbd3ce47ee57a2506f8278662b9568b41484a79585303359440d6322e58250af",
      "transactionType": "CALL",
      "contractName": null,
      "contractAddress": "0x7eb4C59eABE1234E8A6D02FdF4d1BB595C4702Cd",
      "function": "setL2EndpointAddress(uint256)",
      "arguments": [
        "859671099118744188824955380788859506563408006377732183923797035223963374909"
      ],
      "transaction": {
        "type": "0x02",
        "from": "0xddb342ecc94236c29a5307d3757d0724d759453c",
        "to": "0x7eb4c59eabe1234e8a6d02fdf4d1bb595c4702cd",
        "gas": "0xabab",
        "value": "0x0",
        "data": "0x5155fb2f01e68e7d48c0fa7f06e622e6441e8ac76677966bb2679c57a2f7674663bb953d",
        "nonce": "0x361",
        "accessList": []
      },
      "additionalContracts": [],
      "isFixedGasLimit": false
    }
  ],
  "receipts": [
    {
      "transactionHash": "0x83f8652004035264bfb2711d6436518cf8d7b3e553f2ac5b0b51e0d9a0a1c72b",
      "transactionIndex": "0xc",
      "blockHash": "0x6fc259ffd4cc2ea3a09406e5db5191a2fdf5cd11cdf62e7bebf3e8e714e89063",
      "blockNumber": "0x6d359c",
      "from": "0xDdb342ecc94236c29a5307d3757d0724D759453C",
      "to": "0xCa14007Eff0dB1f8135f4C25B34De49AB0d42766",
      "cumulativeGasUsed": "0x172b3f",
      "gasUsed": "0x6ae8",
      "contractAddress": null,
      "logs": [
        {
          "address": "0xCa14007Eff0dB1f8135f4C25B34De49AB0d42766",
          "topics": [
            "0x8c5be1e5ebec7d5bd14f71427d1e84f3dd0314c0f7b2291e5b200ac8c7c3b925",
            "0x000000000000000000000000ddb342ecc94236c29a5307d3757d0724d759453c",
            "0x0000000000000000000000007eb4c59eabe1234e8a6d02fdf4d1bb595c4702cd"
          ],
          "data": "0xffffffffffffffffffffffffffffffffffffffffffffffffffffffffffffffff",
          "blockHash": "0x6fc259ffd4cc2ea3a09406e5db5191a2fdf5cd11cdf62e7bebf3e8e714e89063",
          "blockNumber": "0x6d359c",
          "transactionHash": "0x83f8652004035264bfb2711d6436518cf8d7b3e553f2ac5b0b51e0d9a0a1c72b",
          "transactionIndex": "0xc",
          "logIndex": "0xd",
          "removed": false
        }
      ],
      "status": "0x1",
      "logsBloom": "0x00000000000000100000000000000000000000000000000000000000000000000000000000000000000000000000000000000000000000000000000000200000000000000000000000000000000000000000000000000000000000000000000400020000000000000000000000000000400000000000000000000000400000000000000000000000000000000000000000000000000000000000000000000000020000000000000000000000000000008000000000000000000000000000000000000000000000020000000000000000000000000000000000800000000000000010000000000000000000000000000000000000001000000000000000000000",
      "type": "0x2",
      "effectiveGasPrice": "0x2b22bbc6b"
    },
    {
      "transactionHash": "0xbbd3ce47ee57a2506f8278662b9568b41484a79585303359440d6322e58250af",
      "transactionIndex": "0xd",
      "blockHash": "0x6fc259ffd4cc2ea3a09406e5db5191a2fdf5cd11cdf62e7bebf3e8e714e89063",
      "blockNumber": "0x6d359c",
      "from": "0xDdb342ecc94236c29a5307d3757d0724D759453C",
      "to": "0x7eb4C59eABE1234E8A6D02FdF4d1BB595C4702Cd",
      "cumulativeGasUsed": "0x17a0a1",
      "gasUsed": "0x7562",
      "contractAddress": null,
      "logs": [
        {
          "address": "0x7eb4C59eABE1234E8A6D02FdF4d1BB595C4702Cd",
          "topics": [
            "0xa35dce9e53611b0cabca886209c4a1d09c80214af9b6fb6027f7b2f7c39838e8"
          ],
          "data": "0x01e68e7d48c0fa7f06e622e6441e8ac76677966bb2679c57a2f7674663bb953d",
          "blockHash": "0x6fc259ffd4cc2ea3a09406e5db5191a2fdf5cd11cdf62e7bebf3e8e714e89063",
          "blockNumber": "0x6d359c",
          "transactionHash": "0xbbd3ce47ee57a2506f8278662b9568b41484a79585303359440d6322e58250af",
          "transactionIndex": "0xd",
          "logIndex": "0xe",
          "removed": false
        }
      ],
      "status": "0x1",
      "logsBloom": "0x00000000000000000000000010000000000000000000000000000000000000000000000000000000000000000000000000000000000000200000000000000000000000000000000000000000000200000000000000000000000000000000000000000000000000000000000000000000000000000000000000000001000000000000000000000000000000000000000000000000000000000000000000000000800000000000000000000000000000200000000000000000000000000000000000000000000000000000000000000000000000000000000000000000000000000000000000000000000000000000000000000000000000000000000000000000",
      "type": "0x2",
      "effectiveGasPrice": "0x2b22bbc6b"
    }
  ],
  "libraries": [],
  "pending": [],
  "returns": {},
  "timestamp": 1732633237,
  "chain": 11155111,
  "multi": false,
  "commit": "1254ada"
}