{
  "transactions": [
    {
      "hash": "0xf49ad95772376dbd42d12dc838be89490d41bdf27de1da9fbd5a48f1302f55a2",
      "transactionType": "CALL",
      "contractName": null,
      "contractAddress": "0x17ceb8da41205f1026241766328751884afa7fe8",
      "function": "depositAndCreateOrder((address,uint256,uint256,uint128,uint128,uint128,uint128))",
      "arguments": [
        "(0xDdb342ecc94236c29a5307d3757d0724D759453C, 2009894490435840142178314390393166646092438090257831307886760648929397478285, 2366254414417873771392932940469309727793822550615514268240785277201753657472, 170141183460469235273462165868118016, 1737460992, 1737461120, 5000000000000000)"
      ],
      "transaction": {
        "from": "0xddb342ecc94236c29a5307d3757d0724d759453c",
        "to": "0x17ceb8da41205f1026241766328751884afa7fe8",
        "gas": "0x3bc6d",
        "value": "0x11c37937e08000",
        "input": "0x6c1cc3f4000000000000000000000000ddb342ecc94236c29a5307d3757d0724d759453c04718f5a0fc34cc1af16a1cdee98ffb20c31f5cd61d6ab07201858f4287c938d053b40a647cedfca6ca84f542a0fe36736031905a9639a7f19a3c1e66bfd5080000000000000000000000000000000000020c49ba5e353f8000000000000000000000000000000000000000000000000000000000000000000000000678f8d0000000000000000000000000000000000000000000000000000000000678f8d800000000000000000000000000000000000000000000000000011c37937e08000",
        "nonce": "0x50e",
        "chainId": "0xaa36a7"
      },
      "additionalContracts": [],
      "isFixedGasLimit": false
    }
  ],
  "receipts": [
    {
      "status": "0x1",
      "cumulativeGasUsed": "0x1097661",
      "logs": [
        {
          "address": "0xca14007eff0db1f8135f4c25b34de49ab0d42766",
          "topics": [
            "0x8c5be1e5ebec7d5bd14f71427d1e84f3dd0314c0f7b2291e5b200ac8c7c3b925",
            "0x00000000000000000000000017ceb8da41205f1026241766328751884afa7fe8",
            "0x00000000000000000000000017ceb8da41205f1026241766328751884afa7fe8"
          ],
          "data": "0x0000000000000000000000000000000000000000000000000011c37937e08000",
          "blockHash": "0xb82944171736c6464f8a156173926765e68c75fecdf1226543c37a8eadd039c7",
          "blockNumber": "0x730c0b",
          "transactionHash": "0xf49ad95772376dbd42d12dc838be89490d41bdf27de1da9fbd5a48f1302f55a2",
          "transactionIndex": "0x6a",
          "logIndex": "0xd8",
          "removed": false
        },
        {
          "address": "0xca14007eff0db1f8135f4c25b34de49ab0d42766",
          "topics": [
            "0xddf252ad1be2c89b69c2b068fc378daa952ba7f163c4a11628f55a4df523b3ef",
            "0x000000000000000000000000ddb342ecc94236c29a5307d3757d0724d759453c",
            "0x00000000000000000000000017ceb8da41205f1026241766328751884afa7fe8"
          ],
          "data": "0x0000000000000000000000000000000000000000000000000011c37937e08000",
          "blockHash": "0xb82944171736c6464f8a156173926765e68c75fecdf1226543c37a8eadd039c7",
          "blockNumber": "0x730c0b",
          "transactionHash": "0xf49ad95772376dbd42d12dc838be89490d41bdf27de1da9fbd5a48f1302f55a2",
          "transactionIndex": "0x6a",
          "logIndex": "0xd9",
          "removed": false
        },
        {
          "address": "0xca14007eff0db1f8135f4c25b34de49ab0d42766",
          "topics": [
            "0x8c5be1e5ebec7d5bd14f71427d1e84f3dd0314c0f7b2291e5b200ac8c7c3b925",
            "0x00000000000000000000000017ceb8da41205f1026241766328751884afa7fe8",
            "0x000000000000000000000000ce5485cfb26914c5dce00b9baf0580364dafc7a4"
          ],
          "data": "0x0000000000000000000000000000000000000000000000000011c37937e08000",
          "blockHash": "0xb82944171736c6464f8a156173926765e68c75fecdf1226543c37a8eadd039c7",
          "blockNumber": "0x730c0b",
          "transactionHash": "0xf49ad95772376dbd42d12dc838be89490d41bdf27de1da9fbd5a48f1302f55a2",
          "transactionIndex": "0x6a",
          "logIndex": "0xda",
          "removed": false
        },
        {
          "address": "0xca14007eff0db1f8135f4c25b34de49ab0d42766",
          "topics": [
            "0x8c5be1e5ebec7d5bd14f71427d1e84f3dd0314c0f7b2291e5b200ac8c7c3b925",
            "0x00000000000000000000000017ceb8da41205f1026241766328751884afa7fe8",
            "0x000000000000000000000000ce5485cfb26914c5dce00b9baf0580364dafc7a4"
          ],
          "data": "0x0000000000000000000000000000000000000000000000000000000000000000",
          "blockHash": "0xb82944171736c6464f8a156173926765e68c75fecdf1226543c37a8eadd039c7",
          "blockNumber": "0x730c0b",
          "transactionHash": "0xf49ad95772376dbd42d12dc838be89490d41bdf27de1da9fbd5a48f1302f55a2",
          "transactionIndex": "0x6a",
          "logIndex": "0xdb",
          "removed": false
        },
        {
          "address": "0xca14007eff0db1f8135f4c25b34de49ab0d42766",
          "topics": [
            "0xddf252ad1be2c89b69c2b068fc378daa952ba7f163c4a11628f55a4df523b3ef",
            "0x00000000000000000000000017ceb8da41205f1026241766328751884afa7fe8",
            "0x000000000000000000000000ce5485cfb26914c5dce00b9baf0580364dafc7a4"
          ],
          "data": "0x0000000000000000000000000000000000000000000000000011c37937e08000",
          "blockHash": "0xb82944171736c6464f8a156173926765e68c75fecdf1226543c37a8eadd039c7",
          "blockNumber": "0x730c0b",
          "transactionHash": "0xf49ad95772376dbd42d12dc838be89490d41bdf27de1da9fbd5a48f1302f55a2",
          "transactionIndex": "0x6a",
          "logIndex": "0xdc",
          "removed": false
        },
        {
          "address": "0xe2bb56ee936fd6433dc0f6e7e3b8365c906aa057",
          "topics": [
            "0xdb80dd488acf86d17c747445b0eabb5d57c541d3bd7b6b87af987858e5066b2b",
            "0x000000000000000000000000ce5485cfb26914c5dce00b9baf0580364dafc7a4",
            "0x0594c1582459ea03f77deaf9eb7e3917d6994a03c13405ba42867f83d85f085d",
            "0x008bce41827dd5484d80312a2e43bc42a896e3fcf75bf84c2b49339168dfa00a"
          ],
          "data": "0x00000000000000000000000000000000000000000000000000000000000000600000000000000000000000000000000000000000000000000000000000002c6f0000000000000000000000000000000000000000000000000011c37937e08000000000000000000000000000000000000000000000000000000000000000000e000000000000000000000000ca14007eff0db1f8135f4c25b34de49ab0d4276600000000000000000000000017ceb8da41205f1026241766328751884afa7fe805ad179af127a7c4690ab7e60c6064b5e7f8c41d3be13f67f3a3389d1849aaed0000000000000000000000000000000000000000000000000011c37937e08000000000000000000000000000000000000000000000000000000000000000000000000000000000000000000000000000000000000000000000000000000000080000000000000000000000000000000000000000000000000000000000000000000000000000000000000000ddb342ecc94236c29a5307d3757d0724d759453c04718f5a0fc34cc1af16a1cdee98ffb20c31f5cd61d6ab07201858f4287c938d053b40a647cedfca6ca84f542a0fe36736031905a9639a7f19a3c1e66bfd5080000000000000000000000000000000000020c49ba5e353f8000000000000000000000000000000000000000000000000000000000000000000000000678f8d0000000000000000000000000000000000000000000000000000000000678f8d800000000000000000000000000000000000000000000000000011c37937e08000",
          "blockHash": "0xb82944171736c6464f8a156173926765e68c75fecdf1226543c37a8eadd039c7",
          "blockNumber": "0x730c0b",
          "transactionHash": "0xf49ad95772376dbd42d12dc838be89490d41bdf27de1da9fbd5a48f1302f55a2",
          "transactionIndex": "0x6a",
          "logIndex": "0xdd",
          "removed": false
        },
        {
          "address": "0xce5485cfb26914c5dce00b9baf0580364dafc7a4",
          "topics": [
            "0x2203a49c69f1a46c1164f5e4a30643dd77b7c59c0ff9bc433256048365c247f1",
            "0x00000000000000000000000017ceb8da41205f1026241766328751884afa7fe8",
            "0x000000000000000000000000ca14007eff0db1f8135f4c25b34de49ab0d42766",
            "0x05ad179af127a7c4690ab7e60c6064b5e7f8c41d3be13f67f3a3389d1849aaed"
          ],
          "data": "0x0000000000000000000000000000000000000000000000000011c37937e0800000000000000000000000000000000000000000000000000000000000000000800000000000000000000000000000000000000000000000000000000000002c6f0000000000000000000000000000000000000000000000000011c37937e0800000000000000000000000000000000000000000000000000000000000000000080000000000000000000000000000000000000000000000000000000000000000000000000000000000000000ddb342ecc94236c29a5307d3757d0724d759453c04718f5a0fc34cc1af16a1cdee98ffb20c31f5cd61d6ab07201858f4287c938d053b40a647cedfca6ca84f542a0fe36736031905a9639a7f19a3c1e66bfd5080000000000000000000000000000000000020c49ba5e353f8000000000000000000000000000000000000000000000000000000000000000000000000678f8d0000000000000000000000000000000000000000000000000000000000678f8d800000000000000000000000000000000000000000000000000011c37937e08000",
          "blockHash": "0xb82944171736c6464f8a156173926765e68c75fecdf1226543c37a8eadd039c7",
          "blockNumber": "0x730c0b",
          "transactionHash": "0xf49ad95772376dbd42d12dc838be89490d41bdf27de1da9fbd5a48f1302f55a2",
          "transactionIndex": "0x6a",
          "logIndex": "0xde",
          "removed": false
        },
        {
          "address": "0x17ceb8da41205f1026241766328751884afa7fe8",
          "topics": [
            "0xaf43445f7721522b7a3864ed3de53d7e2e658bfa1eeffa18e1e229be68ce2545",
            "0x000000000000000000000000ddb342ecc94236c29a5307d3757d0724d759453c",
            "0x05ad179af127a7c4690ab7e60c6064b5e7f8c41d3be13f67f3a3389d1849aaed"
          ],
          "data": "0x0000000000000000000000000000000000000000000000000011c37937e080000000000000000000000000000000000000000000000000000000000000000001",
          "blockHash": "0xb82944171736c6464f8a156173926765e68c75fecdf1226543c37a8eadd039c7",
          "blockNumber": "0x730c0b",
          "transactionHash": "0xf49ad95772376dbd42d12dc838be89490d41bdf27de1da9fbd5a48f1302f55a2",
          "transactionIndex": "0x6a",
          "logIndex": "0xdf",
          "removed": false
        }
      ],
      "logsBloom": "0x00000200000000000000000000020000000000000000000000000040000000000000000000000000000000000800000000000000000004000000020000200000000000000000000000000008080000000000000000000040001000000000000600000000100000000000000000000000400000000000000000000010400008002000000000000000000000020000000000008000000200000000000000000010020000800000000000000020000000021000000004000000000000000000002800800002000000024010000000000000020000200000000000800080000000000010000000410000000000020004000000000000001400000000000000000100",
      "type": "0x2",
      "transactionHash": "0xf49ad95772376dbd42d12dc838be89490d41bdf27de1da9fbd5a48f1302f55a2",
      "transactionIndex": "0x6a",
      "blockHash": "0xb82944171736c6464f8a156173926765e68c75fecdf1226543c37a8eadd039c7",
      "blockNumber": "0x730c0b",
      "gasUsed": "0x2b470",
      "effectiveGasPrice": "0xfa56a404",
      "from": "0xddb342ecc94236c29a5307d3757d0724d759453c",
      "to": "0x17ceb8da41205f1026241766328751884afa7fe8",
      "contractAddress": null
    }
  ],
  "libraries": [],
  "pending": [],
  "returns": {},
  "timestamp": 1737461016,
  "chain": 11155111,
  "commit": "fcbff6b"
}