{
  "transactions": [
    {
      "hash": "0x348eb507494178505b72449e72a5d4deb6291730a7882974e792fbb8cfa4a669",
      "transactionType": "CALL",
      "contractName": "StarkNetToken",
      "contractAddress": "0xCa14007Eff0dB1f8135f4C25B34De49AB0d42766",
      "function": "approve(address,uint256)",
      "arguments": [
        "0x68a4BEf9EDcFCb2aB2cf952372D2c83E4Cf805c7",
        "115792089237316195423570985008687907853269984665640564039457584007913129639935"
      ],
      "transaction": {
        "type": "0x02",
        "from": "0xddb342ecc94236c29a5307d3757d0724d759453c",
        "to": "0xca14007eff0db1f8135f4c25b34de49ab0d42766",
        "gas": "0xff08",
        "value": "0x0",
        "data": "0x095ea7b300000000000000000000000068a4bef9edcfcb2ab2cf952372d2c83e4cf805c7ffffffffffffffffffffffffffffffffffffffffffffffffffffffffffffffff",
        "nonce": "0x2c7",
        "accessList": []
      },
      "additionalContracts": [],
      "isFixedGasLimit": false
    },
    {
      "hash": "0xc51c5c9b139ad57f7ae3ecf6f2dcf6ef507676f85f49cc93abae1c9b9eeb9524",
      "transactionType": "CALL",
      "contractName": "StarkNetToken",
      "contractAddress": "0xCa14007Eff0dB1f8135f4C25B34De49AB0d42766",
      "function": "transfer(address,uint256)",
      "arguments": [
        "0x68a4BEf9EDcFCb2aB2cf952372D2c83E4Cf805c7",
        "500000000000"
      ],
      "transaction": {
        "type": "0x02",
        "from": "0xddb342ecc94236c29a5307d3757d0724d759453c",
        "to": "0xca14007eff0db1f8135f4c25b34de49ab0d42766",
        "gas": "0x1339c",
        "value": "0x0",
        "data": "0xa9059cbb00000000000000000000000068a4bef9edcfcb2ab2cf952372d2c83e4cf805c7000000000000000000000000000000000000000000000000000000746a528800",
        "nonce": "0x2c8",
        "accessList": []
      },
      "additionalContracts": [],
      "isFixedGasLimit": false
    },
    {
      "hash": "0xa69c1b6fe73d86f6b197984bd3d2eea5a51119d0e2467bbd03b326ef84464720",
      "transactionType": "CALL",
      "contractName": "L1TWAMMBridge",
      "contractAddress": "0x68a4BEf9EDcFCb2aB2cf952372D2c83E4Cf805c7",
      "function": "deposit(uint256,uint256)",
      "arguments": [
        "500000000000",
        "1079971359331722808291730085398665951301511703680997097066074770824138717358"
      ],
      "transaction": {
        "type": "0x02",
        "from": "0xddb342ecc94236c29a5307d3757d0724d759453c",
        "to": "0x68a4bef9edcfcb2ab2cf952372d2c83e4cf805c7",
        "gas": "0x30231",
        "value": "0x5af3107a4000",
        "data": "0xe2bbb158000000000000000000000000000000000000000000000000000000746a52880002633dfc1603c197b9aeb53aaab88f39a61aba0379e11958d2c3bfbda3c1f8ae",
        "nonce": "0x2c9",
        "accessList": []
      },
      "additionalContracts": [],
      "isFixedGasLimit": false
    },
    {
      "hash": "0x1b5de220d5d26aefef380525cdba2c282c73b264793737e6273e3605177acb82",
      "transactionType": "CALL",
      "contractName": "Proxy",
      "contractAddress": "0xE2Bb56ee936fd6433DC0F6e7e3b8365C906AA057",
      "function": "sendMessageToL2(uint256,uint256,uint256[])",
      "arguments": [
        "1079971359331722808291730085398665951301511703680997097066074770824138717358",
        "425952401605428413817582304755919420533935873840436977667370850915372091056",
        "[0, 1265684623727634235329190328445374361672779121980, 2009894490435840142178314390393166646092438090257831307886760648929397478285, 2366254414417873771392932940469309727793822550615514268240785277201753657472, 170141183460469235273462165868118016, 1731502448, 1731502512, 500000000000]"
      ],
      "transaction": {
        "type": "0x02",
        "from": "0xddb342ecc94236c29a5307d3757d0724d759453c",
        "to": "0xe2bb56ee936fd6433dc0f6e7e3b8365c906aa057",
        "gas": "0x173c2",
        "value": "0x5af3107a4000",
        "data": "0x3e3aa6c502633dfc1603c197b9aeb53aaab88f39a61aba0379e11958d2c3bfbda3c1f8ae00f1149cade9d692862ad41df96b108aa2c20af34f640457e781d166c98dc6b0000000000000000000000000000000000000000000000000000000000000006000000000000000000000000000000000000000000000000000000000000000080000000000000000000000000000000000000000000000000000000000000000000000000000000000000000ddb342ecc94236c29a5307d3757d0724d759453c04718f5a0fc34cc1af16a1cdee98ffb20c31f5cd61d6ab07201858f4287c938d053b40a647cedfca6ca84f542a0fe36736031905a9639a7f19a3c1e66bfd5080000000000000000000000000000000000020c49ba5e353f80000000000000000000000000000000000000000000000000000000000000000000000006734a170000000000000000000000000000000000000000000000000000000006734a1b0000000000000000000000000000000000000000000000000000000746a528800",
        "nonce": "0x2ca",
        "accessList": []
      },
      "additionalContracts": [],
      "isFixedGasLimit": false
    }
  ],
  "receipts": [],
  "libraries": [],
  "pending": [
    "0x348eb507494178505b72449e72a5d4deb6291730a7882974e792fbb8cfa4a669",
    "0xc51c5c9b139ad57f7ae3ecf6f2dcf6ef507676f85f49cc93abae1c9b9eeb9524",
    "0xa69c1b6fe73d86f6b197984bd3d2eea5a51119d0e2467bbd03b326ef84464720",
    "0x1b5de220d5d26aefef380525cdba2c282c73b264793737e6273e3605177acb82"
  ],
  "returns": {},
  "timestamp": 1731502493,
  "chain": 11155111,
  "multi": false,
  "commit": "a4bf47e"
}