{
  "transactions": [
    {
      "hash": "0xec54a0e87c139f006e31aba69904d2bdec65e2ebd0b047a5ae356b197056e08d",
      "transactionType": "CALL",
      "contractName": "StarkNetToken",
      "contractAddress": "0xCa14007Eff0dB1f8135f4C25B34De49AB0d42766",
      "function": "approve(address,uint256)",
      "arguments": [
        "0x7eb4C59eABE1234E8A6D02FdF4d1BB595C4702Cd",
        "115792089237316195423570985008687907853269984665640564039457584007913129639935"
      ],
      "transaction": {
        "type": "0x02",
        "from": "0xddb342ecc94236c29a5307d3757d0724d759453c",
        "to": "0xca14007eff0db1f8135f4c25b34de49ab0d42766",
        "gas": "0x93a9",
        "value": "0x0",
        "data": "0x095ea7b30000000000000000000000007eb4c59eabe1234e8a6d02fdf4d1bb595c4702cdffffffffffffffffffffffffffffffffffffffffffffffffffffffffffffffff",
        "nonce": "0x37f",
        "accessList": []
      },
      "additionalContracts": [],
      "isFixedGasLimit": false
    },
    {
      "hash": "0xcb1632561c817fed11dbe1f27bfc6891fab67fc963b69b1709ea1f4c91366ca0",
      "transactionType": "CALL",
      "contractName": null,
      "contractAddress": "0x7eb4C59eABE1234E8A6D02FdF4d1BB595C4702Cd",
      "function": "setL2EndpointAddress(uint256)",
      "arguments": [
        "2886128985683437260314295438681623917506770676252250034839361525468561404177"
      ],
      "transaction": {
        "type": "0x02",
        "from": "0xddb342ecc94236c29a5307d3757d0724d759453c",
        "to": "0x7eb4c59eabe1234e8a6d02fdf4d1bb595c4702cd",
        "gas": "0xabab",
        "value": "0x0",
        "data": "0x5155fb2f06617db9da8edf0a341c0bfa66a62785beb9febe8a215b52aab169594ed7f111",
        "nonce": "0x380",
        "accessList": []
      },
      "additionalContracts": [],
      "isFixedGasLimit": false
    }
  ],
  "receipts": [],
  "libraries": [],
  "pending": [
    "0xec54a0e87c139f006e31aba69904d2bdec65e2ebd0b047a5ae356b197056e08d",
    "0xcb1632561c817fed11dbe1f27bfc6891fab67fc963b69b1709ea1f4c91366ca0"
  ],
  "returns": {},
  "timestamp": 1732658148,
  "chain": 11155111,
  "multi": false,
  "commit": "1254ada"
}