{
  "transactions": [
    {
      "hash": "0xbe15df986d300d5b0ee963e0bb3bcbdabff70000f2ed6e007be66fc4335f0cf7",
      "transactionType": "CALL",
      "contractName": null,
      "contractAddress": "0xca14007eff0db1f8135f4c25b34de49ab0d42766",
      "function": "approve(address,uint256)",
      "arguments": [
        "0xabcd70100c04F7aD20DDF425705c91AB2BeA4e56",
        "115792089237316195423570985008687907853269984665640564039457584007913129639935"
      ],
      "transaction": {
        "from": "0xddb342ecc94236c29a5307d3757d0724d759453c",
        "to": "0xca14007eff0db1f8135f4c25b34de49ab0d42766",
        "gas": "0x93a9",
        "value": "0x0",
        "input": "0x095ea7b3000000000000000000000000abcd70100c04f7ad20ddf425705c91ab2bea4e56ffffffffffffffffffffffffffffffffffffffffffffffffffffffffffffffff",
        "nonce": "0x529",
        "chainId": "0xaa36a7"
      },
      "additionalContracts": [],
      "isFixedGasLimit": false
    },
    {
      "hash": "0x5daad7e378841fdeb5f528853d8e4b283b0c1bee5e98150ccfd3b98bb0d584c3",
      "transactionType": "CALL",
      "contractName": null,
      "contractAddress": "0xabcd70100c04f7ad20ddf425705c91ab2bea4e56",
      "function": "setL2EndpointAddress(uint256)",
      "arguments": [
        "317992109532605666088532397923801128619695735836428311754951062151174980006"
      ],
      "transaction": {
        "from": "0xddb342ecc94236c29a5307d3757d0724d759453c",
        "to": "0xabcd70100c04f7ad20ddf425705c91ab2bea4e56",
        "gas": "0xabb8",
        "value": "0x0",
        "input": "0x5155fb2f00b3fa26e2af15dda3690ff437257057ad524115b00182928b60d213d50281a6",
        "nonce": "0x52a",
        "chainId": "0xaa36a7"
      },
      "additionalContracts": [],
      "isFixedGasLimit": false
    }
  ],
  "receipts": [
    {
      "status": "0x1",
      "cumulativeGasUsed": "0x1304639",
      "logs": [
        {
          "address": "0xca14007eff0db1f8135f4c25b34de49ab0d42766",
          "topics": [
            "0x8c5be1e5ebec7d5bd14f71427d1e84f3dd0314c0f7b2291e5b200ac8c7c3b925",
            "0x000000000000000000000000ddb342ecc94236c29a5307d3757d0724d759453c",
            "0x000000000000000000000000abcd70100c04f7ad20ddf425705c91ab2bea4e56"
          ],
          "data": "0xffffffffffffffffffffffffffffffffffffffffffffffffffffffffffffffff",
          "blockHash": "0x2e51b126fc44e32b3c36db7583526d200acc6ebcbf33a2c3038623dff2ee1e62",
          "blockNumber": "0x7310ba",
          "transactionHash": "0xbe15df986d300d5b0ee963e0bb3bcbdabff70000f2ed6e007be66fc4335f0cf7",
          "transactionIndex": "0x90",
          "logIndex": "0x12a",
          "removed": false
        }
      ],
      "logsBloom": "0x00000000010000000000100000000000000000000000000000000000000000000000000000000000000000000000000000000000000000000000000000200000000000000000000000000000000000000000000000000000000000000000000400000000000000000000000000000000400000000000000000000000400000000000000000000000000000000000000000000000000000000000000000000000020000000000000000000000000000000000000000000000000000000000000000000000000000020000000000000000000000000000000000800000000000000010000000001000000000000000000000000000001000000000000000000000",
      "type": "0x2",
      "transactionHash": "0xbe15df986d300d5b0ee963e0bb3bcbdabff70000f2ed6e007be66fc4335f0cf7",
      "transactionIndex": "0x90",
      "blockHash": "0x2e51b126fc44e32b3c36db7583526d200acc6ebcbf33a2c3038623dff2ee1e62",
      "blockNumber": "0x7310ba",
      "gasUsed": "0x6ae8",
      "effectiveGasPrice": "0x8051405a",
      "from": "0xddb342ecc94236c29a5307d3757d0724d759453c",
      "to": "0xca14007eff0db1f8135f4c25b34de49ab0d42766",
      "contractAddress": null
    },
    {
      "status": "0x1",
      "cumulativeGasUsed": "0x130bba4",
      "logs": [
        {
          "address": "0xabcd70100c04f7ad20ddf425705c91ab2bea4e56",
          "topics": [
            "0xa35dce9e53611b0cabca886209c4a1d09c80214af9b6fb6027f7b2f7c39838e8"
          ],
          "data": "0x00b3fa26e2af15dda3690ff437257057ad524115b00182928b60d213d50281a6",
          "blockHash": "0x2e51b126fc44e32b3c36db7583526d200acc6ebcbf33a2c3038623dff2ee1e62",
          "blockNumber": "0x7310ba",
          "transactionHash": "0x5daad7e378841fdeb5f528853d8e4b283b0c1bee5e98150ccfd3b98bb0d584c3",
          "transactionIndex": "0x91",
          "logIndex": "0x12b",
          "removed": false
        }
      ],
      "logsBloom": "0x00000000000000000020000010000000000000000000000000000000000000000000000000000000000000000000000000000000000000000000000000000000000000000000000000000000000200000000000000000000000800000000000000000000000000000000000000000000000000000000000000000000000000000000000000000000000000000000000000000000000000080000000000000000800000000000000000000000000000000000000000000000000000000000000000000000000000000000000000000000000000000000000000000000000000000000000000000000000000000000000000000000000000000000000000000000",
      "type": "0x2",
      "transactionHash": "0x5daad7e378841fdeb5f528853d8e4b283b0c1bee5e98150ccfd3b98bb0d584c3",
      "transactionIndex": "0x91",
      "blockHash": "0x2e51b126fc44e32b3c36db7583526d200acc6ebcbf33a2c3038623dff2ee1e62",
      "blockNumber": "0x7310ba",
      "gasUsed": "0x756b",
      "effectiveGasPrice": "0x8051405a",
      "from": "0xddb342ecc94236c29a5307d3757d0724d759453c",
      "to": "0xabcd70100c04f7ad20ddf425705c91ab2bea4e56",
      "contractAddress": null
    }
  ],
  "libraries": [],
  "pending": [],
  "returns": {},
  "timestamp": 1737475406,
  "chain": 11155111,
  "commit": "fcbff6b"
}