{
  "transactions": [
    {
      "hash": "0x33bd926546a4bb15bc5ff3e06605c513fd08b7eda47219777aeea8d5fa65e499",
      "transactionType": "CALL",
      "contractName": "FiatTokenProxy",
      "contractAddress": "0x1c7D4B196Cb0C7B01d743Fbc6116a902379C7238",
      "function": "approve(address,uint256)",
      "arguments": [
        "0xa3DC73197D315c4442cB13feE3e0F744b7134159",
        "115792089237316195423570985008687907853269984665640564039457584007913129639935"
      ],
      "transaction": {
        "type": "0x02",
        "from": "0xddb342ecc94236c29a5307d3757d0724d759453c",
        "to": "0x1c7d4b196cb0c7b01d743fbc6116a902379c7238",
        "gas": "0xc19d",
        "value": "0x0",
        "data": "0x095ea7b3000000000000000000000000a3dc73197d315c4442cb13fee3e0f744b7134159ffffffffffffffffffffffffffffffffffffffffffffffffffffffffffffffff",
        "nonce": "0x1e9",
        "accessList": []
      },
      "additionalContracts": [],
      "isFixedGasLimit": false
    },
    {
      "hash": "0xa6149e3077f7afc4e13c53f8924bbbc06b2285cb548de403b48d00080f30a306",
      "transactionType": "CALL",
      "contractName": "FiatTokenProxy",
      "contractAddress": "0x1c7D4B196Cb0C7B01d743Fbc6116a902379C7238",
      "function": "transfer(address,uint256)",
      "arguments": [
        "0xa3DC73197D315c4442cB13feE3e0F744b7134159",
        "100000"
      ],
      "transaction": {
        "type": "0x02",
        "from": "0xddb342ecc94236c29a5307d3757d0724d759453c",
        "to": "0x1c7d4b196cb0c7b01d743fbc6116a902379c7238",
        "gas": "0x1016a",
        "value": "0x0",
        "data": "0xa9059cbb000000000000000000000000a3dc73197d315c4442cb13fee3e0f744b713415900000000000000000000000000000000000000000000000000000000000186a0",
        "nonce": "0x1ea",
        "accessList": []
      },
      "additionalContracts": [],
      "isFixedGasLimit": false
    },
    {
      "hash": "0xca9df9c9c2ad3b2309e9c09de1966339b0e9053b1738c07acb29994421d8b1ba",
      "transactionType": "CALL",
      "contractName": "L1TWAMMBridge",
      "contractAddress": "0xa3DC73197D315c4442cB13feE3e0F744b7134159",
      "function": "depositAndCreateOrder((address,address,address,uint128,uint128,uint128,uint128,uint256))",
      "arguments": [
        "(0xDdb342ecc94236c29a5307d3757d0724D759453C, 0x1c7D4B196Cb0C7B01d743Fbc6116a902379C7238, 0x1c7D4B196Cb0C7B01d743Fbc6116a902379C7238, 1000000000000000, 1730892064, 1730892128, 100000, 5093101209752081908263379155413981236969401027842293477091139749565589248)"
      ],
      "transaction": {
        "type": "0x02",
        "from": "0xddb342ecc94236c29a5307d3757d0724d759453c",
        "to": "0xa3dc73197d315c4442cb13fee3e0f744b7134159",
        "gas": "0x3cc8e",
        "value": "0x38d7ea4c68000",
        "data": "0x9d251505000000000000000000000000ddb342ecc94236c29a5307d3757d0724d759453c0000000000000000000000001c7d4b196cb0c7b01d743fbc6116a902379c72380000000000000000000000001c7d4b196cb0c7b01d743fbc6116a902379c723800000000000000000000000000000000000000000000000000038d7ea4c6800000000000000000000000000000000000000000000000000000000000672b512000000000000000000000000000000000000000000000000000000000672b516000000000000000000000000000000000000000000000000000000000000186a00002e1f19f92be06e2b5980eeefd26f877ba9d52fa1da559681bbb5d823a6700",
        "nonce": "0x1eb",
        "accessList": []
      },
      "additionalContracts": [],
      "isFixedGasLimit": false
    }
  ],
  "receipts": [
    {
      "transactionHash": "0x33bd926546a4bb15bc5ff3e06605c513fd08b7eda47219777aeea8d5fa65e499",
      "transactionIndex": "0x8",
      "blockHash": "0x8e73628431e835286c684c3bd5dc9d48e26092bc4b99832f262b323c28c57acb",
      "blockNumber": "0x6b2a55",
      "from": "0xDdb342ecc94236c29a5307d3757d0724D759453C",
      "to": "0x1c7D4B196Cb0C7B01d743Fbc6116a902379C7238",
      "cumulativeGasUsed": "0x89bc1",
      "gasUsed": "0x8c2d",
      "contractAddress": null,
      "logs": [
        {
          "address": "0x1c7D4B196Cb0C7B01d743Fbc6116a902379C7238",
          "topics": [
            "0x8c5be1e5ebec7d5bd14f71427d1e84f3dd0314c0f7b2291e5b200ac8c7c3b925",
            "0x000000000000000000000000ddb342ecc94236c29a5307d3757d0724d759453c",
            "0x000000000000000000000000a3dc73197d315c4442cb13fee3e0f744b7134159"
          ],
          "data": "0xffffffffffffffffffffffffffffffffffffffffffffffffffffffffffffffff",
          "blockHash": "0x8e73628431e835286c684c3bd5dc9d48e26092bc4b99832f262b323c28c57acb",
          "blockNumber": "0x6b2a55",
          "transactionHash": "0x33bd926546a4bb15bc5ff3e06605c513fd08b7eda47219777aeea8d5fa65e499",
          "transactionIndex": "0x8",
          "logIndex": "0xa",
          "removed": false
        }
      ],
      "status": "0x1",
      "logsBloom": "0x00002000000000000000000000000000000000000000000000000000000200000000100000000000000000000000000000000000000000000000000000200000000000000000000000000000000000000000000000000000000000000000000400000000000000000000000000000000400000000000000000000000400000000000000000100000000000000000800000000000000000000000000000000000020000000000000000000000000000000000000000000000000000000000000000000000000000000000000000000000000000000000000000000000000000000010000000000000000010000000000000000000000000000000000000000000",
      "type": "0x2",
      "effectiveGasPrice": "0xdb1931f6d"
    },
    {
      "transactionHash": "0xa6149e3077f7afc4e13c53f8924bbbc06b2285cb548de403b48d00080f30a306",
      "transactionIndex": "0x9",
      "blockHash": "0x8e73628431e835286c684c3bd5dc9d48e26092bc4b99832f262b323c28c57acb",
      "blockNumber": "0x6b2a55",
      "from": "0xDdb342ecc94236c29a5307d3757d0724D759453C",
      "to": "0x1c7D4B196Cb0C7B01d743Fbc6116a902379C7238",
      "cumulativeGasUsed": "0x94bc4",
      "gasUsed": "0xb003",
      "contractAddress": null,
      "logs": [
        {
          "address": "0x1c7D4B196Cb0C7B01d743Fbc6116a902379C7238",
          "topics": [
            "0xddf252ad1be2c89b69c2b068fc378daa952ba7f163c4a11628f55a4df523b3ef",
            "0x000000000000000000000000ddb342ecc94236c29a5307d3757d0724d759453c",
            "0x000000000000000000000000a3dc73197d315c4442cb13fee3e0f744b7134159"
          ],
          "data": "0x00000000000000000000000000000000000000000000000000000000000186a0",
          "blockHash": "0x8e73628431e835286c684c3bd5dc9d48e26092bc4b99832f262b323c28c57acb",
          "blockNumber": "0x6b2a55",
          "transactionHash": "0xa6149e3077f7afc4e13c53f8924bbbc06b2285cb548de403b48d00080f30a306",
          "transactionIndex": "0x9",
          "logIndex": "0xb",
          "removed": false
        }
      ],
      "status": "0x1",
      "logsBloom": "0x00002000000000000000000000000000000000000000000000000000000200000000100000000000000000000000000000000000000000000000000000000000000000000000000000000008000000000000000000000000000000000000000400000000000000000000000000000000400000000000000000000010400000000000000000100000000000000000800000000000000000000000000000000000000000000000000000000000000000000000000000000000000000000000000000000002000000000000000000000000000000000000000000000000000000000000000000000000000010000000000000000000000000000000000000000000",
      "type": "0x2",
      "effectiveGasPrice": "0xdb1931f6d"
    },
    {
      "transactionHash": "0xca9df9c9c2ad3b2309e9c09de1966339b0e9053b1738c07acb29994421d8b1ba",
      "transactionIndex": "0xa",
      "blockHash": "0x8e73628431e835286c684c3bd5dc9d48e26092bc4b99832f262b323c28c57acb",
      "blockNumber": "0x6b2a55",
      "from": "0xDdb342ecc94236c29a5307d3757d0724D759453C",
      "to": "0xa3DC73197D315c4442cB13feE3e0F744b7134159",
      "cumulativeGasUsed": "0xc0757",
      "gasUsed": "0x2bb93",
      "contractAddress": null,
      "logs": [
        {
          "address": "0x1c7D4B196Cb0C7B01d743Fbc6116a902379C7238",
          "topics": [
            "0xddf252ad1be2c89b69c2b068fc378daa952ba7f163c4a11628f55a4df523b3ef",
            "0x000000000000000000000000ddb342ecc94236c29a5307d3757d0724d759453c",
            "0x000000000000000000000000a3dc73197d315c4442cb13fee3e0f744b7134159"
          ],
          "data": "0x00000000000000000000000000000000000000000000000000000000000186a0",
          "blockHash": "0x8e73628431e835286c684c3bd5dc9d48e26092bc4b99832f262b323c28c57acb",
          "blockNumber": "0x6b2a55",
          "transactionHash": "0xca9df9c9c2ad3b2309e9c09de1966339b0e9053b1738c07acb29994421d8b1ba",
          "transactionIndex": "0xa",
          "logIndex": "0xc",
          "removed": false
        },
        {
          "address": "0x1c7D4B196Cb0C7B01d743Fbc6116a902379C7238",
          "topics": [
            "0x8c5be1e5ebec7d5bd14f71427d1e84f3dd0314c0f7b2291e5b200ac8c7c3b925",
            "0x000000000000000000000000a3dc73197d315c4442cb13fee3e0f744b7134159",
            "0x00000000000000000000000086dc0b32a5045ffa48d9a60b7e7ca32f11facd7b"
          ],
          "data": "0x0000000000000000000000000000000000000000000000000000000000000000",
          "blockHash": "0x8e73628431e835286c684c3bd5dc9d48e26092bc4b99832f262b323c28c57acb",
          "blockNumber": "0x6b2a55",
          "transactionHash": "0xca9df9c9c2ad3b2309e9c09de1966339b0e9053b1738c07acb29994421d8b1ba",
          "transactionIndex": "0xa",
          "logIndex": "0xd",
          "removed": false
        },
        {
          "address": "0x1c7D4B196Cb0C7B01d743Fbc6116a902379C7238",
          "topics": [
            "0x8c5be1e5ebec7d5bd14f71427d1e84f3dd0314c0f7b2291e5b200ac8c7c3b925",
            "0x000000000000000000000000a3dc73197d315c4442cb13fee3e0f744b7134159",
            "0x00000000000000000000000086dc0b32a5045ffa48d9a60b7e7ca32f11facd7b"
          ],
          "data": "0x00000000000000000000000000000000000000000000000000000000000186a0",
          "blockHash": "0x8e73628431e835286c684c3bd5dc9d48e26092bc4b99832f262b323c28c57acb",
          "blockNumber": "0x6b2a55",
          "transactionHash": "0xca9df9c9c2ad3b2309e9c09de1966339b0e9053b1738c07acb29994421d8b1ba",
          "transactionIndex": "0xa",
          "logIndex": "0xe",
          "removed": false
        },
        {
          "address": "0x1c7D4B196Cb0C7B01d743Fbc6116a902379C7238",
          "topics": [
            "0xddf252ad1be2c89b69c2b068fc378daa952ba7f163c4a11628f55a4df523b3ef",
            "0x000000000000000000000000a3dc73197d315c4442cb13fee3e0f744b7134159",
            "0x00000000000000000000000086dc0b32a5045ffa48d9a60b7e7ca32f11facd7b"
          ],
          "data": "0x00000000000000000000000000000000000000000000000000000000000186a0",
          "blockHash": "0x8e73628431e835286c684c3bd5dc9d48e26092bc4b99832f262b323c28c57acb",
          "blockNumber": "0x6b2a55",
          "transactionHash": "0xca9df9c9c2ad3b2309e9c09de1966339b0e9053b1738c07acb29994421d8b1ba",
          "transactionIndex": "0xa",
          "logIndex": "0xf",
          "removed": false
        },
        {
          "address": "0xE2Bb56ee936fd6433DC0F6e7e3b8365C906AA057",
          "topics": [
            "0xdb80dd488acf86d17c747445b0eabb5d57c541d3bd7b6b87af987858e5066b2b",
            "0x00000000000000000000000086dc0b32a5045ffa48d9a60b7e7ca32f11facd7b",
            "0x0028729b12ce1140cbc1e7cbc7245455d3c15fa0c7f5d2e9fc8e0441567f6b50",
            "0x008bce41827dd5484d80312a2e43bc42a896e3fcf75bf84c2b49339168dfa00a"
          ],
          "data": "0x0000000000000000000000000000000000000000000000000000000000000060000000000000000000000000000000000000000000000000000000000000276100000000000000000000000000000000000000000000000000038d7ea4c68000000000000000000000000000000000000000000000000000000000000000000d0000000000000000000000001c7d4b196cb0c7b01d743fbc6116a902379c7238000000000000000000000000a3dc73197d315c4442cb13fee3e0f744b71341590002e1f19f92be06e2b5980eeefd26f877ba9d52fa1da559681bbb5d823a670000000000000000000000000000000000000000000000000000000000000186a0000000000000000000000000000000000000000000000000000000000000000000000000000000000000000000000000000000000000000000000000000000070000000000000000000000000000000000000000000000000000000000000000000000000000000000000000ddb342ecc94236c29a5307d3757d0724d759453c0000000000000000000000001c7d4b196cb0c7b01d743fbc6116a902379c72380000000000000000000000001c7d4b196cb0c7b01d743fbc6116a902379c723800000000000000000000000000000000000000000000000000038d7ea4c6800000000000000000000000000000000000000000000000000000000000672b512000000000000000000000000000000000000000000000000000000000672b5160",
          "blockHash": "0x8e73628431e835286c684c3bd5dc9d48e26092bc4b99832f262b323c28c57acb",
          "blockNumber": "0x6b2a55",
          "transactionHash": "0xca9df9c9c2ad3b2309e9c09de1966339b0e9053b1738c07acb29994421d8b1ba",
          "transactionIndex": "0xa",
          "logIndex": "0x10",
          "removed": false
        },
        {
          "address": "0x86dC0B32a5045FFa48D9a60B7e7Ca32F11faCd7B",
          "topics": [
            "0x2203a49c69f1a46c1164f5e4a30643dd77b7c59c0ff9bc433256048365c247f1",
            "0x000000000000000000000000a3dc73197d315c4442cb13fee3e0f744b7134159",
            "0x0000000000000000000000001c7d4b196cb0c7b01d743fbc6116a902379c7238",
            "0x0002e1f19f92be06e2b5980eeefd26f877ba9d52fa1da559681bbb5d823a6700"
          ],
          "data": "0x00000000000000000000000000000000000000000000000000000000000186a00000000000000000000000000000000000000000000000000000000000000080000000000000000000000000000000000000000000000000000000000000276100000000000000000000000000000000000000000000000000038d7ea4c6800000000000000000000000000000000000000000000000000000000000000000070000000000000000000000000000000000000000000000000000000000000000000000000000000000000000ddb342ecc94236c29a5307d3757d0724d759453c0000000000000000000000001c7d4b196cb0c7b01d743fbc6116a902379c72380000000000000000000000001c7d4b196cb0c7b01d743fbc6116a902379c723800000000000000000000000000000000000000000000000000038d7ea4c6800000000000000000000000000000000000000000000000000000000000672b512000000000000000000000000000000000000000000000000000000000672b5160",
          "blockHash": "0x8e73628431e835286c684c3bd5dc9d48e26092bc4b99832f262b323c28c57acb",
          "blockNumber": "0x6b2a55",
          "transactionHash": "0xca9df9c9c2ad3b2309e9c09de1966339b0e9053b1738c07acb29994421d8b1ba",
          "transactionIndex": "0xa",
          "logIndex": "0x11",
          "removed": false
        },
        {
          "address": "0xa3DC73197D315c4442cB13feE3e0F744b7134159",
          "topics": [
            "0xaf43445f7721522b7a3864ed3de53d7e2e658bfa1eeffa18e1e229be68ce2545",
            "0x000000000000000000000000ddb342ecc94236c29a5307d3757d0724d759453c",
            "0x0002e1f19f92be06e2b5980eeefd26f877ba9d52fa1da559681bbb5d823a6700"
          ],
          "data": "0x00000000000000000000000000000000000000000000000000000000000186a00000000000000000000000000000000000000000000000000000000000000001",
          "blockHash": "0x8e73628431e835286c684c3bd5dc9d48e26092bc4b99832f262b323c28c57acb",
          "blockNumber": "0x6b2a55",
          "transactionHash": "0xca9df9c9c2ad3b2309e9c09de1966339b0e9053b1738c07acb29994421d8b1ba",
          "transactionIndex": "0xa",
          "logIndex": "0x12",
          "removed": false
        }
      ],
      "status": "0x1",
      "logsBloom": "0x00002200000000000000000000020000000000000000000000000040000200000000100000000000000000000000000000000000000004000000420000200000100000000000000000000008000000000000000000000040001000000000000600000000100000000000000000000800400200000000000000000210400080000000000080102000000000020004800000008000000000000000000000000010020000800000000000000020000000021000008000000000000002000000000000800002000020000000000020000000000000000000000000000000000000000010008020000000000010000000008000000000000000000000000000000000",
      "type": "0x2",
      "effectiveGasPrice": "0xdb1931f6d"
    }
  ],
  "libraries": [],
  "pending": [],
  "returns": {},
  "timestamp": 1730892123,
  "chain": 11155111,
  "multi": false,
  "commit": "9e60aff"
}