{
  "transactions": [
    {
      "hash": "0x444085e69fae9b5c267ab65f440c96de6418ebc12307084083d7846dcd7c86f6",
      "transactionType": "CALL",
      "contractName": null,
      "contractAddress": "0xca14007eff0db1f8135f4c25b34de49ab0d42766",
      "function": "approve(address,uint256)",
      "arguments": [
        "0x17ceB8Da41205f1026241766328751884Afa7FE8",
        "115792089237316195423570985008687907853269984665640564039457584007913129639935"
      ],
      "transaction": {
        "from": "0xddb342ecc94236c29a5307d3757d0724d759453c",
        "to": "0xca14007eff0db1f8135f4c25b34de49ab0d42766",
        "gas": "0x93a9",
        "value": "0x0",
        "input": "0x095ea7b300000000000000000000000017ceb8da41205f1026241766328751884afa7fe8ffffffffffffffffffffffffffffffffffffffffffffffffffffffffffffffff",
        "nonce": "0x504",
        "chainId": "0xaa36a7"
      },
      "additionalContracts": [],
      "isFixedGasLimit": false
    },
    {
      "hash": "0x188266ccd46364d492039e6d25dddb52dd80dfb45fa4051b7051cde694362d71",
      "transactionType": "CALL",
      "contractName": null,
      "contractAddress": "0x17ceb8da41205f1026241766328751884afa7fe8",
      "function": "setL2EndpointAddress(uint256)",
      "arguments": [
        "895727104987828809162429241625736935916774918917144689929620246848995005226"
      ],
      "transaction": {
        "from": "0xddb342ecc94236c29a5307d3757d0724d759453c",
        "to": "0x17ceb8da41205f1026241766328751884afa7fe8",
        "gas": "0xa23f",
        "value": "0x0",
        "input": "0x5155fb2f01faf6acdf200ef465ed828e948e626c1b063707810b4702e3197b8ac9eb132a",
        "nonce": "0x505",
        "chainId": "0xaa36a7"
      },
      "additionalContracts": [],
      "isFixedGasLimit": false
    }
  ],
  "receipts": [
    {
      "status": "0x1",
      "cumulativeGasUsed": "0x1763984",
      "logs": [
        {
          "address": "0xca14007eff0db1f8135f4c25b34de49ab0d42766",
          "topics": [
            "0x8c5be1e5ebec7d5bd14f71427d1e84f3dd0314c0f7b2291e5b200ac8c7c3b925",
            "0x000000000000000000000000ddb342ecc94236c29a5307d3757d0724d759453c",
            "0x00000000000000000000000017ceb8da41205f1026241766328751884afa7fe8"
          ],
          "data": "0xffffffffffffffffffffffffffffffffffffffffffffffffffffffffffffffff",
          "blockHash": "0xaf960cd38a0f2ca8203308d6b558f27f1cf10c61b2d7892a25992d77ff38f958",
          "blockNumber": "0x730a92",
          "transactionHash": "0x444085e69fae9b5c267ab65f440c96de6418ebc12307084083d7846dcd7c86f6",
          "transactionIndex": "0x88",
          "logIndex": "0x130",
          "removed": false
        }
      ],
      "logsBloom": "0x00000000000000000000000000000000000000000000000000000000000000000000000000000000000000000800000000000000000000000000000000200000000000000000000000000000000000000000000000000000000000000000000400000000000000000000000000000000400000000000000000000000400000000000000000000000000000000000000000000000000000000000000000000000020000000000000000000000000000000000000000000000000000000000000000000000000000020000000000000000020000000000000000800000000000000010000000400000000000000000000000000000001000000000000000000000",
      "type": "0x2",
      "transactionHash": "0x444085e69fae9b5c267ab65f440c96de6418ebc12307084083d7846dcd7c86f6",
      "transactionIndex": "0x88",
      "blockHash": "0xaf960cd38a0f2ca8203308d6b558f27f1cf10c61b2d7892a25992d77ff38f958",
      "blockNumber": "0x730a92",
      "gasUsed": "0x6ae8",
      "effectiveGasPrice": "0xa30a208b",
      "from": "0xddb342ecc94236c29a5307d3757d0724d759453c",
      "to": "0xca14007eff0db1f8135f4c25b34de49ab0d42766",
      "contractAddress": null
    },
    {
      "status": "0x1",
      "cumulativeGasUsed": "0x176aefb",
      "logs": [
        {
          "address": "0x17ceb8da41205f1026241766328751884afa7fe8",
          "topics": [
            "0xa35dce9e53611b0cabca886209c4a1d09c80214af9b6fb6027f7b2f7c39838e8"
          ],
          "data": "0x01faf6acdf200ef465ed828e948e626c1b063707810b4702e3197b8ac9eb132a",
          "blockHash": "0xaf960cd38a0f2ca8203308d6b558f27f1cf10c61b2d7892a25992d77ff38f958",
          "blockNumber": "0x730a92",
          "transactionHash": "0x188266ccd46364d492039e6d25dddb52dd80dfb45fa4051b7051cde694362d71",
          "transactionIndex": "0x89",
          "logIndex": "0x131",
          "removed": false
        }
      ],
      "logsBloom": "0x00000000000000000000000010000000000000000000000000000000000000000000000000000000000000000000000000000000000000000000000000000000000000000000000000000000000200000000000000000000000000000000000000000000000000000000000000000000000000000000000000000000000000000000000000000000000000000000000000000000000000000000000000000000800000000000000000000000000000000000000004000000000000000000002800000000000000000000000000000000000000000000000000000000000000000000000000000000000000000000000000000000000000000000000000000000",
      "type": "0x2",
      "transactionHash": "0x188266ccd46364d492039e6d25dddb52dd80dfb45fa4051b7051cde694362d71",
      "transactionIndex": "0x89",
      "blockHash": "0xaf960cd38a0f2ca8203308d6b558f27f1cf10c61b2d7892a25992d77ff38f958",
      "blockNumber": "0x730a92",
      "gasUsed": "0x7577",
      "effectiveGasPrice": "0xa30a208b",
      "from": "0xddb342ecc94236c29a5307d3757d0724d759453c",
      "to": "0x17ceb8da41205f1026241766328751884afa7fe8",
      "contractAddress": null
    }
  ],
  "libraries": [],
  "pending": [],
  "returns": {},
  "timestamp": 1737456494,
  "chain": 11155111,
  "commit": "fcbff6b"
}