{
  "transactions": [
    {
      "hash": "0xaf34d8c242d1f6e57e248b9c66e7f752398f8e4bc842710018b9cbd4a1a138b1",
      "transactionType": "CALL",
      "contractName": "StarkNetToken",
      "contractAddress": "0xCa14007Eff0dB1f8135f4C25B34De49AB0d42766",
      "function": "approve(address,uint256)",
      "arguments": [
        "0x7eb4C59eABE1234E8A6D02FdF4d1BB595C4702Cd",
        "115792089237316195423570985008687907853269984665640564039457584007913129639935"
      ],
      "transaction": {
        "type": "0x02",
        "from": "0xddb342ecc94236c29a5307d3757d0724d759453c",
        "to": "0xca14007eff0db1f8135f4c25b34de49ab0d42766",
        "gas": "0x93a9",
        "value": "0x0",
        "data": "0x095ea7b30000000000000000000000007eb4c59eabe1234e8a6d02fdf4d1bb595c4702cdffffffffffffffffffffffffffffffffffffffffffffffffffffffffffffffff",
        "nonce": "0x362",
        "accessList": []
      },
      "additionalContracts": [],
      "isFixedGasLimit": false
    },
    {
      "hash": "0x50877ddee69d104906e6655f37e098392453f543758cc1cf24160fd7092a8bc7",
      "transactionType": "CALL",
      "contractName": null,
      "contractAddress": "0x7eb4C59eABE1234E8A6D02FdF4d1BB595C4702Cd",
      "function": "setL2EndpointAddress(uint256)",
      "arguments": [
        "2879875340837536213011855770562966970737820331716732077869784715739353037478"
      ],
      "transaction": {
        "type": "0x02",
        "from": "0xddb342ecc94236c29a5307d3757d0724d759453c",
        "to": "0x7eb4c59eabe1234e8a6d02fdf4d1bb595c4702cd",
        "gas": "0xabab",
        "value": "0x0",
        "data": "0x5155fb2f065df3a14644130f41d7f540ecf2ecd94dd42a874e73136eda5774f3d65fbaa6",
        "nonce": "0x363",
        "accessList": []
      },
      "additionalContracts": [],
      "isFixedGasLimit": false
    }
  ],
  "receipts": [
    {
      "transactionHash": "0xaf34d8c242d1f6e57e248b9c66e7f752398f8e4bc842710018b9cbd4a1a138b1",
      "transactionIndex": "0x3",
      "blockHash": "0x722b13c89f936d7b40a77248b33671c3d99942344eeda0859e63d6ca60c666b2",
      "blockNumber": "0x6d35b6",
      "from": "0xDdb342ecc94236c29a5307d3757d0724D759453C",
      "to": "0xCa14007Eff0dB1f8135f4C25B34De49AB0d42766",
      "cumulativeGasUsed": "0xdc6bd",
      "gasUsed": "0x6ae8",
      "contractAddress": null,
      "logs": [
        {
          "address": "0xCa14007Eff0dB1f8135f4C25B34De49AB0d42766",
          "topics": [
            "0x8c5be1e5ebec7d5bd14f71427d1e84f3dd0314c0f7b2291e5b200ac8c7c3b925",
            "0x000000000000000000000000ddb342ecc94236c29a5307d3757d0724d759453c",
            "0x0000000000000000000000007eb4c59eabe1234e8a6d02fdf4d1bb595c4702cd"
          ],
          "data": "0xffffffffffffffffffffffffffffffffffffffffffffffffffffffffffffffff",
          "blockHash": "0x722b13c89f936d7b40a77248b33671c3d99942344eeda0859e63d6ca60c666b2",
          "blockNumber": "0x6d35b6",
          "transactionHash": "0xaf34d8c242d1f6e57e248b9c66e7f752398f8e4bc842710018b9cbd4a1a138b1",
          "transactionIndex": "0x3",
          "logIndex": "0x4",
          "removed": false
        }
      ],
      "status": "0x1",
      "logsBloom": "0x00000000000000100000000000000000000000000000000000000000000000000000000000000000000000000000000000000000000000000000000000200000000000000000000000000000000000000000000000000000000000000000000400020000000000000000000000000000400000000000000000000000400000000000000000000000000000000000000000000000000000000000000000000000020000000000000000000000000000008000000000000000000000000000000000000000000000020000000000000000000000000000000000800000000000000010000000000000000000000000000000000000001000000000000000000000",
      "type": "0x2",
      "effectiveGasPrice": "0x26c8819f6"
    },
    {
      "transactionHash": "0x50877ddee69d104906e6655f37e098392453f543758cc1cf24160fd7092a8bc7",
      "transactionIndex": "0x4",
      "blockHash": "0x722b13c89f936d7b40a77248b33671c3d99942344eeda0859e63d6ca60c666b2",
      "blockNumber": "0x6d35b6",
      "from": "0xDdb342ecc94236c29a5307d3757d0724D759453C",
      "to": "0x7eb4C59eABE1234E8A6D02FdF4d1BB595C4702Cd",
      "cumulativeGasUsed": "0xe3c1f",
      "gasUsed": "0x7562",
      "contractAddress": null,
      "logs": [
        {
          "address": "0x7eb4C59eABE1234E8A6D02FdF4d1BB595C4702Cd",
          "topics": [
            "0xa35dce9e53611b0cabca886209c4a1d09c80214af9b6fb6027f7b2f7c39838e8"
          ],
          "data": "0x065df3a14644130f41d7f540ecf2ecd94dd42a874e73136eda5774f3d65fbaa6",
          "blockHash": "0x722b13c89f936d7b40a77248b33671c3d99942344eeda0859e63d6ca60c666b2",
          "blockNumber": "0x6d35b6",
          "transactionHash": "0x50877ddee69d104906e6655f37e098392453f543758cc1cf24160fd7092a8bc7",
          "transactionIndex": "0x4",
          "logIndex": "0x5",
          "removed": false
        }
      ],
      "status": "0x1",
      "logsBloom": "0x00000000000000000000000010000000000000000000000000000000000000000000000000000000000000000000000000000000000000200000000000000000000000000000000000000000000200000000000000000000000000000000000000000000000000000000000000000000000000000000000000000001000000000000000000000000000000000000000000000000000000000000000000000000800000000000000000000000000000200000000000000000000000000000000000000000000000000000000000000000000000000000000000000000000000000000000000000000000000000000000000000000000000000000000000000000",
      "type": "0x2",
      "effectiveGasPrice": "0x26c8819f6"
    }
  ],
  "libraries": [],
  "pending": [],
  "returns": {},
  "timestamp": 1732633574,
  "chain": 11155111,
  "multi": false,
  "commit": "1254ada"
}