{
  "transactions": [
    {
      "hash": "0x4d1bc53067a1c4d380551422d812316a7594e43adfe0cc1674f0354816a22df6",
      "transactionType": "CALL",
      "contractName": "StarkNetToken",
      "contractAddress": "0xCa14007Eff0dB1f8135f4C25B34De49AB0d42766",
      "function": "approve(address,uint256)",
      "arguments": [
        "0x21F62Fe4A17d397f84ED53c99E0C9Ae694758685",
        "115792089237316195423570985008687907853269984665640564039457584007913129639935"
      ],
      "transaction": {
        "type": "0x02",
        "from": "0xddb342ecc94236c29a5307d3757d0724d759453c",
        "to": "0xca14007eff0db1f8135f4c25b34de49ab0d42766",
        "gas": "0x93a9",
        "value": "0x0",
        "data": "0x095ea7b300000000000000000000000021f62fe4a17d397f84ed53c99e0c9ae694758685ffffffffffffffffffffffffffffffffffffffffffffffffffffffffffffffff",
        "nonce": "0x30e",
        "accessList": []
      },
      "additionalContracts": [],
      "isFixedGasLimit": false
    },
    {
      "hash": "0xc3d81e723a2f2a5b0ccd332310940caf4a5ee8165f8e96327a6facdab33e77b2",
      "transactionType": "CALL",
      "contractName": "StarkNetToken",
      "contractAddress": "0xCa14007Eff0dB1f8135f4C25B34De49AB0d42766",
      "function": "transfer(address,uint256)",
      "arguments": [
        "0x21F62Fe4A17d397f84ED53c99E0C9Ae694758685",
        "500000"
      ],
      "transaction": {
        "type": "0x02",
        "from": "0xddb342ecc94236c29a5307d3757d0724d759453c",
        "to": "0xca14007eff0db1f8135f4c25b34de49ab0d42766",
        "gas": "0xd748",
        "value": "0x0",
        "data": "0xa9059cbb00000000000000000000000021f62fe4a17d397f84ed53c99e0c9ae694758685000000000000000000000000000000000000000000000000000000000007a120",
        "nonce": "0x30f",
        "accessList": []
      },
      "additionalContracts": [],
      "isFixedGasLimit": false
    },
    {
      "hash": "0x5a48ab813cdced1b5b294e7ec50295522174db51cef3a21b7b7e9ddc0b750a1b",
      "transactionType": "CALL",
      "contractName": "Proxy",
      "contractAddress": "0xE2Bb56ee936fd6433DC0F6e7e3b8365C906AA057",
      "function": "sendMessageToL2(uint256,uint256,uint256[])",
      "arguments": [
        "607667314874542674894384119965969097320255432226437520988012314133551790747",
        "425952401605428413817582304755919420533935873840436977667370850915372091056",
        "[2, 1265684623727634235329190328445374361672779121980, 0, 162645876805862407557836451532389263558424949304, 0, 0, 0, 500000, 71464862446795365217720544277772031240001191377943331145224330416284986192]"
      ],
      "transaction": {
        "type": "0x02",
        "from": "0xddb342ecc94236c29a5307d3757d0724d759453c",
        "to": "0xe2bb56ee936fd6433dc0f6e7e3b8365c906aa057",
        "gas": "0x15f7a",
        "value": "0x38d7ea4c68000",
        "data": "0x3e3aa6c50157ed716b46719b791498243b6d9305c0225ea0df8e734fb0fec71484023a9b00f1149cade9d692862ad41df96b108aa2c20af34f640457e781d166c98dc6b0000000000000000000000000000000000000000000000000000000000000006000000000000000000000000000000000000000000000000000000000000000090000000000000000000000000000000000000000000000000000000000000002000000000000000000000000ddb342ecc94236c29a5307d3757d0724d759453c00000000000000000000000000000000000000000000000000000000000000000000000000000000000000001c7d4b196cb0c7b01d743fbc6116a902379c7238000000000000000000000000000000000000000000000000000000000000000000000000000000000000000000000000000000000000000000000000000000000000000000000000000000000000000000000000000000000000000000000000000000000000000000000000000000000000000000000000000000000007a1200028729b12ce1140cbc1e7cbc7245455d3c15fa0c7f5d2e9fc8e0441567f6b50",
        "nonce": "0x310",
        "accessList": []
      },
      "additionalContracts": [],
      "isFixedGasLimit": false
    }
  ],
  "receipts": [],
  "libraries": [],
  "pending": [
    "0x4d1bc53067a1c4d380551422d812316a7594e43adfe0cc1674f0354816a22df6",
    "0xc3d81e723a2f2a5b0ccd332310940caf4a5ee8165f8e96327a6facdab33e77b2",
    "0x5a48ab813cdced1b5b294e7ec50295522174db51cef3a21b7b7e9ddc0b750a1b"
  ],
  "returns": {},
  "timestamp": 1731689377,
  "chain": 11155111,
  "multi": false,
  "commit": "945f7f2"
}