{
  "transactions": [
    {
      "hash": "0xdd0722f20d0e214ac2403732e8d4cd0e94be9881e86eca019c88235ac4f464a0",
      "transactionType": "CALL",
      "contractName": null,
      "contractAddress": "0x17ceb8da41205f1026241766328751884afa7fe8",
      "function": "setL2EndpointAddress(uint256)",
      "arguments": [
        "3603286522628348846287448082418031106768078204170716810180907894571395917633"
      ],
      "transaction": {
        "from": "0xddb342ecc94236c29a5307d3757d0724d759453c",
        "to": "0x17ceb8da41205f1026241766328751884afa7fe8",
        "gas": "0xabb8",
        "value": "0x0",
        "input": "0x5155fb2f07f7634d530030231a04892601d83bbc79defee8145d116d18fc4978e21f2741",
        "nonce": "0x510",
        "chainId": "0xaa36a7"
      },
      "additionalContracts": [],
      "isFixedGasLimit": false
    }
  ],
  "receipts": [
    {
      "status": "0x1",
      "cumulativeGasUsed": "0xa69d38",
      "logs": [
        {
          "address": "0x17ceb8da41205f1026241766328751884afa7fe8",
          "topics": [
            "0xa35dce9e53611b0cabca886209c4a1d09c80214af9b6fb6027f7b2f7c39838e8"
          ],
          "data": "0x07f7634d530030231a04892601d83bbc79defee8145d116d18fc4978e21f2741",
          "blockHash": "0xf36aa9492ab6ffba40a9b712cfd656f74c633dfc8196b719a545a018a0448862",
          "blockNumber": "0x730d9c",
          "transactionHash": "0xdd0722f20d0e214ac2403732e8d4cd0e94be9881e86eca019c88235ac4f464a0",
          "transactionIndex": "0x51",
          "logIndex": "0xaa",
          "removed": false
        }
      ],
      "logsBloom": "0x00000000000000000000000010000000000000000000000000000000000000000000000000000000000000000000000000000000000000000000000000000000000000000000000000000000000200000000000000000000000000000000000000000000000000000000000000000000000000000000000000000000000000000000000000000000000000000000000000000000000000000000000000000000800000000000000000000000000000000000000004000000000000000000002800000000000000000000000000000000000000000000000000000000000000000000000000000000000000000000000000000000000000000000000000000000",
      "type": "0x2",
      "transactionHash": "0xdd0722f20d0e214ac2403732e8d4cd0e94be9881e86eca019c88235ac4f464a0",
      "transactionIndex": "0x51",
      "blockHash": "0xf36aa9492ab6ffba40a9b712cfd656f74c633dfc8196b719a545a018a0448862",
      "blockNumber": "0x730d9c",
      "gasUsed": "0x756b",
      "effectiveGasPrice": "0xd02eca94",
      "from": "0xddb342ecc94236c29a5307d3757d0724d759453c",
      "to": "0x17ceb8da41205f1026241766328751884afa7fe8",
      "contractAddress": null
    }
  ],
  "libraries": [],
  "pending": [],
  "returns": {},
  "timestamp": 1737465829,
  "chain": 11155111,
  "commit": "fcbff6b"
}