{
  "transactions": [
    {
      "hash": "0xcafff543619613f1c634a585ff7bf24fe3e34f9eb60e84fd0e35369cd542f95e",
      "transactionType": "CALL",
      "contractName": "StarkNetToken",
      "contractAddress": "0xCa14007Eff0dB1f8135f4C25B34De49AB0d42766",
      "function": "approve(address,uint256)",
      "arguments": [
        "0x7eb4C59eABE1234E8A6D02FdF4d1BB595C4702Cd",
        "115792089237316195423570985008687907853269984665640564039457584007913129639935"
      ],
      "transaction": {
        "type": "0x02",
        "from": "0xddb342ecc94236c29a5307d3757d0724d759453c",
        "to": "0xca14007eff0db1f8135f4c25b34de49ab0d42766",
        "gas": "0x93a9",
        "value": "0x0",
        "data": "0x095ea7b30000000000000000000000007eb4c59eabe1234e8a6d02fdf4d1bb595c4702cdffffffffffffffffffffffffffffffffffffffffffffffffffffffffffffffff",
        "nonce": "0x38f",
        "accessList": []
      },
      "additionalContracts": [],
      "isFixedGasLimit": false
    },
    {
      "hash": "0x69cce3ccbf5b4ce534f94aac78a34b709c4f2383e88725309bde6fbeaadaebf5",
      "transactionType": "CALL",
      "contractName": null,
      "contractAddress": "0x7eb4C59eABE1234E8A6D02FdF4d1BB595C4702Cd",
      "function": "initiateWithdrawal(uint256,address)",
      "arguments": [
        "500000000000000",
        "0x1c7D4B196Cb0C7B01d743Fbc6116a902379C7238"
      ],
      "transaction": {
        "type": "0x02",
        "from": "0xddb342ecc94236c29a5307d3757d0724d759453c",
        "to": "0x7eb4c59eabe1234e8a6d02fdf4d1bb595c4702cd",
        "gas": "0x1bbe2",
        "value": "0x1c6bf52634000",
        "data": "0x544381270000000000000000000000000000000000000000000000000001c6bf526340000000000000000000000000001c7d4b196cb0c7b01d743fbc6116a902379c7238",
        "nonce": "0x390",
        "accessList": []
      },
      "additionalContracts": [],
      "isFixedGasLimit": false
    }
  ],
  "receipts": [],
  "libraries": [],
  "pending": [
    "0xcafff543619613f1c634a585ff7bf24fe3e34f9eb60e84fd0e35369cd542f95e",
    "0x69cce3ccbf5b4ce534f94aac78a34b709c4f2383e88725309bde6fbeaadaebf5"
  ],
  "returns": {},
  "timestamp": 1732713451,
  "chain": 11155111,
  "multi": false,
  "commit": "1254ada"
}