{
  "transactions": [
    {
      "hash": "0x045aacfa73d5822c7cbd6df4fd41c6dfcb4b8dc909922ccb09d6bdab483cf25e",
      "transactionType": "CALL",
      "contractName": "StarkNetToken",
      "contractAddress": "0xCa14007Eff0dB1f8135f4C25B34De49AB0d42766",
      "function": "approve(address,uint256)",
      "arguments": [
        "0xE36655D07368519aBe20ecC9d6c18fd26Db1d0a0",
        "115792089237316195423570985008687907853269984665640564039457584007913129639935"
      ],
      "transaction": {
        "type": "0x02",
        "from": "0xddb342ecc94236c29a5307d3757d0724d759453c",
        "to": "0xca14007eff0db1f8135f4c25b34de49ab0d42766",
        "gas": "0xff08",
        "value": "0x0",
        "data": "0x095ea7b3000000000000000000000000e36655d07368519abe20ecc9d6c18fd26db1d0a0ffffffffffffffffffffffffffffffffffffffffffffffffffffffffffffffff",
        "nonce": "0x2ae",
        "accessList": []
      },
      "additionalContracts": [],
      "isFixedGasLimit": false
    },
    {
      "hash": "0x1879d30a453c4cfc51b727ba52de51b7edc0a6eb7f123124a5eb66e0b59f1960",
      "transactionType": "CALL",
      "contractName": "StarkNetToken",
      "contractAddress": "0xCa14007Eff0dB1f8135f4C25B34De49AB0d42766",
      "function": "transfer(address,uint256)",
      "arguments": [
        "0xE36655D07368519aBe20ecC9d6c18fd26Db1d0a0",
        "500000000000"
      ],
      "transaction": {
        "type": "0x02",
        "from": "0xddb342ecc94236c29a5307d3757d0724d759453c",
        "to": "0xca14007eff0db1f8135f4c25b34de49ab0d42766",
        "gas": "0x1339c",
        "value": "0x0",
        "data": "0xa9059cbb000000000000000000000000e36655d07368519abe20ecc9d6c18fd26db1d0a0000000000000000000000000000000000000000000000000000000746a528800",
        "nonce": "0x2af",
        "accessList": []
      },
      "additionalContracts": [],
      "isFixedGasLimit": false
    },
    {
      "hash": "0x9e2f5464846f2a0939806c30327b5d084dbee8fbc80c50b57688853de0eec96c",
      "transactionType": "CALL",
      "contractName": "L1TWAMMBridge",
      "contractAddress": "0xE36655D07368519aBe20ecC9d6c18fd26Db1d0a0",
      "function": "deposit(uint256,uint256)",
      "arguments": [
        "500000000000",
        "2218835325546629175384211136446492474786052758603793932898516559357400907028"
      ],
      "transaction": {
        "type": "0x02",
        "from": "0xddb342ecc94236c29a5307d3757d0724d759453c",
        "to": "0xe36655d07368519abe20ecc9d6c18fd26db1d0a0",
        "gas": "0x30231",
        "value": "0x5af3107a4000",
        "data": "0xe2bbb158000000000000000000000000000000000000000000000000000000746a52880004e7d0f85e69bb56625aa34643e39e54a4f12c6f0e1e5a099c83fbdf0790fd14",
        "nonce": "0x2b0",
        "accessList": []
      },
      "additionalContracts": [],
      "isFixedGasLimit": false
    },
    {
      "hash": "0x5a20e06d99142bbb49b8760da498b001ff7a375527bdfb74878349ee3cb35219",
      "transactionType": "CALL",
      "contractName": "Proxy",
      "contractAddress": "0xE2Bb56ee936fd6433DC0F6e7e3b8365C906AA057",
      "function": "sendMessageToL2(uint256,uint256,uint256[])",
      "arguments": [
        "2218835325546629175384211136446492474786052758603793932898516559357400907028",
        "425952401605428413817582304755919420533935873840436977667370850915372091056",
        "[0, 1265684623727634235329190328445374361672779121980, 2009894490435840142178314390393166646092438090257831307886760648929397478285, 2366254414417873771392932940469309727793822550615514268240785277201753657472, 170141183460469235273462165868118016, 1731430784, 1731430848, 500000000000]"
      ],
      "transaction": {
        "type": "0x02",
        "from": "0xddb342ecc94236c29a5307d3757d0724d759453c",
        "to": "0xe2bb56ee936fd6433dc0f6e7e3b8365c906aa057",
        "gas": "0x173c2",
        "value": "0x5af3107a4000",
        "data": "0x3e3aa6c504e7d0f85e69bb56625aa34643e39e54a4f12c6f0e1e5a099c83fbdf0790fd1400f1149cade9d692862ad41df96b108aa2c20af34f640457e781d166c98dc6b0000000000000000000000000000000000000000000000000000000000000006000000000000000000000000000000000000000000000000000000000000000080000000000000000000000000000000000000000000000000000000000000000000000000000000000000000ddb342ecc94236c29a5307d3757d0724d759453c04718f5a0fc34cc1af16a1cdee98ffb20c31f5cd61d6ab07201858f4287c938d053b40a647cedfca6ca84f542a0fe36736031905a9639a7f19a3c1e66bfd5080000000000000000000000000000000000020c49ba5e353f80000000000000000000000000000000000000000000000000000000000000000000000006733898000000000000000000000000000000000000000000000000000000000673389c0000000000000000000000000000000000000000000000000000000746a528800",
        "nonce": "0x2b1",
        "accessList": []
      },
      "additionalContracts": [],
      "isFixedGasLimit": false
    }
  ],
  "receipts": [
    {
      "transactionHash": "0x045aacfa73d5822c7cbd6df4fd41c6dfcb4b8dc909922ccb09d6bdab483cf25e",
      "transactionIndex": "0x1a",
      "blockHash": "0xe6a441a79c9621d991a2fd55a20bc951f924db2b7737bde2b0d18d3cd7ee5d6b",
      "blockNumber": "0x6bc5a3",
      "from": "0xDdb342ecc94236c29a5307d3757d0724D759453C",
      "to": "0xCa14007Eff0dB1f8135f4C25B34De49AB0d42766",
      "cumulativeGasUsed": "0x3d5b55",
      "gasUsed": "0xb8a4",
      "contractAddress": null,
      "logs": [
        {
          "address": "0xCa14007Eff0dB1f8135f4C25B34De49AB0d42766",
          "topics": [
            "0x8c5be1e5ebec7d5bd14f71427d1e84f3dd0314c0f7b2291e5b200ac8c7c3b925",
            "0x000000000000000000000000ddb342ecc94236c29a5307d3757d0724d759453c",
            "0x000000000000000000000000e36655d07368519abe20ecc9d6c18fd26db1d0a0"
          ],
          "data": "0xffffffffffffffffffffffffffffffffffffffffffffffffffffffffffffffff",
          "blockHash": "0xe6a441a79c9621d991a2fd55a20bc951f924db2b7737bde2b0d18d3cd7ee5d6b",
          "blockNumber": "0x6bc5a3",
          "transactionHash": "0x045aacfa73d5822c7cbd6df4fd41c6dfcb4b8dc909922ccb09d6bdab483cf25e",
          "transactionIndex": "0x1a",
          "logIndex": "0x42",
          "removed": false
        }
      ],
      "status": "0x1",
      "logsBloom": "0x00000000000000000000000000000000000000000000000000000000000000000800000000000000000000000000000000000000000000000000000000200000000000000000000000000000000000000000000000000000000000000000000400000000000000000000000000000000400000000000000000000000400000000000000000000000000000000000000000000000000000000000000000000000020000000000000000000000000000000000000000080000000000000000000000000000000000020000000000000000000000000000000000800080000000000010000000000000000000000000000000000000001000000000000000000000",
      "type": "0x2",
      "effectiveGasPrice": "0x6cda636b3"
    },
    {
      "transactionHash": "0x1879d30a453c4cfc51b727ba52de51b7edc0a6eb7f123124a5eb66e0b59f1960",
      "transactionIndex": "0x1b",
      "blockHash": "0xe6a441a79c9621d991a2fd55a20bc951f924db2b7737bde2b0d18d3cd7ee5d6b",
      "blockNumber": "0x6bc5a3",
      "from": "0xDdb342ecc94236c29a5307d3757d0724D759453C",
      "to": "0xCa14007Eff0dB1f8135f4C25B34De49AB0d42766",
      "cumulativeGasUsed": "0x3e3a0a",
      "gasUsed": "0xdeb5",
      "contractAddress": null,
      "logs": [
        {
          "address": "0xCa14007Eff0dB1f8135f4C25B34De49AB0d42766",
          "topics": [
            "0xddf252ad1be2c89b69c2b068fc378daa952ba7f163c4a11628f55a4df523b3ef",
            "0x000000000000000000000000ddb342ecc94236c29a5307d3757d0724d759453c",
            "0x000000000000000000000000e36655d07368519abe20ecc9d6c18fd26db1d0a0"
          ],
          "data": "0x000000000000000000000000000000000000000000000000000000746a528800",
          "blockHash": "0xe6a441a79c9621d991a2fd55a20bc951f924db2b7737bde2b0d18d3cd7ee5d6b",
          "blockNumber": "0x6bc5a3",
          "transactionHash": "0x1879d30a453c4cfc51b727ba52de51b7edc0a6eb7f123124a5eb66e0b59f1960",
          "transactionIndex": "0x1b",
          "logIndex": "0x43",
          "removed": false
        }
      ],
      "status": "0x1",
      "logsBloom": "0x00000000000000000000000000000000000000000000000000000000000000000800000000000000000000000000000000000000000000000000000000000000000000000000000000000008000000000000000000000000000000000000000400000000000000000000000000000000400000000000000000000010400000000000000000000000000000000000000000000000000000000000000000000000000000000000000000000000000000000000000000080000000000000000000000000002000000020000000000000000000000000000000000800080000000000000000000000000000000000000000000000000001000000000000000000000",
      "type": "0x2",
      "effectiveGasPrice": "0x6cda636b3"
    },
    {
      "transactionHash": "0x9e2f5464846f2a0939806c30327b5d084dbee8fbc80c50b57688853de0eec96c",
      "transactionIndex": "0x1c",
      "blockHash": "0xe6a441a79c9621d991a2fd55a20bc951f924db2b7737bde2b0d18d3cd7ee5d6b",
      "blockNumber": "0x6bc5a3",
      "from": "0xDdb342ecc94236c29a5307d3757d0724D759453C",
      "to": "0xE36655D07368519aBe20ecC9d6c18fd26Db1d0a0",
      "cumulativeGasUsed": "0x4048ab",
      "gasUsed": "0x20ea1",
      "contractAddress": null,
      "logs": [
        {
          "address": "0xCa14007Eff0dB1f8135f4C25B34De49AB0d42766",
          "topics": [
            "0x8c5be1e5ebec7d5bd14f71427d1e84f3dd0314c0f7b2291e5b200ac8c7c3b925",
            "0x000000000000000000000000e36655d07368519abe20ecc9d6c18fd26db1d0a0",
            "0x000000000000000000000000ce5485cfb26914c5dce00b9baf0580364dafc7a4"
          ],
          "data": "0x000000000000000000000000000000000000000000000000000000746a528800",
          "blockHash": "0xe6a441a79c9621d991a2fd55a20bc951f924db2b7737bde2b0d18d3cd7ee5d6b",
          "blockNumber": "0x6bc5a3",
          "transactionHash": "0x9e2f5464846f2a0939806c30327b5d084dbee8fbc80c50b57688853de0eec96c",
          "transactionIndex": "0x1c",
          "logIndex": "0x44",
          "removed": false
        },
        {
          "address": "0xCa14007Eff0dB1f8135f4C25B34De49AB0d42766",
          "topics": [
            "0x8c5be1e5ebec7d5bd14f71427d1e84f3dd0314c0f7b2291e5b200ac8c7c3b925",
            "0x000000000000000000000000e36655d07368519abe20ecc9d6c18fd26db1d0a0",
            "0x000000000000000000000000ce5485cfb26914c5dce00b9baf0580364dafc7a4"
          ],
          "data": "0x0000000000000000000000000000000000000000000000000000000000000000",
          "blockHash": "0xe6a441a79c9621d991a2fd55a20bc951f924db2b7737bde2b0d18d3cd7ee5d6b",
          "blockNumber": "0x6bc5a3",
          "transactionHash": "0x9e2f5464846f2a0939806c30327b5d084dbee8fbc80c50b57688853de0eec96c",
          "transactionIndex": "0x1c",
          "logIndex": "0x45",
          "removed": false
        },
        {
          "address": "0xCa14007Eff0dB1f8135f4C25B34De49AB0d42766",
          "topics": [
            "0xddf252ad1be2c89b69c2b068fc378daa952ba7f163c4a11628f55a4df523b3ef",
            "0x000000000000000000000000e36655d07368519abe20ecc9d6c18fd26db1d0a0",
            "0x000000000000000000000000ce5485cfb26914c5dce00b9baf0580364dafc7a4"
          ],
          "data": "0x000000000000000000000000000000000000000000000000000000746a528800",
          "blockHash": "0xe6a441a79c9621d991a2fd55a20bc951f924db2b7737bde2b0d18d3cd7ee5d6b",
          "blockNumber": "0x6bc5a3",
          "transactionHash": "0x9e2f5464846f2a0939806c30327b5d084dbee8fbc80c50b57688853de0eec96c",
          "transactionIndex": "0x1c",
          "logIndex": "0x46",
          "removed": false
        },
        {
          "address": "0xE2Bb56ee936fd6433DC0F6e7e3b8365C906AA057",
          "topics": [
            "0xdb80dd488acf86d17c747445b0eabb5d57c541d3bd7b6b87af987858e5066b2b",
            "0x000000000000000000000000ce5485cfb26914c5dce00b9baf0580364dafc7a4",
            "0x0594c1582459ea03f77deaf9eb7e3917d6994a03c13405ba42867f83d85f085d",
            "0x01b64b1b3b690b43b9b514fb81377518f4039cd3e4f4914d8a6bdf01d679fb19"
          ],
          "data": "0x0000000000000000000000000000000000000000000000000000000000000060000000000000000000000000000000000000000000000000000000000000282e00000000000000000000000000000000000000000000000000005af3107a40000000000000000000000000000000000000000000000000000000000000000005000000000000000000000000ca14007eff0db1f8135f4c25b34de49ab0d42766000000000000000000000000e36655d07368519abe20ecc9d6c18fd26db1d0a004e7d0f85e69bb56625aa34643e39e54a4f12c6f0e1e5a099c83fbdf0790fd14000000000000000000000000000000000000000000000000000000746a5288000000000000000000000000000000000000000000000000000000000000000000",
          "blockHash": "0xe6a441a79c9621d991a2fd55a20bc951f924db2b7737bde2b0d18d3cd7ee5d6b",
          "blockNumber": "0x6bc5a3",
          "transactionHash": "0x9e2f5464846f2a0939806c30327b5d084dbee8fbc80c50b57688853de0eec96c",
          "transactionIndex": "0x1c",
          "logIndex": "0x47",
          "removed": false
        },
        {
          "address": "0xcE5485Cfb26914C5dcE00B9BAF0580364daFC7a4",
          "topics": [
            "0x5f971bd00bf3ffbca8a6d72cdd4fd92cfd4f62636161921d1e5a64f0b64ccb6d",
            "0x000000000000000000000000e36655d07368519abe20ecc9d6c18fd26db1d0a0",
            "0x000000000000000000000000ca14007eff0db1f8135f4c25b34de49ab0d42766",
            "0x04e7d0f85e69bb56625aa34643e39e54a4f12c6f0e1e5a099c83fbdf0790fd14"
          ],
          "data": "0x000000000000000000000000000000000000000000000000000000746a528800000000000000000000000000000000000000000000000000000000000000282e00000000000000000000000000000000000000000000000000005af3107a4000",
          "blockHash": "0xe6a441a79c9621d991a2fd55a20bc951f924db2b7737bde2b0d18d3cd7ee5d6b",
          "blockNumber": "0x6bc5a3",
          "transactionHash": "0x9e2f5464846f2a0939806c30327b5d084dbee8fbc80c50b57688853de0eec96c",
          "transactionIndex": "0x1c",
          "logIndex": "0x48",
          "removed": false
        }
      ],
      "status": "0x1",
      "logsBloom": "0x00000000000000000200000000020000000000000000000000000000000000400800000000000000000000000000000000000000000004000000000000200000000000000000000000000008080000000800000000000040001000000000000000000000100000000000000000000000000000000000000080000010000008002000000000000000000000000400000000000000000200000000020000000010020000000000000000000020000000041000000000080020000000000000000000000002000000024010000000000000000000200000000000800080000000000010000000010000000000020084000000000000001000000000000000000000",
      "type": "0x2",
      "effectiveGasPrice": "0x6cda636b3"
    },
    {
      "transactionHash": "0x5a20e06d99142bbb49b8760da498b001ff7a375527bdfb74878349ee3cb35219",
      "transactionIndex": "0x1d",
      "blockHash": "0xe6a441a79c9621d991a2fd55a20bc951f924db2b7737bde2b0d18d3cd7ee5d6b",
      "blockNumber": "0x6bc5a3",
      "from": "0xDdb342ecc94236c29a5307d3757d0724D759453C",
      "to": "0xE2Bb56ee936fd6433DC0F6e7e3b8365C906AA057",
      "cumulativeGasUsed": "0x4146dd",
      "gasUsed": "0xfe32",
      "contractAddress": null,
      "logs": [
        {
          "address": "0xE2Bb56ee936fd6433DC0F6e7e3b8365C906AA057",
          "topics": [
            "0xdb80dd488acf86d17c747445b0eabb5d57c541d3bd7b6b87af987858e5066b2b",
            "0x000000000000000000000000ddb342ecc94236c29a5307d3757d0724d759453c",
            "0x04e7d0f85e69bb56625aa34643e39e54a4f12c6f0e1e5a099c83fbdf0790fd14",
            "0x00f1149cade9d692862ad41df96b108aa2c20af34f640457e781d166c98dc6b0"
          ],
          "data": "0x0000000000000000000000000000000000000000000000000000000000000060000000000000000000000000000000000000000000000000000000000000282f00000000000000000000000000000000000000000000000000005af3107a400000000000000000000000000000000000000000000000000000000000000000080000000000000000000000000000000000000000000000000000000000000000000000000000000000000000ddb342ecc94236c29a5307d3757d0724d759453c04718f5a0fc34cc1af16a1cdee98ffb20c31f5cd61d6ab07201858f4287c938d053b40a647cedfca6ca84f542a0fe36736031905a9639a7f19a3c1e66bfd5080000000000000000000000000000000000020c49ba5e353f80000000000000000000000000000000000000000000000000000000000000000000000006733898000000000000000000000000000000000000000000000000000000000673389c0000000000000000000000000000000000000000000000000000000746a528800",
          "blockHash": "0xe6a441a79c9621d991a2fd55a20bc951f924db2b7737bde2b0d18d3cd7ee5d6b",
          "blockNumber": "0x6bc5a3",
          "transactionHash": "0x5a20e06d99142bbb49b8760da498b001ff7a375527bdfb74878349ee3cb35219",
          "transactionIndex": "0x1d",
          "logIndex": "0x49",
          "removed": false
        }
      ],
      "status": "0x1",
      "logsBloom": "0x00400000000000000000000000020000000000000000000000000000000000000000000000000000000000000000000000000000000000000000000000000000000000000000000000000000000000000800000000000040001000000000000400000000100000010000000000000000400000000000000080000000400000000000000000000000000000000000000004000000000000000000000000000010000000000000000000000020000000040000000000000000000000000000000000000000000000000000000000000000000000000000000000000000000000000000000000000000000000000000000000000000000000000000000000000000",
      "type": "0x2",
      "effectiveGasPrice": "0x6cda636b3"
    }
  ],
  "libraries": [],
  "pending": [],
  "returns": {},
  "timestamp": 1731430899,
  "chain": 11155111,
  "multi": false,
  "commit": "39f9f49"
}