{
  "transactions": [
    {
      "hash": "0x97915321ed6a6e85a776e57d5845412b16abb54f77384faff02c0c52516aa3fe",
      "transactionType": "CALL",
      "contractName": null,
      "contractAddress": "0xca14007eff0db1f8135f4c25b34de49ab0d42766",
      "function": "approve(address,uint256)",
      "arguments": [
        "0xcE5485Cfb26914C5dcE00B9BAF0580364daFC7a4",
        "115792089237316195423570985008687907853269984665640564039457584007913129639935"
      ],
      "transaction": {
        "from": "0xddb342ecc94236c29a5307d3757d0724d759453c",
        "to": "0xca14007eff0db1f8135f4c25b34de49ab0d42766",
        "gas": "0x93a9",
        "value": "0x0",
        "input": "0x095ea7b3000000000000000000000000ce5485cfb26914c5dce00b9baf0580364dafc7a4ffffffffffffffffffffffffffffffffffffffffffffffffffffffffffffffff",
        "nonce": "0x440",
        "chainId": "0xaa36a7"
      },
      "additionalContracts": [],
      "isFixedGasLimit": false
    },
    {
      "hash": "0x778d44911deaba7738410795640431035b12ceaf2d1d4b601d161f8d89842995",
      "transactionType": "CALL",
      "contractName": null,
      "contractAddress": "0xce5485cfb26914c5dce00b9baf0580364dafc7a4",
      "function": "depositWithMessage(address,uint256,uint256,uint256[])",
      "arguments": [
        "0xCa14007Eff0dB1f8135f4C25B34De49AB0d42766",
        "700000000000000",
        "1159328723818087227525987792477784182123590948138811618320469978603212423923",
        "[0, 1265684623727634235329190328445374361672779121980, 2009894490435840142178314390393166646092438090257831307886760648929397478285, 2366254414417873771392932940469309727793822550615514268240785277201753657472, 170141183460469235273462165868118016, 1736153680, 1736153808, 700000000000000]"
      ],
      "transaction": {
        "from": "0xddb342ecc94236c29a5307d3757d0724d759453c",
        "to": "0xce5485cfb26914c5dce00b9baf0580364dafc7a4",
        "gas": "0x3045a",
        "value": "0x1c6bf52634000",
        "input": "0xbe58b18e000000000000000000000000ca14007eff0db1f8135f4c25b34de49ab0d4276600000000000000000000000000000000000000000000000000027ca57357c00002902824549eb1b0b224ece193f97c377aafe0e0a705e96ed1700d1c76c2c2f3000000000000000000000000000000000000000000000000000000000000008000000000000000000000000000000000000000000000000000000000000000080000000000000000000000000000000000000000000000000000000000000000000000000000000000000000ddb342ecc94236c29a5307d3757d0724d759453c04718f5a0fc34cc1af16a1cdee98ffb20c31f5cd61d6ab07201858f4287c938d053b40a647cedfca6ca84f542a0fe36736031905a9639a7f19a3c1e66bfd5080000000000000000000000000000000000020c49ba5e353f8000000000000000000000000000000000000000000000000000000000000000000000000677b9a5000000000000000000000000000000000000000000000000000000000677b9ad000000000000000000000000000000000000000000000000000027ca57357c000",
        "nonce": "0x441",
        "chainId": "0xaa36a7"
      },
      "additionalContracts": [],
      "isFixedGasLimit": false
    }
  ],
  "receipts": [
    {
      "status": "0x1",
      "cumulativeGasUsed": "0x76a12a",
      "logs": [
        {
          "address": "0xca14007eff0db1f8135f4c25b34de49ab0d42766",
          "topics": [
            "0x8c5be1e5ebec7d5bd14f71427d1e84f3dd0314c0f7b2291e5b200ac8c7c3b925",
            "0x000000000000000000000000ddb342ecc94236c29a5307d3757d0724d759453c",
            "0x000000000000000000000000ce5485cfb26914c5dce00b9baf0580364dafc7a4"
          ],
          "data": "0xffffffffffffffffffffffffffffffffffffffffffffffffffffffffffffffff",
          "blockHash": "0x1b8563b12db415844a873cae526568ab4516bcbdf11ec64bb7e09e2dc0aa69dc",
          "blockNumber": "0x7167a4",
          "transactionHash": "0x97915321ed6a6e85a776e57d5845412b16abb54f77384faff02c0c52516aa3fe",
          "transactionIndex": "0x2c",
          "logIndex": "0x7d",
          "removed": false
        }
      ],
      "logsBloom": "0x00000000000000000000000000000000000000000000000000000000000000000000000000000000000000000000000000000000000000000000000000200000000000000000000000000000000000000000000000000000000000000000000400000000000000000000000000000000400000000000000000000000400008000000000000000000000000000000000000000000000000000000000000000000020000000000000000000000000000001000000000000000000000000000000000000000000000020010000000000000000000000000000000800000000000000010000000000000000000000000000000000000001000000000000000000000",
      "type": "0x2",
      "transactionHash": "0x97915321ed6a6e85a776e57d5845412b16abb54f77384faff02c0c52516aa3fe",
      "transactionIndex": "0x2c",
      "blockHash": "0x1b8563b12db415844a873cae526568ab4516bcbdf11ec64bb7e09e2dc0aa69dc",
      "blockNumber": "0x7167a4",
      "gasUsed": "0x6ae8",
      "effectiveGasPrice": "0x96738c764",
      "from": "0xddb342ecc94236c29a5307d3757d0724d759453c",
      "to": "0xca14007eff0db1f8135f4c25b34de49ab0d42766",
      "contractAddress": null
    },
    {
      "status": "0x1",
      "cumulativeGasUsed": "0x78b145",
      "logs": [
        {
          "address": "0xca14007eff0db1f8135f4c25b34de49ab0d42766",
          "topics": [
            "0xddf252ad1be2c89b69c2b068fc378daa952ba7f163c4a11628f55a4df523b3ef",
            "0x000000000000000000000000ddb342ecc94236c29a5307d3757d0724d759453c",
            "0x000000000000000000000000ce5485cfb26914c5dce00b9baf0580364dafc7a4"
          ],
          "data": "0x00000000000000000000000000000000000000000000000000027ca57357c000",
          "blockHash": "0x1b8563b12db415844a873cae526568ab4516bcbdf11ec64bb7e09e2dc0aa69dc",
          "blockNumber": "0x7167a4",
          "transactionHash": "0x778d44911deaba7738410795640431035b12ceaf2d1d4b601d161f8d89842995",
          "transactionIndex": "0x2d",
          "logIndex": "0x7e",
          "removed": false
        },
        {
          "address": "0xe2bb56ee936fd6433dc0f6e7e3b8365c906aa057",
          "topics": [
            "0xdb80dd488acf86d17c747445b0eabb5d57c541d3bd7b6b87af987858e5066b2b",
            "0x000000000000000000000000ce5485cfb26914c5dce00b9baf0580364dafc7a4",
            "0x0594c1582459ea03f77deaf9eb7e3917d6994a03c13405ba42867f83d85f085d",
            "0x008bce41827dd5484d80312a2e43bc42a896e3fcf75bf84c2b49339168dfa00a"
          ],
          "data": "0x00000000000000000000000000000000000000000000000000000000000000600000000000000000000000000000000000000000000000000000000000002b290000000000000000000000000000000000000000000000000001c6bf52634000000000000000000000000000000000000000000000000000000000000000000e000000000000000000000000ca14007eff0db1f8135f4c25b34de49ab0d42766000000000000000000000000ddb342ecc94236c29a5307d3757d0724d759453c02902824549eb1b0b224ece193f97c377aafe0e0a705e96ed1700d1c76c2c2f300000000000000000000000000000000000000000000000000027ca57357c000000000000000000000000000000000000000000000000000000000000000000000000000000000000000000000000000000000000000000000000000000000080000000000000000000000000000000000000000000000000000000000000000000000000000000000000000ddb342ecc94236c29a5307d3757d0724d759453c04718f5a0fc34cc1af16a1cdee98ffb20c31f5cd61d6ab07201858f4287c938d053b40a647cedfca6ca84f542a0fe36736031905a9639a7f19a3c1e66bfd5080000000000000000000000000000000000020c49ba5e353f8000000000000000000000000000000000000000000000000000000000000000000000000677b9a5000000000000000000000000000000000000000000000000000000000677b9ad000000000000000000000000000000000000000000000000000027ca57357c000",
          "blockHash": "0x1b8563b12db415844a873cae526568ab4516bcbdf11ec64bb7e09e2dc0aa69dc",
          "blockNumber": "0x7167a4",
          "transactionHash": "0x778d44911deaba7738410795640431035b12ceaf2d1d4b601d161f8d89842995",
          "transactionIndex": "0x2d",
          "logIndex": "0x7f",
          "removed": false
        },
        {
          "address": "0xce5485cfb26914c5dce00b9baf0580364dafc7a4",
          "topics": [
            "0x2203a49c69f1a46c1164f5e4a30643dd77b7c59c0ff9bc433256048365c247f1",
            "0x000000000000000000000000ddb342ecc94236c29a5307d3757d0724d759453c",
            "0x000000000000000000000000ca14007eff0db1f8135f4c25b34de49ab0d42766",
            "0x02902824549eb1b0b224ece193f97c377aafe0e0a705e96ed1700d1c76c2c2f3"
          ],
          "data": "0x00000000000000000000000000000000000000000000000000027ca57357c00000000000000000000000000000000000000000000000000000000000000000800000000000000000000000000000000000000000000000000000000000002b290000000000000000000000000000000000000000000000000001c6bf5263400000000000000000000000000000000000000000000000000000000000000000080000000000000000000000000000000000000000000000000000000000000000000000000000000000000000ddb342ecc94236c29a5307d3757d0724d759453c04718f5a0fc34cc1af16a1cdee98ffb20c31f5cd61d6ab07201858f4287c938d053b40a647cedfca6ca84f542a0fe36736031905a9639a7f19a3c1e66bfd5080000000000000000000000000000000000020c49ba5e353f8000000000000000000000000000000000000000000000000000000000000000000000000677b9a5000000000000000000000000000000000000000000000000000000000677b9ad000000000000000000000000000000000000000000000000000027ca57357c000",
          "blockHash": "0x1b8563b12db415844a873cae526568ab4516bcbdf11ec64bb7e09e2dc0aa69dc",
          "blockNumber": "0x7167a4",
          "transactionHash": "0x778d44911deaba7738410795640431035b12ceaf2d1d4b601d161f8d89842995",
          "transactionIndex": "0x2d",
          "logIndex": "0x80",
          "removed": false
        }
      ],
      "logsBloom": "0x00000000000000000000000000020000000000000000000000000040000000000000000000000000000000000000000000000000000004000000020000000000000000000000000000000008080000000000000000000040001000000000001400000000100000000000000000000000400000000004000000000010400008002000000000000000000000020000000000008000000200000000000000000010000000000000000000000020000000021000000000000000000000000000000000800002000000024010000000000000000000200000000000800000000000000000000000110000000000020004000000000000001000000000000000000000",
      "type": "0x2",
      "transactionHash": "0x778d44911deaba7738410795640431035b12ceaf2d1d4b601d161f8d89842995",
      "transactionIndex": "0x2d",
      "blockHash": "0x1b8563b12db415844a873cae526568ab4516bcbdf11ec64bb7e09e2dc0aa69dc",
      "blockNumber": "0x7167a4",
      "gasUsed": "0x2101b",
      "effectiveGasPrice": "0x96738c764",
      "from": "0xddb342ecc94236c29a5307d3757d0724d759453c",
      "to": "0xce5485cfb26914c5dce00b9baf0580364dafc7a4",
      "contractAddress": null
    }
  ],
  "libraries": [],
  "pending": [],
  "returns": {},
  "timestamp": 1736153702,
  "chain": 11155111,
  "commit": "3ea534e"
}