{
  "transactions": [
    {
      "hash": "0xef82ccfbf54ce8d0371f6d0263036bed0dc08594e3302d6bc261c152be05a08f",
      "transactionType": "CALL",
      "contractName": "FiatTokenProxy",
      "contractAddress": "0x1c7D4B196Cb0C7B01d743Fbc6116a902379C7238",
      "function": "approve(address,uint256)",
      "arguments": [
        "0x429C016bdeFDD906F665FF42592D6B7381A3a44A",
        "115792089237316195423570985008687907853269984665640564039457584007913129639935"
      ],
      "transaction": {
        "type": "0x02",
        "from": "0xddb342ecc94236c29a5307d3757d0724d759453c",
        "to": "0x1c7d4b196cb0c7b01d743fbc6116a902379c7238",
        "gas": "0x13eb1",
        "value": "0x0",
        "data": "0x095ea7b3000000000000000000000000429c016bdefdd906f665ff42592d6b7381a3a44affffffffffffffffffffffffffffffffffffffffffffffffffffffffffffffff",
        "nonce": "0x1fb",
        "accessList": []
      },
      "additionalContracts": [],
      "isFixedGasLimit": false
    },
    {
      "hash": "0xfce651b796f3564726be8e4a323b17d8aa93c8e9d0bc22f3555995511aa686df",
      "transactionType": "CALL",
      "contractName": "FiatTokenProxy",
      "contractAddress": "0x1c7D4B196Cb0C7B01d743Fbc6116a902379C7238",
      "function": "transfer(address,uint256)",
      "arguments": [
        "0x429C016bdeFDD906F665FF42592D6B7381A3a44A",
        "100000"
      ],
      "transaction": {
        "type": "0x02",
        "from": "0xddb342ecc94236c29a5307d3757d0724d759453c",
        "to": "0x1c7d4b196cb0c7b01d743fbc6116a902379c7238",
        "gas": "0x14f5f",
        "value": "0x0",
        "data": "0xa9059cbb000000000000000000000000429c016bdefdd906f665ff42592d6b7381a3a44a00000000000000000000000000000000000000000000000000000000000186a0",
        "nonce": "0x1fc",
        "accessList": []
      },
      "additionalContracts": [],
      "isFixedGasLimit": false
    },
    {
      "hash": null,
      "transactionType": "CALL",
      "contractName": "L1TWAMMBridge",
      "contractAddress": "0x429C016bdeFDD906F665FF42592D6B7381A3a44A",
      "function": "depositAndCreateOrder((address,address,address,uint128,uint128,uint128,uint128,uint256))",
      "arguments": [
        "(0xDdb342ecc94236c29a5307d3757d0724D759453C, 0x1c7D4B196Cb0C7B01d743Fbc6116a902379C7238, 0x1c7D4B196Cb0C7B01d743Fbc6116a902379C7238, 1000000000000000, 1730898048, 1730898112, 100000, 2502691132453856371954262829625446647500106672685387171108675801779834587358)"
      ],
      "transaction": {
        "type": "0x02",
        "from": "0xddb342ecc94236c29a5307d3757d0724d759453c",
        "to": "0x429c016bdefdd906f665ff42592d6b7381a3a44a",
        "gas": "0x3ff43",
        "value": "0x38d7ea4c68000",
        "data": "0x9d251505000000000000000000000000ddb342ecc94236c29a5307d3757d0724d759453c0000000000000000000000001c7d4b196cb0c7b01d743fbc6116a902379c72380000000000000000000000001c7d4b196cb0c7b01d743fbc6116a902379c723800000000000000000000000000000000000000000000000000038d7ea4c6800000000000000000000000000000000000000000000000000000000000672b688000000000000000000000000000000000000000000000000000000000672b68c000000000000000000000000000000000000000000000000000000000000186a0058879156aed8b0a9c6829a60bcd474b4f1db3ec58aa7aae9ecd5d18dfae08de",
        "nonce": "0x1fd",
        "accessList": []
      },
      "additionalContracts": [],
      "isFixedGasLimit": false
    }
  ],
  "receipts": [],
  "libraries": [],
  "pending": [
    "0xef82ccfbf54ce8d0371f6d0263036bed0dc08594e3302d6bc261c152be05a08f",
    "0xfce651b796f3564726be8e4a323b17d8aa93c8e9d0bc22f3555995511aa686df"
  ],
  "returns": {},
  "timestamp": 1730898124,
  "chain": 11155111,
  "multi": false,
  "commit": "85f3f64"
}