{
  "transactions": [
    {
      "hash": "0x47a05f201e0e1cb1a0a205614aa6d127c074898a29444075c9cf94e98d972508",
      "transactionType": "CALL",
      "contractName": "StarkNetToken",
      "contractAddress": "0xCa14007Eff0dB1f8135f4C25B34De49AB0d42766",
      "function": "approve(address,uint256)",
      "arguments": [
        "0xCA82E7221fF02BA1257911C5aC2cd52Ff97ff9CD",
        "115792089237316195423570985008687907853269984665640564039457584007913129639935"
      ],
      "transaction": {
        "type": "0x02",
        "from": "0xddb342ecc94236c29a5307d3757d0724d759453c",
        "to": "0xca14007eff0db1f8135f4c25b34de49ab0d42766",
        "gas": "0xff08",
        "value": "0x0",
        "data": "0x095ea7b3000000000000000000000000ca82e7221ff02ba1257911c5ac2cd52ff97ff9cdffffffffffffffffffffffffffffffffffffffffffffffffffffffffffffffff",
        "nonce": "0x22f",
        "accessList": []
      },
      "additionalContracts": [],
      "isFixedGasLimit": false
    },
    {
      "hash": "0xc05f025f65aeff34a26cec11ac08626e69f76b95ec4ae496f95944da4e2332cf",
      "transactionType": "CALL",
      "contractName": "L1TWAMMBridge",
      "contractAddress": "0xCA82E7221fF02BA1257911C5aC2cd52Ff97ff9CD",
      "function": "initiateWithdrawal(uint256)",
      "arguments": [
        "0"
      ],
      "transaction": {
        "type": "0x02",
        "from": "0xddb342ecc94236c29a5307d3757d0724d759453c",
        "to": "0xca82e7221ff02ba1257911c5ac2cd52ff97ff9cd",
        "gas": "0x18cfa",
        "value": "0x38d7ea4c68000",
        "data": "0x12edde5e0000000000000000000000000000000000000000000000000000000000000000",
        "nonce": "0x230",
        "accessList": []
      },
      "additionalContracts": [],
      "isFixedGasLimit": false
    }
  ],
  "receipts": [],
  "libraries": [],
  "pending": [
    "0x47a05f201e0e1cb1a0a205614aa6d127c074898a29444075c9cf94e98d972508",
    "0xc05f025f65aeff34a26cec11ac08626e69f76b95ec4ae496f95944da4e2332cf"
  ],
  "returns": {},
  "timestamp": 1730998622,
  "chain": 11155111,
  "multi": false,
  "commit": "e344443"
}