{
  "transactions": [
    {
      "hash": "0x684dc339e0934a31bd5edd7d730fdb4dad2391ee35cc4e6eb393c3742a0ca654",
      "transactionType": "CALL",
      "contractName": null,
      "contractAddress": "0x67b7a14745f14c253beb5d44b767ef1bfb916253",
      "function": "claimWithdrawal(address,uint256,address)",
      "arguments": [
        "0x1c7D4B196Cb0C7B01d743Fbc6116a902379C7238",
        "3",
        "0xDdb342ecc94236c29a5307d3757d0724D759453C"
      ],
      "transaction": {
        "from": "0xddb342ecc94236c29a5307d3757d0724d759453c",
        "to": "0x67b7a14745f14c253beb5d44b767ef1bfb916253",
        "gas": "0x1f3d3",
        "value": "0x0",
        "input": "0x724a0c2b0000000000000000000000001c7d4b196cb0c7b01d743fbc6116a902379c72380000000000000000000000000000000000000000000000000000000000000003000000000000000000000000ddb342ecc94236c29a5307d3757d0724d759453c",
        "nonce": "0x549",
        "chainId": "0xaa36a7"
      },
      "additionalContracts": [],
      "isFixedGasLimit": false
    }
  ],
  "receipts": [
    {
      "status": "0x1",
      "cumulativeGasUsed": "0xee79f4",
      "logs": [
        {
          "address": "0xe2bb56ee936fd6433dc0f6e7e3b8365c906aa057",
          "topics": [
            "0x7a06c571aa77f34d9706c51e5d8122b5595aebeaa34233bfe866f22befb973b1",
            "0x0028729b12ce1140cbc1e7cbc7245455d3c15fa0c7f5d2e9fc8e0441567f6b50",
            "0x00000000000000000000000086dc0b32a5045ffa48d9a60b7e7ca32f11facd7b"
          ],
          "data": "0x000000000000000000000000000000000000000000000000000000000000002000000000000000000000000000000000000000000000000000000000000000050000000000000000000000000000000000000000000000000000000000000000000000000000000000000000ddb342ecc94236c29a5307d3757d0724d759453c0000000000000000000000001c7d4b196cb0c7b01d743fbc6116a902379c723800000000000000000000000000000000000000000000000000000000000000030000000000000000000000000000000000000000000000000000000000000000",
          "blockHash": "0xcda5edcc7878d38daca982b19435c59d641b3126a0ead07ff7b404fc08b75bc7",
          "blockNumber": "0x7328b8",
          "transactionHash": "0x684dc339e0934a31bd5edd7d730fdb4dad2391ee35cc4e6eb393c3742a0ca654",
          "transactionIndex": "0x6e",
          "logIndex": "0xfc",
          "removed": false
        },
        {
          "address": "0x1c7d4b196cb0c7b01d743fbc6116a902379c7238",
          "topics": [
            "0xddf252ad1be2c89b69c2b068fc378daa952ba7f163c4a11628f55a4df523b3ef",
            "0x00000000000000000000000086dc0b32a5045ffa48d9a60b7e7ca32f11facd7b",
            "0x000000000000000000000000ddb342ecc94236c29a5307d3757d0724d759453c"
          ],
          "data": "0x0000000000000000000000000000000000000000000000000000000000000003",
          "blockHash": "0xcda5edcc7878d38daca982b19435c59d641b3126a0ead07ff7b404fc08b75bc7",
          "blockNumber": "0x7328b8",
          "transactionHash": "0x684dc339e0934a31bd5edd7d730fdb4dad2391ee35cc4e6eb393c3742a0ca654",
          "transactionIndex": "0x6e",
          "logIndex": "0xfd",
          "removed": false
        },
        {
          "address": "0x86dc0b32a5045ffa48d9a60b7e7ca32f11facd7b",
          "topics": [
            "0x2717ead6b9200dd235aad468c9809ea400fe33ac69b5bfaa6d3e90fc922b6398",
            "0x000000000000000000000000ddb342ecc94236c29a5307d3757d0724d759453c",
            "0x0000000000000000000000001c7d4b196cb0c7b01d743fbc6116a902379c7238"
          ],
          "data": "0x0000000000000000000000000000000000000000000000000000000000000003",
          "blockHash": "0xcda5edcc7878d38daca982b19435c59d641b3126a0ead07ff7b404fc08b75bc7",
          "blockNumber": "0x7328b8",
          "transactionHash": "0x684dc339e0934a31bd5edd7d730fdb4dad2391ee35cc4e6eb393c3742a0ca654",
          "transactionIndex": "0x6e",
          "logIndex": "0xfe",
          "removed": false
        }
      ],
      "logsBloom": "0x00000000000000000000000000020000000000000000000000000000000200000000000000000000000000000000000000000000000004000000400000000000100000000000000000000008000000000000000000000040000208000000000400000000000000000000000000000000400200020000000000000210400080000000000000102000000000000004000000008000000000000000000000000010000000000000000000000000000000001000008000000000000002000000000000002002000000000000000000000000000000000000000000000000000000000000008000000100000010000000000000000000000000000000000000000000",
      "type": "0x2",
      "transactionHash": "0x684dc339e0934a31bd5edd7d730fdb4dad2391ee35cc4e6eb393c3742a0ca654",
      "transactionIndex": "0x6e",
      "blockHash": "0xcda5edcc7878d38daca982b19435c59d641b3126a0ead07ff7b404fc08b75bc7",
      "blockNumber": "0x7328b8",
      "gasUsed": "0x155c3",
      "effectiveGasPrice": "0x240eb3a0e",
      "from": "0xddb342ecc94236c29a5307d3757d0724d759453c",
      "to": "0x67b7a14745f14c253beb5d44b767ef1bfb916253",
      "contractAddress": null
    }
  ],
  "libraries": [],
  "pending": [],
  "returns": {},
  "timestamp": 1737549865,
  "chain": 11155111,
  "commit": "fcbff6b"
}