{
  "transactions": [
    {
      "hash": "0x98392b7f2b47384a66de36fa92b59b1197d388c7b993abb523a55f2189137263",
      "transactionType": "CALL",
      "contractName": "FiatTokenProxy",
      "contractAddress": "0x1c7D4B196Cb0C7B01d743Fbc6116a902379C7238",
      "function": "approve(address,uint256)",
      "arguments": [
        "0xa3DC73197D315c4442cB13feE3e0F744b7134159",
        "115792089237316195423570985008687907853269984665640564039457584007913129639935"
      ],
      "transaction": {
        "type": "0x02",
        "from": "0xddb342ecc94236c29a5307d3757d0724d759453c",
        "to": "0x1c7d4b196cb0c7b01d743fbc6116a902379c7238",
        "gas": "0xc19d",
        "value": "0x0",
        "data": "0x095ea7b3000000000000000000000000a3dc73197d315c4442cb13fee3e0f744b7134159ffffffffffffffffffffffffffffffffffffffffffffffffffffffffffffffff",
        "nonce": "0x1e8",
        "accessList": []
      },
      "additionalContracts": [],
      "isFixedGasLimit": false
    },
    {
      "hash": null,
      "transactionType": "CALL",
      "contractName": "FiatTokenProxy",
      "contractAddress": "0x1c7D4B196Cb0C7B01d743Fbc6116a902379C7238",
      "function": "transfer(address,uint256)",
      "arguments": [
        "0xa3DC73197D315c4442cB13feE3e0F744b7134159",
        "100000"
      ],
      "transaction": {
        "type": "0x02",
        "from": "0xddb342ecc94236c29a5307d3757d0724d759453c",
        "to": "0x1c7d4b196cb0c7b01d743fbc6116a902379c7238",
        "gas": "0x1016a",
        "value": "0x0",
        "data": "0xa9059cbb000000000000000000000000a3dc73197d315c4442cb13fee3e0f744b713415900000000000000000000000000000000000000000000000000000000000186a0",
        "nonce": "0x1e9",
        "accessList": []
      },
      "additionalContracts": [],
      "isFixedGasLimit": false
    },
    {
      "hash": null,
      "transactionType": "CALL",
      "contractName": "L1TWAMMBridge",
      "contractAddress": "0xa3DC73197D315c4442cB13feE3e0F744b7134159",
      "function": "depositAndCreateOrder((address,address,address,uint128,uint128,uint128,uint128,uint256))",
      "arguments": [
        "(0xDdb342ecc94236c29a5307d3757d0724D759453C, 0x1c7D4B196Cb0C7B01d743Fbc6116a902379C7238, 0x1c7D4B196Cb0C7B01d743Fbc6116a902379C7238, 1000000000000000, 1730892000, 1730892064, 100000, 5093101209752081908263379155413981236969401027842293477091139749565589248)"
      ],
      "transaction": {
        "type": "0x02",
        "from": "0xddb342ecc94236c29a5307d3757d0724d759453c",
        "to": "0xa3dc73197d315c4442cb13fee3e0f744b7134159",
        "gas": "0x3cbe1",
        "value": "0x38d7ea4c68000",
        "data": "0x9d251505000000000000000000000000ddb342ecc94236c29a5307d3757d0724d759453c0000000000000000000000001c7d4b196cb0c7b01d743fbc6116a902379c72380000000000000000000000001c7d4b196cb0c7b01d743fbc6116a902379c723800000000000000000000000000000000000000000000000000038d7ea4c6800000000000000000000000000000000000000000000000000000000000672b50e000000000000000000000000000000000000000000000000000000000672b512000000000000000000000000000000000000000000000000000000000000186a00002e1f19f92be06e2b5980eeefd26f877ba9d52fa1da559681bbb5d823a6700",
        "nonce": "0x1ea",
        "accessList": []
      },
      "additionalContracts": [],
      "isFixedGasLimit": false
    }
  ],
  "receipts": [],
  "libraries": [],
  "pending": [
    "0x98392b7f2b47384a66de36fa92b59b1197d388c7b993abb523a55f2189137263"
  ],
  "returns": {},
  "timestamp": 1730892044,
  "chain": 11155111,
  "multi": false,
  "commit": "9e60aff"
}