{
  "transactions": [
    {
      "hash": "0xe24d2fbf2288625151371ea51e7833a55b1e773f5264a08acae92b866df25781",
      "transactionType": "CALL",
      "contractName": "StarkNetToken",
      "contractAddress": "0xCa14007Eff0dB1f8135f4C25B34De49AB0d42766",
      "function": "approve(address,uint256)",
      "arguments": [
        "0xfD56da8288718FC12A3ee96b47E2e8e46618081d",
        "115792089237316195423570985008687907853269984665640564039457584007913129639935"
      ],
      "transaction": {
        "type": "0x02",
        "from": "0xddb342ecc94236c29a5307d3757d0724d759453c",
        "to": "0xca14007eff0db1f8135f4c25b34de49ab0d42766",
        "gas": "0x93a9",
        "value": "0x0",
        "data": "0x095ea7b3000000000000000000000000fd56da8288718fc12a3ee96b47e2e8e46618081dffffffffffffffffffffffffffffffffffffffffffffffffffffffffffffffff",
        "nonce": "0x243",
        "accessList": []
      },
      "additionalContracts": [],
      "isFixedGasLimit": false
    },
    {
      "hash": "0x317dfdf2ce17c073403ff144016bc6b22cc545ac16cd33e8459ea32450be7aea",
      "transactionType": "CALL",
      "contractName": "L1TWAMMBridge",
      "contractAddress": "0xfD56da8288718FC12A3ee96b47E2e8e46618081d",
      "function": "_sendMessage(uint256,uint256,uint256[])",
      "arguments": [
        "3089538330910281035820262199898854238093350356025608835410404352860430644004",
        "425952401605428413817582304755919420533935873840436977667370850915372091056",
        "[2]"
      ],
      "transaction": {
        "type": "0x02",
        "from": "0xddb342ecc94236c29a5307d3757d0724d759453c",
        "to": "0xfd56da8288718fc12a3ee96b47e2e8e46618081d",
        "gas": "0x18293",
        "value": "0x7a120",
        "data": "0x88f439ef06d49de1cc47bd0d2e0e26a421268ec0139dc43c0870d5c0dec58c7603e9b32400f1149cade9d692862ad41df96b108aa2c20af34f640457e781d166c98dc6b0000000000000000000000000000000000000000000000000000000000000006000000000000000000000000000000000000000000000000000000000000000010000000000000000000000000000000000000000000000000000000000000002",
        "nonce": "0x244",
        "accessList": []
      },
      "additionalContracts": [],
      "isFixedGasLimit": false
    }
  ],
  "receipts": [
    {
      "transactionHash": "0xe24d2fbf2288625151371ea51e7833a55b1e773f5264a08acae92b866df25781",
      "transactionIndex": "0x15",
      "blockHash": "0x2a570de4ee00dba92fc1845dda7b85358baa8dfdc1403908b4f2ab417c8fe2ef",
      "blockNumber": "0x6b5bb2",
      "from": "0xDdb342ecc94236c29a5307d3757d0724D759453C",
      "to": "0xCa14007Eff0dB1f8135f4C25B34De49AB0d42766",
      "cumulativeGasUsed": "0x91f413",
      "gasUsed": "0x6ae8",
      "contractAddress": null,
      "logs": [
        {
          "address": "0xCa14007Eff0dB1f8135f4C25B34De49AB0d42766",
          "topics": [
            "0x8c5be1e5ebec7d5bd14f71427d1e84f3dd0314c0f7b2291e5b200ac8c7c3b925",
            "0x000000000000000000000000ddb342ecc94236c29a5307d3757d0724d759453c",
            "0x000000000000000000000000fd56da8288718fc12a3ee96b47e2e8e46618081d"
          ],
          "data": "0xffffffffffffffffffffffffffffffffffffffffffffffffffffffffffffffff",
          "blockHash": "0x2a570de4ee00dba92fc1845dda7b85358baa8dfdc1403908b4f2ab417c8fe2ef",
          "blockNumber": "0x6b5bb2",
          "transactionHash": "0xe24d2fbf2288625151371ea51e7833a55b1e773f5264a08acae92b866df25781",
          "transactionIndex": "0x15",
          "logIndex": "0x58",
          "removed": false
        }
      ],
      "status": "0x1",
      "logsBloom": "0x00000000000000000000000000000000000000000000000000000000000000000000000000000000000002000000000000000000000000000000000000200000000000000000000000000000000000000000000000000000000000000000000400000000000000000000000000000000400000000000000000000000400000000000000000000000000000000000000000000000000000000000000000000000020000000000000000000000000000000000000000000000000000000000000000000000000000020000000000000000000000000000400000800000000000000010000000000000000000000000000000000000001000200000000000000000",
      "type": "0x2",
      "effectiveGasPrice": "0x2d8ce1951"
    },
    {
      "transactionHash": "0x317dfdf2ce17c073403ff144016bc6b22cc545ac16cd33e8459ea32450be7aea",
      "transactionIndex": "0x16",
      "blockHash": "0x2a570de4ee00dba92fc1845dda7b85358baa8dfdc1403908b4f2ab417c8fe2ef",
      "blockNumber": "0x6b5bb2",
      "from": "0xDdb342ecc94236c29a5307d3757d0724D759453C",
      "to": "0xfD56da8288718FC12A3ee96b47E2e8e46618081d",
      "cumulativeGasUsed": "0x930bf3",
      "gasUsed": "0x117e0",
      "contractAddress": null,
      "logs": [
        {
          "address": "0xE2Bb56ee936fd6433DC0F6e7e3b8365C906AA057",
          "topics": [
            "0xdb80dd488acf86d17c747445b0eabb5d57c541d3bd7b6b87af987858e5066b2b",
            "0x000000000000000000000000fd56da8288718fc12a3ee96b47e2e8e46618081d",
            "0x06d49de1cc47bd0d2e0e26a421268ec0139dc43c0870d5c0dec58c7603e9b324",
            "0x00f1149cade9d692862ad41df96b108aa2c20af34f640457e781d166c98dc6b0"
          ],
          "data": "0x0000000000000000000000000000000000000000000000000000000000000060000000000000000000000000000000000000000000000000000000000000279c000000000000000000000000000000000000000000000000000000000007a12000000000000000000000000000000000000000000000000000000000000000010000000000000000000000000000000000000000000000000000000000000002",
          "blockHash": "0x2a570de4ee00dba92fc1845dda7b85358baa8dfdc1403908b4f2ab417c8fe2ef",
          "blockNumber": "0x6b5bb2",
          "transactionHash": "0x317dfdf2ce17c073403ff144016bc6b22cc545ac16cd33e8459ea32450be7aea",
          "transactionIndex": "0x16",
          "logIndex": "0x59",
          "removed": false
        }
      ],
      "status": "0x1",
      "logsBloom": "0x00400800000000000000000000020000000000000000000000000000000000000000000000000000000022000000000000000000000000000000000000000000000000000000000000000000000000000000000000000040001000000000000001000000100000010000000000000000000000000000000000000000000000000000000000000000000000000000000004000000000000000000000000000010000000000000000000000020000000000000000000000000000000000000000000000000000000000000000000000000000000000000400000000000000000000000000000000000000000000000000000000000000000200000000000000000",
      "type": "0x2",
      "effectiveGasPrice": "0x2d8ce1951"
    }
  ],
  "libraries": [],
  "pending": [],
  "returns": {},
  "timestamp": 1731060924,
  "chain": 11155111,
  "multi": false,
  "commit": "7c9bc56"
}