{
  "transactions": [
    {
      "hash": "0x7779019339d405ba476696cb049f1df58b9d2083041b2f5801540b1aa0d5fbee",
      "transactionType": "CALL",
      "contractName": null,
      "contractAddress": "0xca14007eff0db1f8135f4c25b34de49ab0d42766",
      "function": "approve(address,uint256)",
      "arguments": [
        "0x17ceB8Da41205f1026241766328751884Afa7FE8",
        "115792089237316195423570985008687907853269984665640564039457584007913129639935"
      ],
      "transaction": {
        "from": "0xddb342ecc94236c29a5307d3757d0724d759453c",
        "to": "0xca14007eff0db1f8135f4c25b34de49ab0d42766",
        "gas": "0x93a9",
        "value": "0x0",
        "input": "0x095ea7b300000000000000000000000017ceb8da41205f1026241766328751884afa7fe8ffffffffffffffffffffffffffffffffffffffffffffffffffffffffffffffff",
        "nonce": "0x4dc",
        "chainId": "0xaa36a7"
      },
      "additionalContracts": [],
      "isFixedGasLimit": false
    },
    {
      "hash": "0x793bcea434fe83c945bd255bb73073bf29b5a693705c4cdd65da1d487ab91405",
      "transactionType": "CALL",
      "contractName": null,
      "contractAddress": "0x17ceb8da41205f1026241766328751884afa7fe8",
      "function": "initiateWithdrawal(address,address,uint64)",
      "arguments": [
        "0xDdb342ecc94236c29a5307d3757d0724D759453C",
        "0x1c7D4B196Cb0C7B01d743Fbc6116a902379C7238",
        "525"
      ],
      "transaction": {
        "from": "0xddb342ecc94236c29a5307d3757d0724d759453c",
        "to": "0x17ceb8da41205f1026241766328751884afa7fe8",
        "gas": "0x1b4c1",
        "value": "0x1c6bf52634000",
        "input": "0x9b4085f6000000000000000000000000ddb342ecc94236c29a5307d3757d0724d759453c0000000000000000000000001c7d4b196cb0c7b01d743fbc6116a902379c7238000000000000000000000000000000000000000000000000000000000000020d",
        "nonce": "0x4dd",
        "chainId": "0xaa36a7"
      },
      "additionalContracts": [],
      "isFixedGasLimit": false
    }
  ],
  "receipts": [
    {
      "status": "0x1",
      "cumulativeGasUsed": "0xa563f0",
      "logs": [
        {
          "address": "0xca14007eff0db1f8135f4c25b34de49ab0d42766",
          "topics": [
            "0x8c5be1e5ebec7d5bd14f71427d1e84f3dd0314c0f7b2291e5b200ac8c7c3b925",
            "0x000000000000000000000000ddb342ecc94236c29a5307d3757d0724d759453c",
            "0x00000000000000000000000017ceb8da41205f1026241766328751884afa7fe8"
          ],
          "data": "0xffffffffffffffffffffffffffffffffffffffffffffffffffffffffffffffff",
          "blockHash": "0x81e50090aeb7173c8b21851ceaf64d99833d3d4a2e46879deb0a13b0d5b24a6d",
          "blockNumber": "0x72f63e",
          "transactionHash": "0x7779019339d405ba476696cb049f1df58b9d2083041b2f5801540b1aa0d5fbee",
          "transactionIndex": "0x55",
          "logIndex": "0x82",
          "removed": false
        }
      ],
      "logsBloom": "0x00000000000000000000000000000000000000000000000000000000000000000000000000000000000000000800000000000000000000000000000000200000000000000000000000000000000000000000000000000000000000000000000400000000000000000000000000000000400000000000000000000000400000000000000000000000000000000000000000000000000000000000000000000000020000000000000000000000000000000000000000000000000000000000000000000000000000020000000000000000020000000000000000800000000000000010000000400000000000000000000000000000001000000000000000000000",
      "type": "0x2",
      "transactionHash": "0x7779019339d405ba476696cb049f1df58b9d2083041b2f5801540b1aa0d5fbee",
      "transactionIndex": "0x55",
      "blockHash": "0x81e50090aeb7173c8b21851ceaf64d99833d3d4a2e46879deb0a13b0d5b24a6d",
      "blockNumber": "0x72f63e",
      "gasUsed": "0x6ae8",
      "effectiveGasPrice": "0x494b8ed5",
      "from": "0xddb342ecc94236c29a5307d3757d0724d759453c",
      "to": "0xca14007eff0db1f8135f4c25b34de49ab0d42766",
      "contractAddress": null
    },
    {
      "status": "0x1",
      "cumulativeGasUsed": "0xa68e93",
      "logs": [
        {
          "address": "0xe2bb56ee936fd6433dc0f6e7e3b8365c906aa057",
          "topics": [
            "0xdb80dd488acf86d17c747445b0eabb5d57c541d3bd7b6b87af987858e5066b2b",
            "0x00000000000000000000000017ceb8da41205f1026241766328751884afa7fe8",
            "0x046378ed317e00cb21e538b89b145a2b16633c5ff51dfb3f4486d070b8c345c6",
            "0x00f1149cade9d692862ad41df96b108aa2c20af34f640457e781d166c98dc6b0"
          ],
          "data": "0x00000000000000000000000000000000000000000000000000000000000000600000000000000000000000000000000000000000000000000000000000002c390000000000000000000000000000000000000000000000000001c6bf5263400000000000000000000000000000000000000000000000000000000000000000050000000000000000000000000000000000000000000000000000000000000002000000000000000000000000ddb342ecc94236c29a5307d3757d0724d759453c000000000000000000000000ddb342ecc94236c29a5307d3757d0724d759453c0000000000000000000000001c7d4b196cb0c7b01d743fbc6116a902379c7238000000000000000000000000000000000000000000000000000000000000020d",
          "blockHash": "0x81e50090aeb7173c8b21851ceaf64d99833d3d4a2e46879deb0a13b0d5b24a6d",
          "blockNumber": "0x72f63e",
          "transactionHash": "0x793bcea434fe83c945bd255bb73073bf29b5a693705c4cdd65da1d487ab91405",
          "transactionIndex": "0x56",
          "logIndex": "0x83",
          "removed": false
        },
        {
          "address": "0x17ceb8da41205f1026241766328751884afa7fe8",
          "topics": [
            "0x89bd98ae1b8dd4dbaeba50e40ad484414a306be9fb54ec4eecf1a801ca9aeacf",
            "0x000000000000000000000000ddb342ecc94236c29a5307d3757d0724d759453c"
          ],
          "data": "0x000000000000000000000000000000000000000000000000000000000000020d",
          "blockHash": "0x81e50090aeb7173c8b21851ceaf64d99833d3d4a2e46879deb0a13b0d5b24a6d",
          "blockNumber": "0x72f63e",
          "transactionHash": "0x793bcea434fe83c945bd255bb73073bf29b5a693705c4cdd65da1d487ab91405",
          "transactionIndex": "0x56",
          "logIndex": "0x84",
          "removed": false
        }
      ],
      "logsBloom": "0x00400000040000004000000000020000000000000000000000000000000000000000000000000000000000000800000000000000000000000000000000000000000000000000000000000000000000000000000000000040001000000000000410000000100000010000000000000000400000000000000000000000400000000000000000000000000000000000000004000000800000000000000000000010000000000000000000000020000000000000000004000000000000000000002800000002000000000000000000000000020000000000000000000000000000000000000000400000000000002000000000000000000000000000000000000000",
      "type": "0x2",
      "transactionHash": "0x793bcea434fe83c945bd255bb73073bf29b5a693705c4cdd65da1d487ab91405",
      "transactionIndex": "0x56",
      "blockHash": "0x81e50090aeb7173c8b21851ceaf64d99833d3d4a2e46879deb0a13b0d5b24a6d",
      "blockNumber": "0x72f63e",
      "gasUsed": "0x12aa3",
      "effectiveGasPrice": "0x494b8ed5",
      "from": "0xddb342ecc94236c29a5307d3757d0724d759453c",
      "to": "0x17ceb8da41205f1026241766328751884afa7fe8",
      "contractAddress": null
    }
  ],
  "libraries": [],
  "pending": [],
  "returns": {},
  "timestamp": 1737393926,
  "chain": 11155111,
  "commit": "fcbff6b"
}