{
  "transactions": [
    {
      "hash": "0x4d1bc53067a1c4d380551422d812316a7594e43adfe0cc1674f0354816a22df6",
      "transactionType": "CALL",
      "contractName": "StarkNetToken",
      "contractAddress": "0xCa14007Eff0dB1f8135f4C25B34De49AB0d42766",
      "function": "approve(address,uint256)",
      "arguments": [
        "0x21F62Fe4A17d397f84ED53c99E0C9Ae694758685",
        "115792089237316195423570985008687907853269984665640564039457584007913129639935"
      ],
      "transaction": {
        "type": "0x02",
        "from": "0xddb342ecc94236c29a5307d3757d0724d759453c",
        "to": "0xca14007eff0db1f8135f4c25b34de49ab0d42766",
        "gas": "0x93a9",
        "value": "0x0",
        "data": "0x095ea7b300000000000000000000000021f62fe4a17d397f84ed53c99e0c9ae694758685ffffffffffffffffffffffffffffffffffffffffffffffffffffffffffffffff",
        "nonce": "0x30e",
        "accessList": []
      },
      "additionalContracts": [],
      "isFixedGasLimit": false
    },
    {
      "hash": "0xc3d81e723a2f2a5b0ccd332310940caf4a5ee8165f8e96327a6facdab33e77b2",
      "transactionType": "CALL",
      "contractName": "StarkNetToken",
      "contractAddress": "0xCa14007Eff0dB1f8135f4C25B34De49AB0d42766",
      "function": "transfer(address,uint256)",
      "arguments": [
        "0x21F62Fe4A17d397f84ED53c99E0C9Ae694758685",
        "500000"
      ],
      "transaction": {
        "type": "0x02",
        "from": "0xddb342ecc94236c29a5307d3757d0724d759453c",
        "to": "0xca14007eff0db1f8135f4c25b34de49ab0d42766",
        "gas": "0xd748",
        "value": "0x0",
        "data": "0xa9059cbb00000000000000000000000021f62fe4a17d397f84ed53c99e0c9ae694758685000000000000000000000000000000000000000000000000000000000007a120",
        "nonce": "0x30f",
        "accessList": []
      },
      "additionalContracts": [],
      "isFixedGasLimit": false
    },
    {
      "hash": "0x5a48ab813cdced1b5b294e7ec50295522174db51cef3a21b7b7e9ddc0b750a1b",
      "transactionType": "CALL",
      "contractName": "Proxy",
      "contractAddress": "0xE2Bb56ee936fd6433DC0F6e7e3b8365C906AA057",
      "function": "sendMessageToL2(uint256,uint256,uint256[])",
      "arguments": [
        "607667314874542674894384119965969097320255432226437520988012314133551790747",
        "425952401605428413817582304755919420533935873840436977667370850915372091056",
        "[2, 1265684623727634235329190328445374361672779121980, 0, 162645876805862407557836451532389263558424949304, 0, 0, 0, 500000, 71464862446795365217720544277772031240001191377943331145224330416284986192]"
      ],
      "transaction": {
        "type": "0x02",
        "from": "0xddb342ecc94236c29a5307d3757d0724d759453c",
        "to": "0xe2bb56ee936fd6433dc0f6e7e3b8365c906aa057",
        "gas": "0x15f7a",
        "value": "0x38d7ea4c68000",
        "data": "0x3e3aa6c50157ed716b46719b791498243b6d9305c0225ea0df8e734fb0fec71484023a9b00f1149cade9d692862ad41df96b108aa2c20af34f640457e781d166c98dc6b0000000000000000000000000000000000000000000000000000000000000006000000000000000000000000000000000000000000000000000000000000000090000000000000000000000000000000000000000000000000000000000000002000000000000000000000000ddb342ecc94236c29a5307d3757d0724d759453c00000000000000000000000000000000000000000000000000000000000000000000000000000000000000001c7d4b196cb0c7b01d743fbc6116a902379c7238000000000000000000000000000000000000000000000000000000000000000000000000000000000000000000000000000000000000000000000000000000000000000000000000000000000000000000000000000000000000000000000000000000000000000000000000000000000000000000000000000000000007a1200028729b12ce1140cbc1e7cbc7245455d3c15fa0c7f5d2e9fc8e0441567f6b50",
        "nonce": "0x310",
        "accessList": []
      },
      "additionalContracts": [],
      "isFixedGasLimit": false
    }
  ],
  "receipts": [
    {
      "transactionHash": "0x4d1bc53067a1c4d380551422d812316a7594e43adfe0cc1674f0354816a22df6",
      "transactionIndex": "0x1",
      "blockHash": "0x96057c23fdca7407f538f15a3591951299963188e018eac6f5a72b63427f1c0c",
      "blockNumber": "0x6c14e5",
      "from": "0xDdb342ecc94236c29a5307d3757d0724D759453C",
      "to": "0xCa14007Eff0dB1f8135f4C25B34De49AB0d42766",
      "cumulativeGasUsed": "0xbcf0",
      "gasUsed": "0x6ae8",
      "contractAddress": null,
      "logs": [
        {
          "address": "0xCa14007Eff0dB1f8135f4C25B34De49AB0d42766",
          "topics": [
            "0x8c5be1e5ebec7d5bd14f71427d1e84f3dd0314c0f7b2291e5b200ac8c7c3b925",
            "0x000000000000000000000000ddb342ecc94236c29a5307d3757d0724d759453c",
            "0x00000000000000000000000021f62fe4a17d397f84ed53c99e0c9ae694758685"
          ],
          "data": "0xffffffffffffffffffffffffffffffffffffffffffffffffffffffffffffffff",
          "blockHash": "0x96057c23fdca7407f538f15a3591951299963188e018eac6f5a72b63427f1c0c",
          "blockNumber": "0x6c14e5",
          "transactionHash": "0x4d1bc53067a1c4d380551422d812316a7594e43adfe0cc1674f0354816a22df6",
          "transactionIndex": "0x1",
          "logIndex": "0x0",
          "removed": false
        }
      ],
      "status": "0x1",
      "logsBloom": "0x00000000000000000000000000000000000000000000000000000000000000000000000000000000000000000000000000000000000000000000000000200000000000000000000000000000000000000000000000000000000000000000000400000000000000000000000000000000400000000000000000000000400000000000000000000000000000000000000000000000000000000000000000000000020000000000000040000000000000000000000000000000000000000000000000000000200000020000000000000000000000000000000000800000000000000010000000000000000080000000000000000000001000000000000000000000",
      "type": "0x2",
      "effectiveGasPrice": "0xd820fb17"
    },
    {
      "transactionHash": "0xc3d81e723a2f2a5b0ccd332310940caf4a5ee8165f8e96327a6facdab33e77b2",
      "transactionIndex": "0x2",
      "blockHash": "0x96057c23fdca7407f538f15a3591951299963188e018eac6f5a72b63427f1c0c",
      "blockNumber": "0x6c14e5",
      "from": "0xDdb342ecc94236c29a5307d3757d0724D759453C",
      "to": "0xCa14007Eff0dB1f8135f4C25B34De49AB0d42766",
      "cumulativeGasUsed": "0x158cd",
      "gasUsed": "0x9bdd",
      "contractAddress": null,
      "logs": [
        {
          "address": "0xCa14007Eff0dB1f8135f4C25B34De49AB0d42766",
          "topics": [
            "0xddf252ad1be2c89b69c2b068fc378daa952ba7f163c4a11628f55a4df523b3ef",
            "0x000000000000000000000000ddb342ecc94236c29a5307d3757d0724d759453c",
            "0x00000000000000000000000021f62fe4a17d397f84ed53c99e0c9ae694758685"
          ],
          "data": "0x000000000000000000000000000000000000000000000000000000000007a120",
          "blockHash": "0x96057c23fdca7407f538f15a3591951299963188e018eac6f5a72b63427f1c0c",
          "blockNumber": "0x6c14e5",
          "transactionHash": "0xc3d81e723a2f2a5b0ccd332310940caf4a5ee8165f8e96327a6facdab33e77b2",
          "transactionIndex": "0x2",
          "logIndex": "0x1",
          "removed": false
        }
      ],
      "status": "0x1",
      "logsBloom": "0x00000000000000000000000000000000000000000000000000000000000000000000000000000000000000000000000000000000000000000000000000000000000000000000000000000008000000000000000000000000000000000000000400000000000000000000000000000000400000000000000000000010400000000000000000000000000000000000000000000000000000000000000000000000000000000000000040000000000000000000000000000000000000000000000000000002200000020000000000000000000000000000000000800000000000000000000000000000000080000000000000000000001000000000000000000000",
      "type": "0x2",
      "effectiveGasPrice": "0xd820fb17"
    },
    {
      "transactionHash": "0x5a48ab813cdced1b5b294e7ec50295522174db51cef3a21b7b7e9ddc0b750a1b",
      "transactionIndex": "0x3",
      "blockHash": "0x96057c23fdca7407f538f15a3591951299963188e018eac6f5a72b63427f1c0c",
      "blockNumber": "0x6c14e5",
      "from": "0xDdb342ecc94236c29a5307d3757d0724D759453C",
      "to": "0xE2Bb56ee936fd6433DC0F6e7e3b8365C906AA057",
      "cumulativeGasUsed": "0x25744",
      "gasUsed": "0xfe77",
      "contractAddress": null,
      "logs": [
        {
          "address": "0xE2Bb56ee936fd6433DC0F6e7e3b8365C906AA057",
          "topics": [
            "0xdb80dd488acf86d17c747445b0eabb5d57c541d3bd7b6b87af987858e5066b2b",
            "0x000000000000000000000000ddb342ecc94236c29a5307d3757d0724d759453c",
            "0x0157ed716b46719b791498243b6d9305c0225ea0df8e734fb0fec71484023a9b",
            "0x00f1149cade9d692862ad41df96b108aa2c20af34f640457e781d166c98dc6b0"
          ],
          "data": "0x0000000000000000000000000000000000000000000000000000000000000060000000000000000000000000000000000000000000000000000000000000288100000000000000000000000000000000000000000000000000038d7ea4c6800000000000000000000000000000000000000000000000000000000000000000090000000000000000000000000000000000000000000000000000000000000002000000000000000000000000ddb342ecc94236c29a5307d3757d0724d759453c00000000000000000000000000000000000000000000000000000000000000000000000000000000000000001c7d4b196cb0c7b01d743fbc6116a902379c7238000000000000000000000000000000000000000000000000000000000000000000000000000000000000000000000000000000000000000000000000000000000000000000000000000000000000000000000000000000000000000000000000000000000000000000000000000000000000000000000000000000000007a1200028729b12ce1140cbc1e7cbc7245455d3c15fa0c7f5d2e9fc8e0441567f6b50",
          "blockHash": "0x96057c23fdca7407f538f15a3591951299963188e018eac6f5a72b63427f1c0c",
          "blockNumber": "0x6c14e5",
          "transactionHash": "0x5a48ab813cdced1b5b294e7ec50295522174db51cef3a21b7b7e9ddc0b750a1b",
          "transactionIndex": "0x3",
          "logIndex": "0x2",
          "removed": false
        }
      ],
      "status": "0x1",
      "logsBloom": "0x00400000000000000000000000020000000000000200000000000000000000000000000000000000000000000000000010000000000000000000000000000000000000000000000000000000000000000000000000000040001000000000000400000000100000010000000000000000400000000000000080000000400000000000000000000000000000000000000004000000000000000000000000000010000000000000000000000020000000000000000000000000000000000000000000000000000000000000000000000000000000000000000000000000000000000000000000000000000000000000000000000000000000000000000000000000",
      "type": "0x2",
      "effectiveGasPrice": "0xd820fb17"
    }
  ],
  "libraries": [],
  "pending": [],
  "returns": {},
  "timestamp": 1731689392,
  "chain": 11155111,
  "multi": false,
  "commit": "945f7f2"
}