{
  "transactions": [
    {
      "hash": "0x588ec7c6f424cfe7ed9fa94e18f611144a86677ae6331e4e9c8ae9b661cb7e3f",
      "transactionType": "CALL",
      "contractName": null,
      "contractAddress": "0x67b7a14745f14c253beb5d44b767ef1bfb916253",
      "function": "initiateCancelDepositRequest(address,(address,uint256,uint256,uint128,uint128,uint128,uint128),uint256)",
      "arguments": [
        "0xCa14007Eff0dB1f8135f4C25B34De49AB0d42766",
        "(0xDdb342ecc94236c29a5307d3757d0724D759453C, 2009894490435840142178314390393166646092438090257831307886760648929397478285, 2366254414417873771392932940469309727793822550615514268240785277201753657472, 170141183460469235273462165868118016, 1737524816, 1737524944, 50000000000000000)",
        "11427"
      ],
      "transaction": {
        "from": "0xddb342ecc94236c29a5307d3757d0724d759453c",
        "to": "0x67b7a14745f14c253beb5d44b767ef1bfb916253",
        "gas": "0x1c10c",
        "value": "0x0",
        "input": "0x13918d6a000000000000000000000000ca14007eff0db1f8135f4c25b34de49ab0d42766000000000000000000000000ddb342ecc94236c29a5307d3757d0724d759453c04718f5a0fc34cc1af16a1cdee98ffb20c31f5cd61d6ab07201858f4287c938d053b40a647cedfca6ca84f542a0fe36736031905a9639a7f19a3c1e66bfd5080000000000000000000000000000000000020c49ba5e353f80000000000000000000000000000000000000000000000000000000000000000000000006790865000000000000000000000000000000000000000000000000000000000679086d000000000000000000000000000000000000000000000000000b1a2bc2ec500000000000000000000000000000000000000000000000000000000000000002ca3",
        "nonce": "0x546",
        "chainId": "0xaa36a7"
      },
      "additionalContracts": [],
      "isFixedGasLimit": false
    }
  ],
  "receipts": [
    {
      "status": "0x1",
      "cumulativeGasUsed": "0xf62e1d",
      "logs": [
        {
          "address": "0xe2bb56ee936fd6433dc0f6e7e3b8365c906aa057",
          "topics": [
            "0x2e00dccd686fd6823ec7dc3e125582aa82881b6ff5f6b5a73856e1ea8338a3be",
            "0x000000000000000000000000ce5485cfb26914c5dce00b9baf0580364dafc7a4",
            "0x0594c1582459ea03f77deaf9eb7e3917d6994a03c13405ba42867f83d85f085d",
            "0x008bce41827dd5484d80312a2e43bc42a896e3fcf75bf84c2b49339168dfa00a"
          ],
          "data": "0x00000000000000000000000000000000000000000000000000000000000000400000000000000000000000000000000000000000000000000000000000002ca3000000000000000000000000000000000000000000000000000000000000000e000000000000000000000000ca14007eff0db1f8135f4c25b34de49ab0d4276600000000000000000000000067b7a14745f14c253beb5d44b767ef1bfb91625300b3fa26e2af15dda3690ff437257057ad524115b00182928b60d213d50281a600000000000000000000000000000000000000000000000000b1a2bc2ec50000000000000000000000000000000000000000000000000000000000000000000000000000000000000000000000000000000000000000000000000000000000080000000000000000000000000000000000000000000000000000000000000000000000000000000000000000ddb342ecc94236c29a5307d3757d0724d759453c04718f5a0fc34cc1af16a1cdee98ffb20c31f5cd61d6ab07201858f4287c938d053b40a647cedfca6ca84f542a0fe36736031905a9639a7f19a3c1e66bfd5080000000000000000000000000000000000020c49ba5e353f80000000000000000000000000000000000000000000000000000000000000000000000006790865000000000000000000000000000000000000000000000000000000000679086d000000000000000000000000000000000000000000000000000b1a2bc2ec50000",
          "blockHash": "0x938029bedb6effa98595f6d3ca0348ce1826717daebd7f3e4bcf41ab426eadec",
          "blockNumber": "0x73217f",
          "transactionHash": "0x588ec7c6f424cfe7ed9fa94e18f611144a86677ae6331e4e9c8ae9b661cb7e3f",
          "transactionIndex": "0x87",
          "logIndex": "0xe5",
          "removed": false
        },
        {
          "address": "0xce5485cfb26914c5dce00b9baf0580364dafc7a4",
          "topics": [
            "0x889e470f207032611b2f68dbd2124e3139794f19a6b536c83892fd5057603860",
            "0x00000000000000000000000067b7a14745f14c253beb5d44b767ef1bfb916253",
            "0x000000000000000000000000ca14007eff0db1f8135f4c25b34de49ab0d42766",
            "0x00b3fa26e2af15dda3690ff437257057ad524115b00182928b60d213d50281a6"
          ],
          "data": "0x00000000000000000000000000000000000000000000000000b1a2bc2ec5000000000000000000000000000000000000000000000000000000000000000000600000000000000000000000000000000000000000000000000000000000002ca300000000000000000000000000000000000000000000000000000000000000080000000000000000000000000000000000000000000000000000000000000000000000000000000000000000ddb342ecc94236c29a5307d3757d0724d759453c04718f5a0fc34cc1af16a1cdee98ffb20c31f5cd61d6ab07201858f4287c938d053b40a647cedfca6ca84f542a0fe36736031905a9639a7f19a3c1e66bfd5080000000000000000000000000000000000020c49ba5e353f80000000000000000000000000000000000000000000000000000000000000000000000006790865000000000000000000000000000000000000000000000000000000000679086d000000000000000000000000000000000000000000000000000b1a2bc2ec50000",
          "blockHash": "0x938029bedb6effa98595f6d3ca0348ce1826717daebd7f3e4bcf41ab426eadec",
          "blockNumber": "0x73217f",
          "transactionHash": "0x588ec7c6f424cfe7ed9fa94e18f611144a86677ae6331e4e9c8ae9b661cb7e3f",
          "transactionIndex": "0x87",
          "logIndex": "0xe6",
          "removed": false
        }
      ],
      "logsBloom": "0x00000000010000000000000000020000000000000000000000000040000000000000000000000000000000000002000000000000000004000000020200000000000000000000000000000000080000000000000000000040000000000000000000000000000000000000000000080000000000000000000004000000000008002000000000000000000000000000080000000000000200000000000028000010000000000000000000000002000000021000000000000000000000000000000000000000000000006010000000000000000000200000000000000000000000000000000000010000000000020004000000000000000000000000000000000004",
      "type": "0x2",
      "transactionHash": "0x588ec7c6f424cfe7ed9fa94e18f611144a86677ae6331e4e9c8ae9b661cb7e3f",
      "transactionIndex": "0x87",
      "blockHash": "0x938029bedb6effa98595f6d3ca0348ce1826717daebd7f3e4bcf41ab426eadec",
      "blockNumber": "0x73217f",
      "gasUsed": "0x1330b",
      "effectiveGasPrice": "0xd087ed9d",
      "from": "0xddb342ecc94236c29a5307d3757d0724d759453c",
      "to": "0x67b7a14745f14c253beb5d44b767ef1bfb916253",
      "contractAddress": null
    }
  ],
  "libraries": [],
  "pending": [],
  "returns": {},
  "timestamp": 1737527016,
  "chain": 11155111,
  "commit": "fcbff6b"
}