{
  "transactions": [
    {
      "hash": "0xcafff543619613f1c634a585ff7bf24fe3e34f9eb60e84fd0e35369cd542f95e",
      "transactionType": "CALL",
      "contractName": "StarkNetToken",
      "contractAddress": "0xCa14007Eff0dB1f8135f4C25B34De49AB0d42766",
      "function": "approve(address,uint256)",
      "arguments": [
        "0x7eb4C59eABE1234E8A6D02FdF4d1BB595C4702Cd",
        "115792089237316195423570985008687907853269984665640564039457584007913129639935"
      ],
      "transaction": {
        "type": "0x02",
        "from": "0xddb342ecc94236c29a5307d3757d0724d759453c",
        "to": "0xca14007eff0db1f8135f4c25b34de49ab0d42766",
        "gas": "0x93a9",
        "value": "0x0",
        "data": "0x095ea7b30000000000000000000000007eb4c59eabe1234e8a6d02fdf4d1bb595c4702cdffffffffffffffffffffffffffffffffffffffffffffffffffffffffffffffff",
        "nonce": "0x38f",
        "accessList": []
      },
      "additionalContracts": [],
      "isFixedGasLimit": false
    },
    {
      "hash": "0x69cce3ccbf5b4ce534f94aac78a34b709c4f2383e88725309bde6fbeaadaebf5",
      "transactionType": "CALL",
      "contractName": null,
      "contractAddress": "0x7eb4C59eABE1234E8A6D02FdF4d1BB595C4702Cd",
      "function": "initiateWithdrawal(uint256,address)",
      "arguments": [
        "500000000000000",
        "0x1c7D4B196Cb0C7B01d743Fbc6116a902379C7238"
      ],
      "transaction": {
        "type": "0x02",
        "from": "0xddb342ecc94236c29a5307d3757d0724d759453c",
        "to": "0x7eb4c59eabe1234e8a6d02fdf4d1bb595c4702cd",
        "gas": "0x1bbe2",
        "value": "0x1c6bf52634000",
        "data": "0x544381270000000000000000000000000000000000000000000000000001c6bf526340000000000000000000000000001c7d4b196cb0c7b01d743fbc6116a902379c7238",
        "nonce": "0x390",
        "accessList": []
      },
      "additionalContracts": [],
      "isFixedGasLimit": false
    }
  ],
  "receipts": [
    {
      "transactionHash": "0xcafff543619613f1c634a585ff7bf24fe3e34f9eb60e84fd0e35369cd542f95e",
      "transactionIndex": "0x2",
      "blockHash": "0x30b20b903c511581fbe84923b9d79535321fb3bed5bab18c153ccbff638f15d5",
      "blockNumber": "0x6d4def",
      "from": "0xDdb342ecc94236c29a5307d3757d0724D759453C",
      "to": "0xCa14007Eff0dB1f8135f4C25B34De49AB0d42766",
      "cumulativeGasUsed": "0x1b398",
      "gasUsed": "0x6ae8",
      "contractAddress": null,
      "logs": [
        {
          "address": "0xCa14007Eff0dB1f8135f4C25B34De49AB0d42766",
          "topics": [
            "0x8c5be1e5ebec7d5bd14f71427d1e84f3dd0314c0f7b2291e5b200ac8c7c3b925",
            "0x000000000000000000000000ddb342ecc94236c29a5307d3757d0724d759453c",
            "0x0000000000000000000000007eb4c59eabe1234e8a6d02fdf4d1bb595c4702cd"
          ],
          "data": "0xffffffffffffffffffffffffffffffffffffffffffffffffffffffffffffffff",
          "blockHash": "0x30b20b903c511581fbe84923b9d79535321fb3bed5bab18c153ccbff638f15d5",
          "blockNumber": "0x6d4def",
          "transactionHash": "0xcafff543619613f1c634a585ff7bf24fe3e34f9eb60e84fd0e35369cd542f95e",
          "transactionIndex": "0x2",
          "logIndex": "0x1",
          "removed": false
        }
      ],
      "status": "0x1",
      "logsBloom": "0x00000000000000100000000000000000000000000000000000000000000000000000000000000000000000000000000000000000000000000000000000200000000000000000000000000000000000000000000000000000000000000000000400020000000000000000000000000000400000000000000000000000400000000000000000000000000000000000000000000000000000000000000000000000020000000000000000000000000000008000000000000000000000000000000000000000000000020000000000000000000000000000000000800000000000000010000000000000000000000000000000000000001000000000000000000000",
      "type": "0x2",
      "effectiveGasPrice": "0x26ea5a20f"
    },
    {
      "transactionHash": "0x69cce3ccbf5b4ce534f94aac78a34b709c4f2383e88725309bde6fbeaadaebf5",
      "transactionIndex": "0x3",
      "blockHash": "0x30b20b903c511581fbe84923b9d79535321fb3bed5bab18c153ccbff638f15d5",
      "blockNumber": "0x6d4def",
      "from": "0xDdb342ecc94236c29a5307d3757d0724D759453C",
      "to": "0x7eb4C59eABE1234E8A6D02FdF4d1BB595C4702Cd",
      "cumulativeGasUsed": "0x2e31b",
      "gasUsed": "0x12f83",
      "contractAddress": null,
      "logs": [
        {
          "address": "0xE2Bb56ee936fd6433DC0F6e7e3b8365C906AA057",
          "topics": [
            "0xdb80dd488acf86d17c747445b0eabb5d57c541d3bd7b6b87af987858e5066b2b",
            "0x0000000000000000000000007eb4c59eabe1234e8a6d02fdf4d1bb595c4702cd",
            "0x02c9b0e967948762be38c87ac131d2958f7988d6aff58885993f1c186a5333b8",
            "0x00f1149cade9d692862ad41df96b108aa2c20af34f640457e781d166c98dc6b0"
          ],
          "data": "0x000000000000000000000000000000000000000000000000000000000000006000000000000000000000000000000000000000000000000000000000000029640000000000000000000000000000000000000000000000000001c6bf5263400000000000000000000000000000000000000000000000000000000000000000090000000000000000000000000000000000000000000000000000000000000002000000000000000000000000ddb342ecc94236c29a5307d3757d0724d759453c00000000000000000000000000000000000000000000000000000000000000000000000000000000000000001c7d4b196cb0c7b01d743fbc6116a902379c72380000000000000000000000000000000000000000000000000000000000000000000000000000000000000000000000000000000000000000000000000000000000000000000000000000000000000000000000000000000000000000000000000000000000000000000000000000000000000000000000000001c6bf526340000000000000000000000000000000000000000000000000000000000000000000",
          "blockHash": "0x30b20b903c511581fbe84923b9d79535321fb3bed5bab18c153ccbff638f15d5",
          "blockNumber": "0x6d4def",
          "transactionHash": "0x69cce3ccbf5b4ce534f94aac78a34b709c4f2383e88725309bde6fbeaadaebf5",
          "transactionIndex": "0x3",
          "logIndex": "0x2",
          "removed": false
        },
        {
          "address": "0x7eb4C59eABE1234E8A6D02FdF4d1BB595C4702Cd",
          "topics": [
            "0x6d92f7d3303f995bf21956bb0c51b388bae348eaf45c23debd2cfa3fcd9ec646",
            "0x000000000000000000000000ddb342ecc94236c29a5307d3757d0724d759453c"
          ],
          "data": "0x0000000000000000000000000000000000000000000000000001c6bf52634000",
          "blockHash": "0x30b20b903c511581fbe84923b9d79535321fb3bed5bab18c153ccbff638f15d5",
          "blockNumber": "0x6d4def",
          "transactionHash": "0x69cce3ccbf5b4ce534f94aac78a34b709c4f2383e88725309bde6fbeaadaebf5",
          "transactionIndex": "0x3",
          "logIndex": "0x3",
          "removed": false
        }
      ],
      "status": "0x1",
      "logsBloom": "0x00400000000200100000000000020000000000000000000000000000000000000000000000000000000000000400000000000000000000200000000000000000000000000000000000000000000000000000000000000040001000000000000400030000100000010000000000000000400000000000000000000001400000000000000000000000000000000000000004000000000000000000000000000010000000000000000040000020000000208000000000000000000000000000000000000000000000000000000000000000000000000000000000000800000000000000001000000000000000000000000000000000000000000000000000000000",
      "type": "0x2",
      "effectiveGasPrice": "0x26ea5a20f"
    }
  ],
  "libraries": [],
  "pending": [],
  "returns": {},
  "timestamp": 1732713458,
  "chain": 11155111,
  "multi": false,
  "commit": "1254ada"
}