{
  "transactions": [
    {
      "hash": "0xf08d8447b0e9d1f81fcf03aed90d912646466349ac1368865400ac5e1c9de5bf",
      "transactionType": "CALL",
      "contractName": "StarkNetToken",
      "contractAddress": "0xCa14007Eff0dB1f8135f4C25B34De49AB0d42766",
      "function": "approve(address,uint256)",
      "arguments": [
        "0x42456035d7d5b31aA5f1f4c3945fD786d5B9047b",
        "115792089237316195423570985008687907853269984665640564039457584007913129639935"
      ],
      "transaction": {
        "type": "0x02",
        "from": "0xddb342ecc94236c29a5307d3757d0724d759453c",
        "to": "0xca14007eff0db1f8135f4c25b34de49ab0d42766",
        "gas": "0x93a9",
        "value": "0x0",
        "data": "0x095ea7b300000000000000000000000042456035d7d5b31aa5f1f4c3945fd786d5b9047bffffffffffffffffffffffffffffffffffffffffffffffffffffffffffffffff",
        "nonce": "0x219",
        "accessList": []
      },
      "additionalContracts": [],
      "isFixedGasLimit": false
    },
    {
      "hash": "0xaea5e0065a144ff952d65c93965b489a3c3103bdd6849546759e2d55e6ee2639",
      "transactionType": "CALL",
      "contractName": "StarkNetToken",
      "contractAddress": "0xCa14007Eff0dB1f8135f4C25B34De49AB0d42766",
      "function": "transfer(address,uint256)",
      "arguments": [
        "0x42456035d7d5b31aA5f1f4c3945fD786d5B9047b",
        "1000000000000000"
      ],
      "transaction": {
        "type": "0x02",
        "from": "0xddb342ecc94236c29a5307d3757d0724d759453c",
        "to": "0xca14007eff0db1f8135f4c25b34de49ab0d42766",
        "gas": "0xe427",
        "value": "0x0",
        "data": "0xa9059cbb00000000000000000000000042456035d7d5b31aa5f1f4c3945fd786d5b9047b00000000000000000000000000000000000000000000000000038d7ea4c68000",
        "nonce": "0x21a",
        "accessList": []
      },
      "additionalContracts": [],
      "isFixedGasLimit": false
    },
    {
      "hash": "0xa58fb229ebd125ddd33008dc7bab4fe05e259e93dfa812430f43dab6f25e852f",
      "transactionType": "CALL",
      "contractName": "L1TWAMMBridge",
      "contractAddress": "0x42456035d7d5b31aA5f1f4c3945fD786d5B9047b",
      "function": "depositAndCreateOrder((address,uint256,uint256,uint128,uint128,uint128,uint128,uint256))",
      "arguments": [
        "(0xDdb342ecc94236c29a5307d3757d0724D759453C, 2009894490435840142178314390393166646092438090257831307886760648929397478285, 2366254414417873771392932940469309727793822550615514268240785277201753657472, 0, 1730990016, 1730990080, 1000000000000000, 2475222393109939375102424682875175304048438104125586224731729781738300548063)"
      ],
      "transaction": {
        "type": "0x02",
        "from": "0xddb342ecc94236c29a5307d3757d0724d759453c",
        "to": "0x42456035d7d5b31aa5f1f4c3945fd786d5b9047b",
        "gas": "0x3a529",
        "value": "0x38d7ea4c68000",
        "data": "0x5ce510fa000000000000000000000000ddb342ecc94236c29a5307d3757d0724d759453c04718f5a0fc34cc1af16a1cdee98ffb20c31f5cd61d6ab07201858f4287c938d053b40a647cedfca6ca84f542a0fe36736031905a9639a7f19a3c1e66bfd5080000000000000000000000000000000000000000000000000000000000000000000000000000000000000000000000000000000000000000000000000672ccfc000000000000000000000000000000000000000000000000000000000672cd00000000000000000000000000000000000000000000000000000038d7ea4c680000578ed1d3f98dcf36dfc9525e80c4a42d383642ab182a846447edbb77384a3df",
        "nonce": "0x21b",
        "accessList": []
      },
      "additionalContracts": [],
      "isFixedGasLimit": false
    }
  ],
  "receipts": [],
  "libraries": [],
  "pending": [
    "0xf08d8447b0e9d1f81fcf03aed90d912646466349ac1368865400ac5e1c9de5bf",
    "0xaea5e0065a144ff952d65c93965b489a3c3103bdd6849546759e2d55e6ee2639",
    "0xa58fb229ebd125ddd33008dc7bab4fe05e259e93dfa812430f43dab6f25e852f"
  ],
  "returns": {},
  "timestamp": 1730990086,
  "chain": 11155111,
  "multi": false,
  "commit": "e344443"
}