{
  "transactions": [
    {
      "hash": "0x3f638f9e578b27478ecdbf4ce39eaec8e476f3e965197b6d28d5390a7ca80b1d",
      "transactionType": "CALL",
      "contractName": null,
      "contractAddress": "0xca14007eff0db1f8135f4c25b34de49ab0d42766",
      "function": "approve(address,uint256)",
      "arguments": [
        "0x17ceB8Da41205f1026241766328751884Afa7FE8",
        "115792089237316195423570985008687907853269984665640564039457584007913129639935"
      ],
      "transaction": {
        "from": "0xddb342ecc94236c29a5307d3757d0724d759453c",
        "to": "0xca14007eff0db1f8135f4c25b34de49ab0d42766",
        "gas": "0x93a9",
        "value": "0x0",
        "input": "0x095ea7b300000000000000000000000017ceb8da41205f1026241766328751884afa7fe8ffffffffffffffffffffffffffffffffffffffffffffffffffffffffffffffff",
        "nonce": "0x4d6",
        "chainId": "0xaa36a7"
      },
      "additionalContracts": [],
      "isFixedGasLimit": false
    },
    {
      "hash": "0x1916f47bf398c936ef44f11d888f797ddf85d192d0743f0b968822fd74b25dff",
      "transactionType": "CALL",
      "contractName": null,
      "contractAddress": "0x17ceb8da41205f1026241766328751884afa7fe8",
      "function": "setL2EndpointAddress(uint256)",
      "arguments": [
        "1985003858027237544875851732037360139754821879210425059546780984419402597830"
      ],
      "transaction": {
        "from": "0xddb342ecc94236c29a5307d3757d0724d759453c",
        "to": "0x17ceb8da41205f1026241766328751884afa7fe8",
        "gas": "0xabb8",
        "value": "0x0",
        "input": "0x5155fb2f046378ed317e00cb21e538b89b145a2b16633c5ff51dfb3f4486d070b8c345c6",
        "nonce": "0x4d7",
        "chainId": "0xaa36a7"
      },
      "additionalContracts": [],
      "isFixedGasLimit": false
    }
  ],
  "receipts": [
    {
      "status": "0x1",
      "cumulativeGasUsed": "0x9a02c3",
      "logs": [
        {
          "address": "0xca14007eff0db1f8135f4c25b34de49ab0d42766",
          "topics": [
            "0x8c5be1e5ebec7d5bd14f71427d1e84f3dd0314c0f7b2291e5b200ac8c7c3b925",
            "0x000000000000000000000000ddb342ecc94236c29a5307d3757d0724d759453c",
            "0x00000000000000000000000017ceb8da41205f1026241766328751884afa7fe8"
          ],
          "data": "0xffffffffffffffffffffffffffffffffffffffffffffffffffffffffffffffff",
          "blockHash": "0x65d96ba9c716af101f8ad21e79005f5bb4d954bfe39cdceaa18cf795b2aceed3",
          "blockNumber": "0x72f5e3",
          "transactionHash": "0x3f638f9e578b27478ecdbf4ce39eaec8e476f3e965197b6d28d5390a7ca80b1d",
          "transactionIndex": "0x55",
          "logIndex": "0x9b",
          "removed": false
        }
      ],
      "logsBloom": "0x00000000000000000000000000000000000000000000000000000000000000000000000000000000000000000800000000000000000000000000000000200000000000000000000000000000000000000000000000000000000000000000000400000000000000000000000000000000400000000000000000000000400000000000000000000000000000000000000000000000000000000000000000000000020000000000000000000000000000000000000000000000000000000000000000000000000000020000000000000000020000000000000000800000000000000010000000400000000000000000000000000000001000000000000000000000",
      "type": "0x2",
      "transactionHash": "0x3f638f9e578b27478ecdbf4ce39eaec8e476f3e965197b6d28d5390a7ca80b1d",
      "transactionIndex": "0x55",
      "blockHash": "0x65d96ba9c716af101f8ad21e79005f5bb4d954bfe39cdceaa18cf795b2aceed3",
      "blockNumber": "0x72f5e3",
      "gasUsed": "0x6ae8",
      "effectiveGasPrice": "0x4fe62ebc",
      "from": "0xddb342ecc94236c29a5307d3757d0724d759453c",
      "to": "0xca14007eff0db1f8135f4c25b34de49ab0d42766",
      "contractAddress": null
    },
    {
      "status": "0x1",
      "cumulativeGasUsed": "0x9a782e",
      "logs": [
        {
          "address": "0x17ceb8da41205f1026241766328751884afa7fe8",
          "topics": [
            "0xa35dce9e53611b0cabca886209c4a1d09c80214af9b6fb6027f7b2f7c39838e8"
          ],
          "data": "0x046378ed317e00cb21e538b89b145a2b16633c5ff51dfb3f4486d070b8c345c6",
          "blockHash": "0x65d96ba9c716af101f8ad21e79005f5bb4d954bfe39cdceaa18cf795b2aceed3",
          "blockNumber": "0x72f5e3",
          "transactionHash": "0x1916f47bf398c936ef44f11d888f797ddf85d192d0743f0b968822fd74b25dff",
          "transactionIndex": "0x56",
          "logIndex": "0x9c",
          "removed": false
        }
      ],
      "logsBloom": "0x00000000000000000000000010000000000000000000000000000000000000000000000000000000000000000000000000000000000000000000000000000000000000000000000000000000000200000000000000000000000000000000000000000000000000000000000000000000000000000000000000000000000000000000000000000000000000000000000000000000000000000000000000000000800000000000000000000000000000000000000004000000000000000000002800000000000000000000000000000000000000000000000000000000000000000000000000000000000000000000000000000000000000000000000000000000",
      "type": "0x2",
      "transactionHash": "0x1916f47bf398c936ef44f11d888f797ddf85d192d0743f0b968822fd74b25dff",
      "transactionIndex": "0x56",
      "blockHash": "0x65d96ba9c716af101f8ad21e79005f5bb4d954bfe39cdceaa18cf795b2aceed3",
      "blockNumber": "0x72f5e3",
      "gasUsed": "0x756b",
      "effectiveGasPrice": "0x4fe62ebc",
      "from": "0xddb342ecc94236c29a5307d3757d0724d759453c",
      "to": "0x17ceb8da41205f1026241766328751884afa7fe8",
      "contractAddress": null
    }
  ],
  "libraries": [],
  "pending": [],
  "returns": {},
  "timestamp": 1737392822,
  "chain": 11155111,
  "commit": "fcbff6b"
}