{
  "transactions": [
    {
      "hash": "0x3da4669d4d69d941dcba46c62279ff2b599d477f0b69343e94d3b90173d8b2d2",
      "transactionType": "CALL",
      "contractName": null,
      "contractAddress": "0xca14007eff0db1f8135f4c25b34de49ab0d42766",
      "function": "approve(address,uint256)",
      "arguments": [
        "0x17ceB8Da41205f1026241766328751884Afa7FE8",
        "115792089237316195423570985008687907853269984665640564039457584007913129639935"
      ],
      "transaction": {
        "from": "0xddb342ecc94236c29a5307d3757d0724d759453c",
        "to": "0xca14007eff0db1f8135f4c25b34de49ab0d42766",
        "gas": "0x93a9",
        "value": "0x0",
        "input": "0x095ea7b300000000000000000000000017ceb8da41205f1026241766328751884afa7fe8ffffffffffffffffffffffffffffffffffffffffffffffffffffffffffffffff",
        "nonce": "0x4ca",
        "chainId": "0xaa36a7"
      },
      "additionalContracts": [],
      "isFixedGasLimit": false
    },
    {
      "hash": "0xe9c9ac536ac06048fe8ff8a7f50fd08473670d6bdf85b52430880c8231714f62",
      "transactionType": "CALL",
      "contractName": null,
      "contractAddress": "0x17ceb8da41205f1026241766328751884afa7fe8",
      "function": "setL2EndpointAddress(uint256)",
      "arguments": [
        "3603286522628348846287448082418031106768078204170716810180907894571395917633"
      ],
      "transaction": {
        "from": "0xddb342ecc94236c29a5307d3757d0724d759453c",
        "to": "0x17ceb8da41205f1026241766328751884afa7fe8",
        "gas": "0xabb8",
        "value": "0x0",
        "input": "0x5155fb2f07f7634d530030231a04892601d83bbc79defee8145d116d18fc4978e21f2741",
        "nonce": "0x4cb",
        "chainId": "0xaa36a7"
      },
      "additionalContracts": [],
      "isFixedGasLimit": false
    }
  ],
  "receipts": [
    {
      "status": "0x1",
      "cumulativeGasUsed": "0x117c296",
      "logs": [
        {
          "address": "0xca14007eff0db1f8135f4c25b34de49ab0d42766",
          "topics": [
            "0x8c5be1e5ebec7d5bd14f71427d1e84f3dd0314c0f7b2291e5b200ac8c7c3b925",
            "0x000000000000000000000000ddb342ecc94236c29a5307d3757d0724d759453c",
            "0x00000000000000000000000017ceb8da41205f1026241766328751884afa7fe8"
          ],
          "data": "0xffffffffffffffffffffffffffffffffffffffffffffffffffffffffffffffff",
          "blockHash": "0x198bd81e67e9221213a274a733a42a5e343b66f78755af00ff90a9326ed62d4c",
          "blockNumber": "0x72f4f7",
          "transactionHash": "0x3da4669d4d69d941dcba46c62279ff2b599d477f0b69343e94d3b90173d8b2d2",
          "transactionIndex": "0x73",
          "logIndex": "0x104",
          "removed": false
        }
      ],
      "logsBloom": "0x00000000000000000000000000000000000000000000000000000000000000000000000000000000000000000800000000000000000000000000000000200000000000000000000000000000000000000000000000000000000000000000000400000000000000000000000000000000400000000000000000000000400000000000000000000000000000000000000000000000000000000000000000000000020000000000000000000000000000000000000000000000000000000000000000000000000000020000000000000000020000000000000000800000000000000010000000400000000000000000000000000000001000000000000000000000",
      "type": "0x2",
      "transactionHash": "0x3da4669d4d69d941dcba46c62279ff2b599d477f0b69343e94d3b90173d8b2d2",
      "transactionIndex": "0x73",
      "blockHash": "0x198bd81e67e9221213a274a733a42a5e343b66f78755af00ff90a9326ed62d4c",
      "blockNumber": "0x72f4f7",
      "gasUsed": "0x6ae8",
      "effectiveGasPrice": "0x4057701b",
      "from": "0xddb342ecc94236c29a5307d3757d0724d759453c",
      "to": "0xca14007eff0db1f8135f4c25b34de49ab0d42766",
      "contractAddress": null
    },
    {
      "status": "0x1",
      "cumulativeGasUsed": "0x1183801",
      "logs": [
        {
          "address": "0x17ceb8da41205f1026241766328751884afa7fe8",
          "topics": [
            "0xa35dce9e53611b0cabca886209c4a1d09c80214af9b6fb6027f7b2f7c39838e8"
          ],
          "data": "0x07f7634d530030231a04892601d83bbc79defee8145d116d18fc4978e21f2741",
          "blockHash": "0x198bd81e67e9221213a274a733a42a5e343b66f78755af00ff90a9326ed62d4c",
          "blockNumber": "0x72f4f7",
          "transactionHash": "0xe9c9ac536ac06048fe8ff8a7f50fd08473670d6bdf85b52430880c8231714f62",
          "transactionIndex": "0x74",
          "logIndex": "0x105",
          "removed": false
        }
      ],
      "logsBloom": "0x00000000000000000000000010000000000000000000000000000000000000000000000000000000000000000000000000000000000000000000000000000000000000000000000000000000000200000000000000000000000000000000000000000000000000000000000000000000000000000000000000000000000000000000000000000000000000000000000000000000000000000000000000000000800000000000000000000000000000000000000004000000000000000000002800000000000000000000000000000000000000000000000000000000000000000000000000000000000000000000000000000000000000000000000000000000",
      "type": "0x2",
      "transactionHash": "0xe9c9ac536ac06048fe8ff8a7f50fd08473670d6bdf85b52430880c8231714f62",
      "transactionIndex": "0x74",
      "blockHash": "0x198bd81e67e9221213a274a733a42a5e343b66f78755af00ff90a9326ed62d4c",
      "blockNumber": "0x72f4f7",
      "gasUsed": "0x756b",
      "effectiveGasPrice": "0x4057701b",
      "from": "0xddb342ecc94236c29a5307d3757d0724d759453c",
      "to": "0x17ceb8da41205f1026241766328751884afa7fe8",
      "contractAddress": null
    }
  ],
  "libraries": [],
  "pending": [],
  "returns": {},
  "timestamp": 1737389972,
  "chain": 11155111,
  "commit": "fcbff6b"
}