{
  "transactions": [
    {
      "hash": "0xd43d024d1b692f39d9dcc58ad053dbe365e5b6c76181ac60390d92b77b0b323f",
      "transactionType": "CALL",
      "contractName": null,
      "contractAddress": "0xca14007eff0db1f8135f4c25b34de49ab0d42766",
      "function": "approve(address,uint256)",
      "arguments": [
        "0x17ceB8Da41205f1026241766328751884Afa7FE8",
        "115792089237316195423570985008687907853269984665640564039457584007913129639935"
      ],
      "transaction": {
        "from": "0xddb342ecc94236c29a5307d3757d0724d759453c",
        "to": "0xca14007eff0db1f8135f4c25b34de49ab0d42766",
        "gas": "0x93a9",
        "value": "0x0",
        "input": "0x095ea7b300000000000000000000000017ceb8da41205f1026241766328751884afa7fe8ffffffffffffffffffffffffffffffffffffffffffffffffffffffffffffffff",
        "nonce": "0x4c8",
        "chainId": "0xaa36a7"
      },
      "additionalContracts": [],
      "isFixedGasLimit": false
    },
    {
      "hash": "0xf29492f7ba79600d7c4f782ee9892a8b0f12dfc519bc1819bf7468c7e564d663",
      "transactionType": "CALL",
      "contractName": null,
      "contractAddress": "0x17ceb8da41205f1026241766328751884afa7fe8",
      "function": "initiateWithdrawal(address,address,uint64)",
      "arguments": [
        "0xDdb342ecc94236c29a5307d3757d0724D759453C",
        "0x1c7D4B196Cb0C7B01d743Fbc6116a902379C7238",
        "522"
      ],
      "transaction": {
        "from": "0xddb342ecc94236c29a5307d3757d0724d759453c",
        "to": "0x17ceb8da41205f1026241766328751884afa7fe8",
        "gas": "0x1b4c1",
        "value": "0x1c6bf52634000",
        "input": "0x9b4085f6000000000000000000000000ddb342ecc94236c29a5307d3757d0724d759453c0000000000000000000000001c7d4b196cb0c7b01d743fbc6116a902379c7238000000000000000000000000000000000000000000000000000000000000020a",
        "nonce": "0x4c9",
        "chainId": "0xaa36a7"
      },
      "additionalContracts": [],
      "isFixedGasLimit": false
    }
  ],
  "receipts": [
    {
      "status": "0x1",
      "cumulativeGasUsed": "0xaec50f",
      "logs": [
        {
          "address": "0xca14007eff0db1f8135f4c25b34de49ab0d42766",
          "topics": [
            "0x8c5be1e5ebec7d5bd14f71427d1e84f3dd0314c0f7b2291e5b200ac8c7c3b925",
            "0x000000000000000000000000ddb342ecc94236c29a5307d3757d0724d759453c",
            "0x00000000000000000000000017ceb8da41205f1026241766328751884afa7fe8"
          ],
          "data": "0xffffffffffffffffffffffffffffffffffffffffffffffffffffffffffffffff",
          "blockHash": "0x72ee6e75fe4d55f33df6d0c65f77a9b245ff4886e2ab4836c903b127a65d8de0",
          "blockNumber": "0x72f4d0",
          "transactionHash": "0xd43d024d1b692f39d9dcc58ad053dbe365e5b6c76181ac60390d92b77b0b323f",
          "transactionIndex": "0x64",
          "logIndex": "0x9c",
          "removed": false
        }
      ],
      "logsBloom": "0x00000000000000000000000000000000000000000000000000000000000000000000000000000000000000000800000000000000000000000000000000200000000000000000000000000000000000000000000000000000000000000000000400000000000000000000000000000000400000000000000000000000400000000000000000000000000000000000000000000000000000000000000000000000020000000000000000000000000000000000000000000000000000000000000000000000000000020000000000000000020000000000000000800000000000000010000000400000000000000000000000000000001000000000000000000000",
      "type": "0x2",
      "transactionHash": "0xd43d024d1b692f39d9dcc58ad053dbe365e5b6c76181ac60390d92b77b0b323f",
      "transactionIndex": "0x64",
      "blockHash": "0x72ee6e75fe4d55f33df6d0c65f77a9b245ff4886e2ab4836c903b127a65d8de0",
      "blockNumber": "0x72f4d0",
      "gasUsed": "0x6ae8",
      "effectiveGasPrice": "0x3fa2f1c1",
      "from": "0xddb342ecc94236c29a5307d3757d0724d759453c",
      "to": "0xca14007eff0db1f8135f4c25b34de49ab0d42766",
      "contractAddress": null
    },
    {
      "status": "0x1",
      "cumulativeGasUsed": "0xafefb2",
      "logs": [
        {
          "address": "0xe2bb56ee936fd6433dc0f6e7e3b8365c906aa057",
          "topics": [
            "0xdb80dd488acf86d17c747445b0eabb5d57c541d3bd7b6b87af987858e5066b2b",
            "0x00000000000000000000000017ceb8da41205f1026241766328751884afa7fe8",
            "0x07ef329aa8c0ba5021484f46beef73ea9b97575c225fe8cea0436cb44bbf723c",
            "0x00f1149cade9d692862ad41df96b108aa2c20af34f640457e781d166c98dc6b0"
          ],
          "data": "0x00000000000000000000000000000000000000000000000000000000000000600000000000000000000000000000000000000000000000000000000000002c310000000000000000000000000000000000000000000000000001c6bf5263400000000000000000000000000000000000000000000000000000000000000000050000000000000000000000000000000000000000000000000000000000000002000000000000000000000000ddb342ecc94236c29a5307d3757d0724d759453c000000000000000000000000ddb342ecc94236c29a5307d3757d0724d759453c0000000000000000000000001c7d4b196cb0c7b01d743fbc6116a902379c7238000000000000000000000000000000000000000000000000000000000000020a",
          "blockHash": "0x72ee6e75fe4d55f33df6d0c65f77a9b245ff4886e2ab4836c903b127a65d8de0",
          "blockNumber": "0x72f4d0",
          "transactionHash": "0xf29492f7ba79600d7c4f782ee9892a8b0f12dfc519bc1819bf7468c7e564d663",
          "transactionIndex": "0x65",
          "logIndex": "0x9d",
          "removed": false
        },
        {
          "address": "0x17ceb8da41205f1026241766328751884afa7fe8",
          "topics": [
            "0x89bd98ae1b8dd4dbaeba50e40ad484414a306be9fb54ec4eecf1a801ca9aeacf",
            "0x000000000000000000000000ddb342ecc94236c29a5307d3757d0724d759453c"
          ],
          "data": "0x000000000000000000000000000000000000000000000000000000000000020a",
          "blockHash": "0x72ee6e75fe4d55f33df6d0c65f77a9b245ff4886e2ab4836c903b127a65d8de0",
          "blockNumber": "0x72f4d0",
          "transactionHash": "0xf29492f7ba79600d7c4f782ee9892a8b0f12dfc519bc1819bf7468c7e564d663",
          "transactionIndex": "0x65",
          "logIndex": "0x9e",
          "removed": false
        }
      ],
      "logsBloom": "0x00400000040000000000000000020000000000000000000001000000000000000000000000000000000000000800000000000000000000000000000000000000000000000000000000001000000000000000000000000040001000000000000400000000100000010000000000000000400000000000000000000000400000000000000000000000000000000000000004000000800000000000000000000010000000000000000000000020000000000000000004000000000000000000002800000000000000000000000000000000020000000000000000000000000000000000000000400000000000002000000000000000010000000000000000000000",
      "type": "0x2",
      "transactionHash": "0xf29492f7ba79600d7c4f782ee9892a8b0f12dfc519bc1819bf7468c7e564d663",
      "transactionIndex": "0x65",
      "blockHash": "0x72ee6e75fe4d55f33df6d0c65f77a9b245ff4886e2ab4836c903b127a65d8de0",
      "blockNumber": "0x72f4d0",
      "gasUsed": "0x12aa3",
      "effectiveGasPrice": "0x3fa2f1c1",
      "from": "0xddb342ecc94236c29a5307d3757d0724d759453c",
      "to": "0x17ceb8da41205f1026241766328751884afa7fe8",
      "contractAddress": null
    }
  ],
  "libraries": [],
  "pending": [],
  "returns": {},
  "timestamp": 1737389472,
  "chain": 11155111,
  "commit": "fcbff6b"
}