{
  "transactions": [
    {
      "hash": "0xbaec4c87274541d6ced25aa59b36dde49997563f0ae1c1c2b06de9cb421c9baa",
      "transactionType": "CALL",
      "contractName": null,
      "contractAddress": "0xca14007eff0db1f8135f4c25b34de49ab0d42766",
      "function": "approve(address,uint256)",
      "arguments": [
        "0x17ceB8Da41205f1026241766328751884Afa7FE8",
        "115792089237316195423570985008687907853269984665640564039457584007913129639935"
      ],
      "transaction": {
        "from": "0xddb342ecc94236c29a5307d3757d0724d759453c",
        "to": "0xca14007eff0db1f8135f4c25b34de49ab0d42766",
        "gas": "0x93a9",
        "value": "0x0",
        "input": "0x095ea7b300000000000000000000000017ceb8da41205f1026241766328751884afa7fe8ffffffffffffffffffffffffffffffffffffffffffffffffffffffffffffffff",
        "nonce": "0x4b3",
        "chainId": "0xaa36a7"
      },
      "additionalContracts": [],
      "isFixedGasLimit": false
    },
    {
      "hash": "0x88e5f02eb659066412d1b7857ea3c07230c62232a9d3e622077a74651206795c",
      "transactionType": "CALL",
      "contractName": null,
      "contractAddress": "0x17ceb8da41205f1026241766328751884afa7fe8",
      "function": "initiateWithdrawal(address,address,uint64)",
      "arguments": [
        "0xDdb342ecc94236c29a5307d3757d0724D759453C",
        "0x1c7D4B196Cb0C7B01d743Fbc6116a902379C7238",
        "522"
      ],
      "transaction": {
        "from": "0xddb342ecc94236c29a5307d3757d0724d759453c",
        "to": "0x17ceb8da41205f1026241766328751884afa7fe8",
        "gas": "0x1b4c1",
        "value": "0x1c6bf52634000",
        "input": "0x9b4085f6000000000000000000000000ddb342ecc94236c29a5307d3757d0724d759453c0000000000000000000000001c7d4b196cb0c7b01d743fbc6116a902379c7238000000000000000000000000000000000000000000000000000000000000020a",
        "nonce": "0x4b4",
        "chainId": "0xaa36a7"
      },
      "additionalContracts": [],
      "isFixedGasLimit": false
    }
  ],
  "receipts": [
    {
      "status": "0x1",
      "cumulativeGasUsed": "0x111feb8",
      "logs": [
        {
          "address": "0xca14007eff0db1f8135f4c25b34de49ab0d42766",
          "topics": [
            "0x8c5be1e5ebec7d5bd14f71427d1e84f3dd0314c0f7b2291e5b200ac8c7c3b925",
            "0x000000000000000000000000ddb342ecc94236c29a5307d3757d0724d759453c",
            "0x00000000000000000000000017ceb8da41205f1026241766328751884afa7fe8"
          ],
          "data": "0xffffffffffffffffffffffffffffffffffffffffffffffffffffffffffffffff",
          "blockHash": "0xe5c10797a6643910a9462cef447ef026ecfe2ac7ebae3c39193659041f038a8a",
          "blockNumber": "0x72f341",
          "transactionHash": "0xbaec4c87274541d6ced25aa59b36dde49997563f0ae1c1c2b06de9cb421c9baa",
          "transactionIndex": "0xa7",
          "logIndex": "0x10a",
          "removed": false
        }
      ],
      "logsBloom": "0x00000000000000000000000000000000000000000000000000000000000000000000000000000000000000000800000000000000000000000000000000200000000000000000000000000000000000000000000000000000000000000000000400000000000000000000000000000000400000000000000000000000400000000000000000000000000000000000000000000000000000000000000000000000020000000000000000000000000000000000000000000000000000000000000000000000000000020000000000000000020000000000000000800000000000000010000000400000000000000000000000000000001000000000000000000000",
      "type": "0x2",
      "transactionHash": "0xbaec4c87274541d6ced25aa59b36dde49997563f0ae1c1c2b06de9cb421c9baa",
      "transactionIndex": "0xa7",
      "blockHash": "0xe5c10797a6643910a9462cef447ef026ecfe2ac7ebae3c39193659041f038a8a",
      "blockNumber": "0x72f341",
      "gasUsed": "0x6ae8",
      "effectiveGasPrice": "0x62463258",
      "from": "0xddb342ecc94236c29a5307d3757d0724d759453c",
      "to": "0xca14007eff0db1f8135f4c25b34de49ab0d42766",
      "contractAddress": null
    },
    {
      "status": "0x1",
      "cumulativeGasUsed": "0x113295b",
      "logs": [
        {
          "address": "0xe2bb56ee936fd6433dc0f6e7e3b8365c906aa057",
          "topics": [
            "0xdb80dd488acf86d17c747445b0eabb5d57c541d3bd7b6b87af987858e5066b2b",
            "0x00000000000000000000000017ceb8da41205f1026241766328751884afa7fe8",
            "0x07ef329aa8c0ba5021484f46beef73ea9b97575c225fe8cea0436cb44bbf723c",
            "0x00f1149cade9d692862ad41df96b108aa2c20af34f640457e781d166c98dc6b0"
          ],
          "data": "0x00000000000000000000000000000000000000000000000000000000000000600000000000000000000000000000000000000000000000000000000000002c250000000000000000000000000000000000000000000000000001c6bf5263400000000000000000000000000000000000000000000000000000000000000000050000000000000000000000000000000000000000000000000000000000000002000000000000000000000000ddb342ecc94236c29a5307d3757d0724d759453c000000000000000000000000ddb342ecc94236c29a5307d3757d0724d759453c0000000000000000000000001c7d4b196cb0c7b01d743fbc6116a902379c7238000000000000000000000000000000000000000000000000000000000000020a",
          "blockHash": "0xe5c10797a6643910a9462cef447ef026ecfe2ac7ebae3c39193659041f038a8a",
          "blockNumber": "0x72f341",
          "transactionHash": "0x88e5f02eb659066412d1b7857ea3c07230c62232a9d3e622077a74651206795c",
          "transactionIndex": "0xa8",
          "logIndex": "0x10b",
          "removed": false
        },
        {
          "address": "0x17ceb8da41205f1026241766328751884afa7fe8",
          "topics": [
            "0x89bd98ae1b8dd4dbaeba50e40ad484414a306be9fb54ec4eecf1a801ca9aeacf",
            "0x000000000000000000000000ddb342ecc94236c29a5307d3757d0724d759453c"
          ],
          "data": "0x000000000000000000000000000000000000000000000000000000000000020a",
          "blockHash": "0xe5c10797a6643910a9462cef447ef026ecfe2ac7ebae3c39193659041f038a8a",
          "blockNumber": "0x72f341",
          "transactionHash": "0x88e5f02eb659066412d1b7857ea3c07230c62232a9d3e622077a74651206795c",
          "transactionIndex": "0xa8",
          "logIndex": "0x10c",
          "removed": false
        }
      ],
      "logsBloom": "0x00400000040000000000000000020000000000000000000001000000000000000000000000000000000000000800000000000000000000000000000000000000000000000000000000001000000000000000000000000040001000000000000400000000100000010000000000000000400000000000000000000000400000000000000000000000000000000000000004000000800000000000000000000010000000000000000000000020000000000000000004000000000000000000002800000000000000000000000000000000020000000000000000000000000000000000000000400000000000002000000000000000010000000000000000000000",
      "type": "0x2",
      "transactionHash": "0x88e5f02eb659066412d1b7857ea3c07230c62232a9d3e622077a74651206795c",
      "transactionIndex": "0xa8",
      "blockHash": "0xe5c10797a6643910a9462cef447ef026ecfe2ac7ebae3c39193659041f038a8a",
      "blockNumber": "0x72f341",
      "gasUsed": "0x12aa3",
      "effectiveGasPrice": "0x62463258",
      "from": "0xddb342ecc94236c29a5307d3757d0724d759453c",
      "to": "0x17ceb8da41205f1026241766328751884afa7fe8",
      "contractAddress": null
    }
  ],
  "libraries": [],
  "pending": [],
  "returns": {},
  "timestamp": 1737384684,
  "chain": 11155111,
  "commit": "fcbff6b"
}