{
  "transactions": [
    {
      "hash": "0x078d78a63cf0a53df3e56d285a1f5b56e5e40a941d9de7ecb58b51e258ca93ae",
      "transactionType": "CALL",
      "contractName": null,
      "contractAddress": "0xca14007eff0db1f8135f4c25b34de49ab0d42766",
      "function": "approve(address,uint256)",
      "arguments": [
        "0xC1fB73BeB70789FC5Ae2F6Ce47f64210a6EF9382",
        "115792089237316195423570985008687907853269984665640564039457584007913129639935"
      ],
      "transaction": {
        "from": "0x1b382a7b4496f14e0aaa2da1e1626da400426a03",
        "to": "0xca14007eff0db1f8135f4c25b34de49ab0d42766",
        "gas": "0xff08",
        "value": "0x0",
        "input": "0x095ea7b3000000000000000000000000c1fb73beb70789fc5ae2f6ce47f64210a6ef9382ffffffffffffffffffffffffffffffffffffffffffffffffffffffffffffffff",
        "nonce": "0xe1",
        "chainId": "0xaa36a7"
      },
      "additionalContracts": [],
      "isFixedGasLimit": false
    },
    {
      "hash": "0x8d15e9e6bfdd5a9e342b8ecfbf994bd27110fc9d85366c7128fa2fbe73513df7",
      "transactionType": "CALL",
      "contractName": null,
      "contractAddress": "0xca14007eff0db1f8135f4c25b34de49ab0d42766",
      "function": "transfer(address,uint256)",
      "arguments": [
        "0xC1fB73BeB70789FC5Ae2F6Ce47f64210a6EF9382",
        "10000000000000000"
      ],
      "transaction": {
        "from": "0x1b382a7b4496f14e0aaa2da1e1626da400426a03",
        "to": "0xca14007eff0db1f8135f4c25b34de49ab0d42766",
        "gas": "0x145c6",
        "value": "0x0",
        "input": "0xa9059cbb000000000000000000000000c1fb73beb70789fc5ae2f6ce47f64210a6ef9382000000000000000000000000000000000000000000000000002386f26fc10000",
        "nonce": "0xe2",
        "chainId": "0xaa36a7"
      },
      "additionalContracts": [],
      "isFixedGasLimit": false
    },
    {
      "hash": "0x5f5646f03fcd52f544de0e3d394980c96e5b207129385f085eaa506cbd7946e3",
      "transactionType": "CALL",
      "contractName": null,
      "contractAddress": "0xc1fb73beb70789fc5ae2f6ce47f64210a6ef9382",
      "function": "depositAndCreateOrder((address,uint256,uint256,uint128,uint128,uint128,uint128,uint256))",
      "arguments": [
        "(0x1B382A7b4496F14e0AAA2DA1E1626Da400426A03, 2009894490435840142178314390393166646092438090257831307886760648929397478285, 2366254414417873771392932940469309727793822550615514268240785277201753657472, 0, 1730934048, 1730934112, 10000000000000000, 330440499925559345275239878224073676414287754235236409736554229990928467395)"
      ],
      "transaction": {
        "from": "0x1b382a7b4496f14e0aaa2da1e1626da400426a03",
        "to": "0xc1fb73beb70789fc5ae2f6ce47f64210a6ef9382",
        "gas": "0x3ab33",
        "value": "0x2386f26fc10000",
        "input": "0x5ce510fa0000000000000000000000001b382a7b4496f14e0aaa2da1e1626da400426a0304718f5a0fc34cc1af16a1cdee98ffb20c31f5cd61d6ab07201858f4287c938d053b40a647cedfca6ca84f542a0fe36736031905a9639a7f19a3c1e66bfd5080000000000000000000000000000000000000000000000000000000000000000000000000000000000000000000000000000000000000000000000000672bf52000000000000000000000000000000000000000000000000000000000672bf560000000000000000000000000000000000000000000000000002386f26fc1000000bb05cf58fc62ed2cb385383216c6a349ba1e6713c84ac7d5c103df5648c5c3",
        "nonce": "0xe3",
        "chainId": "0xaa36a7"
      },
      "additionalContracts": [],
      "isFixedGasLimit": false
    }
  ],
  "receipts": [
    {
      "status": "0x1",
      "cumulativeGasUsed": "0x1a1b364",
      "logs": [
        {
          "address": "0xca14007eff0db1f8135f4c25b34de49ab0d42766",
          "topics": [
            "0x8c5be1e5ebec7d5bd14f71427d1e84f3dd0314c0f7b2291e5b200ac8c7c3b925",
            "0x0000000000000000000000001b382a7b4496f14e0aaa2da1e1626da400426a03",
            "0x000000000000000000000000c1fb73beb70789fc5ae2f6ce47f64210a6ef9382"
          ],
          "data": "0xffffffffffffffffffffffffffffffffffffffffffffffffffffffffffffffff",
          "blockHash": "0x19744dbe8bba7c4eb120726473fc4e205417e9184d80d8cabf77fa26c1531af9",
          "blockNumber": "0x6b36c2",
          "transactionHash": "0x078d78a63cf0a53df3e56d285a1f5b56e5e40a941d9de7ecb58b51e258ca93ae",
          "transactionIndex": "0x36",
          "logIndex": "0x50",
          "removed": false
        }
      ],
      "logsBloom": "0x00000000000000000000002000000000000000000000000000000000000000000000000000000000000000000000000000000000000000000000000000200000000000000000000000000000000000000000004000000000000000000000000000000000000000000000000000000000000000000010000020000000000000040000000000000000000000000000000000000000200000000000000000000000020000000000000000000000000000000000000000000000000000000000000000000000000000020000000000000000000000000000000000800000000000000010000000000000000000000000000000000000001000000000000000000000",
      "type": "0x2",
      "transactionHash": "0x078d78a63cf0a53df3e56d285a1f5b56e5e40a941d9de7ecb58b51e258ca93ae",
      "transactionIndex": "0x36",
      "blockHash": "0x19744dbe8bba7c4eb120726473fc4e205417e9184d80d8cabf77fa26c1531af9",
      "blockNumber": "0x6b36c2",
      "gasUsed": "0xb8a4",
      "effectiveGasPrice": "0x148778bd0",
      "blobGasUsed": "0x0",
      "from": "0x1b382a7b4496f14e0aaa2da1e1626da400426a03",
      "to": "0xca14007eff0db1f8135f4c25b34de49ab0d42766",
      "contractAddress": null
    },
    {
      "status": "0x1",
      "cumulativeGasUsed": "0x1a29225",
      "logs": [
        {
          "address": "0xca14007eff0db1f8135f4c25b34de49ab0d42766",
          "topics": [
            "0xddf252ad1be2c89b69c2b068fc378daa952ba7f163c4a11628f55a4df523b3ef",
            "0x0000000000000000000000001b382a7b4496f14e0aaa2da1e1626da400426a03",
            "0x000000000000000000000000c1fb73beb70789fc5ae2f6ce47f64210a6ef9382"
          ],
          "data": "0x000000000000000000000000000000000000000000000000002386f26fc10000",
          "blockHash": "0x19744dbe8bba7c4eb120726473fc4e205417e9184d80d8cabf77fa26c1531af9",
          "blockNumber": "0x6b36c2",
          "transactionHash": "0x8d15e9e6bfdd5a9e342b8ecfbf994bd27110fc9d85366c7128fa2fbe73513df7",
          "transactionIndex": "0x37",
          "logIndex": "0x51",
          "removed": false
        }
      ],
      "logsBloom": "0x00000000000000000000002000000000000000000000000000000000000000000000000000000000000000000000000000000000000000000000000000000000000000000000000000000008000000000000004000000000000000000000000000000000000000000000000000000000000000000010000020000010000000040000000000000000000000000000000000000000200000000000000000000000000000000000000000000000000000000000000000000000000000000000000000000002000000020000000000000000000000000000000000800000000000000000000000000000000000000000000000000000001000000000000000000000",
      "type": "0x2",
      "transactionHash": "0x8d15e9e6bfdd5a9e342b8ecfbf994bd27110fc9d85366c7128fa2fbe73513df7",
      "transactionIndex": "0x37",
      "blockHash": "0x19744dbe8bba7c4eb120726473fc4e205417e9184d80d8cabf77fa26c1531af9",
      "blockNumber": "0x6b36c2",
      "gasUsed": "0xdec1",
      "effectiveGasPrice": "0x148778bd0",
      "blobGasUsed": "0x0",
      "from": "0x1b382a7b4496f14e0aaa2da1e1626da400426a03",
      "to": "0xca14007eff0db1f8135f4c25b34de49ab0d42766",
      "contractAddress": null
    },
    {
      "status": "0x1",
      "cumulativeGasUsed": "0x1a5399e",
      "logs": [
        {
          "address": "0xca14007eff0db1f8135f4c25b34de49ab0d42766",
          "topics": [
            "0xddf252ad1be2c89b69c2b068fc378daa952ba7f163c4a11628f55a4df523b3ef",
            "0x0000000000000000000000001b382a7b4496f14e0aaa2da1e1626da400426a03",
            "0x000000000000000000000000c1fb73beb70789fc5ae2f6ce47f64210a6ef9382"
          ],
          "data": "0x000000000000000000000000000000000000000000000000002386f26fc10000",
          "blockHash": "0x19744dbe8bba7c4eb120726473fc4e205417e9184d80d8cabf77fa26c1531af9",
          "blockNumber": "0x6b36c2",
          "transactionHash": "0x5f5646f03fcd52f544de0e3d394980c96e5b207129385f085eaa506cbd7946e3",
          "transactionIndex": "0x38",
          "logIndex": "0x52",
          "removed": false
        },
        {
          "address": "0xca14007eff0db1f8135f4c25b34de49ab0d42766",
          "topics": [
            "0x8c5be1e5ebec7d5bd14f71427d1e84f3dd0314c0f7b2291e5b200ac8c7c3b925",
            "0x000000000000000000000000c1fb73beb70789fc5ae2f6ce47f64210a6ef9382",
            "0x000000000000000000000000ce5485cfb26914c5dce00b9baf0580364dafc7a4"
          ],
          "data": "0x0000000000000000000000000000000000000000000000000000000000000000",
          "blockHash": "0x19744dbe8bba7c4eb120726473fc4e205417e9184d80d8cabf77fa26c1531af9",
          "blockNumber": "0x6b36c2",
          "transactionHash": "0x5f5646f03fcd52f544de0e3d394980c96e5b207129385f085eaa506cbd7946e3",
          "transactionIndex": "0x38",
          "logIndex": "0x53",
          "removed": false
        },
        {
          "address": "0xca14007eff0db1f8135f4c25b34de49ab0d42766",
          "topics": [
            "0x8c5be1e5ebec7d5bd14f71427d1e84f3dd0314c0f7b2291e5b200ac8c7c3b925",
            "0x000000000000000000000000c1fb73beb70789fc5ae2f6ce47f64210a6ef9382",
            "0x000000000000000000000000ce5485cfb26914c5dce00b9baf0580364dafc7a4"
          ],
          "data": "0x000000000000000000000000000000000000000000000000002386f26fc10000",
          "blockHash": "0x19744dbe8bba7c4eb120726473fc4e205417e9184d80d8cabf77fa26c1531af9",
          "blockNumber": "0x6b36c2",
          "transactionHash": "0x5f5646f03fcd52f544de0e3d394980c96e5b207129385f085eaa506cbd7946e3",
          "transactionIndex": "0x38",
          "logIndex": "0x54",
          "removed": false
        },
        {
          "address": "0xca14007eff0db1f8135f4c25b34de49ab0d42766",
          "topics": [
            "0x8c5be1e5ebec7d5bd14f71427d1e84f3dd0314c0f7b2291e5b200ac8c7c3b925",
            "0x000000000000000000000000c1fb73beb70789fc5ae2f6ce47f64210a6ef9382",
            "0x000000000000000000000000ce5485cfb26914c5dce00b9baf0580364dafc7a4"
          ],
          "data": "0x0000000000000000000000000000000000000000000000000000000000000000",
          "blockHash": "0x19744dbe8bba7c4eb120726473fc4e205417e9184d80d8cabf77fa26c1531af9",
          "blockNumber": "0x6b36c2",
          "transactionHash": "0x5f5646f03fcd52f544de0e3d394980c96e5b207129385f085eaa506cbd7946e3",
          "transactionIndex": "0x38",
          "logIndex": "0x55",
          "removed": false
        },
        {
          "address": "0xca14007eff0db1f8135f4c25b34de49ab0d42766",
          "topics": [
            "0xddf252ad1be2c89b69c2b068fc378daa952ba7f163c4a11628f55a4df523b3ef",
            "0x000000000000000000000000c1fb73beb70789fc5ae2f6ce47f64210a6ef9382",
            "0x000000000000000000000000ce5485cfb26914c5dce00b9baf0580364dafc7a4"
          ],
          "data": "0x000000000000000000000000000000000000000000000000002386f26fc10000",
          "blockHash": "0x19744dbe8bba7c4eb120726473fc4e205417e9184d80d8cabf77fa26c1531af9",
          "blockNumber": "0x6b36c2",
          "transactionHash": "0x5f5646f03fcd52f544de0e3d394980c96e5b207129385f085eaa506cbd7946e3",
          "transactionIndex": "0x38",
          "logIndex": "0x56",
          "removed": false
        },
        {
          "address": "0xe2bb56ee936fd6433dc0f6e7e3b8365c906aa057",
          "topics": [
            "0xdb80dd488acf86d17c747445b0eabb5d57c541d3bd7b6b87af987858e5066b2b",
            "0x000000000000000000000000ce5485cfb26914c5dce00b9baf0580364dafc7a4",
            "0x0594c1582459ea03f77deaf9eb7e3917d6994a03c13405ba42867f83d85f085d",
            "0x008bce41827dd5484d80312a2e43bc42a896e3fcf75bf84c2b49339168dfa00a"
          ],
          "data": "0x00000000000000000000000000000000000000000000000000000000000000600000000000000000000000000000000000000000000000000000000000002773000000000000000000000000000000000000000000000000002386f26fc10000000000000000000000000000000000000000000000000000000000000000000d000000000000000000000000ca14007eff0db1f8135f4c25b34de49ab0d42766000000000000000000000000c1fb73beb70789fc5ae2f6ce47f64210a6ef938203a4b7e2d060bd8eb48e2db10f16c1303b131c266cc928902c3a3a8ead7e386d000000000000000000000000000000000000000000000000002386f26fc100000000000000000000000000000000000000000000000000000000000000000000000000000000000000000000000000000000000000000000000000000000000700000000000000000000000000000000000000000000000000000000000000000000000000000000000000001b382a7b4496f14e0aaa2da1e1626da400426a0304718f5a0fc34cc1af16a1cdee98ffb20c31f5cd61d6ab07201858f4287c938d053b40a647cedfca6ca84f542a0fe36736031905a9639a7f19a3c1e66bfd5080000000000000000000000000000000000000000000000000000000000000000000000000000000000000000000000000000000000000000000000000672bf52000000000000000000000000000000000000000000000000000000000672bf560",
          "blockHash": "0x19744dbe8bba7c4eb120726473fc4e205417e9184d80d8cabf77fa26c1531af9",
          "blockNumber": "0x6b36c2",
          "transactionHash": "0x5f5646f03fcd52f544de0e3d394980c96e5b207129385f085eaa506cbd7946e3",
          "transactionIndex": "0x38",
          "logIndex": "0x57",
          "removed": false
        },
        {
          "address": "0xce5485cfb26914c5dce00b9baf0580364dafc7a4",
          "topics": [
            "0x2203a49c69f1a46c1164f5e4a30643dd77b7c59c0ff9bc433256048365c247f1",
            "0x000000000000000000000000c1fb73beb70789fc5ae2f6ce47f64210a6ef9382",
            "0x000000000000000000000000ca14007eff0db1f8135f4c25b34de49ab0d42766",
            "0x03a4b7e2d060bd8eb48e2db10f16c1303b131c266cc928902c3a3a8ead7e386d"
          ],
          "data": "0x000000000000000000000000000000000000000000000000002386f26fc1000000000000000000000000000000000000000000000000000000000000000000800000000000000000000000000000000000000000000000000000000000002773000000000000000000000000000000000000000000000000002386f26fc10000000000000000000000000000000000000000000000000000000000000000000700000000000000000000000000000000000000000000000000000000000000000000000000000000000000001b382a7b4496f14e0aaa2da1e1626da400426a0304718f5a0fc34cc1af16a1cdee98ffb20c31f5cd61d6ab07201858f4287c938d053b40a647cedfca6ca84f542a0fe36736031905a9639a7f19a3c1e66bfd5080000000000000000000000000000000000000000000000000000000000000000000000000000000000000000000000000000000000000000000000000672bf52000000000000000000000000000000000000000000000000000000000672bf560",
          "blockHash": "0x19744dbe8bba7c4eb120726473fc4e205417e9184d80d8cabf77fa26c1531af9",
          "blockNumber": "0x6b36c2",
          "transactionHash": "0x5f5646f03fcd52f544de0e3d394980c96e5b207129385f085eaa506cbd7946e3",
          "transactionIndex": "0x38",
          "logIndex": "0x58",
          "removed": false
        },
        {
          "address": "0xc1fb73beb70789fc5ae2f6ce47f64210a6ef9382",
          "topics": [
            "0xaf43445f7721522b7a3864ed3de53d7e2e658bfa1eeffa18e1e229be68ce2545",
            "0x0000000000000000000000001b382a7b4496f14e0aaa2da1e1626da400426a03",
            "0x03a4b7e2d060bd8eb48e2db10f16c1303b131c266cc928902c3a3a8ead7e386d"
          ],
          "data": "0x000000000000000000000000000000000000000000000000002386f26fc100000000000000000000000000000000000000000000000000000000000000000001",
          "blockHash": "0x19744dbe8bba7c4eb120726473fc4e205417e9184d80d8cabf77fa26c1531af9",
          "blockNumber": "0x6b36c2",
          "transactionHash": "0x5f5646f03fcd52f544de0e3d394980c96e5b207129385f085eaa506cbd7946e3",
          "transactionIndex": "0x38",
          "logIndex": "0x59",
          "removed": false
        }
      ],
      "logsBloom": "0x00000200000000000000002000020000000000000000000000000042000000000000000000000000000000000000400000000000000004000000020000200000000000000000000000000008080000000000004000000040001000000000000200000000100000000000000000000000000000000010000020000010000008042000000000000000000000020000000000008000200200000100000000000010020000800000000000000020000000021000000100000000000000000000000000800002000000024010000000000000000000200000000000800000200000000010000000010000000400020004000000000000001000000000000000000000",
      "type": "0x2",
      "transactionHash": "0x5f5646f03fcd52f544de0e3d394980c96e5b207129385f085eaa506cbd7946e3",
      "transactionIndex": "0x38",
      "blockHash": "0x19744dbe8bba7c4eb120726473fc4e205417e9184d80d8cabf77fa26c1531af9",
      "blockNumber": "0x6b36c2",
      "gasUsed": "0x2a779",
      "effectiveGasPrice": "0x148778bd0",
      "blobGasUsed": "0x0",
      "from": "0x1b382a7b4496f14e0aaa2da1e1626da400426a03",
      "to": "0xc1fb73beb70789fc5ae2f6ce47f64210a6ef9382",
      "contractAddress": null
    }
  ],
  "libraries": [],
  "pending": [],
  "returns": {},
  "timestamp": 1730934087,
  "chain": 11155111,
  "commit": "ed7f201"
}