{
  "transactions": [
    {
      "hash": "0x18c7a5e46e5787a7b4b8abcecd4f4ad859f0c294da9fbe9975fe8ee2ef5cd6e2",
      "transactionType": "CALL",
      "contractName": "StarkNetToken",
      "contractAddress": "0xCa14007Eff0dB1f8135f4C25B34De49AB0d42766",
      "function": "approve(address,uint256)",
      "arguments": [
        "0x0Ed0e15f0D7362b95A7F4441FCBfb948b63FD61b",
        "115792089237316195423570985008687907853269984665640564039457584007913129639935"
      ],
      "transaction": {
        "type": "0x02",
        "from": "0xddb342ecc94236c29a5307d3757d0724d759453c",
        "to": "0xca14007eff0db1f8135f4c25b34de49ab0d42766",
        "gas": "0x93a9",
        "value": "0x0",
        "data": "0x095ea7b30000000000000000000000000ed0e15f0d7362b95a7f4441fcbfb948b63fd61bffffffffffffffffffffffffffffffffffffffffffffffffffffffffffffffff",
        "nonce": "0x3ad",
        "accessList": []
      },
      "additionalContracts": [],
      "isFixedGasLimit": false
    },
    {
      "hash": "0x026729c03731ded7f3f9780b11e0161b017a704f195c883df9bf119983ee4eb1",
      "transactionType": "CALL",
      "contractName": null,
      "contractAddress": "0x0Ed0e15f0D7362b95A7F4441FCBfb948b63FD61b",
      "function": "initiateWithdrawal(uint256,address)",
      "arguments": [
        "500000000000000",
        "0x1c7D4B196Cb0C7B01d743Fbc6116a902379C7238"
      ],
      "transaction": {
        "type": "0x02",
        "from": "0xddb342ecc94236c29a5307d3757d0724d759453c",
        "to": "0x0ed0e15f0d7362b95a7f4441fcbfb948b63fd61b",
        "gas": "0x1b96a",
        "value": "0x1c6bf52634000",
        "data": "0x544381270000000000000000000000000000000000000000000000000001c6bf526340000000000000000000000000001c7d4b196cb0c7b01d743fbc6116a902379c7238",
        "nonce": "0x3ae",
        "accessList": []
      },
      "additionalContracts": [],
      "isFixedGasLimit": false
    }
  ],
  "receipts": [],
  "libraries": [],
  "pending": [
    "0x18c7a5e46e5787a7b4b8abcecd4f4ad859f0c294da9fbe9975fe8ee2ef5cd6e2",
    "0x026729c03731ded7f3f9780b11e0161b017a704f195c883df9bf119983ee4eb1"
  ],
  "returns": {},
  "timestamp": 1733134026,
  "chain": 11155111,
  "multi": false,
  "commit": "578600f"
}