{
  "transactions": [
    {
      "hash": "0x72d5d32919110917e408eeea3867d2c72070964aae601a8073948185a6fa359c",
      "transactionType": "CALL",
      "contractName": "StarkNetToken",
      "contractAddress": "0xCa14007Eff0dB1f8135f4C25B34De49AB0d42766",
      "function": "approve(address,uint256)",
      "arguments": [
        "0xcE5485Cfb26914C5dcE00B9BAF0580364daFC7a4",
        "115792089237316195423570985008687907853269984665640564039457584007913129639935"
      ],
      "transaction": {
        "type": "0x02",
        "from": "0xddb342ecc94236c29a5307d3757d0724d759453c",
        "to": "0xca14007eff0db1f8135f4c25b34de49ab0d42766",
        "gas": "0x93a9",
        "value": "0x0",
        "data": "0x095ea7b3000000000000000000000000ce5485cfb26914c5dce00b9baf0580364dafc7a4ffffffffffffffffffffffffffffffffffffffffffffffffffffffffffffffff",
        "nonce": "0x330",
        "accessList": []
      },
      "additionalContracts": [],
      "isFixedGasLimit": false
    },
    {
      "hash": "0xab18253dfd1bed183fa03cd285f6093450e2dc076023207fce66d9fc59d15fc6",
      "transactionType": "CALL",
      "contractName": "Proxy",
      "contractAddress": "0xcE5485Cfb26914C5dcE00B9BAF0580364daFC7a4",
      "function": "deposit(uint256,uint256)",
      "arguments": [
        "50000000000000000",
        "670480297538169057437347445413454523455254844930047652078303647114824175019"
      ],
      "transaction": {
        "type": "0x02",
        "from": "0xddb342ecc94236c29a5307d3757d0724d759453c",
        "to": "0xce5485cfb26914c5dce00b9baf0580364dafc7a4",
        "gas": "0x29b00",
        "value": "0x38d7ea4c68000",
        "data": "0xe2bbb15800000000000000000000000000000000000000000000000000b1a2bc2ec50000017b7a786f788b022067f7ed23d6183c3ee6cb2d4e463e1835821a2b8f22cdab",
        "nonce": "0x331",
        "accessList": []
      },
      "additionalContracts": [],
      "isFixedGasLimit": false
    },
    {
      "hash": "0xc101fd86086a925c7de2abd5d2c453317966bd82a795eaf4bbc818f9745cd845",
      "transactionType": "CALL",
      "contractName": "Proxy",
      "contractAddress": "0xE2Bb56ee936fd6433DC0F6e7e3b8365C906AA057",
      "function": "sendMessageToL2(uint256,uint256,uint256[])",
      "arguments": [
        "670480297538169057437347445413454523455254844930047652078303647114824175019",
        "425952401605428413817582304755919420533935873840436977667370850915372091056",
        "[0, 1265684623727634235329190328445374361672779121980, 2009894490435840142178314390393166646092438090257831307886760648929397478285, 2366254414417873771392932940469309727793822550615514268240785277201753657472, 170141183460469235273462165868118016, 1731759088, 1731759152, 50000000000000000, 2524392021852001135582825949054576525094493216367559068627275826195272239197]"
      ],
      "transaction": {
        "type": "0x02",
        "from": "0xddb342ecc94236c29a5307d3757d0724d759453c",
        "to": "0xe2bb56ee936fd6433dc0f6e7e3b8365c906aa057",
        "gas": "0x17855",
        "value": "0x38d7ea4c68000",
        "data": "0x3e3aa6c5017b7a786f788b022067f7ed23d6183c3ee6cb2d4e463e1835821a2b8f22cdab00f1149cade9d692862ad41df96b108aa2c20af34f640457e781d166c98dc6b0000000000000000000000000000000000000000000000000000000000000006000000000000000000000000000000000000000000000000000000000000000090000000000000000000000000000000000000000000000000000000000000000000000000000000000000000ddb342ecc94236c29a5307d3757d0724d759453c04718f5a0fc34cc1af16a1cdee98ffb20c31f5cd61d6ab07201858f4287c938d053b40a647cedfca6ca84f542a0fe36736031905a9639a7f19a3c1e66bfd5080000000000000000000000000000000000020c49ba5e353f800000000000000000000000000000000000000000000000000000000000000000000000067388bf00000000000000000000000000000000000000000000000000000000067388c3000000000000000000000000000000000000000000000000000b1a2bc2ec500000594c1582459ea03f77deaf9eb7e3917d6994a03c13405ba42867f83d85f085d",
        "nonce": "0x332",
        "accessList": []
      },
      "additionalContracts": [],
      "isFixedGasLimit": false
    }
  ],
  "receipts": [
    {
      "transactionHash": "0x72d5d32919110917e408eeea3867d2c72070964aae601a8073948185a6fa359c",
      "transactionIndex": "0xd",
      "blockHash": "0x671c92c9ef3a4ea459a3b84e92b05327b17cc2cf2aa3f3d0f639a39d5708dc29",
      "blockNumber": "0x6c2a28",
      "from": "0xDdb342ecc94236c29a5307d3757d0724D759453C",
      "to": "0xCa14007Eff0dB1f8135f4C25B34De49AB0d42766",
      "cumulativeGasUsed": "0xb88f4",
      "gasUsed": "0x6ae8",
      "contractAddress": null,
      "logs": [
        {
          "address": "0xCa14007Eff0dB1f8135f4C25B34De49AB0d42766",
          "topics": [
            "0x8c5be1e5ebec7d5bd14f71427d1e84f3dd0314c0f7b2291e5b200ac8c7c3b925",
            "0x000000000000000000000000ddb342ecc94236c29a5307d3757d0724d759453c",
            "0x000000000000000000000000ce5485cfb26914c5dce00b9baf0580364dafc7a4"
          ],
          "data": "0xffffffffffffffffffffffffffffffffffffffffffffffffffffffffffffffff",
          "blockHash": "0x671c92c9ef3a4ea459a3b84e92b05327b17cc2cf2aa3f3d0f639a39d5708dc29",
          "blockNumber": "0x6c2a28",
          "transactionHash": "0x72d5d32919110917e408eeea3867d2c72070964aae601a8073948185a6fa359c",
          "transactionIndex": "0xd",
          "logIndex": "0xc",
          "removed": false
        }
      ],
      "status": "0x1",
      "logsBloom": "0x00000000000000000000000000000000000000000000000000000000000000000000000000000000000000000000000000000000000000000000000000200000000000000000000000000000000000000000000000000000000000000000000400000000000000000000000000000000400000000000000000000000400008000000000000000000000000000000000000000000000000000000000000000000020000000000000000000000000000001000000000000000000000000000000000000000000000020010000000000000000000000000000000800000000000000010000000000000000000000000000000000000001000000000000000000000",
      "type": "0x2",
      "effectiveGasPrice": "0xd1e22e9e"
    },
    {
      "transactionHash": "0xab18253dfd1bed183fa03cd285f6093450e2dc076023207fce66d9fc59d15fc6",
      "transactionIndex": "0xe",
      "blockHash": "0x671c92c9ef3a4ea459a3b84e92b05327b17cc2cf2aa3f3d0f639a39d5708dc29",
      "blockNumber": "0x6c2a28",
      "from": "0xDdb342ecc94236c29a5307d3757d0724D759453C",
      "to": "0xcE5485Cfb26914C5dcE00B9BAF0580364daFC7a4",
      "cumulativeGasUsed": "0xd6bda",
      "gasUsed": "0x1e2e6",
      "contractAddress": null,
      "logs": [
        {
          "address": "0xCa14007Eff0dB1f8135f4C25B34De49AB0d42766",
          "topics": [
            "0xddf252ad1be2c89b69c2b068fc378daa952ba7f163c4a11628f55a4df523b3ef",
            "0x000000000000000000000000ddb342ecc94236c29a5307d3757d0724d759453c",
            "0x000000000000000000000000ce5485cfb26914c5dce00b9baf0580364dafc7a4"
          ],
          "data": "0x00000000000000000000000000000000000000000000000000b1a2bc2ec50000",
          "blockHash": "0x671c92c9ef3a4ea459a3b84e92b05327b17cc2cf2aa3f3d0f639a39d5708dc29",
          "blockNumber": "0x6c2a28",
          "transactionHash": "0xab18253dfd1bed183fa03cd285f6093450e2dc076023207fce66d9fc59d15fc6",
          "transactionIndex": "0xe",
          "logIndex": "0xd",
          "removed": false
        },
        {
          "address": "0xE2Bb56ee936fd6433DC0F6e7e3b8365C906AA057",
          "topics": [
            "0xdb80dd488acf86d17c747445b0eabb5d57c541d3bd7b6b87af987858e5066b2b",
            "0x000000000000000000000000ce5485cfb26914c5dce00b9baf0580364dafc7a4",
            "0x0594c1582459ea03f77deaf9eb7e3917d6994a03c13405ba42867f83d85f085d",
            "0x01b64b1b3b690b43b9b514fb81377518f4039cd3e4f4914d8a6bdf01d679fb19"
          ],
          "data": "0x0000000000000000000000000000000000000000000000000000000000000060000000000000000000000000000000000000000000000000000000000000289500000000000000000000000000000000000000000000000000038d7ea4c680000000000000000000000000000000000000000000000000000000000000000005000000000000000000000000ca14007eff0db1f8135f4c25b34de49ab0d42766000000000000000000000000ddb342ecc94236c29a5307d3757d0724d759453c017b7a786f788b022067f7ed23d6183c3ee6cb2d4e463e1835821a2b8f22cdab00000000000000000000000000000000000000000000000000b1a2bc2ec500000000000000000000000000000000000000000000000000000000000000000000",
          "blockHash": "0x671c92c9ef3a4ea459a3b84e92b05327b17cc2cf2aa3f3d0f639a39d5708dc29",
          "blockNumber": "0x6c2a28",
          "transactionHash": "0xab18253dfd1bed183fa03cd285f6093450e2dc076023207fce66d9fc59d15fc6",
          "transactionIndex": "0xe",
          "logIndex": "0xe",
          "removed": false
        },
        {
          "address": "0xcE5485Cfb26914C5dcE00B9BAF0580364daFC7a4",
          "topics": [
            "0x5f971bd00bf3ffbca8a6d72cdd4fd92cfd4f62636161921d1e5a64f0b64ccb6d",
            "0x000000000000000000000000ddb342ecc94236c29a5307d3757d0724d759453c",
            "0x000000000000000000000000ca14007eff0db1f8135f4c25b34de49ab0d42766",
            "0x017b7a786f788b022067f7ed23d6183c3ee6cb2d4e463e1835821a2b8f22cdab"
          ],
          "data": "0x00000000000000000000000000000000000000000000000000b1a2bc2ec50000000000000000000000000000000000000000000000000000000000000000289500000000000000000000000000000000000000000000000000038d7ea4c68000",
          "blockHash": "0x671c92c9ef3a4ea459a3b84e92b05327b17cc2cf2aa3f3d0f639a39d5708dc29",
          "blockNumber": "0x6c2a28",
          "transactionHash": "0xab18253dfd1bed183fa03cd285f6093450e2dc076023207fce66d9fc59d15fc6",
          "transactionIndex": "0xe",
          "logIndex": "0xf",
          "removed": false
        },
        {
          "address": "0xcE5485Cfb26914C5dcE00B9BAF0580364daFC7a4",
          "topics": [
            "0x5b5dbc6c64043a15d3fe6943a6e443a826b78755edc257b2ec890c022225dbcf",
            "0x000000000000000000000000ddb342ecc94236c29a5307d3757d0724d759453c",
            "0x017b7a786f788b022067f7ed23d6183c3ee6cb2d4e463e1835821a2b8f22cdab"
          ],
          "data": "0x00000000000000000000000000000000000000000000000000b1a2bc2ec50000000000000000000000000000000000000000000000000000000000000000289500000000000000000000000000000000000000000000000000038d7ea4c68000",
          "blockHash": "0x671c92c9ef3a4ea459a3b84e92b05327b17cc2cf2aa3f3d0f639a39d5708dc29",
          "blockNumber": "0x6c2a28",
          "transactionHash": "0xab18253dfd1bed183fa03cd285f6093450e2dc076023207fce66d9fc59d15fc6",
          "transactionIndex": "0xe",
          "logIndex": "0x10",
          "removed": false
        }
      ],
      "status": "0x1",
      "logsBloom": "0x00000000000000000200000000020000000000000000000000000000000000400000004000000000000000100000000000000000000004000000000000000000000000000400000000000008080000000000000000000040001000000000000400000000100000000000000000000000400000000000000000000010400008002000000000000000000000000400000000000000000200000000020000000010000000000000000000000020000000001000000000000020000000000000000000000002000000024010000000000000000000200000200000800000000000000008000000010000000000020084000400000000001000000000000000000000",
      "type": "0x2",
      "effectiveGasPrice": "0xd1e22e9e"
    },
    {
      "transactionHash": "0xc101fd86086a925c7de2abd5d2c453317966bd82a795eaf4bbc818f9745cd845",
      "transactionIndex": "0xf",
      "blockHash": "0x671c92c9ef3a4ea459a3b84e92b05327b17cc2cf2aa3f3d0f639a39d5708dc29",
      "blockNumber": "0x6c2a28",
      "from": "0xDdb342ecc94236c29a5307d3757d0724D759453C",
      "to": "0xE2Bb56ee936fd6433DC0F6e7e3b8365C906AA057",
      "cumulativeGasUsed": "0xe6d2d",
      "gasUsed": "0x10153",
      "contractAddress": null,
      "logs": [
        {
          "address": "0xE2Bb56ee936fd6433DC0F6e7e3b8365C906AA057",
          "topics": [
            "0xdb80dd488acf86d17c747445b0eabb5d57c541d3bd7b6b87af987858e5066b2b",
            "0x000000000000000000000000ddb342ecc94236c29a5307d3757d0724d759453c",
            "0x017b7a786f788b022067f7ed23d6183c3ee6cb2d4e463e1835821a2b8f22cdab",
            "0x00f1149cade9d692862ad41df96b108aa2c20af34f640457e781d166c98dc6b0"
          ],
          "data": "0x0000000000000000000000000000000000000000000000000000000000000060000000000000000000000000000000000000000000000000000000000000289600000000000000000000000000000000000000000000000000038d7ea4c6800000000000000000000000000000000000000000000000000000000000000000090000000000000000000000000000000000000000000000000000000000000000000000000000000000000000ddb342ecc94236c29a5307d3757d0724d759453c04718f5a0fc34cc1af16a1cdee98ffb20c31f5cd61d6ab07201858f4287c938d053b40a647cedfca6ca84f542a0fe36736031905a9639a7f19a3c1e66bfd5080000000000000000000000000000000000020c49ba5e353f800000000000000000000000000000000000000000000000000000000000000000000000067388bf00000000000000000000000000000000000000000000000000000000067388c3000000000000000000000000000000000000000000000000000b1a2bc2ec500000594c1582459ea03f77deaf9eb7e3917d6994a03c13405ba42867f83d85f085d",
          "blockHash": "0x671c92c9ef3a4ea459a3b84e92b05327b17cc2cf2aa3f3d0f639a39d5708dc29",
          "blockNumber": "0x6c2a28",
          "transactionHash": "0xc101fd86086a925c7de2abd5d2c453317966bd82a795eaf4bbc818f9745cd845",
          "transactionIndex": "0xf",
          "logIndex": "0x11",
          "removed": false
        }
      ],
      "status": "0x1",
      "logsBloom": "0x00400000000000000000000000020000000000000000000000000000000000000000000000000000000000100000000000000000000000000000000000000000000000000000000000000000000000000000000000000040001000000000000400000000100000010000000000000000400000000000000000000000400000000000000000000000000000000000000004000000000000000000000000000010000000000000000000000020000000000000000000000000000000000000000000000000000000000000000000000000000000000000000000000000000000000008000000000000000000000000000400000000000000000000000000000000",
      "type": "0x2",
      "effectiveGasPrice": "0xd1e22e9e"
    }
  ],
  "libraries": [],
  "pending": [],
  "returns": {},
  "timestamp": 1731759148,
  "chain": 11155111,
  "multi": false,
  "commit": "945f7f2"
}