{
  "transactions": [
    {
      "hash": "0x846ab1948edc17814fea0e674d1bfd49097f68125959ef5773601f5b6f3f3a1e",
      "transactionType": "CALL",
      "contractName": "StarkNetToken",
      "contractAddress": "0xCa14007Eff0dB1f8135f4C25B34De49AB0d42766",
      "function": "approve(address,uint256)",
      "arguments": [
        "0x7eb4C59eABE1234E8A6D02FdF4d1BB595C4702Cd",
        "115792089237316195423570985008687907853269984665640564039457584007913129639935"
      ],
      "transaction": {
        "type": "0x02",
        "from": "0xddb342ecc94236c29a5307d3757d0724d759453c",
        "to": "0xca14007eff0db1f8135f4c25b34de49ab0d42766",
        "gas": "0x93a9",
        "value": "0x0",
        "data": "0x095ea7b30000000000000000000000007eb4c59eabe1234e8a6d02fdf4d1bb595c4702cdffffffffffffffffffffffffffffffffffffffffffffffffffffffffffffffff",
        "nonce": "0x35c",
        "accessList": []
      },
      "additionalContracts": [],
      "isFixedGasLimit": false
    },
    {
      "hash": "0x72738af12f66de3cb1e22a3182dcd06e02640907d9f0efa84263f2e69123bfb6",
      "transactionType": "CALL",
      "contractName": "Proxy",
      "contractAddress": "0xE2Bb56ee936fd6433DC0F6e7e3b8365C906AA057",
      "function": "sendMessageToL2(uint256,uint256,uint256[])",
      "arguments": [
        "2258992648689496964006205690611118620783054004623630209335656735200797133329",
        "425952401605428413817582304755919420533935873840436977667370850915372091056",
        "[3, 1265684623727634235329190328445374361672779121980, 0, 162645876805862407557836451532389263558424949304, 0, 0, 0, 500000000000000, 1613553031957232432120143202400887878434836332722537805011348850121881864968]"
      ],
      "transaction": {
        "type": "0x02",
        "from": "0xddb342ecc94236c29a5307d3757d0724d759453c",
        "to": "0xe2bb56ee936fd6433dc0f6e7e3b8365c906aa057",
        "gas": "0x15fbc",
        "value": "0x2d79883d2000",
        "data": "0x3e3aa6c504fe8b6644cdf2a469abc0dcf097cdd3608e2f89c1c189962f0a6d8a1d7e0a1100f1149cade9d692862ad41df96b108aa2c20af34f640457e781d166c98dc6b0000000000000000000000000000000000000000000000000000000000000006000000000000000000000000000000000000000000000000000000000000000090000000000000000000000000000000000000000000000000000000000000003000000000000000000000000ddb342ecc94236c29a5307d3757d0724d759453c00000000000000000000000000000000000000000000000000000000000000000000000000000000000000001c7d4b196cb0c7b01d743fbc6116a902379c72380000000000000000000000000000000000000000000000000000000000000000000000000000000000000000000000000000000000000000000000000000000000000000000000000000000000000000000000000000000000000000000000000000000000000000000000000000000000000000000000000001c6bf5263400003913d184e537671dfeca3f67015bb845f2d12a26e5ec56bdc495913b20acb08",
        "nonce": "0x35d",
        "accessList": []
      },
      "additionalContracts": [],
      "isFixedGasLimit": false
    }
  ],
  "receipts": [
    {
      "transactionHash": "0x846ab1948edc17814fea0e674d1bfd49097f68125959ef5773601f5b6f3f3a1e",
      "transactionIndex": "0x9",
      "blockHash": "0xf5f2cf21437ad8464ba6756a2137d5daa10d74b22915f81c7d29b83fd14d6b6a",
      "blockNumber": "0x6d3391",
      "from": "0xDdb342ecc94236c29a5307d3757d0724D759453C",
      "to": "0xCa14007Eff0dB1f8135f4C25B34De49AB0d42766",
      "cumulativeGasUsed": "0xf093f",
      "gasUsed": "0x6ae8",
      "contractAddress": null,
      "logs": [
        {
          "address": "0xCa14007Eff0dB1f8135f4C25B34De49AB0d42766",
          "topics": [
            "0x8c5be1e5ebec7d5bd14f71427d1e84f3dd0314c0f7b2291e5b200ac8c7c3b925",
            "0x000000000000000000000000ddb342ecc94236c29a5307d3757d0724d759453c",
            "0x0000000000000000000000007eb4c59eabe1234e8a6d02fdf4d1bb595c4702cd"
          ],
          "data": "0xffffffffffffffffffffffffffffffffffffffffffffffffffffffffffffffff",
          "blockHash": "0xf5f2cf21437ad8464ba6756a2137d5daa10d74b22915f81c7d29b83fd14d6b6a",
          "blockNumber": "0x6d3391",
          "transactionHash": "0x846ab1948edc17814fea0e674d1bfd49097f68125959ef5773601f5b6f3f3a1e",
          "transactionIndex": "0x9",
          "logIndex": "0x12",
          "removed": false
        }
      ],
      "status": "0x1",
      "logsBloom": "0x00000000000000100000000000000000000000000000000000000000000000000000000000000000000000000000000000000000000000000000000000200000000000000000000000000000000000000000000000000000000000000000000400020000000000000000000000000000400000000000000000000000400000000000000000000000000000000000000000000000000000000000000000000000020000000000000000000000000000008000000000000000000000000000000000000000000000020000000000000000000000000000000000800000000000000010000000000000000000000000000000000000001000000000000000000000",
      "type": "0x2",
      "effectiveGasPrice": "0x33d321b8c"
    },
    {
      "transactionHash": "0x72738af12f66de3cb1e22a3182dcd06e02640907d9f0efa84263f2e69123bfb6",
      "transactionIndex": "0xa",
      "blockHash": "0xf5f2cf21437ad8464ba6756a2137d5daa10d74b22915f81c7d29b83fd14d6b6a",
      "blockNumber": "0x6d3391",
      "from": "0xDdb342ecc94236c29a5307d3757d0724D759453C",
      "to": "0xE2Bb56ee936fd6433DC0F6e7e3b8365C906AA057",
      "cumulativeGasUsed": "0x1007e6",
      "gasUsed": "0xfea7",
      "contractAddress": null,
      "logs": [
        {
          "address": "0xE2Bb56ee936fd6433DC0F6e7e3b8365C906AA057",
          "topics": [
            "0xdb80dd488acf86d17c747445b0eabb5d57c541d3bd7b6b87af987858e5066b2b",
            "0x000000000000000000000000ddb342ecc94236c29a5307d3757d0724d759453c",
            "0x04fe8b6644cdf2a469abc0dcf097cdd3608e2f89c1c189962f0a6d8a1d7e0a11",
            "0x00f1149cade9d692862ad41df96b108aa2c20af34f640457e781d166c98dc6b0"
          ],
          "data": "0x0000000000000000000000000000000000000000000000000000000000000060000000000000000000000000000000000000000000000000000000000000294800000000000000000000000000000000000000000000000000002d79883d200000000000000000000000000000000000000000000000000000000000000000090000000000000000000000000000000000000000000000000000000000000003000000000000000000000000ddb342ecc94236c29a5307d3757d0724d759453c00000000000000000000000000000000000000000000000000000000000000000000000000000000000000001c7d4b196cb0c7b01d743fbc6116a902379c72380000000000000000000000000000000000000000000000000000000000000000000000000000000000000000000000000000000000000000000000000000000000000000000000000000000000000000000000000000000000000000000000000000000000000000000000000000000000000000000000000001c6bf5263400003913d184e537671dfeca3f67015bb845f2d12a26e5ec56bdc495913b20acb08",
          "blockHash": "0xf5f2cf21437ad8464ba6756a2137d5daa10d74b22915f81c7d29b83fd14d6b6a",
          "blockNumber": "0x6d3391",
          "transactionHash": "0x72738af12f66de3cb1e22a3182dcd06e02640907d9f0efa84263f2e69123bfb6",
          "transactionIndex": "0xa",
          "logIndex": "0x13",
          "removed": false
        }
      ],
      "status": "0x1",
      "logsBloom": "0x00400000000000000000000000020000000000000000000000000000000000000000000000000000000000000000000000000000000000000000000000000000000000000000000000000000000000100000000000000040001000000000000400000000100000010000000000000000400000000000000000000000420000000000000000000000000000000040000004000000000000000000000000000010000000000000000000000020000000000000000000000000000000000000000000000000000000000000000000000000000000000000000000000000000000000000000000000000000000000000000000000000000000000000000000000000",
      "type": "0x2",
      "effectiveGasPrice": "0x33d321b8c"
    }
  ],
  "libraries": [],
  "pending": [],
  "returns": {},
  "timestamp": 1732626677,
  "chain": 11155111,
  "multi": false,
  "commit": "1254ada"
}