{
  "transactions": [
    {
      "hash": "0x239fee1710cc65ad12319d35d6a88aa738a9e3ebea158acc1cf56a71a21c527b",
      "transactionType": "CALL",
      "contractName": null,
      "contractAddress": "0xca14007eff0db1f8135f4c25b34de49ab0d42766",
      "function": "approve(address,uint256)",
      "arguments": [
        "0x17ceB8Da41205f1026241766328751884Afa7FE8",
        "115792089237316195423570985008687907853269984665640564039457584007913129639935"
      ],
      "transaction": {
        "from": "0xddb342ecc94236c29a5307d3757d0724d759453c",
        "to": "0xca14007eff0db1f8135f4c25b34de49ab0d42766",
        "gas": "0x93a9",
        "value": "0x0",
        "input": "0x095ea7b300000000000000000000000017ceb8da41205f1026241766328751884afa7fe8ffffffffffffffffffffffffffffffffffffffffffffffffffffffffffffffff",
        "nonce": "0x4d2",
        "chainId": "0xaa36a7"
      },
      "additionalContracts": [],
      "isFixedGasLimit": false
    },
    {
      "hash": "0x7801980976b2949ce23cbf14d285e019138c4a46447bc2f2a1e492d0f8ff1a6b",
      "transactionType": "CALL",
      "contractName": null,
      "contractAddress": "0x17ceb8da41205f1026241766328751884afa7fe8",
      "function": "initiateWithdrawal(address,address,uint64)",
      "arguments": [
        "0xDdb342ecc94236c29a5307d3757d0724D759453C",
        "0x1c7D4B196Cb0C7B01d743Fbc6116a902379C7238",
        "525"
      ],
      "transaction": {
        "from": "0xddb342ecc94236c29a5307d3757d0724d759453c",
        "to": "0x17ceb8da41205f1026241766328751884afa7fe8",
        "gas": "0x1b4c1",
        "value": "0x1c6bf52634000",
        "input": "0x9b4085f6000000000000000000000000ddb342ecc94236c29a5307d3757d0724d759453c0000000000000000000000001c7d4b196cb0c7b01d743fbc6116a902379c7238000000000000000000000000000000000000000000000000000000000000020d",
        "nonce": "0x4d3",
        "chainId": "0xaa36a7"
      },
      "additionalContracts": [],
      "isFixedGasLimit": false
    }
  ],
  "receipts": [
    {
      "status": "0x1",
      "cumulativeGasUsed": "0xacacfb",
      "logs": [
        {
          "address": "0xca14007eff0db1f8135f4c25b34de49ab0d42766",
          "topics": [
            "0x8c5be1e5ebec7d5bd14f71427d1e84f3dd0314c0f7b2291e5b200ac8c7c3b925",
            "0x000000000000000000000000ddb342ecc94236c29a5307d3757d0724d759453c",
            "0x00000000000000000000000017ceb8da41205f1026241766328751884afa7fe8"
          ],
          "data": "0xffffffffffffffffffffffffffffffffffffffffffffffffffffffffffffffff",
          "blockHash": "0x170b29088bebee01cec11f76f5ad6df991df351de435259b42630607aadc7dc3",
          "blockNumber": "0x72f554",
          "transactionHash": "0x239fee1710cc65ad12319d35d6a88aa738a9e3ebea158acc1cf56a71a21c527b",
          "transactionIndex": "0x52",
          "logIndex": "0xc8",
          "removed": false
        }
      ],
      "logsBloom": "0x00000000000000000000000000000000000000000000000000000000000000000000000000000000000000000800000000000000000000000000000000200000000000000000000000000000000000000000000000000000000000000000000400000000000000000000000000000000400000000000000000000000400000000000000000000000000000000000000000000000000000000000000000000000020000000000000000000000000000000000000000000000000000000000000000000000000000020000000000000000020000000000000000800000000000000010000000400000000000000000000000000000001000000000000000000000",
      "type": "0x2",
      "transactionHash": "0x239fee1710cc65ad12319d35d6a88aa738a9e3ebea158acc1cf56a71a21c527b",
      "transactionIndex": "0x52",
      "blockHash": "0x170b29088bebee01cec11f76f5ad6df991df351de435259b42630607aadc7dc3",
      "blockNumber": "0x72f554",
      "gasUsed": "0x6ae8",
      "effectiveGasPrice": "0x55308828",
      "from": "0xddb342ecc94236c29a5307d3757d0724d759453c",
      "to": "0xca14007eff0db1f8135f4c25b34de49ab0d42766",
      "contractAddress": null
    },
    {
      "status": "0x1",
      "cumulativeGasUsed": "0xadd79e",
      "logs": [
        {
          "address": "0xe2bb56ee936fd6433dc0f6e7e3b8365c906aa057",
          "topics": [
            "0xdb80dd488acf86d17c747445b0eabb5d57c541d3bd7b6b87af987858e5066b2b",
            "0x00000000000000000000000017ceb8da41205f1026241766328751884afa7fe8",
            "0x07f7634d530030231a04892601d83bbc79defee8145d116d18fc4978e21f2741",
            "0x00f1149cade9d692862ad41df96b108aa2c20af34f640457e781d166c98dc6b0"
          ],
          "data": "0x00000000000000000000000000000000000000000000000000000000000000600000000000000000000000000000000000000000000000000000000000002c350000000000000000000000000000000000000000000000000001c6bf5263400000000000000000000000000000000000000000000000000000000000000000050000000000000000000000000000000000000000000000000000000000000002000000000000000000000000ddb342ecc94236c29a5307d3757d0724d759453c000000000000000000000000ddb342ecc94236c29a5307d3757d0724d759453c0000000000000000000000001c7d4b196cb0c7b01d743fbc6116a902379c7238000000000000000000000000000000000000000000000000000000000000020d",
          "blockHash": "0x170b29088bebee01cec11f76f5ad6df991df351de435259b42630607aadc7dc3",
          "blockNumber": "0x72f554",
          "transactionHash": "0x7801980976b2949ce23cbf14d285e019138c4a46447bc2f2a1e492d0f8ff1a6b",
          "transactionIndex": "0x53",
          "logIndex": "0xc9",
          "removed": false
        },
        {
          "address": "0x17ceb8da41205f1026241766328751884afa7fe8",
          "topics": [
            "0x89bd98ae1b8dd4dbaeba50e40ad484414a306be9fb54ec4eecf1a801ca9aeacf",
            "0x000000000000000000000000ddb342ecc94236c29a5307d3757d0724d759453c"
          ],
          "data": "0x000000000000000000000000000000000000000000000000000000000000020d",
          "blockHash": "0x170b29088bebee01cec11f76f5ad6df991df351de435259b42630607aadc7dc3",
          "blockNumber": "0x72f554",
          "transactionHash": "0x7801980976b2949ce23cbf14d285e019138c4a46447bc2f2a1e492d0f8ff1a6b",
          "transactionIndex": "0x53",
          "logIndex": "0xca",
          "removed": false
        }
      ],
      "logsBloom": "0x00400000040000000000000000020000000000000000000000000000000000000000000000000000000000000800000000000000000000000000000000000000000000000000000000000000000000000000000000000040001000000000000400000000100000010000000000000000400000000000000000000000400000000000000000000000000000000000000004000000802000000000000000000010000000000000000000000020000000000000000004000000000000000000002800000000000000000000200000000000020000000000000000000000000000000000000000400000000000002000000000000000000000000000000000200000",
      "type": "0x2",
      "transactionHash": "0x7801980976b2949ce23cbf14d285e019138c4a46447bc2f2a1e492d0f8ff1a6b",
      "transactionIndex": "0x53",
      "blockHash": "0x170b29088bebee01cec11f76f5ad6df991df351de435259b42630607aadc7dc3",
      "blockNumber": "0x72f554",
      "gasUsed": "0x12aa3",
      "effectiveGasPrice": "0x55308828",
      "from": "0xddb342ecc94236c29a5307d3757d0724d759453c",
      "to": "0x17ceb8da41205f1026241766328751884afa7fe8",
      "contractAddress": null
    }
  ],
  "libraries": [],
  "pending": [],
  "returns": {},
  "timestamp": 1737391069,
  "chain": 11155111,
  "commit": "fcbff6b"
}