{
  "transactions": [
    {
      "hash": "0xd04d376aff9013974bdc2c3a3d6459320da1816ddd8c3343057e763ee9c683a8",
      "transactionType": "CALL",
      "contractName": "StarkNetToken",
      "contractAddress": "0xCa14007Eff0dB1f8135f4C25B34De49AB0d42766",
      "function": "approve(address,uint256)",
      "arguments": [
        "0xeBB064D27138CFbc033073484D86Aaa45eB0e4eA",
        "115792089237316195423570985008687907853269984665640564039457584007913129639935"
      ],
      "transaction": {
        "type": "0x02",
        "from": "0xddb342ecc94236c29a5307d3757d0724d759453c",
        "to": "0xca14007eff0db1f8135f4c25b34de49ab0d42766",
        "gas": "0x93a9",
        "value": "0x0",
        "data": "0x095ea7b3000000000000000000000000ebb064d27138cfbc033073484d86aaa45eb0e4eaffffffffffffffffffffffffffffffffffffffffffffffffffffffffffffffff",
        "nonce": "0x26b",
        "accessList": []
      },
      "additionalContracts": [],
      "isFixedGasLimit": false
    },
    {
      "hash": "0x59d12bd06167fb251fccadd36d20f8efc0ee86a706169821756d126b648b89f6",
      "transactionType": "CALL",
      "contractName": "L1TWAMMBridge",
      "contractAddress": "0xeBB064D27138CFbc033073484D86Aaa45eB0e4eA",
      "function": "depositAndCreateOrder((address,uint256,uint256,uint128,uint128,uint128,uint128,uint256))",
      "arguments": [
        "(0xDdb342ecc94236c29a5307d3757d0724D759453C, 2009894490435840142178314390393166646092438090257831307886760648929397478285, 2366254414417873771392932940469309727793822550615514268240785277201753657472, 0, 1731131552, 1731131616, 500000, 1754425528998404332833579752982178953523781828291666396770948545224656187989)"
      ],
      "transaction": {
        "type": "0x02",
        "from": "0xddb342ecc94236c29a5307d3757d0724d759453c",
        "to": "0xebb064d27138cfbc033073484d86aaa45eb0e4ea",
        "gas": "0x440db",
        "value": "0x5af3107a4000",
        "data": "0x5ce510fa000000000000000000000000ddb342ecc94236c29a5307d3757d0724d759453c04718f5a0fc34cc1af16a1cdee98ffb20c31f5cd61d6ab07201858f4287c938d053b40a647cedfca6ca84f542a0fe36736031905a9639a7f19a3c1e66bfd5080000000000000000000000000000000000000000000000000000000000000000000000000000000000000000000000000000000000000000000000000672ef8a000000000000000000000000000000000000000000000000000000000672ef8e0000000000000000000000000000000000000000000000000000000000007a12003e0f83ba17eac9112e452a72493e4abc71f4e749fa376278e16a6169d4e7255",
        "nonce": "0x26c",
        "accessList": []
      },
      "additionalContracts": [],
      "isFixedGasLimit": false
    }
  ],
  "receipts": [
    {
      "transactionHash": "0xd04d376aff9013974bdc2c3a3d6459320da1816ddd8c3343057e763ee9c683a8",
      "transactionIndex": "0x3",
      "blockHash": "0x6b6393ddd53dc32c49f3270092da9963e182b6d0e34466de2f2de7ef6cc25b0b",
      "blockNumber": "0x6b6f31",
      "from": "0xDdb342ecc94236c29a5307d3757d0724D759453C",
      "to": "0xCa14007Eff0dB1f8135f4C25B34De49AB0d42766",
      "cumulativeGasUsed": "0x39180",
      "gasUsed": "0x6ae8",
      "contractAddress": null,
      "logs": [
        {
          "address": "0xCa14007Eff0dB1f8135f4C25B34De49AB0d42766",
          "topics": [
            "0x8c5be1e5ebec7d5bd14f71427d1e84f3dd0314c0f7b2291e5b200ac8c7c3b925",
            "0x000000000000000000000000ddb342ecc94236c29a5307d3757d0724d759453c",
            "0x000000000000000000000000ebb064d27138cfbc033073484d86aaa45eb0e4ea"
          ],
          "data": "0xffffffffffffffffffffffffffffffffffffffffffffffffffffffffffffffff",
          "blockHash": "0x6b6393ddd53dc32c49f3270092da9963e182b6d0e34466de2f2de7ef6cc25b0b",
          "blockNumber": "0x6b6f31",
          "transactionHash": "0xd04d376aff9013974bdc2c3a3d6459320da1816ddd8c3343057e763ee9c683a8",
          "transactionIndex": "0x3",
          "logIndex": "0x2",
          "removed": false
        }
      ],
      "status": "0x1",
      "logsBloom": "0x00000000000000000000000000000000000000000000000000000000000000000000000000000000000000000000000000000000000000000004000000200000000000000000000000000000000000000000000000000000000000000000000400000000000000000000000000000000400000000000000000000000400000000000000000000000000000008000000000000000000000000000000000000000020000000000000000000000000000000000000000000000000000000000000000000000000000020000000000000000000000000000000000800000000000000010000000000000000002000000000000000000001000000000000000000000",
      "type": "0x2",
      "effectiveGasPrice": "0x206b7b2c7"
    },
    {
      "transactionHash": "0x59d12bd06167fb251fccadd36d20f8efc0ee86a706169821756d126b648b89f6",
      "transactionIndex": "0x4",
      "blockHash": "0x6b6393ddd53dc32c49f3270092da9963e182b6d0e34466de2f2de7ef6cc25b0b",
      "blockNumber": "0x6b6f31",
      "from": "0xDdb342ecc94236c29a5307d3757d0724D759453C",
      "to": "0xeBB064D27138CFbc033073484D86Aaa45eB0e4eA",
      "cumulativeGasUsed": "0x6a5d0",
      "gasUsed": "0x31450",
      "contractAddress": null,
      "logs": [
        {
          "address": "0xCa14007Eff0dB1f8135f4C25B34De49AB0d42766",
          "topics": [
            "0xddf252ad1be2c89b69c2b068fc378daa952ba7f163c4a11628f55a4df523b3ef",
            "0x000000000000000000000000ddb342ecc94236c29a5307d3757d0724d759453c",
            "0x000000000000000000000000ebb064d27138cfbc033073484d86aaa45eb0e4ea"
          ],
          "data": "0x000000000000000000000000000000000000000000000000000000000007a120",
          "blockHash": "0x6b6393ddd53dc32c49f3270092da9963e182b6d0e34466de2f2de7ef6cc25b0b",
          "blockNumber": "0x6b6f31",
          "transactionHash": "0x59d12bd06167fb251fccadd36d20f8efc0ee86a706169821756d126b648b89f6",
          "transactionIndex": "0x4",
          "logIndex": "0x3",
          "removed": false
        },
        {
          "address": "0xCa14007Eff0dB1f8135f4C25B34De49AB0d42766",
          "topics": [
            "0x8c5be1e5ebec7d5bd14f71427d1e84f3dd0314c0f7b2291e5b200ac8c7c3b925",
            "0x000000000000000000000000ebb064d27138cfbc033073484d86aaa45eb0e4ea",
            "0x000000000000000000000000ce5485cfb26914c5dce00b9baf0580364dafc7a4"
          ],
          "data": "0x0000000000000000000000000000000000000000000000000000000000000000",
          "blockHash": "0x6b6393ddd53dc32c49f3270092da9963e182b6d0e34466de2f2de7ef6cc25b0b",
          "blockNumber": "0x6b6f31",
          "transactionHash": "0x59d12bd06167fb251fccadd36d20f8efc0ee86a706169821756d126b648b89f6",
          "transactionIndex": "0x4",
          "logIndex": "0x4",
          "removed": false
        },
        {
          "address": "0xCa14007Eff0dB1f8135f4C25B34De49AB0d42766",
          "topics": [
            "0x8c5be1e5ebec7d5bd14f71427d1e84f3dd0314c0f7b2291e5b200ac8c7c3b925",
            "0x000000000000000000000000ebb064d27138cfbc033073484d86aaa45eb0e4ea",
            "0x000000000000000000000000ce5485cfb26914c5dce00b9baf0580364dafc7a4"
          ],
          "data": "0x000000000000000000000000000000000000000000000000000000000007a120",
          "blockHash": "0x6b6393ddd53dc32c49f3270092da9963e182b6d0e34466de2f2de7ef6cc25b0b",
          "blockNumber": "0x6b6f31",
          "transactionHash": "0x59d12bd06167fb251fccadd36d20f8efc0ee86a706169821756d126b648b89f6",
          "transactionIndex": "0x4",
          "logIndex": "0x5",
          "removed": false
        },
        {
          "address": "0xCa14007Eff0dB1f8135f4C25B34De49AB0d42766",
          "topics": [
            "0x8c5be1e5ebec7d5bd14f71427d1e84f3dd0314c0f7b2291e5b200ac8c7c3b925",
            "0x000000000000000000000000ebb064d27138cfbc033073484d86aaa45eb0e4ea",
            "0x000000000000000000000000ce5485cfb26914c5dce00b9baf0580364dafc7a4"
          ],
          "data": "0x0000000000000000000000000000000000000000000000000000000000000000",
          "blockHash": "0x6b6393ddd53dc32c49f3270092da9963e182b6d0e34466de2f2de7ef6cc25b0b",
          "blockNumber": "0x6b6f31",
          "transactionHash": "0x59d12bd06167fb251fccadd36d20f8efc0ee86a706169821756d126b648b89f6",
          "transactionIndex": "0x4",
          "logIndex": "0x6",
          "removed": false
        },
        {
          "address": "0xCa14007Eff0dB1f8135f4C25B34De49AB0d42766",
          "topics": [
            "0xddf252ad1be2c89b69c2b068fc378daa952ba7f163c4a11628f55a4df523b3ef",
            "0x000000000000000000000000ebb064d27138cfbc033073484d86aaa45eb0e4ea",
            "0x000000000000000000000000ce5485cfb26914c5dce00b9baf0580364dafc7a4"
          ],
          "data": "0x000000000000000000000000000000000000000000000000000000000007a120",
          "blockHash": "0x6b6393ddd53dc32c49f3270092da9963e182b6d0e34466de2f2de7ef6cc25b0b",
          "blockNumber": "0x6b6f31",
          "transactionHash": "0x59d12bd06167fb251fccadd36d20f8efc0ee86a706169821756d126b648b89f6",
          "transactionIndex": "0x4",
          "logIndex": "0x7",
          "removed": false
        },
        {
          "address": "0xE2Bb56ee936fd6433DC0F6e7e3b8365C906AA057",
          "topics": [
            "0xdb80dd488acf86d17c747445b0eabb5d57c541d3bd7b6b87af987858e5066b2b",
            "0x000000000000000000000000ce5485cfb26914c5dce00b9baf0580364dafc7a4",
            "0x0594c1582459ea03f77deaf9eb7e3917d6994a03c13405ba42867f83d85f085d",
            "0x01b64b1b3b690b43b9b514fb81377518f4039cd3e4f4914d8a6bdf01d679fb19"
          ],
          "data": "0x000000000000000000000000000000000000000000000000000000000000006000000000000000000000000000000000000000000000000000000000000027b300000000000000000000000000000000000000000000000000002d79883d20000000000000000000000000000000000000000000000000000000000000000005000000000000000000000000ca14007eff0db1f8135f4c25b34de49ab0d42766000000000000000000000000ebb064d27138cfbc033073484d86aaa45eb0e4ea03e0f83ba17eac9112e452a72493e4abc71f4e749fa376278e16a6169d4e7255000000000000000000000000000000000000000000000000000000000007a1200000000000000000000000000000000000000000000000000000000000000000",
          "blockHash": "0x6b6393ddd53dc32c49f3270092da9963e182b6d0e34466de2f2de7ef6cc25b0b",
          "blockNumber": "0x6b6f31",
          "transactionHash": "0x59d12bd06167fb251fccadd36d20f8efc0ee86a706169821756d126b648b89f6",
          "transactionIndex": "0x4",
          "logIndex": "0x8",
          "removed": false
        },
        {
          "address": "0xcE5485Cfb26914C5dcE00B9BAF0580364daFC7a4",
          "topics": [
            "0x5f971bd00bf3ffbca8a6d72cdd4fd92cfd4f62636161921d1e5a64f0b64ccb6d",
            "0x000000000000000000000000ebb064d27138cfbc033073484d86aaa45eb0e4ea",
            "0x000000000000000000000000ca14007eff0db1f8135f4c25b34de49ab0d42766",
            "0x03e0f83ba17eac9112e452a72493e4abc71f4e749fa376278e16a6169d4e7255"
          ],
          "data": "0x000000000000000000000000000000000000000000000000000000000007a12000000000000000000000000000000000000000000000000000000000000027b300000000000000000000000000000000000000000000000000002d79883d2000",
          "blockHash": "0x6b6393ddd53dc32c49f3270092da9963e182b6d0e34466de2f2de7ef6cc25b0b",
          "blockNumber": "0x6b6f31",
          "transactionHash": "0x59d12bd06167fb251fccadd36d20f8efc0ee86a706169821756d126b648b89f6",
          "transactionIndex": "0x4",
          "logIndex": "0x9",
          "removed": false
        },
        {
          "address": "0xE2Bb56ee936fd6433DC0F6e7e3b8365C906AA057",
          "topics": [
            "0xdb80dd488acf86d17c747445b0eabb5d57c541d3bd7b6b87af987858e5066b2b",
            "0x000000000000000000000000ebb064d27138cfbc033073484d86aaa45eb0e4ea",
            "0x03e0f83ba17eac9112e452a72493e4abc71f4e749fa376278e16a6169d4e7255",
            "0x00f1149cade9d692862ad41df96b108aa2c20af34f640457e781d166c98dc6b0"
          ],
          "data": "0x000000000000000000000000000000000000000000000000000000000000006000000000000000000000000000000000000000000000000000000000000027b400000000000000000000000000000000000000000000000000002d79883d200000000000000000000000000000000000000000000000000000000000000000080000000000000000000000000000000000000000000000000000000000000000000000000000000000000000ddb342ecc94236c29a5307d3757d0724d759453c04718f5a0fc34cc1af16a1cdee98ffb20c31f5cd61d6ab07201858f4287c938d053b40a647cedfca6ca84f542a0fe36736031905a9639a7f19a3c1e66bfd5080000000000000000000000000000000000000000000000000000000000000000000000000000000000000000000000000000000000000000000000000672ef8a000000000000000000000000000000000000000000000000000000000672ef8e0000000000000000000000000000000000000000000000000000000000007a120",
          "blockHash": "0x6b6393ddd53dc32c49f3270092da9963e182b6d0e34466de2f2de7ef6cc25b0b",
          "blockNumber": "0x6b6f31",
          "transactionHash": "0x59d12bd06167fb251fccadd36d20f8efc0ee86a706169821756d126b648b89f6",
          "transactionIndex": "0x4",
          "logIndex": "0xa",
          "removed": false
        },
        {
          "address": "0xeBB064D27138CFbc033073484D86Aaa45eB0e4eA",
          "topics": [
            "0xaf43445f7721522b7a3864ed3de53d7e2e658bfa1eeffa18e1e229be68ce2545",
            "0x000000000000000000000000ddb342ecc94236c29a5307d3757d0724d759453c",
            "0x03e0f83ba17eac9112e452a72493e4abc71f4e749fa376278e16a6169d4e7255"
          ],
          "data": "0x000000000000000000000000000000000000000000000000000000000007a1200000000000000000000000000000000000000000000000000000000000000001",
          "blockHash": "0x6b6393ddd53dc32c49f3270092da9963e182b6d0e34466de2f2de7ef6cc25b0b",
          "blockNumber": "0x6b6f31",
          "transactionHash": "0x59d12bd06167fb251fccadd36d20f8efc0ee86a706169821756d126b648b89f6",
          "transactionIndex": "0x4",
          "logIndex": "0xb",
          "removed": false
        }
      ],
      "status": "0x1",
      "logsBloom": "0x20400200000000000200000000020000000000000000000000000000000000400000000000000000000000000000000000000000000004000004000000200010000000000000000000000008080000000000000000000040001000000000000600000000100000010000000000000000400000800000000000000010400008002000001000000000000000008400000004000000000200000000020000000010020000800000000000000020000000001000000000000020000000000000000000000002000000064010000000000000000000200000000000800000000000000010000000110000000002020084000000000000001000000000000000000000",
      "type": "0x2",
      "effectiveGasPrice": "0x206b7b2c7"
    }
  ],
  "libraries": [],
  "pending": [],
  "returns": {},
  "timestamp": 1731131631,
  "chain": 11155111,
  "multi": false,
  "commit": "e164c15"
}