{
  "transactions": [
    {
      "hash": "0xac321a43a5d49f14c0feff26c9f134c1260049aca04e01312964523dbea46d8e",
      "transactionType": "CALL",
      "contractName": null,
      "contractAddress": "0xca14007eff0db1f8135f4c25b34de49ab0d42766",
      "function": "approve(address,uint256)",
      "arguments": [
        "0xeEaD9DC94aa25623aFDB6B04135C31FB58Ff09F1",
        "115792089237316195423570985008687907853269984665640564039457584007913129639935"
      ],
      "transaction": {
        "from": "0x1b382a7b4496f14e0aaa2da1e1626da400426a03",
        "to": "0xca14007eff0db1f8135f4c25b34de49ab0d42766",
        "gas": "0x93a9",
        "value": "0x0",
        "input": "0x095ea7b3000000000000000000000000eead9dc94aa25623afdb6b04135c31fb58ff09f1ffffffffffffffffffffffffffffffffffffffffffffffffffffffffffffffff",
        "nonce": "0x12c",
        "chainId": "0xaa36a7"
      },
      "additionalContracts": [],
      "isFixedGasLimit": false
    },
    {
      "hash": "0x32a7d371c95270d2691aa2f0b6fcc82122f88fb5e0413a9432a6b981f72faabc",
      "transactionType": "CALL",
      "contractName": null,
      "contractAddress": "0xeead9dc94aa25623afdb6b04135c31fb58ff09f1",
      "function": "_sendMessage(uint256,uint256,uint256[])",
      "arguments": [
        "2789318981096537317422508638270213251163035652519458065417008744915404554912",
        "425952401605428413817582304755919420533935873840436977667370850915372091056",
        "[3, 0, 0, 0, 0, 0, 0, 0]"
      ],
      "transaction": {
        "from": "0x1b382a7b4496f14e0aaa2da1e1626da400426a03",
        "to": "0xeead9dc94aa25623afdb6b04135c31fb58ff09f1",
        "gas": "0x198a8",
        "value": "0x5af3107a4000",
        "input": "0x88f439ef062ab2d735892e7c171467546a12833da8e1c90b37119325df79559adacb82a000f1149cade9d692862ad41df96b108aa2c20af34f640457e781d166c98dc6b00000000000000000000000000000000000000000000000000000000000000060000000000000000000000000000000000000000000000000000000000000000800000000000000000000000000000000000000000000000000000000000000030000000000000000000000000000000000000000000000000000000000000000000000000000000000000000000000000000000000000000000000000000000000000000000000000000000000000000000000000000000000000000000000000000000000000000000000000000000000000000000000000000000000000000000000000000000000000000000000000000000000000000000000000000000000000000000000000000000000000000000000000000000000000000000000000000000000000000000000000000000000000000000000000000000000000000",
        "nonce": "0x12d",
        "chainId": "0xaa36a7"
      },
      "additionalContracts": [],
      "isFixedGasLimit": false
    }
  ],
  "receipts": [
    {
      "status": "0x1",
      "cumulativeGasUsed": "0x5f492d",
      "logs": [
        {
          "address": "0xca14007eff0db1f8135f4c25b34de49ab0d42766",
          "topics": [
            "0x8c5be1e5ebec7d5bd14f71427d1e84f3dd0314c0f7b2291e5b200ac8c7c3b925",
            "0x0000000000000000000000001b382a7b4496f14e0aaa2da1e1626da400426a03",
            "0x000000000000000000000000eead9dc94aa25623afdb6b04135c31fb58ff09f1"
          ],
          "data": "0xffffffffffffffffffffffffffffffffffffffffffffffffffffffffffffffff",
          "blockHash": "0x67781b415cca17671b04d10a644997af4a6081e4ba45f02b9235ae1075073524",
          "blockNumber": "0x6bb2e9",
          "transactionHash": "0xac321a43a5d49f14c0feff26c9f134c1260049aca04e01312964523dbea46d8e",
          "transactionIndex": "0x29",
          "logIndex": "0x3c",
          "removed": false
        }
      ],
      "logsBloom": "0x00000000000000000000000000000000000000000000000000000000000000000000000000000000000000000000000000000000000000000000000000200000000000000000000000000000000000000000000000000000000000000000000000000000000000000000000000000000000000000010000020000000000000040000000000000000000000000000000000000000000000000004000000000000020000000000000000000000000000000000100000000000000000000000000000000000000000020000000000000000000000000000000000800000000000000010000010000000000000000000000000000000001000000000000000000000",
      "type": "0x2",
      "transactionHash": "0xac321a43a5d49f14c0feff26c9f134c1260049aca04e01312964523dbea46d8e",
      "transactionIndex": "0x29",
      "blockHash": "0x67781b415cca17671b04d10a644997af4a6081e4ba45f02b9235ae1075073524",
      "blockNumber": "0x6bb2e9",
      "gasUsed": "0x6ae8",
      "effectiveGasPrice": "0x13da1f9a",
      "blobGasUsed": "0x0",
      "from": "0x1b382a7b4496f14e0aaa2da1e1626da400426a03",
      "to": "0xca14007eff0db1f8135f4c25b34de49ab0d42766",
      "contractAddress": null
    },
    {
      "status": "0x1",
      "cumulativeGasUsed": "0x60710a",
      "logs": [
        {
          "address": "0xe2bb56ee936fd6433dc0f6e7e3b8365c906aa057",
          "topics": [
            "0xdb80dd488acf86d17c747445b0eabb5d57c541d3bd7b6b87af987858e5066b2b",
            "0x000000000000000000000000eead9dc94aa25623afdb6b04135c31fb58ff09f1",
            "0x062ab2d735892e7c171467546a12833da8e1c90b37119325df79559adacb82a0",
            "0x00f1149cade9d692862ad41df96b108aa2c20af34f640457e781d166c98dc6b0"
          ],
          "data": "0x000000000000000000000000000000000000000000000000000000000000006000000000000000000000000000000000000000000000000000000000000027f800000000000000000000000000000000000000000000000000005af3107a4000000000000000000000000000000000000000000000000000000000000000000800000000000000000000000000000000000000000000000000000000000000030000000000000000000000000000000000000000000000000000000000000000000000000000000000000000000000000000000000000000000000000000000000000000000000000000000000000000000000000000000000000000000000000000000000000000000000000000000000000000000000000000000000000000000000000000000000000000000000000000000000000000000000000000000000000000000000000000000000000000000000000000000000000000000000000000000000000000000000000000000000000000000000000000000000000000",
          "blockHash": "0x67781b415cca17671b04d10a644997af4a6081e4ba45f02b9235ae1075073524",
          "blockNumber": "0x6bb2e9",
          "transactionHash": "0x32a7d371c95270d2691aa2f0b6fcc82122f88fb5e0413a9432a6b981f72faabc",
          "transactionIndex": "0x2a",
          "logIndex": "0x3d",
          "removed": false
        }
      ],
      "logsBloom": "0x00400000000000000000000000020000000000000000000000000000000020000000000000000000000000000200000000000000000000000000000000000000000000000000000000000000000000000000000000000040001000000000000000000000100000010000000000000000000000000000000000000000000000000000000000000000000000000000000004000000000000000004000000000010000000000000000000000020000000000000100000000000000000000000000000000000000000000000000000000000000000000000000000000000004000000000000010000000000000000000000000000000000000000000000000000000",
      "type": "0x2",
      "transactionHash": "0x32a7d371c95270d2691aa2f0b6fcc82122f88fb5e0413a9432a6b981f72faabc",
      "transactionIndex": "0x2a",
      "blockHash": "0x67781b415cca17671b04d10a644997af4a6081e4ba45f02b9235ae1075073524",
      "blockNumber": "0x6bb2e9",
      "gasUsed": "0x127dd",
      "effectiveGasPrice": "0x13da1f9a",
      "blobGasUsed": "0x0",
      "from": "0x1b382a7b4496f14e0aaa2da1e1626da400426a03",
      "to": "0xeead9dc94aa25623afdb6b04135c31fb58ff09f1",
      "contractAddress": null
    }
  ],
  "libraries": [],
  "pending": [],
  "returns": {},
  "timestamp": 1731365825,
  "chain": 11155111,
  "commit": "a5302c4"
}