{
  "transactions": [
    {
      "hash": "0x2b33a20797d80072bd9fbef04494f90a402a03075b76ec2249de3fda99f6d2b1",
      "transactionType": "CALL",
      "contractName": "FiatTokenProxy",
      "contractAddress": "0x1c7D4B196Cb0C7B01d743Fbc6116a902379C7238",
      "function": "approve(address,uint256)",
      "arguments": [
        "0x429C016bdeFDD906F665FF42592D6B7381A3a44A",
        "115792089237316195423570985008687907853269984665640564039457584007913129639935"
      ],
      "transaction": {
        "type": "0x02",
        "from": "0xddb342ecc94236c29a5307d3757d0724d759453c",
        "to": "0x1c7d4b196cb0c7b01d743fbc6116a902379c7238",
        "gas": "0xc19d",
        "value": "0x0",
        "data": "0x095ea7b3000000000000000000000000429c016bdefdd906f665ff42592d6b7381a3a44affffffffffffffffffffffffffffffffffffffffffffffffffffffffffffffff",
        "nonce": "0x203",
        "accessList": []
      },
      "additionalContracts": [],
      "isFixedGasLimit": false
    },
    {
      "hash": "0x6ddcb6e560ed9bafb2ee51c43924dcd8fe0df96b14d779057ebd7bf96b5d077d",
      "transactionType": "CALL",
      "contractName": "FiatTokenProxy",
      "contractAddress": "0x1c7D4B196Cb0C7B01d743Fbc6116a902379C7238",
      "function": "transfer(address,uint256)",
      "arguments": [
        "0x429C016bdeFDD906F665FF42592D6B7381A3a44A",
        "100000"
      ],
      "transaction": {
        "type": "0x02",
        "from": "0xddb342ecc94236c29a5307d3757d0724d759453c",
        "to": "0x1c7d4b196cb0c7b01d743fbc6116a902379c7238",
        "gas": "0x1016a",
        "value": "0x0",
        "data": "0xa9059cbb000000000000000000000000429c016bdefdd906f665ff42592d6b7381a3a44a00000000000000000000000000000000000000000000000000000000000186a0",
        "nonce": "0x204",
        "accessList": []
      },
      "additionalContracts": [],
      "isFixedGasLimit": false
    },
    {
      "hash": "0xb66930dff6825792089a5729df12640c7a481ec36f7e356a9ddb55ee8bc01f8d",
      "transactionType": "CALL",
      "contractName": "L1TWAMMBridge",
      "contractAddress": "0x429C016bdeFDD906F665FF42592D6B7381A3a44A",
      "function": "deposit(uint256,uint256)",
      "arguments": [
        "100000",
        "2502691132453856371954262829625446647500106672685387171108675801779834587358"
      ],
      "transaction": {
        "type": "0x02",
        "from": "0xddb342ecc94236c29a5307d3757d0724d759453c",
        "to": "0x429c016bdefdd906f665ff42592d6b7381a3a44a",
        "gas": "0x307e6",
        "value": "0x38d7ea4c68000",
        "data": "0xe2bbb15800000000000000000000000000000000000000000000000000000000000186a0058879156aed8b0a9c6829a60bcd474b4f1db3ec58aa7aae9ecd5d18dfae08de",
        "nonce": "0x205",
        "accessList": []
      },
      "additionalContracts": [],
      "isFixedGasLimit": false
    }
  ],
  "receipts": [
    {
      "transactionHash": "0x2b33a20797d80072bd9fbef04494f90a402a03075b76ec2249de3fda99f6d2b1",
      "transactionIndex": "0x15",
      "blockHash": "0x318a72a95a3a2443c1334076d7286a38932bfc114aa00f7d6023110bb97e1fd6",
      "blockNumber": "0x6b2c5d",
      "from": "0xDdb342ecc94236c29a5307d3757d0724D759453C",
      "to": "0x1c7D4B196Cb0C7B01d743Fbc6116a902379C7238",
      "cumulativeGasUsed": "0xbed1f9",
      "gasUsed": "0x8c2d",
      "contractAddress": null,
      "logs": [
        {
          "address": "0x1c7D4B196Cb0C7B01d743Fbc6116a902379C7238",
          "topics": [
            "0x8c5be1e5ebec7d5bd14f71427d1e84f3dd0314c0f7b2291e5b200ac8c7c3b925",
            "0x000000000000000000000000ddb342ecc94236c29a5307d3757d0724d759453c",
            "0x000000000000000000000000429c016bdefdd906f665ff42592d6b7381a3a44a"
          ],
          "data": "0xffffffffffffffffffffffffffffffffffffffffffffffffffffffffffffffff",
          "blockHash": "0x318a72a95a3a2443c1334076d7286a38932bfc114aa00f7d6023110bb97e1fd6",
          "blockNumber": "0x6b2c5d",
          "transactionHash": "0x2b33a20797d80072bd9fbef04494f90a402a03075b76ec2249de3fda99f6d2b1",
          "transactionIndex": "0x15",
          "logIndex": "0x172",
          "removed": false
        }
      ],
      "status": "0x1",
      "logsBloom": "0x00000000000000000080000000000000000000000000000000000000000200000000000000000000000000000000000000000000001000000000000000200000000000000000000000000000000000000000000000000000000000000000000400000000000000000000000000000000400000000000000000000000400000000000000000100000000000000000000000000000000000000000000000000000020000000000000000000000000000000000000000000000000000000000100000000000000000000000000000000000000000000000000000000000000000000010000000000000000010000000000000000000000000000000000000000000",
      "type": "0x2",
      "effectiveGasPrice": "0x3ada8d559"
    },
    {
      "transactionHash": "0x6ddcb6e560ed9bafb2ee51c43924dcd8fe0df96b14d779057ebd7bf96b5d077d",
      "transactionIndex": "0x16",
      "blockHash": "0x318a72a95a3a2443c1334076d7286a38932bfc114aa00f7d6023110bb97e1fd6",
      "blockNumber": "0x6b2c5d",
      "from": "0xDdb342ecc94236c29a5307d3757d0724D759453C",
      "to": "0x1c7D4B196Cb0C7B01d743Fbc6116a902379C7238",
      "cumulativeGasUsed": "0xbf81fc",
      "gasUsed": "0xb003",
      "contractAddress": null,
      "logs": [
        {
          "address": "0x1c7D4B196Cb0C7B01d743Fbc6116a902379C7238",
          "topics": [
            "0xddf252ad1be2c89b69c2b068fc378daa952ba7f163c4a11628f55a4df523b3ef",
            "0x000000000000000000000000ddb342ecc94236c29a5307d3757d0724d759453c",
            "0x000000000000000000000000429c016bdefdd906f665ff42592d6b7381a3a44a"
          ],
          "data": "0x00000000000000000000000000000000000000000000000000000000000186a0",
          "blockHash": "0x318a72a95a3a2443c1334076d7286a38932bfc114aa00f7d6023110bb97e1fd6",
          "blockNumber": "0x6b2c5d",
          "transactionHash": "0x6ddcb6e560ed9bafb2ee51c43924dcd8fe0df96b14d779057ebd7bf96b5d077d",
          "transactionIndex": "0x16",
          "logIndex": "0x173",
          "removed": false
        }
      ],
      "status": "0x1",
      "logsBloom": "0x00000000000000000080000000000000000000000000000000000000000200000000000000000000000000000000000000000000001000000000000000000000000000000000000000000008000000000000000000000000000000000000000400000000000000000000000000000000400000000000000000000010400000000000000000100000000000000000000000000000000000000000000000000000000000000000000000000000000000000000000000000000000000000000100000000002000000000000000000000000000000000000000000000000000000000000000000000000000010000000000000000000000000000000000000000000",
      "type": "0x2",
      "effectiveGasPrice": "0x3ada8d559"
    },
    {
      "transactionHash": "0xb66930dff6825792089a5729df12640c7a481ec36f7e356a9ddb55ee8bc01f8d",
      "transactionIndex": "0x17",
      "blockHash": "0x318a72a95a3a2443c1334076d7286a38932bfc114aa00f7d6023110bb97e1fd6",
      "blockNumber": "0x6b2c5d",
      "from": "0xDdb342ecc94236c29a5307d3757d0724D759453C",
      "to": "0x429C016bdeFDD906F665FF42592D6B7381A3a44A",
      "cumulativeGasUsed": "0xc1b3ba",
      "gasUsed": "0x231be",
      "contractAddress": null,
      "logs": [
        {
          "address": "0x1c7D4B196Cb0C7B01d743Fbc6116a902379C7238",
          "topics": [
            "0x8c5be1e5ebec7d5bd14f71427d1e84f3dd0314c0f7b2291e5b200ac8c7c3b925",
            "0x000000000000000000000000429c016bdefdd906f665ff42592d6b7381a3a44a",
            "0x00000000000000000000000086dc0b32a5045ffa48d9a60b7e7ca32f11facd7b"
          ],
          "data": "0x00000000000000000000000000000000000000000000000000000000000186a0",
          "blockHash": "0x318a72a95a3a2443c1334076d7286a38932bfc114aa00f7d6023110bb97e1fd6",
          "blockNumber": "0x6b2c5d",
          "transactionHash": "0xb66930dff6825792089a5729df12640c7a481ec36f7e356a9ddb55ee8bc01f8d",
          "transactionIndex": "0x17",
          "logIndex": "0x174",
          "removed": false
        },
        {
          "address": "0x1c7D4B196Cb0C7B01d743Fbc6116a902379C7238",
          "topics": [
            "0xddf252ad1be2c89b69c2b068fc378daa952ba7f163c4a11628f55a4df523b3ef",
            "0x000000000000000000000000429c016bdefdd906f665ff42592d6b7381a3a44a",
            "0x00000000000000000000000086dc0b32a5045ffa48d9a60b7e7ca32f11facd7b"
          ],
          "data": "0x00000000000000000000000000000000000000000000000000000000000186a0",
          "blockHash": "0x318a72a95a3a2443c1334076d7286a38932bfc114aa00f7d6023110bb97e1fd6",
          "blockNumber": "0x6b2c5d",
          "transactionHash": "0xb66930dff6825792089a5729df12640c7a481ec36f7e356a9ddb55ee8bc01f8d",
          "transactionIndex": "0x17",
          "logIndex": "0x175",
          "removed": false
        },
        {
          "address": "0xE2Bb56ee936fd6433DC0F6e7e3b8365C906AA057",
          "topics": [
            "0xdb80dd488acf86d17c747445b0eabb5d57c541d3bd7b6b87af987858e5066b2b",
            "0x00000000000000000000000086dc0b32a5045ffa48d9a60b7e7ca32f11facd7b",
            "0x0028729b12ce1140cbc1e7cbc7245455d3c15fa0c7f5d2e9fc8e0441567f6b50",
            "0x01b64b1b3b690b43b9b514fb81377518f4039cd3e4f4914d8a6bdf01d679fb19"
          ],
          "data": "0x0000000000000000000000000000000000000000000000000000000000000060000000000000000000000000000000000000000000000000000000000000276700000000000000000000000000000000000000000000000000038d7ea4c6800000000000000000000000000000000000000000000000000000000000000000050000000000000000000000001c7d4b196cb0c7b01d743fbc6116a902379c7238000000000000000000000000429c016bdefdd906f665ff42592d6b7381a3a44a058879156aed8b0a9c6829a60bcd474b4f1db3ec58aa7aae9ecd5d18dfae08de00000000000000000000000000000000000000000000000000000000000186a00000000000000000000000000000000000000000000000000000000000000000",
          "blockHash": "0x318a72a95a3a2443c1334076d7286a38932bfc114aa00f7d6023110bb97e1fd6",
          "blockNumber": "0x6b2c5d",
          "transactionHash": "0xb66930dff6825792089a5729df12640c7a481ec36f7e356a9ddb55ee8bc01f8d",
          "transactionIndex": "0x17",
          "logIndex": "0x176",
          "removed": false
        },
        {
          "address": "0x86dC0B32a5045FFa48D9a60B7e7Ca32F11faCd7B",
          "topics": [
            "0x5f971bd00bf3ffbca8a6d72cdd4fd92cfd4f62636161921d1e5a64f0b64ccb6d",
            "0x000000000000000000000000429c016bdefdd906f665ff42592d6b7381a3a44a",
            "0x0000000000000000000000001c7d4b196cb0c7b01d743fbc6116a902379c7238",
            "0x058879156aed8b0a9c6829a60bcd474b4f1db3ec58aa7aae9ecd5d18dfae08de"
          ],
          "data": "0x00000000000000000000000000000000000000000000000000000000000186a0000000000000000000000000000000000000000000000000000000000000276700000000000000000000000000000000000000000000000000038d7ea4c68000",
          "blockHash": "0x318a72a95a3a2443c1334076d7286a38932bfc114aa00f7d6023110bb97e1fd6",
          "blockNumber": "0x6b2c5d",
          "transactionHash": "0xb66930dff6825792089a5729df12640c7a481ec36f7e356a9ddb55ee8bc01f8d",
          "transactionIndex": "0x17",
          "logIndex": "0x177",
          "removed": false
        }
      ],
      "status": "0x1",
      "logsBloom": "0x0000000000000000028000000002000000000000000000000000000000020040000000000000000000008000000000000000000000100c000000400000200000100000000000000000000008000000000000000000000040001000000000000000000000100000000000000000000000000200000000000000000210000080000000000000102000000000000404000000000000000000000000020000000010020000000000000000000020000000001000008000000020000002000000100000000002000000000000000000000000000000000000000000000000000000000010008000000000000010000080000000000000000000000000000000000000",
      "type": "0x2",
      "effectiveGasPrice": "0x3ada8d559"
    }
  ],
  "libraries": [],
  "pending": [],
  "returns": {},
  "timestamp": 1730898956,
  "chain": 11155111,
  "multi": false,
  "commit": "85f3f64"
}