{
  "transactions": [
    {
      "hash": "0x83f8652004035264bfb2711d6436518cf8d7b3e553f2ac5b0b51e0d9a0a1c72b",
      "transactionType": "CALL",
      "contractName": "StarkNetToken",
      "contractAddress": "0xCa14007Eff0dB1f8135f4C25B34De49AB0d42766",
      "function": "approve(address,uint256)",
      "arguments": [
        "0x7eb4C59eABE1234E8A6D02FdF4d1BB595C4702Cd",
        "115792089237316195423570985008687907853269984665640564039457584007913129639935"
      ],
      "transaction": {
        "type": "0x02",
        "from": "0xddb342ecc94236c29a5307d3757d0724d759453c",
        "to": "0xca14007eff0db1f8135f4c25b34de49ab0d42766",
        "gas": "0x93a9",
        "value": "0x0",
        "data": "0x095ea7b30000000000000000000000007eb4c59eabe1234e8a6d02fdf4d1bb595c4702cdffffffffffffffffffffffffffffffffffffffffffffffffffffffffffffffff",
        "nonce": "0x360",
        "accessList": []
      },
      "additionalContracts": [],
      "isFixedGasLimit": false
    },
    {
      "hash": "0xbbd3ce47ee57a2506f8278662b9568b41484a79585303359440d6322e58250af",
      "transactionType": "CALL",
      "contractName": null,
      "contractAddress": "0x7eb4C59eABE1234E8A6D02FdF4d1BB595C4702Cd",
      "function": "setL2EndpointAddress(uint256)",
      "arguments": [
        "859671099118744188824955380788859506563408006377732183923797035223963374909"
      ],
      "transaction": {
        "type": "0x02",
        "from": "0xddb342ecc94236c29a5307d3757d0724d759453c",
        "to": "0x7eb4c59eabe1234e8a6d02fdf4d1bb595c4702cd",
        "gas": "0xabab",
        "value": "0x0",
        "data": "0x5155fb2f01e68e7d48c0fa7f06e622e6441e8ac76677966bb2679c57a2f7674663bb953d",
        "nonce": "0x361",
        "accessList": []
      },
      "additionalContracts": [],
      "isFixedGasLimit": false
    }
  ],
  "receipts": [],
  "libraries": [],
  "pending": [
    "0x83f8652004035264bfb2711d6436518cf8d7b3e553f2ac5b0b51e0d9a0a1c72b",
    "0xbbd3ce47ee57a2506f8278662b9568b41484a79585303359440d6322e58250af"
  ],
  "returns": {},
  "timestamp": 1732633230,
  "chain": 11155111,
  "multi": false,
  "commit": "1254ada"
}