{
  "transactions": [
    {
      "hash": "0xbc6c2a665e1dc1045837c8180f52804eb4d669761f6c3db76af5d70ab30457b5",
      "transactionType": "CALL",
      "contractName": null,
      "contractAddress": "0xca14007eff0db1f8135f4c25b34de49ab0d42766",
      "function": "approve(address,uint256)",
      "arguments": [
        "0x4E3d409Bf0583cD9D2Cdb58265B9C6f15556325d",
        "115792089237316195423570985008687907853269984665640564039457584007913129639935"
      ],
      "transaction": {
        "from": "0x1b382a7b4496f14e0aaa2da1e1626da400426a03",
        "to": "0xca14007eff0db1f8135f4c25b34de49ab0d42766",
        "gas": "0xff08",
        "value": "0x0",
        "input": "0x095ea7b30000000000000000000000004e3d409bf0583cd9d2cdb58265b9c6f15556325dffffffffffffffffffffffffffffffffffffffffffffffffffffffffffffffff",
        "nonce": "0xea",
        "chainId": "0xaa36a7"
      },
      "additionalContracts": [],
      "isFixedGasLimit": false
    },
    {
      "hash": "0x9e1c833793cdeb39867287c35f3d66c85f5b6e5d9cbdaf6d654265b21a686087",
      "transactionType": "CALL",
      "contractName": null,
      "contractAddress": "0xca14007eff0db1f8135f4c25b34de49ab0d42766",
      "function": "transfer(address,uint256)",
      "arguments": [
        "0x4E3d409Bf0583cD9D2Cdb58265B9C6f15556325d",
        "10000000000000000"
      ],
      "transaction": {
        "from": "0x1b382a7b4496f14e0aaa2da1e1626da400426a03",
        "to": "0xca14007eff0db1f8135f4c25b34de49ab0d42766",
        "gas": "0x145c6",
        "value": "0x0",
        "input": "0xa9059cbb0000000000000000000000004e3d409bf0583cd9d2cdb58265b9c6f15556325d000000000000000000000000000000000000000000000000002386f26fc10000",
        "nonce": "0xeb",
        "chainId": "0xaa36a7"
      },
      "additionalContracts": [],
      "isFixedGasLimit": false
    },
    {
      "hash": "0x38070eb35b9a7d2257997de59c22d84815d23d4bb781eae4a06dff2c8531223c",
      "transactionType": "CALL",
      "contractName": null,
      "contractAddress": "0x4e3d409bf0583cd9d2cdb58265b9c6f15556325d",
      "function": "initiateWithdrawal(uint256)",
      "arguments": [
        "0"
      ],
      "transaction": {
        "from": "0x1b382a7b4496f14e0aaa2da1e1626da400426a03",
        "to": "0x4e3d409bf0583cd9d2cdb58265b9c6f15556325d",
        "gas": "0x18cfa",
        "value": "0x2386f26fc10000",
        "input": "0x12edde5e0000000000000000000000000000000000000000000000000000000000000000",
        "nonce": "0xec",
        "chainId": "0xaa36a7"
      },
      "additionalContracts": [],
      "isFixedGasLimit": false
    }
  ],
  "receipts": [
    {
      "status": "0x1",
      "cumulativeGasUsed": "0x1343ced",
      "logs": [
        {
          "address": "0xca14007eff0db1f8135f4c25b34de49ab0d42766",
          "topics": [
            "0x8c5be1e5ebec7d5bd14f71427d1e84f3dd0314c0f7b2291e5b200ac8c7c3b925",
            "0x0000000000000000000000001b382a7b4496f14e0aaa2da1e1626da400426a03",
            "0x0000000000000000000000004e3d409bf0583cd9d2cdb58265b9c6f15556325d"
          ],
          "data": "0xffffffffffffffffffffffffffffffffffffffffffffffffffffffffffffffff",
          "blockHash": "0x672391143225be87dafe40e4410922fae4924864d7be0a2a43b034edbd267978",
          "blockNumber": "0x6b3af5",
          "transactionHash": "0xbc6c2a665e1dc1045837c8180f52804eb4d669761f6c3db76af5d70ab30457b5",
          "transactionIndex": "0x53",
          "logIndex": "0x80",
          "removed": false
        }
      ],
      "logsBloom": "0x00000400000000000000000008000000000000000000000000000000000000000000000000000000000000000000000000000000000000000000000000200000000000000000000000000000000000000000000000000000000000000000000000000000000000000000000000000000000000000010000020000000000000040000000000000000000000000000000000000000000000000000000000000000020000000000000000000000000000000000000000000000000000000000000000000000000000020000000000000000000000000000000000800000000000002010000000000000000000000000000000000000001000000000000000000000",
      "type": "0x2",
      "transactionHash": "0xbc6c2a665e1dc1045837c8180f52804eb4d669761f6c3db76af5d70ab30457b5",
      "transactionIndex": "0x53",
      "blockHash": "0x672391143225be87dafe40e4410922fae4924864d7be0a2a43b034edbd267978",
      "blockNumber": "0x6b3af5",
      "gasUsed": "0xb8a4",
      "effectiveGasPrice": "0x19f11eb99",
      "blobGasUsed": "0x0",
      "from": "0x1b382a7b4496f14e0aaa2da1e1626da400426a03",
      "to": "0xca14007eff0db1f8135f4c25b34de49ab0d42766",
      "contractAddress": null
    },
    {
      "status": "0x1",
      "cumulativeGasUsed": "0x7cef59",
      "logs": [
        {
          "address": "0xca14007eff0db1f8135f4c25b34de49ab0d42766",
          "topics": [
            "0xddf252ad1be2c89b69c2b068fc378daa952ba7f163c4a11628f55a4df523b3ef",
            "0x0000000000000000000000001b382a7b4496f14e0aaa2da1e1626da400426a03",
            "0x0000000000000000000000004e3d409bf0583cd9d2cdb58265b9c6f15556325d"
          ],
          "data": "0x000000000000000000000000000000000000000000000000002386f26fc10000",
          "blockHash": "0x977c875bd5d76fbd22b246e2aed894c5b666e7ab40d08e3a80217c8daa3a7754",
          "blockNumber": "0x6b3af6",
          "transactionHash": "0x9e1c833793cdeb39867287c35f3d66c85f5b6e5d9cbdaf6d654265b21a686087",
          "transactionIndex": "0x31",
          "logIndex": "0x51",
          "removed": false
        }
      ],
      "logsBloom": "0x00000400000000000000000008000000000000000000000000000000000000000000000000000000000000000000000000000000000000000000000000000000000000000000000000000008000000000000000000000000000000000000000000000000000000000000000000000000000000000010000020000010000000040000000000000000000000000000000000000000000000000000000000000000000000000000000000000000000000000000000000000000000000000000000000000002000000020000000000000000000000000000000000800000000000002000000000000000000000000000000000000000001000000000000000000000",
      "type": "0x2",
      "transactionHash": "0x9e1c833793cdeb39867287c35f3d66c85f5b6e5d9cbdaf6d654265b21a686087",
      "transactionIndex": "0x31",
      "blockHash": "0x977c875bd5d76fbd22b246e2aed894c5b666e7ab40d08e3a80217c8daa3a7754",
      "blockNumber": "0x6b3af6",
      "gasUsed": "0xdec1",
      "effectiveGasPrice": "0x1b7fa43c3",
      "blobGasUsed": "0x0",
      "from": "0x1b382a7b4496f14e0aaa2da1e1626da400426a03",
      "to": "0xca14007eff0db1f8135f4c25b34de49ab0d42766",
      "contractAddress": null
    },
    {
      "status": "0x1",
      "cumulativeGasUsed": "0x7e0ec1",
      "logs": [
        {
          "address": "0xe2bb56ee936fd6433dc0f6e7e3b8365c906aa057",
          "topics": [
            "0xdb80dd488acf86d17c747445b0eabb5d57c541d3bd7b6b87af987858e5066b2b",
            "0x0000000000000000000000004e3d409bf0583cd9d2cdb58265b9c6f15556325d",
            "0x059ed9a2f59b0d0d4123a21d02ee64d3c3e9119b34494b73c70714ed4efa263c",
            "0x01b64b1b3b690b43b9b514fb81377518f4039cd3e4f4914d8a6bdf01d679fb19"
          ],
          "data": "0x00000000000000000000000000000000000000000000000000000000000000600000000000000000000000000000000000000000000000000000000000002775000000000000000000000000000000000000000000000000002386f26fc1000000000000000000000000000000000000000000000000000000000000000000010000000000000000000000000000000000000000000000000000000000000002",
          "blockHash": "0x977c875bd5d76fbd22b246e2aed894c5b666e7ab40d08e3a80217c8daa3a7754",
          "blockNumber": "0x6b3af6",
          "transactionHash": "0x38070eb35b9a7d2257997de59c22d84815d23d4bb781eae4a06dff2c8531223c",
          "transactionIndex": "0x32",
          "logIndex": "0x52",
          "removed": false
        },
        {
          "address": "0x4e3d409bf0583cd9d2cdb58265b9c6f15556325d",
          "topics": [
            "0x6d92f7d3303f995bf21956bb0c51b388bae348eaf45c23debd2cfa3fcd9ec646",
            "0x0000000000000000000000001b382a7b4496f14e0aaa2da1e1626da400426a03"
          ],
          "data": "0x0000000000000000000000000000000000000000000000000000000000000000",
          "blockHash": "0x977c875bd5d76fbd22b246e2aed894c5b666e7ab40d08e3a80217c8daa3a7754",
          "blockNumber": "0x6b3af6",
          "transactionHash": "0x38070eb35b9a7d2257997de59c22d84815d23d4bb781eae4a06dff2c8531223c",
          "transactionIndex": "0x32",
          "logIndex": "0x53",
          "removed": false
        }
      ],
      "logsBloom": "0x00000400000000000000000008020000000000000000000000000000000000400000000000000000000000000000000000000000000000000000000000000000000004000000000020000000000000000000000000000040001000000000000000000000100000000000000000000000000000000010000020000020000000040000000000000000000000000000000000000000400000000000000000000010000000000000000040000020000000000000000000000020000000000000000000000000000000000000001000000000000000000000000000000800000080002000001000000000000000000080000000000000000000000000000000000000",
      "type": "0x2",
      "transactionHash": "0x38070eb35b9a7d2257997de59c22d84815d23d4bb781eae4a06dff2c8531223c",
      "transactionIndex": "0x32",
      "blockHash": "0x977c875bd5d76fbd22b246e2aed894c5b666e7ab40d08e3a80217c8daa3a7754",
      "blockNumber": "0x6b3af6",
      "gasUsed": "0x11f68",
      "effectiveGasPrice": "0x1b7fa43c3",
      "blobGasUsed": "0x0",
      "from": "0x1b382a7b4496f14e0aaa2da1e1626da400426a03",
      "to": "0x4e3d409bf0583cd9d2cdb58265b9c6f15556325d",
      "contractAddress": null
    }
  ],
  "libraries": [],
  "pending": [],
  "returns": {},
  "timestamp": 1730947995,
  "chain": 11155111,
  "commit": "d32face"
}