{
  "transactions": [
    {
      "hash": "0x97264c4741e4089bdb7758ebf26601897a74b85e8f6e0b4aec66054fc04cb668",
      "transactionType": "CALL",
      "contractName": "StarkNetToken",
      "contractAddress": "0xCa14007Eff0dB1f8135f4C25B34De49AB0d42766",
      "function": "approve(address,uint256)",
      "arguments": [
        "0x789896a584070A7E2554a39C4f1d9Ff010D5De16",
        "115792089237316195423570985008687907853269984665640564039457584007913129639935"
      ],
      "transaction": {
        "type": "0x02",
        "from": "0xddb342ecc94236c29a5307d3757d0724d759453c",
        "to": "0xca14007eff0db1f8135f4c25b34de49ab0d42766",
        "gas": "0xff08",
        "value": "0x0",
        "data": "0x095ea7b3000000000000000000000000789896a584070a7e2554a39c4f1d9ff010d5de16ffffffffffffffffffffffffffffffffffffffffffffffffffffffffffffffff",
        "nonce": "0x2fe",
        "accessList": []
      },
      "additionalContracts": [],
      "isFixedGasLimit": false
    },
    {
      "hash": "0x105a8057367ea47267ce10cd374aed8ddd2e5aaa403d936e8699c56f5c0626e1",
      "transactionType": "CALL",
      "contractName": "StarkNetToken",
      "contractAddress": "0xCa14007Eff0dB1f8135f4C25B34De49AB0d42766",
      "function": "transfer(address,uint256)",
      "arguments": [
        "0x789896a584070A7E2554a39C4f1d9Ff010D5De16",
        "500000"
      ],
      "transaction": {
        "type": "0x02",
        "from": "0xddb342ecc94236c29a5307d3757d0724d759453c",
        "to": "0xca14007eff0db1f8135f4c25b34de49ab0d42766",
        "gas": "0x145a3",
        "value": "0x0",
        "data": "0xa9059cbb000000000000000000000000789896a584070a7e2554a39c4f1d9ff010d5de16000000000000000000000000000000000000000000000000000000000007a120",
        "nonce": "0x2ff",
        "accessList": []
      },
      "additionalContracts": [],
      "isFixedGasLimit": false
    },
    {
      "hash": "0x3600cabc16682799543821e44ec2394fae87019b89a2ecfb60d0621fff2c2d1b",
      "transactionType": "CALL",
      "contractName": "Proxy",
      "contractAddress": "0xE2Bb56ee936fd6433DC0F6e7e3b8365C906AA057",
      "function": "sendMessageToL2(uint256,uint256,uint256[])",
      "arguments": [
        "3104898144467012964635926007210104918205344450701816193649102609848795779895",
        "425952401605428413817582304755919420533935873840436977667370850915372091056",
        "[2, 1265684623727634235329190328445374361672779121980, 0, 162645876805862407557836451532389263558424949304, 0, 0, 0, 500000, 2366254414417873771392932940469309727793822550615514268240785277201753657472]"
      ],
      "transaction": {
        "type": "0x02",
        "from": "0xddb342ecc94236c29a5307d3757d0724d759453c",
        "to": "0xe2bb56ee936fd6433dc0f6e7e3b8365c906aa057",
        "gas": "0x17438",
        "value": "0x38d7ea4c68000",
        "data": "0x3e3aa6c506dd4f60f2786d32f2754e08448c06265558ca6336ba4e38dc3610fa4f11d33700f1149cade9d692862ad41df96b108aa2c20af34f640457e781d166c98dc6b0000000000000000000000000000000000000000000000000000000000000006000000000000000000000000000000000000000000000000000000000000000090000000000000000000000000000000000000000000000000000000000000002000000000000000000000000ddb342ecc94236c29a5307d3757d0724d759453c00000000000000000000000000000000000000000000000000000000000000000000000000000000000000001c7d4b196cb0c7b01d743fbc6116a902379c7238000000000000000000000000000000000000000000000000000000000000000000000000000000000000000000000000000000000000000000000000000000000000000000000000000000000000000000000000000000000000000000000000000000000000000000000000000000000000000000000000000000000007a120053b40a647cedfca6ca84f542a0fe36736031905a9639a7f19a3c1e66bfd5080",
        "nonce": "0x300",
        "accessList": []
      },
      "additionalContracts": [],
      "isFixedGasLimit": false
    }
  ],
  "receipts": [],
  "libraries": [],
  "pending": [
    "0x97264c4741e4089bdb7758ebf26601897a74b85e8f6e0b4aec66054fc04cb668",
    "0x105a8057367ea47267ce10cd374aed8ddd2e5aaa403d936e8699c56f5c0626e1",
    "0x3600cabc16682799543821e44ec2394fae87019b89a2ecfb60d0621fff2c2d1b"
  ],
  "returns": {},
  "timestamp": 1731687512,
  "chain": 11155111,
  "multi": false,
  "commit": "945f7f2"
}