{
  "transactions": [
    {
      "hash": "0xdddf819af7d98d695accdc5a9ab32d914be3cd22c35b22041cfb0b7df4903793",
      "transactionType": "CALL",
      "contractName": null,
      "contractAddress": "0x8c3f4901dfaf00f43b11554d96db04fae340479e",
      "function": "setL2EndpointAddress(uint256)",
      "arguments": [
        "2812710952364249994127119030704660708892146755952486819483888414710739530805"
      ],
      "transaction": {
        "from": "0xddb342ecc94236c29a5307d3757d0724d759453c",
        "to": "0x8c3f4901dfaf00f43b11554d96db04fae340479e",
        "gas": "0xa210",
        "value": "0x0",
        "input": "0x5155fb2f0637f01fa56a50f82627a8b711bd1c2c1f866900f6dc30bcb988b66220687435",
        "nonce": "0x4a2",
        "chainId": "0xaa36a7"
      },
      "additionalContracts": [],
      "isFixedGasLimit": false
    }
  ],
  "receipts": [
    {
      "status": "0x1",
      "cumulativeGasUsed": "0x80fc42",
      "logs": [
        {
          "address": "0x8c3f4901dfaf00f43b11554d96db04fae340479e",
          "topics": [
            "0xa35dce9e53611b0cabca886209c4a1d09c80214af9b6fb6027f7b2f7c39838e8"
          ],
          "data": "0x0637f01fa56a50f82627a8b711bd1c2c1f866900f6dc30bcb988b66220687435",
          "blockHash": "0xc76d328864103b75d4e4e1887663b0347f9aa8e7bd8abde93edf3acd0828d6d4",
          "blockNumber": "0x72cad8",
          "transactionHash": "0xdddf819af7d98d695accdc5a9ab32d914be3cd22c35b22041cfb0b7df4903793",
          "transactionIndex": "0x5e",
          "logIndex": "0x7c",
          "removed": false
        }
      ],
      "logsBloom": "0x00000000000000000000000010000000000000000000000000000000000000000000000000000000000000000000000000000000000000000000000000000000000000000000000000000000000200000000000000000000000000000000000000000000000000000000000000000000000000000000000000000000000000000000000000000000010400000000000000000000000000000000000000000000800000000000000000000000000000000000000000000000001000000000000000000000000000000000000000000000000000000000000000000000000000000000000000000000000000000000000000000000000000000000000000000000",
      "type": "0x2",
      "transactionHash": "0xdddf819af7d98d695accdc5a9ab32d914be3cd22c35b22041cfb0b7df4903793",
      "transactionIndex": "0x5e",
      "blockHash": "0xc76d328864103b75d4e4e1887663b0347f9aa8e7bd8abde93edf3acd0828d6d4",
      "blockNumber": "0x72cad8",
      "gasUsed": "0x7555",
      "effectiveGasPrice": "0x39d6b5f50",
      "from": "0xddb342ecc94236c29a5307d3757d0724d759453c",
      "to": "0x8c3f4901dfaf00f43b11554d96db04fae340479e",
      "contractAddress": null
    }
  ],
  "libraries": [],
  "pending": [],
  "returns": {},
  "timestamp": 1737259754,
  "chain": 11155111,
  "commit": "fcbff6b"
}