{
  "transactions": [
    {
      "hash": "0xfbfd35eb1750fd35731bdc2e645b83ef5a0d3a1396fd2764c0772b1237a2c625",
      "transactionType": "CALL",
      "contractName": null,
      "contractAddress": "0xca14007eff0db1f8135f4c25b34de49ab0d42766",
      "function": "approve(address,uint256)",
      "arguments": [
        "0xab26B1058f9A03E111c2BC17866eA5aF0dD37f0e",
        "115792089237316195423570985008687907853269984665640564039457584007913129639935"
      ],
      "transaction": {
        "from": "0x1b382a7b4496f14e0aaa2da1e1626da400426a03",
        "to": "0xca14007eff0db1f8135f4c25b34de49ab0d42766",
        "gas": "0xff08",
        "value": "0x0",
        "input": "0x095ea7b3000000000000000000000000ab26b1058f9a03e111c2bc17866ea5af0dd37f0effffffffffffffffffffffffffffffffffffffffffffffffffffffffffffffff",
        "nonce": "0xf0",
        "chainId": "0xaa36a7"
      },
      "additionalContracts": [],
      "isFixedGasLimit": false
    },
    {
      "hash": "0xd422fa19de74d2e812bbebde96bde52c9eb41b718075a6d660acf31dc29ff421",
      "transactionType": "CALL",
      "contractName": null,
      "contractAddress": "0xab26b1058f9a03e111c2bc17866ea5af0dd37f0e",
      "function": "_sendMessage(uint256,uint256,uint256[])",
      "arguments": [
        "1950369285680605967319277169315996976196054019708971360272429325191653144944",
        "148648911813996339441237705416989480313666662291090082193117818992478592220",
        "[2]"
      ],
      "transaction": {
        "from": "0x1b382a7b4496f14e0aaa2da1e1626da400426a03",
        "to": "0xab26b1058f9a03e111c2bc17866ea5af0dd37f0e",
        "gas": "0x182bd",
        "value": "0x38d7ea4c68000",
        "input": "0x88f439ef044fdeb1816de942e7afc558c3a4552cac8e50626f43f6bf831710a1abdcb970005421de947699472df434466845d68528f221a52fce7ad2934c5dae2e1f1cdc000000000000000000000000000000000000000000000000000000000000006000000000000000000000000000000000000000000000000000000000000000010000000000000000000000000000000000000000000000000000000000000002",
        "nonce": "0xf1",
        "chainId": "0xaa36a7"
      },
      "additionalContracts": [],
      "isFixedGasLimit": false
    }
  ],
  "receipts": [
    {
      "status": "0x1",
      "cumulativeGasUsed": "0x652306",
      "logs": [
        {
          "address": "0xca14007eff0db1f8135f4c25b34de49ab0d42766",
          "topics": [
            "0x8c5be1e5ebec7d5bd14f71427d1e84f3dd0314c0f7b2291e5b200ac8c7c3b925",
            "0x0000000000000000000000001b382a7b4496f14e0aaa2da1e1626da400426a03",
            "0x000000000000000000000000ab26b1058f9a03e111c2bc17866ea5af0dd37f0e"
          ],
          "data": "0xffffffffffffffffffffffffffffffffffffffffffffffffffffffffffffffff",
          "blockHash": "0xf188364251f3829ebdb98fdc39c9abf7a0d8bc255ea6eacf483b954a3fee7155",
          "blockNumber": "0x6b4b66",
          "transactionHash": "0xfbfd35eb1750fd35731bdc2e645b83ef5a0d3a1396fd2764c0772b1237a2c625",
          "transactionIndex": "0x37",
          "logIndex": "0x4b",
          "removed": false
        }
      ],
      "logsBloom": "0x00000000000000000000000000000000000000000000000000000000000000000000000000000000000000000000000000000000000000000000000000200000000000008000000000000000000000000000000000000000000000000000000000000000000000000000000000000000000000000810000020000000000000040000000000000000000000000000000000000000000000000000000000000000020000000000000000000000000000000000000000000000000000000000000000000000000000020000000000000000000000000000000000800000000000000010000000000000000000000002000000000000001000000000000000000000",
      "type": "0x2",
      "transactionHash": "0xfbfd35eb1750fd35731bdc2e645b83ef5a0d3a1396fd2764c0772b1237a2c625",
      "transactionIndex": "0x37",
      "blockHash": "0xf188364251f3829ebdb98fdc39c9abf7a0d8bc255ea6eacf483b954a3fee7155",
      "blockNumber": "0x6b4b66",
      "gasUsed": "0xb8a4",
      "effectiveGasPrice": "0x138a0edb9",
      "blobGasUsed": "0x0",
      "from": "0x1b382a7b4496f14e0aaa2da1e1626da400426a03",
      "to": "0xca14007eff0db1f8135f4c25b34de49ab0d42766",
      "contractAddress": null
    },
    {
      "status": "0x1",
      "cumulativeGasUsed": "0x663b05",
      "logs": [
        {
          "address": "0xe2bb56ee936fd6433dc0f6e7e3b8365c906aa057",
          "topics": [
            "0xdb80dd488acf86d17c747445b0eabb5d57c541d3bd7b6b87af987858e5066b2b",
            "0x000000000000000000000000ab26b1058f9a03e111c2bc17866ea5af0dd37f0e",
            "0x044fdeb1816de942e7afc558c3a4552cac8e50626f43f6bf831710a1abdcb970",
            "0x005421de947699472df434466845d68528f221a52fce7ad2934c5dae2e1f1cdc"
          ],
          "data": "0x0000000000000000000000000000000000000000000000000000000000000060000000000000000000000000000000000000000000000000000000000000278d00000000000000000000000000000000000000000000000000038d7ea4c6800000000000000000000000000000000000000000000000000000000000000000010000000000000000000000000000000000000000000000000000000000000002",
          "blockHash": "0xf188364251f3829ebdb98fdc39c9abf7a0d8bc255ea6eacf483b954a3fee7155",
          "blockNumber": "0x6b4b66",
          "transactionHash": "0xd422fa19de74d2e812bbebde96bde52c9eb41b718075a6d660acf31dc29ff421",
          "transactionIndex": "0x38",
          "logIndex": "0x4c",
          "removed": false
        }
      ],
      "logsBloom": "0x00000000000000000000000000020000000000000000000000000000000001000000000000000000000000001000000000000000000000000000000000000000000000008000000000000000000000000000000000000040001000000000000000000000100000000000000000020000000000000800000000000000000000000000000000000400000040000000000000000000000000000000000000000010000000000000000000000020000000000000000000000000000000000000000000000000000000400000000000000000000000000000000000000000000000000000000000000000000000000002000000000000000000000000000000000000",
      "type": "0x2",
      "transactionHash": "0xd422fa19de74d2e812bbebde96bde52c9eb41b718075a6d660acf31dc29ff421",
      "transactionIndex": "0x38",
      "blockHash": "0xf188364251f3829ebdb98fdc39c9abf7a0d8bc255ea6eacf483b954a3fee7155",
      "blockNumber": "0x6b4b66",
      "gasUsed": "0x117ff",
      "effectiveGasPrice": "0x138a0edb9",
      "blobGasUsed": "0x0",
      "from": "0x1b382a7b4496f14e0aaa2da1e1626da400426a03",
      "to": "0xab26b1058f9a03e111c2bc17866ea5af0dd37f0e",
      "contractAddress": null
    }
  ],
  "libraries": [],
  "pending": [],
  "returns": {},
  "timestamp": 1731003736,
  "chain": 11155111,
  "commit": "7c9bc56"
}