{
  "transactions": [
    {
      "hash": "0x3c4c1e7c9db1f16d1b0589667961d0538393eea479b7d15dd4cf3175b866eada",
      "transactionType": "CALL",
      "contractName": "StarkNetToken",
      "contractAddress": "0xCa14007Eff0dB1f8135f4C25B34De49AB0d42766",
      "function": "approve(address,uint256)",
      "arguments": [
        "0xB5A9054238B3f15854174191d3C55E1d51dA99A5",
        "115792089237316195423570985008687907853269984665640564039457584007913129639935"
      ],
      "transaction": {
        "type": "0x02",
        "from": "0xddb342ecc94236c29a5307d3757d0724d759453c",
        "to": "0xca14007eff0db1f8135f4c25b34de49ab0d42766",
        "gas": "0xff08",
        "value": "0x0",
        "data": "0x095ea7b3000000000000000000000000b5a9054238b3f15854174191d3c55e1d51da99a5ffffffffffffffffffffffffffffffffffffffffffffffffffffffffffffffff",
        "nonce": "0x211",
        "accessList": []
      },
      "additionalContracts": [],
      "isFixedGasLimit": false
    },
    {
      "hash": "0x20ca247f10ec66b8c38fbd744742672f3cca37590d261d90990b68a983b94d9e",
      "transactionType": "CALL",
      "contractName": "StarkNetToken",
      "contractAddress": "0xCa14007Eff0dB1f8135f4C25B34De49AB0d42766",
      "function": "transfer(address,uint256)",
      "arguments": [
        "0xB5A9054238B3f15854174191d3C55E1d51dA99A5",
        "1000000000000000"
      ],
      "transaction": {
        "type": "0x02",
        "from": "0xddb342ecc94236c29a5307d3757d0724d759453c",
        "to": "0xca14007eff0db1f8135f4c25b34de49ab0d42766",
        "gas": "0x133bd",
        "value": "0x0",
        "data": "0xa9059cbb000000000000000000000000b5a9054238b3f15854174191d3c55e1d51da99a500000000000000000000000000000000000000000000000000038d7ea4c68000",
        "nonce": "0x212",
        "accessList": []
      },
      "additionalContracts": [],
      "isFixedGasLimit": false
    },
    {
      "hash": null,
      "transactionType": "CALL",
      "contractName": "L1TWAMMBridge",
      "contractAddress": "0xB5A9054238B3f15854174191d3C55E1d51dA99A5",
      "function": "depositAndCreateOrder((address,uint256,uint256,uint128,uint128,uint128,uint128,uint256))",
      "arguments": [
        "(0xDdb342ecc94236c29a5307d3757d0724D759453C, 2009894490435840142178314390393166646092438090257831307886760648929397478285, 2366254414417873771392932940469309727793822550615514268240785277201753657472, 0, 1730988528, 1730988592, 1000000000000000, 90348709876204611675268489361877131220644735964556806593720512660077913409)"
      ],
      "transaction": {
        "type": "0x02",
        "from": "0xddb342ecc94236c29a5307d3757d0724d759453c",
        "to": "0xb5a9054238b3f15854174191d3c55e1d51da99a5",
        "gas": "0x3a529",
        "value": "0x2386f26fc10000",
        "data": "0x5ce510fa000000000000000000000000ddb342ecc94236c29a5307d3757d0724d759453c04718f5a0fc34cc1af16a1cdee98ffb20c31f5cd61d6ab07201858f4287c938d053b40a647cedfca6ca84f542a0fe36736031905a9639a7f19a3c1e66bfd5080000000000000000000000000000000000000000000000000000000000000000000000000000000000000000000000000000000000000000000000000672cc9f000000000000000000000000000000000000000000000000000000000672cca3000000000000000000000000000000000000000000000000000038d7ea4c68000003322b3e75f1a830f1dd8269d7f358340d815d07ee9063eb4ced4fd1e81a541",
        "nonce": "0x213",
        "accessList": []
      },
      "additionalContracts": [],
      "isFixedGasLimit": false
    }
  ],
  "receipts": [],
  "libraries": [],
  "pending": [
    "0x3c4c1e7c9db1f16d1b0589667961d0538393eea479b7d15dd4cf3175b866eada",
    "0x20ca247f10ec66b8c38fbd744742672f3cca37590d261d90990b68a983b94d9e"
  ],
  "returns": {},
  "timestamp": 1730988610,
  "chain": 11155111,
  "multi": false,
  "commit": "e344443"
}