{
  "transactions": [
    {
      "hash": "0x96b54265161d15cc77f64b1b4114e56ebf51b376e0def5692187843dbf598a18",
      "transactionType": "CALL",
      "contractName": "FiatTokenProxy",
      "contractAddress": "0x1c7D4B196Cb0C7B01d743Fbc6116a902379C7238",
      "function": "approve(address,uint256)",
      "arguments": [
        "0x9DdD3bcEa99B0ea940ed5CcB64a6e689a633DFc0",
        "115792089237316195423570985008687907853269984665640564039457584007913129639935"
      ],
      "transaction": {
        "type": "0x02",
        "from": "0xddb342ecc94236c29a5307d3757d0724d759453c",
        "to": "0x1c7d4b196cb0c7b01d743fbc6116a902379c7238",
        "gas": "0x13eb1",
        "value": "0x0",
        "data": "0x095ea7b30000000000000000000000009ddd3bcea99b0ea940ed5ccb64a6e689a633dfc0ffffffffffffffffffffffffffffffffffffffffffffffffffffffffffffffff",
        "nonce": "0x1f4",
        "accessList": []
      },
      "additionalContracts": [],
      "isFixedGasLimit": false
    },
    {
      "hash": "0x20d005aaeedf8e218b10b75f9010f29618ad6232814e2b373e4db003102a284c",
      "transactionType": "CALL",
      "contractName": "FiatTokenProxy",
      "contractAddress": "0x1c7D4B196Cb0C7B01d743Fbc6116a902379C7238",
      "function": "transfer(address,uint256)",
      "arguments": [
        "0x9DdD3bcEa99B0ea940ed5CcB64a6e689a633DFc0",
        "100000"
      ],
      "transaction": {
        "type": "0x02",
        "from": "0xddb342ecc94236c29a5307d3757d0724d759453c",
        "to": "0x1c7d4b196cb0c7b01d743fbc6116a902379c7238",
        "gas": "0x14f5f",
        "value": "0x0",
        "data": "0xa9059cbb0000000000000000000000009ddd3bcea99b0ea940ed5ccb64a6e689a633dfc000000000000000000000000000000000000000000000000000000000000186a0",
        "nonce": "0x1f5",
        "accessList": []
      },
      "additionalContracts": [],
      "isFixedGasLimit": false
    },
    {
      "hash": null,
      "transactionType": "CALL",
      "contractName": "L1TWAMMBridge",
      "contractAddress": "0x9DdD3bcEa99B0ea940ed5CcB64a6e689a633DFc0",
      "function": "depositAndCreateOrder((address,address,address,uint128,uint128,uint128,uint128,uint256))",
      "arguments": [
        "(0xDdb342ecc94236c29a5307d3757d0724D759453C, 0x1c7D4B196Cb0C7B01d743Fbc6116a902379C7238, 0x1c7D4B196Cb0C7B01d743Fbc6116a902379C7238, 1000000000000000, 1730895872, 1730895936, 100000, 426354174457199316223130445775020877565288869270603374107742042000672403087)"
      ],
      "transaction": {
        "type": "0x02",
        "from": "0xddb342ecc94236c29a5307d3757d0724d759453c",
        "to": "0x9ddd3bcea99b0ea940ed5ccb64a6e689a633dfc0",
        "gas": "0x3cc8e",
        "value": "0x38d7ea4c68000",
        "data": "0x9d251505000000000000000000000000ddb342ecc94236c29a5307d3757d0724d759453c0000000000000000000000001c7d4b196cb0c7b01d743fbc6116a902379c72380000000000000000000000001c7d4b196cb0c7b01d743fbc6116a902379c723800000000000000000000000000000000000000000000000000038d7ea4c6800000000000000000000000000000000000000000000000000000000000672b600000000000000000000000000000000000000000000000000000000000672b604000000000000000000000000000000000000000000000000000000000000186a000f14ed3433eee96c3018e0a7ae1349ac7ae2cab9c64f89686c70da1020bae8f",
        "nonce": "0x1f6",
        "accessList": []
      },
      "additionalContracts": [],
      "isFixedGasLimit": false
    }
  ],
  "receipts": [],
  "libraries": [],
  "pending": [
    "0x96b54265161d15cc77f64b1b4114e56ebf51b376e0def5692187843dbf598a18",
    "0x20d005aaeedf8e218b10b75f9010f29618ad6232814e2b373e4db003102a284c"
  ],
  "returns": {},
  "timestamp": 1730895909,
  "chain": 11155111,
  "multi": false,
  "commit": "85f3f64"
}