{
  "transactions": [
    {
      "hash": "0x11d2d2b9d132e2ee4260274db97a60a832ab9383cfbe0f8b83c49a205dffa655",
      "transactionType": "CALL",
      "contractName": null,
      "contractAddress": "0xca14007eff0db1f8135f4c25b34de49ab0d42766",
      "function": "approve(address,uint256)",
      "arguments": [
        "0x17ceB8Da41205f1026241766328751884Afa7FE8",
        "115792089237316195423570985008687907853269984665640564039457584007913129639935"
      ],
      "transaction": {
        "from": "0xddb342ecc94236c29a5307d3757d0724d759453c",
        "to": "0xca14007eff0db1f8135f4c25b34de49ab0d42766",
        "gas": "0x93a9",
        "value": "0x0",
        "input": "0x095ea7b300000000000000000000000017ceb8da41205f1026241766328751884afa7fe8ffffffffffffffffffffffffffffffffffffffffffffffffffffffffffffffff",
        "nonce": "0x4fa",
        "chainId": "0xaa36a7"
      },
      "additionalContracts": [],
      "isFixedGasLimit": false
    },
    {
      "hash": "0xf4a3db58e335741a06bb27cb014b2e8c77a9da441c2b65835e44d7265a573d38",
      "transactionType": "CALL",
      "contractName": null,
      "contractAddress": "0x17ceb8da41205f1026241766328751884afa7fe8",
      "function": "depositAndCreateOrder((address,uint256,uint256,uint128,uint128,uint128,uint128))",
      "arguments": [
        "(0xDdb342ecc94236c29a5307d3757d0724D759453C, 2009894490435840142178314390393166646092438090257831307886760648929397478285, 3172491945733481268707539844653126938722508811269257115848060585460047325844, 170141183460469235273462165868118016, 1737455296, 1737455424, 5000000000000000)"
      ],
      "transaction": {
        "from": "0xddb342ecc94236c29a5307d3757d0724d759453c",
        "to": "0x17ceb8da41205f1026241766328751884afa7fe8",
        "gas": "0x3bc7d",
        "value": "0x11c37937e08000",
        "input": "0x6c1cc3f4000000000000000000000000ddb342ecc94236c29a5307d3757d0724d759453c04718f5a0fc34cc1af16a1cdee98ffb20c31f5cd61d6ab07201858f4287c938d0703911a6196ef674fc635de02763dcd4ccc16d7cf736f68a9483cc44eccaa94000000000000000000000000000000000020c49ba5e353f8000000000000000000000000000000000000000000000000000000000000000000000000678f76c000000000000000000000000000000000000000000000000000000000678f77400000000000000000000000000000000000000000000000000011c37937e08000",
        "nonce": "0x4fb",
        "chainId": "0xaa36a7"
      },
      "additionalContracts": [],
      "isFixedGasLimit": false
    }
  ],
  "receipts": [
    {
      "status": "0x1",
      "cumulativeGasUsed": "0x111038a",
      "logs": [
        {
          "address": "0xca14007eff0db1f8135f4c25b34de49ab0d42766",
          "topics": [
            "0x8c5be1e5ebec7d5bd14f71427d1e84f3dd0314c0f7b2291e5b200ac8c7c3b925",
            "0x000000000000000000000000ddb342ecc94236c29a5307d3757d0724d759453c",
            "0x00000000000000000000000017ceb8da41205f1026241766328751884afa7fe8"
          ],
          "data": "0xffffffffffffffffffffffffffffffffffffffffffffffffffffffffffffffff",
          "blockHash": "0x91d54b2666944b803594dfe35319b279a98d093f39546f3c857c1f7531a72618",
          "blockNumber": "0x730a32",
          "transactionHash": "0x11d2d2b9d132e2ee4260274db97a60a832ab9383cfbe0f8b83c49a205dffa655",
          "transactionIndex": "0x86",
          "logIndex": "0xd4",
          "removed": false
        }
      ],
      "logsBloom": "0x00000000000000000000000000000000000000000000000000000000000000000000000000000000000000000800000000000000000000000000000000200000000000000000000000000000000000000000000000000000000000000000000400000000000000000000000000000000400000000000000000000000400000000000000000000000000000000000000000000000000000000000000000000000020000000000000000000000000000000000000000000000000000000000000000000000000000020000000000000000020000000000000000800000000000000010000000400000000000000000000000000000001000000000000000000000",
      "type": "0x2",
      "transactionHash": "0x11d2d2b9d132e2ee4260274db97a60a832ab9383cfbe0f8b83c49a205dffa655",
      "transactionIndex": "0x86",
      "blockHash": "0x91d54b2666944b803594dfe35319b279a98d093f39546f3c857c1f7531a72618",
      "blockNumber": "0x730a32",
      "gasUsed": "0x6ae8",
      "effectiveGasPrice": "0x94a1f059",
      "from": "0xddb342ecc94236c29a5307d3757d0724d759453c",
      "to": "0xca14007eff0db1f8135f4c25b34de49ab0d42766",
      "contractAddress": null
    },
    {
      "status": "0x1",
      "cumulativeGasUsed": "0x113b806",
      "logs": [
        {
          "address": "0xca14007eff0db1f8135f4c25b34de49ab0d42766",
          "topics": [
            "0x8c5be1e5ebec7d5bd14f71427d1e84f3dd0314c0f7b2291e5b200ac8c7c3b925",
            "0x00000000000000000000000017ceb8da41205f1026241766328751884afa7fe8",
            "0x00000000000000000000000017ceb8da41205f1026241766328751884afa7fe8"
          ],
          "data": "0x0000000000000000000000000000000000000000000000000011c37937e08000",
          "blockHash": "0x91d54b2666944b803594dfe35319b279a98d093f39546f3c857c1f7531a72618",
          "blockNumber": "0x730a32",
          "transactionHash": "0xf4a3db58e335741a06bb27cb014b2e8c77a9da441c2b65835e44d7265a573d38",
          "transactionIndex": "0x87",
          "logIndex": "0xd5",
          "removed": false
        },
        {
          "address": "0xca14007eff0db1f8135f4c25b34de49ab0d42766",
          "topics": [
            "0xddf252ad1be2c89b69c2b068fc378daa952ba7f163c4a11628f55a4df523b3ef",
            "0x000000000000000000000000ddb342ecc94236c29a5307d3757d0724d759453c",
            "0x00000000000000000000000017ceb8da41205f1026241766328751884afa7fe8"
          ],
          "data": "0x0000000000000000000000000000000000000000000000000011c37937e08000",
          "blockHash": "0x91d54b2666944b803594dfe35319b279a98d093f39546f3c857c1f7531a72618",
          "blockNumber": "0x730a32",
          "transactionHash": "0xf4a3db58e335741a06bb27cb014b2e8c77a9da441c2b65835e44d7265a573d38",
          "transactionIndex": "0x87",
          "logIndex": "0xd6",
          "removed": false
        },
        {
          "address": "0xca14007eff0db1f8135f4c25b34de49ab0d42766",
          "topics": [
            "0x8c5be1e5ebec7d5bd14f71427d1e84f3dd0314c0f7b2291e5b200ac8c7c3b925",
            "0x00000000000000000000000017ceb8da41205f1026241766328751884afa7fe8",
            "0x000000000000000000000000ce5485cfb26914c5dce00b9baf0580364dafc7a4"
          ],
          "data": "0x0000000000000000000000000000000000000000000000000011c37937e08000",
          "blockHash": "0x91d54b2666944b803594dfe35319b279a98d093f39546f3c857c1f7531a72618",
          "blockNumber": "0x730a32",
          "transactionHash": "0xf4a3db58e335741a06bb27cb014b2e8c77a9da441c2b65835e44d7265a573d38",
          "transactionIndex": "0x87",
          "logIndex": "0xd7",
          "removed": false
        },
        {
          "address": "0xca14007eff0db1f8135f4c25b34de49ab0d42766",
          "topics": [
            "0x8c5be1e5ebec7d5bd14f71427d1e84f3dd0314c0f7b2291e5b200ac8c7c3b925",
            "0x00000000000000000000000017ceb8da41205f1026241766328751884afa7fe8",
            "0x000000000000000000000000ce5485cfb26914c5dce00b9baf0580364dafc7a4"
          ],
          "data": "0x0000000000000000000000000000000000000000000000000000000000000000",
          "blockHash": "0x91d54b2666944b803594dfe35319b279a98d093f39546f3c857c1f7531a72618",
          "blockNumber": "0x730a32",
          "transactionHash": "0xf4a3db58e335741a06bb27cb014b2e8c77a9da441c2b65835e44d7265a573d38",
          "transactionIndex": "0x87",
          "logIndex": "0xd8",
          "removed": false
        },
        {
          "address": "0xca14007eff0db1f8135f4c25b34de49ab0d42766",
          "topics": [
            "0xddf252ad1be2c89b69c2b068fc378daa952ba7f163c4a11628f55a4df523b3ef",
            "0x00000000000000000000000017ceb8da41205f1026241766328751884afa7fe8",
            "0x000000000000000000000000ce5485cfb26914c5dce00b9baf0580364dafc7a4"
          ],
          "data": "0x0000000000000000000000000000000000000000000000000011c37937e08000",
          "blockHash": "0x91d54b2666944b803594dfe35319b279a98d093f39546f3c857c1f7531a72618",
          "blockNumber": "0x730a32",
          "transactionHash": "0xf4a3db58e335741a06bb27cb014b2e8c77a9da441c2b65835e44d7265a573d38",
          "transactionIndex": "0x87",
          "logIndex": "0xd9",
          "removed": false
        },
        {
          "address": "0xe2bb56ee936fd6433dc0f6e7e3b8365c906aa057",
          "topics": [
            "0xdb80dd488acf86d17c747445b0eabb5d57c541d3bd7b6b87af987858e5066b2b",
            "0x000000000000000000000000ce5485cfb26914c5dce00b9baf0580364dafc7a4",
            "0x0594c1582459ea03f77deaf9eb7e3917d6994a03c13405ba42867f83d85f085d",
            "0x008bce41827dd5484d80312a2e43bc42a896e3fcf75bf84c2b49339168dfa00a"
          ],
          "data": "0x00000000000000000000000000000000000000000000000000000000000000600000000000000000000000000000000000000000000000000000000000002c650000000000000000000000000000000000000000000000000011c37937e08000000000000000000000000000000000000000000000000000000000000000000e000000000000000000000000ca14007eff0db1f8135f4c25b34de49ab0d4276600000000000000000000000017ceb8da41205f1026241766328751884afa7fe807f7634d530030231a04892601d83bbc79defee8145d116d18fc4978e21f27410000000000000000000000000000000000000000000000000011c37937e08000000000000000000000000000000000000000000000000000000000000000000000000000000000000000000000000000000000000000000000000000000000080000000000000000000000000000000000000000000000000000000000000000000000000000000000000000ddb342ecc94236c29a5307d3757d0724d759453c04718f5a0fc34cc1af16a1cdee98ffb20c31f5cd61d6ab07201858f4287c938d0703911a6196ef674fc635de02763dcd4ccc16d7cf736f68a9483cc44eccaa94000000000000000000000000000000000020c49ba5e353f8000000000000000000000000000000000000000000000000000000000000000000000000678f76c000000000000000000000000000000000000000000000000000000000678f77400000000000000000000000000000000000000000000000000011c37937e08000",
          "blockHash": "0x91d54b2666944b803594dfe35319b279a98d093f39546f3c857c1f7531a72618",
          "blockNumber": "0x730a32",
          "transactionHash": "0xf4a3db58e335741a06bb27cb014b2e8c77a9da441c2b65835e44d7265a573d38",
          "transactionIndex": "0x87",
          "logIndex": "0xda",
          "removed": false
        },
        {
          "address": "0xce5485cfb26914c5dce00b9baf0580364dafc7a4",
          "topics": [
            "0x2203a49c69f1a46c1164f5e4a30643dd77b7c59c0ff9bc433256048365c247f1",
            "0x00000000000000000000000017ceb8da41205f1026241766328751884afa7fe8",
            "0x000000000000000000000000ca14007eff0db1f8135f4c25b34de49ab0d42766",
            "0x07f7634d530030231a04892601d83bbc79defee8145d116d18fc4978e21f2741"
          ],
          "data": "0x0000000000000000000000000000000000000000000000000011c37937e0800000000000000000000000000000000000000000000000000000000000000000800000000000000000000000000000000000000000000000000000000000002c650000000000000000000000000000000000000000000000000011c37937e0800000000000000000000000000000000000000000000000000000000000000000080000000000000000000000000000000000000000000000000000000000000000000000000000000000000000ddb342ecc94236c29a5307d3757d0724d759453c04718f5a0fc34cc1af16a1cdee98ffb20c31f5cd61d6ab07201858f4287c938d0703911a6196ef674fc635de02763dcd4ccc16d7cf736f68a9483cc44eccaa94000000000000000000000000000000000020c49ba5e353f8000000000000000000000000000000000000000000000000000000000000000000000000678f76c000000000000000000000000000000000000000000000000000000000678f77400000000000000000000000000000000000000000000000000011c37937e08000",
          "blockHash": "0x91d54b2666944b803594dfe35319b279a98d093f39546f3c857c1f7531a72618",
          "blockNumber": "0x730a32",
          "transactionHash": "0xf4a3db58e335741a06bb27cb014b2e8c77a9da441c2b65835e44d7265a573d38",
          "transactionIndex": "0x87",
          "logIndex": "0xdb",
          "removed": false
        },
        {
          "address": "0x17ceb8da41205f1026241766328751884afa7fe8",
          "topics": [
            "0xaf43445f7721522b7a3864ed3de53d7e2e658bfa1eeffa18e1e229be68ce2545",
            "0x000000000000000000000000ddb342ecc94236c29a5307d3757d0724d759453c",
            "0x07f7634d530030231a04892601d83bbc79defee8145d116d18fc4978e21f2741"
          ],
          "data": "0x0000000000000000000000000000000000000000000000000011c37937e080000000000000000000000000000000000000000000000000000000000000000001",
          "blockHash": "0x91d54b2666944b803594dfe35319b279a98d093f39546f3c857c1f7531a72618",
          "blockNumber": "0x730a32",
          "transactionHash": "0xf4a3db58e335741a06bb27cb014b2e8c77a9da441c2b65835e44d7265a573d38",
          "transactionIndex": "0x87",
          "logIndex": "0xdc",
          "removed": false
        }
      ],
      "logsBloom": "0x00000200000000000000000000020000000000000000000000000040000000000000000000000000000000000800000000000000000004000000020000200000000000000000000000000008080000000000000000000040001000000000000600000000100000000000000000000000400000000000000000000010400008002000000000000000000000020000000000008000002200000000000000000010020000800000000000000020000000021000000004000000000000000000002800800002000000024010200000000000020000200000000000800000000000000010000000410000000000020004000000000000001000000000000000200000",
      "type": "0x2",
      "transactionHash": "0xf4a3db58e335741a06bb27cb014b2e8c77a9da441c2b65835e44d7265a573d38",
      "transactionIndex": "0x87",
      "blockHash": "0x91d54b2666944b803594dfe35319b279a98d093f39546f3c857c1f7531a72618",
      "blockNumber": "0x730a32",
      "gasUsed": "0x2b47c",
      "effectiveGasPrice": "0x94a1f059",
      "from": "0xddb342ecc94236c29a5307d3757d0724d759453c",
      "to": "0x17ceb8da41205f1026241766328751884afa7fe8",
      "contractAddress": null
    }
  ],
  "libraries": [],
  "pending": [],
  "returns": {},
  "timestamp": 1737455341,
  "chain": 11155111,
  "commit": "fcbff6b"
}