{
  "transactions": [
    {
      "hash": "0xd806938f1eedc71a59e61554b3d5aab22bac32150a4b00af35d3d6358634185e",
      "transactionType": "CALL",
      "contractName": "StarkNetToken",
      "contractAddress": "0xCa14007Eff0dB1f8135f4C25B34De49AB0d42766",
      "function": "approve(address,uint256)",
      "arguments": [
        "0xBac68C9D3fDee9e3404B75b21B47FeF95aff6268",
        "115792089237316195423570985008687907853269984665640564039457584007913129639935"
      ],
      "transaction": {
        "type": "0x02",
        "from": "0xddb342ecc94236c29a5307d3757d0724d759453c",
        "to": "0xca14007eff0db1f8135f4c25b34de49ab0d42766",
        "gas": "0xff08",
        "value": "0x0",
        "data": "0x095ea7b3000000000000000000000000bac68c9d3fdee9e3404b75b21b47fef95aff6268ffffffffffffffffffffffffffffffffffffffffffffffffffffffffffffffff",
        "nonce": "0x289",
        "accessList": []
      },
      "additionalContracts": [],
      "isFixedGasLimit": false
    },
    {
      "hash": "0xcef171300b754bf2740b08c9af2f4e811bb0314fb5479ef7261ae1463d484464",
      "transactionType": "CALL",
      "contractName": "StarkNetToken",
      "contractAddress": "0xCa14007Eff0dB1f8135f4C25B34De49AB0d42766",
      "function": "transfer(address,uint256)",
      "arguments": [
        "0xBac68C9D3fDee9e3404B75b21B47FeF95aff6268",
        "500000000000"
      ],
      "transaction": {
        "type": "0x02",
        "from": "0xddb342ecc94236c29a5307d3757d0724d759453c",
        "to": "0xca14007eff0db1f8135f4c25b34de49ab0d42766",
        "gas": "0x1339c",
        "value": "0x0",
        "data": "0xa9059cbb000000000000000000000000bac68c9d3fdee9e3404b75b21b47fef95aff6268000000000000000000000000000000000000000000000000000000746a528800",
        "nonce": "0x28a",
        "accessList": []
      },
      "additionalContracts": [],
      "isFixedGasLimit": false
    },
    {
      "hash": "0xc03877f7f6dcb67085c9a32a44fe51e148b6c8d95cf822740ea98a00c267b22c",
      "transactionType": "CALL",
      "contractName": "L1TWAMMBridge",
      "contractAddress": "0xBac68C9D3fDee9e3404B75b21B47FeF95aff6268",
      "function": "deposit(uint256,uint256)",
      "arguments": [
        "500000000000",
        "431856448013950816494627190663679735948539637257145136078562854651620715125"
      ],
      "transaction": {
        "type": "0x02",
        "from": "0xddb342ecc94236c29a5307d3757d0724d759453c",
        "to": "0xbac68c9d3fdee9e3404b75b21b47fef95aff6268",
        "gas": "0x2d757",
        "value": "0x5af3107a4000",
        "data": "0xe2bbb158000000000000000000000000000000000000000000000000000000746a52880000f46c0dee8f462f1470f8a6e1110756fa1cc301d7d6e8672c779f9a707f6a75",
        "nonce": "0x28b",
        "accessList": []
      },
      "additionalContracts": [],
      "isFixedGasLimit": false
    },
    {
      "hash": "0x664a5f630d9de5da9660b34614476372b0c4fb6a0871a2f5af2df5f8b9bac720",
      "transactionType": "CALL",
      "contractName": "Proxy",
      "contractAddress": "0xE2Bb56ee936fd6433DC0F6e7e3b8365C906AA057",
      "function": "sendMessageToL2(uint256,uint256,uint256[])",
      "arguments": [
        "431856448013950816494627190663679735948539637257145136078562854651620715125",
        "425952401605428413817582304755919420533935873840436977667370850915372091056",
        "[0, 1265684623727634235329190328445374361672779121980, 2009894490435840142178314390393166646092438090257831307886760648929397478285, 2366254414417873771392932940469309727793822550615514268240785277201753657472, 170141183460469235273462165868118016, 1731423952, 1731424016, 500000000000]"
      ],
      "transaction": {
        "type": "0x02",
        "from": "0xddb342ecc94236c29a5307d3757d0724d759453c",
        "to": "0xe2bb56ee936fd6433dc0f6e7e3b8365c906aa057",
        "gas": "0x15f0a",
        "value": "0x5af3107a4000",
        "data": "0x3e3aa6c500f46c0dee8f462f1470f8a6e1110756fa1cc301d7d6e8672c779f9a707f6a7500f1149cade9d692862ad41df96b108aa2c20af34f640457e781d166c98dc6b0000000000000000000000000000000000000000000000000000000000000006000000000000000000000000000000000000000000000000000000000000000080000000000000000000000000000000000000000000000000000000000000000000000000000000000000000ddb342ecc94236c29a5307d3757d0724d759453c04718f5a0fc34cc1af16a1cdee98ffb20c31f5cd61d6ab07201858f4287c938d053b40a647cedfca6ca84f542a0fe36736031905a9639a7f19a3c1e66bfd5080000000000000000000000000000000000020c49ba5e353f800000000000000000000000000000000000000000000000000000000000000000000000067336ed00000000000000000000000000000000000000000000000000000000067336f10000000000000000000000000000000000000000000000000000000746a528800",
        "nonce": "0x28c",
        "accessList": []
      },
      "additionalContracts": [],
      "isFixedGasLimit": false
    }
  ],
  "receipts": [
    {
      "transactionHash": "0xd806938f1eedc71a59e61554b3d5aab22bac32150a4b00af35d3d6358634185e",
      "transactionIndex": "0x6",
      "blockHash": "0x851f861fa40981304a738c6dedde898db0890bf01e174e3c06ea115ff9af3a55",
      "blockNumber": "0x6bc3bb",
      "from": "0xDdb342ecc94236c29a5307d3757d0724D759453C",
      "to": "0xCa14007Eff0dB1f8135f4C25B34De49AB0d42766",
      "cumulativeGasUsed": "0x5c6e3",
      "gasUsed": "0xb8a4",
      "contractAddress": null,
      "logs": [
        {
          "address": "0xCa14007Eff0dB1f8135f4C25B34De49AB0d42766",
          "topics": [
            "0x8c5be1e5ebec7d5bd14f71427d1e84f3dd0314c0f7b2291e5b200ac8c7c3b925",
            "0x000000000000000000000000ddb342ecc94236c29a5307d3757d0724d759453c",
            "0x000000000000000000000000bac68c9d3fdee9e3404b75b21b47fef95aff6268"
          ],
          "data": "0xffffffffffffffffffffffffffffffffffffffffffffffffffffffffffffffff",
          "blockHash": "0x851f861fa40981304a738c6dedde898db0890bf01e174e3c06ea115ff9af3a55",
          "blockNumber": "0x6bc3bb",
          "transactionHash": "0xd806938f1eedc71a59e61554b3d5aab22bac32150a4b00af35d3d6358634185e",
          "transactionIndex": "0x6",
          "logIndex": "0x7",
          "removed": false
        }
      ],
      "status": "0x1",
      "logsBloom": "0x00000000000000000000000000000000000000000000000000000000000000000000000000000000000000000000000000000000000000000000000000200000000000000000000000000000000000000000000000000000000000080000000408000000000000000000000000000000400000000000000000000000500000000000000000000000000000000000000000000000000000000000000000000000020000000000000000000000000000000000000000000000000000000000000000000000000000020000000000000000000000000000000000800000000000000010000000000000000000000000000000000000001000000000000000000000",
      "type": "0x2",
      "effectiveGasPrice": "0xf82b3ee4"
    },
    {
      "transactionHash": "0xcef171300b754bf2740b08c9af2f4e811bb0314fb5479ef7261ae1463d484464",
      "transactionIndex": "0x7",
      "blockHash": "0x851f861fa40981304a738c6dedde898db0890bf01e174e3c06ea115ff9af3a55",
      "blockNumber": "0x6bc3bb",
      "from": "0xDdb342ecc94236c29a5307d3757d0724D759453C",
      "to": "0xCa14007Eff0dB1f8135f4C25B34De49AB0d42766",
      "cumulativeGasUsed": "0x6a598",
      "gasUsed": "0xdeb5",
      "contractAddress": null,
      "logs": [
        {
          "address": "0xCa14007Eff0dB1f8135f4C25B34De49AB0d42766",
          "topics": [
            "0xddf252ad1be2c89b69c2b068fc378daa952ba7f163c4a11628f55a4df523b3ef",
            "0x000000000000000000000000ddb342ecc94236c29a5307d3757d0724d759453c",
            "0x000000000000000000000000bac68c9d3fdee9e3404b75b21b47fef95aff6268"
          ],
          "data": "0x000000000000000000000000000000000000000000000000000000746a528800",
          "blockHash": "0x851f861fa40981304a738c6dedde898db0890bf01e174e3c06ea115ff9af3a55",
          "blockNumber": "0x6bc3bb",
          "transactionHash": "0xcef171300b754bf2740b08c9af2f4e811bb0314fb5479ef7261ae1463d484464",
          "transactionIndex": "0x7",
          "logIndex": "0x8",
          "removed": false
        }
      ],
      "status": "0x1",
      "logsBloom": "0x00000000000000000000000000000000000000000000000000000000000000000000000000000000000000000000000000000000000000000000000000000000000000000000000000000008000000000000000000000000000000080000000408000000000000000000000000000000400000000000000000000010500000000000000000000000000000000000000000000000000000000000000000000000000000000000000000000000000000000000000000000000000000000000000000000002000000020000000000000000000000000000000000800000000000000000000000000000000000000000000000000000001000000000000000000000",
      "type": "0x2",
      "effectiveGasPrice": "0xf82b3ee4"
    },
    {
      "transactionHash": "0xc03877f7f6dcb67085c9a32a44fe51e148b6c8d95cf822740ea98a00c267b22c",
      "transactionIndex": "0x8",
      "blockHash": "0x851f861fa40981304a738c6dedde898db0890bf01e174e3c06ea115ff9af3a55",
      "blockNumber": "0x6bc3bb",
      "from": "0xDdb342ecc94236c29a5307d3757d0724D759453C",
      "to": "0xBac68C9D3fDee9e3404B75b21B47FeF95aff6268",
      "cumulativeGasUsed": "0x8b42d",
      "gasUsed": "0x20e95",
      "contractAddress": null,
      "logs": [
        {
          "address": "0xCa14007Eff0dB1f8135f4C25B34De49AB0d42766",
          "topics": [
            "0x8c5be1e5ebec7d5bd14f71427d1e84f3dd0314c0f7b2291e5b200ac8c7c3b925",
            "0x000000000000000000000000bac68c9d3fdee9e3404b75b21b47fef95aff6268",
            "0x000000000000000000000000ce5485cfb26914c5dce00b9baf0580364dafc7a4"
          ],
          "data": "0x000000000000000000000000000000000000000000000000000000746a528800",
          "blockHash": "0x851f861fa40981304a738c6dedde898db0890bf01e174e3c06ea115ff9af3a55",
          "blockNumber": "0x6bc3bb",
          "transactionHash": "0xc03877f7f6dcb67085c9a32a44fe51e148b6c8d95cf822740ea98a00c267b22c",
          "transactionIndex": "0x8",
          "logIndex": "0x9",
          "removed": false
        },
        {
          "address": "0xCa14007Eff0dB1f8135f4C25B34De49AB0d42766",
          "topics": [
            "0x8c5be1e5ebec7d5bd14f71427d1e84f3dd0314c0f7b2291e5b200ac8c7c3b925",
            "0x000000000000000000000000bac68c9d3fdee9e3404b75b21b47fef95aff6268",
            "0x000000000000000000000000ce5485cfb26914c5dce00b9baf0580364dafc7a4"
          ],
          "data": "0x0000000000000000000000000000000000000000000000000000000000000000",
          "blockHash": "0x851f861fa40981304a738c6dedde898db0890bf01e174e3c06ea115ff9af3a55",
          "blockNumber": "0x6bc3bb",
          "transactionHash": "0xc03877f7f6dcb67085c9a32a44fe51e148b6c8d95cf822740ea98a00c267b22c",
          "transactionIndex": "0x8",
          "logIndex": "0xa",
          "removed": false
        },
        {
          "address": "0xCa14007Eff0dB1f8135f4C25B34De49AB0d42766",
          "topics": [
            "0xddf252ad1be2c89b69c2b068fc378daa952ba7f163c4a11628f55a4df523b3ef",
            "0x000000000000000000000000bac68c9d3fdee9e3404b75b21b47fef95aff6268",
            "0x000000000000000000000000ce5485cfb26914c5dce00b9baf0580364dafc7a4"
          ],
          "data": "0x000000000000000000000000000000000000000000000000000000746a528800",
          "blockHash": "0x851f861fa40981304a738c6dedde898db0890bf01e174e3c06ea115ff9af3a55",
          "blockNumber": "0x6bc3bb",
          "transactionHash": "0xc03877f7f6dcb67085c9a32a44fe51e148b6c8d95cf822740ea98a00c267b22c",
          "transactionIndex": "0x8",
          "logIndex": "0xb",
          "removed": false
        },
        {
          "address": "0xE2Bb56ee936fd6433DC0F6e7e3b8365C906AA057",
          "topics": [
            "0xdb80dd488acf86d17c747445b0eabb5d57c541d3bd7b6b87af987858e5066b2b",
            "0x000000000000000000000000ce5485cfb26914c5dce00b9baf0580364dafc7a4",
            "0x0594c1582459ea03f77deaf9eb7e3917d6994a03c13405ba42867f83d85f085d",
            "0x01b64b1b3b690b43b9b514fb81377518f4039cd3e4f4914d8a6bdf01d679fb19"
          ],
          "data": "0x0000000000000000000000000000000000000000000000000000000000000060000000000000000000000000000000000000000000000000000000000000281f00000000000000000000000000000000000000000000000000005af3107a40000000000000000000000000000000000000000000000000000000000000000005000000000000000000000000ca14007eff0db1f8135f4c25b34de49ab0d42766000000000000000000000000bac68c9d3fdee9e3404b75b21b47fef95aff626800f46c0dee8f462f1470f8a6e1110756fa1cc301d7d6e8672c779f9a707f6a75000000000000000000000000000000000000000000000000000000746a5288000000000000000000000000000000000000000000000000000000000000000000",
          "blockHash": "0x851f861fa40981304a738c6dedde898db0890bf01e174e3c06ea115ff9af3a55",
          "blockNumber": "0x6bc3bb",
          "transactionHash": "0xc03877f7f6dcb67085c9a32a44fe51e148b6c8d95cf822740ea98a00c267b22c",
          "transactionIndex": "0x8",
          "logIndex": "0xc",
          "removed": false
        },
        {
          "address": "0xcE5485Cfb26914C5dcE00B9BAF0580364daFC7a4",
          "topics": [
            "0x5f971bd00bf3ffbca8a6d72cdd4fd92cfd4f62636161921d1e5a64f0b64ccb6d",
            "0x000000000000000000000000bac68c9d3fdee9e3404b75b21b47fef95aff6268",
            "0x000000000000000000000000ca14007eff0db1f8135f4c25b34de49ab0d42766",
            "0x00f46c0dee8f462f1470f8a6e1110756fa1cc301d7d6e8672c779f9a707f6a75"
          ],
          "data": "0x000000000000000000000000000000000000000000000000000000746a528800000000000000000000000000000000000000000000000000000000000000281f00000000000000000000000000000000000000000000000000005af3107a4000",
          "blockHash": "0x851f861fa40981304a738c6dedde898db0890bf01e174e3c06ea115ff9af3a55",
          "blockNumber": "0x6bc3bb",
          "transactionHash": "0xc03877f7f6dcb67085c9a32a44fe51e148b6c8d95cf822740ea98a00c267b22c",
          "transactionIndex": "0x8",
          "logIndex": "0xd",
          "removed": false
        }
      ],
      "status": "0x1",
      "logsBloom": "0x00000000000000000200000000020000000000000000000000000000000000400000000000000000000000000000000000000000000004000000000000200000000000000000000000000008080000000000000000000040001000080000000008000000100000000000000000000000000000000000000000000010100008002000000000000000000000000400000000000000000200000000020000000010020000000000000000000020000000001000000000000020000000000000000000000002000000024110000000000000000000200000000000800000000000000010000000010000000080020084000001000000001000000000000000000000",
      "type": "0x2",
      "effectiveGasPrice": "0xf82b3ee4"
    },
    {
      "transactionHash": "0x664a5f630d9de5da9660b34614476372b0c4fb6a0871a2f5af2df5f8b9bac720",
      "transactionIndex": "0x9",
      "blockHash": "0x851f861fa40981304a738c6dedde898db0890bf01e174e3c06ea115ff9af3a55",
      "blockNumber": "0x6bc3bb",
      "from": "0xDdb342ecc94236c29a5307d3757d0724D759453C",
      "to": "0xE2Bb56ee936fd6433DC0F6e7e3b8365C906AA057",
      "cumulativeGasUsed": "0x9b253",
      "gasUsed": "0xfe26",
      "contractAddress": null,
      "logs": [
        {
          "address": "0xE2Bb56ee936fd6433DC0F6e7e3b8365C906AA057",
          "topics": [
            "0xdb80dd488acf86d17c747445b0eabb5d57c541d3bd7b6b87af987858e5066b2b",
            "0x000000000000000000000000ddb342ecc94236c29a5307d3757d0724d759453c",
            "0x00f46c0dee8f462f1470f8a6e1110756fa1cc301d7d6e8672c779f9a707f6a75",
            "0x00f1149cade9d692862ad41df96b108aa2c20af34f640457e781d166c98dc6b0"
          ],
          "data": "0x0000000000000000000000000000000000000000000000000000000000000060000000000000000000000000000000000000000000000000000000000000282000000000000000000000000000000000000000000000000000005af3107a400000000000000000000000000000000000000000000000000000000000000000080000000000000000000000000000000000000000000000000000000000000000000000000000000000000000ddb342ecc94236c29a5307d3757d0724d759453c04718f5a0fc34cc1af16a1cdee98ffb20c31f5cd61d6ab07201858f4287c938d053b40a647cedfca6ca84f542a0fe36736031905a9639a7f19a3c1e66bfd5080000000000000000000000000000000000020c49ba5e353f800000000000000000000000000000000000000000000000000000000000000000000000067336ed00000000000000000000000000000000000000000000000000000000067336f10000000000000000000000000000000000000000000000000000000746a528800",
          "blockHash": "0x851f861fa40981304a738c6dedde898db0890bf01e174e3c06ea115ff9af3a55",
          "blockNumber": "0x6bc3bb",
          "transactionHash": "0x664a5f630d9de5da9660b34614476372b0c4fb6a0871a2f5af2df5f8b9bac720",
          "transactionIndex": "0x9",
          "logIndex": "0xe",
          "removed": false
        }
      ],
      "status": "0x1",
      "logsBloom": "0x00400000000000000000000000020000000000000000000000000000000000000000000000000000000000000000000000000000000000000000000000000000000000000000000000000000000000000000000000000040001000000000000400000000100000010000000000000000400000000000000000000000400000000000000000000000000000000000000004000000000000000000000000000010000000000000000000000020000000000000000000000000000000000000000000000000000000000100000000000000000000000000000000000000000000000000000000000000000080000000000001000000000000000000000000000000",
      "type": "0x2",
      "effectiveGasPrice": "0xf82b3ee4"
    }
  ],
  "libraries": [],
  "pending": [],
  "returns": {},
  "timestamp": 1731424011,
  "chain": 11155111,
  "multi": false,
  "commit": "b1a5e4e"
}