{
  "transactions": [
    {
      "hash": "0x95dd0fe7f70706a7ba2488f3085113fe3afb5c9ae59932003d75c50670f5f49c",
      "transactionType": "CALL",
      "contractName": null,
      "contractAddress": "0xca14007eff0db1f8135f4c25b34de49ab0d42766",
      "function": "approve(address,uint256)",
      "arguments": [
        "0x57EC6c2CC9Df888aA21b2b27C69d10b7657170E3",
        "115792089237316195423570985008687907853269984665640564039457584007913129639935"
      ],
      "transaction": {
        "from": "0xddb342ecc94236c29a5307d3757d0724d759453c",
        "to": "0xca14007eff0db1f8135f4c25b34de49ab0d42766",
        "gas": "0xff08",
        "value": "0x0",
        "input": "0x095ea7b300000000000000000000000057ec6c2cc9df888aa21b2b27c69d10b7657170e3ffffffffffffffffffffffffffffffffffffffffffffffffffffffffffffffff",
        "nonce": "0x55b",
        "chainId": "0xaa36a7"
      },
      "additionalContracts": [],
      "isFixedGasLimit": false
    },
    {
      "hash": "0x153615cf605c60383f7762748d786422af8d4d8c82b05dcf88fe29e673298a0a",
      "transactionType": "CALL",
      "contractName": null,
      "contractAddress": "0x57ec6c2cc9df888aa21b2b27c69d10b7657170e3",
      "function": "depositAndCreateOrder(address,(address,uint256,uint256,uint128,uint128,uint128,uint128))",
      "arguments": [
        "0xCa14007Eff0dB1f8135f4C25B34De49AB0d42766",
        "(0xDdb342ecc94236c29a5307d3757d0724D759453C, 2009894490435840142178314390393166646092438090257831307886760648929397478285, 2366254414417873771392932940469309727793822550615514268240785277201753657472, 170141183460469235273462165868118016, 1738066320, 1738066448, 50000000000000000)"
      ],
      "transaction": {
        "from": "0xddb342ecc94236c29a5307d3757d0724d759453c",
        "to": "0x57ec6c2cc9df888aa21b2b27c69d10b7657170e3",
        "gas": "0x3d276",
        "value": "0x1c6bf52634000",
        "input": "0x9e76a944000000000000000000000000ca14007eff0db1f8135f4c25b34de49ab0d42766000000000000000000000000ddb342ecc94236c29a5307d3757d0724d759453c04718f5a0fc34cc1af16a1cdee98ffb20c31f5cd61d6ab07201858f4287c938d053b40a647cedfca6ca84f542a0fe36736031905a9639a7f19a3c1e66bfd5080000000000000000000000000000000000020c49ba5e353f80000000000000000000000000000000000000000000000000000000000000000000000006798c990000000000000000000000000000000000000000000000000000000006798ca1000000000000000000000000000000000000000000000000000b1a2bc2ec50000",
        "nonce": "0x55c",
        "chainId": "0xaa36a7"
      },
      "additionalContracts": [],
      "isFixedGasLimit": false
    }
  ],
  "receipts": [
    {
      "status": "0x1",
      "cumulativeGasUsed": "0x1c75cce",
      "logs": [
        {
          "address": "0xca14007eff0db1f8135f4c25b34de49ab0d42766",
          "topics": [
            "0x8c5be1e5ebec7d5bd14f71427d1e84f3dd0314c0f7b2291e5b200ac8c7c3b925",
            "0x000000000000000000000000ddb342ecc94236c29a5307d3757d0724d759453c",
            "0x00000000000000000000000057ec6c2cc9df888aa21b2b27c69d10b7657170e3"
          ],
          "data": "0xffffffffffffffffffffffffffffffffffffffffffffffffffffffffffffffff",
          "blockHash": "0x23b0f3bd3267a481186abacbaec2ab978002c96618d7f3b6dcf3b4e4a1b4dd11",
          "blockNumber": "0x73cb33",
          "transactionHash": "0x95dd0fe7f70706a7ba2488f3085113fe3afb5c9ae59932003d75c50670f5f49c",
          "transactionIndex": "0x102",
          "logIndex": "0x248",
          "removed": false
        }
      ],
      "logsBloom": "0x00000000000000000000000000000000000001000000000000000000000000000000000000000000000000000000000000000000000000000000000000200000000800000000000000000000000000000000000000000000000000000000000400000000000000000000000000000000400000000000000000000000400000000000000000000000000000000000000000000000000000000000000000100000020000000000000000000000000000000000000000000000000000000000000000000000000000020000000000000000000000000000000000800000000000000010000000000000000000000000000000000000001000000000000000000000",
      "type": "0x2",
      "transactionHash": "0x95dd0fe7f70706a7ba2488f3085113fe3afb5c9ae59932003d75c50670f5f49c",
      "transactionIndex": "0x102",
      "blockHash": "0x23b0f3bd3267a481186abacbaec2ab978002c96618d7f3b6dcf3b4e4a1b4dd11",
      "blockNumber": "0x73cb33",
      "gasUsed": "0xb8a4",
      "effectiveGasPrice": "0x2ae0c7695",
      "from": "0xddb342ecc94236c29a5307d3757d0724d759453c",
      "to": "0xca14007eff0db1f8135f4c25b34de49ab0d42766",
      "contractAddress": null
    },
    {
      "status": "0x1",
      "cumulativeGasUsed": "0x1c9f9d7",
      "logs": [
        {
          "address": "0xca14007eff0db1f8135f4c25b34de49ab0d42766",
          "topics": [
            "0xddf252ad1be2c89b69c2b068fc378daa952ba7f163c4a11628f55a4df523b3ef",
            "0x000000000000000000000000ddb342ecc94236c29a5307d3757d0724d759453c",
            "0x00000000000000000000000057ec6c2cc9df888aa21b2b27c69d10b7657170e3"
          ],
          "data": "0x00000000000000000000000000000000000000000000000000b1a2bc2ec50000",
          "blockHash": "0x23b0f3bd3267a481186abacbaec2ab978002c96618d7f3b6dcf3b4e4a1b4dd11",
          "blockNumber": "0x73cb33",
          "transactionHash": "0x153615cf605c60383f7762748d786422af8d4d8c82b05dcf88fe29e673298a0a",
          "transactionIndex": "0x103",
          "logIndex": "0x249",
          "removed": false
        },
        {
          "address": "0xca14007eff0db1f8135f4c25b34de49ab0d42766",
          "topics": [
            "0x8c5be1e5ebec7d5bd14f71427d1e84f3dd0314c0f7b2291e5b200ac8c7c3b925",
            "0x00000000000000000000000057ec6c2cc9df888aa21b2b27c69d10b7657170e3",
            "0x000000000000000000000000ce5485cfb26914c5dce00b9baf0580364dafc7a4"
          ],
          "data": "0x00000000000000000000000000000000000000000000000000b1a2bc2ec50000",
          "blockHash": "0x23b0f3bd3267a481186abacbaec2ab978002c96618d7f3b6dcf3b4e4a1b4dd11",
          "blockNumber": "0x73cb33",
          "transactionHash": "0x153615cf605c60383f7762748d786422af8d4d8c82b05dcf88fe29e673298a0a",
          "transactionIndex": "0x103",
          "logIndex": "0x24a",
          "removed": false
        },
        {
          "address": "0xca14007eff0db1f8135f4c25b34de49ab0d42766",
          "topics": [
            "0x8c5be1e5ebec7d5bd14f71427d1e84f3dd0314c0f7b2291e5b200ac8c7c3b925",
            "0x00000000000000000000000057ec6c2cc9df888aa21b2b27c69d10b7657170e3",
            "0x000000000000000000000000ce5485cfb26914c5dce00b9baf0580364dafc7a4"
          ],
          "data": "0x0000000000000000000000000000000000000000000000000000000000000000",
          "blockHash": "0x23b0f3bd3267a481186abacbaec2ab978002c96618d7f3b6dcf3b4e4a1b4dd11",
          "blockNumber": "0x73cb33",
          "transactionHash": "0x153615cf605c60383f7762748d786422af8d4d8c82b05dcf88fe29e673298a0a",
          "transactionIndex": "0x103",
          "logIndex": "0x24b",
          "removed": false
        },
        {
          "address": "0xca14007eff0db1f8135f4c25b34de49ab0d42766",
          "topics": [
            "0xddf252ad1be2c89b69c2b068fc378daa952ba7f163c4a11628f55a4df523b3ef",
            "0x00000000000000000000000057ec6c2cc9df888aa21b2b27c69d10b7657170e3",
            "0x000000000000000000000000ce5485cfb26914c5dce00b9baf0580364dafc7a4"
          ],
          "data": "0x00000000000000000000000000000000000000000000000000b1a2bc2ec50000",
          "blockHash": "0x23b0f3bd3267a481186abacbaec2ab978002c96618d7f3b6dcf3b4e4a1b4dd11",
          "blockNumber": "0x73cb33",
          "transactionHash": "0x153615cf605c60383f7762748d786422af8d4d8c82b05dcf88fe29e673298a0a",
          "transactionIndex": "0x103",
          "logIndex": "0x24c",
          "removed": false
        },
        {
          "address": "0xe2bb56ee936fd6433dc0f6e7e3b8365c906aa057",
          "topics": [
            "0xdb80dd488acf86d17c747445b0eabb5d57c541d3bd7b6b87af987858e5066b2b",
            "0x000000000000000000000000ce5485cfb26914c5dce00b9baf0580364dafc7a4",
            "0x0594c1582459ea03f77deaf9eb7e3917d6994a03c13405ba42867f83d85f085d",
            "0x008bce41827dd5484d80312a2e43bc42a896e3fcf75bf84c2b49339168dfa00a"
          ],
          "data": "0x00000000000000000000000000000000000000000000000000000000000000600000000000000000000000000000000000000000000000000000000000002d430000000000000000000000000000000000000000000000000001c6bf52634000000000000000000000000000000000000000000000000000000000000000000f000000000000000000000000ca14007eff0db1f8135f4c25b34de49ab0d4276600000000000000000000000057ec6c2cc9df888aa21b2b27c69d10b7657170e307b8349904d9c71692e79562974356da19063445ec8be1d53fc07cc87ce83ac000000000000000000000000000000000000000000000000000b1a2bc2ec50000000000000000000000000000000000000000000000000000000000000000000000000000000000000000000000000000000000000000000000000000000000090000000000000000000000000000000000000000000000000000000000000000000000000000000000000000ddb342ecc94236c29a5307d3757d0724d759453c04718f5a0fc34cc1af16a1cdee98ffb20c31f5cd61d6ab07201858f4287c938d053b40a647cedfca6ca84f542a0fe36736031905a9639a7f19a3c1e66bfd5080000000000000000000000000000000000020c49ba5e353f80000000000000000000000000000000000000000000000000000000000000000000000006798c990000000000000000000000000000000000000000000000000000000006798ca1000000000000000000000000000000000000000000000000000b1a2bc2ec500000000000000000000000000000000000000000000000000000000000000000000",
          "blockHash": "0x23b0f3bd3267a481186abacbaec2ab978002c96618d7f3b6dcf3b4e4a1b4dd11",
          "blockNumber": "0x73cb33",
          "transactionHash": "0x153615cf605c60383f7762748d786422af8d4d8c82b05dcf88fe29e673298a0a",
          "transactionIndex": "0x103",
          "logIndex": "0x24d",
          "removed": false
        },
        {
          "address": "0xce5485cfb26914c5dce00b9baf0580364dafc7a4",
          "topics": [
            "0x2203a49c69f1a46c1164f5e4a30643dd77b7c59c0ff9bc433256048365c247f1",
            "0x00000000000000000000000057ec6c2cc9df888aa21b2b27c69d10b7657170e3",
            "0x000000000000000000000000ca14007eff0db1f8135f4c25b34de49ab0d42766",
            "0x07b8349904d9c71692e79562974356da19063445ec8be1d53fc07cc87ce83ac0"
          ],
          "data": "0x00000000000000000000000000000000000000000000000000b1a2bc2ec5000000000000000000000000000000000000000000000000000000000000000000800000000000000000000000000000000000000000000000000000000000002d430000000000000000000000000000000000000000000000000001c6bf5263400000000000000000000000000000000000000000000000000000000000000000090000000000000000000000000000000000000000000000000000000000000000000000000000000000000000ddb342ecc94236c29a5307d3757d0724d759453c04718f5a0fc34cc1af16a1cdee98ffb20c31f5cd61d6ab07201858f4287c938d053b40a647cedfca6ca84f542a0fe36736031905a9639a7f19a3c1e66bfd5080000000000000000000000000000000000020c49ba5e353f80000000000000000000000000000000000000000000000000000000000000000000000006798c990000000000000000000000000000000000000000000000000000000006798ca1000000000000000000000000000000000000000000000000000b1a2bc2ec500000000000000000000000000000000000000000000000000000000000000000000",
          "blockHash": "0x23b0f3bd3267a481186abacbaec2ab978002c96618d7f3b6dcf3b4e4a1b4dd11",
          "blockNumber": "0x73cb33",
          "transactionHash": "0x153615cf605c60383f7762748d786422af8d4d8c82b05dcf88fe29e673298a0a",
          "transactionIndex": "0x103",
          "logIndex": "0x24e",
          "removed": false
        },
        {
          "address": "0x57ec6c2cc9df888aa21b2b27c69d10b7657170e3",
          "topics": [
            "0xaf43445f7721522b7a3864ed3de53d7e2e658bfa1eeffa18e1e229be68ce2545",
            "0x000000000000000000000000ddb342ecc94236c29a5307d3757d0724d759453c",
            "0x07b8349904d9c71692e79562974356da19063445ec8be1d53fc07cc87ce83ac0"
          ],
          "data": "0x00000000000000000000000000000000000000000000000000b1a2bc2ec500000000000000000000000000000000000000000000000000000000000000000001",
          "blockHash": "0x23b0f3bd3267a481186abacbaec2ab978002c96618d7f3b6dcf3b4e4a1b4dd11",
          "blockNumber": "0x73cb33",
          "transactionHash": "0x153615cf605c60383f7762748d786422af8d4d8c82b05dcf88fe29e673298a0a",
          "transactionIndex": "0x103",
          "logIndex": "0x24f",
          "removed": false
        }
      ],
      "logsBloom": "0x00000200000000000000000000020000000001000000000000000040000000000000000000000000000000000000000000000000000004000000020000200000000800000000000000000008080000000000000000000040001000000000000600000000100000000000000000000000400000000000000000000010400008002000000400000000000000020000000000008000000200000000000000100010020100880000000000000020000000021000000000000000000000000000000000800002000000024010000001000000000800200000020000800000000000000010000000010000000000020004000000000000001000000000000000000000",
      "type": "0x2",
      "transactionHash": "0x153615cf605c60383f7762748d786422af8d4d8c82b05dcf88fe29e673298a0a",
      "transactionIndex": "0x103",
      "blockHash": "0x23b0f3bd3267a481186abacbaec2ab978002c96618d7f3b6dcf3b4e4a1b4dd11",
      "blockNumber": "0x73cb33",
      "gasUsed": "0x29d09",
      "effectiveGasPrice": "0x2ae0c7695",
      "from": "0xddb342ecc94236c29a5307d3757d0724d759453c",
      "to": "0x57ec6c2cc9df888aa21b2b27c69d10b7657170e3",
      "contractAddress": null
    }
  ],
  "libraries": [],
  "pending": [],
  "returns": {},
  "timestamp": 1738066358,
  "chain": 11155111,
  "commit": "1045b34"
}