{
  "transactions": [
    {
      "hash": "0xe26bea664f91fcc3cc3ce6692ee12804fea21f216b1c15bbdf5d6a357b7a7e00",
      "transactionType": "CALL",
      "contractName": "StarkNetToken",
      "contractAddress": "0xCa14007Eff0dB1f8135f4C25B34De49AB0d42766",
      "function": "approve(address,uint256)",
      "arguments": [
        "0x3f0508421873Ed1df2e11028D9Fee1c6B92A494e",
        "115792089237316195423570985008687907853269984665640564039457584007913129639935"
      ],
      "transaction": {
        "type": "0x02",
        "from": "0xddb342ecc94236c29a5307d3757d0724d759453c",
        "to": "0xca14007eff0db1f8135f4c25b34de49ab0d42766",
        "gas": "0xff08",
        "value": "0x0",
        "data": "0x095ea7b30000000000000000000000003f0508421873ed1df2e11028d9fee1c6b92a494effffffffffffffffffffffffffffffffffffffffffffffffffffffffffffffff",
        "nonce": "0x273",
        "accessList": []
      },
      "additionalContracts": [],
      "isFixedGasLimit": false
    },
    {
      "hash": "0x32278f1694ff8b306c3260f92d452d25321e09e9708aa5e62bd05f232cc730b2",
      "transactionType": "CALL",
      "contractName": "StarkNetToken",
      "contractAddress": "0xCa14007Eff0dB1f8135f4C25B34De49AB0d42766",
      "function": "transfer(address,uint256)",
      "arguments": [
        "0x3f0508421873Ed1df2e11028D9Fee1c6B92A494e",
        "500000"
      ],
      "transaction": {
        "type": "0x02",
        "from": "0xddb342ecc94236c29a5307d3757d0724d759453c",
        "to": "0xca14007eff0db1f8135f4c25b34de49ab0d42766",
        "gas": "0x145a3",
        "value": "0x0",
        "data": "0xa9059cbb0000000000000000000000003f0508421873ed1df2e11028d9fee1c6b92a494e000000000000000000000000000000000000000000000000000000000007a120",
        "nonce": "0x274",
        "accessList": []
      },
      "additionalContracts": [],
      "isFixedGasLimit": false
    },
    {
      "hash": "0xccb73b7761362bf4f022110d20204ed12e17e69984cbf114dabebc26875f50c8",
      "transactionType": "CALL",
      "contractName": "L1TWAMMBridge",
      "contractAddress": "0x3f0508421873Ed1df2e11028D9Fee1c6B92A494e",
      "function": "deposit(uint256,uint256)",
      "arguments": [
        "500000",
        "3437578217456014416958820490559363987930234878582783671264257518363855408765"
      ],
      "transaction": {
        "type": "0x02",
        "from": "0xddb342ecc94236c29a5307d3757d0724d759453c",
        "to": "0x3f0508421873ed1df2e11028d9fee1c6b92a494e",
        "gas": "0x2d757",
        "value": "0x5af3107a4000",
        "data": "0xe2bbb158000000000000000000000000000000000000000000000000000000000007a120079999aead33a8c6d51447c11f80b89c5eb69ddfff66ffd12a434fefec3dce7d",
        "nonce": "0x275",
        "accessList": []
      },
      "additionalContracts": [],
      "isFixedGasLimit": false
    },
    {
      "hash": "0x37f0da0ee4aca19445eb0a73e4f7ef66bf75a07ba6de5d5b7c5f71be9a1302f6",
      "transactionType": "CALL",
      "contractName": "L1TWAMMBridge",
      "contractAddress": "0x3f0508421873Ed1df2e11028D9Fee1c6B92A494e",
      "function": "_sendMessage(uint256,uint256,uint256[])",
      "arguments": [
        "3437578217456014416958820490559363987930234878582783671264257518363855408765",
        "425952401605428413817582304755919420533935873840436977667370850915372091056",
        "[0, 1265684623727634235329190328445374361672779121980, 2009894490435840142178314390393166646092438090257831307886760648929397478285, 2366254414417873771392932940469309727793822550615514268240785277201753657472, 170141183460469235273462165868118016, 1731421168, 1731421232, 500000]"
      ],
      "transaction": {
        "type": "0x02",
        "from": "0xddb342ecc94236c29a5307d3757d0724d759453c",
        "to": "0x3f0508421873ed1df2e11028d9fee1c6b92a494e",
        "gas": "0x1b79f",
        "value": "0x5af3107a4000",
        "data": "0x88f439ef079999aead33a8c6d51447c11f80b89c5eb69ddfff66ffd12a434fefec3dce7d00f1149cade9d692862ad41df96b108aa2c20af34f640457e781d166c98dc6b0000000000000000000000000000000000000000000000000000000000000006000000000000000000000000000000000000000000000000000000000000000080000000000000000000000000000000000000000000000000000000000000000000000000000000000000000ddb342ecc94236c29a5307d3757d0724d759453c04718f5a0fc34cc1af16a1cdee98ffb20c31f5cd61d6ab07201858f4287c938d053b40a647cedfca6ca84f542a0fe36736031905a9639a7f19a3c1e66bfd5080000000000000000000000000000000000020c49ba5e353f8000000000000000000000000000000000000000000000000000000000000000000000000673363f00000000000000000000000000000000000000000000000000000000067336430000000000000000000000000000000000000000000000000000000000007a120",
        "nonce": "0x276",
        "accessList": []
      },
      "additionalContracts": [],
      "isFixedGasLimit": false
    }
  ],
  "receipts": [],
  "libraries": [],
  "pending": [
    "0xe26bea664f91fcc3cc3ce6692ee12804fea21f216b1c15bbdf5d6a357b7a7e00",
    "0x32278f1694ff8b306c3260f92d452d25321e09e9708aa5e62bd05f232cc730b2",
    "0xccb73b7761362bf4f022110d20204ed12e17e69984cbf114dabebc26875f50c8",
    "0x37f0da0ee4aca19445eb0a73e4f7ef66bf75a07ba6de5d5b7c5f71be9a1302f6"
  ],
  "returns": {},
  "timestamp": 1731421217,
  "chain": 11155111,
  "multi": false,
  "commit": "b1a5e4e"
}