{
  "transactions": [
    {
      "hash": "0xfbe929830318c156e2cf5171e8c6cf502a52bb59e3eabaffcbed6e58c97c92e3",
      "transactionType": "CALL",
      "contractName": "StarkNetToken",
      "contractAddress": "0xCa14007Eff0dB1f8135f4C25B34De49AB0d42766",
      "function": "approve(address,uint256)",
      "arguments": [
        "0x86BFbbaCCafa9a422978f00b35f97D95844fb83A",
        "115792089237316195423570985008687907853269984665640564039457584007913129639935"
      ],
      "transaction": {
        "type": "0x02",
        "from": "0xddb342ecc94236c29a5307d3757d0724d759453c",
        "to": "0xca14007eff0db1f8135f4c25b34de49ab0d42766",
        "gas": "0x93a9",
        "value": "0x0",
        "data": "0x095ea7b300000000000000000000000086bfbbaccafa9a422978f00b35f97d95844fb83affffffffffffffffffffffffffffffffffffffffffffffffffffffffffffffff",
        "nonce": "0x352",
        "accessList": []
      },
      "additionalContracts": [],
      "isFixedGasLimit": false
    },
    {
      "hash": "0x394e5495aff84c51bb9d3088f119dbe401989b305c4486452ab176c691976c77",
      "transactionType": "CALL",
      "contractName": null,
      "contractAddress": "0x86BFbbaCCafa9a422978f00b35f97D95844fb83A",
      "function": "depositAndCreateOrder((address,uint256,uint256,uint128,uint128,uint128,uint128,uint256))",
      "arguments": [
        "(0xDdb342ecc94236c29a5307d3757d0724D759453C, 2009894490435840142178314390393166646092438090257831307886760648929397478285, 2366254414417873771392932940469309727793822550615514268240785277201753657472, 170141183460469235273462165868118016, 1732623440, 1732623504, 50000000000000000, 1883401296703965083189570633031918159622068791907768462215909222728633759331)"
      ],
      "transaction": {
        "type": "0x02",
        "from": "0xddb342ecc94236c29a5307d3757d0724d759453c",
        "to": "0x86bfbbaccafa9a422978f00b35f97d95844fb83a",
        "gas": "0x44a6c",
        "value": "0x1c6bf52634000",
        "data": "0x5ce510fa000000000000000000000000ddb342ecc94236c29a5307d3757d0724d759453c04718f5a0fc34cc1af16a1cdee98ffb20c31f5cd61d6ab07201858f4287c938d053b40a647cedfca6ca84f542a0fe36736031905a9639a7f19a3c1e66bfd5080000000000000000000000000000000000020c49ba5e353f80000000000000000000000000000000000000000000000000000000000000000000000006745bc50000000000000000000000000000000000000000000000000000000006745bc9000000000000000000000000000000000000000000000000000b1a2bc2ec500000429f7a4bd4de9fc98a94cec9163caf6f50a5d7fcec583fa30d2d9bb33a93663",
        "nonce": "0x353",
        "accessList": []
      },
      "additionalContracts": [],
      "isFixedGasLimit": false
    }
  ],
  "receipts": [],
  "libraries": [],
  "pending": [
    "0xfbe929830318c156e2cf5171e8c6cf502a52bb59e3eabaffcbed6e58c97c92e3",
    "0x394e5495aff84c51bb9d3088f119dbe401989b305c4486452ab176c691976c77"
  ],
  "returns": {},
  "timestamp": 1732623485,
  "chain": 11155111,
  "multi": false,
  "commit": "1254ada"
}