{
  "transactions": [
    {
      "hash": "0xebde8ba9b02254db568e4fe881c939b769525fffba51b8af9f1a44ae807afad1",
      "transactionType": "CALL",
      "contractName": "StarkNetToken",
      "contractAddress": "0xCa14007Eff0dB1f8135f4C25B34De49AB0d42766",
      "function": "approve(address,uint256)",
      "arguments": [
        "0xe5B8F72aA01A6ff64d9918269C9Ab83296dFAfF6",
        "115792089237316195423570985008687907853269984665640564039457584007913129639935"
      ],
      "transaction": {
        "type": "0x02",
        "from": "0xddb342ecc94236c29a5307d3757d0724d759453c",
        "to": "0xca14007eff0db1f8135f4c25b34de49ab0d42766",
        "gas": "0xff08",
        "value": "0x0",
        "data": "0x095ea7b3000000000000000000000000e5b8f72aa01a6ff64d9918269c9ab83296dfaff6ffffffffffffffffffffffffffffffffffffffffffffffffffffffffffffffff",
        "nonce": "0x2bd",
        "accessList": []
      },
      "additionalContracts": [],
      "isFixedGasLimit": false
    },
    {
      "hash": "0x42c57a08825ea3c0694385c83d9c376a02d4e1268ef978d9ea5a27a9e0185e26",
      "transactionType": "CALL",
      "contractName": "StarkNetToken",
      "contractAddress": "0xCa14007Eff0dB1f8135f4C25B34De49AB0d42766",
      "function": "transfer(address,uint256)",
      "arguments": [
        "0xe5B8F72aA01A6ff64d9918269C9Ab83296dFAfF6",
        "500000000000"
      ],
      "transaction": {
        "type": "0x02",
        "from": "0xddb342ecc94236c29a5307d3757d0724d759453c",
        "to": "0xca14007eff0db1f8135f4c25b34de49ab0d42766",
        "gas": "0x1339c",
        "value": "0x0",
        "data": "0xa9059cbb000000000000000000000000e5b8f72aa01a6ff64d9918269c9ab83296dfaff6000000000000000000000000000000000000000000000000000000746a528800",
        "nonce": "0x2be",
        "accessList": []
      },
      "additionalContracts": [],
      "isFixedGasLimit": false
    },
    {
      "hash": "0x5c39fa8afdd78292134d63ca00819ae8e277ae4d75c8b7f644cd843cd927cb0e",
      "transactionType": "CALL",
      "contractName": "L1TWAMMBridge",
      "contractAddress": "0xe5B8F72aA01A6ff64d9918269C9Ab83296dFAfF6",
      "function": "deposit(uint256,uint256)",
      "arguments": [
        "500000000000",
        "3242390005465865893332244748113192919068573953410991991501800973163201750965"
      ],
      "transaction": {
        "type": "0x02",
        "from": "0xddb342ecc94236c29a5307d3757d0724d759453c",
        "to": "0xe5b8f72aa01a6ff64d9918269c9ab83296dfaff6",
        "gas": "0x2d757",
        "value": "0x5af3107a4000",
        "data": "0xe2bbb158000000000000000000000000000000000000000000000000000000746a528800072b20b183135b6c0d42ef242d923a29fcf9c88ae609d90e49c565009656e7b5",
        "nonce": "0x2bf",
        "accessList": []
      },
      "additionalContracts": [],
      "isFixedGasLimit": false
    },
    {
      "hash": "0xe8ae54885a20deffec0b65c6210199b745ef4169e4fe4172c0812420eaf3b6c6",
      "transactionType": "CALL",
      "contractName": "Proxy",
      "contractAddress": "0xE2Bb56ee936fd6433DC0F6e7e3b8365C906AA057",
      "function": "sendMessageToL2(uint256,uint256,uint256[])",
      "arguments": [
        "3242390005465865893332244748113192919068573953410991991501800973163201750965",
        "425952401605428413817582304755919420533935873840436977667370850915372091056",
        "[0, 1265684623727634235329190328445374361672779121980, 2009894490435840142178314390393166646092438090257831307886760648929397478285, 2366254414417873771392932940469309727793822550615514268240785277201753657472, 170141183460469235273462165868118016, 1731435696, 1731435760, 500000000000]"
      ],
      "transaction": {
        "type": "0x02",
        "from": "0xddb342ecc94236c29a5307d3757d0724d759453c",
        "to": "0xe2bb56ee936fd6433dc0f6e7e3b8365c906aa057",
        "gas": "0x15f0a",
        "value": "0x5af3107a4000",
        "data": "0x3e3aa6c5072b20b183135b6c0d42ef242d923a29fcf9c88ae609d90e49c565009656e7b500f1149cade9d692862ad41df96b108aa2c20af34f640457e781d166c98dc6b0000000000000000000000000000000000000000000000000000000000000006000000000000000000000000000000000000000000000000000000000000000080000000000000000000000000000000000000000000000000000000000000000000000000000000000000000ddb342ecc94236c29a5307d3757d0724d759453c04718f5a0fc34cc1af16a1cdee98ffb20c31f5cd61d6ab07201858f4287c938d053b40a647cedfca6ca84f542a0fe36736031905a9639a7f19a3c1e66bfd5080000000000000000000000000000000000020c49ba5e353f800000000000000000000000000000000000000000000000000000000000000000000000067339cb00000000000000000000000000000000000000000000000000000000067339cf0000000000000000000000000000000000000000000000000000000746a528800",
        "nonce": "0x2c0",
        "accessList": []
      },
      "additionalContracts": [],
      "isFixedGasLimit": false
    }
  ],
  "receipts": [],
  "libraries": [],
  "pending": [
    "0xebde8ba9b02254db568e4fe881c939b769525fffba51b8af9f1a44ae807afad1",
    "0x42c57a08825ea3c0694385c83d9c376a02d4e1268ef978d9ea5a27a9e0185e26",
    "0x5c39fa8afdd78292134d63ca00819ae8e277ae4d75c8b7f644cd843cd927cb0e",
    "0xe8ae54885a20deffec0b65c6210199b745ef4169e4fe4172c0812420eaf3b6c6"
  ],
  "returns": {},
  "timestamp": 1731435726,
  "chain": 11155111,
  "multi": false,
  "commit": "39f9f49"
}