{
  "transactions": [
    {
      "hash": "0x089377843a5592d9ac98d4a1eca4bc0267af8f5a00024474f536a7fbf3451667",
      "transactionType": "CALL",
      "contractName": null,
      "contractAddress": "0x67b7a14745f14c253beb5d44b767ef1bfb916253",
      "function": "setL2EndpointAddress(uint256)",
      "arguments": [
        "2361042419225082304626344415068641103339443172836640990408796361498044356029"
      ],
      "transaction": {
        "from": "0xddb342ecc94236c29a5307d3757d0724d759453c",
        "to": "0x67b7a14745f14c253beb5d44b767ef1bfb916253",
        "gas": "0xa23f",
        "value": "0x0",
        "input": "0x5155fb2f05384d7aa25d47c73d60f2ee889af6b337544c534b05d8560578c06f01db55bd",
        "nonce": "0x547",
        "chainId": "0xaa36a7"
      },
      "additionalContracts": [],
      "isFixedGasLimit": false
    }
  ],
  "receipts": [
    {
      "status": "0x1",
      "cumulativeGasUsed": "0x135517b",
      "logs": [
        {
          "address": "0x67b7a14745f14c253beb5d44b767ef1bfb916253",
          "topics": [
            "0xa35dce9e53611b0cabca886209c4a1d09c80214af9b6fb6027f7b2f7c39838e8"
          ],
          "data": "0x05384d7aa25d47c73d60f2ee889af6b337544c534b05d8560578c06f01db55bd",
          "blockHash": "0x5d57df94d38774dc45d33d8dec82517251c2be39401871b467c304b1eb773928",
          "blockNumber": "0x732268",
          "transactionHash": "0x089377843a5592d9ac98d4a1eca4bc0267af8f5a00024474f536a7fbf3451667",
          "transactionIndex": "0xa8",
          "logIndex": "0x122",
          "removed": false
        }
      ],
      "logsBloom": "0x00000000800000000000000010000000000000000000000000000000000000000000000000000000000000000000000000000000000000000000000000000000000000000000000000000000000200000000000000000000000000000000000000000000000000000000000000000000000000000000000000000000000000000000000000000000000000000000000000000000000000000000000000000000800000000000000000000000000000000000000000000000000000000000000000000000000008000000000000000000000000000000000000000000000000000000000000000000000000000000000000000010000000000000000000000000",
      "type": "0x2",
      "transactionHash": "0x089377843a5592d9ac98d4a1eca4bc0267af8f5a00024474f536a7fbf3451667",
      "transactionIndex": "0xa8",
      "blockHash": "0x5d57df94d38774dc45d33d8dec82517251c2be39401871b467c304b1eb773928",
      "blockNumber": "0x732268",
      "gasUsed": "0x7577",
      "effectiveGasPrice": "0x2f371f16f",
      "from": "0xddb342ecc94236c29a5307d3757d0724d759453c",
      "to": "0x67b7a14745f14c253beb5d44b767ef1bfb916253",
      "contractAddress": null
    }
  ],
  "libraries": [],
  "pending": [],
  "returns": {},
  "timestamp": 1737529922,
  "chain": 11155111,
  "commit": "fcbff6b"
}