{
  "transactions": [
    {
      "hash": "0x821fa3cfd985ea05639392a10e1f49195365e69c916751872b5384eb5e89b5bc",
      "transactionType": "CALL",
      "contractName": null,
      "contractAddress": "0xca14007eff0db1f8135f4c25b34de49ab0d42766",
      "function": "approve(address,uint256)",
      "arguments": [
        "0x17ceB8Da41205f1026241766328751884Afa7FE8",
        "115792089237316195423570985008687907853269984665640564039457584007913129639935"
      ],
      "transaction": {
        "from": "0xddb342ecc94236c29a5307d3757d0724d759453c",
        "to": "0xca14007eff0db1f8135f4c25b34de49ab0d42766",
        "gas": "0x93a9",
        "value": "0x0",
        "input": "0x095ea7b300000000000000000000000017ceb8da41205f1026241766328751884afa7fe8ffffffffffffffffffffffffffffffffffffffffffffffffffffffffffffffff",
        "nonce": "0x500",
        "chainId": "0xaa36a7"
      },
      "additionalContracts": [],
      "isFixedGasLimit": false
    },
    {
      "hash": "0x301ca927063623492a6918034dacff8bcd94211c6799e0eda1394665e746fb77",
      "transactionType": "CALL",
      "contractName": null,
      "contractAddress": "0x17ceb8da41205f1026241766328751884afa7fe8",
      "function": "setL2EndpointAddress(uint256)",
      "arguments": [
        "3588815645485773455301057135237045874097473162836351057427338525893399114300"
      ],
      "transaction": {
        "from": "0xddb342ecc94236c29a5307d3757d0724d759453c",
        "to": "0x17ceb8da41205f1026241766328751884afa7fe8",
        "gas": "0x9323",
        "value": "0x0",
        "input": "0x5155fb2f07ef329aa8c0ba5021484f46beef73ea9b97575c225fe8cea0436cb44bbf723c",
        "nonce": "0x501",
        "chainId": "0xaa36a7"
      },
      "additionalContracts": [],
      "isFixedGasLimit": false
    }
  ],
  "receipts": [
    {
      "status": "0x1",
      "cumulativeGasUsed": "0xccd0b8",
      "logs": [
        {
          "address": "0xca14007eff0db1f8135f4c25b34de49ab0d42766",
          "topics": [
            "0x8c5be1e5ebec7d5bd14f71427d1e84f3dd0314c0f7b2291e5b200ac8c7c3b925",
            "0x000000000000000000000000ddb342ecc94236c29a5307d3757d0724d759453c",
            "0x00000000000000000000000017ceb8da41205f1026241766328751884afa7fe8"
          ],
          "data": "0xffffffffffffffffffffffffffffffffffffffffffffffffffffffffffffffff",
          "blockHash": "0x82db4320343f881a05c12394045793c45701fcc966c6c96aa23168dfa46bd6e7",
          "blockNumber": "0x730a6c",
          "transactionHash": "0x821fa3cfd985ea05639392a10e1f49195365e69c916751872b5384eb5e89b5bc",
          "transactionIndex": "0x66",
          "logIndex": "0xf2",
          "removed": false
        }
      ],
      "logsBloom": "0x00000000000000000000000000000000000000000000000000000000000000000000000000000000000000000800000000000000000000000000000000200000000000000000000000000000000000000000000000000000000000000000000400000000000000000000000000000000400000000000000000000000400000000000000000000000000000000000000000000000000000000000000000000000020000000000000000000000000000000000000000000000000000000000000000000000000000020000000000000000020000000000000000800000000000000010000000400000000000000000000000000000001000000000000000000000",
      "type": "0x2",
      "transactionHash": "0x821fa3cfd985ea05639392a10e1f49195365e69c916751872b5384eb5e89b5bc",
      "transactionIndex": "0x66",
      "blockHash": "0x82db4320343f881a05c12394045793c45701fcc966c6c96aa23168dfa46bd6e7",
      "blockNumber": "0x730a6c",
      "gasUsed": "0x6ae8",
      "effectiveGasPrice": "0x9bc02fea",
      "from": "0xddb342ecc94236c29a5307d3757d0724d759453c",
      "to": "0xca14007eff0db1f8135f4c25b34de49ab0d42766",
      "contractAddress": null
    },
    {
      "status": "0x1",
      "cumulativeGasUsed": "0xcd3b3f",
      "logs": [
        {
          "address": "0x17ceb8da41205f1026241766328751884afa7fe8",
          "topics": [
            "0xa35dce9e53611b0cabca886209c4a1d09c80214af9b6fb6027f7b2f7c39838e8"
          ],
          "data": "0x07ef329aa8c0ba5021484f46beef73ea9b97575c225fe8cea0436cb44bbf723c",
          "blockHash": "0x82db4320343f881a05c12394045793c45701fcc966c6c96aa23168dfa46bd6e7",
          "blockNumber": "0x730a6c",
          "transactionHash": "0x301ca927063623492a6918034dacff8bcd94211c6799e0eda1394665e746fb77",
          "transactionIndex": "0x67",
          "logIndex": "0xf3",
          "removed": false
        }
      ],
      "logsBloom": "0x00000000000000000000000010000000000000000000000000000000000000000000000000000000000000000000000000000000000000000000000000000000000000000000000000000000000200000000000000000000000000000000000000000000000000000000000000000000000000000000000000000000000000000000000000000000000000000000000000000000000000000000000000000000800000000000000000000000000000000000000004000000000000000000002800000000000000000000000000000000000000000000000000000000000000000000000000000000000000000000000000000000000000000000000000000000",
      "type": "0x2",
      "transactionHash": "0x301ca927063623492a6918034dacff8bcd94211c6799e0eda1394665e746fb77",
      "transactionIndex": "0x67",
      "blockHash": "0x82db4320343f881a05c12394045793c45701fcc966c6c96aa23168dfa46bd6e7",
      "blockNumber": "0x730a6c",
      "gasUsed": "0x6a87",
      "effectiveGasPrice": "0x9bc02fea",
      "from": "0xddb342ecc94236c29a5307d3757d0724d759453c",
      "to": "0x17ceb8da41205f1026241766328751884afa7fe8",
      "contractAddress": null
    }
  ],
  "libraries": [],
  "pending": [],
  "returns": {},
  "timestamp": 1737456036,
  "chain": 11155111,
  "commit": "fcbff6b"
}