{
  "transactions": [
    {
      "hash": "0x39f0bc157023ea645d98997d39fdee6276419d1194b7e706b2936d67e78104ba",
      "transactionType": "CALL",
      "contractName": null,
      "contractAddress": "0xca14007eff0db1f8135f4c25b34de49ab0d42766",
      "function": "approve(address,uint256)",
      "arguments": [
        "0x21e0b6863F74642fc7764Aa1A394079E388a7b53",
        "115792089237316195423570985008687907853269984665640564039457584007913129639935"
      ],
      "transaction": {
        "from": "0xddb342ecc94236c29a5307d3757d0724d759453c",
        "to": "0xca14007eff0db1f8135f4c25b34de49ab0d42766",
        "gas": "0x93a9",
        "value": "0x0",
        "input": "0x095ea7b300000000000000000000000021e0b6863f74642fc7764aa1a394079e388a7b53ffffffffffffffffffffffffffffffffffffffffffffffffffffffffffffffff",
        "nonce": "0x495",
        "chainId": "0xaa36a7"
      },
      "additionalContracts": [],
      "isFixedGasLimit": false
    },
    {
      "hash": "0x315aa12e1e4609839548119ef9adc80f98278c442fbb128aa44f7c68f6682aa3",
      "transactionType": "CALL",
      "contractName": null,
      "contractAddress": "0x21e0b6863f74642fc7764aa1a394079e388a7b53",
      "function": "depositAndCreateOrder((address,uint256,uint256,uint128,uint128,uint128,uint128))",
      "arguments": [
        "(0xDdb342ecc94236c29a5307d3757d0724D759453C, 2009894490435840142178314390393166646092438090257831307886760648929397478285, 2366254414417873771392932940469309727793822550615514268240785277201753657472, 170141183460469235273462165868118016, 1736641648, 1736641776, 700000000000000)"
      ],
      "transaction": {
        "from": "0xddb342ecc94236c29a5307d3757d0724d759453c",
        "to": "0x21e0b6863f74642fc7764aa1a394079e388a7b53",
        "gas": "0x3bcb9",
        "value": "0x1c6bf52634000",
        "input": "0x6c1cc3f4000000000000000000000000ddb342ecc94236c29a5307d3757d0724d759453c04718f5a0fc34cc1af16a1cdee98ffb20c31f5cd61d6ab07201858f4287c938d053b40a647cedfca6ca84f542a0fe36736031905a9639a7f19a3c1e66bfd5080000000000000000000000000000000000020c49ba5e353f800000000000000000000000000000000000000000000000000000000000000000000000067830c700000000000000000000000000000000000000000000000000000000067830cf000000000000000000000000000000000000000000000000000027ca57357c000",
        "nonce": "0x496",
        "chainId": "0xaa36a7"
      },
      "additionalContracts": [],
      "isFixedGasLimit": false
    }
  ],
  "receipts": [
    {
      "status": "0x1",
      "cumulativeGasUsed": "0xa03aee",
      "logs": [
        {
          "address": "0xca14007eff0db1f8135f4c25b34de49ab0d42766",
          "topics": [
            "0x8c5be1e5ebec7d5bd14f71427d1e84f3dd0314c0f7b2291e5b200ac8c7c3b925",
            "0x000000000000000000000000ddb342ecc94236c29a5307d3757d0724d759453c",
            "0x00000000000000000000000021e0b6863f74642fc7764aa1a394079e388a7b53"
          ],
          "data": "0xffffffffffffffffffffffffffffffffffffffffffffffffffffffffffffffff",
          "blockHash": "0x93969ded34ea52a7c460c8a0bbd1cb00362700182a411a532f01fda02c9dcec2",
          "blockNumber": "0x72026d",
          "transactionHash": "0x39f0bc157023ea645d98997d39fdee6276419d1194b7e706b2936d67e78104ba",
          "transactionIndex": "0x45",
          "logIndex": "0x67",
          "removed": false
        }
      ],
      "logsBloom": "0x00000000000000000000000000000000000000000000000000000000000000000000000000000000000000000000000000200000000000000000000000200000000000000000000000000000000000000000000000000000000000000000000600000000000000000000000000000000400000000000000000000000400000000000000000000000000000000000000000000000000000000000000000000000020000000000000000000000000000000000000000000000000000000000000000000000000000020000000000000000000000000000000000800000000000000010000000000000000000000000000200000000001000000000000000000000",
      "type": "0x2",
      "transactionHash": "0x39f0bc157023ea645d98997d39fdee6276419d1194b7e706b2936d67e78104ba",
      "transactionIndex": "0x45",
      "blockHash": "0x93969ded34ea52a7c460c8a0bbd1cb00362700182a411a532f01fda02c9dcec2",
      "blockNumber": "0x72026d",
      "gasUsed": "0x6ae8",
      "effectiveGasPrice": "0x18486db5e",
      "from": "0xddb342ecc94236c29a5307d3757d0724d759453c",
      "to": "0xca14007eff0db1f8135f4c25b34de49ab0d42766",
      "contractAddress": null
    },
    {
      "status": "0x1",
      "cumulativeGasUsed": "0xa2ef17",
      "logs": [
        {
          "address": "0xca14007eff0db1f8135f4c25b34de49ab0d42766",
          "topics": [
            "0x8c5be1e5ebec7d5bd14f71427d1e84f3dd0314c0f7b2291e5b200ac8c7c3b925",
            "0x00000000000000000000000021e0b6863f74642fc7764aa1a394079e388a7b53",
            "0x00000000000000000000000021e0b6863f74642fc7764aa1a394079e388a7b53"
          ],
          "data": "0x00000000000000000000000000000000000000000000000000027ca57357c000",
          "blockHash": "0x93969ded34ea52a7c460c8a0bbd1cb00362700182a411a532f01fda02c9dcec2",
          "blockNumber": "0x72026d",
          "transactionHash": "0x315aa12e1e4609839548119ef9adc80f98278c442fbb128aa44f7c68f6682aa3",
          "transactionIndex": "0x46",
          "logIndex": "0x68",
          "removed": false
        },
        {
          "address": "0xca14007eff0db1f8135f4c25b34de49ab0d42766",
          "topics": [
            "0xddf252ad1be2c89b69c2b068fc378daa952ba7f163c4a11628f55a4df523b3ef",
            "0x000000000000000000000000ddb342ecc94236c29a5307d3757d0724d759453c",
            "0x00000000000000000000000021e0b6863f74642fc7764aa1a394079e388a7b53"
          ],
          "data": "0x00000000000000000000000000000000000000000000000000027ca57357c000",
          "blockHash": "0x93969ded34ea52a7c460c8a0bbd1cb00362700182a411a532f01fda02c9dcec2",
          "blockNumber": "0x72026d",
          "transactionHash": "0x315aa12e1e4609839548119ef9adc80f98278c442fbb128aa44f7c68f6682aa3",
          "transactionIndex": "0x46",
          "logIndex": "0x69",
          "removed": false
        },
        {
          "address": "0xca14007eff0db1f8135f4c25b34de49ab0d42766",
          "topics": [
            "0x8c5be1e5ebec7d5bd14f71427d1e84f3dd0314c0f7b2291e5b200ac8c7c3b925",
            "0x00000000000000000000000021e0b6863f74642fc7764aa1a394079e388a7b53",
            "0x000000000000000000000000ce5485cfb26914c5dce00b9baf0580364dafc7a4"
          ],
          "data": "0x00000000000000000000000000000000000000000000000000027ca57357c000",
          "blockHash": "0x93969ded34ea52a7c460c8a0bbd1cb00362700182a411a532f01fda02c9dcec2",
          "blockNumber": "0x72026d",
          "transactionHash": "0x315aa12e1e4609839548119ef9adc80f98278c442fbb128aa44f7c68f6682aa3",
          "transactionIndex": "0x46",
          "logIndex": "0x6a",
          "removed": false
        },
        {
          "address": "0xca14007eff0db1f8135f4c25b34de49ab0d42766",
          "topics": [
            "0x8c5be1e5ebec7d5bd14f71427d1e84f3dd0314c0f7b2291e5b200ac8c7c3b925",
            "0x00000000000000000000000021e0b6863f74642fc7764aa1a394079e388a7b53",
            "0x000000000000000000000000ce5485cfb26914c5dce00b9baf0580364dafc7a4"
          ],
          "data": "0x0000000000000000000000000000000000000000000000000000000000000000",
          "blockHash": "0x93969ded34ea52a7c460c8a0bbd1cb00362700182a411a532f01fda02c9dcec2",
          "blockNumber": "0x72026d",
          "transactionHash": "0x315aa12e1e4609839548119ef9adc80f98278c442fbb128aa44f7c68f6682aa3",
          "transactionIndex": "0x46",
          "logIndex": "0x6b",
          "removed": false
        },
        {
          "address": "0xca14007eff0db1f8135f4c25b34de49ab0d42766",
          "topics": [
            "0xddf252ad1be2c89b69c2b068fc378daa952ba7f163c4a11628f55a4df523b3ef",
            "0x00000000000000000000000021e0b6863f74642fc7764aa1a394079e388a7b53",
            "0x000000000000000000000000ce5485cfb26914c5dce00b9baf0580364dafc7a4"
          ],
          "data": "0x00000000000000000000000000000000000000000000000000027ca57357c000",
          "blockHash": "0x93969ded34ea52a7c460c8a0bbd1cb00362700182a411a532f01fda02c9dcec2",
          "blockNumber": "0x72026d",
          "transactionHash": "0x315aa12e1e4609839548119ef9adc80f98278c442fbb128aa44f7c68f6682aa3",
          "transactionIndex": "0x46",
          "logIndex": "0x6c",
          "removed": false
        },
        {
          "address": "0xe2bb56ee936fd6433dc0f6e7e3b8365c906aa057",
          "topics": [
            "0xdb80dd488acf86d17c747445b0eabb5d57c541d3bd7b6b87af987858e5066b2b",
            "0x000000000000000000000000ce5485cfb26914c5dce00b9baf0580364dafc7a4",
            "0x0594c1582459ea03f77deaf9eb7e3917d6994a03c13405ba42867f83d85f085d",
            "0x008bce41827dd5484d80312a2e43bc42a896e3fcf75bf84c2b49339168dfa00a"
          ],
          "data": "0x00000000000000000000000000000000000000000000000000000000000000600000000000000000000000000000000000000000000000000000000000002b820000000000000000000000000000000000000000000000000001c6bf52634000000000000000000000000000000000000000000000000000000000000000000e000000000000000000000000ca14007eff0db1f8135f4c25b34de49ab0d4276600000000000000000000000021e0b6863f74642fc7764aa1a394079e388a7b53060b8382f1bcb96d57e087f2042a19337b45dbe0a1c7d0d68e7c8906384be49a00000000000000000000000000000000000000000000000000027ca57357c000000000000000000000000000000000000000000000000000000000000000000000000000000000000000000000000000000000000000000000000000000000080000000000000000000000000000000000000000000000000000000000000000000000000000000000000000ddb342ecc94236c29a5307d3757d0724d759453c04718f5a0fc34cc1af16a1cdee98ffb20c31f5cd61d6ab07201858f4287c938d053b40a647cedfca6ca84f542a0fe36736031905a9639a7f19a3c1e66bfd5080000000000000000000000000000000000020c49ba5e353f800000000000000000000000000000000000000000000000000000000000000000000000067830c700000000000000000000000000000000000000000000000000000000067830cf000000000000000000000000000000000000000000000000000027ca57357c000",
          "blockHash": "0x93969ded34ea52a7c460c8a0bbd1cb00362700182a411a532f01fda02c9dcec2",
          "blockNumber": "0x72026d",
          "transactionHash": "0x315aa12e1e4609839548119ef9adc80f98278c442fbb128aa44f7c68f6682aa3",
          "transactionIndex": "0x46",
          "logIndex": "0x6d",
          "removed": false
        },
        {
          "address": "0xce5485cfb26914c5dce00b9baf0580364dafc7a4",
          "topics": [
            "0x2203a49c69f1a46c1164f5e4a30643dd77b7c59c0ff9bc433256048365c247f1",
            "0x00000000000000000000000021e0b6863f74642fc7764aa1a394079e388a7b53",
            "0x000000000000000000000000ca14007eff0db1f8135f4c25b34de49ab0d42766",
            "0x060b8382f1bcb96d57e087f2042a19337b45dbe0a1c7d0d68e7c8906384be49a"
          ],
          "data": "0x00000000000000000000000000000000000000000000000000027ca57357c00000000000000000000000000000000000000000000000000000000000000000800000000000000000000000000000000000000000000000000000000000002b820000000000000000000000000000000000000000000000000001c6bf5263400000000000000000000000000000000000000000000000000000000000000000080000000000000000000000000000000000000000000000000000000000000000000000000000000000000000ddb342ecc94236c29a5307d3757d0724d759453c04718f5a0fc34cc1af16a1cdee98ffb20c31f5cd61d6ab07201858f4287c938d053b40a647cedfca6ca84f542a0fe36736031905a9639a7f19a3c1e66bfd5080000000000000000000000000000000000020c49ba5e353f800000000000000000000000000000000000000000000000000000000000000000000000067830c700000000000000000000000000000000000000000000000000000000067830cf000000000000000000000000000000000000000000000000000027ca57357c000",
          "blockHash": "0x93969ded34ea52a7c460c8a0bbd1cb00362700182a411a532f01fda02c9dcec2",
          "blockNumber": "0x72026d",
          "transactionHash": "0x315aa12e1e4609839548119ef9adc80f98278c442fbb128aa44f7c68f6682aa3",
          "transactionIndex": "0x46",
          "logIndex": "0x6e",
          "removed": false
        },
        {
          "address": "0x21e0b6863f74642fc7764aa1a394079e388a7b53",
          "topics": [
            "0xaf43445f7721522b7a3864ed3de53d7e2e658bfa1eeffa18e1e229be68ce2545",
            "0x000000000000000000000000ddb342ecc94236c29a5307d3757d0724d759453c",
            "0x060b8382f1bcb96d57e087f2042a19337b45dbe0a1c7d0d68e7c8906384be49a"
          ],
          "data": "0x00000000000000000000000000000000000000000000000000027ca57357c0000000000000000000000000000000000000000000000000000000000000000001",
          "blockHash": "0x93969ded34ea52a7c460c8a0bbd1cb00362700182a411a532f01fda02c9dcec2",
          "blockNumber": "0x72026d",
          "transactionHash": "0x315aa12e1e4609839548119ef9adc80f98278c442fbb128aa44f7c68f6682aa3",
          "transactionIndex": "0x46",
          "logIndex": "0x6f",
          "removed": false
        }
      ],
      "logsBloom": "0x00000210000000000000000000020000000000000000000000000040000000000000000000000000000000000000000000200000000004000000020000200000000000000040000000000208080000000040000000000040001000000000000600000000100000000000000000000000400000000000008000000010400008002000000000000000000000020000000000008000000200000000000000000010020000800000001000000020000000021000000000000000000000000000000000800002000000024010000000000000000000200000000000800000000000000010000000010000000000020004000200000000001000000000000000000000",
      "type": "0x2",
      "transactionHash": "0x315aa12e1e4609839548119ef9adc80f98278c442fbb128aa44f7c68f6682aa3",
      "transactionIndex": "0x46",
      "blockHash": "0x93969ded34ea52a7c460c8a0bbd1cb00362700182a411a532f01fda02c9dcec2",
      "blockNumber": "0x72026d",
      "gasUsed": "0x2b429",
      "effectiveGasPrice": "0x18486db5e",
      "from": "0xddb342ecc94236c29a5307d3757d0724d759453c",
      "to": "0x21e0b6863f74642fc7764aa1a394079e388a7b53",
      "contractAddress": null
    }
  ],
  "libraries": [],
  "pending": [],
  "returns": {},
  "timestamp": 1736641670,
  "chain": 11155111,
  "commit": "81b7af0"
}