{
  "transactions": [
    {
      "hash": "0x9d239249d52bc9993fc81c2f78236141d16cd2fc6fc386f34a8d4bc3b08b0a84",
      "transactionType": "CALL",
      "contractName": null,
      "contractAddress": "0xca14007eff0db1f8135f4c25b34de49ab0d42766",
      "function": "approve(address,uint256)",
      "arguments": [
        "0x17ceB8Da41205f1026241766328751884Afa7FE8",
        "115792089237316195423570985008687907853269984665640564039457584007913129639935"
      ],
      "transaction": {
        "from": "0xddb342ecc94236c29a5307d3757d0724d759453c",
        "to": "0xca14007eff0db1f8135f4c25b34de49ab0d42766",
        "gas": "0x93a9",
        "value": "0x0",
        "input": "0x095ea7b300000000000000000000000017ceb8da41205f1026241766328751884afa7fe8ffffffffffffffffffffffffffffffffffffffffffffffffffffffffffffffff",
        "nonce": "0x4d0",
        "chainId": "0xaa36a7"
      },
      "additionalContracts": [],
      "isFixedGasLimit": false
    },
    {
      "hash": "0x4d45b0f696838b67b6985860d0406bc8ddf75aab039975ff1d3d5cdf514b3074",
      "transactionType": "CALL",
      "contractName": null,
      "contractAddress": "0x17ceb8da41205f1026241766328751884afa7fe8",
      "function": "depositAndCreateOrder((address,uint256,uint256,uint128,uint128,uint128,uint128))",
      "arguments": [
        "(0xDdb342ecc94236c29a5307d3757d0724D759453C, 2009894490435840142178314390393166646092438090257831307886760648929397478285, 2366254414417873771392932940469309727793822550615514268240785277201753657472, 170141183460469235273462165868118016, 1737390768, 1737390896, 700000000000000)"
      ],
      "transaction": {
        "from": "0xddb342ecc94236c29a5307d3757d0724d759453c",
        "to": "0x17ceb8da41205f1026241766328751884afa7fe8",
        "gas": "0x3f57a",
        "value": "0x1c6bf52634000",
        "input": "0x6c1cc3f4000000000000000000000000ddb342ecc94236c29a5307d3757d0724d759453c04718f5a0fc34cc1af16a1cdee98ffb20c31f5cd61d6ab07201858f4287c938d053b40a647cedfca6ca84f542a0fe36736031905a9639a7f19a3c1e66bfd5080000000000000000000000000000000000020c49ba5e353f8000000000000000000000000000000000000000000000000000000000000000000000000678e7ab000000000000000000000000000000000000000000000000000000000678e7b3000000000000000000000000000000000000000000000000000027ca57357c000",
        "nonce": "0x4d1",
        "chainId": "0xaa36a7"
      },
      "additionalContracts": [],
      "isFixedGasLimit": false
    }
  ],
  "receipts": [
    {
      "status": "0x1",
      "cumulativeGasUsed": "0x1d33f59",
      "logs": [
        {
          "address": "0xca14007eff0db1f8135f4c25b34de49ab0d42766",
          "topics": [
            "0x8c5be1e5ebec7d5bd14f71427d1e84f3dd0314c0f7b2291e5b200ac8c7c3b925",
            "0x000000000000000000000000ddb342ecc94236c29a5307d3757d0724d759453c",
            "0x00000000000000000000000017ceb8da41205f1026241766328751884afa7fe8"
          ],
          "data": "0xffffffffffffffffffffffffffffffffffffffffffffffffffffffffffffffff",
          "blockHash": "0x9a7534c51da887bbcd1047b8667f82f6415279b8131775746f844bec6b4fc7b3",
          "blockNumber": "0x72f53d",
          "transactionHash": "0x9d239249d52bc9993fc81c2f78236141d16cd2fc6fc386f34a8d4bc3b08b0a84",
          "transactionIndex": "0x109",
          "logIndex": "0x211",
          "removed": false
        }
      ],
      "logsBloom": "0x00000000000000000000000000000000000000000000000000000000000000000000000000000000000000000800000000000000000000000000000000200000000000000000000000000000000000000000000000000000000000000000000400000000000000000000000000000000400000000000000000000000400000000000000000000000000000000000000000000000000000000000000000000000020000000000000000000000000000000000000000000000000000000000000000000000000000020000000000000000020000000000000000800000000000000010000000400000000000000000000000000000001000000000000000000000",
      "type": "0x2",
      "transactionHash": "0x9d239249d52bc9993fc81c2f78236141d16cd2fc6fc386f34a8d4bc3b08b0a84",
      "transactionIndex": "0x109",
      "blockHash": "0x9a7534c51da887bbcd1047b8667f82f6415279b8131775746f844bec6b4fc7b3",
      "blockNumber": "0x72f53d",
      "gasUsed": "0x6ae8",
      "effectiveGasPrice": "0x4e3c29fc",
      "from": "0xddb342ecc94236c29a5307d3757d0724d759453c",
      "to": "0xca14007eff0db1f8135f4c25b34de49ab0d42766",
      "contractAddress": null
    },
    {
      "status": "0x1",
      "cumulativeGasUsed": "0x1d5f3d5",
      "logs": [
        {
          "address": "0xca14007eff0db1f8135f4c25b34de49ab0d42766",
          "topics": [
            "0x8c5be1e5ebec7d5bd14f71427d1e84f3dd0314c0f7b2291e5b200ac8c7c3b925",
            "0x00000000000000000000000017ceb8da41205f1026241766328751884afa7fe8",
            "0x00000000000000000000000017ceb8da41205f1026241766328751884afa7fe8"
          ],
          "data": "0x00000000000000000000000000000000000000000000000000027ca57357c000",
          "blockHash": "0x9a7534c51da887bbcd1047b8667f82f6415279b8131775746f844bec6b4fc7b3",
          "blockNumber": "0x72f53d",
          "transactionHash": "0x4d45b0f696838b67b6985860d0406bc8ddf75aab039975ff1d3d5cdf514b3074",
          "transactionIndex": "0x10a",
          "logIndex": "0x212",
          "removed": false
        },
        {
          "address": "0xca14007eff0db1f8135f4c25b34de49ab0d42766",
          "topics": [
            "0xddf252ad1be2c89b69c2b068fc378daa952ba7f163c4a11628f55a4df523b3ef",
            "0x000000000000000000000000ddb342ecc94236c29a5307d3757d0724d759453c",
            "0x00000000000000000000000017ceb8da41205f1026241766328751884afa7fe8"
          ],
          "data": "0x00000000000000000000000000000000000000000000000000027ca57357c000",
          "blockHash": "0x9a7534c51da887bbcd1047b8667f82f6415279b8131775746f844bec6b4fc7b3",
          "blockNumber": "0x72f53d",
          "transactionHash": "0x4d45b0f696838b67b6985860d0406bc8ddf75aab039975ff1d3d5cdf514b3074",
          "transactionIndex": "0x10a",
          "logIndex": "0x213",
          "removed": false
        },
        {
          "address": "0xca14007eff0db1f8135f4c25b34de49ab0d42766",
          "topics": [
            "0x8c5be1e5ebec7d5bd14f71427d1e84f3dd0314c0f7b2291e5b200ac8c7c3b925",
            "0x00000000000000000000000017ceb8da41205f1026241766328751884afa7fe8",
            "0x000000000000000000000000ce5485cfb26914c5dce00b9baf0580364dafc7a4"
          ],
          "data": "0x00000000000000000000000000000000000000000000000000027ca57357c000",
          "blockHash": "0x9a7534c51da887bbcd1047b8667f82f6415279b8131775746f844bec6b4fc7b3",
          "blockNumber": "0x72f53d",
          "transactionHash": "0x4d45b0f696838b67b6985860d0406bc8ddf75aab039975ff1d3d5cdf514b3074",
          "transactionIndex": "0x10a",
          "logIndex": "0x214",
          "removed": false
        },
        {
          "address": "0xca14007eff0db1f8135f4c25b34de49ab0d42766",
          "topics": [
            "0x8c5be1e5ebec7d5bd14f71427d1e84f3dd0314c0f7b2291e5b200ac8c7c3b925",
            "0x00000000000000000000000017ceb8da41205f1026241766328751884afa7fe8",
            "0x000000000000000000000000ce5485cfb26914c5dce00b9baf0580364dafc7a4"
          ],
          "data": "0x0000000000000000000000000000000000000000000000000000000000000000",
          "blockHash": "0x9a7534c51da887bbcd1047b8667f82f6415279b8131775746f844bec6b4fc7b3",
          "blockNumber": "0x72f53d",
          "transactionHash": "0x4d45b0f696838b67b6985860d0406bc8ddf75aab039975ff1d3d5cdf514b3074",
          "transactionIndex": "0x10a",
          "logIndex": "0x215",
          "removed": false
        },
        {
          "address": "0xca14007eff0db1f8135f4c25b34de49ab0d42766",
          "topics": [
            "0xddf252ad1be2c89b69c2b068fc378daa952ba7f163c4a11628f55a4df523b3ef",
            "0x00000000000000000000000017ceb8da41205f1026241766328751884afa7fe8",
            "0x000000000000000000000000ce5485cfb26914c5dce00b9baf0580364dafc7a4"
          ],
          "data": "0x00000000000000000000000000000000000000000000000000027ca57357c000",
          "blockHash": "0x9a7534c51da887bbcd1047b8667f82f6415279b8131775746f844bec6b4fc7b3",
          "blockNumber": "0x72f53d",
          "transactionHash": "0x4d45b0f696838b67b6985860d0406bc8ddf75aab039975ff1d3d5cdf514b3074",
          "transactionIndex": "0x10a",
          "logIndex": "0x216",
          "removed": false
        },
        {
          "address": "0xe2bb56ee936fd6433dc0f6e7e3b8365c906aa057",
          "topics": [
            "0xdb80dd488acf86d17c747445b0eabb5d57c541d3bd7b6b87af987858e5066b2b",
            "0x000000000000000000000000ce5485cfb26914c5dce00b9baf0580364dafc7a4",
            "0x0594c1582459ea03f77deaf9eb7e3917d6994a03c13405ba42867f83d85f085d",
            "0x008bce41827dd5484d80312a2e43bc42a896e3fcf75bf84c2b49339168dfa00a"
          ],
          "data": "0x00000000000000000000000000000000000000000000000000000000000000600000000000000000000000000000000000000000000000000000000000002c340000000000000000000000000000000000000000000000000001c6bf52634000000000000000000000000000000000000000000000000000000000000000000e000000000000000000000000ca14007eff0db1f8135f4c25b34de49ab0d4276600000000000000000000000017ceb8da41205f1026241766328751884afa7fe807f7634d530030231a04892601d83bbc79defee8145d116d18fc4978e21f274100000000000000000000000000000000000000000000000000027ca57357c000000000000000000000000000000000000000000000000000000000000000000000000000000000000000000000000000000000000000000000000000000000080000000000000000000000000000000000000000000000000000000000000000000000000000000000000000ddb342ecc94236c29a5307d3757d0724d759453c04718f5a0fc34cc1af16a1cdee98ffb20c31f5cd61d6ab07201858f4287c938d053b40a647cedfca6ca84f542a0fe36736031905a9639a7f19a3c1e66bfd5080000000000000000000000000000000000020c49ba5e353f8000000000000000000000000000000000000000000000000000000000000000000000000678e7ab000000000000000000000000000000000000000000000000000000000678e7b3000000000000000000000000000000000000000000000000000027ca57357c000",
          "blockHash": "0x9a7534c51da887bbcd1047b8667f82f6415279b8131775746f844bec6b4fc7b3",
          "blockNumber": "0x72f53d",
          "transactionHash": "0x4d45b0f696838b67b6985860d0406bc8ddf75aab039975ff1d3d5cdf514b3074",
          "transactionIndex": "0x10a",
          "logIndex": "0x217",
          "removed": false
        },
        {
          "address": "0xce5485cfb26914c5dce00b9baf0580364dafc7a4",
          "topics": [
            "0x2203a49c69f1a46c1164f5e4a30643dd77b7c59c0ff9bc433256048365c247f1",
            "0x00000000000000000000000017ceb8da41205f1026241766328751884afa7fe8",
            "0x000000000000000000000000ca14007eff0db1f8135f4c25b34de49ab0d42766",
            "0x07f7634d530030231a04892601d83bbc79defee8145d116d18fc4978e21f2741"
          ],
          "data": "0x00000000000000000000000000000000000000000000000000027ca57357c00000000000000000000000000000000000000000000000000000000000000000800000000000000000000000000000000000000000000000000000000000002c340000000000000000000000000000000000000000000000000001c6bf5263400000000000000000000000000000000000000000000000000000000000000000080000000000000000000000000000000000000000000000000000000000000000000000000000000000000000ddb342ecc94236c29a5307d3757d0724d759453c04718f5a0fc34cc1af16a1cdee98ffb20c31f5cd61d6ab07201858f4287c938d053b40a647cedfca6ca84f542a0fe36736031905a9639a7f19a3c1e66bfd5080000000000000000000000000000000000020c49ba5e353f8000000000000000000000000000000000000000000000000000000000000000000000000678e7ab000000000000000000000000000000000000000000000000000000000678e7b3000000000000000000000000000000000000000000000000000027ca57357c000",
          "blockHash": "0x9a7534c51da887bbcd1047b8667f82f6415279b8131775746f844bec6b4fc7b3",
          "blockNumber": "0x72f53d",
          "transactionHash": "0x4d45b0f696838b67b6985860d0406bc8ddf75aab039975ff1d3d5cdf514b3074",
          "transactionIndex": "0x10a",
          "logIndex": "0x218",
          "removed": false
        },
        {
          "address": "0x17ceb8da41205f1026241766328751884afa7fe8",
          "topics": [
            "0xaf43445f7721522b7a3864ed3de53d7e2e658bfa1eeffa18e1e229be68ce2545",
            "0x000000000000000000000000ddb342ecc94236c29a5307d3757d0724d759453c",
            "0x07f7634d530030231a04892601d83bbc79defee8145d116d18fc4978e21f2741"
          ],
          "data": "0x00000000000000000000000000000000000000000000000000027ca57357c0000000000000000000000000000000000000000000000000000000000000000001",
          "blockHash": "0x9a7534c51da887bbcd1047b8667f82f6415279b8131775746f844bec6b4fc7b3",
          "blockNumber": "0x72f53d",
          "transactionHash": "0x4d45b0f696838b67b6985860d0406bc8ddf75aab039975ff1d3d5cdf514b3074",
          "transactionIndex": "0x10a",
          "logIndex": "0x219",
          "removed": false
        }
      ],
      "logsBloom": "0x00000200000000000000000000020000000000000000000000000040000000000000000000000000000000000800000000000000000004000000020000200000000000000000000000000008080000000000000000000040001000000000000600000000100000000000000000000000400000000000000000000010400008002000000000000000000000020000000000008000002200000000000000000010020000800000000000000020000000021000000004000000000000000000002800800002000000024010200000000000020000200000000000800000000000000010000000410000000000020004000000000000001000000000000000200000",
      "type": "0x2",
      "transactionHash": "0x4d45b0f696838b67b6985860d0406bc8ddf75aab039975ff1d3d5cdf514b3074",
      "transactionIndex": "0x10a",
      "blockHash": "0x9a7534c51da887bbcd1047b8667f82f6415279b8131775746f844bec6b4fc7b3",
      "blockNumber": "0x72f53d",
      "gasUsed": "0x2b47c",
      "effectiveGasPrice": "0x4e3c29fc",
      "from": "0xddb342ecc94236c29a5307d3757d0724d759453c",
      "to": "0x17ceb8da41205f1026241766328751884afa7fe8",
      "contractAddress": null
    }
  ],
  "libraries": [],
  "pending": [],
  "returns": {},
  "timestamp": 1737390794,
  "chain": 11155111,
  "commit": "fcbff6b"
}