{
  "transactions": [
    {
      "hash": "0xe976ef509726c23a1c568257e43a50bb6419df44d99b84f5f7ee764e56990bd0",
      "transactionType": "CALL",
      "contractName": "StarkNetToken",
      "contractAddress": "0xCa14007Eff0dB1f8135f4C25B34De49AB0d42766",
      "function": "approve(address,uint256)",
      "arguments": [
        "0xA815ABbF8Afc0351634d24589571c18aC5aF39A8",
        "115792089237316195423570985008687907853269984665640564039457584007913129639935"
      ],
      "transaction": {
        "type": "0x02",
        "from": "0xddb342ecc94236c29a5307d3757d0724d759453c",
        "to": "0xca14007eff0db1f8135f4c25b34de49ab0d42766",
        "gas": "0x93a9",
        "value": "0x0",
        "data": "0x095ea7b3000000000000000000000000a815abbf8afc0351634d24589571c18ac5af39a8ffffffffffffffffffffffffffffffffffffffffffffffffffffffffffffffff",
        "nonce": "0x239",
        "accessList": []
      },
      "additionalContracts": [],
      "isFixedGasLimit": false
    },
    {
      "hash": "0xd431850389bca7d24682cfd8c242262f184f7e8e66aba433332463992618fb92",
      "transactionType": "CALL",
      "contractName": "L1TWAMMBridge",
      "contractAddress": "0xA815ABbF8Afc0351634d24589571c18aC5aF39A8",
      "function": "_sendMessage(uint256,uint256,uint256[])",
      "arguments": [
        "1102960070594262557918167933952258098055217561598791692628525497201784430882",
        "148648911813996339441237705416989480313666662291090082193117818992478592220",
        "[2]"
      ],
      "transaction": {
        "type": "0x02",
        "from": "0xddb342ecc94236c29a5307d3757d0724d759453c",
        "to": "0xa815abbf8afc0351634d24589571c18ac5af39a8",
        "gas": "0x19983",
        "value": "0x38d7ea4c68000",
        "data": "0x88f439ef027040d6c73221edaf679c12e94fbe265ce569d8c8339ae8b1013842cba2a122005421de947699472df434466845d68528f221a52fce7ad2934c5dae2e1f1cdc000000000000000000000000000000000000000000000000000000000000006000000000000000000000000000000000000000000000000000000000000000010000000000000000000000000000000000000000000000000000000000000002",
        "nonce": "0x23a",
        "accessList": []
      },
      "additionalContracts": [],
      "isFixedGasLimit": false
    }
  ],
  "receipts": [
    {
      "transactionHash": "0xe976ef509726c23a1c568257e43a50bb6419df44d99b84f5f7ee764e56990bd0",
      "transactionIndex": "0x2",
      "blockHash": "0xbb9c90a6cdcc4da5193d347305acd5d0686d2b66158042f1a87ce0b3ef3fe05d",
      "blockNumber": "0x6b5990",
      "from": "0xDdb342ecc94236c29a5307d3757d0724D759453C",
      "to": "0xCa14007Eff0dB1f8135f4C25B34De49AB0d42766",
      "cumulativeGasUsed": "0x10ef8",
      "gasUsed": "0x6ae8",
      "contractAddress": null,
      "logs": [
        {
          "address": "0xCa14007Eff0dB1f8135f4C25B34De49AB0d42766",
          "topics": [
            "0x8c5be1e5ebec7d5bd14f71427d1e84f3dd0314c0f7b2291e5b200ac8c7c3b925",
            "0x000000000000000000000000ddb342ecc94236c29a5307d3757d0724d759453c",
            "0x000000000000000000000000a815abbf8afc0351634d24589571c18ac5af39a8"
          ],
          "data": "0xffffffffffffffffffffffffffffffffffffffffffffffffffffffffffffffff",
          "blockHash": "0xbb9c90a6cdcc4da5193d347305acd5d0686d2b66158042f1a87ce0b3ef3fe05d",
          "blockNumber": "0x6b5990",
          "transactionHash": "0xe976ef509726c23a1c568257e43a50bb6419df44d99b84f5f7ee764e56990bd0",
          "transactionIndex": "0x2",
          "logIndex": "0x0",
          "removed": false
        }
      ],
      "status": "0x1",
      "logsBloom": "0x00000000000000000000000000000000000000000000000000000000000000000000000400000000000000000000000000000000000000000000000000200000000000000000000000000000000000000000000000000000000000000000000400000000000000000000000000000000400000000000000000000001400000000000000000000000000000000000000000000000000000000000000000000000020000000000000000001000000000000000000000000000000000000000000000000000000000020000000000000000000000000000000000800000000000000010000000000000000000000000000000000000001000000000000000000000",
      "type": "0x2",
      "effectiveGasPrice": "0x332b4789b"
    },
    {
      "transactionHash": "0xd431850389bca7d24682cfd8c242262f184f7e8e66aba433332463992618fb92",
      "transactionIndex": "0x3",
      "blockHash": "0xbb9c90a6cdcc4da5193d347305acd5d0686d2b66158042f1a87ce0b3ef3fe05d",
      "blockNumber": "0x6b5990",
      "from": "0xDdb342ecc94236c29a5307d3757d0724D759453C",
      "to": "0xA815ABbF8Afc0351634d24589571c18aC5aF39A8",
      "cumulativeGasUsed": "0x226fb",
      "gasUsed": "0x11803",
      "contractAddress": null,
      "logs": [
        {
          "address": "0xE2Bb56ee936fd6433DC0F6e7e3b8365C906AA057",
          "topics": [
            "0xdb80dd488acf86d17c747445b0eabb5d57c541d3bd7b6b87af987858e5066b2b",
            "0x000000000000000000000000a815abbf8afc0351634d24589571c18ac5af39a8",
            "0x027040d6c73221edaf679c12e94fbe265ce569d8c8339ae8b1013842cba2a122",
            "0x005421de947699472df434466845d68528f221a52fce7ad2934c5dae2e1f1cdc"
          ],
          "data": "0x0000000000000000000000000000000000000000000000000000000000000060000000000000000000000000000000000000000000000000000000000000279800000000000000000000000000000000000000000000000000038d7ea4c6800000000000000000000000000000000000000000000000000000000000000000010000000000000000000000000000000000000000000000000000000000000002",
          "blockHash": "0xbb9c90a6cdcc4da5193d347305acd5d0686d2b66158042f1a87ce0b3ef3fe05d",
          "blockNumber": "0x6b5990",
          "transactionHash": "0xd431850389bca7d24682cfd8c242262f184f7e8e66aba433332463992618fb92",
          "transactionIndex": "0x3",
          "logIndex": "0x1",
          "removed": false
        }
      ],
      "status": "0x1",
      "logsBloom": "0x00000000000000000000000000020000000040000000000000000000000001000000000400000000000000000000000000000000000000000000000000000000000000000000000000000000000000000000000000000040001000000000000000000000100000000000000000020000000000000000000000000001000000000000000000000000000040000000000000000000000000000000000000000010000000040000000000001020000000000000000000000000000000000000000000000000000000000000000000000000000000000000000000000000000000000000000000000000000000000000000800000000000000000000000000000000",
      "type": "0x2",
      "effectiveGasPrice": "0x332b4789b"
    }
  ],
  "libraries": [],
  "pending": [],
  "returns": {},
  "timestamp": 1731053405,
  "chain": 11155111,
  "multi": false,
  "commit": "7c9bc56"
}