{
  "transactions": [
    {
      "hash": "0xc4e3ce4b0b8cbc97d8e598c81f3c8b1519566c43bc9cc81c75ce49f1b7104b52",
      "transactionType": "CALL",
      "contractName": null,
      "contractAddress": "0xca14007eff0db1f8135f4c25b34de49ab0d42766",
      "function": "approve(address,uint256)",
      "arguments": [
        "0x57EC6c2CC9Df888aA21b2b27C69d10b7657170E3",
        "115792089237316195423570985008687907853269984665640564039457584007913129639935"
      ],
      "transaction": {
        "from": "0xddb342ecc94236c29a5307d3757d0724d759453c",
        "to": "0xca14007eff0db1f8135f4c25b34de49ab0d42766",
        "gas": "0x93a9",
        "value": "0x0",
        "input": "0x095ea7b300000000000000000000000057ec6c2cc9df888aa21b2b27c69d10b7657170e3ffffffffffffffffffffffffffffffffffffffffffffffffffffffffffffffff",
        "nonce": "0x561",
        "chainId": "0xaa36a7"
      },
      "additionalContracts": [],
      "isFixedGasLimit": false
    },
    {
      "hash": "0xed0d4bbe09f9bee964e1a3717e311660c8dfc81d90f4be6b67c9d2127014441a",
      "transactionType": "CALL",
      "contractName": null,
      "contractAddress": "0x57ec6c2cc9df888aa21b2b27c69d10b7657170e3",
      "function": "initiateWithdrawal((address,uint256,uint256,uint128,uint128,uint128,uint128),uint64)",
      "arguments": [
        "(0xDdb342ecc94236c29a5307d3757d0724D759453C, 2009894490435840142178314390393166646092438090257831307886760648929397478285, 2366254414417873771392932940469309727793822550615514268240785277201753657472, 170141183460469235273462165868118016, 1738066320, 1738066448, 50000000000000000)",
        "561"
      ],
      "transaction": {
        "from": "0xddb342ecc94236c29a5307d3757d0724d759453c",
        "to": "0x57ec6c2cc9df888aa21b2b27c69d10b7657170e3",
        "gas": "0x1a972",
        "value": "0x1c6bf52634000",
        "input": "0xf9dd8aad000000000000000000000000ddb342ecc94236c29a5307d3757d0724d759453c04718f5a0fc34cc1af16a1cdee98ffb20c31f5cd61d6ab07201858f4287c938d053b40a647cedfca6ca84f542a0fe36736031905a9639a7f19a3c1e66bfd5080000000000000000000000000000000000020c49ba5e353f80000000000000000000000000000000000000000000000000000000000000000000000006798c990000000000000000000000000000000000000000000000000000000006798ca1000000000000000000000000000000000000000000000000000b1a2bc2ec500000000000000000000000000000000000000000000000000000000000000000231",
        "nonce": "0x562",
        "chainId": "0xaa36a7"
      },
      "additionalContracts": [],
      "isFixedGasLimit": false
    }
  ],
  "receipts": [
    {
      "status": "0x1",
      "cumulativeGasUsed": "0xce6088",
      "logs": [
        {
          "address": "0xca14007eff0db1f8135f4c25b34de49ab0d42766",
          "topics": [
            "0x8c5be1e5ebec7d5bd14f71427d1e84f3dd0314c0f7b2291e5b200ac8c7c3b925",
            "0x000000000000000000000000ddb342ecc94236c29a5307d3757d0724d759453c",
            "0x00000000000000000000000057ec6c2cc9df888aa21b2b27c69d10b7657170e3"
          ],
          "data": "0xffffffffffffffffffffffffffffffffffffffffffffffffffffffffffffffff",
          "blockHash": "0xb600a8d4bafd8dcbaf5af1bca313f4faa78e26b8c34ce24e0668ec9d48478663",
          "blockNumber": "0x73cbca",
          "transactionHash": "0xc4e3ce4b0b8cbc97d8e598c81f3c8b1519566c43bc9cc81c75ce49f1b7104b52",
          "transactionIndex": "0x93",
          "logIndex": "0xe7",
          "removed": false
        }
      ],
      "logsBloom": "0x00000000000000000000000000000000000001000000000000000000000000000000000000000000000000000000000000000000000000000000000000200000000800000000000000000000000000000000000000000000000000000000000400000000000000000000000000000000400000000000000000000000400000000000000000000000000000000000000000000000000000000000000000100000020000000000000000000000000000000000000000000000000000000000000000000000000000020000000000000000000000000000000000800000000000000010000000000000000000000000000000000000001000000000000000000000",
      "type": "0x2",
      "transactionHash": "0xc4e3ce4b0b8cbc97d8e598c81f3c8b1519566c43bc9cc81c75ce49f1b7104b52",
      "transactionIndex": "0x93",
      "blockHash": "0xb600a8d4bafd8dcbaf5af1bca313f4faa78e26b8c34ce24e0668ec9d48478663",
      "blockNumber": "0x73cbca",
      "gasUsed": "0x6ae8",
      "effectiveGasPrice": "0x6d5fddd61",
      "from": "0xddb342ecc94236c29a5307d3757d0724d759453c",
      "to": "0xca14007eff0db1f8135f4c25b34de49ab0d42766",
      "contractAddress": null
    },
    {
      "status": "0x1",
      "cumulativeGasUsed": "0xcf948c",
      "logs": [
        {
          "address": "0xe2bb56ee936fd6433dc0f6e7e3b8365c906aa057",
          "topics": [
            "0xdb80dd488acf86d17c747445b0eabb5d57c541d3bd7b6b87af987858e5066b2b",
            "0x00000000000000000000000057ec6c2cc9df888aa21b2b27c69d10b7657170e3",
            "0x07b8349904d9c71692e79562974356da19063445ec8be1d53fc07cc87ce83ac0",
            "0x00f1149cade9d692862ad41df96b108aa2c20af34f640457e781d166c98dc6b0"
          ],
          "data": "0x00000000000000000000000000000000000000000000000000000000000000600000000000000000000000000000000000000000000000000000000000002d470000000000000000000000000000000000000000000000000001c6bf5263400000000000000000000000000000000000000000000000000000000000000000090000000000000000000000000000000000000000000000000000000000000002000000000000000000000000ddb342ecc94236c29a5307d3757d0724d759453c04718f5a0fc34cc1af16a1cdee98ffb20c31f5cd61d6ab07201858f4287c938d053b40a647cedfca6ca84f542a0fe36736031905a9639a7f19a3c1e66bfd5080000000000000000000000000000000000020c49ba5e353f80000000000000000000000000000000000000000000000000000000000000000000000006798c990000000000000000000000000000000000000000000000000000000006798ca1000000000000000000000000000000000000000000000000000b1a2bc2ec500000000000000000000000000000000000000000000000000000000000000000231",
          "blockHash": "0xb600a8d4bafd8dcbaf5af1bca313f4faa78e26b8c34ce24e0668ec9d48478663",
          "blockNumber": "0x73cbca",
          "transactionHash": "0xed0d4bbe09f9bee964e1a3717e311660c8dfc81d90f4be6b67c9d2127014441a",
          "transactionIndex": "0x94",
          "logIndex": "0xe8",
          "removed": false
        }
      ],
      "logsBloom": "0x00400000000000000000000000020000000001000000000000000000000000000000000000000000000000000000000000000000000000000000000000000000000800000000000000000000000000000000000000000040001000000000000000000000100000010000000000000000000000000000000000000000000000000000000000000000000000000000000004000000000000000000000000100010000000000000000000000020000000000000000000000000000000000000000000000000000000000000000001000000000800000000020000000000000000000000000000000000000000000000000000000000000000000000000000000000",
      "type": "0x2",
      "transactionHash": "0xed0d4bbe09f9bee964e1a3717e311660c8dfc81d90f4be6b67c9d2127014441a",
      "transactionIndex": "0x94",
      "blockHash": "0xb600a8d4bafd8dcbaf5af1bca313f4faa78e26b8c34ce24e0668ec9d48478663",
      "blockNumber": "0x73cbca",
      "gasUsed": "0x13404",
      "effectiveGasPrice": "0x6d5fddd61",
      "from": "0xddb342ecc94236c29a5307d3757d0724d759453c",
      "to": "0x57ec6c2cc9df888aa21b2b27c69d10b7657170e3",
      "contractAddress": null
    }
  ],
  "libraries": [],
  "pending": [],
  "returns": {},
  "timestamp": 1738068169,
  "chain": 11155111,
  "commit": "1045b34"
}