{
  "transactions": [
    {
      "hash": "0x2657c540200c0284f919bfc6274ad3f57e56754e03de5a6f34590e66e6863b63",
      "transactionType": "CALL",
      "contractName": null,
      "contractAddress": "0x17ceb8da41205f1026241766328751884afa7fe8",
      "function": "initiateWithdrawal(address,address,uint64)",
      "arguments": [
        "0xDdb342ecc94236c29a5307d3757d0724D759453C",
        "0x1c7D4B196Cb0C7B01d743Fbc6116a902379C7238",
        "535"
      ],
      "transaction": {
        "from": "0xddb342ecc94236c29a5307d3757d0724d759453c",
        "to": "0x17ceb8da41205f1026241766328751884afa7fe8",
        "gas": "0x1b4c1",
        "value": "0x1c6bf52634000",
        "input": "0x9b4085f6000000000000000000000000ddb342ecc94236c29a5307d3757d0724d759453c0000000000000000000000001c7d4b196cb0c7b01d743fbc6116a902379c72380000000000000000000000000000000000000000000000000000000000000217",
        "nonce": "0x517",
        "chainId": "0xaa36a7"
      },
      "additionalContracts": [],
      "isFixedGasLimit": false
    }
  ],
  "receipts": [
    {
      "status": "0x1",
      "cumulativeGasUsed": "0x13981a2",
      "logs": [
        {
          "address": "0xe2bb56ee936fd6433dc0f6e7e3b8365c906aa057",
          "topics": [
            "0xdb80dd488acf86d17c747445b0eabb5d57c541d3bd7b6b87af987858e5066b2b",
            "0x00000000000000000000000017ceb8da41205f1026241766328751884afa7fe8",
            "0x05384d7aa25d47c73d60f2ee889af6b337544c534b05d8560578c06f01db55bd",
            "0x00f1149cade9d692862ad41df96b108aa2c20af34f640457e781d166c98dc6b0"
          ],
          "data": "0x00000000000000000000000000000000000000000000000000000000000000600000000000000000000000000000000000000000000000000000000000002c780000000000000000000000000000000000000000000000000001c6bf5263400000000000000000000000000000000000000000000000000000000000000000050000000000000000000000000000000000000000000000000000000000000002000000000000000000000000ddb342ecc94236c29a5307d3757d0724d759453c000000000000000000000000ddb342ecc94236c29a5307d3757d0724d759453c0000000000000000000000001c7d4b196cb0c7b01d743fbc6116a902379c72380000000000000000000000000000000000000000000000000000000000000217",
          "blockHash": "0xc5f7b63921fbbaf244b08e51a135ffc0e2bff00739d45b84c0b03182a1404c0c",
          "blockNumber": "0x730e5b",
          "transactionHash": "0x2657c540200c0284f919bfc6274ad3f57e56754e03de5a6f34590e66e6863b63",
          "transactionIndex": "0x65",
          "logIndex": "0x9c",
          "removed": false
        },
        {
          "address": "0x17ceb8da41205f1026241766328751884afa7fe8",
          "topics": [
            "0x89bd98ae1b8dd4dbaeba50e40ad484414a306be9fb54ec4eecf1a801ca9aeacf",
            "0x000000000000000000000000ddb342ecc94236c29a5307d3757d0724d759453c"
          ],
          "data": "0x0000000000000000000000000000000000000000000000000000000000000217",
          "blockHash": "0xc5f7b63921fbbaf244b08e51a135ffc0e2bff00739d45b84c0b03182a1404c0c",
          "blockNumber": "0x730e5b",
          "transactionHash": "0x2657c540200c0284f919bfc6274ad3f57e56754e03de5a6f34590e66e6863b63",
          "transactionIndex": "0x65",
          "logIndex": "0x9d",
          "removed": false
        }
      ],
      "logsBloom": "0x00400002040000000000000000020000000000000000000000000000000000000000000000000000000000000800000000000000000000000000000000000000000000000000000000000000000000000000000000000040001000000000000400000000100000010000000000000000400000000000000000000000400000000000000000000000000000000000000004000000800000000000000000000010000000000000000000000020000000000000000004000000000000000000002800000000000000000000000000000000020000000000000000000000000000000000000000400000000000002000008000000000000000080000000000000000",
      "type": "0x2",
      "transactionHash": "0x2657c540200c0284f919bfc6274ad3f57e56754e03de5a6f34590e66e6863b63",
      "transactionIndex": "0x65",
      "blockHash": "0xc5f7b63921fbbaf244b08e51a135ffc0e2bff00739d45b84c0b03182a1404c0c",
      "blockNumber": "0x730e5b",
      "gasUsed": "0x12aa3",
      "effectiveGasPrice": "0x107131270",
      "from": "0xddb342ecc94236c29a5307d3757d0724d759453c",
      "to": "0x17ceb8da41205f1026241766328751884afa7fe8",
      "contractAddress": null
    }
  ],
  "libraries": [],
  "pending": [],
  "returns": {},
  "timestamp": 1737468121,
  "chain": 11155111,
  "commit": "fcbff6b"
}