{
  "transactions": [
    {
      "hash": "0xf9da72e21b9b4f3503bc1c5c3e21b1908efa228d8075134b4401d942b9146cec",
      "transactionType": "CALL",
      "contractName": "StarkNetToken",
      "contractAddress": "0xCa14007Eff0dB1f8135f4C25B34De49AB0d42766",
      "function": "approve(address,uint256)",
      "arguments": [
        "0x0Ed0e15f0D7362b95A7F4441FCBfb948b63FD61b",
        "115792089237316195423570985008687907853269984665640564039457584007913129639935"
      ],
      "transaction": {
        "type": "0x02",
        "from": "0xddb342ecc94236c29a5307d3757d0724d759453c",
        "to": "0xca14007eff0db1f8135f4c25b34de49ab0d42766",
        "gas": "0x93a9",
        "value": "0x0",
        "data": "0x095ea7b30000000000000000000000000ed0e15f0d7362b95a7f4441fcbfb948b63fd61bffffffffffffffffffffffffffffffffffffffffffffffffffffffffffffffff",
        "nonce": "0x3a9",
        "accessList": []
      },
      "additionalContracts": [],
      "isFixedGasLimit": false
    },
    {
      "hash": "0xf2551f056ed84a6318858f33fd2ae64a0755d81b301f7943b0d0de44017b5dcf",
      "transactionType": "CALL",
      "contractName": null,
      "contractAddress": "0x0Ed0e15f0D7362b95A7F4441FCBfb948b63FD61b",
      "function": "depositAndCreateOrder((address,uint256,uint256,uint128,uint128,uint128,uint128))",
      "arguments": [
        "(0xDdb342ecc94236c29a5307d3757d0724D759453C, 2009894490435840142178314390393166646092438090257831307886760648929397478285, 2366254414417873771392932940469309727793822550615514268240785277201753657472, 170141183460469235273462165868118016, 1733133520, 1733133584, 500000000000000)"
      ],
      "transaction": {
        "type": "0x02",
        "from": "0xddb342ecc94236c29a5307d3757d0724d759453c",
        "to": "0x0ed0e15f0d7362b95a7f4441fcbfb948b63fd61b",
        "gas": "0x44c98",
        "value": "0x1c6bf52634000",
        "data": "0x6c1cc3f4000000000000000000000000ddb342ecc94236c29a5307d3757d0724d759453c04718f5a0fc34cc1af16a1cdee98ffb20c31f5cd61d6ab07201858f4287c938d053b40a647cedfca6ca84f542a0fe36736031905a9639a7f19a3c1e66bfd5080000000000000000000000000000000000020c49ba5e353f8000000000000000000000000000000000000000000000000000000000000000000000000674d84d000000000000000000000000000000000000000000000000000000000674d85100000000000000000000000000000000000000000000000000001c6bf52634000",
        "nonce": "0x3aa",
        "accessList": []
      },
      "additionalContracts": [],
      "isFixedGasLimit": false
    }
  ],
  "receipts": [],
  "libraries": [],
  "pending": [
    "0xf9da72e21b9b4f3503bc1c5c3e21b1908efa228d8075134b4401d942b9146cec",
    "0xf2551f056ed84a6318858f33fd2ae64a0755d81b301f7943b0d0de44017b5dcf"
  ],
  "returns": {},
  "timestamp": 1733133567,
  "chain": 11155111,
  "multi": false,
  "commit": "578600f"
}