{
  "transactions": [
    {
      "hash": "0x1435ef5bc52439000fa69b8545f21791d1473497407c747ed54640a405df2f34",
      "transactionType": "CALL",
      "contractName": null,
      "contractAddress": "0xca14007eff0db1f8135f4c25b34de49ab0d42766",
      "function": "approve(address,uint256)",
      "arguments": [
        "0x71ae1b856fE1584d09F4C6041C8E47aF15836fAC",
        "115792089237316195423570985008687907853269984665640564039457584007913129639935"
      ],
      "transaction": {
        "from": "0x1b382a7b4496f14e0aaa2da1e1626da400426a03",
        "to": "0xca14007eff0db1f8135f4c25b34de49ab0d42766",
        "gas": "0xff08",
        "value": "0x0",
        "input": "0x095ea7b300000000000000000000000071ae1b856fe1584d09f4c6041c8e47af15836facffffffffffffffffffffffffffffffffffffffffffffffffffffffffffffffff",
        "nonce": "0xcc",
        "chainId": "0xaa36a7"
      },
      "additionalContracts": [],
      "isFixedGasLimit": false
    },
    {
      "hash": "0x7e182283526689b8ca71bb58d7517cc17e9302b0a860f5664862377670dd6538",
      "transactionType": "CALL",
      "contractName": null,
      "contractAddress": "0xca14007eff0db1f8135f4c25b34de49ab0d42766",
      "function": "transfer(address,uint256)",
      "arguments": [
        "0x71ae1b856fE1584d09F4C6041C8E47aF15836fAC",
        "10000000000000000"
      ],
      "transaction": {
        "from": "0x1b382a7b4496f14e0aaa2da1e1626da400426a03",
        "to": "0xca14007eff0db1f8135f4c25b34de49ab0d42766",
        "gas": "0x145c6",
        "value": "0x0",
        "input": "0xa9059cbb00000000000000000000000071ae1b856fe1584d09f4c6041c8e47af15836fac000000000000000000000000000000000000000000000000002386f26fc10000",
        "nonce": "0xcd",
        "chainId": "0xaa36a7"
      },
      "additionalContracts": [],
      "isFixedGasLimit": false
    },
    {
      "hash": "0x331d83f256bc9cda4cb235b740c53d02be0b1eca0c3b34979b66c215ac5edd20",
      "transactionType": "CALL",
      "contractName": null,
      "contractAddress": "0x71ae1b856fe1584d09f4c6041c8e47af15836fac",
      "function": "deposit(uint256,uint256)",
      "arguments": [
        "10000000000000000",
        "1647970598847617027890947728899760175249314077903923387400359173436953475181"
      ],
      "transaction": {
        "from": "0x1b382a7b4496f14e0aaa2da1e1626da400426a03",
        "to": "0x71ae1b856fe1584d09f4c6041c8e47af15836fac",
        "gas": "0x2d759",
        "value": "0x2386f26fc10000",
        "input": "0xe2bbb158000000000000000000000000000000000000000000000000002386f26fc1000003a4b7e2d060bd8eb48e2db10f16c1303b131c266cc928902c3a3a8ead7e386d",
        "nonce": "0xce",
        "chainId": "0xaa36a7"
      },
      "additionalContracts": [],
      "isFixedGasLimit": false
    }
  ],
  "receipts": [
    {
      "status": "0x1",
      "cumulativeGasUsed": "0x409bff",
      "logs": [
        {
          "address": "0xca14007eff0db1f8135f4c25b34de49ab0d42766",
          "topics": [
            "0x8c5be1e5ebec7d5bd14f71427d1e84f3dd0314c0f7b2291e5b200ac8c7c3b925",
            "0x0000000000000000000000001b382a7b4496f14e0aaa2da1e1626da400426a03",
            "0x00000000000000000000000071ae1b856fe1584d09f4c6041c8e47af15836fac"
          ],
          "data": "0xffffffffffffffffffffffffffffffffffffffffffffffffffffffffffffffff",
          "blockHash": "0x8152f2621398e27feb37fd7689938d88ca018037b4aee031c73770c209bd0a08",
          "blockNumber": "0x6b2352",
          "transactionHash": "0x1435ef5bc52439000fa69b8545f21791d1473497407c747ed54640a405df2f34",
          "transactionIndex": "0x25",
          "logIndex": "0x29",
          "removed": false
        }
      ],
      "logsBloom": "0x01000000000000000800000000000000000000000000000000000000000000000000000000000000000000000000000000000000000000000000000000200000000000000000000000000000000000000000000000000000000000000000000000000000000000000000000000000000000000000010000020000000000000040000000000000000000000000000000000000000000000000000000000000000020000000000000000000000000000000000000000000000000000000001000000000000000000020000000000000000000000000000000000800000000000000010000000000000000000000000000000000000001000000000000000000000",
      "type": "0x2",
      "transactionHash": "0x1435ef5bc52439000fa69b8545f21791d1473497407c747ed54640a405df2f34",
      "transactionIndex": "0x25",
      "blockHash": "0x8152f2621398e27feb37fd7689938d88ca018037b4aee031c73770c209bd0a08",
      "blockNumber": "0x6b2352",
      "gasUsed": "0xb8a4",
      "effectiveGasPrice": "0xe4df6968",
      "blobGasUsed": "0x0",
      "from": "0x1b382a7b4496f14e0aaa2da1e1626da400426a03",
      "to": "0xca14007eff0db1f8135f4c25b34de49ab0d42766",
      "contractAddress": null
    },
    {
      "status": "0x1",
      "cumulativeGasUsed": "0x417ac0",
      "logs": [
        {
          "address": "0xca14007eff0db1f8135f4c25b34de49ab0d42766",
          "topics": [
            "0xddf252ad1be2c89b69c2b068fc378daa952ba7f163c4a11628f55a4df523b3ef",
            "0x0000000000000000000000001b382a7b4496f14e0aaa2da1e1626da400426a03",
            "0x00000000000000000000000071ae1b856fe1584d09f4c6041c8e47af15836fac"
          ],
          "data": "0x000000000000000000000000000000000000000000000000002386f26fc10000",
          "blockHash": "0x8152f2621398e27feb37fd7689938d88ca018037b4aee031c73770c209bd0a08",
          "blockNumber": "0x6b2352",
          "transactionHash": "0x7e182283526689b8ca71bb58d7517cc17e9302b0a860f5664862377670dd6538",
          "transactionIndex": "0x26",
          "logIndex": "0x2a",
          "removed": false
        }
      ],
      "logsBloom": "0x01000000000000000800000000000000000000000000000000000000000000000000000000000000000000000000000000000000000000000000000000000000000000000000000000000008000000000000000000000000000000000000000000000000000000000000000000000000000000000010000020000010000000040000000000000000000000000000000000000000000000000000000000000000000000000000000000000000000000000000000000000000000000000001000000000002000000020000000000000000000000000000000000800000000000000000000000000000000000000000000000000000001000000000000000000000",
      "type": "0x2",
      "transactionHash": "0x7e182283526689b8ca71bb58d7517cc17e9302b0a860f5664862377670dd6538",
      "transactionIndex": "0x26",
      "blockHash": "0x8152f2621398e27feb37fd7689938d88ca018037b4aee031c73770c209bd0a08",
      "blockNumber": "0x6b2352",
      "gasUsed": "0xdec1",
      "effectiveGasPrice": "0xe4df6968",
      "blobGasUsed": "0x0",
      "from": "0x1b382a7b4496f14e0aaa2da1e1626da400426a03",
      "to": "0xca14007eff0db1f8135f4c25b34de49ab0d42766",
      "contractAddress": null
    },
    {
      "status": "0x1",
      "cumulativeGasUsed": "0x438957",
      "logs": [
        {
          "address": "0xca14007eff0db1f8135f4c25b34de49ab0d42766",
          "topics": [
            "0x8c5be1e5ebec7d5bd14f71427d1e84f3dd0314c0f7b2291e5b200ac8c7c3b925",
            "0x00000000000000000000000071ae1b856fe1584d09f4c6041c8e47af15836fac",
            "0x000000000000000000000000ce5485cfb26914c5dce00b9baf0580364dafc7a4"
          ],
          "data": "0x000000000000000000000000000000000000000000000000002386f26fc10000",
          "blockHash": "0x8152f2621398e27feb37fd7689938d88ca018037b4aee031c73770c209bd0a08",
          "blockNumber": "0x6b2352",
          "transactionHash": "0x331d83f256bc9cda4cb235b740c53d02be0b1eca0c3b34979b66c215ac5edd20",
          "transactionIndex": "0x27",
          "logIndex": "0x2b",
          "removed": false
        },
        {
          "address": "0xca14007eff0db1f8135f4c25b34de49ab0d42766",
          "topics": [
            "0x8c5be1e5ebec7d5bd14f71427d1e84f3dd0314c0f7b2291e5b200ac8c7c3b925",
            "0x00000000000000000000000071ae1b856fe1584d09f4c6041c8e47af15836fac",
            "0x000000000000000000000000ce5485cfb26914c5dce00b9baf0580364dafc7a4"
          ],
          "data": "0x0000000000000000000000000000000000000000000000000000000000000000",
          "blockHash": "0x8152f2621398e27feb37fd7689938d88ca018037b4aee031c73770c209bd0a08",
          "blockNumber": "0x6b2352",
          "transactionHash": "0x331d83f256bc9cda4cb235b740c53d02be0b1eca0c3b34979b66c215ac5edd20",
          "transactionIndex": "0x27",
          "logIndex": "0x2c",
          "removed": false
        },
        {
          "address": "0xca14007eff0db1f8135f4c25b34de49ab0d42766",
          "topics": [
            "0xddf252ad1be2c89b69c2b068fc378daa952ba7f163c4a11628f55a4df523b3ef",
            "0x00000000000000000000000071ae1b856fe1584d09f4c6041c8e47af15836fac",
            "0x000000000000000000000000ce5485cfb26914c5dce00b9baf0580364dafc7a4"
          ],
          "data": "0x000000000000000000000000000000000000000000000000002386f26fc10000",
          "blockHash": "0x8152f2621398e27feb37fd7689938d88ca018037b4aee031c73770c209bd0a08",
          "blockNumber": "0x6b2352",
          "transactionHash": "0x331d83f256bc9cda4cb235b740c53d02be0b1eca0c3b34979b66c215ac5edd20",
          "transactionIndex": "0x27",
          "logIndex": "0x2d",
          "removed": false
        },
        {
          "address": "0xe2bb56ee936fd6433dc0f6e7e3b8365c906aa057",
          "topics": [
            "0xdb80dd488acf86d17c747445b0eabb5d57c541d3bd7b6b87af987858e5066b2b",
            "0x000000000000000000000000ce5485cfb26914c5dce00b9baf0580364dafc7a4",
            "0x0594c1582459ea03f77deaf9eb7e3917d6994a03c13405ba42867f83d85f085d",
            "0x01b64b1b3b690b43b9b514fb81377518f4039cd3e4f4914d8a6bdf01d679fb19"
          ],
          "data": "0x00000000000000000000000000000000000000000000000000000000000000600000000000000000000000000000000000000000000000000000000000002752000000000000000000000000000000000000000000000000002386f26fc100000000000000000000000000000000000000000000000000000000000000000005000000000000000000000000ca14007eff0db1f8135f4c25b34de49ab0d4276600000000000000000000000071ae1b856fe1584d09f4c6041c8e47af15836fac03a4b7e2d060bd8eb48e2db10f16c1303b131c266cc928902c3a3a8ead7e386d000000000000000000000000000000000000000000000000002386f26fc100000000000000000000000000000000000000000000000000000000000000000000",
          "blockHash": "0x8152f2621398e27feb37fd7689938d88ca018037b4aee031c73770c209bd0a08",
          "blockNumber": "0x6b2352",
          "transactionHash": "0x331d83f256bc9cda4cb235b740c53d02be0b1eca0c3b34979b66c215ac5edd20",
          "transactionIndex": "0x27",
          "logIndex": "0x2e",
          "removed": false
        },
        {
          "address": "0xce5485cfb26914c5dce00b9baf0580364dafc7a4",
          "topics": [
            "0x5f971bd00bf3ffbca8a6d72cdd4fd92cfd4f62636161921d1e5a64f0b64ccb6d",
            "0x00000000000000000000000071ae1b856fe1584d09f4c6041c8e47af15836fac",
            "0x000000000000000000000000ca14007eff0db1f8135f4c25b34de49ab0d42766",
            "0x03a4b7e2d060bd8eb48e2db10f16c1303b131c266cc928902c3a3a8ead7e386d"
          ],
          "data": "0x000000000000000000000000000000000000000000000000002386f26fc100000000000000000000000000000000000000000000000000000000000000002752000000000000000000000000000000000000000000000000002386f26fc10000",
          "blockHash": "0x8152f2621398e27feb37fd7689938d88ca018037b4aee031c73770c209bd0a08",
          "blockNumber": "0x6b2352",
          "transactionHash": "0x331d83f256bc9cda4cb235b740c53d02be0b1eca0c3b34979b66c215ac5edd20",
          "transactionIndex": "0x27",
          "logIndex": "0x2f",
          "removed": false
        }
      ],
      "logsBloom": "0x01000000000000000a00000000020000000000000000000000000002000000400000000000000000000000000000000000000000000004000000000000200000000000000000000000000008080000000000000000000040001000000000000000000000100000000000000000000000000000000000000000000010000008002000000000000000000000000400000000000000000200000100020000000010020000000000000000000020000000001000000000000020000000000001000000000002000000024010000000000000000000200000000000800000200000000010000000010000000000020084000000000000001000000000000000000000",
      "type": "0x2",
      "transactionHash": "0x331d83f256bc9cda4cb235b740c53d02be0b1eca0c3b34979b66c215ac5edd20",
      "transactionIndex": "0x27",
      "blockHash": "0x8152f2621398e27feb37fd7689938d88ca018037b4aee031c73770c209bd0a08",
      "blockNumber": "0x6b2352",
      "gasUsed": "0x20e97",
      "effectiveGasPrice": "0xe4df6968",
      "blobGasUsed": "0x0",
      "from": "0x1b382a7b4496f14e0aaa2da1e1626da400426a03",
      "to": "0x71ae1b856fe1584d09f4c6041c8e47af15836fac",
      "contractAddress": null
    }
  ],
  "libraries": [],
  "pending": [],
  "returns": {},
  "timestamp": 1730868783,
  "chain": 11155111,
  "commit": "371fb69"
}