{
  "transactions": [
    {
      "hash": "0xd961c1e119be754b57cb8b7f8d9aa546a8d595252547c7accb73ebaae266b438",
      "transactionType": "CALL",
      "contractName": "FiatTokenProxy",
      "contractAddress": "0x1c7D4B196Cb0C7B01d743Fbc6116a902379C7238",
      "function": "approve(address,uint256)",
      "arguments": [
        "0xCbB11b37805f5f0e4331fE1caea3fc472877A177",
        "115792089237316195423570985008687907853269984665640564039457584007913129639935"
      ],
      "transaction": {
        "type": "0x02",
        "from": "0xddb342ecc94236c29a5307d3757d0724d759453c",
        "to": "0x1c7d4b196cb0c7b01d743fbc6116a902379c7238",
        "gas": "0xd0b8",
        "value": "0x0",
        "data": "0x095ea7b3000000000000000000000000cbb11b37805f5f0e4331fe1caea3fc472877a177ffffffffffffffffffffffffffffffffffffffffffffffffffffffffffffffff",
        "nonce": "0x1f0",
        "accessList": []
      },
      "additionalContracts": [],
      "isFixedGasLimit": false
    },
    {
      "hash": "0xa75b842a144fe9fce5de47d762f8c84354e9b2bbbe4b4f982f76f5bb0f294cf8",
      "transactionType": "CALL",
      "contractName": "FiatTokenProxy",
      "contractAddress": "0x1c7D4B196Cb0C7B01d743Fbc6116a902379C7238",
      "function": "transfer(address,uint256)",
      "arguments": [
        "0xCbB11b37805f5f0e4331fE1caea3fc472877A177",
        "100000"
      ],
      "transaction": {
        "type": "0x02",
        "from": "0xddb342ecc94236c29a5307d3757d0724d759453c",
        "to": "0x1c7d4b196cb0c7b01d743fbc6116a902379c7238",
        "gas": "0x1016a",
        "value": "0x0",
        "data": "0xa9059cbb000000000000000000000000cbb11b37805f5f0e4331fe1caea3fc472877a17700000000000000000000000000000000000000000000000000000000000186a0",
        "nonce": "0x1f1",
        "accessList": []
      },
      "additionalContracts": [],
      "isFixedGasLimit": false
    },
    {
      "hash": "0xc86d2ecf9d50d543dd2e60442bd7430aa811d99da4be7558bb9054da452a7e97",
      "transactionType": "CALL",
      "contractName": "L1TWAMMBridge",
      "contractAddress": "0xCbB11b37805f5f0e4331fE1caea3fc472877A177",
      "function": "depositAndCreateOrder((address,address,address,uint128,uint128,uint128,uint128,uint256))",
      "arguments": [
        "(0xDdb342ecc94236c29a5307d3757d0724D759453C, 0x1c7D4B196Cb0C7B01d743Fbc6116a902379C7238, 0x1c7D4B196Cb0C7B01d743Fbc6116a902379C7238, 1000000000000000, 1730894368, 1730894432, 100000, 2364670659669202862189600615905726844829573132691925671657692092996332343788)"
      ],
      "transaction": {
        "type": "0x02",
        "from": "0xddb342ecc94236c29a5307d3757d0724d759453c",
        "to": "0xcbb11b37805f5f0e4331fe1caea3fc472877a177",
        "gas": "0x3cc02",
        "value": "0x38d7ea4c68000",
        "data": "0x9d251505000000000000000000000000ddb342ecc94236c29a5307d3757d0724d759453c0000000000000000000000001c7d4b196cb0c7b01d743fbc6116a902379c72380000000000000000000000001c7d4b196cb0c7b01d743fbc6116a902379c723800000000000000000000000000000000000000000000000000038d7ea4c6800000000000000000000000000000000000000000000000000000000000672b5a2000000000000000000000000000000000000000000000000000000000672b5a6000000000000000000000000000000000000000000000000000000000000186a0053a5b2d8d4ca75ee30b089eaf0a01a3e89505561111a488537cb59cdff0d1ec",
        "nonce": "0x1f2",
        "accessList": []
      },
      "additionalContracts": [],
      "isFixedGasLimit": false
    }
  ],
  "receipts": [
    {
      "transactionHash": "0xd961c1e119be754b57cb8b7f8d9aa546a8d595252547c7accb73ebaae266b438",
      "transactionIndex": "0x8",
      "blockHash": "0x9722e88de96a417121435f0dd81eba57fbd32a7565107b474846f3d412d2c060",
      "blockNumber": "0x6b2b06",
      "from": "0xDdb342ecc94236c29a5307d3757d0724D759453C",
      "to": "0x1c7D4B196Cb0C7B01d743Fbc6116a902379C7238",
      "cumulativeGasUsed": "0x7ea2e",
      "gasUsed": "0x971d",
      "contractAddress": null,
      "logs": [
        {
          "address": "0x1c7D4B196Cb0C7B01d743Fbc6116a902379C7238",
          "topics": [
            "0x8c5be1e5ebec7d5bd14f71427d1e84f3dd0314c0f7b2291e5b200ac8c7c3b925",
            "0x000000000000000000000000ddb342ecc94236c29a5307d3757d0724d759453c",
            "0x000000000000000000000000cbb11b37805f5f0e4331fe1caea3fc472877a177"
          ],
          "data": "0xffffffffffffffffffffffffffffffffffffffffffffffffffffffffffffffff",
          "blockHash": "0x9722e88de96a417121435f0dd81eba57fbd32a7565107b474846f3d412d2c060",
          "blockNumber": "0x6b2b06",
          "transactionHash": "0xd961c1e119be754b57cb8b7f8d9aa546a8d595252547c7accb73ebaae266b438",
          "transactionIndex": "0x8",
          "logIndex": "0x9",
          "removed": false
        }
      ],
      "status": "0x1",
      "logsBloom": "0x00000000000000000000000000000000000000000000000000000000000200000000000000000000000000000000000000000000000000000000000000200000000000000000000000000800000000000000000000000000000000000000000400000000000000000000000000000000400000000000000000000000400000000000000000100000000000000000000000000000000000000000000000000000020000000000000000000000000000000000000000000000000000020000000000000000000000000000000000000000000000000000000000000000000000000010000000000000000010000000000000000000000000000000100000000000",
      "type": "0x2",
      "effectiveGasPrice": "0x37704e77b"
    },
    {
      "transactionHash": "0xa75b842a144fe9fce5de47d762f8c84354e9b2bbbe4b4f982f76f5bb0f294cf8",
      "transactionIndex": "0x9",
      "blockHash": "0x9722e88de96a417121435f0dd81eba57fbd32a7565107b474846f3d412d2c060",
      "blockNumber": "0x6b2b06",
      "from": "0xDdb342ecc94236c29a5307d3757d0724D759453C",
      "to": "0x1c7D4B196Cb0C7B01d743Fbc6116a902379C7238",
      "cumulativeGasUsed": "0x89a31",
      "gasUsed": "0xb003",
      "contractAddress": null,
      "logs": [
        {
          "address": "0x1c7D4B196Cb0C7B01d743Fbc6116a902379C7238",
          "topics": [
            "0xddf252ad1be2c89b69c2b068fc378daa952ba7f163c4a11628f55a4df523b3ef",
            "0x000000000000000000000000ddb342ecc94236c29a5307d3757d0724d759453c",
            "0x000000000000000000000000cbb11b37805f5f0e4331fe1caea3fc472877a177"
          ],
          "data": "0x00000000000000000000000000000000000000000000000000000000000186a0",
          "blockHash": "0x9722e88de96a417121435f0dd81eba57fbd32a7565107b474846f3d412d2c060",
          "blockNumber": "0x6b2b06",
          "transactionHash": "0xa75b842a144fe9fce5de47d762f8c84354e9b2bbbe4b4f982f76f5bb0f294cf8",
          "transactionIndex": "0x9",
          "logIndex": "0xa",
          "removed": false
        }
      ],
      "status": "0x1",
      "logsBloom": "0x00000000000000000000000000000000000000000000000000000000000200000000000000000000000000000000000000000000000000000000000000000000000000000000000000000808000000000000000000000000000000000000000400000000000000000000000000000000400000000000000000000010400000000000000000100000000000000000000000000000000000000000000000000000000000000000000000000000000000000000000000000000000000020000000000000002000000000000000000000000000000000000000000000000000000000000000000000000000010000000000000000000000000000000100000000000",
      "type": "0x2",
      "effectiveGasPrice": "0x37704e77b"
    },
    {
      "transactionHash": "0xc86d2ecf9d50d543dd2e60442bd7430aa811d99da4be7558bb9054da452a7e97",
      "transactionIndex": "0xa",
      "blockHash": "0x9722e88de96a417121435f0dd81eba57fbd32a7565107b474846f3d412d2c060",
      "blockNumber": "0x6b2b06",
      "from": "0xDdb342ecc94236c29a5307d3757d0724D759453C",
      "to": "0xCbB11b37805f5f0e4331fE1caea3fc472877A177",
      "cumulativeGasUsed": "0xb55dc",
      "gasUsed": "0x2bbab",
      "contractAddress": null,
      "logs": [
        {
          "address": "0x1c7D4B196Cb0C7B01d743Fbc6116a902379C7238",
          "topics": [
            "0xddf252ad1be2c89b69c2b068fc378daa952ba7f163c4a11628f55a4df523b3ef",
            "0x000000000000000000000000ddb342ecc94236c29a5307d3757d0724d759453c",
            "0x000000000000000000000000cbb11b37805f5f0e4331fe1caea3fc472877a177"
          ],
          "data": "0x00000000000000000000000000000000000000000000000000000000000186a0",
          "blockHash": "0x9722e88de96a417121435f0dd81eba57fbd32a7565107b474846f3d412d2c060",
          "blockNumber": "0x6b2b06",
          "transactionHash": "0xc86d2ecf9d50d543dd2e60442bd7430aa811d99da4be7558bb9054da452a7e97",
          "transactionIndex": "0xa",
          "logIndex": "0xb",
          "removed": false
        },
        {
          "address": "0x1c7D4B196Cb0C7B01d743Fbc6116a902379C7238",
          "topics": [
            "0x8c5be1e5ebec7d5bd14f71427d1e84f3dd0314c0f7b2291e5b200ac8c7c3b925",
            "0x000000000000000000000000cbb11b37805f5f0e4331fe1caea3fc472877a177",
            "0x00000000000000000000000086dc0b32a5045ffa48d9a60b7e7ca32f11facd7b"
          ],
          "data": "0x0000000000000000000000000000000000000000000000000000000000000000",
          "blockHash": "0x9722e88de96a417121435f0dd81eba57fbd32a7565107b474846f3d412d2c060",
          "blockNumber": "0x6b2b06",
          "transactionHash": "0xc86d2ecf9d50d543dd2e60442bd7430aa811d99da4be7558bb9054da452a7e97",
          "transactionIndex": "0xa",
          "logIndex": "0xc",
          "removed": false
        },
        {
          "address": "0x1c7D4B196Cb0C7B01d743Fbc6116a902379C7238",
          "topics": [
            "0x8c5be1e5ebec7d5bd14f71427d1e84f3dd0314c0f7b2291e5b200ac8c7c3b925",
            "0x000000000000000000000000cbb11b37805f5f0e4331fe1caea3fc472877a177",
            "0x00000000000000000000000086dc0b32a5045ffa48d9a60b7e7ca32f11facd7b"
          ],
          "data": "0x00000000000000000000000000000000000000000000000000000000000186a0",
          "blockHash": "0x9722e88de96a417121435f0dd81eba57fbd32a7565107b474846f3d412d2c060",
          "blockNumber": "0x6b2b06",
          "transactionHash": "0xc86d2ecf9d50d543dd2e60442bd7430aa811d99da4be7558bb9054da452a7e97",
          "transactionIndex": "0xa",
          "logIndex": "0xd",
          "removed": false
        },
        {
          "address": "0x1c7D4B196Cb0C7B01d743Fbc6116a902379C7238",
          "topics": [
            "0xddf252ad1be2c89b69c2b068fc378daa952ba7f163c4a11628f55a4df523b3ef",
            "0x000000000000000000000000cbb11b37805f5f0e4331fe1caea3fc472877a177",
            "0x00000000000000000000000086dc0b32a5045ffa48d9a60b7e7ca32f11facd7b"
          ],
          "data": "0x00000000000000000000000000000000000000000000000000000000000186a0",
          "blockHash": "0x9722e88de96a417121435f0dd81eba57fbd32a7565107b474846f3d412d2c060",
          "blockNumber": "0x6b2b06",
          "transactionHash": "0xc86d2ecf9d50d543dd2e60442bd7430aa811d99da4be7558bb9054da452a7e97",
          "transactionIndex": "0xa",
          "logIndex": "0xe",
          "removed": false
        },
        {
          "address": "0xE2Bb56ee936fd6433DC0F6e7e3b8365C906AA057",
          "topics": [
            "0xdb80dd488acf86d17c747445b0eabb5d57c541d3bd7b6b87af987858e5066b2b",
            "0x00000000000000000000000086dc0b32a5045ffa48d9a60b7e7ca32f11facd7b",
            "0x0028729b12ce1140cbc1e7cbc7245455d3c15fa0c7f5d2e9fc8e0441567f6b50",
            "0x008bce41827dd5484d80312a2e43bc42a896e3fcf75bf84c2b49339168dfa00a"
          ],
          "data": "0x0000000000000000000000000000000000000000000000000000000000000060000000000000000000000000000000000000000000000000000000000000276300000000000000000000000000000000000000000000000000038d7ea4c68000000000000000000000000000000000000000000000000000000000000000000d0000000000000000000000001c7d4b196cb0c7b01d743fbc6116a902379c7238000000000000000000000000cbb11b37805f5f0e4331fe1caea3fc472877a177053a5b2d8d4ca75ee30b089eaf0a01a3e89505561111a488537cb59cdff0d1ec00000000000000000000000000000000000000000000000000000000000186a0000000000000000000000000000000000000000000000000000000000000000000000000000000000000000000000000000000000000000000000000000000070000000000000000000000000000000000000000000000000000000000000000000000000000000000000000ddb342ecc94236c29a5307d3757d0724d759453c0000000000000000000000001c7d4b196cb0c7b01d743fbc6116a902379c72380000000000000000000000001c7d4b196cb0c7b01d743fbc6116a902379c723800000000000000000000000000000000000000000000000000038d7ea4c6800000000000000000000000000000000000000000000000000000000000672b5a2000000000000000000000000000000000000000000000000000000000672b5a60",
          "blockHash": "0x9722e88de96a417121435f0dd81eba57fbd32a7565107b474846f3d412d2c060",
          "blockNumber": "0x6b2b06",
          "transactionHash": "0xc86d2ecf9d50d543dd2e60442bd7430aa811d99da4be7558bb9054da452a7e97",
          "transactionIndex": "0xa",
          "logIndex": "0xf",
          "removed": false
        },
        {
          "address": "0x86dC0B32a5045FFa48D9a60B7e7Ca32F11faCd7B",
          "topics": [
            "0x2203a49c69f1a46c1164f5e4a30643dd77b7c59c0ff9bc433256048365c247f1",
            "0x000000000000000000000000cbb11b37805f5f0e4331fe1caea3fc472877a177",
            "0x0000000000000000000000001c7d4b196cb0c7b01d743fbc6116a902379c7238",
            "0x053a5b2d8d4ca75ee30b089eaf0a01a3e89505561111a488537cb59cdff0d1ec"
          ],
          "data": "0x00000000000000000000000000000000000000000000000000000000000186a00000000000000000000000000000000000000000000000000000000000000080000000000000000000000000000000000000000000000000000000000000276300000000000000000000000000000000000000000000000000038d7ea4c6800000000000000000000000000000000000000000000000000000000000000000070000000000000000000000000000000000000000000000000000000000000000000000000000000000000000ddb342ecc94236c29a5307d3757d0724d759453c0000000000000000000000001c7d4b196cb0c7b01d743fbc6116a902379c72380000000000000000000000001c7d4b196cb0c7b01d743fbc6116a902379c723800000000000000000000000000000000000000000000000000038d7ea4c6800000000000000000000000000000000000000000000000000000000000672b5a2000000000000000000000000000000000000000000000000000000000672b5a60",
          "blockHash": "0x9722e88de96a417121435f0dd81eba57fbd32a7565107b474846f3d412d2c060",
          "blockNumber": "0x6b2b06",
          "transactionHash": "0xc86d2ecf9d50d543dd2e60442bd7430aa811d99da4be7558bb9054da452a7e97",
          "transactionIndex": "0xa",
          "logIndex": "0x10",
          "removed": false
        },
        {
          "address": "0xCbB11b37805f5f0e4331fE1caea3fc472877A177",
          "topics": [
            "0xaf43445f7721522b7a3864ed3de53d7e2e658bfa1eeffa18e1e229be68ce2545",
            "0x000000000000000000000000ddb342ecc94236c29a5307d3757d0724d759453c",
            "0x053a5b2d8d4ca75ee30b089eaf0a01a3e89505561111a488537cb59cdff0d1ec"
          ],
          "data": "0x00000000000000000000000000000000000000000000000000000000000186a00000000000000000000000000000000000000000000000000000000000000001",
          "blockHash": "0x9722e88de96a417121435f0dd81eba57fbd32a7565107b474846f3d412d2c060",
          "blockNumber": "0x6b2b06",
          "transactionHash": "0xc86d2ecf9d50d543dd2e60442bd7430aa811d99da4be7558bb9054da452a7e97",
          "transactionIndex": "0xa",
          "logIndex": "0x11",
          "removed": false
        }
      ],
      "status": "0x1",
      "logsBloom": "0x00000200000000000000000000020000000000000000000000000040000200000000000000000000000000000000000000000000000004000000420000210000100000000000000000000808000000000000000000000040001000000000000600000000100000000000000000000800400200000000000000000210401080000000000000102000000000020004000000008000000000000002000000000010020000800000000010000020000000021000008000000000000002020000001000800002000000000000000000000000000000000000000000000000000000000010008000000000000010000000000000000000000000000000100000000000",
      "type": "0x2",
      "effectiveGasPrice": "0x37704e77b"
    }
  ],
  "libraries": [],
  "pending": [],
  "returns": {},
  "timestamp": 1730894438,
  "chain": 11155111,
  "multi": false,
  "commit": "85f3f64"
}