{
  "transactions": [
    {
      "hash": "0x652c9ec3605595a9b6a7cc7c773abcd1ca35c8ee9ea294eb3ffafe8496026bd3",
      "transactionType": "CALL",
      "contractName": "StarkNetToken",
      "contractAddress": "0xCa14007Eff0dB1f8135f4C25B34De49AB0d42766",
      "function": "approve(address,uint256)",
      "arguments": [
        "0x7256eDF31b165EA502cd3718726dD0aa6f543b12",
        "115792089237316195423570985008687907853269984665640564039457584007913129639935"
      ],
      "transaction": {
        "type": "0x02",
        "from": "0xddb342ecc94236c29a5307d3757d0724d759453c",
        "to": "0xca14007eff0db1f8135f4c25b34de49ab0d42766",
        "gas": "0x93a9",
        "value": "0x0",
        "data": "0x095ea7b30000000000000000000000007256edf31b165ea502cd3718726dd0aa6f543b12ffffffffffffffffffffffffffffffffffffffffffffffffffffffffffffffff",
        "nonce": "0x3c7",
        "accessList": []
      },
      "additionalContracts": [],
      "isFixedGasLimit": false
    },
    {
      "hash": "0x3984fd2cfd5908c2d34f0c041082ccf4b504941b956ee25b5e4c55a25e7bda7e",
      "transactionType": "CALL",
      "contractName": null,
      "contractAddress": "0x7256eDF31b165EA502cd3718726dD0aa6f543b12",
      "function": "initiateWithdrawal(uint256,address)",
      "arguments": [
        "500000000000000",
        "0x1c7D4B196Cb0C7B01d743Fbc6116a902379C7238"
      ],
      "transaction": {
        "type": "0x02",
        "from": "0xddb342ecc94236c29a5307d3757d0724d759453c",
        "to": "0x7256edf31b165ea502cd3718726dd0aa6f543b12",
        "gas": "0x1b98b",
        "value": "0x1c6bf52634000",
        "data": "0x544381270000000000000000000000000000000000000000000000000001c6bf526340000000000000000000000000001c7d4b196cb0c7b01d743fbc6116a902379c7238",
        "nonce": "0x3c8",
        "accessList": []
      },
      "additionalContracts": [],
      "isFixedGasLimit": false
    }
  ],
  "receipts": [],
  "libraries": [],
  "pending": [
    "0x652c9ec3605595a9b6a7cc7c773abcd1ca35c8ee9ea294eb3ffafe8496026bd3",
    "0x3984fd2cfd5908c2d34f0c041082ccf4b504941b956ee25b5e4c55a25e7bda7e"
  ],
  "returns": {},
  "timestamp": 1733412016,
  "chain": 11155111,
  "multi": false,
  "commit": "0c80a24"
}