{
  "transactions": [
    {
      "hash": "0xcfca4db59575c4d73b189dbfb148d0fc10e61ca979a180c5286060f26b3cf65e",
      "transactionType": "CALL",
      "contractName": "FiatTokenProxy",
      "contractAddress": "0x1c7D4B196Cb0C7B01d743Fbc6116a902379C7238",
      "function": "approve(address,uint256)",
      "arguments": [
        "0xE0935B99d1a713588Ec545dbeDd41BbE03Ac7c12",
        "115792089237316195423570985008687907853269984665640564039457584007913129639935"
      ],
      "transaction": {
        "type": "0x02",
        "from": "0xddb342ecc94236c29a5307d3757d0724d759453c",
        "to": "0x1c7d4b196cb0c7b01d743fbc6116a902379c7238",
        "gas": "0x13eb1",
        "value": "0x0",
        "data": "0x095ea7b3000000000000000000000000e0935b99d1a713588ec545dbedd41bbe03ac7c12ffffffffffffffffffffffffffffffffffffffffffffffffffffffffffffffff",
        "nonce": "0x1ca",
        "accessList": []
      },
      "additionalContracts": [],
      "isFixedGasLimit": false
    },
    {
      "hash": "0xc2de09a73189d126e487df4873c7ddd265cd2a49e9135eb0aee29503e3316808",
      "transactionType": "CALL",
      "contractName": "FiatTokenProxy",
      "contractAddress": "0x1c7D4B196Cb0C7B01d743Fbc6116a902379C7238",
      "function": "transfer(address,uint256)",
      "arguments": [
        "0xE0935B99d1a713588Ec545dbeDd41BbE03Ac7c12",
        "500000"
      ],
      "transaction": {
        "type": "0x02",
        "from": "0xddb342ecc94236c29a5307d3757d0724d759453c",
        "to": "0x1c7d4b196cb0c7b01d743fbc6116a902379c7238",
        "gas": "0x14f5f",
        "value": "0x0",
        "data": "0xa9059cbb000000000000000000000000e0935b99d1a713588ec545dbedd41bbe03ac7c12000000000000000000000000000000000000000000000000000000000007a120",
        "nonce": "0x1cb",
        "accessList": []
      },
      "additionalContracts": [],
      "isFixedGasLimit": false
    },
    {
      "hash": "0x728cc4298d48a61e73c5a09702ff1819b425658b401a48428ea873740ae08311",
      "transactionType": "CALL",
      "contractName": "L1TWAMMBridge",
      "contractAddress": "0xE0935B99d1a713588Ec545dbeDd41BbE03Ac7c12",
      "function": "deposit(uint256,uint256)",
      "arguments": [
        "500000",
        "2962709860935816857512909953167996124532029233098644282835224648946722238470"
      ],
      "transaction": {
        "type": "0x02",
        "from": "0xddb342ecc94236c29a5307d3757d0724d759453c",
        "to": "0xe0935b99d1a713588ec545dbedd41bbe03ac7c12",
        "gas": "0x2ede0",
        "value": "0x2386f26fc10000",
        "data": "0xe2bbb158000000000000000000000000000000000000000000000000000000000007a120068cd598638bf0af505600ab43b7c8eee178a4dee2280d9800eacfa927f77006",
        "nonce": "0x1cc",
        "accessList": []
      },
      "additionalContracts": [],
      "isFixedGasLimit": false
    }
  ],
  "receipts": [
    {
      "transactionHash": "0xcfca4db59575c4d73b189dbfb148d0fc10e61ca979a180c5286060f26b3cf65e",
      "transactionIndex": "0x5",
      "blockHash": "0x108534f31c734e66572f3703258ad83ea6d2bd4f0446da6b5f2bde9eb1c96404",
      "blockNumber": "0x6b28ef",
      "from": "0xDdb342ecc94236c29a5307d3757d0724D759453C",
      "to": "0x1c7D4B196Cb0C7B01d743Fbc6116a902379C7238",
      "cumulativeGasUsed": "0x39daa",
      "gasUsed": "0xd9e9",
      "contractAddress": null,
      "logs": [
        {
          "address": "0x1c7D4B196Cb0C7B01d743Fbc6116a902379C7238",
          "topics": [
            "0x8c5be1e5ebec7d5bd14f71427d1e84f3dd0314c0f7b2291e5b200ac8c7c3b925",
            "0x000000000000000000000000ddb342ecc94236c29a5307d3757d0724d759453c",
            "0x000000000000000000000000e0935b99d1a713588ec545dbedd41bbe03ac7c12"
          ],
          "data": "0xffffffffffffffffffffffffffffffffffffffffffffffffffffffffffffffff",
          "blockHash": "0x108534f31c734e66572f3703258ad83ea6d2bd4f0446da6b5f2bde9eb1c96404",
          "blockNumber": "0x6b28ef",
          "transactionHash": "0xcfca4db59575c4d73b189dbfb148d0fc10e61ca979a180c5286060f26b3cf65e",
          "transactionIndex": "0x5",
          "logIndex": "0x3",
          "removed": false
        }
      ],
      "status": "0x1",
      "logsBloom": "0x00000000000000000000000000000000000000000000000000000000000200000000000000000000000000000000000000000000000000000000000000200000000000000000000000000000000000000000000000000000000000000000000400000000000000000000000000000000400000000000000000000000400000000000001000100000000000400000000000000000000000000000000000000000020000000000000000000000000000000000000000000000000000000000000000000000000000000000000200000000000000000000000000000000000000000010000000000000000010000000000000000000000000000000000000000000",
      "type": "0x2",
      "effectiveGasPrice": "0x43ba6a17a"
    },
    {
      "transactionHash": "0xc2de09a73189d126e487df4873c7ddd265cd2a49e9135eb0aee29503e3316808",
      "transactionIndex": "0x6",
      "blockHash": "0x108534f31c734e66572f3703258ad83ea6d2bd4f0446da6b5f2bde9eb1c96404",
      "blockNumber": "0x6b28ef",
      "from": "0xDdb342ecc94236c29a5307d3757d0724D759453C",
      "to": "0x1c7D4B196Cb0C7B01d743Fbc6116a902379C7238",
      "cumulativeGasUsed": "0x49079",
      "gasUsed": "0xf2cf",
      "contractAddress": null,
      "logs": [
        {
          "address": "0x1c7D4B196Cb0C7B01d743Fbc6116a902379C7238",
          "topics": [
            "0xddf252ad1be2c89b69c2b068fc378daa952ba7f163c4a11628f55a4df523b3ef",
            "0x000000000000000000000000ddb342ecc94236c29a5307d3757d0724d759453c",
            "0x000000000000000000000000e0935b99d1a713588ec545dbedd41bbe03ac7c12"
          ],
          "data": "0x000000000000000000000000000000000000000000000000000000000007a120",
          "blockHash": "0x108534f31c734e66572f3703258ad83ea6d2bd4f0446da6b5f2bde9eb1c96404",
          "blockNumber": "0x6b28ef",
          "transactionHash": "0xc2de09a73189d126e487df4873c7ddd265cd2a49e9135eb0aee29503e3316808",
          "transactionIndex": "0x6",
          "logIndex": "0x4",
          "removed": false
        }
      ],
      "status": "0x1",
      "logsBloom": "0x00000000000000000000000000000000000000000000000000000000000200000000000000000000000000000000000000000000000000000000000000000000000000000000000000000008000000000000000000000000000000000000000400000000000000000000000000000000400000000000000000000010400000000000001000100000000000400000000000000000000000000000000000000000000000000000000000000000000000000000000000000000000000000000000000000002000000000000000200000000000000000000000000000000000000000000000000000000000010000000000000000000000000000000000000000000",
      "type": "0x2",
      "effectiveGasPrice": "0x43ba6a17a"
    },
    {
      "transactionHash": "0x728cc4298d48a61e73c5a09702ff1819b425658b401a48428ea873740ae08311",
      "transactionIndex": "0x8",
      "blockHash": "0x108534f31c734e66572f3703258ad83ea6d2bd4f0446da6b5f2bde9eb1c96404",
      "blockNumber": "0x6b28ef",
      "from": "0xDdb342ecc94236c29a5307d3757d0724D759453C",
      "to": "0xE0935B99d1a713588Ec545dbeDd41BbE03Ac7c12",
      "cumulativeGasUsed": "0xe7b99",
      "gasUsed": "0x21ee6",
      "contractAddress": null,
      "logs": [
        {
          "address": "0x1c7D4B196Cb0C7B01d743Fbc6116a902379C7238",
          "topics": [
            "0x8c5be1e5ebec7d5bd14f71427d1e84f3dd0314c0f7b2291e5b200ac8c7c3b925",
            "0x000000000000000000000000e0935b99d1a713588ec545dbedd41bbe03ac7c12",
            "0x00000000000000000000000086dc0b32a5045ffa48d9a60b7e7ca32f11facd7b"
          ],
          "data": "0x000000000000000000000000000000000000000000000000000000000007a120",
          "blockHash": "0x108534f31c734e66572f3703258ad83ea6d2bd4f0446da6b5f2bde9eb1c96404",
          "blockNumber": "0x6b28ef",
          "transactionHash": "0x728cc4298d48a61e73c5a09702ff1819b425658b401a48428ea873740ae08311",
          "transactionIndex": "0x8",
          "logIndex": "0x6",
          "removed": false
        },
        {
          "address": "0x1c7D4B196Cb0C7B01d743Fbc6116a902379C7238",
          "topics": [
            "0xddf252ad1be2c89b69c2b068fc378daa952ba7f163c4a11628f55a4df523b3ef",
            "0x000000000000000000000000e0935b99d1a713588ec545dbedd41bbe03ac7c12",
            "0x00000000000000000000000086dc0b32a5045ffa48d9a60b7e7ca32f11facd7b"
          ],
          "data": "0x000000000000000000000000000000000000000000000000000000000007a120",
          "blockHash": "0x108534f31c734e66572f3703258ad83ea6d2bd4f0446da6b5f2bde9eb1c96404",
          "blockNumber": "0x6b28ef",
          "transactionHash": "0x728cc4298d48a61e73c5a09702ff1819b425658b401a48428ea873740ae08311",
          "transactionIndex": "0x8",
          "logIndex": "0x7",
          "removed": false
        },
        {
          "address": "0xE2Bb56ee936fd6433DC0F6e7e3b8365C906AA057",
          "topics": [
            "0xdb80dd488acf86d17c747445b0eabb5d57c541d3bd7b6b87af987858e5066b2b",
            "0x00000000000000000000000086dc0b32a5045ffa48d9a60b7e7ca32f11facd7b",
            "0x0028729b12ce1140cbc1e7cbc7245455d3c15fa0c7f5d2e9fc8e0441567f6b50",
            "0x01b64b1b3b690b43b9b514fb81377518f4039cd3e4f4914d8a6bdf01d679fb19"
          ],
          "data": "0x00000000000000000000000000000000000000000000000000000000000000600000000000000000000000000000000000000000000000000000000000002759000000000000000000000000000000000000000000000000002386f26fc1000000000000000000000000000000000000000000000000000000000000000000050000000000000000000000001c7d4b196cb0c7b01d743fbc6116a902379c7238000000000000000000000000e0935b99d1a713588ec545dbedd41bbe03ac7c12068cd598638bf0af505600ab43b7c8eee178a4dee2280d9800eacfa927f77006000000000000000000000000000000000000000000000000000000000007a1200000000000000000000000000000000000000000000000000000000000000000",
          "blockHash": "0x108534f31c734e66572f3703258ad83ea6d2bd4f0446da6b5f2bde9eb1c96404",
          "blockNumber": "0x6b28ef",
          "transactionHash": "0x728cc4298d48a61e73c5a09702ff1819b425658b401a48428ea873740ae08311",
          "transactionIndex": "0x8",
          "logIndex": "0x8",
          "removed": false
        },
        {
          "address": "0x86dC0B32a5045FFa48D9a60B7e7Ca32F11faCd7B",
          "topics": [
            "0x5f971bd00bf3ffbca8a6d72cdd4fd92cfd4f62636161921d1e5a64f0b64ccb6d",
            "0x000000000000000000000000e0935b99d1a713588ec545dbedd41bbe03ac7c12",
            "0x0000000000000000000000001c7d4b196cb0c7b01d743fbc6116a902379c7238",
            "0x068cd598638bf0af505600ab43b7c8eee178a4dee2280d9800eacfa927f77006"
          ],
          "data": "0x000000000000000000000000000000000000000000000000000000000007a1200000000000000000000000000000000000000000000000000000000000002759000000000000000000000000000000000000000000000000002386f26fc10000",
          "blockHash": "0x108534f31c734e66572f3703258ad83ea6d2bd4f0446da6b5f2bde9eb1c96404",
          "blockNumber": "0x6b28ef",
          "transactionHash": "0x728cc4298d48a61e73c5a09702ff1819b425658b401a48428ea873740ae08311",
          "transactionIndex": "0x8",
          "logIndex": "0x9",
          "removed": false
        }
      ],
      "status": "0x1",
      "logsBloom": "0x00000000000000000200000000020000000000000000000000000000000200400000000000000000000000000000000000000000000004000000400000200000100000000000000000000008000000000000000000000040001000000000000000000000100000000000000000000000000200000000000000000210000080000000001000102000000000400404000000000000000000000000020000000050020000000000000000000020040000001000008000000020000002000000000000000002000000000000004200000000000000000000000000000000000000000010008000000000000010000080000000000000000000000000000000000000",
      "type": "0x2",
      "effectiveGasPrice": "0x43ba6a17a"
    }
  ],
  "libraries": [],
  "pending": [],
  "returns": {},
  "timestamp": 1730887478,
  "chain": 11155111,
  "multi": false,
  "commit": "9e60aff"
}