{
  "transactions": [
    {
      "hash": "0x7bb6161e888cbc75ed2796f8d35eac515b1af75979ab35ce2efe5e5e38fb5fa2",
      "transactionType": "CALL",
      "contractName": "StarkNetToken",
      "contractAddress": "0xCa14007Eff0dB1f8135f4C25B34De49AB0d42766",
      "function": "approve(address,uint256)",
      "arguments": [
        "0x0Ed0e15f0D7362b95A7F4441FCBfb948b63FD61b",
        "115792089237316195423570985008687907853269984665640564039457584007913129639935"
      ],
      "transaction": {
        "type": "0x02",
        "from": "0xddb342ecc94236c29a5307d3757d0724d759453c",
        "to": "0xca14007eff0db1f8135f4c25b34de49ab0d42766",
        "gas": "0x93a9",
        "value": "0x0",
        "data": "0x095ea7b30000000000000000000000000ed0e15f0d7362b95a7f4441fcbfb948b63fd61bffffffffffffffffffffffffffffffffffffffffffffffffffffffffffffffff",
        "nonce": "0x3b1",
        "accessList": []
      },
      "additionalContracts": [],
      "isFixedGasLimit": false
    }
  ],
  "receipts": [
    {
      "transactionHash": "0x7bb6161e888cbc75ed2796f8d35eac515b1af75979ab35ce2efe5e5e38fb5fa2",
      "transactionIndex": "0x5",
      "blockHash": "0xc0a93da0005ca3c0c8319ec7874a341218c2bd2af1dc795a37f2b92f2185f4bf",
      "blockNumber": "0x6ddd19",
      "from": "0xDdb342ecc94236c29a5307d3757d0724D759453C",
      "to": "0xCa14007Eff0dB1f8135f4C25B34De49AB0d42766",
      "cumulativeGasUsed": "0x39268",
      "gasUsed": "0x6ae8",
      "contractAddress": null,
      "logs": [
        {
          "address": "0xCa14007Eff0dB1f8135f4C25B34De49AB0d42766",
          "topics": [
            "0x8c5be1e5ebec7d5bd14f71427d1e84f3dd0314c0f7b2291e5b200ac8c7c3b925",
            "0x000000000000000000000000ddb342ecc94236c29a5307d3757d0724d759453c",
            "0x0000000000000000000000000ed0e15f0d7362b95a7f4441fcbfb948b63fd61b"
          ],
          "data": "0xffffffffffffffffffffffffffffffffffffffffffffffffffffffffffffffff",
          "blockHash": "0xc0a93da0005ca3c0c8319ec7874a341218c2bd2af1dc795a37f2b92f2185f4bf",
          "blockNumber": "0x6ddd19",
          "transactionHash": "0x7bb6161e888cbc75ed2796f8d35eac515b1af75979ab35ce2efe5e5e38fb5fa2",
          "transactionIndex": "0x5",
          "logIndex": "0x4",
          "removed": false
        }
      ],
      "status": "0x1",
      "logsBloom": "0x00000000000000000000000000000000000000000000000000000000000000000000001000000000000000000000000002002000000000000000000000200000000000000000000000000000000000000000000000000000000000000000000400000000000000000000000000000000400000000000000000000000400000000000000000000000000000000000000000000000000000000000000000000000020000000000000000000000000000000000000000000000000000000000000000000000000000020000000000000000000000000000000000800000000000000010000000000000000000000000000000000000001000000000000000000000",
      "type": "0x2",
      "effectiveGasPrice": "0x2048430dd"
    }
  ],
  "libraries": [],
  "pending": [],
  "returns": {},
  "timestamp": 1733193198,
  "chain": 11155111,
  "multi": false,
  "commit": "67ce98f"
}