{
  "transactions": [
    {
      "hash": "0xcfdd54350ad6d4383a6af6e70451028e4ebb7322b535363939b6e2759c802178",
      "transactionType": "CALL",
      "contractName": "StarkNetToken",
      "contractAddress": "0xCa14007Eff0dB1f8135f4C25B34De49AB0d42766",
      "function": "approve(address,uint256)",
      "arguments": [
        "0x7eb4C59eABE1234E8A6D02FdF4d1BB595C4702Cd",
        "115792089237316195423570985008687907853269984665640564039457584007913129639935"
      ],
      "transaction": {
        "type": "0x02",
        "from": "0xddb342ecc94236c29a5307d3757d0724d759453c",
        "to": "0xca14007eff0db1f8135f4c25b34de49ab0d42766",
        "gas": "0x93a9",
        "value": "0x0",
        "data": "0x095ea7b30000000000000000000000007eb4c59eabe1234e8a6d02fdf4d1bb595c4702cdffffffffffffffffffffffffffffffffffffffffffffffffffffffffffffffff",
        "nonce": "0x383",
        "accessList": []
      },
      "additionalContracts": [],
      "isFixedGasLimit": false
    },
    {
      "hash": "0x70e9a025ee91021ae85edf366aff972073b89c30030b85268350c3a44bbfdad1",
      "transactionType": "CALL",
      "contractName": null,
      "contractAddress": "0x7eb4C59eABE1234E8A6D02FdF4d1BB595C4702Cd",
      "function": "setL2EndpointAddress(uint256)",
      "arguments": [
        "724103513970500002052639628236854722977971715615467354252910116174465977276"
      ],
      "transaction": {
        "type": "0x02",
        "from": "0xddb342ecc94236c29a5307d3757d0724d759453c",
        "to": "0x7eb4c59eabe1234e8a6d02fdf4d1bb595c4702cd",
        "gas": "0xabab",
        "value": "0x0",
        "data": "0x5155fb2f0199d3fc13d980048336cdfba849a8ef4f509573439b530b5b92535a1e11cbbc",
        "nonce": "0x384",
        "accessList": []
      },
      "additionalContracts": [],
      "isFixedGasLimit": false
    }
  ],
  "receipts": [
    {
      "transactionHash": "0xcfdd54350ad6d4383a6af6e70451028e4ebb7322b535363939b6e2759c802178",
      "transactionIndex": "0x3",
      "blockHash": "0xa93c8ff7d8bb7099d5a907bccd91f238ce61497e9b12b89f815abcee07bea641",
      "blockNumber": "0x6d4490",
      "from": "0xDdb342ecc94236c29a5307d3757d0724D759453C",
      "to": "0xCa14007Eff0dB1f8135f4C25B34De49AB0d42766",
      "cumulativeGasUsed": "0x39a91",
      "gasUsed": "0x6ae8",
      "contractAddress": null,
      "logs": [
        {
          "address": "0xCa14007Eff0dB1f8135f4C25B34De49AB0d42766",
          "topics": [
            "0x8c5be1e5ebec7d5bd14f71427d1e84f3dd0314c0f7b2291e5b200ac8c7c3b925",
            "0x000000000000000000000000ddb342ecc94236c29a5307d3757d0724d759453c",
            "0x0000000000000000000000007eb4c59eabe1234e8a6d02fdf4d1bb595c4702cd"
          ],
          "data": "0xffffffffffffffffffffffffffffffffffffffffffffffffffffffffffffffff",
          "blockHash": "0xa93c8ff7d8bb7099d5a907bccd91f238ce61497e9b12b89f815abcee07bea641",
          "blockNumber": "0x6d4490",
          "transactionHash": "0xcfdd54350ad6d4383a6af6e70451028e4ebb7322b535363939b6e2759c802178",
          "transactionIndex": "0x3",
          "logIndex": "0x1",
          "removed": false
        }
      ],
      "status": "0x1",
      "logsBloom": "0x00000000000000100000000000000000000000000000000000000000000000000000000000000000000000000000000000000000000000000000000000200000000000000000000000000000000000000000000000000000000000000000000400020000000000000000000000000000400000000000000000000000400000000000000000000000000000000000000000000000000000000000000000000000020000000000000000000000000000008000000000000000000000000000000000000000000000020000000000000000000000000000000000800000000000000010000000000000000000000000000000000000001000000000000000000000",
      "type": "0x2",
      "effectiveGasPrice": "0x17e4e3ecf"
    },
    {
      "transactionHash": "0x70e9a025ee91021ae85edf366aff972073b89c30030b85268350c3a44bbfdad1",
      "transactionIndex": "0x4",
      "blockHash": "0xa93c8ff7d8bb7099d5a907bccd91f238ce61497e9b12b89f815abcee07bea641",
      "blockNumber": "0x6d4490",
      "from": "0xDdb342ecc94236c29a5307d3757d0724D759453C",
      "to": "0x7eb4C59eABE1234E8A6D02FdF4d1BB595C4702Cd",
      "cumulativeGasUsed": "0x40ff3",
      "gasUsed": "0x7562",
      "contractAddress": null,
      "logs": [
        {
          "address": "0x7eb4C59eABE1234E8A6D02FdF4d1BB595C4702Cd",
          "topics": [
            "0xa35dce9e53611b0cabca886209c4a1d09c80214af9b6fb6027f7b2f7c39838e8"
          ],
          "data": "0x0199d3fc13d980048336cdfba849a8ef4f509573439b530b5b92535a1e11cbbc",
          "blockHash": "0xa93c8ff7d8bb7099d5a907bccd91f238ce61497e9b12b89f815abcee07bea641",
          "blockNumber": "0x6d4490",
          "transactionHash": "0x70e9a025ee91021ae85edf366aff972073b89c30030b85268350c3a44bbfdad1",
          "transactionIndex": "0x4",
          "logIndex": "0x2",
          "removed": false
        }
      ],
      "status": "0x1",
      "logsBloom": "0x00000000000000000000000010000000000000000000000000000000000000000000000000000000000000000000000000000000000000200000000000000000000000000000000000000000000200000000000000000000000000000000000000000000000000000000000000000000000000000000000000000001000000000000000000000000000000000000000000000000000000000000000000000000800000000000000000000000000000200000000000000000000000000000000000000000000000000000000000000000000000000000000000000000000000000000000000000000000000000000000000000000000000000000000000000000",
      "type": "0x2",
      "effectiveGasPrice": "0x17e4e3ecf"
    }
  ],
  "libraries": [],
  "pending": [],
  "returns": {},
  "timestamp": 1732681802,
  "chain": 11155111,
  "multi": false,
  "commit": "1254ada"
}