{
  "transactions": [
    {
      "hash": "0x1cd755a362f0f429da7efe95d0c7175a6e4f19f6218ddd12118b88c4e7a6d37b",
      "transactionType": "CALL",
      "contractName": "StarkNetToken",
      "contractAddress": "0xCa14007Eff0dB1f8135f4C25B34De49AB0d42766",
      "function": "approve(address,uint256)",
      "arguments": [
        "0x86BFbbaCCafa9a422978f00b35f97D95844fb83A",
        "115792089237316195423570985008687907853269984665640564039457584007913129639935"
      ],
      "transaction": {
        "type": "0x02",
        "from": "0xddb342ecc94236c29a5307d3757d0724d759453c",
        "to": "0xca14007eff0db1f8135f4c25b34de49ab0d42766",
        "gas": "0xff08",
        "value": "0x0",
        "data": "0x095ea7b300000000000000000000000086bfbbaccafa9a422978f00b35f97d95844fb83affffffffffffffffffffffffffffffffffffffffffffffffffffffffffffffff",
        "nonce": "0x34a",
        "accessList": []
      },
      "additionalContracts": [],
      "isFixedGasLimit": false
    },
    {
      "hash": "0x6a89e89f8518d7e6f4f8578cf1376cb4a3d3e0b4d5e405a676004783c220c444",
      "transactionType": "CALL",
      "contractName": null,
      "contractAddress": "0x86BFbbaCCafa9a422978f00b35f97D95844fb83A",
      "function": "depositAndCreateOrder((address,uint256,uint256,uint128,uint128,uint128,uint128,uint256))",
      "arguments": [
        "(0xDdb342ecc94236c29a5307d3757d0724D759453C, 2009894490435840142178314390393166646092438090257831307886760648929397478285, 2366254414417873771392932940469309727793822550615514268240785277201753657472, 170141183460469235273462165868118016, 1732286144, 1732286208, 50000000000000000, 1883401296703965083189570633031918159622068791907768462215909222728633759331)"
      ],
      "transaction": {
        "type": "0x02",
        "from": "0xddb342ecc94236c29a5307d3757d0724d759453c",
        "to": "0x86bfbbaccafa9a422978f00b35f97d95844fb83a",
        "gas": "0x449ae",
        "value": "0x1c6bf52634000",
        "data": "0x5ce510fa000000000000000000000000ddb342ecc94236c29a5307d3757d0724d759453c04718f5a0fc34cc1af16a1cdee98ffb20c31f5cd61d6ab07201858f4287c938d053b40a647cedfca6ca84f542a0fe36736031905a9639a7f19a3c1e66bfd5080000000000000000000000000000000000020c49ba5e353f8000000000000000000000000000000000000000000000000000000000000000000000000674096c0000000000000000000000000000000000000000000000000000000006740970000000000000000000000000000000000000000000000000000b1a2bc2ec500000429f7a4bd4de9fc98a94cec9163caf6f50a5d7fcec583fa30d2d9bb33a93663",
        "nonce": "0x34b",
        "accessList": []
      },
      "additionalContracts": [],
      "isFixedGasLimit": false
    }
  ],
  "receipts": [
    {
      "transactionHash": "0x1cd755a362f0f429da7efe95d0c7175a6e4f19f6218ddd12118b88c4e7a6d37b",
      "transactionIndex": "0x1",
      "blockHash": "0x32285903e16c5c62a262a04dcbe8a34d4312d6bf23148d74bd25475ee98b87ad",
      "blockNumber": "0x6ccb64",
      "from": "0xDdb342ecc94236c29a5307d3757d0724D759453C",
      "to": "0xCa14007Eff0dB1f8135f4C25B34De49AB0d42766",
      "cumulativeGasUsed": "0x1bbea",
      "gasUsed": "0xb8a4",
      "contractAddress": null,
      "logs": [
        {
          "address": "0xCa14007Eff0dB1f8135f4C25B34De49AB0d42766",
          "topics": [
            "0x8c5be1e5ebec7d5bd14f71427d1e84f3dd0314c0f7b2291e5b200ac8c7c3b925",
            "0x000000000000000000000000ddb342ecc94236c29a5307d3757d0724d759453c",
            "0x00000000000000000000000086bfbbaccafa9a422978f00b35f97d95844fb83a"
          ],
          "data": "0xffffffffffffffffffffffffffffffffffffffffffffffffffffffffffffffff",
          "blockHash": "0x32285903e16c5c62a262a04dcbe8a34d4312d6bf23148d74bd25475ee98b87ad",
          "blockNumber": "0x6ccb64",
          "transactionHash": "0x1cd755a362f0f429da7efe95d0c7175a6e4f19f6218ddd12118b88c4e7a6d37b",
          "transactionIndex": "0x1",
          "logIndex": "0x2",
          "removed": false
        }
      ],
      "status": "0x1",
      "logsBloom": "0x00000000800000000000000000000000000000000000000000000000000000000000000000000000000000000000000000000000000000000000000000200000000000000000000000000000000000000000000000000000000000000000000400000000000000000000000004000000400000000000000000000000400000000000000000000000000000000000000000000000000000000000000000000000022000000000000000000000000000000000000000000000000000000000000000000000000000020000000000000000000000000000000000800000000000000010000000000000000000000000000000000000001000000000000000000000",
      "type": "0x2",
      "effectiveGasPrice": "0x55815b730"
    },
    {
      "transactionHash": "0x6a89e89f8518d7e6f4f8578cf1376cb4a3d3e0b4d5e405a676004783c220c444",
      "transactionIndex": "0x2",
      "blockHash": "0x32285903e16c5c62a262a04dcbe8a34d4312d6bf23148d74bd25475ee98b87ad",
      "blockNumber": "0x6ccb64",
      "from": "0xDdb342ecc94236c29a5307d3757d0724D759453C",
      "to": "0x86BFbbaCCafa9a422978f00b35f97D95844fb83A",
      "cumulativeGasUsed": "0x4d291",
      "gasUsed": "0x316a7",
      "contractAddress": null,
      "logs": [
        {
          "address": "0xCa14007Eff0dB1f8135f4C25B34De49AB0d42766",
          "topics": [
            "0xddf252ad1be2c89b69c2b068fc378daa952ba7f163c4a11628f55a4df523b3ef",
            "0x000000000000000000000000ddb342ecc94236c29a5307d3757d0724d759453c",
            "0x00000000000000000000000086bfbbaccafa9a422978f00b35f97d95844fb83a"
          ],
          "data": "0x00000000000000000000000000000000000000000000000000b1a2bc2ec50000",
          "blockHash": "0x32285903e16c5c62a262a04dcbe8a34d4312d6bf23148d74bd25475ee98b87ad",
          "blockNumber": "0x6ccb64",
          "transactionHash": "0x6a89e89f8518d7e6f4f8578cf1376cb4a3d3e0b4d5e405a676004783c220c444",
          "transactionIndex": "0x2",
          "logIndex": "0x3",
          "removed": false
        },
        {
          "address": "0xCa14007Eff0dB1f8135f4C25B34De49AB0d42766",
          "topics": [
            "0x8c5be1e5ebec7d5bd14f71427d1e84f3dd0314c0f7b2291e5b200ac8c7c3b925",
            "0x00000000000000000000000086bfbbaccafa9a422978f00b35f97d95844fb83a",
            "0x000000000000000000000000ce5485cfb26914c5dce00b9baf0580364dafc7a4"
          ],
          "data": "0x0000000000000000000000000000000000000000000000000000000000000000",
          "blockHash": "0x32285903e16c5c62a262a04dcbe8a34d4312d6bf23148d74bd25475ee98b87ad",
          "blockNumber": "0x6ccb64",
          "transactionHash": "0x6a89e89f8518d7e6f4f8578cf1376cb4a3d3e0b4d5e405a676004783c220c444",
          "transactionIndex": "0x2",
          "logIndex": "0x4",
          "removed": false
        },
        {
          "address": "0xCa14007Eff0dB1f8135f4C25B34De49AB0d42766",
          "topics": [
            "0x8c5be1e5ebec7d5bd14f71427d1e84f3dd0314c0f7b2291e5b200ac8c7c3b925",
            "0x00000000000000000000000086bfbbaccafa9a422978f00b35f97d95844fb83a",
            "0x000000000000000000000000ce5485cfb26914c5dce00b9baf0580364dafc7a4"
          ],
          "data": "0x00000000000000000000000000000000000000000000000000b1a2bc2ec50000",
          "blockHash": "0x32285903e16c5c62a262a04dcbe8a34d4312d6bf23148d74bd25475ee98b87ad",
          "blockNumber": "0x6ccb64",
          "transactionHash": "0x6a89e89f8518d7e6f4f8578cf1376cb4a3d3e0b4d5e405a676004783c220c444",
          "transactionIndex": "0x2",
          "logIndex": "0x5",
          "removed": false
        },
        {
          "address": "0xCa14007Eff0dB1f8135f4C25B34De49AB0d42766",
          "topics": [
            "0x8c5be1e5ebec7d5bd14f71427d1e84f3dd0314c0f7b2291e5b200ac8c7c3b925",
            "0x00000000000000000000000086bfbbaccafa9a422978f00b35f97d95844fb83a",
            "0x000000000000000000000000ce5485cfb26914c5dce00b9baf0580364dafc7a4"
          ],
          "data": "0x0000000000000000000000000000000000000000000000000000000000000000",
          "blockHash": "0x32285903e16c5c62a262a04dcbe8a34d4312d6bf23148d74bd25475ee98b87ad",
          "blockNumber": "0x6ccb64",
          "transactionHash": "0x6a89e89f8518d7e6f4f8578cf1376cb4a3d3e0b4d5e405a676004783c220c444",
          "transactionIndex": "0x2",
          "logIndex": "0x6",
          "removed": false
        },
        {
          "address": "0xCa14007Eff0dB1f8135f4C25B34De49AB0d42766",
          "topics": [
            "0xddf252ad1be2c89b69c2b068fc378daa952ba7f163c4a11628f55a4df523b3ef",
            "0x00000000000000000000000086bfbbaccafa9a422978f00b35f97d95844fb83a",
            "0x000000000000000000000000ce5485cfb26914c5dce00b9baf0580364dafc7a4"
          ],
          "data": "0x00000000000000000000000000000000000000000000000000b1a2bc2ec50000",
          "blockHash": "0x32285903e16c5c62a262a04dcbe8a34d4312d6bf23148d74bd25475ee98b87ad",
          "blockNumber": "0x6ccb64",
          "transactionHash": "0x6a89e89f8518d7e6f4f8578cf1376cb4a3d3e0b4d5e405a676004783c220c444",
          "transactionIndex": "0x2",
          "logIndex": "0x7",
          "removed": false
        },
        {
          "address": "0xE2Bb56ee936fd6433DC0F6e7e3b8365C906AA057",
          "topics": [
            "0xdb80dd488acf86d17c747445b0eabb5d57c541d3bd7b6b87af987858e5066b2b",
            "0x000000000000000000000000ce5485cfb26914c5dce00b9baf0580364dafc7a4",
            "0x0594c1582459ea03f77deaf9eb7e3917d6994a03c13405ba42867f83d85f085d",
            "0x01b64b1b3b690b43b9b514fb81377518f4039cd3e4f4914d8a6bdf01d679fb19"
          ],
          "data": "0x000000000000000000000000000000000000000000000000000000000000006000000000000000000000000000000000000000000000000000000000000029060000000000000000000000000000000000000000000000000000e35fa931a0000000000000000000000000000000000000000000000000000000000000000005000000000000000000000000ca14007eff0db1f8135f4c25b34de49ab0d4276600000000000000000000000086bfbbaccafa9a422978f00b35f97d95844fb83a003ab3e22ed982eee791557781ca80a3859afc78f5e6cce579d15bed1fa6697200000000000000000000000000000000000000000000000000b1a2bc2ec500000000000000000000000000000000000000000000000000000000000000000000",
          "blockHash": "0x32285903e16c5c62a262a04dcbe8a34d4312d6bf23148d74bd25475ee98b87ad",
          "blockNumber": "0x6ccb64",
          "transactionHash": "0x6a89e89f8518d7e6f4f8578cf1376cb4a3d3e0b4d5e405a676004783c220c444",
          "transactionIndex": "0x2",
          "logIndex": "0x8",
          "removed": false
        },
        {
          "address": "0xcE5485Cfb26914C5dcE00B9BAF0580364daFC7a4",
          "topics": [
            "0x5f971bd00bf3ffbca8a6d72cdd4fd92cfd4f62636161921d1e5a64f0b64ccb6d",
            "0x00000000000000000000000086bfbbaccafa9a422978f00b35f97d95844fb83a",
            "0x000000000000000000000000ca14007eff0db1f8135f4c25b34de49ab0d42766",
            "0x003ab3e22ed982eee791557781ca80a3859afc78f5e6cce579d15bed1fa66972"
          ],
          "data": "0x00000000000000000000000000000000000000000000000000b1a2bc2ec5000000000000000000000000000000000000000000000000000000000000000029060000000000000000000000000000000000000000000000000000e35fa931a000",
          "blockHash": "0x32285903e16c5c62a262a04dcbe8a34d4312d6bf23148d74bd25475ee98b87ad",
          "blockNumber": "0x6ccb64",
          "transactionHash": "0x6a89e89f8518d7e6f4f8578cf1376cb4a3d3e0b4d5e405a676004783c220c444",
          "transactionIndex": "0x2",
          "logIndex": "0x9",
          "removed": false
        },
        {
          "address": "0xE2Bb56ee936fd6433DC0F6e7e3b8365C906AA057",
          "topics": [
            "0xdb80dd488acf86d17c747445b0eabb5d57c541d3bd7b6b87af987858e5066b2b",
            "0x00000000000000000000000086bfbbaccafa9a422978f00b35f97d95844fb83a",
            "0x003ab3e22ed982eee791557781ca80a3859afc78f5e6cce579d15bed1fa66972",
            "0x00f1149cade9d692862ad41df96b108aa2c20af34f640457e781d166c98dc6b0"
          ],
          "data": "0x000000000000000000000000000000000000000000000000000000000000006000000000000000000000000000000000000000000000000000000000000029070000000000000000000000000000000000000000000000000000e35fa931a00000000000000000000000000000000000000000000000000000000000000000090000000000000000000000000000000000000000000000000000000000000000000000000000000000000000ddb342ecc94236c29a5307d3757d0724d759453c04718f5a0fc34cc1af16a1cdee98ffb20c31f5cd61d6ab07201858f4287c938d053b40a647cedfca6ca84f542a0fe36736031905a9639a7f19a3c1e66bfd5080000000000000000000000000000000000020c49ba5e353f8000000000000000000000000000000000000000000000000000000000000000000000000674096c0000000000000000000000000000000000000000000000000000000006740970000000000000000000000000000000000000000000000000000b1a2bc2ec50000000000000000000000000000ce5485cfb26914c5dce00b9baf0580364dafc7a4",
          "blockHash": "0x32285903e16c5c62a262a04dcbe8a34d4312d6bf23148d74bd25475ee98b87ad",
          "blockNumber": "0x6ccb64",
          "transactionHash": "0x6a89e89f8518d7e6f4f8578cf1376cb4a3d3e0b4d5e405a676004783c220c444",
          "transactionIndex": "0x2",
          "logIndex": "0xa",
          "removed": false
        },
        {
          "address": "0x86BFbbaCCafa9a422978f00b35f97D95844fb83A",
          "topics": [
            "0xaf43445f7721522b7a3864ed3de53d7e2e658bfa1eeffa18e1e229be68ce2545",
            "0x000000000000000000000000ddb342ecc94236c29a5307d3757d0724d759453c",
            "0x003ab3e22ed982eee791557781ca80a3859afc78f5e6cce579d15bed1fa66972"
          ],
          "data": "0x00000000000000000000000000000000000000000000000000b1a2bc2ec500000000000000000000000000000000000000000000000000000000000000000001",
          "blockHash": "0x32285903e16c5c62a262a04dcbe8a34d4312d6bf23148d74bd25475ee98b87ad",
          "blockNumber": "0x6ccb64",
          "transactionHash": "0x6a89e89f8518d7e6f4f8578cf1376cb4a3d3e0b4d5e405a676004783c220c444",
          "transactionIndex": "0x2",
          "logIndex": "0xb",
          "removed": false
        }
      ],
      "status": "0x1",
      "logsBloom": "0x00400200800000000200000000020400000000000000400000000000000800400000000000000000000000000000000000008000000004000000000000200000000000000000000000000808080000000000000000000040001000000000000600000000100000010000000004000000400000000000000000000010400008002000000000000000000000000400000004000000000200000000020000000010022000800000000000000020004000001000000000000020000000000000000000000002000000024010000000000000000000200000000000800000000000000010000000010000000000020084000000000000001000000000000000000000",
      "type": "0x2",
      "effectiveGasPrice": "0x55815b730"
    }
  ],
  "libraries": [],
  "pending": [],
  "returns": {},
  "timestamp": 1732286201,
  "chain": 11155111,
  "multi": false,
  "commit": "56a4d39"
}