{
  "transactions": [
    {
      "hash": "0x02024d0231560cdbe24c2bbde4e3eeba0fd6ad4b0dfac3931440307276ef96e4",
      "transactionType": "CALL",
      "contractName": "FiatTokenProxy",
      "contractAddress": "0x1c7D4B196Cb0C7B01d743Fbc6116a902379C7238",
      "function": "approve(address,uint256)",
      "arguments": [
        "0xADDc4aa40570b7c45d57f3e4203F5a5135CD6c39",
        "115792089237316195423570985008687907853269984665640564039457584007913129639935"
      ],
      "transaction": {
        "type": "0x02",
        "from": "0xddb342ecc94236c29a5307d3757d0724d759453c",
        "to": "0x1c7d4b196cb0c7b01d743fbc6116a902379c7238",
        "gas": "0xc19d",
        "value": "0x0",
        "data": "0x095ea7b3000000000000000000000000addc4aa40570b7c45d57f3e4203f5a5135cd6c39ffffffffffffffffffffffffffffffffffffffffffffffffffffffffffffffff",
        "nonce": "0x1d8",
        "accessList": []
      },
      "additionalContracts": [],
      "isFixedGasLimit": false
    },
    {
      "hash": "0x66171d92c3c34a514defba8658ce6d31748d6e29722a0104b2c251760bb215db",
      "transactionType": "CALL",
      "contractName": "FiatTokenProxy",
      "contractAddress": "0x1c7D4B196Cb0C7B01d743Fbc6116a902379C7238",
      "function": "transfer(address,uint256)",
      "arguments": [
        "0xADDc4aa40570b7c45d57f3e4203F5a5135CD6c39",
        "100000"
      ],
      "transaction": {
        "type": "0x02",
        "from": "0xddb342ecc94236c29a5307d3757d0724d759453c",
        "to": "0x1c7d4b196cb0c7b01d743fbc6116a902379c7238",
        "gas": "0x14f5f",
        "value": "0x0",
        "data": "0xa9059cbb000000000000000000000000addc4aa40570b7c45d57f3e4203f5a5135cd6c3900000000000000000000000000000000000000000000000000000000000186a0",
        "nonce": "0x1d9",
        "accessList": []
      },
      "additionalContracts": [],
      "isFixedGasLimit": false
    },
    {
      "hash": "0x9d1ee7b220a3d880e9f3c509938df496cecf32beb0867b704f47d9295e7626eb",
      "transactionType": "CALL",
      "contractName": "L1TWAMMBridge",
      "contractAddress": "0xADDc4aa40570b7c45d57f3e4203F5a5135CD6c39",
      "function": "depositAndCreateOrder((address,address,address,uint128,uint128,uint128,uint128,uint256))",
      "arguments": [
        "(0xDdb342ecc94236c29a5307d3757d0724D759453C, 0x1c7D4B196Cb0C7B01d743Fbc6116a902379C7238, 0x1c7D4B196Cb0C7B01d743Fbc6116a902379C7238, 10000000000000000, 1730889568, 1730889632, 100000, 834389543886275815094376301029049503606351689021623334845040058375429691485)"
      ],
      "transaction": {
        "type": "0x02",
        "from": "0xddb342ecc94236c29a5307d3757d0724d759453c",
        "to": "0xaddc4aa40570b7c45d57f3e4203f5a5135cd6c39",
        "gas": "0x3cbf1",
        "value": "0x2386f26fc10000",
        "data": "0x9d251505000000000000000000000000ddb342ecc94236c29a5307d3757d0724d759453c0000000000000000000000001c7d4b196cb0c7b01d743fbc6116a902379c72380000000000000000000000001c7d4b196cb0c7b01d743fbc6116a902379c7238000000000000000000000000000000000000000000000000002386f26fc1000000000000000000000000000000000000000000000000000000000000672b476000000000000000000000000000000000000000000000000000000000672b47a000000000000000000000000000000000000000000000000000000000000186a001d83f6c48536465fef0bd01400b78fcd97c3804e2a3edadf906badf6698185d",
        "nonce": "0x1da",
        "accessList": []
      },
      "additionalContracts": [],
      "isFixedGasLimit": false
    }
  ],
  "receipts": [
    {
      "transactionHash": "0x02024d0231560cdbe24c2bbde4e3eeba0fd6ad4b0dfac3931440307276ef96e4",
      "transactionIndex": "0xd",
      "blockHash": "0x924ca2e094d5ab2e669de09b36e339fcd146416eb7408e6e0cdff131b5d2c803",
      "blockNumber": "0x6b2996",
      "from": "0xDdb342ecc94236c29a5307d3757d0724D759453C",
      "to": "0x1c7D4B196Cb0C7B01d743Fbc6116a902379C7238",
      "cumulativeGasUsed": "0x11283a",
      "gasUsed": "0x8c2d",
      "contractAddress": null,
      "logs": [
        {
          "address": "0x1c7D4B196Cb0C7B01d743Fbc6116a902379C7238",
          "topics": [
            "0x8c5be1e5ebec7d5bd14f71427d1e84f3dd0314c0f7b2291e5b200ac8c7c3b925",
            "0x000000000000000000000000ddb342ecc94236c29a5307d3757d0724d759453c",
            "0x000000000000000000000000addc4aa40570b7c45d57f3e4203f5a5135cd6c39"
          ],
          "data": "0xffffffffffffffffffffffffffffffffffffffffffffffffffffffffffffffff",
          "blockHash": "0x924ca2e094d5ab2e669de09b36e339fcd146416eb7408e6e0cdff131b5d2c803",
          "blockNumber": "0x6b2996",
          "transactionHash": "0x02024d0231560cdbe24c2bbde4e3eeba0fd6ad4b0dfac3931440307276ef96e4",
          "transactionIndex": "0xd",
          "logIndex": "0x12",
          "removed": false
        }
      ],
      "status": "0x1",
      "logsBloom": "0x00000000000000000000000000000000000000000000000000000000000200000000000000000000000000000000000000000000000000000000000000200000000000000000000000000000000000000000000000000000000000000000000400000000000000000000000000000000400000000000000000000000400000000000004000100000000000000000000000000000000000000000000000000000020100000000000000000000000000000000000000000000000000000000000000000000000000000000000000000000000000000000000000000000000000000010000000000000000810000000000000000000000000000000000000000000",
      "type": "0x2",
      "effectiveGasPrice": "0xbc555b912"
    },
    {
      "transactionHash": "0x66171d92c3c34a514defba8658ce6d31748d6e29722a0104b2c251760bb215db",
      "transactionIndex": "0xe",
      "blockHash": "0x924ca2e094d5ab2e669de09b36e339fcd146416eb7408e6e0cdff131b5d2c803",
      "blockNumber": "0x6b2996",
      "from": "0xDdb342ecc94236c29a5307d3757d0724D759453C",
      "to": "0x1c7D4B196Cb0C7B01d743Fbc6116a902379C7238",
      "cumulativeGasUsed": "0x121b09",
      "gasUsed": "0xf2cf",
      "contractAddress": null,
      "logs": [
        {
          "address": "0x1c7D4B196Cb0C7B01d743Fbc6116a902379C7238",
          "topics": [
            "0xddf252ad1be2c89b69c2b068fc378daa952ba7f163c4a11628f55a4df523b3ef",
            "0x000000000000000000000000ddb342ecc94236c29a5307d3757d0724d759453c",
            "0x000000000000000000000000addc4aa40570b7c45d57f3e4203f5a5135cd6c39"
          ],
          "data": "0x00000000000000000000000000000000000000000000000000000000000186a0",
          "blockHash": "0x924ca2e094d5ab2e669de09b36e339fcd146416eb7408e6e0cdff131b5d2c803",
          "blockNumber": "0x6b2996",
          "transactionHash": "0x66171d92c3c34a514defba8658ce6d31748d6e29722a0104b2c251760bb215db",
          "transactionIndex": "0xe",
          "logIndex": "0x13",
          "removed": false
        }
      ],
      "status": "0x1",
      "logsBloom": "0x00000000000000000000000000000000000000000000000000000000000200000000000000000000000000000000000000000000000000000000000000000000000000000000000000000008000000000000000000000000000000000000000400000000000000000000000000000000400000000000000000000010400000000000004000100000000000000000000000000000000000000000000000000000000100000000000000000000000000000000000000000000000000000000000000000002000000000000000000000000000000000000000000000000000000000000000000000000000810000000000000000000000000000000000000000000",
      "type": "0x2",
      "effectiveGasPrice": "0xbc555b912"
    },
    {
      "transactionHash": "0x9d1ee7b220a3d880e9f3c509938df496cecf32beb0867b704f47d9295e7626eb",
      "transactionIndex": "0xf",
      "blockHash": "0x924ca2e094d5ab2e669de09b36e339fcd146416eb7408e6e0cdff131b5d2c803",
      "blockNumber": "0x6b2996",
      "from": "0xDdb342ecc94236c29a5307d3757d0724D759453C",
      "to": "0xADDc4aa40570b7c45d57f3e4203F5a5135CD6c39",
      "cumulativeGasUsed": "0x14d6a8",
      "gasUsed": "0x2bb9f",
      "contractAddress": null,
      "logs": [
        {
          "address": "0x1c7D4B196Cb0C7B01d743Fbc6116a902379C7238",
          "topics": [
            "0xddf252ad1be2c89b69c2b068fc378daa952ba7f163c4a11628f55a4df523b3ef",
            "0x000000000000000000000000ddb342ecc94236c29a5307d3757d0724d759453c",
            "0x000000000000000000000000addc4aa40570b7c45d57f3e4203f5a5135cd6c39"
          ],
          "data": "0x00000000000000000000000000000000000000000000000000000000000186a0",
          "blockHash": "0x924ca2e094d5ab2e669de09b36e339fcd146416eb7408e6e0cdff131b5d2c803",
          "blockNumber": "0x6b2996",
          "transactionHash": "0x9d1ee7b220a3d880e9f3c509938df496cecf32beb0867b704f47d9295e7626eb",
          "transactionIndex": "0xf",
          "logIndex": "0x14",
          "removed": false
        },
        {
          "address": "0x1c7D4B196Cb0C7B01d743Fbc6116a902379C7238",
          "topics": [
            "0x8c5be1e5ebec7d5bd14f71427d1e84f3dd0314c0f7b2291e5b200ac8c7c3b925",
            "0x000000000000000000000000addc4aa40570b7c45d57f3e4203f5a5135cd6c39",
            "0x00000000000000000000000086dc0b32a5045ffa48d9a60b7e7ca32f11facd7b"
          ],
          "data": "0x0000000000000000000000000000000000000000000000000000000000000000",
          "blockHash": "0x924ca2e094d5ab2e669de09b36e339fcd146416eb7408e6e0cdff131b5d2c803",
          "blockNumber": "0x6b2996",
          "transactionHash": "0x9d1ee7b220a3d880e9f3c509938df496cecf32beb0867b704f47d9295e7626eb",
          "transactionIndex": "0xf",
          "logIndex": "0x15",
          "removed": false
        },
        {
          "address": "0x1c7D4B196Cb0C7B01d743Fbc6116a902379C7238",
          "topics": [
            "0x8c5be1e5ebec7d5bd14f71427d1e84f3dd0314c0f7b2291e5b200ac8c7c3b925",
            "0x000000000000000000000000addc4aa40570b7c45d57f3e4203f5a5135cd6c39",
            "0x00000000000000000000000086dc0b32a5045ffa48d9a60b7e7ca32f11facd7b"
          ],
          "data": "0x00000000000000000000000000000000000000000000000000000000000186a0",
          "blockHash": "0x924ca2e094d5ab2e669de09b36e339fcd146416eb7408e6e0cdff131b5d2c803",
          "blockNumber": "0x6b2996",
          "transactionHash": "0x9d1ee7b220a3d880e9f3c509938df496cecf32beb0867b704f47d9295e7626eb",
          "transactionIndex": "0xf",
          "logIndex": "0x16",
          "removed": false
        },
        {
          "address": "0x1c7D4B196Cb0C7B01d743Fbc6116a902379C7238",
          "topics": [
            "0xddf252ad1be2c89b69c2b068fc378daa952ba7f163c4a11628f55a4df523b3ef",
            "0x000000000000000000000000addc4aa40570b7c45d57f3e4203f5a5135cd6c39",
            "0x00000000000000000000000086dc0b32a5045ffa48d9a60b7e7ca32f11facd7b"
          ],
          "data": "0x00000000000000000000000000000000000000000000000000000000000186a0",
          "blockHash": "0x924ca2e094d5ab2e669de09b36e339fcd146416eb7408e6e0cdff131b5d2c803",
          "blockNumber": "0x6b2996",
          "transactionHash": "0x9d1ee7b220a3d880e9f3c509938df496cecf32beb0867b704f47d9295e7626eb",
          "transactionIndex": "0xf",
          "logIndex": "0x17",
          "removed": false
        },
        {
          "address": "0xE2Bb56ee936fd6433DC0F6e7e3b8365C906AA057",
          "topics": [
            "0xdb80dd488acf86d17c747445b0eabb5d57c541d3bd7b6b87af987858e5066b2b",
            "0x00000000000000000000000086dc0b32a5045ffa48d9a60b7e7ca32f11facd7b",
            "0x0028729b12ce1140cbc1e7cbc7245455d3c15fa0c7f5d2e9fc8e0441567f6b50",
            "0x008bce41827dd5484d80312a2e43bc42a896e3fcf75bf84c2b49339168dfa00a"
          ],
          "data": "0x0000000000000000000000000000000000000000000000000000000000000060000000000000000000000000000000000000000000000000000000000000275c000000000000000000000000000000000000000000000000002386f26fc10000000000000000000000000000000000000000000000000000000000000000000d0000000000000000000000001c7d4b196cb0c7b01d743fbc6116a902379c7238000000000000000000000000addc4aa40570b7c45d57f3e4203f5a5135cd6c3901d83f6c48536465fef0bd01400b78fcd97c3804e2a3edadf906badf6698185d00000000000000000000000000000000000000000000000000000000000186a0000000000000000000000000000000000000000000000000000000000000000000000000000000000000000000000000000000000000000000000000000000070000000000000000000000000000000000000000000000000000000000000000000000000000000000000000ddb342ecc94236c29a5307d3757d0724d759453c0000000000000000000000001c7d4b196cb0c7b01d743fbc6116a902379c72380000000000000000000000001c7d4b196cb0c7b01d743fbc6116a902379c7238000000000000000000000000000000000000000000000000002386f26fc1000000000000000000000000000000000000000000000000000000000000672b476000000000000000000000000000000000000000000000000000000000672b47a0",
          "blockHash": "0x924ca2e094d5ab2e669de09b36e339fcd146416eb7408e6e0cdff131b5d2c803",
          "blockNumber": "0x6b2996",
          "transactionHash": "0x9d1ee7b220a3d880e9f3c509938df496cecf32beb0867b704f47d9295e7626eb",
          "transactionIndex": "0xf",
          "logIndex": "0x18",
          "removed": false
        },
        {
          "address": "0x86dC0B32a5045FFa48D9a60B7e7Ca32F11faCd7B",
          "topics": [
            "0x2203a49c69f1a46c1164f5e4a30643dd77b7c59c0ff9bc433256048365c247f1",
            "0x000000000000000000000000addc4aa40570b7c45d57f3e4203f5a5135cd6c39",
            "0x0000000000000000000000001c7d4b196cb0c7b01d743fbc6116a902379c7238",
            "0x01d83f6c48536465fef0bd01400b78fcd97c3804e2a3edadf906badf6698185d"
          ],
          "data": "0x00000000000000000000000000000000000000000000000000000000000186a00000000000000000000000000000000000000000000000000000000000000080000000000000000000000000000000000000000000000000000000000000275c000000000000000000000000000000000000000000000000002386f26fc1000000000000000000000000000000000000000000000000000000000000000000070000000000000000000000000000000000000000000000000000000000000000000000000000000000000000ddb342ecc94236c29a5307d3757d0724d759453c0000000000000000000000001c7d4b196cb0c7b01d743fbc6116a902379c72380000000000000000000000001c7d4b196cb0c7b01d743fbc6116a902379c7238000000000000000000000000000000000000000000000000002386f26fc1000000000000000000000000000000000000000000000000000000000000672b476000000000000000000000000000000000000000000000000000000000672b47a0",
          "blockHash": "0x924ca2e094d5ab2e669de09b36e339fcd146416eb7408e6e0cdff131b5d2c803",
          "blockNumber": "0x6b2996",
          "transactionHash": "0x9d1ee7b220a3d880e9f3c509938df496cecf32beb0867b704f47d9295e7626eb",
          "transactionIndex": "0xf",
          "logIndex": "0x19",
          "removed": false
        },
        {
          "address": "0xADDc4aa40570b7c45d57f3e4203F5a5135CD6c39",
          "topics": [
            "0xaf43445f7721522b7a3864ed3de53d7e2e658bfa1eeffa18e1e229be68ce2545",
            "0x000000000000000000000000ddb342ecc94236c29a5307d3757d0724d759453c",
            "0x01d83f6c48536465fef0bd01400b78fcd97c3804e2a3edadf906badf6698185d"
          ],
          "data": "0x00000000000000000000000000000000000000000000000000000000000186a00000000000000000000000000000000000000000000000000000000000000001",
          "blockHash": "0x924ca2e094d5ab2e669de09b36e339fcd146416eb7408e6e0cdff131b5d2c803",
          "blockNumber": "0x6b2996",
          "transactionHash": "0x9d1ee7b220a3d880e9f3c509938df496cecf32beb0867b704f47d9295e7626eb",
          "transactionIndex": "0xf",
          "logIndex": "0x1a",
          "removed": false
        }
      ],
      "status": "0x1",
      "logsBloom": "0x00000200000000000000000000020000000000000000000000000040000200000000000000000000000000000000000000000000000004000000420000200000100000000000000000000008000000000000000000100040001000000000000600000000100000000000000000000000400200000000000000000210400080000000004000102000000000020004000000008000000000000000000000000010420100800000000000000020000000021000008000000000000002000000000000800002000000000000000040000000000000000000000000000000000000000011088001000000000810000000000000000000000000000000000000000000",
      "type": "0x2",
      "effectiveGasPrice": "0xbc555b912"
    }
  ],
  "libraries": [],
  "pending": [],
  "returns": {},
  "timestamp": 1730889641,
  "chain": 11155111,
  "multi": false,
  "commit": "9e60aff"
}