{
  "transactions": [
    {
      "hash": "0xc4b6e1edb4fdc2cd02a98cdd3823a720ef8a094f7df2db4b1fc254dd4b615e5a",
      "transactionType": "CALL",
      "contractName": null,
      "contractAddress": "0xca14007eff0db1f8135f4c25b34de49ab0d42766",
      "function": "approve(address,uint256)",
      "arguments": [
        "0x17ceB8Da41205f1026241766328751884Afa7FE8",
        "115792089237316195423570985008687907853269984665640564039457584007913129639935"
      ],
      "transaction": {
        "from": "0xddb342ecc94236c29a5307d3757d0724d759453c",
        "to": "0xca14007eff0db1f8135f4c25b34de49ab0d42766",
        "gas": "0x93a9",
        "value": "0x0",
        "input": "0x095ea7b300000000000000000000000017ceb8da41205f1026241766328751884afa7fe8ffffffffffffffffffffffffffffffffffffffffffffffffffffffffffffffff",
        "nonce": "0x4fc",
        "chainId": "0xaa36a7"
      },
      "additionalContracts": [],
      "isFixedGasLimit": false
    },
    {
      "hash": "0xfbebfff4ce2a6b3ba6cabfd3009d2dde72a830f278607e2ad48b35c524887ff2",
      "transactionType": "CALL",
      "contractName": null,
      "contractAddress": "0x17ceb8da41205f1026241766328751884afa7fe8",
      "function": "setL2EndpointAddress(uint256)",
      "arguments": [
        "3588815645485773455301057135237045874097473162836351057427338525893399114300"
      ],
      "transaction": {
        "from": "0xddb342ecc94236c29a5307d3757d0724d759453c",
        "to": "0x17ceb8da41205f1026241766328751884afa7fe8",
        "gas": "0xa23f",
        "value": "0x0",
        "input": "0x5155fb2f07ef329aa8c0ba5021484f46beef73ea9b97575c225fe8cea0436cb44bbf723c",
        "nonce": "0x4fd",
        "chainId": "0xaa36a7"
      },
      "additionalContracts": [],
      "isFixedGasLimit": false
    }
  ],
  "receipts": [
    {
      "status": "0x1",
      "cumulativeGasUsed": "0xbbf37c",
      "logs": [
        {
          "address": "0xca14007eff0db1f8135f4c25b34de49ab0d42766",
          "topics": [
            "0x8c5be1e5ebec7d5bd14f71427d1e84f3dd0314c0f7b2291e5b200ac8c7c3b925",
            "0x000000000000000000000000ddb342ecc94236c29a5307d3757d0724d759453c",
            "0x00000000000000000000000017ceb8da41205f1026241766328751884afa7fe8"
          ],
          "data": "0xffffffffffffffffffffffffffffffffffffffffffffffffffffffffffffffff",
          "blockHash": "0x2719d93487b1a8480e5493d7afd1a812fc341bb7c69bf4e6cbd2fcf605c9272b",
          "blockNumber": "0x730a58",
          "transactionHash": "0xc4b6e1edb4fdc2cd02a98cdd3823a720ef8a094f7df2db4b1fc254dd4b615e5a",
          "transactionIndex": "0x84",
          "logIndex": "0xd0",
          "removed": false
        }
      ],
      "logsBloom": "0x00000000000000000000000000000000000000000000000000000000000000000000000000000000000000000800000000000000000000000000000000200000000000000000000000000000000000000000000000000000000000000000000400000000000000000000000000000000400000000000000000000000400000000000000000000000000000000000000000000000000000000000000000000000020000000000000000000000000000000000000000000000000000000000000000000000000000020000000000000000020000000000000000800000000000000010000000400000000000000000000000000000001000000000000000000000",
      "type": "0x2",
      "transactionHash": "0xc4b6e1edb4fdc2cd02a98cdd3823a720ef8a094f7df2db4b1fc254dd4b615e5a",
      "transactionIndex": "0x84",
      "blockHash": "0x2719d93487b1a8480e5493d7afd1a812fc341bb7c69bf4e6cbd2fcf605c9272b",
      "blockNumber": "0x730a58",
      "gasUsed": "0x6ae8",
      "effectiveGasPrice": "0xa22e527b",
      "from": "0xddb342ecc94236c29a5307d3757d0724d759453c",
      "to": "0xca14007eff0db1f8135f4c25b34de49ab0d42766",
      "contractAddress": null
    },
    {
      "status": "0x1",
      "cumulativeGasUsed": "0xbc68f3",
      "logs": [
        {
          "address": "0x17ceb8da41205f1026241766328751884afa7fe8",
          "topics": [
            "0xa35dce9e53611b0cabca886209c4a1d09c80214af9b6fb6027f7b2f7c39838e8"
          ],
          "data": "0x07ef329aa8c0ba5021484f46beef73ea9b97575c225fe8cea0436cb44bbf723c",
          "blockHash": "0x2719d93487b1a8480e5493d7afd1a812fc341bb7c69bf4e6cbd2fcf605c9272b",
          "blockNumber": "0x730a58",
          "transactionHash": "0xfbebfff4ce2a6b3ba6cabfd3009d2dde72a830f278607e2ad48b35c524887ff2",
          "transactionIndex": "0x85",
          "logIndex": "0xd1",
          "removed": false
        }
      ],
      "logsBloom": "0x00000000000000000000000010000000000000000000000000000000000000000000000000000000000000000000000000000000000000000000000000000000000000000000000000000000000200000000000000000000000000000000000000000000000000000000000000000000000000000000000000000000000000000000000000000000000000000000000000000000000000000000000000000000800000000000000000000000000000000000000004000000000000000000002800000000000000000000000000000000000000000000000000000000000000000000000000000000000000000000000000000000000000000000000000000000",
      "type": "0x2",
      "transactionHash": "0xfbebfff4ce2a6b3ba6cabfd3009d2dde72a830f278607e2ad48b35c524887ff2",
      "transactionIndex": "0x85",
      "blockHash": "0x2719d93487b1a8480e5493d7afd1a812fc341bb7c69bf4e6cbd2fcf605c9272b",
      "blockNumber": "0x730a58",
      "gasUsed": "0x7577",
      "effectiveGasPrice": "0xa22e527b",
      "from": "0xddb342ecc94236c29a5307d3757d0724d759453c",
      "to": "0x17ceb8da41205f1026241766328751884afa7fe8",
      "contractAddress": null
    }
  ],
  "libraries": [],
  "pending": [],
  "returns": {},
  "timestamp": 1737455798,
  "chain": 11155111,
  "commit": "fcbff6b"
}