{
  "transactions": [
    {
      "hash": "0xfbe929830318c156e2cf5171e8c6cf502a52bb59e3eabaffcbed6e58c97c92e3",
      "transactionType": "CALL",
      "contractName": "StarkNetToken",
      "contractAddress": "0xCa14007Eff0dB1f8135f4C25B34De49AB0d42766",
      "function": "approve(address,uint256)",
      "arguments": [
        "0x86BFbbaCCafa9a422978f00b35f97D95844fb83A",
        "115792089237316195423570985008687907853269984665640564039457584007913129639935"
      ],
      "transaction": {
        "type": "0x02",
        "from": "0xddb342ecc94236c29a5307d3757d0724d759453c",
        "to": "0xca14007eff0db1f8135f4c25b34de49ab0d42766",
        "gas": "0x93a9",
        "value": "0x0",
        "data": "0x095ea7b300000000000000000000000086bfbbaccafa9a422978f00b35f97d95844fb83affffffffffffffffffffffffffffffffffffffffffffffffffffffffffffffff",
        "nonce": "0x352",
        "accessList": []
      },
      "additionalContracts": [],
      "isFixedGasLimit": false
    },
    {
      "hash": "0x394e5495aff84c51bb9d3088f119dbe401989b305c4486452ab176c691976c77",
      "transactionType": "CALL",
      "contractName": null,
      "contractAddress": "0x86BFbbaCCafa9a422978f00b35f97D95844fb83A",
      "function": "depositAndCreateOrder((address,uint256,uint256,uint128,uint128,uint128,uint128,uint256))",
      "arguments": [
        "(0xDdb342ecc94236c29a5307d3757d0724D759453C, 2009894490435840142178314390393166646092438090257831307886760648929397478285, 2366254414417873771392932940469309727793822550615514268240785277201753657472, 170141183460469235273462165868118016, 1732623440, 1732623504, 50000000000000000, 1883401296703965083189570633031918159622068791907768462215909222728633759331)"
      ],
      "transaction": {
        "type": "0x02",
        "from": "0xddb342ecc94236c29a5307d3757d0724d759453c",
        "to": "0x86bfbbaccafa9a422978f00b35f97d95844fb83a",
        "gas": "0x44a6c",
        "value": "0x1c6bf52634000",
        "data": "0x5ce510fa000000000000000000000000ddb342ecc94236c29a5307d3757d0724d759453c04718f5a0fc34cc1af16a1cdee98ffb20c31f5cd61d6ab07201858f4287c938d053b40a647cedfca6ca84f542a0fe36736031905a9639a7f19a3c1e66bfd5080000000000000000000000000000000000020c49ba5e353f80000000000000000000000000000000000000000000000000000000000000000000000006745bc50000000000000000000000000000000000000000000000000000000006745bc9000000000000000000000000000000000000000000000000000b1a2bc2ec500000429f7a4bd4de9fc98a94cec9163caf6f50a5d7fcec583fa30d2d9bb33a93663",
        "nonce": "0x353",
        "accessList": []
      },
      "additionalContracts": [],
      "isFixedGasLimit": false
    }
  ],
  "receipts": [
    {
      "transactionHash": "0xfbe929830318c156e2cf5171e8c6cf502a52bb59e3eabaffcbed6e58c97c92e3",
      "transactionIndex": "0x9",
      "blockHash": "0x98416dcd621c299a81e8f6739e972a9f7d060603ecf09378b3948831612e5c99",
      "blockNumber": "0x6d329f",
      "from": "0xDdb342ecc94236c29a5307d3757d0724D759453C",
      "to": "0xCa14007Eff0dB1f8135f4C25B34De49AB0d42766",
      "cumulativeGasUsed": "0x1d9685",
      "gasUsed": "0x6ae8",
      "contractAddress": null,
      "logs": [
        {
          "address": "0xCa14007Eff0dB1f8135f4C25B34De49AB0d42766",
          "topics": [
            "0x8c5be1e5ebec7d5bd14f71427d1e84f3dd0314c0f7b2291e5b200ac8c7c3b925",
            "0x000000000000000000000000ddb342ecc94236c29a5307d3757d0724d759453c",
            "0x00000000000000000000000086bfbbaccafa9a422978f00b35f97d95844fb83a"
          ],
          "data": "0xffffffffffffffffffffffffffffffffffffffffffffffffffffffffffffffff",
          "blockHash": "0x98416dcd621c299a81e8f6739e972a9f7d060603ecf09378b3948831612e5c99",
          "blockNumber": "0x6d329f",
          "transactionHash": "0xfbe929830318c156e2cf5171e8c6cf502a52bb59e3eabaffcbed6e58c97c92e3",
          "transactionIndex": "0x9",
          "logIndex": "0x16",
          "removed": false
        }
      ],
      "status": "0x1",
      "logsBloom": "0x00000000800000000000000000000000000000000000000000000000000000000000000000000000000000000000000000000000000000000000000000200000000000000000000000000000000000000000000000000000000000000000000400000000000000000000000004000000400000000000000000000000400000000000000000000000000000000000000000000000000000000000000000000000022000000000000000000000000000000000000000000000000000000000000000000000000000020000000000000000000000000000000000800000000000000010000000000000000000000000000000000000001000000000000000000000",
      "type": "0x2",
      "effectiveGasPrice": "0x542eea965"
    },
    {
      "transactionHash": "0x394e5495aff84c51bb9d3088f119dbe401989b305c4486452ab176c691976c77",
      "transactionIndex": "0xa",
      "blockHash": "0x98416dcd621c299a81e8f6739e972a9f7d060603ecf09378b3948831612e5c99",
      "blockNumber": "0x6d329f",
      "from": "0xDdb342ecc94236c29a5307d3757d0724D759453C",
      "to": "0x86BFbbaCCafa9a422978f00b35f97D95844fb83A",
      "cumulativeGasUsed": "0x20ad38",
      "gasUsed": "0x316b3",
      "contractAddress": null,
      "logs": [
        {
          "address": "0xCa14007Eff0dB1f8135f4C25B34De49AB0d42766",
          "topics": [
            "0xddf252ad1be2c89b69c2b068fc378daa952ba7f163c4a11628f55a4df523b3ef",
            "0x000000000000000000000000ddb342ecc94236c29a5307d3757d0724d759453c",
            "0x00000000000000000000000086bfbbaccafa9a422978f00b35f97d95844fb83a"
          ],
          "data": "0x00000000000000000000000000000000000000000000000000b1a2bc2ec50000",
          "blockHash": "0x98416dcd621c299a81e8f6739e972a9f7d060603ecf09378b3948831612e5c99",
          "blockNumber": "0x6d329f",
          "transactionHash": "0x394e5495aff84c51bb9d3088f119dbe401989b305c4486452ab176c691976c77",
          "transactionIndex": "0xa",
          "logIndex": "0x17",
          "removed": false
        },
        {
          "address": "0xCa14007Eff0dB1f8135f4C25B34De49AB0d42766",
          "topics": [
            "0x8c5be1e5ebec7d5bd14f71427d1e84f3dd0314c0f7b2291e5b200ac8c7c3b925",
            "0x00000000000000000000000086bfbbaccafa9a422978f00b35f97d95844fb83a",
            "0x000000000000000000000000ce5485cfb26914c5dce00b9baf0580364dafc7a4"
          ],
          "data": "0x0000000000000000000000000000000000000000000000000000000000000000",
          "blockHash": "0x98416dcd621c299a81e8f6739e972a9f7d060603ecf09378b3948831612e5c99",
          "blockNumber": "0x6d329f",
          "transactionHash": "0x394e5495aff84c51bb9d3088f119dbe401989b305c4486452ab176c691976c77",
          "transactionIndex": "0xa",
          "logIndex": "0x18",
          "removed": false
        },
        {
          "address": "0xCa14007Eff0dB1f8135f4C25B34De49AB0d42766",
          "topics": [
            "0x8c5be1e5ebec7d5bd14f71427d1e84f3dd0314c0f7b2291e5b200ac8c7c3b925",
            "0x00000000000000000000000086bfbbaccafa9a422978f00b35f97d95844fb83a",
            "0x000000000000000000000000ce5485cfb26914c5dce00b9baf0580364dafc7a4"
          ],
          "data": "0x00000000000000000000000000000000000000000000000000b1a2bc2ec50000",
          "blockHash": "0x98416dcd621c299a81e8f6739e972a9f7d060603ecf09378b3948831612e5c99",
          "blockNumber": "0x6d329f",
          "transactionHash": "0x394e5495aff84c51bb9d3088f119dbe401989b305c4486452ab176c691976c77",
          "transactionIndex": "0xa",
          "logIndex": "0x19",
          "removed": false
        },
        {
          "address": "0xCa14007Eff0dB1f8135f4C25B34De49AB0d42766",
          "topics": [
            "0x8c5be1e5ebec7d5bd14f71427d1e84f3dd0314c0f7b2291e5b200ac8c7c3b925",
            "0x00000000000000000000000086bfbbaccafa9a422978f00b35f97d95844fb83a",
            "0x000000000000000000000000ce5485cfb26914c5dce00b9baf0580364dafc7a4"
          ],
          "data": "0x0000000000000000000000000000000000000000000000000000000000000000",
          "blockHash": "0x98416dcd621c299a81e8f6739e972a9f7d060603ecf09378b3948831612e5c99",
          "blockNumber": "0x6d329f",
          "transactionHash": "0x394e5495aff84c51bb9d3088f119dbe401989b305c4486452ab176c691976c77",
          "transactionIndex": "0xa",
          "logIndex": "0x1a",
          "removed": false
        },
        {
          "address": "0xCa14007Eff0dB1f8135f4C25B34De49AB0d42766",
          "topics": [
            "0xddf252ad1be2c89b69c2b068fc378daa952ba7f163c4a11628f55a4df523b3ef",
            "0x00000000000000000000000086bfbbaccafa9a422978f00b35f97d95844fb83a",
            "0x000000000000000000000000ce5485cfb26914c5dce00b9baf0580364dafc7a4"
          ],
          "data": "0x00000000000000000000000000000000000000000000000000b1a2bc2ec50000",
          "blockHash": "0x98416dcd621c299a81e8f6739e972a9f7d060603ecf09378b3948831612e5c99",
          "blockNumber": "0x6d329f",
          "transactionHash": "0x394e5495aff84c51bb9d3088f119dbe401989b305c4486452ab176c691976c77",
          "transactionIndex": "0xa",
          "logIndex": "0x1b",
          "removed": false
        },
        {
          "address": "0xE2Bb56ee936fd6433DC0F6e7e3b8365C906AA057",
          "topics": [
            "0xdb80dd488acf86d17c747445b0eabb5d57c541d3bd7b6b87af987858e5066b2b",
            "0x000000000000000000000000ce5485cfb26914c5dce00b9baf0580364dafc7a4",
            "0x0594c1582459ea03f77deaf9eb7e3917d6994a03c13405ba42867f83d85f085d",
            "0x01b64b1b3b690b43b9b514fb81377518f4039cd3e4f4914d8a6bdf01d679fb19"
          ],
          "data": "0x0000000000000000000000000000000000000000000000000000000000000060000000000000000000000000000000000000000000000000000000000000293f0000000000000000000000000000000000000000000000000000e35fa931a0000000000000000000000000000000000000000000000000000000000000000005000000000000000000000000ca14007eff0db1f8135f4c25b34de49ab0d4276600000000000000000000000086bfbbaccafa9a422978f00b35f97d95844fb83a003ab3e22ed982eee791557781ca80a3859afc78f5e6cce579d15bed1fa6697200000000000000000000000000000000000000000000000000b1a2bc2ec500000000000000000000000000000000000000000000000000000000000000000000",
          "blockHash": "0x98416dcd621c299a81e8f6739e972a9f7d060603ecf09378b3948831612e5c99",
          "blockNumber": "0x6d329f",
          "transactionHash": "0x394e5495aff84c51bb9d3088f119dbe401989b305c4486452ab176c691976c77",
          "transactionIndex": "0xa",
          "logIndex": "0x1c",
          "removed": false
        },
        {
          "address": "0xcE5485Cfb26914C5dcE00B9BAF0580364daFC7a4",
          "topics": [
            "0x5f971bd00bf3ffbca8a6d72cdd4fd92cfd4f62636161921d1e5a64f0b64ccb6d",
            "0x00000000000000000000000086bfbbaccafa9a422978f00b35f97d95844fb83a",
            "0x000000000000000000000000ca14007eff0db1f8135f4c25b34de49ab0d42766",
            "0x003ab3e22ed982eee791557781ca80a3859afc78f5e6cce579d15bed1fa66972"
          ],
          "data": "0x00000000000000000000000000000000000000000000000000b1a2bc2ec50000000000000000000000000000000000000000000000000000000000000000293f0000000000000000000000000000000000000000000000000000e35fa931a000",
          "blockHash": "0x98416dcd621c299a81e8f6739e972a9f7d060603ecf09378b3948831612e5c99",
          "blockNumber": "0x6d329f",
          "transactionHash": "0x394e5495aff84c51bb9d3088f119dbe401989b305c4486452ab176c691976c77",
          "transactionIndex": "0xa",
          "logIndex": "0x1d",
          "removed": false
        },
        {
          "address": "0xE2Bb56ee936fd6433DC0F6e7e3b8365C906AA057",
          "topics": [
            "0xdb80dd488acf86d17c747445b0eabb5d57c541d3bd7b6b87af987858e5066b2b",
            "0x00000000000000000000000086bfbbaccafa9a422978f00b35f97d95844fb83a",
            "0x003ab3e22ed982eee791557781ca80a3859afc78f5e6cce579d15bed1fa66972",
            "0x00f1149cade9d692862ad41df96b108aa2c20af34f640457e781d166c98dc6b0"
          ],
          "data": "0x000000000000000000000000000000000000000000000000000000000000006000000000000000000000000000000000000000000000000000000000000029400000000000000000000000000000000000000000000000000000e35fa931a00000000000000000000000000000000000000000000000000000000000000000090000000000000000000000000000000000000000000000000000000000000000000000000000000000000000ddb342ecc94236c29a5307d3757d0724d759453c04718f5a0fc34cc1af16a1cdee98ffb20c31f5cd61d6ab07201858f4287c938d053b40a647cedfca6ca84f542a0fe36736031905a9639a7f19a3c1e66bfd5080000000000000000000000000000000000020c49ba5e353f80000000000000000000000000000000000000000000000000000000000000000000000006745bc50000000000000000000000000000000000000000000000000000000006745bc9000000000000000000000000000000000000000000000000000b1a2bc2ec50000000000000000000000000000ce5485cfb26914c5dce00b9baf0580364dafc7a4",
          "blockHash": "0x98416dcd621c299a81e8f6739e972a9f7d060603ecf09378b3948831612e5c99",
          "blockNumber": "0x6d329f",
          "transactionHash": "0x394e5495aff84c51bb9d3088f119dbe401989b305c4486452ab176c691976c77",
          "transactionIndex": "0xa",
          "logIndex": "0x1e",
          "removed": false
        },
        {
          "address": "0x86BFbbaCCafa9a422978f00b35f97D95844fb83A",
          "topics": [
            "0xaf43445f7721522b7a3864ed3de53d7e2e658bfa1eeffa18e1e229be68ce2545",
            "0x000000000000000000000000ddb342ecc94236c29a5307d3757d0724d759453c",
            "0x003ab3e22ed982eee791557781ca80a3859afc78f5e6cce579d15bed1fa66972"
          ],
          "data": "0x00000000000000000000000000000000000000000000000000b1a2bc2ec500000000000000000000000000000000000000000000000000000000000000000001",
          "blockHash": "0x98416dcd621c299a81e8f6739e972a9f7d060603ecf09378b3948831612e5c99",
          "blockNumber": "0x6d329f",
          "transactionHash": "0x394e5495aff84c51bb9d3088f119dbe401989b305c4486452ab176c691976c77",
          "transactionIndex": "0xa",
          "logIndex": "0x1f",
          "removed": false
        }
      ],
      "status": "0x1",
      "logsBloom": "0x00400200800000000200000000020400000000000000400000000000000800400000000000000000000000000000000000008000000004000000000000200000000000000000000000000808080000000000000000000040001000000000000600000000100000010000000004000000400000000000000000000010400008002000000000000000000000000400000004000000000200000000020000000010022000800000000000000020004000001000000000000020000000000000000000000002000000024010000000000000000000200000000000800000000000000010000000010000000000020084000000000000001000000000000000000000",
      "type": "0x2",
      "effectiveGasPrice": "0x542eea965"
    }
  ],
  "libraries": [],
  "pending": [],
  "returns": {},
  "timestamp": 1732623499,
  "chain": 11155111,
  "multi": false,
  "commit": "1254ada"
}