{
  "transactions": [
    {
      "hash": "0xe5708034ae5fa7ff7db8bb53240ed3398c821f6c168664bed70a008c9ef0fe1d",
      "transactionType": "CALL",
      "contractName": "StarkNetToken",
      "contractAddress": "0xCa14007Eff0dB1f8135f4C25B34De49AB0d42766",
      "function": "approve(address,uint256)",
      "arguments": [
        "0x22C03EE9eAF066495c805EFC04ee4b482fea6137",
        "115792089237316195423570985008687907853269984665640564039457584007913129639935"
      ],
      "transaction": {
        "type": "0x02",
        "from": "0xddb342ecc94236c29a5307d3757d0724d759453c",
        "to": "0xca14007eff0db1f8135f4c25b34de49ab0d42766",
        "gas": "0x93a9",
        "value": "0x0",
        "data": "0x095ea7b300000000000000000000000022c03ee9eaf066495c805efc04ee4b482fea6137ffffffffffffffffffffffffffffffffffffffffffffffffffffffffffffffff",
        "nonce": "0x2d0",
        "accessList": []
      },
      "additionalContracts": [],
      "isFixedGasLimit": false
    },
    {
      "hash": "0x27c4449a27efa0627badcdf38221d88c308dfd69a96fd11d665ad77ce442456c",
      "transactionType": "CALL",
      "contractName": "StarkNetToken",
      "contractAddress": "0xCa14007Eff0dB1f8135f4C25B34De49AB0d42766",
      "function": "transfer(address,uint256)",
      "arguments": [
        "0x22C03EE9eAF066495c805EFC04ee4b482fea6137",
        "500000000000"
      ],
      "transaction": {
        "type": "0x02",
        "from": "0xddb342ecc94236c29a5307d3757d0724d759453c",
        "to": "0xca14007eff0db1f8135f4c25b34de49ab0d42766",
        "gas": "0x1339c",
        "value": "0x0",
        "data": "0xa9059cbb00000000000000000000000022c03ee9eaf066495c805efc04ee4b482fea6137000000000000000000000000000000000000000000000000000000746a528800",
        "nonce": "0x2d1",
        "accessList": []
      },
      "additionalContracts": [],
      "isFixedGasLimit": false
    },
    {
      "hash": "0xf545de304e26dfd81fc7bcd2d013c9f7f932e7b1019cf53972bf41ace3ec0caf",
      "transactionType": "CALL",
      "contractName": "L1TWAMMBridge",
      "contractAddress": "0x22C03EE9eAF066495c805EFC04ee4b482fea6137",
      "function": "deposit(uint256,uint256)",
      "arguments": [
        "500000000000",
        "2998091806065710591252079788641021476463271876874862055092610509344621264852"
      ],
      "transaction": {
        "type": "0x02",
        "from": "0xddb342ecc94236c29a5307d3757d0724d759453c",
        "to": "0x22c03ee9eaf066495c805efc04ee4b482fea6137",
        "gas": "0x30231",
        "value": "0x5af3107a4000",
        "data": "0xe2bbb158000000000000000000000000000000000000000000000000000000746a52880006a0dc1dac811a0462737db5d09225dffbc1b7f72e0b895c1cf82243d484ffd4",
        "nonce": "0x2d2",
        "accessList": []
      },
      "additionalContracts": [],
      "isFixedGasLimit": false
    },
    {
      "hash": "0x4a3eaa903cd7bd394ca62c1ec64e984149b89f2b2bf249e8d2cd70f2f3f94fac",
      "transactionType": "CALL",
      "contractName": "Proxy",
      "contractAddress": "0xE2Bb56ee936fd6433DC0F6e7e3b8365C906AA057",
      "function": "sendMessageToL2(uint256,uint256,uint256[])",
      "arguments": [
        "2998091806065710591252079788641021476463271876874862055092610509344621264852",
        "425952401605428413817582304755919420533935873840436977667370850915372091056",
        "[2, 0, 0, 0, 0, 0, 0, 500000000000]"
      ],
      "transaction": {
        "type": "0x02",
        "from": "0xddb342ecc94236c29a5307d3757d0724d759453c",
        "to": "0xe2bb56ee936fd6433dc0f6e7e3b8365c906aa057",
        "gas": "0x16d0a",
        "value": "0x5af3107a4000",
        "data": "0x3e3aa6c506a0dc1dac811a0462737db5d09225dffbc1b7f72e0b895c1cf82243d484ffd400f1149cade9d692862ad41df96b108aa2c20af34f640457e781d166c98dc6b0000000000000000000000000000000000000000000000000000000000000006000000000000000000000000000000000000000000000000000000000000000080000000000000000000000000000000000000000000000000000000000000002000000000000000000000000000000000000000000000000000000000000000000000000000000000000000000000000000000000000000000000000000000000000000000000000000000000000000000000000000000000000000000000000000000000000000000000000000000000000000000000000000000000000000000000000000000000000000000000000000000000000000000000000000000000000000000000000000000000000000000000000000000000000000000000000000000000000000000000000000000000000000000000000000000746a528800",
        "nonce": "0x2d3",
        "accessList": []
      },
      "additionalContracts": [],
      "isFixedGasLimit": false
    }
  ],
  "receipts": [],
  "libraries": [],
  "pending": [
    "0xe5708034ae5fa7ff7db8bb53240ed3398c821f6c168664bed70a008c9ef0fe1d",
    "0x27c4449a27efa0627badcdf38221d88c308dfd69a96fd11d665ad77ce442456c",
    "0xf545de304e26dfd81fc7bcd2d013c9f7f932e7b1019cf53972bf41ace3ec0caf",
    "0x4a3eaa903cd7bd394ca62c1ec64e984149b89f2b2bf249e8d2cd70f2f3f94fac"
  ],
  "returns": {},
  "timestamp": 1731503402,
  "chain": 11155111,
  "multi": false,
  "commit": "a4bf47e"
}