{
  "transactions": [
    {
      "hash": "0x40094188ea50716c1d00795801b0b82672621b1fec64b04f4da1ce70d69d665a",
      "transactionType": "CALL",
      "contractName": "StarkNetToken",
      "contractAddress": "0xCa14007Eff0dB1f8135f4C25B34De49AB0d42766",
      "function": "approve(address,uint256)",
      "arguments": [
        "0x7eb4C59eABE1234E8A6D02FdF4d1BB595C4702Cd",
        "115792089237316195423570985008687907853269984665640564039457584007913129639935"
      ],
      "transaction": {
        "type": "0x02",
        "from": "0xddb342ecc94236c29a5307d3757d0724d759453c",
        "to": "0xca14007eff0db1f8135f4c25b34de49ab0d42766",
        "gas": "0x93a9",
        "value": "0x0",
        "data": "0x095ea7b30000000000000000000000007eb4c59eabe1234e8a6d02fdf4d1bb595c4702cdffffffffffffffffffffffffffffffffffffffffffffffffffffffffffffffff",
        "nonce": "0x389",
        "accessList": []
      },
      "additionalContracts": [],
      "isFixedGasLimit": false
    },
    {
      "hash": "0x1e6026175faa66fa6af5a7c62f6e3b6397e7324cb5de2aba9fd38112e4bb9414",
      "transactionType": "CALL",
      "contractName": null,
      "contractAddress": "0x7eb4C59eABE1234E8A6D02FdF4d1BB595C4702Cd",
      "function": "setL2EndpointAddress(uint256)",
      "arguments": [
        "1260982957119863879256996864418490802570835642900898883839531106374629143480"
      ],
      "transaction": {
        "type": "0x02",
        "from": "0xddb342ecc94236c29a5307d3757d0724d759453c",
        "to": "0x7eb4c59eabe1234e8a6d02fdf4d1bb595c4702cd",
        "gas": "0xabab",
        "value": "0x0",
        "data": "0x5155fb2f02c9b0e967948762be38c87ac131d2958f7988d6aff58885993f1c186a5333b8",
        "nonce": "0x38a",
        "accessList": []
      },
      "additionalContracts": [],
      "isFixedGasLimit": false
    }
  ],
  "receipts": [],
  "libraries": [],
  "pending": [
    "0x40094188ea50716c1d00795801b0b82672621b1fec64b04f4da1ce70d69d665a",
    "0x1e6026175faa66fa6af5a7c62f6e3b6397e7324cb5de2aba9fd38112e4bb9414"
  ],
  "returns": {},
  "timestamp": 1732712525,
  "chain": 11155111,
  "multi": false,
  "commit": "1254ada"
}