{
  "transactions": [
    {
      "hash": "0xb640558b968921735a9e5a5e8cf508d389fe8212c4e943182b0867e266a160d8",
      "transactionType": "CALL",
      "contractName": null,
      "contractAddress": "0xca14007eff0db1f8135f4c25b34de49ab0d42766",
      "function": "approve(address,uint256)",
      "arguments": [
        "0xabcd70100c04F7aD20DDF425705c91AB2BeA4e56",
        "115792089237316195423570985008687907853269984665640564039457584007913129639935"
      ],
      "transaction": {
        "from": "0xddb342ecc94236c29a5307d3757d0724d759453c",
        "to": "0xca14007eff0db1f8135f4c25b34de49ab0d42766",
        "gas": "0xff08",
        "value": "0x0",
        "input": "0x095ea7b3000000000000000000000000abcd70100c04f7ad20ddf425705c91ab2bea4e56ffffffffffffffffffffffffffffffffffffffffffffffffffffffffffffffff",
        "nonce": "0x521",
        "chainId": "0xaa36a7"
      },
      "additionalContracts": [],
      "isFixedGasLimit": false
    },
    {
      "hash": "0x9a965a4d6b4fd4a23f25a59a1bf9d9356b0a74d35f1d90ea31cc4c4fceecbc69",
      "transactionType": "CALL",
      "contractName": null,
      "contractAddress": "0xabcd70100c04f7ad20ddf425705c91ab2bea4e56",
      "function": "depositAndCreateOrder((address,uint256,uint256,uint128,uint128,uint128,uint128))",
      "arguments": [
        "(0xDdb342ecc94236c29a5307d3757d0724D759453C, 2009894490435840142178314390393166646092438090257831307886760648929397478285, 2366254414417873771392932940469309727793822550615514268240785277201753657472, 170141183460469235273462165868118016, 1737473984, 1737474112, 50000000000000000)"
      ],
      "transaction": {
        "from": "0xddb342ecc94236c29a5307d3757d0724d759453c",
        "to": "0xabcd70100c04f7ad20ddf425705c91ab2bea4e56",
        "gas": "0x427cb",
        "value": "0x1c6bf52634000",
        "input": "0x6c1cc3f4000000000000000000000000ddb342ecc94236c29a5307d3757d0724d759453c04718f5a0fc34cc1af16a1cdee98ffb20c31f5cd61d6ab07201858f4287c938d053b40a647cedfca6ca84f542a0fe36736031905a9639a7f19a3c1e66bfd5080000000000000000000000000000000000020c49ba5e353f8000000000000000000000000000000000000000000000000000000000000000000000000678fbfc000000000000000000000000000000000000000000000000000000000678fc04000000000000000000000000000000000000000000000000000b1a2bc2ec50000",
        "nonce": "0x522",
        "chainId": "0xaa36a7"
      },
      "additionalContracts": [],
      "isFixedGasLimit": false
    }
  ],
  "receipts": [
    {
      "status": "0x1",
      "cumulativeGasUsed": "0xe77a7d",
      "logs": [
        {
          "address": "0xca14007eff0db1f8135f4c25b34de49ab0d42766",
          "topics": [
            "0x8c5be1e5ebec7d5bd14f71427d1e84f3dd0314c0f7b2291e5b200ac8c7c3b925",
            "0x000000000000000000000000ddb342ecc94236c29a5307d3757d0724d759453c",
            "0x000000000000000000000000abcd70100c04f7ad20ddf425705c91ab2bea4e56"
          ],
          "data": "0xffffffffffffffffffffffffffffffffffffffffffffffffffffffffffffffff",
          "blockHash": "0xbd61e0d71e298ec689530e1f929f749e60a33d6ad91bbf82f78d2e5fd163e585",
          "blockNumber": "0x731047",
          "transactionHash": "0xb640558b968921735a9e5a5e8cf508d389fe8212c4e943182b0867e266a160d8",
          "transactionIndex": "0x54",
          "logIndex": "0x86",
          "removed": false
        }
      ],
      "logsBloom": "0x00000000010000000000100000000000000000000000000000000000000000000000000000000000000000000000000000000000000000000000000000200000000000000000000000000000000000000000000000000000000000000000000400000000000000000000000000000000400000000000000000000000400000000000000000000000000000000000000000000000000000000000000000000000020000000000000000000000000000000000000000000000000000000000000000000000000000020000000000000000000000000000000000800000000000000010000000001000000000000000000000000000001000000000000000000000",
      "type": "0x2",
      "transactionHash": "0xb640558b968921735a9e5a5e8cf508d389fe8212c4e943182b0867e266a160d8",
      "transactionIndex": "0x54",
      "blockHash": "0xbd61e0d71e298ec689530e1f929f749e60a33d6ad91bbf82f78d2e5fd163e585",
      "blockNumber": "0x731047",
      "gasUsed": "0xb8a4",
      "effectiveGasPrice": "0xc342f72f",
      "from": "0xddb342ecc94236c29a5307d3757d0724d759453c",
      "to": "0xca14007eff0db1f8135f4c25b34de49ab0d42766",
      "contractAddress": null
    },
    {
      "status": "0x1",
      "cumulativeGasUsed": "0xea7ca9",
      "logs": [
        {
          "address": "0xca14007eff0db1f8135f4c25b34de49ab0d42766",
          "topics": [
            "0x8c5be1e5ebec7d5bd14f71427d1e84f3dd0314c0f7b2291e5b200ac8c7c3b925",
            "0x000000000000000000000000abcd70100c04f7ad20ddf425705c91ab2bea4e56",
            "0x000000000000000000000000abcd70100c04f7ad20ddf425705c91ab2bea4e56"
          ],
          "data": "0x00000000000000000000000000000000000000000000000000b1a2bc2ec50000",
          "blockHash": "0xbd61e0d71e298ec689530e1f929f749e60a33d6ad91bbf82f78d2e5fd163e585",
          "blockNumber": "0x731047",
          "transactionHash": "0x9a965a4d6b4fd4a23f25a59a1bf9d9356b0a74d35f1d90ea31cc4c4fceecbc69",
          "transactionIndex": "0x55",
          "logIndex": "0x87",
          "removed": false
        },
        {
          "address": "0xca14007eff0db1f8135f4c25b34de49ab0d42766",
          "topics": [
            "0xddf252ad1be2c89b69c2b068fc378daa952ba7f163c4a11628f55a4df523b3ef",
            "0x000000000000000000000000ddb342ecc94236c29a5307d3757d0724d759453c",
            "0x000000000000000000000000abcd70100c04f7ad20ddf425705c91ab2bea4e56"
          ],
          "data": "0x00000000000000000000000000000000000000000000000000b1a2bc2ec50000",
          "blockHash": "0xbd61e0d71e298ec689530e1f929f749e60a33d6ad91bbf82f78d2e5fd163e585",
          "blockNumber": "0x731047",
          "transactionHash": "0x9a965a4d6b4fd4a23f25a59a1bf9d9356b0a74d35f1d90ea31cc4c4fceecbc69",
          "transactionIndex": "0x55",
          "logIndex": "0x88",
          "removed": false
        },
        {
          "address": "0xca14007eff0db1f8135f4c25b34de49ab0d42766",
          "topics": [
            "0x8c5be1e5ebec7d5bd14f71427d1e84f3dd0314c0f7b2291e5b200ac8c7c3b925",
            "0x000000000000000000000000abcd70100c04f7ad20ddf425705c91ab2bea4e56",
            "0x000000000000000000000000ce5485cfb26914c5dce00b9baf0580364dafc7a4"
          ],
          "data": "0x00000000000000000000000000000000000000000000000000b1a2bc2ec50000",
          "blockHash": "0xbd61e0d71e298ec689530e1f929f749e60a33d6ad91bbf82f78d2e5fd163e585",
          "blockNumber": "0x731047",
          "transactionHash": "0x9a965a4d6b4fd4a23f25a59a1bf9d9356b0a74d35f1d90ea31cc4c4fceecbc69",
          "transactionIndex": "0x55",
          "logIndex": "0x89",
          "removed": false
        },
        {
          "address": "0xca14007eff0db1f8135f4c25b34de49ab0d42766",
          "topics": [
            "0x8c5be1e5ebec7d5bd14f71427d1e84f3dd0314c0f7b2291e5b200ac8c7c3b925",
            "0x000000000000000000000000abcd70100c04f7ad20ddf425705c91ab2bea4e56",
            "0x000000000000000000000000ce5485cfb26914c5dce00b9baf0580364dafc7a4"
          ],
          "data": "0x0000000000000000000000000000000000000000000000000000000000000000",
          "blockHash": "0xbd61e0d71e298ec689530e1f929f749e60a33d6ad91bbf82f78d2e5fd163e585",
          "blockNumber": "0x731047",
          "transactionHash": "0x9a965a4d6b4fd4a23f25a59a1bf9d9356b0a74d35f1d90ea31cc4c4fceecbc69",
          "transactionIndex": "0x55",
          "logIndex": "0x8a",
          "removed": false
        },
        {
          "address": "0xca14007eff0db1f8135f4c25b34de49ab0d42766",
          "topics": [
            "0xddf252ad1be2c89b69c2b068fc378daa952ba7f163c4a11628f55a4df523b3ef",
            "0x000000000000000000000000abcd70100c04f7ad20ddf425705c91ab2bea4e56",
            "0x000000000000000000000000ce5485cfb26914c5dce00b9baf0580364dafc7a4"
          ],
          "data": "0x00000000000000000000000000000000000000000000000000b1a2bc2ec50000",
          "blockHash": "0xbd61e0d71e298ec689530e1f929f749e60a33d6ad91bbf82f78d2e5fd163e585",
          "blockNumber": "0x731047",
          "transactionHash": "0x9a965a4d6b4fd4a23f25a59a1bf9d9356b0a74d35f1d90ea31cc4c4fceecbc69",
          "transactionIndex": "0x55",
          "logIndex": "0x8b",
          "removed": false
        },
        {
          "address": "0xe2bb56ee936fd6433dc0f6e7e3b8365c906aa057",
          "topics": [
            "0xdb80dd488acf86d17c747445b0eabb5d57c541d3bd7b6b87af987858e5066b2b",
            "0x000000000000000000000000ce5485cfb26914c5dce00b9baf0580364dafc7a4",
            "0x0594c1582459ea03f77deaf9eb7e3917d6994a03c13405ba42867f83d85f085d",
            "0x008bce41827dd5484d80312a2e43bc42a896e3fcf75bf84c2b49339168dfa00a"
          ],
          "data": "0x00000000000000000000000000000000000000000000000000000000000000600000000000000000000000000000000000000000000000000000000000002c840000000000000000000000000000000000000000000000000001c6bf52634000000000000000000000000000000000000000000000000000000000000000000e000000000000000000000000ca14007eff0db1f8135f4c25b34de49ab0d42766000000000000000000000000abcd70100c04f7ad20ddf425705c91ab2bea4e5605384d7aa25d47c73d60f2ee889af6b337544c534b05d8560578c06f01db55bd00000000000000000000000000000000000000000000000000b1a2bc2ec50000000000000000000000000000000000000000000000000000000000000000000000000000000000000000000000000000000000000000000000000000000000080000000000000000000000000000000000000000000000000000000000000000000000000000000000000000ddb342ecc94236c29a5307d3757d0724d759453c04718f5a0fc34cc1af16a1cdee98ffb20c31f5cd61d6ab07201858f4287c938d053b40a647cedfca6ca84f542a0fe36736031905a9639a7f19a3c1e66bfd5080000000000000000000000000000000000020c49ba5e353f8000000000000000000000000000000000000000000000000000000000000000000000000678fbfc000000000000000000000000000000000000000000000000000000000678fc04000000000000000000000000000000000000000000000000000b1a2bc2ec50000",
          "blockHash": "0xbd61e0d71e298ec689530e1f929f749e60a33d6ad91bbf82f78d2e5fd163e585",
          "blockNumber": "0x731047",
          "transactionHash": "0x9a965a4d6b4fd4a23f25a59a1bf9d9356b0a74d35f1d90ea31cc4c4fceecbc69",
          "transactionIndex": "0x55",
          "logIndex": "0x8c",
          "removed": false
        },
        {
          "address": "0xce5485cfb26914c5dce00b9baf0580364dafc7a4",
          "topics": [
            "0x2203a49c69f1a46c1164f5e4a30643dd77b7c59c0ff9bc433256048365c247f1",
            "0x000000000000000000000000abcd70100c04f7ad20ddf425705c91ab2bea4e56",
            "0x000000000000000000000000ca14007eff0db1f8135f4c25b34de49ab0d42766",
            "0x05384d7aa25d47c73d60f2ee889af6b337544c534b05d8560578c06f01db55bd"
          ],
          "data": "0x00000000000000000000000000000000000000000000000000b1a2bc2ec5000000000000000000000000000000000000000000000000000000000000000000800000000000000000000000000000000000000000000000000000000000002c840000000000000000000000000000000000000000000000000001c6bf5263400000000000000000000000000000000000000000000000000000000000000000080000000000000000000000000000000000000000000000000000000000000000000000000000000000000000ddb342ecc94236c29a5307d3757d0724d759453c04718f5a0fc34cc1af16a1cdee98ffb20c31f5cd61d6ab07201858f4287c938d053b40a647cedfca6ca84f542a0fe36736031905a9639a7f19a3c1e66bfd5080000000000000000000000000000000000020c49ba5e353f8000000000000000000000000000000000000000000000000000000000000000000000000678fbfc000000000000000000000000000000000000000000000000000000000678fc04000000000000000000000000000000000000000000000000000b1a2bc2ec50000",
          "blockHash": "0xbd61e0d71e298ec689530e1f929f749e60a33d6ad91bbf82f78d2e5fd163e585",
          "blockNumber": "0x731047",
          "transactionHash": "0x9a965a4d6b4fd4a23f25a59a1bf9d9356b0a74d35f1d90ea31cc4c4fceecbc69",
          "transactionIndex": "0x55",
          "logIndex": "0x8d",
          "removed": false
        },
        {
          "address": "0xabcd70100c04f7ad20ddf425705c91ab2bea4e56",
          "topics": [
            "0xaf43445f7721522b7a3864ed3de53d7e2e658bfa1eeffa18e1e229be68ce2545",
            "0x000000000000000000000000ddb342ecc94236c29a5307d3757d0724d759453c",
            "0x05384d7aa25d47c73d60f2ee889af6b337544c534b05d8560578c06f01db55bd"
          ],
          "data": "0x00000000000000000000000000000000000000000000000000b1a2bc2ec500000000000000000000000000000000000000000000000000000000000000000001",
          "blockHash": "0xbd61e0d71e298ec689530e1f929f749e60a33d6ad91bbf82f78d2e5fd163e585",
          "blockNumber": "0x731047",
          "transactionHash": "0x9a965a4d6b4fd4a23f25a59a1bf9d9356b0a74d35f1d90ea31cc4c4fceecbc69",
          "transactionIndex": "0x55",
          "logIndex": "0x8e",
          "removed": false
        }
      ],
      "logsBloom": "0x00000202010000000020100000020000000000000000000000000040000000000000000000000000000000000000000000000000000004000000020000200000000000000000000000000008080000000000000000000040001800000000000600000000100000000000000000000000400000000000000000000010400008002000000000000000000000020000000000008000000200080000000000000010020000800000000000000020000000021000000000000000000000000000000000800002000000024010000000000000000000200000000000800000000000000010000000011000000000020004008000000000001000080000000000000000",
      "type": "0x2",
      "transactionHash": "0x9a965a4d6b4fd4a23f25a59a1bf9d9356b0a74d35f1d90ea31cc4c4fceecbc69",
      "transactionIndex": "0x55",
      "blockHash": "0xbd61e0d71e298ec689530e1f929f749e60a33d6ad91bbf82f78d2e5fd163e585",
      "blockNumber": "0x731047",
      "gasUsed": "0x3022c",
      "effectiveGasPrice": "0xc342f72f",
      "from": "0xddb342ecc94236c29a5307d3757d0724d759453c",
      "to": "0xabcd70100c04f7ad20ddf425705c91ab2bea4e56",
      "contractAddress": null
    }
  ],
  "libraries": [],
  "pending": [],
  "returns": {},
  "timestamp": 1737474025,
  "chain": 11155111,
  "commit": "fcbff6b"
}