{
  "transactions": [
    {
      "hash": "0x8fb4e00ee4173008730881649eb17b76642ed7eec9e2fc70b80c273627b5eccb",
      "transactionType": "CALL",
      "contractName": null,
      "contractAddress": "0xca14007eff0db1f8135f4c25b34de49ab0d42766",
      "function": "approve(address,uint256)",
      "arguments": [
        "0x17ceB8Da41205f1026241766328751884Afa7FE8",
        "115792089237316195423570985008687907853269984665640564039457584007913129639935"
      ],
      "transaction": {
        "from": "0xddb342ecc94236c29a5307d3757d0724d759453c",
        "to": "0xca14007eff0db1f8135f4c25b34de49ab0d42766",
        "gas": "0x93a9",
        "value": "0x0",
        "input": "0x095ea7b300000000000000000000000017ceb8da41205f1026241766328751884afa7fe8ffffffffffffffffffffffffffffffffffffffffffffffffffffffffffffffff",
        "nonce": "0x4ec",
        "chainId": "0xaa36a7"
      },
      "additionalContracts": [],
      "isFixedGasLimit": false
    },
    {
      "hash": "0x3630ef94cb3f98b24eb440668701fa0ffb47ff2ea5be9c130a1f0387c4c267ad",
      "transactionType": "CALL",
      "contractName": null,
      "contractAddress": "0x17ceb8da41205f1026241766328751884afa7fe8",
      "function": "depositAndCreateOrder((address,uint256,uint256,uint128,uint128,uint128,uint128))",
      "arguments": [
        "(0xDdb342ecc94236c29a5307d3757d0724D759453C, 2009894490435840142178314390393166646092438090257831307886760648929397478285, 2087021424722619777119509474943472645767659996348769578120564519014510906823, 170141183460469235273462165868118016, 1737398224, 1737398352, 5000000000000000)"
      ],
      "transaction": {
        "from": "0xddb342ecc94236c29a5307d3757d0724d759453c",
        "to": "0x17ceb8da41205f1026241766328751884afa7fe8",
        "gas": "0x3bc6d",
        "value": "0x1c6bf52634000",
        "input": "0x6c1cc3f4000000000000000000000000ddb342ecc94236c29a5307d3757d0724d759453c04718f5a0fc34cc1af16a1cdee98ffb20c31f5cd61d6ab07201858f4287c938d049d36570d4e46f48e99674bd3fcc84644ddd6b96f7c741b1562b82f9e004dc7000000000000000000000000000000000020c49ba5e353f8000000000000000000000000000000000000000000000000000000000000000000000000678e97d000000000000000000000000000000000000000000000000000000000678e98500000000000000000000000000000000000000000000000000011c37937e08000",
        "nonce": "0x4ed",
        "chainId": "0xaa36a7"
      },
      "additionalContracts": [],
      "isFixedGasLimit": false
    }
  ],
  "receipts": [
    {
      "status": "0x1",
      "cumulativeGasUsed": "0x211992c",
      "logs": [
        {
          "address": "0xca14007eff0db1f8135f4c25b34de49ab0d42766",
          "topics": [
            "0x8c5be1e5ebec7d5bd14f71427d1e84f3dd0314c0f7b2291e5b200ac8c7c3b925",
            "0x000000000000000000000000ddb342ecc94236c29a5307d3757d0724d759453c",
            "0x00000000000000000000000017ceb8da41205f1026241766328751884afa7fe8"
          ],
          "data": "0xffffffffffffffffffffffffffffffffffffffffffffffffffffffffffffffff",
          "blockHash": "0x9ab4513c3ef13ed6101d234e90283074c210c03c3f87cb95f59ab5579ad4c6b5",
          "blockNumber": "0x72f7a7",
          "transactionHash": "0x8fb4e00ee4173008730881649eb17b76642ed7eec9e2fc70b80c273627b5eccb",
          "transactionIndex": "0x4d",
          "logIndex": "0x1113",
          "removed": false
        }
      ],
      "logsBloom": "0x00000000000000000000000000000000000000000000000000000000000000000000000000000000000000000800000000000000000000000000000000200000000000000000000000000000000000000000000000000000000000000000000400000000000000000000000000000000400000000000000000000000400000000000000000000000000000000000000000000000000000000000000000000000020000000000000000000000000000000000000000000000000000000000000000000000000000020000000000000000020000000000000000800000000000000010000000400000000000000000000000000000001000000000000000000000",
      "type": "0x2",
      "transactionHash": "0x8fb4e00ee4173008730881649eb17b76642ed7eec9e2fc70b80c273627b5eccb",
      "transactionIndex": "0x4d",
      "blockHash": "0x9ab4513c3ef13ed6101d234e90283074c210c03c3f87cb95f59ab5579ad4c6b5",
      "blockNumber": "0x72f7a7",
      "gasUsed": "0x6ae8",
      "effectiveGasPrice": "0x41e88e7d",
      "from": "0xddb342ecc94236c29a5307d3757d0724d759453c",
      "to": "0xca14007eff0db1f8135f4c25b34de49ab0d42766",
      "contractAddress": null
    },
    {
      "status": "0x1",
      "cumulativeGasUsed": "0x2144d9c",
      "logs": [
        {
          "address": "0xca14007eff0db1f8135f4c25b34de49ab0d42766",
          "topics": [
            "0x8c5be1e5ebec7d5bd14f71427d1e84f3dd0314c0f7b2291e5b200ac8c7c3b925",
            "0x00000000000000000000000017ceb8da41205f1026241766328751884afa7fe8",
            "0x00000000000000000000000017ceb8da41205f1026241766328751884afa7fe8"
          ],
          "data": "0x0000000000000000000000000000000000000000000000000011c37937e08000",
          "blockHash": "0x9ab4513c3ef13ed6101d234e90283074c210c03c3f87cb95f59ab5579ad4c6b5",
          "blockNumber": "0x72f7a7",
          "transactionHash": "0x3630ef94cb3f98b24eb440668701fa0ffb47ff2ea5be9c130a1f0387c4c267ad",
          "transactionIndex": "0x4e",
          "logIndex": "0x1114",
          "removed": false
        },
        {
          "address": "0xca14007eff0db1f8135f4c25b34de49ab0d42766",
          "topics": [
            "0xddf252ad1be2c89b69c2b068fc378daa952ba7f163c4a11628f55a4df523b3ef",
            "0x000000000000000000000000ddb342ecc94236c29a5307d3757d0724d759453c",
            "0x00000000000000000000000017ceb8da41205f1026241766328751884afa7fe8"
          ],
          "data": "0x0000000000000000000000000000000000000000000000000011c37937e08000",
          "blockHash": "0x9ab4513c3ef13ed6101d234e90283074c210c03c3f87cb95f59ab5579ad4c6b5",
          "blockNumber": "0x72f7a7",
          "transactionHash": "0x3630ef94cb3f98b24eb440668701fa0ffb47ff2ea5be9c130a1f0387c4c267ad",
          "transactionIndex": "0x4e",
          "logIndex": "0x1115",
          "removed": false
        },
        {
          "address": "0xca14007eff0db1f8135f4c25b34de49ab0d42766",
          "topics": [
            "0x8c5be1e5ebec7d5bd14f71427d1e84f3dd0314c0f7b2291e5b200ac8c7c3b925",
            "0x00000000000000000000000017ceb8da41205f1026241766328751884afa7fe8",
            "0x000000000000000000000000ce5485cfb26914c5dce00b9baf0580364dafc7a4"
          ],
          "data": "0x0000000000000000000000000000000000000000000000000011c37937e08000",
          "blockHash": "0x9ab4513c3ef13ed6101d234e90283074c210c03c3f87cb95f59ab5579ad4c6b5",
          "blockNumber": "0x72f7a7",
          "transactionHash": "0x3630ef94cb3f98b24eb440668701fa0ffb47ff2ea5be9c130a1f0387c4c267ad",
          "transactionIndex": "0x4e",
          "logIndex": "0x1116",
          "removed": false
        },
        {
          "address": "0xca14007eff0db1f8135f4c25b34de49ab0d42766",
          "topics": [
            "0x8c5be1e5ebec7d5bd14f71427d1e84f3dd0314c0f7b2291e5b200ac8c7c3b925",
            "0x00000000000000000000000017ceb8da41205f1026241766328751884afa7fe8",
            "0x000000000000000000000000ce5485cfb26914c5dce00b9baf0580364dafc7a4"
          ],
          "data": "0x0000000000000000000000000000000000000000000000000000000000000000",
          "blockHash": "0x9ab4513c3ef13ed6101d234e90283074c210c03c3f87cb95f59ab5579ad4c6b5",
          "blockNumber": "0x72f7a7",
          "transactionHash": "0x3630ef94cb3f98b24eb440668701fa0ffb47ff2ea5be9c130a1f0387c4c267ad",
          "transactionIndex": "0x4e",
          "logIndex": "0x1117",
          "removed": false
        },
        {
          "address": "0xca14007eff0db1f8135f4c25b34de49ab0d42766",
          "topics": [
            "0xddf252ad1be2c89b69c2b068fc378daa952ba7f163c4a11628f55a4df523b3ef",
            "0x00000000000000000000000017ceb8da41205f1026241766328751884afa7fe8",
            "0x000000000000000000000000ce5485cfb26914c5dce00b9baf0580364dafc7a4"
          ],
          "data": "0x0000000000000000000000000000000000000000000000000011c37937e08000",
          "blockHash": "0x9ab4513c3ef13ed6101d234e90283074c210c03c3f87cb95f59ab5579ad4c6b5",
          "blockNumber": "0x72f7a7",
          "transactionHash": "0x3630ef94cb3f98b24eb440668701fa0ffb47ff2ea5be9c130a1f0387c4c267ad",
          "transactionIndex": "0x4e",
          "logIndex": "0x1118",
          "removed": false
        },
        {
          "address": "0xe2bb56ee936fd6433dc0f6e7e3b8365c906aa057",
          "topics": [
            "0xdb80dd488acf86d17c747445b0eabb5d57c541d3bd7b6b87af987858e5066b2b",
            "0x000000000000000000000000ce5485cfb26914c5dce00b9baf0580364dafc7a4",
            "0x0594c1582459ea03f77deaf9eb7e3917d6994a03c13405ba42867f83d85f085d",
            "0x008bce41827dd5484d80312a2e43bc42a896e3fcf75bf84c2b49339168dfa00a"
          ],
          "data": "0x00000000000000000000000000000000000000000000000000000000000000600000000000000000000000000000000000000000000000000000000000002c440000000000000000000000000000000000000000000000000001c6bf52634000000000000000000000000000000000000000000000000000000000000000000e000000000000000000000000ca14007eff0db1f8135f4c25b34de49ab0d4276600000000000000000000000017ceb8da41205f1026241766328751884afa7fe807f7634d530030231a04892601d83bbc79defee8145d116d18fc4978e21f27410000000000000000000000000000000000000000000000000011c37937e08000000000000000000000000000000000000000000000000000000000000000000000000000000000000000000000000000000000000000000000000000000000080000000000000000000000000000000000000000000000000000000000000000000000000000000000000000ddb342ecc94236c29a5307d3757d0724d759453c04718f5a0fc34cc1af16a1cdee98ffb20c31f5cd61d6ab07201858f4287c938d049d36570d4e46f48e99674bd3fcc84644ddd6b96f7c741b1562b82f9e004dc7000000000000000000000000000000000020c49ba5e353f8000000000000000000000000000000000000000000000000000000000000000000000000678e97d000000000000000000000000000000000000000000000000000000000678e98500000000000000000000000000000000000000000000000000011c37937e08000",
          "blockHash": "0x9ab4513c3ef13ed6101d234e90283074c210c03c3f87cb95f59ab5579ad4c6b5",
          "blockNumber": "0x72f7a7",
          "transactionHash": "0x3630ef94cb3f98b24eb440668701fa0ffb47ff2ea5be9c130a1f0387c4c267ad",
          "transactionIndex": "0x4e",
          "logIndex": "0x1119",
          "removed": false
        },
        {
          "address": "0xce5485cfb26914c5dce00b9baf0580364dafc7a4",
          "topics": [
            "0x2203a49c69f1a46c1164f5e4a30643dd77b7c59c0ff9bc433256048365c247f1",
            "0x00000000000000000000000017ceb8da41205f1026241766328751884afa7fe8",
            "0x000000000000000000000000ca14007eff0db1f8135f4c25b34de49ab0d42766",
            "0x07f7634d530030231a04892601d83bbc79defee8145d116d18fc4978e21f2741"
          ],
          "data": "0x0000000000000000000000000000000000000000000000000011c37937e0800000000000000000000000000000000000000000000000000000000000000000800000000000000000000000000000000000000000000000000000000000002c440000000000000000000000000000000000000000000000000001c6bf5263400000000000000000000000000000000000000000000000000000000000000000080000000000000000000000000000000000000000000000000000000000000000000000000000000000000000ddb342ecc94236c29a5307d3757d0724d759453c04718f5a0fc34cc1af16a1cdee98ffb20c31f5cd61d6ab07201858f4287c938d049d36570d4e46f48e99674bd3fcc84644ddd6b96f7c741b1562b82f9e004dc7000000000000000000000000000000000020c49ba5e353f8000000000000000000000000000000000000000000000000000000000000000000000000678e97d000000000000000000000000000000000000000000000000000000000678e98500000000000000000000000000000000000000000000000000011c37937e08000",
          "blockHash": "0x9ab4513c3ef13ed6101d234e90283074c210c03c3f87cb95f59ab5579ad4c6b5",
          "blockNumber": "0x72f7a7",
          "transactionHash": "0x3630ef94cb3f98b24eb440668701fa0ffb47ff2ea5be9c130a1f0387c4c267ad",
          "transactionIndex": "0x4e",
          "logIndex": "0x111a",
          "removed": false
        },
        {
          "address": "0x17ceb8da41205f1026241766328751884afa7fe8",
          "topics": [
            "0xaf43445f7721522b7a3864ed3de53d7e2e658bfa1eeffa18e1e229be68ce2545",
            "0x000000000000000000000000ddb342ecc94236c29a5307d3757d0724d759453c",
            "0x07f7634d530030231a04892601d83bbc79defee8145d116d18fc4978e21f2741"
          ],
          "data": "0x0000000000000000000000000000000000000000000000000011c37937e080000000000000000000000000000000000000000000000000000000000000000001",
          "blockHash": "0x9ab4513c3ef13ed6101d234e90283074c210c03c3f87cb95f59ab5579ad4c6b5",
          "blockNumber": "0x72f7a7",
          "transactionHash": "0x3630ef94cb3f98b24eb440668701fa0ffb47ff2ea5be9c130a1f0387c4c267ad",
          "transactionIndex": "0x4e",
          "logIndex": "0x111b",
          "removed": false
        }
      ],
      "logsBloom": "0x00000200000000000000000000020000000000000000000000000040000000000000000000000000000000000800000000000000000004000000020000200000000000000000000000000008080000000000000000000040001000000000000600000000100000000000000000000000400000000000000000000010400008002000000000000000000000020000000000008000002200000000000000000010020000800000000000000020000000021000000004000000000000000000002800800002000000024010200000000000020000200000000000800000000000000010000000410000000000020004000000000000001000000000000000200000",
      "type": "0x2",
      "transactionHash": "0x3630ef94cb3f98b24eb440668701fa0ffb47ff2ea5be9c130a1f0387c4c267ad",
      "transactionIndex": "0x4e",
      "blockHash": "0x9ab4513c3ef13ed6101d234e90283074c210c03c3f87cb95f59ab5579ad4c6b5",
      "blockNumber": "0x72f7a7",
      "gasUsed": "0x2b470",
      "effectiveGasPrice": "0x41e88e7d",
      "from": "0xddb342ecc94236c29a5307d3757d0724d759453c",
      "to": "0x17ceb8da41205f1026241766328751884afa7fe8",
      "contractAddress": null
    }
  ],
  "libraries": [],
  "pending": [],
  "returns": {},
  "timestamp": 1737398257,
  "chain": 11155111,
  "commit": "fcbff6b"
}