{
  "transactions": [
    {
      "hash": "0xf689773b0a7ee8d33f663bd06ae25060a586a05f7d915917ff51292684ba874c",
      "transactionType": "CALL",
      "contractName": null,
      "contractAddress": "0xca14007eff0db1f8135f4c25b34de49ab0d42766",
      "function": "approve(address,uint256)",
      "arguments": [
        "0xabcd70100c04F7aD20DDF425705c91AB2BeA4e56",
        "115792089237316195423570985008687907853269984665640564039457584007913129639935"
      ],
      "transaction": {
        "from": "0xddb342ecc94236c29a5307d3757d0724d759453c",
        "to": "0xca14007eff0db1f8135f4c25b34de49ab0d42766",
        "gas": "0x93a9",
        "value": "0x0",
        "input": "0x095ea7b3000000000000000000000000abcd70100c04f7ad20ddf425705c91ab2bea4e56ffffffffffffffffffffffffffffffffffffffffffffffffffffffffffffffff",
        "nonce": "0x52d",
        "chainId": "0xaa36a7"
      },
      "additionalContracts": [],
      "isFixedGasLimit": false
    },
    {
      "hash": "0xca8235b7863f6893fe382ccfad8da98b2a1fbde0062ba26482153b7a79ce9547",
      "transactionType": "CALL",
      "contractName": null,
      "contractAddress": "0xabcd70100c04f7ad20ddf425705c91ab2bea4e56",
      "function": "initiateCancelDepositRequest(address,(address,uint256,uint256,uint128,uint128,uint128,uint128),uint256)",
      "arguments": [
        "0xCa14007Eff0dB1f8135f4C25B34De49AB0d42766",
        "(0xDdb342ecc94236c29a5307d3757d0724D759453C, 2009894490435840142178314390393166646092438090257831307886760648929397478285, 2366254414417873771392932940469309727793822550615514268240785277201753657472, 170141183460469235273462165868118016, 1737475504, 1737475632, 500000000000000)",
        "11400"
      ],
      "transaction": {
        "from": "0xddb342ecc94236c29a5307d3757d0724d759453c",
        "to": "0xabcd70100c04f7ad20ddf425705c91ab2bea4e56",
        "gas": "0x222ce",
        "value": "0x0",
        "input": "0x13918d6a000000000000000000000000ca14007eff0db1f8135f4c25b34de49ab0d42766000000000000000000000000ddb342ecc94236c29a5307d3757d0724d759453c04718f5a0fc34cc1af16a1cdee98ffb20c31f5cd61d6ab07201858f4287c938d053b40a647cedfca6ca84f542a0fe36736031905a9639a7f19a3c1e66bfd5080000000000000000000000000000000000020c49ba5e353f8000000000000000000000000000000000000000000000000000000000000000000000000678fc5b000000000000000000000000000000000000000000000000000000000678fc6300000000000000000000000000000000000000000000000000001c6bf526340000000000000000000000000000000000000000000000000000000000000002c88",
        "nonce": "0x52e",
        "chainId": "0xaa36a7"
      },
      "additionalContracts": [],
      "isFixedGasLimit": false
    }
  ],
  "receipts": [
    {
      "status": "0x1",
      "cumulativeGasUsed": "0xe43d43",
      "logs": [
        {
          "address": "0xca14007eff0db1f8135f4c25b34de49ab0d42766",
          "topics": [
            "0x8c5be1e5ebec7d5bd14f71427d1e84f3dd0314c0f7b2291e5b200ac8c7c3b925",
            "0x000000000000000000000000ddb342ecc94236c29a5307d3757d0724d759453c",
            "0x000000000000000000000000abcd70100c04f7ad20ddf425705c91ab2bea4e56"
          ],
          "data": "0xffffffffffffffffffffffffffffffffffffffffffffffffffffffffffffffff",
          "blockHash": "0x41c1afe9a2837c5304b817b585678d51e1627881e08da69d201021681c3d81bd",
          "blockNumber": "0x7310eb",
          "transactionHash": "0xf689773b0a7ee8d33f663bd06ae25060a586a05f7d915917ff51292684ba874c",
          "transactionIndex": "0x6e",
          "logIndex": "0xa1",
          "removed": false
        }
      ],
      "logsBloom": "0x00000000010000000000100000000000000000000000000000000000000000000000000000000000000000000000000000000000000000000000000000200000000000000000000000000000000000000000000000000000000000000000000400000000000000000000000000000000400000000000000000000000400000000000000000000000000000000000000000000000000000000000000000000000020000000000000000000000000000000000000000000000000000000000000000000000000000020000000000000000000000000000000000800000000000000010000000001000000000000000000000000000001000000000000000000000",
      "type": "0x2",
      "transactionHash": "0xf689773b0a7ee8d33f663bd06ae25060a586a05f7d915917ff51292684ba874c",
      "transactionIndex": "0x6e",
      "blockHash": "0x41c1afe9a2837c5304b817b585678d51e1627881e08da69d201021681c3d81bd",
      "blockNumber": "0x7310eb",
      "gasUsed": "0x6ae8",
      "effectiveGasPrice": "0x82a6c2f3",
      "from": "0xddb342ecc94236c29a5307d3757d0724d759453c",
      "to": "0xca14007eff0db1f8135f4c25b34de49ab0d42766",
      "contractAddress": null
    },
    {
      "status": "0x1",
      "cumulativeGasUsed": "0xe5b326",
      "logs": [
        {
          "address": "0xe2bb56ee936fd6433dc0f6e7e3b8365c906aa057",
          "topics": [
            "0x2e00dccd686fd6823ec7dc3e125582aa82881b6ff5f6b5a73856e1ea8338a3be",
            "0x000000000000000000000000ce5485cfb26914c5dce00b9baf0580364dafc7a4",
            "0x0594c1582459ea03f77deaf9eb7e3917d6994a03c13405ba42867f83d85f085d",
            "0x008bce41827dd5484d80312a2e43bc42a896e3fcf75bf84c2b49339168dfa00a"
          ],
          "data": "0x00000000000000000000000000000000000000000000000000000000000000400000000000000000000000000000000000000000000000000000000000002c88000000000000000000000000000000000000000000000000000000000000000e000000000000000000000000ca14007eff0db1f8135f4c25b34de49ab0d42766000000000000000000000000abcd70100c04f7ad20ddf425705c91ab2bea4e5600b3fa26e2af15dda3690ff437257057ad524115b00182928b60d213d50281a60000000000000000000000000000000000000000000000000001c6bf52634000000000000000000000000000000000000000000000000000000000000000000000000000000000000000000000000000000000000000000000000000000000080000000000000000000000000000000000000000000000000000000000000000000000000000000000000000ddb342ecc94236c29a5307d3757d0724d759453c04718f5a0fc34cc1af16a1cdee98ffb20c31f5cd61d6ab07201858f4287c938d053b40a647cedfca6ca84f542a0fe36736031905a9639a7f19a3c1e66bfd5080000000000000000000000000000000000020c49ba5e353f8000000000000000000000000000000000000000000000000000000000000000000000000678fc5b000000000000000000000000000000000000000000000000000000000678fc6300000000000000000000000000000000000000000000000000001c6bf52634000",
          "blockHash": "0x41c1afe9a2837c5304b817b585678d51e1627881e08da69d201021681c3d81bd",
          "blockNumber": "0x7310eb",
          "transactionHash": "0xca8235b7863f6893fe382ccfad8da98b2a1fbde0062ba26482153b7a79ce9547",
          "transactionIndex": "0x6f",
          "logIndex": "0xa2",
          "removed": false
        },
        {
          "address": "0xce5485cfb26914c5dce00b9baf0580364dafc7a4",
          "topics": [
            "0x889e470f207032611b2f68dbd2124e3139794f19a6b536c83892fd5057603860",
            "0x000000000000000000000000abcd70100c04f7ad20ddf425705c91ab2bea4e56",
            "0x000000000000000000000000ca14007eff0db1f8135f4c25b34de49ab0d42766",
            "0x00b3fa26e2af15dda3690ff437257057ad524115b00182928b60d213d50281a6"
          ],
          "data": "0x0000000000000000000000000000000000000000000000000001c6bf5263400000000000000000000000000000000000000000000000000000000000000000600000000000000000000000000000000000000000000000000000000000002c8800000000000000000000000000000000000000000000000000000000000000080000000000000000000000000000000000000000000000000000000000000000000000000000000000000000ddb342ecc94236c29a5307d3757d0724d759453c04718f5a0fc34cc1af16a1cdee98ffb20c31f5cd61d6ab07201858f4287c938d053b40a647cedfca6ca84f542a0fe36736031905a9639a7f19a3c1e66bfd5080000000000000000000000000000000000020c49ba5e353f8000000000000000000000000000000000000000000000000000000000000000000000000678fc5b000000000000000000000000000000000000000000000000000000000678fc6300000000000000000000000000000000000000000000000000001c6bf52634000",
          "blockHash": "0x41c1afe9a2837c5304b817b585678d51e1627881e08da69d201021681c3d81bd",
          "blockNumber": "0x7310eb",
          "transactionHash": "0xca8235b7863f6893fe382ccfad8da98b2a1fbde0062ba26482153b7a79ce9547",
          "transactionIndex": "0x6f",
          "logIndex": "0xa3",
          "removed": false
        }
      ],
      "logsBloom": "0x00000000010000000000100000020000000000000000000000000040000000000000000000000000000000000000000000000000000004000000020200000000000000000000000000000000080000000000000000000040000000000000000000000000000000000000000000080000000000000000000004000000000008002000000000000000000000000000080000000000000200000000000028000010000000000000000000000002000000021000000000000000000000000000000000000000000000006010000000000000000000200000000000000000000000000000000000011000000000020004000000000000000000000000000000000004",
      "type": "0x2",
      "transactionHash": "0xca8235b7863f6893fe382ccfad8da98b2a1fbde0062ba26482153b7a79ce9547",
      "transactionIndex": "0x6f",
      "blockHash": "0x41c1afe9a2837c5304b817b585678d51e1627881e08da69d201021681c3d81bd",
      "blockNumber": "0x7310eb",
      "gasUsed": "0x175e3",
      "effectiveGasPrice": "0x82a6c2f3",
      "from": "0xddb342ecc94236c29a5307d3757d0724d759453c",
      "to": "0xabcd70100c04f7ad20ddf425705c91ab2bea4e56",
      "contractAddress": null
    }
  ],
  "libraries": [],
  "pending": [],
  "returns": {},
  "timestamp": 1737475993,
  "chain": 11155111,
  "commit": "fcbff6b"
}