{
  "transactions": [
    {
      "hash": "0xbef302f0cb961a3aef5c9490440fe3124e21bb8f19087e18afae463db1f7801b",
      "transactionType": "CALL",
      "contractName": "StarkNetToken",
      "contractAddress": "0xCa14007Eff0dB1f8135f4C25B34De49AB0d42766",
      "function": "approve(address,uint256)",
      "arguments": [
        "0x5b5cd4A361FB17dD9A96491E6CeCFc09D586326b",
        "115792089237316195423570985008687907853269984665640564039457584007913129639935"
      ],
      "transaction": {
        "type": "0x02",
        "from": "0xddb342ecc94236c29a5307d3757d0724d759453c",
        "to": "0xca14007eff0db1f8135f4c25b34de49ab0d42766",
        "gas": "0xff08",
        "value": "0x0",
        "data": "0x095ea7b30000000000000000000000005b5cd4a361fb17dd9a96491e6cecfc09d586326bffffffffffffffffffffffffffffffffffffffffffffffffffffffffffffffff",
        "nonce": "0x2e7",
        "accessList": []
      },
      "additionalContracts": [],
      "isFixedGasLimit": false
    },
    {
      "hash": "0xeb0b434e56c56e3efd747c899831b3183c90b514049a4e1c47c328ccafc5cd0d",
      "transactionType": "CALL",
      "contractName": "StarkNetToken",
      "contractAddress": "0xCa14007Eff0dB1f8135f4C25B34De49AB0d42766",
      "function": "transfer(address,uint256)",
      "arguments": [
        "0x5b5cd4A361FB17dD9A96491E6CeCFc09D586326b",
        "500000000000"
      ],
      "transaction": {
        "type": "0x02",
        "from": "0xddb342ecc94236c29a5307d3757d0724d759453c",
        "to": "0xca14007eff0db1f8135f4c25b34de49ab0d42766",
        "gas": "0x1339c",
        "value": "0x0",
        "data": "0xa9059cbb0000000000000000000000005b5cd4a361fb17dd9a96491e6cecfc09d586326b000000000000000000000000000000000000000000000000000000746a528800",
        "nonce": "0x2e8",
        "accessList": []
      },
      "additionalContracts": [],
      "isFixedGasLimit": false
    },
    {
      "hash": "0xaf9d85cca3ac9c1d3be257fc047d2ef403d5a91e69b493189e657191e7c7b0bb",
      "transactionType": "CALL",
      "contractName": "Proxy",
      "contractAddress": "0xE2Bb56ee936fd6433DC0F6e7e3b8365C906AA057",
      "function": "sendMessageToL2(uint256,uint256,uint256[])",
      "arguments": [
        "3044431114607580386747799562494304289507132961899262986909278129482281492652",
        "425952401605428413817582304755919420533935873840436977667370850915372091056",
        "[3, 1265684623727634235329190328445374361672779121980, 0, 1153662193824988676821566247033479441673014749030, 0, 0, 0, 500000000000, 2524392021852001135582825949054576525094493216367559068627275826195272239197]"
      ],
      "transaction": {
        "type": "0x02",
        "from": "0xddb342ecc94236c29a5307d3757d0724d759453c",
        "to": "0xe2bb56ee936fd6433dc0f6e7e3b8365c906aa057",
        "gas": "0x17438",
        "value": "0x5af3107a4000",
        "data": "0x3e3aa6c506bb1642280e27b8ae0435d828eaf866cd624d2474e172df8d4c6f16f147a0ac00f1149cade9d692862ad41df96b108aa2c20af34f640457e781d166c98dc6b0000000000000000000000000000000000000000000000000000000000000006000000000000000000000000000000000000000000000000000000000000000090000000000000000000000000000000000000000000000000000000000000003000000000000000000000000ddb342ecc94236c29a5307d3757d0724d759453c0000000000000000000000000000000000000000000000000000000000000000000000000000000000000000ca14007eff0db1f8135f4c25b34de49ab0d42766000000000000000000000000000000000000000000000000000000000000000000000000000000000000000000000000000000000000000000000000000000000000000000000000000000000000000000000000000000000000000000000000000000000000000000000000000000000000000000000000000000746a5288000594c1582459ea03f77deaf9eb7e3917d6994a03c13405ba42867f83d85f085d",
        "nonce": "0x2e9",
        "accessList": []
      },
      "additionalContracts": [],
      "isFixedGasLimit": false
    }
  ],
  "receipts": [
    {
      "transactionHash": "0xbef302f0cb961a3aef5c9490440fe3124e21bb8f19087e18afae463db1f7801b",
      "transactionIndex": "0x2",
      "blockHash": "0xaac7f3b9c9f0b1f4ee1c43368445006ebb842350d080b27673503fe9b455fc1d",
      "blockNumber": "0x6c125e",
      "from": "0xDdb342ecc94236c29a5307d3757d0724D759453C",
      "to": "0xCa14007Eff0dB1f8135f4C25B34De49AB0d42766",
      "cumulativeGasUsed": "0x5496e",
      "gasUsed": "0xb8a4",
      "contractAddress": null,
      "logs": [
        {
          "address": "0xCa14007Eff0dB1f8135f4C25B34De49AB0d42766",
          "topics": [
            "0x8c5be1e5ebec7d5bd14f71427d1e84f3dd0314c0f7b2291e5b200ac8c7c3b925",
            "0x000000000000000000000000ddb342ecc94236c29a5307d3757d0724d759453c",
            "0x0000000000000000000000005b5cd4a361fb17dd9a96491e6cecfc09d586326b"
          ],
          "data": "0xffffffffffffffffffffffffffffffffffffffffffffffffffffffffffffffff",
          "blockHash": "0xaac7f3b9c9f0b1f4ee1c43368445006ebb842350d080b27673503fe9b455fc1d",
          "blockNumber": "0x6c125e",
          "transactionHash": "0xbef302f0cb961a3aef5c9490440fe3124e21bb8f19087e18afae463db1f7801b",
          "transactionIndex": "0x2",
          "logIndex": "0x2",
          "removed": false
        }
      ],
      "status": "0x1",
      "logsBloom": "0x00000000000000000000000000000000000000000000000000000000000000000000000000000000000000000000000000000000000000000000000000200000000000000000000000000000000000000000000000000000000000000000000400000000000000000000000000000000400000000000000000000000400000000000000040000000000000000000000000000000000000000000000000000000020000000000000000000000000000000000000000000000000000000000000000000000000000020000000000020000000000000000000000801000000000000010000000000000000000000000000000000000001000000000000000000000",
      "type": "0x2",
      "effectiveGasPrice": "0xddd6ffea"
    },
    {
      "transactionHash": "0xeb0b434e56c56e3efd747c899831b3183c90b514049a4e1c47c328ccafc5cd0d",
      "transactionIndex": "0x3",
      "blockHash": "0xaac7f3b9c9f0b1f4ee1c43368445006ebb842350d080b27673503fe9b455fc1d",
      "blockNumber": "0x6c125e",
      "from": "0xDdb342ecc94236c29a5307d3757d0724D759453C",
      "to": "0xCa14007Eff0dB1f8135f4C25B34De49AB0d42766",
      "cumulativeGasUsed": "0x62823",
      "gasUsed": "0xdeb5",
      "contractAddress": null,
      "logs": [
        {
          "address": "0xCa14007Eff0dB1f8135f4C25B34De49AB0d42766",
          "topics": [
            "0xddf252ad1be2c89b69c2b068fc378daa952ba7f163c4a11628f55a4df523b3ef",
            "0x000000000000000000000000ddb342ecc94236c29a5307d3757d0724d759453c",
            "0x0000000000000000000000005b5cd4a361fb17dd9a96491e6cecfc09d586326b"
          ],
          "data": "0x000000000000000000000000000000000000000000000000000000746a528800",
          "blockHash": "0xaac7f3b9c9f0b1f4ee1c43368445006ebb842350d080b27673503fe9b455fc1d",
          "blockNumber": "0x6c125e",
          "transactionHash": "0xeb0b434e56c56e3efd747c899831b3183c90b514049a4e1c47c328ccafc5cd0d",
          "transactionIndex": "0x3",
          "logIndex": "0x3",
          "removed": false
        }
      ],
      "status": "0x1",
      "logsBloom": "0x00000000000000000000000000000000000000000000000000000000000000000000000000000000000000000000000000000000000000000000000000000000000000000000000000000008000000000000000000000000000000000000000400000000000000000000000000000000400000000000000000000010400000000000000040000000000000000000000000000000000000000000000000000000000000000000000000000000000000000000000000000000000000000000000000000002000000020000000000020000000000000000000000801000000000000000000000000000000000000000000000000000001000000000000000000000",
      "type": "0x2",
      "effectiveGasPrice": "0xddd6ffea"
    },
    {
      "transactionHash": "0xaf9d85cca3ac9c1d3be257fc047d2ef403d5a91e69b493189e657191e7c7b0bb",
      "transactionIndex": "0x4",
      "blockHash": "0xaac7f3b9c9f0b1f4ee1c43368445006ebb842350d080b27673503fe9b455fc1d",
      "blockNumber": "0x6c125e",
      "from": "0xDdb342ecc94236c29a5307d3757d0724D759453C",
      "to": "0xE2Bb56ee936fd6433DC0F6e7e3b8365C906AA057",
      "cumulativeGasUsed": "0x726a6",
      "gasUsed": "0xfe83",
      "contractAddress": null,
      "logs": [
        {
          "address": "0xE2Bb56ee936fd6433DC0F6e7e3b8365C906AA057",
          "topics": [
            "0xdb80dd488acf86d17c747445b0eabb5d57c541d3bd7b6b87af987858e5066b2b",
            "0x000000000000000000000000ddb342ecc94236c29a5307d3757d0724d759453c",
            "0x06bb1642280e27b8ae0435d828eaf866cd624d2474e172df8d4c6f16f147a0ac",
            "0x00f1149cade9d692862ad41df96b108aa2c20af34f640457e781d166c98dc6b0"
          ],
          "data": "0x0000000000000000000000000000000000000000000000000000000000000060000000000000000000000000000000000000000000000000000000000000287200000000000000000000000000000000000000000000000000005af3107a400000000000000000000000000000000000000000000000000000000000000000090000000000000000000000000000000000000000000000000000000000000003000000000000000000000000ddb342ecc94236c29a5307d3757d0724d759453c0000000000000000000000000000000000000000000000000000000000000000000000000000000000000000ca14007eff0db1f8135f4c25b34de49ab0d42766000000000000000000000000000000000000000000000000000000000000000000000000000000000000000000000000000000000000000000000000000000000000000000000000000000000000000000000000000000000000000000000000000000000000000000000000000000000000000000000000000000746a5288000594c1582459ea03f77deaf9eb7e3917d6994a03c13405ba42867f83d85f085d",
          "blockHash": "0xaac7f3b9c9f0b1f4ee1c43368445006ebb842350d080b27673503fe9b455fc1d",
          "blockNumber": "0x6c125e",
          "transactionHash": "0xaf9d85cca3ac9c1d3be257fc047d2ef403d5a91e69b493189e657191e7c7b0bb",
          "transactionIndex": "0x4",
          "logIndex": "0x4",
          "removed": false
        }
      ],
      "status": "0x1",
      "logsBloom": "0x00400000000000000000000000020000000000000000000000000000000000000000000000000000000000000000000000000000000000000000000000000000000000000000000000000000000000000000000000000040001000000000000400000000100000010000000000000000400000000000000000000000400000000000000000000004000000000000000004000000000000000000000000000010000000000000000000000020000000000000000000000000000000000000000000000000000000000000000000000000000000000000000000000000000000000000000000000000000000000200000000000000000000080000000000000000",
      "type": "0x2",
      "effectiveGasPrice": "0xddd6ffea"
    }
  ],
  "libraries": [],
  "pending": [],
  "returns": {},
  "timestamp": 1731681116,
  "chain": 11155111,
  "multi": false,
  "commit": "945f7f2"
}