{
  "transactions": [
    {
      "hash": "0x116026a96c9f981aeb6c660c0409cb0ebc31cfff6d464726382f741452a6d723",
      "transactionType": "CALL",
      "contractName": "StarkNetToken",
      "contractAddress": "0xCa14007Eff0dB1f8135f4C25B34De49AB0d42766",
      "function": "approve(address,uint256)",
      "arguments": [
        "0x82066948CC929c4707787cF1214E08eD7d2B1f20",
        "115792089237316195423570985008687907853269984665640564039457584007913129639935"
      ],
      "transaction": {
        "type": "0x02",
        "from": "0xddb342ecc94236c29a5307d3757d0724d759453c",
        "to": "0xca14007eff0db1f8135f4c25b34de49ab0d42766",
        "gas": "0x93a9",
        "value": "0x0",
        "data": "0x095ea7b300000000000000000000000082066948cc929c4707787cf1214e08ed7d2b1f20ffffffffffffffffffffffffffffffffffffffffffffffffffffffffffffffff",
        "nonce": "0x2a8",
        "accessList": []
      },
      "additionalContracts": [],
      "isFixedGasLimit": false
    },
    {
      "hash": "0xaea98e9dbdfb466c31e327cf0ecfc54224a6a66b82415d5b0a6eaa43c8e75d90",
      "transactionType": "CALL",
      "contractName": "StarkNetToken",
      "contractAddress": "0xCa14007Eff0dB1f8135f4C25B34De49AB0d42766",
      "function": "transfer(address,uint256)",
      "arguments": [
        "0x82066948CC929c4707787cF1214E08eD7d2B1f20",
        "500000000000"
      ],
      "transaction": {
        "type": "0x02",
        "from": "0xddb342ecc94236c29a5307d3757d0724d759453c",
        "to": "0xca14007eff0db1f8135f4c25b34de49ab0d42766",
        "gas": "0xe404",
        "value": "0x0",
        "data": "0xa9059cbb00000000000000000000000082066948cc929c4707787cf1214e08ed7d2b1f20000000000000000000000000000000000000000000000000000000746a528800",
        "nonce": "0x2a9",
        "accessList": []
      },
      "additionalContracts": [],
      "isFixedGasLimit": false
    },
    {
      "hash": "0xfc3130a15d8014d9f91727e3b2c3245c3f5cfc82a38256102bb9d5624f7d8920",
      "transactionType": "CALL",
      "contractName": "L1TWAMMBridge",
      "contractAddress": "0x82066948CC929c4707787cF1214E08eD7d2B1f20",
      "function": "deposit(uint256,uint256)",
      "arguments": [
        "500000000000",
        "80756551688165857620544480464209230113661696152336388978584739899148792283"
      ],
      "transaction": {
        "type": "0x02",
        "from": "0xddb342ecc94236c29a5307d3757d0724d759453c",
        "to": "0x82066948cc929c4707787cf1214e08ed7d2b1f20",
        "gas": "0x2f13d",
        "value": "0x5af3107a4000",
        "data": "0xe2bbb158000000000000000000000000000000000000000000000000000000746a528800002db4e2fb780be922c23ff0cdeb6b5480c14dcdf62b010c3f94d6df0d4af1db",
        "nonce": "0x2aa",
        "accessList": []
      },
      "additionalContracts": [],
      "isFixedGasLimit": false
    },
    {
      "hash": "0xc1652a46d47d390199891f016b72a4f60b235322da3413f8cb7dc56771a6a40a",
      "transactionType": "CALL",
      "contractName": "Proxy",
      "contractAddress": "0xE2Bb56ee936fd6433DC0F6e7e3b8365C906AA057",
      "function": "sendMessageToL2(uint256,uint256,uint256[])",
      "arguments": [
        "80756551688165857620544480464209230113661696152336388978584739899148792283",
        "425952401605428413817582304755919420533935873840436977667370850915372091056",
        "[0, 1265684623727634235329190328445374361672779121980, 2009894490435840142178314390393166646092438090257831307886760648929397478285, 2366254414417873771392932940469309727793822550615514268240785277201753657472, 170141183460469235273462165868118016, 1731428416, 1731428480, 500000000000]"
      ],
      "transaction": {
        "type": "0x02",
        "from": "0xddb342ecc94236c29a5307d3757d0724d759453c",
        "to": "0xe2bb56ee936fd6433dc0f6e7e3b8365c906aa057",
        "gas": "0x15f0a",
        "value": "0x5af3107a4000",
        "data": "0x3e3aa6c5002db4e2fb780be922c23ff0cdeb6b5480c14dcdf62b010c3f94d6df0d4af1db00f1149cade9d692862ad41df96b108aa2c20af34f640457e781d166c98dc6b0000000000000000000000000000000000000000000000000000000000000006000000000000000000000000000000000000000000000000000000000000000080000000000000000000000000000000000000000000000000000000000000000000000000000000000000000ddb342ecc94236c29a5307d3757d0724d759453c04718f5a0fc34cc1af16a1cdee98ffb20c31f5cd61d6ab07201858f4287c938d053b40a647cedfca6ca84f542a0fe36736031905a9639a7f19a3c1e66bfd5080000000000000000000000000000000000020c49ba5e353f8000000000000000000000000000000000000000000000000000000000000000000000000673380400000000000000000000000000000000000000000000000000000000067338080000000000000000000000000000000000000000000000000000000746a528800",
        "nonce": "0x2ab",
        "accessList": []
      },
      "additionalContracts": [],
      "isFixedGasLimit": false
    }
  ],
  "receipts": [
    {
      "transactionHash": "0x116026a96c9f981aeb6c660c0409cb0ebc31cfff6d464726382f741452a6d723",
      "transactionIndex": "0x19",
      "blockHash": "0x5c8a43474a1f7237968815adb63b370d8cf0bab8b391d17c3a816c36d015fa84",
      "blockNumber": "0x6bc4fc",
      "from": "0xDdb342ecc94236c29a5307d3757d0724D759453C",
      "to": "0xCa14007Eff0dB1f8135f4C25B34De49AB0d42766",
      "cumulativeGasUsed": "0x100bfc8",
      "gasUsed": "0x6ae8",
      "contractAddress": null,
      "logs": [
        {
          "address": "0xCa14007Eff0dB1f8135f4C25B34De49AB0d42766",
          "topics": [
            "0x8c5be1e5ebec7d5bd14f71427d1e84f3dd0314c0f7b2291e5b200ac8c7c3b925",
            "0x000000000000000000000000ddb342ecc94236c29a5307d3757d0724d759453c",
            "0x00000000000000000000000082066948cc929c4707787cf1214e08ed7d2b1f20"
          ],
          "data": "0xffffffffffffffffffffffffffffffffffffffffffffffffffffffffffffffff",
          "blockHash": "0x5c8a43474a1f7237968815adb63b370d8cf0bab8b391d17c3a816c36d015fa84",
          "blockNumber": "0x6bc4fc",
          "transactionHash": "0x116026a96c9f981aeb6c660c0409cb0ebc31cfff6d464726382f741452a6d723",
          "transactionIndex": "0x19",
          "logIndex": "0x4c",
          "removed": false
        }
      ],
      "status": "0x1",
      "logsBloom": "0x00000000000000000000000000000000000000000000000000000000000000000000000000000000000000000000000000000000000000000000000000200000000000000000000000000000000000000000000000000000000000000000000400000000000080000000000000000000400000000000000000000000400000000000000000000004000000000000000000000000000000000000000000000000020000000000000000000000000000000000000000000000000000000000000000000000000000020000000000000000000000000000000000800000000000000010000000000000000000200000000000000000001000000000000000000000",
      "type": "0x2",
      "effectiveGasPrice": "0x658b28b25"
    },
    {
      "transactionHash": "0xaea98e9dbdfb466c31e327cf0ecfc54224a6a66b82415d5b0a6eaa43c8e75d90",
      "transactionIndex": "0x1a",
      "blockHash": "0x5c8a43474a1f7237968815adb63b370d8cf0bab8b391d17c3a816c36d015fa84",
      "blockNumber": "0x6bc4fc",
      "from": "0xDdb342ecc94236c29a5307d3757d0724D759453C",
      "to": "0xCa14007Eff0dB1f8135f4C25B34De49AB0d42766",
      "cumulativeGasUsed": "0x1015bb1",
      "gasUsed": "0x9be9",
      "contractAddress": null,
      "logs": [
        {
          "address": "0xCa14007Eff0dB1f8135f4C25B34De49AB0d42766",
          "topics": [
            "0xddf252ad1be2c89b69c2b068fc378daa952ba7f163c4a11628f55a4df523b3ef",
            "0x000000000000000000000000ddb342ecc94236c29a5307d3757d0724d759453c",
            "0x00000000000000000000000082066948cc929c4707787cf1214e08ed7d2b1f20"
          ],
          "data": "0x000000000000000000000000000000000000000000000000000000746a528800",
          "blockHash": "0x5c8a43474a1f7237968815adb63b370d8cf0bab8b391d17c3a816c36d015fa84",
          "blockNumber": "0x6bc4fc",
          "transactionHash": "0xaea98e9dbdfb466c31e327cf0ecfc54224a6a66b82415d5b0a6eaa43c8e75d90",
          "transactionIndex": "0x1a",
          "logIndex": "0x4d",
          "removed": false
        }
      ],
      "status": "0x1",
      "logsBloom": "0x00000000000000000000000000000000000000000000000000000000000000000000000000000000000000000000000000000000000000000000000000000000000000000000000000000008000000000000000000000000000000000000000400000000000080000000000000000000400000000000000000000010400000000000000000000004000000000000000000000000000000000000000000000000000000000000000000000000000000000000000000000000000000000000000000000002000000020000000000000000000000000000000000800000000000000000000000000000000000200000000000000000001000000000000000000000",
      "type": "0x2",
      "effectiveGasPrice": "0x658b28b25"
    },
    {
      "transactionHash": "0xfc3130a15d8014d9f91727e3b2c3245c3f5cfc82a38256102bb9d5624f7d8920",
      "transactionIndex": "0x1b",
      "blockHash": "0x5c8a43474a1f7237968815adb63b370d8cf0bab8b391d17c3a816c36d015fa84",
      "blockNumber": "0x6bc4fc",
      "from": "0xDdb342ecc94236c29a5307d3757d0724D759453C",
      "to": "0x82066948CC929c4707787cF1214E08eD7d2B1f20",
      "cumulativeGasUsed": "0x1037d06",
      "gasUsed": "0x22155",
      "contractAddress": null,
      "logs": [
        {
          "address": "0xCa14007Eff0dB1f8135f4C25B34De49AB0d42766",
          "topics": [
            "0x8c5be1e5ebec7d5bd14f71427d1e84f3dd0314c0f7b2291e5b200ac8c7c3b925",
            "0x00000000000000000000000082066948cc929c4707787cf1214e08ed7d2b1f20",
            "0x000000000000000000000000ce5485cfb26914c5dce00b9baf0580364dafc7a4"
          ],
          "data": "0x000000000000000000000000000000000000000000000000000000746a528800",
          "blockHash": "0x5c8a43474a1f7237968815adb63b370d8cf0bab8b391d17c3a816c36d015fa84",
          "blockNumber": "0x6bc4fc",
          "transactionHash": "0xfc3130a15d8014d9f91727e3b2c3245c3f5cfc82a38256102bb9d5624f7d8920",
          "transactionIndex": "0x1b",
          "logIndex": "0x4e",
          "removed": false
        },
        {
          "address": "0xCa14007Eff0dB1f8135f4C25B34De49AB0d42766",
          "topics": [
            "0x8c5be1e5ebec7d5bd14f71427d1e84f3dd0314c0f7b2291e5b200ac8c7c3b925",
            "0x00000000000000000000000082066948cc929c4707787cf1214e08ed7d2b1f20",
            "0x000000000000000000000000ce5485cfb26914c5dce00b9baf0580364dafc7a4"
          ],
          "data": "0x0000000000000000000000000000000000000000000000000000000000000000",
          "blockHash": "0x5c8a43474a1f7237968815adb63b370d8cf0bab8b391d17c3a816c36d015fa84",
          "blockNumber": "0x6bc4fc",
          "transactionHash": "0xfc3130a15d8014d9f91727e3b2c3245c3f5cfc82a38256102bb9d5624f7d8920",
          "transactionIndex": "0x1b",
          "logIndex": "0x4f",
          "removed": false
        },
        {
          "address": "0xCa14007Eff0dB1f8135f4C25B34De49AB0d42766",
          "topics": [
            "0xddf252ad1be2c89b69c2b068fc378daa952ba7f163c4a11628f55a4df523b3ef",
            "0x00000000000000000000000082066948cc929c4707787cf1214e08ed7d2b1f20",
            "0x000000000000000000000000ce5485cfb26914c5dce00b9baf0580364dafc7a4"
          ],
          "data": "0x000000000000000000000000000000000000000000000000000000746a528800",
          "blockHash": "0x5c8a43474a1f7237968815adb63b370d8cf0bab8b391d17c3a816c36d015fa84",
          "blockNumber": "0x6bc4fc",
          "transactionHash": "0xfc3130a15d8014d9f91727e3b2c3245c3f5cfc82a38256102bb9d5624f7d8920",
          "transactionIndex": "0x1b",
          "logIndex": "0x50",
          "removed": false
        },
        {
          "address": "0xE2Bb56ee936fd6433DC0F6e7e3b8365C906AA057",
          "topics": [
            "0xdb80dd488acf86d17c747445b0eabb5d57c541d3bd7b6b87af987858e5066b2b",
            "0x000000000000000000000000ce5485cfb26914c5dce00b9baf0580364dafc7a4",
            "0x0594c1582459ea03f77deaf9eb7e3917d6994a03c13405ba42867f83d85f085d",
            "0x01b64b1b3b690b43b9b514fb81377518f4039cd3e4f4914d8a6bdf01d679fb19"
          ],
          "data": "0x0000000000000000000000000000000000000000000000000000000000000060000000000000000000000000000000000000000000000000000000000000282c00000000000000000000000000000000000000000000000000005af3107a40000000000000000000000000000000000000000000000000000000000000000005000000000000000000000000ca14007eff0db1f8135f4c25b34de49ab0d4276600000000000000000000000082066948cc929c4707787cf1214e08ed7d2b1f20002db4e2fb780be922c23ff0cdeb6b5480c14dcdf62b010c3f94d6df0d4af1db000000000000000000000000000000000000000000000000000000746a5288000000000000000000000000000000000000000000000000000000000000000000",
          "blockHash": "0x5c8a43474a1f7237968815adb63b370d8cf0bab8b391d17c3a816c36d015fa84",
          "blockNumber": "0x6bc4fc",
          "transactionHash": "0xfc3130a15d8014d9f91727e3b2c3245c3f5cfc82a38256102bb9d5624f7d8920",
          "transactionIndex": "0x1b",
          "logIndex": "0x51",
          "removed": false
        },
        {
          "address": "0xcE5485Cfb26914C5dcE00B9BAF0580364daFC7a4",
          "topics": [
            "0x5f971bd00bf3ffbca8a6d72cdd4fd92cfd4f62636161921d1e5a64f0b64ccb6d",
            "0x00000000000000000000000082066948cc929c4707787cf1214e08ed7d2b1f20",
            "0x000000000000000000000000ca14007eff0db1f8135f4c25b34de49ab0d42766",
            "0x002db4e2fb780be922c23ff0cdeb6b5480c14dcdf62b010c3f94d6df0d4af1db"
          ],
          "data": "0x000000000000000000000000000000000000000000000000000000746a528800000000000000000000000000000000000000000000000000000000000000282c00000000000000000000000000000000000000000000000000005af3107a4000",
          "blockHash": "0x5c8a43474a1f7237968815adb63b370d8cf0bab8b391d17c3a816c36d015fa84",
          "blockNumber": "0x6bc4fc",
          "transactionHash": "0xfc3130a15d8014d9f91727e3b2c3245c3f5cfc82a38256102bb9d5624f7d8920",
          "transactionIndex": "0x1b",
          "logIndex": "0x52",
          "removed": false
        }
      ],
      "status": "0x1",
      "logsBloom": "0x00000000000000000200000000020000000000000000000000000000000000400000000000000000000000000000000000000000000004000000000000200000000000000000000000000008080000040000000000000040001000000000000000000000100080000000000000000000000000000000000000000010000008002000000000000004000000000400000000000000000200000000020100000010020000000000000000000020000000001040000000000020000000000000000000000002000000024010000000000000000000200000000000800000000000000010000000010000000000220084000000000000001000000000000000000000",
      "type": "0x2",
      "effectiveGasPrice": "0x658b28b25"
    },
    {
      "transactionHash": "0xc1652a46d47d390199891f016b72a4f60b235322da3413f8cb7dc56771a6a40a",
      "transactionIndex": "0x1c",
      "blockHash": "0x5c8a43474a1f7237968815adb63b370d8cf0bab8b391d17c3a816c36d015fa84",
      "blockNumber": "0x6bc4fc",
      "from": "0xDdb342ecc94236c29a5307d3757d0724D759453C",
      "to": "0xE2Bb56ee936fd6433DC0F6e7e3b8365C906AA057",
      "cumulativeGasUsed": "0x1047b2c",
      "gasUsed": "0xfe26",
      "contractAddress": null,
      "logs": [
        {
          "address": "0xE2Bb56ee936fd6433DC0F6e7e3b8365C906AA057",
          "topics": [
            "0xdb80dd488acf86d17c747445b0eabb5d57c541d3bd7b6b87af987858e5066b2b",
            "0x000000000000000000000000ddb342ecc94236c29a5307d3757d0724d759453c",
            "0x002db4e2fb780be922c23ff0cdeb6b5480c14dcdf62b010c3f94d6df0d4af1db",
            "0x00f1149cade9d692862ad41df96b108aa2c20af34f640457e781d166c98dc6b0"
          ],
          "data": "0x0000000000000000000000000000000000000000000000000000000000000060000000000000000000000000000000000000000000000000000000000000282d00000000000000000000000000000000000000000000000000005af3107a400000000000000000000000000000000000000000000000000000000000000000080000000000000000000000000000000000000000000000000000000000000000000000000000000000000000ddb342ecc94236c29a5307d3757d0724d759453c04718f5a0fc34cc1af16a1cdee98ffb20c31f5cd61d6ab07201858f4287c938d053b40a647cedfca6ca84f542a0fe36736031905a9639a7f19a3c1e66bfd5080000000000000000000000000000000000020c49ba5e353f8000000000000000000000000000000000000000000000000000000000000000000000000673380400000000000000000000000000000000000000000000000000000000067338080000000000000000000000000000000000000000000000000000000746a528800",
          "blockHash": "0x5c8a43474a1f7237968815adb63b370d8cf0bab8b391d17c3a816c36d015fa84",
          "blockNumber": "0x6bc4fc",
          "transactionHash": "0xc1652a46d47d390199891f016b72a4f60b235322da3413f8cb7dc56771a6a40a",
          "transactionIndex": "0x1c",
          "logIndex": "0x53",
          "removed": false
        }
      ],
      "status": "0x1",
      "logsBloom": "0x00400000000000000000000000020000000000000000000000000000000000000000000000000000000000000000000000000000000000000000000000000000000000000000000000000000000000040000000000000040001000000000000400000000100000010000000000000000400000000000000000000000400000000000000000000000000000000000000004000000000000000000000100000010000000000000000000000020000000000040000000000000000000000000000000000000000000000000000000000000000000000000000000000000000000000000000000000000000000000000000000000000000000000000000000000000",
      "type": "0x2",
      "effectiveGasPrice": "0x658b28b25"
    }
  ],
  "libraries": [],
  "pending": [],
  "returns": {},
  "timestamp": 1731428523,
  "chain": 11155111,
  "multi": false,
  "commit": "b1a5e4e"
}