{
  "transactions": [
    {
      "hash": "0xaa53040a1630af1d6dd7d57532814dd5f91bcc88349da04ff61071f8fdaa3460",
      "transactionType": "CALL",
      "contractName": null,
      "contractAddress": "0x4F15BC561C47B12D232aebA8dfb8C21100062c65",
      "function": "initiateWithdrawal(uint256,address)",
      "arguments": [
        "50000000000000000",
        "0x1c7D4B196Cb0C7B01d743Fbc6116a902379C7238"
      ],
      "transaction": {
        "type": "0x02",
        "from": "0xddb342ecc94236c29a5307d3757d0724d759453c",
        "to": "0x4f15bc561c47b12d232aeba8dfb8c21100062c65",
        "gas": "0x1bbb0",
        "value": "0x38d7ea4c68000",
        "data": "0x5443812700000000000000000000000000000000000000000000000000b1a2bc2ec500000000000000000000000000001c7d4b196cb0c7b01d743fbc6116a902379c7238",
        "nonce": "0x348",
        "accessList": []
      },
      "additionalContracts": [],
      "isFixedGasLimit": false
    }
  ],
  "receipts": [
    {
      "transactionHash": "0xaa53040a1630af1d6dd7d57532814dd5f91bcc88349da04ff61071f8fdaa3460",
      "transactionIndex": "0x6",
      "blockHash": "0xf4112096e39fd6f9b33ed3e3829886c7f37b01da6378fad65515a028313d8a46",
      "blockNumber": "0x6c790a",
      "from": "0xDdb342ecc94236c29a5307d3757d0724D759453C",
      "to": "0x4F15BC561C47B12D232aebA8dfb8C21100062c65",
      "cumulativeGasUsed": "0xc3611",
      "gasUsed": "0x12f61",
      "contractAddress": null,
      "logs": [
        {
          "address": "0xE2Bb56ee936fd6433DC0F6e7e3b8365C906AA057",
          "topics": [
            "0xdb80dd488acf86d17c747445b0eabb5d57c541d3bd7b6b87af987858e5066b2b",
            "0x0000000000000000000000004f15bc561c47b12d232aeba8dfb8c21100062c65",
            "0x0429f7a4bd4de9fc98a94cec9163caf6f50a5d7fcec583fa30d2d9bb33a93663",
            "0x00f1149cade9d692862ad41df96b108aa2c20af34f640457e781d166c98dc6b0"
          ],
          "data": "0x000000000000000000000000000000000000000000000000000000000000006000000000000000000000000000000000000000000000000000000000000028c000000000000000000000000000000000000000000000000000038d7ea4c6800000000000000000000000000000000000000000000000000000000000000000090000000000000000000000000000000000000000000000000000000000000002000000000000000000000000ddb342ecc94236c29a5307d3757d0724d759453c00000000000000000000000000000000000000000000000000000000000000000000000000000000000000001c7d4b196cb0c7b01d743fbc6116a902379c723800000000000000000000000000000000000000000000000000000000000000000000000000000000000000000000000000000000000000000000000000000000000000000000000000000000000000000000000000000000000000000000000000000000000000000000000000000000000000000000000000b1a2bc2ec500000000000000000000000000000000000000000000000000000000000000000000",
          "blockHash": "0xf4112096e39fd6f9b33ed3e3829886c7f37b01da6378fad65515a028313d8a46",
          "blockNumber": "0x6c790a",
          "transactionHash": "0xaa53040a1630af1d6dd7d57532814dd5f91bcc88349da04ff61071f8fdaa3460",
          "transactionIndex": "0x6",
          "logIndex": "0x3",
          "removed": false
        },
        {
          "address": "0x4F15BC561C47B12D232aebA8dfb8C21100062c65",
          "topics": [
            "0x6d92f7d3303f995bf21956bb0c51b388bae348eaf45c23debd2cfa3fcd9ec646",
            "0x000000000000000000000000ddb342ecc94236c29a5307d3757d0724d759453c"
          ],
          "data": "0x00000000000000000000000000000000000000000000000000b1a2bc2ec50000",
          "blockHash": "0xf4112096e39fd6f9b33ed3e3829886c7f37b01da6378fad65515a028313d8a46",
          "blockNumber": "0x6c790a",
          "transactionHash": "0xaa53040a1630af1d6dd7d57532814dd5f91bcc88349da04ff61071f8fdaa3460",
          "transactionIndex": "0x6",
          "logIndex": "0x4",
          "removed": false
        }
      ],
      "status": "0x1",
      "logsBloom": "0x00400000000000000000000000020000000000000000000020000000000000000000000000000000000000000000000000000000000000000000000000000000000000000010200000008000000000000000000000000040001000000000000400000000100000010000000000000000400010000000000000000000400000000000000000000000400000000000000004000000000000000000000000000010000000000000000040000020000000000000000000000000000000000000000000000000400000000000000000000000000000000000000000000800000000000000001000000020000000000000000000000000000000000000000000000000",
      "type": "0x2",
      "effectiveGasPrice": "0x1bb0b45b9"
    }
  ],
  "libraries": [],
  "pending": [],
  "returns": {},
  "timestamp": 1732017103,
  "chain": 11155111,
  "multi": false,
  "commit": "2a68d09"
}