{
  "transactions": [
    {
      "hash": "0x264f1a246fff61fb60f9c1ce16d47b205d2dc5b32b7b4366e81f1524d1d7578c",
      "transactionType": "CALL",
      "contractName": null,
      "contractAddress": "0x17ceb8da41205f1026241766328751884afa7fe8",
      "function": "setL2EndpointAddress(uint256)",
      "arguments": [
        "2567391702517330908147284909971791477627590599643031615962519229588461693677"
      ],
      "transaction": {
        "from": "0xddb342ecc94236c29a5307d3757d0724d759453c",
        "to": "0x17ceb8da41205f1026241766328751884afa7fe8",
        "gas": "0x9323",
        "value": "0x0",
        "input": "0x5155fb2f05ad179af127a7c4690ab7e60c6064b5e7f8c41d3be13f67f3a3389d1849aaed",
        "nonce": "0x51b",
        "chainId": "0xaa36a7"
      },
      "additionalContracts": [],
      "isFixedGasLimit": false
    }
  ],
  "receipts": [
    {
      "status": "0x1",
      "cumulativeGasUsed": "0xdcc09c",
      "logs": [
        {
          "address": "0x17ceb8da41205f1026241766328751884afa7fe8",
          "topics": [
            "0xa35dce9e53611b0cabca886209c4a1d09c80214af9b6fb6027f7b2f7c39838e8"
          ],
          "data": "0x05ad179af127a7c4690ab7e60c6064b5e7f8c41d3be13f67f3a3389d1849aaed",
          "blockHash": "0xeed63eb7933a7567c95491a94ed54f5183ccae29e16b831298e9d23e5d8b0c8b",
          "blockNumber": "0x730ecb",
          "transactionHash": "0x264f1a246fff61fb60f9c1ce16d47b205d2dc5b32b7b4366e81f1524d1d7578c",
          "transactionIndex": "0x75",
          "logIndex": "0xf1",
          "removed": false
        }
      ],
      "logsBloom": "0x00000000000000000000000010000000000000000000000000000000000000000000000000000000000000000000000000000000000000000000000000000000000000000000000000000000000200000000000000000000000000000000000000000000000000000000000000000000000000000000000000000000000000000000000000000000000000000000000000000000000000000000000000000000800000000000000000000000000000000000000004000000000000000000002800000000000000000000000000000000000000000000000000000000000000000000000000000000000000000000000000000000000000000000000000000000",
      "type": "0x2",
      "transactionHash": "0x264f1a246fff61fb60f9c1ce16d47b205d2dc5b32b7b4366e81f1524d1d7578c",
      "transactionIndex": "0x75",
      "blockHash": "0xeed63eb7933a7567c95491a94ed54f5183ccae29e16b831298e9d23e5d8b0c8b",
      "blockNumber": "0x730ecb",
      "gasUsed": "0x6a87",
      "effectiveGasPrice": "0x112903dc2",
      "from": "0xddb342ecc94236c29a5307d3757d0724d759453c",
      "to": "0x17ceb8da41205f1026241766328751884afa7fe8",
      "contractAddress": null
    }
  ],
  "libraries": [],
  "pending": [],
  "returns": {},
  "timestamp": 1737469465,
  "chain": 11155111,
  "commit": "fcbff6b"
}