{
  "transactions": [
    {
      "hash": "0xf0247399dcef15783147b294492dd5f8fd30493880a49368b1579be098373e56",
      "transactionType": "CALL",
      "contractName": null,
      "contractAddress": "0xca14007eff0db1f8135f4c25b34de49ab0d42766",
      "function": "approve(address,uint256)",
      "arguments": [
        "0x123F1b6313dC07a874c3168389973f5973345250",
        "115792089237316195423570985008687907853269984665640564039457584007913129639935"
      ],
      "transaction": {
        "from": "0x1b382a7b4496f14e0aaa2da1e1626da400426a03",
        "to": "0xca14007eff0db1f8135f4c25b34de49ab0d42766",
        "gas": "0x93a9",
        "value": "0x0",
        "input": "0x095ea7b3000000000000000000000000123f1b6313dc07a874c3168389973f5973345250ffffffffffffffffffffffffffffffffffffffffffffffffffffffffffffffff",
        "nonce": "0x148",
        "chainId": "0xaa36a7"
      },
      "additionalContracts": [],
      "isFixedGasLimit": false
    },
    {
      "hash": "0x4d1e920f7bcefc94c7d032143337a8806f14f43e20d54a333a38bf147edc57a1",
      "transactionType": "CALL",
      "contractName": null,
      "contractAddress": "0xca14007eff0db1f8135f4c25b34de49ab0d42766",
      "function": "transfer(address,uint256)",
      "arguments": [
        "0x123F1b6313dC07a874c3168389973f5973345250",
        "500000000000"
      ],
      "transaction": {
        "from": "0x1b382a7b4496f14e0aaa2da1e1626da400426a03",
        "to": "0xca14007eff0db1f8135f4c25b34de49ab0d42766",
        "gas": "0x1339c",
        "value": "0x0",
        "input": "0xa9059cbb000000000000000000000000123f1b6313dc07a874c3168389973f5973345250000000000000000000000000000000000000000000000000000000746a528800",
        "nonce": "0x149",
        "chainId": "0xaa36a7"
      },
      "additionalContracts": [],
      "isFixedGasLimit": false
    },
    {
      "hash": "0xd6d281c31c447e61608c01e32fd6bd6730df2d95a8a7e68d54e7f7720a224b77",
      "transactionType": "CALL",
      "contractName": null,
      "contractAddress": "0x123f1b6313dc07a874c3168389973f5973345250",
      "function": "deposit(uint256,uint256)",
      "arguments": [
        "500000000000",
        "2493030131384017533661343118640547849973417062146921809020905069246642587616"
      ],
      "transaction": {
        "from": "0x1b382a7b4496f14e0aaa2da1e1626da400426a03",
        "to": "0x123f1b6313dc07a874c3168389973f5973345250",
        "gas": "0x30231",
        "value": "0x5af3107a4000",
        "input": "0xe2bbb158000000000000000000000000000000000000000000000000000000746a5288000583014af8c7030c842242ff18212c99d011dc6e45cac66e5952c9fee3b307e0",
        "nonce": "0x14a",
        "chainId": "0xaa36a7"
      },
      "additionalContracts": [],
      "isFixedGasLimit": false
    },
    {
      "hash": "0x1674de9625f595a076f6147045bdb5f991234f2eaf84dba8548c2ad44771e475",
      "transactionType": "CALL",
      "contractName": null,
      "contractAddress": "0xe2bb56ee936fd6433dc0f6e7e3b8365c906aa057",
      "function": "sendMessageToL2(uint256,uint256,uint256[])",
      "arguments": [
        "2493030131384017533661343118640547849973417062146921809020905069246642587616",
        "425952401605428413817582304755919420533935873840436977667370850915372091056",
        "[0, 155395293205272889741977291769804687991023757827, 0, 0, 0, 0, 0, 500000000000, 2524392021852001135582825949054576525094493216367559068627275826195272239197]"
      ],
      "transaction": {
        "from": "0x1b382a7b4496f14e0aaa2da1e1626da400426a03",
        "to": "0xe2bb56ee936fd6433dc0f6e7e3b8365c906aa057",
        "gas": "0x15e2e",
        "value": "0x5af3107a4000",
        "input": "0x3e3aa6c50583014af8c7030c842242ff18212c99d011dc6e45cac66e5952c9fee3b307e000f1149cade9d692862ad41df96b108aa2c20af34f640457e781d166c98dc6b00000000000000000000000000000000000000000000000000000000000000060000000000000000000000000000000000000000000000000000000000000000900000000000000000000000000000000000000000000000000000000000000000000000000000000000000001b382a7b4496f14e0aaa2da1e1626da400426a0300000000000000000000000000000000000000000000000000000000000000000000000000000000000000000000000000000000000000000000000000000000000000000000000000000000000000000000000000000000000000000000000000000000000000000000000000000000000000000000000000000000000000000000000000000000000000000000000000000000000000000000000000000000000000000000000000000000000000000000000000000000000000746a5288000594c1582459ea03f77deaf9eb7e3917d6994a03c13405ba42867f83d85f085d",
        "nonce": "0x14b",
        "chainId": "0xaa36a7"
      },
      "additionalContracts": [],
      "isFixedGasLimit": false
    }
  ],
  "receipts": [
    {
      "status": "0x1",
      "cumulativeGasUsed": "0x10a496f",
      "logs": [
        {
          "address": "0xca14007eff0db1f8135f4c25b34de49ab0d42766",
          "topics": [
            "0x8c5be1e5ebec7d5bd14f71427d1e84f3dd0314c0f7b2291e5b200ac8c7c3b925",
            "0x0000000000000000000000001b382a7b4496f14e0aaa2da1e1626da400426a03",
            "0x000000000000000000000000123f1b6313dc07a874c3168389973f5973345250"
          ],
          "data": "0xffffffffffffffffffffffffffffffffffffffffffffffffffffffffffffffff",
          "blockHash": "0xa3ed1a74774081635aac44bfcddb519383a1a0039ae3107e989731b1eb94a0e1",
          "blockNumber": "0x6c007f",
          "transactionHash": "0xf0247399dcef15783147b294492dd5f8fd30493880a49368b1579be098373e56",
          "transactionIndex": "0x53",
          "logIndex": "0x81",
          "removed": false
        }
      ],
      "logsBloom": "0x00000000000000000000000000000000000000000000000000000000000000000000000000000000000000000000000000000000000000000000000000200000000000000000000000000000000000400000000000000000000000000000000000000000000000000000000000000000000000000010000020000000000000040000000000000000000000000000000000000000000000000000000000000000020000000000000000000000000000000000000000000000000000000000000000000000000000020000000000000000000000000000000000800000000000000010000000000000000080000000000400000000001000000000000000000000",
      "type": "0x2",
      "transactionHash": "0xf0247399dcef15783147b294492dd5f8fd30493880a49368b1579be098373e56",
      "transactionIndex": "0x53",
      "blockHash": "0xa3ed1a74774081635aac44bfcddb519383a1a0039ae3107e989731b1eb94a0e1",
      "blockNumber": "0x6c007f",
      "gasUsed": "0x6ae8",
      "effectiveGasPrice": "0xf9089c",
      "blobGasUsed": "0x0",
      "from": "0x1b382a7b4496f14e0aaa2da1e1626da400426a03",
      "to": "0xca14007eff0db1f8135f4c25b34de49ab0d42766",
      "contractAddress": null
    },
    {
      "status": "0x1",
      "cumulativeGasUsed": "0x10b2824",
      "logs": [
        {
          "address": "0xca14007eff0db1f8135f4c25b34de49ab0d42766",
          "topics": [
            "0xddf252ad1be2c89b69c2b068fc378daa952ba7f163c4a11628f55a4df523b3ef",
            "0x0000000000000000000000001b382a7b4496f14e0aaa2da1e1626da400426a03",
            "0x000000000000000000000000123f1b6313dc07a874c3168389973f5973345250"
          ],
          "data": "0x000000000000000000000000000000000000000000000000000000746a528800",
          "blockHash": "0xa3ed1a74774081635aac44bfcddb519383a1a0039ae3107e989731b1eb94a0e1",
          "blockNumber": "0x6c007f",
          "transactionHash": "0x4d1e920f7bcefc94c7d032143337a8806f14f43e20d54a333a38bf147edc57a1",
          "transactionIndex": "0x54",
          "logIndex": "0x82",
          "removed": false
        }
      ],
      "logsBloom": "0x00000000000000000000000000000000000000000000000000000000000000000000000000000000000000000000000000000000000000000000000000000000000000000000000000000008000000400000000000000000000000000000000000000000000000000000000000000000000000000010000020000010000000040000000000000000000000000000000000000000000000000000000000000000000000000000000000000000000000000000000000000000000000000000000000000002000000020000000000000000000000000000000000800000000000000000000000000000000080000000000400000000001000000000000000000000",
      "type": "0x2",
      "transactionHash": "0x4d1e920f7bcefc94c7d032143337a8806f14f43e20d54a333a38bf147edc57a1",
      "transactionIndex": "0x54",
      "blockHash": "0xa3ed1a74774081635aac44bfcddb519383a1a0039ae3107e989731b1eb94a0e1",
      "blockNumber": "0x6c007f",
      "gasUsed": "0xdeb5",
      "effectiveGasPrice": "0xf9089c",
      "blobGasUsed": "0x0",
      "from": "0x1b382a7b4496f14e0aaa2da1e1626da400426a03",
      "to": "0xca14007eff0db1f8135f4c25b34de49ab0d42766",
      "contractAddress": null
    },
    {
      "status": "0x1",
      "cumulativeGasUsed": "0x10d36c5",
      "logs": [
        {
          "address": "0xca14007eff0db1f8135f4c25b34de49ab0d42766",
          "topics": [
            "0x8c5be1e5ebec7d5bd14f71427d1e84f3dd0314c0f7b2291e5b200ac8c7c3b925",
            "0x000000000000000000000000123f1b6313dc07a874c3168389973f5973345250",
            "0x000000000000000000000000ce5485cfb26914c5dce00b9baf0580364dafc7a4"
          ],
          "data": "0x000000000000000000000000000000000000000000000000000000746a528800",
          "blockHash": "0xa3ed1a74774081635aac44bfcddb519383a1a0039ae3107e989731b1eb94a0e1",
          "blockNumber": "0x6c007f",
          "transactionHash": "0xd6d281c31c447e61608c01e32fd6bd6730df2d95a8a7e68d54e7f7720a224b77",
          "transactionIndex": "0x55",
          "logIndex": "0x83",
          "removed": false
        },
        {
          "address": "0xca14007eff0db1f8135f4c25b34de49ab0d42766",
          "topics": [
            "0x8c5be1e5ebec7d5bd14f71427d1e84f3dd0314c0f7b2291e5b200ac8c7c3b925",
            "0x000000000000000000000000123f1b6313dc07a874c3168389973f5973345250",
            "0x000000000000000000000000ce5485cfb26914c5dce00b9baf0580364dafc7a4"
          ],
          "data": "0x0000000000000000000000000000000000000000000000000000000000000000",
          "blockHash": "0xa3ed1a74774081635aac44bfcddb519383a1a0039ae3107e989731b1eb94a0e1",
          "blockNumber": "0x6c007f",
          "transactionHash": "0xd6d281c31c447e61608c01e32fd6bd6730df2d95a8a7e68d54e7f7720a224b77",
          "transactionIndex": "0x55",
          "logIndex": "0x84",
          "removed": false
        },
        {
          "address": "0xca14007eff0db1f8135f4c25b34de49ab0d42766",
          "topics": [
            "0xddf252ad1be2c89b69c2b068fc378daa952ba7f163c4a11628f55a4df523b3ef",
            "0x000000000000000000000000123f1b6313dc07a874c3168389973f5973345250",
            "0x000000000000000000000000ce5485cfb26914c5dce00b9baf0580364dafc7a4"
          ],
          "data": "0x000000000000000000000000000000000000000000000000000000746a528800",
          "blockHash": "0xa3ed1a74774081635aac44bfcddb519383a1a0039ae3107e989731b1eb94a0e1",
          "blockNumber": "0x6c007f",
          "transactionHash": "0xd6d281c31c447e61608c01e32fd6bd6730df2d95a8a7e68d54e7f7720a224b77",
          "transactionIndex": "0x55",
          "logIndex": "0x85",
          "removed": false
        },
        {
          "address": "0xe2bb56ee936fd6433dc0f6e7e3b8365c906aa057",
          "topics": [
            "0xdb80dd488acf86d17c747445b0eabb5d57c541d3bd7b6b87af987858e5066b2b",
            "0x000000000000000000000000ce5485cfb26914c5dce00b9baf0580364dafc7a4",
            "0x0594c1582459ea03f77deaf9eb7e3917d6994a03c13405ba42867f83d85f085d",
            "0x01b64b1b3b690b43b9b514fb81377518f4039cd3e4f4914d8a6bdf01d679fb19"
          ],
          "data": "0x0000000000000000000000000000000000000000000000000000000000000060000000000000000000000000000000000000000000000000000000000000286d00000000000000000000000000000000000000000000000000005af3107a40000000000000000000000000000000000000000000000000000000000000000005000000000000000000000000ca14007eff0db1f8135f4c25b34de49ab0d42766000000000000000000000000123f1b6313dc07a874c3168389973f59733452500583014af8c7030c842242ff18212c99d011dc6e45cac66e5952c9fee3b307e0000000000000000000000000000000000000000000000000000000746a5288000000000000000000000000000000000000000000000000000000000000000000",
          "blockHash": "0xa3ed1a74774081635aac44bfcddb519383a1a0039ae3107e989731b1eb94a0e1",
          "blockNumber": "0x6c007f",
          "transactionHash": "0xd6d281c31c447e61608c01e32fd6bd6730df2d95a8a7e68d54e7f7720a224b77",
          "transactionIndex": "0x55",
          "logIndex": "0x86",
          "removed": false
        },
        {
          "address": "0xce5485cfb26914c5dce00b9baf0580364dafc7a4",
          "topics": [
            "0x5f971bd00bf3ffbca8a6d72cdd4fd92cfd4f62636161921d1e5a64f0b64ccb6d",
            "0x000000000000000000000000123f1b6313dc07a874c3168389973f5973345250",
            "0x000000000000000000000000ca14007eff0db1f8135f4c25b34de49ab0d42766",
            "0x0583014af8c7030c842242ff18212c99d011dc6e45cac66e5952c9fee3b307e0"
          ],
          "data": "0x000000000000000000000000000000000000000000000000000000746a528800000000000000000000000000000000000000000000000000000000000000286d00000000000000000000000000000000000000000000000000005af3107a4000",
          "blockHash": "0xa3ed1a74774081635aac44bfcddb519383a1a0039ae3107e989731b1eb94a0e1",
          "blockNumber": "0x6c007f",
          "transactionHash": "0xd6d281c31c447e61608c01e32fd6bd6730df2d95a8a7e68d54e7f7720a224b77",
          "transactionIndex": "0x55",
          "logIndex": "0x87",
          "removed": false
        }
      ],
      "logsBloom": "0x00000000000000000200000000020000000000000000000000000000000000400000000000000000000000000000000000000400000004000000000000200000000000000000000000000008080000400000000000000040001000000000000000000000100000000000000000000000000000000000000000000010000008002000000000100000000000000400000000000000004200000000020000000010020000000000000000000020000000001000000000000020000000000000000000000002000000024010000000000000000000200000000000800000000000000010000000010000000080020084000400000000001000000000000000000000",
      "type": "0x2",
      "transactionHash": "0xd6d281c31c447e61608c01e32fd6bd6730df2d95a8a7e68d54e7f7720a224b77",
      "transactionIndex": "0x55",
      "blockHash": "0xa3ed1a74774081635aac44bfcddb519383a1a0039ae3107e989731b1eb94a0e1",
      "blockNumber": "0x6c007f",
      "gasUsed": "0x20ea1",
      "effectiveGasPrice": "0xf9089c",
      "blobGasUsed": "0x0",
      "from": "0x1b382a7b4496f14e0aaa2da1e1626da400426a03",
      "to": "0x123f1b6313dc07a874c3168389973f5973345250",
      "contractAddress": null
    },
    {
      "status": "0x1",
      "cumulativeGasUsed": "0x10e344c",
      "logs": [
        {
          "address": "0xe2bb56ee936fd6433dc0f6e7e3b8365c906aa057",
          "topics": [
            "0xdb80dd488acf86d17c747445b0eabb5d57c541d3bd7b6b87af987858e5066b2b",
            "0x0000000000000000000000001b382a7b4496f14e0aaa2da1e1626da400426a03",
            "0x0583014af8c7030c842242ff18212c99d011dc6e45cac66e5952c9fee3b307e0",
            "0x00f1149cade9d692862ad41df96b108aa2c20af34f640457e781d166c98dc6b0"
          ],
          "data": "0x0000000000000000000000000000000000000000000000000000000000000060000000000000000000000000000000000000000000000000000000000000286e00000000000000000000000000000000000000000000000000005af3107a4000000000000000000000000000000000000000000000000000000000000000000900000000000000000000000000000000000000000000000000000000000000000000000000000000000000001b382a7b4496f14e0aaa2da1e1626da400426a0300000000000000000000000000000000000000000000000000000000000000000000000000000000000000000000000000000000000000000000000000000000000000000000000000000000000000000000000000000000000000000000000000000000000000000000000000000000000000000000000000000000000000000000000000000000000000000000000000000000000000000000000000000000000000000000000000000000000000000000000000000000000000746a5288000594c1582459ea03f77deaf9eb7e3917d6994a03c13405ba42867f83d85f085d",
          "blockHash": "0xa3ed1a74774081635aac44bfcddb519383a1a0039ae3107e989731b1eb94a0e1",
          "blockNumber": "0x6c007f",
          "transactionHash": "0x1674de9625f595a076f6147045bdb5f991234f2eaf84dba8548c2ad44771e475",
          "transactionIndex": "0x56",
          "logIndex": "0x88",
          "removed": false
        }
      ],
      "logsBloom": "0x00400000000000000000000000020000000000000000000000000000000000000000000000000000000000000000000000000400000000000000000000000000000000000000000000000000000000000000000000000040001000000000000000000000100000010000000000000000000000000010000020000000000000040000000000100000000000000000000004000000004000000000000000000010000000000000000000000020000000000000000000000000000000000000000000000000000000000000000000000000000000000000000000000000000000000000000000000000000000000000000000000000000000000000000000000000",
      "type": "0x2",
      "transactionHash": "0x1674de9625f595a076f6147045bdb5f991234f2eaf84dba8548c2ad44771e475",
      "transactionIndex": "0x56",
      "blockHash": "0xa3ed1a74774081635aac44bfcddb519383a1a0039ae3107e989731b1eb94a0e1",
      "blockNumber": "0x6c007f",
      "gasUsed": "0xfd87",
      "effectiveGasPrice": "0xf9089c",
      "blobGasUsed": "0x0",
      "from": "0x1b382a7b4496f14e0aaa2da1e1626da400426a03",
      "to": "0xe2bb56ee936fd6433dc0f6e7e3b8365c906aa057",
      "contractAddress": null
    }
  ],
  "libraries": [],
  "pending": [],
  "returns": {},
  "timestamp": 1731622636,
  "chain": 11155111,
  "commit": "8f360e5"
}